{
  "abi": [
    {
      "anonymous": false,
      "inputs": [
        {
          "indexed": false,
          "internalType": "string",
          "name": "message",
          "type": "string"
        }
      ],
      "name": "Notification",
      "type": "event"
    },
    {
      "inputs": [],
      "name": "emitEvent",
      "outputs": [],
      "stateMutability": "nonpayable",
      "type": "function"
    },
    {
      "inputs": [],
      "name": "revertableFunction",
      "outputs": [],
      "stateMutability": "pure",
      "type": "function"
    }
  ],
  "evm": {
    "bytecode": {
      "linkReferences": {},
      "object": "608060405234801561000f575f80fd5b5061016e8061001d5f395ff3fe608060405234801561000f575f80fd5b5060043610610034575f3560e01c80637b0cb83914610038578063dca1c85d14610042575b5f80fd5b61004061004c565b005b61004a610083565b005b7f7d1ff22c1a82f0d8fc4f45d2aec63e679ecb08700b30f7e90ae3721d13b1f6bd604051610079906100ed565b60405180910390a1565b5f6100915761009061010b565b5b565b5f82825260208201905092915050565b7f48656c6c6f20776f726c642100000000000000000000000000000000000000005f82015250565b5f6100d7600c83610093565b91506100e2826100a3565b602082019050919050565b5f6020820190508181035f830152610104816100cb565b9050919050565b7f4e487b71000000000000000000000000000000000000000000000000000000005f52600160045260245ffdfea2646970667358221220e359b28ae24bd18274aacf63aa9ba3ec38df23005d56dafa278ce2c9f6649d7064736f6c63430008180033",
      "opcodes": "PUSH1 0x80 PUSH1 0x40 MSTORE CALLVALUE DUP1 ISZERO PUSH2 0xF JUMPI PUSH0 DUP1 REVERT JUMPDEST POP PUSH2 0x16E DUP1 PUSH2 0x1D PUSH0 CODECOPY PUSH0 RETURN INVALID PUSH1 0x80 PUSH1 0x40 MSTORE CALLVALUE DUP1 ISZERO PUSH2 0xF JUMPI PUSH0 DUP1 REVERT JUMPDEST POP PUSH1 0x4 CALLDATASIZE LT PUSH2 0x34 JUMPI PUSH0 CALLDATALOAD PUSH1 0xE0 SHR DUP1 PUSH4 0x7B0CB839 EQ PUSH2 0x38 JUMPI DUP1 PUSH4 0xDCA1C85D EQ PUSH2 0x42 JUMPI JUMPDEST PUSH0 DUP1 REVERT JUMPDEST PUSH2 0x40 PUSH2 0x4C JUMP JUMPDEST STOP JUMPDEST PUSH2 0x4A PUSH2 0x83 JUMP JUMPDEST STOP JUMPDEST PUSH32 0x7D1FF22C1A82F0D8FC4F45D2AEC63E679ECB08700B30F7E90AE3721D13B1F6BD PUSH1 0x40 MLOAD PUSH2 0x79 SWAP1 PUSH2 0xED JUMP JUMPDEST PUSH1 0x40 MLOAD DUP1 SWAP2 SUB SWAP1 LOG1 JUMP JUMPDEST PUSH0 PUSH2 0x91 JUMPI PUSH2 0x90 PUSH2 0x10B JUMP JUMPDEST JUMPDEST JUMP JUMPDEST PUSH0 DUP3 DUP3 MSTORE PUSH1 0x20 DUP3 ADD SWAP1 POP SWAP3 SWAP2 POP POP JUMP JUMPDEST PUSH32 0x48656C6C6F20776F726C64210000000000000000000000000000000000000000 PUSH0 DUP3 ADD MSTORE POP JUMP JUMPDEST PUSH0 PUSH2 0xD7 PUSH1 0xC DUP4 PUSH2 0x93 JUMP JUMPDEST SWAP2 POP PUSH2 0xE2 DUP3 PUSH2 0xA3 JUMP JUMPDEST PUSH1 0x20 DUP3 ADD SWAP1 POP SWAP2 SWAP1 POP JUMP JUMPDEST PUSH0 PUSH1 0x20 DUP3 ADD SWAP1 POP DUP2 DUP2 SUB PUSH0 DUP4 ADD MSTORE PUSH2 0x104 DUP2 PUSH2 0xCB JUMP JUMPDEST SWAP1 POP SWAP2 SWAP1 POP JUMP JUMPDEST PUSH32 0x4E487B7100000000000000000000000000000000000000000000000000000000 PUSH0 MSTORE PUSH1 0x1 PUSH1 0x4 MSTORE PUSH1 0x24 PUSH0 REVERT INVALID LOG2 PUSH5 0x6970667358 0x22 SLT KECCAK256 0xE3 MSIZE 0xB2 DUP11 0xE2 0x4B 0xD1 DUP3 PUSH21 0xAACF63AA9BA3EC38DF23005D56DAFA278CE2C9F664 SWAP14 PUSH17 0x64736F6C63430008180033000000000000 "
    }
  }
}