{
  "_format": "hh-sol-artifact-1",
  "contractName": "ExampleONFTAdapter",
  "sourceName": "contracts/ExampleONFTAdapter.sol",
  "abi": [
    {
      "inputs": [
        {
          "internalType": "address",
          "name": "_token",
          "type": "address"
        },
        {
          "internalType": "address",
          "name": "_lzEndpoint",
          "type": "address"
        },
        {
          "internalType": "address",
          "name": "_owner",
          "type": "address"
        }
      ],
      "stateMutability": "nonpayable",
      "type": "constructor"
    },
    {
      "inputs": [],
      "name": "InvalidDelegate",
      "type": "error"
    },
    {
      "inputs": [],
      "name": "InvalidEndpointCall",
      "type": "error"
    },
    {
      "inputs": [
        {
          "internalType": "bytes",
          "name": "options",
          "type": "bytes"
        }
      ],
      "name": "InvalidOptions",
      "type": "error"
    },
    {
      "inputs": [],
      "name": "InvalidReceiver",
      "type": "error"
    },
    {
      "inputs": [],
      "name": "LzTokenUnavailable",
      "type": "error"
    },
    {
      "inputs": [
        {
          "internalType": "uint32",
          "name": "eid",
          "type": "uint32"
        }
      ],
      "name": "NoPeer",
      "type": "error"
    },
    {
      "inputs": [
        {
          "internalType": "uint256",
          "name": "msgValue",
          "type": "uint256"
        }
      ],
      "name": "NotEnoughNative",
      "type": "error"
    },
    {
      "inputs": [
        {
          "internalType": "address",
          "name": "addr",
          "type": "address"
        }
      ],
      "name": "OnlyEndpoint",
      "type": "error"
    },
    {
      "inputs": [
        {
          "internalType": "address",
          "name": "caller",
          "type": "address"
        },
        {
          "internalType": "address",
          "name": "owner",
          "type": "address"
        }
      ],
      "name": "OnlyNFTOwner",
      "type": "error"
    },
    {
      "inputs": [
        {
          "internalType": "uint32",
          "name": "eid",
          "type": "uint32"
        },
        {
          "internalType": "bytes32",
          "name": "sender",
          "type": "bytes32"
        }
      ],
      "name": "OnlyPeer",
      "type": "error"
    },
    {
      "inputs": [],
      "name": "OnlySelf",
      "type": "error"
    },
    {
      "inputs": [
        {
          "internalType": "address",
          "name": "owner",
          "type": "address"
        }
      ],
      "name": "OwnableInvalidOwner",
      "type": "error"
    },
    {
      "inputs": [
        {
          "internalType": "address",
          "name": "account",
          "type": "address"
        }
      ],
      "name": "OwnableUnauthorizedAccount",
      "type": "error"
    },
    {
      "inputs": [
        {
          "internalType": "address",
          "name": "token",
          "type": "address"
        }
      ],
      "name": "SafeERC20FailedOperation",
      "type": "error"
    },
    {
      "inputs": [
        {
          "internalType": "bytes",
          "name": "result",
          "type": "bytes"
        }
      ],
      "name": "SimulationResult",
      "type": "error"
    },
    {
      "anonymous": false,
      "inputs": [
        {
          "components": [
            {
              "internalType": "uint32",
              "name": "eid",
              "type": "uint32"
            },
            {
              "internalType": "uint16",
              "name": "msgType",
              "type": "uint16"
            },
            {
              "internalType": "bytes",
              "name": "options",
              "type": "bytes"
            }
          ],
          "indexed": false,
          "internalType": "struct EnforcedOptionParam[]",
          "name": "_enforcedOptions",
          "type": "tuple[]"
        }
      ],
      "name": "EnforcedOptionSet",
      "type": "event"
    },
    {
      "anonymous": false,
      "inputs": [
        {
          "indexed": false,
          "internalType": "address",
          "name": "inspector",
          "type": "address"
        }
      ],
      "name": "MsgInspectorSet",
      "type": "event"
    },
    {
      "anonymous": false,
      "inputs": [
        {
          "indexed": true,
          "internalType": "bytes32",
          "name": "guid",
          "type": "bytes32"
        },
        {
          "indexed": false,
          "internalType": "uint32",
          "name": "srcEid",
          "type": "uint32"
        },
        {
          "indexed": true,
          "internalType": "address",
          "name": "toAddress",
          "type": "address"
        },
        {
          "indexed": false,
          "internalType": "uint256",
          "name": "tokenId",
          "type": "uint256"
        }
      ],
      "name": "ONFTReceived",
      "type": "event"
    },
    {
      "anonymous": false,
      "inputs": [
        {
          "indexed": true,
          "internalType": "bytes32",
          "name": "guid",
          "type": "bytes32"
        },
        {
          "indexed": false,
          "internalType": "uint32",
          "name": "dstEid",
          "type": "uint32"
        },
        {
          "indexed": true,
          "internalType": "address",
          "name": "fromAddress",
          "type": "address"
        },
        {
          "indexed": false,
          "internalType": "uint256",
          "name": "tokenId",
          "type": "uint256"
        }
      ],
      "name": "ONFTSent",
      "type": "event"
    },
    {
      "anonymous": false,
      "inputs": [
        {
          "indexed": true,
          "internalType": "address",
          "name": "previousOwner",
          "type": "address"
        },
        {
          "indexed": true,
          "internalType": "address",
          "name": "newOwner",
          "type": "address"
        }
      ],
      "name": "OwnershipTransferred",
      "type": "event"
    },
    {
      "anonymous": false,
      "inputs": [
        {
          "indexed": false,
          "internalType": "uint32",
          "name": "eid",
          "type": "uint32"
        },
        {
          "indexed": false,
          "internalType": "bytes32",
          "name": "peer",
          "type": "bytes32"
        }
      ],
      "name": "PeerSet",
      "type": "event"
    },
    {
      "anonymous": false,
      "inputs": [
        {
          "indexed": false,
          "internalType": "address",
          "name": "preCrimeAddress",
          "type": "address"
        }
      ],
      "name": "PreCrimeSet",
      "type": "event"
    },
    {
      "inputs": [],
      "name": "SEND",
      "outputs": [
        {
          "internalType": "uint16",
          "name": "",
          "type": "uint16"
        }
      ],
      "stateMutability": "view",
      "type": "function"
    },
    {
      "inputs": [],
      "name": "SEND_AND_COMPOSE",
      "outputs": [
        {
          "internalType": "uint16",
          "name": "",
          "type": "uint16"
        }
      ],
      "stateMutability": "view",
      "type": "function"
    },
    {
      "inputs": [
        {
          "components": [
            {
              "internalType": "uint32",
              "name": "srcEid",
              "type": "uint32"
            },
            {
              "internalType": "bytes32",
              "name": "sender",
              "type": "bytes32"
            },
            {
              "internalType": "uint64",
              "name": "nonce",
              "type": "uint64"
            }
          ],
          "internalType": "struct Origin",
          "name": "origin",
          "type": "tuple"
        }
      ],
      "name": "allowInitializePath",
      "outputs": [
        {
          "internalType": "bool",
          "name": "",
          "type": "bool"
        }
      ],
      "stateMutability": "view",
      "type": "function"
    },
    {
      "inputs": [],
      "name": "approvalRequired",
      "outputs": [
        {
          "internalType": "bool",
          "name": "",
          "type": "bool"
        }
      ],
      "stateMutability": "pure",
      "type": "function"
    },
    {
      "inputs": [
        {
          "internalType": "uint32",
          "name": "_eid",
          "type": "uint32"
        },
        {
          "internalType": "uint16",
          "name": "_msgType",
          "type": "uint16"
        },
        {
          "internalType": "bytes",
          "name": "_extraOptions",
          "type": "bytes"
        }
      ],
      "name": "combineOptions",
      "outputs": [
        {
          "internalType": "bytes",
          "name": "",
          "type": "bytes"
        }
      ],
      "stateMutability": "view",
      "type": "function"
    },
    {
      "inputs": [],
      "name": "endpoint",
      "outputs": [
        {
          "internalType": "contract ILayerZeroEndpointV2",
          "name": "",
          "type": "address"
        }
      ],
      "stateMutability": "view",
      "type": "function"
    },
    {
      "inputs": [
        {
          "internalType": "uint32",
          "name": "eid",
          "type": "uint32"
        },
        {
          "internalType": "uint16",
          "name": "msgType",
          "type": "uint16"
        }
      ],
      "name": "enforcedOptions",
      "outputs": [
        {
          "internalType": "bytes",
          "name": "enforcedOption",
          "type": "bytes"
        }
      ],
      "stateMutability": "view",
      "type": "function"
    },
    {
      "inputs": [
        {
          "components": [
            {
              "internalType": "uint32",
              "name": "srcEid",
              "type": "uint32"
            },
            {
              "internalType": "bytes32",
              "name": "sender",
              "type": "bytes32"
            },
            {
              "internalType": "uint64",
              "name": "nonce",
              "type": "uint64"
            }
          ],
          "internalType": "struct Origin",
          "name": "",
          "type": "tuple"
        },
        {
          "internalType": "bytes",
          "name": "",
          "type": "bytes"
        },
        {
          "internalType": "address",
          "name": "_sender",
          "type": "address"
        }
      ],
      "name": "isComposeMsgSender",
      "outputs": [
        {
          "internalType": "bool",
          "name": "",
          "type": "bool"
        }
      ],
      "stateMutability": "view",
      "type": "function"
    },
    {
      "inputs": [
        {
          "internalType": "uint32",
          "name": "_eid",
          "type": "uint32"
        },
        {
          "internalType": "bytes32",
          "name": "_peer",
          "type": "bytes32"
        }
      ],
      "name": "isPeer",
      "outputs": [
        {
          "internalType": "bool",
          "name": "",
          "type": "bool"
        }
      ],
      "stateMutability": "view",
      "type": "function"
    },
    {
      "inputs": [
        {
          "components": [
            {
              "internalType": "uint32",
              "name": "srcEid",
              "type": "uint32"
            },
            {
              "internalType": "bytes32",
              "name": "sender",
              "type": "bytes32"
            },
            {
              "internalType": "uint64",
              "name": "nonce",
              "type": "uint64"
            }
          ],
          "internalType": "struct Origin",
          "name": "_origin",
          "type": "tuple"
        },
        {
          "internalType": "bytes32",
          "name": "_guid",
          "type": "bytes32"
        },
        {
          "internalType": "bytes",
          "name": "_message",
          "type": "bytes"
        },
        {
          "internalType": "address",
          "name": "_executor",
          "type": "address"
        },
        {
          "internalType": "bytes",
          "name": "_extraData",
          "type": "bytes"
        }
      ],
      "name": "lzReceive",
      "outputs": [],
      "stateMutability": "payable",
      "type": "function"
    },
    {
      "inputs": [
        {
          "components": [
            {
              "components": [
                {
                  "internalType": "uint32",
                  "name": "srcEid",
                  "type": "uint32"
                },
                {
                  "internalType": "bytes32",
                  "name": "sender",
                  "type": "bytes32"
                },
                {
                  "internalType": "uint64",
                  "name": "nonce",
                  "type": "uint64"
                }
              ],
              "internalType": "struct Origin",
              "name": "origin",
              "type": "tuple"
            },
            {
              "internalType": "uint32",
              "name": "dstEid",
              "type": "uint32"
            },
            {
              "internalType": "address",
              "name": "receiver",
              "type": "address"
            },
            {
              "internalType": "bytes32",
              "name": "guid",
              "type": "bytes32"
            },
            {
              "internalType": "uint256",
              "name": "value",
              "type": "uint256"
            },
            {
              "internalType": "address",
              "name": "executor",
              "type": "address"
            },
            {
              "internalType": "bytes",
              "name": "message",
              "type": "bytes"
            },
            {
              "internalType": "bytes",
              "name": "extraData",
              "type": "bytes"
            }
          ],
          "internalType": "struct InboundPacket[]",
          "name": "_packets",
          "type": "tuple[]"
        }
      ],
      "name": "lzReceiveAndRevert",
      "outputs": [],
      "stateMutability": "payable",
      "type": "function"
    },
    {
      "inputs": [
        {
          "components": [
            {
              "internalType": "uint32",
              "name": "srcEid",
              "type": "uint32"
            },
            {
              "internalType": "bytes32",
              "name": "sender",
              "type": "bytes32"
            },
            {
              "internalType": "uint64",
              "name": "nonce",
              "type": "uint64"
            }
          ],
          "internalType": "struct Origin",
          "name": "_origin",
          "type": "tuple"
        },
        {
          "internalType": "bytes32",
          "name": "_guid",
          "type": "bytes32"
        },
        {
          "internalType": "bytes",
          "name": "_message",
          "type": "bytes"
        },
        {
          "internalType": "address",
          "name": "_executor",
          "type": "address"
        },
        {
          "internalType": "bytes",
          "name": "_extraData",
          "type": "bytes"
        }
      ],
      "name": "lzReceiveSimulate",
      "outputs": [],
      "stateMutability": "payable",
      "type": "function"
    },
    {
      "inputs": [],
      "name": "msgInspector",
      "outputs": [
        {
          "internalType": "address",
          "name": "",
          "type": "address"
        }
      ],
      "stateMutability": "view",
      "type": "function"
    },
    {
      "inputs": [
        {
          "internalType": "uint32",
          "name": "",
          "type": "uint32"
        },
        {
          "internalType": "bytes32",
          "name": "",
          "type": "bytes32"
        }
      ],
      "name": "nextNonce",
      "outputs": [
        {
          "internalType": "uint64",
          "name": "nonce",
          "type": "uint64"
        }
      ],
      "stateMutability": "view",
      "type": "function"
    },
    {
      "inputs": [],
      "name": "oApp",
      "outputs": [
        {
          "internalType": "address",
          "name": "",
          "type": "address"
        }
      ],
      "stateMutability": "view",
      "type": "function"
    },
    {
      "inputs": [],
      "name": "oAppVersion",
      "outputs": [
        {
          "internalType": "uint64",
          "name": "senderVersion",
          "type": "uint64"
        },
        {
          "internalType": "uint64",
          "name": "receiverVersion",
          "type": "uint64"
        }
      ],
      "stateMutability": "pure",
      "type": "function"
    },
    {
      "inputs": [],
      "name": "onftVersion",
      "outputs": [
        {
          "internalType": "bytes4",
          "name": "interfaceId",
          "type": "bytes4"
        },
        {
          "internalType": "uint64",
          "name": "version",
          "type": "uint64"
        }
      ],
      "stateMutability": "pure",
      "type": "function"
    },
    {
      "inputs": [],
      "name": "owner",
      "outputs": [
        {
          "internalType": "address",
          "name": "",
          "type": "address"
        }
      ],
      "stateMutability": "view",
      "type": "function"
    },
    {
      "inputs": [
        {
          "internalType": "uint32",
          "name": "eid",
          "type": "uint32"
        }
      ],
      "name": "peers",
      "outputs": [
        {
          "internalType": "bytes32",
          "name": "peer",
          "type": "bytes32"
        }
      ],
      "stateMutability": "view",
      "type": "function"
    },
    {
      "inputs": [],
      "name": "preCrime",
      "outputs": [
        {
          "internalType": "address",
          "name": "",
          "type": "address"
        }
      ],
      "stateMutability": "view",
      "type": "function"
    },
    {
      "inputs": [
        {
          "components": [
            {
              "internalType": "uint32",
              "name": "dstEid",
              "type": "uint32"
            },
            {
              "internalType": "bytes32",
              "name": "to",
              "type": "bytes32"
            },
            {
              "internalType": "uint256",
              "name": "tokenId",
              "type": "uint256"
            },
            {
              "internalType": "bytes",
              "name": "extraOptions",
              "type": "bytes"
            },
            {
              "internalType": "bytes",
              "name": "composeMsg",
              "type": "bytes"
            },
            {
              "internalType": "bytes",
              "name": "onftCmd",
              "type": "bytes"
            }
          ],
          "internalType": "struct SendParam",
          "name": "_sendParam",
          "type": "tuple"
        },
        {
          "internalType": "bool",
          "name": "_payInLzToken",
          "type": "bool"
        }
      ],
      "name": "quoteSend",
      "outputs": [
        {
          "components": [
            {
              "internalType": "uint256",
              "name": "nativeFee",
              "type": "uint256"
            },
            {
              "internalType": "uint256",
              "name": "lzTokenFee",
              "type": "uint256"
            }
          ],
          "internalType": "struct MessagingFee",
          "name": "msgFee",
          "type": "tuple"
        }
      ],
      "stateMutability": "view",
      "type": "function"
    },
    {
      "inputs": [],
      "name": "renounceOwnership",
      "outputs": [],
      "stateMutability": "nonpayable",
      "type": "function"
    },
    {
      "inputs": [
        {
          "components": [
            {
              "internalType": "uint32",
              "name": "dstEid",
              "type": "uint32"
            },
            {
              "internalType": "bytes32",
              "name": "to",
              "type": "bytes32"
            },
            {
              "internalType": "uint256",
              "name": "tokenId",
              "type": "uint256"
            },
            {
              "internalType": "bytes",
              "name": "extraOptions",
              "type": "bytes"
            },
            {
              "internalType": "bytes",
              "name": "composeMsg",
              "type": "bytes"
            },
            {
              "internalType": "bytes",
              "name": "onftCmd",
              "type": "bytes"
            }
          ],
          "internalType": "struct SendParam",
          "name": "_sendParam",
          "type": "tuple"
        },
        {
          "components": [
            {
              "internalType": "uint256",
              "name": "nativeFee",
              "type": "uint256"
            },
            {
              "internalType": "uint256",
              "name": "lzTokenFee",
              "type": "uint256"
            }
          ],
          "internalType": "struct MessagingFee",
          "name": "_fee",
          "type": "tuple"
        },
        {
          "internalType": "address",
          "name": "_refundAddress",
          "type": "address"
        }
      ],
      "name": "send",
      "outputs": [
        {
          "components": [
            {
              "internalType": "bytes32",
              "name": "guid",
              "type": "bytes32"
            },
            {
              "internalType": "uint64",
              "name": "nonce",
              "type": "uint64"
            },
            {
              "components": [
                {
                  "internalType": "uint256",
                  "name": "nativeFee",
                  "type": "uint256"
                },
                {
                  "internalType": "uint256",
                  "name": "lzTokenFee",
                  "type": "uint256"
                }
              ],
              "internalType": "struct MessagingFee",
              "name": "fee",
              "type": "tuple"
            }
          ],
          "internalType": "struct MessagingReceipt",
          "name": "msgReceipt",
          "type": "tuple"
        }
      ],
      "stateMutability": "payable",
      "type": "function"
    },
    {
      "inputs": [
        {
          "internalType": "address",
          "name": "_delegate",
          "type": "address"
        }
      ],
      "name": "setDelegate",
      "outputs": [],
      "stateMutability": "nonpayable",
      "type": "function"
    },
    {
      "inputs": [
        {
          "components": [
            {
              "internalType": "uint32",
              "name": "eid",
              "type": "uint32"
            },
            {
              "internalType": "uint16",
              "name": "msgType",
              "type": "uint16"
            },
            {
              "internalType": "bytes",
              "name": "options",
              "type": "bytes"
            }
          ],
          "internalType": "struct EnforcedOptionParam[]",
          "name": "_enforcedOptions",
          "type": "tuple[]"
        }
      ],
      "name": "setEnforcedOptions",
      "outputs": [],
      "stateMutability": "nonpayable",
      "type": "function"
    },
    {
      "inputs": [
        {
          "internalType": "address",
          "name": "_msgInspector",
          "type": "address"
        }
      ],
      "name": "setMsgInspector",
      "outputs": [],
      "stateMutability": "nonpayable",
      "type": "function"
    },
    {
      "inputs": [
        {
          "internalType": "uint32",
          "name": "_eid",
          "type": "uint32"
        },
        {
          "internalType": "bytes32",
          "name": "_peer",
          "type": "bytes32"
        }
      ],
      "name": "setPeer",
      "outputs": [],
      "stateMutability": "nonpayable",
      "type": "function"
    },
    {
      "inputs": [
        {
          "internalType": "address",
          "name": "_preCrime",
          "type": "address"
        }
      ],
      "name": "setPreCrime",
      "outputs": [],
      "stateMutability": "nonpayable",
      "type": "function"
    },
    {
      "inputs": [],
      "name": "token",
      "outputs": [
        {
          "internalType": "address",
          "name": "",
          "type": "address"
        }
      ],
      "stateMutability": "view",
      "type": "function"
    },
    {
      "inputs": [
        {
          "internalType": "address",
          "name": "newOwner",
          "type": "address"
        }
      ],
      "name": "transferOwnership",
      "outputs": [],
      "stateMutability": "nonpayable",
      "type": "function"
    }
  ],
  "bytecode": "0x60c06040523480156200001157600080fd5b506040516200281f3803806200281f833981016040819052620000349162000195565b828282818181818181806001600160a01b0381166200006d57604051631e4fbdf760e01b81526000600482015260240160405180910390fd5b620000788162000128565b506001600160a01b038083166080528116620000a757604051632d618d8160e21b815260040160405180910390fd5b60805160405163ca5eb5e160e01b81526001600160a01b0383811660048301529091169063ca5eb5e190602401600060405180830381600087803b158015620000ef57600080fd5b505af115801562000104573d6000803e3d6000fd5b5050506001600160a01b0390991660a05250620001df9a5050505050505050505050565b600080546001600160a01b038381166001600160a01b0319831681178455604051919092169283917f8be0079c531659141344cd1fd0a4f28419497f9722a3daafe3b4186f6b6457e09190a35050565b80516001600160a01b03811681146200019057600080fd5b919050565b600080600060608486031215620001ab57600080fd5b620001b68462000178565b9250620001c66020850162000178565b9150620001d66040850162000178565b90509250925092565b60805160a0516125db62000244600039600081816105ae01528181610f8c0152611567015260008181610330015281816105f401528181610c6d01528181610e8e015281816111570152818161144a015281816116a1015261175801526125db6000f3fe6080604052600436106101cd5760003560e01c80639f68b964116100f7578063bd815db011610095578063d424388511610064578063d42438851461055f578063f2fde38b1461057f578063fc0c546a1461059f578063ff7bd03d146105d257600080fd5b8063bd815db0146104ec578063c6414e7b146104ff578063ca5eb5e11461052c578063d045a0dc1461054c57600080fd5b8063b731ea0a116100d1578063b731ea0a14610451578063b98bd07014610471578063bb0b6a5314610491578063bc70b354146104cc57600080fd5b80639f68b96414610400578063a72f5dd814610414578063b21a33e41461043c57600080fd5b80635535d4611161016f578063715018a61161013e578063715018a6146103725780637d25a05e1461038757806382413eac146103c25780638da5cb5b146103e257600080fd5b80635535d461146102c15780635a0dfe4d146102ee5780635e280f111461031e5780636fc1b31e1461035257600080fd5b80631f5e1334116101ab5780631f5e13341461024657806321eb730b1461026e5780633400288b1461028e57806352ae2879146102ae57600080fd5b8063111ecdad146101d257806313137d651461020f57806317442b7014610224575b600080fd5b3480156101de57600080fd5b506004546101f2906001600160a01b031681565b6040516001600160a01b0390911681526020015b60405180910390f35b61022261021d366004611902565b6105f2565b005b34801561023057600080fd5b5060408051600181526002602082015201610206565b34801561025257600080fd5b5061025b600181565b60405161ffff9091168152602001610206565b61028161027c3660046119b3565b6106b2565b6040516102069190611a20565b34801561029a57600080fd5b506102226102a9366004611a7b565b61076b565b3480156102ba57600080fd5b50306101f2565b3480156102cd57600080fd5b506102e16102dc366004611ab7565b610781565b6040516102069190611b3a565b3480156102fa57600080fd5b5061030e610309366004611a7b565b610826565b6040519015158152602001610206565b34801561032a57600080fd5b506101f27f000000000000000000000000000000000000000000000000000000000000000081565b34801561035e57600080fd5b5061022261036d366004611b4d565b610845565b34801561037e57600080fd5b506102226108a2565b34801561039357600080fd5b506103aa6103a2366004611a7b565b600092915050565b6040516001600160401b039091168152602001610206565b3480156103ce57600080fd5b5061030e6103dd366004611b6a565b6108b6565b3480156103ee57600080fd5b506000546001600160a01b03166101f2565b34801561040c57600080fd5b50600161030e565b34801561042057600080fd5b50604080516311f0c6d360e11b81526001602082015201610206565b34801561044857600080fd5b5061025b600281565b34801561045d57600080fd5b506002546101f2906001600160a01b031681565b34801561047d57600080fd5b5061022261048c366004611c14565b6108cb565b34801561049d57600080fd5b506104be6104ac366004611c55565b60016020526000908152604090205481565b604051908152602001610206565b3480156104d857600080fd5b506102e16104e7366004611c70565b6108e5565b6102226104fa366004611c14565b610a8d565b34801561050b57600080fd5b5061051f61051a366004611cde565b610c00565b6040516102069190611d2f565b34801561053857600080fd5b50610222610547366004611b4d565b610c46565b61022261055a366004611902565b610ccc565b34801561056b57600080fd5b5061022261057a366004611b4d565b610cfb565b34801561058b57600080fd5b5061022261059a366004611b4d565b610d51565b3480156105ab57600080fd5b507f00000000000000000000000000000000000000000000000000000000000000006101f2565b3480156105de57600080fd5b5061030e6105ed366004611d46565b610d8f565b7f00000000000000000000000000000000000000000000000000000000000000006001600160a01b03163314610642576040516391ac5e4f60e01b81523360048201526024015b60405180910390fd5b6020870180359061065c90610657908a611c55565b610dc5565b1461069a5761066e6020880188611c55565b60405163309afaf360e21b815263ffffffff909116600482015260208801356024820152604401610639565b6106a987878787878787610e01565b50505050505050565b6106ba611846565b6106d53360408601356106d06020880188611c55565b610f60565b6000806106e186610fe5565b909250905061070d6106f66020880188611c55565b8383610707368a90038a018a611df2565b88611124565b805190935033907f986156872b2ee0022b9585231dbbfde457f87f8a16b6c45e1a81c54c4ad8351f61074260208a018a611c55565b6040805163ffffffff9092168252808b013560208301520160405180910390a350509392505050565b61077361122f565b61077d828261125c565b5050565b6003602090815260009283526040808420909152908252902080546107a590611e24565b80601f01602080910402602001604051908101604052809291908181526020018280546107d190611e24565b801561081e5780601f106107f35761010080835404028352916020019161081e565b820191906000526020600020905b81548152906001019060200180831161080157829003601f168201915b505050505081565b63ffffffff821660009081526001602052604090205481145b92915050565b61084d61122f565b600480546001600160a01b0319166001600160a01b0383169081179091556040519081527ff0be4f1e87349231d80c36b33f9e8639658eeaf474014dee15a3e6a4d4414197906020015b60405180910390a150565b6108aa61122f565b6108b460006112b1565b565b6001600160a01b03811630145b949350505050565b6108d361122f565b61077d6108e08284611e7f565b611301565b63ffffffff8416600090815260036020908152604080832061ffff8716845290915281208054606092919061091990611e24565b80601f016020809104026020016040519081016040528092919081815260200182805461094590611e24565b80156109925780601f1061096757610100808354040283529160200191610992565b820191906000526020600020905b81548152906001019060200180831161097557829003601f168201915b5050505050905080516000036109e25783838080601f0160208091040260200160405190810160405280939291908181526020018383808284376000920191909152509294506108c39350505050565b60008390036109f25790506108c3565b60028310610a7057610a3984848080601f01602080910402602001604051908101604052809392919081815260200183838082843760009201919091525061140892505050565b80610a478460028188611f94565b604051602001610a5993929190611fbe565b6040516020818303038152906040529150506108c3565b8383604051639a6d49cd60e01b815260040161063992919061200f565b60005b81811015610b7f5736838383818110610aab57610aab612023565b9050602002810190610abd9190612039565b9050610ad9610acf6020830183611c55565b6020830135610826565b610ae35750610b77565b3063d045a0dc60c08301358360a0810135610b0261010083018361205a565b610b13610100890160e08a01611b4d565b610b216101208a018a61205a565b6040518963ffffffff1660e01b8152600401610b4397969594939291906120b5565b6000604051808303818588803b158015610b5c57600080fd5b505af1158015610b70573d6000803e3d6000fd5b5050505050505b600101610a90565b50336001600160a01b0316638e9e70996040518163ffffffff1660e01b8152600401600060405180830381865afa158015610bbe573d6000803e3d6000fd5b505050506040513d6000823e601f3d908101601f19168201604052610be6919081019061213b565b604051638351eea760e01b81526004016106399190611b3a565b6040805180820190915260008082526020820152600080610c2085610fe5565b9092509050610c3d610c356020870187611c55565b838387611434565b95945050505050565b610c4e61122f565b60405163ca5eb5e160e01b81526001600160a01b0382811660048301527f0000000000000000000000000000000000000000000000000000000000000000169063ca5eb5e190602401600060405180830381600087803b158015610cb157600080fd5b505af1158015610cc5573d6000803e3d6000fd5b5050505050565b333014610cec5760405163029a949d60e31b815260040160405180910390fd5b6106a98787878787878761069a565b610d0361122f565b600280546001600160a01b0319166001600160a01b0383169081179091556040519081527fd48d879cef83a1c0bdda516f27b13ddb1b3f8bbac1c9e1511bb2a659c242776090602001610897565b610d5961122f565b6001600160a01b038116610d8357604051631e4fbdf760e01b815260006004820152602401610639565b610d8c816112b1565b50565b6000602082018035906001908390610da79086611c55565b63ffffffff1681526020810191909152604001600020541492915050565b63ffffffff81166000908152600160205260408120548061083f5760405163f6ff4fb760e01b815263ffffffff84166004820152602401610639565b6000610e13610e10878761150c565b90565b90506000610e21878761152b565b9050610e3a8282610e3560208d018d611c55565b61153b565b6040861115610efe576000610e74610e5860608c0160408d016121a8565b610e6560208d018d611c55565b610e6f8b8b611596565b6115e1565b604051633e5ac80960e11b81529091506001600160a01b037f00000000000000000000000000000000000000000000000000000000000000001690637cb5901290610eca9086908d9060009087906004016121c5565b600060405180830381600087803b158015610ee457600080fd5b505af1158015610ef8573d6000803e3d6000fd5b50505050505b6001600160a01b038216887f7883fa30ea56937810e36990b0bbb8d629d0cf59f68baf8431ff657cebe7eef5610f3760208d018d611c55565b6040805163ffffffff9092168252602082018690520160405180910390a3505050505050505050565b6040516323b872dd60e01b81526001600160a01b038481166004830152306024830152604482018490527f000000000000000000000000000000000000000000000000000000000000000016906323b872dd906064015b600060405180830381600087803b158015610fd157600080fd5b505af11580156106a9573d6000803e3d6000fd5b606080602083013561100a57604051631e4ec46b60e01b815260040160405180910390fd5b600061106060208501356040860135611026608088018861205a565b8080601f01602080910402602001604051908101604052809392919081815260200183838082843760009201919091525061161092505050565b9093509050600081611073576001611076565b60025b90506110966110886020870187611c55565b826104e7606089018961205a565b6004549093506001600160a01b0316801561111c5760405163043a78eb60e01b81526001600160a01b0382169063043a78eb906110d99088908890600401612200565b602060405180830381865afa1580156110f6573d6000803e3d6000fd5b505050506040513d601f19601f8201168201806040525081019061111a9190612225565b505b505050915091565b61112c611846565b600061113b8460000151611675565b60208501519091501561115557611155846020015161169d565b7f00000000000000000000000000000000000000000000000000000000000000006001600160a01b0316632637a450826040518060a001604052808b63ffffffff1681526020016111a58c610dc5565b81526020018a815260200189815260200160008960200151111515815250866040518463ffffffff1660e01b81526004016111e1929190612242565b60806040518083038185885af11580156111ff573d6000803e3d6000fd5b50505050506040513d601f19601f8201168201806040525081019061122491906122eb565b979650505050505050565b6000546001600160a01b031633146108b45760405163118cdaa760e01b8152336004820152602401610639565b63ffffffff8216600081815260016020908152604091829020849055815192835282018390527f238399d427b947898edb290f5ff0f9109849b1c3ba196a42e35f00c50a54b98b910160405180910390a15050565b600080546001600160a01b038381166001600160a01b0319831681178455604051919092169283917f8be0079c531659141344cd1fd0a4f28419497f9722a3daafe3b4186f6b6457e09190a35050565b60005b81518110156113d85761133382828151811061132257611322612023565b602002602001015160400151611408565b81818151811061134557611345612023565b6020026020010151604001516003600084848151811061136757611367612023565b60200260200101516000015163ffffffff1663ffffffff16815260200190815260200160002060008484815181106113a1576113a1612023565b60200260200101516020015161ffff1661ffff16815260200190815260200160002090816113cf9190612386565b50600101611304565b507fbe4864a8e820971c0247f5992e2da559595f7bf076a21cb5928d443d2a13b674816040516108979190612445565b600281015161ffff811660031461077d5781604051639a6d49cd60e01b81526004016106399190611b3a565b60408051808201909152600080825260208201527f00000000000000000000000000000000000000000000000000000000000000006001600160a01b031663ddc28c586040518060a001604052808863ffffffff16815260200161149789610dc5565b8152602001878152602001868152602001851515815250306040518363ffffffff1660e01b81526004016114cc929190612242565b6040805180830381865afa1580156114e8573d6000803e3d6000fd5b505050506040513d601f19601f82011682018060405250810190610c3d91906124d0565b600061151b6020828486611f94565b611524916124ec565b9392505050565b600061151b604060208486611f94565b6040516323b872dd60e01b81523060048201526001600160a01b038481166024830152604482018490527f000000000000000000000000000000000000000000000000000000000000000016906323b872dd90606401610fb7565b60606115a58260408186611f94565b8080601f016020809104026020016040519081016040528093929190818152602001838380828437600092019190915250929695505050505050565b60608383836040516020016115f89392919061250a565b60405160208183030381529060405290509392505050565b805160609015158061164457604080516020810187905290810185905260600160405160208183030381529060405261166b565b8484338560405160200161165b9493929190612554565b6040516020818303038152906040525b9150935093915050565b6000813414611699576040516304fb820960e51b8152346004820152602401610639565b5090565b60007f00000000000000000000000000000000000000000000000000000000000000006001600160a01b031663e4fe1d946040518163ffffffff1660e01b8152600401602060405180830381865afa1580156116fd573d6000803e3d6000fd5b505050506040513d601f19601f820116820180604052508101906117219190612588565b90506001600160a01b03811661174a576040516329b99a9560e11b815260040160405180910390fd5b6040805133602482018190527f00000000000000000000000000000000000000000000000000000000000000006001600160a01b03818116604485015260648085018890528551808603909101815260849094019094526020830180516001600160e01b03166323b872dd60e01b17905261077d9385169286906117cf9085906117d5565b50505050565b600080602060008451602086016000885af1806117f8576040513d6000823e3d81fd5b50506000513d9150811561181057806001141561181d565b6001600160a01b0384163b155b156117cf57604051635274afe760e01b81526001600160a01b0385166004820152602401610639565b60405180606001604052806000801916815260200160006001600160401b03168152602001611888604051806040016040528060008152602001600081525090565b905290565b60006060828403121561189f57600080fd5b50919050565b60008083601f8401126118b757600080fd5b5081356001600160401b038111156118ce57600080fd5b6020830191508360208285010111156118e657600080fd5b9250929050565b6001600160a01b0381168114610d8c57600080fd5b600080600080600080600060e0888a03121561191d57600080fd5b611927898961188d565b96506060880135955060808801356001600160401b038082111561194a57600080fd5b6119568b838c016118a5565b909750955060a08a0135915061196b826118ed565b90935060c0890135908082111561198157600080fd5b5061198e8a828b016118a5565b989b979a50959850939692959293505050565b600060c0828403121561189f57600080fd5b600080600083850360808112156119c957600080fd5b84356001600160401b038111156119df57600080fd5b6119eb878288016119a1565b9450506040601f1982011215611a0057600080fd5b506020840191506060840135611a15816118ed565b809150509250925092565b6000608082019050825182526001600160401b0360208401511660208301526040830151611a5b604084018280518252602090810151910152565b5092915050565b803563ffffffff81168114611a7657600080fd5b919050565b60008060408385031215611a8e57600080fd5b611a9783611a62565b946020939093013593505050565b803561ffff81168114611a7657600080fd5b60008060408385031215611aca57600080fd5b611ad383611a62565b9150611ae160208401611aa5565b90509250929050565b60005b83811015611b05578181015183820152602001611aed565b50506000910152565b60008151808452611b26816020860160208601611aea565b601f01601f19169290920160200192915050565b6020815260006115246020830184611b0e565b600060208284031215611b5f57600080fd5b8135611524816118ed565b60008060008060a08587031215611b8057600080fd5b611b8a868661188d565b935060608501356001600160401b03811115611ba557600080fd5b611bb1878288016118a5565b9094509250506080850135611bc5816118ed565b939692955090935050565b60008083601f840112611be257600080fd5b5081356001600160401b03811115611bf957600080fd5b6020830191508360208260051b85010111156118e657600080fd5b60008060208385031215611c2757600080fd5b82356001600160401b03811115611c3d57600080fd5b611c4985828601611bd0565b90969095509350505050565b600060208284031215611c6757600080fd5b61152482611a62565b60008060008060608587031215611c8657600080fd5b611c8f85611a62565b9350611c9d60208601611aa5565b925060408501356001600160401b03811115611cb857600080fd5b611cc4878288016118a5565b95989497509550505050565b8015158114610d8c57600080fd5b60008060408385031215611cf157600080fd5b82356001600160401b03811115611d0757600080fd5b611d13858286016119a1565b9250506020830135611d2481611cd0565b809150509250929050565b81518152602080830151908201526040810161083f565b600060608284031215611d5857600080fd5b611524838361188d565b634e487b7160e01b600052604160045260246000fd5b604080519081016001600160401b0381118282101715611d9a57611d9a611d62565b60405290565b604051606081016001600160401b0381118282101715611d9a57611d9a611d62565b604051601f8201601f191681016001600160401b0381118282101715611dea57611dea611d62565b604052919050565b600060408284031215611e0457600080fd5b611e0c611d78565b82358152602083013560208201528091505092915050565b600181811c90821680611e3857607f821691505b60208210810361189f57634e487b7160e01b600052602260045260246000fd5b60006001600160401b03821115611e7157611e71611d62565b50601f01601f191660200190565b60006001600160401b0380841115611e9957611e99611d62565b8360051b6020611eaa818301611dc2565b868152918501918181019036841115611ec257600080fd5b865b84811015611f8857803586811115611edc5760008081fd5b88016060368290031215611ef05760008081fd5b611ef8611da0565b611f0182611a62565b8152611f0e868301611aa5565b8682015260408083013589811115611f265760008081fd5b929092019136601f840112611f3b5760008081fd5b8235611f4e611f4982611e58565b611dc2565b8181523689838701011115611f635760008081fd5b818986018a830137600091810189019190915290820152845250918301918301611ec4565b50979650505050505050565b60008085851115611fa457600080fd5b83861115611fb157600080fd5b5050820193919092039150565b60008451611fd0818460208901611aea565b8201838582376000930192835250909392505050565b81835281816020850137506000828201602090810191909152601f909101601f19169091010190565b6020815260006108c3602083018486611fe6565b634e487b7160e01b600052603260045260246000fd5b6000823561013e1983360301811261205057600080fd5b9190910192915050565b6000808335601e1984360301811261207157600080fd5b8301803591506001600160401b0382111561208b57600080fd5b6020019150368190038213156118e657600080fd5b6001600160401b0381168114610d8c57600080fd5b63ffffffff6120c389611a62565b16815260208801356020820152600060408901356120e0816120a0565b6001600160401b03811660408401525087606083015260e0608083015261210b60e083018789611fe6565b6001600160a01b03861660a084015282810360c084015261212d818587611fe6565b9a9950505050505050505050565b60006020828403121561214d57600080fd5b81516001600160401b0381111561216357600080fd5b8201601f8101841361217457600080fd5b8051612182611f4982611e58565b81815285602083850101111561219757600080fd5b610c3d826020830160208601611aea565b6000602082840312156121ba57600080fd5b8135611524816120a0565b60018060a01b038516815283602082015261ffff831660408201526080606082015260006121f66080830184611b0e565b9695505050505050565b6040815260006122136040830185611b0e565b8281036020840152610c3d8185611b0e565b60006020828403121561223757600080fd5b815161152481611cd0565b6040815263ffffffff8351166040820152602083015160608201526000604084015160a0608084015261227860e0840182611b0e565b90506060850151603f198483030160a08501526122958282611b0e565b60809690960151151560c08501525050506001600160a01b039190911660209091015290565b6000604082840312156122cd57600080fd5b6122d5611d78565b9050815181526020820151602082015292915050565b6000608082840312156122fd57600080fd5b612305611da0565b825181526020830151612317816120a0565b602082015261232984604085016122bb565b60408201529392505050565b601f821115612381576000816000526020600020601f850160051c8101602086101561235e5750805b601f850160051c820191505b8181101561237d5782815560010161236a565b5050505b505050565b81516001600160401b0381111561239f5761239f611d62565b6123b3816123ad8454611e24565b84612335565b602080601f8311600181146123e857600084156123d05750858301515b600019600386901b1c1916600185901b17855561237d565b600085815260208120601f198616915b82811015612417578886015182559484019460019091019084016123f8565b50858210156124355787850151600019600388901b60f8161c191681555b5050505050600190811b01905550565b600060208083018184528085518083526040925060408601915060408160051b87010184880160005b838110156124c257888303603f190185528151805163ffffffff1684528781015161ffff168885015286015160608785018190526124ae81860183611b0e565b96890196945050509086019060010161246e565b509098975050505050505050565b6000604082840312156124e257600080fd5b61152483836122bb565b8035602083101561083f57600019602084900360031b1b1692915050565b60c084901b6001600160c01b031916815260e083901b6001600160e01b0319166008820152815160009061254581600c850160208701611aea565b91909101600c01949350505050565b84815283602082015282604082015260008251612578816060850160208701611aea565b9190910160600195945050505050565b60006020828403121561259a57600080fd5b8151611524816118ed56fea26469706673582212209daf8600cc87e48a9a93bc4c1d020d6b0e7f60b9424ac04c02518d9879db87c664736f6c63430008160033",
  "linkReferences": {},
  "deployedLinkReferences": {}
}