{
  "_format": "hh-sol-artifact-1",
  "contractName": "ExampleONFT",
  "sourceName": "contracts/ExampleONFT.sol",
  "abi": [
    {
      "inputs": [
        {
          "internalType": "string",
          "name": "_name",
          "type": "string"
        },
        {
          "internalType": "string",
          "name": "_symbol",
          "type": "string"
        },
        {
          "internalType": "address",
          "name": "_lzEndpoint",
          "type": "address"
        },
        {
          "internalType": "address",
          "name": "_delegate",
          "type": "address"
        },
        {
          "internalType": "uint256",
          "name": "tokenId",
          "type": "uint256"
        }
      ],
      "stateMutability": "nonpayable",
      "type": "constructor"
    },
    {
      "inputs": [
        {
          "internalType": "address",
          "name": "sender",
          "type": "address"
        },
        {
          "internalType": "uint256",
          "name": "tokenId",
          "type": "uint256"
        },
        {
          "internalType": "address",
          "name": "owner",
          "type": "address"
        }
      ],
      "name": "ERC721IncorrectOwner",
      "type": "error"
    },
    {
      "inputs": [
        {
          "internalType": "address",
          "name": "operator",
          "type": "address"
        },
        {
          "internalType": "uint256",
          "name": "tokenId",
          "type": "uint256"
        }
      ],
      "name": "ERC721InsufficientApproval",
      "type": "error"
    },
    {
      "inputs": [
        {
          "internalType": "address",
          "name": "approver",
          "type": "address"
        }
      ],
      "name": "ERC721InvalidApprover",
      "type": "error"
    },
    {
      "inputs": [
        {
          "internalType": "address",
          "name": "operator",
          "type": "address"
        }
      ],
      "name": "ERC721InvalidOperator",
      "type": "error"
    },
    {
      "inputs": [
        {
          "internalType": "address",
          "name": "owner",
          "type": "address"
        }
      ],
      "name": "ERC721InvalidOwner",
      "type": "error"
    },
    {
      "inputs": [
        {
          "internalType": "address",
          "name": "receiver",
          "type": "address"
        }
      ],
      "name": "ERC721InvalidReceiver",
      "type": "error"
    },
    {
      "inputs": [
        {
          "internalType": "address",
          "name": "sender",
          "type": "address"
        }
      ],
      "name": "ERC721InvalidSender",
      "type": "error"
    },
    {
      "inputs": [
        {
          "internalType": "uint256",
          "name": "tokenId",
          "type": "uint256"
        }
      ],
      "name": "ERC721NonexistentToken",
      "type": "error"
    },
    {
      "inputs": [],
      "name": "InvalidDelegate",
      "type": "error"
    },
    {
      "inputs": [],
      "name": "InvalidEndpointCall",
      "type": "error"
    },
    {
      "inputs": [
        {
          "internalType": "bytes",
          "name": "options",
          "type": "bytes"
        }
      ],
      "name": "InvalidOptions",
      "type": "error"
    },
    {
      "inputs": [],
      "name": "InvalidReceiver",
      "type": "error"
    },
    {
      "inputs": [],
      "name": "LzTokenUnavailable",
      "type": "error"
    },
    {
      "inputs": [
        {
          "internalType": "uint32",
          "name": "eid",
          "type": "uint32"
        }
      ],
      "name": "NoPeer",
      "type": "error"
    },
    {
      "inputs": [
        {
          "internalType": "uint256",
          "name": "msgValue",
          "type": "uint256"
        }
      ],
      "name": "NotEnoughNative",
      "type": "error"
    },
    {
      "inputs": [
        {
          "internalType": "address",
          "name": "addr",
          "type": "address"
        }
      ],
      "name": "OnlyEndpoint",
      "type": "error"
    },
    {
      "inputs": [
        {
          "internalType": "address",
          "name": "caller",
          "type": "address"
        },
        {
          "internalType": "address",
          "name": "owner",
          "type": "address"
        }
      ],
      "name": "OnlyNFTOwner",
      "type": "error"
    },
    {
      "inputs": [
        {
          "internalType": "uint32",
          "name": "eid",
          "type": "uint32"
        },
        {
          "internalType": "bytes32",
          "name": "sender",
          "type": "bytes32"
        }
      ],
      "name": "OnlyPeer",
      "type": "error"
    },
    {
      "inputs": [],
      "name": "OnlySelf",
      "type": "error"
    },
    {
      "inputs": [
        {
          "internalType": "address",
          "name": "owner",
          "type": "address"
        }
      ],
      "name": "OwnableInvalidOwner",
      "type": "error"
    },
    {
      "inputs": [
        {
          "internalType": "address",
          "name": "account",
          "type": "address"
        }
      ],
      "name": "OwnableUnauthorizedAccount",
      "type": "error"
    },
    {
      "inputs": [
        {
          "internalType": "address",
          "name": "token",
          "type": "address"
        }
      ],
      "name": "SafeERC20FailedOperation",
      "type": "error"
    },
    {
      "inputs": [
        {
          "internalType": "bytes",
          "name": "result",
          "type": "bytes"
        }
      ],
      "name": "SimulationResult",
      "type": "error"
    },
    {
      "anonymous": false,
      "inputs": [
        {
          "indexed": true,
          "internalType": "address",
          "name": "owner",
          "type": "address"
        },
        {
          "indexed": true,
          "internalType": "address",
          "name": "approved",
          "type": "address"
        },
        {
          "indexed": true,
          "internalType": "uint256",
          "name": "tokenId",
          "type": "uint256"
        }
      ],
      "name": "Approval",
      "type": "event"
    },
    {
      "anonymous": false,
      "inputs": [
        {
          "indexed": true,
          "internalType": "address",
          "name": "owner",
          "type": "address"
        },
        {
          "indexed": true,
          "internalType": "address",
          "name": "operator",
          "type": "address"
        },
        {
          "indexed": false,
          "internalType": "bool",
          "name": "approved",
          "type": "bool"
        }
      ],
      "name": "ApprovalForAll",
      "type": "event"
    },
    {
      "anonymous": false,
      "inputs": [
        {
          "indexed": false,
          "internalType": "string",
          "name": "baseURI",
          "type": "string"
        }
      ],
      "name": "BaseURISet",
      "type": "event"
    },
    {
      "anonymous": false,
      "inputs": [
        {
          "components": [
            {
              "internalType": "uint32",
              "name": "eid",
              "type": "uint32"
            },
            {
              "internalType": "uint16",
              "name": "msgType",
              "type": "uint16"
            },
            {
              "internalType": "bytes",
              "name": "options",
              "type": "bytes"
            }
          ],
          "indexed": false,
          "internalType": "struct EnforcedOptionParam[]",
          "name": "_enforcedOptions",
          "type": "tuple[]"
        }
      ],
      "name": "EnforcedOptionSet",
      "type": "event"
    },
    {
      "anonymous": false,
      "inputs": [
        {
          "indexed": false,
          "internalType": "address",
          "name": "inspector",
          "type": "address"
        }
      ],
      "name": "MsgInspectorSet",
      "type": "event"
    },
    {
      "anonymous": false,
      "inputs": [
        {
          "indexed": true,
          "internalType": "bytes32",
          "name": "guid",
          "type": "bytes32"
        },
        {
          "indexed": false,
          "internalType": "uint32",
          "name": "srcEid",
          "type": "uint32"
        },
        {
          "indexed": true,
          "internalType": "address",
          "name": "toAddress",
          "type": "address"
        },
        {
          "indexed": false,
          "internalType": "uint256",
          "name": "tokenId",
          "type": "uint256"
        }
      ],
      "name": "ONFTReceived",
      "type": "event"
    },
    {
      "anonymous": false,
      "inputs": [
        {
          "indexed": true,
          "internalType": "bytes32",
          "name": "guid",
          "type": "bytes32"
        },
        {
          "indexed": false,
          "internalType": "uint32",
          "name": "dstEid",
          "type": "uint32"
        },
        {
          "indexed": true,
          "internalType": "address",
          "name": "fromAddress",
          "type": "address"
        },
        {
          "indexed": false,
          "internalType": "uint256",
          "name": "tokenId",
          "type": "uint256"
        }
      ],
      "name": "ONFTSent",
      "type": "event"
    },
    {
      "anonymous": false,
      "inputs": [
        {
          "indexed": true,
          "internalType": "address",
          "name": "previousOwner",
          "type": "address"
        },
        {
          "indexed": true,
          "internalType": "address",
          "name": "newOwner",
          "type": "address"
        }
      ],
      "name": "OwnershipTransferred",
      "type": "event"
    },
    {
      "anonymous": false,
      "inputs": [
        {
          "indexed": false,
          "internalType": "uint32",
          "name": "eid",
          "type": "uint32"
        },
        {
          "indexed": false,
          "internalType": "bytes32",
          "name": "peer",
          "type": "bytes32"
        }
      ],
      "name": "PeerSet",
      "type": "event"
    },
    {
      "anonymous": false,
      "inputs": [
        {
          "indexed": false,
          "internalType": "address",
          "name": "preCrimeAddress",
          "type": "address"
        }
      ],
      "name": "PreCrimeSet",
      "type": "event"
    },
    {
      "anonymous": false,
      "inputs": [
        {
          "indexed": true,
          "internalType": "address",
          "name": "from",
          "type": "address"
        },
        {
          "indexed": true,
          "internalType": "address",
          "name": "to",
          "type": "address"
        },
        {
          "indexed": true,
          "internalType": "uint256",
          "name": "tokenId",
          "type": "uint256"
        }
      ],
      "name": "Transfer",
      "type": "event"
    },
    {
      "inputs": [],
      "name": "SEND",
      "outputs": [
        {
          "internalType": "uint16",
          "name": "",
          "type": "uint16"
        }
      ],
      "stateMutability": "view",
      "type": "function"
    },
    {
      "inputs": [],
      "name": "SEND_AND_COMPOSE",
      "outputs": [
        {
          "internalType": "uint16",
          "name": "",
          "type": "uint16"
        }
      ],
      "stateMutability": "view",
      "type": "function"
    },
    {
      "inputs": [
        {
          "components": [
            {
              "internalType": "uint32",
              "name": "srcEid",
              "type": "uint32"
            },
            {
              "internalType": "bytes32",
              "name": "sender",
              "type": "bytes32"
            },
            {
              "internalType": "uint64",
              "name": "nonce",
              "type": "uint64"
            }
          ],
          "internalType": "struct Origin",
          "name": "origin",
          "type": "tuple"
        }
      ],
      "name": "allowInitializePath",
      "outputs": [
        {
          "internalType": "bool",
          "name": "",
          "type": "bool"
        }
      ],
      "stateMutability": "view",
      "type": "function"
    },
    {
      "inputs": [],
      "name": "approvalRequired",
      "outputs": [
        {
          "internalType": "bool",
          "name": "",
          "type": "bool"
        }
      ],
      "stateMutability": "pure",
      "type": "function"
    },
    {
      "inputs": [
        {
          "internalType": "address",
          "name": "to",
          "type": "address"
        },
        {
          "internalType": "uint256",
          "name": "tokenId",
          "type": "uint256"
        }
      ],
      "name": "approve",
      "outputs": [],
      "stateMutability": "nonpayable",
      "type": "function"
    },
    {
      "inputs": [
        {
          "internalType": "address",
          "name": "owner",
          "type": "address"
        }
      ],
      "name": "balanceOf",
      "outputs": [
        {
          "internalType": "uint256",
          "name": "",
          "type": "uint256"
        }
      ],
      "stateMutability": "view",
      "type": "function"
    },
    {
      "inputs": [
        {
          "internalType": "uint32",
          "name": "_eid",
          "type": "uint32"
        },
        {
          "internalType": "uint16",
          "name": "_msgType",
          "type": "uint16"
        },
        {
          "internalType": "bytes",
          "name": "_extraOptions",
          "type": "bytes"
        }
      ],
      "name": "combineOptions",
      "outputs": [
        {
          "internalType": "bytes",
          "name": "",
          "type": "bytes"
        }
      ],
      "stateMutability": "view",
      "type": "function"
    },
    {
      "inputs": [],
      "name": "endpoint",
      "outputs": [
        {
          "internalType": "contract ILayerZeroEndpointV2",
          "name": "",
          "type": "address"
        }
      ],
      "stateMutability": "view",
      "type": "function"
    },
    {
      "inputs": [
        {
          "internalType": "uint32",
          "name": "eid",
          "type": "uint32"
        },
        {
          "internalType": "uint16",
          "name": "msgType",
          "type": "uint16"
        }
      ],
      "name": "enforcedOptions",
      "outputs": [
        {
          "internalType": "bytes",
          "name": "enforcedOption",
          "type": "bytes"
        }
      ],
      "stateMutability": "view",
      "type": "function"
    },
    {
      "inputs": [
        {
          "internalType": "uint256",
          "name": "tokenId",
          "type": "uint256"
        }
      ],
      "name": "getApproved",
      "outputs": [
        {
          "internalType": "address",
          "name": "",
          "type": "address"
        }
      ],
      "stateMutability": "view",
      "type": "function"
    },
    {
      "inputs": [
        {
          "internalType": "address",
          "name": "owner",
          "type": "address"
        },
        {
          "internalType": "address",
          "name": "operator",
          "type": "address"
        }
      ],
      "name": "isApprovedForAll",
      "outputs": [
        {
          "internalType": "bool",
          "name": "",
          "type": "bool"
        }
      ],
      "stateMutability": "view",
      "type": "function"
    },
    {
      "inputs": [
        {
          "components": [
            {
              "internalType": "uint32",
              "name": "srcEid",
              "type": "uint32"
            },
            {
              "internalType": "bytes32",
              "name": "sender",
              "type": "bytes32"
            },
            {
              "internalType": "uint64",
              "name": "nonce",
              "type": "uint64"
            }
          ],
          "internalType": "struct Origin",
          "name": "",
          "type": "tuple"
        },
        {
          "internalType": "bytes",
          "name": "",
          "type": "bytes"
        },
        {
          "internalType": "address",
          "name": "_sender",
          "type": "address"
        }
      ],
      "name": "isComposeMsgSender",
      "outputs": [
        {
          "internalType": "bool",
          "name": "",
          "type": "bool"
        }
      ],
      "stateMutability": "view",
      "type": "function"
    },
    {
      "inputs": [
        {
          "internalType": "uint32",
          "name": "_eid",
          "type": "uint32"
        },
        {
          "internalType": "bytes32",
          "name": "_peer",
          "type": "bytes32"
        }
      ],
      "name": "isPeer",
      "outputs": [
        {
          "internalType": "bool",
          "name": "",
          "type": "bool"
        }
      ],
      "stateMutability": "view",
      "type": "function"
    },
    {
      "inputs": [
        {
          "components": [
            {
              "internalType": "uint32",
              "name": "srcEid",
              "type": "uint32"
            },
            {
              "internalType": "bytes32",
              "name": "sender",
              "type": "bytes32"
            },
            {
              "internalType": "uint64",
              "name": "nonce",
              "type": "uint64"
            }
          ],
          "internalType": "struct Origin",
          "name": "_origin",
          "type": "tuple"
        },
        {
          "internalType": "bytes32",
          "name": "_guid",
          "type": "bytes32"
        },
        {
          "internalType": "bytes",
          "name": "_message",
          "type": "bytes"
        },
        {
          "internalType": "address",
          "name": "_executor",
          "type": "address"
        },
        {
          "internalType": "bytes",
          "name": "_extraData",
          "type": "bytes"
        }
      ],
      "name": "lzReceive",
      "outputs": [],
      "stateMutability": "payable",
      "type": "function"
    },
    {
      "inputs": [
        {
          "components": [
            {
              "components": [
                {
                  "internalType": "uint32",
                  "name": "srcEid",
                  "type": "uint32"
                },
                {
                  "internalType": "bytes32",
                  "name": "sender",
                  "type": "bytes32"
                },
                {
                  "internalType": "uint64",
                  "name": "nonce",
                  "type": "uint64"
                }
              ],
              "internalType": "struct Origin",
              "name": "origin",
              "type": "tuple"
            },
            {
              "internalType": "uint32",
              "name": "dstEid",
              "type": "uint32"
            },
            {
              "internalType": "address",
              "name": "receiver",
              "type": "address"
            },
            {
              "internalType": "bytes32",
              "name": "guid",
              "type": "bytes32"
            },
            {
              "internalType": "uint256",
              "name": "value",
              "type": "uint256"
            },
            {
              "internalType": "address",
              "name": "executor",
              "type": "address"
            },
            {
              "internalType": "bytes",
              "name": "message",
              "type": "bytes"
            },
            {
              "internalType": "bytes",
              "name": "extraData",
              "type": "bytes"
            }
          ],
          "internalType": "struct InboundPacket[]",
          "name": "_packets",
          "type": "tuple[]"
        }
      ],
      "name": "lzReceiveAndRevert",
      "outputs": [],
      "stateMutability": "payable",
      "type": "function"
    },
    {
      "inputs": [
        {
          "components": [
            {
              "internalType": "uint32",
              "name": "srcEid",
              "type": "uint32"
            },
            {
              "internalType": "bytes32",
              "name": "sender",
              "type": "bytes32"
            },
            {
              "internalType": "uint64",
              "name": "nonce",
              "type": "uint64"
            }
          ],
          "internalType": "struct Origin",
          "name": "_origin",
          "type": "tuple"
        },
        {
          "internalType": "bytes32",
          "name": "_guid",
          "type": "bytes32"
        },
        {
          "internalType": "bytes",
          "name": "_message",
          "type": "bytes"
        },
        {
          "internalType": "address",
          "name": "_executor",
          "type": "address"
        },
        {
          "internalType": "bytes",
          "name": "_extraData",
          "type": "bytes"
        }
      ],
      "name": "lzReceiveSimulate",
      "outputs": [],
      "stateMutability": "payable",
      "type": "function"
    },
    {
      "inputs": [],
      "name": "msgInspector",
      "outputs": [
        {
          "internalType": "address",
          "name": "",
          "type": "address"
        }
      ],
      "stateMutability": "view",
      "type": "function"
    },
    {
      "inputs": [],
      "name": "name",
      "outputs": [
        {
          "internalType": "string",
          "name": "",
          "type": "string"
        }
      ],
      "stateMutability": "view",
      "type": "function"
    },
    {
      "inputs": [
        {
          "internalType": "uint32",
          "name": "",
          "type": "uint32"
        },
        {
          "internalType": "bytes32",
          "name": "",
          "type": "bytes32"
        }
      ],
      "name": "nextNonce",
      "outputs": [
        {
          "internalType": "uint64",
          "name": "nonce",
          "type": "uint64"
        }
      ],
      "stateMutability": "view",
      "type": "function"
    },
    {
      "inputs": [],
      "name": "oApp",
      "outputs": [
        {
          "internalType": "address",
          "name": "",
          "type": "address"
        }
      ],
      "stateMutability": "view",
      "type": "function"
    },
    {
      "inputs": [],
      "name": "oAppVersion",
      "outputs": [
        {
          "internalType": "uint64",
          "name": "senderVersion",
          "type": "uint64"
        },
        {
          "internalType": "uint64",
          "name": "receiverVersion",
          "type": "uint64"
        }
      ],
      "stateMutability": "pure",
      "type": "function"
    },
    {
      "inputs": [],
      "name": "onftVersion",
      "outputs": [
        {
          "internalType": "bytes4",
          "name": "interfaceId",
          "type": "bytes4"
        },
        {
          "internalType": "uint64",
          "name": "version",
          "type": "uint64"
        }
      ],
      "stateMutability": "pure",
      "type": "function"
    },
    {
      "inputs": [],
      "name": "owner",
      "outputs": [
        {
          "internalType": "address",
          "name": "",
          "type": "address"
        }
      ],
      "stateMutability": "view",
      "type": "function"
    },
    {
      "inputs": [
        {
          "internalType": "uint256",
          "name": "tokenId",
          "type": "uint256"
        }
      ],
      "name": "ownerOf",
      "outputs": [
        {
          "internalType": "address",
          "name": "",
          "type": "address"
        }
      ],
      "stateMutability": "view",
      "type": "function"
    },
    {
      "inputs": [
        {
          "internalType": "uint32",
          "name": "eid",
          "type": "uint32"
        }
      ],
      "name": "peers",
      "outputs": [
        {
          "internalType": "bytes32",
          "name": "peer",
          "type": "bytes32"
        }
      ],
      "stateMutability": "view",
      "type": "function"
    },
    {
      "inputs": [],
      "name": "preCrime",
      "outputs": [
        {
          "internalType": "address",
          "name": "",
          "type": "address"
        }
      ],
      "stateMutability": "view",
      "type": "function"
    },
    {
      "inputs": [
        {
          "components": [
            {
              "internalType": "uint32",
              "name": "dstEid",
              "type": "uint32"
            },
            {
              "internalType": "bytes32",
              "name": "to",
              "type": "bytes32"
            },
            {
              "internalType": "uint256",
              "name": "tokenId",
              "type": "uint256"
            },
            {
              "internalType": "bytes",
              "name": "extraOptions",
              "type": "bytes"
            },
            {
              "internalType": "bytes",
              "name": "composeMsg",
              "type": "bytes"
            },
            {
              "internalType": "bytes",
              "name": "onftCmd",
              "type": "bytes"
            }
          ],
          "internalType": "struct SendParam",
          "name": "_sendParam",
          "type": "tuple"
        },
        {
          "internalType": "bool",
          "name": "_payInLzToken",
          "type": "bool"
        }
      ],
      "name": "quoteSend",
      "outputs": [
        {
          "components": [
            {
              "internalType": "uint256",
              "name": "nativeFee",
              "type": "uint256"
            },
            {
              "internalType": "uint256",
              "name": "lzTokenFee",
              "type": "uint256"
            }
          ],
          "internalType": "struct MessagingFee",
          "name": "msgFee",
          "type": "tuple"
        }
      ],
      "stateMutability": "view",
      "type": "function"
    },
    {
      "inputs": [],
      "name": "renounceOwnership",
      "outputs": [],
      "stateMutability": "nonpayable",
      "type": "function"
    },
    {
      "inputs": [
        {
          "internalType": "address",
          "name": "from",
          "type": "address"
        },
        {
          "internalType": "address",
          "name": "to",
          "type": "address"
        },
        {
          "internalType": "uint256",
          "name": "tokenId",
          "type": "uint256"
        }
      ],
      "name": "safeTransferFrom",
      "outputs": [],
      "stateMutability": "nonpayable",
      "type": "function"
    },
    {
      "inputs": [
        {
          "internalType": "address",
          "name": "from",
          "type": "address"
        },
        {
          "internalType": "address",
          "name": "to",
          "type": "address"
        },
        {
          "internalType": "uint256",
          "name": "tokenId",
          "type": "uint256"
        },
        {
          "internalType": "bytes",
          "name": "data",
          "type": "bytes"
        }
      ],
      "name": "safeTransferFrom",
      "outputs": [],
      "stateMutability": "nonpayable",
      "type": "function"
    },
    {
      "inputs": [
        {
          "components": [
            {
              "internalType": "uint32",
              "name": "dstEid",
              "type": "uint32"
            },
            {
              "internalType": "bytes32",
              "name": "to",
              "type": "bytes32"
            },
            {
              "internalType": "uint256",
              "name": "tokenId",
              "type": "uint256"
            },
            {
              "internalType": "bytes",
              "name": "extraOptions",
              "type": "bytes"
            },
            {
              "internalType": "bytes",
              "name": "composeMsg",
              "type": "bytes"
            },
            {
              "internalType": "bytes",
              "name": "onftCmd",
              "type": "bytes"
            }
          ],
          "internalType": "struct SendParam",
          "name": "_sendParam",
          "type": "tuple"
        },
        {
          "components": [
            {
              "internalType": "uint256",
              "name": "nativeFee",
              "type": "uint256"
            },
            {
              "internalType": "uint256",
              "name": "lzTokenFee",
              "type": "uint256"
            }
          ],
          "internalType": "struct MessagingFee",
          "name": "_fee",
          "type": "tuple"
        },
        {
          "internalType": "address",
          "name": "_refundAddress",
          "type": "address"
        }
      ],
      "name": "send",
      "outputs": [
        {
          "components": [
            {
              "internalType": "bytes32",
              "name": "guid",
              "type": "bytes32"
            },
            {
              "internalType": "uint64",
              "name": "nonce",
              "type": "uint64"
            },
            {
              "components": [
                {
                  "internalType": "uint256",
                  "name": "nativeFee",
                  "type": "uint256"
                },
                {
                  "internalType": "uint256",
                  "name": "lzTokenFee",
                  "type": "uint256"
                }
              ],
              "internalType": "struct MessagingFee",
              "name": "fee",
              "type": "tuple"
            }
          ],
          "internalType": "struct MessagingReceipt",
          "name": "msgReceipt",
          "type": "tuple"
        }
      ],
      "stateMutability": "payable",
      "type": "function"
    },
    {
      "inputs": [
        {
          "internalType": "address",
          "name": "operator",
          "type": "address"
        },
        {
          "internalType": "bool",
          "name": "approved",
          "type": "bool"
        }
      ],
      "name": "setApprovalForAll",
      "outputs": [],
      "stateMutability": "nonpayable",
      "type": "function"
    },
    {
      "inputs": [
        {
          "internalType": "string",
          "name": "_baseTokenURI",
          "type": "string"
        }
      ],
      "name": "setBaseURI",
      "outputs": [],
      "stateMutability": "nonpayable",
      "type": "function"
    },
    {
      "inputs": [
        {
          "internalType": "address",
          "name": "_delegate",
          "type": "address"
        }
      ],
      "name": "setDelegate",
      "outputs": [],
      "stateMutability": "nonpayable",
      "type": "function"
    },
    {
      "inputs": [
        {
          "components": [
            {
              "internalType": "uint32",
              "name": "eid",
              "type": "uint32"
            },
            {
              "internalType": "uint16",
              "name": "msgType",
              "type": "uint16"
            },
            {
              "internalType": "bytes",
              "name": "options",
              "type": "bytes"
            }
          ],
          "internalType": "struct EnforcedOptionParam[]",
          "name": "_enforcedOptions",
          "type": "tuple[]"
        }
      ],
      "name": "setEnforcedOptions",
      "outputs": [],
      "stateMutability": "nonpayable",
      "type": "function"
    },
    {
      "inputs": [
        {
          "internalType": "address",
          "name": "_msgInspector",
          "type": "address"
        }
      ],
      "name": "setMsgInspector",
      "outputs": [],
      "stateMutability": "nonpayable",
      "type": "function"
    },
    {
      "inputs": [
        {
          "internalType": "uint32",
          "name": "_eid",
          "type": "uint32"
        },
        {
          "internalType": "bytes32",
          "name": "_peer",
          "type": "bytes32"
        }
      ],
      "name": "setPeer",
      "outputs": [],
      "stateMutability": "nonpayable",
      "type": "function"
    },
    {
      "inputs": [
        {
          "internalType": "address",
          "name": "_preCrime",
          "type": "address"
        }
      ],
      "name": "setPreCrime",
      "outputs": [],
      "stateMutability": "nonpayable",
      "type": "function"
    },
    {
      "inputs": [
        {
          "internalType": "bytes4",
          "name": "interfaceId",
          "type": "bytes4"
        }
      ],
      "name": "supportsInterface",
      "outputs": [
        {
          "internalType": "bool",
          "name": "",
          "type": "bool"
        }
      ],
      "stateMutability": "view",
      "type": "function"
    },
    {
      "inputs": [],
      "name": "symbol",
      "outputs": [
        {
          "internalType": "string",
          "name": "",
          "type": "string"
        }
      ],
      "stateMutability": "view",
      "type": "function"
    },
    {
      "inputs": [],
      "name": "token",
      "outputs": [
        {
          "internalType": "address",
          "name": "",
          "type": "address"
        }
      ],
      "stateMutability": "view",
      "type": "function"
    },
    {
      "inputs": [
        {
          "internalType": "uint256",
          "name": "tokenId",
          "type": "uint256"
        }
      ],
      "name": "tokenURI",
      "outputs": [
        {
          "internalType": "string",
          "name": "",
          "type": "string"
        }
      ],
      "stateMutability": "view",
      "type": "function"
    },
    {
      "inputs": [
        {
          "internalType": "address",
          "name": "from",
          "type": "address"
        },
        {
          "internalType": "address",
          "name": "to",
          "type": "address"
        },
        {
          "internalType": "uint256",
          "name": "tokenId",
          "type": "uint256"
        }
      ],
      "name": "transferFrom",
      "outputs": [],
      "stateMutability": "nonpayable",
      "type": "function"
    },
    {
      "inputs": [
        {
          "internalType": "address",
          "name": "newOwner",
          "type": "address"
        }
      ],
      "name": "transferOwnership",
      "outputs": [],
      "stateMutability": "nonpayable",
      "type": "function"
    }
  ],
  "bytecode": "0x60a06040523480156200001157600080fd5b5060405162003db838038062003db883398101604081905262000034916200065b565b848484848383838381818181806001600160a01b0381166200007157604051631e4fbdf760e01b8152600060048201526024015b60405180910390fd5b6200007c8162000156565b506001600160a01b038083166080528116620000ab57604051632d618d8160e21b815260040160405180910390fd5b60805160405163ca5eb5e160e01b81526001600160a01b0383811660048301529091169063ca5eb5e190602401600060405180830381600087803b158015620000f357600080fd5b505af115801562000108573d6000803e3d6000fd5b50505050505050505050816005908162000123919062000784565b50600662000132828262000784565b505050505050506200014b3382620001a660201b60201c565b505050505062000850565b600080546001600160a01b038381166001600160a01b0319831681178455604051919092169283917f8be0079c531659141344cd1fd0a4f28419497f9722a3daafe3b4186f6b6457e09190a35050565b6001600160a01b038216620001d257604051633250574960e11b81526000600482015260240162000068565b6000620001e183838362000215565b90506001600160a01b0381161562000210576040516339e3563760e11b81526000600482015260240162000068565b505050565b6000828152600760205260408120546001600160a01b039081169083161562000245576200024581848662000314565b6001600160a01b0381161562000285576200026460008581806200037e565b6001600160a01b038116600090815260086020526040902080546000190190555b6001600160a01b03851615620002b5576001600160a01b0385166000908152600860205260409020805460010190555b60008481526007602052604080822080546001600160a01b0319166001600160a01b0389811691821790925591518793918516917fddf252ad1be2c89b69c2b068fc378daa952ba7f163c4a11628f55a4df523b3ef91a4949350505050565b62000321838383620004ac565b62000210576001600160a01b0383166200035257604051637e27328960e01b81526004810182905260240162000068565b60405163177e802f60e01b81526001600160a01b03831660048201526024810182905260440162000068565b80806200039357506001600160a01b03821615155b156200047c576000620003a68462000535565b90506001600160a01b03831615801590620003d35750826001600160a01b0316816001600160a01b031614155b80156200040657506001600160a01b038082166000908152600a602090815260408083209387168352929052205460ff16155b15620004315760405163a9fbf51f60e01b81526001600160a01b038416600482015260240162000068565b81156200047a5783856001600160a01b0316826001600160a01b03167f8c5be1e5ebec7d5bd14f71427d1e84f3dd0314c0f7b2291e5b200ac8c7c3b92560405160405180910390a45b505b5050600090815260096020526040902080546001600160a01b0319166001600160a01b0392909216919091179055565b60006001600160a01b038316158015906200052d5750826001600160a01b0316846001600160a01b031614806200050857506001600160a01b038085166000908152600a602090815260408083209387168352929052205460ff165b806200052d57506000828152600960205260409020546001600160a01b038481169116145b949350505050565b6000818152600760205260408120546001600160a01b0316806200057057604051637e27328960e01b81526004810184905260240162000068565b92915050565b634e487b7160e01b600052604160045260246000fd5b600082601f8301126200059e57600080fd5b81516001600160401b0380821115620005bb57620005bb62000576565b604051601f8301601f19908116603f01168101908282118183101715620005e657620005e662000576565b81604052838152602092508660208588010111156200060457600080fd5b600091505b8382101562000628578582018301518183018401529082019062000609565b6000602085830101528094505050505092915050565b80516001600160a01b03811681146200065657600080fd5b919050565b600080600080600060a086880312156200067457600080fd5b85516001600160401b03808211156200068c57600080fd5b6200069a89838a016200058c565b96506020880151915080821115620006b157600080fd5b50620006c0888289016200058c565b945050620006d1604087016200063e565b9250620006e1606087016200063e565b9150608086015190509295509295909350565b600181811c908216806200070957607f821691505b6020821081036200072a57634e487b7160e01b600052602260045260246000fd5b50919050565b601f82111562000210576000816000526020600020601f850160051c810160208610156200075b5750805b601f850160051c820191505b818110156200077c5782815560010162000767565b505050505050565b81516001600160401b03811115620007a057620007a062000576565b620007b881620007b18454620006f4565b8462000730565b602080601f831160018114620007f05760008415620007d75750858301515b600019600386901b1c1916600185901b1785556200077c565b600085815260208120601f198616915b82811015620008215788860151825594840194600190910190840162000800565b5085821015620008405787850151600019600388901b60f8161c191681555b5050505050600190811b01905550565b60805161351b6200089d600039600081816104b6015281816109380152818161118f01528181611424015281816116c801528181611c76015281816120570152612110015261351b6000f3fe6080604052600436106102675760003560e01c806382413eac11610144578063bc70b354116100b6578063d045a0dc1161007a578063d045a0dc14610787578063d42438851461079a578063e985e9c5146107ba578063f2fde38b146107da578063fc0c546a1461041a578063ff7bd03d146107fa57600080fd5b8063bc70b354146106e7578063bd815db014610707578063c6414e7b1461071a578063c87b56dd14610747578063ca5eb5e11461076757600080fd5b8063a72f5dd811610108578063a72f5dd81461061d578063b21a33e414610645578063b731ea0a1461065a578063b88d4fde1461067a578063b98bd0701461069a578063bb0b6a53146106ba57600080fd5b806382413eac146105965780638da5cb5b146105b657806395d89b41146105d45780639f68b964146105e9578063a22cb465146105fd57600080fd5b806342842e0e116101dd5780635e280f11116101a15780635e280f11146104a45780636352211e146104d85780636fc1b31e146104f857806370a0823114610518578063715018a6146105465780637d25a05e1461055b57600080fd5b806342842e0e146103fa57806352ae28791461041a5780635535d4611461042d57806355f804b31461044d5780635a0dfe4d1461046d57600080fd5b806313137d651161022f57806313137d651461033d57806317442b70146103505780631f5e13341461037257806321eb730b1461039a57806323b872dd146103ba5780633400288b146103da57600080fd5b806301ffc9a71461026c57806306fdde03146102a1578063081812fc146102c3578063095ea7b3146102fb578063111ecdad1461031d575b600080fd5b34801561027857600080fd5b5061028c610287366004612461565b61081a565b60405190151581526020015b60405180910390f35b3480156102ad57600080fd5b506102b661086c565b60405161029891906124ce565b3480156102cf57600080fd5b506102e36102de3660046124e1565b6108fe565b6040516001600160a01b039091168152602001610298565b34801561030757600080fd5b5061031b61031636600461250f565b610927565b005b34801561032957600080fd5b506004546102e3906001600160a01b031681565b61031b61034b36600461259b565b610936565b34801561035c57600080fd5b5060408051600181526002602082015201610298565b34801561037e57600080fd5b50610387600181565b60405161ffff9091168152602001610298565b6103ad6103a836600461264c565b6109f6565b60405161029891906126b9565b3480156103c657600080fd5b5061031b6103d53660046126fb565b610aaf565b3480156103e657600080fd5b5061031b6103f5366004612755565b610b3a565b34801561040657600080fd5b5061031b6104153660046126fb565b610b4c565b34801561042657600080fd5b50306102e3565b34801561043957600080fd5b506102b6610448366004612783565b610b6c565b34801561045957600080fd5b5061031b6104683660046127b6565b610c11565b34801561047957600080fd5b5061028c610488366004612755565b63ffffffff919091166000908152600160205260409020541490565b3480156104b057600080fd5b506102e37f000000000000000000000000000000000000000000000000000000000000000081565b3480156104e457600080fd5b506102e36104f33660046124e1565b610c63565b34801561050457600080fd5b5061031b6105133660046127f7565b610c6e565b34801561052457600080fd5b506105386105333660046127f7565b610ccb565b604051908152602001610298565b34801561055257600080fd5b5061031b610d13565b34801561056757600080fd5b5061057e610576366004612755565b600092915050565b6040516001600160401b039091168152602001610298565b3480156105a257600080fd5b5061028c6105b1366004612814565b610d27565b3480156105c257600080fd5b506000546001600160a01b03166102e3565b3480156105e057600080fd5b506102b6610d3c565b3480156105f557600080fd5b50600061028c565b34801561060957600080fd5b5061031b610618366004612888565b610d4b565b34801561062957600080fd5b50604080516311f0c6d360e11b81526001602082015201610298565b34801561065157600080fd5b50610387600281565b34801561066657600080fd5b506002546102e3906001600160a01b031681565b34801561068657600080fd5b5061031b6106953660046129ce565b610d56565b3480156106a657600080fd5b5061031b6106b5366004612a7d565b610d6e565b3480156106c657600080fd5b506105386106d5366004612ab2565b60016020526000908152604090205481565b3480156106f357600080fd5b506102b6610702366004612acd565b610d88565b61031b610715366004612a7d565b610f30565b34801561072657600080fd5b5061073a610735366004612b2d565b6110ba565b6040516102989190612b73565b34801561075357600080fd5b506102b66107623660046124e1565b611100565b34801561077357600080fd5b5061031b6107823660046127f7565b611168565b61031b61079536600461259b565b6111ee565b3480156107a657600080fd5b5061031b6107b53660046127f7565b61121d565b3480156107c657600080fd5b5061028c6107d5366004612b8a565b611273565b3480156107e657600080fd5b5061031b6107f53660046127f7565b6112a1565b34801561080657600080fd5b5061028c610815366004612bb8565b6112df565b60006001600160e01b031982166380ac58cd60e01b148061084b57506001600160e01b03198216635b5e139f60e01b145b8061086657506301ffc9a760e01b6001600160e01b03198316145b92915050565b60606005805461087b90612bd4565b80601f01602080910402602001604051908101604052809291908181526020018280546108a790612bd4565b80156108f45780601f106108c9576101008083540402835291602001916108f4565b820191906000526020600020905b8154815290600101906020018083116108d757829003601f168201915b5050505050905090565b600061090982611315565b506000828152600960205260409020546001600160a01b0316610866565b61093282823361134e565b5050565b7f00000000000000000000000000000000000000000000000000000000000000006001600160a01b03163314610986576040516391ac5e4f60e01b81523360048201526024015b60405180910390fd5b602087018035906109a09061099b908a612ab2565b61135b565b146109de576109b26020880188612ab2565b60405163309afaf360e21b815263ffffffff90911660048201526020880135602482015260440161097d565b6109ed87878787878787611397565b50505050505050565b6109fe612404565b610a19336040860135610a146020880188612ab2565b6114f6565b600080610a2586611556565b9092509050610a51610a3a6020880188612ab2565b8383610a4b368a90038a018a612c08565b88611695565b805190935033907f986156872b2ee0022b9585231dbbfde457f87f8a16b6c45e1a81c54c4ad8351f610a8660208a018a612ab2565b6040805163ffffffff9092168252808b013560208301520160405180910390a350509392505050565b6001600160a01b038216610ad957604051633250574960e11b81526000600482015260240161097d565b6000610ae68383336117a0565b9050836001600160a01b0316816001600160a01b031614610b34576040516364283d7b60e01b81526001600160a01b038086166004830152602482018490528216604482015260640161097d565b50505050565b610b42611899565b61093282826118c6565b610b6783838360405180602001604052806000815250610d56565b505050565b600360209081526000928352604080842090915290825290208054610b9090612bd4565b80601f0160208091040260200160405190810160405280929190818152602001828054610bbc90612bd4565b8015610c095780601f10610bde57610100808354040283529160200191610c09565b820191906000526020600020905b815481529060010190602001808311610bec57829003601f168201915b505050505081565b610c19611899565b600b610c26828483612c82565b507ff9c7803e94e0d3c02900d8a90893a6d5e90dd04d32a4cfe825520f82bf9f32f6600b604051610c579190612d41565b60405180910390a15050565b600061086682611315565b610c76611899565b600480546001600160a01b0319166001600160a01b0383169081179091556040519081527ff0be4f1e87349231d80c36b33f9e8639658eeaf474014dee15a3e6a4d4414197906020015b60405180910390a150565b60006001600160a01b038216610cf7576040516322718ad960e21b81526000600482015260240161097d565b506001600160a01b031660009081526008602052604090205490565b610d1b611899565b610d256000611914565b565b6001600160a01b03811630145b949350505050565b60606006805461087b90612bd4565b610932338383611964565b610d61848484610aaf565b610b343385858585611a03565b610d76611899565b610932610d838284612dd1565b611b2d565b63ffffffff8416600090815260036020908152604080832061ffff87168452909152812080546060929190610dbc90612bd4565b80601f0160208091040260200160405190810160405280929190818152602001828054610de890612bd4565b8015610e355780601f10610e0a57610100808354040283529160200191610e35565b820191906000526020600020905b815481529060010190602001808311610e1857829003601f168201915b505050505090508051600003610e855783838080601f016020809104026020016040519081016040528093929190818152602001838380828437600092019190915250929450610d349350505050565b6000839003610e95579050610d34565b60028310610f1357610edc84848080601f016020809104026020016040519081016040528093929190818152602001838380828437600092019190915250611c3492505050565b80610eea8460028188612ea6565b604051602001610efc93929190612ed0565b604051602081830303815290604052915050610d34565b8383604051639a6d49cd60e01b815260040161097d929190612f21565b60005b818110156110395736838383818110610f4e57610f4e612f35565b9050602002810190610f609190612f4b565b9050610f93610f726020830183612ab2565b602083013563ffffffff919091166000908152600160205260409020541490565b610f9d5750611031565b3063d045a0dc60c08301358360a0810135610fbc610100830183612f6c565b610fcd610100890160e08a016127f7565b610fdb6101208a018a612f6c565b6040518963ffffffff1660e01b8152600401610ffd9796959493929190612fc7565b6000604051808303818588803b15801561101657600080fd5b505af115801561102a573d6000803e3d6000fd5b5050505050505b600101610f33565b50336001600160a01b0316638e9e70996040518163ffffffff1660e01b8152600401600060405180830381865afa158015611078573d6000803e3d6000fd5b505050506040513d6000823e601f3d908101601f191682016040526110a0919081019061304d565b604051638351eea760e01b815260040161097d91906124ce565b60408051808201909152600080825260208201526000806110da85611556565b90925090506110f76110ef6020870187612ab2565b838387611c60565b95945050505050565b606061110b82611315565b506000611116611d38565b905060008151116111365760405180602001604052806000815250611161565b8061114084611d47565b6040516020016111519291906130ba565b6040516020818303038152906040525b9392505050565b611170611899565b60405163ca5eb5e160e01b81526001600160a01b0382811660048301527f0000000000000000000000000000000000000000000000000000000000000000169063ca5eb5e190602401600060405180830381600087803b1580156111d357600080fd5b505af11580156111e7573d6000803e3d6000fd5b5050505050565b33301461120e5760405163029a949d60e31b815260040160405180910390fd5b6109ed878787878787876109de565b611225611899565b600280546001600160a01b0319166001600160a01b0383169081179091556040519081527fd48d879cef83a1c0bdda516f27b13ddb1b3f8bbac1c9e1511bb2a659c242776090602001610cc0565b6001600160a01b039182166000908152600a6020908152604080832093909416825291909152205460ff1690565b6112a9611899565b6001600160a01b0381166112d357604051631e4fbdf760e01b81526000600482015260240161097d565b6112dc81611914565b50565b60006020820180359060019083906112f79086612ab2565b63ffffffff1681526020810191909152604001600020541492915050565b6000818152600760205260408120546001600160a01b03168061086657604051637e27328960e01b81526004810184905260240161097d565b610b678383836001611dd9565b63ffffffff8116600090815260016020526040812054806108665760405163f6ff4fb760e01b815263ffffffff8416600482015260240161097d565b60006113a96113a68787611edf565b90565b905060006113b78787611ef7565b90506113d082826113cb60208d018d612ab2565b611f07565b604086111561149457600061140a6113ee60608c0160408d016130e9565b6113fb60208d018d612ab2565b6114058b8b611f11565b611f5c565b604051633e5ac80960e11b81529091506001600160a01b037f00000000000000000000000000000000000000000000000000000000000000001690637cb59012906114609086908d906000908790600401613106565b600060405180830381600087803b15801561147a57600080fd5b505af115801561148e573d6000803e3d6000fd5b50505050505b6001600160a01b038216887f7883fa30ea56937810e36990b0bbb8d629d0cf59f68baf8431ff657cebe7eef56114cd60208d018d612ab2565b6040805163ffffffff9092168252602082018690520160405180910390a3505050505050505050565b6114ff82610c63565b6001600160a01b0316836001600160a01b03161461154d578261152183610c63565b604051634342715b60e11b81526001600160a01b0392831660048201529116602482015260440161097d565b610b6782611f8b565b606080602083013561157b57604051631e4ec46b60e01b815260040160405180910390fd5b60006115d1602085013560408601356115976080880188612f6c565b8080601f016020809104026020016040519081016040528093929190818152602001838380828437600092019190915250611fc692505050565b90935090506000816115e45760016115e7565b60025b90506116076115f96020870187612ab2565b826107026060890189612f6c565b6004549093506001600160a01b0316801561168d5760405163043a78eb60e01b81526001600160a01b0382169063043a78eb9061164a9088908890600401613141565b602060405180830381865afa158015611667573d6000803e3d6000fd5b505050506040513d601f19601f8201168201806040525081019061168b9190613166565b505b505050915091565b61169d612404565b60006116ac846000015161202b565b6020850151909150156116c6576116c68460200151612053565b7f00000000000000000000000000000000000000000000000000000000000000006001600160a01b0316632637a450826040518060a001604052808b63ffffffff1681526020016117168c61135b565b81526020018a815260200189815260200160008960200151111515815250866040518463ffffffff1660e01b8152600401611752929190613183565b60806040518083038185885af1158015611770573d6000803e3d6000fd5b50505050506040513d601f19601f82011682018060405250810190611795919061322c565b979650505050505050565b6000828152600760205260408120546001600160a01b03908116908316156117cd576117cd818486612135565b6001600160a01b0381161561180b576117ea600085600080611dd9565b6001600160a01b038116600090815260086020526040902080546000190190555b6001600160a01b0385161561183a576001600160a01b0385166000908152600860205260409020805460010190555b60008481526007602052604080822080546001600160a01b0319166001600160a01b0389811691821790925591518793918516917fddf252ad1be2c89b69c2b068fc378daa952ba7f163c4a11628f55a4df523b3ef91a4949350505050565b6000546001600160a01b03163314610d255760405163118cdaa760e01b815233600482015260240161097d565b63ffffffff8216600081815260016020908152604091829020849055815192835282018390527f238399d427b947898edb290f5ff0f9109849b1c3ba196a42e35f00c50a54b98b9101610c57565b600080546001600160a01b038381166001600160a01b0319831681178455604051919092169283917f8be0079c531659141344cd1fd0a4f28419497f9722a3daafe3b4186f6b6457e09190a35050565b6001600160a01b03821661199657604051630b61174360e31b81526001600160a01b038316600482015260240161097d565b6001600160a01b038381166000818152600a6020908152604080832094871680845294825291829020805460ff191686151590811790915591519182527f17307eab39ab6107e8899845ad3d59bd9653f200f220920489ca2b5937696c31910160405180910390a3505050565b6001600160a01b0383163b156111e757604051630a85bd0160e11b81526001600160a01b0384169063150b7a0290611a45908890889087908790600401613276565b6020604051808303816000875af1925050508015611a80575060408051601f3d908101601f19168201909252611a7d918101906132a9565b60015b611ae9573d808015611aae576040519150601f19603f3d011682016040523d82523d6000602084013e611ab3565b606091505b508051600003611ae157604051633250574960e11b81526001600160a01b038516600482015260240161097d565b805181602001fd5b6001600160e01b03198116630a85bd0160e11b14611b2557604051633250574960e11b81526001600160a01b038516600482015260240161097d565b505050505050565b60005b8151811015611c0457611b5f828281518110611b4e57611b4e612f35565b602002602001015160400151611c34565b818181518110611b7157611b71612f35565b60200260200101516040015160036000848481518110611b9357611b93612f35565b60200260200101516000015163ffffffff1663ffffffff1681526020019081526020016000206000848481518110611bcd57611bcd612f35565b60200260200101516020015161ffff1661ffff1681526020019081526020016000209081611bfb91906132c6565b50600101611b30565b507fbe4864a8e820971c0247f5992e2da559595f7bf076a21cb5928d443d2a13b67481604051610cc09190613385565b600281015161ffff81166003146109325781604051639a6d49cd60e01b815260040161097d91906124ce565b60408051808201909152600080825260208201527f00000000000000000000000000000000000000000000000000000000000000006001600160a01b031663ddc28c586040518060a001604052808863ffffffff168152602001611cc38961135b565b8152602001878152602001868152602001851515815250306040518363ffffffff1660e01b8152600401611cf8929190613183565b6040805180830381865afa158015611d14573d6000803e3d6000fd5b505050506040513d601f19601f820116820180604052508101906110f79190613410565b6060600b805461087b90612bd4565b60606000611d5483612199565b60010190506000816001600160401b03811115611d7357611d736128c1565b6040519080825280601f01601f191660200182016040528015611d9d576020820181803683370190505b5090508181016020015b600019016f181899199a1a9b1b9c1cb0b131b232b360811b600a86061a8153600a8504945084611da757509392505050565b8080611ded57506001600160a01b03821615155b15611eaf576000611dfd84611315565b90506001600160a01b03831615801590611e295750826001600160a01b0316816001600160a01b031614155b8015611e3c5750611e3a8184611273565b155b15611e655760405163a9fbf51f60e01b81526001600160a01b038416600482015260240161097d565b8115611ead5783856001600160a01b0316826001600160a01b03167f8c5be1e5ebec7d5bd14f71427d1e84f3dd0314c0f7b2291e5b200ac8c7c3b92560405160405180910390a45b505b5050600090815260096020526040902080546001600160a01b0319166001600160a01b0392909216919091179055565b6000611eee6020828486612ea6565b6111619161342c565b6000611eee604060208486612ea6565b610b678383612271565b6060611f208260408186612ea6565b8080601f016020809104026020016040519081016040528093929190818152602001838380828437600092019190915250929695505050505050565b6060838383604051602001611f739392919061344a565b60405160208183030381529060405290509392505050565b6000611f9a60008360006117a0565b90506001600160a01b03811661093257604051637e27328960e01b81526004810183905260240161097d565b8051606090151580611ffa576040805160208101879052908101859052606001604051602081830303815290604052612021565b848433856040516020016120119493929190613494565b6040516020818303038152906040525b9150935093915050565b600081341461204f576040516304fb820960e51b815234600482015260240161097d565b5090565b60007f00000000000000000000000000000000000000000000000000000000000000006001600160a01b031663e4fe1d946040518163ffffffff1660e01b8152600401602060405180830381865afa1580156120b3573d6000803e3d6000fd5b505050506040513d601f19601f820116820180604052508101906120d791906134c8565b90506001600160a01b038116612100576040516329b99a9560e11b815260040160405180910390fd5b6109326001600160a01b038216337f0000000000000000000000000000000000000000000000000000000000000000856122d6565b612140838383612330565b610b67576001600160a01b03831661216e57604051637e27328960e01b81526004810182905260240161097d565b60405163177e802f60e01b81526001600160a01b03831660048201526024810182905260440161097d565b60008072184f03e93ff9f4daa797ed6e38ed64bf6a1f0160401b83106121d85772184f03e93ff9f4daa797ed6e38ed64bf6a1f0160401b830492506040015b6d04ee2d6d415b85acef81000000008310612204576d04ee2d6d415b85acef8100000000830492506020015b662386f26fc10000831061222257662386f26fc10000830492506010015b6305f5e100831061223a576305f5e100830492506008015b612710831061224e57612710830492506004015b60648310612260576064830492506002015b600a83106108665760010192915050565b6001600160a01b03821661229b57604051633250574960e11b81526000600482015260240161097d565b60006122a9838360006117a0565b90506001600160a01b03811615610b67576040516339e3563760e11b81526000600482015260240161097d565b604080516001600160a01b0385811660248301528416604482015260648082018490528251808303909101815260849091019091526020810180516001600160e01b03166323b872dd60e01b179052610b34908590612393565b60006001600160a01b03831615801590610d345750826001600160a01b0316846001600160a01b0316148061236a575061236a8484611273565b80610d345750506000908152600960205260409020546001600160a01b03908116911614919050565b600080602060008451602086016000885af1806123b6576040513d6000823e3d81fd5b50506000513d915081156123ce5780600114156123db565b6001600160a01b0384163b155b15610b3457604051635274afe760e01b81526001600160a01b038516600482015260240161097d565b60405180606001604052806000801916815260200160006001600160401b03168152602001612446604051806040016040528060008152602001600081525090565b905290565b6001600160e01b0319811681146112dc57600080fd5b60006020828403121561247357600080fd5b81356111618161244b565b60005b83811015612499578181015183820152602001612481565b50506000910152565b600081518084526124ba81602086016020860161247e565b601f01601f19169290920160200192915050565b60208152600061116160208301846124a2565b6000602082840312156124f357600080fd5b5035919050565b6001600160a01b03811681146112dc57600080fd5b6000806040838503121561252257600080fd5b823561252d816124fa565b946020939093013593505050565b60006060828403121561254d57600080fd5b50919050565b60008083601f84011261256557600080fd5b5081356001600160401b0381111561257c57600080fd5b60208301915083602082850101111561259457600080fd5b9250929050565b600080600080600080600060e0888a0312156125b657600080fd5b6125c0898961253b565b96506060880135955060808801356001600160401b03808211156125e357600080fd5b6125ef8b838c01612553565b909750955060a08a01359150612604826124fa565b90935060c0890135908082111561261a57600080fd5b506126278a828b01612553565b989b979a50959850939692959293505050565b600060c0828403121561254d57600080fd5b6000806000838503608081121561266257600080fd5b84356001600160401b0381111561267857600080fd5b6126848782880161263a565b9450506040601f198201121561269957600080fd5b5060208401915060608401356126ae816124fa565b809150509250925092565b6000608082019050825182526001600160401b03602084015116602083015260408301516126f4604084018280518252602090810151910152565b5092915050565b60008060006060848603121561271057600080fd5b833561271b816124fa565b9250602084013561272b816124fa565b929592945050506040919091013590565b803563ffffffff8116811461275057600080fd5b919050565b6000806040838503121561276857600080fd5b61252d8361273c565b803561ffff8116811461275057600080fd5b6000806040838503121561279657600080fd5b61279f8361273c565b91506127ad60208401612771565b90509250929050565b600080602083850312156127c957600080fd5b82356001600160401b038111156127df57600080fd5b6127eb85828601612553565b90969095509350505050565b60006020828403121561280957600080fd5b8135611161816124fa565b60008060008060a0858703121561282a57600080fd5b612834868661253b565b935060608501356001600160401b0381111561284f57600080fd5b61285b87828801612553565b909450925050608085013561286f816124fa565b939692955090935050565b80151581146112dc57600080fd5b6000806040838503121561289b57600080fd5b82356128a6816124fa565b915060208301356128b68161287a565b809150509250929050565b634e487b7160e01b600052604160045260246000fd5b604080519081016001600160401b03811182821017156128f9576128f96128c1565b60405290565b604051606081016001600160401b03811182821017156128f9576128f96128c1565b604051601f8201601f191681016001600160401b0381118282101715612949576129496128c1565b604052919050565b60006001600160401b0382111561296a5761296a6128c1565b50601f01601f191660200190565b600082601f83011261298957600080fd5b813561299c61299782612951565b612921565b8181528460208386010111156129b157600080fd5b816020850160208301376000918101602001919091529392505050565b600080600080608085870312156129e457600080fd5b84356129ef816124fa565b935060208501356129ff816124fa565b92506040850135915060608501356001600160401b03811115612a2157600080fd5b612a2d87828801612978565b91505092959194509250565b60008083601f840112612a4b57600080fd5b5081356001600160401b03811115612a6257600080fd5b6020830191508360208260051b850101111561259457600080fd5b60008060208385031215612a9057600080fd5b82356001600160401b03811115612aa657600080fd5b6127eb85828601612a39565b600060208284031215612ac457600080fd5b6111618261273c565b60008060008060608587031215612ae357600080fd5b612aec8561273c565b9350612afa60208601612771565b925060408501356001600160401b03811115612b1557600080fd5b612b2187828801612553565b95989497509550505050565b60008060408385031215612b4057600080fd5b82356001600160401b03811115612b5657600080fd5b612b628582860161263a565b92505060208301356128b68161287a565b815181526020808301519082015260408101610866565b60008060408385031215612b9d57600080fd5b8235612ba8816124fa565b915060208301356128b6816124fa565b600060608284031215612bca57600080fd5b611161838361253b565b600181811c90821680612be857607f821691505b60208210810361254d57634e487b7160e01b600052602260045260246000fd5b600060408284031215612c1a57600080fd5b612c226128d7565b82358152602083013560208201528091505092915050565b601f821115610b67576000816000526020600020601f850160051c81016020861015612c635750805b601f850160051c820191505b81811015611b2557828155600101612c6f565b6001600160401b03831115612c9957612c996128c1565b612cad83612ca78354612bd4565b83612c3a565b6000601f841160018114612ce15760008515612cc95750838201355b600019600387901b1c1916600186901b1783556111e7565b600083815260209020601f19861690835b82811015612d125786850135825560209485019460019092019101612cf2565b5086821015612d2f5760001960f88860031b161c19848701351681555b505060018560011b0183555050505050565b6000602080835260008454612d5581612bd4565b8060208701526040600180841660008114612d775760018114612d9357612dc3565b60ff19851660408a0152604084151560051b8a01019550612dc3565b89600052602060002060005b85811015612dba5781548b8201860152908301908801612d9f565b8a016040019650505b509398975050505050505050565b60006001600160401b0380841115612deb57612deb6128c1565b8360051b6020612dfc818301612921565b868152918501918181019036841115612e1457600080fd5b865b84811015612e9a57803586811115612e2e5760008081fd5b88016060368290031215612e425760008081fd5b612e4a6128ff565b612e538261273c565b8152612e60868301612771565b8682015260408083013589811115612e785760008081fd5b612e8436828601612978565b9183019190915250845250918301918301612e16565b50979650505050505050565b60008085851115612eb657600080fd5b83861115612ec357600080fd5b5050820193919092039150565b60008451612ee281846020890161247e565b8201838582376000930192835250909392505050565b81835281816020850137506000828201602090810191909152601f909101601f19169091010190565b602081526000610d34602083018486612ef8565b634e487b7160e01b600052603260045260246000fd5b6000823561013e19833603018112612f6257600080fd5b9190910192915050565b6000808335601e19843603018112612f8357600080fd5b8301803591506001600160401b03821115612f9d57600080fd5b60200191503681900382131561259457600080fd5b6001600160401b03811681146112dc57600080fd5b63ffffffff612fd58961273c565b1681526020880135602082015260006040890135612ff281612fb2565b6001600160401b03811660408401525087606083015260e0608083015261301d60e083018789612ef8565b6001600160a01b03861660a084015282810360c084015261303f818587612ef8565b9a9950505050505050505050565b60006020828403121561305f57600080fd5b81516001600160401b0381111561307557600080fd5b8201601f8101841361308657600080fd5b805161309461299782612951565b8181528560208385010111156130a957600080fd5b6110f782602083016020860161247e565b600083516130cc81846020880161247e565b8351908301906130e081836020880161247e565b01949350505050565b6000602082840312156130fb57600080fd5b813561116181612fb2565b60018060a01b038516815283602082015261ffff8316604082015260806060820152600061313760808301846124a2565b9695505050505050565b60408152600061315460408301856124a2565b82810360208401526110f781856124a2565b60006020828403121561317857600080fd5b81516111618161287a565b6040815263ffffffff8351166040820152602083015160608201526000604084015160a060808401526131b960e08401826124a2565b90506060850151603f198483030160a08501526131d682826124a2565b60809690960151151560c08501525050506001600160a01b039190911660209091015290565b60006040828403121561320e57600080fd5b6132166128d7565b9050815181526020820151602082015292915050565b60006080828403121561323e57600080fd5b6132466128ff565b82518152602083015161325881612fb2565b602082015261326a84604085016131fc565b60408201529392505050565b6001600160a01b0385811682528416602082015260408101839052608060608201819052600090613137908301846124a2565b6000602082840312156132bb57600080fd5b81516111618161244b565b81516001600160401b038111156132df576132df6128c1565b6132f3816132ed8454612bd4565b84612c3a565b602080601f83116001811461332857600084156133105750858301515b600019600386901b1c1916600185901b178555611b25565b600085815260208120601f198616915b8281101561335757888601518255948401946001909101908401613338565b50858210156133755787850151600019600388901b60f8161c191681555b5050505050600190811b01905550565b600060208083018184528085518083526040925060408601915060408160051b87010184880160005b8381101561340257888303603f190185528151805163ffffffff1684528781015161ffff168885015286015160608785018190526133ee818601836124a2565b9689019694505050908601906001016133ae565b509098975050505050505050565b60006040828403121561342257600080fd5b61116183836131fc565b8035602083101561086657600019602084900360031b1b1692915050565b60c084901b6001600160c01b031916815260e083901b6001600160e01b0319166008820152815160009061348581600c85016020870161247e565b91909101600c01949350505050565b848152836020820152826040820152600082516134b881606085016020870161247e565b9190910160600195945050505050565b6000602082840312156134da57600080fd5b8151611161816124fa56fea26469706673582212204e0dc30a9a40be223d7c2a9acb4d06e039b3e20247b65b4b028074d13740e1bc64736f6c63430008160033",
  "linkReferences": {},
  "deployedLinkReferences": {}
}