{
  "_format": "hh-sol-artifact-1",
  "contractName": "ContractTransferTx",
  "sourceName": "contracts/hip-583/ContractTransferTx.sol",
  "abi": [
    {
      "anonymous": false,
      "inputs": [
        {
          "indexed": false,
          "internalType": "bool",
          "name": "_success",
          "type": "bool"
        },
        {
          "indexed": false,
          "internalType": "bytes",
          "name": "_data",
          "type": "bytes"
        }
      ],
      "name": "Success",
      "type": "event"
    },
    {
      "anonymous": false,
      "inputs": [
        {
          "indexed": false,
          "internalType": "address",
          "name": "_from",
          "type": "address"
        },
        {
          "indexed": false,
          "internalType": "address",
          "name": "_to",
          "type": "address"
        },
        {
          "indexed": false,
          "internalType": "uint256",
          "name": "_amount",
          "type": "uint256"
        }
      ],
      "name": "Transferred",
      "type": "event"
    },
    {
      "stateMutability": "payable",
      "type": "fallback"
    },
    {
      "inputs": [
        {
          "internalType": "address",
          "name": "tokenContract",
          "type": "address"
        },
        {
          "internalType": "address",
          "name": "_from",
          "type": "address"
        },
        {
          "internalType": "address",
          "name": "_to",
          "type": "address"
        },
        {
          "internalType": "uint256",
          "name": "_tokenId",
          "type": "uint256"
        }
      ],
      "name": "transferFromNonFungibleTokenTo",
      "outputs": [],
      "stateMutability": "nonpayable",
      "type": "function"
    },
    {
      "inputs": [
        {
          "internalType": "address",
          "name": "tokenContract",
          "type": "address"
        },
        {
          "internalType": "address",
          "name": "_to",
          "type": "address"
        },
        {
          "internalType": "uint256",
          "name": "_amount",
          "type": "uint256"
        }
      ],
      "name": "transferFungibleTokenTo",
      "outputs": [],
      "stateMutability": "nonpayable",
      "type": "function"
    },
    {
      "inputs": [
        {
          "internalType": "address payable",
          "name": "_to",
          "type": "address"
        },
        {
          "internalType": "uint256",
          "name": "_amount",
          "type": "uint256"
        }
      ],
      "name": "transferTo",
      "outputs": [],
      "stateMutability": "nonpayable",
      "type": "function"
    },
    {
      "stateMutability": "payable",
      "type": "receive"
    }
  ],
  "bytecode": "0x608060405234801561001057600080fd5b506104b1806100206000396000f3fe6080604052600436106100355760003560e01c80632ccb1b301461003e578063cae6b2621461005e578063e8178a6a1461007e57005b3661003c57005b005b34801561004a57600080fd5b5061003c610059366004610335565b61009e565b34801561006a57600080fd5b5061003c610079366004610361565b61018f565b34801561008a57600080fd5b5061003c6100993660046103b2565b610279565b8047116100f15760405162461bcd60e51b815260206004820152601d60248201527f496e73756666696369656e7420636f6e74726163742062616c616e6365000000604482015260640160405180910390fd5b6040516001600160a01b038316908290600081818185875af1925050503d806000811461013a576040519150601f19603f3d011682016040523d82523d6000602084013e61013f565b606091505b5050604080513381526001600160a01b03851660208201529081018390527fd1ba4ac2e2a11b5101f6cb4d978f514a155b421e8ec396d2d9abaf0bb02917ee915060600160405180910390a15050565b6040516001600160a01b038481166024830152838116604483015260648201839052600091829187169060840160408051601f198184030181529181526020820180516001600160e01b03166323b872dd60e01b179052516101f19190610423565b6000604051808303816000865af19150503d806000811461022e576040519150601f19603f3d011682016040523d82523d6000602084013e610233565b606091505b50915091507fc939de2540668c9bbcd5df58c1a1a88520e87daddfe8f47a40c9584513d3dc8b828260405161026992919061043f565b60405180910390a1505050505050565b6040516001600160a01b038381166024830152604482018390526000919085169060640160408051601f198184030181529181526020820180516001600160e01b031663a9059cbb60e01b179052516102d29190610423565b6000604051808303816000865af19150503d806000811461030f576040519150601f19603f3d011682016040523d82523d6000602084013e610314565b606091505b50505050505050565b6001600160a01b038116811461033257600080fd5b50565b6000806040838503121561034857600080fd5b82356103538161031d565b946020939093013593505050565b6000806000806080858703121561037757600080fd5b84356103828161031d565b935060208501356103928161031d565b925060408501356103a28161031d565b9396929550929360600135925050565b6000806000606084860312156103c757600080fd5b83356103d28161031d565b925060208401356103e28161031d565b929592945050506040919091013590565b60005b8381101561040e5781810151838201526020016103f6565b8381111561041d576000848401525b50505050565b600082516104358184602087016103f3565b9190910192915050565b821515815260406020820152600082518060408401526104668160608501602087016103f3565b601f01601f191691909101606001939250505056fea2646970667358221220f30f24e7cb53cec0f19dea9429a8b0b0d0e5ee387de9de13fb9f36354c569cdc64736f6c63430008090033",
  "linkReferences": {},
  "deployedLinkReferences": {}
}