{
  "_format": "hh-sol-artifact-1",
  "contractName": "Parent",
  "sourceName": "contracts/Parent.sol",
  "abi": [
    {
      "inputs": [],
      "stateMutability": "payable",
      "type": "constructor"
    },
    {
      "anonymous": false,
      "inputs": [
        {
          "indexed": false,
          "internalType": "string",
          "name": "message",
          "type": "string"
        }
      ],
      "name": "ParentActivityLog",
      "type": "event"
    },
    {
      "inputs": [
        {
          "internalType": "uint256",
          "name": "amount",
          "type": "uint256"
        }
      ],
      "name": "createChild",
      "outputs": [
        {
          "internalType": "address",
          "name": "",
          "type": "address"
        }
      ],
      "stateMutability": "nonpayable",
      "type": "function"
    },
    {
      "stateMutability": "payable",
      "type": "receive"
    }
  ],
  "bytecode": "0x60806040526000604051610012906100c0565b604051809103906000f08015801561002e573d6000803e3d6000fd5b5090508060008060028110610046576100456100cc565b5b0160006101000a81548173ffffffffffffffffffffffffffffffffffffffff021916908373ffffffffffffffffffffffffffffffffffffffff1602179055507f8f5fd6a78ac856dc2d622ab0db626cf919c1911133d4b038171534ea477e5d156040516100b290610158565b60405180910390a150610178565b60f78061061483390190565b7f4e487b7100000000000000000000000000000000000000000000000000000000600052603260045260246000fd5b600082825260208201905092915050565b7f43726561746564206669727374206368696c6420636f6e747261637400000000600082015250565b6000610142601c836100fb565b915061014d8261010c565b602082019050919050565b6000602082019050818103600083015261017181610135565b9050919050565b61048d806101876000396000f3fe6080604052600436106100225760003560e01c80630419eca51461002e57610029565b3661002957005b600080fd5b34801561003a57600080fd5b506100556004803603810190610050919061022b565b61006b565b6040516100629190610299565b60405180910390f35b6000604051610079906101e4565b604051809103906000f080158015610095573d6000803e3d6000fd5b5060006001600281106100ab576100aa6102b4565b5b0160006101000a81548173ffffffffffffffffffffffffffffffffffffffff021916908373ffffffffffffffffffffffffffffffffffffffff1602179055507f8f5fd6a78ac856dc2d622ab0db626cf919c1911133d4b038171534ea477e5d1560405161011790610340565b60405180910390a160008211156101a657600060016002811061013d5761013c6102b4565b5b0160009054906101000a900473ffffffffffffffffffffffffffffffffffffffff1673ffffffffffffffffffffffffffffffffffffffff166108fc839081150290604051600060405180830381858888f193505050501580156101a4573d6000803e3d6000fd5b505b60006001600281106101bb576101ba6102b4565b5b0160009054906101000a900473ffffffffffffffffffffffffffffffffffffffff169050919050565b60f78061036183390190565b600080fd5b6000819050919050565b610208816101f5565b811461021357600080fd5b50565b600081359050610225816101ff565b92915050565b600060208284031215610241576102406101f0565b5b600061024f84828501610216565b91505092915050565b600073ffffffffffffffffffffffffffffffffffffffff82169050919050565b600061028382610258565b9050919050565b61029381610278565b82525050565b60006020820190506102ae600083018461028a565b92915050565b7f4e487b7100000000000000000000000000000000000000000000000000000000600052603260045260246000fd5b600082825260208201905092915050565b7f43726561746564207365636f6e64206368696c6420636f6e7472616374000000600082015250565b600061032a601d836102e3565b9150610335826102f4565b602082019050919050565b600060208201905081810360008301526103598161031d565b905091905056fe608060405234801561001057600080fd5b5060d88061001f6000396000f3fe608060405236606d573073ffffffffffffffffffffffffffffffffffffffff163373ffffffffffffffffffffffffffffffffffffffff167fddf252ad1be2c89b69c2b068fc378daa952ba7f163c4a11628f55a4df523b3ef34604051606391906089565b60405180910390a3005b600080fd5b6000819050919050565b6083816072565b82525050565b6000602082019050609c6000830184607c565b9291505056fea264697066735822122002e34f3fc97300cd3aadcc8601eb1de14ddd8b07aa043c9aa3b306c6aa6c22b764736f6c634300080b0033a2646970667358221220cf7ed548e82b718d69c683b59d0ea886d029f183b75c0ca26fe0ed2297112fb764736f6c634300080b0033608060405234801561001057600080fd5b5060d88061001f6000396000f3fe608060405236606d573073ffffffffffffffffffffffffffffffffffffffff163373ffffffffffffffffffffffffffffffffffffffff167fddf252ad1be2c89b69c2b068fc378daa952ba7f163c4a11628f55a4df523b3ef34604051606391906089565b60405180910390a3005b600080fd5b6000819050919050565b6083816072565b82525050565b6000602082019050609c6000830184607c565b9291505056fea264697066735822122002e34f3fc97300cd3aadcc8601eb1de14ddd8b07aa043c9aa3b306c6aa6c22b764736f6c634300080b0033",
  "linkReferences": {},
  "deployedLinkReferences": {}
}