{
  "_format": "hh-sol-artifact-1",
  "contractName": "BaseHTS",
  "sourceName": "contracts/contracts_v2/BaseHTS.sol",
  "abi": [
    {
      "anonymous": false,
      "inputs": [
        {
          "indexed": false,
          "internalType": "address",
          "name": "tokenAddress",
          "type": "address"
        }
      ],
      "name": "CreatedToken",
      "type": "event"
    },
    {
      "anonymous": false,
      "inputs": [
        {
          "components": [
            {
              "components": [
                {
                  "components": [
                    {
                      "internalType": "string",
                      "name": "name",
                      "type": "string"
                    },
                    {
                      "internalType": "string",
                      "name": "symbol",
                      "type": "string"
                    },
                    {
                      "internalType": "address",
                      "name": "treasury",
                      "type": "address"
                    },
                    {
                      "internalType": "string",
                      "name": "memo",
                      "type": "string"
                    },
                    {
                      "internalType": "bool",
                      "name": "tokenSupplyType",
                      "type": "bool"
                    },
                    {
                      "internalType": "int64",
                      "name": "maxSupply",
                      "type": "int64"
                    },
                    {
                      "internalType": "bool",
                      "name": "freezeDefault",
                      "type": "bool"
                    },
                    {
                      "components": [
                        {
                          "internalType": "uint256",
                          "name": "keyType",
                          "type": "uint256"
                        },
                        {
                          "components": [
                            {
                              "internalType": "bool",
                              "name": "inheritAccountKey",
                              "type": "bool"
                            },
                            {
                              "internalType": "address",
                              "name": "contractId",
                              "type": "address"
                            },
                            {
                              "internalType": "bytes",
                              "name": "ed25519",
                              "type": "bytes"
                            },
                            {
                              "internalType": "bytes",
                              "name": "ECDSA_secp256k1",
                              "type": "bytes"
                            },
                            {
                              "internalType": "address",
                              "name": "delegatableContractId",
                              "type": "address"
                            }
                          ],
                          "internalType": "struct IHederaTokenService.KeyValue",
                          "name": "key",
                          "type": "tuple"
                        }
                      ],
                      "internalType": "struct IHederaTokenService.TokenKey[]",
                      "name": "tokenKeys",
                      "type": "tuple[]"
                    },
                    {
                      "components": [
                        {
                          "internalType": "uint32",
                          "name": "second",
                          "type": "uint32"
                        },
                        {
                          "internalType": "address",
                          "name": "autoRenewAccount",
                          "type": "address"
                        },
                        {
                          "internalType": "uint32",
                          "name": "autoRenewPeriod",
                          "type": "uint32"
                        }
                      ],
                      "internalType": "struct IHederaTokenService.Expiry",
                      "name": "expiry",
                      "type": "tuple"
                    }
                  ],
                  "internalType": "struct IHederaTokenService.HederaToken",
                  "name": "token",
                  "type": "tuple"
                },
                {
                  "internalType": "uint64",
                  "name": "totalSupply",
                  "type": "uint64"
                },
                {
                  "internalType": "bool",
                  "name": "deleted",
                  "type": "bool"
                },
                {
                  "internalType": "bool",
                  "name": "defaultKycStatus",
                  "type": "bool"
                },
                {
                  "internalType": "bool",
                  "name": "pauseStatus",
                  "type": "bool"
                },
                {
                  "components": [
                    {
                      "internalType": "uint32",
                      "name": "amount",
                      "type": "uint32"
                    },
                    {
                      "internalType": "address",
                      "name": "tokenId",
                      "type": "address"
                    },
                    {
                      "internalType": "bool",
                      "name": "useHbarsForPayment",
                      "type": "bool"
                    },
                    {
                      "internalType": "bool",
                      "name": "useCurrentTokenForPayment",
                      "type": "bool"
                    },
                    {
                      "internalType": "address",
                      "name": "feeCollector",
                      "type": "address"
                    }
                  ],
                  "internalType": "struct IHederaTokenService.FixedFee[]",
                  "name": "fixedFees",
                  "type": "tuple[]"
                },
                {
                  "components": [
                    {
                      "internalType": "uint32",
                      "name": "numerator",
                      "type": "uint32"
                    },
                    {
                      "internalType": "uint32",
                      "name": "denominator",
                      "type": "uint32"
                    },
                    {
                      "internalType": "uint32",
                      "name": "minimumAmount",
                      "type": "uint32"
                    },
                    {
                      "internalType": "uint32",
                      "name": "maximumAmount",
                      "type": "uint32"
                    },
                    {
                      "internalType": "bool",
                      "name": "netOfTransfers",
                      "type": "bool"
                    },
                    {
                      "internalType": "address",
                      "name": "feeCollector",
                      "type": "address"
                    }
                  ],
                  "internalType": "struct IHederaTokenService.FractionalFee[]",
                  "name": "fractionalFees",
                  "type": "tuple[]"
                },
                {
                  "components": [
                    {
                      "internalType": "uint32",
                      "name": "numerator",
                      "type": "uint32"
                    },
                    {
                      "internalType": "uint32",
                      "name": "denominator",
                      "type": "uint32"
                    },
                    {
                      "internalType": "uint32",
                      "name": "amount",
                      "type": "uint32"
                    },
                    {
                      "internalType": "address",
                      "name": "tokenId",
                      "type": "address"
                    },
                    {
                      "internalType": "bool",
                      "name": "useHbarsForPayment",
                      "type": "bool"
                    },
                    {
                      "internalType": "address",
                      "name": "feeCollector",
                      "type": "address"
                    }
                  ],
                  "internalType": "struct IHederaTokenService.RoyaltyFee[]",
                  "name": "royaltyFees",
                  "type": "tuple[]"
                },
                {
                  "internalType": "string",
                  "name": "ledgerId",
                  "type": "string"
                }
              ],
              "internalType": "struct IHederaTokenService.TokenInfo",
              "name": "tokenInfo",
              "type": "tuple"
            },
            {
              "internalType": "uint32",
              "name": "decimals",
              "type": "uint32"
            }
          ],
          "indexed": false,
          "internalType": "struct IHederaTokenService.FungibleTokenInfo",
          "name": "tokenInfo",
          "type": "tuple"
        }
      ],
      "name": "FungibleTokenInfo",
      "type": "event"
    },
    {
      "anonymous": false,
      "inputs": [
        {
          "indexed": false,
          "internalType": "bool",
          "name": "isToken",
          "type": "bool"
        }
      ],
      "name": "IsToken",
      "type": "event"
    },
    {
      "anonymous": false,
      "inputs": [
        {
          "indexed": false,
          "internalType": "uint64",
          "name": "newTotalSupply",
          "type": "uint64"
        },
        {
          "indexed": false,
          "internalType": "int64[]",
          "name": "serialNumbers",
          "type": "int64[]"
        }
      ],
      "name": "MintedToken",
      "type": "event"
    },
    {
      "anonymous": false,
      "inputs": [
        {
          "components": [
            {
              "components": [
                {
                  "components": [
                    {
                      "internalType": "string",
                      "name": "name",
                      "type": "string"
                    },
                    {
                      "internalType": "string",
                      "name": "symbol",
                      "type": "string"
                    },
                    {
                      "internalType": "address",
                      "name": "treasury",
                      "type": "address"
                    },
                    {
                      "internalType": "string",
                      "name": "memo",
                      "type": "string"
                    },
                    {
                      "internalType": "bool",
                      "name": "tokenSupplyType",
                      "type": "bool"
                    },
                    {
                      "internalType": "int64",
                      "name": "maxSupply",
                      "type": "int64"
                    },
                    {
                      "internalType": "bool",
                      "name": "freezeDefault",
                      "type": "bool"
                    },
                    {
                      "components": [
                        {
                          "internalType": "uint256",
                          "name": "keyType",
                          "type": "uint256"
                        },
                        {
                          "components": [
                            {
                              "internalType": "bool",
                              "name": "inheritAccountKey",
                              "type": "bool"
                            },
                            {
                              "internalType": "address",
                              "name": "contractId",
                              "type": "address"
                            },
                            {
                              "internalType": "bytes",
                              "name": "ed25519",
                              "type": "bytes"
                            },
                            {
                              "internalType": "bytes",
                              "name": "ECDSA_secp256k1",
                              "type": "bytes"
                            },
                            {
                              "internalType": "address",
                              "name": "delegatableContractId",
                              "type": "address"
                            }
                          ],
                          "internalType": "struct IHederaTokenService.KeyValue",
                          "name": "key",
                          "type": "tuple"
                        }
                      ],
                      "internalType": "struct IHederaTokenService.TokenKey[]",
                      "name": "tokenKeys",
                      "type": "tuple[]"
                    },
                    {
                      "components": [
                        {
                          "internalType": "uint32",
                          "name": "second",
                          "type": "uint32"
                        },
                        {
                          "internalType": "address",
                          "name": "autoRenewAccount",
                          "type": "address"
                        },
                        {
                          "internalType": "uint32",
                          "name": "autoRenewPeriod",
                          "type": "uint32"
                        }
                      ],
                      "internalType": "struct IHederaTokenService.Expiry",
                      "name": "expiry",
                      "type": "tuple"
                    }
                  ],
                  "internalType": "struct IHederaTokenService.HederaToken",
                  "name": "token",
                  "type": "tuple"
                },
                {
                  "internalType": "uint64",
                  "name": "totalSupply",
                  "type": "uint64"
                },
                {
                  "internalType": "bool",
                  "name": "deleted",
                  "type": "bool"
                },
                {
                  "internalType": "bool",
                  "name": "defaultKycStatus",
                  "type": "bool"
                },
                {
                  "internalType": "bool",
                  "name": "pauseStatus",
                  "type": "bool"
                },
                {
                  "components": [
                    {
                      "internalType": "uint32",
                      "name": "amount",
                      "type": "uint32"
                    },
                    {
                      "internalType": "address",
                      "name": "tokenId",
                      "type": "address"
                    },
                    {
                      "internalType": "bool",
                      "name": "useHbarsForPayment",
                      "type": "bool"
                    },
                    {
                      "internalType": "bool",
                      "name": "useCurrentTokenForPayment",
                      "type": "bool"
                    },
                    {
                      "internalType": "address",
                      "name": "feeCollector",
                      "type": "address"
                    }
                  ],
                  "internalType": "struct IHederaTokenService.FixedFee[]",
                  "name": "fixedFees",
                  "type": "tuple[]"
                },
                {
                  "components": [
                    {
                      "internalType": "uint32",
                      "name": "numerator",
                      "type": "uint32"
                    },
                    {
                      "internalType": "uint32",
                      "name": "denominator",
                      "type": "uint32"
                    },
                    {
                      "internalType": "uint32",
                      "name": "minimumAmount",
                      "type": "uint32"
                    },
                    {
                      "internalType": "uint32",
                      "name": "maximumAmount",
                      "type": "uint32"
                    },
                    {
                      "internalType": "bool",
                      "name": "netOfTransfers",
                      "type": "bool"
                    },
                    {
                      "internalType": "address",
                      "name": "feeCollector",
                      "type": "address"
                    }
                  ],
                  "internalType": "struct IHederaTokenService.FractionalFee[]",
                  "name": "fractionalFees",
                  "type": "tuple[]"
                },
                {
                  "components": [
                    {
                      "internalType": "uint32",
                      "name": "numerator",
                      "type": "uint32"
                    },
                    {
                      "internalType": "uint32",
                      "name": "denominator",
                      "type": "uint32"
                    },
                    {
                      "internalType": "uint32",
                      "name": "amount",
                      "type": "uint32"
                    },
                    {
                      "internalType": "address",
                      "name": "tokenId",
                      "type": "address"
                    },
                    {
                      "internalType": "bool",
                      "name": "useHbarsForPayment",
                      "type": "bool"
                    },
                    {
                      "internalType": "address",
                      "name": "feeCollector",
                      "type": "address"
                    }
                  ],
                  "internalType": "struct IHederaTokenService.RoyaltyFee[]",
                  "name": "royaltyFees",
                  "type": "tuple[]"
                },
                {
                  "internalType": "string",
                  "name": "ledgerId",
                  "type": "string"
                }
              ],
              "internalType": "struct IHederaTokenService.TokenInfo",
              "name": "tokenInfo",
              "type": "tuple"
            },
            {
              "internalType": "int64",
              "name": "serialNumber",
              "type": "int64"
            },
            {
              "internalType": "address",
              "name": "ownerId",
              "type": "address"
            },
            {
              "internalType": "int64",
              "name": "creationTime",
              "type": "int64"
            },
            {
              "internalType": "bytes",
              "name": "metadata",
              "type": "bytes"
            },
            {
              "internalType": "address",
              "name": "spenderId",
              "type": "address"
            }
          ],
          "indexed": false,
          "internalType": "struct IHederaTokenService.NonFungibleTokenInfo",
          "name": "tokenInfo",
          "type": "tuple"
        }
      ],
      "name": "NonFungibleTokenInfo",
      "type": "event"
    },
    {
      "anonymous": false,
      "inputs": [
        {
          "indexed": false,
          "internalType": "int256",
          "name": "responseCode",
          "type": "int256"
        }
      ],
      "name": "ResponseCode",
      "type": "event"
    },
    {
      "anonymous": false,
      "inputs": [
        {
          "components": [
            {
              "components": [
                {
                  "internalType": "string",
                  "name": "name",
                  "type": "string"
                },
                {
                  "internalType": "string",
                  "name": "symbol",
                  "type": "string"
                },
                {
                  "internalType": "address",
                  "name": "treasury",
                  "type": "address"
                },
                {
                  "internalType": "string",
                  "name": "memo",
                  "type": "string"
                },
                {
                  "internalType": "bool",
                  "name": "tokenSupplyType",
                  "type": "bool"
                },
                {
                  "internalType": "int64",
                  "name": "maxSupply",
                  "type": "int64"
                },
                {
                  "internalType": "bool",
                  "name": "freezeDefault",
                  "type": "bool"
                },
                {
                  "components": [
                    {
                      "internalType": "uint256",
                      "name": "keyType",
                      "type": "uint256"
                    },
                    {
                      "components": [
                        {
                          "internalType": "bool",
                          "name": "inheritAccountKey",
                          "type": "bool"
                        },
                        {
                          "internalType": "address",
                          "name": "contractId",
                          "type": "address"
                        },
                        {
                          "internalType": "bytes",
                          "name": "ed25519",
                          "type": "bytes"
                        },
                        {
                          "internalType": "bytes",
                          "name": "ECDSA_secp256k1",
                          "type": "bytes"
                        },
                        {
                          "internalType": "address",
                          "name": "delegatableContractId",
                          "type": "address"
                        }
                      ],
                      "internalType": "struct IHederaTokenService.KeyValue",
                      "name": "key",
                      "type": "tuple"
                    }
                  ],
                  "internalType": "struct IHederaTokenService.TokenKey[]",
                  "name": "tokenKeys",
                  "type": "tuple[]"
                },
                {
                  "components": [
                    {
                      "internalType": "uint32",
                      "name": "second",
                      "type": "uint32"
                    },
                    {
                      "internalType": "address",
                      "name": "autoRenewAccount",
                      "type": "address"
                    },
                    {
                      "internalType": "uint32",
                      "name": "autoRenewPeriod",
                      "type": "uint32"
                    }
                  ],
                  "internalType": "struct IHederaTokenService.Expiry",
                  "name": "expiry",
                  "type": "tuple"
                }
              ],
              "internalType": "struct IHederaTokenService.HederaToken",
              "name": "token",
              "type": "tuple"
            },
            {
              "internalType": "uint64",
              "name": "totalSupply",
              "type": "uint64"
            },
            {
              "internalType": "bool",
              "name": "deleted",
              "type": "bool"
            },
            {
              "internalType": "bool",
              "name": "defaultKycStatus",
              "type": "bool"
            },
            {
              "internalType": "bool",
              "name": "pauseStatus",
              "type": "bool"
            },
            {
              "components": [
                {
                  "internalType": "uint32",
                  "name": "amount",
                  "type": "uint32"
                },
                {
                  "internalType": "address",
                  "name": "tokenId",
                  "type": "address"
                },
                {
                  "internalType": "bool",
                  "name": "useHbarsForPayment",
                  "type": "bool"
                },
                {
                  "internalType": "bool",
                  "name": "useCurrentTokenForPayment",
                  "type": "bool"
                },
                {
                  "internalType": "address",
                  "name": "feeCollector",
                  "type": "address"
                }
              ],
              "internalType": "struct IHederaTokenService.FixedFee[]",
              "name": "fixedFees",
              "type": "tuple[]"
            },
            {
              "components": [
                {
                  "internalType": "uint32",
                  "name": "numerator",
                  "type": "uint32"
                },
                {
                  "internalType": "uint32",
                  "name": "denominator",
                  "type": "uint32"
                },
                {
                  "internalType": "uint32",
                  "name": "minimumAmount",
                  "type": "uint32"
                },
                {
                  "internalType": "uint32",
                  "name": "maximumAmount",
                  "type": "uint32"
                },
                {
                  "internalType": "bool",
                  "name": "netOfTransfers",
                  "type": "bool"
                },
                {
                  "internalType": "address",
                  "name": "feeCollector",
                  "type": "address"
                }
              ],
              "internalType": "struct IHederaTokenService.FractionalFee[]",
              "name": "fractionalFees",
              "type": "tuple[]"
            },
            {
              "components": [
                {
                  "internalType": "uint32",
                  "name": "numerator",
                  "type": "uint32"
                },
                {
                  "internalType": "uint32",
                  "name": "denominator",
                  "type": "uint32"
                },
                {
                  "internalType": "uint32",
                  "name": "amount",
                  "type": "uint32"
                },
                {
                  "internalType": "address",
                  "name": "tokenId",
                  "type": "address"
                },
                {
                  "internalType": "bool",
                  "name": "useHbarsForPayment",
                  "type": "bool"
                },
                {
                  "internalType": "address",
                  "name": "feeCollector",
                  "type": "address"
                }
              ],
              "internalType": "struct IHederaTokenService.RoyaltyFee[]",
              "name": "royaltyFees",
              "type": "tuple[]"
            },
            {
              "internalType": "string",
              "name": "ledgerId",
              "type": "string"
            }
          ],
          "indexed": false,
          "internalType": "struct IHederaTokenService.TokenInfo",
          "name": "tokenInfo",
          "type": "tuple"
        }
      ],
      "name": "TokenInfo",
      "type": "event"
    },
    {
      "anonymous": false,
      "inputs": [
        {
          "components": [
            {
              "internalType": "bool",
              "name": "inheritAccountKey",
              "type": "bool"
            },
            {
              "internalType": "address",
              "name": "contractId",
              "type": "address"
            },
            {
              "internalType": "bytes",
              "name": "ed25519",
              "type": "bytes"
            },
            {
              "internalType": "bytes",
              "name": "ECDSA_secp256k1",
              "type": "bytes"
            },
            {
              "internalType": "address",
              "name": "delegatableContractId",
              "type": "address"
            }
          ],
          "indexed": false,
          "internalType": "struct IHederaTokenService.KeyValue",
          "name": "key",
          "type": "tuple"
        }
      ],
      "name": "TokenKey",
      "type": "event"
    },
    {
      "anonymous": false,
      "inputs": [
        {
          "indexed": false,
          "internalType": "int32",
          "name": "tokenType",
          "type": "int32"
        }
      ],
      "name": "TokenType",
      "type": "event"
    },
    {
      "inputs": [
        {
          "internalType": "address",
          "name": "account",
          "type": "address"
        },
        {
          "internalType": "address",
          "name": "token",
          "type": "address"
        }
      ],
      "name": "associateTokenPublic",
      "outputs": [
        {
          "internalType": "int256",
          "name": "responseCode",
          "type": "int256"
        }
      ],
      "stateMutability": "nonpayable",
      "type": "function"
    },
    {
      "inputs": [
        {
          "internalType": "address",
          "name": "treasury",
          "type": "address"
        }
      ],
      "name": "createFungibleTokenPublic",
      "outputs": [],
      "stateMutability": "payable",
      "type": "function"
    },
    {
      "inputs": [
        {
          "internalType": "address",
          "name": "treasury",
          "type": "address"
        }
      ],
      "name": "createNonFungibleTokenPublic",
      "outputs": [],
      "stateMutability": "payable",
      "type": "function"
    },
    {
      "inputs": [
        {
          "internalType": "address",
          "name": "account",
          "type": "address"
        },
        {
          "internalType": "address",
          "name": "token",
          "type": "address"
        },
        {
          "internalType": "int64",
          "name": "amount",
          "type": "int64"
        }
      ],
      "name": "cryptoTransferTokenPublic",
      "outputs": [
        {
          "internalType": "int256",
          "name": "responseCode",
          "type": "int256"
        }
      ],
      "stateMutability": "nonpayable",
      "type": "function"
    },
    {
      "inputs": [
        {
          "internalType": "address",
          "name": "token",
          "type": "address"
        },
        {
          "internalType": "int64",
          "name": "serialNumber",
          "type": "int64"
        }
      ],
      "name": "getNonFungibleTokenInfoPublic",
      "outputs": [
        {
          "internalType": "int256",
          "name": "responseCode",
          "type": "int256"
        },
        {
          "components": [
            {
              "components": [
                {
                  "components": [
                    {
                      "internalType": "string",
                      "name": "name",
                      "type": "string"
                    },
                    {
                      "internalType": "string",
                      "name": "symbol",
                      "type": "string"
                    },
                    {
                      "internalType": "address",
                      "name": "treasury",
                      "type": "address"
                    },
                    {
                      "internalType": "string",
                      "name": "memo",
                      "type": "string"
                    },
                    {
                      "internalType": "bool",
                      "name": "tokenSupplyType",
                      "type": "bool"
                    },
                    {
                      "internalType": "int64",
                      "name": "maxSupply",
                      "type": "int64"
                    },
                    {
                      "internalType": "bool",
                      "name": "freezeDefault",
                      "type": "bool"
                    },
                    {
                      "components": [
                        {
                          "internalType": "uint256",
                          "name": "keyType",
                          "type": "uint256"
                        },
                        {
                          "components": [
                            {
                              "internalType": "bool",
                              "name": "inheritAccountKey",
                              "type": "bool"
                            },
                            {
                              "internalType": "address",
                              "name": "contractId",
                              "type": "address"
                            },
                            {
                              "internalType": "bytes",
                              "name": "ed25519",
                              "type": "bytes"
                            },
                            {
                              "internalType": "bytes",
                              "name": "ECDSA_secp256k1",
                              "type": "bytes"
                            },
                            {
                              "internalType": "address",
                              "name": "delegatableContractId",
                              "type": "address"
                            }
                          ],
                          "internalType": "struct IHederaTokenService.KeyValue",
                          "name": "key",
                          "type": "tuple"
                        }
                      ],
                      "internalType": "struct IHederaTokenService.TokenKey[]",
                      "name": "tokenKeys",
                      "type": "tuple[]"
                    },
                    {
                      "components": [
                        {
                          "internalType": "uint32",
                          "name": "second",
                          "type": "uint32"
                        },
                        {
                          "internalType": "address",
                          "name": "autoRenewAccount",
                          "type": "address"
                        },
                        {
                          "internalType": "uint32",
                          "name": "autoRenewPeriod",
                          "type": "uint32"
                        }
                      ],
                      "internalType": "struct IHederaTokenService.Expiry",
                      "name": "expiry",
                      "type": "tuple"
                    }
                  ],
                  "internalType": "struct IHederaTokenService.HederaToken",
                  "name": "token",
                  "type": "tuple"
                },
                {
                  "internalType": "uint64",
                  "name": "totalSupply",
                  "type": "uint64"
                },
                {
                  "internalType": "bool",
                  "name": "deleted",
                  "type": "bool"
                },
                {
                  "internalType": "bool",
                  "name": "defaultKycStatus",
                  "type": "bool"
                },
                {
                  "internalType": "bool",
                  "name": "pauseStatus",
                  "type": "bool"
                },
                {
                  "components": [
                    {
                      "internalType": "uint32",
                      "name": "amount",
                      "type": "uint32"
                    },
                    {
                      "internalType": "address",
                      "name": "tokenId",
                      "type": "address"
                    },
                    {
                      "internalType": "bool",
                      "name": "useHbarsForPayment",
                      "type": "bool"
                    },
                    {
                      "internalType": "bool",
                      "name": "useCurrentTokenForPayment",
                      "type": "bool"
                    },
                    {
                      "internalType": "address",
                      "name": "feeCollector",
                      "type": "address"
                    }
                  ],
                  "internalType": "struct IHederaTokenService.FixedFee[]",
                  "name": "fixedFees",
                  "type": "tuple[]"
                },
                {
                  "components": [
                    {
                      "internalType": "uint32",
                      "name": "numerator",
                      "type": "uint32"
                    },
                    {
                      "internalType": "uint32",
                      "name": "denominator",
                      "type": "uint32"
                    },
                    {
                      "internalType": "uint32",
                      "name": "minimumAmount",
                      "type": "uint32"
                    },
                    {
                      "internalType": "uint32",
                      "name": "maximumAmount",
                      "type": "uint32"
                    },
                    {
                      "internalType": "bool",
                      "name": "netOfTransfers",
                      "type": "bool"
                    },
                    {
                      "internalType": "address",
                      "name": "feeCollector",
                      "type": "address"
                    }
                  ],
                  "internalType": "struct IHederaTokenService.FractionalFee[]",
                  "name": "fractionalFees",
                  "type": "tuple[]"
                },
                {
                  "components": [
                    {
                      "internalType": "uint32",
                      "name": "numerator",
                      "type": "uint32"
                    },
                    {
                      "internalType": "uint32",
                      "name": "denominator",
                      "type": "uint32"
                    },
                    {
                      "internalType": "uint32",
                      "name": "amount",
                      "type": "uint32"
                    },
                    {
                      "internalType": "address",
                      "name": "tokenId",
                      "type": "address"
                    },
                    {
                      "internalType": "bool",
                      "name": "useHbarsForPayment",
                      "type": "bool"
                    },
                    {
                      "internalType": "address",
                      "name": "feeCollector",
                      "type": "address"
                    }
                  ],
                  "internalType": "struct IHederaTokenService.RoyaltyFee[]",
                  "name": "royaltyFees",
                  "type": "tuple[]"
                },
                {
                  "internalType": "string",
                  "name": "ledgerId",
                  "type": "string"
                }
              ],
              "internalType": "struct IHederaTokenService.TokenInfo",
              "name": "tokenInfo",
              "type": "tuple"
            },
            {
              "internalType": "int64",
              "name": "serialNumber",
              "type": "int64"
            },
            {
              "internalType": "address",
              "name": "ownerId",
              "type": "address"
            },
            {
              "internalType": "int64",
              "name": "creationTime",
              "type": "int64"
            },
            {
              "internalType": "bytes",
              "name": "metadata",
              "type": "bytes"
            },
            {
              "internalType": "address",
              "name": "spenderId",
              "type": "address"
            }
          ],
          "internalType": "struct IHederaTokenService.NonFungibleTokenInfo",
          "name": "tokenInfo",
          "type": "tuple"
        }
      ],
      "stateMutability": "nonpayable",
      "type": "function"
    },
    {
      "inputs": [
        {
          "internalType": "address",
          "name": "token",
          "type": "address"
        }
      ],
      "name": "getTokenExpiryInfo",
      "outputs": [
        {
          "internalType": "int256",
          "name": "responseCode",
          "type": "int256"
        },
        {
          "components": [
            {
              "internalType": "uint32",
              "name": "second",
              "type": "uint32"
            },
            {
              "internalType": "address",
              "name": "autoRenewAccount",
              "type": "address"
            },
            {
              "internalType": "uint32",
              "name": "autoRenewPeriod",
              "type": "uint32"
            }
          ],
          "internalType": "struct IHederaTokenService.Expiry",
          "name": "expiryInfo",
          "type": "tuple"
        }
      ],
      "stateMutability": "nonpayable",
      "type": "function"
    },
    {
      "inputs": [
        {
          "internalType": "address",
          "name": "token",
          "type": "address"
        }
      ],
      "name": "getTokenInfoPublic",
      "outputs": [
        {
          "internalType": "int256",
          "name": "responseCode",
          "type": "int256"
        },
        {
          "components": [
            {
              "components": [
                {
                  "internalType": "string",
                  "name": "name",
                  "type": "string"
                },
                {
                  "internalType": "string",
                  "name": "symbol",
                  "type": "string"
                },
                {
                  "internalType": "address",
                  "name": "treasury",
                  "type": "address"
                },
                {
                  "internalType": "string",
                  "name": "memo",
                  "type": "string"
                },
                {
                  "internalType": "bool",
                  "name": "tokenSupplyType",
                  "type": "bool"
                },
                {
                  "internalType": "int64",
                  "name": "maxSupply",
                  "type": "int64"
                },
                {
                  "internalType": "bool",
                  "name": "freezeDefault",
                  "type": "bool"
                },
                {
                  "components": [
                    {
                      "internalType": "uint256",
                      "name": "keyType",
                      "type": "uint256"
                    },
                    {
                      "components": [
                        {
                          "internalType": "bool",
                          "name": "inheritAccountKey",
                          "type": "bool"
                        },
                        {
                          "internalType": "address",
                          "name": "contractId",
                          "type": "address"
                        },
                        {
                          "internalType": "bytes",
                          "name": "ed25519",
                          "type": "bytes"
                        },
                        {
                          "internalType": "bytes",
                          "name": "ECDSA_secp256k1",
                          "type": "bytes"
                        },
                        {
                          "internalType": "address",
                          "name": "delegatableContractId",
                          "type": "address"
                        }
                      ],
                      "internalType": "struct IHederaTokenService.KeyValue",
                      "name": "key",
                      "type": "tuple"
                    }
                  ],
                  "internalType": "struct IHederaTokenService.TokenKey[]",
                  "name": "tokenKeys",
                  "type": "tuple[]"
                },
                {
                  "components": [
                    {
                      "internalType": "uint32",
                      "name": "second",
                      "type": "uint32"
                    },
                    {
                      "internalType": "address",
                      "name": "autoRenewAccount",
                      "type": "address"
                    },
                    {
                      "internalType": "uint32",
                      "name": "autoRenewPeriod",
                      "type": "uint32"
                    }
                  ],
                  "internalType": "struct IHederaTokenService.Expiry",
                  "name": "expiry",
                  "type": "tuple"
                }
              ],
              "internalType": "struct IHederaTokenService.HederaToken",
              "name": "token",
              "type": "tuple"
            },
            {
              "internalType": "uint64",
              "name": "totalSupply",
              "type": "uint64"
            },
            {
              "internalType": "bool",
              "name": "deleted",
              "type": "bool"
            },
            {
              "internalType": "bool",
              "name": "defaultKycStatus",
              "type": "bool"
            },
            {
              "internalType": "bool",
              "name": "pauseStatus",
              "type": "bool"
            },
            {
              "components": [
                {
                  "internalType": "uint32",
                  "name": "amount",
                  "type": "uint32"
                },
                {
                  "internalType": "address",
                  "name": "tokenId",
                  "type": "address"
                },
                {
                  "internalType": "bool",
                  "name": "useHbarsForPayment",
                  "type": "bool"
                },
                {
                  "internalType": "bool",
                  "name": "useCurrentTokenForPayment",
                  "type": "bool"
                },
                {
                  "internalType": "address",
                  "name": "feeCollector",
                  "type": "address"
                }
              ],
              "internalType": "struct IHederaTokenService.FixedFee[]",
              "name": "fixedFees",
              "type": "tuple[]"
            },
            {
              "components": [
                {
                  "internalType": "uint32",
                  "name": "numerator",
                  "type": "uint32"
                },
                {
                  "internalType": "uint32",
                  "name": "denominator",
                  "type": "uint32"
                },
                {
                  "internalType": "uint32",
                  "name": "minimumAmount",
                  "type": "uint32"
                },
                {
                  "internalType": "uint32",
                  "name": "maximumAmount",
                  "type": "uint32"
                },
                {
                  "internalType": "bool",
                  "name": "netOfTransfers",
                  "type": "bool"
                },
                {
                  "internalType": "address",
                  "name": "feeCollector",
                  "type": "address"
                }
              ],
              "internalType": "struct IHederaTokenService.FractionalFee[]",
              "name": "fractionalFees",
              "type": "tuple[]"
            },
            {
              "components": [
                {
                  "internalType": "uint32",
                  "name": "numerator",
                  "type": "uint32"
                },
                {
                  "internalType": "uint32",
                  "name": "denominator",
                  "type": "uint32"
                },
                {
                  "internalType": "uint32",
                  "name": "amount",
                  "type": "uint32"
                },
                {
                  "internalType": "address",
                  "name": "tokenId",
                  "type": "address"
                },
                {
                  "internalType": "bool",
                  "name": "useHbarsForPayment",
                  "type": "bool"
                },
                {
                  "internalType": "address",
                  "name": "feeCollector",
                  "type": "address"
                }
              ],
              "internalType": "struct IHederaTokenService.RoyaltyFee[]",
              "name": "royaltyFees",
              "type": "tuple[]"
            },
            {
              "internalType": "string",
              "name": "ledgerId",
              "type": "string"
            }
          ],
          "internalType": "struct IHederaTokenService.TokenInfo",
          "name": "tokenInfo",
          "type": "tuple"
        }
      ],
      "stateMutability": "nonpayable",
      "type": "function"
    },
    {
      "inputs": [
        {
          "internalType": "address",
          "name": "token",
          "type": "address"
        },
        {
          "internalType": "uint256",
          "name": "keyType",
          "type": "uint256"
        }
      ],
      "name": "getTokenKeyPublic",
      "outputs": [
        {
          "internalType": "int64",
          "name": "responseCode",
          "type": "int64"
        },
        {
          "components": [
            {
              "internalType": "bool",
              "name": "inheritAccountKey",
              "type": "bool"
            },
            {
              "internalType": "address",
              "name": "contractId",
              "type": "address"
            },
            {
              "internalType": "bytes",
              "name": "ed25519",
              "type": "bytes"
            },
            {
              "internalType": "bytes",
              "name": "ECDSA_secp256k1",
              "type": "bytes"
            },
            {
              "internalType": "address",
              "name": "delegatableContractId",
              "type": "address"
            }
          ],
          "internalType": "struct IHederaTokenService.KeyValue",
          "name": "key",
          "type": "tuple"
        }
      ],
      "stateMutability": "nonpayable",
      "type": "function"
    },
    {
      "inputs": [
        {
          "internalType": "address",
          "name": "token",
          "type": "address"
        }
      ],
      "name": "getTokenTypePublic",
      "outputs": [
        {
          "internalType": "int64",
          "name": "responseCode",
          "type": "int64"
        },
        {
          "internalType": "int32",
          "name": "tokenType",
          "type": "int32"
        }
      ],
      "stateMutability": "nonpayable",
      "type": "function"
    },
    {
      "inputs": [
        {
          "internalType": "address",
          "name": "token",
          "type": "address"
        },
        {
          "internalType": "address",
          "name": "account",
          "type": "address"
        }
      ],
      "name": "grantTokenKyc",
      "outputs": [
        {
          "internalType": "int64",
          "name": "responseCode",
          "type": "int64"
        }
      ],
      "stateMutability": "nonpayable",
      "type": "function"
    },
    {
      "inputs": [
        {
          "internalType": "address",
          "name": "token",
          "type": "address"
        },
        {
          "internalType": "address",
          "name": "account",
          "type": "address"
        }
      ],
      "name": "grantTokenKycPublic",
      "outputs": [
        {
          "internalType": "int64",
          "name": "responseCode",
          "type": "int64"
        }
      ],
      "stateMutability": "nonpayable",
      "type": "function"
    },
    {
      "inputs": [
        {
          "internalType": "address",
          "name": "token",
          "type": "address"
        },
        {
          "internalType": "address",
          "name": "account",
          "type": "address"
        }
      ],
      "name": "isKyc",
      "outputs": [
        {
          "internalType": "int64",
          "name": "responseCode",
          "type": "int64"
        },
        {
          "internalType": "bool",
          "name": "kycGranted",
          "type": "bool"
        }
      ],
      "stateMutability": "nonpayable",
      "type": "function"
    },
    {
      "inputs": [
        {
          "internalType": "address",
          "name": "token",
          "type": "address"
        }
      ],
      "name": "isTokenPublic",
      "outputs": [
        {
          "internalType": "int64",
          "name": "responseCode",
          "type": "int64"
        },
        {
          "internalType": "bool",
          "name": "isTokenFlag",
          "type": "bool"
        }
      ],
      "stateMutability": "nonpayable",
      "type": "function"
    },
    {
      "inputs": [
        {
          "internalType": "address",
          "name": "token",
          "type": "address"
        },
        {
          "internalType": "uint64",
          "name": "amount",
          "type": "uint64"
        },
        {
          "internalType": "bytes[]",
          "name": "metadata",
          "type": "bytes[]"
        }
      ],
      "name": "mintTokenPublic",
      "outputs": [
        {
          "internalType": "int256",
          "name": "responseCode",
          "type": "int256"
        },
        {
          "internalType": "uint64",
          "name": "newTotalSupply",
          "type": "uint64"
        },
        {
          "internalType": "int64[]",
          "name": "serialNumbers",
          "type": "int64[]"
        }
      ],
      "stateMutability": "nonpayable",
      "type": "function"
    },
    {
      "inputs": [
        {
          "internalType": "address",
          "name": "token",
          "type": "address"
        }
      ],
      "name": "pauseToken",
      "outputs": [
        {
          "internalType": "int256",
          "name": "responseCode",
          "type": "int256"
        }
      ],
      "stateMutability": "nonpayable",
      "type": "function"
    },
    {
      "inputs": [
        {
          "internalType": "address",
          "name": "token",
          "type": "address"
        },
        {
          "internalType": "address",
          "name": "account",
          "type": "address"
        }
      ],
      "name": "revokeTokenKyc",
      "outputs": [
        {
          "internalType": "int64",
          "name": "responseCode",
          "type": "int64"
        }
      ],
      "stateMutability": "nonpayable",
      "type": "function"
    },
    {
      "inputs": [
        {
          "internalType": "address",
          "name": "token",
          "type": "address"
        },
        {
          "internalType": "address",
          "name": "sender",
          "type": "address"
        },
        {
          "internalType": "address",
          "name": "receiver",
          "type": "address"
        },
        {
          "internalType": "int64",
          "name": "serialNumber",
          "type": "int64"
        }
      ],
      "name": "transferNFTPublic",
      "outputs": [
        {
          "internalType": "int256",
          "name": "responseCode",
          "type": "int256"
        }
      ],
      "stateMutability": "nonpayable",
      "type": "function"
    },
    {
      "inputs": [
        {
          "internalType": "address",
          "name": "token",
          "type": "address"
        }
      ],
      "name": "unpauseToken",
      "outputs": [
        {
          "internalType": "int256",
          "name": "responseCode",
          "type": "int256"
        }
      ],
      "stateMutability": "nonpayable",
      "type": "function"
    },
    {
      "inputs": [
        {
          "internalType": "address",
          "name": "token",
          "type": "address"
        },
        {
          "components": [
            {
              "internalType": "uint32",
              "name": "second",
              "type": "uint32"
            },
            {
              "internalType": "address",
              "name": "autoRenewAccount",
              "type": "address"
            },
            {
              "internalType": "uint32",
              "name": "autoRenewPeriod",
              "type": "uint32"
            }
          ],
          "internalType": "struct IHederaTokenService.Expiry",
          "name": "expiryInfo",
          "type": "tuple"
        }
      ],
      "name": "updateTokenExpiryInfo",
      "outputs": [
        {
          "internalType": "int256",
          "name": "responseCode",
          "type": "int256"
        }
      ],
      "stateMutability": "nonpayable",
      "type": "function"
    },
    {
      "inputs": [
        {
          "internalType": "address",
          "name": "token",
          "type": "address"
        },
        {
          "components": [
            {
              "internalType": "string",
              "name": "name",
              "type": "string"
            },
            {
              "internalType": "string",
              "name": "symbol",
              "type": "string"
            },
            {
              "internalType": "address",
              "name": "treasury",
              "type": "address"
            },
            {
              "internalType": "string",
              "name": "memo",
              "type": "string"
            },
            {
              "internalType": "bool",
              "name": "tokenSupplyType",
              "type": "bool"
            },
            {
              "internalType": "int64",
              "name": "maxSupply",
              "type": "int64"
            },
            {
              "internalType": "bool",
              "name": "freezeDefault",
              "type": "bool"
            },
            {
              "components": [
                {
                  "internalType": "uint256",
                  "name": "keyType",
                  "type": "uint256"
                },
                {
                  "components": [
                    {
                      "internalType": "bool",
                      "name": "inheritAccountKey",
                      "type": "bool"
                    },
                    {
                      "internalType": "address",
                      "name": "contractId",
                      "type": "address"
                    },
                    {
                      "internalType": "bytes",
                      "name": "ed25519",
                      "type": "bytes"
                    },
                    {
                      "internalType": "bytes",
                      "name": "ECDSA_secp256k1",
                      "type": "bytes"
                    },
                    {
                      "internalType": "address",
                      "name": "delegatableContractId",
                      "type": "address"
                    }
                  ],
                  "internalType": "struct IHederaTokenService.KeyValue",
                  "name": "key",
                  "type": "tuple"
                }
              ],
              "internalType": "struct IHederaTokenService.TokenKey[]",
              "name": "tokenKeys",
              "type": "tuple[]"
            },
            {
              "components": [
                {
                  "internalType": "uint32",
                  "name": "second",
                  "type": "uint32"
                },
                {
                  "internalType": "address",
                  "name": "autoRenewAccount",
                  "type": "address"
                },
                {
                  "internalType": "uint32",
                  "name": "autoRenewPeriod",
                  "type": "uint32"
                }
              ],
              "internalType": "struct IHederaTokenService.Expiry",
              "name": "expiry",
              "type": "tuple"
            }
          ],
          "internalType": "struct IHederaTokenService.HederaToken",
          "name": "tokenInfo",
          "type": "tuple"
        }
      ],
      "name": "updateTokenInfo",
      "outputs": [
        {
          "internalType": "int256",
          "name": "responseCode",
          "type": "int256"
        }
      ],
      "stateMutability": "nonpayable",
      "type": "function"
    },
    {
      "inputs": [
        {
          "internalType": "address",
          "name": "token",
          "type": "address"
        },
        {
          "components": [
            {
              "internalType": "string",
              "name": "name",
              "type": "string"
            },
            {
              "internalType": "string",
              "name": "symbol",
              "type": "string"
            },
            {
              "internalType": "address",
              "name": "treasury",
              "type": "address"
            },
            {
              "internalType": "string",
              "name": "memo",
              "type": "string"
            },
            {
              "internalType": "bool",
              "name": "tokenSupplyType",
              "type": "bool"
            },
            {
              "internalType": "int64",
              "name": "maxSupply",
              "type": "int64"
            },
            {
              "internalType": "bool",
              "name": "freezeDefault",
              "type": "bool"
            },
            {
              "components": [
                {
                  "internalType": "uint256",
                  "name": "keyType",
                  "type": "uint256"
                },
                {
                  "components": [
                    {
                      "internalType": "bool",
                      "name": "inheritAccountKey",
                      "type": "bool"
                    },
                    {
                      "internalType": "address",
                      "name": "contractId",
                      "type": "address"
                    },
                    {
                      "internalType": "bytes",
                      "name": "ed25519",
                      "type": "bytes"
                    },
                    {
                      "internalType": "bytes",
                      "name": "ECDSA_secp256k1",
                      "type": "bytes"
                    },
                    {
                      "internalType": "address",
                      "name": "delegatableContractId",
                      "type": "address"
                    }
                  ],
                  "internalType": "struct IHederaTokenService.KeyValue",
                  "name": "key",
                  "type": "tuple"
                }
              ],
              "internalType": "struct IHederaTokenService.TokenKey[]",
              "name": "tokenKeys",
              "type": "tuple[]"
            },
            {
              "components": [
                {
                  "internalType": "uint32",
                  "name": "second",
                  "type": "uint32"
                },
                {
                  "internalType": "address",
                  "name": "autoRenewAccount",
                  "type": "address"
                },
                {
                  "internalType": "uint32",
                  "name": "autoRenewPeriod",
                  "type": "uint32"
                }
              ],
              "internalType": "struct IHederaTokenService.Expiry",
              "name": "expiry",
              "type": "tuple"
            }
          ],
          "internalType": "struct IHederaTokenService.HederaToken",
          "name": "tokenInfo",
          "type": "tuple"
        }
      ],
      "name": "updateTokenInfoPublic",
      "outputs": [
        {
          "internalType": "int256",
          "name": "responseCode",
          "type": "int256"
        }
      ],
      "stateMutability": "nonpayable",
      "type": "function"
    },
    {
      "inputs": [
        {
          "internalType": "address",
          "name": "token",
          "type": "address"
        },
        {
          "components": [
            {
              "internalType": "uint256",
              "name": "keyType",
              "type": "uint256"
            },
            {
              "components": [
                {
                  "internalType": "bool",
                  "name": "inheritAccountKey",
                  "type": "bool"
                },
                {
                  "internalType": "address",
                  "name": "contractId",
                  "type": "address"
                },
                {
                  "internalType": "bytes",
                  "name": "ed25519",
                  "type": "bytes"
                },
                {
                  "internalType": "bytes",
                  "name": "ECDSA_secp256k1",
                  "type": "bytes"
                },
                {
                  "internalType": "address",
                  "name": "delegatableContractId",
                  "type": "address"
                }
              ],
              "internalType": "struct IHederaTokenService.KeyValue",
              "name": "key",
              "type": "tuple"
            }
          ],
          "internalType": "struct IHederaTokenService.TokenKey[]",
          "name": "keys",
          "type": "tuple[]"
        }
      ],
      "name": "updateTokenKeysPublic",
      "outputs": [
        {
          "internalType": "int64",
          "name": "responseCode",
          "type": "int64"
        }
      ],
      "stateMutability": "nonpayable",
      "type": "function"
    },
    {
      "inputs": [
        {
          "internalType": "address",
          "name": "token",
          "type": "address"
        },
        {
          "internalType": "address",
          "name": "account",
          "type": "address"
        },
        {
          "internalType": "int64[]",
          "name": "serialNumbers",
          "type": "int64[]"
        }
      ],
      "name": "wipeTokenAccountNFTPublic",
      "outputs": [
        {
          "internalType": "int256",
          "name": "responseCode",
          "type": "int256"
        }
      ],
      "stateMutability": "nonpayable",
      "type": "function"
    },
    {
      "inputs": [
        {
          "internalType": "address",
          "name": "token",
          "type": "address"
        },
        {
          "internalType": "address",
          "name": "account",
          "type": "address"
        },
        {
          "internalType": "uint32",
          "name": "amount",
          "type": "uint32"
        }
      ],
      "name": "wipeTokenAccountPublic",
      "outputs": [
        {
          "internalType": "int256",
          "name": "responseCode",
          "type": "int256"
        }
      ],
      "stateMutability": "nonpayable",
      "type": "function"
    }
  ],
  "bytecode": "0x60c06040526009608081905268746f6b656e4e616d6560b81b60a09081526200002c9160019190620000c7565b5060408051808201909152600b8082526a1d1bdad95b94de5b589bdb60aa1b60209092019182526200006191600291620000c7565b50604080518082019091526004808252636d656d6f60e01b60209092019182526200008f91600391620000c7565b50600480546001600160a81b031916700800000000000003e800000000000003e8179055348015620000c057600080fd5b50620001aa565b828054620000d5906200016d565b90600052602060002090601f016020900481019282620000f9576000855562000144565b82601f106200011457805160ff191683800117855562000144565b8280016001018555821562000144579182015b828111156200014457825182559160200191906001019062000127565b506200015292915062000156565b5090565b5b8082111562000152576000815560010162000157565b600181811c908216806200018257607f821691505b60208210811415620001a457634e487b7160e01b600052602260045260246000fd5b50919050565b6141ab80620001ba6000396000f3fe60806040526004361061011b5760003560e01c80630fd2601e1461012057806318370d34146101565780631955de0b146101845780632f13d66b146101b25780633b3bff0f146101d25780634b5c6687146101f25780634cbdb37b146102075780634d8f27c91461023557806356af840314610255578063593d6e82146102755780635d2c5bad146102955780636da6b1f0146102d25780637c41ad2c146102f25780638070905f146103125780638c99ef5d146103415780638f8d7f991461037b578063af99c6331461039b578063d614cdb8146103bb578063d85f74c1146103e9578063d92ac248146103fc578063f2c31ff41461041c578063f2f38a741461043c578063f4a01e5b1461046a578063fdc8321e1461048a575b600080fd5b34801561012c57600080fd5b5061014061013b366004612e64565b6104aa565b60405161014d9190613e48565b60405180910390f35b34801561016257600080fd5b506101766101713660046130f1565b610562565b60405190815260200161014d565b34801561019057600080fd5b506101a461019f366004613231565b61063f565b60405161014d929190613e56565b3480156101be57600080fd5b506101766101cd3660046130f1565b6106cd565b3480156101de57600080fd5b506101766101ed366004612e48565b61077d565b610205610200366004612e48565b610857565b005b34801561021357600080fd5b5061022761022236600461308f565b610c69565b60405161014d929190613dec565b34801561024157600080fd5b50610140610250366004613042565b610cdf565b34801561026157600080fd5b50610176610270366004612ef7565b610ceb565b34801561028157600080fd5b506101766102903660046130bc565b610d35565b3480156102a157600080fd5b506102b56102b0366004612e48565b610d61565b6040805160079390930b835260039190910b60208301520161014d565b3480156102de57600080fd5b506101766102ed366004612e9c565b610de6565b3480156102fe57600080fd5b5061017661030d366004612e48565b610e32565b34801561031e57600080fd5b5061033261032d36600461325c565b610e5c565b60405161014d93929190613e1e565b34801561034d57600080fd5b5061036161035c366004612e48565b610ee4565b6040805160079390930b835290151560208301520161014d565b34801561038757600080fd5b50610140610396366004612e64565b610f5e565b3480156103a757600080fd5b506101406103b6366004612e64565b610f8a565b3480156103c757600080fd5b506103db6103d6366004612e48565b610fb6565b60405161014d929190613dd8565b6102056103f7366004612e48565b6110a8565b34801561040857600080fd5b50610176610417366004613003565b611492565b34801561042857600080fd5b50610361610437366004612e64565b61149f565b34801561044857600080fd5b5061045c610457366004612e48565b611573565b60405161014d929190613e05565b34801561047657600080fd5b50610176610485366004612e64565b6115e8565b34801561049657600080fd5b506101766104a5366004612fb9565b6115f4565b604051638f8d7f9960e01b81526000903090638f8d7f99906104d29086908690600401613bcc565b602060405180830381600087803b1580156104ec57600080fd5b505af1158015610500573d6000803e3d6000fd5b505050506040513d601f19601f820116820180604052508101906105249190613625565b9050600080516020614156833981519152816040516105439190613e48565b60405180910390a1600781900b60161461055c57600080fd5b92915050565b60008060006101676001600160a01b03166318370d3460e01b868660405160240161058e929190613c5c565b60408051601f198184030181529181526020820180516001600160e01b03166001600160e01b03199094169390931790925290516105cc9190613b9c565b6000604051808303816000865af19150503d8060008114610609576040519150601f19603f3d011682016040523d82523d6000602084013e61060e565b606091505b50915091508161061f576015610633565b80806020019051810190610633919061334a565b60030b95945050505050565b60006106496123c3565b61065384846117f5565b604051919350915060008051602061415683398151915290610676908490613e48565b60405180910390a1600782900b60161461068f57600080fd5b7faed084fbdf29b6ba2242463299d7270f64e0f8ced16013cfff249856bd887157816040516106be9190613ebe565b60405180910390a19250929050565b60405163060dc34d60e21b815260009030906318370d34906106f59086908690600401613c5c565b602060405180830381600087803b15801561070f57600080fd5b505af1158015610723573d6000803e3d6000fd5b505050506040513d601f19601f820116820180604052508101906107479190613332565b90506000805160206141568339815191528160405161076891815260200190565b60405180910390a16016811461055c57600080fd5b60008060006101676001600160a01b0316633b3bff0f60e01b856040516024016107a79190613bb8565b60408051601f198184030181529181526020820180516001600160e01b03166001600160e01b03199094169390931790925290516107e59190613b9c565b6000604051808303816000865af19150503d8060008114610822576040519150601f19603f3d011682016040523d82523d6000602084013e610827565b606091505b50915091508161083857601561084c565b8080602001905181019061084c919061334a565b60030b949350505050565b60408051600480825260a08201909252600091816020015b610877612406565b81526020019060019003908161086f5790505090506108aa600060066001604051806020016040528060008152506118dc565b816000815181106108cb57634e487b7160e01b600052603260045260246000fd5b60200260200101819052506108f160018060405180602001604052806000815250611913565b8160018151811061091257634e487b7160e01b600052603260045260246000fd5b60200260200101819052506109396002600160405180602001604052806000815250611913565b8160028151811061095a57634e487b7160e01b600052603260045260246000fd5b60200260200101819052506109816003600160405180602001604052806000815250611913565b816003815181106109a257634e487b7160e01b600052603260045260246000fd5b602002602001018190525060006040518060600160405280600063ffffffff168152602001846001600160a01b03168152602001627a120063ffffffff168152509050600060405180610120016040528060018054610a0090614076565b80601f0160208091040260200160405190810160405280929190818152602001828054610a2c90614076565b8015610a795780601f10610a4e57610100808354040283529160200191610a79565b820191906000526020600020905b815481529060010190602001808311610a5c57829003601f168201915b5050505050815260200160028054610a9090614076565b80601f0160208091040260200160405190810160405280929190818152602001828054610abc90614076565b8015610b095780601f10610ade57610100808354040283529160200191610b09565b820191906000526020600020905b815481529060010190602001808311610aec57829003601f168201915b50505050508152602001856001600160a01b0316815260200160038054610b2f90614076565b80601f0160208091040260200160405190810160405280929190818152602001828054610b5b90614076565b8015610ba85780601f10610b7d57610100808354040283529160200191610ba8565b820191906000526020600020905b815481529060010190602001808311610b8b57829003601f168201915b505050918352505060016020820152600454600160401b8104600790810b900b6040830152600160a01b810460ff16151560608301526080820186905260a09091018490529091506000908190610c189084906001600160401b03811690600160801b900463ffffffff16611948565b909250905060168214610c2a57600080fd5b7f7bb17726df1f3adee8aa00ba8e8bc5d6f182af3bbf77604639cb7f008dd3b4ed81604051610c599190613bb8565b60405180910390a1505050505050565b6000610c73612425565b610c7d8484611a76565b60405182815291935091506000805160206141568339815191529060200160405180910390a160168214610cb057600080fd5b7fd010ef68d3ac3e07c14bed496400730a484fd17c48a4d373cbc4722a56540def816040516106be9190613ed1565b60006105248383611b50565b6000610cf8848484611b7c565b905060008051602061415683398151915281604051610d1991815260200190565b60405180910390a160168114610d2e57600080fd5b9392505050565b60008060006101676001600160a01b031663593d6e8260e01b868660405160240161058e929190613c3f565b600080610d6d83611c5c565b604051919350915060008051602061415683398151915290610d90908490613e48565b60405180910390a1600782900b601614610da957600080fd5b604051600382900b81527f182137409609594f2b12128230091c673507ea4cab315d59415d5e3f8c301ad5906020015b60405180910390a1915091565b6000610df485858585611d40565b905060008051602061415683398151915281604051610e1591815260200190565b60405180910390a160168114610e2a57600080fd5b949350505050565b60008060006101676001600160a01b0316637c41ad2c60e01b856040516024016107a79190613bb8565b6000806060610e6c868686611e28565b60405183815292955090935091506000805160206141568339815191529060200160405180910390a160168314610ea257600080fd5b7feff23992f47b3c101679f8b4dc9d3e242c903909dba4a453f2b2341ad463b0e28282604051610ed3929190613ef7565b60405180910390a193509350939050565b600080610ef083611f26565b604051919350915060008051602061415683398151915290610f13908490613e48565b60405180910390a1600782900b601614610f2c57600080fd5b60405181151581527f5080c42cc33acbcea410fa6eaa925bd878674825501981184fdd53749f8478a890602001610dd9565b60008060006101676001600160a01b0316638f8d7f9960e01b868660405160240161058e929190613bcc565b60008060006101676001600160a01b031663af99c63360e01b868660405160240161058e929190613bcc565b6000610fc0612460565b6000806101676001600160a01b031663d614cdb860e01b86604051602401610fe89190613bb8565b60408051601f198184030181529181526020820180516001600160e01b03166001600160e01b03199094169390931790925290516110269190613b9c565b6000604051808303816000865af19150503d8060008114611063576040519150601f19603f3d011682016040523d82523d6000602084013e611068565b606091505b5091509150611075612460565b8261108257601581611096565b8180602001905181019061109691906133e3565b60039190910b97909650945050505050565b60408051600580825260c08201909252600091816020015b6110c8612406565b8152602001906001900390816110c05790505090506110fb600060066001604051806020016040528060008152506118dc565b8160008151811061111c57634e487b7160e01b600052603260045260246000fd5b602002602001018190525061114260018060405180602001604052806000815250611913565b8160018151811061116357634e487b7160e01b600052603260045260246000fd5b602002602001018190525061118a6002600160405180602001604052806000815250611913565b816002815181106111ab57634e487b7160e01b600052603260045260246000fd5b60200260200101819052506111d26004600160405180602001604052806000815250611913565b816003815181106111f357634e487b7160e01b600052603260045260246000fd5b602002602001018190525061121a6003600160405180602001604052806000815250611913565b8160048151811061123b57634e487b7160e01b600052603260045260246000fd5b602002602001018190525060006040518060600160405280600063ffffffff168152602001846001600160a01b03168152602001627a120063ffffffff16815250905060006040518061012001604052806001805461129990614076565b80601f01602080910402602001604051908101604052809291908181526020018280546112c590614076565b80156113125780601f106112e757610100808354040283529160200191611312565b820191906000526020600020905b8154815290600101906020018083116112f557829003601f168201915b505050505081526020016002805461132990614076565b80601f016020809104026020016040519081016040528092919081815260200182805461135590614076565b80156113a25780601f10611377576101008083540402835291602001916113a2565b820191906000526020600020905b81548152906001019060200180831161138557829003601f168201915b50505050508152602001856001600160a01b03168152602001600380546113c890614076565b80601f01602080910402602001604051908101604052809291908181526020018280546113f490614076565b80156114415780601f1061141657610100808354040283529160200191611441565b820191906000526020600020905b81548152906001019060200180831161142457829003601f168201915b505050918352505060016020820152600454600160401b8104600790810b900b6040830152600160a01b900460ff16151560608201526080810185905260a0018390529050600080610c1883611ff8565b6000610cf884848461210e565b6000806000806101676001600160a01b031663f2c31ff460e01b87876040516024016114cc929190613bcc565b60408051601f198184030181529181526020820180516001600160e01b03166001600160e01b031990941693909317909252905161150a9190613b9c565b6000604051808303816000865af19150503d8060008114611547576040519150601f19603f3d011682016040523d82523d6000602084013e61154c565b606091505b50915091508161155f5760156000611096565b80806020019051810190611096919061338f565b600061157d612480565b61158683612150565b60405182815291935091506000805160206141568339815191529060200160405180910390a1601682146115b957600080fd5b7fbdb65f8c2a2e9a3a37ea49e903836883766a922e4ce9b21f684035e304962d4181604051610dd99190613ee4565b60006107478383612230565b60408051600080825260208201909252819081611639565b604080516060810182526000808252602080830182905292820152825260001990920191018161160c5790505b50905060006040518060400160405280336001600160a01b0316815260200185611662906140b1565b600790810b9091526040805180820182526001600160a01b038a1681529187900b602083015280516002808252606082019092529293509091600091816020015b60408051808201909152600080825260208201528152602001906001900390816116a357905050905082816000815181106116ee57634e487b7160e01b600052603260045260246000fd5b6020026020010181905250818160018151811061171b57634e487b7160e01b600052603260045260246000fd5b602090810291909101810191909152604080516060810182526001600160a01b038a16815291820183905281810186905280516001808252818301909252600091816020015b61178e604051806060016040528060006001600160a01b0316815260200160608152602001606081525090565b81526020019060019003908161176157905050905081816000815181106117c557634e487b7160e01b600052603260045260246000fd5b60200260200101819052506117d98161225c565b9650601687146117e857600080fd5b5050505050509392505050565b60006117ff6123c3565b604080516001600160a01b0386166024820152604480820186905282518083039091018152606490910182526020810180516001600160e01b0316631e26e99760e11b179052905160009182916101679161185991613b9c565b6000604051808303816000865af19150503d8060008114611896576040519150601f19603f3d011682016040523d82523d6000602084013e61189b565b606091505b50915091506118a86123c3565b826118b5576015816118c9565b818060200190518101906118c9919061340d565b60039190910b9890975095505050505050565b6118e4612406565b60405180604001604052806118f98787612286565b8152602001611908858561229f565b905295945050505050565b61191b612406565b604051806040016040528061192f86612331565b815260200161193e858561229f565b9052949350505050565b600080848061010001516000015163ffffffff16600014801561197857506101008101516040015163ffffffff16155b1561198e576101008101516276a7006040909101525b6000806101676001600160a01b03163463c23baeb660e01b8a8a8a6040516024016119bb93929190613e85565b60408051601f198184030181529181526020820180516001600160e01b03166001600160e01b03199094169390931790925290516119f99190613b9c565b60006040518083038185875af1925050503d8060008114611a36576040519150601f19603f3d011682016040523d82523d6000602084013e611a3b565b606091505b509150915081611a4e5760156000611a62565b80806020019051810190611a629190613364565b60039190910b999098509650505050505050565b6000611a80612425565b604080516001600160a01b0386166024820152600785900b60448083019190915282518083039091018152606490910182526020810180516001600160e01b031663050fc3b560e31b1790529051600091829161016791611ae091613b9c565b6000604051808303816000865af19150503d8060008114611b1d576040519150601f19603f3d011682016040523d82523d6000602084013e611b22565b606091505b5091509150611b2f612425565b82611b3c576015816118c9565b818060200190518101906118c9919061344f565b60008060006101676001600160a01b0316636fc3cbaf60e01b868660405160240161058e929190613c1b565b60008060006101676001600160a01b031663f7f38e2660e01b878787604051602401611baa93929190613be6565b60408051601f198184030181529181526020820180516001600160e01b03166001600160e01b0319909416939093179092529051611be89190613b9c565b6000604051808303816000865af19150503d8060008114611c25576040519150601f19603f3d011682016040523d82523d6000602084013e611c2a565b606091505b509150915081611c3b576015611c4f565b80806020019051810190611c4f919061334a565b60030b9695505050505050565b6000806000806101676001600160a01b03166393272baf60e01b86604051602401611c879190613bb8565b60408051601f198184030181529181526020820180516001600160e01b03166001600160e01b0319909416939093179092529051611cc59190613b9c565b6000604051808303816000865af19150503d8060008114611d02576040519150601f19603f3d011682016040523d82523d6000602084013e611d07565b606091505b509150915081611d1b576015600019611d2f565b80806020019051810190611d2f91906133ba565b60039190910b969095509350505050565b604080516001600160a01b038681166024830152858116604483015284166064820152600783900b6084808301919091528251808303909101815260a490910182526020810180516001600160e01b0316635cfc901160e01b17905290516000918291829161016791611db39190613b9c565b6000604051808303816000865af19150503d8060008114611df0576040519150601f19603f3d011682016040523d82523d6000602084013e611df5565b606091505b509150915081611e06576015611e1a565b80806020019051810190611e1a919061334a565b60030b979650505050505050565b60008060606000806101676001600160a01b031663278e0b8860e01b898989604051602401611e5993929190613c80565b60408051601f198184030181529181526020820180516001600160e01b03166001600160e01b0319909416939093179092529051611e979190613b9c565b6000604051808303816000865af19150503d8060008114611ed4576040519150601f19603f3d011682016040523d82523d6000602084013e611ed9565b606091505b509150915081611efc576040805160008082526020820190925260159190611f10565b80806020019051810190611f109190613574565b60039290920b9a90995090975095505050505050565b6000806000806101676001600160a01b03166319f3736160e01b86604051602401611f519190613bb8565b60408051601f198184030181529181526020820180516001600160e01b03166001600160e01b0319909416939093179092529051611f8f9190613b9c565b6000604051808303816000865af19150503d8060008114611fcc576040519150601f19603f3d011682016040523d82523d6000602084013e611fd1565b606091505b509150915081611fe45760156000611d2f565b80806020019051810190611d2f919061338f565b600080828061010001516000015163ffffffff16600014801561202857506101008101516040015163ffffffff16155b1561203e576101008101516276a7006040909101525b6000806101676001600160a01b031634639c89bb3560e01b886040516024016120679190613e72565b60408051601f198184030181529181526020820180516001600160e01b03166001600160e01b03199094169390931790925290516120a59190613b9c565b60006040518083038185875af1925050503d80600081146120e2576040519150601f19603f3d011682016040523d82523d6000602084013e6120e7565b606091505b5091509150816120fa5760156000611096565b808060200190518101906110969190613364565b6040516001600160a01b0384811660248301528316604482015263ffffffff821660648201526000908190819061016790639790686d60e01b90608401611baa565b600061215a612480565b6000806101676001600160a01b0316631f69565f60e01b866040516024016121829190613bb8565b60408051601f198184030181529181526020820180516001600160e01b03166001600160e01b03199094169390931790925290516121c09190613b9c565b6000604051808303816000865af19150503d80600081146121fd576040519150601f19603f3d011682016040523d82523d6000602084013e612202565b606091505b509150915061220f612480565b8261221c57601581611096565b818060200190518101906110969190613532565b60008060006101676001600160a01b03166349146bde60e01b868660405160240161058e929190613bcc565b60008060006101676001600160a01b031663189a554c60e01b856040516024016107a79190613d05565b6000600160ff84161b9050600160ff83161b8117610d2e565b6122a76123c3565b8260ff16600114156122bc576001815261055c565b8260ff16600214156122de576000546001600160a01b0316602082015261055c565b8260ff16600314156122f6576040810182905261055c565b8260ff166004141561230e576060810182905261055c565b8260ff166005141561055c576000546001600160a01b0316608082015292915050565b600060ff821661234357506001919050565b8160ff166001141561235757506002919050565b8160ff166002141561236b57506004919050565b8160ff166003141561237f57506008919050565b8160ff166004141561239357506010919050565b8160ff16600514156123a757506020919050565b8160ff16600614156123bb57506040919050565b506000919050565b6040518060a0016040528060001515815260200160006001600160a01b03168152602001606081526020016060815260200160006001600160a01b031681525090565b6040518060400160405280600081526020016124206123c3565b905290565b6040518060c00160405280612438612480565b8152600060208201819052604082018190526060808301829052608083015260a09091015290565b604080516060810182526000808252602082018190529181019190915290565b6040518061012001604052806124946124e1565b815260200160006001600160401b03168152602001600015158152602001600015158152602001600015158152602001606081526020016060815260200160608152602001606081525090565b604051806101200160405280606081526020016060815260200160006001600160a01b0316815260200160608152602001600015158152602001600060070b815260200160001515815260200160608152602001612420612460565b8035612548816140f9565b919050565b8051612548816140f9565b600082601f830112612568578081fd5b8151602061257d61257883613ffc565b613fcc565b8281528181019085830160a08086028801850189101561259b578687fd5b865b868110156126245781838b0312156125b3578788fd5b6125bb613f1b565b83516125c68161412e565b8152838701516125d5816140f9565b818801526040848101516125e881614111565b908201526060848101516125fb81614111565b9082015260808481015161260e816140f9565b908201528552938501939181019160010161259d565b509198975050505050505050565b600082601f830112612642578081fd5b8151602061265261257883613ffc565b8281528181019085830160c080860288018501891015612670578687fd5b865b868110156126245781838b031215612688578788fd5b612690613f43565b835161269b8161412e565b8152838701516126aa8161412e565b818801526040848101516126bd8161412e565b908201526060848101516126d08161412e565b908201526080848101516126e381614111565b9082015260a0848101516126f6816140f9565b9082015285529385019391810191600101612672565b600082601f83011261271c578081fd5b8151602061272c61257883613ffc565b8281528181019085830160c08086028801850189101561274a578687fd5b865b868110156126245781838b031215612762578788fd5b61276a613f43565b83516127758161412e565b8152838701516127848161412e565b818801526040848101516127978161412e565b908201526060848101516127aa816140f9565b908201526080848101516127bd81614111565b9082015260a0848101516127d0816140f9565b908201528552938501939181019160010161274c565b600082601f8301126127f6578081fd5b8135602061280661257883613ffc565b80838252828201915082860187848660051b8901011115612825578586fd5b855b858110156129315781356001600160401b0380821115612845578889fd5b90890190601f196040838d038201121561285d57898afd5b612865613f65565b88840135815260408401358381111561287c578b8cfd5b939093019260a0848e0383011215612892578a8bfd5b61289a613f1b565b9150888401356128a981614111565b82526128b76040850161253d565b898301526060840135838111156128cc578b8cfd5b6128da8e8b83880101612a11565b6040840152506080840135838111156128f1578b8cfd5b6128ff8e8b83880101612a11565b60608401525061291160a0850161253d565b608083015280890191909152865250509284019290840190600101612827565b5090979650505050505050565b600082601f83011261294e578081fd5b8151602061295e61257883613ffc565b80838252828201915082860187848660051b890101111561297d578586fd5b855b858110156129315781516001600160401b038082111561299d578889fd5b908901906040828c03601f19018113156129b557898afd5b6129bd613f65565b8389015181529083015190828211156129d4578a8bfd5b6129e28d8a84870101612c75565b818a01528752505050928401929084019060010161297f565b803561254881614111565b805161254881614111565b600082601f830112612a21578081fd5b8135612a2f6125788261401f565b818152846020838601011115612a43578283fd5b816020850160208301379081016020019190915292915050565b600082601f830112612a6d578081fd5b8151612a7b6125788261401f565b818152846020838601011115612a8f578283fd5b610e2a826020830160208701614046565b8051600381900b811461254857600080fd5b80356125488161411f565b80516125488161411f565b600060608284031215612ad9578081fd5b612ae1613f87565b90508135612aee8161412e565b81526020820135612afe816140f9565b60208201526040820135612b118161412e565b604082015292915050565b600060608284031215612b2d578081fd5b612b35613f87565b90508151612b428161412e565b81526020820151612b52816140f9565b60208201526040820151612b118161412e565b60006101608284031215612b77578081fd5b612b7f613fa9565b82519091506001600160401b0380821115612b9957600080fd5b612ba585838601612a5d565b83526020840151915080821115612bbb57600080fd5b612bc785838601612a5d565b6020840152612bd86040850161254d565b60408401526060840151915080821115612bf157600080fd5b612bfd85838601612a5d565b6060840152612c0e60808501612a06565b6080840152612c1f60a08501612abd565b60a0840152612c3060c08501612a06565b60c084015260e0840151915080821115612c4957600080fd5b50612c568482850161293e565b60e083015250610100612c6b84828501612b1c565b9082015292915050565b600060a08284031215612c86578081fd5b612c8e613f1b565b90508151612c9b81614111565b81526020820151612cab816140f9565b602082015260408201516001600160401b0380821115612cca57600080fd5b612cd685838601612a5d565b60408401526060840151915080821115612cef57600080fd5b50612cfc84828501612a5d565b606083015250612d0e6080830161254d565b608082015292915050565b60006101208284031215612d2b578081fd5b612d33613fa9565b82519091506001600160401b0380821115612d4d57600080fd5b612d5985838601612b65565b8352612d6760208501612e3d565b6020840152612d7860408501612a06565b6040840152612d8960608501612a06565b6060840152612d9a60808501612a06565b608084015260a0840151915080821115612db357600080fd5b612dbf85838601612558565b60a084015260c0840151915080821115612dd857600080fd5b612de485838601612632565b60c084015260e0840151915080821115612dfd57600080fd5b612e098583860161270c565b60e084015261010091508184015181811115612e2457600080fd5b612e3086828701612a5d565b8385015250505092915050565b805161254881614140565b600060208284031215612e59578081fd5b8135610d2e816140f9565b60008060408385031215612e76578081fd5b8235612e81816140f9565b91506020830135612e91816140f9565b809150509250929050565b60008060008060808587031215612eb1578182fd5b8435612ebc816140f9565b93506020850135612ecc816140f9565b92506040850135612edc816140f9565b91506060850135612eec8161411f565b939692955090935050565b600080600060608486031215612f0b578081fd5b8335612f16816140f9565b9250602084810135612f27816140f9565b925060408501356001600160401b03811115612f41578283fd5b8501601f81018713612f51578283fd5b8035612f5f61257882613ffc565b8082825284820191508484018a868560051b8701011115612f7e578687fd5b8694505b83851015612fa9578035612f958161411f565b835260019490940193918501918501612f82565b5080955050505050509250925092565b600080600060608486031215612fcd578081fd5b8335612fd8816140f9565b92506020840135612fe8816140f9565b91506040840135612ff88161411f565b809150509250925092565b600080600060608486031215613017578081fd5b8335613022816140f9565b92506020840135613032816140f9565b91506040840135612ff88161412e565b60008060408385031215613054578182fd5b823561305f816140f9565b915060208301356001600160401b03811115613079578182fd5b613085858286016127e6565b9150509250929050565b600080604083850312156130a1578182fd5b82356130ac816140f9565b91506020830135612e918161411f565b600080608083850312156130ce578182fd5b82356130d9816140f9565b91506130e88460208501612ac8565b90509250929050565b60008060408385031215613103578182fd5b823561310e816140f9565b915060208301356001600160401b0380821115613129578283fd5b90840190610160828703121561313d578283fd5b613145613fa9565b823582811115613153578485fd5b61315f88828601612a11565b825250602083013582811115613173578485fd5b61317f88828601612a11565b6020830152506131916040840161253d565b60408201526060830135828111156131a7578485fd5b6131b388828601612a11565b6060830152506131c5608084016129fb565b60808201526131d660a08401612ab2565b60a08201526131e760c084016129fb565b60c082015260e0830135828111156131fd578485fd5b613209888286016127e6565b60e083015250610100915061322087838501612ac8565b828201528093505050509250929050565b60008060408385031215613243578182fd5b823561324e816140f9565b946020939093013593505050565b600080600060608486031215613270578081fd5b833561327b816140f9565b925060208481013561328c81614140565b925060408501356001600160401b03808211156132a7578384fd5b818701915087601f8301126132ba578384fd5b81356132c861257882613ffc565b8082825285820191508585018b878560051b88010111156132e7578788fd5b875b84811015613320578135868111156132ff57898afd5b61330d8e8a838b0101612a11565b85525092870192908701906001016132e9565b50508096505050505050509250925092565b600060208284031215613343578081fd5b5051919050565b60006020828403121561335b578081fd5b610d2e82612aa0565b60008060408385031215613376578182fd5b61337f83612aa0565b91506020830151612e91816140f9565b600080604083850312156133a1578182fd5b6133aa83612aa0565b91506020830151612e9181614111565b600080604083850312156133cc578182fd5b6133d583612aa0565b91506130e860208401612aa0565b600080608083850312156133f5578182fd5b6133fe83612aa0565b91506130e88460208501612b1c565b6000806040838503121561341f578182fd5b61342883612aa0565b60208401519092506001600160401b03811115613443578182fd5b61308585828601612c75565b60008060408385031215613461578182fd5b61346a83612aa0565b60208401519092506001600160401b0380821115613486578283fd5b9084019060c08287031215613499578283fd5b6134a1613f43565b8251828111156134af578485fd5b6134bb88828601612d19565b8252506134ca60208401612abd565b60208201526134db6040840161254d565b60408201526134ec60608401612abd565b6060820152608083015182811115613502578485fd5b61350e88828601612a5d565b60808301525061352060a0840161254d565b60a08201528093505050509250929050565b60008060408385031215613544578182fd5b61354d83612aa0565b60208401519092506001600160401b03811115613568578182fd5b61308585828601612d19565b600080600060608486031215613588578081fd5b61359184612aa0565b92506020808501516135a281614140565b60408601519093506001600160401b038111156135bd578283fd5b8501601f810187136135cd578283fd5b80516135db61257882613ffc565b8082825284820191508484018a868560051b87010111156135fa578687fd5b8694505b83851015612fa95780516136118161411f565b8352600194909401939185019185016135fe565b600060208284031215613636578081fd5b8151610d2e8161411f565b6000815180845260208085019450808401835b8381101561367357815160070b87529582019590820190600101613654565b509495945050505050565b6000815180845260208085019450808401835b83811015613673578151805163ffffffff168852838101516001600160a01b03908116858a01526040808301511515908a01526060808301511515908a0152608091820151169088015260a09096019590820190600101613691565b6000815180845260208085019450808401835b83811015613673578151805163ffffffff9081168952848201518116858a01526040808301518216908a01526060808301519091169089015260808082015115159089015260a0908101516001600160a01b03169088015260c09096019590820190600101613700565b6000815180845260208085019450808401835b8381101561367357815180516001600160a01b03908116895284820151168489015260409081015160070b908801526060909601959082019060010161377d565b6000815180845260208085019450808401835b83811015613673578151805163ffffffff9081168952848201518116858a0152604080830151909116908901526060808201516001600160a01b03908116918a01919091526080808301511515908a015260a091820151169088015260c090960195908201906001016137d1565b600081518084526020808501808196508360051b81019150828601855b8581101561389a5782840389528151805185528501516040868601819052613886818701836139da565b9a87019a955050509084019060010161385c565b5091979650505050505050565b600081518084526138bf816020860160208601614046565b601f01601f19169290920160200192915050565b805163ffffffff90811683526020808301516001600160a01b03169084015260409182015116910152565b60006101608251818552613914828601826138a7565b9150506020830151848203602086015261392e82826138a7565b915050604083015161394b60408601826001600160a01b03169052565b506060830151848203606086015261396382826138a7565b9150506080830151613979608086018215159052565b5060a083015161398e60a086018260070b9052565b5060c08301516139a260c086018215159052565b5060e083015184820360e08601526139ba828261383f565b915050610100808401516139d0828701826138d3565b5090949350505050565b8051151582526000602082015160018060a01b0380821660208601526040840151915060a06040860152613a1160a08601836138a7565b915060608401518583036060870152613a2a83826138a7565b925050806080850151166080860152508091505092915050565b6000815160c08452613a5960c0850182613abc565b9050602083015160070b6020850152604083015160018060a01b038082166040870152606085015160070b6060870152608085015191508583036080870152613aa283836138a7565b92508060a08601511660a087015250508091505092915050565b60006101208251818552613ad2828601826138fe565b9150506020830151613aef60208601826001600160401b03169052565b506040830151613b03604086018215159052565b506060830151613b17606086018215159052565b506080830151613b2b608086018215159052565b5060a083015184820360a0860152613b43828261367e565b91505060c083015184820360c0860152613b5d82826136ed565b91505060e083015184820360e0860152613b7782826137be565b9150506101008084015185830382870152613b9283826138a7565b9695505050505050565b60008251613bae818460208701614046565b9190910192915050565b6001600160a01b0391909116815260200190565b6001600160a01b0392831681529116602082015260400190565b6001600160a01b03848116825283166020820152606060408201819052600090613c1290830184613641565b95945050505050565b6001600160a01b0383168152604060208201819052600090610e2a9083018461383f565b6001600160a01b038316815260808101610d2e60208301846138d3565b6001600160a01b0383168152604060208201819052600090610e2a908301846138fe565b6001600160a01b03841681526001600160401b03831660208083019190915260606040830181905283519083018190526000916080600583901b850181019290850190868301855b82811015613cf657607f19888703018452613ce48683516138a7565b95509284019290840190600101613cc8565b50939998505050505050505050565b60006020808301818452808551808352604092508286019150828160051b870101848801865b83811015613dca57888303603f19018552815180516001600160a01b0390811685528882015160608a870181905281519087018190526080870192918b0191908c905b80821015613d9c5783518051841686528d015160070b8d860152938b0193928c019260019190910190613d6e565b50505050908701518482038589015290613db6818361376a565b968901969450505090860190600101613d2b565b509098975050505050505050565b82815260808101610d2e60208301846138d3565b828152604060208201526000610e2a6040830184613a44565b828152604060208201526000610e2a6040830184613abc565b8381526001600160401b0383166020820152606060408201819052600090613c1290830184613641565b60079190910b815260200190565b8260070b8152604060208201526000610e2a60408301846139da565b602081526000610d2e60208301846138fe565b606081526000613e9860608301866138fe565b6001600160401b039490941660208301525063ffffffff91909116604090910152919050565b602081526000610d2e60208301846139da565b602081526000610d2e6020830184613a44565b602081526000610d2e6020830184613abc565b6001600160401b0383168152604060208201819052600090610e2a90830184613641565b60405160a081016001600160401b0381118282101715613f3d57613f3d6140e3565b60405290565b60405160c081016001600160401b0381118282101715613f3d57613f3d6140e3565b604080519081016001600160401b0381118282101715613f3d57613f3d6140e3565b604051606081016001600160401b0381118282101715613f3d57613f3d6140e3565b60405161012081016001600160401b0381118282101715613f3d57613f3d6140e3565b604051601f8201601f191681016001600160401b0381118282101715613ff457613ff46140e3565b604052919050565b60006001600160401b03821115614015576140156140e3565b5060051b60200190565b60006001600160401b03821115614038576140386140e3565b50601f01601f191660200190565b60005b83811015614061578181015183820152602001614049565b83811115614070576000848401525b50505050565b600181811c9082168061408a57607f821691505b602082108114156140ab57634e487b7160e01b600052602260045260246000fd5b50919050565b6000600782900b60016001603f1b03198114156140dc57634e487b7160e01b82526011600452602482fd5b9003919050565b634e487b7160e01b600052604160045260246000fd5b6001600160a01b038116811461410e57600080fd5b50565b801515811461410e57600080fd5b8060070b811461410e57600080fd5b63ffffffff8116811461410e57600080fd5b6001600160401b038116811461410e57600080fdfe90a5cf4cffe88b4edbb041cfc7a8a812c48a5ec30b84640fb37690875168e3aaa2646970667358221220217d7809baee5c7a8525891289089c7480a1eb6083439e5ec4679ca0e92b259e64736f6c63430008040033",
  "linkReferences": {},
  "deployedLinkReferences": {}
}