{
  "_format": "hh-sol-artifact-1",
  "contractName": "BaseHTS",
  "sourceName": "contracts/BaseHTS.sol",
  "abi": [
    {
      "anonymous": false,
      "inputs": [
        {
          "indexed": false,
          "internalType": "uint256",
          "name": "amount",
          "type": "uint256"
        }
      ],
      "name": "AllowanceValue",
      "type": "event"
    },
    {
      "anonymous": false,
      "inputs": [
        {
          "indexed": false,
          "internalType": "bool",
          "name": "approved",
          "type": "bool"
        }
      ],
      "name": "Approved",
      "type": "event"
    },
    {
      "anonymous": false,
      "inputs": [
        {
          "indexed": false,
          "internalType": "address",
          "name": "approved",
          "type": "address"
        }
      ],
      "name": "ApprovedAddress",
      "type": "event"
    },
    {
      "anonymous": false,
      "inputs": [
        {
          "indexed": false,
          "internalType": "address",
          "name": "tokenAddress",
          "type": "address"
        }
      ],
      "name": "CreatedToken",
      "type": "event"
    },
    {
      "anonymous": false,
      "inputs": [
        {
          "indexed": false,
          "internalType": "bool",
          "name": "freezeStatus",
          "type": "bool"
        }
      ],
      "name": "DefaultFreezeStatusChanged",
      "type": "event"
    },
    {
      "anonymous": false,
      "inputs": [
        {
          "indexed": false,
          "internalType": "bool",
          "name": "frozen",
          "type": "bool"
        }
      ],
      "name": "Frozen",
      "type": "event"
    },
    {
      "anonymous": false,
      "inputs": [
        {
          "components": [
            {
              "components": [
                {
                  "components": [
                    {
                      "internalType": "string",
                      "name": "name",
                      "type": "string"
                    },
                    {
                      "internalType": "string",
                      "name": "symbol",
                      "type": "string"
                    },
                    {
                      "internalType": "address",
                      "name": "treasury",
                      "type": "address"
                    },
                    {
                      "internalType": "string",
                      "name": "memo",
                      "type": "string"
                    },
                    {
                      "internalType": "bool",
                      "name": "tokenSupplyType",
                      "type": "bool"
                    },
                    {
                      "internalType": "uint32",
                      "name": "maxSupply",
                      "type": "uint32"
                    },
                    {
                      "internalType": "bool",
                      "name": "freezeDefault",
                      "type": "bool"
                    },
                    {
                      "components": [
                        {
                          "internalType": "uint256",
                          "name": "keyType",
                          "type": "uint256"
                        },
                        {
                          "components": [
                            {
                              "internalType": "bool",
                              "name": "inheritAccountKey",
                              "type": "bool"
                            },
                            {
                              "internalType": "address",
                              "name": "contractId",
                              "type": "address"
                            },
                            {
                              "internalType": "bytes",
                              "name": "ed25519",
                              "type": "bytes"
                            },
                            {
                              "internalType": "bytes",
                              "name": "ECDSA_secp256k1",
                              "type": "bytes"
                            },
                            {
                              "internalType": "address",
                              "name": "delegatableContractId",
                              "type": "address"
                            }
                          ],
                          "internalType": "struct IHederaTokenService.KeyValue",
                          "name": "key",
                          "type": "tuple"
                        }
                      ],
                      "internalType": "struct IHederaTokenService.TokenKey[]",
                      "name": "tokenKeys",
                      "type": "tuple[]"
                    },
                    {
                      "components": [
                        {
                          "internalType": "uint32",
                          "name": "second",
                          "type": "uint32"
                        },
                        {
                          "internalType": "address",
                          "name": "autoRenewAccount",
                          "type": "address"
                        },
                        {
                          "internalType": "uint32",
                          "name": "autoRenewPeriod",
                          "type": "uint32"
                        }
                      ],
                      "internalType": "struct IHederaTokenService.Expiry",
                      "name": "expiry",
                      "type": "tuple"
                    }
                  ],
                  "internalType": "struct IHederaTokenService.HederaToken",
                  "name": "token",
                  "type": "tuple"
                },
                {
                  "internalType": "uint64",
                  "name": "totalSupply",
                  "type": "uint64"
                },
                {
                  "internalType": "bool",
                  "name": "deleted",
                  "type": "bool"
                },
                {
                  "internalType": "bool",
                  "name": "defaultKycStatus",
                  "type": "bool"
                },
                {
                  "internalType": "bool",
                  "name": "pauseStatus",
                  "type": "bool"
                },
                {
                  "components": [
                    {
                      "internalType": "uint32",
                      "name": "amount",
                      "type": "uint32"
                    },
                    {
                      "internalType": "address",
                      "name": "tokenId",
                      "type": "address"
                    },
                    {
                      "internalType": "bool",
                      "name": "useHbarsForPayment",
                      "type": "bool"
                    },
                    {
                      "internalType": "bool",
                      "name": "useCurrentTokenForPayment",
                      "type": "bool"
                    },
                    {
                      "internalType": "address",
                      "name": "feeCollector",
                      "type": "address"
                    }
                  ],
                  "internalType": "struct IHederaTokenService.FixedFee[]",
                  "name": "fixedFees",
                  "type": "tuple[]"
                },
                {
                  "components": [
                    {
                      "internalType": "uint32",
                      "name": "numerator",
                      "type": "uint32"
                    },
                    {
                      "internalType": "uint32",
                      "name": "denominator",
                      "type": "uint32"
                    },
                    {
                      "internalType": "uint32",
                      "name": "minimumAmount",
                      "type": "uint32"
                    },
                    {
                      "internalType": "uint32",
                      "name": "maximumAmount",
                      "type": "uint32"
                    },
                    {
                      "internalType": "bool",
                      "name": "netOfTransfers",
                      "type": "bool"
                    },
                    {
                      "internalType": "address",
                      "name": "feeCollector",
                      "type": "address"
                    }
                  ],
                  "internalType": "struct IHederaTokenService.FractionalFee[]",
                  "name": "fractionalFees",
                  "type": "tuple[]"
                },
                {
                  "components": [
                    {
                      "internalType": "uint32",
                      "name": "numerator",
                      "type": "uint32"
                    },
                    {
                      "internalType": "uint32",
                      "name": "denominator",
                      "type": "uint32"
                    },
                    {
                      "internalType": "uint32",
                      "name": "amount",
                      "type": "uint32"
                    },
                    {
                      "internalType": "address",
                      "name": "tokenId",
                      "type": "address"
                    },
                    {
                      "internalType": "bool",
                      "name": "useHbarsForPayment",
                      "type": "bool"
                    },
                    {
                      "internalType": "address",
                      "name": "feeCollector",
                      "type": "address"
                    }
                  ],
                  "internalType": "struct IHederaTokenService.RoyaltyFee[]",
                  "name": "royaltyFees",
                  "type": "tuple[]"
                },
                {
                  "internalType": "string",
                  "name": "ledgerId",
                  "type": "string"
                }
              ],
              "internalType": "struct IHederaTokenService.TokenInfo",
              "name": "tokenInfo",
              "type": "tuple"
            },
            {
              "internalType": "uint32",
              "name": "decimals",
              "type": "uint32"
            }
          ],
          "indexed": false,
          "internalType": "struct IHederaTokenService.FungibleTokenInfo",
          "name": "tokenInfo",
          "type": "tuple"
        }
      ],
      "name": "FungibleTokenInfo",
      "type": "event"
    },
    {
      "anonymous": false,
      "inputs": [
        {
          "indexed": false,
          "internalType": "bool",
          "name": "kycGranted",
          "type": "bool"
        }
      ],
      "name": "KycGranted",
      "type": "event"
    },
    {
      "anonymous": false,
      "inputs": [
        {
          "indexed": false,
          "internalType": "uint64",
          "name": "newTotalSupply",
          "type": "uint64"
        },
        {
          "indexed": false,
          "internalType": "int64[]",
          "name": "serialNumbers",
          "type": "int64[]"
        }
      ],
      "name": "MintedToken",
      "type": "event"
    },
    {
      "anonymous": false,
      "inputs": [
        {
          "components": [
            {
              "components": [
                {
                  "components": [
                    {
                      "internalType": "string",
                      "name": "name",
                      "type": "string"
                    },
                    {
                      "internalType": "string",
                      "name": "symbol",
                      "type": "string"
                    },
                    {
                      "internalType": "address",
                      "name": "treasury",
                      "type": "address"
                    },
                    {
                      "internalType": "string",
                      "name": "memo",
                      "type": "string"
                    },
                    {
                      "internalType": "bool",
                      "name": "tokenSupplyType",
                      "type": "bool"
                    },
                    {
                      "internalType": "uint32",
                      "name": "maxSupply",
                      "type": "uint32"
                    },
                    {
                      "internalType": "bool",
                      "name": "freezeDefault",
                      "type": "bool"
                    },
                    {
                      "components": [
                        {
                          "internalType": "uint256",
                          "name": "keyType",
                          "type": "uint256"
                        },
                        {
                          "components": [
                            {
                              "internalType": "bool",
                              "name": "inheritAccountKey",
                              "type": "bool"
                            },
                            {
                              "internalType": "address",
                              "name": "contractId",
                              "type": "address"
                            },
                            {
                              "internalType": "bytes",
                              "name": "ed25519",
                              "type": "bytes"
                            },
                            {
                              "internalType": "bytes",
                              "name": "ECDSA_secp256k1",
                              "type": "bytes"
                            },
                            {
                              "internalType": "address",
                              "name": "delegatableContractId",
                              "type": "address"
                            }
                          ],
                          "internalType": "struct IHederaTokenService.KeyValue",
                          "name": "key",
                          "type": "tuple"
                        }
                      ],
                      "internalType": "struct IHederaTokenService.TokenKey[]",
                      "name": "tokenKeys",
                      "type": "tuple[]"
                    },
                    {
                      "components": [
                        {
                          "internalType": "uint32",
                          "name": "second",
                          "type": "uint32"
                        },
                        {
                          "internalType": "address",
                          "name": "autoRenewAccount",
                          "type": "address"
                        },
                        {
                          "internalType": "uint32",
                          "name": "autoRenewPeriod",
                          "type": "uint32"
                        }
                      ],
                      "internalType": "struct IHederaTokenService.Expiry",
                      "name": "expiry",
                      "type": "tuple"
                    }
                  ],
                  "internalType": "struct IHederaTokenService.HederaToken",
                  "name": "token",
                  "type": "tuple"
                },
                {
                  "internalType": "uint64",
                  "name": "totalSupply",
                  "type": "uint64"
                },
                {
                  "internalType": "bool",
                  "name": "deleted",
                  "type": "bool"
                },
                {
                  "internalType": "bool",
                  "name": "defaultKycStatus",
                  "type": "bool"
                },
                {
                  "internalType": "bool",
                  "name": "pauseStatus",
                  "type": "bool"
                },
                {
                  "components": [
                    {
                      "internalType": "uint32",
                      "name": "amount",
                      "type": "uint32"
                    },
                    {
                      "internalType": "address",
                      "name": "tokenId",
                      "type": "address"
                    },
                    {
                      "internalType": "bool",
                      "name": "useHbarsForPayment",
                      "type": "bool"
                    },
                    {
                      "internalType": "bool",
                      "name": "useCurrentTokenForPayment",
                      "type": "bool"
                    },
                    {
                      "internalType": "address",
                      "name": "feeCollector",
                      "type": "address"
                    }
                  ],
                  "internalType": "struct IHederaTokenService.FixedFee[]",
                  "name": "fixedFees",
                  "type": "tuple[]"
                },
                {
                  "components": [
                    {
                      "internalType": "uint32",
                      "name": "numerator",
                      "type": "uint32"
                    },
                    {
                      "internalType": "uint32",
                      "name": "denominator",
                      "type": "uint32"
                    },
                    {
                      "internalType": "uint32",
                      "name": "minimumAmount",
                      "type": "uint32"
                    },
                    {
                      "internalType": "uint32",
                      "name": "maximumAmount",
                      "type": "uint32"
                    },
                    {
                      "internalType": "bool",
                      "name": "netOfTransfers",
                      "type": "bool"
                    },
                    {
                      "internalType": "address",
                      "name": "feeCollector",
                      "type": "address"
                    }
                  ],
                  "internalType": "struct IHederaTokenService.FractionalFee[]",
                  "name": "fractionalFees",
                  "type": "tuple[]"
                },
                {
                  "components": [
                    {
                      "internalType": "uint32",
                      "name": "numerator",
                      "type": "uint32"
                    },
                    {
                      "internalType": "uint32",
                      "name": "denominator",
                      "type": "uint32"
                    },
                    {
                      "internalType": "uint32",
                      "name": "amount",
                      "type": "uint32"
                    },
                    {
                      "internalType": "address",
                      "name": "tokenId",
                      "type": "address"
                    },
                    {
                      "internalType": "bool",
                      "name": "useHbarsForPayment",
                      "type": "bool"
                    },
                    {
                      "internalType": "address",
                      "name": "feeCollector",
                      "type": "address"
                    }
                  ],
                  "internalType": "struct IHederaTokenService.RoyaltyFee[]",
                  "name": "royaltyFees",
                  "type": "tuple[]"
                },
                {
                  "internalType": "string",
                  "name": "ledgerId",
                  "type": "string"
                }
              ],
              "internalType": "struct IHederaTokenService.TokenInfo",
              "name": "tokenInfo",
              "type": "tuple"
            },
            {
              "internalType": "int64",
              "name": "serialNumber",
              "type": "int64"
            },
            {
              "internalType": "address",
              "name": "ownerId",
              "type": "address"
            },
            {
              "internalType": "int64",
              "name": "creationTime",
              "type": "int64"
            },
            {
              "internalType": "bytes",
              "name": "metadata",
              "type": "bytes"
            },
            {
              "internalType": "address",
              "name": "spenderId",
              "type": "address"
            }
          ],
          "indexed": false,
          "internalType": "struct IHederaTokenService.NonFungibleTokenInfo",
          "name": "tokenInfo",
          "type": "tuple"
        }
      ],
      "name": "NonFungibleTokenInfo",
      "type": "event"
    },
    {
      "anonymous": false,
      "inputs": [
        {
          "indexed": false,
          "internalType": "bool",
          "name": "paused",
          "type": "bool"
        }
      ],
      "name": "PausedToken",
      "type": "event"
    },
    {
      "anonymous": false,
      "inputs": [
        {
          "indexed": false,
          "internalType": "int256",
          "name": "responseCode",
          "type": "int256"
        }
      ],
      "name": "ResponseCode",
      "type": "event"
    },
    {
      "anonymous": false,
      "inputs": [
        {
          "components": [
            {
              "internalType": "uint32",
              "name": "amount",
              "type": "uint32"
            },
            {
              "internalType": "address",
              "name": "tokenId",
              "type": "address"
            },
            {
              "internalType": "bool",
              "name": "useHbarsForPayment",
              "type": "bool"
            },
            {
              "internalType": "bool",
              "name": "useCurrentTokenForPayment",
              "type": "bool"
            },
            {
              "internalType": "address",
              "name": "feeCollector",
              "type": "address"
            }
          ],
          "indexed": false,
          "internalType": "struct IHederaTokenService.FixedFee[]",
          "name": "fixedFees",
          "type": "tuple[]"
        },
        {
          "components": [
            {
              "internalType": "uint32",
              "name": "numerator",
              "type": "uint32"
            },
            {
              "internalType": "uint32",
              "name": "denominator",
              "type": "uint32"
            },
            {
              "internalType": "uint32",
              "name": "minimumAmount",
              "type": "uint32"
            },
            {
              "internalType": "uint32",
              "name": "maximumAmount",
              "type": "uint32"
            },
            {
              "internalType": "bool",
              "name": "netOfTransfers",
              "type": "bool"
            },
            {
              "internalType": "address",
              "name": "feeCollector",
              "type": "address"
            }
          ],
          "indexed": false,
          "internalType": "struct IHederaTokenService.FractionalFee[]",
          "name": "fractionalFees",
          "type": "tuple[]"
        },
        {
          "components": [
            {
              "internalType": "uint32",
              "name": "numerator",
              "type": "uint32"
            },
            {
              "internalType": "uint32",
              "name": "denominator",
              "type": "uint32"
            },
            {
              "internalType": "uint32",
              "name": "amount",
              "type": "uint32"
            },
            {
              "internalType": "address",
              "name": "tokenId",
              "type": "address"
            },
            {
              "internalType": "bool",
              "name": "useHbarsForPayment",
              "type": "bool"
            },
            {
              "internalType": "address",
              "name": "feeCollector",
              "type": "address"
            }
          ],
          "indexed": false,
          "internalType": "struct IHederaTokenService.RoyaltyFee[]",
          "name": "royaltyFees",
          "type": "tuple[]"
        }
      ],
      "name": "TokenCustomFees",
      "type": "event"
    },
    {
      "anonymous": false,
      "inputs": [
        {
          "indexed": false,
          "internalType": "bool",
          "name": "defaultFreezeStatus",
          "type": "bool"
        }
      ],
      "name": "TokenDefaultFreezeStatus",
      "type": "event"
    },
    {
      "anonymous": false,
      "inputs": [
        {
          "indexed": false,
          "internalType": "bool",
          "name": "defaultKycStatus",
          "type": "bool"
        }
      ],
      "name": "TokenDefaultKycStatus",
      "type": "event"
    },
    {
      "anonymous": false,
      "inputs": [
        {
          "components": [
            {
              "internalType": "uint32",
              "name": "second",
              "type": "uint32"
            },
            {
              "internalType": "address",
              "name": "autoRenewAccount",
              "type": "address"
            },
            {
              "internalType": "uint32",
              "name": "autoRenewPeriod",
              "type": "uint32"
            }
          ],
          "indexed": false,
          "internalType": "struct IHederaTokenService.Expiry",
          "name": "expiryInfo",
          "type": "tuple"
        }
      ],
      "name": "TokenExpiryInfo",
      "type": "event"
    },
    {
      "anonymous": false,
      "inputs": [
        {
          "components": [
            {
              "components": [
                {
                  "internalType": "string",
                  "name": "name",
                  "type": "string"
                },
                {
                  "internalType": "string",
                  "name": "symbol",
                  "type": "string"
                },
                {
                  "internalType": "address",
                  "name": "treasury",
                  "type": "address"
                },
                {
                  "internalType": "string",
                  "name": "memo",
                  "type": "string"
                },
                {
                  "internalType": "bool",
                  "name": "tokenSupplyType",
                  "type": "bool"
                },
                {
                  "internalType": "uint32",
                  "name": "maxSupply",
                  "type": "uint32"
                },
                {
                  "internalType": "bool",
                  "name": "freezeDefault",
                  "type": "bool"
                },
                {
                  "components": [
                    {
                      "internalType": "uint256",
                      "name": "keyType",
                      "type": "uint256"
                    },
                    {
                      "components": [
                        {
                          "internalType": "bool",
                          "name": "inheritAccountKey",
                          "type": "bool"
                        },
                        {
                          "internalType": "address",
                          "name": "contractId",
                          "type": "address"
                        },
                        {
                          "internalType": "bytes",
                          "name": "ed25519",
                          "type": "bytes"
                        },
                        {
                          "internalType": "bytes",
                          "name": "ECDSA_secp256k1",
                          "type": "bytes"
                        },
                        {
                          "internalType": "address",
                          "name": "delegatableContractId",
                          "type": "address"
                        }
                      ],
                      "internalType": "struct IHederaTokenService.KeyValue",
                      "name": "key",
                      "type": "tuple"
                    }
                  ],
                  "internalType": "struct IHederaTokenService.TokenKey[]",
                  "name": "tokenKeys",
                  "type": "tuple[]"
                },
                {
                  "components": [
                    {
                      "internalType": "uint32",
                      "name": "second",
                      "type": "uint32"
                    },
                    {
                      "internalType": "address",
                      "name": "autoRenewAccount",
                      "type": "address"
                    },
                    {
                      "internalType": "uint32",
                      "name": "autoRenewPeriod",
                      "type": "uint32"
                    }
                  ],
                  "internalType": "struct IHederaTokenService.Expiry",
                  "name": "expiry",
                  "type": "tuple"
                }
              ],
              "internalType": "struct IHederaTokenService.HederaToken",
              "name": "token",
              "type": "tuple"
            },
            {
              "internalType": "uint64",
              "name": "totalSupply",
              "type": "uint64"
            },
            {
              "internalType": "bool",
              "name": "deleted",
              "type": "bool"
            },
            {
              "internalType": "bool",
              "name": "defaultKycStatus",
              "type": "bool"
            },
            {
              "internalType": "bool",
              "name": "pauseStatus",
              "type": "bool"
            },
            {
              "components": [
                {
                  "internalType": "uint32",
                  "name": "amount",
                  "type": "uint32"
                },
                {
                  "internalType": "address",
                  "name": "tokenId",
                  "type": "address"
                },
                {
                  "internalType": "bool",
                  "name": "useHbarsForPayment",
                  "type": "bool"
                },
                {
                  "internalType": "bool",
                  "name": "useCurrentTokenForPayment",
                  "type": "bool"
                },
                {
                  "internalType": "address",
                  "name": "feeCollector",
                  "type": "address"
                }
              ],
              "internalType": "struct IHederaTokenService.FixedFee[]",
              "name": "fixedFees",
              "type": "tuple[]"
            },
            {
              "components": [
                {
                  "internalType": "uint32",
                  "name": "numerator",
                  "type": "uint32"
                },
                {
                  "internalType": "uint32",
                  "name": "denominator",
                  "type": "uint32"
                },
                {
                  "internalType": "uint32",
                  "name": "minimumAmount",
                  "type": "uint32"
                },
                {
                  "internalType": "uint32",
                  "name": "maximumAmount",
                  "type": "uint32"
                },
                {
                  "internalType": "bool",
                  "name": "netOfTransfers",
                  "type": "bool"
                },
                {
                  "internalType": "address",
                  "name": "feeCollector",
                  "type": "address"
                }
              ],
              "internalType": "struct IHederaTokenService.FractionalFee[]",
              "name": "fractionalFees",
              "type": "tuple[]"
            },
            {
              "components": [
                {
                  "internalType": "uint32",
                  "name": "numerator",
                  "type": "uint32"
                },
                {
                  "internalType": "uint32",
                  "name": "denominator",
                  "type": "uint32"
                },
                {
                  "internalType": "uint32",
                  "name": "amount",
                  "type": "uint32"
                },
                {
                  "internalType": "address",
                  "name": "tokenId",
                  "type": "address"
                },
                {
                  "internalType": "bool",
                  "name": "useHbarsForPayment",
                  "type": "bool"
                },
                {
                  "internalType": "address",
                  "name": "feeCollector",
                  "type": "address"
                }
              ],
              "internalType": "struct IHederaTokenService.RoyaltyFee[]",
              "name": "royaltyFees",
              "type": "tuple[]"
            },
            {
              "internalType": "string",
              "name": "ledgerId",
              "type": "string"
            }
          ],
          "indexed": false,
          "internalType": "struct IHederaTokenService.TokenInfo",
          "name": "tokenInfo",
          "type": "tuple"
        }
      ],
      "name": "TokenInfo",
      "type": "event"
    },
    {
      "anonymous": false,
      "inputs": [
        {
          "indexed": false,
          "internalType": "bool",
          "name": "unpaused",
          "type": "bool"
        }
      ],
      "name": "UnpausedToken",
      "type": "event"
    },
    {
      "inputs": [
        {
          "internalType": "address",
          "name": "token",
          "type": "address"
        },
        {
          "internalType": "address",
          "name": "owner",
          "type": "address"
        },
        {
          "internalType": "address",
          "name": "spender",
          "type": "address"
        }
      ],
      "name": "allowancePublic",
      "outputs": [
        {
          "internalType": "int256",
          "name": "responseCode",
          "type": "int256"
        },
        {
          "internalType": "uint256",
          "name": "amount",
          "type": "uint256"
        }
      ],
      "stateMutability": "nonpayable",
      "type": "function"
    },
    {
      "inputs": [
        {
          "internalType": "address",
          "name": "token",
          "type": "address"
        },
        {
          "internalType": "address",
          "name": "approved",
          "type": "address"
        },
        {
          "internalType": "uint256",
          "name": "serialNumber",
          "type": "uint256"
        }
      ],
      "name": "approveNFTPublic",
      "outputs": [
        {
          "internalType": "int256",
          "name": "responseCode",
          "type": "int256"
        }
      ],
      "stateMutability": "nonpayable",
      "type": "function"
    },
    {
      "inputs": [
        {
          "internalType": "address",
          "name": "token",
          "type": "address"
        },
        {
          "internalType": "address",
          "name": "spender",
          "type": "address"
        },
        {
          "internalType": "uint256",
          "name": "amount",
          "type": "uint256"
        }
      ],
      "name": "approvePublic",
      "outputs": [
        {
          "internalType": "int256",
          "name": "responseCode",
          "type": "int256"
        }
      ],
      "stateMutability": "nonpayable",
      "type": "function"
    },
    {
      "inputs": [
        {
          "internalType": "address",
          "name": "account",
          "type": "address"
        },
        {
          "internalType": "address",
          "name": "token",
          "type": "address"
        }
      ],
      "name": "associateTokenPublic",
      "outputs": [
        {
          "internalType": "int256",
          "name": "responseCode",
          "type": "int256"
        }
      ],
      "stateMutability": "nonpayable",
      "type": "function"
    },
    {
      "inputs": [
        {
          "internalType": "address",
          "name": "treasury",
          "type": "address"
        }
      ],
      "name": "createFungibleTokenPublic",
      "outputs": [],
      "stateMutability": "payable",
      "type": "function"
    },
    {
      "inputs": [
        {
          "internalType": "address",
          "name": "treasury",
          "type": "address"
        },
        {
          "internalType": "address",
          "name": "fixedFeeTokenAddress",
          "type": "address"
        }
      ],
      "name": "createFungibleTokenWithCustomFeesPublic",
      "outputs": [],
      "stateMutability": "payable",
      "type": "function"
    },
    {
      "inputs": [
        {
          "internalType": "address",
          "name": "treasury",
          "type": "address"
        }
      ],
      "name": "createNonFungibleTokenPublic",
      "outputs": [],
      "stateMutability": "payable",
      "type": "function"
    },
    {
      "inputs": [
        {
          "components": [
            {
              "internalType": "address",
              "name": "token",
              "type": "address"
            },
            {
              "components": [
                {
                  "internalType": "address",
                  "name": "accountID",
                  "type": "address"
                },
                {
                  "internalType": "int64",
                  "name": "amount",
                  "type": "int64"
                }
              ],
              "internalType": "struct IHederaTokenService.AccountAmount[]",
              "name": "transfers",
              "type": "tuple[]"
            },
            {
              "components": [
                {
                  "internalType": "address",
                  "name": "senderAccountID",
                  "type": "address"
                },
                {
                  "internalType": "address",
                  "name": "receiverAccountID",
                  "type": "address"
                },
                {
                  "internalType": "int64",
                  "name": "serialNumber",
                  "type": "int64"
                }
              ],
              "internalType": "struct IHederaTokenService.NftTransfer[]",
              "name": "nftTransfers",
              "type": "tuple[]"
            }
          ],
          "internalType": "struct IHederaTokenService.TokenTransferList[]",
          "name": "tokenTransferList",
          "type": "tuple[]"
        }
      ],
      "name": "cryptoTransferPublic",
      "outputs": [
        {
          "internalType": "int256",
          "name": "responseCode",
          "type": "int256"
        }
      ],
      "stateMutability": "nonpayable",
      "type": "function"
    },
    {
      "inputs": [
        {
          "internalType": "address",
          "name": "account",
          "type": "address"
        },
        {
          "internalType": "address",
          "name": "token",
          "type": "address"
        },
        {
          "internalType": "int64",
          "name": "amount",
          "type": "int64"
        }
      ],
      "name": "cryptoTransferTokenPublic",
      "outputs": [
        {
          "internalType": "int256",
          "name": "responseCode",
          "type": "int256"
        }
      ],
      "stateMutability": "nonpayable",
      "type": "function"
    },
    {
      "inputs": [
        {
          "internalType": "address",
          "name": "token",
          "type": "address"
        }
      ],
      "name": "deleteTokenPublic",
      "outputs": [
        {
          "internalType": "int256",
          "name": "responseCode",
          "type": "int256"
        }
      ],
      "stateMutability": "nonpayable",
      "type": "function"
    },
    {
      "inputs": [
        {
          "internalType": "address",
          "name": "token",
          "type": "address"
        },
        {
          "internalType": "address",
          "name": "account",
          "type": "address"
        }
      ],
      "name": "freezeTokenPublic",
      "outputs": [
        {
          "internalType": "int256",
          "name": "responseCode",
          "type": "int256"
        }
      ],
      "stateMutability": "nonpayable",
      "type": "function"
    },
    {
      "inputs": [
        {
          "internalType": "address",
          "name": "token",
          "type": "address"
        },
        {
          "internalType": "uint256",
          "name": "serialNumber",
          "type": "uint256"
        }
      ],
      "name": "getApprovedPublic",
      "outputs": [
        {
          "internalType": "int256",
          "name": "responseCode",
          "type": "int256"
        },
        {
          "internalType": "address",
          "name": "approved",
          "type": "address"
        }
      ],
      "stateMutability": "nonpayable",
      "type": "function"
    },
    {
      "inputs": [
        {
          "internalType": "address",
          "name": "token",
          "type": "address"
        }
      ],
      "name": "getFungibleTokenInfoPublic",
      "outputs": [
        {
          "internalType": "int256",
          "name": "responseCode",
          "type": "int256"
        },
        {
          "components": [
            {
              "components": [
                {
                  "components": [
                    {
                      "internalType": "string",
                      "name": "name",
                      "type": "string"
                    },
                    {
                      "internalType": "string",
                      "name": "symbol",
                      "type": "string"
                    },
                    {
                      "internalType": "address",
                      "name": "treasury",
                      "type": "address"
                    },
                    {
                      "internalType": "string",
                      "name": "memo",
                      "type": "string"
                    },
                    {
                      "internalType": "bool",
                      "name": "tokenSupplyType",
                      "type": "bool"
                    },
                    {
                      "internalType": "uint32",
                      "name": "maxSupply",
                      "type": "uint32"
                    },
                    {
                      "internalType": "bool",
                      "name": "freezeDefault",
                      "type": "bool"
                    },
                    {
                      "components": [
                        {
                          "internalType": "uint256",
                          "name": "keyType",
                          "type": "uint256"
                        },
                        {
                          "components": [
                            {
                              "internalType": "bool",
                              "name": "inheritAccountKey",
                              "type": "bool"
                            },
                            {
                              "internalType": "address",
                              "name": "contractId",
                              "type": "address"
                            },
                            {
                              "internalType": "bytes",
                              "name": "ed25519",
                              "type": "bytes"
                            },
                            {
                              "internalType": "bytes",
                              "name": "ECDSA_secp256k1",
                              "type": "bytes"
                            },
                            {
                              "internalType": "address",
                              "name": "delegatableContractId",
                              "type": "address"
                            }
                          ],
                          "internalType": "struct IHederaTokenService.KeyValue",
                          "name": "key",
                          "type": "tuple"
                        }
                      ],
                      "internalType": "struct IHederaTokenService.TokenKey[]",
                      "name": "tokenKeys",
                      "type": "tuple[]"
                    },
                    {
                      "components": [
                        {
                          "internalType": "uint32",
                          "name": "second",
                          "type": "uint32"
                        },
                        {
                          "internalType": "address",
                          "name": "autoRenewAccount",
                          "type": "address"
                        },
                        {
                          "internalType": "uint32",
                          "name": "autoRenewPeriod",
                          "type": "uint32"
                        }
                      ],
                      "internalType": "struct IHederaTokenService.Expiry",
                      "name": "expiry",
                      "type": "tuple"
                    }
                  ],
                  "internalType": "struct IHederaTokenService.HederaToken",
                  "name": "token",
                  "type": "tuple"
                },
                {
                  "internalType": "uint64",
                  "name": "totalSupply",
                  "type": "uint64"
                },
                {
                  "internalType": "bool",
                  "name": "deleted",
                  "type": "bool"
                },
                {
                  "internalType": "bool",
                  "name": "defaultKycStatus",
                  "type": "bool"
                },
                {
                  "internalType": "bool",
                  "name": "pauseStatus",
                  "type": "bool"
                },
                {
                  "components": [
                    {
                      "internalType": "uint32",
                      "name": "amount",
                      "type": "uint32"
                    },
                    {
                      "internalType": "address",
                      "name": "tokenId",
                      "type": "address"
                    },
                    {
                      "internalType": "bool",
                      "name": "useHbarsForPayment",
                      "type": "bool"
                    },
                    {
                      "internalType": "bool",
                      "name": "useCurrentTokenForPayment",
                      "type": "bool"
                    },
                    {
                      "internalType": "address",
                      "name": "feeCollector",
                      "type": "address"
                    }
                  ],
                  "internalType": "struct IHederaTokenService.FixedFee[]",
                  "name": "fixedFees",
                  "type": "tuple[]"
                },
                {
                  "components": [
                    {
                      "internalType": "uint32",
                      "name": "numerator",
                      "type": "uint32"
                    },
                    {
                      "internalType": "uint32",
                      "name": "denominator",
                      "type": "uint32"
                    },
                    {
                      "internalType": "uint32",
                      "name": "minimumAmount",
                      "type": "uint32"
                    },
                    {
                      "internalType": "uint32",
                      "name": "maximumAmount",
                      "type": "uint32"
                    },
                    {
                      "internalType": "bool",
                      "name": "netOfTransfers",
                      "type": "bool"
                    },
                    {
                      "internalType": "address",
                      "name": "feeCollector",
                      "type": "address"
                    }
                  ],
                  "internalType": "struct IHederaTokenService.FractionalFee[]",
                  "name": "fractionalFees",
                  "type": "tuple[]"
                },
                {
                  "components": [
                    {
                      "internalType": "uint32",
                      "name": "numerator",
                      "type": "uint32"
                    },
                    {
                      "internalType": "uint32",
                      "name": "denominator",
                      "type": "uint32"
                    },
                    {
                      "internalType": "uint32",
                      "name": "amount",
                      "type": "uint32"
                    },
                    {
                      "internalType": "address",
                      "name": "tokenId",
                      "type": "address"
                    },
                    {
                      "internalType": "bool",
                      "name": "useHbarsForPayment",
                      "type": "bool"
                    },
                    {
                      "internalType": "address",
                      "name": "feeCollector",
                      "type": "address"
                    }
                  ],
                  "internalType": "struct IHederaTokenService.RoyaltyFee[]",
                  "name": "royaltyFees",
                  "type": "tuple[]"
                },
                {
                  "internalType": "string",
                  "name": "ledgerId",
                  "type": "string"
                }
              ],
              "internalType": "struct IHederaTokenService.TokenInfo",
              "name": "tokenInfo",
              "type": "tuple"
            },
            {
              "internalType": "uint32",
              "name": "decimals",
              "type": "uint32"
            }
          ],
          "internalType": "struct IHederaTokenService.FungibleTokenInfo",
          "name": "tokenInfo",
          "type": "tuple"
        }
      ],
      "stateMutability": "nonpayable",
      "type": "function"
    },
    {
      "inputs": [
        {
          "internalType": "address",
          "name": "token",
          "type": "address"
        },
        {
          "internalType": "int64",
          "name": "serialNumber",
          "type": "int64"
        }
      ],
      "name": "getNonFungibleTokenInfoPublic",
      "outputs": [
        {
          "internalType": "int256",
          "name": "responseCode",
          "type": "int256"
        },
        {
          "components": [
            {
              "components": [
                {
                  "components": [
                    {
                      "internalType": "string",
                      "name": "name",
                      "type": "string"
                    },
                    {
                      "internalType": "string",
                      "name": "symbol",
                      "type": "string"
                    },
                    {
                      "internalType": "address",
                      "name": "treasury",
                      "type": "address"
                    },
                    {
                      "internalType": "string",
                      "name": "memo",
                      "type": "string"
                    },
                    {
                      "internalType": "bool",
                      "name": "tokenSupplyType",
                      "type": "bool"
                    },
                    {
                      "internalType": "uint32",
                      "name": "maxSupply",
                      "type": "uint32"
                    },
                    {
                      "internalType": "bool",
                      "name": "freezeDefault",
                      "type": "bool"
                    },
                    {
                      "components": [
                        {
                          "internalType": "uint256",
                          "name": "keyType",
                          "type": "uint256"
                        },
                        {
                          "components": [
                            {
                              "internalType": "bool",
                              "name": "inheritAccountKey",
                              "type": "bool"
                            },
                            {
                              "internalType": "address",
                              "name": "contractId",
                              "type": "address"
                            },
                            {
                              "internalType": "bytes",
                              "name": "ed25519",
                              "type": "bytes"
                            },
                            {
                              "internalType": "bytes",
                              "name": "ECDSA_secp256k1",
                              "type": "bytes"
                            },
                            {
                              "internalType": "address",
                              "name": "delegatableContractId",
                              "type": "address"
                            }
                          ],
                          "internalType": "struct IHederaTokenService.KeyValue",
                          "name": "key",
                          "type": "tuple"
                        }
                      ],
                      "internalType": "struct IHederaTokenService.TokenKey[]",
                      "name": "tokenKeys",
                      "type": "tuple[]"
                    },
                    {
                      "components": [
                        {
                          "internalType": "uint32",
                          "name": "second",
                          "type": "uint32"
                        },
                        {
                          "internalType": "address",
                          "name": "autoRenewAccount",
                          "type": "address"
                        },
                        {
                          "internalType": "uint32",
                          "name": "autoRenewPeriod",
                          "type": "uint32"
                        }
                      ],
                      "internalType": "struct IHederaTokenService.Expiry",
                      "name": "expiry",
                      "type": "tuple"
                    }
                  ],
                  "internalType": "struct IHederaTokenService.HederaToken",
                  "name": "token",
                  "type": "tuple"
                },
                {
                  "internalType": "uint64",
                  "name": "totalSupply",
                  "type": "uint64"
                },
                {
                  "internalType": "bool",
                  "name": "deleted",
                  "type": "bool"
                },
                {
                  "internalType": "bool",
                  "name": "defaultKycStatus",
                  "type": "bool"
                },
                {
                  "internalType": "bool",
                  "name": "pauseStatus",
                  "type": "bool"
                },
                {
                  "components": [
                    {
                      "internalType": "uint32",
                      "name": "amount",
                      "type": "uint32"
                    },
                    {
                      "internalType": "address",
                      "name": "tokenId",
                      "type": "address"
                    },
                    {
                      "internalType": "bool",
                      "name": "useHbarsForPayment",
                      "type": "bool"
                    },
                    {
                      "internalType": "bool",
                      "name": "useCurrentTokenForPayment",
                      "type": "bool"
                    },
                    {
                      "internalType": "address",
                      "name": "feeCollector",
                      "type": "address"
                    }
                  ],
                  "internalType": "struct IHederaTokenService.FixedFee[]",
                  "name": "fixedFees",
                  "type": "tuple[]"
                },
                {
                  "components": [
                    {
                      "internalType": "uint32",
                      "name": "numerator",
                      "type": "uint32"
                    },
                    {
                      "internalType": "uint32",
                      "name": "denominator",
                      "type": "uint32"
                    },
                    {
                      "internalType": "uint32",
                      "name": "minimumAmount",
                      "type": "uint32"
                    },
                    {
                      "internalType": "uint32",
                      "name": "maximumAmount",
                      "type": "uint32"
                    },
                    {
                      "internalType": "bool",
                      "name": "netOfTransfers",
                      "type": "bool"
                    },
                    {
                      "internalType": "address",
                      "name": "feeCollector",
                      "type": "address"
                    }
                  ],
                  "internalType": "struct IHederaTokenService.FractionalFee[]",
                  "name": "fractionalFees",
                  "type": "tuple[]"
                },
                {
                  "components": [
                    {
                      "internalType": "uint32",
                      "name": "numerator",
                      "type": "uint32"
                    },
                    {
                      "internalType": "uint32",
                      "name": "denominator",
                      "type": "uint32"
                    },
                    {
                      "internalType": "uint32",
                      "name": "amount",
                      "type": "uint32"
                    },
                    {
                      "internalType": "address",
                      "name": "tokenId",
                      "type": "address"
                    },
                    {
                      "internalType": "bool",
                      "name": "useHbarsForPayment",
                      "type": "bool"
                    },
                    {
                      "internalType": "address",
                      "name": "feeCollector",
                      "type": "address"
                    }
                  ],
                  "internalType": "struct IHederaTokenService.RoyaltyFee[]",
                  "name": "royaltyFees",
                  "type": "tuple[]"
                },
                {
                  "internalType": "string",
                  "name": "ledgerId",
                  "type": "string"
                }
              ],
              "internalType": "struct IHederaTokenService.TokenInfo",
              "name": "tokenInfo",
              "type": "tuple"
            },
            {
              "internalType": "int64",
              "name": "serialNumber",
              "type": "int64"
            },
            {
              "internalType": "address",
              "name": "ownerId",
              "type": "address"
            },
            {
              "internalType": "int64",
              "name": "creationTime",
              "type": "int64"
            },
            {
              "internalType": "bytes",
              "name": "metadata",
              "type": "bytes"
            },
            {
              "internalType": "address",
              "name": "spenderId",
              "type": "address"
            }
          ],
          "internalType": "struct IHederaTokenService.NonFungibleTokenInfo",
          "name": "tokenInfo",
          "type": "tuple"
        }
      ],
      "stateMutability": "nonpayable",
      "type": "function"
    },
    {
      "inputs": [
        {
          "internalType": "address",
          "name": "token",
          "type": "address"
        }
      ],
      "name": "getTokenCustomFeesPublic",
      "outputs": [
        {
          "internalType": "int64",
          "name": "responseCode",
          "type": "int64"
        },
        {
          "components": [
            {
              "internalType": "uint32",
              "name": "amount",
              "type": "uint32"
            },
            {
              "internalType": "address",
              "name": "tokenId",
              "type": "address"
            },
            {
              "internalType": "bool",
              "name": "useHbarsForPayment",
              "type": "bool"
            },
            {
              "internalType": "bool",
              "name": "useCurrentTokenForPayment",
              "type": "bool"
            },
            {
              "internalType": "address",
              "name": "feeCollector",
              "type": "address"
            }
          ],
          "internalType": "struct IHederaTokenService.FixedFee[]",
          "name": "fixedFees",
          "type": "tuple[]"
        },
        {
          "components": [
            {
              "internalType": "uint32",
              "name": "numerator",
              "type": "uint32"
            },
            {
              "internalType": "uint32",
              "name": "denominator",
              "type": "uint32"
            },
            {
              "internalType": "uint32",
              "name": "minimumAmount",
              "type": "uint32"
            },
            {
              "internalType": "uint32",
              "name": "maximumAmount",
              "type": "uint32"
            },
            {
              "internalType": "bool",
              "name": "netOfTransfers",
              "type": "bool"
            },
            {
              "internalType": "address",
              "name": "feeCollector",
              "type": "address"
            }
          ],
          "internalType": "struct IHederaTokenService.FractionalFee[]",
          "name": "fractionalFees",
          "type": "tuple[]"
        },
        {
          "components": [
            {
              "internalType": "uint32",
              "name": "numerator",
              "type": "uint32"
            },
            {
              "internalType": "uint32",
              "name": "denominator",
              "type": "uint32"
            },
            {
              "internalType": "uint32",
              "name": "amount",
              "type": "uint32"
            },
            {
              "internalType": "address",
              "name": "tokenId",
              "type": "address"
            },
            {
              "internalType": "bool",
              "name": "useHbarsForPayment",
              "type": "bool"
            },
            {
              "internalType": "address",
              "name": "feeCollector",
              "type": "address"
            }
          ],
          "internalType": "struct IHederaTokenService.RoyaltyFee[]",
          "name": "royaltyFees",
          "type": "tuple[]"
        }
      ],
      "stateMutability": "nonpayable",
      "type": "function"
    },
    {
      "inputs": [
        {
          "internalType": "address",
          "name": "token",
          "type": "address"
        }
      ],
      "name": "getTokenDefaultFreezeStatusPublic",
      "outputs": [
        {
          "internalType": "int256",
          "name": "responseCode",
          "type": "int256"
        },
        {
          "internalType": "bool",
          "name": "defaultFreezeStatus",
          "type": "bool"
        }
      ],
      "stateMutability": "nonpayable",
      "type": "function"
    },
    {
      "inputs": [
        {
          "internalType": "address",
          "name": "token",
          "type": "address"
        }
      ],
      "name": "getTokenDefaultKycStatusPublic",
      "outputs": [
        {
          "internalType": "int256",
          "name": "responseCode",
          "type": "int256"
        },
        {
          "internalType": "bool",
          "name": "defaultKycStatus",
          "type": "bool"
        }
      ],
      "stateMutability": "nonpayable",
      "type": "function"
    },
    {
      "inputs": [
        {
          "internalType": "address",
          "name": "token",
          "type": "address"
        }
      ],
      "name": "getTokenExpiryInfo",
      "outputs": [
        {
          "internalType": "int256",
          "name": "responseCode",
          "type": "int256"
        },
        {
          "components": [
            {
              "internalType": "uint32",
              "name": "second",
              "type": "uint32"
            },
            {
              "internalType": "address",
              "name": "autoRenewAccount",
              "type": "address"
            },
            {
              "internalType": "uint32",
              "name": "autoRenewPeriod",
              "type": "uint32"
            }
          ],
          "internalType": "struct IHederaTokenService.Expiry",
          "name": "expiryInfo",
          "type": "tuple"
        }
      ],
      "stateMutability": "nonpayable",
      "type": "function"
    },
    {
      "inputs": [
        {
          "internalType": "address",
          "name": "token",
          "type": "address"
        }
      ],
      "name": "getTokenExpiryInfoPublic",
      "outputs": [
        {
          "internalType": "int256",
          "name": "responseCode",
          "type": "int256"
        },
        {
          "components": [
            {
              "internalType": "uint32",
              "name": "second",
              "type": "uint32"
            },
            {
              "internalType": "address",
              "name": "autoRenewAccount",
              "type": "address"
            },
            {
              "internalType": "uint32",
              "name": "autoRenewPeriod",
              "type": "uint32"
            }
          ],
          "internalType": "struct IHederaTokenService.Expiry",
          "name": "expiryInfo",
          "type": "tuple"
        }
      ],
      "stateMutability": "nonpayable",
      "type": "function"
    },
    {
      "inputs": [
        {
          "internalType": "address",
          "name": "token",
          "type": "address"
        }
      ],
      "name": "getTokenInfoPublic",
      "outputs": [
        {
          "internalType": "int256",
          "name": "responseCode",
          "type": "int256"
        },
        {
          "components": [
            {
              "components": [
                {
                  "internalType": "string",
                  "name": "name",
                  "type": "string"
                },
                {
                  "internalType": "string",
                  "name": "symbol",
                  "type": "string"
                },
                {
                  "internalType": "address",
                  "name": "treasury",
                  "type": "address"
                },
                {
                  "internalType": "string",
                  "name": "memo",
                  "type": "string"
                },
                {
                  "internalType": "bool",
                  "name": "tokenSupplyType",
                  "type": "bool"
                },
                {
                  "internalType": "uint32",
                  "name": "maxSupply",
                  "type": "uint32"
                },
                {
                  "internalType": "bool",
                  "name": "freezeDefault",
                  "type": "bool"
                },
                {
                  "components": [
                    {
                      "internalType": "uint256",
                      "name": "keyType",
                      "type": "uint256"
                    },
                    {
                      "components": [
                        {
                          "internalType": "bool",
                          "name": "inheritAccountKey",
                          "type": "bool"
                        },
                        {
                          "internalType": "address",
                          "name": "contractId",
                          "type": "address"
                        },
                        {
                          "internalType": "bytes",
                          "name": "ed25519",
                          "type": "bytes"
                        },
                        {
                          "internalType": "bytes",
                          "name": "ECDSA_secp256k1",
                          "type": "bytes"
                        },
                        {
                          "internalType": "address",
                          "name": "delegatableContractId",
                          "type": "address"
                        }
                      ],
                      "internalType": "struct IHederaTokenService.KeyValue",
                      "name": "key",
                      "type": "tuple"
                    }
                  ],
                  "internalType": "struct IHederaTokenService.TokenKey[]",
                  "name": "tokenKeys",
                  "type": "tuple[]"
                },
                {
                  "components": [
                    {
                      "internalType": "uint32",
                      "name": "second",
                      "type": "uint32"
                    },
                    {
                      "internalType": "address",
                      "name": "autoRenewAccount",
                      "type": "address"
                    },
                    {
                      "internalType": "uint32",
                      "name": "autoRenewPeriod",
                      "type": "uint32"
                    }
                  ],
                  "internalType": "struct IHederaTokenService.Expiry",
                  "name": "expiry",
                  "type": "tuple"
                }
              ],
              "internalType": "struct IHederaTokenService.HederaToken",
              "name": "token",
              "type": "tuple"
            },
            {
              "internalType": "uint64",
              "name": "totalSupply",
              "type": "uint64"
            },
            {
              "internalType": "bool",
              "name": "deleted",
              "type": "bool"
            },
            {
              "internalType": "bool",
              "name": "defaultKycStatus",
              "type": "bool"
            },
            {
              "internalType": "bool",
              "name": "pauseStatus",
              "type": "bool"
            },
            {
              "components": [
                {
                  "internalType": "uint32",
                  "name": "amount",
                  "type": "uint32"
                },
                {
                  "internalType": "address",
                  "name": "tokenId",
                  "type": "address"
                },
                {
                  "internalType": "bool",
                  "name": "useHbarsForPayment",
                  "type": "bool"
                },
                {
                  "internalType": "bool",
                  "name": "useCurrentTokenForPayment",
                  "type": "bool"
                },
                {
                  "internalType": "address",
                  "name": "feeCollector",
                  "type": "address"
                }
              ],
              "internalType": "struct IHederaTokenService.FixedFee[]",
              "name": "fixedFees",
              "type": "tuple[]"
            },
            {
              "components": [
                {
                  "internalType": "uint32",
                  "name": "numerator",
                  "type": "uint32"
                },
                {
                  "internalType": "uint32",
                  "name": "denominator",
                  "type": "uint32"
                },
                {
                  "internalType": "uint32",
                  "name": "minimumAmount",
                  "type": "uint32"
                },
                {
                  "internalType": "uint32",
                  "name": "maximumAmount",
                  "type": "uint32"
                },
                {
                  "internalType": "bool",
                  "name": "netOfTransfers",
                  "type": "bool"
                },
                {
                  "internalType": "address",
                  "name": "feeCollector",
                  "type": "address"
                }
              ],
              "internalType": "struct IHederaTokenService.FractionalFee[]",
              "name": "fractionalFees",
              "type": "tuple[]"
            },
            {
              "components": [
                {
                  "internalType": "uint32",
                  "name": "numerator",
                  "type": "uint32"
                },
                {
                  "internalType": "uint32",
                  "name": "denominator",
                  "type": "uint32"
                },
                {
                  "internalType": "uint32",
                  "name": "amount",
                  "type": "uint32"
                },
                {
                  "internalType": "address",
                  "name": "tokenId",
                  "type": "address"
                },
                {
                  "internalType": "bool",
                  "name": "useHbarsForPayment",
                  "type": "bool"
                },
                {
                  "internalType": "address",
                  "name": "feeCollector",
                  "type": "address"
                }
              ],
              "internalType": "struct IHederaTokenService.RoyaltyFee[]",
              "name": "royaltyFees",
              "type": "tuple[]"
            },
            {
              "internalType": "string",
              "name": "ledgerId",
              "type": "string"
            }
          ],
          "internalType": "struct IHederaTokenService.TokenInfo",
          "name": "tokenInfo",
          "type": "tuple"
        }
      ],
      "stateMutability": "nonpayable",
      "type": "function"
    },
    {
      "inputs": [
        {
          "internalType": "address",
          "name": "token",
          "type": "address"
        },
        {
          "internalType": "address",
          "name": "account",
          "type": "address"
        }
      ],
      "name": "grantTokenKyc",
      "outputs": [
        {
          "internalType": "int64",
          "name": "responseCode",
          "type": "int64"
        }
      ],
      "stateMutability": "nonpayable",
      "type": "function"
    },
    {
      "inputs": [
        {
          "internalType": "address",
          "name": "token",
          "type": "address"
        },
        {
          "internalType": "address",
          "name": "account",
          "type": "address"
        }
      ],
      "name": "grantTokenKycPublic",
      "outputs": [
        {
          "internalType": "int64",
          "name": "responseCode",
          "type": "int64"
        }
      ],
      "stateMutability": "nonpayable",
      "type": "function"
    },
    {
      "inputs": [
        {
          "internalType": "address",
          "name": "token",
          "type": "address"
        },
        {
          "internalType": "address",
          "name": "owner",
          "type": "address"
        },
        {
          "internalType": "address",
          "name": "operator",
          "type": "address"
        }
      ],
      "name": "isApprovedForAllPublic",
      "outputs": [
        {
          "internalType": "int256",
          "name": "responseCode",
          "type": "int256"
        },
        {
          "internalType": "bool",
          "name": "approved",
          "type": "bool"
        }
      ],
      "stateMutability": "nonpayable",
      "type": "function"
    },
    {
      "inputs": [
        {
          "internalType": "address",
          "name": "token",
          "type": "address"
        },
        {
          "internalType": "address",
          "name": "account",
          "type": "address"
        }
      ],
      "name": "isFrozenPublic",
      "outputs": [
        {
          "internalType": "int256",
          "name": "responseCode",
          "type": "int256"
        },
        {
          "internalType": "bool",
          "name": "frozen",
          "type": "bool"
        }
      ],
      "stateMutability": "nonpayable",
      "type": "function"
    },
    {
      "inputs": [
        {
          "internalType": "address",
          "name": "token",
          "type": "address"
        },
        {
          "internalType": "address",
          "name": "account",
          "type": "address"
        }
      ],
      "name": "isKyc",
      "outputs": [
        {
          "internalType": "int64",
          "name": "responseCode",
          "type": "int64"
        },
        {
          "internalType": "bool",
          "name": "kycGranted",
          "type": "bool"
        }
      ],
      "stateMutability": "nonpayable",
      "type": "function"
    },
    {
      "inputs": [
        {
          "internalType": "address",
          "name": "token",
          "type": "address"
        },
        {
          "internalType": "address",
          "name": "account",
          "type": "address"
        }
      ],
      "name": "isKycPublic",
      "outputs": [
        {
          "internalType": "int64",
          "name": "responseCode",
          "type": "int64"
        },
        {
          "internalType": "bool",
          "name": "kycGranted",
          "type": "bool"
        }
      ],
      "stateMutability": "nonpayable",
      "type": "function"
    },
    {
      "inputs": [
        {
          "internalType": "address",
          "name": "token",
          "type": "address"
        },
        {
          "internalType": "uint64",
          "name": "amount",
          "type": "uint64"
        },
        {
          "internalType": "bytes[]",
          "name": "metadata",
          "type": "bytes[]"
        }
      ],
      "name": "mintTokenPublic",
      "outputs": [
        {
          "internalType": "int256",
          "name": "responseCode",
          "type": "int256"
        },
        {
          "internalType": "uint64",
          "name": "newTotalSupply",
          "type": "uint64"
        },
        {
          "internalType": "int64[]",
          "name": "serialNumbers",
          "type": "int64[]"
        }
      ],
      "stateMutability": "nonpayable",
      "type": "function"
    },
    {
      "inputs": [
        {
          "internalType": "address",
          "name": "token",
          "type": "address"
        }
      ],
      "name": "pauseToken",
      "outputs": [
        {
          "internalType": "int256",
          "name": "responseCode",
          "type": "int256"
        }
      ],
      "stateMutability": "nonpayable",
      "type": "function"
    },
    {
      "inputs": [
        {
          "internalType": "address",
          "name": "token",
          "type": "address"
        }
      ],
      "name": "pauseTokenPublic",
      "outputs": [
        {
          "internalType": "int256",
          "name": "responseCode",
          "type": "int256"
        }
      ],
      "stateMutability": "nonpayable",
      "type": "function"
    },
    {
      "inputs": [
        {
          "internalType": "address",
          "name": "token",
          "type": "address"
        },
        {
          "internalType": "address",
          "name": "account",
          "type": "address"
        }
      ],
      "name": "revokeTokenKyc",
      "outputs": [
        {
          "internalType": "int64",
          "name": "responseCode",
          "type": "int64"
        }
      ],
      "stateMutability": "nonpayable",
      "type": "function"
    },
    {
      "inputs": [
        {
          "internalType": "address",
          "name": "token",
          "type": "address"
        },
        {
          "internalType": "address",
          "name": "account",
          "type": "address"
        }
      ],
      "name": "revokeTokenKycPublic",
      "outputs": [
        {
          "internalType": "int64",
          "name": "responseCode",
          "type": "int64"
        }
      ],
      "stateMutability": "nonpayable",
      "type": "function"
    },
    {
      "inputs": [
        {
          "internalType": "address",
          "name": "token",
          "type": "address"
        },
        {
          "internalType": "address",
          "name": "operator",
          "type": "address"
        },
        {
          "internalType": "bool",
          "name": "approved",
          "type": "bool"
        }
      ],
      "name": "setApprovalForAllPublic",
      "outputs": [
        {
          "internalType": "int256",
          "name": "responseCode",
          "type": "int256"
        }
      ],
      "stateMutability": "nonpayable",
      "type": "function"
    },
    {
      "inputs": [
        {
          "internalType": "bool",
          "name": "newFreezeStatus",
          "type": "bool"
        }
      ],
      "name": "setFreezeDefaultStatus",
      "outputs": [],
      "stateMutability": "nonpayable",
      "type": "function"
    },
    {
      "inputs": [
        {
          "internalType": "address",
          "name": "token",
          "type": "address"
        },
        {
          "internalType": "address",
          "name": "sender",
          "type": "address"
        },
        {
          "internalType": "address",
          "name": "receiver",
          "type": "address"
        },
        {
          "internalType": "int64",
          "name": "serialNumber",
          "type": "int64"
        }
      ],
      "name": "transferNFTPublic",
      "outputs": [
        {
          "internalType": "int256",
          "name": "responseCode",
          "type": "int256"
        }
      ],
      "stateMutability": "nonpayable",
      "type": "function"
    },
    {
      "inputs": [
        {
          "internalType": "address",
          "name": "token",
          "type": "address"
        },
        {
          "internalType": "address",
          "name": "sender",
          "type": "address"
        },
        {
          "internalType": "address",
          "name": "receiver",
          "type": "address"
        },
        {
          "internalType": "int64",
          "name": "amount",
          "type": "int64"
        }
      ],
      "name": "transferTokenPublic",
      "outputs": [
        {
          "internalType": "int256",
          "name": "responseCode",
          "type": "int256"
        }
      ],
      "stateMutability": "nonpayable",
      "type": "function"
    },
    {
      "inputs": [
        {
          "internalType": "address",
          "name": "token",
          "type": "address"
        },
        {
          "internalType": "address",
          "name": "account",
          "type": "address"
        }
      ],
      "name": "unfreezeTokenPublic",
      "outputs": [
        {
          "internalType": "int256",
          "name": "responseCode",
          "type": "int256"
        }
      ],
      "stateMutability": "nonpayable",
      "type": "function"
    },
    {
      "inputs": [
        {
          "internalType": "address",
          "name": "token",
          "type": "address"
        }
      ],
      "name": "unpauseToken",
      "outputs": [
        {
          "internalType": "int256",
          "name": "responseCode",
          "type": "int256"
        }
      ],
      "stateMutability": "nonpayable",
      "type": "function"
    },
    {
      "inputs": [
        {
          "internalType": "address",
          "name": "token",
          "type": "address"
        }
      ],
      "name": "unpauseTokenPublic",
      "outputs": [
        {
          "internalType": "int256",
          "name": "responseCode",
          "type": "int256"
        }
      ],
      "stateMutability": "nonpayable",
      "type": "function"
    },
    {
      "inputs": [
        {
          "internalType": "address",
          "name": "token",
          "type": "address"
        },
        {
          "components": [
            {
              "internalType": "uint32",
              "name": "second",
              "type": "uint32"
            },
            {
              "internalType": "address",
              "name": "autoRenewAccount",
              "type": "address"
            },
            {
              "internalType": "uint32",
              "name": "autoRenewPeriod",
              "type": "uint32"
            }
          ],
          "internalType": "struct IHederaTokenService.Expiry",
          "name": "expiryInfo",
          "type": "tuple"
        }
      ],
      "name": "updateTokenExpiryInfo",
      "outputs": [
        {
          "internalType": "int256",
          "name": "responseCode",
          "type": "int256"
        }
      ],
      "stateMutability": "nonpayable",
      "type": "function"
    },
    {
      "inputs": [
        {
          "internalType": "address",
          "name": "token",
          "type": "address"
        },
        {
          "components": [
            {
              "internalType": "uint32",
              "name": "second",
              "type": "uint32"
            },
            {
              "internalType": "address",
              "name": "autoRenewAccount",
              "type": "address"
            },
            {
              "internalType": "uint32",
              "name": "autoRenewPeriod",
              "type": "uint32"
            }
          ],
          "internalType": "struct IHederaTokenService.Expiry",
          "name": "expiryInfo",
          "type": "tuple"
        }
      ],
      "name": "updateTokenExpiryInfoPublic",
      "outputs": [
        {
          "internalType": "int256",
          "name": "responseCode",
          "type": "int256"
        }
      ],
      "stateMutability": "nonpayable",
      "type": "function"
    },
    {
      "inputs": [
        {
          "internalType": "address",
          "name": "token",
          "type": "address"
        },
        {
          "internalType": "address",
          "name": "account",
          "type": "address"
        },
        {
          "internalType": "int64[]",
          "name": "serialNumbers",
          "type": "int64[]"
        }
      ],
      "name": "wipeTokenAccountNFTPublic",
      "outputs": [
        {
          "internalType": "int256",
          "name": "responseCode",
          "type": "int256"
        }
      ],
      "stateMutability": "nonpayable",
      "type": "function"
    },
    {
      "inputs": [
        {
          "internalType": "address",
          "name": "token",
          "type": "address"
        },
        {
          "internalType": "address",
          "name": "account",
          "type": "address"
        },
        {
          "internalType": "uint32",
          "name": "amount",
          "type": "uint32"
        }
      ],
      "name": "wipeTokenAccountPublic",
      "outputs": [
        {
          "internalType": "int256",
          "name": "responseCode",
          "type": "int256"
        }
      ],
      "stateMutability": "nonpayable",
      "type": "function"
    }
  ],
  "bytecode": "0x60c06040526009608081905268746f6b656e4e616d6560b81b60a09081526200002c9160019190620000c3565b5060408051808201909152600b8082526a1d1bdad95b94de5b589bdb60aa1b60209092019182526200006191600291620000c3565b50604080518082019091526004808252636d656d6f60e01b60209092019182526200008f91600391620000c3565b50600480546001600160881b0319166c08000003e800000000000003e8179055348015620000bc57600080fd5b50620001a6565b828054620000d19062000169565b90600052602060002090601f016020900481019282620000f5576000855562000140565b82601f106200011057805160ff191683800117855562000140565b8280016001018555821562000140579182015b828111156200014057825182559160200191906001019062000123565b506200014e92915062000152565b5090565b5b808211156200014e576000815560010162000153565b600181811c908216806200017e57607f821691505b60208210811415620001a057634e487b7160e01b600052602260045260246000fd5b50919050565b615c0f80620001b66000396000f3fe6080604052600436106102d15760003560e01c806386f88d8811610179578063d92ac248116100d6578063f2f38a741161008a578063f848fec411610064578063f848fec41461086f578063f9e978bd1461088f578063fdc8321e146108af57600080fd5b8063f2f38a7414610801578063f4a01e5b1461082f578063f7be34251461084f57600080fd5b8063eee55ac8116100bb578063eee55ac8146107a1578063f25b1200146107c1578063f2c31ff4146107e157600080fd5b8063d92ac24814610761578063df6c06f51461078157600080fd5b8063a3ad5b551161012d578063c0b19b6d11610112578063c0b19b6d14610700578063d614cdb81461072e578063d85f74c11461074e57600080fd5b8063a3ad5b55146106a6578063af99c633146106e057600080fd5b80638f8d7f991161015e5780638f8d7f99146106465780639604ca6514610666578063a345f7bd1461068657600080fd5b806386f88d88146106135780638ba74da01461063357600080fd5b80634cbdb37b1161023257806369837dc2116101e65780637c41ad2c116101c05780637c41ad2c146105a45780637d3e5da8146105c45780638070905f146105e457600080fd5b806369837dc2146105365780636a4dde21146105645780636da6b1f01461058457600080fd5b8063593d6e8211610217578063593d6e82146104b15780635a5e6c31146104d15780635b9076b71461050657600080fd5b80634cbdb37b1461046357806356af84031461049157600080fd5b80632eecbca3116102895780633eed2c391161026e5780633eed2c391461040e5780634b5c66871461042e5780634ba670351461044357600080fd5b80632eecbca3146103ce5780633b3bff0f146103ee57600080fd5b806319db44b6116102ba57806319db44b6146103435780632b256ec8146103805780632d73bb2e146103ae57600080fd5b80630fd2601e146102d657806313c05dd81461030e575b600080fd5b3480156102e257600080fd5b506102f66102f1366004613cdb565b6108cf565b60405160079190910b81526020015b60405180910390f35b34801561031a57600080fd5b5061032e610329366004613d14565b610993565b60408051928352901515602083015201610305565b34801561034f57600080fd5b5061036361035e366004613d5f565b610a11565b604080519283526001600160a01b03909116602083015201610305565b34801561038c57600080fd5b506103a061039b366004613d8b565b610a95565b604051908152602001610305565b3480156103ba57600080fd5b506103a06103c9366004613cdb565b610b81565b3480156103da57600080fd5b506102f66103e9366004613cdb565b610bc6565b3480156103fa57600080fd5b506103a0610409366004613d8b565b610bfd565b34801561041a57600080fd5b5061032e610429366004613d8b565b610cd7565b61044161043c366004613d8b565b610d51565b005b34801561044f57600080fd5b506103a061045e366004613db7565b61113a565b34801561046f57600080fd5b5061048361047e366004613e13565b611186565b604051610305929190614339565b34801561049d57600080fd5b506103a06104ac366004614473565b6111fc565b3480156104bd57600080fd5b506103a06104cc36600461454b565b611246565b3480156104dd57600080fd5b506104f16104ec366004613d14565b611323565b60408051928352602083019190915201610305565b34801561051257600080fd5b50610526610521366004613d8b565b611394565b60405161030594939291906145c8565b34801561054257600080fd5b50610556610551366004613d8b565b611426565b604051610305929190614644565b34801561057057600080fd5b5061032e61057f366004613cdb565b61149b565b34801561059057600080fd5b506103a061059f366004613db7565b611512565b3480156105b057600080fd5b506103a06105bf366004613d8b565b611520565b3480156105d057600080fd5b506103a06105df366004613cdb565b61154e565b3480156105f057600080fd5b506106046105ff36600461469b565b61155a565b604051610305939291906147e4565b34801561061f57600080fd5b5061032e61062e366004613d8b565b6115e2565b610441610641366004613cdb565b611653565b34801561065257600080fd5b506102f6610661366004613cdb565b611b13565b34801561067257600080fd5b506103a0610681366004614816565b611b49565b34801561069257600080fd5b506103a06106a1366004613d8b565b611b7e565b3480156106b257600080fd5b506106c66106c1366004613cdb565b611bc4565b6040805160079390930b8352901515602083015201610305565b3480156106ec57600080fd5b506102f66106fb366004613cdb565b611cb6565b34801561070c57600080fd5b5061072061071b366004613d8b565b611cec565b60405161030592919061488b565b34801561073a57600080fd5b50610720610749366004613d8b565b611de3565b61044161075c366004613d8b565b611eed565b34801561076d57600080fd5b506103a061077c3660046148c5565b612295565b34801561078d57600080fd5b506103a061079c366004614905565b6122a2565b3480156107ad57600080fd5b506103a06107bc36600461454b565b6122af565b3480156107cd57600080fd5b506103a06107dc366004614954565b612342565b3480156107ed57600080fd5b506106c66107fc366004613cdb565b61234f565b34801561080d57600080fd5b5061082161081c366004613d8b565b61242a565b604051610305929190614994565b34801561083b57600080fd5b506103a061084a366004613cdb565b61249f565b34801561085b57600080fd5b506103a061086a366004613d8b565b6124ab565b34801561087b57600080fd5b506103a061088a366004614905565b61258e565b34801561089b57600080fd5b506104416108aa3660046149ad565b61259b565b3480156108bb57600080fd5b506103a06108ca3660046149ca565b612611565b604051638f8d7f9960e01b81526001600160a01b038084166004830152821660248201526000903090638f8d7f99906044015b602060405180830381600087803b15801561091c57600080fd5b505af1158015610930573d6000803e3d6000fd5b505050506040513d601f19601f820116820180604052508101906109549190614a15565b604051600782900b8152909150600080516020615bba8339815191529060200160405180910390a1600781900b60161461098d57600080fd5b92915050565b6000806109a18585856127e8565b6040518281529193509150600080516020615bba8339815191529060200160405180910390a1601682146109d457600080fd5b60405181151581527e1c2e72360171244b3bb8cc8ddd767820edf37138ad6f129fb3574b407c307d906020015b60405180910390a1935093915050565b600080610a1e84846128e7565b6040518281529193509150600080516020615bba8339815191529060200160405180910390a160168214610a5157600080fd5b6040516001600160a01b03821681527fc2c78c7c31baf14949e75c51df12be56edb9af523cf82839c2869bbcf13b3ecb906020015b60405180910390a19250929050565b604051631f106b4b60e21b81526001600160a01b03821660048201526000903090637c41ad2c90602401602060405180830381600087803b158015610ad957600080fd5b505af1158015610aed573d6000803e3d6000fd5b505050506040513d601f19601f82011682018060405250810190610b119190614a32565b9050600080516020615bba83398151915281604051610b3291815260200190565b60405180910390a160168114610b4757600080fd5b604051600181527f0c9c765845f4d139956bb8fc8decb2eec6093c9c608b809641b16054b29f0e13906020015b60405180910390a1919050565b6000610b8d83836129c7565b60070b9050600080516020615bba83398151915281604051610bb191815260200190565b60405180910390a16016811461098d57600080fd5b60405163af99c63360e01b81526001600160a01b03808416600483015282166024820152600090309063af99c63390604401610902565b6040516001600160a01b03821660248201526000908190819061016790633b3bff0f60e01b906044015b60408051601f198184030181529181526020820180516001600160e01b03166001600160e01b0319909416939093179092529051610c659190614a4b565b6000604051808303816000865af19150503d8060008114610ca2576040519150601f19603f3d011682016040523d82523d6000602084013e610ca7565b606091505b509150915081610cb8576015610ccc565b80806020019051810190610ccc9190614a79565b60030b949350505050565b600080610ce383612a16565b6040518281529193509150600080516020615bba8339815191529060200160405180910390a160168214610d1657600080fd5b60405181151581527f6b7f3306751292f85ab4161ee2b0ac16dfc8ded13e6446ce6bd859d0a2f4c78e906020015b60405180910390a1915091565b60408051600480825260a08201909252600091816020015b610d71613b4d565b815260200190600190039081610d69579050509050610da460006006600160405180602001604052806000815250612b13565b81600081518110610db757610db7614a94565b6020026020010181905250610ddd60018060405180602001604052806000815250612b4a565b81600181518110610df057610df0614a94565b6020026020010181905250610e176002600160405180602001604052806000815250612b4a565b81600281518110610e2a57610e2a614a94565b6020026020010181905250610e516003600160405180602001604052806000815250612b4a565b81600381518110610e6457610e64614a94565b602002602001018190525060006040518060600160405280600063ffffffff168152602001846001600160a01b03168152602001627a120063ffffffff168152509050600060405180610120016040528060018054610ec290614aaa565b80601f0160208091040260200160405190810160405280929190818152602001828054610eee90614aaa565b8015610f3b5780601f10610f1057610100808354040283529160200191610f3b565b820191906000526020600020905b815481529060010190602001808311610f1e57829003601f168201915b5050505050815260200160028054610f5290614aaa565b80601f0160208091040260200160405190810160405280929190818152602001828054610f7e90614aaa565b8015610fcb5780601f10610fa057610100808354040283529160200191610fcb565b820191906000526020600020905b815481529060010190602001808311610fae57829003601f168201915b50505050508152602001856001600160a01b0316815260200160038054610ff190614aaa565b80601f016020809104026020016040519081016040528092919081815260200182805461101d90614aaa565b801561106a5780601f1061103f5761010080835404028352916020019161106a565b820191906000526020600020905b81548152906001019060200180831161104d57829003601f168201915b50505091835250506001602082015260045463ffffffff6801000000000000000082048116604084015260ff600160801b830416151560608401526080830187905260a090920185905291925060009182916110e491859167ffffffffffffffff8216916c01000000000000000000000000900416612b7f565b9092509050601682146110f657600080fd5b6040516001600160a01b03821681527f7bb17726df1f3adee8aa00ba8e8bc5d6f182af3bbf77604639cb7f008dd3b4ed9060200160405180910390a1505050505050565b600061114885858585612cad565b9050600080516020615bba8339815191528160405161116991815260200190565b60405180910390a16016811461117e57600080fd5b949350505050565b6000611190613baa565b61119a8484612dbd565b6040518281529193509150600080516020615bba8339815191529060200160405180910390a1601682146111cd57600080fd5b7fa516f81c528634d0fc1e993bba1d227231b4bd6d1beb72d33b056a6199c0f98881604051610a869190614ae5565b6000611209848484612eb0565b9050600080516020615bba8339815191528160405161122a91815260200190565b60405180910390a16016811461123f57600080fd5b9392505050565b60008060006101676001600160a01b031663593d6e8260e01b8686604051602401611272929190614af8565b60408051601f198184030181529181526020820180516001600160e01b03166001600160e01b03199094169390931790925290516112b09190614a4b565b6000604051808303816000865af19150503d80600081146112ed576040519150601f19603f3d011682016040523d82523d6000602084013e6112f2565b606091505b509150915081611303576015611317565b808060200190518101906113179190614a79565b60030b95945050505050565b600080611331858585612f90565b6040518281529193509150600080516020615bba8339815191529060200160405180910390a16016821461136457600080fd5b6040518181527f25b6684a7e8fe1b676e9c39c8dd65034fbafea906d3bdfd97bf748b7b55e14c890602001610a01565b600060608060606113a48561307c565b604051600785900b815293975091955093509150600080516020615bba8339815191529060200160405180910390a1600784900b6016146113e457600080fd5b7f2efc8334b040613a552197fe34283d6ca2909c8ffae393e128424931f20c69b383838360405161141793929190614b3b565b60405180910390a19193509193565b6000611430613be5565b6114398361317c565b6040518281529193509150600080516020615bba8339815191529060200160405180910390a16016821461146c57600080fd5b7f476a9a9b28e2717d55288b2ae3c48a72aac52b11f8bd855017c9d41d9fc1896481604051610d449190614b74565b6000806114a88484613265565b60405160079290920b80835293509150600080516020615bba8339815191529060200160405180910390a1601682146114e057600080fd5b60405181151581527f59800d968fcce138300a0019410b4b75041610d65b3cdc5f31656b03ed14912e90602001610a86565b6000611148858585856132b6565b6040516001600160a01b03821660248201526000908190819061016790631f106b4b60e21b90604401610c27565b6000610b8d8383613317565b600080606061156a868686613366565b6040518381529295509093509150600080516020615bba8339815191529060200160405180910390a1601683146115a057600080fd5b7feff23992f47b3c101679f8b4dc9d3e242c903909dba4a453f2b2341ad463b0e282826040516115d1929190614b87565b60405180910390a193509350939050565b6000806115ee83613464565b6040518281529193509150600080516020615bba8339815191529060200160405180910390a16016821461162157600080fd5b60405181151581527f9ee19e13dfa1ba8db2502e15ff56dbecdeb0e0473323fb195473ce648030a2cd90602001610d44565b604080516001808252818301909252600091816020015b611672613b4d565b81526020019060019003908161166a5790505090506116a4600080600160405180602001604052806000815250612b13565b816000815181106116b7576116b7614a94565b602002602001018190525060006040518060600160405280600063ffffffff168152602001856001600160a01b03168152602001627a120063ffffffff16815250905060006040518061012001604052806001805461171590614aaa565b80601f016020809104026020016040519081016040528092919081815260200182805461174190614aaa565b801561178e5780601f106117635761010080835404028352916020019161178e565b820191906000526020600020905b81548152906001019060200180831161177157829003601f168201915b50505050508152602001600280546117a590614aaa565b80601f01602080910402602001604051908101604052809291908181526020018280546117d190614aaa565b801561181e5780601f106117f35761010080835404028352916020019161181e565b820191906000526020600020905b81548152906001019060200180831161180157829003601f168201915b50505050508152602001866001600160a01b031681526020016003805461184490614aaa565b80601f016020809104026020016040519081016040528092919081815260200182805461187090614aaa565b80156118bd5780601f10611892576101008083540402835291602001916118bd565b820191906000526020600020905b8154815290600101906020018083116118a057829003601f168201915b50505091835250506001602080830182905260045468010000000000000000900463ffffffff166040808501919091526000606085018190526080850189905260a0909401879052805183815280820190915293945091929182015b6040805160a0810182526000808252602080830182905292820181905260608201819052608082015282526000199092019101816119195750506040805160a081018252600181526001600160a01b0388811660208301526000928201839052606082018390528916608082015282519293509183919061199c5761199c614a94565b6020908102919091010152604080516001808252818301909252600091816020015b6040805160c08101825260008082526020808301829052928201819052606082018190526080820181905260a082015282526000199092019101816119be5750506040805160c0810182526004815260056020820152600a91810191909152601e60608201526000608082018190526001600160a01b038a1660a083015282519293509091839190611a5257611a52614a94565b60209081029190910101526004546000908190611a9490869067ffffffffffffffff8116906c01000000000000000000000000900463ffffffff1687876134ad565b91509150600080516020615bba83398151915282604051611ab791815260200190565b60405180910390a160168214611acc57600080fd5b6040516001600160a01b03821681527f7bb17726df1f3adee8aa00ba8e8bc5d6f182af3bbf77604639cb7f008dd3b4ed9060200160405180910390a1505050505050505050565b6040516001600160a01b038381166024830152821660448201526000908190819061016790638f8d7f9960e01b90606401611272565b6000611b5d611b588385614c59565b6135e1565b9050600080516020615bba83398151915281604051610bb191815260200190565b6000611b898261360b565b9050600080516020615bba83398151915281604051611baa91815260200190565b60405180910390a160168114611bbf57600080fd5b919050565b604051633cb0c7fd60e21b81526001600160a01b038084166004830152821660248201526000908190309063f2c31ff4906044016040805180830381600087803b158015611c1157600080fd5b505af1158015611c25573d6000803e3d6000fd5b505050506040513d601f19601f82011682018060405250810190611c499190614dd1565b604051600783900b81529193509150600080516020615bba8339815191529060200160405180910390a1600782900b601614611c8457600080fd5b60405181151581527fd24dda6928587354b65aa1a18c2eaf249bef7e5bafd2a71fac71d286f76f957f90602001610a86565b6040516001600160a01b03838116602483015282166044820152600090819081906101679063af99c63360e01b90606401611272565b60408051606081018252600080825260208201819052918101829052604051631ac299b760e31b81526001600160a01b0384166004820152309063d614cdb890602401608060405180830381600087803b158015611d4957600080fd5b505af1158015611d5d573d6000803e3d6000fd5b505050506040513d601f19601f82011682018060405250810190611d819190614e6b565b6040518281529193509150600080516020615bba8339815191529060200160405180910390a160168214611db457600080fd5b7fa0a16bf9db2c17796faeca5af5aaeef8523f9d4c350c512cb00062ad89604f8881604051610d449190614e98565b604080516060810182526000808252602080830182905282840182905283516001600160a01b038616602480830191909152855180830390910181526044909101855290810180516001600160e01b0316631ac299b760e31b179052925190928391829161016791611e559190614a4b565b6000604051808303816000865af19150503d8060008114611e92576040519150601f19603f3d011682016040523d82523d6000602084013e611e97565b606091505b506040805160608101825260008082526020820181905291810191909152919350915082611ec757601581611edb565b81806020019051810190611edb9190614ecc565b60039190910b97909650945050505050565b60408051600580825260c08201909252600091816020015b611f0d613b4d565b815260200190600190039081611f05579050509050611f4060006006600160405180602001604052806000815250612b13565b81600081518110611f5357611f53614a94565b6020026020010181905250611f7960018060405180602001604052806000815250612b4a565b81600181518110611f8c57611f8c614a94565b6020026020010181905250611fb36002600160405180602001604052806000815250612b4a565b81600281518110611fc657611fc6614a94565b6020026020010181905250611fed6004600160405180602001604052806000815250612b4a565b8160038151811061200057612000614a94565b60200260200101819052506120276003600160405180602001604052806000815250612b4a565b8160048151811061203a5761203a614a94565b602002602001018190525060006040518060600160405280600063ffffffff168152602001846001600160a01b03168152602001627a120063ffffffff16815250905060006040518061012001604052806001805461209890614aaa565b80601f01602080910402602001604051908101604052809291908181526020018280546120c490614aaa565b80156121115780601f106120e657610100808354040283529160200191612111565b820191906000526020600020905b8154815290600101906020018083116120f457829003601f168201915b505050505081526020016002805461212890614aaa565b80601f016020809104026020016040519081016040528092919081815260200182805461215490614aaa565b80156121a15780601f10612176576101008083540402835291602001916121a1565b820191906000526020600020905b81548152906001019060200180831161218457829003601f168201915b50505050508152602001856001600160a01b03168152602001600380546121c790614aaa565b80601f01602080910402602001604051908101604052809291908181526020018280546121f390614aaa565b80156122405780601f1061221557610100808354040283529160200191612240565b820191906000526020600020905b81548152906001019060200180831161222357829003601f168201915b50505091835250506001602082015260045468010000000000000000810463ffffffff166040830152600160801b900460ff16151560608201526080810185905260a00183905290506000806110e483613652565b600061120984848461373c565b6000611209848484613797565b6040517f593d6e82000000000000000000000000000000000000000000000000000000008152600090309063593d6e82906122f09086908690600401614af8565b602060405180830381600087803b15801561230a57600080fd5b505af115801561231e573d6000803e3d6000fd5b505050506040513d601f19601f82011682018060405250810190611b5d9190614a32565b60006112098484846137ed565b6040516001600160a01b0383811660248301528216604482015260009081908190819061016790633cb0c7fd60e21b906064015b60408051601f198184030181529181526020820180516001600160e01b03166001600160e01b03199094169390931790925290516123c19190614a4b565b6000604051808303816000865af19150503d80600081146123fe576040519150601f19603f3d011682016040523d82523d6000602084013e612403565b606091505b5091509150816124165760156000611edb565b80806020019051810190611edb9190614ef7565b6000612434613c05565b61243d83613844565b6040518281529193509150600080516020615bba8339815191529060200160405180910390a16016821461247057600080fd5b7f528c7dcea75f0c9e110a038e50647cd6a70ac06d331399b77dd9a80f903ebc1681604051610d449190614f23565b6000611b5d838361392d565b604051633b3bff0f60e01b81526001600160a01b03821660048201526000903090633b3bff0f90602401602060405180830381600087803b1580156124ef57600080fd5b505af1158015612503573d6000803e3d6000fd5b505050506040513d601f19601f820116820180604052508101906125279190614a32565b9050600080516020615bba8339815191528160405161254891815260200190565b60405180910390a16016811461255d57600080fd5b604051600181527f319ab7084208e4afa38c6e6ff7aea9587439f2e4700746f4c7d425fea17426d290602001610b74565b600061120984848461397c565b600480547fffffffffffffffffffffffffffffff00ffffffffffffffffffffffffffffffff16600160801b8315158102919091179182905560405160ff9190920416151581527f457c3a16a0ebdc38e3675609957ca3fcc4490e220bd15d85d34f58e2e145cb089060200160405180910390a150565b60408051600080825260208201909252819081612656565b60408051606081018252600080825260208083018290529282015282526000199092019101816126295790505b50905060006040518060400160405280336001600160a01b031681526020018561267f90614f36565b600790810b9091526040805180820182526001600160a01b038a1681529187900b602083015280516002808252606082019092529293509091600091816020015b60408051808201909152600080825260208201528152602001906001900390816126c057905050905082816000815181106126fd576126fd614a94565b6020026020010181905250818160018151811061271c5761271c614a94565b602090810291909101810191909152604080516060810182526001600160a01b038a16815291820183905281810186905280516001808252818301909252600091816020015b61278f604051806060016040528060006001600160a01b0316815260200160608152602001606081525090565b81526020019060019003908161276257905050905081816000815181106127b8576127b8614a94565b60200260200101819052506127cc816135e1565b9650601687146127db57600080fd5b5050505050509392505050565b604080516001600160a01b0385811660248301528481166044830152831660648083019190915282518083039091018152608490910182526020810180516001600160e01b03167ff49f40db0000000000000000000000000000000000000000000000000000000017905290516000918291829182916101679161286b91614a4b565b6000604051808303816000865af19150503d80600081146128a8576040519150601f19603f3d011682016040523d82523d6000602084013e6128ad565b606091505b5091509150816128c057601560006128d4565b808060200190518101906128d49190614ef7565b60039190910b9890975095505050505050565b604080516001600160a01b0384166024820152604480820184905282518083039091018152606490910182526020810180516001600160e01b03167f098f23660000000000000000000000000000000000000000000000000000000017905290516000918291829182916101679161295e91614a4b565b6000604051808303816000865af19150503d806000811461299b576040519150601f19603f3d011682016040523d82523d6000602084013e6129a0565b606091505b5091509150816129b35760156000611edb565b80806020019051810190611edb9190614f6c565b6040516001600160a01b0383811660248301528216604482015260009081908190610167907f52f913870000000000000000000000000000000000000000000000000000000090606401611272565b6040516001600160a01b0382166024820152600090819081908190610167907fa7daa18d00000000000000000000000000000000000000000000000000000000906044015b60408051601f198184030181529181526020820180516001600160e01b03166001600160e01b0319909416939093179092529051612a999190614a4b565b6000604051808303816000865af19150503d8060008114612ad6576040519150601f19603f3d011682016040523d82523d6000602084013e612adb565b606091505b509150915081612aee5760156000612b02565b80806020019051810190612b029190614ef7565b60039190910b969095509350505050565b612b1b613b4d565b6040518060400160405280612b3087876139d2565b8152602001612b3f85856139eb565b905295945050505050565b612b52613b4d565b6040518060400160405280612b6686613abb565b8152602001612b7585856139eb565b9052949350505050565b600080848061010001516000015163ffffffff166000148015612baf57506101008101516040015163ffffffff16155b15612bc5576101008101516276a7006040909101525b6000806101676001600160a01b031634637812a04b60e01b8a8a8a604051602401612bf293929190614f98565b60408051601f198184030181529181526020820180516001600160e01b03166001600160e01b0319909416939093179092529051612c309190614a4b565b60006040518083038185875af1925050503d8060008114612c6d576040519150601f19603f3d011682016040523d82523d6000602084013e612c72565b606091505b509150915081612c855760156000612c99565b80806020019051810190612c999190614f6c565b60039190910b999098509650505050505050565b6040516001600160a01b038581166024830152848116604483015283166064820152600782900b608482015260009081908190610167907feca36917000000000000000000000000000000000000000000000000000000009060a4015b60408051601f198184030181529181526020820180516001600160e01b03166001600160e01b0319909416939093179092529051612d489190614a4b565b6000604051808303816000865af19150503d8060008114612d85576040519150601f19603f3d011682016040523d82523d6000602084013e612d8a565b606091505b509150915081612d9b576015612daf565b80806020019051810190612daf9190614a79565b60030b979650505050505050565b6000612dc7613baa565b604080516001600160a01b0386166024820152600785900b60448083019190915282518083039091018152606490910182526020810180516001600160e01b03167f287e1da8000000000000000000000000000000000000000000000000000000001790529051600091829161016791612e4091614a4b565b6000604051808303816000865af19150503d8060008114612e7d576040519150601f19603f3d011682016040523d82523d6000602084013e612e82565b606091505b5091509150612e8f613baa565b82612e9c576015816128d4565b818060200190518101906128d49190615622565b60008060006101676001600160a01b031663f7f38e2660e01b878787604051602401612ede9392919061570a565b60408051601f198184030181529181526020820180516001600160e01b03166001600160e01b0319909416939093179092529051612f1c9190614a4b565b6000604051808303816000865af19150503d8060008114612f59576040519150601f19603f3d011682016040523d82523d6000602084013e612f5e565b606091505b509150915081612f6f576015612f83565b80806020019051810190612f839190614a79565b60030b9695505050505050565b604080516001600160a01b0385811660248301528481166044830152831660648083019190915282518083039091018152608490910182526020810180516001600160e01b03167f927da1050000000000000000000000000000000000000000000000000000000017905290516000918291829182916101679161301391614a4b565b6000604051808303816000865af19150503d8060008114613050576040519150601f19603f3d011682016040523d82523d6000602084013e613055565b606091505b50915091508161306857601560006128d4565b808060200190518101906128d49190615736565b604080516001600160a01b03831660248083019190915282518083039091018152604490910182526020810180516001600160e01b03167fae7611a00000000000000000000000000000000000000000000000000000000017905290516000916060918291829185918291610167916130f491614a4b565b6000604051808303816000865af19150503d8060008114613131576040519150601f19603f3d011682016040523d82523d6000602084013e613136565b606091505b509150915060608060608461314f576015838383613163565b838060200190518101906131639190615762565b60039390930b9d919c509a509098509650505050505050565b6000613186613be5565b604080516001600160a01b03851660248083019190915282518083039091018152604490910182526020810180516001600160e01b03167f3f28a19b0000000000000000000000000000000000000000000000000000000017905290516000918291610167916131f591614a4b565b6000604051808303816000865af19150503d8060008114613232576040519150601f19603f3d011682016040523d82523d6000602084013e613237565b606091505b5091509150613244613be5565b8261325157601581611edb565b81806020019051810190611edb91906157fb565b6040516001600160a01b03838116602483015282166044820152600090819081908190610167907f46de0fb10000000000000000000000000000000000000000000000000000000090606401612383565b6040516001600160a01b038581166024830152848116604483015283166064820152600782900b608482015260009081908190610167907f5cfc9011000000000000000000000000000000000000000000000000000000009060a401612d0a565b6040516001600160a01b0383811660248301528216604482015260009081908190610167907f5b8f85840000000000000000000000000000000000000000000000000000000090606401611272565b60008060606000806101676001600160a01b031663278e0b8860e01b898989604051602401613397939291906158a7565b60408051601f198184030181529181526020820180516001600160e01b03166001600160e01b03199094169390931790925290516133d59190614a4b565b6000604051808303816000865af19150503d8060008114613412576040519150601f19603f3d011682016040523d82523d6000602084013e613417565b606091505b50915091508161343a57604080516000808252602082019092526015919061344e565b8080602001905181019061344e919061592b565b60039290920b9a90995090975095505050505050565b6040516001600160a01b0382166024820152600090819081908190610167907f335e04c10000000000000000000000000000000000000000000000000000000090604401612a5b565b600080868061010001516000015163ffffffff1660001480156134dd57506101008101516040015163ffffffff16155b156134f3576101008101516276a7006040909101525b6000806101676001600160a01b031634634c381ae760e01b8c8c8c8c8c6040516024016135249594939291906159dc565b60408051601f198184030181529181526020820180516001600160e01b03166001600160e01b03199094169390931790925290516135629190614a4b565b60006040518083038185875af1925050503d806000811461359f576040519150601f19603f3d011682016040523d82523d6000602084013e6135a4565b606091505b5091509150816135b757601560006135cb565b808060200190518101906135cb9190614f6c565b60039190910b9b909a5098505050505050505050565b60008060006101676001600160a01b031663189a554c60e01b85604051602401610c279190615a82565b6040516001600160a01b038216602482015260009081908190610167907ff069f7120000000000000000000000000000000000000000000000000000000090604401610c27565b600080828061010001516000015163ffffffff16600014801561368257506101008101516040015163ffffffff16155b15613698576101008101516276a7006040909101525b6000806101676001600160a01b031634639dc711e060e01b886040516024016136c19190615b58565b60408051601f198184030181529181526020820180516001600160e01b03166001600160e01b03199094169390931790925290516136ff9190614a4b565b60006040518083038185875af1925050503d806000811461299b576040519150601f19603f3d011682016040523d82523d6000602084013e6129a0565b6040516001600160a01b0384811660248301528316604482015263ffffffff8216606482015260009081908190610167907f9790686d0000000000000000000000000000000000000000000000000000000090608401612ede565b6040516001600160a01b038481166024830152831660448201526064810182905260009081908190610167907f7336aaf00000000000000000000000000000000000000000000000000000000090608401612ede565b6040516001600160a01b03848116602483015283166044820152811515606482015260009081908190610167907f367605ca0000000000000000000000000000000000000000000000000000000090608401612ede565b600061384e613c05565b604080516001600160a01b03851660248083019190915282518083039091018152604490910182526020810180516001600160e01b03167f1f69565f0000000000000000000000000000000000000000000000000000000017905290516000918291610167916138bd91614a4b565b6000604051808303816000865af19150503d80600081146138fa576040519150601f19603f3d011682016040523d82523d6000602084013e6138ff565b606091505b509150915061390c613c05565b8261391957601581611edb565b81806020019051810190611edb9190615b6b565b6040516001600160a01b0383811660248301528216604482015260009081908190610167907f49146bde0000000000000000000000000000000000000000000000000000000090606401611272565b6040516001600160a01b038481166024830152831660448201526064810182905260009081908190610167907fe1f21c670000000000000000000000000000000000000000000000000000000090608401612ede565b6000600160ff84161b9050600160ff83161b811761123f565b613a316040518060a0016040528060001515815260200160006001600160a01b03168152602001606081526020016060815260200160006001600160a01b031681525090565b8260ff1660011415613a46576001815261098d565b8260ff1660021415613a68576000546001600160a01b0316602082015261098d565b8260ff1660031415613a80576040810182905261098d565b8260ff1660041415613a98576060810182905261098d565b8260ff166005141561098d576000546001600160a01b0316608082015292915050565b600060ff8216613acd57506001919050565b8160ff1660011415613ae157506002919050565b8160ff1660021415613af557506004919050565b8160ff1660031415613b0957506008919050565b8160ff1660041415613b1d57506010919050565b8160ff1660051415613b3157506020919050565b8160ff1660061415613b4557506040919050565b506000919050565b604051806040016040528060008152602001613ba56040518060a0016040528060001515815260200160006001600160a01b03168152602001606081526020016060815260200160006001600160a01b031681525090565b905290565b6040518060c00160405280613bbd613c05565b8152600060208201819052604082018190526060808301829052608083015260a09091015290565b6040518060400160405280613bf8613c05565b8152600060209091015290565b60408051610240810182526060610120820181815261014083018290526000610160840181905261018084018390526101a084018190526101c084018190526101e0840181905261020084018390528451928301855280835260208301819052938201939093526102208201529081908152602001600067ffffffffffffffff168152602001600015158152602001600015158152602001600015158152602001606081526020016060815260200160608152602001606081525090565b6001600160a01b0381168114613cd857600080fd5b50565b60008060408385031215613cee57600080fd5b8235613cf981613cc3565b91506020830135613d0981613cc3565b809150509250929050565b600080600060608486031215613d2957600080fd5b8335613d3481613cc3565b92506020840135613d4481613cc3565b91506040840135613d5481613cc3565b809150509250925092565b60008060408385031215613d7257600080fd5b8235613d7d81613cc3565b946020939093013593505050565b600060208284031215613d9d57600080fd5b813561123f81613cc3565b8060070b8114613cd857600080fd5b60008060008060808587031215613dcd57600080fd5b8435613dd881613cc3565b93506020850135613de881613cc3565b92506040850135613df881613cc3565b91506060850135613e0881613da8565b939692955090935050565b60008060408385031215613e2657600080fd5b8235613e3181613cc3565b91506020830135613d0981613da8565b60005b83811015613e5c578181015183820152602001613e44565b83811115613e6b576000848401525b50505050565b60008151808452613e89816020860160208601613e41565b601f01601f19169290920160200192915050565b600081518084526020808501808196508360051b8101915082860160005b85811015613f545782840389528151604081518652868201519150808787015281511515818701528682015160606001600160a01b03808316828a015283850151935060a09250608083818b0152613f1660e08b0186613e71565b928601518a8403603f1901858c0152929450613f328584613e71565b9501511660c09890980197909752505098850198935090840190600101613ebb565b5091979650505050505050565b60006101608251818552613f7782860182613e71565b91505060208301518482036020860152613f918282613e71565b9150506040830151613fae60408601826001600160a01b03169052565b5060608301518482036060860152613fc68282613e71565b9150506080830151613fdc608086018215159052565b5060a0830151613ff460a086018263ffffffff169052565b5060c083015161400860c086018215159052565b5060e083015184820360e08601526140208282613e9d565b61010085810151805163ffffffff9081168984015260208201516001600160a01b03166101208a015260408201511661014089015291935091505090949350505050565b600081518084526020808501945080840160005b838110156140d4578151805163ffffffff168852838101516001600160a01b03908116858a01526040808301511515908a01526060808301511515908a0152608091820151169088015260a09096019590820190600101614078565b509495945050505050565b600081518084526020808501945080840160005b838110156140d4578151805163ffffffff9081168952848201518116858a01526040808301518216908a01526060808301519091169089015260808082015115159089015260a0908101516001600160a01b03169088015260c090960195908201906001016140f3565b600081518084526020808501945080840160005b838110156140d4578151805163ffffffff9081168952848201518116858a0152604080830151909116908901526060808201516001600160a01b03908116918a01919091526080808301511515908a015260a091820151169088015260c09096019590820190600101614171565b600061012082518185526141f582860182613f61565b9150506020830151614213602086018267ffffffffffffffff169052565b506040830151614227604086018215159052565b50606083015161423b606086018215159052565b50608083015161424f608086018215159052565b5060a083015184820360a08601526142678282614064565b91505060c083015184820360c086015261428182826140df565b91505060e083015184820360e086015261429b828261415d565b91505061010080840151858303828701526142b68382613e71565b9695505050505050565b6000815160c084526142d560c08501826141df565b9050602083015160070b602085015260408301516001600160a01b038082166040870152606085015160070b606087015260808501519150858303608087015261431f8383613e71565b92508060a08601511660a087015250508091505092915050565b82815260406020820152600061117e60408301846142c0565b634e487b7160e01b600052604160045260246000fd5b6040516060810167ffffffffffffffff8111828210171561438b5761438b614352565b60405290565b6040805190810167ffffffffffffffff8111828210171561438b5761438b614352565b60405160a0810167ffffffffffffffff8111828210171561438b5761438b614352565b604051610120810167ffffffffffffffff8111828210171561438b5761438b614352565b60405160c0810167ffffffffffffffff8111828210171561438b5761438b614352565b604051601f8201601f1916810167ffffffffffffffff8111828210171561444757614447614352565b604052919050565b600067ffffffffffffffff82111561446957614469614352565b5060051b60200190565b60008060006060848603121561448857600080fd5b833561449381613cc3565b92506020848101356144a481613cc3565b9250604085013567ffffffffffffffff8111156144c057600080fd5b8501601f810187136144d157600080fd5b80356144e46144df8261444f565b61441e565b81815260059190911b8201830190838101908983111561450357600080fd5b928401925b8284101561452a57833561451b81613da8565b82529284019290840190614508565b80955050505050509250925092565b63ffffffff81168114613cd857600080fd5b600080828403608081121561455f57600080fd5b833561456a81613cc3565b92506060601f198201121561457e57600080fd5b50614587614368565b602084013561459581614539565b815260408401356145a581613cc3565b602082015260608401356145b881614539565b6040820152919491935090915050565b8460070b81526080602082015260006145e46080830186614064565b82810360408401526145f681866140df565b9050828103606084015261460a818561415d565b979650505050505050565b600081516040845261462a60408501826141df565b60209384015163ffffffff16949093019390935250919050565b82815260406020820152600061117e6040830184614615565b67ffffffffffffffff81168114613cd857600080fd5b600067ffffffffffffffff82111561468d5761468d614352565b50601f01601f191660200190565b6000806000606084860312156146b057600080fd5b83356146bb81613cc3565b92506020848101356146cc8161465d565b925060408581013567ffffffffffffffff808211156146ea57600080fd5b818801915088601f8301126146fe57600080fd5b813561470c6144df8261444f565b81815260059190911b8301850190858101908b83111561472b57600080fd5b8685015b8381101561479f578035858111156147475760008081fd5b8601603f81018e136147595760008081fd5b888101356147696144df82614673565b8181528f8a83850101111561477e5760008081fd5b818a84018c83013760009181018b019190915284525091870191870161472f565b50809750505050505050509250925092565b600081518084526020808501945080840160005b838110156140d457815160070b875295820195908201906001016147c5565b83815267ffffffffffffffff8316602082015260606040820152600061480d60608301846147b1565b95945050505050565b6000806020838503121561482957600080fd5b823567ffffffffffffffff8082111561484157600080fd5b818501915085601f83011261485557600080fd5b81358181111561486457600080fd5b8660208260051b850101111561487957600080fd5b60209290920196919550909350505050565b8281526080810161123f6020830184805163ffffffff90811683526020808301516001600160a01b03169084015260409182015116910152565b6000806000606084860312156148da57600080fd5b83356148e581613cc3565b925060208401356148f581613cc3565b91506040840135613d5481614539565b60008060006060848603121561491a57600080fd5b833561492581613cc3565b9250602084013561493581613cc3565b929592945050506040919091013590565b8015158114613cd857600080fd5b60008060006060848603121561496957600080fd5b833561497481613cc3565b9250602084013561498481613cc3565b91506040840135613d5481614946565b82815260406020820152600061117e60408301846141df565b6000602082840312156149bf57600080fd5b813561123f81614946565b6000806000606084860312156149df57600080fd5b83356149ea81613cc3565b925060208401356149fa81613cc3565b91506040840135613d5481613da8565b8051611bbf81613da8565b600060208284031215614a2757600080fd5b815161123f81613da8565b600060208284031215614a4457600080fd5b5051919050565b60008251614a5d818460208701613e41565b9190910192915050565b8051600381900b8114611bbf57600080fd5b600060208284031215614a8b57600080fd5b61123f82614a67565b634e487b7160e01b600052603260045260246000fd5b600181811c90821680614abe57607f821691505b60208210811415614adf57634e487b7160e01b600052602260045260246000fd5b50919050565b60208152600061123f60208301846142c0565b6001600160a01b03831681526080810161123f6020830184805163ffffffff90811683526020808301516001600160a01b03169084015260409182015116910152565b606081526000614b4e6060830186614064565b8281036020840152614b6081866140df565b905082810360408401526142b6818561415d565b60208152600061123f6020830184614615565b67ffffffffffffffff8316815260406020820152600061117e60408301846147b1565b600082601f830112614bbb57600080fd5b81356020614bcb6144df8361444f565b82815260609283028501820192828201919087851115614bea57600080fd5b8387015b85811015614c4c5781818a031215614c065760008081fd5b614c0e614368565b8135614c1981613cc3565b815281860135614c2881613cc3565b81870152604082810135614c3b81613da8565b908201528452928401928101614bee565b5090979650505050505050565b6000614c676144df8461444f565b80848252602080830192508560051b850136811115614c8557600080fd5b855b81811015614dba57803567ffffffffffffffff80821115614ca85760008081fd5b818901915060608236031215614cbe5760008081fd5b614cc6614368565b8235614cd181613cc3565b81528286013582811115614ce55760008081fd5b830136601f820112614cf75760008081fd5b8035614d056144df8261444f565b81815260069190911b82018801908881019036831115614d255760008081fd5b928901925b82841015614d7b5760408436031215614d435760008081fd5b614d4b614391565b8435614d5681613cc3565b8152848b0135614d6581613da8565b818c015282526040939093019290890190614d2a565b848a01525060409150508381013583811115614d975760008081fd5b614da336828701614baa565b918301919091525087525050938201938201614c87565b50919695505050505050565b8051611bbf81614946565b60008060408385031215614de457600080fd5b8251614def81613da8565b6020840151909250613d0981614946565b8051611bbf81614539565b8051611bbf81613cc3565b600060608284031215614e2857600080fd5b614e30614368565b90508151614e3d81614539565b81526020820151614e4d81613cc3565b60208201526040820151614e6081614539565b604082015292915050565b60008060808385031215614e7e57600080fd5b82519150614e8f8460208501614e16565b90509250929050565b6060810161098d8284805163ffffffff90811683526020808301516001600160a01b03169084015260409182015116910152565b60008060808385031215614edf57600080fd5b614ee883614a67565b9150614e8f8460208501614e16565b60008060408385031215614f0a57600080fd5b614f1383614a67565b91506020830151613d0981614946565b60208152600061123f60208301846141df565b60008160070b677fffffffffffffff19811415614f6357634e487b7160e01b600052601160045260246000fd5b60000392915050565b60008060408385031215614f7f57600080fd5b614f8883614a67565b91506020830151613d0981613cc3565b606081526000614fab6060830186613f61565b60208301949094525060400152919050565b600082601f830112614fce57600080fd5b8151614fdc6144df82614673565b818152846020838601011115614ff157600080fd5b61117e826020830160208701613e41565b600082601f83011261501357600080fd5b815160206150236144df8361444f565b82815260059290921b8401810191818101908684111561504257600080fd5b8286015b8481101561515857805167ffffffffffffffff8082111561506657600080fd5b908801906040601f19838c03810182131561508057600080fd5b615088614391565b888501518152828501518481111561509f57600080fd5b949094019360a0858e03830112156150b75760008081fd5b6150bf6143b4565b9150888501516150ce81614946565b8252848301516150dd81613cc3565b828a0152606085810151858111156150f55760008081fd5b6151038f8c838a0101614fbd565b858501525060809350838601518581111561511e5760008081fd5b61512c8f8c838a0101614fbd565b82850152505061513e60a08601614e0b565b928201929092528188015285525050918301918301615046565b509695505050505050565b6000610160828403121561517657600080fd5b61517e6143d7565b9050815167ffffffffffffffff8082111561519857600080fd5b6151a485838601614fbd565b835260208401519150808211156151ba57600080fd5b6151c685838601614fbd565b60208401526151d760408501614e0b565b604084015260608401519150808211156151f057600080fd5b6151fc85838601614fbd565b606084015261520d60808501614dc6565b608084015261521e60a08501614e00565b60a084015261522f60c08501614dc6565b60c084015260e084015191508082111561524857600080fd5b5061525584828501615002565b60e08301525061010061526a84828501614e16565b9082015292915050565b8051611bbf8161465d565b600082601f83011261529057600080fd5b815160206152a06144df8361444f565b82815260a092830285018201928282019190878511156152bf57600080fd5b8387015b85811015614c4c5781818a0312156152db5760008081fd5b6152e36143b4565b81516152ee81614539565b8152818601516152fd81613cc3565b8187015260408281015161531081614946565b9082015260608281015161532381614946565b9082015260808281015161533681613cc3565b9082015284529284019281016152c3565b600082601f83011261535857600080fd5b815160206153686144df8361444f565b82815260c0928302850182019282820191908785111561538757600080fd5b8387015b85811015614c4c5781818a0312156153a35760008081fd5b6153ab6143fb565b81516153b681614539565b8152818601516153c581614539565b818701526040828101516153d881614539565b908201526060828101516153eb81614539565b908201526080828101516153fe81614946565b9082015260a08281015161541181613cc3565b90820152845292840192810161538b565b600082601f83011261543357600080fd5b815160206154436144df8361444f565b82815260c0928302850182019282820191908785111561546257600080fd5b8387015b85811015614c4c5781818a03121561547e5760008081fd5b6154866143fb565b815161549181614539565b8152818601516154a081614539565b818701526040828101516154b381614539565b908201526060828101516154c681613cc3565b908201526080828101516154d981614946565b9082015260a0828101516154ec81613cc3565b908201528452928401928101615466565b6000610120828403121561551057600080fd5b6155186143d7565b9050815167ffffffffffffffff8082111561553257600080fd5b61553e85838601615163565b835261554c60208501615274565b602084015261555d60408501614dc6565b604084015261556e60608501614dc6565b606084015261557f60808501614dc6565b608084015260a084015191508082111561559857600080fd5b6155a48583860161527f565b60a084015260c08401519150808211156155bd57600080fd5b6155c985838601615347565b60c084015260e08401519150808211156155e257600080fd5b6155ee85838601615422565b60e08401526101009150818401518181111561560957600080fd5b61561586828701614fbd565b8385015250505092915050565b6000806040838503121561563557600080fd5b61563e83614a67565b9150602083015167ffffffffffffffff8082111561565b57600080fd5b9084019060c0828703121561566f57600080fd5b6156776143fb565b82518281111561568657600080fd5b615692888286016154fd565b8252506156a160208401614a0a565b60208201526156b260408401614e0b565b60408201526156c360608401614a0a565b60608201526080830151828111156156da57600080fd5b6156e688828601614fbd565b6080830152506156f860a08401614e0b565b60a08201528093505050509250929050565b60006001600160a01b0380861683528085166020840152506060604083015261480d60608301846147b1565b6000806040838503121561574957600080fd5b61575283614a67565b9150602083015190509250929050565b6000806000806080858703121561577857600080fd5b61578185614a67565b9350602085015167ffffffffffffffff8082111561579e57600080fd5b6157aa8883890161527f565b945060408701519150808211156157c057600080fd5b6157cc88838901615347565b935060608701519150808211156157e257600080fd5b506157ef87828801615422565b91505092959194509250565b6000806040838503121561580e57600080fd5b61581783614a67565b9150602083015167ffffffffffffffff8082111561583457600080fd5b908401906040828703121561584857600080fd5b60405160408101818110838211171561586357615863614352565b60405282518281111561587557600080fd5b615881888286016154fd565b8252506020830151925061589483614539565b8260208201528093505050509250929050565b6000606082016001600160a01b0386168352602067ffffffffffffffff8616818501526060604085015281855180845260808601915060808160051b870101935082870160005b8281101561591c57607f1988870301845261590a868351613e71565b955092840192908401906001016158ee565b50939998505050505050505050565b60008060006060848603121561594057600080fd5b61594984614a67565b925060208085015161595a8161465d565b604086015190935067ffffffffffffffff81111561597757600080fd5b8501601f8101871361598857600080fd5b80516159966144df8261444f565b81815260059190911b820183019083810190898311156159b557600080fd5b928401925b8284101561452a5783516159cd81613da8565b825292840192908401906159ba565b60a0815260006159ef60a0830188613f61565b8660208401528560408401528281036060840152615a0d8186614064565b90508281036080840152615a2181856140df565b98975050505050505050565b600081518084526020808501945080840160005b838110156140d457815180516001600160a01b03908116895284820151168489015260409081015160070b9088015260609096019590820190600101615a41565b60006020808301818452808551808352604092508286019150828160051b8701018488016000805b84811015615b4957898403603f19018652825180516001600160a01b0390811686528982015160608b880181905281519088018190526080880192918c01919086905b80821015615b1b5783518051841686528e015160070b8e860152938c0193928d019260019190910190615aed565b5050505090880151858203868a015290615b358183615a2d565b978a01979550505091870191600101615aaa565b50919998505050505050505050565b60208152600061123f6020830184613f61565b60008060408385031215615b7e57600080fd5b615b8783614a67565b9150602083015167ffffffffffffffff811115615ba357600080fd5b615baf858286016154fd565b915050925092905056fe90a5cf4cffe88b4edbb041cfc7a8a812c48a5ec30b84640fb37690875168e3aaa264697066735822122091f9db87b1e031e8edbc3bf79b4fc921984557be3801e7889dd8adb98580d8c564736f6c63430008090033",
  "linkReferences": {},
  "deployedLinkReferences": {}
}