{
  "_format": "hh-sol-artifact-1",
  "contractName": "BaseHTS",
  "sourceName": "contracts_v1/BaseHTS.sol",
  "abi": [
    {
      "anonymous": false,
      "inputs": [
        {
          "indexed": false,
          "internalType": "address",
          "name": "tokenAddress",
          "type": "address"
        }
      ],
      "name": "CreatedToken",
      "type": "event"
    },
    {
      "anonymous": false,
      "inputs": [
        {
          "indexed": false,
          "internalType": "int256",
          "name": "responseCode",
          "type": "int256"
        }
      ],
      "name": "ResponseCode",
      "type": "event"
    },
    {
      "inputs": [
        {
          "internalType": "address",
          "name": "account",
          "type": "address"
        },
        {
          "internalType": "address",
          "name": "token",
          "type": "address"
        }
      ],
      "name": "associateTokenPublic",
      "outputs": [
        {
          "internalType": "int256",
          "name": "responseCode",
          "type": "int256"
        }
      ],
      "stateMutability": "nonpayable",
      "type": "function"
    },
    {
      "inputs": [
        {
          "internalType": "address",
          "name": "treasury",
          "type": "address"
        }
      ],
      "name": "createFungibleTokenPublic",
      "outputs": [],
      "stateMutability": "payable",
      "type": "function"
    },
    {
      "inputs": [
        {
          "internalType": "address",
          "name": "treasury",
          "type": "address"
        },
        {
          "internalType": "address",
          "name": "fixedFeeTokenAddress",
          "type": "address"
        }
      ],
      "name": "createFungibleTokenWithCustomFeesPublic",
      "outputs": [],
      "stateMutability": "payable",
      "type": "function"
    },
    {
      "inputs": [
        {
          "internalType": "address",
          "name": "treasury",
          "type": "address"
        }
      ],
      "name": "createNonFungibleTokenPublic",
      "outputs": [],
      "stateMutability": "payable",
      "type": "function"
    },
    {
      "inputs": [
        {
          "internalType": "address",
          "name": "token",
          "type": "address"
        }
      ],
      "name": "getTokenExpiryInfo",
      "outputs": [
        {
          "internalType": "int256",
          "name": "responseCode",
          "type": "int256"
        },
        {
          "components": [
            {
              "internalType": "uint32",
              "name": "second",
              "type": "uint32"
            },
            {
              "internalType": "address",
              "name": "autoRenewAccount",
              "type": "address"
            },
            {
              "internalType": "uint32",
              "name": "autoRenewPeriod",
              "type": "uint32"
            }
          ],
          "internalType": "struct IHederaTokenService.Expiry",
          "name": "expiryInfo",
          "type": "tuple"
        }
      ],
      "stateMutability": "nonpayable",
      "type": "function"
    },
    {
      "inputs": [
        {
          "internalType": "address",
          "name": "token",
          "type": "address"
        },
        {
          "internalType": "address",
          "name": "account",
          "type": "address"
        }
      ],
      "name": "grantTokenKyc",
      "outputs": [
        {
          "internalType": "int64",
          "name": "responseCode",
          "type": "int64"
        }
      ],
      "stateMutability": "nonpayable",
      "type": "function"
    },
    {
      "inputs": [
        {
          "internalType": "address",
          "name": "token",
          "type": "address"
        },
        {
          "internalType": "address",
          "name": "account",
          "type": "address"
        }
      ],
      "name": "isKyc",
      "outputs": [
        {
          "internalType": "int64",
          "name": "responseCode",
          "type": "int64"
        },
        {
          "internalType": "bool",
          "name": "kycGranted",
          "type": "bool"
        }
      ],
      "stateMutability": "nonpayable",
      "type": "function"
    },
    {
      "inputs": [
        {
          "internalType": "address",
          "name": "token",
          "type": "address"
        }
      ],
      "name": "pauseToken",
      "outputs": [
        {
          "internalType": "int256",
          "name": "responseCode",
          "type": "int256"
        }
      ],
      "stateMutability": "nonpayable",
      "type": "function"
    },
    {
      "inputs": [
        {
          "internalType": "address",
          "name": "token",
          "type": "address"
        },
        {
          "internalType": "address",
          "name": "account",
          "type": "address"
        }
      ],
      "name": "revokeTokenKyc",
      "outputs": [
        {
          "internalType": "int64",
          "name": "responseCode",
          "type": "int64"
        }
      ],
      "stateMutability": "nonpayable",
      "type": "function"
    },
    {
      "inputs": [
        {
          "internalType": "address",
          "name": "token",
          "type": "address"
        }
      ],
      "name": "unpauseToken",
      "outputs": [
        {
          "internalType": "int256",
          "name": "responseCode",
          "type": "int256"
        }
      ],
      "stateMutability": "nonpayable",
      "type": "function"
    },
    {
      "inputs": [
        {
          "internalType": "address",
          "name": "token",
          "type": "address"
        },
        {
          "components": [
            {
              "internalType": "uint32",
              "name": "second",
              "type": "uint32"
            },
            {
              "internalType": "address",
              "name": "autoRenewAccount",
              "type": "address"
            },
            {
              "internalType": "uint32",
              "name": "autoRenewPeriod",
              "type": "uint32"
            }
          ],
          "internalType": "struct IHederaTokenService.Expiry",
          "name": "expiryInfo",
          "type": "tuple"
        }
      ],
      "name": "updateTokenExpiryInfo",
      "outputs": [
        {
          "internalType": "int256",
          "name": "responseCode",
          "type": "int256"
        }
      ],
      "stateMutability": "nonpayable",
      "type": "function"
    }
  ],
  "bytecode": "0x60c06040526009608081905268746f6b656e4e616d6560b81b60a09081526200002c9160019190620000cb565b5060408051808201909152600b8082526a1d1bdad95b94de5b589bdb60aa1b60209092019182526200006191600291620000cb565b50604080518082019091526004808252636d656d6f60e01b60209092019182526200008f91600391620000cb565b506103e860048190556005805463ffffffff1916909117905560086006556007805460ff19169055348015620000c457600080fd5b50620001ae565b828054620000d99062000171565b90600052602060002090601f016020900481019282620000fd576000855562000148565b82601f106200011857805160ff191683800117855562000148565b8280016001018555821562000148579182015b82811115620001485782518255916020019190600101906200012b565b50620001569291506200015a565b5090565b5b808211156200015657600081556001016200015b565b600181811c908216806200018657607f821691505b60208210811415620001a857634e487b7160e01b600052602260045260246000fd5b50919050565b61205480620001be6000396000f3fe6080604052600436106100bc5760003560e01c80638f8d7f9911610074578063d85f74c11161004e578063d85f74c1146101dd578063f2c31ff4146101f0578063f4a01e5b1461022a57600080fd5b80638f8d7f991461015c578063af99c6331461018f578063d614cdb8146101af57600080fd5b8063593d6e82116100a5578063593d6e82146101095780637c41ad2c146101295780638ba74da01461014957600080fd5b80633b3bff0f146100c15780634b5c6687146100f4575b600080fd5b3480156100cd57600080fd5b506100e16100dc366004611982565b61024a565b6040519081526020015b60405180910390f35b610107610102366004611982565b61033d565b005b34801561011557600080fd5b506100e16101243660046119e8565b6106fd565b34801561013557600080fd5b506100e1610144366004611982565b6107da565b610107610157366004611a65565b610821565b34801561016857600080fd5b5061017c610177366004611a65565b610cc5565b60405160079190910b81526020016100eb565b34801561019b57600080fd5b5061017c6101aa366004611a65565b610d14565b3480156101bb57600080fd5b506101cf6101ca366004611982565b610d63565b6040516100eb929190611a9e565b6101076101eb366004611982565b610e86565b3480156101fc57600080fd5b5061021061020b366004611a65565b61121e565b6040805160079390930b83529015156020830152016100eb565b34801561023657600080fd5b506100e1610245366004611a65565b611302565b6040516001600160a01b038216602482015260009081908190610167907f3b3bff0f00000000000000000000000000000000000000000000000000000000906044015b60408051601f198184030181529181526020820180516001600160e01b03166001600160e01b03199094169390931790925290516102cb9190611b08565b6000604051808303816000865af19150503d8060008114610308576040519150601f19603f3d011682016040523d82523d6000602084013e61030d565b606091505b50915091508161031e576015610332565b808060200190518101906103329190611b3b565b60030b949350505050565b60408051600480825260a08201909252600091816020015b61035d61190d565b8152602001906001900390816103555790505090506103906000600660016040518060200160405280600081525061135c565b816000815181106103a3576103a3611b56565b60200260200101819052506103c960018060405180602001604052806000815250611393565b816001815181106103dc576103dc611b56565b60200260200101819052506104036002600160405180602001604052806000815250611393565b8160028151811061041657610416611b56565b602002602001018190525061043d6003600160405180602001604052806000815250611393565b8160038151811061045057610450611b56565b602002602001018190525060006040518060600160405280600063ffffffff168152602001846001600160a01b03168152602001627a120063ffffffff1681525090506000604051806101200160405280600180546104ae90611b6c565b80601f01602080910402602001604051908101604052809291908181526020018280546104da90611b6c565b80156105275780601f106104fc57610100808354040283529160200191610527565b820191906000526020600020905b81548152906001019060200180831161050a57829003601f168201915b505050505081526020016002805461053e90611b6c565b80601f016020809104026020016040519081016040528092919081815260200182805461056a90611b6c565b80156105b75780601f1061058c576101008083540402835291602001916105b7565b820191906000526020600020905b81548152906001019060200180831161059a57829003601f168201915b50505050508152602001856001600160a01b03168152602001600380546105dd90611b6c565b80601f016020809104026020016040519081016040528092919081815260200182805461060990611b6c565b80156106565780601f1061062b57610100808354040283529160200191610656565b820191906000526020600020905b81548152906001019060200180831161063957829003601f168201915b50505091835250506001602082015260055463ffffffff16604082015260075460ff16151560608201526080810185905260a00183905260045460065491925060009182916106a7918591906113c8565b9092509050601682146106b957600080fd5b6040516001600160a01b03821681527f7bb17726df1f3adee8aa00ba8e8bc5d6f182af3bbf77604639cb7f008dd3b4ed9060200160405180910390a1505050505050565b60008060006101676001600160a01b031663593d6e8260e01b8686604051602401610729929190611ba7565b60408051601f198184030181529181526020820180516001600160e01b03166001600160e01b03199094169390931790925290516107679190611b08565b6000604051808303816000865af19150503d80600081146107a4576040519150601f19603f3d011682016040523d82523d6000602084013e6107a9565b606091505b5091509150816107ba5760156107ce565b808060200190518101906107ce9190611b3b565b60030b95945050505050565b6040516001600160a01b038216602482015260009081908190610167907f7c41ad2c000000000000000000000000000000000000000000000000000000009060440161028d565b604080516001808252818301909252600091816020015b61084061190d565b81526020019060019003908161083857905050905061087260008060016040518060200160405280600081525061135c565b8160008151811061088557610885611b56565b602002602001018190525060006040518060600160405280600063ffffffff168152602001856001600160a01b03168152602001627a120063ffffffff1681525090506000604051806101200160405280600180546108e390611b6c565b80601f016020809104026020016040519081016040528092919081815260200182805461090f90611b6c565b801561095c5780601f106109315761010080835404028352916020019161095c565b820191906000526020600020905b81548152906001019060200180831161093f57829003601f168201915b505050505081526020016002805461097390611b6c565b80601f016020809104026020016040519081016040528092919081815260200182805461099f90611b6c565b80156109ec5780601f106109c1576101008083540402835291602001916109ec565b820191906000526020600020905b8154815290600101906020018083116109cf57829003601f168201915b50505050508152602001866001600160a01b0316815260200160038054610a1290611b6c565b80601f0160208091040260200160405190810160405280929190818152602001828054610a3e90611b6c565b8015610a8b5780601f10610a6057610100808354040283529160200191610a8b565b820191906000526020600020905b815481529060010190602001808311610a6e57829003601f168201915b505050918352505060016020820181905260055463ffffffff166040808401919091526000606084018190526080840188905260a09093018690528051828152808201909152929350909190816020015b6040805160a081018252600080825260208083018290529282018190526060820181905260808201528252600019909201910181610adc5750506040805160a081018252600181526001600160a01b03888116602083015260009282018390526060820183905289166080820152825192935091839190610b5f57610b5f611b56565b6020908102919091010152604080516001808252818301909252600091816020015b6040805160c08101825260008082526020808301829052928201819052606082018190526080820181905260a08201528252600019909201910181610b815750506040805160c0810182526004815260056020820152600a91810191909152601e60608201526000608082018190526001600160a01b038a1660a083015282519293509091839190610c1557610c15611b56565b6020026020010181905250600080610c348560045460065487876114f6565b915091507f90a5cf4cffe88b4edbb041cfc7a8a812c48a5ec30b84640fb37690875168e3aa82604051610c6991815260200190565b60405180910390a160168214610c7e57600080fd5b6040516001600160a01b03821681527f7bb17726df1f3adee8aa00ba8e8bc5d6f182af3bbf77604639cb7f008dd3b4ed9060200160405180910390a1505050505050505050565b6040516001600160a01b0383811660248301528216604482015260009081908190610167907f8f8d7f990000000000000000000000000000000000000000000000000000000090606401610729565b6040516001600160a01b0383811660248301528216604482015260009081908190610167907faf99c6330000000000000000000000000000000000000000000000000000000090606401610729565b604080516060810182526000808252602080830182905282840182905283516001600160a01b038616602480830191909152855180830390910181526044909101855290810180516001600160e01b03167fd614cdb800000000000000000000000000000000000000000000000000000000179052925190928391829161016791610dee9190611b08565b6000604051808303816000865af19150503d8060008114610e2b576040519150601f19603f3d011682016040523d82523d6000602084013e610e30565b606091505b506040805160608101825260008082526020820181905291810191909152919350915082610e6057601581610e74565b81806020019051810190610e749190611bea565b60039190910b97909650945050505050565b60408051600580825260c08201909252600091816020015b610ea661190d565b815260200190600190039081610e9e579050509050610ed96000600660016040518060200160405280600081525061135c565b81600081518110610eec57610eec611b56565b6020026020010181905250610f1260018060405180602001604052806000815250611393565b81600181518110610f2557610f25611b56565b6020026020010181905250610f4c6002600160405180602001604052806000815250611393565b81600281518110610f5f57610f5f611b56565b6020026020010181905250610f866004600160405180602001604052806000815250611393565b81600381518110610f9957610f99611b56565b6020026020010181905250610fc06003600160405180602001604052806000815250611393565b81600481518110610fd357610fd3611b56565b602002602001018190525060006040518060600160405280600063ffffffff168152602001846001600160a01b03168152602001627a120063ffffffff16815250905060006040518061012001604052806001805461103190611b6c565b80601f016020809104026020016040519081016040528092919081815260200182805461105d90611b6c565b80156110aa5780601f1061107f576101008083540402835291602001916110aa565b820191906000526020600020905b81548152906001019060200180831161108d57829003601f168201915b50505050508152602001600280546110c190611b6c565b80601f01602080910402602001604051908101604052809291908181526020018280546110ed90611b6c565b801561113a5780601f1061110f5761010080835404028352916020019161113a565b820191906000526020600020905b81548152906001019060200180831161111d57829003601f168201915b50505050508152602001856001600160a01b031681526020016003805461116090611b6c565b80601f016020809104026020016040519081016040528092919081815260200182805461118c90611b6c565b80156111d95780601f106111ae576101008083540402835291602001916111d9565b820191906000526020600020905b8154815290600101906020018083116111bc57829003601f168201915b50505091835250506001602082015260055463ffffffff16604082015260075460ff16151560608201526080810185905260a00183905290506000806106a78361162a565b604080516001600160a01b038481166024830152831660448083019190915282518083039091018152606490910182526020810180516001600160e01b03167ff2c31ff40000000000000000000000000000000000000000000000000000000017905290516000918291829182916101679161129991611b08565b6000604051808303816000865af19150503d80600081146112d6576040519150601f19603f3d011682016040523d82523d6000602084013e6112db565b606091505b5091509150816112ee5760156000610e74565b80806020019051810190610e749190611c55565b600061130e8383611740565b90507f90a5cf4cffe88b4edbb041cfc7a8a812c48a5ec30b84640fb37690875168e3aa8160405161134191815260200190565b60405180910390a16016811461135657600080fd5b92915050565b61136461190d565b6040518060400160405280611379878761178f565b815260200161138885856117ab565b905295945050505050565b61139b61190d565b60405180604001604052806113af8661187b565b81526020016113be85856117ab565b9052949350505050565b600080848061010001516000015163ffffffff1660001480156113f857506101008101516040015163ffffffff16155b1561140e576101008101516276a7006040909101525b6000806101676001600160a01b031634637812a04b60e01b8a8a8a60405160240161143b93929190611e79565b60408051601f198184030181529181526020820180516001600160e01b03166001600160e01b03199094169390931790925290516114799190611b08565b60006040518083038185875af1925050503d80600081146114b6576040519150601f19603f3d011682016040523d82523d6000602084013e6114bb565b606091505b5091509150816114ce57601560006114e2565b808060200190518101906114e29190611e9e565b60039190910b999098509650505050505050565b600080868061010001516000015163ffffffff16600014801561152657506101008101516040015163ffffffff16155b1561153c576101008101516276a7006040909101525b6000806101676001600160a01b031634634c381ae760e01b8c8c8c8c8c60405160240161156d959493929190611f53565b60408051601f198184030181529181526020820180516001600160e01b03166001600160e01b03199094169390931790925290516115ab9190611b08565b60006040518083038185875af1925050503d80600081146115e8576040519150601f19603f3d011682016040523d82523d6000602084013e6115ed565b606091505b5091509150816116005760156000611614565b808060200190518101906116149190611e9e565b60039190910b9b909a5098505050505050505050565b600080828061010001516000015163ffffffff16600014801561165a57506101008101516040015163ffffffff16155b15611670576101008101516276a7006040909101525b6000806101676001600160a01b031634639dc711e060e01b88604051602401611699919061200b565b60408051601f198184030181529181526020820180516001600160e01b03166001600160e01b03199094169390931790925290516116d79190611b08565b60006040518083038185875af1925050503d8060008114611714576040519150601f19603f3d011682016040523d82523d6000602084013e611719565b606091505b50915091508161172c5760156000610e74565b80806020019051810190610e749190611e9e565b6040516001600160a01b0383811660248301528216604482015260009081908190610167907f49146bde0000000000000000000000000000000000000000000000000000000090606401610729565b6000600160ff84161b9050600160ff83161b81175b9392505050565b6117f16040518060a0016040528060001515815260200160006001600160a01b03168152602001606081526020016060815260200160006001600160a01b031681525090565b8260ff16600114156118065760018152611356565b8260ff1660021415611828576000546001600160a01b03166020820152611356565b8260ff16600314156118405760408101829052611356565b8260ff16600414156118585760608101829052611356565b8260ff1660051415611356576000546001600160a01b0316608082015292915050565b600060ff821661188d57506001919050565b8160ff16600114156118a157506002919050565b8160ff16600214156118b557506004919050565b8160ff16600314156118c957506008919050565b8160ff16600414156118dd57506010919050565b8160ff16600514156118f157506020919050565b8160ff166006141561190557506040919050565b506000919050565b6040518060400160405280600081526020016119656040518060a0016040528060001515815260200160006001600160a01b03168152602001606081526020016060815260200160006001600160a01b031681525090565b905290565b6001600160a01b038116811461197f57600080fd5b50565b60006020828403121561199457600080fd5b81356117a48161196a565b6040516060810167ffffffffffffffff811182821017156119d057634e487b7160e01b600052604160045260246000fd5b60405290565b63ffffffff8116811461197f57600080fd5b60008082840360808112156119fc57600080fd5b8335611a078161196a565b92506060601f1982011215611a1b57600080fd5b50611a2461199f565b6020840135611a32816119d6565b81526040840135611a428161196a565b60208201526060840135611a55816119d6565b6040820152919491935090915050565b60008060408385031215611a7857600080fd5b8235611a838161196a565b91506020830135611a938161196a565b809150509250929050565b828152608081016117a46020830184805163ffffffff90811683526020808301516001600160a01b03169084015260409182015116910152565b60005b83811015611af3578181015183820152602001611adb565b83811115611b02576000848401525b50505050565b60008251611b1a818460208701611ad8565b9190910192915050565b8051600381900b8114611b3657600080fd5b919050565b600060208284031215611b4d57600080fd5b6117a482611b24565b634e487b7160e01b600052603260045260246000fd5b600181811c90821680611b8057607f821691505b60208210811415611ba157634e487b7160e01b600052602260045260246000fd5b50919050565b6001600160a01b0383168152608081016117a46020830184805163ffffffff90811683526020808301516001600160a01b03169084015260409182015116910152565b6000808284036080811215611bfe57600080fd5b611c0784611b24565b92506060601f1982011215611c1b57600080fd5b50611c2461199f565b6020840151611c32816119d6565b81526040840151611c428161196a565b60208201526060840151611a55816119d6565b60008060408385031215611c6857600080fd5b611c7183611b24565b915060208301518015158114611a9357600080fd5b60008151808452611c9e816020860160208601611ad8565b601f01601f19169290920160200192915050565b600081518084526020808501808196508360051b8101915082860160005b85811015611d695782840389528151604081518652868201519150808787015281511515818701528682015160606001600160a01b03808316828a015283850151935060a09250608083818b0152611d2b60e08b0186611c86565b928601518a8403603f1901858c0152929450611d478584611c86565b9501511660c09890980197909752505098850198935090840190600101611cd0565b5091979650505050505050565b60006101608251818552611d8c82860182611c86565b91505060208301518482036020860152611da68282611c86565b9150506040830151611dc360408601826001600160a01b03169052565b5060608301518482036060860152611ddb8282611c86565b9150506080830151611df1608086018215159052565b5060a0830151611e0960a086018263ffffffff169052565b5060c0830151611e1d60c086018215159052565b5060e083015184820360e0860152611e358282611cb2565b61010085810151805163ffffffff9081168984015260208201516001600160a01b03166101208a015260408201511661014089015291935091505090949350505050565b606081526000611e8c6060830186611d76565b60208301949094525060400152919050565b60008060408385031215611eb157600080fd5b611eba83611b24565b91506020830151611a938161196a565b600081518084526020808501945080840160005b83811015611f48578151805163ffffffff9081168952848201518116858a01526040808301518216908a01526060808301519091169089015260808082015115159089015260a0908101516001600160a01b03169088015260c09096019590820190600101611ede565b509495945050505050565b600060a0808352611f6681840189611d76565b60208881860152604088818701526060868403818801528389518086528486019150848b01955060005b81811015611fe6578651805163ffffffff168452868101516001600160a01b0390811688860152868201511515878601528582015115158686015260809182015116908401529585019591870191600101611f90565b50508781036080890152611ffa818a611eca565b9d9c50505050505050505050505050565b6020815260006117a46020830184611d7656fea2646970667358221220b2f08b6b5230ad3f15ae3442b41e373478b6b53f9ef05545b0dad522ab48f0fc64736f6c63430008090033",
  "linkReferences": {},
  "deployedLinkReferences": {}
}