{
  "_format": "hh-sol-artifact-1",
  "contractName": "CreateHTS",
  "sourceName": "contracts/CreateHTS.sol",
  "abi": [
    {
      "inputs": [
        {
          "internalType": "string",
          "name": "_name",
          "type": "string"
        },
        {
          "internalType": "string",
          "name": "_symbol",
          "type": "string"
        },
        {
          "internalType": "address",
          "name": "_delegate",
          "type": "address"
        }
      ],
      "stateMutability": "payable",
      "type": "constructor"
    },
    {
      "inputs": [
        {
          "internalType": "address",
          "name": "owner",
          "type": "address"
        }
      ],
      "name": "OwnableInvalidOwner",
      "type": "error"
    },
    {
      "inputs": [
        {
          "internalType": "address",
          "name": "account",
          "type": "address"
        }
      ],
      "name": "OwnableUnauthorizedAccount",
      "type": "error"
    },
    {
      "anonymous": false,
      "inputs": [
        {
          "indexed": false,
          "internalType": "bool",
          "name": "",
          "type": "bool"
        },
        {
          "indexed": false,
          "internalType": "bytes",
          "name": "",
          "type": "bytes"
        }
      ],
      "name": "CallResponseEvent",
      "type": "event"
    },
    {
      "anonymous": false,
      "inputs": [
        {
          "indexed": true,
          "internalType": "address",
          "name": "previousOwner",
          "type": "address"
        },
        {
          "indexed": true,
          "internalType": "address",
          "name": "newOwner",
          "type": "address"
        }
      ],
      "name": "OwnershipTransferred",
      "type": "event"
    },
    {
      "inputs": [],
      "name": "htsTokenAddress",
      "outputs": [
        {
          "internalType": "address",
          "name": "",
          "type": "address"
        }
      ],
      "stateMutability": "view",
      "type": "function"
    },
    {
      "inputs": [],
      "name": "owner",
      "outputs": [
        {
          "internalType": "address",
          "name": "",
          "type": "address"
        }
      ],
      "stateMutability": "view",
      "type": "function"
    },
    {
      "inputs": [],
      "name": "renounceOwnership",
      "outputs": [],
      "stateMutability": "nonpayable",
      "type": "function"
    },
    {
      "inputs": [
        {
          "internalType": "address",
          "name": "newOwner",
          "type": "address"
        }
      ],
      "name": "transferOwnership",
      "outputs": [],
      "stateMutability": "nonpayable",
      "type": "function"
    },
    {
      "inputs": [
        {
          "components": [
            {
              "internalType": "uint256",
              "name": "keyType",
              "type": "uint256"
            },
            {
              "components": [
                {
                  "internalType": "bool",
                  "name": "inheritAccountKey",
                  "type": "bool"
                },
                {
                  "internalType": "address",
                  "name": "contractId",
                  "type": "address"
                },
                {
                  "internalType": "bytes",
                  "name": "ed25519",
                  "type": "bytes"
                },
                {
                  "internalType": "bytes",
                  "name": "ECDSA_secp256k1",
                  "type": "bytes"
                },
                {
                  "internalType": "address",
                  "name": "delegatableContractId",
                  "type": "address"
                }
              ],
              "internalType": "struct IHederaTokenService.KeyValue",
              "name": "key",
              "type": "tuple"
            }
          ],
          "internalType": "struct IHederaTokenService.TokenKey[]",
          "name": "keys",
          "type": "tuple[]"
        }
      ],
      "name": "updateTokenKeysPublic",
      "outputs": [
        {
          "internalType": "int64",
          "name": "responseCode",
          "type": "int64"
        }
      ],
      "stateMutability": "nonpayable",
      "type": "function"
    }
  ],
  "bytecode": "0x60806040526040516200141238038062001412833981016040819052620000269162000916565b806001600160a01b0381166200005757604051631e4fbdf760e01b8152600060048201526024015b60405180910390fd5b6200006281620003ad565b506002602081815260017fac33ff75c19e70fe83507db0d683fd3465c996598dc972688b7ace676c89077b557fe90b7bceb6e7df5418fb78d8ee546e97c83a08bbccc01a0644d599ccd2a7c2e082905560047f679795a0195a1b76cdebb7c51d74e058aee92919b8c3389af86ef24535e8a28c5560087f88601476d11616a71c5be67555bd1dff4b1cbf21533d2669b768b61518cfe1c35560107fee60d0579bcffd98e668647d59fec1ff86a7fb340ce572e844f234ae73a6918f557fb98b78633099fa36ed8b8680c4f8092689e1e04080eb9cbb077ca38a14d7e3848190556006600090815260407f59dd4b18488d12f51eda69757a0ed42a2010c14b564330cc74a06895e60c077b8190558051848152606081019091529092909182015b6200018c620007d2565b81526020019060019003908162000182579050509050620001c560008060405180602001604052806000815250620003fd60201b60201c565b81600081518110620001db57620001db620009ac565b60200260200101819052506200020a6004600060405180602001604052806000815250620003fd60201b60201c565b81600181518110620002205762000220620009ac565b6020908102919091018101919091526040805160608082018352600080835230838601819052627a1200848601528451610120810186528a81528087018a905280860191909152845180860190955260048552636d656d6f60e01b95850195909552908401929092526001608084015261138860a084015260c0830182905260e083018490526101008301819052919080620002c1836103e860086200043e565b909250905060168214620003185760405162461bcd60e51b815260206004820152601a60248201527f4661696c656420746f206372656174652048545320746f6b656e00000000000060448201526064016200004e565b60006200032a8230336103e862000572565b9050601681146200037e5760405162461bcd60e51b815260206004820152601460248201527f4854533a205472616e73666572206661696c656400000000000000000000000060448201526064016200004e565b50600380546001600160a01b0319166001600160a01b03929092169190911790555062000c9295505050505050565b600080546001600160a01b038381166001600160a01b0319831681178455604051919092169283917f8be0079c531659141344cd1fd0a4f28419497f9722a3daafe3b4186f6b6457e09190a35050565b62000407620007d2565b604051806040016040528062000423866200066260201b60201c565b8152602001620004348585620006a7565b9052949350505050565b600080848061010001516000015160070b60001480156200046957506101008101516040015160070b155b1562000480576101008101516276a7006040909101525b6000806101676001600160a01b031634630fb65bf360e01b8a8a8a604051602401620004af9392919062000ac1565b60408051601f198184030181529181526020820180516001600160e01b03166001600160e01b0319909416939093179092529051620004ef919062000bfb565b60006040518083038185875af1925050503d80600081146200052e576040519150601f19603f3d011682016040523d82523d6000602084013e62000533565b606091505b5091509150816200054857601560006200055e565b808060200190518101906200055e919062000c31565b60039190910b999098509650505050505050565b604080516001600160a01b038681166024830152858116604483015284166064820152600783900b6084808301919091528251808303909101815260a490910182526020810180516001600160e01b031663eca3691760e01b17905290516000918291829161016791620005e7919062000bfb565b6000604051808303816000865af19150503d806000811462000626576040519150601f19603f3d011682016040523d82523d6000602084013e6200062b565b606091505b5091509150816200063e57601562000654565b8080602001905181019062000654919062000c6d565b60030b979650505050505050565b6000600260008360068111156200067d576200067d62000996565b600681111562000691576200069162000996565b8152602001908152602001600020549050919050565b620006ee6040518060a0016040528060001515815260200160006001600160a01b03168152602001606081526020016060815260200160006001600160a01b031681525090565b600083600481111562000705576200070562000996565b03620007155760018152620007cc565b60018360048111156200072c576200072c62000996565b0362000749576001546001600160a01b03166020820152620007cc565b600283600481111562000760576200076062000996565b03620007735760408101829052620007cc565b60038360048111156200078a576200078a62000996565b036200079d5760608101829052620007cc565b6004836004811115620007b457620007b462000996565b03620007cc576001546001600160a01b031660808201525b92915050565b6040518060400160405280600081526020016200082b6040518060a0016040528060001515815260200160006001600160a01b03168152602001606081526020016060815260200160006001600160a01b031681525090565b905290565b634e487b7160e01b600052604160045260246000fd5b60005b838110156200086357818101518382015260200162000849565b50506000910152565b600082601f8301126200087e57600080fd5b81516001600160401b03808211156200089b576200089b62000830565b604051601f8301601f19908116603f01168101908282118183101715620008c657620008c662000830565b81604052838152866020858801011115620008e057600080fd5b620008f384602083016020890162000846565b9695505050505050565b6001600160a01b03811681146200091357600080fd5b50565b6000806000606084860312156200092c57600080fd5b83516001600160401b03808211156200094457600080fd5b62000952878388016200086c565b945060208601519150808211156200096957600080fd5b5062000978868287016200086c565b92505060408401516200098b81620008fd565b809150509250925092565b634e487b7160e01b600052602160045260246000fd5b634e487b7160e01b600052603260045260246000fd5b60008151808452620009dc81602086016020860162000846565b601f01601f19169290920160200192915050565b600082825180855260208086019550808260051b84010181860160005b8481101562000ab457858303601f1901895281518051845284015160408585018190528151151581860152818601516001600160a01b039081166060808801919091529183015160a0608080890182905291939092909162000a7360e08a0186620009c2565b92860151898403603f1901858b015292945062000a918584620009c2565b9501511660c0979097019690965250509884019892509083019060010162000a0d565b5090979650505050505050565b606081526000845161016080606085015262000ae26101c0850183620009c2565b91506020870151605f198086850301608087015262000b028483620009c2565b93506040890151915062000b2160a08701836001600160a01b03169052565b60608901519150808685030160c087015262000b3e8483620009c2565b93506080890151915062000b5660e087018315159052565b60a0890151915061010062000b6f8188018460070b9052565b60c08a0151151561012088015260e08a01518786038301610140890152925062000b9a8584620009f0565b9450808a01519250505062000bd5828601828051600790810b83526020808301516001600160a01b031690840152604091820151900b910152565b5050600785900b6020840152905062000bf3604083018460030b9052565b949350505050565b6000825162000c0f81846020870162000846565b9190910192915050565b8051600381900b811462000c2c57600080fd5b919050565b6000806040838503121562000c4557600080fd5b62000c508362000c19565b9150602083015162000c6281620008fd565b809150509250929050565b60006020828403121562000c8057600080fd5b62000c8b8262000c19565b9392505050565b6107708062000ca26000396000f3fe608060405234801561001057600080fd5b50600436106100575760003560e01c806319f4ce641461005c578063715018a6146100875780637796c477146100915780638da5cb5b146100bc578063f2fde38b146100cd575b600080fd5b61006f61006a36600461041f565b6100e0565b60405160079190910b81526020015b60405180910390f35b61008f610159565b005b6003546100a4906001600160a01b031681565b6040516001600160a01b03909116815260200161007e565b6000546001600160a01b03166100a4565b61008f6100db3660046105b3565b61016d565b6003546000906100f9906001600160a01b0316836101ab565b9050600781900b6016146101545760405162461bcd60e51b815260206004820152601960248201527f4854533a20557064617465206b6579732072657665727465640000000000000060448201526064015b60405180910390fd5b919050565b610161610288565b61016b60006102b5565b565b610175610288565b6001600160a01b03811661019f57604051631e4fbdf760e01b81526000600482015260240161014b565b6101a8816102b5565b50565b60008060006101676001600160a01b0316636fc3cbaf60e01b86866040516024016101d7929190610625565b60408051601f198184030181529181526020820180516001600160e01b03166001600160e01b031990941693909317909252905161021591906106fb565b6000604051808303816000865af19150503d8060008114610252576040519150601f19603f3d011682016040523d82523d6000602084013e610257565b606091505b50915091508161026857601561027c565b8080602001905181019061027c9190610717565b60030b95945050505050565b6000546001600160a01b0316331461016b5760405163118cdaa760e01b815233600482015260240161014b565b600080546001600160a01b038381166001600160a01b0319831681178455604051919092169283917f8be0079c531659141344cd1fd0a4f28419497f9722a3daafe3b4186f6b6457e09190a35050565b634e487b7160e01b600052604160045260246000fd5b6040805190810167ffffffffffffffff8111828210171561033e5761033e610305565b60405290565b60405160a0810167ffffffffffffffff8111828210171561033e5761033e610305565b604051601f8201601f1916810167ffffffffffffffff8111828210171561039057610390610305565b604052919050565b80356001600160a01b038116811461015457600080fd5b600082601f8301126103c057600080fd5b813567ffffffffffffffff8111156103da576103da610305565b6103ed601f8201601f1916602001610367565b81815284602083860101111561040257600080fd5b816020850160208301376000918101602001919091529392505050565b6000602080838503121561043257600080fd5b823567ffffffffffffffff8082111561044a57600080fd5b818501915085601f83011261045e57600080fd5b81358181111561047057610470610305565b8060051b61047f858201610367565b918252838101850191858101908984111561049957600080fd5b86860192505b838310156105a6578235858111156104b657600080fd5b8601601f196040828d03820112156104cd57600080fd5b6104d561031b565b8983013581526040830135888111156104ed57600080fd5b929092019160a0838e038301121561050457600080fd5b61050c610344565b915089830135801515811461052057600080fd5b825261052e60408401610398565b8a83015260608301358881111561054457600080fd5b6105528e8c838701016103af565b60408401525060808301358881111561056a57600080fd5b6105788e8c838701016103af565b60608401525061058a60a08401610398565b6080830152808a0191909152835250918601919086019061049f565b9998505050505050505050565b6000602082840312156105c557600080fd5b6105ce82610398565b9392505050565b60005b838110156105f05781810151838201526020016105d8565b50506000910152565b600081518084526106118160208601602086016105d5565b601f01601f19169290920160200192915050565b6001600160a01b038381168252604060208084018290528451848301819052600093606092909183870190600581901b88018501898401885b838110156106ea578a8303605f190185528151805184528601518684018a9052805115158a850152808701518816898501528981015160a060808087018290526106ab60e08801846105f9565b92508b840151603f1988850301838901526106c684826105f9565b91909401518b1660c09790970196909652505050938501939085019060010161065e565b50909b9a5050505050505050505050565b6000825161070d8184602087016105d5565b9190910192915050565b60006020828403121561072957600080fd5b81518060030b81146105ce57600080fdfea2646970667358221220b2b3292a348772d09515ac00a68f7a4a5caf2f8d0cedd6e4c24f023c29a71b2064736f6c63430008160033",
  "linkReferences": {},
  "deployedLinkReferences": {}
}