{
  "_format": "hh-sol-artifact-1",
  "contractName": "ExampleOApp",
  "sourceName": "contracts/ExampleOApp.sol",
  "abi": [
    {
      "inputs": [
        {
          "internalType": "address",
          "name": "_endpoint",
          "type": "address"
        },
        {
          "internalType": "address",
          "name": "_owner",
          "type": "address"
        }
      ],
      "stateMutability": "nonpayable",
      "type": "constructor"
    },
    {
      "inputs": [],
      "name": "InvalidDelegate",
      "type": "error"
    },
    {
      "inputs": [],
      "name": "InvalidEndpointCall",
      "type": "error"
    },
    {
      "inputs": [],
      "name": "LzTokenUnavailable",
      "type": "error"
    },
    {
      "inputs": [
        {
          "internalType": "uint32",
          "name": "eid",
          "type": "uint32"
        }
      ],
      "name": "NoPeer",
      "type": "error"
    },
    {
      "inputs": [
        {
          "internalType": "uint256",
          "name": "msgValue",
          "type": "uint256"
        }
      ],
      "name": "NotEnoughNative",
      "type": "error"
    },
    {
      "inputs": [
        {
          "internalType": "address",
          "name": "addr",
          "type": "address"
        }
      ],
      "name": "OnlyEndpoint",
      "type": "error"
    },
    {
      "inputs": [
        {
          "internalType": "uint32",
          "name": "eid",
          "type": "uint32"
        },
        {
          "internalType": "bytes32",
          "name": "sender",
          "type": "bytes32"
        }
      ],
      "name": "OnlyPeer",
      "type": "error"
    },
    {
      "inputs": [
        {
          "internalType": "address",
          "name": "owner",
          "type": "address"
        }
      ],
      "name": "OwnableInvalidOwner",
      "type": "error"
    },
    {
      "inputs": [
        {
          "internalType": "address",
          "name": "account",
          "type": "address"
        }
      ],
      "name": "OwnableUnauthorizedAccount",
      "type": "error"
    },
    {
      "inputs": [
        {
          "internalType": "address",
          "name": "token",
          "type": "address"
        }
      ],
      "name": "SafeERC20FailedOperation",
      "type": "error"
    },
    {
      "anonymous": false,
      "inputs": [
        {
          "indexed": true,
          "internalType": "address",
          "name": "previousOwner",
          "type": "address"
        },
        {
          "indexed": true,
          "internalType": "address",
          "name": "newOwner",
          "type": "address"
        }
      ],
      "name": "OwnershipTransferred",
      "type": "event"
    },
    {
      "anonymous": false,
      "inputs": [
        {
          "indexed": false,
          "internalType": "uint32",
          "name": "eid",
          "type": "uint32"
        },
        {
          "indexed": false,
          "internalType": "bytes32",
          "name": "peer",
          "type": "bytes32"
        }
      ],
      "name": "PeerSet",
      "type": "event"
    },
    {
      "inputs": [
        {
          "components": [
            {
              "internalType": "uint32",
              "name": "srcEid",
              "type": "uint32"
            },
            {
              "internalType": "bytes32",
              "name": "sender",
              "type": "bytes32"
            },
            {
              "internalType": "uint64",
              "name": "nonce",
              "type": "uint64"
            }
          ],
          "internalType": "struct Origin",
          "name": "origin",
          "type": "tuple"
        }
      ],
      "name": "allowInitializePath",
      "outputs": [
        {
          "internalType": "bool",
          "name": "",
          "type": "bool"
        }
      ],
      "stateMutability": "view",
      "type": "function"
    },
    {
      "inputs": [],
      "name": "data",
      "outputs": [
        {
          "internalType": "string",
          "name": "",
          "type": "string"
        }
      ],
      "stateMutability": "view",
      "type": "function"
    },
    {
      "inputs": [],
      "name": "endpoint",
      "outputs": [
        {
          "internalType": "contract ILayerZeroEndpointV2",
          "name": "",
          "type": "address"
        }
      ],
      "stateMutability": "view",
      "type": "function"
    },
    {
      "inputs": [
        {
          "components": [
            {
              "internalType": "uint32",
              "name": "srcEid",
              "type": "uint32"
            },
            {
              "internalType": "bytes32",
              "name": "sender",
              "type": "bytes32"
            },
            {
              "internalType": "uint64",
              "name": "nonce",
              "type": "uint64"
            }
          ],
          "internalType": "struct Origin",
          "name": "",
          "type": "tuple"
        },
        {
          "internalType": "bytes",
          "name": "",
          "type": "bytes"
        },
        {
          "internalType": "address",
          "name": "_sender",
          "type": "address"
        }
      ],
      "name": "isComposeMsgSender",
      "outputs": [
        {
          "internalType": "bool",
          "name": "",
          "type": "bool"
        }
      ],
      "stateMutability": "view",
      "type": "function"
    },
    {
      "inputs": [
        {
          "components": [
            {
              "internalType": "uint32",
              "name": "srcEid",
              "type": "uint32"
            },
            {
              "internalType": "bytes32",
              "name": "sender",
              "type": "bytes32"
            },
            {
              "internalType": "uint64",
              "name": "nonce",
              "type": "uint64"
            }
          ],
          "internalType": "struct Origin",
          "name": "_origin",
          "type": "tuple"
        },
        {
          "internalType": "bytes32",
          "name": "_guid",
          "type": "bytes32"
        },
        {
          "internalType": "bytes",
          "name": "_message",
          "type": "bytes"
        },
        {
          "internalType": "address",
          "name": "_executor",
          "type": "address"
        },
        {
          "internalType": "bytes",
          "name": "_extraData",
          "type": "bytes"
        }
      ],
      "name": "lzReceive",
      "outputs": [],
      "stateMutability": "payable",
      "type": "function"
    },
    {
      "inputs": [
        {
          "internalType": "uint32",
          "name": "",
          "type": "uint32"
        },
        {
          "internalType": "bytes32",
          "name": "",
          "type": "bytes32"
        }
      ],
      "name": "nextNonce",
      "outputs": [
        {
          "internalType": "uint64",
          "name": "nonce",
          "type": "uint64"
        }
      ],
      "stateMutability": "view",
      "type": "function"
    },
    {
      "inputs": [],
      "name": "oAppVersion",
      "outputs": [
        {
          "internalType": "uint64",
          "name": "senderVersion",
          "type": "uint64"
        },
        {
          "internalType": "uint64",
          "name": "receiverVersion",
          "type": "uint64"
        }
      ],
      "stateMutability": "pure",
      "type": "function"
    },
    {
      "inputs": [],
      "name": "owner",
      "outputs": [
        {
          "internalType": "address",
          "name": "",
          "type": "address"
        }
      ],
      "stateMutability": "view",
      "type": "function"
    },
    {
      "inputs": [
        {
          "internalType": "uint32",
          "name": "eid",
          "type": "uint32"
        }
      ],
      "name": "peers",
      "outputs": [
        {
          "internalType": "bytes32",
          "name": "peer",
          "type": "bytes32"
        }
      ],
      "stateMutability": "view",
      "type": "function"
    },
    {
      "inputs": [
        {
          "internalType": "uint32",
          "name": "_dstEid",
          "type": "uint32"
        },
        {
          "internalType": "string",
          "name": "_message",
          "type": "string"
        },
        {
          "internalType": "bytes",
          "name": "_options",
          "type": "bytes"
        },
        {
          "internalType": "bool",
          "name": "_payInLzToken",
          "type": "bool"
        }
      ],
      "name": "quote",
      "outputs": [
        {
          "components": [
            {
              "internalType": "uint256",
              "name": "nativeFee",
              "type": "uint256"
            },
            {
              "internalType": "uint256",
              "name": "lzTokenFee",
              "type": "uint256"
            }
          ],
          "internalType": "struct MessagingFee",
          "name": "fee",
          "type": "tuple"
        }
      ],
      "stateMutability": "view",
      "type": "function"
    },
    {
      "inputs": [],
      "name": "renounceOwnership",
      "outputs": [],
      "stateMutability": "nonpayable",
      "type": "function"
    },
    {
      "inputs": [
        {
          "internalType": "uint32",
          "name": "_dstEid",
          "type": "uint32"
        },
        {
          "internalType": "string",
          "name": "_message",
          "type": "string"
        },
        {
          "internalType": "bytes",
          "name": "_options",
          "type": "bytes"
        }
      ],
      "name": "send",
      "outputs": [],
      "stateMutability": "payable",
      "type": "function"
    },
    {
      "inputs": [
        {
          "internalType": "address",
          "name": "_delegate",
          "type": "address"
        }
      ],
      "name": "setDelegate",
      "outputs": [],
      "stateMutability": "nonpayable",
      "type": "function"
    },
    {
      "inputs": [
        {
          "internalType": "uint32",
          "name": "_eid",
          "type": "uint32"
        },
        {
          "internalType": "bytes32",
          "name": "_peer",
          "type": "bytes32"
        }
      ],
      "name": "setPeer",
      "outputs": [],
      "stateMutability": "nonpayable",
      "type": "function"
    },
    {
      "inputs": [
        {
          "internalType": "address",
          "name": "newOwner",
          "type": "address"
        }
      ],
      "name": "transferOwnership",
      "outputs": [],
      "stateMutability": "nonpayable",
      "type": "function"
    }
  ],
  "bytecode": "0x60a06040523480156200001157600080fd5b50604051620015163803806200151683398101604081905262000034916200017c565b81818181806001600160a01b0381166200006857604051631e4fbdf760e01b81526000600482015260240160405180910390fd5b62000073816200010f565b506001600160a01b038083166080528116620000a257604051632d618d8160e21b815260040160405180910390fd5b60805160405163ca5eb5e160e01b81526001600160a01b0383811660048301529091169063ca5eb5e190602401600060405180830381600087803b158015620000ea57600080fd5b505af1158015620000ff573d6000803e3d6000fd5b50505050505050505050620001b4565b600080546001600160a01b038381166001600160a01b0319831681178455604051919092169283917f8be0079c531659141344cd1fd0a4f28419497f9722a3daafe3b4186f6b6457e09190a35050565b80516001600160a01b03811681146200017757600080fd5b919050565b600080604083850312156200019057600080fd5b6200019b836200015f565b9150620001ab602084016200015f565b90509250929050565b60805161131c620001fa6000396000818161015b01528181610350015281816104ed015281816107f7015281816108e5015281816109dc0152610a93015261131c6000f3fe6080604052600436106100e85760003560e01c806382413eac1161008a578063e0539e5811610059578063e0539e58146102c0578063f2fde38b146102d3578063f77e5dd3146102f3578063ff7bd03d1461032e57600080fd5b806382413eac146102085780638da5cb5b14610247578063bb0b6a5314610265578063ca5eb5e1146102a057600080fd5b80635e280f11116100c65780635e280f1114610149578063715018a61461019557806373d4a13a146101aa5780637d25a05e146101cc57600080fd5b806313137d65146100ed57806317442b70146101025780633400288b14610129575b600080fd5b6101006100fb366004610c3f565b61034e565b005b34801561010e57600080fd5b50604080516001815260026020820152015b60405180910390f35b34801561013557600080fd5b50610100610144366004610cf8565b61040e565b34801561015557600080fd5b5061017d7f000000000000000000000000000000000000000000000000000000000000000081565b6040516001600160a01b039091168152602001610120565b3480156101a157600080fd5b50610100610424565b3480156101b657600080fd5b506101bf610438565b6040516101209190610d68565b3480156101d857600080fd5b506101ef6101e7366004610cf8565b600092915050565b60405167ffffffffffffffff9091168152602001610120565b34801561021457600080fd5b50610237610223366004610d82565b6001600160a01b0381163014949350505050565b6040519015158152602001610120565b34801561025357600080fd5b506000546001600160a01b031661017d565b34801561027157600080fd5b50610292610280366004610de9565b60016020526000908152604090205481565b604051908152602001610120565b3480156102ac57600080fd5b506101006102bb366004610e04565b6104c6565b6101006102ce366004610ecd565b61054c565b3480156102df57600080fd5b506101006102ee366004610e04565b6105cb565b3480156102ff57600080fd5b5061031361030e366004610f44565b610609565b60408051825181526020928301519281019290925201610120565b34801561033a57600080fd5b50610237610349366004610fd9565b610657565b7f00000000000000000000000000000000000000000000000000000000000000006001600160a01b0316331461039e576040516391ac5e4f60e01b81523360048201526024015b60405180910390fd5b602087018035906103b8906103b3908a610de9565b61068d565b146103f6576103ca6020880188610de9565b60405163309afaf360e21b815263ffffffff909116600482015260208801356024820152604401610395565b610405878787878787876106cf565b50505050505050565b6104166106f2565b610420828261071f565b5050565b61042c6106f2565b6104366000610774565b565b6002805461044590610ff5565b80601f016020809104026020016040519081016040528092919081815260200182805461047190610ff5565b80156104be5780601f10610493576101008083540402835291602001916104be565b820191906000526020600020905b8154815290600101906020018083116104a157829003601f168201915b505050505081565b6104ce6106f2565b60405163ca5eb5e160e01b81526001600160a01b0382811660048301527f0000000000000000000000000000000000000000000000000000000000000000169063ca5eb5e190602401600060405180830381600087803b15801561053157600080fd5b505af1158015610545573d6000803e3d6000fd5b5050505050565b60008360405160200161055f9190610d68565b60408051601f198184030181526020601f860181900481028401810190925284835292506105c39187918491908790879081908401838280828437600092018290525060408051808201909152348152602081019190915292503391506107c49050565b505050505050565b6105d36106f2565b6001600160a01b0381166105fd57604051631e4fbdf760e01b815260006004820152602401610395565b61060681610774565b50565b60408051808201909152600080825260208201526000846040516020016106309190610d68565b604051602081830303815290604052905061064d868286866108cf565b9695505050505050565b600060208201803590600190839061066f9086610de9565b63ffffffff1681526020810191909152604001600020541492915050565b63ffffffff8116600090815260016020526040812054806106c95760405163f6ff4fb760e01b815263ffffffff84166004820152602401610395565b92915050565b6106db84860186611029565b6002906106e890826110b3565b5050505050505050565b6000546001600160a01b031633146104365760405163118cdaa760e01b8152336004820152602401610395565b63ffffffff8216600081815260016020908152604091829020849055815192835282018390527f238399d427b947898edb290f5ff0f9109849b1c3ba196a42e35f00c50a54b98b910160405180910390a15050565b600080546001600160a01b038381166001600160a01b0319831681178455604051919092169283917f8be0079c531659141344cd1fd0a4f28419497f9722a3daafe3b4186f6b6457e09190a35050565b6107cc610b81565b60006107db84600001516109b0565b6020850151909150156107f5576107f584602001516109d8565b7f00000000000000000000000000000000000000000000000000000000000000006001600160a01b0316632637a450826040518060a001604052808b63ffffffff1681526020016108458c61068d565b81526020018a815260200189815260200160008960200151111515815250866040518463ffffffff1660e01b8152600401610881929190611173565b60806040518083038185885af115801561089f573d6000803e3d6000fd5b50505050506040513d601f19601f820116820180604052508101906108c4919061123b565b979650505050505050565b60408051808201909152600080825260208201527f00000000000000000000000000000000000000000000000000000000000000006001600160a01b031663ddc28c586040518060a001604052808863ffffffff1681526020016109328961068d565b8152602001878152602001868152602001851515815250306040518363ffffffff1660e01b8152600401610967929190611173565b6040805180830381865afa158015610983573d6000803e3d6000fd5b505050506040513d601f19601f820116820180604052508101906109a791906112ad565b95945050505050565b60008134146109d4576040516304fb820960e51b8152346004820152602401610395565b5090565b60007f00000000000000000000000000000000000000000000000000000000000000006001600160a01b031663e4fe1d946040518163ffffffff1660e01b8152600401602060405180830381865afa158015610a38573d6000803e3d6000fd5b505050506040513d601f19601f82011682018060405250810190610a5c91906112c9565b90506001600160a01b038116610a85576040516329b99a9560e11b815260040160405180910390fd5b6040805133602482018190527f00000000000000000000000000000000000000000000000000000000000000006001600160a01b03818116604485015260648085018890528551808603909101815260849094019094526020830180516001600160e01b03166323b872dd60e01b179052610420938516928690610b0a908590610b10565b50505050565b600080602060008451602086016000885af180610b33576040513d6000823e3d81fd5b50506000513d91508115610b4b578060011415610b58565b6001600160a01b0384163b155b15610b0a57604051635274afe760e01b81526001600160a01b0385166004820152602401610395565b604051806060016040528060008019168152602001600067ffffffffffffffff168152602001610bc4604051806040016040528060008152602001600081525090565b905290565b600060608284031215610bdb57600080fd5b50919050565b60008083601f840112610bf357600080fd5b50813567ffffffffffffffff811115610c0b57600080fd5b602083019150836020828501011115610c2357600080fd5b9250929050565b6001600160a01b038116811461060657600080fd5b600080600080600080600060e0888a031215610c5a57600080fd5b610c648989610bc9565b965060608801359550608088013567ffffffffffffffff80821115610c8857600080fd5b610c948b838c01610be1565b909750955060a08a01359150610ca982610c2a565b90935060c08901359080821115610cbf57600080fd5b50610ccc8a828b01610be1565b989b979a50959850939692959293505050565b803563ffffffff81168114610cf357600080fd5b919050565b60008060408385031215610d0b57600080fd5b610d1483610cdf565b946020939093013593505050565b6000815180845260005b81811015610d4857602081850181015186830182015201610d2c565b506000602082860101526020601f19601f83011685010191505092915050565b602081526000610d7b6020830184610d22565b9392505050565b60008060008060a08587031215610d9857600080fd5b610da28686610bc9565b9350606085013567ffffffffffffffff811115610dbe57600080fd5b610dca87828801610be1565b9094509250506080850135610dde81610c2a565b939692955090935050565b600060208284031215610dfb57600080fd5b610d7b82610cdf565b600060208284031215610e1657600080fd5b8135610d7b81610c2a565b634e487b7160e01b600052604160045260246000fd5b600067ffffffffffffffff80841115610e5257610e52610e21565b604051601f8501601f19908116603f01168101908282118183101715610e7a57610e7a610e21565b81604052809350858152868686011115610e9357600080fd5b858560208301376000602087830101525050509392505050565b600082601f830112610ebe57600080fd5b610d7b83833560208501610e37565b60008060008060608587031215610ee357600080fd5b610eec85610cdf565b9350602085013567ffffffffffffffff80821115610f0957600080fd5b610f1588838901610ead565b94506040870135915080821115610f2b57600080fd5b50610f3887828801610be1565b95989497509550505050565b60008060008060808587031215610f5a57600080fd5b610f6385610cdf565b9350602085013567ffffffffffffffff80821115610f8057600080fd5b610f8c88838901610ead565b94506040870135915080821115610fa257600080fd5b508501601f81018713610fb457600080fd5b610fc387823560208401610e37565b92505060608501358015158114610dde57600080fd5b600060608284031215610feb57600080fd5b610d7b8383610bc9565b600181811c9082168061100957607f821691505b602082108103610bdb57634e487b7160e01b600052602260045260246000fd5b60006020828403121561103b57600080fd5b813567ffffffffffffffff81111561105257600080fd5b61105e84828501610ead565b949350505050565b601f8211156110ae576000816000526020600020601f850160051c8101602086101561108f5750805b601f850160051c820191505b818110156105c35782815560010161109b565b505050565b815167ffffffffffffffff8111156110cd576110cd610e21565b6110e1816110db8454610ff5565b84611066565b602080601f83116001811461111657600084156110fe5750858301515b600019600386901b1c1916600185901b1785556105c3565b600085815260208120601f198616915b8281101561114557888601518255948401946001909101908401611126565b50858210156111635787850151600019600388901b60f8161c191681555b5050505050600190811b01905550565b6040815263ffffffff8351166040820152602083015160608201526000604084015160a060808401526111a960e0840182610d22565b90506060850151603f198483030160a08501526111c68282610d22565b60809690960151151560c08501525050506001600160a01b039190911660209091015290565b6000604082840312156111fe57600080fd5b6040516040810181811067ffffffffffffffff8211171561122157611221610e21565b604052825181526020928301519281019290925250919050565b60006080828403121561124d57600080fd5b6040516060810167ffffffffffffffff828210818311171561127157611271610e21565b816040528451835260208501519150808216821461128e57600080fd5b5060208201526112a184604085016111ec565b60408201529392505050565b6000604082840312156112bf57600080fd5b610d7b83836111ec565b6000602082840312156112db57600080fd5b8151610d7b81610c2a56fea2646970667358221220cc9205538e06126b095810740cd89bd878656fd3a368147571cc9766d43fb55a64736f6c63430008160033",
  "linkReferences": {},
  "deployedLinkReferences": {}
}