{
  "_format": "hh-sol-artifact-1",
  "contractName": "ExampleHTSConnector",
  "sourceName": "contracts/ExampleHTSConnector.sol",
  "abi": [
    {
      "inputs": [
        {
          "internalType": "string",
          "name": "_name",
          "type": "string"
        },
        {
          "internalType": "string",
          "name": "_symbol",
          "type": "string"
        },
        {
          "internalType": "address",
          "name": "_lzEndpoint",
          "type": "address"
        },
        {
          "internalType": "address",
          "name": "_delegate",
          "type": "address"
        }
      ],
      "stateMutability": "payable",
      "type": "constructor"
    },
    {
      "inputs": [],
      "name": "InvalidDelegate",
      "type": "error"
    },
    {
      "inputs": [],
      "name": "InvalidEndpointCall",
      "type": "error"
    },
    {
      "inputs": [],
      "name": "InvalidLocalDecimals",
      "type": "error"
    },
    {
      "inputs": [
        {
          "internalType": "bytes",
          "name": "options",
          "type": "bytes"
        }
      ],
      "name": "InvalidOptions",
      "type": "error"
    },
    {
      "inputs": [],
      "name": "LzTokenUnavailable",
      "type": "error"
    },
    {
      "inputs": [
        {
          "internalType": "uint32",
          "name": "eid",
          "type": "uint32"
        }
      ],
      "name": "NoPeer",
      "type": "error"
    },
    {
      "inputs": [
        {
          "internalType": "uint256",
          "name": "msgValue",
          "type": "uint256"
        }
      ],
      "name": "NotEnoughNative",
      "type": "error"
    },
    {
      "inputs": [
        {
          "internalType": "address",
          "name": "addr",
          "type": "address"
        }
      ],
      "name": "OnlyEndpoint",
      "type": "error"
    },
    {
      "inputs": [
        {
          "internalType": "uint32",
          "name": "eid",
          "type": "uint32"
        },
        {
          "internalType": "bytes32",
          "name": "sender",
          "type": "bytes32"
        }
      ],
      "name": "OnlyPeer",
      "type": "error"
    },
    {
      "inputs": [],
      "name": "OnlySelf",
      "type": "error"
    },
    {
      "inputs": [
        {
          "internalType": "address",
          "name": "owner",
          "type": "address"
        }
      ],
      "name": "OwnableInvalidOwner",
      "type": "error"
    },
    {
      "inputs": [
        {
          "internalType": "address",
          "name": "account",
          "type": "address"
        }
      ],
      "name": "OwnableUnauthorizedAccount",
      "type": "error"
    },
    {
      "inputs": [
        {
          "internalType": "address",
          "name": "token",
          "type": "address"
        }
      ],
      "name": "SafeERC20FailedOperation",
      "type": "error"
    },
    {
      "inputs": [
        {
          "internalType": "bytes",
          "name": "result",
          "type": "bytes"
        }
      ],
      "name": "SimulationResult",
      "type": "error"
    },
    {
      "inputs": [
        {
          "internalType": "uint256",
          "name": "amountLD",
          "type": "uint256"
        },
        {
          "internalType": "uint256",
          "name": "minAmountLD",
          "type": "uint256"
        }
      ],
      "name": "SlippageExceeded",
      "type": "error"
    },
    {
      "anonymous": false,
      "inputs": [
        {
          "indexed": false,
          "internalType": "bool",
          "name": "",
          "type": "bool"
        },
        {
          "indexed": false,
          "internalType": "bytes",
          "name": "",
          "type": "bytes"
        }
      ],
      "name": "CallResponseEvent",
      "type": "event"
    },
    {
      "anonymous": false,
      "inputs": [
        {
          "components": [
            {
              "internalType": "uint32",
              "name": "eid",
              "type": "uint32"
            },
            {
              "internalType": "uint16",
              "name": "msgType",
              "type": "uint16"
            },
            {
              "internalType": "bytes",
              "name": "options",
              "type": "bytes"
            }
          ],
          "indexed": false,
          "internalType": "struct EnforcedOptionParam[]",
          "name": "_enforcedOptions",
          "type": "tuple[]"
        }
      ],
      "name": "EnforcedOptionSet",
      "type": "event"
    },
    {
      "anonymous": false,
      "inputs": [
        {
          "indexed": false,
          "internalType": "address",
          "name": "inspector",
          "type": "address"
        }
      ],
      "name": "MsgInspectorSet",
      "type": "event"
    },
    {
      "anonymous": false,
      "inputs": [
        {
          "indexed": true,
          "internalType": "bytes32",
          "name": "guid",
          "type": "bytes32"
        },
        {
          "indexed": false,
          "internalType": "uint32",
          "name": "srcEid",
          "type": "uint32"
        },
        {
          "indexed": true,
          "internalType": "address",
          "name": "toAddress",
          "type": "address"
        },
        {
          "indexed": false,
          "internalType": "uint256",
          "name": "amountReceivedLD",
          "type": "uint256"
        }
      ],
      "name": "OFTReceived",
      "type": "event"
    },
    {
      "anonymous": false,
      "inputs": [
        {
          "indexed": true,
          "internalType": "bytes32",
          "name": "guid",
          "type": "bytes32"
        },
        {
          "indexed": false,
          "internalType": "uint32",
          "name": "dstEid",
          "type": "uint32"
        },
        {
          "indexed": true,
          "internalType": "address",
          "name": "fromAddress",
          "type": "address"
        },
        {
          "indexed": false,
          "internalType": "uint256",
          "name": "amountSentLD",
          "type": "uint256"
        },
        {
          "indexed": false,
          "internalType": "uint256",
          "name": "amountReceivedLD",
          "type": "uint256"
        }
      ],
      "name": "OFTSent",
      "type": "event"
    },
    {
      "anonymous": false,
      "inputs": [
        {
          "indexed": true,
          "internalType": "address",
          "name": "previousOwner",
          "type": "address"
        },
        {
          "indexed": true,
          "internalType": "address",
          "name": "newOwner",
          "type": "address"
        }
      ],
      "name": "OwnershipTransferred",
      "type": "event"
    },
    {
      "anonymous": false,
      "inputs": [
        {
          "indexed": false,
          "internalType": "uint32",
          "name": "eid",
          "type": "uint32"
        },
        {
          "indexed": false,
          "internalType": "bytes32",
          "name": "peer",
          "type": "bytes32"
        }
      ],
      "name": "PeerSet",
      "type": "event"
    },
    {
      "anonymous": false,
      "inputs": [
        {
          "indexed": false,
          "internalType": "address",
          "name": "preCrimeAddress",
          "type": "address"
        }
      ],
      "name": "PreCrimeSet",
      "type": "event"
    },
    {
      "anonymous": false,
      "inputs": [
        {
          "indexed": false,
          "internalType": "address",
          "name": "tokenAddress",
          "type": "address"
        }
      ],
      "name": "TokenCreated",
      "type": "event"
    },
    {
      "inputs": [],
      "name": "SEND",
      "outputs": [
        {
          "internalType": "uint16",
          "name": "",
          "type": "uint16"
        }
      ],
      "stateMutability": "view",
      "type": "function"
    },
    {
      "inputs": [],
      "name": "SEND_AND_CALL",
      "outputs": [
        {
          "internalType": "uint16",
          "name": "",
          "type": "uint16"
        }
      ],
      "stateMutability": "view",
      "type": "function"
    },
    {
      "inputs": [
        {
          "components": [
            {
              "internalType": "uint32",
              "name": "srcEid",
              "type": "uint32"
            },
            {
              "internalType": "bytes32",
              "name": "sender",
              "type": "bytes32"
            },
            {
              "internalType": "uint64",
              "name": "nonce",
              "type": "uint64"
            }
          ],
          "internalType": "struct Origin",
          "name": "origin",
          "type": "tuple"
        }
      ],
      "name": "allowInitializePath",
      "outputs": [
        {
          "internalType": "bool",
          "name": "",
          "type": "bool"
        }
      ],
      "stateMutability": "view",
      "type": "function"
    },
    {
      "inputs": [],
      "name": "approvalRequired",
      "outputs": [
        {
          "internalType": "bool",
          "name": "",
          "type": "bool"
        }
      ],
      "stateMutability": "pure",
      "type": "function"
    },
    {
      "inputs": [
        {
          "internalType": "uint32",
          "name": "_eid",
          "type": "uint32"
        },
        {
          "internalType": "uint16",
          "name": "_msgType",
          "type": "uint16"
        },
        {
          "internalType": "bytes",
          "name": "_extraOptions",
          "type": "bytes"
        }
      ],
      "name": "combineOptions",
      "outputs": [
        {
          "internalType": "bytes",
          "name": "",
          "type": "bytes"
        }
      ],
      "stateMutability": "view",
      "type": "function"
    },
    {
      "inputs": [],
      "name": "decimalConversionRate",
      "outputs": [
        {
          "internalType": "uint256",
          "name": "",
          "type": "uint256"
        }
      ],
      "stateMutability": "view",
      "type": "function"
    },
    {
      "inputs": [],
      "name": "endpoint",
      "outputs": [
        {
          "internalType": "contract ILayerZeroEndpointV2",
          "name": "",
          "type": "address"
        }
      ],
      "stateMutability": "view",
      "type": "function"
    },
    {
      "inputs": [
        {
          "internalType": "uint32",
          "name": "eid",
          "type": "uint32"
        },
        {
          "internalType": "uint16",
          "name": "msgType",
          "type": "uint16"
        }
      ],
      "name": "enforcedOptions",
      "outputs": [
        {
          "internalType": "bytes",
          "name": "enforcedOption",
          "type": "bytes"
        }
      ],
      "stateMutability": "view",
      "type": "function"
    },
    {
      "inputs": [],
      "name": "htsTokenAddress",
      "outputs": [
        {
          "internalType": "address",
          "name": "",
          "type": "address"
        }
      ],
      "stateMutability": "view",
      "type": "function"
    },
    {
      "inputs": [
        {
          "components": [
            {
              "internalType": "uint32",
              "name": "srcEid",
              "type": "uint32"
            },
            {
              "internalType": "bytes32",
              "name": "sender",
              "type": "bytes32"
            },
            {
              "internalType": "uint64",
              "name": "nonce",
              "type": "uint64"
            }
          ],
          "internalType": "struct Origin",
          "name": "",
          "type": "tuple"
        },
        {
          "internalType": "bytes",
          "name": "",
          "type": "bytes"
        },
        {
          "internalType": "address",
          "name": "_sender",
          "type": "address"
        }
      ],
      "name": "isComposeMsgSender",
      "outputs": [
        {
          "internalType": "bool",
          "name": "",
          "type": "bool"
        }
      ],
      "stateMutability": "view",
      "type": "function"
    },
    {
      "inputs": [
        {
          "internalType": "uint32",
          "name": "_eid",
          "type": "uint32"
        },
        {
          "internalType": "bytes32",
          "name": "_peer",
          "type": "bytes32"
        }
      ],
      "name": "isPeer",
      "outputs": [
        {
          "internalType": "bool",
          "name": "",
          "type": "bool"
        }
      ],
      "stateMutability": "view",
      "type": "function"
    },
    {
      "inputs": [
        {
          "components": [
            {
              "internalType": "uint32",
              "name": "srcEid",
              "type": "uint32"
            },
            {
              "internalType": "bytes32",
              "name": "sender",
              "type": "bytes32"
            },
            {
              "internalType": "uint64",
              "name": "nonce",
              "type": "uint64"
            }
          ],
          "internalType": "struct Origin",
          "name": "_origin",
          "type": "tuple"
        },
        {
          "internalType": "bytes32",
          "name": "_guid",
          "type": "bytes32"
        },
        {
          "internalType": "bytes",
          "name": "_message",
          "type": "bytes"
        },
        {
          "internalType": "address",
          "name": "_executor",
          "type": "address"
        },
        {
          "internalType": "bytes",
          "name": "_extraData",
          "type": "bytes"
        }
      ],
      "name": "lzReceive",
      "outputs": [],
      "stateMutability": "payable",
      "type": "function"
    },
    {
      "inputs": [
        {
          "components": [
            {
              "components": [
                {
                  "internalType": "uint32",
                  "name": "srcEid",
                  "type": "uint32"
                },
                {
                  "internalType": "bytes32",
                  "name": "sender",
                  "type": "bytes32"
                },
                {
                  "internalType": "uint64",
                  "name": "nonce",
                  "type": "uint64"
                }
              ],
              "internalType": "struct Origin",
              "name": "origin",
              "type": "tuple"
            },
            {
              "internalType": "uint32",
              "name": "dstEid",
              "type": "uint32"
            },
            {
              "internalType": "address",
              "name": "receiver",
              "type": "address"
            },
            {
              "internalType": "bytes32",
              "name": "guid",
              "type": "bytes32"
            },
            {
              "internalType": "uint256",
              "name": "value",
              "type": "uint256"
            },
            {
              "internalType": "address",
              "name": "executor",
              "type": "address"
            },
            {
              "internalType": "bytes",
              "name": "message",
              "type": "bytes"
            },
            {
              "internalType": "bytes",
              "name": "extraData",
              "type": "bytes"
            }
          ],
          "internalType": "struct InboundPacket[]",
          "name": "_packets",
          "type": "tuple[]"
        }
      ],
      "name": "lzReceiveAndRevert",
      "outputs": [],
      "stateMutability": "payable",
      "type": "function"
    },
    {
      "inputs": [
        {
          "components": [
            {
              "internalType": "uint32",
              "name": "srcEid",
              "type": "uint32"
            },
            {
              "internalType": "bytes32",
              "name": "sender",
              "type": "bytes32"
            },
            {
              "internalType": "uint64",
              "name": "nonce",
              "type": "uint64"
            }
          ],
          "internalType": "struct Origin",
          "name": "_origin",
          "type": "tuple"
        },
        {
          "internalType": "bytes32",
          "name": "_guid",
          "type": "bytes32"
        },
        {
          "internalType": "bytes",
          "name": "_message",
          "type": "bytes"
        },
        {
          "internalType": "address",
          "name": "_executor",
          "type": "address"
        },
        {
          "internalType": "bytes",
          "name": "_extraData",
          "type": "bytes"
        }
      ],
      "name": "lzReceiveSimulate",
      "outputs": [],
      "stateMutability": "payable",
      "type": "function"
    },
    {
      "inputs": [],
      "name": "msgInspector",
      "outputs": [
        {
          "internalType": "address",
          "name": "",
          "type": "address"
        }
      ],
      "stateMutability": "view",
      "type": "function"
    },
    {
      "inputs": [
        {
          "internalType": "uint32",
          "name": "",
          "type": "uint32"
        },
        {
          "internalType": "bytes32",
          "name": "",
          "type": "bytes32"
        }
      ],
      "name": "nextNonce",
      "outputs": [
        {
          "internalType": "uint64",
          "name": "nonce",
          "type": "uint64"
        }
      ],
      "stateMutability": "view",
      "type": "function"
    },
    {
      "inputs": [],
      "name": "oApp",
      "outputs": [
        {
          "internalType": "address",
          "name": "",
          "type": "address"
        }
      ],
      "stateMutability": "view",
      "type": "function"
    },
    {
      "inputs": [],
      "name": "oAppVersion",
      "outputs": [
        {
          "internalType": "uint64",
          "name": "senderVersion",
          "type": "uint64"
        },
        {
          "internalType": "uint64",
          "name": "receiverVersion",
          "type": "uint64"
        }
      ],
      "stateMutability": "pure",
      "type": "function"
    },
    {
      "inputs": [],
      "name": "oftVersion",
      "outputs": [
        {
          "internalType": "bytes4",
          "name": "interfaceId",
          "type": "bytes4"
        },
        {
          "internalType": "uint64",
          "name": "version",
          "type": "uint64"
        }
      ],
      "stateMutability": "pure",
      "type": "function"
    },
    {
      "inputs": [],
      "name": "owner",
      "outputs": [
        {
          "internalType": "address",
          "name": "",
          "type": "address"
        }
      ],
      "stateMutability": "view",
      "type": "function"
    },
    {
      "inputs": [
        {
          "internalType": "uint32",
          "name": "eid",
          "type": "uint32"
        }
      ],
      "name": "peers",
      "outputs": [
        {
          "internalType": "bytes32",
          "name": "peer",
          "type": "bytes32"
        }
      ],
      "stateMutability": "view",
      "type": "function"
    },
    {
      "inputs": [],
      "name": "preCrime",
      "outputs": [
        {
          "internalType": "address",
          "name": "",
          "type": "address"
        }
      ],
      "stateMutability": "view",
      "type": "function"
    },
    {
      "inputs": [
        {
          "components": [
            {
              "internalType": "uint32",
              "name": "dstEid",
              "type": "uint32"
            },
            {
              "internalType": "bytes32",
              "name": "to",
              "type": "bytes32"
            },
            {
              "internalType": "uint256",
              "name": "amountLD",
              "type": "uint256"
            },
            {
              "internalType": "uint256",
              "name": "minAmountLD",
              "type": "uint256"
            },
            {
              "internalType": "bytes",
              "name": "extraOptions",
              "type": "bytes"
            },
            {
              "internalType": "bytes",
              "name": "composeMsg",
              "type": "bytes"
            },
            {
              "internalType": "bytes",
              "name": "oftCmd",
              "type": "bytes"
            }
          ],
          "internalType": "struct SendParam",
          "name": "_sendParam",
          "type": "tuple"
        }
      ],
      "name": "quoteOFT",
      "outputs": [
        {
          "components": [
            {
              "internalType": "uint256",
              "name": "minAmountLD",
              "type": "uint256"
            },
            {
              "internalType": "uint256",
              "name": "maxAmountLD",
              "type": "uint256"
            }
          ],
          "internalType": "struct OFTLimit",
          "name": "oftLimit",
          "type": "tuple"
        },
        {
          "components": [
            {
              "internalType": "int256",
              "name": "feeAmountLD",
              "type": "int256"
            },
            {
              "internalType": "string",
              "name": "description",
              "type": "string"
            }
          ],
          "internalType": "struct OFTFeeDetail[]",
          "name": "oftFeeDetails",
          "type": "tuple[]"
        },
        {
          "components": [
            {
              "internalType": "uint256",
              "name": "amountSentLD",
              "type": "uint256"
            },
            {
              "internalType": "uint256",
              "name": "amountReceivedLD",
              "type": "uint256"
            }
          ],
          "internalType": "struct OFTReceipt",
          "name": "oftReceipt",
          "type": "tuple"
        }
      ],
      "stateMutability": "view",
      "type": "function"
    },
    {
      "inputs": [
        {
          "components": [
            {
              "internalType": "uint32",
              "name": "dstEid",
              "type": "uint32"
            },
            {
              "internalType": "bytes32",
              "name": "to",
              "type": "bytes32"
            },
            {
              "internalType": "uint256",
              "name": "amountLD",
              "type": "uint256"
            },
            {
              "internalType": "uint256",
              "name": "minAmountLD",
              "type": "uint256"
            },
            {
              "internalType": "bytes",
              "name": "extraOptions",
              "type": "bytes"
            },
            {
              "internalType": "bytes",
              "name": "composeMsg",
              "type": "bytes"
            },
            {
              "internalType": "bytes",
              "name": "oftCmd",
              "type": "bytes"
            }
          ],
          "internalType": "struct SendParam",
          "name": "_sendParam",
          "type": "tuple"
        },
        {
          "internalType": "bool",
          "name": "_payInLzToken",
          "type": "bool"
        }
      ],
      "name": "quoteSend",
      "outputs": [
        {
          "components": [
            {
              "internalType": "uint256",
              "name": "nativeFee",
              "type": "uint256"
            },
            {
              "internalType": "uint256",
              "name": "lzTokenFee",
              "type": "uint256"
            }
          ],
          "internalType": "struct MessagingFee",
          "name": "msgFee",
          "type": "tuple"
        }
      ],
      "stateMutability": "view",
      "type": "function"
    },
    {
      "inputs": [],
      "name": "renounceOwnership",
      "outputs": [],
      "stateMutability": "nonpayable",
      "type": "function"
    },
    {
      "inputs": [
        {
          "components": [
            {
              "internalType": "uint32",
              "name": "dstEid",
              "type": "uint32"
            },
            {
              "internalType": "bytes32",
              "name": "to",
              "type": "bytes32"
            },
            {
              "internalType": "uint256",
              "name": "amountLD",
              "type": "uint256"
            },
            {
              "internalType": "uint256",
              "name": "minAmountLD",
              "type": "uint256"
            },
            {
              "internalType": "bytes",
              "name": "extraOptions",
              "type": "bytes"
            },
            {
              "internalType": "bytes",
              "name": "composeMsg",
              "type": "bytes"
            },
            {
              "internalType": "bytes",
              "name": "oftCmd",
              "type": "bytes"
            }
          ],
          "internalType": "struct SendParam",
          "name": "_sendParam",
          "type": "tuple"
        },
        {
          "components": [
            {
              "internalType": "uint256",
              "name": "nativeFee",
              "type": "uint256"
            },
            {
              "internalType": "uint256",
              "name": "lzTokenFee",
              "type": "uint256"
            }
          ],
          "internalType": "struct MessagingFee",
          "name": "_fee",
          "type": "tuple"
        },
        {
          "internalType": "address",
          "name": "_refundAddress",
          "type": "address"
        }
      ],
      "name": "send",
      "outputs": [
        {
          "components": [
            {
              "internalType": "bytes32",
              "name": "guid",
              "type": "bytes32"
            },
            {
              "internalType": "uint64",
              "name": "nonce",
              "type": "uint64"
            },
            {
              "components": [
                {
                  "internalType": "uint256",
                  "name": "nativeFee",
                  "type": "uint256"
                },
                {
                  "internalType": "uint256",
                  "name": "lzTokenFee",
                  "type": "uint256"
                }
              ],
              "internalType": "struct MessagingFee",
              "name": "fee",
              "type": "tuple"
            }
          ],
          "internalType": "struct MessagingReceipt",
          "name": "msgReceipt",
          "type": "tuple"
        },
        {
          "components": [
            {
              "internalType": "uint256",
              "name": "amountSentLD",
              "type": "uint256"
            },
            {
              "internalType": "uint256",
              "name": "amountReceivedLD",
              "type": "uint256"
            }
          ],
          "internalType": "struct OFTReceipt",
          "name": "oftReceipt",
          "type": "tuple"
        }
      ],
      "stateMutability": "payable",
      "type": "function"
    },
    {
      "inputs": [
        {
          "internalType": "address",
          "name": "_delegate",
          "type": "address"
        }
      ],
      "name": "setDelegate",
      "outputs": [],
      "stateMutability": "nonpayable",
      "type": "function"
    },
    {
      "inputs": [
        {
          "components": [
            {
              "internalType": "uint32",
              "name": "eid",
              "type": "uint32"
            },
            {
              "internalType": "uint16",
              "name": "msgType",
              "type": "uint16"
            },
            {
              "internalType": "bytes",
              "name": "options",
              "type": "bytes"
            }
          ],
          "internalType": "struct EnforcedOptionParam[]",
          "name": "_enforcedOptions",
          "type": "tuple[]"
        }
      ],
      "name": "setEnforcedOptions",
      "outputs": [],
      "stateMutability": "nonpayable",
      "type": "function"
    },
    {
      "inputs": [
        {
          "internalType": "address",
          "name": "_msgInspector",
          "type": "address"
        }
      ],
      "name": "setMsgInspector",
      "outputs": [],
      "stateMutability": "nonpayable",
      "type": "function"
    },
    {
      "inputs": [
        {
          "internalType": "uint32",
          "name": "_eid",
          "type": "uint32"
        },
        {
          "internalType": "bytes32",
          "name": "_peer",
          "type": "bytes32"
        }
      ],
      "name": "setPeer",
      "outputs": [],
      "stateMutability": "nonpayable",
      "type": "function"
    },
    {
      "inputs": [
        {
          "internalType": "address",
          "name": "_preCrime",
          "type": "address"
        }
      ],
      "name": "setPreCrime",
      "outputs": [],
      "stateMutability": "nonpayable",
      "type": "function"
    },
    {
      "inputs": [],
      "name": "sharedDecimals",
      "outputs": [
        {
          "internalType": "uint8",
          "name": "",
          "type": "uint8"
        }
      ],
      "stateMutability": "view",
      "type": "function"
    },
    {
      "inputs": [],
      "name": "token",
      "outputs": [
        {
          "internalType": "address",
          "name": "",
          "type": "address"
        }
      ],
      "stateMutability": "view",
      "type": "function"
    },
    {
      "inputs": [
        {
          "internalType": "address",
          "name": "newOwner",
          "type": "address"
        }
      ],
      "name": "transferOwnership",
      "outputs": [],
      "stateMutability": "nonpayable",
      "type": "function"
    }
  ],
  "bytecode": "0x60c060405260405162003fb538038062003fb5833981016040819052620000269162000a01565b838383836008828281818181806001600160a01b0381166200006357604051631e4fbdf760e01b8152600060048201526024015b60405180910390fd5b6200006e8162000493565b506001600160a01b0380831660805281166200009d57604051632d618d8160e21b815260040160405180910390fd5b60805160405163ca5eb5e160e01b81526001600160a01b0383811660048301529091169063ca5eb5e190602401600060405180830381600087803b158015620000e557600080fd5b505af1158015620000fa573d6000803e3d6000fd5b505050505050505062000112620004e360201b60201c565b60ff168360ff16101562000139576040516301e9714b60e41b815260040160405180910390fd5b6200014660068462000aab565b6200015390600a62000bc4565b60a05250506006602081815260017f54cdd369e4e8a8515e52ca72ec816c2101831ad1f18bf44102ed171459c9b4f881905560027f3e5fec24aa4dc4e5aee2e025e51e1392c72a2500577559fae9665c6d52bd6a315560047f8819ef417987f8ae7a81f42cdfb18815282fe989326fbff903d13cf0e03ace295560087f75f96ab15d697e93042dc45b5c896c4b27e89bb6eaf39475c5c371cb2513f7d25560107fc5069e24aaadb2addc3e52e868fcf3f4f8acf5a87e24300992fd4540c2a87eed557fbfd358e93f18da3ed276c3afdbdba00b8f0b6008a03476a6a86bd6320ee6938b829055600092835260407f697b2bd7bb2984c4e0dc14c79c987d37818484a62958b9c45a0e8b962f20650f81905580518281528082019091529293509082015b62000280620008bd565b81526020019060019003908162000276579050509050620002ba6004600060405180602001604052806000815250620004e860201b60201c565b81600081518110620002d057620002d062000bf2565b6020908102919091018101919091526040805160608082018352600080835230838601819052627a1200848601528451610120810186528b81528087018b905280860191909152845180860190955260048552636d656d6f60e01b95850195909552908401929092526001608084015261138860a084015260c0830182905260e08301849052610100830181905291908062000371836103e8600862000529565b909250905060168214620003c85760405162461bcd60e51b815260206004820152601a60248201527f4661696c656420746f206372656174652048545320746f6b656e00000000000060448201526064016200005a565b6000620003da8230336103e86200065d565b9050601681146200042e5760405162461bcd60e51b815260206004820152601460248201527f4854533a205472616e73666572206661696c656400000000000000000000000060448201526064016200005a565b600780546001600160a01b0319166001600160a01b0384169081179091556040519081527f2e2b3f61b70d2d131b2a807371103cc98d51adcaa5e9a8f9c32658ad8426e74e9060200160405180910390a1505050505050505050505050505062000ed1565b600080546001600160a01b038381166001600160a01b0319831681178455604051919092169283917f8be0079c531659141344cd1fd0a4f28419497f9722a3daafe3b4186f6b6457e09190a35050565b600690565b620004f2620008bd565b60405180604001604052806200050e866200074d60201b60201c565b81526020016200051f858562000792565b9052949350505050565b600080848061010001516000015160070b60001480156200055457506101008101516040015160070b155b156200056b576101008101516276a7006040909101525b6000806101676001600160a01b031634630fb65bf360e01b8a8a8a6040516024016200059a9392919062000d07565b60408051601f198184030181529181526020820180516001600160e01b03166001600160e01b0319909416939093179092529051620005da919062000e41565b60006040518083038185875af1925050503d806000811462000619576040519150601f19603f3d011682016040523d82523d6000602084013e6200061e565b606091505b50915091508162000633576015600062000649565b8080602001905181019062000649919062000e77565b60039190910b999098509650505050505050565b604080516001600160a01b038681166024830152858116604483015284166064820152600783900b6084808301919091528251808303909101815260a490910182526020810180516001600160e01b031663eca3691760e01b17905290516000918291829161016791620006d2919062000e41565b6000604051808303816000865af19150503d806000811462000711576040519150601f19603f3d011682016040523d82523d6000602084013e62000716565b606091505b509150915081620007295760156200073f565b808060200190518101906200073f919062000eb3565b60030b979650505050505050565b60006006600083600681111562000768576200076862000bdc565b60068111156200077c576200077c62000bdc565b8152602001908152602001600020549050919050565b620007d96040518060a0016040528060001515815260200160006001600160a01b03168152602001606081526020016060815260200160006001600160a01b031681525090565b6000836004811115620007f057620007f062000bdc565b03620008005760018152620008b7565b600183600481111562000817576200081762000bdc565b0362000834576005546001600160a01b03166020820152620008b7565b60028360048111156200084b576200084b62000bdc565b036200085e5760408101829052620008b7565b600383600481111562000875576200087562000bdc565b03620008885760608101829052620008b7565b60048360048111156200089f576200089f62000bdc565b03620008b7576005546001600160a01b031660808201525b92915050565b604051806040016040528060008152602001620009166040518060a0016040528060001515815260200160006001600160a01b03168152602001606081526020016060815260200160006001600160a01b031681525090565b905290565b634e487b7160e01b600052604160045260246000fd5b60005b838110156200094e57818101518382015260200162000934565b50506000910152565b600082601f8301126200096957600080fd5b81516001600160401b03808211156200098657620009866200091b565b604051601f8301601f19908116603f01168101908282118183101715620009b157620009b16200091b565b81604052838152866020858801011115620009cb57600080fd5b620009de84602083016020890162000931565b9695505050505050565b6001600160a01b0381168114620009fe57600080fd5b50565b6000806000806080858703121562000a1857600080fd5b84516001600160401b038082111562000a3057600080fd5b62000a3e8883890162000957565b9550602087015191508082111562000a5557600080fd5b5062000a648782880162000957565b935050604085015162000a7781620009e8565b606086015190925062000a8a81620009e8565b939692955090935050565b634e487b7160e01b600052601160045260246000fd5b60ff8281168282160390811115620008b757620008b762000a95565b600181815b8085111562000b0857816000190482111562000aec5762000aec62000a95565b8085161562000afa57918102915b93841c939080029062000acc565b509250929050565b60008262000b2157506001620008b7565b8162000b3057506000620008b7565b816001811462000b49576002811462000b545762000b74565b6001915050620008b7565b60ff84111562000b685762000b6862000a95565b50506001821b620008b7565b5060208310610133831016604e8410600b841016171562000b99575081810a620008b7565b62000ba5838362000ac7565b806000190482111562000bbc5762000bbc62000a95565b029392505050565b600062000bd560ff84168362000b10565b9392505050565b634e487b7160e01b600052602160045260246000fd5b634e487b7160e01b600052603260045260246000fd5b6000815180845262000c2281602086016020860162000931565b601f01601f19169290920160200192915050565b600082825180855260208086019550808260051b84010181860160005b8481101562000cfa57858303601f1901895281518051845284015160408585018190528151151581860152818601516001600160a01b039081166060808801919091529183015160a0608080890182905291939092909162000cb960e08a018662000c08565b92860151898403603f1901858b015292945062000cd7858462000c08565b9501511660c0979097019690965250509884019892509083019060010162000c53565b5090979650505050505050565b606081526000845161016080606085015262000d286101c085018362000c08565b91506020870151605f198086850301608087015262000d48848362000c08565b93506040890151915062000d6760a08701836001600160a01b03169052565b60608901519150808685030160c087015262000d84848362000c08565b93506080890151915062000d9c60e087018315159052565b60a0890151915061010062000db58188018460070b9052565b60c08a0151151561012088015260e08a01518786038301610140890152925062000de0858462000c36565b9450808a01519250505062000e1b828601828051600790810b83526020808301516001600160a01b031690840152604091820151900b910152565b5050600785900b6020840152905062000e39604083018460030b9052565b949350505050565b6000825162000e5581846020870162000931565b9190910192915050565b8051600381900b811462000e7257600080fd5b919050565b6000806040838503121562000e8b57600080fd5b62000e968362000e5f565b9150602083015162000ea881620009e8565b809150509250929050565b60006020828403121562000ec657600080fd5b62000bd58262000e5f565b60805160a05161307862000f3d6000396000818161050d015281816117d00152818161184c01526119fc0152600081816103ef0152818161079601528181610e6c015281816110d901528181611367015281816116f401528181611c980152611d5101526130786000f3fe6080604052600436106101f95760003560e01c806382413eac1161010d578063bc70b354116100a0578063d045a0dc1161006f578063d045a0dc14610632578063d424388514610645578063f2fde38b14610665578063fc0c546a14610685578063ff7bd03d146106a357600080fd5b8063bc70b354146105be578063bd815db0146105de578063c7c7f5b3146105f1578063ca5eb5e11461061257600080fd5b80639f68b964116100dc5780639f68b9641461053d578063b731ea0a14610551578063b98bd07014610571578063bb0b6a531461059157600080fd5b806382413eac146104a1578063857749b0146104c15780638da5cb5b146104dd578063963efcaa146104fb57600080fd5b80633b6f743b116101905780635e280f111161015f5780635e280f11146103dd5780636fc1b31e14610411578063715018a6146104315780637796c477146104465780637d25a05e1461046657600080fd5b80633b6f743b1461032957806352ae2879146103565780635535d461146103695780635a0dfe4d1461039657600080fd5b8063156a0d0f116101cc578063156a0d0f146102ab57806317442b70146102d25780631f5e1334146102f45780633400288b1461030957600080fd5b80630d35b415146101fe578063111ecdad1461023657806313137d651461026e578063134d4f2514610283575b600080fd5b34801561020a57600080fd5b5061021e610219366004611fa4565b6106c3565b60405161022d93929190612028565b60405180910390f35b34801561024257600080fd5b50600454610256906001600160a01b031681565b6040516001600160a01b03909116815260200161022d565b61028161027c366004612130565b610794565b005b34801561028f57600080fd5b50610298600281565b60405161ffff909116815260200161022d565b3480156102b757600080fd5b506040805162b9270b60e21b8152600160208201520161022d565b3480156102de57600080fd5b506040805160018152600260208201520161022d565b34801561030057600080fd5b50610298600181565b34801561031557600080fd5b506102816103243660046121e8565b610854565b34801561033557600080fd5b50610349610344366004612220565b61086a565b60405161022d9190612271565b34801561036257600080fd5b5030610256565b34801561037557600080fd5b5061038961038436600461229a565b6108d3565b60405161022d91906122cd565b3480156103a257600080fd5b506103cd6103b13660046121e8565b63ffffffff919091166000908152600160205260409020541490565b604051901515815260200161022d565b3480156103e957600080fd5b506102567f000000000000000000000000000000000000000000000000000000000000000081565b34801561041d57600080fd5b5061028161042c3660046122e0565b610978565b34801561043d57600080fd5b506102816109d5565b34801561045257600080fd5b50600754610256906001600160a01b031681565b34801561047257600080fd5b506104896104813660046121e8565b600092915050565b6040516001600160401b03909116815260200161022d565b3480156104ad57600080fd5b506103cd6104bc3660046122fd565b6109e9565b3480156104cd57600080fd5b506040516006815260200161022d565b3480156104e957600080fd5b506000546001600160a01b0316610256565b34801561050757600080fd5b5061052f7f000000000000000000000000000000000000000000000000000000000000000081565b60405190815260200161022d565b34801561054957600080fd5b5060006103cd565b34801561055d57600080fd5b50600254610256906001600160a01b031681565b34801561057d57600080fd5b5061028161058c3660046123a7565b6109fe565b34801561059d57600080fd5b5061052f6105ac3660046123e8565b60016020526000908152604090205481565b3480156105ca57600080fd5b506103896105d9366004612403565b610a18565b6102816105ec3660046123a7565b610bc0565b6106046105ff366004612463565b610d4a565b60405161022d9291906124d0565b34801561061e57600080fd5b5061028161062d3660046122e0565b610e45565b610281610640366004612130565b610ecb565b34801561065157600080fd5b506102816106603660046122e0565b610efa565b34801561067157600080fd5b506102816106803660046122e0565b610f50565b34801561069157600080fd5b506007546001600160a01b0316610256565b3480156106af57600080fd5b506103cd6106be366004612522565b610f8e565b604080518082019091526000808252602082015260606106f6604051806040016040528060008152602001600081525090565b60408051808201825260008082526001600160401b03602080840182905284518381529081019094529195509182610751565b6040805180820190915260008152606060208201528152602001906001900390816107295790505b509350600080610776604089013560608a013561077160208c018c6123e8565b610fc4565b60408051808201909152918252602082015296989597505050505050565b7f00000000000000000000000000000000000000000000000000000000000000006001600160a01b031633146107e4576040516391ac5e4f60e01b81523360048201526024015b60405180910390fd5b602087018035906107fe906107f9908a6123e8565b611008565b1461083c5761081060208801886123e8565b60405163309afaf360e21b815263ffffffff9091166004820152602088013560248201526044016107db565b61084b87878787878787611044565b50505050505050565b61085c6111ab565b61086682826111d8565b5050565b6040805180820190915260008082526020820152600061089a6040850135606086013561077160208801886123e8565b9150506000806108aa868461122d565b90925090506108c76108bf60208801886123e8565b838388611351565b93505050505b92915050565b6003602090815260009283526040808420909152908252902080546108f790612554565b80601f016020809104026020016040519081016040528092919081815260200182805461092390612554565b80156109705780601f1061094557610100808354040283529160200191610970565b820191906000526020600020905b81548152906001019060200180831161095357829003601f168201915b505050505081565b6109806111ab565b600480546001600160a01b0319166001600160a01b0383169081179091556040519081527ff0be4f1e87349231d80c36b33f9e8639658eeaf474014dee15a3e6a4d4414197906020015b60405180910390a150565b6109dd6111ab565b6109e76000611432565b565b6001600160a01b03811630145b949350505050565b610a066111ab565b610866610a13828461264c565b611482565b63ffffffff8416600090815260036020908152604080832061ffff87168452909152812080546060929190610a4c90612554565b80601f0160208091040260200160405190810160405280929190818152602001828054610a7890612554565b8015610ac55780601f10610a9a57610100808354040283529160200191610ac5565b820191906000526020600020905b815481529060010190602001808311610aa857829003601f168201915b505050505090508051600003610b155783838080601f0160208091040260200160405190810160405280939291908181526020018383808284376000920191909152509294506109f69350505050565b6000839003610b255790506109f6565b60028310610ba357610b6c84848080601f01602080910402602001604051908101604052809392919081815260200183838082843760009201919091525061158992505050565b80610b7a846002818861275a565b604051602001610b8c93929190612784565b6040516020818303038152906040529150506109f6565b8383604051639a6d49cd60e01b81526004016107db9291906127d5565b60005b81811015610cc95736838383818110610bde57610bde6127e9565b9050602002810190610bf091906127ff565b9050610c23610c0260208301836123e8565b602083013563ffffffff919091166000908152600160205260409020541490565b610c2d5750610cc1565b3063d045a0dc60c08301358360a0810135610c4c610100830183612820565b610c5d610100890160e08a016122e0565b610c6b6101208a018a612820565b6040518963ffffffff1660e01b8152600401610c8d979695949392919061287b565b6000604051808303818588803b158015610ca657600080fd5b505af1158015610cba573d6000803e3d6000fd5b5050505050505b600101610bc3565b50336001600160a01b0316638e9e70996040518163ffffffff1660e01b8152600401600060405180830381865afa158015610d08573d6000803e3d6000fd5b505050506040513d6000823e601f3d908101601f19168201604052610d309190810190612901565b604051638351eea760e01b81526004016107db91906122cd565b610d52611f45565b6040805180820190915260008082526020820152600080610d8933604089013560608a0135610d8460208c018c6123e8565b6115b5565b91509150600080610d9a898461122d565b9092509050610dc6610daf60208b018b6123e8565b8383610dc0368d90038d018d61296e565b8b6116c1565b60408051808201909152858152602080820186905282519298509096503391907f85496b760a4b7f8d66384b9df21b381f5d1b1e79f229a47aaf4c232edc2fe59a90610e14908d018d6123e8565b6040805163ffffffff909216825260208201899052810187905260600160405180910390a350505050935093915050565b610e4d6111ab565b60405163ca5eb5e160e01b81526001600160a01b0382811660048301527f0000000000000000000000000000000000000000000000000000000000000000169063ca5eb5e190602401600060405180830381600087803b158015610eb057600080fd5b505af1158015610ec4573d6000803e3d6000fd5b5050505050565b333014610eeb5760405163029a949d60e31b815260040160405180910390fd5b61084b8787878787878761083c565b610f026111ab565b600280546001600160a01b0319166001600160a01b0383169081179091556040519081527fd48d879cef83a1c0bdda516f27b13ddb1b3f8bbac1c9e1511bb2a659c2427760906020016109ca565b610f586111ab565b6001600160a01b038116610f8257604051631e4fbdf760e01b8152600060048201526024016107db565b610f8b81611432565b50565b6000602082018035906001908390610fa690866123e8565b63ffffffff1681526020810191909152604001600020541492915050565b600080610fd0856117cc565b915081905083811015611000576040516371c4efed60e01b815260048101829052602481018590526044016107db565b935093915050565b63ffffffff8116600090815260016020526040812054806108cd5760405163f6ff4fb760e01b815263ffffffff841660048201526024016107db565b60006110566110538787611803565b90565b905060006110828261107061106b8a8a611822565b611845565b61107d60208d018d6123e8565b61187a565b905060288611156111495760006110bf6110a260608c0160408d016129a0565b6110af60208d018d6123e8565b846110ba8c8c611978565b6119c3565b604051633e5ac80960e11b81529091506001600160a01b037f00000000000000000000000000000000000000000000000000000000000000001690637cb59012906111159086908d9060009087906004016129bd565b600060405180830381600087803b15801561112f57600080fd5b505af1158015611143573d6000803e3d6000fd5b50505050505b6001600160a01b038216887fefed6d3500546b29533b128a29e3a94d70788727f0507505ac12eaf2e578fd9c61118260208d018d6123e8565b6040805163ffffffff9092168252602082018690520160405180910390a3505050505050505050565b6000546001600160a01b031633146109e75760405163118cdaa760e01b81523360048201526024016107db565b63ffffffff8216600081815260016020908152604091829020849055815192835282018390527f238399d427b947898edb290f5ff0f9109849b1c3ba196a42e35f00c50a54b98b910160405180910390a15050565b606080600061128a8560200135611243866119f5565b61125060a0890189612820565b8080601f016020809104026020016040519081016040528093929190818152602001838380828437600092019190915250611a2192505050565b909350905060008161129d5760016112a0565b60025b90506112c06112b260208801886123e8565b826105d960808a018a612820565b6004549093506001600160a01b031615611348576004805460405163043a78eb60e01b81526001600160a01b039091169163043a78eb916113059188918891016129f8565b602060405180830381865afa158015611322573d6000803e3d6000fd5b505050506040513d601f19601f820116820180604052508101906113469190612a1d565b505b50509250929050565b60408051808201909152600080825260208201527f00000000000000000000000000000000000000000000000000000000000000006001600160a01b031663ddc28c586040518060a001604052808863ffffffff1681526020016113b489611008565b8152602001878152602001868152602001851515815250306040518363ffffffff1660e01b81526004016113e9929190612a3a565b6040805180830381865afa158015611405573d6000803e3d6000fd5b505050506040513d601f19601f820116820180604052508101906114299190612ae3565b95945050505050565b600080546001600160a01b038381166001600160a01b0319831681178455604051919092169283917f8be0079c531659141344cd1fd0a4f28419497f9722a3daafe3b4186f6b6457e09190a35050565b60005b8151811015611559576114b48282815181106114a3576114a36127e9565b602002602001015160400151611589565b8181815181106114c6576114c66127e9565b602002602001015160400151600360008484815181106114e8576114e86127e9565b60200260200101516000015163ffffffff1663ffffffff1681526020019081526020016000206000848481518110611522576115226127e9565b60200260200101516020015161ffff1661ffff16815260200190815260200160002090816115509190612b50565b50600101611485565b507fbe4864a8e820971c0247f5992e2da559595f7bf076a21cb5928d443d2a13b674816040516109ca9190612c0f565b600281015161ffff81166003146108665781604051639a6d49cd60e01b81526004016107db91906122cd565b6000806115c3858585610fc4565b60075491935091506000906115e3906001600160a01b0316883089611a9b565b90506016811461162c5760405162461bcd60e51b8152602060048201526014602482015273121514ce88151c985b9cd9995c8819985a5b195960621b60448201526064016107db565b600754600090611670906001600160a01b0316858360405190808252806020026020018201604052801561166a578160200160208202803683370190505b50611b83565b509050601681146116b65760405162461bcd60e51b815260206004820152601060248201526f121514ce88109d5c9b8819985a5b195960821b60448201526064016107db565b505094509492505050565b6116c9611f45565b60006116d88460000151611c6c565b6020850151909150156116f2576116f28460200151611c94565b7f00000000000000000000000000000000000000000000000000000000000000006001600160a01b0316632637a450826040518060a001604052808b63ffffffff1681526020016117428c611008565b81526020018a815260200189815260200160008960200151111515815250866040518463ffffffff1660e01b815260040161177e929190612a3a565b60806040518083038185885af115801561179c573d6000803e3d6000fd5b50505050506040513d601f19601f820116820180604052508101906117c19190612c9a565b979650505050505050565b60007f00000000000000000000000000000000000000000000000000000000000000006117f98184612ce4565b6108cd9190612d06565b6000611812602082848661275a565b61181b91612d2b565b9392505050565b600061183260286020848661275a565b61183b91612d49565b60c01c9392505050565b60006108cd7f00000000000000000000000000000000000000000000000000000000000000006001600160401b038416612d06565b60075460408051600080825260208201909252909182916118c2916001600160a01b0316908690846118bc565b60608152602001906001900390816118a75790505b50611d76565b50909150506016811461190a5760405162461bcd60e51b815260206004820152601060248201526f121514ce88135a5b9d0819985a5b195960821b60448201526064016107db565b600754600090611925906001600160a01b0316308888611a9b565b90506016811461196e5760405162461bcd60e51b8152602060048201526014602482015273121514ce88151c985b9cd9995c8819985a5b195960621b60448201526064016107db565b5092949350505050565b6060611987826028818661275a565b8080601f016020809104026020016040519081016040528093929190818152602001838380828437600092019190915250929695505050505050565b6060848484846040516020016119dc9493929190612d79565b6040516020818303038152906040529050949350505050565b60006108cd7f000000000000000000000000000000000000000000000000000000000000000083612ce4565b8051606090151580611a6a578484604051602001611a5692919091825260c01b6001600160c01b031916602082015260280190565b604051602081830303815290604052611a91565b84843385604051602001611a819493929190612dc8565b6040516020818303038152906040525b9150935093915050565b604080516001600160a01b038681166024830152858116604483015284166064820152600783900b6084808301919091528251808303909101815260a490910182526020810180516001600160e01b031663eca3691760e01b17905290516000918291829161016791611b0e9190612e0b565b6000604051808303816000865af19150503d8060008114611b4b576040519150601f19603f3d011682016040523d82523d6000602084013e611b50565b606091505b509150915081611b61576015611b75565b80806020019051810190611b759190612e2f565b60030b979650505050505050565b6000806000806101676001600160a01b031663d6910d0660e01b888888604051602401611bb293929190612e4a565b60408051601f198184030181529181526020820180516001600160e01b03166001600160e01b0319909416939093179092529051611bf09190612e0b565b6000604051808303816000865af19150503d8060008114611c2d576040519150601f19603f3d011682016040523d82523d6000602084013e611c32565b606091505b509150915081611c455760156000611c59565b80806020019051810190611c599190612ec3565b60039190910b9890975095505050505050565b6000813414611c90576040516304fb820960e51b81523460048201526024016107db565b5090565b60007f00000000000000000000000000000000000000000000000000000000000000006001600160a01b031663e4fe1d946040518163ffffffff1660e01b8152600401602060405180830381865afa158015611cf4573d6000803e3d6000fd5b505050506040513d601f19601f82011682018060405250810190611d189190612eed565b90506001600160a01b038116611d41576040516329b99a9560e11b815260040160405180910390fd5b6108666001600160a01b038216337f000000000000000000000000000000000000000000000000000000000000000085611e74565b60008060606000806101676001600160a01b031663e0f4059a60e01b898989604051602401611da793929190612f0a565b60408051601f198184030181529181526020820180516001600160e01b03166001600160e01b0319909416939093179092529051611de59190612e0b565b6000604051808303816000865af19150503d8060008114611e22576040519150601f19603f3d011682016040523d82523d6000602084013e611e27565b606091505b509150915081611e4a576040805160008082526020820190925260159190611e5e565b80806020019051810190611e5e9190612f88565b60039290920b9a90995090975095505050505050565b604080516001600160a01b0385811660248301528416604482015260648082018490528251808303909101815260849091019091526020810180516001600160e01b03166323b872dd60e01b179052611ece908590611ed4565b50505050565b600080602060008451602086016000885af180611ef7576040513d6000823e3d81fd5b50506000513d91508115611f0f578060011415611f1c565b6001600160a01b0384163b155b15611ece57604051635274afe760e01b81526001600160a01b03851660048201526024016107db565b60405180606001604052806000801916815260200160006001600160401b03168152602001611f87604051806040016040528060008152602001600081525090565b905290565b600060e08284031215611f9e57600080fd5b50919050565b600060208284031215611fb657600080fd5b81356001600160401b03811115611fcc57600080fd5b6109f684828501611f8c565b60005b83811015611ff3578181015183820152602001611fdb565b50506000910152565b60008151808452612014816020860160208601611fd8565b601f01601f19169290920160200192915050565b8351815260208085015190820152600060a08201604060a0604085015281865180845260c08601915060c08160051b8701019350602080890160005b838110156120a35788870360bf1901855281518051885283015183880187905261209087890182611ffc565b9750509382019390820190600101612064565b505087516060880152505050602085015160808501525090506109f6565b600060608284031215611f9e57600080fd5b60008083601f8401126120e557600080fd5b5081356001600160401b038111156120fc57600080fd5b60208301915083602082850101111561211457600080fd5b9250929050565b6001600160a01b0381168114610f8b57600080fd5b600080600080600080600060e0888a03121561214b57600080fd5b61215589896120c1565b96506060880135955060808801356001600160401b038082111561217857600080fd5b6121848b838c016120d3565b909750955060a08a013591506121998261211b565b90935060c089013590808211156121af57600080fd5b506121bc8a828b016120d3565b989b979a50959850939692959293505050565b803563ffffffff811681146121e357600080fd5b919050565b600080604083850312156121fb57600080fd5b612204836121cf565b946020939093013593505050565b8015158114610f8b57600080fd5b6000806040838503121561223357600080fd5b82356001600160401b0381111561224957600080fd5b61225585828601611f8c565b925050602083013561226681612212565b809150509250929050565b8151815260208083015190820152604081016108cd565b803561ffff811681146121e357600080fd5b600080604083850312156122ad57600080fd5b6122b6836121cf565b91506122c460208401612288565b90509250929050565b60208152600061181b6020830184611ffc565b6000602082840312156122f257600080fd5b813561181b8161211b565b60008060008060a0858703121561231357600080fd5b61231d86866120c1565b935060608501356001600160401b0381111561233857600080fd5b612344878288016120d3565b90945092505060808501356123588161211b565b939692955090935050565b60008083601f84011261237557600080fd5b5081356001600160401b0381111561238c57600080fd5b6020830191508360208260051b850101111561211457600080fd5b600080602083850312156123ba57600080fd5b82356001600160401b038111156123d057600080fd5b6123dc85828601612363565b90969095509350505050565b6000602082840312156123fa57600080fd5b61181b826121cf565b6000806000806060858703121561241957600080fd5b612422856121cf565b935061243060208601612288565b925060408501356001600160401b0381111561244b57600080fd5b612457878288016120d3565b95989497509550505050565b6000806000838503608081121561247957600080fd5b84356001600160401b0381111561248f57600080fd5b61249b87828801611f8c565b9450506040601f19820112156124b057600080fd5b5060208401915060608401356124c58161211b565b809150509250925092565b600060c082019050835182526001600160401b036020850151166020830152604084015161250b604084018280518252602090810151910152565b5082516080830152602083015160a083015261181b565b60006060828403121561253457600080fd5b61181b83836120c1565b634e487b7160e01b600052604160045260246000fd5b600181811c9082168061256857607f821691505b602082108103611f9e57634e487b7160e01b600052602260045260246000fd5b604051606081016001600160401b03811182821017156125aa576125aa61253e565b60405290565b604080519081016001600160401b03811182821017156125aa576125aa61253e565b604051601f8201601f191681016001600160401b03811182821017156125fa576125fa61253e565b604052919050565b60006001600160401b0382111561261b5761261b61253e565b5060051b60200190565b60006001600160401b0382111561263e5761263e61253e565b50601f01601f191660200190565b600061265f61265a84612602565b6125d2565b80848252602080830192508560051b85013681111561267d57600080fd5b855b8181101561274e5780356001600160401b038082111561269f5760008081fd5b8189019150606082360312156126b55760008081fd5b6126bd612588565b6126c6836121cf565b81526126d3868401612288565b86820152604080840135838111156126eb5760008081fd5b939093019236601f85011261270257600092508283fd5b8335925061271261265a84612625565b83815236888587010111156127275760008081fd5b8388860189830137600093810188019390935281019190915286525093820193820161267f565b50919695505050505050565b6000808585111561276a57600080fd5b8386111561277757600080fd5b5050820193919092039150565b60008451612796818460208901611fd8565b8201838582376000930192835250909392505050565b81835281816020850137506000828201602090810191909152601f909101601f19169091010190565b6020815260006109f66020830184866127ac565b634e487b7160e01b600052603260045260246000fd5b6000823561013e1983360301811261281657600080fd5b9190910192915050565b6000808335601e1984360301811261283757600080fd5b8301803591506001600160401b0382111561285157600080fd5b60200191503681900382131561211457600080fd5b6001600160401b0381168114610f8b57600080fd5b63ffffffff612889896121cf565b16815260208801356020820152600060408901356128a681612866565b6001600160401b03811660408401525087606083015260e060808301526128d160e0830187896127ac565b6001600160a01b03861660a084015282810360c08401526128f38185876127ac565b9a9950505050505050505050565b60006020828403121561291357600080fd5b81516001600160401b0381111561292957600080fd5b8201601f8101841361293a57600080fd5b805161294861265a82612625565b81815285602083850101111561295d57600080fd5b611429826020830160208601611fd8565b60006040828403121561298057600080fd5b6129886125b0565b82358152602083013560208201528091505092915050565b6000602082840312156129b257600080fd5b813561181b81612866565b60018060a01b038516815283602082015261ffff831660408201526080606082015260006129ee6080830184611ffc565b9695505050505050565b604081526000612a0b6040830185611ffc565b82810360208401526114298185611ffc565b600060208284031215612a2f57600080fd5b815161181b81612212565b6040815263ffffffff8351166040820152602083015160608201526000604084015160a06080840152612a7060e0840182611ffc565b90506060850151603f198483030160a0850152612a8d8282611ffc565b60809690960151151560c08501525050506001600160a01b039190911660209091015290565b600060408284031215612ac557600080fd5b612acd6125b0565b9050815181526020820151602082015292915050565b600060408284031215612af557600080fd5b61181b8383612ab3565b601f821115612b4b576000816000526020600020601f850160051c81016020861015612b285750805b601f850160051c820191505b81811015612b4757828155600101612b34565b5050505b505050565b81516001600160401b03811115612b6957612b6961253e565b612b7d81612b778454612554565b84612aff565b602080601f831160018114612bb25760008415612b9a5750858301515b600019600386901b1c1916600185901b178555612b47565b600085815260208120601f198616915b82811015612be157888601518255948401946001909101908401612bc2565b5085821015612bff5787850151600019600388901b60f8161c191681555b5050505050600190811b01905550565b600060208083018184528085518083526040925060408601915060408160051b87010184880160005b83811015612c8c57888303603f190185528151805163ffffffff1684528781015161ffff16888501528601516060878501819052612c7881860183611ffc565b968901969450505090860190600101612c38565b509098975050505050505050565b600060808284031215612cac57600080fd5b612cb4612588565b825181526020830151612cc681612866565b6020820152612cd88460408501612ab3565b60408201529392505050565b600082612d0157634e487b7160e01b600052601260045260246000fd5b500490565b80820281158282048414176108cd57634e487b7160e01b600052601160045260246000fd5b803560208310156108cd57600019602084900360031b1b1692915050565b6001600160c01b03198135818116916008851015612d715780818660080360031b1b83161692505b505092915050565b6001600160401b0360c01b8560c01b16815263ffffffff60e01b8460e01b16600882015282600c82015260008251612db881602c850160208701611fd8565b91909101602c0195945050505050565b8481526001600160401b0360c01b8460c01b16602082015282602882015260008251612dfb816048850160208701611fd8565b9190910160480195945050505050565b60008251612816818460208701611fd8565b8051600381900b81146121e357600080fd5b600060208284031215612e4157600080fd5b61181b82612e1d565b60006060820160018060a01b0386168352602060078660070b60208601526060604086015282865180855260808701915060208801945060005b81811015612ea2578551840b83529484019491840191600101612e84565b50909998505050505050505050565b8051600781900b81146121e357600080fd5b60008060408385031215612ed657600080fd5b612edf83612e1d565b91506122c460208401612eb1565b600060208284031215612eff57600080fd5b815161181b8161211b565b60006060820160018060a01b038616835260208560070b60208501526060604085015281855180845260808601915060808160051b87010193506020870160005b82811015612f7957607f19888703018452612f67868351611ffc565b95509284019290840190600101612f4b565b50939998505050505050505050565b600080600060608486031215612f9d57600080fd5b612fa684612e1d565b92506020612fb5818601612eb1565b925060408501516001600160401b03811115612fd057600080fd5b8501601f81018713612fe157600080fd5b8051612fef61265a82612602565b81815260059190911b8201830190838101908983111561300e57600080fd5b928401925b828410156130335761302484612eb1565b82529284019290840190613013565b8095505050505050925092509256fea26469706673582212207365e68464692ca14fa660ea50107c6acacedd1330b8b33afc0c3b776630202264736f6c63430008160033",
  "linkReferences": {},
  "deployedLinkReferences": {}
}