{
  "_format": "hh-sol-artifact-1",
  "contractName": "ExampleOFTAdapter",
  "sourceName": "contracts/ExampleOFTAdapter.sol",
  "abi": [
    {
      "inputs": [
        {
          "internalType": "address",
          "name": "_token",
          "type": "address"
        },
        {
          "internalType": "address",
          "name": "_lzEndpoint",
          "type": "address"
        },
        {
          "internalType": "address",
          "name": "_owner",
          "type": "address"
        }
      ],
      "stateMutability": "nonpayable",
      "type": "constructor"
    },
    {
      "inputs": [],
      "name": "InvalidDelegate",
      "type": "error"
    },
    {
      "inputs": [],
      "name": "InvalidEndpointCall",
      "type": "error"
    },
    {
      "inputs": [],
      "name": "InvalidLocalDecimals",
      "type": "error"
    },
    {
      "inputs": [
        {
          "internalType": "bytes",
          "name": "options",
          "type": "bytes"
        }
      ],
      "name": "InvalidOptions",
      "type": "error"
    },
    {
      "inputs": [],
      "name": "LzTokenUnavailable",
      "type": "error"
    },
    {
      "inputs": [
        {
          "internalType": "uint32",
          "name": "eid",
          "type": "uint32"
        }
      ],
      "name": "NoPeer",
      "type": "error"
    },
    {
      "inputs": [
        {
          "internalType": "uint256",
          "name": "msgValue",
          "type": "uint256"
        }
      ],
      "name": "NotEnoughNative",
      "type": "error"
    },
    {
      "inputs": [
        {
          "internalType": "address",
          "name": "addr",
          "type": "address"
        }
      ],
      "name": "OnlyEndpoint",
      "type": "error"
    },
    {
      "inputs": [
        {
          "internalType": "uint32",
          "name": "eid",
          "type": "uint32"
        },
        {
          "internalType": "bytes32",
          "name": "sender",
          "type": "bytes32"
        }
      ],
      "name": "OnlyPeer",
      "type": "error"
    },
    {
      "inputs": [],
      "name": "OnlySelf",
      "type": "error"
    },
    {
      "inputs": [
        {
          "internalType": "address",
          "name": "owner",
          "type": "address"
        }
      ],
      "name": "OwnableInvalidOwner",
      "type": "error"
    },
    {
      "inputs": [
        {
          "internalType": "address",
          "name": "account",
          "type": "address"
        }
      ],
      "name": "OwnableUnauthorizedAccount",
      "type": "error"
    },
    {
      "inputs": [
        {
          "internalType": "address",
          "name": "token",
          "type": "address"
        }
      ],
      "name": "SafeERC20FailedOperation",
      "type": "error"
    },
    {
      "inputs": [
        {
          "internalType": "bytes",
          "name": "result",
          "type": "bytes"
        }
      ],
      "name": "SimulationResult",
      "type": "error"
    },
    {
      "inputs": [
        {
          "internalType": "uint256",
          "name": "amountLD",
          "type": "uint256"
        },
        {
          "internalType": "uint256",
          "name": "minAmountLD",
          "type": "uint256"
        }
      ],
      "name": "SlippageExceeded",
      "type": "error"
    },
    {
      "anonymous": false,
      "inputs": [
        {
          "components": [
            {
              "internalType": "uint32",
              "name": "eid",
              "type": "uint32"
            },
            {
              "internalType": "uint16",
              "name": "msgType",
              "type": "uint16"
            },
            {
              "internalType": "bytes",
              "name": "options",
              "type": "bytes"
            }
          ],
          "indexed": false,
          "internalType": "struct EnforcedOptionParam[]",
          "name": "_enforcedOptions",
          "type": "tuple[]"
        }
      ],
      "name": "EnforcedOptionSet",
      "type": "event"
    },
    {
      "anonymous": false,
      "inputs": [
        {
          "indexed": false,
          "internalType": "address",
          "name": "inspector",
          "type": "address"
        }
      ],
      "name": "MsgInspectorSet",
      "type": "event"
    },
    {
      "anonymous": false,
      "inputs": [
        {
          "indexed": true,
          "internalType": "bytes32",
          "name": "guid",
          "type": "bytes32"
        },
        {
          "indexed": false,
          "internalType": "uint32",
          "name": "srcEid",
          "type": "uint32"
        },
        {
          "indexed": true,
          "internalType": "address",
          "name": "toAddress",
          "type": "address"
        },
        {
          "indexed": false,
          "internalType": "uint256",
          "name": "amountReceivedLD",
          "type": "uint256"
        }
      ],
      "name": "OFTReceived",
      "type": "event"
    },
    {
      "anonymous": false,
      "inputs": [
        {
          "indexed": true,
          "internalType": "bytes32",
          "name": "guid",
          "type": "bytes32"
        },
        {
          "indexed": false,
          "internalType": "uint32",
          "name": "dstEid",
          "type": "uint32"
        },
        {
          "indexed": true,
          "internalType": "address",
          "name": "fromAddress",
          "type": "address"
        },
        {
          "indexed": false,
          "internalType": "uint256",
          "name": "amountSentLD",
          "type": "uint256"
        },
        {
          "indexed": false,
          "internalType": "uint256",
          "name": "amountReceivedLD",
          "type": "uint256"
        }
      ],
      "name": "OFTSent",
      "type": "event"
    },
    {
      "anonymous": false,
      "inputs": [
        {
          "indexed": true,
          "internalType": "address",
          "name": "previousOwner",
          "type": "address"
        },
        {
          "indexed": true,
          "internalType": "address",
          "name": "newOwner",
          "type": "address"
        }
      ],
      "name": "OwnershipTransferred",
      "type": "event"
    },
    {
      "anonymous": false,
      "inputs": [
        {
          "indexed": false,
          "internalType": "uint32",
          "name": "eid",
          "type": "uint32"
        },
        {
          "indexed": false,
          "internalType": "bytes32",
          "name": "peer",
          "type": "bytes32"
        }
      ],
      "name": "PeerSet",
      "type": "event"
    },
    {
      "anonymous": false,
      "inputs": [
        {
          "indexed": false,
          "internalType": "address",
          "name": "preCrimeAddress",
          "type": "address"
        }
      ],
      "name": "PreCrimeSet",
      "type": "event"
    },
    {
      "inputs": [],
      "name": "SEND",
      "outputs": [
        {
          "internalType": "uint16",
          "name": "",
          "type": "uint16"
        }
      ],
      "stateMutability": "view",
      "type": "function"
    },
    {
      "inputs": [],
      "name": "SEND_AND_CALL",
      "outputs": [
        {
          "internalType": "uint16",
          "name": "",
          "type": "uint16"
        }
      ],
      "stateMutability": "view",
      "type": "function"
    },
    {
      "inputs": [
        {
          "components": [
            {
              "internalType": "uint32",
              "name": "srcEid",
              "type": "uint32"
            },
            {
              "internalType": "bytes32",
              "name": "sender",
              "type": "bytes32"
            },
            {
              "internalType": "uint64",
              "name": "nonce",
              "type": "uint64"
            }
          ],
          "internalType": "struct Origin",
          "name": "origin",
          "type": "tuple"
        }
      ],
      "name": "allowInitializePath",
      "outputs": [
        {
          "internalType": "bool",
          "name": "",
          "type": "bool"
        }
      ],
      "stateMutability": "view",
      "type": "function"
    },
    {
      "inputs": [],
      "name": "approvalRequired",
      "outputs": [
        {
          "internalType": "bool",
          "name": "",
          "type": "bool"
        }
      ],
      "stateMutability": "pure",
      "type": "function"
    },
    {
      "inputs": [
        {
          "internalType": "uint32",
          "name": "_eid",
          "type": "uint32"
        },
        {
          "internalType": "uint16",
          "name": "_msgType",
          "type": "uint16"
        },
        {
          "internalType": "bytes",
          "name": "_extraOptions",
          "type": "bytes"
        }
      ],
      "name": "combineOptions",
      "outputs": [
        {
          "internalType": "bytes",
          "name": "",
          "type": "bytes"
        }
      ],
      "stateMutability": "view",
      "type": "function"
    },
    {
      "inputs": [],
      "name": "decimalConversionRate",
      "outputs": [
        {
          "internalType": "uint256",
          "name": "",
          "type": "uint256"
        }
      ],
      "stateMutability": "view",
      "type": "function"
    },
    {
      "inputs": [],
      "name": "endpoint",
      "outputs": [
        {
          "internalType": "contract ILayerZeroEndpointV2",
          "name": "",
          "type": "address"
        }
      ],
      "stateMutability": "view",
      "type": "function"
    },
    {
      "inputs": [
        {
          "internalType": "uint32",
          "name": "eid",
          "type": "uint32"
        },
        {
          "internalType": "uint16",
          "name": "msgType",
          "type": "uint16"
        }
      ],
      "name": "enforcedOptions",
      "outputs": [
        {
          "internalType": "bytes",
          "name": "enforcedOption",
          "type": "bytes"
        }
      ],
      "stateMutability": "view",
      "type": "function"
    },
    {
      "inputs": [
        {
          "components": [
            {
              "internalType": "uint32",
              "name": "srcEid",
              "type": "uint32"
            },
            {
              "internalType": "bytes32",
              "name": "sender",
              "type": "bytes32"
            },
            {
              "internalType": "uint64",
              "name": "nonce",
              "type": "uint64"
            }
          ],
          "internalType": "struct Origin",
          "name": "",
          "type": "tuple"
        },
        {
          "internalType": "bytes",
          "name": "",
          "type": "bytes"
        },
        {
          "internalType": "address",
          "name": "_sender",
          "type": "address"
        }
      ],
      "name": "isComposeMsgSender",
      "outputs": [
        {
          "internalType": "bool",
          "name": "",
          "type": "bool"
        }
      ],
      "stateMutability": "view",
      "type": "function"
    },
    {
      "inputs": [
        {
          "internalType": "uint32",
          "name": "_eid",
          "type": "uint32"
        },
        {
          "internalType": "bytes32",
          "name": "_peer",
          "type": "bytes32"
        }
      ],
      "name": "isPeer",
      "outputs": [
        {
          "internalType": "bool",
          "name": "",
          "type": "bool"
        }
      ],
      "stateMutability": "view",
      "type": "function"
    },
    {
      "inputs": [
        {
          "components": [
            {
              "internalType": "uint32",
              "name": "srcEid",
              "type": "uint32"
            },
            {
              "internalType": "bytes32",
              "name": "sender",
              "type": "bytes32"
            },
            {
              "internalType": "uint64",
              "name": "nonce",
              "type": "uint64"
            }
          ],
          "internalType": "struct Origin",
          "name": "_origin",
          "type": "tuple"
        },
        {
          "internalType": "bytes32",
          "name": "_guid",
          "type": "bytes32"
        },
        {
          "internalType": "bytes",
          "name": "_message",
          "type": "bytes"
        },
        {
          "internalType": "address",
          "name": "_executor",
          "type": "address"
        },
        {
          "internalType": "bytes",
          "name": "_extraData",
          "type": "bytes"
        }
      ],
      "name": "lzReceive",
      "outputs": [],
      "stateMutability": "payable",
      "type": "function"
    },
    {
      "inputs": [
        {
          "components": [
            {
              "components": [
                {
                  "internalType": "uint32",
                  "name": "srcEid",
                  "type": "uint32"
                },
                {
                  "internalType": "bytes32",
                  "name": "sender",
                  "type": "bytes32"
                },
                {
                  "internalType": "uint64",
                  "name": "nonce",
                  "type": "uint64"
                }
              ],
              "internalType": "struct Origin",
              "name": "origin",
              "type": "tuple"
            },
            {
              "internalType": "uint32",
              "name": "dstEid",
              "type": "uint32"
            },
            {
              "internalType": "address",
              "name": "receiver",
              "type": "address"
            },
            {
              "internalType": "bytes32",
              "name": "guid",
              "type": "bytes32"
            },
            {
              "internalType": "uint256",
              "name": "value",
              "type": "uint256"
            },
            {
              "internalType": "address",
              "name": "executor",
              "type": "address"
            },
            {
              "internalType": "bytes",
              "name": "message",
              "type": "bytes"
            },
            {
              "internalType": "bytes",
              "name": "extraData",
              "type": "bytes"
            }
          ],
          "internalType": "struct InboundPacket[]",
          "name": "_packets",
          "type": "tuple[]"
        }
      ],
      "name": "lzReceiveAndRevert",
      "outputs": [],
      "stateMutability": "payable",
      "type": "function"
    },
    {
      "inputs": [
        {
          "components": [
            {
              "internalType": "uint32",
              "name": "srcEid",
              "type": "uint32"
            },
            {
              "internalType": "bytes32",
              "name": "sender",
              "type": "bytes32"
            },
            {
              "internalType": "uint64",
              "name": "nonce",
              "type": "uint64"
            }
          ],
          "internalType": "struct Origin",
          "name": "_origin",
          "type": "tuple"
        },
        {
          "internalType": "bytes32",
          "name": "_guid",
          "type": "bytes32"
        },
        {
          "internalType": "bytes",
          "name": "_message",
          "type": "bytes"
        },
        {
          "internalType": "address",
          "name": "_executor",
          "type": "address"
        },
        {
          "internalType": "bytes",
          "name": "_extraData",
          "type": "bytes"
        }
      ],
      "name": "lzReceiveSimulate",
      "outputs": [],
      "stateMutability": "payable",
      "type": "function"
    },
    {
      "inputs": [],
      "name": "msgInspector",
      "outputs": [
        {
          "internalType": "address",
          "name": "",
          "type": "address"
        }
      ],
      "stateMutability": "view",
      "type": "function"
    },
    {
      "inputs": [
        {
          "internalType": "uint32",
          "name": "",
          "type": "uint32"
        },
        {
          "internalType": "bytes32",
          "name": "",
          "type": "bytes32"
        }
      ],
      "name": "nextNonce",
      "outputs": [
        {
          "internalType": "uint64",
          "name": "nonce",
          "type": "uint64"
        }
      ],
      "stateMutability": "view",
      "type": "function"
    },
    {
      "inputs": [],
      "name": "oApp",
      "outputs": [
        {
          "internalType": "address",
          "name": "",
          "type": "address"
        }
      ],
      "stateMutability": "view",
      "type": "function"
    },
    {
      "inputs": [],
      "name": "oAppVersion",
      "outputs": [
        {
          "internalType": "uint64",
          "name": "senderVersion",
          "type": "uint64"
        },
        {
          "internalType": "uint64",
          "name": "receiverVersion",
          "type": "uint64"
        }
      ],
      "stateMutability": "pure",
      "type": "function"
    },
    {
      "inputs": [],
      "name": "oftVersion",
      "outputs": [
        {
          "internalType": "bytes4",
          "name": "interfaceId",
          "type": "bytes4"
        },
        {
          "internalType": "uint64",
          "name": "version",
          "type": "uint64"
        }
      ],
      "stateMutability": "pure",
      "type": "function"
    },
    {
      "inputs": [],
      "name": "owner",
      "outputs": [
        {
          "internalType": "address",
          "name": "",
          "type": "address"
        }
      ],
      "stateMutability": "view",
      "type": "function"
    },
    {
      "inputs": [
        {
          "internalType": "uint32",
          "name": "eid",
          "type": "uint32"
        }
      ],
      "name": "peers",
      "outputs": [
        {
          "internalType": "bytes32",
          "name": "peer",
          "type": "bytes32"
        }
      ],
      "stateMutability": "view",
      "type": "function"
    },
    {
      "inputs": [],
      "name": "preCrime",
      "outputs": [
        {
          "internalType": "address",
          "name": "",
          "type": "address"
        }
      ],
      "stateMutability": "view",
      "type": "function"
    },
    {
      "inputs": [
        {
          "components": [
            {
              "internalType": "uint32",
              "name": "dstEid",
              "type": "uint32"
            },
            {
              "internalType": "bytes32",
              "name": "to",
              "type": "bytes32"
            },
            {
              "internalType": "uint256",
              "name": "amountLD",
              "type": "uint256"
            },
            {
              "internalType": "uint256",
              "name": "minAmountLD",
              "type": "uint256"
            },
            {
              "internalType": "bytes",
              "name": "extraOptions",
              "type": "bytes"
            },
            {
              "internalType": "bytes",
              "name": "composeMsg",
              "type": "bytes"
            },
            {
              "internalType": "bytes",
              "name": "oftCmd",
              "type": "bytes"
            }
          ],
          "internalType": "struct SendParam",
          "name": "_sendParam",
          "type": "tuple"
        }
      ],
      "name": "quoteOFT",
      "outputs": [
        {
          "components": [
            {
              "internalType": "uint256",
              "name": "minAmountLD",
              "type": "uint256"
            },
            {
              "internalType": "uint256",
              "name": "maxAmountLD",
              "type": "uint256"
            }
          ],
          "internalType": "struct OFTLimit",
          "name": "oftLimit",
          "type": "tuple"
        },
        {
          "components": [
            {
              "internalType": "int256",
              "name": "feeAmountLD",
              "type": "int256"
            },
            {
              "internalType": "string",
              "name": "description",
              "type": "string"
            }
          ],
          "internalType": "struct OFTFeeDetail[]",
          "name": "oftFeeDetails",
          "type": "tuple[]"
        },
        {
          "components": [
            {
              "internalType": "uint256",
              "name": "amountSentLD",
              "type": "uint256"
            },
            {
              "internalType": "uint256",
              "name": "amountReceivedLD",
              "type": "uint256"
            }
          ],
          "internalType": "struct OFTReceipt",
          "name": "oftReceipt",
          "type": "tuple"
        }
      ],
      "stateMutability": "view",
      "type": "function"
    },
    {
      "inputs": [
        {
          "components": [
            {
              "internalType": "uint32",
              "name": "dstEid",
              "type": "uint32"
            },
            {
              "internalType": "bytes32",
              "name": "to",
              "type": "bytes32"
            },
            {
              "internalType": "uint256",
              "name": "amountLD",
              "type": "uint256"
            },
            {
              "internalType": "uint256",
              "name": "minAmountLD",
              "type": "uint256"
            },
            {
              "internalType": "bytes",
              "name": "extraOptions",
              "type": "bytes"
            },
            {
              "internalType": "bytes",
              "name": "composeMsg",
              "type": "bytes"
            },
            {
              "internalType": "bytes",
              "name": "oftCmd",
              "type": "bytes"
            }
          ],
          "internalType": "struct SendParam",
          "name": "_sendParam",
          "type": "tuple"
        },
        {
          "internalType": "bool",
          "name": "_payInLzToken",
          "type": "bool"
        }
      ],
      "name": "quoteSend",
      "outputs": [
        {
          "components": [
            {
              "internalType": "uint256",
              "name": "nativeFee",
              "type": "uint256"
            },
            {
              "internalType": "uint256",
              "name": "lzTokenFee",
              "type": "uint256"
            }
          ],
          "internalType": "struct MessagingFee",
          "name": "msgFee",
          "type": "tuple"
        }
      ],
      "stateMutability": "view",
      "type": "function"
    },
    {
      "inputs": [],
      "name": "renounceOwnership",
      "outputs": [],
      "stateMutability": "nonpayable",
      "type": "function"
    },
    {
      "inputs": [
        {
          "components": [
            {
              "internalType": "uint32",
              "name": "dstEid",
              "type": "uint32"
            },
            {
              "internalType": "bytes32",
              "name": "to",
              "type": "bytes32"
            },
            {
              "internalType": "uint256",
              "name": "amountLD",
              "type": "uint256"
            },
            {
              "internalType": "uint256",
              "name": "minAmountLD",
              "type": "uint256"
            },
            {
              "internalType": "bytes",
              "name": "extraOptions",
              "type": "bytes"
            },
            {
              "internalType": "bytes",
              "name": "composeMsg",
              "type": "bytes"
            },
            {
              "internalType": "bytes",
              "name": "oftCmd",
              "type": "bytes"
            }
          ],
          "internalType": "struct SendParam",
          "name": "_sendParam",
          "type": "tuple"
        },
        {
          "components": [
            {
              "internalType": "uint256",
              "name": "nativeFee",
              "type": "uint256"
            },
            {
              "internalType": "uint256",
              "name": "lzTokenFee",
              "type": "uint256"
            }
          ],
          "internalType": "struct MessagingFee",
          "name": "_fee",
          "type": "tuple"
        },
        {
          "internalType": "address",
          "name": "_refundAddress",
          "type": "address"
        }
      ],
      "name": "send",
      "outputs": [
        {
          "components": [
            {
              "internalType": "bytes32",
              "name": "guid",
              "type": "bytes32"
            },
            {
              "internalType": "uint64",
              "name": "nonce",
              "type": "uint64"
            },
            {
              "components": [
                {
                  "internalType": "uint256",
                  "name": "nativeFee",
                  "type": "uint256"
                },
                {
                  "internalType": "uint256",
                  "name": "lzTokenFee",
                  "type": "uint256"
                }
              ],
              "internalType": "struct MessagingFee",
              "name": "fee",
              "type": "tuple"
            }
          ],
          "internalType": "struct MessagingReceipt",
          "name": "msgReceipt",
          "type": "tuple"
        },
        {
          "components": [
            {
              "internalType": "uint256",
              "name": "amountSentLD",
              "type": "uint256"
            },
            {
              "internalType": "uint256",
              "name": "amountReceivedLD",
              "type": "uint256"
            }
          ],
          "internalType": "struct OFTReceipt",
          "name": "oftReceipt",
          "type": "tuple"
        }
      ],
      "stateMutability": "payable",
      "type": "function"
    },
    {
      "inputs": [
        {
          "internalType": "address",
          "name": "_delegate",
          "type": "address"
        }
      ],
      "name": "setDelegate",
      "outputs": [],
      "stateMutability": "nonpayable",
      "type": "function"
    },
    {
      "inputs": [
        {
          "components": [
            {
              "internalType": "uint32",
              "name": "eid",
              "type": "uint32"
            },
            {
              "internalType": "uint16",
              "name": "msgType",
              "type": "uint16"
            },
            {
              "internalType": "bytes",
              "name": "options",
              "type": "bytes"
            }
          ],
          "internalType": "struct EnforcedOptionParam[]",
          "name": "_enforcedOptions",
          "type": "tuple[]"
        }
      ],
      "name": "setEnforcedOptions",
      "outputs": [],
      "stateMutability": "nonpayable",
      "type": "function"
    },
    {
      "inputs": [
        {
          "internalType": "address",
          "name": "_msgInspector",
          "type": "address"
        }
      ],
      "name": "setMsgInspector",
      "outputs": [],
      "stateMutability": "nonpayable",
      "type": "function"
    },
    {
      "inputs": [
        {
          "internalType": "uint32",
          "name": "_eid",
          "type": "uint32"
        },
        {
          "internalType": "bytes32",
          "name": "_peer",
          "type": "bytes32"
        }
      ],
      "name": "setPeer",
      "outputs": [],
      "stateMutability": "nonpayable",
      "type": "function"
    },
    {
      "inputs": [
        {
          "internalType": "address",
          "name": "_preCrime",
          "type": "address"
        }
      ],
      "name": "setPreCrime",
      "outputs": [],
      "stateMutability": "nonpayable",
      "type": "function"
    },
    {
      "inputs": [],
      "name": "sharedDecimals",
      "outputs": [
        {
          "internalType": "uint8",
          "name": "",
          "type": "uint8"
        }
      ],
      "stateMutability": "view",
      "type": "function"
    },
    {
      "inputs": [],
      "name": "token",
      "outputs": [
        {
          "internalType": "address",
          "name": "",
          "type": "address"
        }
      ],
      "stateMutability": "view",
      "type": "function"
    },
    {
      "inputs": [
        {
          "internalType": "address",
          "name": "newOwner",
          "type": "address"
        }
      ],
      "name": "transferOwnership",
      "outputs": [],
      "stateMutability": "nonpayable",
      "type": "function"
    }
  ],
  "bytecode": "0x60e06040523480156200001157600080fd5b5060405162002eb838038062002eb8833981016040819052620000349162000254565b828282826001600160a01b031663313ce5676040518163ffffffff1660e01b8152600401602060405180830381865afa15801562000076573d6000803e3d6000fd5b505050506040513d601f19601f820116820180604052508101906200009c91906200029e565b8282818181818a6001600160a01b038116620000d257604051631e4fbdf760e01b81526000600482015260240160405180910390fd5b620000dd81620001e2565b506001600160a01b0380831660805281166200010c57604051632d618d8160e21b815260040160405180910390fd5b60805160405163ca5eb5e160e01b81526001600160a01b0383811660048301529091169063ca5eb5e190602401600060405180830381600087803b1580156200015457600080fd5b505af115801562000169573d6000803e3d6000fd5b5050505050505050620001816200023260201b60201c565b60ff168360ff161015620001a8576040516301e9714b60e41b815260040160405180910390fd5b620001b5600684620002e0565b620001c290600a620003ff565b60a0525050506001600160a01b0390921660c05250620004109350505050565b600080546001600160a01b038381166001600160a01b0319831681178455604051919092169283917f8be0079c531659141344cd1fd0a4f28419497f9722a3daafe3b4186f6b6457e09190a35050565b600690565b80516001600160a01b03811681146200024f57600080fd5b919050565b6000806000606084860312156200026a57600080fd5b620002758462000237565b9250620002856020850162000237565b9150620002956040850162000237565b90509250925092565b600060208284031215620002b157600080fd5b815160ff81168114620002c357600080fd5b9392505050565b634e487b7160e01b600052601160045260246000fd5b60ff8281168282160390811115620002fc57620002fc620002ca565b92915050565b600181815b8085111562000343578160001904821115620003275762000327620002ca565b808516156200033557918102915b93841c939080029062000307565b509250929050565b6000826200035c57506001620002fc565b816200036b57506000620002fc565b81600181146200038457600281146200038f57620003af565b6001915050620002fc565b60ff841115620003a357620003a3620002ca565b50506001821b620002fc565b5060208310610133831016604e8410600b8410161715620003d4575081810a620002fc565b620003e0838362000302565b8060001904821115620003f757620003f7620002ca565b029392505050565b6000620002c360ff8416836200034b565b60805160a05160c051612a246200049460003960008181610669015281816115bf01526117b80152600081816104e2015281816116ff0152818161177b015261186b0152600081816103e40152818161078001528181610e56015281816110c30152818161135101528181611623015281816119a30152611a5c0152612a246000f3fe6080604052600436106101ee5760003560e01c806382413eac1161010d578063bc70b354116100a0578063d045a0dc1161006f578063d045a0dc14610607578063d42438851461061a578063f2fde38b1461063a578063fc0c546a1461065a578063ff7bd03d1461068d57600080fd5b8063bc70b35414610593578063bd815db0146105b3578063c7c7f5b3146105c6578063ca5eb5e1146105e757600080fd5b80639f68b964116100dc5780639f68b96414610512578063b731ea0a14610526578063b98bd07014610546578063bb0b6a531461056657600080fd5b806382413eac14610476578063857749b0146104965780638da5cb5b146104b2578063963efcaa146104d057600080fd5b80633b6f743b116101855780635e280f11116101545780635e280f11146103d25780636fc1b31e14610406578063715018a6146104265780637d25a05e1461043b57600080fd5b80633b6f743b1461031e57806352ae28791461034b5780635535d4611461035e5780635a0dfe4d1461038b57600080fd5b8063156a0d0f116101c1578063156a0d0f146102a057806317442b70146102c75780631f5e1334146102e95780633400288b146102fe57600080fd5b80630d35b415146101f3578063111ecdad1461022b57806313137d6514610263578063134d4f2514610278575b600080fd5b3480156101ff57600080fd5b5061021361020e366004611b87565b6106ad565b60405161022293929190611c0b565b60405180910390f35b34801561023757600080fd5b5060045461024b906001600160a01b031681565b6040516001600160a01b039091168152602001610222565b610276610271366004611d13565b61077e565b005b34801561028457600080fd5b5061028d600281565b60405161ffff9091168152602001610222565b3480156102ac57600080fd5b506040805162b9270b60e21b81526001602082015201610222565b3480156102d357600080fd5b5060408051600181526002602082015201610222565b3480156102f557600080fd5b5061028d600181565b34801561030a57600080fd5b50610276610319366004611dcb565b61083e565b34801561032a57600080fd5b5061033e610339366004611e03565b610854565b6040516102229190611e54565b34801561035757600080fd5b503061024b565b34801561036a57600080fd5b5061037e610379366004611e7d565b6108bd565b6040516102229190611eb0565b34801561039757600080fd5b506103c26103a6366004611dcb565b63ffffffff919091166000908152600160205260409020541490565b6040519015158152602001610222565b3480156103de57600080fd5b5061024b7f000000000000000000000000000000000000000000000000000000000000000081565b34801561041257600080fd5b50610276610421366004611ec3565b610962565b34801561043257600080fd5b506102766109bf565b34801561044757600080fd5b5061045e610456366004611dcb565b600092915050565b6040516001600160401b039091168152602001610222565b34801561048257600080fd5b506103c2610491366004611ee0565b6109d3565b3480156104a257600080fd5b5060405160068152602001610222565b3480156104be57600080fd5b506000546001600160a01b031661024b565b3480156104dc57600080fd5b506105047f000000000000000000000000000000000000000000000000000000000000000081565b604051908152602001610222565b34801561051e57600080fd5b5060016103c2565b34801561053257600080fd5b5060025461024b906001600160a01b031681565b34801561055257600080fd5b50610276610561366004611f8a565b6109e8565b34801561057257600080fd5b50610504610581366004611fcb565b60016020526000908152604090205481565b34801561059f57600080fd5b5061037e6105ae366004611fe6565b610a02565b6102766105c1366004611f8a565b610baa565b6105d96105d4366004612046565b610d34565b6040516102229291906120b3565b3480156105f357600080fd5b50610276610602366004611ec3565b610e2f565b610276610615366004611d13565b610eb5565b34801561062657600080fd5b50610276610635366004611ec3565b610ee4565b34801561064657600080fd5b50610276610655366004611ec3565b610f3a565b34801561066657600080fd5b507f000000000000000000000000000000000000000000000000000000000000000061024b565b34801561069957600080fd5b506103c26106a8366004612105565b610f78565b604080518082019091526000808252602082015260606106e0604051806040016040528060008152602001600081525090565b60408051808201825260008082526001600160401b0360208084018290528451838152908101909452919550918261073b565b6040805180820190915260008152606060208201528152602001906001900390816107135790505b509350600080610760604089013560608a013561075b60208c018c611fcb565b610fae565b60408051808201909152918252602082015296989597505050505050565b7f00000000000000000000000000000000000000000000000000000000000000006001600160a01b031633146107ce576040516391ac5e4f60e01b81523360048201526024015b60405180910390fd5b602087018035906107e8906107e3908a611fcb565b610ff2565b14610826576107fa6020880188611fcb565b60405163309afaf360e21b815263ffffffff9091166004820152602088013560248201526044016107c5565b6108358787878787878761102e565b50505050505050565b610846611195565b61085082826111c2565b5050565b604080518082019091526000808252602082015260006108846040850135606086013561075b6020880188611fcb565b9150506000806108948684611217565b90925090506108b16108a96020880188611fcb565b83838861133b565b93505050505b92915050565b6003602090815260009283526040808420909152908252902080546108e190612137565b80601f016020809104026020016040519081016040528092919081815260200182805461090d90612137565b801561095a5780601f1061092f5761010080835404028352916020019161095a565b820191906000526020600020905b81548152906001019060200180831161093d57829003601f168201915b505050505081565b61096a611195565b600480546001600160a01b0319166001600160a01b0383169081179091556040519081527ff0be4f1e87349231d80c36b33f9e8639658eeaf474014dee15a3e6a4d4414197906020015b60405180910390a150565b6109c7611195565b6109d1600061141c565b565b6001600160a01b03811630145b949350505050565b6109f0611195565b6108506109fd828461220c565b61146c565b63ffffffff8416600090815260036020908152604080832061ffff87168452909152812080546060929190610a3690612137565b80601f0160208091040260200160405190810160405280929190818152602001828054610a6290612137565b8015610aaf5780601f10610a8457610100808354040283529160200191610aaf565b820191906000526020600020905b815481529060010190602001808311610a9257829003601f168201915b505050505090508051600003610aff5783838080601f0160208091040260200160405190810160405280939291908181526020018383808284376000920191909152509294506109e09350505050565b6000839003610b0f5790506109e0565b60028310610b8d57610b5684848080601f01602080910402602001604051908101604052809392919081815260200183838082843760009201919091525061157392505050565b80610b648460028188612321565b604051602001610b769392919061234b565b6040516020818303038152906040529150506109e0565b8383604051639a6d49cd60e01b81526004016107c592919061239c565b60005b81811015610cb35736838383818110610bc857610bc86123b0565b9050602002810190610bda91906123c6565b9050610c0d610bec6020830183611fcb565b602083013563ffffffff919091166000908152600160205260409020541490565b610c175750610cab565b3063d045a0dc60c08301358360a0810135610c366101008301836123e7565b610c47610100890160e08a01611ec3565b610c556101208a018a6123e7565b6040518963ffffffff1660e01b8152600401610c779796959493929190612442565b6000604051808303818588803b158015610c9057600080fd5b505af1158015610ca4573d6000803e3d6000fd5b5050505050505b600101610bad565b50336001600160a01b0316638e9e70996040518163ffffffff1660e01b8152600401600060405180830381865afa158015610cf2573d6000803e3d6000fd5b505050506040513d6000823e601f3d908101601f19168201604052610d1a91908101906124c8565b604051638351eea760e01b81526004016107c59190611eb0565b610d3c611b28565b6040805180820190915260008082526020820152600080610d7333604089013560608a0135610d6e60208c018c611fcb565b61159f565b91509150600080610d848984611217565b9092509050610db0610d9960208b018b611fcb565b8383610daa368d90038d018d612535565b8b6115f0565b60408051808201909152858152602080820186905282519298509096503391907f85496b760a4b7f8d66384b9df21b381f5d1b1e79f229a47aaf4c232edc2fe59a90610dfe908d018d611fcb565b6040805163ffffffff909216825260208201899052810187905260600160405180910390a350505050935093915050565b610e37611195565b60405163ca5eb5e160e01b81526001600160a01b0382811660048301527f0000000000000000000000000000000000000000000000000000000000000000169063ca5eb5e190602401600060405180830381600087803b158015610e9a57600080fd5b505af1158015610eae573d6000803e3d6000fd5b5050505050565b333014610ed55760405163029a949d60e31b815260040160405180910390fd5b61083587878787878787610826565b610eec611195565b600280546001600160a01b0319166001600160a01b0383169081179091556040519081527fd48d879cef83a1c0bdda516f27b13ddb1b3f8bbac1c9e1511bb2a659c2427760906020016109b4565b610f42611195565b6001600160a01b038116610f6c57604051631e4fbdf760e01b8152600060048201526024016107c5565b610f758161141c565b50565b6000602082018035906001908390610f909086611fcb565b63ffffffff1681526020810191909152604001600020541492915050565b600080610fba856116fb565b915081905083811015610fea576040516371c4efed60e01b815260048101829052602481018590526044016107c5565b935093915050565b63ffffffff8116600090815260016020526040812054806108b75760405163f6ff4fb760e01b815263ffffffff841660048201526024016107c5565b600061104061103d8787611732565b90565b9050600061106c8261105a6110558a8a611751565b611774565b61106760208d018d611fcb565b6117a9565b905060288611156111335760006110a961108c60608c0160408d01612567565b61109960208d018d611fcb565b846110a48c8c6117e7565b611832565b604051633e5ac80960e11b81529091506001600160a01b037f00000000000000000000000000000000000000000000000000000000000000001690637cb59012906110ff9086908d906000908790600401612584565b600060405180830381600087803b15801561111957600080fd5b505af115801561112d573d6000803e3d6000fd5b50505050505b6001600160a01b038216887fefed6d3500546b29533b128a29e3a94d70788727f0507505ac12eaf2e578fd9c61116c60208d018d611fcb565b6040805163ffffffff9092168252602082018690520160405180910390a3505050505050505050565b6000546001600160a01b031633146109d15760405163118cdaa760e01b81523360048201526024016107c5565b63ffffffff8216600081815260016020908152604091829020849055815192835282018390527f238399d427b947898edb290f5ff0f9109849b1c3ba196a42e35f00c50a54b98b910160405180910390a15050565b6060806000611274856020013561122d86611864565b61123a60a08901896123e7565b8080601f01602080910402602001604051908101604052809392919081815260200183838082843760009201919091525061189092505050565b909350905060008161128757600161128a565b60025b90506112aa61129c6020880188611fcb565b826105ae60808a018a6123e7565b6004549093506001600160a01b031615611332576004805460405163043a78eb60e01b81526001600160a01b039091169163043a78eb916112ef9188918891016125bf565b602060405180830381865afa15801561130c573d6000803e3d6000fd5b505050506040513d601f19601f8201168201806040525081019061133091906125e4565b505b50509250929050565b60408051808201909152600080825260208201527f00000000000000000000000000000000000000000000000000000000000000006001600160a01b031663ddc28c586040518060a001604052808863ffffffff16815260200161139e89610ff2565b8152602001878152602001868152602001851515815250306040518363ffffffff1660e01b81526004016113d3929190612601565b6040805180830381865afa1580156113ef573d6000803e3d6000fd5b505050506040513d601f19601f8201168201806040525081019061141391906126aa565b95945050505050565b600080546001600160a01b038381166001600160a01b0319831681178455604051919092169283917f8be0079c531659141344cd1fd0a4f28419497f9722a3daafe3b4186f6b6457e09190a35050565b60005b81518110156115435761149e82828151811061148d5761148d6123b0565b602002602001015160400151611573565b8181815181106114b0576114b06123b0565b602002602001015160400151600360008484815181106114d2576114d26123b0565b60200260200101516000015163ffffffff1663ffffffff168152602001908152602001600020600084848151811061150c5761150c6123b0565b60200260200101516020015161ffff1661ffff168152602001908152602001600020908161153a9190612716565b5060010161146f565b507fbe4864a8e820971c0247f5992e2da559595f7bf076a21cb5928d443d2a13b674816040516109b491906127d5565b600281015161ffff81166003146108505781604051639a6d49cd60e01b81526004016107c59190611eb0565b6000806115ad858585610fae565b90925090506115e76001600160a01b037f00000000000000000000000000000000000000000000000000000000000000001687308561190a565b94509492505050565b6115f8611b28565b60006116078460000151611977565b60208501519091501561162157611621846020015161199f565b7f00000000000000000000000000000000000000000000000000000000000000006001600160a01b0316632637a450826040518060a001604052808b63ffffffff1681526020016116718c610ff2565b81526020018a815260200189815260200160008960200151111515815250866040518463ffffffff1660e01b81526004016116ad929190612601565b60806040518083038185885af11580156116cb573d6000803e3d6000fd5b50505050506040513d601f19601f820116820180604052508101906116f09190612860565b979650505050505050565b60007f000000000000000000000000000000000000000000000000000000000000000061172881846128aa565b6108b791906128cc565b60006117416020828486612321565b61174a916128f1565b9392505050565b6000611761602860208486612321565b61176a9161290f565b60c01c9392505050565b60006108b77f00000000000000000000000000000000000000000000000000000000000000006001600160401b0384166128cc565b60006117df6001600160a01b037f0000000000000000000000000000000000000000000000000000000000000000168585611a81565b509092915050565b60606117f68260288186612321565b8080601f016020809104026020016040519081016040528093929190818152602001838380828437600092019190915250929695505050505050565b60608484848460405160200161184b949392919061293f565b6040516020818303038152906040529050949350505050565b60006108b77f0000000000000000000000000000000000000000000000000000000000000000836128aa565b80516060901515806118d95784846040516020016118c592919091825260c01b6001600160c01b031916602082015260280190565b604051602081830303815290604052611900565b848433856040516020016118f0949392919061298e565b6040516020818303038152906040525b9150935093915050565b6040516001600160a01b0384811660248301528381166044830152606482018390526119719186918216906323b872dd906084015b604051602081830303815290604052915060e01b6020820180516001600160e01b038381831617835250505050611ab7565b50505050565b600081341461199b576040516304fb820960e51b81523460048201526024016107c5565b5090565b60007f00000000000000000000000000000000000000000000000000000000000000006001600160a01b031663e4fe1d946040518163ffffffff1660e01b8152600401602060405180830381865afa1580156119ff573d6000803e3d6000fd5b505050506040513d601f19601f82011682018060405250810190611a2391906129d1565b90506001600160a01b038116611a4c576040516329b99a9560e11b815260040160405180910390fd5b6108506001600160a01b038216337f00000000000000000000000000000000000000000000000000000000000000008561190a565b6040516001600160a01b03838116602483015260448201839052611ab291859182169063a9059cbb9060640161193f565b505050565b600080602060008451602086016000885af180611ada576040513d6000823e3d81fd5b50506000513d91508115611af2578060011415611aff565b6001600160a01b0384163b155b1561197157604051635274afe760e01b81526001600160a01b03851660048201526024016107c5565b60405180606001604052806000801916815260200160006001600160401b03168152602001611b6a604051806040016040528060008152602001600081525090565b905290565b600060e08284031215611b8157600080fd5b50919050565b600060208284031215611b9957600080fd5b81356001600160401b03811115611baf57600080fd5b6109e084828501611b6f565b60005b83811015611bd6578181015183820152602001611bbe565b50506000910152565b60008151808452611bf7816020860160208601611bbb565b601f01601f19169290920160200192915050565b8351815260208085015190820152600060a08201604060a0604085015281865180845260c08601915060c08160051b8701019350602080890160005b83811015611c865788870360bf19018552815180518852830151838801879052611c7387890182611bdf565b9750509382019390820190600101611c47565b505087516060880152505050602085015160808501525090506109e0565b600060608284031215611b8157600080fd5b60008083601f840112611cc857600080fd5b5081356001600160401b03811115611cdf57600080fd5b602083019150836020828501011115611cf757600080fd5b9250929050565b6001600160a01b0381168114610f7557600080fd5b600080600080600080600060e0888a031215611d2e57600080fd5b611d388989611ca4565b96506060880135955060808801356001600160401b0380821115611d5b57600080fd5b611d678b838c01611cb6565b909750955060a08a01359150611d7c82611cfe565b90935060c08901359080821115611d9257600080fd5b50611d9f8a828b01611cb6565b989b979a50959850939692959293505050565b803563ffffffff81168114611dc657600080fd5b919050565b60008060408385031215611dde57600080fd5b611de783611db2565b946020939093013593505050565b8015158114610f7557600080fd5b60008060408385031215611e1657600080fd5b82356001600160401b03811115611e2c57600080fd5b611e3885828601611b6f565b9250506020830135611e4981611df5565b809150509250929050565b8151815260208083015190820152604081016108b7565b803561ffff81168114611dc657600080fd5b60008060408385031215611e9057600080fd5b611e9983611db2565b9150611ea760208401611e6b565b90509250929050565b60208152600061174a6020830184611bdf565b600060208284031215611ed557600080fd5b813561174a81611cfe565b60008060008060a08587031215611ef657600080fd5b611f008686611ca4565b935060608501356001600160401b03811115611f1b57600080fd5b611f2787828801611cb6565b9094509250506080850135611f3b81611cfe565b939692955090935050565b60008083601f840112611f5857600080fd5b5081356001600160401b03811115611f6f57600080fd5b6020830191508360208260051b8501011115611cf757600080fd5b60008060208385031215611f9d57600080fd5b82356001600160401b03811115611fb357600080fd5b611fbf85828601611f46565b90969095509350505050565b600060208284031215611fdd57600080fd5b61174a82611db2565b60008060008060608587031215611ffc57600080fd5b61200585611db2565b935061201360208601611e6b565b925060408501356001600160401b0381111561202e57600080fd5b61203a87828801611cb6565b95989497509550505050565b6000806000838503608081121561205c57600080fd5b84356001600160401b0381111561207257600080fd5b61207e87828801611b6f565b9450506040601f198201121561209357600080fd5b5060208401915060608401356120a881611cfe565b809150509250925092565b600060c082019050835182526001600160401b03602085015116602083015260408401516120ee604084018280518252602090810151910152565b5082516080830152602083015160a083015261174a565b60006060828403121561211757600080fd5b61174a8383611ca4565b634e487b7160e01b600052604160045260246000fd5b600181811c9082168061214b57607f821691505b602082108103611b8157634e487b7160e01b600052602260045260246000fd5b604051606081016001600160401b038111828210171561218d5761218d612121565b60405290565b604080519081016001600160401b038111828210171561218d5761218d612121565b604051601f8201601f191681016001600160401b03811182821017156121dd576121dd612121565b604052919050565b60006001600160401b038211156121fe576121fe612121565b50601f01601f191660200190565b60006001600160401b038084111561222657612226612121565b8360051b60206122378183016121b5565b86815291850191818101903684111561224f57600080fd5b865b84811015612315578035868111156122695760008081fd5b8801606036829003121561227d5760008081fd5b61228561216b565b61228e82611db2565b815261229b868301611e6b565b86820152604080830135898111156122b35760008081fd5b929092019136601f8401126122c85760008081fd5b82356122db6122d6826121e5565b6121b5565b81815236898387010111156122f05760008081fd5b818986018a830137600091810189019190915290820152845250918301918301612251565b50979650505050505050565b6000808585111561233157600080fd5b8386111561233e57600080fd5b5050820193919092039150565b6000845161235d818460208901611bbb565b8201838582376000930192835250909392505050565b81835281816020850137506000828201602090810191909152601f909101601f19169091010190565b6020815260006109e0602083018486612373565b634e487b7160e01b600052603260045260246000fd5b6000823561013e198336030181126123dd57600080fd5b9190910192915050565b6000808335601e198436030181126123fe57600080fd5b8301803591506001600160401b0382111561241857600080fd5b602001915036819003821315611cf757600080fd5b6001600160401b0381168114610f7557600080fd5b63ffffffff61245089611db2565b168152602088013560208201526000604089013561246d8161242d565b6001600160401b03811660408401525087606083015260e0608083015261249860e083018789612373565b6001600160a01b03861660a084015282810360c08401526124ba818587612373565b9a9950505050505050505050565b6000602082840312156124da57600080fd5b81516001600160401b038111156124f057600080fd5b8201601f8101841361250157600080fd5b805161250f6122d6826121e5565b81815285602083850101111561252457600080fd5b611413826020830160208601611bbb565b60006040828403121561254757600080fd5b61254f612193565b82358152602083013560208201528091505092915050565b60006020828403121561257957600080fd5b813561174a8161242d565b60018060a01b038516815283602082015261ffff831660408201526080606082015260006125b56080830184611bdf565b9695505050505050565b6040815260006125d26040830185611bdf565b82810360208401526114138185611bdf565b6000602082840312156125f657600080fd5b815161174a81611df5565b6040815263ffffffff8351166040820152602083015160608201526000604084015160a0608084015261263760e0840182611bdf565b90506060850151603f198483030160a08501526126548282611bdf565b60809690960151151560c08501525050506001600160a01b039190911660209091015290565b60006040828403121561268c57600080fd5b612694612193565b9050815181526020820151602082015292915050565b6000604082840312156126bc57600080fd5b61174a838361267a565b601f821115611ab2576000816000526020600020601f850160051c810160208610156126ef5750805b601f850160051c820191505b8181101561270e578281556001016126fb565b505050505050565b81516001600160401b0381111561272f5761272f612121565b6127438161273d8454612137565b846126c6565b602080601f83116001811461277857600084156127605750858301515b600019600386901b1c1916600185901b17855561270e565b600085815260208120601f198616915b828110156127a757888601518255948401946001909101908401612788565b50858210156127c55787850151600019600388901b60f8161c191681555b5050505050600190811b01905550565b600060208083018184528085518083526040925060408601915060408160051b87010184880160005b8381101561285257888303603f190185528151805163ffffffff1684528781015161ffff1688850152860151606087850181905261283e81860183611bdf565b9689019694505050908601906001016127fe565b509098975050505050505050565b60006080828403121561287257600080fd5b61287a61216b565b82518152602083015161288c8161242d565b602082015261289e846040850161267a565b60408201529392505050565b6000826128c757634e487b7160e01b600052601260045260246000fd5b500490565b80820281158282048414176108b757634e487b7160e01b600052601160045260246000fd5b803560208310156108b757600019602084900360031b1b1692915050565b6001600160c01b031981358181169160088510156129375780818660080360031b1b83161692505b505092915050565b6001600160401b0360c01b8560c01b16815263ffffffff60e01b8460e01b16600882015282600c8201526000825161297e81602c850160208701611bbb565b91909101602c0195945050505050565b8481526001600160401b0360c01b8460c01b166020820152826028820152600082516129c1816048850160208701611bbb565b9190910160480195945050505050565b6000602082840312156129e357600080fd5b815161174a81611cfe56fea26469706673582212205bcb8a5c300742cd89556df073eda6f37e1af8a8256945ee210f8744ef3db59f64736f6c63430008160033",
  "linkReferences": {},
  "deployedLinkReferences": {}
}