{
  "_format": "hh-sol-artifact-1",
  "contractName": "TokenCreateContract",
  "sourceName": "contracts/hts-precompile/examples/token-create/TokenCreateContract.sol",
  "abi": [
    {
      "anonymous": false,
      "inputs": [
        {
          "indexed": false,
          "internalType": "bool",
          "name": "",
          "type": "bool"
        },
        {
          "indexed": false,
          "internalType": "bytes",
          "name": "",
          "type": "bytes"
        }
      ],
      "name": "CallResponseEvent",
      "type": "event"
    },
    {
      "anonymous": false,
      "inputs": [
        {
          "indexed": false,
          "internalType": "address",
          "name": "tokenAddress",
          "type": "address"
        }
      ],
      "name": "CreatedToken",
      "type": "event"
    },
    {
      "anonymous": false,
      "inputs": [
        {
          "indexed": false,
          "internalType": "bool",
          "name": "kycGranted",
          "type": "bool"
        }
      ],
      "name": "KycGranted",
      "type": "event"
    },
    {
      "anonymous": false,
      "inputs": [
        {
          "indexed": false,
          "internalType": "int64",
          "name": "newTotalSupply",
          "type": "int64"
        },
        {
          "indexed": false,
          "internalType": "int64[]",
          "name": "serialNumbers",
          "type": "int64[]"
        }
      ],
      "name": "MintedToken",
      "type": "event"
    },
    {
      "anonymous": false,
      "inputs": [
        {
          "indexed": false,
          "internalType": "int256",
          "name": "responseCode",
          "type": "int256"
        }
      ],
      "name": "ResponseCode",
      "type": "event"
    },
    {
      "inputs": [
        {
          "internalType": "address",
          "name": "token",
          "type": "address"
        },
        {
          "internalType": "address",
          "name": "spender",
          "type": "address"
        },
        {
          "internalType": "uint256",
          "name": "amount",
          "type": "uint256"
        }
      ],
      "name": "approvePublic",
      "outputs": [
        {
          "internalType": "int256",
          "name": "responseCode",
          "type": "int256"
        }
      ],
      "stateMutability": "nonpayable",
      "type": "function"
    },
    {
      "inputs": [
        {
          "internalType": "address",
          "name": "account",
          "type": "address"
        },
        {
          "internalType": "address",
          "name": "token",
          "type": "address"
        }
      ],
      "name": "associateTokenPublic",
      "outputs": [
        {
          "internalType": "int256",
          "name": "responseCode",
          "type": "int256"
        }
      ],
      "stateMutability": "nonpayable",
      "type": "function"
    },
    {
      "inputs": [
        {
          "internalType": "address",
          "name": "account",
          "type": "address"
        },
        {
          "internalType": "address[]",
          "name": "tokens",
          "type": "address[]"
        }
      ],
      "name": "associateTokensPublic",
      "outputs": [
        {
          "internalType": "int256",
          "name": "responseCode",
          "type": "int256"
        }
      ],
      "stateMutability": "nonpayable",
      "type": "function"
    },
    {
      "inputs": [
        {
          "internalType": "address",
          "name": "treasury",
          "type": "address"
        }
      ],
      "name": "createFungibleTokenPublic",
      "outputs": [],
      "stateMutability": "payable",
      "type": "function"
    },
    {
      "inputs": [
        {
          "internalType": "address",
          "name": "treasury",
          "type": "address"
        },
        {
          "internalType": "address",
          "name": "fixedFeeTokenAddress",
          "type": "address"
        }
      ],
      "name": "createFungibleTokenWithCustomFeesPublic",
      "outputs": [],
      "stateMutability": "payable",
      "type": "function"
    },
    {
      "inputs": [
        {
          "internalType": "address",
          "name": "treasury",
          "type": "address"
        },
        {
          "internalType": "bytes",
          "name": "adminKey",
          "type": "bytes"
        },
        {
          "internalType": "int64",
          "name": "amount",
          "type": "int64"
        }
      ],
      "name": "createFungibleTokenWithSECP256K1AdminKeyAssociateAndTransferToAddressPublic",
      "outputs": [],
      "stateMutability": "payable",
      "type": "function"
    },
    {
      "inputs": [
        {
          "internalType": "address",
          "name": "treasury",
          "type": "address"
        },
        {
          "internalType": "bytes",
          "name": "adminKey",
          "type": "bytes"
        }
      ],
      "name": "createFungibleTokenWithSECP256K1AdminKeyPublic",
      "outputs": [
        {
          "internalType": "address",
          "name": "",
          "type": "address"
        }
      ],
      "stateMutability": "payable",
      "type": "function"
    },
    {
      "inputs": [
        {
          "internalType": "address",
          "name": "treasury",
          "type": "address"
        },
        {
          "internalType": "bytes",
          "name": "adminKey",
          "type": "bytes"
        }
      ],
      "name": "createFungibleTokenWithSECP256K1AdminKeyWithoutKYCPublic",
      "outputs": [
        {
          "internalType": "address",
          "name": "",
          "type": "address"
        }
      ],
      "stateMutability": "payable",
      "type": "function"
    },
    {
      "inputs": [
        {
          "internalType": "address",
          "name": "treasury",
          "type": "address"
        }
      ],
      "name": "createNonFungibleTokenPublic",
      "outputs": [],
      "stateMutability": "payable",
      "type": "function"
    },
    {
      "inputs": [
        {
          "internalType": "address",
          "name": "treasury",
          "type": "address"
        },
        {
          "internalType": "address",
          "name": "fixedFeeTokenAddress",
          "type": "address"
        }
      ],
      "name": "createNonFungibleTokenWithCustomFeesPublic",
      "outputs": [],
      "stateMutability": "payable",
      "type": "function"
    },
    {
      "inputs": [
        {
          "internalType": "address",
          "name": "treasury",
          "type": "address"
        },
        {
          "internalType": "bytes",
          "name": "adminKey",
          "type": "bytes"
        }
      ],
      "name": "createNonFungibleTokenWithSECP256K1AdminKeyPublic",
      "outputs": [],
      "stateMutability": "payable",
      "type": "function"
    },
    {
      "inputs": [
        {
          "internalType": "address",
          "name": "treasury",
          "type": "address"
        },
        {
          "internalType": "bytes",
          "name": "adminKey",
          "type": "bytes"
        }
      ],
      "name": "createNonFungibleTokenWithSECP256K1AdminKeyWithoutKYCPublic",
      "outputs": [],
      "stateMutability": "payable",
      "type": "function"
    },
    {
      "inputs": [
        {
          "internalType": "address",
          "name": "token",
          "type": "address"
        },
        {
          "internalType": "address",
          "name": "account",
          "type": "address"
        }
      ],
      "name": "grantTokenKycPublic",
      "outputs": [
        {
          "internalType": "int64",
          "name": "responseCode",
          "type": "int64"
        }
      ],
      "stateMutability": "nonpayable",
      "type": "function"
    },
    {
      "inputs": [
        {
          "internalType": "address",
          "name": "token",
          "type": "address"
        },
        {
          "internalType": "int64",
          "name": "amount",
          "type": "int64"
        },
        {
          "internalType": "bytes[]",
          "name": "metadata",
          "type": "bytes[]"
        }
      ],
      "name": "mintTokenPublic",
      "outputs": [
        {
          "internalType": "int256",
          "name": "responseCode",
          "type": "int256"
        },
        {
          "internalType": "int64",
          "name": "newTotalSupply",
          "type": "int64"
        },
        {
          "internalType": "int64[]",
          "name": "serialNumbers",
          "type": "int64[]"
        }
      ],
      "stateMutability": "nonpayable",
      "type": "function"
    },
    {
      "inputs": [
        {
          "internalType": "address",
          "name": "token",
          "type": "address"
        },
        {
          "internalType": "int64",
          "name": "amount",
          "type": "int64"
        },
        {
          "internalType": "bytes[]",
          "name": "metadata",
          "type": "bytes[]"
        }
      ],
      "name": "mintTokenToAddressPublic",
      "outputs": [
        {
          "internalType": "int256",
          "name": "responseCode",
          "type": "int256"
        },
        {
          "internalType": "int64",
          "name": "newTotalSupply",
          "type": "int64"
        },
        {
          "internalType": "int64[]",
          "name": "serialNumbers",
          "type": "int64[]"
        }
      ],
      "stateMutability": "nonpayable",
      "type": "function"
    },
    {
      "inputs": [
        {
          "internalType": "address",
          "name": "token",
          "type": "address"
        },
        {
          "internalType": "bytes",
          "name": "encodedFunctionSelector",
          "type": "bytes"
        }
      ],
      "name": "redirectForToken",
      "outputs": [
        {
          "internalType": "int256",
          "name": "responseCode",
          "type": "int256"
        },
        {
          "internalType": "bytes",
          "name": "response",
          "type": "bytes"
        }
      ],
      "stateMutability": "nonpayable",
      "type": "function"
    },
    {
      "inputs": [
        {
          "internalType": "address",
          "name": "token",
          "type": "address"
        },
        {
          "internalType": "address",
          "name": "from",
          "type": "address"
        },
        {
          "internalType": "address",
          "name": "to",
          "type": "address"
        },
        {
          "internalType": "uint256",
          "name": "amount",
          "type": "uint256"
        }
      ],
      "name": "transferFrom",
      "outputs": [
        {
          "internalType": "int64",
          "name": "responseCode",
          "type": "int64"
        }
      ],
      "stateMutability": "nonpayable",
      "type": "function"
    },
    {
      "inputs": [
        {
          "internalType": "address",
          "name": "token",
          "type": "address"
        },
        {
          "internalType": "address",
          "name": "from",
          "type": "address"
        },
        {
          "internalType": "address",
          "name": "to",
          "type": "address"
        },
        {
          "internalType": "uint256",
          "name": "serialNumber",
          "type": "uint256"
        }
      ],
      "name": "transferFromNFT",
      "outputs": [
        {
          "internalType": "int64",
          "name": "responseCode",
          "type": "int64"
        }
      ],
      "stateMutability": "nonpayable",
      "type": "function"
    },
    {
      "inputs": [
        {
          "internalType": "address",
          "name": "token",
          "type": "address"
        },
        {
          "components": [
            {
              "internalType": "string",
              "name": "name",
              "type": "string"
            },
            {
              "internalType": "string",
              "name": "symbol",
              "type": "string"
            },
            {
              "internalType": "address",
              "name": "treasury",
              "type": "address"
            },
            {
              "internalType": "string",
              "name": "memo",
              "type": "string"
            },
            {
              "internalType": "bool",
              "name": "tokenSupplyType",
              "type": "bool"
            },
            {
              "internalType": "int64",
              "name": "maxSupply",
              "type": "int64"
            },
            {
              "internalType": "bool",
              "name": "freezeDefault",
              "type": "bool"
            },
            {
              "components": [
                {
                  "internalType": "uint256",
                  "name": "keyType",
                  "type": "uint256"
                },
                {
                  "components": [
                    {
                      "internalType": "bool",
                      "name": "inheritAccountKey",
                      "type": "bool"
                    },
                    {
                      "internalType": "address",
                      "name": "contractId",
                      "type": "address"
                    },
                    {
                      "internalType": "bytes",
                      "name": "ed25519",
                      "type": "bytes"
                    },
                    {
                      "internalType": "bytes",
                      "name": "ECDSA_secp256k1",
                      "type": "bytes"
                    },
                    {
                      "internalType": "address",
                      "name": "delegatableContractId",
                      "type": "address"
                    }
                  ],
                  "internalType": "struct IHederaTokenService.KeyValue",
                  "name": "key",
                  "type": "tuple"
                }
              ],
              "internalType": "struct IHederaTokenService.TokenKey[]",
              "name": "tokenKeys",
              "type": "tuple[]"
            },
            {
              "components": [
                {
                  "internalType": "int64",
                  "name": "second",
                  "type": "int64"
                },
                {
                  "internalType": "address",
                  "name": "autoRenewAccount",
                  "type": "address"
                },
                {
                  "internalType": "int64",
                  "name": "autoRenewPeriod",
                  "type": "int64"
                }
              ],
              "internalType": "struct IHederaTokenService.Expiry",
              "name": "expiry",
              "type": "tuple"
            }
          ],
          "internalType": "struct IHederaTokenService.HederaToken",
          "name": "tokenInfo",
          "type": "tuple"
        }
      ],
      "name": "updateTokenInfoPublic",
      "outputs": [
        {
          "internalType": "int256",
          "name": "responseCode",
          "type": "int256"
        }
      ],
      "stateMutability": "nonpayable",
      "type": "function"
    }
  ],
  "bytecode": "0x60c06040526009608090815268746f6b656e4e616d6560b81b60a0526002906200002a90826200026c565b5060408051808201909152600b81526a1d1bdad95b94de5b589bdb60aa1b60208201526003906200005c90826200026c565b50604080518082019091526004808252636d656d6f60e01b6020830152906200008690826200026c565b50600580546001600160a81b0319167008000000000000271000000000000003e8179055348015620000b757600080fd5b50600160208181527fa6eef7e35abe7026729641147f7915573c7e97b47efa546f5f6e3230263bcb499190915560027fcc69885fda6bcc1a4ace058b4a62bf5e179ea78fd58a1ccd71c22cc9b688792f5560047fd9d16d34ffb15ba3a3d852f0d403e2ce1d691fb54de27ac87cd2f993f3ec330f5560087f7dfe757ecd65cbd7922a9c0161e935dd7fdbcc0e999689c7d31633896b1fc60b5560107fedc95719e9a3b28dd8e80877cb5880a9be7de1a13fc8b05e7999683b6b567643557fe2689cd4a84e23ad2f564004f1c9013e9589d260bde6380aba3ca7e09e4df40c55600660005260407f8f331abe73332f95a25873e8b430885974c0409691f89d643119a11623a7924a5562000338565b634e487b7160e01b600052604160045260246000fd5b600181811c90821680620001f057607f821691505b6020821081036200021157634e487b7160e01b600052602260045260246000fd5b50919050565b601f82111562000267576000816000526020600020601f850160051c81016020861015620002425750805b601f850160051c820191505b8181101562000263578281556001016200024e565b5050505b505050565b81516001600160401b03811115620002885762000288620001c5565b620002a081620002998454620001db565b8462000217565b602080601f831160018114620002d85760008415620002bf5750858301515b600019600386901b1c1916600185901b17855562000263565b600085815260208120601f198616915b828110156200030957888601518255948401946001909101908401620002e8565b5085821015620003285787850151600019600388901b60f8161c191681555b5050505050600190811b01905550565b613e7480620003486000396000f3fe6080604052600436106101145760003560e01c80638ba74da0116100a0578063d85f74c111610064578063d85f74c1146102db578063de84a779146102ee578063e9f732261461030e578063f4a01e5b14610321578063f848fec41461034157600080fd5b80638ba74da0146102575780638f74a17b1461026a5780639b23d3d914610295578063b35d417a146102b5578063cc265af4146102c857600080fd5b806336348de3116100e757806336348de3146101b45780634b5c6687146101d45780634d1769d6146101e7578063618dc65e1461021657806371de37071461024457600080fd5b80630488c939146101195780630fd2601e1461012e578063118741e71461016657806315dacbea14610194575b600080fd5b61012c610127366004612e5f565b610361565b005b34801561013a57600080fd5b5061014e610149366004612e5f565b6108d4565b60405160079190910b81526020015b60405180910390f35b34801561017257600080fd5b50610186610181366004612f73565b610931565b60405190815260200161015d565b3480156101a057600080fd5b5061014e6101af366004613027565b610985565b3480156101c057600080fd5b506101866101cf3660046132ed565b610a79565b61012c6101e2366004613435565b610a85565b3480156101f357600080fd5b50610207610202366004613452565b610e8d565b60405161015d93929190613569565b34801561022257600080fd5b50610236610231366004613594565b610f4e565b60405161015d929190613634565b61012c610252366004613655565b61106c565b61012c610265366004612e5f565b6111d1565b61027d610278366004613594565b61163d565b6040516001600160a01b03909116815260200161015d565b3480156102a157600080fd5b5061014e6102b0366004613027565b6119ff565b61012c6102c3366004613594565b611a44565b61012c6102d6366004613594565b611dea565b61012c6102e9366004613435565b611ec1565b3480156102fa57600080fd5b50610207610309366004613452565b61225c565b61027d61031c366004613594565b6122f6565b34801561032d57600080fd5b5061018661033c366004612e5f565b6123d0565b34801561034d57600080fd5b5061018661035c3660046136b9565b6123dc565b60408051600580825260c08201909252600091816020015b610381612dda565b8152602001906001900390816103795790505090506103b460006006600060405180602001604052806000815250612438565b816000815181106103c7576103c76136fa565b60200260200101819052506103ee600160006040518060200160405280600081525061246f565b81600181518110610401576104016136fa565b6020026020010181905250610428600260006040518060200160405280600081525061246f565b8160028151811061043b5761043b6136fa565b6020026020010181905250610462600460006040518060200160405280600081525061246f565b81600381518110610475576104756136fa565b602002602001018190525061049c600360006040518060200160405280600081525061246f565b816004815181106104af576104af6136fa565b602002602001018190525060006040518060600160405280600060070b8152602001856001600160a01b03168152602001627a120060070b815250905060006040518061012001604052806002805461050790613710565b80601f016020809104026020016040519081016040528092919081815260200182805461053390613710565b80156105805780601f1061055557610100808354040283529160200191610580565b820191906000526020600020905b81548152906001019060200180831161056357829003601f168201915b505050505081526020016003805461059790613710565b80601f01602080910402602001604051908101604052809291908181526020018280546105c390613710565b80156106105780601f106105e557610100808354040283529160200191610610565b820191906000526020600020905b8154815290600101906020018083116105f357829003601f168201915b50505050508152602001866001600160a01b031681526020016004805461063690613710565b80601f016020809104026020016040519081016040528092919081815260200182805461066290613710565b80156106af5780601f10610684576101008083540402835291602001916106af565b820191906000526020600020905b81548152906001019060200180831161069257829003601f168201915b5050509183525050600160208201819052600554600160401b810460070b6040840152600160a01b900460ff16151560608301526080820186905260a090910184905290915060009060405190808252806020026020018201604052801561075157816020015b6040805160a0810182526000808252602080830182905292820181905260608201819052608082015282526000199092019101816107165790505b506040805160a081018252600181526001600160a01b0380891660208301526000928201839052606082018390528916608082015282519293509183919061079b5761079b6136fa565b6020908102919091010152604080516001808252818301909252600091816020015b6040805160c08101825260008082526020808301829052928201819052606082018190526080820181905260a082015282526000199092019101816107bd5790505090506040518060c00160405280600460070b8152602001600560070b8152602001600a60070b8152602001876001600160a01b03168152602001600015158152602001886001600160a01b031681525081600081518110610862576108626136fa565b602002602001018190525060008061087b8585856124a4565b90925090506016821461088d57600080fd5b6040516001600160a01b03821681527f7bb17726df1f3adee8aa00ba8e8bc5d6f182af3bbf77604639cb7f008dd3b4ed9060200160405180910390a1505050505050505050565b60006108e083836125cc565b604051600782900b81529091507f90a5cf4cffe88b4edbb041cfc7a8a812c48a5ec30b84640fb37690875168e3aa9060200160405180910390a1600781900b60161461092b57600080fd5b92915050565b600061093d83836126af565b90507f90a5cf4cffe88b4edbb041cfc7a8a812c48a5ec30b84640fb37690875168e3aa8160405161097091815260200190565b60405180910390a16016811461092b57600080fd5b6040516001600160a01b038581166024830152848116604483015283166064820152608481018290526000908190819061016790630aed65f560e11b9060a4015b60408051601f198184030181529181526020820180516001600160e01b03166001600160e01b0319909416939093179092529051610a04919061374a565b6000604051808303816000865af19150503d8060008114610a41576040519150601f19603f3d011682016040523d82523d6000602084013e610a46565b606091505b509150915081610a57576015610a6b565b80806020019051810190610a6b9190613778565b60030b979650505050505050565b600061093d83836126db565b60408051600580825260c08201909252600091816020015b610aa5612dda565b815260200190600190039081610a9d579050509050610ad860006006600060405180602001604052806000815250612438565b81600081518110610aeb57610aeb6136fa565b6020026020010181905250610b12600160006040518060200160405280600081525061246f565b81600181518110610b2557610b256136fa565b6020026020010181905250610b4c600260006040518060200160405280600081525061246f565b81600281518110610b5f57610b5f6136fa565b6020026020010181905250610b86600360006040518060200160405280600081525061246f565b81600381518110610b9957610b996136fa565b6020026020010181905250610bc0600460006040518060200160405280600081525061246f565b81600481518110610bd357610bd36136fa565b602002602001018190525060006040518060600160405280600060070b8152602001846001600160a01b03168152602001627a120060070b8152509050600060405180610120016040528060028054610c2b90613710565b80601f0160208091040260200160405190810160405280929190818152602001828054610c5790613710565b8015610ca45780601f10610c7957610100808354040283529160200191610ca4565b820191906000526020600020905b815481529060010190602001808311610c8757829003601f168201915b5050505050815260200160038054610cbb90613710565b80601f0160208091040260200160405190810160405280929190818152602001828054610ce790613710565b8015610d345780601f10610d0957610100808354040283529160200191610d34565b820191906000526020600020905b815481529060010190602001808311610d1757829003601f168201915b50505050508152602001856001600160a01b0316815260200160048054610d5a90613710565b80601f0160208091040260200160405190810160405280929190818152602001828054610d8690613710565b8015610dd35780601f10610da857610100808354040283529160200191610dd3565b820191906000526020600020905b815481529060010190602001808311610db657829003601f168201915b505050918352505060016020820152600554600160401b8104600790810b604084015260ff600160a01b830416151560608401526080830187905260a09092018590529192506000918291610e3791859181900b90600160801b900460030b612707565b909250905060168214610e4957600080fd5b6040516001600160a01b03821681527f7bb17726df1f3adee8aa00ba8e8bc5d6f182af3bbf77604639cb7f008dd3b4ed9060200160405180910390a1505050505050565b6000806060610e9d868686612774565b60405183815292955090935091507f90a5cf4cffe88b4edbb041cfc7a8a812c48a5ec30b84640fb37690875168e3aa9060200160405180910390a160168314610ee557600080fd5b7ffc6b20023c4bac8ff1c48c1693e0cea5cd3c2163e9c2da41c58f17dd6d9f163d8282604051610f16929190613793565b60405180910390a1610f4486303384600081518110610f3757610f376136fa565b6020026020010151612872565b5093509350939050565b600060606000806101676001600160a01b031663618dc65e60e01b8787604051602401610f7c9291906137af565b60408051601f198184030181529181526020820180516001600160e01b03166001600160e01b0319909416939093179092529051610fba919061374a565b6000604051808303816000865af19150503d8060008114610ff7576040519150601f19603f3d011682016040523d82523d6000602084013e610ffc565b606091505b50915091507f4af4780e06fe8cb9df64b0794fa6f01399af979175bb988e35e0e57e594567bc82826040516110329291906137d1565b60405180910390a1816110565760156040518060200160405280600081525061105a565b6016815b60039190910b97909650945050505050565b604051638f74a17b60e01b81526000903090638f74a17b90349061109690889088906004016137af565b60206040518083038185885af11580156110b4573d6000803e3d6000fd5b50505050506040513d601f19601f820116820180604052508101906110d991906137ec565b60405163f4a01e5b60e01b81523360048201526001600160a01b0382166024820152909150309063f4a01e5b906044016020604051808303816000875af1158015611128573d6000803e3d6000fd5b505050506040513d601f19601f8201168201806040525081019061114c9190613809565b506040516307e9300f60e11b81526001600160a01b03821660048201523360248201523090630fd2601e906044016020604051808303816000875af1158015611199573d6000803e3d6000fd5b505050506040513d601f19601f820116820180604052508101906111bd9190613822565b506111ca813033856128ba565b5050505050565b604080516001808252818301909252600091816020015b6111f0612dda565b8152602001906001900390816111e8579050509050611222600080600060405180602001604052806000815250612438565b81600081518110611235576112356136fa565b602002602001018190525060006040518060600160405280600060070b8152602001856001600160a01b03168152602001627a120060070b815250905060006040518061012001604052806002805461128d90613710565b80601f01602080910402602001604051908101604052809291908181526020018280546112b990613710565b80156113065780601f106112db57610100808354040283529160200191611306565b820191906000526020600020905b8154815290600101906020018083116112e957829003601f168201915b505050505081526020016003805461131d90613710565b80601f016020809104026020016040519081016040528092919081815260200182805461134990613710565b80156113965780601f1061136b57610100808354040283529160200191611396565b820191906000526020600020905b81548152906001019060200180831161137957829003601f168201915b50505050508152602001866001600160a01b03168152602001600480546113bc90613710565b80601f01602080910402602001604051908101604052809291908181526020018280546113e890613710565b80156114355780601f1061140a57610100808354040283529160200191611435565b820191906000526020600020905b81548152906001019060200180831161141857829003601f168201915b5050509183525050600160208201819052600554600160401b900460070b6040808401919091526000606084018190526080840188905260a09093018690528051828152808201909152929350909190816020015b6040805160a08101825260008082526020808301829052928201819052606082018190526080820152825260001990920191018161148a5750506040805160a081018252600181526001600160a01b0388811660208301526000928201839052606082018390528916608082015282519293509183919061150d5761150d6136fa565b6020908102919091010152604080516001808252818301909252600091816020015b6040805160c08101825260008082526020808301829052928201819052606082018190526080820181905260a0820152825260001990920191018161152f5750506040805160c0810182526004815260056020820152600a91810191909152601e60608201526000608082018190526001600160a01b038a1660a0830152825192935090918391906115c3576115c36136fa565b602090810291909101015260055460009081906115f3908690600781900b90600160801b900460030b8787612902565b915091507f90a5cf4cffe88b4edbb041cfc7a8a812c48a5ec30b84640fb37690875168e3aa8260405161162891815260200190565b60405180910390a16016821461088d57600080fd5b60408051600580825260c08201909252600091829190816020015b611660612dda565b81526020019060019003908161165857905050905061168460006006600386612438565b81600081518110611697576116976136fa565b60200260200101819052506116af600160038561246f565b816001815181106116c2576116c26136fa565b60200260200101819052506116da600260038561246f565b816002815181106116ed576116ed6136fa565b6020026020010181905250611705600460038561246f565b81600381518110611718576117186136fa565b602002602001018190525061172f6003808561246f565b81600481518110611742576117426136fa565b602002602001018190525060006040518060600160405280600060070b8152602001866001600160a01b03168152602001627a120060070b815250905060006040518061012001604052806002805461179a90613710565b80601f01602080910402602001604051908101604052809291908181526020018280546117c690613710565b80156118135780601f106117e857610100808354040283529160200191611813565b820191906000526020600020905b8154815290600101906020018083116117f657829003601f168201915b505050505081526020016003805461182a90613710565b80601f016020809104026020016040519081016040528092919081815260200182805461185690613710565b80156118a35780601f10611878576101008083540402835291602001916118a3565b820191906000526020600020905b81548152906001019060200180831161188657829003601f168201915b50505050508152602001876001600160a01b03168152602001600480546118c990613710565b80601f01602080910402602001604051908101604052809291908181526020018280546118f590613710565b80156119425780601f1061191757610100808354040283529160200191611942565b820191906000526020600020905b81548152906001019060200180831161192557829003601f168201915b505050918352505060016020820152600554600160401b8104600790810b604084015260ff600160a01b830416151560608401526080830187905260a090920185905291925060009182916119a691859181900b90600160801b900460030b612707565b9092509050601682146119b857600080fd5b6040516001600160a01b03821681527f7bb17726df1f3adee8aa00ba8e8bc5d6f182af3bbf77604639cb7f008dd3b4ed9060200160405180910390a1979650505050505050565b6040516001600160a01b038581166024830152848116604483015283166064820152608481018290526000908190819061016790639b23d3d960e01b9060a4016109c6565b60408051600580825260c08201909252600091816020015b611a64612dda565b815260200190600190039081611a5c579050509050611a8860006006600385612438565b81600081518110611a9b57611a9b6136fa565b6020026020010181905250611ab3600160038461246f565b81600181518110611ac657611ac66136fa565b6020026020010181905250611ade600260038461246f565b81600281518110611af157611af16136fa565b6020026020010181905250611b09600460038461246f565b81600381518110611b1c57611b1c6136fa565b6020026020010181905250611b336003808461246f565b81600481518110611b4657611b466136fa565b602002602001018190525060006040518060600160405280600060070b8152602001856001600160a01b03168152602001627a120060070b8152509050600060405180610120016040528060028054611b9e90613710565b80601f0160208091040260200160405190810160405280929190818152602001828054611bca90613710565b8015611c175780601f10611bec57610100808354040283529160200191611c17565b820191906000526020600020905b815481529060010190602001808311611bfa57829003601f168201915b5050505050815260200160038054611c2e90613710565b80601f0160208091040260200160405190810160405280929190818152602001828054611c5a90613710565b8015611ca75780601f10611c7c57610100808354040283529160200191611ca7565b820191906000526020600020905b815481529060010190602001808311611c8a57829003601f168201915b50505050508152602001866001600160a01b0316815260200160048054611ccd90613710565b80601f0160208091040260200160405190810160405280929190818152602001828054611cf990613710565b8015611d465780601f10611d1b57610100808354040283529160200191611d46565b820191906000526020600020905b815481529060010190602001808311611d2957829003601f168201915b505050918352505060016020820152600554600160401b810460070b6040830152600160a01b900460ff16151560608201526080810185905260a0018390529050600080611d9383612a30565b909250905060168214611da557600080fd5b6040516001600160a01b03821681527f7bb17726df1f3adee8aa00ba8e8bc5d6f182af3bbf77604639cb7f008dd3b4ed9060200160405180910390a150505050505050565b60408051600480825260a08201909252600091816020015b611e0a612dda565b815260200190600190039081611e02579050509050611e2e60006006600385612438565b81600081518110611e4157611e416136fa565b6020026020010181905250611e59600260038461246f565b81600181518110611e6c57611e6c6136fa565b6020026020010181905250611e84600460038461246f565b81600281518110611e9757611e976136fa565b6020026020010181905250611eae6003808461246f565b81600381518110611b4657611b466136fa565b60408051600580825260c08201909252600091816020015b611ee1612dda565b815260200190600190039081611ed9579050509050611f1460006006600060405180602001604052806000815250612438565b81600081518110611f2757611f276136fa565b6020026020010181905250611f4e600160006040518060200160405280600081525061246f565b81600181518110611f6157611f616136fa565b6020026020010181905250611f88600260006040518060200160405280600081525061246f565b81600281518110611f9b57611f9b6136fa565b6020026020010181905250611fc2600460006040518060200160405280600081525061246f565b81600381518110611fd557611fd56136fa565b6020026020010181905250611ffc600360006040518060200160405280600081525061246f565b8160048151811061200f5761200f6136fa565b602002602001018190525060006040518060600160405280600060070b8152602001846001600160a01b03168152602001627a120060070b815250905060006040518061012001604052806002805461206790613710565b80601f016020809104026020016040519081016040528092919081815260200182805461209390613710565b80156120e05780601f106120b5576101008083540402835291602001916120e0565b820191906000526020600020905b8154815290600101906020018083116120c357829003601f168201915b50505050508152602001600380546120f790613710565b80601f016020809104026020016040519081016040528092919081815260200182805461212390613710565b80156121705780601f1061214557610100808354040283529160200191612170565b820191906000526020600020905b81548152906001019060200180831161215357829003601f168201915b50505050508152602001856001600160a01b031681526020016004805461219690613710565b80601f01602080910402602001604051908101604052809291908181526020018280546121c290613710565b801561220f5780601f106121e45761010080835404028352916020019161220f565b820191906000526020600020905b8154815290600101906020018083116121f257829003601f168201915b505050918352505060016020820152600554600160401b810460070b6040830152600160a01b900460ff16151560608201526080810185905260a0018390529050600080610e3783612a30565b600080606061226c868686612774565b60405183815292955090935091507f90a5cf4cffe88b4edbb041cfc7a8a812c48a5ec30b84640fb37690875168e3aa9060200160405180910390a1601683146122b457600080fd5b7ffc6b20023c4bac8ff1c48c1693e0cea5cd3c2163e9c2da41c58f17dd6d9f163d82826040516122e5929190613793565b60405180910390a193509350939050565b60408051600480825260a08201909252600091829190816020015b612319612dda565b81526020019060019003908161231157905050905061233d60006006600386612438565b81600081518110612350576123506136fa565b6020026020010181905250612368600260038561246f565b8160018151811061237b5761237b6136fa565b6020026020010181905250612393600460038561246f565b816002815181106123a6576123a66136fa565b60200260200101819052506123bd6003808561246f565b81600381518110611742576117426136fa565b600061093d8383612b40565b60006123e9848484612b76565b90507f90a5cf4cffe88b4edbb041cfc7a8a812c48a5ec30b84640fb37690875168e3aa8160405161241c91815260200190565b60405180910390a16016811461243157600080fd5b9392505050565b612440612dda565b60405180604001604052806124558787612c4f565b81526020016124648585612c8a565b905295945050505050565b612477612dda565b604051806040016040528061248b86612d9b565b815260200161249a8585612c8a565b9052949350505050565b600080848061010001516000015160070b60001480156124ce57506101008101516040015160070b155b156124e4576101008101516276a7006040909101525b6000806101676001600160a01b03163463abb54eb560e01b8a8a8a60405160240161251193929190613a76565b60408051601f198184030181529181526020820180516001600160e01b03166001600160e01b031990941693909317909252905161254f919061374a565b60006040518083038185875af1925050503d806000811461258c576040519150601f19603f3d011682016040523d82523d6000602084013e612591565b606091505b5091509150816125a457601560006125b8565b808060200190518101906125b89190613b2f565b60039190910b999098509650505050505050565b6040516001600160a01b038381166024830152821660448201526000908190819061016790638f8d7f9960e01b906064015b60408051601f198184030181529181526020820180516001600160e01b03166001600160e01b031990941693909317909252905161263c919061374a565b6000604051808303816000865af19150503d8060008114612679576040519150601f19603f3d011682016040523d82523d6000602084013e61267e565b606091505b50915091508161268f5760156126a3565b808060200190518101906126a39190613778565b60030b95945050505050565b60008060006101676001600160a01b0316632e63879b60e01b86866040516024016125fe929190613b5b565b60008060006101676001600160a01b0316637d305cfa60e01b86866040516024016125fe929190613bb8565b600080848061010001516000015160070b600014801561273157506101008101516040015160070b155b15612747576101008101516276a7006040909101525b6000806101676001600160a01b031634630fb65bf360e01b8a8a8a60405160240161251193929190613bda565b60008060606000806101676001600160a01b031663e0f4059a60e01b8989896040516024016127a593929190613c09565b60408051601f198184030181529181526020820180516001600160e01b03166001600160e01b03199094169390931790925290516127e3919061374a565b6000604051808303816000865af19150503d8060008114612820576040519150601f19603f3d011682016040523d82523d6000602084013e612825565b606091505b50915091508161284857604080516000808252602082019092526015919061285c565b8080602001905181019061285c9190613c88565b60039290920b9a90995090975095505050505050565b6040516001600160a01b038581166024830152848116604483015283166064820152600782900b60848201526000908190819061016790635cfc901160e01b9060a4016109c6565b6040516001600160a01b038581166024830152848116604483015283166064820152600782900b6084820152600090819081906101679063eca3691760e01b9060a4016109c6565b600080868061010001516000015160070b600014801561292c57506101008101516040015160070b155b15612942576101008101516276a7006040909101525b6000806101676001600160a01b031634632af0c59a60e01b8c8c8c8c8c604051602401612973959493929190613d48565b60408051601f198184030181529181526020820180516001600160e01b03166001600160e01b03199094169390931790925290516129b1919061374a565b60006040518083038185875af1925050503d80600081146129ee576040519150601f19603f3d011682016040523d82523d6000602084013e6129f3565b606091505b509150915081612a065760156000612a1a565b80806020019051810190612a1a9190613b2f565b60039190910b9b909a5098505050505050505050565b600080828061010001516000015160070b6000148015612a5a57506101008101516040015160070b155b15612a70576101008101516276a7006040909101525b6000806101676001600160a01b03163463ea83f29360e01b88604051602401612a999190613e15565b60408051601f198184030181529181526020820180516001600160e01b03166001600160e01b0319909416939093179092529051612ad7919061374a565b60006040518083038185875af1925050503d8060008114612b14576040519150601f19603f3d011682016040523d82523d6000602084013e612b19565b606091505b509150915081612b2c576015600061105a565b8080602001905181019061105a9190613b2f565b6040516001600160a01b03838116602483015282166044820152600090819081906101679063248a35ef60e11b906064016125fe565b604080516001600160a01b03858116602483015284166044820152606480820184905282518083039091018152608490910182526020810180516001600160e01b031663e1f21c6760e01b17905290516000918291829161016791612bdb919061374a565b6000604051808303816000865af19150503d8060008114612c18576040519150601f19603f3d011682016040523d82523d6000602084013e612c1d565b606091505b509150915081612c2e576015612c42565b80806020019051810190612c429190613778565b60030b9695505050505050565b6000612c73836006811115612c6657612c66613e28565b600160ff9091161b821790565b9050612431826006811115612c6657612c66613e28565b612cd06040518060a0016040528060001515815260200160006001600160a01b03168152602001606081526020016060815260200160006001600160a01b031681525090565b6000836004811115612ce457612ce4613e28565b03612cf2576001815261092b565b6001836004811115612d0657612d06613e28565b03612d21576000546001600160a01b0316602082015261092b565b6002836004811115612d3557612d35613e28565b03612d46576040810182905261092b565b6003836004811115612d5a57612d5a613e28565b03612d6b576060810182905261092b565b6004836004811115612d7f57612d7f613e28565b0361092b576000546001600160a01b0316608082015292915050565b600060016000836006811115612db357612db3613e28565b6006811115612dc457612dc4613e28565b8152602001908152602001600020549050919050565b604051806040016040528060008152602001612e326040518060a0016040528060001515815260200160006001600160a01b03168152602001606081526020016060815260200160006001600160a01b031681525090565b905290565b6001600160a01b0381168114612e4c57600080fd5b50565b8035612e5a81612e37565b919050565b60008060408385031215612e7257600080fd5b8235612e7d81612e37565b91506020830135612e8d81612e37565b809150509250929050565b634e487b7160e01b600052604160045260246000fd5b6040805190810167ffffffffffffffff81118282101715612ed157612ed1612e98565b60405290565b60405160a0810167ffffffffffffffff81118282101715612ed157612ed1612e98565b604051610120810167ffffffffffffffff81118282101715612ed157612ed1612e98565b604051601f8201601f1916810167ffffffffffffffff81118282101715612f4757612f47612e98565b604052919050565b600067ffffffffffffffff821115612f6957612f69612e98565b5060051b60200190565b60008060408385031215612f8657600080fd5b8235612f9181612e37565b915060208381013567ffffffffffffffff811115612fae57600080fd5b8401601f81018613612fbf57600080fd5b8035612fd2612fcd82612f4f565b612f1e565b81815260059190911b82018301908381019088831115612ff157600080fd5b928401925b8284101561301857833561300981612e37565b82529284019290840190612ff6565b80955050505050509250929050565b6000806000806080858703121561303d57600080fd5b843561304881612e37565b9350602085013561305881612e37565b9250604085013561306881612e37565b9396929550929360600135925050565b600082601f83011261308957600080fd5b813567ffffffffffffffff8111156130a3576130a3612e98565b6130b6601f8201601f1916602001612f1e565b8181528460208386010111156130cb57600080fd5b816020850160208301376000918101602001919091529392505050565b80358015158114612e5a57600080fd5b8060070b8114612e4c57600080fd5b8035612e5a816130f8565b600082601f83011261312357600080fd5b81356020613133612fcd83612f4f565b82815260059290921b8401810191818101908684111561315257600080fd5b8286015b8481101561326c57803567ffffffffffffffff8082111561317657600080fd5b908801906040601f19838c03810182131561319057600080fd5b613198612eae565b88850135815282850135848111156131af57600080fd5b949094019360a0858e03830112156131c75760008081fd5b6131cf612ed7565b91506131dc8986016130e8565b8252828501356131eb81612e37565b828a0152606085810135858111156132035760008081fd5b6132118f8c838a0101613078565b858501525060809350838601358581111561322c5760008081fd5b61323a8f8c838a0101613078565b82850152505060a0850135945061325085612e37565b9181019390935280870192909252508352918301918301613156565b509695505050505050565b60006060828403121561328957600080fd5b6040516060810181811067ffffffffffffffff821117156132ac576132ac612e98565b60405290508082356132bd816130f8565b815260208301356132cd81612e37565b602082015260408301356132e0816130f8565b6040919091015292915050565b6000806040838503121561330057600080fd5b823561330b81612e37565b9150602083013567ffffffffffffffff8082111561332857600080fd5b90840190610160828703121561333d57600080fd5b613345612efa565b82358281111561335457600080fd5b61336088828601613078565b82525060208301358281111561337557600080fd5b61338188828601613078565b60208301525061339360408401612e4f565b60408201526060830135828111156133aa57600080fd5b6133b688828601613078565b6060830152506133c8608084016130e8565b60808201526133d960a08401613107565b60a08201526133ea60c084016130e8565b60c082015260e08301358281111561340157600080fd5b61340d88828601613112565b60e083015250610100915061342487838501613277565b828201528093505050509250929050565b60006020828403121561344757600080fd5b813561243181612e37565b60008060006060848603121561346757600080fd5b833561347281612e37565b9250602084810135613483816130f8565b9250604085013567ffffffffffffffff808211156134a057600080fd5b818701915087601f8301126134b457600080fd5b81356134c2612fcd82612f4f565b81815260059190911b8301840190848101908a8311156134e157600080fd5b8585015b83811015613519578035858111156134fd5760008081fd5b61350b8d89838a0101613078565b8452509186019186016134e5565b508096505050505050509250925092565b60008151808452602080850194506020840160005b8381101561355e57815160070b8752958201959082019060010161353f565b509495945050505050565b8381528260070b602082015260606040820152600061358b606083018461352a565b95945050505050565b600080604083850312156135a757600080fd5b82356135b281612e37565b9150602083013567ffffffffffffffff8111156135ce57600080fd5b6135da85828601613078565b9150509250929050565b60005b838110156135ff5781810151838201526020016135e7565b50506000910152565b600081518084526136208160208601602086016135e4565b601f01601f19169290920160200192915050565b82815260406020820152600061364d6040830184613608565b949350505050565b60008060006060848603121561366a57600080fd5b833561367581612e37565b9250602084013567ffffffffffffffff81111561369157600080fd5b61369d86828701613078565b92505060408401356136ae816130f8565b809150509250925092565b6000806000606084860312156136ce57600080fd5b83356136d981612e37565b925060208401356136e981612e37565b929592945050506040919091013590565b634e487b7160e01b600052603260045260246000fd5b600181811c9082168061372457607f821691505b60208210810361374457634e487b7160e01b600052602260045260246000fd5b50919050565b6000825161375c8184602087016135e4565b9190910192915050565b8051600381900b8114612e5a57600080fd5b60006020828403121561378a57600080fd5b61243182613766565b8260070b815260406020820152600061364d604083018461352a565b6001600160a01b038316815260406020820152600061364d6040830184613608565b821515815260406020820152600061364d6040830184613608565b6000602082840312156137fe57600080fd5b815161243181612e37565b60006020828403121561381b57600080fd5b5051919050565b60006020828403121561383457600080fd5b8151612431816130f8565b600082825180855260208086019550808260051b84010181860160005b848110156138f957601f198684030189528151604081518552858201519150808686015281511515818601528582015160606001600160a01b038083168289015283850151935060a09250608083818a01526138bb60e08a0186613608565b92860151898403603f1901858b01529294506138d78584613608565b9501511660c0979097019690965250509884019892509083019060010161385c565b5090979650505050505050565b6000610160825181855261391c82860182613608565b915050602083015184820360208601526139368282613608565b915050604083015161395360408601826001600160a01b03169052565b506060830151848203606086015261396b8282613608565b9150506080830151613981608086018215159052565b5060a083015161399660a086018260070b9052565b5060c08301516139aa60c086018215159052565b5060e083015184820360e08601526139c2828261383f565b915050610100808401516139fe82870182805160070b82526001600160a01b036020820151166020830152604081015160070b60408301525050565b5090949350505050565b60008151808452602080850194506020840160005b8381101561355e578151805160070b8852838101516001600160a01b03908116858a01526040808301511515908a01526060808301511515908a0152608091820151169088015260a09096019590820190600101613a1d565b60006060808352613a8a6060840187613906565b602084820381860152613a9d8288613a08565b9150604085830360408701528287518085528385019150838901945060005b81811015613b1f5785518051600790810b855286820151810b8786015285820151900b85850152878101516001600160a01b039081168986015260808083015115159086015260a09182015116908401529484019460c090920191600101613abc565b50909a9950505050505050505050565b60008060408385031215613b4257600080fd5b613b4b83613766565b91506020830151612e8d81612e37565b6000604082016001600160a01b03808616845260206040602086015282865180855260608701915060208801945060005b81811015613baa578551851683529483019491830191600101613b8c565b509098975050505050505050565b6001600160a01b038316815260406020820152600061364d6040830184613906565b606081526000613bed6060830186613906565b90508360070b60208301528260030b6040830152949350505050565b6000606082016001600160a01b038616835260208560070b60208501526060604085015281855180845260808601915060808160051b87010193506020870160005b82811015613c7957607f19888703018452613c67868351613608565b95509284019290840190600101613c4b565b50939998505050505050505050565b600080600060608486031215613c9d57600080fd5b613ca684613766565b9250602080850151613cb7816130f8565b604086015190935067ffffffffffffffff811115613cd457600080fd5b8501601f81018713613ce557600080fd5b8051613cf3612fcd82612f4f565b81815260059190911b82018301908381019089831115613d1257600080fd5b928401925b82841015613d39578351613d2a816130f8565b82529284019290840190613d17565b80955050505050509250925092565b600060a0808352613d5c60a0840189613906565b602060078960070b8287015260408960030b604088015260608785036060890152613d87858b613a08565b9450608088860360808a0152858a518088528688019150868c01975060005b81811015613e005788518051880b845288810151880b8985015286810151880b8785015285810151880b86850152848101511515858501528a01516001600160a01b03168a8401529787019760c090920191600101613da6565b50909f9e505050505050505050505050505050565b6020815260006124316020830184613906565b634e487b7160e01b600052602160045260246000fdfea26469706673582212205572ead5509a898dcd22fa91de379527df77471a95f8cb589103c0bb1fbaeee564736f6c63430008170033",
  "linkReferences": {},
  "deployedLinkReferences": {}
}