{
  "_format": "hh-sol-artifact-1",
  "contractName": "BaseHTS",
  "sourceName": "contracts/BaseHTS.sol",
  "abi": [
    {
      "anonymous": false,
      "inputs": [
        {
          "indexed": false,
          "internalType": "uint256",
          "name": "amount",
          "type": "uint256"
        }
      ],
      "name": "AllowanceValue",
      "type": "event"
    },
    {
      "anonymous": false,
      "inputs": [
        {
          "indexed": false,
          "internalType": "bool",
          "name": "approved",
          "type": "bool"
        }
      ],
      "name": "Approved",
      "type": "event"
    },
    {
      "anonymous": false,
      "inputs": [
        {
          "indexed": false,
          "internalType": "address",
          "name": "approved",
          "type": "address"
        }
      ],
      "name": "ApprovedAddress",
      "type": "event"
    },
    {
      "anonymous": false,
      "inputs": [
        {
          "indexed": false,
          "internalType": "address",
          "name": "tokenAddress",
          "type": "address"
        }
      ],
      "name": "CreatedToken",
      "type": "event"
    },
    {
      "anonymous": false,
      "inputs": [
        {
          "indexed": false,
          "internalType": "bool",
          "name": "freezeStatus",
          "type": "bool"
        }
      ],
      "name": "DefaultFreezeStatusChanged",
      "type": "event"
    },
    {
      "anonymous": false,
      "inputs": [
        {
          "indexed": false,
          "internalType": "bool",
          "name": "frozen",
          "type": "bool"
        }
      ],
      "name": "Frozen",
      "type": "event"
    },
    {
      "anonymous": false,
      "inputs": [
        {
          "components": [
            {
              "components": [
                {
                  "components": [
                    {
                      "internalType": "string",
                      "name": "name",
                      "type": "string"
                    },
                    {
                      "internalType": "string",
                      "name": "symbol",
                      "type": "string"
                    },
                    {
                      "internalType": "address",
                      "name": "treasury",
                      "type": "address"
                    },
                    {
                      "internalType": "string",
                      "name": "memo",
                      "type": "string"
                    },
                    {
                      "internalType": "bool",
                      "name": "tokenSupplyType",
                      "type": "bool"
                    },
                    {
                      "internalType": "uint32",
                      "name": "maxSupply",
                      "type": "uint32"
                    },
                    {
                      "internalType": "bool",
                      "name": "freezeDefault",
                      "type": "bool"
                    },
                    {
                      "components": [
                        {
                          "internalType": "uint256",
                          "name": "keyType",
                          "type": "uint256"
                        },
                        {
                          "components": [
                            {
                              "internalType": "bool",
                              "name": "inheritAccountKey",
                              "type": "bool"
                            },
                            {
                              "internalType": "address",
                              "name": "contractId",
                              "type": "address"
                            },
                            {
                              "internalType": "bytes",
                              "name": "ed25519",
                              "type": "bytes"
                            },
                            {
                              "internalType": "bytes",
                              "name": "ECDSA_secp256k1",
                              "type": "bytes"
                            },
                            {
                              "internalType": "address",
                              "name": "delegatableContractId",
                              "type": "address"
                            }
                          ],
                          "internalType": "struct IHederaTokenService.KeyValue",
                          "name": "key",
                          "type": "tuple"
                        }
                      ],
                      "internalType": "struct IHederaTokenService.TokenKey[]",
                      "name": "tokenKeys",
                      "type": "tuple[]"
                    },
                    {
                      "components": [
                        {
                          "internalType": "uint32",
                          "name": "second",
                          "type": "uint32"
                        },
                        {
                          "internalType": "address",
                          "name": "autoRenewAccount",
                          "type": "address"
                        },
                        {
                          "internalType": "uint32",
                          "name": "autoRenewPeriod",
                          "type": "uint32"
                        }
                      ],
                      "internalType": "struct IHederaTokenService.Expiry",
                      "name": "expiry",
                      "type": "tuple"
                    }
                  ],
                  "internalType": "struct IHederaTokenService.HederaToken",
                  "name": "token",
                  "type": "tuple"
                },
                {
                  "internalType": "uint64",
                  "name": "totalSupply",
                  "type": "uint64"
                },
                {
                  "internalType": "bool",
                  "name": "deleted",
                  "type": "bool"
                },
                {
                  "internalType": "bool",
                  "name": "defaultKycStatus",
                  "type": "bool"
                },
                {
                  "internalType": "bool",
                  "name": "pauseStatus",
                  "type": "bool"
                },
                {
                  "components": [
                    {
                      "internalType": "uint32",
                      "name": "amount",
                      "type": "uint32"
                    },
                    {
                      "internalType": "address",
                      "name": "tokenId",
                      "type": "address"
                    },
                    {
                      "internalType": "bool",
                      "name": "useHbarsForPayment",
                      "type": "bool"
                    },
                    {
                      "internalType": "bool",
                      "name": "useCurrentTokenForPayment",
                      "type": "bool"
                    },
                    {
                      "internalType": "address",
                      "name": "feeCollector",
                      "type": "address"
                    }
                  ],
                  "internalType": "struct IHederaTokenService.FixedFee[]",
                  "name": "fixedFees",
                  "type": "tuple[]"
                },
                {
                  "components": [
                    {
                      "internalType": "uint32",
                      "name": "numerator",
                      "type": "uint32"
                    },
                    {
                      "internalType": "uint32",
                      "name": "denominator",
                      "type": "uint32"
                    },
                    {
                      "internalType": "uint32",
                      "name": "minimumAmount",
                      "type": "uint32"
                    },
                    {
                      "internalType": "uint32",
                      "name": "maximumAmount",
                      "type": "uint32"
                    },
                    {
                      "internalType": "bool",
                      "name": "netOfTransfers",
                      "type": "bool"
                    },
                    {
                      "internalType": "address",
                      "name": "feeCollector",
                      "type": "address"
                    }
                  ],
                  "internalType": "struct IHederaTokenService.FractionalFee[]",
                  "name": "fractionalFees",
                  "type": "tuple[]"
                },
                {
                  "components": [
                    {
                      "internalType": "uint32",
                      "name": "numerator",
                      "type": "uint32"
                    },
                    {
                      "internalType": "uint32",
                      "name": "denominator",
                      "type": "uint32"
                    },
                    {
                      "internalType": "uint32",
                      "name": "amount",
                      "type": "uint32"
                    },
                    {
                      "internalType": "address",
                      "name": "tokenId",
                      "type": "address"
                    },
                    {
                      "internalType": "bool",
                      "name": "useHbarsForPayment",
                      "type": "bool"
                    },
                    {
                      "internalType": "address",
                      "name": "feeCollector",
                      "type": "address"
                    }
                  ],
                  "internalType": "struct IHederaTokenService.RoyaltyFee[]",
                  "name": "royaltyFees",
                  "type": "tuple[]"
                },
                {
                  "internalType": "string",
                  "name": "ledgerId",
                  "type": "string"
                }
              ],
              "internalType": "struct IHederaTokenService.TokenInfo",
              "name": "tokenInfo",
              "type": "tuple"
            },
            {
              "internalType": "uint32",
              "name": "decimals",
              "type": "uint32"
            }
          ],
          "indexed": false,
          "internalType": "struct IHederaTokenService.FungibleTokenInfo",
          "name": "tokenInfo",
          "type": "tuple"
        }
      ],
      "name": "FungibleTokenInfo",
      "type": "event"
    },
    {
      "anonymous": false,
      "inputs": [
        {
          "indexed": false,
          "internalType": "bool",
          "name": "kycGranted",
          "type": "bool"
        }
      ],
      "name": "KycGranted",
      "type": "event"
    },
    {
      "anonymous": false,
      "inputs": [
        {
          "indexed": false,
          "internalType": "uint64",
          "name": "newTotalSupply",
          "type": "uint64"
        },
        {
          "indexed": false,
          "internalType": "int64[]",
          "name": "serialNumbers",
          "type": "int64[]"
        }
      ],
      "name": "MintedToken",
      "type": "event"
    },
    {
      "anonymous": false,
      "inputs": [
        {
          "components": [
            {
              "components": [
                {
                  "components": [
                    {
                      "internalType": "string",
                      "name": "name",
                      "type": "string"
                    },
                    {
                      "internalType": "string",
                      "name": "symbol",
                      "type": "string"
                    },
                    {
                      "internalType": "address",
                      "name": "treasury",
                      "type": "address"
                    },
                    {
                      "internalType": "string",
                      "name": "memo",
                      "type": "string"
                    },
                    {
                      "internalType": "bool",
                      "name": "tokenSupplyType",
                      "type": "bool"
                    },
                    {
                      "internalType": "uint32",
                      "name": "maxSupply",
                      "type": "uint32"
                    },
                    {
                      "internalType": "bool",
                      "name": "freezeDefault",
                      "type": "bool"
                    },
                    {
                      "components": [
                        {
                          "internalType": "uint256",
                          "name": "keyType",
                          "type": "uint256"
                        },
                        {
                          "components": [
                            {
                              "internalType": "bool",
                              "name": "inheritAccountKey",
                              "type": "bool"
                            },
                            {
                              "internalType": "address",
                              "name": "contractId",
                              "type": "address"
                            },
                            {
                              "internalType": "bytes",
                              "name": "ed25519",
                              "type": "bytes"
                            },
                            {
                              "internalType": "bytes",
                              "name": "ECDSA_secp256k1",
                              "type": "bytes"
                            },
                            {
                              "internalType": "address",
                              "name": "delegatableContractId",
                              "type": "address"
                            }
                          ],
                          "internalType": "struct IHederaTokenService.KeyValue",
                          "name": "key",
                          "type": "tuple"
                        }
                      ],
                      "internalType": "struct IHederaTokenService.TokenKey[]",
                      "name": "tokenKeys",
                      "type": "tuple[]"
                    },
                    {
                      "components": [
                        {
                          "internalType": "uint32",
                          "name": "second",
                          "type": "uint32"
                        },
                        {
                          "internalType": "address",
                          "name": "autoRenewAccount",
                          "type": "address"
                        },
                        {
                          "internalType": "uint32",
                          "name": "autoRenewPeriod",
                          "type": "uint32"
                        }
                      ],
                      "internalType": "struct IHederaTokenService.Expiry",
                      "name": "expiry",
                      "type": "tuple"
                    }
                  ],
                  "internalType": "struct IHederaTokenService.HederaToken",
                  "name": "token",
                  "type": "tuple"
                },
                {
                  "internalType": "uint64",
                  "name": "totalSupply",
                  "type": "uint64"
                },
                {
                  "internalType": "bool",
                  "name": "deleted",
                  "type": "bool"
                },
                {
                  "internalType": "bool",
                  "name": "defaultKycStatus",
                  "type": "bool"
                },
                {
                  "internalType": "bool",
                  "name": "pauseStatus",
                  "type": "bool"
                },
                {
                  "components": [
                    {
                      "internalType": "uint32",
                      "name": "amount",
                      "type": "uint32"
                    },
                    {
                      "internalType": "address",
                      "name": "tokenId",
                      "type": "address"
                    },
                    {
                      "internalType": "bool",
                      "name": "useHbarsForPayment",
                      "type": "bool"
                    },
                    {
                      "internalType": "bool",
                      "name": "useCurrentTokenForPayment",
                      "type": "bool"
                    },
                    {
                      "internalType": "address",
                      "name": "feeCollector",
                      "type": "address"
                    }
                  ],
                  "internalType": "struct IHederaTokenService.FixedFee[]",
                  "name": "fixedFees",
                  "type": "tuple[]"
                },
                {
                  "components": [
                    {
                      "internalType": "uint32",
                      "name": "numerator",
                      "type": "uint32"
                    },
                    {
                      "internalType": "uint32",
                      "name": "denominator",
                      "type": "uint32"
                    },
                    {
                      "internalType": "uint32",
                      "name": "minimumAmount",
                      "type": "uint32"
                    },
                    {
                      "internalType": "uint32",
                      "name": "maximumAmount",
                      "type": "uint32"
                    },
                    {
                      "internalType": "bool",
                      "name": "netOfTransfers",
                      "type": "bool"
                    },
                    {
                      "internalType": "address",
                      "name": "feeCollector",
                      "type": "address"
                    }
                  ],
                  "internalType": "struct IHederaTokenService.FractionalFee[]",
                  "name": "fractionalFees",
                  "type": "tuple[]"
                },
                {
                  "components": [
                    {
                      "internalType": "uint32",
                      "name": "numerator",
                      "type": "uint32"
                    },
                    {
                      "internalType": "uint32",
                      "name": "denominator",
                      "type": "uint32"
                    },
                    {
                      "internalType": "uint32",
                      "name": "amount",
                      "type": "uint32"
                    },
                    {
                      "internalType": "address",
                      "name": "tokenId",
                      "type": "address"
                    },
                    {
                      "internalType": "bool",
                      "name": "useHbarsForPayment",
                      "type": "bool"
                    },
                    {
                      "internalType": "address",
                      "name": "feeCollector",
                      "type": "address"
                    }
                  ],
                  "internalType": "struct IHederaTokenService.RoyaltyFee[]",
                  "name": "royaltyFees",
                  "type": "tuple[]"
                },
                {
                  "internalType": "string",
                  "name": "ledgerId",
                  "type": "string"
                }
              ],
              "internalType": "struct IHederaTokenService.TokenInfo",
              "name": "tokenInfo",
              "type": "tuple"
            },
            {
              "internalType": "int64",
              "name": "serialNumber",
              "type": "int64"
            },
            {
              "internalType": "address",
              "name": "ownerId",
              "type": "address"
            },
            {
              "internalType": "int64",
              "name": "creationTime",
              "type": "int64"
            },
            {
              "internalType": "bytes",
              "name": "metadata",
              "type": "bytes"
            },
            {
              "internalType": "address",
              "name": "spenderId",
              "type": "address"
            }
          ],
          "indexed": false,
          "internalType": "struct IHederaTokenService.NonFungibleTokenInfo",
          "name": "tokenInfo",
          "type": "tuple"
        }
      ],
      "name": "NonFungibleTokenInfo",
      "type": "event"
    },
    {
      "anonymous": false,
      "inputs": [
        {
          "indexed": false,
          "internalType": "bool",
          "name": "paused",
          "type": "bool"
        }
      ],
      "name": "PausedToken",
      "type": "event"
    },
    {
      "anonymous": false,
      "inputs": [
        {
          "indexed": false,
          "internalType": "int256",
          "name": "responseCode",
          "type": "int256"
        }
      ],
      "name": "ResponseCode",
      "type": "event"
    },
    {
      "anonymous": false,
      "inputs": [
        {
          "components": [
            {
              "internalType": "uint32",
              "name": "amount",
              "type": "uint32"
            },
            {
              "internalType": "address",
              "name": "tokenId",
              "type": "address"
            },
            {
              "internalType": "bool",
              "name": "useHbarsForPayment",
              "type": "bool"
            },
            {
              "internalType": "bool",
              "name": "useCurrentTokenForPayment",
              "type": "bool"
            },
            {
              "internalType": "address",
              "name": "feeCollector",
              "type": "address"
            }
          ],
          "indexed": false,
          "internalType": "struct IHederaTokenService.FixedFee[]",
          "name": "fixedFees",
          "type": "tuple[]"
        },
        {
          "components": [
            {
              "internalType": "uint32",
              "name": "numerator",
              "type": "uint32"
            },
            {
              "internalType": "uint32",
              "name": "denominator",
              "type": "uint32"
            },
            {
              "internalType": "uint32",
              "name": "minimumAmount",
              "type": "uint32"
            },
            {
              "internalType": "uint32",
              "name": "maximumAmount",
              "type": "uint32"
            },
            {
              "internalType": "bool",
              "name": "netOfTransfers",
              "type": "bool"
            },
            {
              "internalType": "address",
              "name": "feeCollector",
              "type": "address"
            }
          ],
          "indexed": false,
          "internalType": "struct IHederaTokenService.FractionalFee[]",
          "name": "fractionalFees",
          "type": "tuple[]"
        },
        {
          "components": [
            {
              "internalType": "uint32",
              "name": "numerator",
              "type": "uint32"
            },
            {
              "internalType": "uint32",
              "name": "denominator",
              "type": "uint32"
            },
            {
              "internalType": "uint32",
              "name": "amount",
              "type": "uint32"
            },
            {
              "internalType": "address",
              "name": "tokenId",
              "type": "address"
            },
            {
              "internalType": "bool",
              "name": "useHbarsForPayment",
              "type": "bool"
            },
            {
              "internalType": "address",
              "name": "feeCollector",
              "type": "address"
            }
          ],
          "indexed": false,
          "internalType": "struct IHederaTokenService.RoyaltyFee[]",
          "name": "royaltyFees",
          "type": "tuple[]"
        }
      ],
      "name": "TokenCustomFees",
      "type": "event"
    },
    {
      "anonymous": false,
      "inputs": [
        {
          "indexed": false,
          "internalType": "bool",
          "name": "defaultFreezeStatus",
          "type": "bool"
        }
      ],
      "name": "TokenDefaultFreezeStatus",
      "type": "event"
    },
    {
      "anonymous": false,
      "inputs": [
        {
          "indexed": false,
          "internalType": "bool",
          "name": "defaultKycStatus",
          "type": "bool"
        }
      ],
      "name": "TokenDefaultKycStatus",
      "type": "event"
    },
    {
      "anonymous": false,
      "inputs": [
        {
          "components": [
            {
              "internalType": "uint32",
              "name": "second",
              "type": "uint32"
            },
            {
              "internalType": "address",
              "name": "autoRenewAccount",
              "type": "address"
            },
            {
              "internalType": "uint32",
              "name": "autoRenewPeriod",
              "type": "uint32"
            }
          ],
          "indexed": false,
          "internalType": "struct IHederaTokenService.Expiry",
          "name": "expiryInfo",
          "type": "tuple"
        }
      ],
      "name": "TokenExpiryInfo",
      "type": "event"
    },
    {
      "anonymous": false,
      "inputs": [
        {
          "components": [
            {
              "components": [
                {
                  "internalType": "string",
                  "name": "name",
                  "type": "string"
                },
                {
                  "internalType": "string",
                  "name": "symbol",
                  "type": "string"
                },
                {
                  "internalType": "address",
                  "name": "treasury",
                  "type": "address"
                },
                {
                  "internalType": "string",
                  "name": "memo",
                  "type": "string"
                },
                {
                  "internalType": "bool",
                  "name": "tokenSupplyType",
                  "type": "bool"
                },
                {
                  "internalType": "uint32",
                  "name": "maxSupply",
                  "type": "uint32"
                },
                {
                  "internalType": "bool",
                  "name": "freezeDefault",
                  "type": "bool"
                },
                {
                  "components": [
                    {
                      "internalType": "uint256",
                      "name": "keyType",
                      "type": "uint256"
                    },
                    {
                      "components": [
                        {
                          "internalType": "bool",
                          "name": "inheritAccountKey",
                          "type": "bool"
                        },
                        {
                          "internalType": "address",
                          "name": "contractId",
                          "type": "address"
                        },
                        {
                          "internalType": "bytes",
                          "name": "ed25519",
                          "type": "bytes"
                        },
                        {
                          "internalType": "bytes",
                          "name": "ECDSA_secp256k1",
                          "type": "bytes"
                        },
                        {
                          "internalType": "address",
                          "name": "delegatableContractId",
                          "type": "address"
                        }
                      ],
                      "internalType": "struct IHederaTokenService.KeyValue",
                      "name": "key",
                      "type": "tuple"
                    }
                  ],
                  "internalType": "struct IHederaTokenService.TokenKey[]",
                  "name": "tokenKeys",
                  "type": "tuple[]"
                },
                {
                  "components": [
                    {
                      "internalType": "uint32",
                      "name": "second",
                      "type": "uint32"
                    },
                    {
                      "internalType": "address",
                      "name": "autoRenewAccount",
                      "type": "address"
                    },
                    {
                      "internalType": "uint32",
                      "name": "autoRenewPeriod",
                      "type": "uint32"
                    }
                  ],
                  "internalType": "struct IHederaTokenService.Expiry",
                  "name": "expiry",
                  "type": "tuple"
                }
              ],
              "internalType": "struct IHederaTokenService.HederaToken",
              "name": "token",
              "type": "tuple"
            },
            {
              "internalType": "uint64",
              "name": "totalSupply",
              "type": "uint64"
            },
            {
              "internalType": "bool",
              "name": "deleted",
              "type": "bool"
            },
            {
              "internalType": "bool",
              "name": "defaultKycStatus",
              "type": "bool"
            },
            {
              "internalType": "bool",
              "name": "pauseStatus",
              "type": "bool"
            },
            {
              "components": [
                {
                  "internalType": "uint32",
                  "name": "amount",
                  "type": "uint32"
                },
                {
                  "internalType": "address",
                  "name": "tokenId",
                  "type": "address"
                },
                {
                  "internalType": "bool",
                  "name": "useHbarsForPayment",
                  "type": "bool"
                },
                {
                  "internalType": "bool",
                  "name": "useCurrentTokenForPayment",
                  "type": "bool"
                },
                {
                  "internalType": "address",
                  "name": "feeCollector",
                  "type": "address"
                }
              ],
              "internalType": "struct IHederaTokenService.FixedFee[]",
              "name": "fixedFees",
              "type": "tuple[]"
            },
            {
              "components": [
                {
                  "internalType": "uint32",
                  "name": "numerator",
                  "type": "uint32"
                },
                {
                  "internalType": "uint32",
                  "name": "denominator",
                  "type": "uint32"
                },
                {
                  "internalType": "uint32",
                  "name": "minimumAmount",
                  "type": "uint32"
                },
                {
                  "internalType": "uint32",
                  "name": "maximumAmount",
                  "type": "uint32"
                },
                {
                  "internalType": "bool",
                  "name": "netOfTransfers",
                  "type": "bool"
                },
                {
                  "internalType": "address",
                  "name": "feeCollector",
                  "type": "address"
                }
              ],
              "internalType": "struct IHederaTokenService.FractionalFee[]",
              "name": "fractionalFees",
              "type": "tuple[]"
            },
            {
              "components": [
                {
                  "internalType": "uint32",
                  "name": "numerator",
                  "type": "uint32"
                },
                {
                  "internalType": "uint32",
                  "name": "denominator",
                  "type": "uint32"
                },
                {
                  "internalType": "uint32",
                  "name": "amount",
                  "type": "uint32"
                },
                {
                  "internalType": "address",
                  "name": "tokenId",
                  "type": "address"
                },
                {
                  "internalType": "bool",
                  "name": "useHbarsForPayment",
                  "type": "bool"
                },
                {
                  "internalType": "address",
                  "name": "feeCollector",
                  "type": "address"
                }
              ],
              "internalType": "struct IHederaTokenService.RoyaltyFee[]",
              "name": "royaltyFees",
              "type": "tuple[]"
            },
            {
              "internalType": "string",
              "name": "ledgerId",
              "type": "string"
            }
          ],
          "indexed": false,
          "internalType": "struct IHederaTokenService.TokenInfo",
          "name": "tokenInfo",
          "type": "tuple"
        }
      ],
      "name": "TokenInfo",
      "type": "event"
    },
    {
      "anonymous": false,
      "inputs": [
        {
          "components": [
            {
              "internalType": "bool",
              "name": "inheritAccountKey",
              "type": "bool"
            },
            {
              "internalType": "address",
              "name": "contractId",
              "type": "address"
            },
            {
              "internalType": "bytes",
              "name": "ed25519",
              "type": "bytes"
            },
            {
              "internalType": "bytes",
              "name": "ECDSA_secp256k1",
              "type": "bytes"
            },
            {
              "internalType": "address",
              "name": "delegatableContractId",
              "type": "address"
            }
          ],
          "indexed": false,
          "internalType": "struct IHederaTokenService.KeyValue",
          "name": "key",
          "type": "tuple"
        }
      ],
      "name": "TokenKey",
      "type": "event"
    },
    {
      "anonymous": false,
      "inputs": [
        {
          "indexed": false,
          "internalType": "bool",
          "name": "unpaused",
          "type": "bool"
        }
      ],
      "name": "UnpausedToken",
      "type": "event"
    },
    {
      "inputs": [
        {
          "internalType": "address",
          "name": "token",
          "type": "address"
        },
        {
          "internalType": "address",
          "name": "owner",
          "type": "address"
        },
        {
          "internalType": "address",
          "name": "spender",
          "type": "address"
        }
      ],
      "name": "allowancePublic",
      "outputs": [
        {
          "internalType": "int256",
          "name": "responseCode",
          "type": "int256"
        },
        {
          "internalType": "uint256",
          "name": "amount",
          "type": "uint256"
        }
      ],
      "stateMutability": "nonpayable",
      "type": "function"
    },
    {
      "inputs": [
        {
          "internalType": "address",
          "name": "token",
          "type": "address"
        },
        {
          "internalType": "address",
          "name": "spender",
          "type": "address"
        },
        {
          "internalType": "uint256",
          "name": "amount",
          "type": "uint256"
        }
      ],
      "name": "approvePublic",
      "outputs": [
        {
          "internalType": "int256",
          "name": "responseCode",
          "type": "int256"
        }
      ],
      "stateMutability": "nonpayable",
      "type": "function"
    },
    {
      "inputs": [
        {
          "internalType": "address",
          "name": "account",
          "type": "address"
        },
        {
          "internalType": "address",
          "name": "token",
          "type": "address"
        }
      ],
      "name": "associateTokenPublic",
      "outputs": [
        {
          "internalType": "int256",
          "name": "responseCode",
          "type": "int256"
        }
      ],
      "stateMutability": "nonpayable",
      "type": "function"
    },
    {
      "inputs": [
        {
          "internalType": "address",
          "name": "treasury",
          "type": "address"
        }
      ],
      "name": "createFungibleTokenPublic",
      "outputs": [],
      "stateMutability": "payable",
      "type": "function"
    },
    {
      "inputs": [
        {
          "internalType": "address",
          "name": "treasury",
          "type": "address"
        },
        {
          "internalType": "address",
          "name": "fixedFeeTokenAddress",
          "type": "address"
        }
      ],
      "name": "createFungibleTokenWithCustomFeesPublic",
      "outputs": [],
      "stateMutability": "payable",
      "type": "function"
    },
    {
      "inputs": [
        {
          "internalType": "address",
          "name": "treasury",
          "type": "address"
        }
      ],
      "name": "createNonFungibleTokenPublic",
      "outputs": [],
      "stateMutability": "payable",
      "type": "function"
    },
    {
      "inputs": [
        {
          "components": [
            {
              "internalType": "address",
              "name": "token",
              "type": "address"
            },
            {
              "components": [
                {
                  "internalType": "address",
                  "name": "accountID",
                  "type": "address"
                },
                {
                  "internalType": "int64",
                  "name": "amount",
                  "type": "int64"
                }
              ],
              "internalType": "struct IHederaTokenService.AccountAmount[]",
              "name": "transfers",
              "type": "tuple[]"
            },
            {
              "components": [
                {
                  "internalType": "address",
                  "name": "senderAccountID",
                  "type": "address"
                },
                {
                  "internalType": "address",
                  "name": "receiverAccountID",
                  "type": "address"
                },
                {
                  "internalType": "int64",
                  "name": "serialNumber",
                  "type": "int64"
                }
              ],
              "internalType": "struct IHederaTokenService.NftTransfer[]",
              "name": "nftTransfers",
              "type": "tuple[]"
            }
          ],
          "internalType": "struct IHederaTokenService.TokenTransferList[]",
          "name": "tokenTransferList",
          "type": "tuple[]"
        }
      ],
      "name": "cryptoTransferPublic",
      "outputs": [
        {
          "internalType": "int256",
          "name": "responseCode",
          "type": "int256"
        }
      ],
      "stateMutability": "nonpayable",
      "type": "function"
    },
    {
      "inputs": [
        {
          "internalType": "address",
          "name": "account",
          "type": "address"
        },
        {
          "internalType": "address",
          "name": "token",
          "type": "address"
        },
        {
          "internalType": "int64",
          "name": "amount",
          "type": "int64"
        }
      ],
      "name": "cryptoTransferTokenPublic",
      "outputs": [
        {
          "internalType": "int256",
          "name": "responseCode",
          "type": "int256"
        }
      ],
      "stateMutability": "nonpayable",
      "type": "function"
    },
    {
      "inputs": [
        {
          "internalType": "address",
          "name": "token",
          "type": "address"
        }
      ],
      "name": "deleteTokenPublic",
      "outputs": [
        {
          "internalType": "int256",
          "name": "responseCode",
          "type": "int256"
        }
      ],
      "stateMutability": "nonpayable",
      "type": "function"
    },
    {
      "inputs": [
        {
          "internalType": "address",
          "name": "token",
          "type": "address"
        },
        {
          "internalType": "address",
          "name": "account",
          "type": "address"
        }
      ],
      "name": "freezeTokenPublic",
      "outputs": [
        {
          "internalType": "int256",
          "name": "responseCode",
          "type": "int256"
        }
      ],
      "stateMutability": "nonpayable",
      "type": "function"
    },
    {
      "inputs": [
        {
          "internalType": "address",
          "name": "token",
          "type": "address"
        },
        {
          "internalType": "uint256",
          "name": "serialNumber",
          "type": "uint256"
        }
      ],
      "name": "getApprovedPublic",
      "outputs": [
        {
          "internalType": "int256",
          "name": "responseCode",
          "type": "int256"
        },
        {
          "internalType": "address",
          "name": "approved",
          "type": "address"
        }
      ],
      "stateMutability": "nonpayable",
      "type": "function"
    },
    {
      "inputs": [
        {
          "internalType": "address",
          "name": "token",
          "type": "address"
        }
      ],
      "name": "getFungibleTokenInfoPublic",
      "outputs": [
        {
          "internalType": "int256",
          "name": "responseCode",
          "type": "int256"
        },
        {
          "components": [
            {
              "components": [
                {
                  "components": [
                    {
                      "internalType": "string",
                      "name": "name",
                      "type": "string"
                    },
                    {
                      "internalType": "string",
                      "name": "symbol",
                      "type": "string"
                    },
                    {
                      "internalType": "address",
                      "name": "treasury",
                      "type": "address"
                    },
                    {
                      "internalType": "string",
                      "name": "memo",
                      "type": "string"
                    },
                    {
                      "internalType": "bool",
                      "name": "tokenSupplyType",
                      "type": "bool"
                    },
                    {
                      "internalType": "uint32",
                      "name": "maxSupply",
                      "type": "uint32"
                    },
                    {
                      "internalType": "bool",
                      "name": "freezeDefault",
                      "type": "bool"
                    },
                    {
                      "components": [
                        {
                          "internalType": "uint256",
                          "name": "keyType",
                          "type": "uint256"
                        },
                        {
                          "components": [
                            {
                              "internalType": "bool",
                              "name": "inheritAccountKey",
                              "type": "bool"
                            },
                            {
                              "internalType": "address",
                              "name": "contractId",
                              "type": "address"
                            },
                            {
                              "internalType": "bytes",
                              "name": "ed25519",
                              "type": "bytes"
                            },
                            {
                              "internalType": "bytes",
                              "name": "ECDSA_secp256k1",
                              "type": "bytes"
                            },
                            {
                              "internalType": "address",
                              "name": "delegatableContractId",
                              "type": "address"
                            }
                          ],
                          "internalType": "struct IHederaTokenService.KeyValue",
                          "name": "key",
                          "type": "tuple"
                        }
                      ],
                      "internalType": "struct IHederaTokenService.TokenKey[]",
                      "name": "tokenKeys",
                      "type": "tuple[]"
                    },
                    {
                      "components": [
                        {
                          "internalType": "uint32",
                          "name": "second",
                          "type": "uint32"
                        },
                        {
                          "internalType": "address",
                          "name": "autoRenewAccount",
                          "type": "address"
                        },
                        {
                          "internalType": "uint32",
                          "name": "autoRenewPeriod",
                          "type": "uint32"
                        }
                      ],
                      "internalType": "struct IHederaTokenService.Expiry",
                      "name": "expiry",
                      "type": "tuple"
                    }
                  ],
                  "internalType": "struct IHederaTokenService.HederaToken",
                  "name": "token",
                  "type": "tuple"
                },
                {
                  "internalType": "uint64",
                  "name": "totalSupply",
                  "type": "uint64"
                },
                {
                  "internalType": "bool",
                  "name": "deleted",
                  "type": "bool"
                },
                {
                  "internalType": "bool",
                  "name": "defaultKycStatus",
                  "type": "bool"
                },
                {
                  "internalType": "bool",
                  "name": "pauseStatus",
                  "type": "bool"
                },
                {
                  "components": [
                    {
                      "internalType": "uint32",
                      "name": "amount",
                      "type": "uint32"
                    },
                    {
                      "internalType": "address",
                      "name": "tokenId",
                      "type": "address"
                    },
                    {
                      "internalType": "bool",
                      "name": "useHbarsForPayment",
                      "type": "bool"
                    },
                    {
                      "internalType": "bool",
                      "name": "useCurrentTokenForPayment",
                      "type": "bool"
                    },
                    {
                      "internalType": "address",
                      "name": "feeCollector",
                      "type": "address"
                    }
                  ],
                  "internalType": "struct IHederaTokenService.FixedFee[]",
                  "name": "fixedFees",
                  "type": "tuple[]"
                },
                {
                  "components": [
                    {
                      "internalType": "uint32",
                      "name": "numerator",
                      "type": "uint32"
                    },
                    {
                      "internalType": "uint32",
                      "name": "denominator",
                      "type": "uint32"
                    },
                    {
                      "internalType": "uint32",
                      "name": "minimumAmount",
                      "type": "uint32"
                    },
                    {
                      "internalType": "uint32",
                      "name": "maximumAmount",
                      "type": "uint32"
                    },
                    {
                      "internalType": "bool",
                      "name": "netOfTransfers",
                      "type": "bool"
                    },
                    {
                      "internalType": "address",
                      "name": "feeCollector",
                      "type": "address"
                    }
                  ],
                  "internalType": "struct IHederaTokenService.FractionalFee[]",
                  "name": "fractionalFees",
                  "type": "tuple[]"
                },
                {
                  "components": [
                    {
                      "internalType": "uint32",
                      "name": "numerator",
                      "type": "uint32"
                    },
                    {
                      "internalType": "uint32",
                      "name": "denominator",
                      "type": "uint32"
                    },
                    {
                      "internalType": "uint32",
                      "name": "amount",
                      "type": "uint32"
                    },
                    {
                      "internalType": "address",
                      "name": "tokenId",
                      "type": "address"
                    },
                    {
                      "internalType": "bool",
                      "name": "useHbarsForPayment",
                      "type": "bool"
                    },
                    {
                      "internalType": "address",
                      "name": "feeCollector",
                      "type": "address"
                    }
                  ],
                  "internalType": "struct IHederaTokenService.RoyaltyFee[]",
                  "name": "royaltyFees",
                  "type": "tuple[]"
                },
                {
                  "internalType": "string",
                  "name": "ledgerId",
                  "type": "string"
                }
              ],
              "internalType": "struct IHederaTokenService.TokenInfo",
              "name": "tokenInfo",
              "type": "tuple"
            },
            {
              "internalType": "uint32",
              "name": "decimals",
              "type": "uint32"
            }
          ],
          "internalType": "struct IHederaTokenService.FungibleTokenInfo",
          "name": "tokenInfo",
          "type": "tuple"
        }
      ],
      "stateMutability": "nonpayable",
      "type": "function"
    },
    {
      "inputs": [
        {
          "internalType": "address",
          "name": "token",
          "type": "address"
        },
        {
          "internalType": "int64",
          "name": "serialNumber",
          "type": "int64"
        }
      ],
      "name": "getNonFungibleTokenInfoPublic",
      "outputs": [
        {
          "internalType": "int256",
          "name": "responseCode",
          "type": "int256"
        },
        {
          "components": [
            {
              "components": [
                {
                  "components": [
                    {
                      "internalType": "string",
                      "name": "name",
                      "type": "string"
                    },
                    {
                      "internalType": "string",
                      "name": "symbol",
                      "type": "string"
                    },
                    {
                      "internalType": "address",
                      "name": "treasury",
                      "type": "address"
                    },
                    {
                      "internalType": "string",
                      "name": "memo",
                      "type": "string"
                    },
                    {
                      "internalType": "bool",
                      "name": "tokenSupplyType",
                      "type": "bool"
                    },
                    {
                      "internalType": "uint32",
                      "name": "maxSupply",
                      "type": "uint32"
                    },
                    {
                      "internalType": "bool",
                      "name": "freezeDefault",
                      "type": "bool"
                    },
                    {
                      "components": [
                        {
                          "internalType": "uint256",
                          "name": "keyType",
                          "type": "uint256"
                        },
                        {
                          "components": [
                            {
                              "internalType": "bool",
                              "name": "inheritAccountKey",
                              "type": "bool"
                            },
                            {
                              "internalType": "address",
                              "name": "contractId",
                              "type": "address"
                            },
                            {
                              "internalType": "bytes",
                              "name": "ed25519",
                              "type": "bytes"
                            },
                            {
                              "internalType": "bytes",
                              "name": "ECDSA_secp256k1",
                              "type": "bytes"
                            },
                            {
                              "internalType": "address",
                              "name": "delegatableContractId",
                              "type": "address"
                            }
                          ],
                          "internalType": "struct IHederaTokenService.KeyValue",
                          "name": "key",
                          "type": "tuple"
                        }
                      ],
                      "internalType": "struct IHederaTokenService.TokenKey[]",
                      "name": "tokenKeys",
                      "type": "tuple[]"
                    },
                    {
                      "components": [
                        {
                          "internalType": "uint32",
                          "name": "second",
                          "type": "uint32"
                        },
                        {
                          "internalType": "address",
                          "name": "autoRenewAccount",
                          "type": "address"
                        },
                        {
                          "internalType": "uint32",
                          "name": "autoRenewPeriod",
                          "type": "uint32"
                        }
                      ],
                      "internalType": "struct IHederaTokenService.Expiry",
                      "name": "expiry",
                      "type": "tuple"
                    }
                  ],
                  "internalType": "struct IHederaTokenService.HederaToken",
                  "name": "token",
                  "type": "tuple"
                },
                {
                  "internalType": "uint64",
                  "name": "totalSupply",
                  "type": "uint64"
                },
                {
                  "internalType": "bool",
                  "name": "deleted",
                  "type": "bool"
                },
                {
                  "internalType": "bool",
                  "name": "defaultKycStatus",
                  "type": "bool"
                },
                {
                  "internalType": "bool",
                  "name": "pauseStatus",
                  "type": "bool"
                },
                {
                  "components": [
                    {
                      "internalType": "uint32",
                      "name": "amount",
                      "type": "uint32"
                    },
                    {
                      "internalType": "address",
                      "name": "tokenId",
                      "type": "address"
                    },
                    {
                      "internalType": "bool",
                      "name": "useHbarsForPayment",
                      "type": "bool"
                    },
                    {
                      "internalType": "bool",
                      "name": "useCurrentTokenForPayment",
                      "type": "bool"
                    },
                    {
                      "internalType": "address",
                      "name": "feeCollector",
                      "type": "address"
                    }
                  ],
                  "internalType": "struct IHederaTokenService.FixedFee[]",
                  "name": "fixedFees",
                  "type": "tuple[]"
                },
                {
                  "components": [
                    {
                      "internalType": "uint32",
                      "name": "numerator",
                      "type": "uint32"
                    },
                    {
                      "internalType": "uint32",
                      "name": "denominator",
                      "type": "uint32"
                    },
                    {
                      "internalType": "uint32",
                      "name": "minimumAmount",
                      "type": "uint32"
                    },
                    {
                      "internalType": "uint32",
                      "name": "maximumAmount",
                      "type": "uint32"
                    },
                    {
                      "internalType": "bool",
                      "name": "netOfTransfers",
                      "type": "bool"
                    },
                    {
                      "internalType": "address",
                      "name": "feeCollector",
                      "type": "address"
                    }
                  ],
                  "internalType": "struct IHederaTokenService.FractionalFee[]",
                  "name": "fractionalFees",
                  "type": "tuple[]"
                },
                {
                  "components": [
                    {
                      "internalType": "uint32",
                      "name": "numerator",
                      "type": "uint32"
                    },
                    {
                      "internalType": "uint32",
                      "name": "denominator",
                      "type": "uint32"
                    },
                    {
                      "internalType": "uint32",
                      "name": "amount",
                      "type": "uint32"
                    },
                    {
                      "internalType": "address",
                      "name": "tokenId",
                      "type": "address"
                    },
                    {
                      "internalType": "bool",
                      "name": "useHbarsForPayment",
                      "type": "bool"
                    },
                    {
                      "internalType": "address",
                      "name": "feeCollector",
                      "type": "address"
                    }
                  ],
                  "internalType": "struct IHederaTokenService.RoyaltyFee[]",
                  "name": "royaltyFees",
                  "type": "tuple[]"
                },
                {
                  "internalType": "string",
                  "name": "ledgerId",
                  "type": "string"
                }
              ],
              "internalType": "struct IHederaTokenService.TokenInfo",
              "name": "tokenInfo",
              "type": "tuple"
            },
            {
              "internalType": "int64",
              "name": "serialNumber",
              "type": "int64"
            },
            {
              "internalType": "address",
              "name": "ownerId",
              "type": "address"
            },
            {
              "internalType": "int64",
              "name": "creationTime",
              "type": "int64"
            },
            {
              "internalType": "bytes",
              "name": "metadata",
              "type": "bytes"
            },
            {
              "internalType": "address",
              "name": "spenderId",
              "type": "address"
            }
          ],
          "internalType": "struct IHederaTokenService.NonFungibleTokenInfo",
          "name": "tokenInfo",
          "type": "tuple"
        }
      ],
      "stateMutability": "nonpayable",
      "type": "function"
    },
    {
      "inputs": [
        {
          "internalType": "uint8",
          "name": "keyType",
          "type": "uint8"
        },
        {
          "internalType": "uint8",
          "name": "keyValueType",
          "type": "uint8"
        },
        {
          "internalType": "address",
          "name": "key",
          "type": "address"
        }
      ],
      "name": "getSingleKeyPublic",
      "outputs": [],
      "stateMutability": "payable",
      "type": "function"
    },
    {
      "inputs": [
        {
          "internalType": "address",
          "name": "token",
          "type": "address"
        }
      ],
      "name": "getTokenCustomFeesPublic",
      "outputs": [
        {
          "internalType": "int64",
          "name": "responseCode",
          "type": "int64"
        },
        {
          "components": [
            {
              "internalType": "uint32",
              "name": "amount",
              "type": "uint32"
            },
            {
              "internalType": "address",
              "name": "tokenId",
              "type": "address"
            },
            {
              "internalType": "bool",
              "name": "useHbarsForPayment",
              "type": "bool"
            },
            {
              "internalType": "bool",
              "name": "useCurrentTokenForPayment",
              "type": "bool"
            },
            {
              "internalType": "address",
              "name": "feeCollector",
              "type": "address"
            }
          ],
          "internalType": "struct IHederaTokenService.FixedFee[]",
          "name": "fixedFees",
          "type": "tuple[]"
        },
        {
          "components": [
            {
              "internalType": "uint32",
              "name": "numerator",
              "type": "uint32"
            },
            {
              "internalType": "uint32",
              "name": "denominator",
              "type": "uint32"
            },
            {
              "internalType": "uint32",
              "name": "minimumAmount",
              "type": "uint32"
            },
            {
              "internalType": "uint32",
              "name": "maximumAmount",
              "type": "uint32"
            },
            {
              "internalType": "bool",
              "name": "netOfTransfers",
              "type": "bool"
            },
            {
              "internalType": "address",
              "name": "feeCollector",
              "type": "address"
            }
          ],
          "internalType": "struct IHederaTokenService.FractionalFee[]",
          "name": "fractionalFees",
          "type": "tuple[]"
        },
        {
          "components": [
            {
              "internalType": "uint32",
              "name": "numerator",
              "type": "uint32"
            },
            {
              "internalType": "uint32",
              "name": "denominator",
              "type": "uint32"
            },
            {
              "internalType": "uint32",
              "name": "amount",
              "type": "uint32"
            },
            {
              "internalType": "address",
              "name": "tokenId",
              "type": "address"
            },
            {
              "internalType": "bool",
              "name": "useHbarsForPayment",
              "type": "bool"
            },
            {
              "internalType": "address",
              "name": "feeCollector",
              "type": "address"
            }
          ],
          "internalType": "struct IHederaTokenService.RoyaltyFee[]",
          "name": "royaltyFees",
          "type": "tuple[]"
        }
      ],
      "stateMutability": "nonpayable",
      "type": "function"
    },
    {
      "inputs": [
        {
          "internalType": "address",
          "name": "token",
          "type": "address"
        }
      ],
      "name": "getTokenDefaultFreezeStatusPublic",
      "outputs": [
        {
          "internalType": "int256",
          "name": "responseCode",
          "type": "int256"
        },
        {
          "internalType": "bool",
          "name": "defaultFreezeStatus",
          "type": "bool"
        }
      ],
      "stateMutability": "nonpayable",
      "type": "function"
    },
    {
      "inputs": [
        {
          "internalType": "address",
          "name": "token",
          "type": "address"
        }
      ],
      "name": "getTokenDefaultKycStatusPublic",
      "outputs": [
        {
          "internalType": "int256",
          "name": "responseCode",
          "type": "int256"
        },
        {
          "internalType": "bool",
          "name": "defaultKycStatus",
          "type": "bool"
        }
      ],
      "stateMutability": "nonpayable",
      "type": "function"
    },
    {
      "inputs": [
        {
          "internalType": "address",
          "name": "token",
          "type": "address"
        }
      ],
      "name": "getTokenExpiryInfo",
      "outputs": [
        {
          "internalType": "int256",
          "name": "responseCode",
          "type": "int256"
        },
        {
          "components": [
            {
              "internalType": "uint32",
              "name": "second",
              "type": "uint32"
            },
            {
              "internalType": "address",
              "name": "autoRenewAccount",
              "type": "address"
            },
            {
              "internalType": "uint32",
              "name": "autoRenewPeriod",
              "type": "uint32"
            }
          ],
          "internalType": "struct IHederaTokenService.Expiry",
          "name": "expiryInfo",
          "type": "tuple"
        }
      ],
      "stateMutability": "nonpayable",
      "type": "function"
    },
    {
      "inputs": [
        {
          "internalType": "address",
          "name": "token",
          "type": "address"
        }
      ],
      "name": "getTokenExpiryInfoPublic",
      "outputs": [
        {
          "internalType": "int256",
          "name": "responseCode",
          "type": "int256"
        },
        {
          "components": [
            {
              "internalType": "uint32",
              "name": "second",
              "type": "uint32"
            },
            {
              "internalType": "address",
              "name": "autoRenewAccount",
              "type": "address"
            },
            {
              "internalType": "uint32",
              "name": "autoRenewPeriod",
              "type": "uint32"
            }
          ],
          "internalType": "struct IHederaTokenService.Expiry",
          "name": "expiryInfo",
          "type": "tuple"
        }
      ],
      "stateMutability": "nonpayable",
      "type": "function"
    },
    {
      "inputs": [
        {
          "internalType": "address",
          "name": "token",
          "type": "address"
        }
      ],
      "name": "getTokenInfoPublic",
      "outputs": [
        {
          "internalType": "int256",
          "name": "responseCode",
          "type": "int256"
        },
        {
          "components": [
            {
              "components": [
                {
                  "internalType": "string",
                  "name": "name",
                  "type": "string"
                },
                {
                  "internalType": "string",
                  "name": "symbol",
                  "type": "string"
                },
                {
                  "internalType": "address",
                  "name": "treasury",
                  "type": "address"
                },
                {
                  "internalType": "string",
                  "name": "memo",
                  "type": "string"
                },
                {
                  "internalType": "bool",
                  "name": "tokenSupplyType",
                  "type": "bool"
                },
                {
                  "internalType": "uint32",
                  "name": "maxSupply",
                  "type": "uint32"
                },
                {
                  "internalType": "bool",
                  "name": "freezeDefault",
                  "type": "bool"
                },
                {
                  "components": [
                    {
                      "internalType": "uint256",
                      "name": "keyType",
                      "type": "uint256"
                    },
                    {
                      "components": [
                        {
                          "internalType": "bool",
                          "name": "inheritAccountKey",
                          "type": "bool"
                        },
                        {
                          "internalType": "address",
                          "name": "contractId",
                          "type": "address"
                        },
                        {
                          "internalType": "bytes",
                          "name": "ed25519",
                          "type": "bytes"
                        },
                        {
                          "internalType": "bytes",
                          "name": "ECDSA_secp256k1",
                          "type": "bytes"
                        },
                        {
                          "internalType": "address",
                          "name": "delegatableContractId",
                          "type": "address"
                        }
                      ],
                      "internalType": "struct IHederaTokenService.KeyValue",
                      "name": "key",
                      "type": "tuple"
                    }
                  ],
                  "internalType": "struct IHederaTokenService.TokenKey[]",
                  "name": "tokenKeys",
                  "type": "tuple[]"
                },
                {
                  "components": [
                    {
                      "internalType": "uint32",
                      "name": "second",
                      "type": "uint32"
                    },
                    {
                      "internalType": "address",
                      "name": "autoRenewAccount",
                      "type": "address"
                    },
                    {
                      "internalType": "uint32",
                      "name": "autoRenewPeriod",
                      "type": "uint32"
                    }
                  ],
                  "internalType": "struct IHederaTokenService.Expiry",
                  "name": "expiry",
                  "type": "tuple"
                }
              ],
              "internalType": "struct IHederaTokenService.HederaToken",
              "name": "token",
              "type": "tuple"
            },
            {
              "internalType": "uint64",
              "name": "totalSupply",
              "type": "uint64"
            },
            {
              "internalType": "bool",
              "name": "deleted",
              "type": "bool"
            },
            {
              "internalType": "bool",
              "name": "defaultKycStatus",
              "type": "bool"
            },
            {
              "internalType": "bool",
              "name": "pauseStatus",
              "type": "bool"
            },
            {
              "components": [
                {
                  "internalType": "uint32",
                  "name": "amount",
                  "type": "uint32"
                },
                {
                  "internalType": "address",
                  "name": "tokenId",
                  "type": "address"
                },
                {
                  "internalType": "bool",
                  "name": "useHbarsForPayment",
                  "type": "bool"
                },
                {
                  "internalType": "bool",
                  "name": "useCurrentTokenForPayment",
                  "type": "bool"
                },
                {
                  "internalType": "address",
                  "name": "feeCollector",
                  "type": "address"
                }
              ],
              "internalType": "struct IHederaTokenService.FixedFee[]",
              "name": "fixedFees",
              "type": "tuple[]"
            },
            {
              "components": [
                {
                  "internalType": "uint32",
                  "name": "numerator",
                  "type": "uint32"
                },
                {
                  "internalType": "uint32",
                  "name": "denominator",
                  "type": "uint32"
                },
                {
                  "internalType": "uint32",
                  "name": "minimumAmount",
                  "type": "uint32"
                },
                {
                  "internalType": "uint32",
                  "name": "maximumAmount",
                  "type": "uint32"
                },
                {
                  "internalType": "bool",
                  "name": "netOfTransfers",
                  "type": "bool"
                },
                {
                  "internalType": "address",
                  "name": "feeCollector",
                  "type": "address"
                }
              ],
              "internalType": "struct IHederaTokenService.FractionalFee[]",
              "name": "fractionalFees",
              "type": "tuple[]"
            },
            {
              "components": [
                {
                  "internalType": "uint32",
                  "name": "numerator",
                  "type": "uint32"
                },
                {
                  "internalType": "uint32",
                  "name": "denominator",
                  "type": "uint32"
                },
                {
                  "internalType": "uint32",
                  "name": "amount",
                  "type": "uint32"
                },
                {
                  "internalType": "address",
                  "name": "tokenId",
                  "type": "address"
                },
                {
                  "internalType": "bool",
                  "name": "useHbarsForPayment",
                  "type": "bool"
                },
                {
                  "internalType": "address",
                  "name": "feeCollector",
                  "type": "address"
                }
              ],
              "internalType": "struct IHederaTokenService.RoyaltyFee[]",
              "name": "royaltyFees",
              "type": "tuple[]"
            },
            {
              "internalType": "string",
              "name": "ledgerId",
              "type": "string"
            }
          ],
          "internalType": "struct IHederaTokenService.TokenInfo",
          "name": "tokenInfo",
          "type": "tuple"
        }
      ],
      "stateMutability": "nonpayable",
      "type": "function"
    },
    {
      "inputs": [
        {
          "internalType": "address",
          "name": "token",
          "type": "address"
        },
        {
          "internalType": "uint256",
          "name": "keyType",
          "type": "uint256"
        }
      ],
      "name": "getTokenKeyPublic",
      "outputs": [
        {
          "internalType": "int64",
          "name": "responseCode",
          "type": "int64"
        },
        {
          "components": [
            {
              "internalType": "bool",
              "name": "inheritAccountKey",
              "type": "bool"
            },
            {
              "internalType": "address",
              "name": "contractId",
              "type": "address"
            },
            {
              "internalType": "bytes",
              "name": "ed25519",
              "type": "bytes"
            },
            {
              "internalType": "bytes",
              "name": "ECDSA_secp256k1",
              "type": "bytes"
            },
            {
              "internalType": "address",
              "name": "delegatableContractId",
              "type": "address"
            }
          ],
          "internalType": "struct IHederaTokenService.KeyValue",
          "name": "key",
          "type": "tuple"
        }
      ],
      "stateMutability": "nonpayable",
      "type": "function"
    },
    {
      "inputs": [
        {
          "internalType": "address",
          "name": "token",
          "type": "address"
        },
        {
          "internalType": "address",
          "name": "account",
          "type": "address"
        }
      ],
      "name": "grantTokenKyc",
      "outputs": [
        {
          "internalType": "int64",
          "name": "responseCode",
          "type": "int64"
        }
      ],
      "stateMutability": "nonpayable",
      "type": "function"
    },
    {
      "inputs": [
        {
          "internalType": "address",
          "name": "token",
          "type": "address"
        },
        {
          "internalType": "address",
          "name": "account",
          "type": "address"
        }
      ],
      "name": "grantTokenKycPublic",
      "outputs": [
        {
          "internalType": "int64",
          "name": "responseCode",
          "type": "int64"
        }
      ],
      "stateMutability": "nonpayable",
      "type": "function"
    },
    {
      "inputs": [
        {
          "internalType": "address",
          "name": "token",
          "type": "address"
        },
        {
          "internalType": "address",
          "name": "owner",
          "type": "address"
        },
        {
          "internalType": "address",
          "name": "operator",
          "type": "address"
        }
      ],
      "name": "isApprovedForAllPublic",
      "outputs": [
        {
          "internalType": "int256",
          "name": "responseCode",
          "type": "int256"
        },
        {
          "internalType": "bool",
          "name": "approved",
          "type": "bool"
        }
      ],
      "stateMutability": "nonpayable",
      "type": "function"
    },
    {
      "inputs": [
        {
          "internalType": "address",
          "name": "token",
          "type": "address"
        },
        {
          "internalType": "address",
          "name": "account",
          "type": "address"
        }
      ],
      "name": "isFrozenPublic",
      "outputs": [
        {
          "internalType": "int256",
          "name": "responseCode",
          "type": "int256"
        },
        {
          "internalType": "bool",
          "name": "frozen",
          "type": "bool"
        }
      ],
      "stateMutability": "nonpayable",
      "type": "function"
    },
    {
      "inputs": [
        {
          "internalType": "address",
          "name": "token",
          "type": "address"
        },
        {
          "internalType": "address",
          "name": "account",
          "type": "address"
        }
      ],
      "name": "isKyc",
      "outputs": [
        {
          "internalType": "int64",
          "name": "responseCode",
          "type": "int64"
        },
        {
          "internalType": "bool",
          "name": "kycGranted",
          "type": "bool"
        }
      ],
      "stateMutability": "nonpayable",
      "type": "function"
    },
    {
      "inputs": [
        {
          "internalType": "address",
          "name": "token",
          "type": "address"
        },
        {
          "internalType": "address",
          "name": "account",
          "type": "address"
        }
      ],
      "name": "isKycPublic",
      "outputs": [
        {
          "internalType": "int64",
          "name": "responseCode",
          "type": "int64"
        },
        {
          "internalType": "bool",
          "name": "kycGranted",
          "type": "bool"
        }
      ],
      "stateMutability": "nonpayable",
      "type": "function"
    },
    {
      "inputs": [
        {
          "internalType": "address",
          "name": "token",
          "type": "address"
        },
        {
          "internalType": "uint64",
          "name": "amount",
          "type": "uint64"
        },
        {
          "internalType": "bytes[]",
          "name": "metadata",
          "type": "bytes[]"
        }
      ],
      "name": "mintTokenPublic",
      "outputs": [
        {
          "internalType": "int256",
          "name": "responseCode",
          "type": "int256"
        },
        {
          "internalType": "uint64",
          "name": "newTotalSupply",
          "type": "uint64"
        },
        {
          "internalType": "int64[]",
          "name": "serialNumbers",
          "type": "int64[]"
        }
      ],
      "stateMutability": "nonpayable",
      "type": "function"
    },
    {
      "inputs": [
        {
          "internalType": "address",
          "name": "token",
          "type": "address"
        }
      ],
      "name": "pauseToken",
      "outputs": [
        {
          "internalType": "int256",
          "name": "responseCode",
          "type": "int256"
        }
      ],
      "stateMutability": "nonpayable",
      "type": "function"
    },
    {
      "inputs": [
        {
          "internalType": "address",
          "name": "token",
          "type": "address"
        }
      ],
      "name": "pauseTokenPublic",
      "outputs": [
        {
          "internalType": "int256",
          "name": "responseCode",
          "type": "int256"
        }
      ],
      "stateMutability": "nonpayable",
      "type": "function"
    },
    {
      "inputs": [
        {
          "internalType": "address",
          "name": "token",
          "type": "address"
        },
        {
          "internalType": "address",
          "name": "account",
          "type": "address"
        }
      ],
      "name": "revokeTokenKyc",
      "outputs": [
        {
          "internalType": "int64",
          "name": "responseCode",
          "type": "int64"
        }
      ],
      "stateMutability": "nonpayable",
      "type": "function"
    },
    {
      "inputs": [
        {
          "internalType": "address",
          "name": "token",
          "type": "address"
        },
        {
          "internalType": "address",
          "name": "account",
          "type": "address"
        }
      ],
      "name": "revokeTokenKycPublic",
      "outputs": [
        {
          "internalType": "int64",
          "name": "responseCode",
          "type": "int64"
        }
      ],
      "stateMutability": "nonpayable",
      "type": "function"
    },
    {
      "inputs": [
        {
          "internalType": "address",
          "name": "token",
          "type": "address"
        },
        {
          "internalType": "address",
          "name": "operator",
          "type": "address"
        },
        {
          "internalType": "bool",
          "name": "approved",
          "type": "bool"
        }
      ],
      "name": "setApprovalForAllPublic",
      "outputs": [
        {
          "internalType": "int256",
          "name": "responseCode",
          "type": "int256"
        }
      ],
      "stateMutability": "nonpayable",
      "type": "function"
    },
    {
      "inputs": [
        {
          "internalType": "bool",
          "name": "newFreezeStatus",
          "type": "bool"
        }
      ],
      "name": "setFreezeDefaultStatus",
      "outputs": [],
      "stateMutability": "nonpayable",
      "type": "function"
    },
    {
      "inputs": [
        {
          "internalType": "address",
          "name": "token",
          "type": "address"
        },
        {
          "internalType": "address",
          "name": "sender",
          "type": "address"
        },
        {
          "internalType": "address",
          "name": "receiver",
          "type": "address"
        },
        {
          "internalType": "int64",
          "name": "serialNumber",
          "type": "int64"
        }
      ],
      "name": "transferNFTPublic",
      "outputs": [
        {
          "internalType": "int256",
          "name": "responseCode",
          "type": "int256"
        }
      ],
      "stateMutability": "nonpayable",
      "type": "function"
    },
    {
      "inputs": [
        {
          "internalType": "address",
          "name": "token",
          "type": "address"
        },
        {
          "internalType": "address",
          "name": "sender",
          "type": "address"
        },
        {
          "internalType": "address",
          "name": "receiver",
          "type": "address"
        },
        {
          "internalType": "int64",
          "name": "amount",
          "type": "int64"
        }
      ],
      "name": "transferTokenPublic",
      "outputs": [
        {
          "internalType": "int256",
          "name": "responseCode",
          "type": "int256"
        }
      ],
      "stateMutability": "nonpayable",
      "type": "function"
    },
    {
      "inputs": [
        {
          "internalType": "address",
          "name": "token",
          "type": "address"
        },
        {
          "internalType": "address",
          "name": "account",
          "type": "address"
        }
      ],
      "name": "unfreezeTokenPublic",
      "outputs": [
        {
          "internalType": "int256",
          "name": "responseCode",
          "type": "int256"
        }
      ],
      "stateMutability": "nonpayable",
      "type": "function"
    },
    {
      "inputs": [
        {
          "internalType": "address",
          "name": "token",
          "type": "address"
        }
      ],
      "name": "unpauseToken",
      "outputs": [
        {
          "internalType": "int256",
          "name": "responseCode",
          "type": "int256"
        }
      ],
      "stateMutability": "nonpayable",
      "type": "function"
    },
    {
      "inputs": [
        {
          "internalType": "address",
          "name": "token",
          "type": "address"
        }
      ],
      "name": "unpauseTokenPublic",
      "outputs": [
        {
          "internalType": "int256",
          "name": "responseCode",
          "type": "int256"
        }
      ],
      "stateMutability": "nonpayable",
      "type": "function"
    },
    {
      "inputs": [
        {
          "internalType": "address",
          "name": "token",
          "type": "address"
        },
        {
          "components": [
            {
              "internalType": "uint32",
              "name": "second",
              "type": "uint32"
            },
            {
              "internalType": "address",
              "name": "autoRenewAccount",
              "type": "address"
            },
            {
              "internalType": "uint32",
              "name": "autoRenewPeriod",
              "type": "uint32"
            }
          ],
          "internalType": "struct IHederaTokenService.Expiry",
          "name": "expiryInfo",
          "type": "tuple"
        }
      ],
      "name": "updateTokenExpiryInfo",
      "outputs": [
        {
          "internalType": "int256",
          "name": "responseCode",
          "type": "int256"
        }
      ],
      "stateMutability": "nonpayable",
      "type": "function"
    },
    {
      "inputs": [
        {
          "internalType": "address",
          "name": "token",
          "type": "address"
        },
        {
          "components": [
            {
              "internalType": "uint32",
              "name": "second",
              "type": "uint32"
            },
            {
              "internalType": "address",
              "name": "autoRenewAccount",
              "type": "address"
            },
            {
              "internalType": "uint32",
              "name": "autoRenewPeriod",
              "type": "uint32"
            }
          ],
          "internalType": "struct IHederaTokenService.Expiry",
          "name": "expiryInfo",
          "type": "tuple"
        }
      ],
      "name": "updateTokenExpiryInfoPublic",
      "outputs": [
        {
          "internalType": "int256",
          "name": "responseCode",
          "type": "int256"
        }
      ],
      "stateMutability": "nonpayable",
      "type": "function"
    },
    {
      "inputs": [
        {
          "internalType": "address",
          "name": "token",
          "type": "address"
        },
        {
          "components": [
            {
              "internalType": "uint256",
              "name": "keyType",
              "type": "uint256"
            },
            {
              "components": [
                {
                  "internalType": "bool",
                  "name": "inheritAccountKey",
                  "type": "bool"
                },
                {
                  "internalType": "address",
                  "name": "contractId",
                  "type": "address"
                },
                {
                  "internalType": "bytes",
                  "name": "ed25519",
                  "type": "bytes"
                },
                {
                  "internalType": "bytes",
                  "name": "ECDSA_secp256k1",
                  "type": "bytes"
                },
                {
                  "internalType": "address",
                  "name": "delegatableContractId",
                  "type": "address"
                }
              ],
              "internalType": "struct IHederaTokenService.KeyValue",
              "name": "key",
              "type": "tuple"
            }
          ],
          "internalType": "struct IHederaTokenService.TokenKey[]",
          "name": "keys",
          "type": "tuple[]"
        }
      ],
      "name": "updateTokenKeysPublic",
      "outputs": [
        {
          "internalType": "int64",
          "name": "responseCode",
          "type": "int64"
        }
      ],
      "stateMutability": "nonpayable",
      "type": "function"
    },
    {
      "inputs": [
        {
          "internalType": "address",
          "name": "token",
          "type": "address"
        },
        {
          "internalType": "address",
          "name": "account",
          "type": "address"
        },
        {
          "internalType": "int64[]",
          "name": "serialNumbers",
          "type": "int64[]"
        }
      ],
      "name": "wipeTokenAccountNFTPublic",
      "outputs": [
        {
          "internalType": "int256",
          "name": "responseCode",
          "type": "int256"
        }
      ],
      "stateMutability": "nonpayable",
      "type": "function"
    },
    {
      "inputs": [
        {
          "internalType": "address",
          "name": "token",
          "type": "address"
        },
        {
          "internalType": "address",
          "name": "account",
          "type": "address"
        },
        {
          "internalType": "uint32",
          "name": "amount",
          "type": "uint32"
        }
      ],
      "name": "wipeTokenAccountPublic",
      "outputs": [
        {
          "internalType": "int256",
          "name": "responseCode",
          "type": "int256"
        }
      ],
      "stateMutability": "nonpayable",
      "type": "function"
    }
  ],
  "bytecode": "0x60c06040526009608081905268746f6b656e4e616d6560b81b60a09081526200002c9160019190620000cb565b5060408051808201909152600b8082526a1d1bdad95b94de5b589bdb60aa1b60209092019182526200006191600291620000cb565b50604080518082019091526004808252636d656d6f60e01b60209092019182526200008f91600391620000cb565b506103e860048190556005805463ffffffff1916909117905560086006556007805460ff19169055348015620000c457600080fd5b50620001ae565b828054620000d99062000171565b90600052602060002090601f016020900481019282620000fd576000855562000148565b82601f106200011857805160ff191683800117855562000148565b8280016001018555821562000148579182015b82811115620001485782518255916020019190600101906200012b565b50620001569291506200015a565b5090565b5b808211156200015657600081556001016200015b565b600181811c908216806200018657607f821691505b60208210811415620001a857634e487b7160e01b600052602260045260246000fd5b50919050565b615d0c80620001be6000396000f3fe6080604052600436106102675760003560e01c80638070905f11610144578063d92ac248116100b6578063f2f38a741161007a578063f2f38a74146107d8578063f4a01e5b14610806578063f7be342514610826578063f848fec414610846578063f9e978bd14610866578063fdc8321e1461088657600080fd5b8063d92ac24814610745578063e712a04814610765578063eee55ac814610778578063f25b120014610798578063f2c31ff4146107b857600080fd5b8063a345f7bd11610108578063a345f7bd1461066a578063a3ad5b551461068a578063af99c633146106c4578063c0b19b6d146106e4578063d614cdb814610712578063d85f74c11461073257600080fd5b80638070905f146105c857806386f88d88146105f75780638ba74da0146106175780638f8d7f991461062a5780639604ca651461064a57600080fd5b80634cbdb37b116101dd5780635b9076b7116101a15780635b9076b7146104ea57806369837dc21461051a5780636a4dde21146105485780636da6b1f0146105685780637c41ad2c146105885780637d3e5da8146105a857600080fd5b80634cbdb37b146104275780634d8f27c91461045557806356af840314610475578063593d6e82146104955780635a5e6c31146104b557600080fd5b80632d73bb2e1161022f5780632d73bb2e146103725780632eecbca3146103925780633b3bff0f146103b25780633eed2c39146103d25780634b5c6687146103f25780634ba670351461040757600080fd5b80630fd2601e1461026c57806313c05dd8146102a45780631955de0b146102d957806319db44b6146103075780632b256ec814610344575b600080fd5b34801561027857600080fd5b5061028c610287366004614428565b6108a6565b60405160079190910b81526020015b60405180910390f35b3480156102b057600080fd5b506102c46102bf366004614460565b61095f565b6040805192835290151560208301520161029b565b3480156102e557600080fd5b506102f96102f436600461490f565b6109dd565b60405161029b9291906157f7565b34801561031357600080fd5b5061032761032236600461490f565b610a6a565b604080519283526001600160a01b0390911660208301520161029b565b34801561035057600080fd5b5061036461035f36600461440c565b610ae3565b60405190815260200161029b565b34801561037e57600080fd5b5061036461038d366004614428565b610bcf565b34801561039e57600080fd5b5061028c6103ad366004614428565b610c14565b3480156103be57600080fd5b506103646103cd36600461440c565b610c3c565b3480156103de57600080fd5b506102c46103ed36600461440c565b610d16565b61040561040036600461440c565b610d90565b005b34801561041357600080fd5b506103646104223660046144aa565b611188565b34801561043357600080fd5b50610447610442366004614867565b6111d4565b60405161029b929190615750565b34801561046157600080fd5b5061028c6104703660046146c4565b61124a565b34801561048157600080fd5b50610364610490366004614505565b611256565b3480156104a157600080fd5b506103646104b0366004614894565b6112a0565b3480156104c157600080fd5b506104d56104d0366004614460565b61137d565b6040805192835260208301919091520161029b565b3480156104f657600080fd5b5061050a61050536600461440c565b6113ee565b60405161029b94939291906157aa565b34801561052657600080fd5b5061053a61053536600461440c565b611480565b60405161029b929190615737565b34801561055457600080fd5b506102c4610563366004614428565b6114f5565b34801561057457600080fd5b506103646105833660046144aa565b61156c565b34801561059457600080fd5b506103646105a336600461440c565b61157a565b3480156105b457600080fd5b506103646105c3366004614428565b6115a8565b3480156105d457600080fd5b506105e86105e336600461493a565b6115b4565b60405161029b93929190615782565b34801561060357600080fd5b506102c461061236600461440c565b61163c565b610405610625366004614428565b6116ad565b34801561063657600080fd5b5061028c610645366004614428565b611b69565b34801561065657600080fd5b50610364610665366004614a10565b611b95565b34801561067657600080fd5b5061036461068536600461440c565b611bca565b34801561069657600080fd5b506106aa6106a5366004614428565b611c10565b6040805160079390930b835290151560208301520161029b565b3480156106d057600080fd5b5061028c6106df366004614428565b611cf8565b3480156106f057600080fd5b506107046106ff36600461440c565b611d24565b60405161029b929190615723565b34801561071e57600080fd5b5061070461072d36600461440c565b611e1b565b61040561074036600461440c565b611f2a565b34801561075157600080fd5b50610364610760366004614685565b612308565b610405610773366004614f32565b612315565b34801561078457600080fd5b50610364610793366004614894565b612376565b3480156107a457600080fd5b506103646107b33660046145c7565b6123f0565b3480156107c457600080fd5b506106aa6107d3366004614428565b6123fd565b3480156107e457600080fd5b506107f86107f336600461440c565b6124d1565b60405161029b929190615769565b34801561081257600080fd5b50610364610821366004614428565b612546565b34801561083257600080fd5b5061036461084136600461440c565b612552565b34801561085257600080fd5b50610364610861366004614645565b612635565b34801561087257600080fd5b50610405610881366004614a7f565b612642565b34801561089257600080fd5b506103646108a1366004614606565b61268f565b604051638f8d7f9960e01b81526000903090638f8d7f99906108ce9086908690600401615506565b602060405180830381600087803b1580156108e857600080fd5b505af11580156108fc573d6000803e3d6000fd5b505050506040513d601f19601f820116820180604052508101906109209190614ee8565b604051600782900b8152909150600080516020615cb78339815191529060200160405180910390a1600781900b60161461095957600080fd5b92915050565b60008061096d858585612890565b6040518281529193509150600080516020615cb78339815191529060200160405180910390a1601682146109a057600080fd5b60405181151581527e1c2e72360171244b3bb8cc8ddd767820edf37138ad6f129fb3574b407c307d906020015b60405180910390a1935093915050565b60006109e7613a5d565b6109f18484612976565b604051600783900b81529193509150600080516020615cb78339815191529060200160405180910390a1600782900b601614610a2c57600080fd5b7faed084fbdf29b6ba2242463299d7270f64e0f8ced16013cfff249856bd88715781604051610a5b91906158bd565b60405180910390a19250929050565b600080610a778484612a4a565b6040518281529193509150600080516020615cb78339815191529060200160405180910390a160168214610aaa57600080fd5b6040516001600160a01b03821681527fc2c78c7c31baf14949e75c51df12be56edb9af523cf82839c2869bbcf13b3ecb90602001610a5b565b604051631f106b4b60e21b81526001600160a01b03821660048201526000903090637c41ad2c90602401602060405180830381600087803b158015610b2757600080fd5b505af1158015610b3b573d6000803e3d6000fd5b505050506040513d601f19601f82011682018060405250810190610b5f9190614a9b565b9050600080516020615cb783398151915281604051610b8091815260200190565b60405180910390a160168114610b9557600080fd5b604051600181527f0c9c765845f4d139956bb8fc8decb2eec6093c9c608b809641b16054b29f0e13906020015b60405180910390a1919050565b6000610bdb8383612b11565b60070b9050600080516020615cb783398151915281604051610bff91815260200190565b60405180910390a16016811461095957600080fd5b60405163af99c63360e01b8152600090309063af99c633906108ce9086908690600401615506565b6040516001600160a01b03821660248201526000908190819061016790633b3bff0f60e01b906044015b60408051601f198184030181529181526020820180516001600160e01b03166001600160e01b0319909416939093179092529051610ca491906154ea565b6000604051808303816000865af19150503d8060008114610ce1576040519150601f19603f3d011682016040523d82523d6000602084013e610ce6565b606091505b509150915081610cf7576015610d0b565b80806020019051810190610d0b9190614adf565b60030b949350505050565b600080610d2283612b3d565b6040518281529193509150600080516020615cb78339815191529060200160405180910390a160168214610d5557600080fd5b60405181151581527f6b7f3306751292f85ab4161ee2b0ac16dfc8ded13e6446ce6bd859d0a2f4c78e906020015b60405180910390a1915091565b60408051600480825260a08201909252600091816020015b610db0613aa0565b815260200190600190039081610da8579050509050610de360006006600160405180602001604052806000815250612c21565b81600081518110610e0457634e487b7160e01b600052603260045260246000fd5b6020026020010181905250610e2a60018060405180602001604052806000815250612c58565b81600181518110610e4b57634e487b7160e01b600052603260045260246000fd5b6020026020010181905250610e726002600160405180602001604052806000815250612c58565b81600281518110610e9357634e487b7160e01b600052603260045260246000fd5b6020026020010181905250610eba6003600160405180602001604052806000815250612c58565b81600381518110610edb57634e487b7160e01b600052603260045260246000fd5b602002602001018190525060006040518060600160405280600063ffffffff168152602001846001600160a01b03168152602001627a120063ffffffff168152509050600060405180610120016040528060018054610f3990615bd7565b80601f0160208091040260200160405190810160405280929190818152602001828054610f6590615bd7565b8015610fb25780601f10610f8757610100808354040283529160200191610fb2565b820191906000526020600020905b815481529060010190602001808311610f9557829003601f168201915b5050505050815260200160028054610fc990615bd7565b80601f0160208091040260200160405190810160405280929190818152602001828054610ff590615bd7565b80156110425780601f1061101757610100808354040283529160200191611042565b820191906000526020600020905b81548152906001019060200180831161102557829003601f168201915b50505050508152602001856001600160a01b031681526020016003805461106890615bd7565b80601f016020809104026020016040519081016040528092919081815260200182805461109490615bd7565b80156110e15780601f106110b6576101008083540402835291602001916110e1565b820191906000526020600020905b8154815290600101906020018083116110c457829003601f168201915b50505091835250506001602082015260055463ffffffff16604082015260075460ff16151560608201526080810185905260a001839052600454600654919250600091829161113291859190612c8d565b90925090506016821461114457600080fd5b6040516001600160a01b03821681527f7bb17726df1f3adee8aa00ba8e8bc5d6f182af3bbf77604639cb7f008dd3b4ed9060200160405180910390a1505050505050565b600061119685858585612dbb565b9050600080516020615cb7833981519152816040516111b791815260200190565b60405180910390a1601681146111cc57600080fd5b949350505050565b60006111de613abf565b6111e88484612eb2565b6040518281529193509150600080516020615cb78339815191529060200160405180910390a16016821461121b57600080fd5b7fa516f81c528634d0fc1e993bba1d227231b4bd6d1beb72d33b056a6199c0f98881604051610a5b91906158d0565b60006109208383612f8c565b6000611263848484612fb8565b9050600080516020615cb78339815191528160405161128491815260200190565b60405180910390a16016811461129957600080fd5b9392505050565b60008060006101676001600160a01b031663593d6e8260e01b86866040516024016112cc929190615579565b60408051601f198184030181529181526020820180516001600160e01b03166001600160e01b031990941693909317909252905161130a91906154ea565b6000604051808303816000865af19150503d8060008114611347576040519150601f19603f3d011682016040523d82523d6000602084013e61134c565b606091505b50915091508161135d576015611371565b808060200190518101906113719190614adf565b60030b95945050505050565b60008061138b858585613098565b6040518281529193509150600080516020615cb78339815191529060200160405180910390a1601682146113be57600080fd5b6040518181527f25b6684a7e8fe1b676e9c39c8dd65034fbafea906d3bdfd97bf748b7b55e14c8906020016109cd565b600060608060606113fe8561316b565b604051600785900b815293975091955093509150600080516020615cb78339815191529060200160405180910390a1600784900b60161461143e57600080fd5b7f2efc8334b040613a552197fe34283d6ca2909c8ffae393e128424931f20c69b383838360405161147193929190615617565b60405180910390a19193509193565b600061148a613afa565b61149383613252565b6040518281529193509150600080516020615cb78339815191529060200160405180910390a1601682146114c657600080fd5b7f476a9a9b28e2717d55288b2ae3c48a72aac52b11f8bd855017c9d41d9fc1896481604051610d839190615821565b6000806115028484613322565b60405160079290920b80835293509150600080516020615cb78339815191529060200160405180910390a16016821461153a57600080fd5b60405181151581527f59800d968fcce138300a0019410b4b75041610d65b3cdc5f31656b03ed14912e90602001610a5b565b60006111968585858561334f565b6040516001600160a01b03821660248201526000908190819061016790631f106b4b60e21b90604401610c66565b6000610bdb8383613397565b60008060606115c48686866133c3565b6040518381529295509093509150600080516020615cb78339815191529060200160405180910390a1601683146115fa57600080fd5b7feff23992f47b3c101679f8b4dc9d3e242c903909dba4a453f2b2341ad463b0e2828260405161162b9291906158f6565b60405180910390a193509350939050565b600080611648836134c1565b6040518281529193509150600080516020615cb78339815191529060200160405180910390a16016821461167b57600080fd5b60405181151581527f9ee19e13dfa1ba8db2502e15ff56dbecdeb0e0473323fb195473ce648030a2cd90602001610d83565b604080516001808252818301909252600091816020015b6116cc613aa0565b8152602001906001900390816116c45790505090506116fe600080600160405180602001604052806000815250612c21565b8160008151811061171f57634e487b7160e01b600052603260045260246000fd5b602002602001018190525060006040518060600160405280600063ffffffff168152602001856001600160a01b03168152602001627a120063ffffffff16815250905060006040518061012001604052806001805461177d90615bd7565b80601f01602080910402602001604051908101604052809291908181526020018280546117a990615bd7565b80156117f65780601f106117cb576101008083540402835291602001916117f6565b820191906000526020600020905b8154815290600101906020018083116117d957829003601f168201915b505050505081526020016002805461180d90615bd7565b80601f016020809104026020016040519081016040528092919081815260200182805461183990615bd7565b80156118865780601f1061185b57610100808354040283529160200191611886565b820191906000526020600020905b81548152906001019060200180831161186957829003601f168201915b50505050508152602001866001600160a01b03168152602001600380546118ac90615bd7565b80601f01602080910402602001604051908101604052809291908181526020018280546118d890615bd7565b80156119255780601f106118fa57610100808354040283529160200191611925565b820191906000526020600020905b81548152906001019060200180831161190857829003601f168201915b505050918352505060016020820181905260055463ffffffff166040808401919091526000606084018190526080840188905260a09093018690528051828152808201909152929350909190816020015b6040805160a0810182526000808252602080830182905292820181905260608201819052608082015282526000199092019101816119765750506040805160a081018252600181526001600160a01b03888116602083015260009282018390526060820183905289166080820152825192935091839190611a0757634e487b7160e01b600052603260045260246000fd5b6020908102919091010152604080516001808252818301909252600091816020015b6040805160c08101825260008082526020808301829052928201819052606082018190526080820181905260a08201528252600019909201910181611a295750506040805160c0810182526004815260056020820152600a91810191909152601e60608201526000608082018190526001600160a01b038a1660a083015282519293509091839190611acb57634e487b7160e01b600052603260045260246000fd5b6020026020010181905250600080611aea8560045460065487876134f1565b91509150600080516020615cb783398151915282604051611b0d91815260200190565b60405180910390a160168214611b2257600080fd5b6040516001600160a01b03821681527f7bb17726df1f3adee8aa00ba8e8bc5d6f182af3bbf77604639cb7f008dd3b4ed9060200160405180910390a1505050505050505050565b60008060006101676001600160a01b0316638f8d7f9960e01b86866040516024016112cc929190615506565b6000611ba9611ba48385615a43565b613625565b9050600080516020615cb783398151915281604051610bff91815260200190565b6000611bd58261364f565b9050600080516020615cb783398151915281604051611bf691815260200190565b60405180910390a160168114611c0b57600080fd5b919050565b604051633cb0c7fd60e21b81526000908190309063f2c31ff490611c3a9087908790600401615506565b6040805180830381600087803b158015611c5357600080fd5b505af1158015611c67573d6000803e3d6000fd5b505050506040513d601f19601f82011682018060405250810190611c8b9190614f04565b604051600783900b81529193509150600080516020615cb78339815191529060200160405180910390a1600782900b601614611cc657600080fd5b60405181151581527fd24dda6928587354b65aa1a18c2eaf249bef7e5bafd2a71fac71d286f76f957f90602001610a5b565b60008060006101676001600160a01b031663af99c63360e01b86866040516024016112cc929190615506565b60408051606081018252600080825260208201819052918101829052604051631ac299b760e31b81526001600160a01b0384166004820152309063d614cdb890602401608060405180830381600087803b158015611d8157600080fd5b505af1158015611d95573d6000803e3d6000fd5b505050506040513d601f19601f82011682018060405250810190611db99190614ab3565b6040518281529193509150600080516020615cb78339815191529060200160405180910390a160168214611dec57600080fd5b7fa0a16bf9db2c17796faeca5af5aaeef8523f9d4c350c512cb00062ad89604f8881604051610d839190615813565b604080516060810182526000808252602080830182905282840182905283516001600160a01b038616602480830191909152855180830390910181526044909101855290810180516001600160e01b0316631ac299b760e31b179052925190928391829161016791611e8d91906154ea565b6000604051808303816000865af19150503d8060008114611eca576040519150601f19603f3d011682016040523d82523d6000602084013e611ecf565b606091505b5091509150611ef7604080516060810182526000808252602082018190529181019190915290565b82611f0457601581611f18565b81806020019051810190611f189190614be3565b60039190910b97909650945050505050565b60408051600580825260c08201909252600091816020015b611f4a613aa0565b815260200190600190039081611f42579050509050611f7d60006006600160405180602001604052806000815250612c21565b81600081518110611f9e57634e487b7160e01b600052603260045260246000fd5b6020026020010181905250611fc460018060405180602001604052806000815250612c58565b81600181518110611fe557634e487b7160e01b600052603260045260246000fd5b602002602001018190525061200c6002600160405180602001604052806000815250612c58565b8160028151811061202d57634e487b7160e01b600052603260045260246000fd5b60200260200101819052506120546004600160405180602001604052806000815250612c58565b8160038151811061207557634e487b7160e01b600052603260045260246000fd5b602002602001018190525061209c6003600160405180602001604052806000815250612c58565b816004815181106120bd57634e487b7160e01b600052603260045260246000fd5b602002602001018190525060006040518060600160405280600063ffffffff168152602001846001600160a01b03168152602001627a120063ffffffff16815250905060006040518061012001604052806001805461211b90615bd7565b80601f016020809104026020016040519081016040528092919081815260200182805461214790615bd7565b80156121945780601f1061216957610100808354040283529160200191612194565b820191906000526020600020905b81548152906001019060200180831161217757829003601f168201915b50505050508152602001600280546121ab90615bd7565b80601f01602080910402602001604051908101604052809291908181526020018280546121d790615bd7565b80156122245780601f106121f957610100808354040283529160200191612224565b820191906000526020600020905b81548152906001019060200180831161220757829003601f168201915b50505050508152602001856001600160a01b031681526020016003805461224a90615bd7565b80601f016020809104026020016040519081016040528092919081815260200182805461227690615bd7565b80156122c35780601f10612298576101008083540402835291602001916122c3565b820191906000526020600020905b8154815290600101906020018083116122a657829003601f168201915b50505091835250506001602082015260055463ffffffff16604082015260075460ff16151560608201526080810185905260a00183905290506000806111328361367d565b6000611263848484613767565b60006123336002600160405180602001604052806000815250612c58565b90507faed084fbdf29b6ba2242463299d7270f64e0f8ced16013cfff249856bd887157816020015160405161236891906158bd565b60405180910390a150505050565b604051632c9eb74160e11b8152600090309063593d6e829061239e9086908690600401615579565b602060405180830381600087803b1580156123b857600080fd5b505af11580156123cc573d6000803e3d6000fd5b505050506040513d601f19601f82011682018060405250810190611ba99190614a9b565b60006112638484846137a9565b6000806000806101676001600160a01b031663f2c31ff460e01b878760405160240161242a929190615506565b60408051601f198184030181529181526020820180516001600160e01b03166001600160e01b031990941693909317909252905161246891906154ea565b6000604051808303816000865af19150503d80600081146124a5576040519150601f19603f3d011682016040523d82523d6000602084013e6124aa565b606091505b5091509150816124bd5760156000611f18565b80806020019051810190611f189190614bb8565b60006124db613b1a565b6124e4836137e7565b6040518281529193509150600080516020615cb78339815191529060200160405180910390a16016821461251757600080fd5b7f528c7dcea75f0c9e110a038e50647cd6a70ac06d331399b77dd9a80f903ebc1681604051610d8391906158e3565b6000611ba983836138b7565b604051633b3bff0f60e01b81526001600160a01b03821660048201526000903090633b3bff0f90602401602060405180830381600087803b15801561259657600080fd5b505af11580156125aa573d6000803e3d6000fd5b505050506040513d601f19601f820116820180604052508101906125ce9190614a9b565b9050600080516020615cb7833981519152816040516125ef91815260200190565b60405180910390a16016811461260457600080fd5b604051600181527f319ab7084208e4afa38c6e6ff7aea9587439f2e4700746f4c7d425fea17426d290602001610bc2565b60006112638484846138e3565b6007805460ff191682151590811790915560405160ff909116151581527f457c3a16a0ebdc38e3675609957ca3fcc4490e220bd15d85d34f58e2e145cb089060200160405180910390a150565b604080516000808252602082019092528190816126d4565b60408051606081018252600080825260208083018290529282015282526000199092019101816126a75790505b50905060006040518060400160405280336001600160a01b03168152602001856126fd90615c12565b600790810b9091526040805180820182526001600160a01b038a1681529187900b602083015280516002808252606082019092529293509091600091816020015b604080518082019091526000808252602082015281526020019060019003908161273e579050509050828160008151811061278957634e487b7160e01b600052603260045260246000fd5b602002602001018190525081816001815181106127b657634e487b7160e01b600052603260045260246000fd5b602090810291909101810191909152604080516060810182526001600160a01b038a16815291820183905281810186905280516001808252818301909252600091816020015b612829604051806060016040528060006001600160a01b0316815260200160608152602001606081525090565b8152602001906001900390816127fc579050509050818160008151811061286057634e487b7160e01b600052603260045260246000fd5b602002602001018190525061287481613625565b96506016871461288357600080fd5b5050505050509392505050565b604080516001600160a01b0385811660248301528481166044830152831660648083019190915282518083039091018152608490910182526020810180516001600160e01b031663f49f40db60e01b1790529051600091829182918291610167916128fa916154ea565b6000604051808303816000865af19150503d8060008114612937576040519150601f19603f3d011682016040523d82523d6000602084013e61293c565b606091505b50915091508161294f5760156000612963565b808060200190518101906129639190614bb8565b60039190910b9890975095505050505050565b6000612980613a5d565b604080516001600160a01b0386166024820152604480820186905282518083039091018152606490910182526020810180516001600160e01b0316631e26e99760e11b17905290516000918291610167916129da916154ea565b6000604051808303816000865af19150503d8060008114612a17576040519150601f19603f3d011682016040523d82523d6000602084013e612a1c565b606091505b5091509150612a29613a5d565b82612a3657601581612963565b818060200190518101906129639190614c9e565b604080516001600160a01b0384166024820152604480820184905282518083039091018152606490910182526020810180516001600160e01b03166304c791b360e11b179052905160009182918291829161016791612aa8916154ea565b6000604051808303816000865af19150503d8060008114612ae5576040519150601f19603f3d011682016040523d82523d6000602084013e612aea565b606091505b509150915081612afd5760156000611f18565b80806020019051810190611f189190614af9565b60008060006101676001600160a01b03166352f9138760e01b86866040516024016112cc929190615506565b6040516001600160a01b03821660248201526000908190819081906101679063a7daa18d60e01b906044015b60408051601f198184030181529181526020820180516001600160e01b03166001600160e01b0319909416939093179092529051612ba791906154ea565b6000604051808303816000865af19150503d8060008114612be4576040519150601f19603f3d011682016040523d82523d6000602084013e612be9565b606091505b509150915081612bfc5760156000612c10565b80806020019051810190612c109190614bb8565b60039190910b969095509350505050565b612c29613aa0565b6040518060400160405280612c3e8787613920565b8152602001612c4d8585613939565b905295945050505050565b612c60613aa0565b6040518060400160405280612c74866139cb565b8152602001612c838585613939565b9052949350505050565b600080848061010001516000015163ffffffff166000148015612cbd57506101008101516040015163ffffffff16155b15612cd3576101008101516276a7006040909101525b6000806101676001600160a01b031634637812a04b60e01b8a8a8a604051602401612d0093929190615847565b60408051601f198184030181529181526020820180516001600160e01b03166001600160e01b0319909416939093179092529051612d3e91906154ea565b60006040518083038185875af1925050503d8060008114612d7b576040519150601f19603f3d011682016040523d82523d6000602084013e612d80565b606091505b509150915081612d935760156000612da7565b80806020019051810190612da79190614af9565b60039190910b999098509650505050505050565b6040516001600160a01b038581166024830152848116604483015283166064820152600782900b6084820152600090819081906101679063eca3691760e01b9060a4015b60408051601f198184030181529181526020820180516001600160e01b03166001600160e01b0319909416939093179092529051612e3d91906154ea565b6000604051808303816000865af19150503d8060008114612e7a576040519150601f19603f3d011682016040523d82523d6000602084013e612e7f565b606091505b509150915081612e90576015612ea4565b80806020019051810190612ea49190614adf565b60030b979650505050505050565b6000612ebc613abf565b604080516001600160a01b0386166024820152600785900b60448083019190915282518083039091018152606490910182526020810180516001600160e01b031663050fc3b560e31b1790529051600091829161016791612f1c916154ea565b6000604051808303816000865af19150503d8060008114612f59576040519150601f19603f3d011682016040523d82523d6000602084013e612f5e565b606091505b5091509150612f6b613abf565b82612f7857601581612963565b818060200190518101906129639190614ce9565b60008060006101676001600160a01b0316636fc3cbaf60e01b86866040516024016112cc929190615555565b60008060006101676001600160a01b031663f7f38e2660e01b878787604051602401612fe693929190615520565b60408051601f198184030181529181526020820180516001600160e01b03166001600160e01b031990941693909317909252905161302491906154ea565b6000604051808303816000865af19150503d8060008114613061576040519150601f19603f3d011682016040523d82523d6000602084013e613066565b606091505b50915091508161307757601561308b565b8080602001905181019061308b9190614adf565b60030b9695505050505050565b604080516001600160a01b0385811660248301528481166044830152831660648083019190915282518083039091018152608490910182526020810180516001600160e01b031663927da10560e01b179052905160009182918291829161016791613102916154ea565b6000604051808303816000865af19150503d806000811461313f576040519150601f19603f3d011682016040523d82523d6000602084013e613144565b606091505b5091509150816131575760156000612963565b808060200190518101906129639190614e0c565b604080516001600160a01b03831660248083019190915282518083039091018152604490910182526020810180516001600160e01b0316630573b08d60e51b17905290516000916060918291829185918291610167916131ca916154ea565b6000604051808303816000865af19150503d8060008114613207576040519150601f19603f3d011682016040523d82523d6000602084013e61320c565b606091505b5091509150606080606084613225576015838383613239565b838060200190518101906132399190614b24565b60039390930b9d919c509a509098509650505050505050565b600061325c613afa565b604080516001600160a01b03851660248083019190915282518083039091018152604490910182526020810180516001600160e01b0316633f28a19b60e01b17905290516000918291610167916132b2916154ea565b6000604051808303816000865af19150503d80600081146132ef576040519150601f19603f3d011682016040523d82523d6000602084013e6132f4565b606091505b5091509150613301613afa565b8261330e57601581611f18565b81806020019051810190611f189190614c0d565b6000806000806101676001600160a01b03166346de0fb160e01b878760405160240161242a929190615506565b6040516001600160a01b038581166024830152848116604483015283166064820152600782900b60848201526000908190819061016790635cfc901160e01b9060a401612dff565b60008060006101676001600160a01b0316635b8f858460e01b86866040516024016112cc929190615506565b60008060606000806101676001600160a01b031663278e0b8860e01b8989896040516024016133f493929190615596565b60408051601f198184030181529181526020820180516001600160e01b03166001600160e01b031990941693909317909252905161343291906154ea565b6000604051808303816000865af19150503d806000811461346f576040519150601f19603f3d011682016040523d82523d6000602084013e613474565b606091505b5091509150816134975760408051600080825260208201909252601591906134ab565b808060200190518101906134ab9190614e37565b60039290920b9a90995090975095505050505050565b6040516001600160a01b03821660248201526000908190819081906101679063335e04c160e01b90604401612b69565b600080868061010001516000015163ffffffff16600014801561352157506101008101516040015163ffffffff16155b15613537576101008101516276a7006040909101525b6000806101676001600160a01b031634634c381ae760e01b8c8c8c8c8c60405160240161356895949392919061586c565b60408051601f198184030181529181526020820180516001600160e01b03166001600160e01b03199094169390931790925290516135a691906154ea565b60006040518083038185875af1925050503d80600081146135e3576040519150601f19603f3d011682016040523d82523d6000602084013e6135e8565b606091505b5091509150816135fb576015600061360f565b8080602001905181019061360f9190614af9565b60039190910b9b909a5098505050505050505050565b60008060006101676001600160a01b031663189a554c60e01b85604051602401610c669190615650565b6040516001600160a01b03821660248201526000908190819061016790637834fb8960e11b90604401610c66565b600080828061010001516000015163ffffffff1660001480156136ad57506101008101516040015163ffffffff16155b156136c3576101008101516276a7006040909101525b6000806101676001600160a01b031634639dc711e060e01b886040516024016136ec9190615834565b60408051601f198184030181529181526020820180516001600160e01b03166001600160e01b031990941693909317909252905161372a91906154ea565b60006040518083038185875af1925050503d8060008114612ae5576040519150601f19603f3d011682016040523d82523d6000602084013e612aea565b6040516001600160a01b0384811660248301528316604482015263ffffffff821660648201526000908190819061016790639790686d60e01b90608401612fe6565b6040516001600160a01b0384811660248301528316604482015281151560648201526000908190819061016790631b3b02e560e11b90608401612fe6565b60006137f1613b1a565b604080516001600160a01b03851660248083019190915282518083039091018152604490910182526020810180516001600160e01b0316631f69565f60e01b1790529051600091829161016791613847916154ea565b6000604051808303816000865af19150503d8060008114613884576040519150601f19603f3d011682016040523d82523d6000602084013e613889565b606091505b5091509150613896613b1a565b826138a357601581611f18565b81806020019051810190611f189190614dcb565b60008060006101676001600160a01b03166349146bde60e01b86866040516024016112cc929190615506565b6040516001600160a01b0384811660248301528316604482015260648101829052600090819081906101679063e1f21c6760e01b90608401612fe6565b6000600160ff84161b9050600160ff83161b8117611299565b613941613a5d565b8260ff16600114156139565760018152610959565b8260ff1660021415613978576000546001600160a01b03166020820152610959565b8260ff16600314156139905760408101829052610959565b8260ff16600414156139a85760608101829052610959565b8260ff1660051415610959576000546001600160a01b0316608082015292915050565b600060ff82166139dd57506001919050565b8160ff16600114156139f157506002919050565b8160ff1660021415613a0557506004919050565b8160ff1660031415613a1957506008919050565b8160ff1660041415613a2d57506010919050565b8160ff1660051415613a4157506020919050565b8160ff1660061415613a5557506040919050565b506000919050565b6040518060a0016040528060001515815260200160006001600160a01b03168152602001606081526020016060815260200160006001600160a01b031681525090565b604051806040016040528060008152602001613aba613a5d565b905290565b6040518060c00160405280613ad2613b1a565b8152600060208201819052604082018190526060808301829052608083015260a09091015290565b6040518060400160405280613b0d613b1a565b8152600060209091015290565b604051806101200160405280613b2e613b7b565b815260200160006001600160401b03168152602001600015158152602001600015158152602001600015158152602001606081526020016060815260200160608152602001606081525090565b604051806101200160405280606081526020016060815260200160006001600160a01b0316815260200160608152602001600015158152602001600063ffffffff16815260200160001515815260200160608152602001613aba604080516060810182526000808252602082018190529181019190915290565b8035611c0b81615c5a565b8051611c0b81615c5a565b600082601f830112613c1b578081fd5b81516020613c30613c2b836159f9565b6159c9565b8281528181019085830160a080860288018501891015613c4e578687fd5b865b86811015613cd75781838b031215613c66578788fd5b613c6e615918565b8351613c7981615c8f565b815283870151613c8881615c5a565b81880152604084810151613c9b81615c72565b90820152606084810151613cae81615c72565b90820152608084810151613cc181615c5a565b9082015285529385019391810191600101613c50565b509198975050505050505050565b600082601f830112613cf5578081fd5b81516020613d05613c2b836159f9565b8281528181019085830160c080860288018501891015613d23578687fd5b865b86811015613cd75781838b031215613d3b578788fd5b613d43615940565b8351613d4e81615c8f565b815283870151613d5d81615c8f565b81880152604084810151613d7081615c8f565b90820152606084810151613d8381615c8f565b90820152608084810151613d9681615c72565b9082015260a084810151613da981615c5a565b9082015285529385019391810191600101613d25565b600082601f830112613dcf578081fd5b81356020613ddf613c2b836159f9565b82815281810190858301606080860288018501891015613dfd578687fd5b865b86811015613cd75781838b031215613e15578788fd5b613e1d615962565b8335613e2881615c5a565b815283870135613e3781615c5a565b81880152604084810135613e4a81615c80565b9082015285529385019391810191600101613dff565b600082601f830112613e70578081fd5b81516020613e80613c2b836159f9565b8281528181019085830160c080860288018501891015613e9e578687fd5b865b86811015613cd75781838b031215613eb6578788fd5b613ebe615940565b8351613ec981615c8f565b815283870151613ed881615c8f565b81880152604084810151613eeb81615c8f565b90820152606084810151613efe81615c5a565b90820152608084810151613f1181615c72565b9082015260a084810151613f2481615c5a565b9082015285529385019391810191600101613ea0565b600082601f830112613f4a578081fd5b81516020613f5a613c2b836159f9565b80838252828201915082860187848660051b8901011115613f79578586fd5b855b85811015613ff75781516001600160401b0380821115613f99578889fd5b908901906040828c03601f1901811315613fb157898afd5b613fb9615984565b838901518152908301519082821115613fd0578a8bfd5b613fde8d8a8487010161421e565b818a015287525050509284019290840190600101613f7b565b5090979650505050505050565b8051611c0b81615c72565b600082601f83011261401f578081fd5b813561402d613c2b82615a1c565b818152846020838601011115614041578283fd5b816020850160208301379081016020019190915292915050565b600082601f83011261406b578081fd5b8151614079613c2b82615a1c565b81815284602083860101111561408d578283fd5b6111cc826020830160208701615ba7565b8051600381900b8114611c0b57600080fd5b8051611c0b81615c80565b6000606082840312156140cc578081fd5b6140d4615962565b905081516140e181615c8f565b815260208201516140f181615c5a565b6020820152604082015161410481615c8f565b604082015292915050565b60006101608284031215614121578081fd5b6141296159a6565b905081516001600160401b038082111561414257600080fd5b61414e8583860161405b565b8352602084015191508082111561416457600080fd5b6141708583860161405b565b602084015261418160408501613c00565b6040840152606084015191508082111561419a57600080fd5b6141a68583860161405b565b60608401526141b760808501614004565b60808401526141c860a085016143e5565b60a08401526141d960c08501614004565b60c084015260e08401519150808211156141f257600080fd5b506141ff84828501613f3a565b60e083015250610100614214848285016140bb565b9082015292915050565b600060a0828403121561422f578081fd5b614237615918565b9050815161424481615c72565b8152602082015161425481615c5a565b602082015260408201516001600160401b038082111561427357600080fd5b61427f8583860161405b565b6040840152606084015191508082111561429857600080fd5b506142a58482850161405b565b6060830152506142b760808301613c00565b608082015292915050565b600061012082840312156142d4578081fd5b6142dc6159a6565b905081516001600160401b03808211156142f557600080fd5b6143018583860161410f565b835261430f602085016143f0565b602084015261432060408501614004565b604084015261433160608501614004565b606084015261434260808501614004565b608084015260a084015191508082111561435b57600080fd5b61436785838601613c0b565b60a084015260c084015191508082111561438057600080fd5b61438c85838601613ce5565b60c084015260e08401519150808211156143a557600080fd5b6143b185838601613e60565b60e0840152610100915081840151818111156143cc57600080fd5b6143d88682870161405b565b8385015250505092915050565b8051611c0b81615c8f565b8051611c0b81615ca1565b803560ff81168114611c0b57600080fd5b60006020828403121561441d578081fd5b813561129981615c5a565b6000806040838503121561443a578081fd5b823561444581615c5a565b9150602083013561445581615c5a565b809150509250929050565b600080600060608486031215614474578081fd5b833561447f81615c5a565b9250602084013561448f81615c5a565b9150604084013561449f81615c5a565b809150509250925092565b600080600080608085870312156144bf578182fd5b84356144ca81615c5a565b935060208501356144da81615c5a565b925060408501356144ea81615c5a565b915060608501356144fa81615c80565b939692955090935050565b600080600060608486031215614519578081fd5b833561452481615c5a565b925060208481013561453581615c5a565b925060408501356001600160401b0381111561454f578283fd5b8501601f8101871361455f578283fd5b803561456d613c2b826159f9565b8082825284820191508484018a868560051b870101111561458c578687fd5b8694505b838510156145b75780356145a381615c80565b835260019490940193918501918501614590565b5080955050505050509250925092565b6000806000606084860312156145db578081fd5b83356145e681615c5a565b925060208401356145f681615c5a565b9150604084013561449f81615c72565b60008060006060848603121561461a578081fd5b833561462581615c5a565b9250602084013561463581615c5a565b9150604084013561449f81615c80565b600080600060608486031215614659578081fd5b833561466481615c5a565b9250602084013561467481615c5a565b929592945050506040919091013590565b600080600060608486031215614699578081fd5b83356146a481615c5a565b925060208401356146b481615c5a565b9150604084013561449f81615c8f565b600080604083850312156146d6578182fd5b6146e08335615c5a565b823591506001600160401b0380602085013511156146fc578182fd5b6020840135840185601f820112614711578283fd5b61471e613c2b82356159f9565b808235825260208201915060208301886020853560051b8601011115614742578586fd5b855b843581101561485857858235111561475a578687fd5b81358501601f196040828d0382011215614772578889fd5b61477a615984565b60208301358152886040840135111561479157898afd5b60408301358301925060a082848f030112156147ab57898afd5b6147b3615918565b91506147c26020840135615c72565b602083013582526147d560408401613bf5565b602083015288606084013511156147ea57898afd5b6147fd8d6020606086013586010161400f565b6040830152886080840135111561481257898afd5b6148258d6020608086013586010161400f565b606083015261483660a08401613bf5565b6080830152602081810192909252865294850194929092019150600101614744565b50959890975095505050505050565b60008060408385031215614879578182fd5b823561488481615c5a565b9150602083013561445581615c80565b60008082840360808112156148a7578283fd5b83356148b281615c5a565b92506060601f19820112156148c5578182fd5b506148ce615962565b60208401356148dc81615c8f565b815260408401356148ec81615c5a565b602082015260608401356148ff81615c8f565b6040820152919491935090915050565b60008060408385031215614921578182fd5b823561492c81615c5a565b946020939093013593505050565b60008060006060848603121561494e578081fd5b833561495981615c5a565b925060208481013561496a81615ca1565b925060408501356001600160401b0380821115614985578384fd5b818701915087601f830112614998578384fd5b81356149a6613c2b826159f9565b8082825285820191508585018b878560051b88010111156149c5578788fd5b875b848110156149fe578135868111156149dd57898afd5b6149eb8e8a838b010161400f565b85525092870192908701906001016149c7565b50508096505050505050509250925092565b60008060208385031215614a22578182fd5b82356001600160401b0380821115614a38578384fd5b818501915085601f830112614a4b578384fd5b813581811115614a59578485fd5b8660208260051b8501011115614a6d578485fd5b60209290920196919550909350505050565b600060208284031215614a90578081fd5b813561129981615c72565b600060208284031215614aac578081fd5b5051919050565b60008060808385031215614ac5578182fd5b82519150614ad684602085016140bb565b90509250929050565b600060208284031215614af0578081fd5b6112998261409e565b60008060408385031215614b0b578182fd5b614b148361409e565b9150602083015161445581615c5a565b60008060008060808587031215614b39578182fd5b614b428561409e565b935060208501516001600160401b0380821115614b5d578384fd5b614b6988838901613c0b565b94506040870151915080821115614b7e578384fd5b614b8a88838901613ce5565b93506060870151915080821115614b9f578283fd5b50614bac87828801613e60565b91505092959194509250565b60008060408385031215614bca578182fd5b614bd38361409e565b9150602083015161445581615c72565b60008060808385031215614bf5578182fd5b614bfe8361409e565b9150614ad684602085016140bb565b60008060408385031215614c1f578182fd5b614c288361409e565b915060208301516001600160401b0380821115614c43578283fd5b9084019060408287031215614c56578283fd5b614c5e615984565b825182811115614c6c578485fd5b614c78888286016142c2565b82525060208301519250614c8b83615c8f565b8260208201528093505050509250929050565b60008060408385031215614cb0578182fd5b614cb98361409e565b915060208301516001600160401b03811115614cd3578182fd5b614cdf8582860161421e565b9150509250929050565b60008060408385031215614cfb578182fd5b614d048361409e565b915060208301516001600160401b0380821115614d1f578283fd5b9084019060c08287031215614d32578283fd5b614d3a615940565b825182811115614d48578485fd5b614d54888286016142c2565b825250614d63602084016140b0565b6020820152614d7460408401613c00565b6040820152614d85606084016140b0565b6060820152608083015182811115614d9b578485fd5b614da78882860161405b565b608083015250614db960a08401613c00565b60a08201528093505050509250929050565b60008060408385031215614ddd578182fd5b614de68361409e565b915060208301516001600160401b03811115614e00578182fd5b614cdf858286016142c2565b60008060408385031215614e1e578182fd5b614e278361409e565b9150602083015190509250929050565b600080600060608486031215614e4b578081fd5b614e548461409e565b9250602080850151614e6581615ca1565b60408601519093506001600160401b03811115614e80578283fd5b8501601f81018713614e90578283fd5b8051614e9e613c2b826159f9565b8082825284820191508484018a868560051b8701011115614ebd578687fd5b8694505b838510156145b7578051614ed481615c80565b835260019490940193918501918501614ec1565b600060208284031215614ef9578081fd5b815161129981615c80565b60008060408385031215614f16578182fd5b8251614f2181615c80565b602084015190925061445581615c72565b600080600060608486031215614f46578081fd5b614f4f846143fb565b925061448f602085016143fb565b6000815180845260208085019450808401835b83811015614f8f57815160070b87529582019590820190600101614f70565b509495945050505050565b6000815180845260208085019450808401835b83811015614f8f578151805163ffffffff168852838101516001600160a01b03908116858a01526040808301511515908a01526060808301511515908a0152608091820151169088015260a09096019590820190600101614fad565b6000815180845260208085019450808401835b83811015614f8f578151805163ffffffff9081168952848201518116858a01526040808301518216908a01526060808301519091169089015260808082015115159089015260a0908101516001600160a01b03169088015260c0909601959082019060010161501c565b6000815180845260208085019450808401835b83811015614f8f57815180516001600160a01b03908116895284820151168489015260409081015160070b9088015260609096019590820190600101615099565b6000815180845260208085019450808401835b83811015614f8f578151805163ffffffff9081168952848201518116858a0152604080830151909116908901526060808201516001600160a01b03908116918a01919091526080808301511515908a015260a091820151169088015260c090960195908201906001016150ed565b600081518084526020808501808196508360051b81019150828601855b858110156151b657828403895281518051855285015160408686018190526151a281870183615328565b9a87019a9550505090840190600101615178565b5091979650505050505050565b600081518084526151db816020860160208601615ba7565b601f01601f19169290920160200192915050565b805163ffffffff90811683526020808301516001600160a01b03169084015260409182015116910152565b600081516040845261522f604085018261540a565b60209384015163ffffffff16949093019390935250919050565b6000610160825181855261525f828601826151c3565b9150506020830151848203602086015261527982826151c3565b915050604083015161529660408601826001600160a01b03169052565b50606083015184820360608601526152ae82826151c3565b91505060808301516152c4608086018215159052565b5060a08301516152dc60a086018263ffffffff169052565b5060c08301516152f060c086018215159052565b5060e083015184820360e0860152615308828261515b565b9150506101008084015161531e828701826151ef565b5090949350505050565b8051151582526000602082015160018060a01b0380821660208601526040840151915060a0604086015261535f60a08601836151c3565b91506060840151858303606087015261537883826151c3565b925050806080850151166080860152508091505092915050565b6000815160c084526153a760c085018261540a565b9050602083015160070b6020850152604083015160018060a01b038082166040870152606085015160070b60608701526080850151915085830360808701526153f083836151c3565b92508060a08601511660a087015250508091505092915050565b6000610120825181855261542082860182615249565b915050602083015161543d60208601826001600160401b03169052565b506040830151615451604086018215159052565b506060830151615465606086018215159052565b506080830151615479608086018215159052565b5060a083015184820360a08601526154918282614f9a565b91505060c083015184820360c08601526154ab8282615009565b91505060e083015184820360e08601526154c582826150da565b91505061010080840151858303828701526154e083826151c3565b9695505050505050565b600082516154fc818460208701615ba7565b9190910192915050565b6001600160a01b0392831681529116602082015260400190565b6001600160a01b0384811682528316602082015260606040820181905260009061554c90830184614f5d565b95945050505050565b6001600160a01b03831681526040602082018190526000906111cc9083018461515b565b6001600160a01b03831681526080810161129960208301846151ef565b60006060820160018060a01b038616835260206001600160401b038616818501526060604085015281855180845260808601915060808160051b8701019350828701855b8281101561560857607f198887030184526155f68683516151c3565b955092840192908401906001016155da565b50939998505050505050505050565b60608152600061562a6060830186614f9a565b828103602084015261563c8186615009565b905082810360408401526154e081856150da565b60006020808301818452808551808352604092508286019150828160051b870101848801865b8381101561571557888303603f19018552815180516001600160a01b0390811685528882015160608a870181905281519087018190526080870192918b0191908c905b808210156156e75783518051841686528d015160070b8d860152938b0193928c0192600191909101906156b9565b505050509087015184820385890152906157018183615086565b968901969450505090860190600101615676565b509098975050505050505050565b8281526080810161129960208301846151ef565b8281526040602082015260006111cc604083018461521a565b8281526040602082015260006111cc6040830184615392565b8281526040602082015260006111cc604083018461540a565b8381526001600160401b038316602082015260606040820152600061554c6060830184614f5d565b8460070b81526080602082015260006157c66080830186614f9a565b82810360408401526157d88186615009565b905082810360608401526157ec81856150da565b979650505050505050565b8260070b81526040602082015260006111cc6040830184615328565b6060810161095982846151ef565b602081526000611299602083018461521a565b6020815260006112996020830184615249565b60608152600061585a6060830186615249565b60208301949094525060400152919050565b60a08152600061587f60a0830188615249565b866020840152856040840152828103606084015261589d8186614f9a565b905082810360808401526158b18185615009565b98975050505050505050565b6020815260006112996020830184615328565b6020815260006112996020830184615392565b602081526000611299602083018461540a565b6001600160401b03831681526040602082015260006111cc6040830184614f5d565b60405160a081016001600160401b038111828210171561593a5761593a615c44565b60405290565b60405160c081016001600160401b038111828210171561593a5761593a615c44565b604051606081016001600160401b038111828210171561593a5761593a615c44565b604080519081016001600160401b038111828210171561593a5761593a615c44565b60405161012081016001600160401b038111828210171561593a5761593a615c44565b604051601f8201601f191681016001600160401b03811182821017156159f1576159f1615c44565b604052919050565b60006001600160401b03821115615a1257615a12615c44565b5060051b60200190565b60006001600160401b03821115615a3557615a35615c44565b50601f01601f191660200190565b6000615a51613c2b846159f9565b808482526020808301925084368760051b87011115615a6e578485fd5b845b87811015615b9b5781356001600160401b0380821115615a8e578788fd5b818901915060608236031215615aa2578788fd5b615aaa615962565b8235615ab581615c5a565b81528286013582811115615ac757898afd5b830136601f820112615ad757898afd5b8035615ae5613c2b826159f9565b81815288810190838a0136600685901b86018c011115615b03578d8efd5b8d94505b83851015615b58576040808236031215615b1f578e8ffd5b615b27615984565b8235615b3281615c5a565b8152828d0135615b4181615c80565b818e0152845260019590950194928b019201615b07565b50848a01525060409150508381013583811115615b73578a8bfd5b615b7f36828701613dbf565b9183019190915250875250509382019390820190600101615a70565b50919695505050505050565b60005b83811015615bc2578181015183820152602001615baa565b83811115615bd1576000848401525b50505050565b600181811c90821680615beb57607f821691505b60208210811415615c0c57634e487b7160e01b600052602260045260246000fd5b50919050565b60008160070b677fffffffffffffff19811415615c3d57634e487b7160e01b82526011600452602482fd5b9003919050565b634e487b7160e01b600052604160045260246000fd5b6001600160a01b0381168114615c6f57600080fd5b50565b8015158114615c6f57600080fd5b8060070b8114615c6f57600080fd5b63ffffffff81168114615c6f57600080fd5b6001600160401b0381168114615c6f57600080fdfe90a5cf4cffe88b4edbb041cfc7a8a812c48a5ec30b84640fb37690875168e3aaa2646970667358221220a8ecd6ef695dcc208623ffe8551d4dc0e62985e1c12bac990c517f720b971ad564736f6c63430008040033",
  "linkReferences": {},
  "deployedLinkReferences": {}
}