{
  "_format": "hh-sol-artifact-1",
  "contractName": "BaseHTS",
  "sourceName": "contracts/BaseHTS.sol",
  "abi": [
    {
      "anonymous": false,
      "inputs": [
        {
          "indexed": false,
          "internalType": "uint256",
          "name": "amount",
          "type": "uint256"
        }
      ],
      "name": "AllowanceValue",
      "type": "event"
    },
    {
      "anonymous": false,
      "inputs": [
        {
          "indexed": false,
          "internalType": "bool",
          "name": "approved",
          "type": "bool"
        }
      ],
      "name": "Approved",
      "type": "event"
    },
    {
      "anonymous": false,
      "inputs": [
        {
          "indexed": false,
          "internalType": "address",
          "name": "approved",
          "type": "address"
        }
      ],
      "name": "ApprovedAddress",
      "type": "event"
    },
    {
      "anonymous": false,
      "inputs": [
        {
          "indexed": false,
          "internalType": "address",
          "name": "tokenAddress",
          "type": "address"
        }
      ],
      "name": "CreatedToken",
      "type": "event"
    },
    {
      "anonymous": false,
      "inputs": [
        {
          "indexed": false,
          "internalType": "bool",
          "name": "freezeStatus",
          "type": "bool"
        }
      ],
      "name": "DefaultFreezeStatusChanged",
      "type": "event"
    },
    {
      "anonymous": false,
      "inputs": [
        {
          "indexed": false,
          "internalType": "bool",
          "name": "frozen",
          "type": "bool"
        }
      ],
      "name": "Frozen",
      "type": "event"
    },
    {
      "anonymous": false,
      "inputs": [
        {
          "components": [
            {
              "components": [
                {
                  "components": [
                    {
                      "internalType": "string",
                      "name": "name",
                      "type": "string"
                    },
                    {
                      "internalType": "string",
                      "name": "symbol",
                      "type": "string"
                    },
                    {
                      "internalType": "address",
                      "name": "treasury",
                      "type": "address"
                    },
                    {
                      "internalType": "string",
                      "name": "memo",
                      "type": "string"
                    },
                    {
                      "internalType": "bool",
                      "name": "tokenSupplyType",
                      "type": "bool"
                    },
                    {
                      "internalType": "uint32",
                      "name": "maxSupply",
                      "type": "uint32"
                    },
                    {
                      "internalType": "bool",
                      "name": "freezeDefault",
                      "type": "bool"
                    },
                    {
                      "components": [
                        {
                          "internalType": "uint256",
                          "name": "keyType",
                          "type": "uint256"
                        },
                        {
                          "components": [
                            {
                              "internalType": "bool",
                              "name": "inheritAccountKey",
                              "type": "bool"
                            },
                            {
                              "internalType": "address",
                              "name": "contractId",
                              "type": "address"
                            },
                            {
                              "internalType": "bytes",
                              "name": "ed25519",
                              "type": "bytes"
                            },
                            {
                              "internalType": "bytes",
                              "name": "ECDSA_secp256k1",
                              "type": "bytes"
                            },
                            {
                              "internalType": "address",
                              "name": "delegatableContractId",
                              "type": "address"
                            }
                          ],
                          "internalType": "struct IHederaTokenService.KeyValue",
                          "name": "key",
                          "type": "tuple"
                        }
                      ],
                      "internalType": "struct IHederaTokenService.TokenKey[]",
                      "name": "tokenKeys",
                      "type": "tuple[]"
                    },
                    {
                      "components": [
                        {
                          "internalType": "uint32",
                          "name": "second",
                          "type": "uint32"
                        },
                        {
                          "internalType": "address",
                          "name": "autoRenewAccount",
                          "type": "address"
                        },
                        {
                          "internalType": "uint32",
                          "name": "autoRenewPeriod",
                          "type": "uint32"
                        }
                      ],
                      "internalType": "struct IHederaTokenService.Expiry",
                      "name": "expiry",
                      "type": "tuple"
                    }
                  ],
                  "internalType": "struct IHederaTokenService.HederaToken",
                  "name": "token",
                  "type": "tuple"
                },
                {
                  "internalType": "uint64",
                  "name": "totalSupply",
                  "type": "uint64"
                },
                {
                  "internalType": "bool",
                  "name": "deleted",
                  "type": "bool"
                },
                {
                  "internalType": "bool",
                  "name": "defaultKycStatus",
                  "type": "bool"
                },
                {
                  "internalType": "bool",
                  "name": "pauseStatus",
                  "type": "bool"
                },
                {
                  "components": [
                    {
                      "internalType": "uint32",
                      "name": "amount",
                      "type": "uint32"
                    },
                    {
                      "internalType": "address",
                      "name": "tokenId",
                      "type": "address"
                    },
                    {
                      "internalType": "bool",
                      "name": "useHbarsForPayment",
                      "type": "bool"
                    },
                    {
                      "internalType": "bool",
                      "name": "useCurrentTokenForPayment",
                      "type": "bool"
                    },
                    {
                      "internalType": "address",
                      "name": "feeCollector",
                      "type": "address"
                    }
                  ],
                  "internalType": "struct IHederaTokenService.FixedFee[]",
                  "name": "fixedFees",
                  "type": "tuple[]"
                },
                {
                  "components": [
                    {
                      "internalType": "uint32",
                      "name": "numerator",
                      "type": "uint32"
                    },
                    {
                      "internalType": "uint32",
                      "name": "denominator",
                      "type": "uint32"
                    },
                    {
                      "internalType": "uint32",
                      "name": "minimumAmount",
                      "type": "uint32"
                    },
                    {
                      "internalType": "uint32",
                      "name": "maximumAmount",
                      "type": "uint32"
                    },
                    {
                      "internalType": "bool",
                      "name": "netOfTransfers",
                      "type": "bool"
                    },
                    {
                      "internalType": "address",
                      "name": "feeCollector",
                      "type": "address"
                    }
                  ],
                  "internalType": "struct IHederaTokenService.FractionalFee[]",
                  "name": "fractionalFees",
                  "type": "tuple[]"
                },
                {
                  "components": [
                    {
                      "internalType": "uint32",
                      "name": "numerator",
                      "type": "uint32"
                    },
                    {
                      "internalType": "uint32",
                      "name": "denominator",
                      "type": "uint32"
                    },
                    {
                      "internalType": "uint32",
                      "name": "amount",
                      "type": "uint32"
                    },
                    {
                      "internalType": "address",
                      "name": "tokenId",
                      "type": "address"
                    },
                    {
                      "internalType": "bool",
                      "name": "useHbarsForPayment",
                      "type": "bool"
                    },
                    {
                      "internalType": "address",
                      "name": "feeCollector",
                      "type": "address"
                    }
                  ],
                  "internalType": "struct IHederaTokenService.RoyaltyFee[]",
                  "name": "royaltyFees",
                  "type": "tuple[]"
                },
                {
                  "internalType": "string",
                  "name": "ledgerId",
                  "type": "string"
                }
              ],
              "internalType": "struct IHederaTokenService.TokenInfo",
              "name": "tokenInfo",
              "type": "tuple"
            },
            {
              "internalType": "uint32",
              "name": "decimals",
              "type": "uint32"
            }
          ],
          "indexed": false,
          "internalType": "struct IHederaTokenService.FungibleTokenInfo",
          "name": "tokenInfo",
          "type": "tuple"
        }
      ],
      "name": "FungibleTokenInfo",
      "type": "event"
    },
    {
      "anonymous": false,
      "inputs": [
        {
          "indexed": false,
          "internalType": "uint64",
          "name": "newTotalSupply",
          "type": "uint64"
        },
        {
          "indexed": false,
          "internalType": "int64[]",
          "name": "serialNumbers",
          "type": "int64[]"
        }
      ],
      "name": "MintedToken",
      "type": "event"
    },
    {
      "anonymous": false,
      "inputs": [
        {
          "components": [
            {
              "components": [
                {
                  "components": [
                    {
                      "internalType": "string",
                      "name": "name",
                      "type": "string"
                    },
                    {
                      "internalType": "string",
                      "name": "symbol",
                      "type": "string"
                    },
                    {
                      "internalType": "address",
                      "name": "treasury",
                      "type": "address"
                    },
                    {
                      "internalType": "string",
                      "name": "memo",
                      "type": "string"
                    },
                    {
                      "internalType": "bool",
                      "name": "tokenSupplyType",
                      "type": "bool"
                    },
                    {
                      "internalType": "uint32",
                      "name": "maxSupply",
                      "type": "uint32"
                    },
                    {
                      "internalType": "bool",
                      "name": "freezeDefault",
                      "type": "bool"
                    },
                    {
                      "components": [
                        {
                          "internalType": "uint256",
                          "name": "keyType",
                          "type": "uint256"
                        },
                        {
                          "components": [
                            {
                              "internalType": "bool",
                              "name": "inheritAccountKey",
                              "type": "bool"
                            },
                            {
                              "internalType": "address",
                              "name": "contractId",
                              "type": "address"
                            },
                            {
                              "internalType": "bytes",
                              "name": "ed25519",
                              "type": "bytes"
                            },
                            {
                              "internalType": "bytes",
                              "name": "ECDSA_secp256k1",
                              "type": "bytes"
                            },
                            {
                              "internalType": "address",
                              "name": "delegatableContractId",
                              "type": "address"
                            }
                          ],
                          "internalType": "struct IHederaTokenService.KeyValue",
                          "name": "key",
                          "type": "tuple"
                        }
                      ],
                      "internalType": "struct IHederaTokenService.TokenKey[]",
                      "name": "tokenKeys",
                      "type": "tuple[]"
                    },
                    {
                      "components": [
                        {
                          "internalType": "uint32",
                          "name": "second",
                          "type": "uint32"
                        },
                        {
                          "internalType": "address",
                          "name": "autoRenewAccount",
                          "type": "address"
                        },
                        {
                          "internalType": "uint32",
                          "name": "autoRenewPeriod",
                          "type": "uint32"
                        }
                      ],
                      "internalType": "struct IHederaTokenService.Expiry",
                      "name": "expiry",
                      "type": "tuple"
                    }
                  ],
                  "internalType": "struct IHederaTokenService.HederaToken",
                  "name": "token",
                  "type": "tuple"
                },
                {
                  "internalType": "uint64",
                  "name": "totalSupply",
                  "type": "uint64"
                },
                {
                  "internalType": "bool",
                  "name": "deleted",
                  "type": "bool"
                },
                {
                  "internalType": "bool",
                  "name": "defaultKycStatus",
                  "type": "bool"
                },
                {
                  "internalType": "bool",
                  "name": "pauseStatus",
                  "type": "bool"
                },
                {
                  "components": [
                    {
                      "internalType": "uint32",
                      "name": "amount",
                      "type": "uint32"
                    },
                    {
                      "internalType": "address",
                      "name": "tokenId",
                      "type": "address"
                    },
                    {
                      "internalType": "bool",
                      "name": "useHbarsForPayment",
                      "type": "bool"
                    },
                    {
                      "internalType": "bool",
                      "name": "useCurrentTokenForPayment",
                      "type": "bool"
                    },
                    {
                      "internalType": "address",
                      "name": "feeCollector",
                      "type": "address"
                    }
                  ],
                  "internalType": "struct IHederaTokenService.FixedFee[]",
                  "name": "fixedFees",
                  "type": "tuple[]"
                },
                {
                  "components": [
                    {
                      "internalType": "uint32",
                      "name": "numerator",
                      "type": "uint32"
                    },
                    {
                      "internalType": "uint32",
                      "name": "denominator",
                      "type": "uint32"
                    },
                    {
                      "internalType": "uint32",
                      "name": "minimumAmount",
                      "type": "uint32"
                    },
                    {
                      "internalType": "uint32",
                      "name": "maximumAmount",
                      "type": "uint32"
                    },
                    {
                      "internalType": "bool",
                      "name": "netOfTransfers",
                      "type": "bool"
                    },
                    {
                      "internalType": "address",
                      "name": "feeCollector",
                      "type": "address"
                    }
                  ],
                  "internalType": "struct IHederaTokenService.FractionalFee[]",
                  "name": "fractionalFees",
                  "type": "tuple[]"
                },
                {
                  "components": [
                    {
                      "internalType": "uint32",
                      "name": "numerator",
                      "type": "uint32"
                    },
                    {
                      "internalType": "uint32",
                      "name": "denominator",
                      "type": "uint32"
                    },
                    {
                      "internalType": "uint32",
                      "name": "amount",
                      "type": "uint32"
                    },
                    {
                      "internalType": "address",
                      "name": "tokenId",
                      "type": "address"
                    },
                    {
                      "internalType": "bool",
                      "name": "useHbarsForPayment",
                      "type": "bool"
                    },
                    {
                      "internalType": "address",
                      "name": "feeCollector",
                      "type": "address"
                    }
                  ],
                  "internalType": "struct IHederaTokenService.RoyaltyFee[]",
                  "name": "royaltyFees",
                  "type": "tuple[]"
                },
                {
                  "internalType": "string",
                  "name": "ledgerId",
                  "type": "string"
                }
              ],
              "internalType": "struct IHederaTokenService.TokenInfo",
              "name": "tokenInfo",
              "type": "tuple"
            },
            {
              "internalType": "int64",
              "name": "serialNumber",
              "type": "int64"
            },
            {
              "internalType": "address",
              "name": "ownerId",
              "type": "address"
            },
            {
              "internalType": "int64",
              "name": "creationTime",
              "type": "int64"
            },
            {
              "internalType": "bytes",
              "name": "metadata",
              "type": "bytes"
            },
            {
              "internalType": "address",
              "name": "spenderId",
              "type": "address"
            }
          ],
          "indexed": false,
          "internalType": "struct IHederaTokenService.NonFungibleTokenInfo",
          "name": "tokenInfo",
          "type": "tuple"
        }
      ],
      "name": "NonFungibleTokenInfo",
      "type": "event"
    },
    {
      "anonymous": false,
      "inputs": [
        {
          "indexed": false,
          "internalType": "bool",
          "name": "paused",
          "type": "bool"
        }
      ],
      "name": "PausedToken",
      "type": "event"
    },
    {
      "anonymous": false,
      "inputs": [
        {
          "indexed": false,
          "internalType": "int256",
          "name": "responseCode",
          "type": "int256"
        }
      ],
      "name": "ResponseCode",
      "type": "event"
    },
    {
      "anonymous": false,
      "inputs": [
        {
          "components": [
            {
              "internalType": "uint32",
              "name": "amount",
              "type": "uint32"
            },
            {
              "internalType": "address",
              "name": "tokenId",
              "type": "address"
            },
            {
              "internalType": "bool",
              "name": "useHbarsForPayment",
              "type": "bool"
            },
            {
              "internalType": "bool",
              "name": "useCurrentTokenForPayment",
              "type": "bool"
            },
            {
              "internalType": "address",
              "name": "feeCollector",
              "type": "address"
            }
          ],
          "indexed": false,
          "internalType": "struct IHederaTokenService.FixedFee[]",
          "name": "fixedFees",
          "type": "tuple[]"
        },
        {
          "components": [
            {
              "internalType": "uint32",
              "name": "numerator",
              "type": "uint32"
            },
            {
              "internalType": "uint32",
              "name": "denominator",
              "type": "uint32"
            },
            {
              "internalType": "uint32",
              "name": "minimumAmount",
              "type": "uint32"
            },
            {
              "internalType": "uint32",
              "name": "maximumAmount",
              "type": "uint32"
            },
            {
              "internalType": "bool",
              "name": "netOfTransfers",
              "type": "bool"
            },
            {
              "internalType": "address",
              "name": "feeCollector",
              "type": "address"
            }
          ],
          "indexed": false,
          "internalType": "struct IHederaTokenService.FractionalFee[]",
          "name": "fractionalFees",
          "type": "tuple[]"
        },
        {
          "components": [
            {
              "internalType": "uint32",
              "name": "numerator",
              "type": "uint32"
            },
            {
              "internalType": "uint32",
              "name": "denominator",
              "type": "uint32"
            },
            {
              "internalType": "uint32",
              "name": "amount",
              "type": "uint32"
            },
            {
              "internalType": "address",
              "name": "tokenId",
              "type": "address"
            },
            {
              "internalType": "bool",
              "name": "useHbarsForPayment",
              "type": "bool"
            },
            {
              "internalType": "address",
              "name": "feeCollector",
              "type": "address"
            }
          ],
          "indexed": false,
          "internalType": "struct IHederaTokenService.RoyaltyFee[]",
          "name": "royaltyFees",
          "type": "tuple[]"
        }
      ],
      "name": "TokenCustomFees",
      "type": "event"
    },
    {
      "anonymous": false,
      "inputs": [
        {
          "indexed": false,
          "internalType": "bool",
          "name": "defaultFreezeStatus",
          "type": "bool"
        }
      ],
      "name": "TokenDefaultFreezeStatus",
      "type": "event"
    },
    {
      "anonymous": false,
      "inputs": [
        {
          "indexed": false,
          "internalType": "bool",
          "name": "defaultKycStatus",
          "type": "bool"
        }
      ],
      "name": "TokenDefaultKycStatus",
      "type": "event"
    },
    {
      "anonymous": false,
      "inputs": [
        {
          "components": [
            {
              "components": [
                {
                  "internalType": "string",
                  "name": "name",
                  "type": "string"
                },
                {
                  "internalType": "string",
                  "name": "symbol",
                  "type": "string"
                },
                {
                  "internalType": "address",
                  "name": "treasury",
                  "type": "address"
                },
                {
                  "internalType": "string",
                  "name": "memo",
                  "type": "string"
                },
                {
                  "internalType": "bool",
                  "name": "tokenSupplyType",
                  "type": "bool"
                },
                {
                  "internalType": "uint32",
                  "name": "maxSupply",
                  "type": "uint32"
                },
                {
                  "internalType": "bool",
                  "name": "freezeDefault",
                  "type": "bool"
                },
                {
                  "components": [
                    {
                      "internalType": "uint256",
                      "name": "keyType",
                      "type": "uint256"
                    },
                    {
                      "components": [
                        {
                          "internalType": "bool",
                          "name": "inheritAccountKey",
                          "type": "bool"
                        },
                        {
                          "internalType": "address",
                          "name": "contractId",
                          "type": "address"
                        },
                        {
                          "internalType": "bytes",
                          "name": "ed25519",
                          "type": "bytes"
                        },
                        {
                          "internalType": "bytes",
                          "name": "ECDSA_secp256k1",
                          "type": "bytes"
                        },
                        {
                          "internalType": "address",
                          "name": "delegatableContractId",
                          "type": "address"
                        }
                      ],
                      "internalType": "struct IHederaTokenService.KeyValue",
                      "name": "key",
                      "type": "tuple"
                    }
                  ],
                  "internalType": "struct IHederaTokenService.TokenKey[]",
                  "name": "tokenKeys",
                  "type": "tuple[]"
                },
                {
                  "components": [
                    {
                      "internalType": "uint32",
                      "name": "second",
                      "type": "uint32"
                    },
                    {
                      "internalType": "address",
                      "name": "autoRenewAccount",
                      "type": "address"
                    },
                    {
                      "internalType": "uint32",
                      "name": "autoRenewPeriod",
                      "type": "uint32"
                    }
                  ],
                  "internalType": "struct IHederaTokenService.Expiry",
                  "name": "expiry",
                  "type": "tuple"
                }
              ],
              "internalType": "struct IHederaTokenService.HederaToken",
              "name": "token",
              "type": "tuple"
            },
            {
              "internalType": "uint64",
              "name": "totalSupply",
              "type": "uint64"
            },
            {
              "internalType": "bool",
              "name": "deleted",
              "type": "bool"
            },
            {
              "internalType": "bool",
              "name": "defaultKycStatus",
              "type": "bool"
            },
            {
              "internalType": "bool",
              "name": "pauseStatus",
              "type": "bool"
            },
            {
              "components": [
                {
                  "internalType": "uint32",
                  "name": "amount",
                  "type": "uint32"
                },
                {
                  "internalType": "address",
                  "name": "tokenId",
                  "type": "address"
                },
                {
                  "internalType": "bool",
                  "name": "useHbarsForPayment",
                  "type": "bool"
                },
                {
                  "internalType": "bool",
                  "name": "useCurrentTokenForPayment",
                  "type": "bool"
                },
                {
                  "internalType": "address",
                  "name": "feeCollector",
                  "type": "address"
                }
              ],
              "internalType": "struct IHederaTokenService.FixedFee[]",
              "name": "fixedFees",
              "type": "tuple[]"
            },
            {
              "components": [
                {
                  "internalType": "uint32",
                  "name": "numerator",
                  "type": "uint32"
                },
                {
                  "internalType": "uint32",
                  "name": "denominator",
                  "type": "uint32"
                },
                {
                  "internalType": "uint32",
                  "name": "minimumAmount",
                  "type": "uint32"
                },
                {
                  "internalType": "uint32",
                  "name": "maximumAmount",
                  "type": "uint32"
                },
                {
                  "internalType": "bool",
                  "name": "netOfTransfers",
                  "type": "bool"
                },
                {
                  "internalType": "address",
                  "name": "feeCollector",
                  "type": "address"
                }
              ],
              "internalType": "struct IHederaTokenService.FractionalFee[]",
              "name": "fractionalFees",
              "type": "tuple[]"
            },
            {
              "components": [
                {
                  "internalType": "uint32",
                  "name": "numerator",
                  "type": "uint32"
                },
                {
                  "internalType": "uint32",
                  "name": "denominator",
                  "type": "uint32"
                },
                {
                  "internalType": "uint32",
                  "name": "amount",
                  "type": "uint32"
                },
                {
                  "internalType": "address",
                  "name": "tokenId",
                  "type": "address"
                },
                {
                  "internalType": "bool",
                  "name": "useHbarsForPayment",
                  "type": "bool"
                },
                {
                  "internalType": "address",
                  "name": "feeCollector",
                  "type": "address"
                }
              ],
              "internalType": "struct IHederaTokenService.RoyaltyFee[]",
              "name": "royaltyFees",
              "type": "tuple[]"
            },
            {
              "internalType": "string",
              "name": "ledgerId",
              "type": "string"
            }
          ],
          "indexed": false,
          "internalType": "struct IHederaTokenService.TokenInfo",
          "name": "tokenInfo",
          "type": "tuple"
        }
      ],
      "name": "TokenInfo",
      "type": "event"
    },
    {
      "anonymous": false,
      "inputs": [
        {
          "indexed": false,
          "internalType": "bool",
          "name": "unpaused",
          "type": "bool"
        }
      ],
      "name": "UnpausedToken",
      "type": "event"
    },
    {
      "inputs": [
        {
          "internalType": "address",
          "name": "token",
          "type": "address"
        },
        {
          "internalType": "address",
          "name": "owner",
          "type": "address"
        },
        {
          "internalType": "address",
          "name": "spender",
          "type": "address"
        }
      ],
      "name": "allowancePublic",
      "outputs": [
        {
          "internalType": "int256",
          "name": "responseCode",
          "type": "int256"
        },
        {
          "internalType": "uint256",
          "name": "amount",
          "type": "uint256"
        }
      ],
      "stateMutability": "nonpayable",
      "type": "function"
    },
    {
      "inputs": [
        {
          "internalType": "address",
          "name": "token",
          "type": "address"
        },
        {
          "internalType": "address",
          "name": "spender",
          "type": "address"
        },
        {
          "internalType": "uint256",
          "name": "amount",
          "type": "uint256"
        }
      ],
      "name": "approvePublic",
      "outputs": [
        {
          "internalType": "int256",
          "name": "responseCode",
          "type": "int256"
        }
      ],
      "stateMutability": "nonpayable",
      "type": "function"
    },
    {
      "inputs": [
        {
          "internalType": "address",
          "name": "account",
          "type": "address"
        },
        {
          "internalType": "address",
          "name": "token",
          "type": "address"
        }
      ],
      "name": "associateTokenPublic",
      "outputs": [
        {
          "internalType": "int256",
          "name": "responseCode",
          "type": "int256"
        }
      ],
      "stateMutability": "nonpayable",
      "type": "function"
    },
    {
      "inputs": [
        {
          "internalType": "address",
          "name": "treasury",
          "type": "address"
        }
      ],
      "name": "createFungibleTokenPublic",
      "outputs": [],
      "stateMutability": "payable",
      "type": "function"
    },
    {
      "inputs": [
        {
          "internalType": "address",
          "name": "treasury",
          "type": "address"
        },
        {
          "internalType": "address",
          "name": "fixedFeeTokenAddress",
          "type": "address"
        }
      ],
      "name": "createFungibleTokenWithCustomFeesPublic",
      "outputs": [],
      "stateMutability": "payable",
      "type": "function"
    },
    {
      "inputs": [
        {
          "internalType": "address",
          "name": "treasury",
          "type": "address"
        }
      ],
      "name": "createNonFungibleTokenPublic",
      "outputs": [],
      "stateMutability": "payable",
      "type": "function"
    },
    {
      "inputs": [
        {
          "internalType": "address",
          "name": "token",
          "type": "address"
        },
        {
          "internalType": "address",
          "name": "account",
          "type": "address"
        }
      ],
      "name": "freezeTokenPublic",
      "outputs": [
        {
          "internalType": "int256",
          "name": "responseCode",
          "type": "int256"
        }
      ],
      "stateMutability": "nonpayable",
      "type": "function"
    },
    {
      "inputs": [
        {
          "internalType": "address",
          "name": "token",
          "type": "address"
        },
        {
          "internalType": "uint256",
          "name": "serialNumber",
          "type": "uint256"
        }
      ],
      "name": "getApprovedPublic",
      "outputs": [
        {
          "internalType": "int256",
          "name": "responseCode",
          "type": "int256"
        },
        {
          "internalType": "address",
          "name": "approved",
          "type": "address"
        }
      ],
      "stateMutability": "nonpayable",
      "type": "function"
    },
    {
      "inputs": [
        {
          "internalType": "address",
          "name": "token",
          "type": "address"
        }
      ],
      "name": "getFungibleTokenInfoPublic",
      "outputs": [
        {
          "internalType": "int256",
          "name": "responseCode",
          "type": "int256"
        },
        {
          "components": [
            {
              "components": [
                {
                  "components": [
                    {
                      "internalType": "string",
                      "name": "name",
                      "type": "string"
                    },
                    {
                      "internalType": "string",
                      "name": "symbol",
                      "type": "string"
                    },
                    {
                      "internalType": "address",
                      "name": "treasury",
                      "type": "address"
                    },
                    {
                      "internalType": "string",
                      "name": "memo",
                      "type": "string"
                    },
                    {
                      "internalType": "bool",
                      "name": "tokenSupplyType",
                      "type": "bool"
                    },
                    {
                      "internalType": "uint32",
                      "name": "maxSupply",
                      "type": "uint32"
                    },
                    {
                      "internalType": "bool",
                      "name": "freezeDefault",
                      "type": "bool"
                    },
                    {
                      "components": [
                        {
                          "internalType": "uint256",
                          "name": "keyType",
                          "type": "uint256"
                        },
                        {
                          "components": [
                            {
                              "internalType": "bool",
                              "name": "inheritAccountKey",
                              "type": "bool"
                            },
                            {
                              "internalType": "address",
                              "name": "contractId",
                              "type": "address"
                            },
                            {
                              "internalType": "bytes",
                              "name": "ed25519",
                              "type": "bytes"
                            },
                            {
                              "internalType": "bytes",
                              "name": "ECDSA_secp256k1",
                              "type": "bytes"
                            },
                            {
                              "internalType": "address",
                              "name": "delegatableContractId",
                              "type": "address"
                            }
                          ],
                          "internalType": "struct IHederaTokenService.KeyValue",
                          "name": "key",
                          "type": "tuple"
                        }
                      ],
                      "internalType": "struct IHederaTokenService.TokenKey[]",
                      "name": "tokenKeys",
                      "type": "tuple[]"
                    },
                    {
                      "components": [
                        {
                          "internalType": "uint32",
                          "name": "second",
                          "type": "uint32"
                        },
                        {
                          "internalType": "address",
                          "name": "autoRenewAccount",
                          "type": "address"
                        },
                        {
                          "internalType": "uint32",
                          "name": "autoRenewPeriod",
                          "type": "uint32"
                        }
                      ],
                      "internalType": "struct IHederaTokenService.Expiry",
                      "name": "expiry",
                      "type": "tuple"
                    }
                  ],
                  "internalType": "struct IHederaTokenService.HederaToken",
                  "name": "token",
                  "type": "tuple"
                },
                {
                  "internalType": "uint64",
                  "name": "totalSupply",
                  "type": "uint64"
                },
                {
                  "internalType": "bool",
                  "name": "deleted",
                  "type": "bool"
                },
                {
                  "internalType": "bool",
                  "name": "defaultKycStatus",
                  "type": "bool"
                },
                {
                  "internalType": "bool",
                  "name": "pauseStatus",
                  "type": "bool"
                },
                {
                  "components": [
                    {
                      "internalType": "uint32",
                      "name": "amount",
                      "type": "uint32"
                    },
                    {
                      "internalType": "address",
                      "name": "tokenId",
                      "type": "address"
                    },
                    {
                      "internalType": "bool",
                      "name": "useHbarsForPayment",
                      "type": "bool"
                    },
                    {
                      "internalType": "bool",
                      "name": "useCurrentTokenForPayment",
                      "type": "bool"
                    },
                    {
                      "internalType": "address",
                      "name": "feeCollector",
                      "type": "address"
                    }
                  ],
                  "internalType": "struct IHederaTokenService.FixedFee[]",
                  "name": "fixedFees",
                  "type": "tuple[]"
                },
                {
                  "components": [
                    {
                      "internalType": "uint32",
                      "name": "numerator",
                      "type": "uint32"
                    },
                    {
                      "internalType": "uint32",
                      "name": "denominator",
                      "type": "uint32"
                    },
                    {
                      "internalType": "uint32",
                      "name": "minimumAmount",
                      "type": "uint32"
                    },
                    {
                      "internalType": "uint32",
                      "name": "maximumAmount",
                      "type": "uint32"
                    },
                    {
                      "internalType": "bool",
                      "name": "netOfTransfers",
                      "type": "bool"
                    },
                    {
                      "internalType": "address",
                      "name": "feeCollector",
                      "type": "address"
                    }
                  ],
                  "internalType": "struct IHederaTokenService.FractionalFee[]",
                  "name": "fractionalFees",
                  "type": "tuple[]"
                },
                {
                  "components": [
                    {
                      "internalType": "uint32",
                      "name": "numerator",
                      "type": "uint32"
                    },
                    {
                      "internalType": "uint32",
                      "name": "denominator",
                      "type": "uint32"
                    },
                    {
                      "internalType": "uint32",
                      "name": "amount",
                      "type": "uint32"
                    },
                    {
                      "internalType": "address",
                      "name": "tokenId",
                      "type": "address"
                    },
                    {
                      "internalType": "bool",
                      "name": "useHbarsForPayment",
                      "type": "bool"
                    },
                    {
                      "internalType": "address",
                      "name": "feeCollector",
                      "type": "address"
                    }
                  ],
                  "internalType": "struct IHederaTokenService.RoyaltyFee[]",
                  "name": "royaltyFees",
                  "type": "tuple[]"
                },
                {
                  "internalType": "string",
                  "name": "ledgerId",
                  "type": "string"
                }
              ],
              "internalType": "struct IHederaTokenService.TokenInfo",
              "name": "tokenInfo",
              "type": "tuple"
            },
            {
              "internalType": "uint32",
              "name": "decimals",
              "type": "uint32"
            }
          ],
          "internalType": "struct IHederaTokenService.FungibleTokenInfo",
          "name": "tokenInfo",
          "type": "tuple"
        }
      ],
      "stateMutability": "nonpayable",
      "type": "function"
    },
    {
      "inputs": [
        {
          "internalType": "address",
          "name": "token",
          "type": "address"
        },
        {
          "internalType": "int64",
          "name": "serialNumber",
          "type": "int64"
        }
      ],
      "name": "getNonFungibleTokenInfoPublic",
      "outputs": [
        {
          "internalType": "int256",
          "name": "responseCode",
          "type": "int256"
        },
        {
          "components": [
            {
              "components": [
                {
                  "components": [
                    {
                      "internalType": "string",
                      "name": "name",
                      "type": "string"
                    },
                    {
                      "internalType": "string",
                      "name": "symbol",
                      "type": "string"
                    },
                    {
                      "internalType": "address",
                      "name": "treasury",
                      "type": "address"
                    },
                    {
                      "internalType": "string",
                      "name": "memo",
                      "type": "string"
                    },
                    {
                      "internalType": "bool",
                      "name": "tokenSupplyType",
                      "type": "bool"
                    },
                    {
                      "internalType": "uint32",
                      "name": "maxSupply",
                      "type": "uint32"
                    },
                    {
                      "internalType": "bool",
                      "name": "freezeDefault",
                      "type": "bool"
                    },
                    {
                      "components": [
                        {
                          "internalType": "uint256",
                          "name": "keyType",
                          "type": "uint256"
                        },
                        {
                          "components": [
                            {
                              "internalType": "bool",
                              "name": "inheritAccountKey",
                              "type": "bool"
                            },
                            {
                              "internalType": "address",
                              "name": "contractId",
                              "type": "address"
                            },
                            {
                              "internalType": "bytes",
                              "name": "ed25519",
                              "type": "bytes"
                            },
                            {
                              "internalType": "bytes",
                              "name": "ECDSA_secp256k1",
                              "type": "bytes"
                            },
                            {
                              "internalType": "address",
                              "name": "delegatableContractId",
                              "type": "address"
                            }
                          ],
                          "internalType": "struct IHederaTokenService.KeyValue",
                          "name": "key",
                          "type": "tuple"
                        }
                      ],
                      "internalType": "struct IHederaTokenService.TokenKey[]",
                      "name": "tokenKeys",
                      "type": "tuple[]"
                    },
                    {
                      "components": [
                        {
                          "internalType": "uint32",
                          "name": "second",
                          "type": "uint32"
                        },
                        {
                          "internalType": "address",
                          "name": "autoRenewAccount",
                          "type": "address"
                        },
                        {
                          "internalType": "uint32",
                          "name": "autoRenewPeriod",
                          "type": "uint32"
                        }
                      ],
                      "internalType": "struct IHederaTokenService.Expiry",
                      "name": "expiry",
                      "type": "tuple"
                    }
                  ],
                  "internalType": "struct IHederaTokenService.HederaToken",
                  "name": "token",
                  "type": "tuple"
                },
                {
                  "internalType": "uint64",
                  "name": "totalSupply",
                  "type": "uint64"
                },
                {
                  "internalType": "bool",
                  "name": "deleted",
                  "type": "bool"
                },
                {
                  "internalType": "bool",
                  "name": "defaultKycStatus",
                  "type": "bool"
                },
                {
                  "internalType": "bool",
                  "name": "pauseStatus",
                  "type": "bool"
                },
                {
                  "components": [
                    {
                      "internalType": "uint32",
                      "name": "amount",
                      "type": "uint32"
                    },
                    {
                      "internalType": "address",
                      "name": "tokenId",
                      "type": "address"
                    },
                    {
                      "internalType": "bool",
                      "name": "useHbarsForPayment",
                      "type": "bool"
                    },
                    {
                      "internalType": "bool",
                      "name": "useCurrentTokenForPayment",
                      "type": "bool"
                    },
                    {
                      "internalType": "address",
                      "name": "feeCollector",
                      "type": "address"
                    }
                  ],
                  "internalType": "struct IHederaTokenService.FixedFee[]",
                  "name": "fixedFees",
                  "type": "tuple[]"
                },
                {
                  "components": [
                    {
                      "internalType": "uint32",
                      "name": "numerator",
                      "type": "uint32"
                    },
                    {
                      "internalType": "uint32",
                      "name": "denominator",
                      "type": "uint32"
                    },
                    {
                      "internalType": "uint32",
                      "name": "minimumAmount",
                      "type": "uint32"
                    },
                    {
                      "internalType": "uint32",
                      "name": "maximumAmount",
                      "type": "uint32"
                    },
                    {
                      "internalType": "bool",
                      "name": "netOfTransfers",
                      "type": "bool"
                    },
                    {
                      "internalType": "address",
                      "name": "feeCollector",
                      "type": "address"
                    }
                  ],
                  "internalType": "struct IHederaTokenService.FractionalFee[]",
                  "name": "fractionalFees",
                  "type": "tuple[]"
                },
                {
                  "components": [
                    {
                      "internalType": "uint32",
                      "name": "numerator",
                      "type": "uint32"
                    },
                    {
                      "internalType": "uint32",
                      "name": "denominator",
                      "type": "uint32"
                    },
                    {
                      "internalType": "uint32",
                      "name": "amount",
                      "type": "uint32"
                    },
                    {
                      "internalType": "address",
                      "name": "tokenId",
                      "type": "address"
                    },
                    {
                      "internalType": "bool",
                      "name": "useHbarsForPayment",
                      "type": "bool"
                    },
                    {
                      "internalType": "address",
                      "name": "feeCollector",
                      "type": "address"
                    }
                  ],
                  "internalType": "struct IHederaTokenService.RoyaltyFee[]",
                  "name": "royaltyFees",
                  "type": "tuple[]"
                },
                {
                  "internalType": "string",
                  "name": "ledgerId",
                  "type": "string"
                }
              ],
              "internalType": "struct IHederaTokenService.TokenInfo",
              "name": "tokenInfo",
              "type": "tuple"
            },
            {
              "internalType": "int64",
              "name": "serialNumber",
              "type": "int64"
            },
            {
              "internalType": "address",
              "name": "ownerId",
              "type": "address"
            },
            {
              "internalType": "int64",
              "name": "creationTime",
              "type": "int64"
            },
            {
              "internalType": "bytes",
              "name": "metadata",
              "type": "bytes"
            },
            {
              "internalType": "address",
              "name": "spenderId",
              "type": "address"
            }
          ],
          "internalType": "struct IHederaTokenService.NonFungibleTokenInfo",
          "name": "tokenInfo",
          "type": "tuple"
        }
      ],
      "stateMutability": "nonpayable",
      "type": "function"
    },
    {
      "inputs": [
        {
          "internalType": "address",
          "name": "token",
          "type": "address"
        }
      ],
      "name": "getTokenCustomFeesPublic",
      "outputs": [
        {
          "internalType": "int64",
          "name": "responseCode",
          "type": "int64"
        },
        {
          "components": [
            {
              "internalType": "uint32",
              "name": "amount",
              "type": "uint32"
            },
            {
              "internalType": "address",
              "name": "tokenId",
              "type": "address"
            },
            {
              "internalType": "bool",
              "name": "useHbarsForPayment",
              "type": "bool"
            },
            {
              "internalType": "bool",
              "name": "useCurrentTokenForPayment",
              "type": "bool"
            },
            {
              "internalType": "address",
              "name": "feeCollector",
              "type": "address"
            }
          ],
          "internalType": "struct IHederaTokenService.FixedFee[]",
          "name": "fixedFees",
          "type": "tuple[]"
        },
        {
          "components": [
            {
              "internalType": "uint32",
              "name": "numerator",
              "type": "uint32"
            },
            {
              "internalType": "uint32",
              "name": "denominator",
              "type": "uint32"
            },
            {
              "internalType": "uint32",
              "name": "minimumAmount",
              "type": "uint32"
            },
            {
              "internalType": "uint32",
              "name": "maximumAmount",
              "type": "uint32"
            },
            {
              "internalType": "bool",
              "name": "netOfTransfers",
              "type": "bool"
            },
            {
              "internalType": "address",
              "name": "feeCollector",
              "type": "address"
            }
          ],
          "internalType": "struct IHederaTokenService.FractionalFee[]",
          "name": "fractionalFees",
          "type": "tuple[]"
        },
        {
          "components": [
            {
              "internalType": "uint32",
              "name": "numerator",
              "type": "uint32"
            },
            {
              "internalType": "uint32",
              "name": "denominator",
              "type": "uint32"
            },
            {
              "internalType": "uint32",
              "name": "amount",
              "type": "uint32"
            },
            {
              "internalType": "address",
              "name": "tokenId",
              "type": "address"
            },
            {
              "internalType": "bool",
              "name": "useHbarsForPayment",
              "type": "bool"
            },
            {
              "internalType": "address",
              "name": "feeCollector",
              "type": "address"
            }
          ],
          "internalType": "struct IHederaTokenService.RoyaltyFee[]",
          "name": "royaltyFees",
          "type": "tuple[]"
        }
      ],
      "stateMutability": "nonpayable",
      "type": "function"
    },
    {
      "inputs": [
        {
          "internalType": "address",
          "name": "token",
          "type": "address"
        }
      ],
      "name": "getTokenDefaultFreezeStatusPublic",
      "outputs": [
        {
          "internalType": "int256",
          "name": "responseCode",
          "type": "int256"
        },
        {
          "internalType": "bool",
          "name": "defaultFreezeStatus",
          "type": "bool"
        }
      ],
      "stateMutability": "nonpayable",
      "type": "function"
    },
    {
      "inputs": [
        {
          "internalType": "address",
          "name": "token",
          "type": "address"
        }
      ],
      "name": "getTokenDefaultKycStatusPublic",
      "outputs": [
        {
          "internalType": "int256",
          "name": "responseCode",
          "type": "int256"
        },
        {
          "internalType": "bool",
          "name": "defaultKycStatus",
          "type": "bool"
        }
      ],
      "stateMutability": "nonpayable",
      "type": "function"
    },
    {
      "inputs": [
        {
          "internalType": "address",
          "name": "token",
          "type": "address"
        }
      ],
      "name": "getTokenInfoPublic",
      "outputs": [
        {
          "internalType": "int256",
          "name": "responseCode",
          "type": "int256"
        },
        {
          "components": [
            {
              "components": [
                {
                  "internalType": "string",
                  "name": "name",
                  "type": "string"
                },
                {
                  "internalType": "string",
                  "name": "symbol",
                  "type": "string"
                },
                {
                  "internalType": "address",
                  "name": "treasury",
                  "type": "address"
                },
                {
                  "internalType": "string",
                  "name": "memo",
                  "type": "string"
                },
                {
                  "internalType": "bool",
                  "name": "tokenSupplyType",
                  "type": "bool"
                },
                {
                  "internalType": "uint32",
                  "name": "maxSupply",
                  "type": "uint32"
                },
                {
                  "internalType": "bool",
                  "name": "freezeDefault",
                  "type": "bool"
                },
                {
                  "components": [
                    {
                      "internalType": "uint256",
                      "name": "keyType",
                      "type": "uint256"
                    },
                    {
                      "components": [
                        {
                          "internalType": "bool",
                          "name": "inheritAccountKey",
                          "type": "bool"
                        },
                        {
                          "internalType": "address",
                          "name": "contractId",
                          "type": "address"
                        },
                        {
                          "internalType": "bytes",
                          "name": "ed25519",
                          "type": "bytes"
                        },
                        {
                          "internalType": "bytes",
                          "name": "ECDSA_secp256k1",
                          "type": "bytes"
                        },
                        {
                          "internalType": "address",
                          "name": "delegatableContractId",
                          "type": "address"
                        }
                      ],
                      "internalType": "struct IHederaTokenService.KeyValue",
                      "name": "key",
                      "type": "tuple"
                    }
                  ],
                  "internalType": "struct IHederaTokenService.TokenKey[]",
                  "name": "tokenKeys",
                  "type": "tuple[]"
                },
                {
                  "components": [
                    {
                      "internalType": "uint32",
                      "name": "second",
                      "type": "uint32"
                    },
                    {
                      "internalType": "address",
                      "name": "autoRenewAccount",
                      "type": "address"
                    },
                    {
                      "internalType": "uint32",
                      "name": "autoRenewPeriod",
                      "type": "uint32"
                    }
                  ],
                  "internalType": "struct IHederaTokenService.Expiry",
                  "name": "expiry",
                  "type": "tuple"
                }
              ],
              "internalType": "struct IHederaTokenService.HederaToken",
              "name": "token",
              "type": "tuple"
            },
            {
              "internalType": "uint64",
              "name": "totalSupply",
              "type": "uint64"
            },
            {
              "internalType": "bool",
              "name": "deleted",
              "type": "bool"
            },
            {
              "internalType": "bool",
              "name": "defaultKycStatus",
              "type": "bool"
            },
            {
              "internalType": "bool",
              "name": "pauseStatus",
              "type": "bool"
            },
            {
              "components": [
                {
                  "internalType": "uint32",
                  "name": "amount",
                  "type": "uint32"
                },
                {
                  "internalType": "address",
                  "name": "tokenId",
                  "type": "address"
                },
                {
                  "internalType": "bool",
                  "name": "useHbarsForPayment",
                  "type": "bool"
                },
                {
                  "internalType": "bool",
                  "name": "useCurrentTokenForPayment",
                  "type": "bool"
                },
                {
                  "internalType": "address",
                  "name": "feeCollector",
                  "type": "address"
                }
              ],
              "internalType": "struct IHederaTokenService.FixedFee[]",
              "name": "fixedFees",
              "type": "tuple[]"
            },
            {
              "components": [
                {
                  "internalType": "uint32",
                  "name": "numerator",
                  "type": "uint32"
                },
                {
                  "internalType": "uint32",
                  "name": "denominator",
                  "type": "uint32"
                },
                {
                  "internalType": "uint32",
                  "name": "minimumAmount",
                  "type": "uint32"
                },
                {
                  "internalType": "uint32",
                  "name": "maximumAmount",
                  "type": "uint32"
                },
                {
                  "internalType": "bool",
                  "name": "netOfTransfers",
                  "type": "bool"
                },
                {
                  "internalType": "address",
                  "name": "feeCollector",
                  "type": "address"
                }
              ],
              "internalType": "struct IHederaTokenService.FractionalFee[]",
              "name": "fractionalFees",
              "type": "tuple[]"
            },
            {
              "components": [
                {
                  "internalType": "uint32",
                  "name": "numerator",
                  "type": "uint32"
                },
                {
                  "internalType": "uint32",
                  "name": "denominator",
                  "type": "uint32"
                },
                {
                  "internalType": "uint32",
                  "name": "amount",
                  "type": "uint32"
                },
                {
                  "internalType": "address",
                  "name": "tokenId",
                  "type": "address"
                },
                {
                  "internalType": "bool",
                  "name": "useHbarsForPayment",
                  "type": "bool"
                },
                {
                  "internalType": "address",
                  "name": "feeCollector",
                  "type": "address"
                }
              ],
              "internalType": "struct IHederaTokenService.RoyaltyFee[]",
              "name": "royaltyFees",
              "type": "tuple[]"
            },
            {
              "internalType": "string",
              "name": "ledgerId",
              "type": "string"
            }
          ],
          "internalType": "struct IHederaTokenService.TokenInfo",
          "name": "tokenInfo",
          "type": "tuple"
        }
      ],
      "stateMutability": "nonpayable",
      "type": "function"
    },
    {
      "inputs": [
        {
          "internalType": "address",
          "name": "token",
          "type": "address"
        },
        {
          "internalType": "address",
          "name": "owner",
          "type": "address"
        },
        {
          "internalType": "address",
          "name": "operator",
          "type": "address"
        }
      ],
      "name": "isApprovedForAllPublic",
      "outputs": [
        {
          "internalType": "int256",
          "name": "responseCode",
          "type": "int256"
        },
        {
          "internalType": "bool",
          "name": "approved",
          "type": "bool"
        }
      ],
      "stateMutability": "nonpayable",
      "type": "function"
    },
    {
      "inputs": [
        {
          "internalType": "address",
          "name": "token",
          "type": "address"
        },
        {
          "internalType": "address",
          "name": "account",
          "type": "address"
        }
      ],
      "name": "isFrozenPublic",
      "outputs": [
        {
          "internalType": "int256",
          "name": "responseCode",
          "type": "int256"
        },
        {
          "internalType": "bool",
          "name": "frozen",
          "type": "bool"
        }
      ],
      "stateMutability": "nonpayable",
      "type": "function"
    },
    {
      "inputs": [
        {
          "internalType": "address",
          "name": "token",
          "type": "address"
        },
        {
          "internalType": "uint64",
          "name": "amount",
          "type": "uint64"
        },
        {
          "internalType": "bytes[]",
          "name": "metadata",
          "type": "bytes[]"
        }
      ],
      "name": "mintTokenPublic",
      "outputs": [
        {
          "internalType": "int256",
          "name": "responseCode",
          "type": "int256"
        },
        {
          "internalType": "uint64",
          "name": "newTotalSupply",
          "type": "uint64"
        },
        {
          "internalType": "int64[]",
          "name": "serialNumbers",
          "type": "int64[]"
        }
      ],
      "stateMutability": "nonpayable",
      "type": "function"
    },
    {
      "inputs": [
        {
          "internalType": "address",
          "name": "token",
          "type": "address"
        }
      ],
      "name": "pauseToken",
      "outputs": [
        {
          "internalType": "int256",
          "name": "responseCode",
          "type": "int256"
        }
      ],
      "stateMutability": "nonpayable",
      "type": "function"
    },
    {
      "inputs": [
        {
          "internalType": "address",
          "name": "token",
          "type": "address"
        }
      ],
      "name": "pauseTokenPublic",
      "outputs": [
        {
          "internalType": "int256",
          "name": "responseCode",
          "type": "int256"
        }
      ],
      "stateMutability": "nonpayable",
      "type": "function"
    },
    {
      "inputs": [
        {
          "internalType": "address",
          "name": "token",
          "type": "address"
        },
        {
          "internalType": "address",
          "name": "operator",
          "type": "address"
        },
        {
          "internalType": "bool",
          "name": "approved",
          "type": "bool"
        }
      ],
      "name": "setApprovalForAllPublic",
      "outputs": [
        {
          "internalType": "int256",
          "name": "responseCode",
          "type": "int256"
        }
      ],
      "stateMutability": "nonpayable",
      "type": "function"
    },
    {
      "inputs": [
        {
          "internalType": "address",
          "name": "token",
          "type": "address"
        },
        {
          "internalType": "address",
          "name": "sender",
          "type": "address"
        },
        {
          "internalType": "address",
          "name": "receiver",
          "type": "address"
        },
        {
          "internalType": "int64",
          "name": "serialNumber",
          "type": "int64"
        }
      ],
      "name": "transferNFTPublic",
      "outputs": [
        {
          "internalType": "int256",
          "name": "responseCode",
          "type": "int256"
        }
      ],
      "stateMutability": "nonpayable",
      "type": "function"
    },
    {
      "inputs": [
        {
          "internalType": "address",
          "name": "account",
          "type": "address"
        },
        {
          "internalType": "address",
          "name": "token",
          "type": "address"
        },
        {
          "internalType": "int64",
          "name": "amount",
          "type": "int64"
        }
      ],
      "name": "transferTokenPublic",
      "outputs": [
        {
          "internalType": "int256",
          "name": "responseCode",
          "type": "int256"
        }
      ],
      "stateMutability": "nonpayable",
      "type": "function"
    },
    {
      "inputs": [
        {
          "internalType": "address",
          "name": "token",
          "type": "address"
        },
        {
          "internalType": "address",
          "name": "account",
          "type": "address"
        }
      ],
      "name": "unfreezeTokenPublic",
      "outputs": [
        {
          "internalType": "int256",
          "name": "responseCode",
          "type": "int256"
        }
      ],
      "stateMutability": "nonpayable",
      "type": "function"
    },
    {
      "inputs": [
        {
          "internalType": "address",
          "name": "token",
          "type": "address"
        }
      ],
      "name": "unpauseToken",
      "outputs": [
        {
          "internalType": "int256",
          "name": "responseCode",
          "type": "int256"
        }
      ],
      "stateMutability": "nonpayable",
      "type": "function"
    },
    {
      "inputs": [
        {
          "internalType": "address",
          "name": "token",
          "type": "address"
        }
      ],
      "name": "unpauseTokenPublic",
      "outputs": [
        {
          "internalType": "int256",
          "name": "responseCode",
          "type": "int256"
        }
      ],
      "stateMutability": "nonpayable",
      "type": "function"
    },
    {
      "inputs": [
        {
          "internalType": "address",
          "name": "token",
          "type": "address"
        },
        {
          "internalType": "address",
          "name": "account",
          "type": "address"
        },
        {
          "internalType": "int64[]",
          "name": "serialNumbers",
          "type": "int64[]"
        }
      ],
      "name": "wipeTokenAccountNFTPublic",
      "outputs": [
        {
          "internalType": "int256",
          "name": "responseCode",
          "type": "int256"
        }
      ],
      "stateMutability": "nonpayable",
      "type": "function"
    },
    {
      "inputs": [
        {
          "internalType": "address",
          "name": "token",
          "type": "address"
        },
        {
          "internalType": "address",
          "name": "account",
          "type": "address"
        },
        {
          "internalType": "uint32",
          "name": "amount",
          "type": "uint32"
        }
      ],
      "name": "wipeTokenAccountPublic",
      "outputs": [
        {
          "internalType": "int256",
          "name": "responseCode",
          "type": "int256"
        }
      ],
      "stateMutability": "nonpayable",
      "type": "function"
    }
  ],
  "bytecode": "0x60c06040526009608081905268746f6b656e4e616d6560b81b60a09081526200002c9160019190620000cb565b5060408051808201909152600b8082526a1d1bdad95b94de5b589bdb60aa1b60209092019182526200006191600291620000cb565b50604080518082019091526004808252636d656d6f60e01b60209092019182526200008f91600391620000cb565b506103e860048190556005805463ffffffff1916909117905560086006556007805460ff19169055348015620000c457600080fd5b50620001ae565b828054620000d99062000171565b90600052602060002090601f016020900481019282620000fd576000855562000148565b82601f106200011857805160ff191683800117855562000148565b8280016001018555821562000148579182015b82811115620001485782518255916020019190600101906200012b565b50620001569291506200015a565b5090565b5b808211156200015657600081556001016200015b565b600181811c908216806200018657607f821691505b60208210811415620001a857634e487b7160e01b600052602260045260246000fd5b50919050565b614c4380620001be6000396000f3fe6080604052600436106101ac5760003560e01c80636da6b1f0116100ec578063d92ac2481161008a578063f2f38a7411610064578063f2f38a7414610501578063f4a01e5b1461052f578063f7be34251461054f578063f848fec41461056f57600080fd5b8063d92ac248146104a1578063ec855c31146104c1578063f25b1200146104e157600080fd5b80638070905f116100c65780638070905f1461042c57806386f88d881461045b5780638ba74da01461047b578063d85f74c11461048e57600080fd5b80636da6b1f0146103cc5780637c41ad2c146103ec5780637d3e5da81461040c57600080fd5b80634b5c6687116101595780635a5e6c31116101335780635a5e6c31146103195780635b9076b71461034e57806369837dc21461037e5780636a4dde21146103ac57600080fd5b80634b5c6687146102b65780634cbdb37b146102cb57806356af8403146102f957600080fd5b80632d73bb2e1161018a5780632d73bb2e146102565780633b3bff0f146102765780633eed2c391461029657600080fd5b806313c05dd8146101b157806319db44b6146101eb5780632b256ec814610228575b600080fd5b3480156101bd57600080fd5b506101d16101cc36600461317d565b61058f565b604080519283529015156020830152015b60405180910390f35b3480156101f757600080fd5b5061020b6102063660046131c8565b61060d565b604080519283526001600160a01b039091166020830152016101e2565b34801561023457600080fd5b506102486102433660046131f4565b610691565b6040519081526020016101e2565b34801561026257600080fd5b50610248610271366004613211565b61077d565b34801561028257600080fd5b506102486102913660046131f4565b6107c8565b3480156102a257600080fd5b506101d16102b13660046131f4565b6108a2565b6102c96102c43660046131f4565b61091c565b005b3480156102d757600080fd5b506102eb6102e6366004613259565b610ca3565b6040516101e292919061377f565b34801561030557600080fd5b50610248610314366004613896565b610d19565b34801561032557600080fd5b5061033961033436600461317d565b610d63565b604080519283526020830191909152016101e2565b34801561035a57600080fd5b5061036e6103693660046131f4565b610dd4565b6040516101e2949392919061395c565b34801561038a57600080fd5b5061039e6103993660046131f4565b610e66565b6040516101e29291906139d8565b3480156103b857600080fd5b506101d16103c7366004613211565b610edb565b3480156103d857600080fd5b506102486103e73660046139f1565b610f52565b3480156103f857600080fd5b506102486104073660046131f4565b610f9e565b34801561041857600080fd5b50610248610427366004613211565b610fcc565b34801561043857600080fd5b5061044c610447366004613a8b565b610fd8565b6040516101e293929190613bd4565b34801561046757600080fd5b506101d16104763660046131f4565b611060565b6102c9610489366004613211565b6110d1565b6102c961049c3660046131f4565b611563565b3480156104ad57600080fd5b506102486104bc366004613c18565b6118c2565b3480156104cd57600080fd5b506102486104dc366004613c58565b6118cf565b3480156104ed57600080fd5b506102486104fc366004613ca6565b611aa6565b34801561050d57600080fd5b5061052161051c3660046131f4565b611ab3565b6040516101e2929190613ce6565b34801561053b57600080fd5b5061024861054a366004613211565b611b28565b34801561055b57600080fd5b5061024861056a3660046131f4565b611b55565b34801561057b57600080fd5b5061024861058a366004613cff565b611c38565b60008061059d858585611c45565b6040518281529193509150600080516020614bee8339815191529060200160405180910390a1601682146105d057600080fd5b60405181151581527e1c2e72360171244b3bb8cc8ddd767820edf37138ad6f129fb3574b407c307d906020015b60405180910390a1935093915050565b60008061061a8484611d44565b6040518281529193509150600080516020614bee8339815191529060200160405180910390a16016821461064d57600080fd5b6040516001600160a01b03821681527fc2c78c7c31baf14949e75c51df12be56edb9af523cf82839c2869bbcf13b3ecb906020015b60405180910390a19250929050565b604051631f106b4b60e21b81526001600160a01b03821660048201526000903090637c41ad2c90602401602060405180830381600087803b1580156106d557600080fd5b505af11580156106e9573d6000803e3d6000fd5b505050506040513d601f19601f8201168201806040525081019061070d9190613d40565b9050600080516020614bee8339815191528160405161072e91815260200190565b60405180910390a16016811461074357600080fd5b604051600181527f0c9c765845f4d139956bb8fc8decb2eec6093c9c608b809641b16054b29f0e13906020015b60405180910390a1919050565b60006107898383611e36565b60070b9050600080516020614bee833981519152816040516107ad91815260200190565b60405180910390a1601681146107c257600080fd5b92915050565b6040516001600160a01b03821660248201526000908190819061016790633b3bff0f60e01b906044015b60408051601f198184030181529181526020820180516001600160e01b03166001600160e01b03199094169390931790925290516108309190613d59565b6000604051808303816000865af19150503d806000811461086d576040519150601f19603f3d011682016040523d82523d6000602084013e610872565b606091505b509150915081610883576015610897565b808060200190518101906108979190613d8c565b60030b949350505050565b6000806108ae83611f32565b6040518281529193509150600080516020614bee8339815191529060200160405180910390a1601682146108e157600080fd5b60405181151581527f6b7f3306751292f85ab4161ee2b0ac16dfc8ded13e6446ce6bd859d0a2f4c78e906020015b60405180910390a1915091565b60408051600380825260808201909252600091816020015b61093c612fef565b81526020019060019003908161093457905050905061096f6000600660016040518060200160405280600081525061202f565b8160008151811061098257610982613da7565b60200260200101819052506109a96002600160405180602001604052806000815250612066565b816001815181106109bc576109bc613da7565b60200260200101819052506109e36003600160405180602001604052806000815250612066565b816002815181106109f6576109f6613da7565b602002602001018190525060006040518060600160405280600063ffffffff168152602001846001600160a01b03168152602001627a120063ffffffff168152509050600060405180610120016040528060018054610a5490613dbd565b80601f0160208091040260200160405190810160405280929190818152602001828054610a8090613dbd565b8015610acd5780601f10610aa257610100808354040283529160200191610acd565b820191906000526020600020905b815481529060010190602001808311610ab057829003601f168201915b5050505050815260200160028054610ae490613dbd565b80601f0160208091040260200160405190810160405280929190818152602001828054610b1090613dbd565b8015610b5d5780601f10610b3257610100808354040283529160200191610b5d565b820191906000526020600020905b815481529060010190602001808311610b4057829003601f168201915b50505050508152602001856001600160a01b0316815260200160038054610b8390613dbd565b80601f0160208091040260200160405190810160405280929190818152602001828054610baf90613dbd565b8015610bfc5780601f10610bd157610100808354040283529160200191610bfc565b820191906000526020600020905b815481529060010190602001808311610bdf57829003601f168201915b50505091835250506001602082015260055463ffffffff16604082015260075460ff16151560608201526080810185905260a0018390526004546006549192506000918291610c4d9185919061209b565b909250905060168214610c5f57600080fd5b6040516001600160a01b03821681527f7bb17726df1f3adee8aa00ba8e8bc5d6f182af3bbf77604639cb7f008dd3b4ed9060200160405180910390a1505050505050565b6000610cad61304c565b610cb784846121c9565b6040518281529193509150600080516020614bee8339815191529060200160405180910390a160168214610cea57600080fd5b7fa516f81c528634d0fc1e993bba1d227231b4bd6d1beb72d33b056a6199c0f988816040516106829190613df8565b6000610d268484846122bc565b9050600080516020614bee83398151915281604051610d4791815260200190565b60405180910390a160168114610d5c57600080fd5b9392505050565b600080610d7185858561239c565b6040518281529193509150600080516020614bee8339815191529060200160405180910390a160168214610da457600080fd5b6040518181527f25b6684a7e8fe1b676e9c39c8dd65034fbafea906d3bdfd97bf748b7b55e14c8906020016105fd565b60006060806060610de485612488565b604051600785900b815293975091955093509150600080516020614bee8339815191529060200160405180910390a1600784900b601614610e2457600080fd5b7f2efc8334b040613a552197fe34283d6ca2909c8ffae393e128424931f20c69b3838383604051610e5793929190613e0b565b60405180910390a19193509193565b6000610e70613087565b610e7983612588565b6040518281529193509150600080516020614bee8339815191529060200160405180910390a160168214610eac57600080fd5b7f476a9a9b28e2717d55288b2ae3c48a72aac52b11f8bd855017c9d41d9fc189648160405161090f9190613e44565b600080610ee88484612671565b60405160079290920b80835293509150600080516020614bee8339815191529060200160405180910390a160168214610f2057600080fd5b60405181151581527f59800d968fcce138300a0019410b4b75041610d65b3cdc5f31656b03ed14912e90602001610682565b6000610f6085858585612755565b9050600080516020614bee83398151915281604051610f8191815260200190565b60405180910390a160168114610f9657600080fd5b949350505050565b6040516001600160a01b03821660248201526000908190819061016790631f106b4b60e21b906044016107f2565b60006107898383612856565b6000806060610fe88686866128a5565b6040518381529295509093509150600080516020614bee8339815191529060200160405180910390a16016831461101e57600080fd5b7feff23992f47b3c101679f8b4dc9d3e242c903909dba4a453f2b2341ad463b0e2828260405161104f929190613e57565b60405180910390a193509350939050565b60008061106c836129a3565b6040518281529193509150600080516020614bee8339815191529060200160405180910390a16016821461109f57600080fd5b60405181151581527f9ee19e13dfa1ba8db2502e15ff56dbecdeb0e0473323fb195473ce648030a2cd9060200161090f565b604080516001808252818301909252600091816020015b6110f0612fef565b8152602001906001900390816110e857905050905061112260008060016040518060200160405280600081525061202f565b8160008151811061113557611135613da7565b602002602001018190525060006040518060600160405280600063ffffffff168152602001856001600160a01b03168152602001627a120063ffffffff16815250905060006040518061012001604052806001805461119390613dbd565b80601f01602080910402602001604051908101604052809291908181526020018280546111bf90613dbd565b801561120c5780601f106111e15761010080835404028352916020019161120c565b820191906000526020600020905b8154815290600101906020018083116111ef57829003601f168201915b505050505081526020016002805461122390613dbd565b80601f016020809104026020016040519081016040528092919081815260200182805461124f90613dbd565b801561129c5780601f106112715761010080835404028352916020019161129c565b820191906000526020600020905b81548152906001019060200180831161127f57829003601f168201915b50505050508152602001866001600160a01b03168152602001600380546112c290613dbd565b80601f01602080910402602001604051908101604052809291908181526020018280546112ee90613dbd565b801561133b5780601f106113105761010080835404028352916020019161133b565b820191906000526020600020905b81548152906001019060200180831161131e57829003601f168201915b505050918352505060016020820181905260055463ffffffff166040808401919091526000606084018190526080840188905260a09093018690528051828152808201909152929350909190816020015b6040805160a08101825260008082526020808301829052928201819052606082018190526080820152825260001990920191018161138c5750506040805160a081018252600181526001600160a01b0388811660208301526000928201839052606082018390528916608082015282519293509183919061140f5761140f613da7565b6020908102919091010152604080516001808252818301909252600091816020015b6040805160c08101825260008082526020808301829052928201819052606082018190526080820181905260a082015282526000199092019101816114315750506040805160c0810182526004815260056020820152600a91810191909152601e60608201526000608082018190526001600160a01b038a1660a0830152825192935090918391906114c5576114c5613da7565b60200260200101819052506000806114e48560045460065487876129ec565b91509150600080516020614bee8339815191528260405161150791815260200190565b60405180910390a16016821461151c57600080fd5b6040516001600160a01b03821681527f7bb17726df1f3adee8aa00ba8e8bc5d6f182af3bbf77604639cb7f008dd3b4ed9060200160405180910390a1505050505050505050565b60408051600480825260a08201909252600091816020015b611583612fef565b81526020019060019003908161157b5790505090506115b66000600660016040518060200160405280600081525061202f565b816000815181106115c9576115c9613da7565b60200260200101819052506115f06004600160405180602001604052806000815250612066565b8160018151811061160357611603613da7565b602002602001018190525061162a6002600160405180602001604052806000815250612066565b8160028151811061163d5761163d613da7565b60200260200101819052506116646003600160405180602001604052806000815250612066565b8160038151811061167757611677613da7565b602002602001018190525060006040518060600160405280600063ffffffff168152602001846001600160a01b03168152602001627a120063ffffffff1681525090506000604051806101200160405280600180546116d590613dbd565b80601f016020809104026020016040519081016040528092919081815260200182805461170190613dbd565b801561174e5780601f106117235761010080835404028352916020019161174e565b820191906000526020600020905b81548152906001019060200180831161173157829003601f168201915b505050505081526020016002805461176590613dbd565b80601f016020809104026020016040519081016040528092919081815260200182805461179190613dbd565b80156117de5780601f106117b3576101008083540402835291602001916117de565b820191906000526020600020905b8154815290600101906020018083116117c157829003601f168201915b50505050508152602001856001600160a01b031681526020016003805461180490613dbd565b80601f016020809104026020016040519081016040528092919081815260200182805461183090613dbd565b801561187d5780601f106118525761010080835404028352916020019161187d565b820191906000526020600020905b81548152906001019060200180831161186057829003601f168201915b50505091835250506001602082015260055463ffffffff16604082015260075460ff16151560608201526080810185905260a0018390529050600080610c4d83612b20565b6000610d26848484612c0a565b60408051600080825260208201909252819081611914565b60408051606081018252600080825260208083018290529282015282526000199092019101816118e75790505b50905060006040518060400160405280336001600160a01b031681526020018561193d90613e7a565b600790810b9091526040805180820182526001600160a01b038a1681529187900b602083015280516002808252606082019092529293509091600091816020015b604080518082019091526000808252602082015281526020019060019003908161197e57905050905082816000815181106119bb576119bb613da7565b602002602001018190525081816001815181106119da576119da613da7565b602090810291909101810191909152604080516060810182526001600160a01b038a16815291820183905281810186905280516001808252818301909252600091816020015b611a4d604051806060016040528060006001600160a01b0316815260200160608152602001606081525090565b815260200190600190039081611a205790505090508181600081518110611a7657611a76613da7565b6020026020010181905250611a8a81612c65565b965060168714611a9957600080fd5b5050505050509392505050565b6000610d26848484612c8f565b6000611abd6130a7565b611ac683612ce6565b6040518281529193509150600080516020614bee8339815191529060200160405180910390a160168214611af957600080fd5b7f528c7dcea75f0c9e110a038e50647cd6a70ac06d331399b77dd9a80f903ebc168160405161090f9190613eb0565b6000611b348383612dcf565b9050600080516020614bee833981519152816040516107ad91815260200190565b604051633b3bff0f60e01b81526001600160a01b03821660048201526000903090633b3bff0f90602401602060405180830381600087803b158015611b9957600080fd5b505af1158015611bad573d6000803e3d6000fd5b505050506040513d601f19601f82011682018060405250810190611bd19190613d40565b9050600080516020614bee83398151915281604051611bf291815260200190565b60405180910390a160168114611c0757600080fd5b604051600181527f319ab7084208e4afa38c6e6ff7aea9587439f2e4700746f4c7d425fea17426d290602001610770565b6000610d26848484612e1e565b604080516001600160a01b0385811660248301528481166044830152831660648083019190915282518083039091018152608490910182526020810180516001600160e01b03167ff49f40db00000000000000000000000000000000000000000000000000000000179052905160009182918291829161016791611cc891613d59565b6000604051808303816000865af19150503d8060008114611d05576040519150601f19603f3d011682016040523d82523d6000602084013e611d0a565b606091505b509150915081611d1d5760156000611d31565b80806020019051810190611d319190613ece565b60039190910b9890975095505050505050565b604080516001600160a01b0384166024820152604480820184905282518083039091018152606490910182526020810180516001600160e01b03167f098f236600000000000000000000000000000000000000000000000000000000179052905160009182918291829161016791611dbb91613d59565b6000604051808303816000865af19150503d8060008114611df8576040519150601f19603f3d011682016040523d82523d6000602084013e611dfd565b606091505b509150915081611e105760156000611e24565b80806020019051810190611e249190613efa565b60039190910b97909650945050505050565b6040516001600160a01b0383811660248301528216604482015260009081908190610167907f52f9138700000000000000000000000000000000000000000000000000000000906064015b60408051601f198184030181529181526020820180516001600160e01b03166001600160e01b0319909416939093179092529051611ebf9190613d59565b6000604051808303816000865af19150503d8060008114611efc576040519150601f19603f3d011682016040523d82523d6000602084013e611f01565b606091505b509150915081611f12576015611f26565b80806020019051810190611f269190613d8c565b60030b95945050505050565b6040516001600160a01b0382166024820152600090819081908190610167907fa7daa18d00000000000000000000000000000000000000000000000000000000906044015b60408051601f198184030181529181526020820180516001600160e01b03166001600160e01b0319909416939093179092529051611fb59190613d59565b6000604051808303816000865af19150503d8060008114611ff2576040519150601f19603f3d011682016040523d82523d6000602084013e611ff7565b606091505b50915091508161200a576015600061201e565b8080602001905181019061201e9190613ece565b60039190910b969095509350505050565b612037612fef565b604051806040016040528061204c8787612e74565b815260200161205b8585612e8d565b905295945050505050565b61206e612fef565b604051806040016040528061208286612f5d565b81526020016120918585612e8d565b9052949350505050565b600080848061010001516000015163ffffffff1660001480156120cb57506101008101516040015163ffffffff16155b156120e1576101008101516276a7006040909101525b6000806101676001600160a01b031634637812a04b60e01b8a8a8a60405160240161210e93929190613f26565b60408051601f198184030181529181526020820180516001600160e01b03166001600160e01b031990941693909317909252905161214c9190613d59565b60006040518083038185875af1925050503d8060008114612189576040519150601f19603f3d011682016040523d82523d6000602084013e61218e565b606091505b5091509150816121a157601560006121b5565b808060200190518101906121b59190613efa565b60039190910b999098509650505050505050565b60006121d361304c565b604080516001600160a01b0386166024820152600785900b60448083019190915282518083039091018152606490910182526020810180516001600160e01b03167f287e1da800000000000000000000000000000000000000000000000000000000179052905160009182916101679161224c91613d59565b6000604051808303816000865af19150503d8060008114612289576040519150601f19603f3d011682016040523d82523d6000602084013e61228e565b606091505b509150915061229b61304c565b826122a857601581611d31565b81806020019051810190611d319190614656565b60008060006101676001600160a01b031663f7f38e2660e01b8787876040516024016122ea9392919061473e565b60408051601f198184030181529181526020820180516001600160e01b03166001600160e01b03199094169390931790925290516123289190613d59565b6000604051808303816000865af19150503d8060008114612365576040519150601f19603f3d011682016040523d82523d6000602084013e61236a565b606091505b50915091508161237b57601561238f565b8080602001905181019061238f9190613d8c565b60030b9695505050505050565b604080516001600160a01b0385811660248301528481166044830152831660648083019190915282518083039091018152608490910182526020810180516001600160e01b03167f927da1050000000000000000000000000000000000000000000000000000000017905290516000918291829182916101679161241f91613d59565b6000604051808303816000865af19150503d806000811461245c576040519150601f19603f3d011682016040523d82523d6000602084013e612461565b606091505b5091509150816124745760156000611d31565b80806020019051810190611d31919061476a565b604080516001600160a01b03831660248083019190915282518083039091018152604490910182526020810180516001600160e01b03167fae7611a000000000000000000000000000000000000000000000000000000000179052905160009160609182918291859182916101679161250091613d59565b6000604051808303816000865af19150503d806000811461253d576040519150601f19603f3d011682016040523d82523d6000602084013e612542565b606091505b509150915060608060608461255b57601583838361256f565b8380602001905181019061256f9190614796565b60039390930b9d919c509a509098509650505050505050565b6000612592613087565b604080516001600160a01b03851660248083019190915282518083039091018152604490910182526020810180516001600160e01b03167f3f28a19b00000000000000000000000000000000000000000000000000000000179052905160009182916101679161260191613d59565b6000604051808303816000865af19150503d806000811461263e576040519150601f19603f3d011682016040523d82523d6000602084013e612643565b606091505b5091509150612650613087565b8261265d57601581611e24565b81806020019051810190611e24919061482f565b604080516001600160a01b038481166024830152831660448083019190915282518083039091018152606490910182526020810180516001600160e01b03167f46de0fb1000000000000000000000000000000000000000000000000000000001790529051600091829182918291610167916126ec91613d59565b6000604051808303816000865af19150503d8060008114612729576040519150601f19603f3d011682016040523d82523d6000602084013e61272e565b606091505b5091509150816127415760156000611e24565b80806020019051810190611e249190613ece565b604080516001600160a01b038681166024830152858116604483015284166064820152600783900b6084808301919091528251808303909101815260a490910182526020810180516001600160e01b03167f5cfc901100000000000000000000000000000000000000000000000000000000179052905160009182918291610167916127e19190613d59565b6000604051808303816000865af19150503d806000811461281e576040519150601f19603f3d011682016040523d82523d6000602084013e612823565b606091505b509150915081612834576015612848565b808060200190518101906128489190613d8c565b60030b979650505050505050565b6040516001600160a01b0383811660248301528216604482015260009081908190610167907f5b8f85840000000000000000000000000000000000000000000000000000000090606401611e81565b60008060606000806101676001600160a01b031663278e0b8860e01b8989896040516024016128d6939291906148db565b60408051601f198184030181529181526020820180516001600160e01b03166001600160e01b03199094169390931790925290516129149190613d59565b6000604051808303816000865af19150503d8060008114612951576040519150601f19603f3d011682016040523d82523d6000602084013e612956565b606091505b50915091508161297957604080516000808252602082019092526015919061298d565b8080602001905181019061298d919061495f565b60039290920b9a90995090975095505050505050565b6040516001600160a01b0382166024820152600090819081908190610167907f335e04c10000000000000000000000000000000000000000000000000000000090604401611f77565b600080868061010001516000015163ffffffff166000148015612a1c57506101008101516040015163ffffffff16155b15612a32576101008101516276a7006040909101525b6000806101676001600160a01b031634634c381ae760e01b8c8c8c8c8c604051602401612a63959493929190614a10565b60408051601f198184030181529181526020820180516001600160e01b03166001600160e01b0319909416939093179092529051612aa19190613d59565b60006040518083038185875af1925050503d8060008114612ade576040519150601f19603f3d011682016040523d82523d6000602084013e612ae3565b606091505b509150915081612af65760156000612b0a565b80806020019051810190612b0a9190613efa565b60039190910b9b909a5098505050505050505050565b600080828061010001516000015163ffffffff166000148015612b5057506101008101516040015163ffffffff16155b15612b66576101008101516276a7006040909101525b6000806101676001600160a01b031634639dc711e060e01b88604051602401612b8f9190614a61565b60408051601f198184030181529181526020820180516001600160e01b03166001600160e01b0319909416939093179092529051612bcd9190613d59565b60006040518083038185875af1925050503d8060008114611df8576040519150601f19603f3d011682016040523d82523d6000602084013e611dfd565b6040516001600160a01b0384811660248301528316604482015263ffffffff8216606482015260009081908190610167907f9790686d00000000000000000000000000000000000000000000000000000000906084016122ea565b60008060006101676001600160a01b031663189a554c60e01b856040516024016107f29190614ac9565b6040516001600160a01b03848116602483015283166044820152811515606482015260009081908190610167907f367605ca00000000000000000000000000000000000000000000000000000000906084016122ea565b6000612cf06130a7565b604080516001600160a01b03851660248083019190915282518083039091018152604490910182526020810180516001600160e01b03167f1f69565f000000000000000000000000000000000000000000000000000000001790529051600091829161016791612d5f91613d59565b6000604051808303816000865af19150503d8060008114612d9c576040519150601f19603f3d011682016040523d82523d6000602084013e612da1565b606091505b5091509150612dae6130a7565b82612dbb57601581611e24565b81806020019051810190611e249190614b9f565b6040516001600160a01b0383811660248301528216604482015260009081908190610167907f49146bde0000000000000000000000000000000000000000000000000000000090606401611e81565b6040516001600160a01b038481166024830152831660448201526064810182905260009081908190610167907fe1f21c6700000000000000000000000000000000000000000000000000000000906084016122ea565b6000600160ff84161b9050600160ff83161b8117610d5c565b612ed36040518060a0016040528060001515815260200160006001600160a01b03168152602001606081526020016060815260200160006001600160a01b031681525090565b8260ff1660011415612ee857600181526107c2565b8260ff1660021415612f0a576000546001600160a01b031660208201526107c2565b8260ff1660031415612f2257604081018290526107c2565b8260ff1660041415612f3a57606081018290526107c2565b8260ff16600514156107c2576000546001600160a01b0316608082015292915050565b600060ff8216612f6f57506001919050565b8160ff1660011415612f8357506002919050565b8160ff1660021415612f9757506004919050565b8160ff1660031415612fab57506008919050565b8160ff1660041415612fbf57506010919050565b8160ff1660051415612fd357506020919050565b8160ff1660061415612fe757506040919050565b506000919050565b6040518060400160405280600081526020016130476040518060a0016040528060001515815260200160006001600160a01b03168152602001606081526020016060815260200160006001600160a01b031681525090565b905290565b6040518060c0016040528061305f6130a7565b8152600060208201819052604082018190526060808301829052608083015260a09091015290565b604051806040016040528061309a6130a7565b8152600060209091015290565b60408051610240810182526060610120820181815261014083018290526000610160840181905261018084018390526101a084018190526101c084018190526101e0840181905261020084018390528451928301855280835260208301819052938201939093526102208201529081908152602001600067ffffffffffffffff168152602001600015158152602001600015158152602001600015158152602001606081526020016060815260200160608152602001606081525090565b6001600160a01b038116811461317a57600080fd5b50565b60008060006060848603121561319257600080fd5b833561319d81613165565b925060208401356131ad81613165565b915060408401356131bd81613165565b809150509250925092565b600080604083850312156131db57600080fd5b82356131e681613165565b946020939093013593505050565b60006020828403121561320657600080fd5b8135610d5c81613165565b6000806040838503121561322457600080fd5b823561322f81613165565b9150602083013561323f81613165565b809150509250929050565b8060070b811461317a57600080fd5b6000806040838503121561326c57600080fd5b823561327781613165565b9150602083013561323f8161324a565b60005b838110156132a257818101518382015260200161328a565b838111156132b1576000848401525b50505050565b600081518084526132cf816020860160208601613287565b601f01601f19169290920160200192915050565b600081518084526020808501808196508360051b8101915082860160005b8581101561339a5782840389528151604081518652868201519150808787015281511515818701528682015160606001600160a01b03808316828a015283850151935060a09250608083818b015261335c60e08b01866132b7565b928601518a8403603f1901858c015292945061337885846132b7565b9501511660c09890980197909752505098850198935090840190600101613301565b5091979650505050505050565b600061016082518185526133bd828601826132b7565b915050602083015184820360208601526133d782826132b7565b91505060408301516133f460408601826001600160a01b03169052565b506060830151848203606086015261340c82826132b7565b9150506080830151613422608086018215159052565b5060a083015161343a60a086018263ffffffff169052565b5060c083015161344e60c086018215159052565b5060e083015184820360e086015261346682826132e3565b61010085810151805163ffffffff9081168984015260208201516001600160a01b03166101208a015260408201511661014089015291935091505090949350505050565b600081518084526020808501945080840160005b8381101561351a578151805163ffffffff168852838101516001600160a01b03908116858a01526040808301511515908a01526060808301511515908a0152608091820151169088015260a090960195908201906001016134be565b509495945050505050565b600081518084526020808501945080840160005b8381101561351a578151805163ffffffff9081168952848201518116858a01526040808301518216908a01526060808301519091169089015260808082015115159089015260a0908101516001600160a01b03169088015260c09096019590820190600101613539565b600081518084526020808501945080840160005b8381101561351a578151805163ffffffff9081168952848201518116858a0152604080830151909116908901526060808201516001600160a01b03908116918a01919091526080808301511515908a015260a091820151169088015260c090960195908201906001016135b7565b6000610120825181855261363b828601826133a7565b9150506020830151613659602086018267ffffffffffffffff169052565b50604083015161366d604086018215159052565b506060830151613681606086018215159052565b506080830151613695608086018215159052565b5060a083015184820360a08601526136ad82826134aa565b91505060c083015184820360c08601526136c78282613525565b91505060e083015184820360e08601526136e182826135a3565b91505061010080840151858303828701526136fc83826132b7565b9695505050505050565b6000815160c0845261371b60c0850182613625565b9050602083015160070b602085015260408301516001600160a01b038082166040870152606085015160070b606087015260808501519150858303608087015261376583836132b7565b92508060a08601511660a087015250508091505092915050565b828152604060208201526000610f966040830184613706565b634e487b7160e01b600052604160045260246000fd5b6040805190810167ffffffffffffffff811182821017156137d1576137d1613798565b60405290565b60405160a0810167ffffffffffffffff811182821017156137d1576137d1613798565b604051610120810167ffffffffffffffff811182821017156137d1576137d1613798565b60405160c0810167ffffffffffffffff811182821017156137d1576137d1613798565b604051601f8201601f1916810167ffffffffffffffff8111828210171561386a5761386a613798565b604052919050565b600067ffffffffffffffff82111561388c5761388c613798565b5060051b60200190565b6000806000606084860312156138ab57600080fd5b83356138b681613165565b92506020848101356138c781613165565b9250604085013567ffffffffffffffff8111156138e357600080fd5b8501601f810187136138f457600080fd5b803561390761390282613872565b613841565b81815260059190911b8201830190838101908983111561392657600080fd5b928401925b8284101561394d57833561393e8161324a565b8252928401929084019061392b565b80955050505050509250925092565b8460070b815260806020820152600061397860808301866134aa565b828103604084015261398a8186613525565b9050828103606084015261399e81856135a3565b979650505050505050565b60008151604084526139be6040850182613625565b60209384015163ffffffff16949093019390935250919050565b828152604060208201526000610f9660408301846139a9565b60008060008060808587031215613a0757600080fd5b8435613a1281613165565b93506020850135613a2281613165565b92506040850135613a3281613165565b91506060850135613a428161324a565b939692955090935050565b67ffffffffffffffff8116811461317a57600080fd5b600067ffffffffffffffff821115613a7d57613a7d613798565b50601f01601f191660200190565b600080600060608486031215613aa057600080fd5b8335613aab81613165565b9250602084810135613abc81613a4d565b925060408581013567ffffffffffffffff80821115613ada57600080fd5b818801915088601f830112613aee57600080fd5b8135613afc61390282613872565b81815260059190911b8301850190858101908b831115613b1b57600080fd5b8685015b83811015613b8f57803585811115613b375760008081fd5b8601603f81018e13613b495760008081fd5b88810135613b5961390282613a63565b8181528f8a838501011115613b6e5760008081fd5b818a84018c83013760009181018b0191909152845250918701918701613b1f565b50809750505050505050509250925092565b600081518084526020808501945080840160005b8381101561351a57815160070b87529582019590820190600101613bb5565b83815267ffffffffffffffff83166020820152606060408201526000613bfd6060830184613ba1565b95945050505050565b63ffffffff8116811461317a57600080fd5b600080600060608486031215613c2d57600080fd5b8335613c3881613165565b92506020840135613c4881613165565b915060408401356131bd81613c06565b600080600060608486031215613c6d57600080fd5b8335613c7881613165565b92506020840135613c8881613165565b915060408401356131bd8161324a565b801515811461317a57600080fd5b600080600060608486031215613cbb57600080fd5b8335613cc681613165565b92506020840135613cd681613165565b915060408401356131bd81613c98565b828152604060208201526000610f966040830184613625565b600080600060608486031215613d1457600080fd5b8335613d1f81613165565b92506020840135613d2f81613165565b929592945050506040919091013590565b600060208284031215613d5257600080fd5b5051919050565b60008251613d6b818460208701613287565b9190910192915050565b8051600381900b8114613d8757600080fd5b919050565b600060208284031215613d9e57600080fd5b610d5c82613d75565b634e487b7160e01b600052603260045260246000fd5b600181811c90821680613dd157607f821691505b60208210811415613df257634e487b7160e01b600052602260045260246000fd5b50919050565b602081526000610d5c6020830184613706565b606081526000613e1e60608301866134aa565b8281036020840152613e308186613525565b905082810360408401526136fc81856135a3565b602081526000610d5c60208301846139a9565b67ffffffffffffffff83168152604060208201526000610f966040830184613ba1565b60008160070b677fffffffffffffff19811415613ea757634e487b7160e01b600052601160045260246000fd5b60000392915050565b602081526000610d5c6020830184613625565b8051613d8781613c98565b60008060408385031215613ee157600080fd5b613eea83613d75565b9150602083015161323f81613c98565b60008060408385031215613f0d57600080fd5b613f1683613d75565b9150602083015161323f81613165565b606081526000613f3960608301866133a7565b60208301949094525060400152919050565b600082601f830112613f5c57600080fd5b8151613f6a61390282613a63565b818152846020838601011115613f7f57600080fd5b610f96826020830160208701613287565b8051613d8781613165565b8051613d8781613c06565b600082601f830112613fb757600080fd5b81516020613fc761390283613872565b82815260059290921b84018101918181019086841115613fe657600080fd5b8286015b848110156140fc57805167ffffffffffffffff8082111561400a57600080fd5b908801906040601f19838c03810182131561402457600080fd5b61402c6137ae565b888501518152828501518481111561404357600080fd5b949094019360a0858e038301121561405b5760008081fd5b6140636137d7565b91508885015161407281613c98565b82528483015161408181613165565b828a0152606085810151858111156140995760008081fd5b6140a78f8c838a0101613f4b565b85850152506080935083860151858111156140c25760008081fd5b6140d08f8c838a0101613f4b565b8285015250506140e260a08601613f90565b928201929092528188015285525050918301918301613fea565b509695505050505050565b60006060828403121561411957600080fd5b6040516060810181811067ffffffffffffffff8211171561413c5761413c613798565b8060405250809150825161414f81613c06565b8152602083015161415f81613165565b6020820152604083015161417281613c06565b6040919091015292915050565b6000610160828403121561419257600080fd5b61419a6137fa565b9050815167ffffffffffffffff808211156141b457600080fd5b6141c085838601613f4b565b835260208401519150808211156141d657600080fd5b6141e285838601613f4b565b60208401526141f360408501613f90565b6040840152606084015191508082111561420c57600080fd5b61421885838601613f4b565b606084015261422960808501613ec3565b608084015261423a60a08501613f9b565b60a084015261424b60c08501613ec3565b60c084015260e084015191508082111561426457600080fd5b5061427184828501613fa6565b60e08301525061010061428684828501614107565b9082015292915050565b8051613d8781613a4d565b600082601f8301126142ac57600080fd5b815160206142bc61390283613872565b82815260a092830285018201928282019190878511156142db57600080fd5b8387015b858110156143635781818a0312156142f75760008081fd5b6142ff6137d7565b815161430a81613c06565b81528186015161431981613165565b8187015260408281015161432c81613c98565b9082015260608281015161433f81613c98565b9082015260808281015161435281613165565b9082015284529284019281016142df565b5090979650505050505050565b600082601f83011261438157600080fd5b8151602061439161390283613872565b82815260c092830285018201928282019190878511156143b057600080fd5b8387015b858110156143635781818a0312156143cc5760008081fd5b6143d461381e565b81516143df81613c06565b8152818601516143ee81613c06565b8187015260408281015161440181613c06565b9082015260608281015161441481613c06565b9082015260808281015161442781613c98565b9082015260a08281015161443a81613165565b9082015284529284019281016143b4565b600082601f83011261445c57600080fd5b8151602061446c61390283613872565b82815260c0928302850182019282820191908785111561448b57600080fd5b8387015b858110156143635781818a0312156144a75760008081fd5b6144af61381e565b81516144ba81613c06565b8152818601516144c981613c06565b818701526040828101516144dc81613c06565b908201526060828101516144ef81613165565b9082015260808281015161450281613c98565b9082015260a08281015161451581613165565b90820152845292840192810161448f565b6000610120828403121561453957600080fd5b6145416137fa565b9050815167ffffffffffffffff8082111561455b57600080fd5b6145678583860161417f565b835261457560208501614290565b602084015261458660408501613ec3565b604084015261459760608501613ec3565b60608401526145a860808501613ec3565b608084015260a08401519150808211156145c157600080fd5b6145cd8583860161429b565b60a084015260c08401519150808211156145e657600080fd5b6145f285838601614370565b60c084015260e084015191508082111561460b57600080fd5b6146178583860161444b565b60e08401526101009150818401518181111561463257600080fd5b61463e86828701613f4b565b8385015250505092915050565b8051613d878161324a565b6000806040838503121561466957600080fd5b61467283613d75565b9150602083015167ffffffffffffffff8082111561468f57600080fd5b9084019060c082870312156146a357600080fd5b6146ab61381e565b8251828111156146ba57600080fd5b6146c688828601614526565b8252506146d56020840161464b565b60208201526146e660408401613f90565b60408201526146f76060840161464b565b606082015260808301518281111561470e57600080fd5b61471a88828601613f4b565b60808301525061472c60a08401613f90565b60a08201528093505050509250929050565b60006001600160a01b03808616835280851660208401525060606040830152613bfd6060830184613ba1565b6000806040838503121561477d57600080fd5b61478683613d75565b9150602083015190509250929050565b600080600080608085870312156147ac57600080fd5b6147b585613d75565b9350602085015167ffffffffffffffff808211156147d257600080fd5b6147de8883890161429b565b945060408701519150808211156147f457600080fd5b61480088838901614370565b9350606087015191508082111561481657600080fd5b506148238782880161444b565b91505092959194509250565b6000806040838503121561484257600080fd5b61484b83613d75565b9150602083015167ffffffffffffffff8082111561486857600080fd5b908401906040828703121561487c57600080fd5b60405160408101818110838211171561489757614897613798565b6040528251828111156148a957600080fd5b6148b588828601614526565b825250602083015192506148c883613c06565b8260208201528093505050509250929050565b6000606082016001600160a01b0386168352602067ffffffffffffffff8616818501526060604085015281855180845260808601915060808160051b870101935082870160005b8281101561495057607f1988870301845261493e8683516132b7565b95509284019290840190600101614922565b50939998505050505050505050565b60008060006060848603121561497457600080fd5b61497d84613d75565b925060208085015161498e81613a4d565b604086015190935067ffffffffffffffff8111156149ab57600080fd5b8501601f810187136149bc57600080fd5b80516149ca61390282613872565b81815260059190911b820183019083810190898311156149e957600080fd5b928401925b8284101561394d578351614a018161324a565b825292840192908401906149ee565b60a081526000614a2360a08301886133a7565b8660208401528560408401528281036060840152614a4181866134aa565b90508281036080840152614a558185613525565b98975050505050505050565b602081526000610d5c60208301846133a7565b600081518084526020808501945080840160005b8381101561351a57815180516001600160a01b03908116895284820151168489015260409081015160070b9088015260609096019590820190600101614a88565b60006020808301818452808551808352604092508286019150828160051b8701018488016000805b84811015614b9057898403603f19018652825180516001600160a01b0390811686528982015160608b880181905281519088018190526080880192918c01919086905b80821015614b625783518051841686528e015160070b8e860152938c0193928d019260019190910190614b34565b5050505090880151858203868a015290614b7c8183614a74565b978a01979550505091870191600101614af1565b50919998505050505050505050565b60008060408385031215614bb257600080fd5b614bbb83613d75565b9150602083015167ffffffffffffffff811115614bd757600080fd5b614be385828601614526565b915050925092905056fe90a5cf4cffe88b4edbb041cfc7a8a812c48a5ec30b84640fb37690875168e3aaa2646970667358221220abd1a5fc75e6794945dac9ec7e23b809f6ac6e5b1f747b83212d983cdbd9bfb164736f6c63430008090033",
  "linkReferences": {},
  "deployedLinkReferences": {}
}