{
  "_format": "hh-sol-artifact-1",
  "contractName": "BaseHTS",
  "sourceName": "contracts/BaseHTS.sol",
  "abi": [
    {
      "anonymous": false,
      "inputs": [
        {
          "indexed": false,
          "internalType": "uint256",
          "name": "amount",
          "type": "uint256"
        }
      ],
      "name": "AllowanceValue",
      "type": "event"
    },
    {
      "anonymous": false,
      "inputs": [
        {
          "indexed": false,
          "internalType": "bool",
          "name": "approved",
          "type": "bool"
        }
      ],
      "name": "Approved",
      "type": "event"
    },
    {
      "anonymous": false,
      "inputs": [
        {
          "indexed": false,
          "internalType": "address",
          "name": "approved",
          "type": "address"
        }
      ],
      "name": "ApprovedAddress",
      "type": "event"
    },
    {
      "anonymous": false,
      "inputs": [
        {
          "indexed": false,
          "internalType": "address",
          "name": "tokenAddress",
          "type": "address"
        }
      ],
      "name": "CreatedToken",
      "type": "event"
    },
    {
      "anonymous": false,
      "inputs": [
        {
          "indexed": false,
          "internalType": "bool",
          "name": "freezeStatus",
          "type": "bool"
        }
      ],
      "name": "DefaultFreezeStatusChanged",
      "type": "event"
    },
    {
      "anonymous": false,
      "inputs": [
        {
          "indexed": false,
          "internalType": "bool",
          "name": "frozen",
          "type": "bool"
        }
      ],
      "name": "Frozen",
      "type": "event"
    },
    {
      "anonymous": false,
      "inputs": [
        {
          "components": [
            {
              "components": [
                {
                  "components": [
                    {
                      "internalType": "string",
                      "name": "name",
                      "type": "string"
                    },
                    {
                      "internalType": "string",
                      "name": "symbol",
                      "type": "string"
                    },
                    {
                      "internalType": "address",
                      "name": "treasury",
                      "type": "address"
                    },
                    {
                      "internalType": "string",
                      "name": "memo",
                      "type": "string"
                    },
                    {
                      "internalType": "bool",
                      "name": "tokenSupplyType",
                      "type": "bool"
                    },
                    {
                      "internalType": "uint32",
                      "name": "maxSupply",
                      "type": "uint32"
                    },
                    {
                      "internalType": "bool",
                      "name": "freezeDefault",
                      "type": "bool"
                    },
                    {
                      "components": [
                        {
                          "internalType": "uint256",
                          "name": "keyType",
                          "type": "uint256"
                        },
                        {
                          "components": [
                            {
                              "internalType": "bool",
                              "name": "inheritAccountKey",
                              "type": "bool"
                            },
                            {
                              "internalType": "address",
                              "name": "contractId",
                              "type": "address"
                            },
                            {
                              "internalType": "bytes",
                              "name": "ed25519",
                              "type": "bytes"
                            },
                            {
                              "internalType": "bytes",
                              "name": "ECDSA_secp256k1",
                              "type": "bytes"
                            },
                            {
                              "internalType": "address",
                              "name": "delegatableContractId",
                              "type": "address"
                            }
                          ],
                          "internalType": "struct IHederaTokenService.KeyValue",
                          "name": "key",
                          "type": "tuple"
                        }
                      ],
                      "internalType": "struct IHederaTokenService.TokenKey[]",
                      "name": "tokenKeys",
                      "type": "tuple[]"
                    },
                    {
                      "components": [
                        {
                          "internalType": "uint32",
                          "name": "second",
                          "type": "uint32"
                        },
                        {
                          "internalType": "address",
                          "name": "autoRenewAccount",
                          "type": "address"
                        },
                        {
                          "internalType": "uint32",
                          "name": "autoRenewPeriod",
                          "type": "uint32"
                        }
                      ],
                      "internalType": "struct IHederaTokenService.Expiry",
                      "name": "expiry",
                      "type": "tuple"
                    }
                  ],
                  "internalType": "struct IHederaTokenService.HederaToken",
                  "name": "token",
                  "type": "tuple"
                },
                {
                  "internalType": "uint64",
                  "name": "totalSupply",
                  "type": "uint64"
                },
                {
                  "internalType": "bool",
                  "name": "deleted",
                  "type": "bool"
                },
                {
                  "internalType": "bool",
                  "name": "defaultKycStatus",
                  "type": "bool"
                },
                {
                  "internalType": "bool",
                  "name": "pauseStatus",
                  "type": "bool"
                },
                {
                  "components": [
                    {
                      "internalType": "uint32",
                      "name": "amount",
                      "type": "uint32"
                    },
                    {
                      "internalType": "address",
                      "name": "tokenId",
                      "type": "address"
                    },
                    {
                      "internalType": "bool",
                      "name": "useHbarsForPayment",
                      "type": "bool"
                    },
                    {
                      "internalType": "bool",
                      "name": "useCurrentTokenForPayment",
                      "type": "bool"
                    },
                    {
                      "internalType": "address",
                      "name": "feeCollector",
                      "type": "address"
                    }
                  ],
                  "internalType": "struct IHederaTokenService.FixedFee[]",
                  "name": "fixedFees",
                  "type": "tuple[]"
                },
                {
                  "components": [
                    {
                      "internalType": "uint32",
                      "name": "numerator",
                      "type": "uint32"
                    },
                    {
                      "internalType": "uint32",
                      "name": "denominator",
                      "type": "uint32"
                    },
                    {
                      "internalType": "uint32",
                      "name": "minimumAmount",
                      "type": "uint32"
                    },
                    {
                      "internalType": "uint32",
                      "name": "maximumAmount",
                      "type": "uint32"
                    },
                    {
                      "internalType": "bool",
                      "name": "netOfTransfers",
                      "type": "bool"
                    },
                    {
                      "internalType": "address",
                      "name": "feeCollector",
                      "type": "address"
                    }
                  ],
                  "internalType": "struct IHederaTokenService.FractionalFee[]",
                  "name": "fractionalFees",
                  "type": "tuple[]"
                },
                {
                  "components": [
                    {
                      "internalType": "uint32",
                      "name": "numerator",
                      "type": "uint32"
                    },
                    {
                      "internalType": "uint32",
                      "name": "denominator",
                      "type": "uint32"
                    },
                    {
                      "internalType": "uint32",
                      "name": "amount",
                      "type": "uint32"
                    },
                    {
                      "internalType": "address",
                      "name": "tokenId",
                      "type": "address"
                    },
                    {
                      "internalType": "bool",
                      "name": "useHbarsForPayment",
                      "type": "bool"
                    },
                    {
                      "internalType": "address",
                      "name": "feeCollector",
                      "type": "address"
                    }
                  ],
                  "internalType": "struct IHederaTokenService.RoyaltyFee[]",
                  "name": "royaltyFees",
                  "type": "tuple[]"
                },
                {
                  "internalType": "string",
                  "name": "ledgerId",
                  "type": "string"
                }
              ],
              "internalType": "struct IHederaTokenService.TokenInfo",
              "name": "tokenInfo",
              "type": "tuple"
            },
            {
              "internalType": "uint32",
              "name": "decimals",
              "type": "uint32"
            }
          ],
          "indexed": false,
          "internalType": "struct IHederaTokenService.FungibleTokenInfo",
          "name": "tokenInfo",
          "type": "tuple"
        }
      ],
      "name": "FungibleTokenInfo",
      "type": "event"
    },
    {
      "anonymous": false,
      "inputs": [
        {
          "indexed": false,
          "internalType": "uint64",
          "name": "newTotalSupply",
          "type": "uint64"
        },
        {
          "indexed": false,
          "internalType": "int64[]",
          "name": "serialNumbers",
          "type": "int64[]"
        }
      ],
      "name": "MintedToken",
      "type": "event"
    },
    {
      "anonymous": false,
      "inputs": [
        {
          "components": [
            {
              "components": [
                {
                  "components": [
                    {
                      "internalType": "string",
                      "name": "name",
                      "type": "string"
                    },
                    {
                      "internalType": "string",
                      "name": "symbol",
                      "type": "string"
                    },
                    {
                      "internalType": "address",
                      "name": "treasury",
                      "type": "address"
                    },
                    {
                      "internalType": "string",
                      "name": "memo",
                      "type": "string"
                    },
                    {
                      "internalType": "bool",
                      "name": "tokenSupplyType",
                      "type": "bool"
                    },
                    {
                      "internalType": "uint32",
                      "name": "maxSupply",
                      "type": "uint32"
                    },
                    {
                      "internalType": "bool",
                      "name": "freezeDefault",
                      "type": "bool"
                    },
                    {
                      "components": [
                        {
                          "internalType": "uint256",
                          "name": "keyType",
                          "type": "uint256"
                        },
                        {
                          "components": [
                            {
                              "internalType": "bool",
                              "name": "inheritAccountKey",
                              "type": "bool"
                            },
                            {
                              "internalType": "address",
                              "name": "contractId",
                              "type": "address"
                            },
                            {
                              "internalType": "bytes",
                              "name": "ed25519",
                              "type": "bytes"
                            },
                            {
                              "internalType": "bytes",
                              "name": "ECDSA_secp256k1",
                              "type": "bytes"
                            },
                            {
                              "internalType": "address",
                              "name": "delegatableContractId",
                              "type": "address"
                            }
                          ],
                          "internalType": "struct IHederaTokenService.KeyValue",
                          "name": "key",
                          "type": "tuple"
                        }
                      ],
                      "internalType": "struct IHederaTokenService.TokenKey[]",
                      "name": "tokenKeys",
                      "type": "tuple[]"
                    },
                    {
                      "components": [
                        {
                          "internalType": "uint32",
                          "name": "second",
                          "type": "uint32"
                        },
                        {
                          "internalType": "address",
                          "name": "autoRenewAccount",
                          "type": "address"
                        },
                        {
                          "internalType": "uint32",
                          "name": "autoRenewPeriod",
                          "type": "uint32"
                        }
                      ],
                      "internalType": "struct IHederaTokenService.Expiry",
                      "name": "expiry",
                      "type": "tuple"
                    }
                  ],
                  "internalType": "struct IHederaTokenService.HederaToken",
                  "name": "token",
                  "type": "tuple"
                },
                {
                  "internalType": "uint64",
                  "name": "totalSupply",
                  "type": "uint64"
                },
                {
                  "internalType": "bool",
                  "name": "deleted",
                  "type": "bool"
                },
                {
                  "internalType": "bool",
                  "name": "defaultKycStatus",
                  "type": "bool"
                },
                {
                  "internalType": "bool",
                  "name": "pauseStatus",
                  "type": "bool"
                },
                {
                  "components": [
                    {
                      "internalType": "uint32",
                      "name": "amount",
                      "type": "uint32"
                    },
                    {
                      "internalType": "address",
                      "name": "tokenId",
                      "type": "address"
                    },
                    {
                      "internalType": "bool",
                      "name": "useHbarsForPayment",
                      "type": "bool"
                    },
                    {
                      "internalType": "bool",
                      "name": "useCurrentTokenForPayment",
                      "type": "bool"
                    },
                    {
                      "internalType": "address",
                      "name": "feeCollector",
                      "type": "address"
                    }
                  ],
                  "internalType": "struct IHederaTokenService.FixedFee[]",
                  "name": "fixedFees",
                  "type": "tuple[]"
                },
                {
                  "components": [
                    {
                      "internalType": "uint32",
                      "name": "numerator",
                      "type": "uint32"
                    },
                    {
                      "internalType": "uint32",
                      "name": "denominator",
                      "type": "uint32"
                    },
                    {
                      "internalType": "uint32",
                      "name": "minimumAmount",
                      "type": "uint32"
                    },
                    {
                      "internalType": "uint32",
                      "name": "maximumAmount",
                      "type": "uint32"
                    },
                    {
                      "internalType": "bool",
                      "name": "netOfTransfers",
                      "type": "bool"
                    },
                    {
                      "internalType": "address",
                      "name": "feeCollector",
                      "type": "address"
                    }
                  ],
                  "internalType": "struct IHederaTokenService.FractionalFee[]",
                  "name": "fractionalFees",
                  "type": "tuple[]"
                },
                {
                  "components": [
                    {
                      "internalType": "uint32",
                      "name": "numerator",
                      "type": "uint32"
                    },
                    {
                      "internalType": "uint32",
                      "name": "denominator",
                      "type": "uint32"
                    },
                    {
                      "internalType": "uint32",
                      "name": "amount",
                      "type": "uint32"
                    },
                    {
                      "internalType": "address",
                      "name": "tokenId",
                      "type": "address"
                    },
                    {
                      "internalType": "bool",
                      "name": "useHbarsForPayment",
                      "type": "bool"
                    },
                    {
                      "internalType": "address",
                      "name": "feeCollector",
                      "type": "address"
                    }
                  ],
                  "internalType": "struct IHederaTokenService.RoyaltyFee[]",
                  "name": "royaltyFees",
                  "type": "tuple[]"
                },
                {
                  "internalType": "string",
                  "name": "ledgerId",
                  "type": "string"
                }
              ],
              "internalType": "struct IHederaTokenService.TokenInfo",
              "name": "tokenInfo",
              "type": "tuple"
            },
            {
              "internalType": "int64",
              "name": "serialNumber",
              "type": "int64"
            },
            {
              "internalType": "address",
              "name": "ownerId",
              "type": "address"
            },
            {
              "internalType": "int64",
              "name": "creationTime",
              "type": "int64"
            },
            {
              "internalType": "bytes",
              "name": "metadata",
              "type": "bytes"
            },
            {
              "internalType": "address",
              "name": "spenderId",
              "type": "address"
            }
          ],
          "indexed": false,
          "internalType": "struct IHederaTokenService.NonFungibleTokenInfo",
          "name": "tokenInfo",
          "type": "tuple"
        }
      ],
      "name": "NonFungibleTokenInfo",
      "type": "event"
    },
    {
      "anonymous": false,
      "inputs": [
        {
          "indexed": false,
          "internalType": "bool",
          "name": "paused",
          "type": "bool"
        }
      ],
      "name": "PausedToken",
      "type": "event"
    },
    {
      "anonymous": false,
      "inputs": [
        {
          "indexed": false,
          "internalType": "int256",
          "name": "responseCode",
          "type": "int256"
        }
      ],
      "name": "ResponseCode",
      "type": "event"
    },
    {
      "anonymous": false,
      "inputs": [
        {
          "components": [
            {
              "internalType": "uint32",
              "name": "amount",
              "type": "uint32"
            },
            {
              "internalType": "address",
              "name": "tokenId",
              "type": "address"
            },
            {
              "internalType": "bool",
              "name": "useHbarsForPayment",
              "type": "bool"
            },
            {
              "internalType": "bool",
              "name": "useCurrentTokenForPayment",
              "type": "bool"
            },
            {
              "internalType": "address",
              "name": "feeCollector",
              "type": "address"
            }
          ],
          "indexed": false,
          "internalType": "struct IHederaTokenService.FixedFee[]",
          "name": "fixedFees",
          "type": "tuple[]"
        },
        {
          "components": [
            {
              "internalType": "uint32",
              "name": "numerator",
              "type": "uint32"
            },
            {
              "internalType": "uint32",
              "name": "denominator",
              "type": "uint32"
            },
            {
              "internalType": "uint32",
              "name": "minimumAmount",
              "type": "uint32"
            },
            {
              "internalType": "uint32",
              "name": "maximumAmount",
              "type": "uint32"
            },
            {
              "internalType": "bool",
              "name": "netOfTransfers",
              "type": "bool"
            },
            {
              "internalType": "address",
              "name": "feeCollector",
              "type": "address"
            }
          ],
          "indexed": false,
          "internalType": "struct IHederaTokenService.FractionalFee[]",
          "name": "fractionalFees",
          "type": "tuple[]"
        },
        {
          "components": [
            {
              "internalType": "uint32",
              "name": "numerator",
              "type": "uint32"
            },
            {
              "internalType": "uint32",
              "name": "denominator",
              "type": "uint32"
            },
            {
              "internalType": "uint32",
              "name": "amount",
              "type": "uint32"
            },
            {
              "internalType": "address",
              "name": "tokenId",
              "type": "address"
            },
            {
              "internalType": "bool",
              "name": "useHbarsForPayment",
              "type": "bool"
            },
            {
              "internalType": "address",
              "name": "feeCollector",
              "type": "address"
            }
          ],
          "indexed": false,
          "internalType": "struct IHederaTokenService.RoyaltyFee[]",
          "name": "royaltyFees",
          "type": "tuple[]"
        }
      ],
      "name": "TokenCustomFees",
      "type": "event"
    },
    {
      "anonymous": false,
      "inputs": [
        {
          "indexed": false,
          "internalType": "bool",
          "name": "defaultFreezeStatus",
          "type": "bool"
        }
      ],
      "name": "TokenDefaultFreezeStatus",
      "type": "event"
    },
    {
      "anonymous": false,
      "inputs": [
        {
          "indexed": false,
          "internalType": "bool",
          "name": "defaultKycStatus",
          "type": "bool"
        }
      ],
      "name": "TokenDefaultKycStatus",
      "type": "event"
    },
    {
      "anonymous": false,
      "inputs": [
        {
          "components": [
            {
              "components": [
                {
                  "internalType": "string",
                  "name": "name",
                  "type": "string"
                },
                {
                  "internalType": "string",
                  "name": "symbol",
                  "type": "string"
                },
                {
                  "internalType": "address",
                  "name": "treasury",
                  "type": "address"
                },
                {
                  "internalType": "string",
                  "name": "memo",
                  "type": "string"
                },
                {
                  "internalType": "bool",
                  "name": "tokenSupplyType",
                  "type": "bool"
                },
                {
                  "internalType": "uint32",
                  "name": "maxSupply",
                  "type": "uint32"
                },
                {
                  "internalType": "bool",
                  "name": "freezeDefault",
                  "type": "bool"
                },
                {
                  "components": [
                    {
                      "internalType": "uint256",
                      "name": "keyType",
                      "type": "uint256"
                    },
                    {
                      "components": [
                        {
                          "internalType": "bool",
                          "name": "inheritAccountKey",
                          "type": "bool"
                        },
                        {
                          "internalType": "address",
                          "name": "contractId",
                          "type": "address"
                        },
                        {
                          "internalType": "bytes",
                          "name": "ed25519",
                          "type": "bytes"
                        },
                        {
                          "internalType": "bytes",
                          "name": "ECDSA_secp256k1",
                          "type": "bytes"
                        },
                        {
                          "internalType": "address",
                          "name": "delegatableContractId",
                          "type": "address"
                        }
                      ],
                      "internalType": "struct IHederaTokenService.KeyValue",
                      "name": "key",
                      "type": "tuple"
                    }
                  ],
                  "internalType": "struct IHederaTokenService.TokenKey[]",
                  "name": "tokenKeys",
                  "type": "tuple[]"
                },
                {
                  "components": [
                    {
                      "internalType": "uint32",
                      "name": "second",
                      "type": "uint32"
                    },
                    {
                      "internalType": "address",
                      "name": "autoRenewAccount",
                      "type": "address"
                    },
                    {
                      "internalType": "uint32",
                      "name": "autoRenewPeriod",
                      "type": "uint32"
                    }
                  ],
                  "internalType": "struct IHederaTokenService.Expiry",
                  "name": "expiry",
                  "type": "tuple"
                }
              ],
              "internalType": "struct IHederaTokenService.HederaToken",
              "name": "token",
              "type": "tuple"
            },
            {
              "internalType": "uint64",
              "name": "totalSupply",
              "type": "uint64"
            },
            {
              "internalType": "bool",
              "name": "deleted",
              "type": "bool"
            },
            {
              "internalType": "bool",
              "name": "defaultKycStatus",
              "type": "bool"
            },
            {
              "internalType": "bool",
              "name": "pauseStatus",
              "type": "bool"
            },
            {
              "components": [
                {
                  "internalType": "uint32",
                  "name": "amount",
                  "type": "uint32"
                },
                {
                  "internalType": "address",
                  "name": "tokenId",
                  "type": "address"
                },
                {
                  "internalType": "bool",
                  "name": "useHbarsForPayment",
                  "type": "bool"
                },
                {
                  "internalType": "bool",
                  "name": "useCurrentTokenForPayment",
                  "type": "bool"
                },
                {
                  "internalType": "address",
                  "name": "feeCollector",
                  "type": "address"
                }
              ],
              "internalType": "struct IHederaTokenService.FixedFee[]",
              "name": "fixedFees",
              "type": "tuple[]"
            },
            {
              "components": [
                {
                  "internalType": "uint32",
                  "name": "numerator",
                  "type": "uint32"
                },
                {
                  "internalType": "uint32",
                  "name": "denominator",
                  "type": "uint32"
                },
                {
                  "internalType": "uint32",
                  "name": "minimumAmount",
                  "type": "uint32"
                },
                {
                  "internalType": "uint32",
                  "name": "maximumAmount",
                  "type": "uint32"
                },
                {
                  "internalType": "bool",
                  "name": "netOfTransfers",
                  "type": "bool"
                },
                {
                  "internalType": "address",
                  "name": "feeCollector",
                  "type": "address"
                }
              ],
              "internalType": "struct IHederaTokenService.FractionalFee[]",
              "name": "fractionalFees",
              "type": "tuple[]"
            },
            {
              "components": [
                {
                  "internalType": "uint32",
                  "name": "numerator",
                  "type": "uint32"
                },
                {
                  "internalType": "uint32",
                  "name": "denominator",
                  "type": "uint32"
                },
                {
                  "internalType": "uint32",
                  "name": "amount",
                  "type": "uint32"
                },
                {
                  "internalType": "address",
                  "name": "tokenId",
                  "type": "address"
                },
                {
                  "internalType": "bool",
                  "name": "useHbarsForPayment",
                  "type": "bool"
                },
                {
                  "internalType": "address",
                  "name": "feeCollector",
                  "type": "address"
                }
              ],
              "internalType": "struct IHederaTokenService.RoyaltyFee[]",
              "name": "royaltyFees",
              "type": "tuple[]"
            },
            {
              "internalType": "string",
              "name": "ledgerId",
              "type": "string"
            }
          ],
          "indexed": false,
          "internalType": "struct IHederaTokenService.TokenInfo",
          "name": "tokenInfo",
          "type": "tuple"
        }
      ],
      "name": "TokenInfo",
      "type": "event"
    },
    {
      "anonymous": false,
      "inputs": [
        {
          "indexed": false,
          "internalType": "bool",
          "name": "unpaused",
          "type": "bool"
        }
      ],
      "name": "UnpausedToken",
      "type": "event"
    },
    {
      "inputs": [
        {
          "internalType": "address",
          "name": "token",
          "type": "address"
        },
        {
          "internalType": "address",
          "name": "owner",
          "type": "address"
        },
        {
          "internalType": "address",
          "name": "spender",
          "type": "address"
        }
      ],
      "name": "allowancePublic",
      "outputs": [
        {
          "internalType": "int256",
          "name": "responseCode",
          "type": "int256"
        },
        {
          "internalType": "uint256",
          "name": "amount",
          "type": "uint256"
        }
      ],
      "stateMutability": "nonpayable",
      "type": "function"
    },
    {
      "inputs": [
        {
          "internalType": "address",
          "name": "token",
          "type": "address"
        },
        {
          "internalType": "address",
          "name": "spender",
          "type": "address"
        },
        {
          "internalType": "uint256",
          "name": "amount",
          "type": "uint256"
        }
      ],
      "name": "approvePublic",
      "outputs": [
        {
          "internalType": "int256",
          "name": "responseCode",
          "type": "int256"
        }
      ],
      "stateMutability": "nonpayable",
      "type": "function"
    },
    {
      "inputs": [
        {
          "internalType": "address",
          "name": "account",
          "type": "address"
        },
        {
          "internalType": "address",
          "name": "token",
          "type": "address"
        }
      ],
      "name": "associateTokenPublic",
      "outputs": [
        {
          "internalType": "int256",
          "name": "responseCode",
          "type": "int256"
        }
      ],
      "stateMutability": "nonpayable",
      "type": "function"
    },
    {
      "inputs": [
        {
          "internalType": "address",
          "name": "treasury",
          "type": "address"
        }
      ],
      "name": "createFungibleTokenPublic",
      "outputs": [],
      "stateMutability": "payable",
      "type": "function"
    },
    {
      "inputs": [
        {
          "internalType": "address",
          "name": "treasury",
          "type": "address"
        },
        {
          "internalType": "address",
          "name": "fixedFeeTokenAddress",
          "type": "address"
        }
      ],
      "name": "createFungibleTokenWithCustomFeesPublic",
      "outputs": [],
      "stateMutability": "payable",
      "type": "function"
    },
    {
      "inputs": [
        {
          "internalType": "address",
          "name": "treasury",
          "type": "address"
        }
      ],
      "name": "createNonFungibleTokenPublic",
      "outputs": [],
      "stateMutability": "payable",
      "type": "function"
    },
    {
      "inputs": [
        {
          "internalType": "address",
          "name": "token",
          "type": "address"
        }
      ],
      "name": "deleteTokenPublic",
      "outputs": [
        {
          "internalType": "int256",
          "name": "responseCode",
          "type": "int256"
        }
      ],
      "stateMutability": "nonpayable",
      "type": "function"
    },
    {
      "inputs": [
        {
          "internalType": "address",
          "name": "token",
          "type": "address"
        },
        {
          "internalType": "address",
          "name": "account",
          "type": "address"
        }
      ],
      "name": "freezeTokenPublic",
      "outputs": [
        {
          "internalType": "int256",
          "name": "responseCode",
          "type": "int256"
        }
      ],
      "stateMutability": "nonpayable",
      "type": "function"
    },
    {
      "inputs": [
        {
          "internalType": "address",
          "name": "token",
          "type": "address"
        },
        {
          "internalType": "uint256",
          "name": "serialNumber",
          "type": "uint256"
        }
      ],
      "name": "getApprovedPublic",
      "outputs": [
        {
          "internalType": "int256",
          "name": "responseCode",
          "type": "int256"
        },
        {
          "internalType": "address",
          "name": "approved",
          "type": "address"
        }
      ],
      "stateMutability": "nonpayable",
      "type": "function"
    },
    {
      "inputs": [
        {
          "internalType": "address",
          "name": "token",
          "type": "address"
        }
      ],
      "name": "getFungibleTokenInfoPublic",
      "outputs": [
        {
          "internalType": "int256",
          "name": "responseCode",
          "type": "int256"
        },
        {
          "components": [
            {
              "components": [
                {
                  "components": [
                    {
                      "internalType": "string",
                      "name": "name",
                      "type": "string"
                    },
                    {
                      "internalType": "string",
                      "name": "symbol",
                      "type": "string"
                    },
                    {
                      "internalType": "address",
                      "name": "treasury",
                      "type": "address"
                    },
                    {
                      "internalType": "string",
                      "name": "memo",
                      "type": "string"
                    },
                    {
                      "internalType": "bool",
                      "name": "tokenSupplyType",
                      "type": "bool"
                    },
                    {
                      "internalType": "uint32",
                      "name": "maxSupply",
                      "type": "uint32"
                    },
                    {
                      "internalType": "bool",
                      "name": "freezeDefault",
                      "type": "bool"
                    },
                    {
                      "components": [
                        {
                          "internalType": "uint256",
                          "name": "keyType",
                          "type": "uint256"
                        },
                        {
                          "components": [
                            {
                              "internalType": "bool",
                              "name": "inheritAccountKey",
                              "type": "bool"
                            },
                            {
                              "internalType": "address",
                              "name": "contractId",
                              "type": "address"
                            },
                            {
                              "internalType": "bytes",
                              "name": "ed25519",
                              "type": "bytes"
                            },
                            {
                              "internalType": "bytes",
                              "name": "ECDSA_secp256k1",
                              "type": "bytes"
                            },
                            {
                              "internalType": "address",
                              "name": "delegatableContractId",
                              "type": "address"
                            }
                          ],
                          "internalType": "struct IHederaTokenService.KeyValue",
                          "name": "key",
                          "type": "tuple"
                        }
                      ],
                      "internalType": "struct IHederaTokenService.TokenKey[]",
                      "name": "tokenKeys",
                      "type": "tuple[]"
                    },
                    {
                      "components": [
                        {
                          "internalType": "uint32",
                          "name": "second",
                          "type": "uint32"
                        },
                        {
                          "internalType": "address",
                          "name": "autoRenewAccount",
                          "type": "address"
                        },
                        {
                          "internalType": "uint32",
                          "name": "autoRenewPeriod",
                          "type": "uint32"
                        }
                      ],
                      "internalType": "struct IHederaTokenService.Expiry",
                      "name": "expiry",
                      "type": "tuple"
                    }
                  ],
                  "internalType": "struct IHederaTokenService.HederaToken",
                  "name": "token",
                  "type": "tuple"
                },
                {
                  "internalType": "uint64",
                  "name": "totalSupply",
                  "type": "uint64"
                },
                {
                  "internalType": "bool",
                  "name": "deleted",
                  "type": "bool"
                },
                {
                  "internalType": "bool",
                  "name": "defaultKycStatus",
                  "type": "bool"
                },
                {
                  "internalType": "bool",
                  "name": "pauseStatus",
                  "type": "bool"
                },
                {
                  "components": [
                    {
                      "internalType": "uint32",
                      "name": "amount",
                      "type": "uint32"
                    },
                    {
                      "internalType": "address",
                      "name": "tokenId",
                      "type": "address"
                    },
                    {
                      "internalType": "bool",
                      "name": "useHbarsForPayment",
                      "type": "bool"
                    },
                    {
                      "internalType": "bool",
                      "name": "useCurrentTokenForPayment",
                      "type": "bool"
                    },
                    {
                      "internalType": "address",
                      "name": "feeCollector",
                      "type": "address"
                    }
                  ],
                  "internalType": "struct IHederaTokenService.FixedFee[]",
                  "name": "fixedFees",
                  "type": "tuple[]"
                },
                {
                  "components": [
                    {
                      "internalType": "uint32",
                      "name": "numerator",
                      "type": "uint32"
                    },
                    {
                      "internalType": "uint32",
                      "name": "denominator",
                      "type": "uint32"
                    },
                    {
                      "internalType": "uint32",
                      "name": "minimumAmount",
                      "type": "uint32"
                    },
                    {
                      "internalType": "uint32",
                      "name": "maximumAmount",
                      "type": "uint32"
                    },
                    {
                      "internalType": "bool",
                      "name": "netOfTransfers",
                      "type": "bool"
                    },
                    {
                      "internalType": "address",
                      "name": "feeCollector",
                      "type": "address"
                    }
                  ],
                  "internalType": "struct IHederaTokenService.FractionalFee[]",
                  "name": "fractionalFees",
                  "type": "tuple[]"
                },
                {
                  "components": [
                    {
                      "internalType": "uint32",
                      "name": "numerator",
                      "type": "uint32"
                    },
                    {
                      "internalType": "uint32",
                      "name": "denominator",
                      "type": "uint32"
                    },
                    {
                      "internalType": "uint32",
                      "name": "amount",
                      "type": "uint32"
                    },
                    {
                      "internalType": "address",
                      "name": "tokenId",
                      "type": "address"
                    },
                    {
                      "internalType": "bool",
                      "name": "useHbarsForPayment",
                      "type": "bool"
                    },
                    {
                      "internalType": "address",
                      "name": "feeCollector",
                      "type": "address"
                    }
                  ],
                  "internalType": "struct IHederaTokenService.RoyaltyFee[]",
                  "name": "royaltyFees",
                  "type": "tuple[]"
                },
                {
                  "internalType": "string",
                  "name": "ledgerId",
                  "type": "string"
                }
              ],
              "internalType": "struct IHederaTokenService.TokenInfo",
              "name": "tokenInfo",
              "type": "tuple"
            },
            {
              "internalType": "uint32",
              "name": "decimals",
              "type": "uint32"
            }
          ],
          "internalType": "struct IHederaTokenService.FungibleTokenInfo",
          "name": "tokenInfo",
          "type": "tuple"
        }
      ],
      "stateMutability": "nonpayable",
      "type": "function"
    },
    {
      "inputs": [
        {
          "internalType": "address",
          "name": "token",
          "type": "address"
        },
        {
          "internalType": "int64",
          "name": "serialNumber",
          "type": "int64"
        }
      ],
      "name": "getNonFungibleTokenInfoPublic",
      "outputs": [
        {
          "internalType": "int256",
          "name": "responseCode",
          "type": "int256"
        },
        {
          "components": [
            {
              "components": [
                {
                  "components": [
                    {
                      "internalType": "string",
                      "name": "name",
                      "type": "string"
                    },
                    {
                      "internalType": "string",
                      "name": "symbol",
                      "type": "string"
                    },
                    {
                      "internalType": "address",
                      "name": "treasury",
                      "type": "address"
                    },
                    {
                      "internalType": "string",
                      "name": "memo",
                      "type": "string"
                    },
                    {
                      "internalType": "bool",
                      "name": "tokenSupplyType",
                      "type": "bool"
                    },
                    {
                      "internalType": "uint32",
                      "name": "maxSupply",
                      "type": "uint32"
                    },
                    {
                      "internalType": "bool",
                      "name": "freezeDefault",
                      "type": "bool"
                    },
                    {
                      "components": [
                        {
                          "internalType": "uint256",
                          "name": "keyType",
                          "type": "uint256"
                        },
                        {
                          "components": [
                            {
                              "internalType": "bool",
                              "name": "inheritAccountKey",
                              "type": "bool"
                            },
                            {
                              "internalType": "address",
                              "name": "contractId",
                              "type": "address"
                            },
                            {
                              "internalType": "bytes",
                              "name": "ed25519",
                              "type": "bytes"
                            },
                            {
                              "internalType": "bytes",
                              "name": "ECDSA_secp256k1",
                              "type": "bytes"
                            },
                            {
                              "internalType": "address",
                              "name": "delegatableContractId",
                              "type": "address"
                            }
                          ],
                          "internalType": "struct IHederaTokenService.KeyValue",
                          "name": "key",
                          "type": "tuple"
                        }
                      ],
                      "internalType": "struct IHederaTokenService.TokenKey[]",
                      "name": "tokenKeys",
                      "type": "tuple[]"
                    },
                    {
                      "components": [
                        {
                          "internalType": "uint32",
                          "name": "second",
                          "type": "uint32"
                        },
                        {
                          "internalType": "address",
                          "name": "autoRenewAccount",
                          "type": "address"
                        },
                        {
                          "internalType": "uint32",
                          "name": "autoRenewPeriod",
                          "type": "uint32"
                        }
                      ],
                      "internalType": "struct IHederaTokenService.Expiry",
                      "name": "expiry",
                      "type": "tuple"
                    }
                  ],
                  "internalType": "struct IHederaTokenService.HederaToken",
                  "name": "token",
                  "type": "tuple"
                },
                {
                  "internalType": "uint64",
                  "name": "totalSupply",
                  "type": "uint64"
                },
                {
                  "internalType": "bool",
                  "name": "deleted",
                  "type": "bool"
                },
                {
                  "internalType": "bool",
                  "name": "defaultKycStatus",
                  "type": "bool"
                },
                {
                  "internalType": "bool",
                  "name": "pauseStatus",
                  "type": "bool"
                },
                {
                  "components": [
                    {
                      "internalType": "uint32",
                      "name": "amount",
                      "type": "uint32"
                    },
                    {
                      "internalType": "address",
                      "name": "tokenId",
                      "type": "address"
                    },
                    {
                      "internalType": "bool",
                      "name": "useHbarsForPayment",
                      "type": "bool"
                    },
                    {
                      "internalType": "bool",
                      "name": "useCurrentTokenForPayment",
                      "type": "bool"
                    },
                    {
                      "internalType": "address",
                      "name": "feeCollector",
                      "type": "address"
                    }
                  ],
                  "internalType": "struct IHederaTokenService.FixedFee[]",
                  "name": "fixedFees",
                  "type": "tuple[]"
                },
                {
                  "components": [
                    {
                      "internalType": "uint32",
                      "name": "numerator",
                      "type": "uint32"
                    },
                    {
                      "internalType": "uint32",
                      "name": "denominator",
                      "type": "uint32"
                    },
                    {
                      "internalType": "uint32",
                      "name": "minimumAmount",
                      "type": "uint32"
                    },
                    {
                      "internalType": "uint32",
                      "name": "maximumAmount",
                      "type": "uint32"
                    },
                    {
                      "internalType": "bool",
                      "name": "netOfTransfers",
                      "type": "bool"
                    },
                    {
                      "internalType": "address",
                      "name": "feeCollector",
                      "type": "address"
                    }
                  ],
                  "internalType": "struct IHederaTokenService.FractionalFee[]",
                  "name": "fractionalFees",
                  "type": "tuple[]"
                },
                {
                  "components": [
                    {
                      "internalType": "uint32",
                      "name": "numerator",
                      "type": "uint32"
                    },
                    {
                      "internalType": "uint32",
                      "name": "denominator",
                      "type": "uint32"
                    },
                    {
                      "internalType": "uint32",
                      "name": "amount",
                      "type": "uint32"
                    },
                    {
                      "internalType": "address",
                      "name": "tokenId",
                      "type": "address"
                    },
                    {
                      "internalType": "bool",
                      "name": "useHbarsForPayment",
                      "type": "bool"
                    },
                    {
                      "internalType": "address",
                      "name": "feeCollector",
                      "type": "address"
                    }
                  ],
                  "internalType": "struct IHederaTokenService.RoyaltyFee[]",
                  "name": "royaltyFees",
                  "type": "tuple[]"
                },
                {
                  "internalType": "string",
                  "name": "ledgerId",
                  "type": "string"
                }
              ],
              "internalType": "struct IHederaTokenService.TokenInfo",
              "name": "tokenInfo",
              "type": "tuple"
            },
            {
              "internalType": "int64",
              "name": "serialNumber",
              "type": "int64"
            },
            {
              "internalType": "address",
              "name": "ownerId",
              "type": "address"
            },
            {
              "internalType": "int64",
              "name": "creationTime",
              "type": "int64"
            },
            {
              "internalType": "bytes",
              "name": "metadata",
              "type": "bytes"
            },
            {
              "internalType": "address",
              "name": "spenderId",
              "type": "address"
            }
          ],
          "internalType": "struct IHederaTokenService.NonFungibleTokenInfo",
          "name": "tokenInfo",
          "type": "tuple"
        }
      ],
      "stateMutability": "nonpayable",
      "type": "function"
    },
    {
      "inputs": [
        {
          "internalType": "address",
          "name": "token",
          "type": "address"
        }
      ],
      "name": "getTokenCustomFeesPublic",
      "outputs": [
        {
          "internalType": "int64",
          "name": "responseCode",
          "type": "int64"
        },
        {
          "components": [
            {
              "internalType": "uint32",
              "name": "amount",
              "type": "uint32"
            },
            {
              "internalType": "address",
              "name": "tokenId",
              "type": "address"
            },
            {
              "internalType": "bool",
              "name": "useHbarsForPayment",
              "type": "bool"
            },
            {
              "internalType": "bool",
              "name": "useCurrentTokenForPayment",
              "type": "bool"
            },
            {
              "internalType": "address",
              "name": "feeCollector",
              "type": "address"
            }
          ],
          "internalType": "struct IHederaTokenService.FixedFee[]",
          "name": "fixedFees",
          "type": "tuple[]"
        },
        {
          "components": [
            {
              "internalType": "uint32",
              "name": "numerator",
              "type": "uint32"
            },
            {
              "internalType": "uint32",
              "name": "denominator",
              "type": "uint32"
            },
            {
              "internalType": "uint32",
              "name": "minimumAmount",
              "type": "uint32"
            },
            {
              "internalType": "uint32",
              "name": "maximumAmount",
              "type": "uint32"
            },
            {
              "internalType": "bool",
              "name": "netOfTransfers",
              "type": "bool"
            },
            {
              "internalType": "address",
              "name": "feeCollector",
              "type": "address"
            }
          ],
          "internalType": "struct IHederaTokenService.FractionalFee[]",
          "name": "fractionalFees",
          "type": "tuple[]"
        },
        {
          "components": [
            {
              "internalType": "uint32",
              "name": "numerator",
              "type": "uint32"
            },
            {
              "internalType": "uint32",
              "name": "denominator",
              "type": "uint32"
            },
            {
              "internalType": "uint32",
              "name": "amount",
              "type": "uint32"
            },
            {
              "internalType": "address",
              "name": "tokenId",
              "type": "address"
            },
            {
              "internalType": "bool",
              "name": "useHbarsForPayment",
              "type": "bool"
            },
            {
              "internalType": "address",
              "name": "feeCollector",
              "type": "address"
            }
          ],
          "internalType": "struct IHederaTokenService.RoyaltyFee[]",
          "name": "royaltyFees",
          "type": "tuple[]"
        }
      ],
      "stateMutability": "nonpayable",
      "type": "function"
    },
    {
      "inputs": [
        {
          "internalType": "address",
          "name": "token",
          "type": "address"
        }
      ],
      "name": "getTokenDefaultFreezeStatusPublic",
      "outputs": [
        {
          "internalType": "int256",
          "name": "responseCode",
          "type": "int256"
        },
        {
          "internalType": "bool",
          "name": "defaultFreezeStatus",
          "type": "bool"
        }
      ],
      "stateMutability": "nonpayable",
      "type": "function"
    },
    {
      "inputs": [
        {
          "internalType": "address",
          "name": "token",
          "type": "address"
        }
      ],
      "name": "getTokenDefaultKycStatusPublic",
      "outputs": [
        {
          "internalType": "int256",
          "name": "responseCode",
          "type": "int256"
        },
        {
          "internalType": "bool",
          "name": "defaultKycStatus",
          "type": "bool"
        }
      ],
      "stateMutability": "nonpayable",
      "type": "function"
    },
    {
      "inputs": [
        {
          "internalType": "address",
          "name": "token",
          "type": "address"
        }
      ],
      "name": "getTokenInfoPublic",
      "outputs": [
        {
          "internalType": "int256",
          "name": "responseCode",
          "type": "int256"
        },
        {
          "components": [
            {
              "components": [
                {
                  "internalType": "string",
                  "name": "name",
                  "type": "string"
                },
                {
                  "internalType": "string",
                  "name": "symbol",
                  "type": "string"
                },
                {
                  "internalType": "address",
                  "name": "treasury",
                  "type": "address"
                },
                {
                  "internalType": "string",
                  "name": "memo",
                  "type": "string"
                },
                {
                  "internalType": "bool",
                  "name": "tokenSupplyType",
                  "type": "bool"
                },
                {
                  "internalType": "uint32",
                  "name": "maxSupply",
                  "type": "uint32"
                },
                {
                  "internalType": "bool",
                  "name": "freezeDefault",
                  "type": "bool"
                },
                {
                  "components": [
                    {
                      "internalType": "uint256",
                      "name": "keyType",
                      "type": "uint256"
                    },
                    {
                      "components": [
                        {
                          "internalType": "bool",
                          "name": "inheritAccountKey",
                          "type": "bool"
                        },
                        {
                          "internalType": "address",
                          "name": "contractId",
                          "type": "address"
                        },
                        {
                          "internalType": "bytes",
                          "name": "ed25519",
                          "type": "bytes"
                        },
                        {
                          "internalType": "bytes",
                          "name": "ECDSA_secp256k1",
                          "type": "bytes"
                        },
                        {
                          "internalType": "address",
                          "name": "delegatableContractId",
                          "type": "address"
                        }
                      ],
                      "internalType": "struct IHederaTokenService.KeyValue",
                      "name": "key",
                      "type": "tuple"
                    }
                  ],
                  "internalType": "struct IHederaTokenService.TokenKey[]",
                  "name": "tokenKeys",
                  "type": "tuple[]"
                },
                {
                  "components": [
                    {
                      "internalType": "uint32",
                      "name": "second",
                      "type": "uint32"
                    },
                    {
                      "internalType": "address",
                      "name": "autoRenewAccount",
                      "type": "address"
                    },
                    {
                      "internalType": "uint32",
                      "name": "autoRenewPeriod",
                      "type": "uint32"
                    }
                  ],
                  "internalType": "struct IHederaTokenService.Expiry",
                  "name": "expiry",
                  "type": "tuple"
                }
              ],
              "internalType": "struct IHederaTokenService.HederaToken",
              "name": "token",
              "type": "tuple"
            },
            {
              "internalType": "uint64",
              "name": "totalSupply",
              "type": "uint64"
            },
            {
              "internalType": "bool",
              "name": "deleted",
              "type": "bool"
            },
            {
              "internalType": "bool",
              "name": "defaultKycStatus",
              "type": "bool"
            },
            {
              "internalType": "bool",
              "name": "pauseStatus",
              "type": "bool"
            },
            {
              "components": [
                {
                  "internalType": "uint32",
                  "name": "amount",
                  "type": "uint32"
                },
                {
                  "internalType": "address",
                  "name": "tokenId",
                  "type": "address"
                },
                {
                  "internalType": "bool",
                  "name": "useHbarsForPayment",
                  "type": "bool"
                },
                {
                  "internalType": "bool",
                  "name": "useCurrentTokenForPayment",
                  "type": "bool"
                },
                {
                  "internalType": "address",
                  "name": "feeCollector",
                  "type": "address"
                }
              ],
              "internalType": "struct IHederaTokenService.FixedFee[]",
              "name": "fixedFees",
              "type": "tuple[]"
            },
            {
              "components": [
                {
                  "internalType": "uint32",
                  "name": "numerator",
                  "type": "uint32"
                },
                {
                  "internalType": "uint32",
                  "name": "denominator",
                  "type": "uint32"
                },
                {
                  "internalType": "uint32",
                  "name": "minimumAmount",
                  "type": "uint32"
                },
                {
                  "internalType": "uint32",
                  "name": "maximumAmount",
                  "type": "uint32"
                },
                {
                  "internalType": "bool",
                  "name": "netOfTransfers",
                  "type": "bool"
                },
                {
                  "internalType": "address",
                  "name": "feeCollector",
                  "type": "address"
                }
              ],
              "internalType": "struct IHederaTokenService.FractionalFee[]",
              "name": "fractionalFees",
              "type": "tuple[]"
            },
            {
              "components": [
                {
                  "internalType": "uint32",
                  "name": "numerator",
                  "type": "uint32"
                },
                {
                  "internalType": "uint32",
                  "name": "denominator",
                  "type": "uint32"
                },
                {
                  "internalType": "uint32",
                  "name": "amount",
                  "type": "uint32"
                },
                {
                  "internalType": "address",
                  "name": "tokenId",
                  "type": "address"
                },
                {
                  "internalType": "bool",
                  "name": "useHbarsForPayment",
                  "type": "bool"
                },
                {
                  "internalType": "address",
                  "name": "feeCollector",
                  "type": "address"
                }
              ],
              "internalType": "struct IHederaTokenService.RoyaltyFee[]",
              "name": "royaltyFees",
              "type": "tuple[]"
            },
            {
              "internalType": "string",
              "name": "ledgerId",
              "type": "string"
            }
          ],
          "internalType": "struct IHederaTokenService.TokenInfo",
          "name": "tokenInfo",
          "type": "tuple"
        }
      ],
      "stateMutability": "nonpayable",
      "type": "function"
    },
    {
      "inputs": [
        {
          "internalType": "address",
          "name": "token",
          "type": "address"
        },
        {
          "internalType": "address",
          "name": "owner",
          "type": "address"
        },
        {
          "internalType": "address",
          "name": "operator",
          "type": "address"
        }
      ],
      "name": "isApprovedForAllPublic",
      "outputs": [
        {
          "internalType": "int256",
          "name": "responseCode",
          "type": "int256"
        },
        {
          "internalType": "bool",
          "name": "approved",
          "type": "bool"
        }
      ],
      "stateMutability": "nonpayable",
      "type": "function"
    },
    {
      "inputs": [
        {
          "internalType": "address",
          "name": "token",
          "type": "address"
        },
        {
          "internalType": "address",
          "name": "account",
          "type": "address"
        }
      ],
      "name": "isFrozenPublic",
      "outputs": [
        {
          "internalType": "int256",
          "name": "responseCode",
          "type": "int256"
        },
        {
          "internalType": "bool",
          "name": "frozen",
          "type": "bool"
        }
      ],
      "stateMutability": "nonpayable",
      "type": "function"
    },
    {
      "inputs": [
        {
          "internalType": "address",
          "name": "token",
          "type": "address"
        },
        {
          "internalType": "uint64",
          "name": "amount",
          "type": "uint64"
        },
        {
          "internalType": "bytes[]",
          "name": "metadata",
          "type": "bytes[]"
        }
      ],
      "name": "mintTokenPublic",
      "outputs": [
        {
          "internalType": "int256",
          "name": "responseCode",
          "type": "int256"
        },
        {
          "internalType": "uint64",
          "name": "newTotalSupply",
          "type": "uint64"
        },
        {
          "internalType": "int64[]",
          "name": "serialNumbers",
          "type": "int64[]"
        }
      ],
      "stateMutability": "nonpayable",
      "type": "function"
    },
    {
      "inputs": [
        {
          "internalType": "address",
          "name": "token",
          "type": "address"
        }
      ],
      "name": "pauseToken",
      "outputs": [
        {
          "internalType": "int256",
          "name": "responseCode",
          "type": "int256"
        }
      ],
      "stateMutability": "nonpayable",
      "type": "function"
    },
    {
      "inputs": [
        {
          "internalType": "address",
          "name": "token",
          "type": "address"
        }
      ],
      "name": "pauseTokenPublic",
      "outputs": [
        {
          "internalType": "int256",
          "name": "responseCode",
          "type": "int256"
        }
      ],
      "stateMutability": "nonpayable",
      "type": "function"
    },
    {
      "inputs": [
        {
          "internalType": "address",
          "name": "token",
          "type": "address"
        },
        {
          "internalType": "address",
          "name": "operator",
          "type": "address"
        },
        {
          "internalType": "bool",
          "name": "approved",
          "type": "bool"
        }
      ],
      "name": "setApprovalForAllPublic",
      "outputs": [
        {
          "internalType": "int256",
          "name": "responseCode",
          "type": "int256"
        }
      ],
      "stateMutability": "nonpayable",
      "type": "function"
    },
    {
      "inputs": [
        {
          "internalType": "bool",
          "name": "newFreezeStatus",
          "type": "bool"
        }
      ],
      "name": "setFreezeDefaultStatus",
      "outputs": [],
      "stateMutability": "nonpayable",
      "type": "function"
    },
    {
      "inputs": [
        {
          "internalType": "address",
          "name": "token",
          "type": "address"
        },
        {
          "internalType": "address",
          "name": "sender",
          "type": "address"
        },
        {
          "internalType": "address",
          "name": "receiver",
          "type": "address"
        },
        {
          "internalType": "int64",
          "name": "serialNumber",
          "type": "int64"
        }
      ],
      "name": "transferNFTPublic",
      "outputs": [
        {
          "internalType": "int256",
          "name": "responseCode",
          "type": "int256"
        }
      ],
      "stateMutability": "nonpayable",
      "type": "function"
    },
    {
      "inputs": [
        {
          "internalType": "address",
          "name": "account",
          "type": "address"
        },
        {
          "internalType": "address",
          "name": "token",
          "type": "address"
        },
        {
          "internalType": "int64",
          "name": "amount",
          "type": "int64"
        }
      ],
      "name": "transferTokenPublic",
      "outputs": [
        {
          "internalType": "int256",
          "name": "responseCode",
          "type": "int256"
        }
      ],
      "stateMutability": "nonpayable",
      "type": "function"
    },
    {
      "inputs": [
        {
          "internalType": "address",
          "name": "token",
          "type": "address"
        },
        {
          "internalType": "address",
          "name": "account",
          "type": "address"
        }
      ],
      "name": "unfreezeTokenPublic",
      "outputs": [
        {
          "internalType": "int256",
          "name": "responseCode",
          "type": "int256"
        }
      ],
      "stateMutability": "nonpayable",
      "type": "function"
    },
    {
      "inputs": [
        {
          "internalType": "address",
          "name": "token",
          "type": "address"
        }
      ],
      "name": "unpauseToken",
      "outputs": [
        {
          "internalType": "int256",
          "name": "responseCode",
          "type": "int256"
        }
      ],
      "stateMutability": "nonpayable",
      "type": "function"
    },
    {
      "inputs": [
        {
          "internalType": "address",
          "name": "token",
          "type": "address"
        }
      ],
      "name": "unpauseTokenPublic",
      "outputs": [
        {
          "internalType": "int256",
          "name": "responseCode",
          "type": "int256"
        }
      ],
      "stateMutability": "nonpayable",
      "type": "function"
    },
    {
      "inputs": [
        {
          "internalType": "address",
          "name": "token",
          "type": "address"
        },
        {
          "internalType": "address",
          "name": "account",
          "type": "address"
        },
        {
          "internalType": "int64[]",
          "name": "serialNumbers",
          "type": "int64[]"
        }
      ],
      "name": "wipeTokenAccountNFTPublic",
      "outputs": [
        {
          "internalType": "int256",
          "name": "responseCode",
          "type": "int256"
        }
      ],
      "stateMutability": "nonpayable",
      "type": "function"
    },
    {
      "inputs": [
        {
          "internalType": "address",
          "name": "token",
          "type": "address"
        },
        {
          "internalType": "address",
          "name": "account",
          "type": "address"
        },
        {
          "internalType": "uint32",
          "name": "amount",
          "type": "uint32"
        }
      ],
      "name": "wipeTokenAccountPublic",
      "outputs": [
        {
          "internalType": "int256",
          "name": "responseCode",
          "type": "int256"
        }
      ],
      "stateMutability": "nonpayable",
      "type": "function"
    }
  ],
  "bytecode": "0x60806040526040518060400160405280600981526020017f746f6b656e4e616d65000000000000000000000000000000000000000000000081525060019080519060200190620000519291906200014b565b506040518060400160405280600b81526020017f746f6b656e53796d626f6c000000000000000000000000000000000000000000815250600290805190602001906200009f9291906200014b565b506040518060400160405280600481526020017f6d656d6f0000000000000000000000000000000000000000000000000000000081525060039080519060200190620000ed9291906200014b565b506103e86004556103e8600560006101000a81548163ffffffff021916908363ffffffff16021790555060086006556000600760006101000a81548160ff0219169083151502179055503480156200014457600080fd5b5062000260565b8280546200015990620001fb565b90600052602060002090601f0160209004810192826200017d5760008555620001c9565b82601f106200019857805160ff1916838001178555620001c9565b82800160010185558215620001c9579182015b82811115620001c8578251825591602001919060010190620001ab565b5b509050620001d89190620001dc565b5090565b5b80821115620001f7576000816000905550600101620001dd565b5090565b600060028204905060018216806200021457607f821691505b602082108114156200022b576200022a62000231565b5b50919050565b7f4e487b7100000000000000000000000000000000000000000000000000000000600052602260045260246000fd5b617cd580620002706000396000f3fe6080604052600436106101c25760003560e01c80637c41ad2c116100f7578063d92ac24811610095578063f4a01e5b11610064578063f4a01e5b14610767578063f7be3425146107a4578063f848fec4146107e1578063f9e978bd1461081e576101c2565b8063d92ac24814610672578063ec855c31146106af578063f25b1200146106ec578063f2f38a7414610729576101c2565b806386f88d88116100d157806386f88d88146105bf5780638ba74da0146105fd578063a345f7bd14610619578063d85f74c114610656576101c2565b80637c41ad2c146105065780637d3e5da8146105435780638070905f14610580576101c2565b80634cbdb37b116101645780635b9076b71161013e5780635b9076b71461040d57806369837dc21461044d5780636a4dde211461048b5780636da6b1f0146104c9576101c2565b80634cbdb37b1461035457806356af8403146103925780635a5e6c31146103cf576101c2565b80632d73bb2e116101a05780632d73bb2e146102805780633b3bff0f146102bd5780633eed2c39146102fa5780634b5c668714610338576101c2565b806313c05dd8146101c757806319db44b6146102055780632b256ec814610243575b600080fd5b3480156101d357600080fd5b506101ee60048036038101906101e99190615aa1565b610847565b6040516101fc92919061727c565b60405180910390f35b34801561021157600080fd5b5061022c60048036038101906102279190615d32565b6108e2565b60405161023a929190617253565b60405180910390f35b34801561024f57600080fd5b5061026a60048036038101906102659190615a3c565b61097c565b6040516102779190617238565b60405180910390f35b34801561028c57600080fd5b506102a760048036038101906102a29190615a65565b610a8f565b6040516102b49190617238565b60405180910390f35b3480156102c957600080fd5b506102e460048036038101906102df9190615a3c565b610aed565b6040516102f19190617238565b60405180910390f35b34801561030657600080fd5b50610321600480360381019061031c9190615a3c565b610c02565b60405161032f92919061727c565b60405180910390f35b610352600480360381019061034d9190615a3c565b610c99565b005b34801561036057600080fd5b5061037b60048036038101906103769190615cf6565b61110b565b6040516103899291906172d5565b60405180910390f35b34801561039e57600080fd5b506103b960048036038101906103b49190615b53565b6111ac565b6040516103c69190617238565b60405180910390f35b3480156103db57600080fd5b506103f660048036038101906103f19190615aa1565b611209565b604051610404929190617335565b60405180910390f35b34801561041957600080fd5b50610434600480360381019061042f9190615a3c565b6112a5565b60405161044494939291906173b7565b60405180910390f35b34801561045957600080fd5b50610474600480360381019061046f9190615a3c565b611351565b6040516104829291906172a5565b60405180910390f35b34801561049757600080fd5b506104b260048036038101906104ad9190615a65565b6113ef565b6040516104c092919061727c565b60405180910390f35b3480156104d557600080fd5b506104f060048036038101906104eb9190615af0565b61148f565b6040516104fd9190617238565b60405180910390f35b34801561051257600080fd5b5061052d60048036038101906105289190615a3c565b6114ee565b60405161053a9190617238565b60405180910390f35b34801561054f57600080fd5b5061056a60048036038101906105659190615a65565b611603565b6040516105779190617238565b60405180910390f35b34801561058c57600080fd5b506105a760048036038101906105a29190615d6e565b611661565b6040516105b69392919061735e565b60405180910390f35b3480156105cb57600080fd5b506105e660048036038101906105e19190615a3c565b611706565b6040516105f492919061727c565b60405180910390f35b61061760048036038101906106129190615a65565b61179d565b005b34801561062557600080fd5b50610640600480360381019061063b9190615a3c565b611dc4565b60405161064d9190617238565b60405180910390f35b610670600480360381019061066b9190615a3c565b611e1d565b005b34801561067e57600080fd5b5061069960048036038101906106949190615ca7565b6122ea565b6040516106a69190617238565b60405180910390f35b3480156106bb57600080fd5b506106d660048036038101906106d19190615c09565b612347565b6040516106e39190617238565b60405180910390f35b3480156106f857600080fd5b50610713600480360381019061070e9190615bba565b612661565b6040516107209190617238565b60405180910390f35b34801561073557600080fd5b50610750600480360381019061074b9190615a3c565b6126be565b60405161075e929190617305565b60405180910390f35b34801561077357600080fd5b5061078e60048036038101906107899190615a65565b61275c565b60405161079b9190617238565b60405180910390f35b3480156107b057600080fd5b506107cb60048036038101906107c69190615a3c565b6127b7565b6040516107d89190617238565b60405180910390f35b3480156107ed57600080fd5b5061080860048036038101906108039190615c58565b6128ca565b6040516108159190617238565b60405180910390f35b34801561082a57600080fd5b5061084560048036038101906108409190615dd5565b612927565b005b60008061085585858561298a565b80925081935050507f90a5cf4cffe88b4edbb041cfc7a8a812c48a5ec30b84640fb37690875168e3aa8260405161088c9190617238565b60405180910390a1601660030b82146108a457600080fd5b7e1c2e72360171244b3bb8cc8ddd767820edf37138ad6f129fb3574b407c307d816040516108d2919061721d565b60405180910390a1935093915050565b6000806108ef8484612ab2565b80925081935050507f90a5cf4cffe88b4edbb041cfc7a8a812c48a5ec30b84640fb37690875168e3aa826040516109269190617238565b60405180910390a1601660030b821461093e57600080fd5b7fc2c78c7c31baf14949e75c51df12be56edb9af523cf82839c2869bbcf13b3ecb8160405161096d9190616f7c565b60405180910390a19250929050565b60003073ffffffffffffffffffffffffffffffffffffffff16637c41ad2c836040518263ffffffff1660e01b81526004016109b79190616f7c565b602060405180830381600087803b1580156109d157600080fd5b505af11580156109e5573d6000803e3d6000fd5b505050506040513d601f19601f82011682018060405250810190610a099190615dfe565b90507f90a5cf4cffe88b4edbb041cfc7a8a812c48a5ec30b84640fb37690875168e3aa81604051610a3a9190617238565b60405180910390a1601660030b8114610a5257600080fd5b7f0c9c765845f4d139956bb8fc8decb2eec6093c9c608b809641b16054b29f0e136001604051610a82919061721d565b60405180910390a1919050565b6000610a9b8383612bd7565b60070b90507f90a5cf4cffe88b4edbb041cfc7a8a812c48a5ec30b84640fb37690875168e3aa81604051610acf9190617238565b60405180910390a1601660030b8114610ae757600080fd5b92915050565b600080600061016773ffffffffffffffffffffffffffffffffffffffff16633b3bff0f60e01b85604051602401610b249190616f7c565b604051602081830303815290604052907bffffffffffffffffffffffffffffffffffffffffffffffffffffffff19166020820180517bffffffffffffffffffffffffffffffffffffffffffffffffffffffff8381831617835250505050604051610b8e9190616f65565b6000604051808303816000865af19150503d8060008114610bcb576040519150601f19603f3d011682016040523d82523d6000602084013e610bd0565b606091505b509150915081610be1576015610bf6565b80806020019051810190610bf59190615e27565b5b60030b92505050919050565b600080610c0e83612cef565b80925081935050507f90a5cf4cffe88b4edbb041cfc7a8a812c48a5ec30b84640fb37690875168e3aa82604051610c459190617238565b60405180910390a1601660030b8214610c5d57600080fd5b7f6b7f3306751292f85ab4161ee2b0ac16dfc8ded13e6446ce6bd859d0a2f4c78e81604051610c8c919061721d565b60405180910390a1915091565b6000600367ffffffffffffffff811115610cdc577f4e487b7100000000000000000000000000000000000000000000000000000000600052604160045260246000fd5b604051908082528060200260200182016040528015610d1557816020015b610d026148d2565b815260200190600190039081610cfa5790505b509050610d3660006006600160405180602001604052806000815250612e10565b81600081518110610d70577f4e487b7100000000000000000000000000000000000000000000000000000000600052603260045260246000fd5b6020026020010181905250610d976002600160405180602001604052806000815250612e49565b81600181518110610dd1577f4e487b7100000000000000000000000000000000000000000000000000000000600052603260045260246000fd5b6020026020010181905250610df86003600160405180602001604052806000815250612e49565b81600281518110610e32577f4e487b7100000000000000000000000000000000000000000000000000000000600052603260045260246000fd5b602002602001018190525060006040518060600160405280600063ffffffff1681526020018473ffffffffffffffffffffffffffffffffffffffff168152602001627a120063ffffffff168152509050600060405180610120016040528060018054610e9d90617a86565b80601f0160208091040260200160405190810160405280929190818152602001828054610ec990617a86565b8015610f165780601f10610eeb57610100808354040283529160200191610f16565b820191906000526020600020905b815481529060010190602001808311610ef957829003601f168201915b5050505050815260200160028054610f2d90617a86565b80601f0160208091040260200160405190810160405280929190818152602001828054610f5990617a86565b8015610fa65780601f10610f7b57610100808354040283529160200191610fa6565b820191906000526020600020905b815481529060010190602001808311610f8957829003601f168201915b505050505081526020018573ffffffffffffffffffffffffffffffffffffffff16815260200160038054610fd990617a86565b80601f016020809104026020016040519081016040528092919081815260200182805461100590617a86565b80156110525780601f1061102757610100808354040283529160200191611052565b820191906000526020600020905b81548152906001019060200180831161103557829003601f168201915b50505050508152602001600115158152602001600560009054906101000a900463ffffffff1663ffffffff168152602001600760009054906101000a900460ff16151581526020018481526020018381525090506000806110b883600454600654612e80565b91509150601660030b82146110cc57600080fd5b7f7bb17726df1f3adee8aa00ba8e8bc5d6f182af3bbf77604639cb7f008dd3b4ed816040516110fb9190616f7c565b60405180910390a1505050505050565b60006111156148f2565b61111f8484612fff565b80925081935050507f90a5cf4cffe88b4edbb041cfc7a8a812c48a5ec30b84640fb37690875168e3aa826040516111569190617238565b60405180910390a1601660030b821461116e57600080fd5b7fa516f81c528634d0fc1e993bba1d227231b4bd6d1beb72d33b056a6199c0f9888160405161119d91906174fb565b60405180910390a19250929050565b60006111b9848484613133565b90507f90a5cf4cffe88b4edbb041cfc7a8a812c48a5ec30b84640fb37690875168e3aa816040516111ea9190617238565b60405180910390a1601660030b811461120257600080fd5b9392505050565b60008061121785858561324e565b80925081935050507f90a5cf4cffe88b4edbb041cfc7a8a812c48a5ec30b84640fb37690875168e3aa8260405161124e9190617238565b60405180910390a1601660030b821461126657600080fd5b7f25b6684a7e8fe1b676e9c39c8dd65034fbafea906d3bdfd97bf748b7b55e14c881604051611295919061753f565b60405180910390a1935093915050565b600060608060606112b585613376565b809450819550829650839750505050507f90a5cf4cffe88b4edbb041cfc7a8a812c48a5ec30b84640fb37690875168e3aa846040516112f4919061739c565b60405180910390a1601660030b8460070b1461130f57600080fd5b7f2efc8334b040613a552197fe34283d6ca2909c8ffae393e128424931f20c69b3838383604051611342939291906171af565b60405180910390a19193509193565b600061135b614960565b611364836134ae565b80925081935050507f90a5cf4cffe88b4edbb041cfc7a8a812c48a5ec30b84640fb37690875168e3aa8260405161139b9190617238565b60405180910390a1601660030b82146113b357600080fd5b7f476a9a9b28e2717d55288b2ae3c48a72aac52b11f8bd855017c9d41d9fc18964816040516113e29190617411565b60405180910390a1915091565b6000806113fc84846135de565b8160070b915080925081935050507f90a5cf4cffe88b4edbb041cfc7a8a812c48a5ec30b84640fb37690875168e3aa826040516114399190617238565b60405180910390a1601660030b821461145157600080fd5b7f59800d968fcce138300a0019410b4b75041610d65b3cdc5f31656b03ed14912e81604051611480919061721d565b60405180910390a19250929050565b600061149d85858585613703565b90507f90a5cf4cffe88b4edbb041cfc7a8a812c48a5ec30b84640fb37690875168e3aa816040516114ce9190617238565b60405180910390a1601660030b81146114e657600080fd5b949350505050565b600080600061016773ffffffffffffffffffffffffffffffffffffffff16637c41ad2c60e01b856040516024016115259190616f7c565b604051602081830303815290604052907bffffffffffffffffffffffffffffffffffffffffffffffffffffffff19166020820180517bffffffffffffffffffffffffffffffffffffffffffffffffffffffff838183161783525050505060405161158f9190616f65565b6000604051808303816000865af19150503d80600081146115cc576040519150601f19603f3d011682016040523d82523d6000602084013e6115d1565b606091505b5091509150816115e25760156115f7565b808060200190518101906115f69190615e27565b5b60030b92505050919050565b600061160f8383613821565b60070b90507f90a5cf4cffe88b4edbb041cfc7a8a812c48a5ec30b84640fb37690875168e3aa816040516116439190617238565b60405180910390a1601660030b811461165b57600080fd5b92915050565b6000806060611671868686613939565b8093508194508295505050507f90a5cf4cffe88b4edbb041cfc7a8a812c48a5ec30b84640fb37690875168e3aa836040516116ac9190617238565b60405180910390a1601660030b83146116c457600080fd5b7feff23992f47b3c101679f8b4dc9d3e242c903909dba4a453f2b2341ad463b0e282826040516116f592919061755a565b60405180910390a193509350939050565b60008061171283613ad7565b80925081935050507f90a5cf4cffe88b4edbb041cfc7a8a812c48a5ec30b84640fb37690875168e3aa826040516117499190617238565b60405180910390a1601660030b821461176157600080fd5b7f9ee19e13dfa1ba8db2502e15ff56dbecdeb0e0473323fb195473ce648030a2cd81604051611790919061721d565b60405180910390a1915091565b6000600167ffffffffffffffff8111156117e0577f4e487b7100000000000000000000000000000000000000000000000000000000600052604160045260246000fd5b60405190808252806020026020018201604052801561181957816020015b6118066148d2565b8152602001906001900390816117fe5790505b509050611839600080600160405180602001604052806000815250612e10565b81600081518110611873577f4e487b7100000000000000000000000000000000000000000000000000000000600052603260045260246000fd5b602002602001018190525060006040518060600160405280600063ffffffff1681526020018573ffffffffffffffffffffffffffffffffffffffff168152602001627a120063ffffffff1681525090506000604051806101200160405280600180546118de90617a86565b80601f016020809104026020016040519081016040528092919081815260200182805461190a90617a86565b80156119575780601f1061192c57610100808354040283529160200191611957565b820191906000526020600020905b81548152906001019060200180831161193a57829003601f168201915b505050505081526020016002805461196e90617a86565b80601f016020809104026020016040519081016040528092919081815260200182805461199a90617a86565b80156119e75780601f106119bc576101008083540402835291602001916119e7565b820191906000526020600020905b8154815290600101906020018083116119ca57829003601f168201915b505050505081526020018673ffffffffffffffffffffffffffffffffffffffff16815260200160038054611a1a90617a86565b80601f0160208091040260200160405190810160405280929190818152602001828054611a4690617a86565b8015611a935780601f10611a6857610100808354040283529160200191611a93565b820191906000526020600020905b815481529060010190602001808311611a7657829003601f168201915b50505050508152602001600115158152602001600560009054906101000a900463ffffffff1663ffffffff1681526020016000151581526020018481526020018381525090506000600167ffffffffffffffff811115611b1c577f4e487b7100000000000000000000000000000000000000000000000000000000600052604160045260246000fd5b604051908082528060200260200182016040528015611b5557816020015b611b42614986565b815260200190600190039081611b3a5790505b5090506040518060a00160405280600163ffffffff1681526020018673ffffffffffffffffffffffffffffffffffffffff1681526020016000151581526020016000151581526020018773ffffffffffffffffffffffffffffffffffffffff1681525081600081518110611bf2577f4e487b7100000000000000000000000000000000000000000000000000000000600052603260045260246000fd5b60200260200101819052506000600167ffffffffffffffff811115611c40577f4e487b7100000000000000000000000000000000000000000000000000000000600052604160045260246000fd5b604051908082528060200260200182016040528015611c7957816020015b611c666149eb565b815260200190600190039081611c5e5790505b5090506040518060c00160405280600463ffffffff168152602001600563ffffffff168152602001600a63ffffffff168152602001601e63ffffffff1681526020016000151581526020018873ffffffffffffffffffffffffffffffffffffffff1681525081600081518110611d18577f4e487b7100000000000000000000000000000000000000000000000000000000600052603260045260246000fd5b6020026020010181905250600080611d37856004546006548787613bf8565b915091507f90a5cf4cffe88b4edbb041cfc7a8a812c48a5ec30b84640fb37690875168e3aa82604051611d6a9190617238565b60405180910390a1601660030b8214611d8257600080fd5b7f7bb17726df1f3adee8aa00ba8e8bc5d6f182af3bbf77604639cb7f008dd3b4ed81604051611db19190616f7c565b60405180910390a1505050505050505050565b6000611dcf82613d7d565b90507f90a5cf4cffe88b4edbb041cfc7a8a812c48a5ec30b84640fb37690875168e3aa81604051611e009190617238565b60405180910390a1601660030b8114611e1857600080fd5b919050565b6000600467ffffffffffffffff811115611e60577f4e487b7100000000000000000000000000000000000000000000000000000000600052604160045260246000fd5b604051908082528060200260200182016040528015611e9957816020015b611e866148d2565b815260200190600190039081611e7e5790505b509050611eba60006006600160405180602001604052806000815250612e10565b81600081518110611ef4577f4e487b7100000000000000000000000000000000000000000000000000000000600052603260045260246000fd5b6020026020010181905250611f1b6004600160405180602001604052806000815250612e49565b81600181518110611f55577f4e487b7100000000000000000000000000000000000000000000000000000000600052603260045260246000fd5b6020026020010181905250611f7c6002600160405180602001604052806000815250612e49565b81600281518110611fb6577f4e487b7100000000000000000000000000000000000000000000000000000000600052603260045260246000fd5b6020026020010181905250611fdd6003600160405180602001604052806000815250612e49565b81600381518110612017577f4e487b7100000000000000000000000000000000000000000000000000000000600052603260045260246000fd5b602002602001018190525060006040518060600160405280600063ffffffff1681526020018473ffffffffffffffffffffffffffffffffffffffff168152602001627a120063ffffffff16815250905060006040518061012001604052806001805461208290617a86565b80601f01602080910402602001604051908101604052809291908181526020018280546120ae90617a86565b80156120fb5780601f106120d0576101008083540402835291602001916120fb565b820191906000526020600020905b8154815290600101906020018083116120de57829003601f168201915b505050505081526020016002805461211290617a86565b80601f016020809104026020016040519081016040528092919081815260200182805461213e90617a86565b801561218b5780601f106121605761010080835404028352916020019161218b565b820191906000526020600020905b81548152906001019060200180831161216e57829003601f168201915b505050505081526020018573ffffffffffffffffffffffffffffffffffffffff168152602001600380546121be90617a86565b80601f01602080910402602001604051908101604052809291908181526020018280546121ea90617a86565b80156122375780601f1061220c57610100808354040283529160200191612237565b820191906000526020600020905b81548152906001019060200180831161221a57829003601f168201915b50505050508152602001600115158152602001600560009054906101000a900463ffffffff1663ffffffff168152602001600760009054906101000a900460ff161515815260200184815260200183815250905060008061229783613e92565b91509150601660030b82146122ab57600080fd5b7f7bb17726df1f3adee8aa00ba8e8bc5d6f182af3bbf77604639cb7f008dd3b4ed816040516122da9190616f7c565b60405180910390a1505050505050565b60006122f784848461400a565b90507f90a5cf4cffe88b4edbb041cfc7a8a812c48a5ec30b84640fb37690875168e3aa816040516123289190617238565b60405180910390a1601660030b811461234057600080fd5b9392505050565b600080600067ffffffffffffffff81111561238b577f4e487b7100000000000000000000000000000000000000000000000000000000600052604160045260246000fd5b6040519080825280602002602001820160405280156123c457816020015b6123b1614a51565b8152602001906001900390816123a95790505b509050600060405180604001604052803373ffffffffffffffffffffffffffffffffffffffff168152602001856123fa90617ae9565b60070b8152509050600060405180604001604052808873ffffffffffffffffffffffffffffffffffffffff1681526020018660070b81525090506000600267ffffffffffffffff811115612477577f4e487b7100000000000000000000000000000000000000000000000000000000600052604160045260246000fd5b6040519080825280602002602001820160405280156124b057816020015b61249d614aa1565b8152602001906001900390816124955790505b50905082816000815181106124ee577f4e487b7100000000000000000000000000000000000000000000000000000000600052603260045260246000fd5b60200260200101819052508181600181518110612534577f4e487b7100000000000000000000000000000000000000000000000000000000600052603260045260246000fd5b6020026020010181905250600060405180606001604052808973ffffffffffffffffffffffffffffffffffffffff1681526020018381526020018681525090506000600167ffffffffffffffff8111156125b7577f4e487b7100000000000000000000000000000000000000000000000000000000600052604160045260246000fd5b6040519080825280602002602001820160405280156125f057816020015b6125dd614ad4565b8152602001906001900390816125d55790505b509050818160008151811061262e577f4e487b7100000000000000000000000000000000000000000000000000000000600052603260045260246000fd5b602002602001018190525061264281614125565b9650601660030b871461265457600080fd5b5050505050509392505050565b600061266e84848461423a565b90507f90a5cf4cffe88b4edbb041cfc7a8a812c48a5ec30b84640fb37690875168e3aa8160405161269f9190617238565b60405180910390a1601660030b81146126b757600080fd5b9392505050565b60006126c8614b0b565b6126d183614355565b80925081935050507f90a5cf4cffe88b4edbb041cfc7a8a812c48a5ec30b84640fb37690875168e3aa826040516127089190617238565b60405180910390a1601660030b821461272057600080fd5b7f528c7dcea75f0c9e110a038e50647cd6a70ac06d331399b77dd9a80f903ebc168160405161274f919061751d565b60405180910390a1915091565b60006127688383614485565b90507f90a5cf4cffe88b4edbb041cfc7a8a812c48a5ec30b84640fb37690875168e3aa816040516127999190617238565b60405180910390a1601660030b81146127b157600080fd5b92915050565b60003073ffffffffffffffffffffffffffffffffffffffff16633b3bff0f836040518263ffffffff1660e01b81526004016127f29190616f7c565b602060405180830381600087803b15801561280c57600080fd5b505af1158015612820573d6000803e3d6000fd5b505050506040513d601f19601f820116820180604052508101906128449190615dfe565b90507f90a5cf4cffe88b4edbb041cfc7a8a812c48a5ec30b84640fb37690875168e3aa816040516128759190617238565b60405180910390a1601660030b811461288d57600080fd5b7f319ab7084208e4afa38c6e6ff7aea9587439f2e4700746f4c7d425fea17426d260016040516128bd919061721d565b60405180910390a1919050565b60006128d784848461459d565b90507f90a5cf4cffe88b4edbb041cfc7a8a812c48a5ec30b84640fb37690875168e3aa816040516129089190617238565b60405180910390a1601660030b811461292057600080fd5b9392505050565b80600760006101000a81548160ff0219169083151502179055507f457c3a16a0ebdc38e3675609957ca3fcc4490e220bd15d85d34f58e2e145cb08600760009054906101000a900460ff1660405161297f919061721d565b60405180910390a150565b60008060008061016773ffffffffffffffffffffffffffffffffffffffff1663f49f40db60e01b8888886040516024016129c693929190616fc0565b604051602081830303815290604052907bffffffffffffffffffffffffffffffffffffffffffffffffffffffff19166020820180517bffffffffffffffffffffffffffffffffffffffffffffffffffffffff8381831617835250505050604051612a309190616f65565b6000604051808303816000865af19150503d8060008114612a6d576040519150601f19603f3d011682016040523d82523d6000602084013e612a72565b606091505b509150915081612a855760156000612a9a565b80806020019051810190612a999190615f37565b5b8160030b915080945081955050505050935093915050565b60008060008061016773ffffffffffffffffffffffffffffffffffffffff1663098f236660e01b8787604051602401612aec929190617148565b604051602081830303815290604052907bffffffffffffffffffffffffffffffffffffffffffffffffffffffff19166020820180517bffffffffffffffffffffffffffffffffffffffffffffffffffffffff8381831617835250505050604051612b569190616f65565b6000604051808303816000865af19150503d8060008114612b93576040519150601f19603f3d011682016040523d82523d6000602084013e612b98565b606091505b509150915081612bab5760156000612bc0565b80806020019051810190612bbf9190615e50565b5b8160030b9150809450819550505050509250929050565b600080600061016773ffffffffffffffffffffffffffffffffffffffff166352f9138760e01b8686604051602401612c10929190616f97565b604051602081830303815290604052907bffffffffffffffffffffffffffffffffffffffffffffffffffffffff19166020820180517bffffffffffffffffffffffffffffffffffffffffffffffffffffffff8381831617835250505050604051612c7a9190616f65565b6000604051808303816000865af19150503d8060008114612cb7576040519150601f19603f3d011682016040523d82523d6000602084013e612cbc565b606091505b509150915081612ccd576015612ce2565b80806020019051810190612ce19190615e27565b5b60030b9250505092915050565b60008060008061016773ffffffffffffffffffffffffffffffffffffffff1663a7daa18d60e01b86604051602401612d279190616f7c565b604051602081830303815290604052907bffffffffffffffffffffffffffffffffffffffffffffffffffffffff19166020820180517bffffffffffffffffffffffffffffffffffffffffffffffffffffffff8381831617835250505050604051612d919190616f65565b6000604051808303816000865af19150503d8060008114612dce576040519150601f19603f3d011682016040523d82523d6000602084013e612dd3565b606091505b509150915081612de65760156000612dfb565b80806020019051810190612dfa9190615f37565b5b8160030b915080945081955050505050915091565b612e186148d2565b6040518060400160405280612e2d87876146b8565b8152602001612e3c85856146ea565b8152509050949350505050565b612e516148d2565b6040518060400160405280612e6586614820565b8152602001612e7485856146ea565b81525090509392505050565b6000808460008161010001516000015163ffffffff16148015612eb2575060008161010001516040015163ffffffff16145b15612ed8576276a7008161010001516040019063ffffffff16908163ffffffff16815250505b60008061016773ffffffffffffffffffffffffffffffffffffffff1634637812a04b60e01b8a8a8a604051602401612f1293929190617455565b604051602081830303815290604052907bffffffffffffffffffffffffffffffffffffffffffffffffffffffff19166020820180517bffffffffffffffffffffffffffffffffffffffffffffffffffffffff8381831617835250505050604051612f7c9190616f65565b60006040518083038185875af1925050503d8060008114612fb9576040519150601f19603f3d011682016040523d82523d6000602084013e612fbe565b606091505b509150915081612fd15760156000612fe6565b80806020019051810190612fe59190615e50565b5b8160030b91508095508196505050505050935093915050565b60006130096148f2565b60008061016773ffffffffffffffffffffffffffffffffffffffff1663287e1da860e01b878760405160240161304092919061711f565b604051602081830303815290604052907bffffffffffffffffffffffffffffffffffffffffffffffffffffffff19166020820180517bffffffffffffffffffffffffffffffffffffffffffffffffffffffff83818316178352505050506040516130aa9190616f65565b6000604051808303816000865af19150503d80600081146130e7576040519150601f19603f3d011682016040523d82523d6000602084013e6130ec565b606091505b50915091506130f96148f2565b826131065760158161311b565b8180602001905181019061311a9190615fc7565b5b8160030b915080955081965050505050509250929050565b600080600061016773ffffffffffffffffffffffffffffffffffffffff1663f7f38e2660e01b87878760405160240161316e9392919061703c565b604051602081830303815290604052907bffffffffffffffffffffffffffffffffffffffffffffffffffffffff19166020820180517bffffffffffffffffffffffffffffffffffffffffffffffffffffffff83818316178352505050506040516131d89190616f65565b6000604051808303816000865af19150503d8060008114613215576040519150601f19603f3d011682016040523d82523d6000602084013e61321a565b606091505b50915091508161322b576015613240565b8080602001905181019061323f9190615e27565b5b60030b925050509392505050565b60008060008061016773ffffffffffffffffffffffffffffffffffffffff1663927da10560e01b88888860405160240161328a93929190616fc0565b604051602081830303815290604052907bffffffffffffffffffffffffffffffffffffffffffffffffffffffff19166020820180517bffffffffffffffffffffffffffffffffffffffffffffffffffffffff83818316178352505050506040516132f49190616f65565b6000604051808303816000865af19150503d8060008114613331576040519150601f19603f3d011682016040523d82523d6000602084013e613336565b606091505b509150915081613349576015600061335e565b8080602001905181019061335d919061606f565b5b8160030b915080945081955050505050935093915050565b6000606080606060008061016773ffffffffffffffffffffffffffffffffffffffff1663ae7611a060e01b886040516024016133b29190616f7c565b604051602081830303815290604052907bffffffffffffffffffffffffffffffffffffffffffffffffffffffff19166020820180517bffffffffffffffffffffffffffffffffffffffffffffffffffffffff838183161783525050505060405161341c9190616f65565b6000604051808303816000865af19150503d8060008114613459576040519150601f19603f3d011682016040523d82523d6000602084013e61345e565b606091505b509150915060608060608461347757601583838361348c565b8380602001905181019061348b9190615e8c565b5b8360030b9350809950819a50829b50839c505050505050505050509193509193565b60006134b8614960565b60008061016773ffffffffffffffffffffffffffffffffffffffff16633f28a19b60e01b866040516024016134ed9190616f7c565b604051602081830303815290604052907bffffffffffffffffffffffffffffffffffffffffffffffffffffffff19166020820180517bffffffffffffffffffffffffffffffffffffffffffffffffffffffff83818316178352505050506040516135579190616f65565b6000604051808303816000865af19150503d8060008114613594576040519150601f19603f3d011682016040523d82523d6000602084013e613599565b606091505b50915091506135a6614960565b826135b3576015816135c8565b818060200190518101906135c79190615f73565b5b8160030b91508095508196505050505050915091565b60008060008061016773ffffffffffffffffffffffffffffffffffffffff166346de0fb160e01b8787604051602401613618929190616f97565b604051602081830303815290604052907bffffffffffffffffffffffffffffffffffffffffffffffffffffffff19166020820180517bffffffffffffffffffffffffffffffffffffffffffffffffffffffff83818316178352505050506040516136829190616f65565b6000604051808303816000865af19150503d80600081146136bf576040519150601f19603f3d011682016040523d82523d6000602084013e6136c4565b606091505b5091509150816136d757601560006136ec565b808060200190518101906136eb9190615f37565b5b8160030b9150809450819550505050509250929050565b600080600061016773ffffffffffffffffffffffffffffffffffffffff16635cfc901160e01b888888886040516024016137409493929190616ff7565b604051602081830303815290604052907bffffffffffffffffffffffffffffffffffffffffffffffffffffffff19166020820180517bffffffffffffffffffffffffffffffffffffffffffffffffffffffff83818316178352505050506040516137aa9190616f65565b6000604051808303816000865af19150503d80600081146137e7576040519150601f19603f3d011682016040523d82523d6000602084013e6137ec565b606091505b5091509150816137fd576015613812565b808060200190518101906138119190615e27565b5b60030b92505050949350505050565b600080600061016773ffffffffffffffffffffffffffffffffffffffff16635b8f858460e01b868660405160240161385a929190616f97565b604051602081830303815290604052907bffffffffffffffffffffffffffffffffffffffffffffffffffffffff19166020820180517bffffffffffffffffffffffffffffffffffffffffffffffffffffffff83818316178352505050506040516138c49190616f65565b6000604051808303816000865af19150503d8060008114613901576040519150601f19603f3d011682016040523d82523d6000602084013e613906565b606091505b50915091508161391757601561392c565b8080602001905181019061392b9190615e27565b5b60030b9250505092915050565b600080606060008061016773ffffffffffffffffffffffffffffffffffffffff1663278e0b8860e01b89898960405160240161397793929190617171565b604051602081830303815290604052907bffffffffffffffffffffffffffffffffffffffffffffffffffffffff19166020820180517bffffffffffffffffffffffffffffffffffffffffffffffffffffffff83818316178352505050506040516139e19190616f65565b6000604051808303816000865af19150503d8060008114613a1e576040519150601f19603f3d011682016040523d82523d6000602084013e613a23565b606091505b509150915081613aa557601560008067ffffffffffffffff811115613a71577f4e487b7100000000000000000000000000000000000000000000000000000000600052604160045260246000fd5b604051908082528060200260200182016040528015613a9f5781602001602082028036833780820191505090505b50613aba565b80806020019051810190613ab991906160ab565b5b8260030b9250809550819650829750505050505093509350939050565b60008060008061016773ffffffffffffffffffffffffffffffffffffffff1663335e04c160e01b86604051602401613b0f9190616f7c565b604051602081830303815290604052907bffffffffffffffffffffffffffffffffffffffffffffffffffffffff19166020820180517bffffffffffffffffffffffffffffffffffffffffffffffffffffffff8381831617835250505050604051613b799190616f65565b6000604051808303816000865af19150503d8060008114613bb6576040519150601f19603f3d011682016040523d82523d6000602084013e613bbb565b606091505b509150915081613bce5760156000613be3565b80806020019051810190613be29190615f37565b5b8160030b915080945081955050505050915091565b6000808660008161010001516000015163ffffffff16148015613c2a575060008161010001516040015163ffffffff16145b15613c50576276a7008161010001516040019063ffffffff16908163ffffffff16815250505b60008061016773ffffffffffffffffffffffffffffffffffffffff1634634c381ae760e01b8c8c8c8c8c604051602401613c8e959493929190617493565b604051602081830303815290604052907bffffffffffffffffffffffffffffffffffffffffffffffffffffffff19166020820180517bffffffffffffffffffffffffffffffffffffffffffffffffffffffff8381831617835250505050604051613cf89190616f65565b60006040518083038185875af1925050503d8060008114613d35576040519150601f19603f3d011682016040523d82523d6000602084013e613d3a565b606091505b509150915081613d4d5760156000613d62565b80806020019051810190613d619190615e50565b5b8160030b915080955081965050505050509550959350505050565b600080600061016773ffffffffffffffffffffffffffffffffffffffff1663f069f71260e01b85604051602401613db49190616f7c565b604051602081830303815290604052907bffffffffffffffffffffffffffffffffffffffffffffffffffffffff19166020820180517bffffffffffffffffffffffffffffffffffffffffffffffffffffffff8381831617835250505050604051613e1e9190616f65565b6000604051808303816000865af19150503d8060008114613e5b576040519150601f19603f3d011682016040523d82523d6000602084013e613e60565b606091505b509150915081613e71576015613e86565b80806020019051810190613e859190615e27565b5b60030b92505050919050565b6000808260008161010001516000015163ffffffff16148015613ec4575060008161010001516040015163ffffffff16145b15613eea576276a7008161010001516040019063ffffffff16908163ffffffff16815250505b60008061016773ffffffffffffffffffffffffffffffffffffffff1634639dc711e060e01b88604051602401613f209190617433565b604051602081830303815290604052907bffffffffffffffffffffffffffffffffffffffffffffffffffffffff19166020820180517bffffffffffffffffffffffffffffffffffffffffffffffffffffffff8381831617835250505050604051613f8a9190616f65565b60006040518083038185875af1925050503d8060008114613fc7576040519150601f19603f3d011682016040523d82523d6000602084013e613fcc565b606091505b509150915081613fdf5760156000613ff4565b80806020019051810190613ff39190615e50565b5b8160030b91508095508196505050505050915091565b600080600061016773ffffffffffffffffffffffffffffffffffffffff16639790686d60e01b878787604051602401614045939291906170e8565b604051602081830303815290604052907bffffffffffffffffffffffffffffffffffffffffffffffffffffffff19166020820180517bffffffffffffffffffffffffffffffffffffffffffffffffffffffff83818316178352505050506040516140af9190616f65565b6000604051808303816000865af19150503d80600081146140ec576040519150601f19603f3d011682016040523d82523d6000602084013e6140f1565b606091505b509150915081614102576015614117565b808060200190518101906141169190615e27565b5b60030b925050509392505050565b600080600061016773ffffffffffffffffffffffffffffffffffffffff1663189a554c60e01b8560405160240161415c91906171fb565b604051602081830303815290604052907bffffffffffffffffffffffffffffffffffffffffffffffffffffffff19166020820180517bffffffffffffffffffffffffffffffffffffffffffffffffffffffff83818316178352505050506040516141c69190616f65565b6000604051808303816000865af19150503d8060008114614203576040519150601f19603f3d011682016040523d82523d6000602084013e614208565b606091505b50915091508161421957601561422e565b8080602001905181019061422d9190615e27565b5b60030b92505050919050565b600080600061016773ffffffffffffffffffffffffffffffffffffffff1663367605ca60e01b8787876040516024016142759392919061707a565b604051602081830303815290604052907bffffffffffffffffffffffffffffffffffffffffffffffffffffffff19166020820180517bffffffffffffffffffffffffffffffffffffffffffffffffffffffff83818316178352505050506040516142df9190616f65565b6000604051808303816000865af19150503d806000811461431c576040519150601f19603f3d011682016040523d82523d6000602084013e614321565b606091505b509150915081614332576015614347565b808060200190518101906143469190615e27565b5b60030b925050509392505050565b600061435f614b0b565b60008061016773ffffffffffffffffffffffffffffffffffffffff16631f69565f60e01b866040516024016143949190616f7c565b604051602081830303815290604052907bffffffffffffffffffffffffffffffffffffffffffffffffffffffff19166020820180517bffffffffffffffffffffffffffffffffffffffffffffffffffffffff83818316178352505050506040516143fe9190616f65565b6000604051808303816000865af19150503d806000811461443b576040519150601f19603f3d011682016040523d82523d6000602084013e614440565b606091505b509150915061444d614b0b565b8261445a5760158161446f565b8180602001905181019061446e919061601b565b5b8160030b91508095508196505050505050915091565b600080600061016773ffffffffffffffffffffffffffffffffffffffff166349146bde60e01b86866040516024016144be929190616f97565b604051602081830303815290604052907bffffffffffffffffffffffffffffffffffffffffffffffffffffffff19166020820180517bffffffffffffffffffffffffffffffffffffffffffffffffffffffff83818316178352505050506040516145289190616f65565b6000604051808303816000865af19150503d8060008114614565576040519150601f19603f3d011682016040523d82523d6000602084013e61456a565b606091505b50915091508161457b576015614590565b8080602001905181019061458f9190615e27565b5b60030b9250505092915050565b600080600061016773ffffffffffffffffffffffffffffffffffffffff1663e1f21c6760e01b8787876040516024016145d8939291906170b1565b604051602081830303815290604052907bffffffffffffffffffffffffffffffffffffffffffffffffffffffff19166020820180517bffffffffffffffffffffffffffffffffffffffffffffffffffffffff83818316178352505050506040516146429190616f65565b6000604051808303816000865af19150503d806000811461467f576040519150601f19603f3d011682016040523d82523d6000602084013e614684565b606091505b5091509150816146955760156146aa565b808060200190518101906146a99190615e27565b5b60030b925050509392505050565b60006146cd83826148be90919063ffffffff16565b90506146e282826148be90919063ffffffff16565b905092915050565b6146f2614b6d565b60018360ff16141561471457600181600001901515908115158152505061481a565b60028360ff16141561477d5760008054906101000a900473ffffffffffffffffffffffffffffffffffffffff16816020019073ffffffffffffffffffffffffffffffffffffffff16908173ffffffffffffffffffffffffffffffffffffffff1681525050614819565b60038360ff16141561479757818160400181905250614818565b60048360ff1614156147b157818160600181905250614817565b60058360ff1614156148165760008054906101000a900473ffffffffffffffffffffffffffffffffffffffff16816080019073ffffffffffffffffffffffffffffffffffffffff16908173ffffffffffffffffffffffffffffffffffffffff16815250505b5b5b5b5b92915050565b6000808260ff16141561483657600190506148b9565b60018260ff16141561484b57600290506148b9565b60028260ff16141561486057600490506148b9565b60038260ff16141561487557600890506148b9565b60048260ff16141561488a57601090506148b9565b60058260ff16141561489f57602090506148b9565b60068260ff1614156148b457604090506148b9565b600090505b919050565b60008160ff166001901b8317905092915050565b6040518060400160405280600081526020016148ec614b6d565b81525090565b6040518060c00160405280614905614b0b565b8152602001600060070b8152602001600073ffffffffffffffffffffffffffffffffffffffff168152602001600060070b815260200160608152602001600073ffffffffffffffffffffffffffffffffffffffff1681525090565b6040518060400160405280614973614b0b565b8152602001600063ffffffff1681525090565b6040518060a00160405280600063ffffffff168152602001600073ffffffffffffffffffffffffffffffffffffffff168152602001600015158152602001600015158152602001600073ffffffffffffffffffffffffffffffffffffffff1681525090565b6040518060c00160405280600063ffffffff168152602001600063ffffffff168152602001600063ffffffff168152602001600063ffffffff168152602001600015158152602001600073ffffffffffffffffffffffffffffffffffffffff1681525090565b6040518060600160405280600073ffffffffffffffffffffffffffffffffffffffff168152602001600073ffffffffffffffffffffffffffffffffffffffff168152602001600060070b81525090565b6040518060400160405280600073ffffffffffffffffffffffffffffffffffffffff168152602001600060070b81525090565b6040518060600160405280600073ffffffffffffffffffffffffffffffffffffffff16815260200160608152602001606081525090565b604051806101200160405280614b1f614bca565b8152602001600067ffffffffffffffff168152602001600015158152602001600015158152602001600015158152602001606081526020016060815260200160608152602001606081525090565b6040518060a00160405280600015158152602001600073ffffffffffffffffffffffffffffffffffffffff1681526020016060815260200160608152602001600073ffffffffffffffffffffffffffffffffffffffff1681525090565b6040518061012001604052806060815260200160608152602001600073ffffffffffffffffffffffffffffffffffffffff16815260200160608152602001600015158152602001600063ffffffff16815260200160001515815260200160608152602001614c36614c3c565b81525090565b6040518060600160405280600063ffffffff168152602001600073ffffffffffffffffffffffffffffffffffffffff168152602001600063ffffffff1681525090565b6000614c92614c8d846175af565b61758a565b90508083825260208201905082856020860282011115614cb157600080fd5b60005b85811015614cfb57813567ffffffffffffffff811115614cd357600080fd5b808601614ce089826151f0565b85526020850194506020840193505050600181019050614cb4565b5050509392505050565b6000614d18614d13846175db565b61758a565b90508083825260208201905082856020860282011115614d3757600080fd5b60005b85811015614d675781614d4d888261526e565b845260208401935060208301925050600181019050614d3a565b5050509392505050565b6000614d84614d7f846175db565b61758a565b90508083825260208201905082856020860282011115614da357600080fd5b60005b85811015614dd35781614db98882615283565b845260208401935060208301925050600181019050614da6565b5050509392505050565b6000614df0614deb84617607565b61758a565b905080838252602082019050828560a0860282011115614e0f57600080fd5b60005b85811015614e3f5781614e258882615322565b845260208401935060a08301925050600181019050614e12565b5050509392505050565b6000614e5c614e5784617633565b61758a565b905080838252602082019050828560c0860282011115614e7b57600080fd5b60005b85811015614eab5781614e9188826153aa565b845260208401935060c08301925050600181019050614e7e565b5050509392505050565b6000614ec8614ec38461765f565b61758a565b905080838252602082019050828560c0860282011115614ee757600080fd5b60005b85811015614f175781614efd888261576a565b845260208401935060c08301925050600181019050614eea565b5050509392505050565b6000614f34614f2f8461768b565b61758a565b90508083825260208201905082856020860282011115614f5357600080fd5b60005b85811015614f9d57815167ffffffffffffffff811115614f7557600080fd5b808601614f82898261595a565b85526020850194506020840193505050600181019050614f56565b5050509392505050565b6000614fba614fb5846176b7565b61758a565b905082815260208101848484011115614fd257600080fd5b614fdd848285617a44565b509392505050565b6000614ff8614ff3846176b7565b61758a565b90508281526020810184848401111561501057600080fd5b61501b848285617a53565b509392505050565b6000615036615031846176e8565b61758a565b90508281526020810184848401111561504e57600080fd5b615059848285617a53565b509392505050565b60008135905061507081617bd0565b92915050565b60008151905061508581617bd0565b92915050565b60008151905061509a81617be7565b92915050565b600082601f8301126150b157600080fd5b81356150c1848260208601614c7f565b91505092915050565b600082601f8301126150db57600080fd5b81356150eb848260208601614d05565b91505092915050565b600082601f83011261510557600080fd5b8151615115848260208601614d71565b91505092915050565b600082601f83011261512f57600080fd5b815161513f848260208601614ddd565b91505092915050565b600082601f83011261515957600080fd5b8151615169848260208601614e49565b91505092915050565b600082601f83011261518357600080fd5b8151615193848260208601614eb5565b91505092915050565b600082601f8301126151ad57600080fd5b81516151bd848260208601614f21565b91505092915050565b6000813590506151d581617bfe565b92915050565b6000815190506151ea81617bfe565b92915050565b600082601f83011261520157600080fd5b8135615211848260208601614fa7565b91505092915050565b600082601f83011261522b57600080fd5b815161523b848260208601614fe5565b91505092915050565b60008151905061525381617c15565b92915050565b60008151905061526881617c2c565b92915050565b60008135905061527d81617c43565b92915050565b60008151905061529281617c43565b92915050565b600082601f8301126152a957600080fd5b81516152b9848260208601615023565b91505092915050565b6000606082840312156152d457600080fd5b6152de606061758a565b905060006152ee848285016159fd565b600083015250602061530284828501615076565b6020830152506040615316848285016159fd565b60408301525092915050565b600060a0828403121561533457600080fd5b61533e60a061758a565b9050600061534e848285016159fd565b600083015250602061536284828501615076565b6020830152506040615376848285016151db565b604083015250606061538a848285016151db565b606083015250608061539e84828501615076565b60808301525092915050565b600060c082840312156153bc57600080fd5b6153c660c061758a565b905060006153d6848285016159fd565b60008301525060206153ea848285016159fd565b60208301525060406153fe848285016159fd565b6040830152506060615412848285016159fd565b6060830152506080615426848285016151db565b60808301525060a061543a84828501615076565b60a08301525092915050565b60006040828403121561545857600080fd5b615462604061758a565b9050600082015167ffffffffffffffff81111561547e57600080fd5b61548a84828501615806565b600083015250602061549e848285016159fd565b60208301525092915050565b600061016082840312156154bd57600080fd5b6154c861012061758a565b9050600082015167ffffffffffffffff8111156154e457600080fd5b6154f084828501615298565b600083015250602082015167ffffffffffffffff81111561551057600080fd5b61551c84828501615298565b602083015250604061553084828501615076565b604083015250606082015167ffffffffffffffff81111561555057600080fd5b61555c84828501615298565b6060830152506080615570848285016151db565b60808301525060a0615584848285016159fd565b60a08301525060c0615598848285016151db565b60c08301525060e082015167ffffffffffffffff8111156155b857600080fd5b6155c48482850161519c565b60e0830152506101006155d9848285016152c2565b6101008301525092915050565b600060a082840312156155f857600080fd5b61560260a061758a565b90506000615612848285016151db565b600083015250602061562684828501615076565b602083015250604082015167ffffffffffffffff81111561564657600080fd5b6156528482850161521a565b604083015250606082015167ffffffffffffffff81111561567257600080fd5b61567e8482850161521a565b606083015250608061569284828501615076565b60808301525092915050565b600060c082840312156156b057600080fd5b6156ba60c061758a565b9050600082015167ffffffffffffffff8111156156d657600080fd5b6156e284828501615806565b60008301525060206156f684828501615283565b602083015250604061570a84828501615076565b604083015250606061571e84828501615283565b606083015250608082015167ffffffffffffffff81111561573e57600080fd5b61574a8482850161521a565b60808301525060a061575e84828501615076565b60a08301525092915050565b600060c0828403121561577c57600080fd5b61578660c061758a565b90506000615796848285016159fd565b60008301525060206157aa848285016159fd565b60208301525060406157be848285016159fd565b60408301525060606157d284828501615076565b60608301525060806157e6848285016151db565b60808301525060a06157fa84828501615076565b60a08301525092915050565b6000610120828403121561581957600080fd5b61582461012061758a565b9050600082015167ffffffffffffffff81111561584057600080fd5b61584c848285016154aa565b600083015250602061586084828501615a27565b6020830152506040615874848285016151db565b6040830152506060615888848285016151db565b606083015250608061589c848285016151db565b60808301525060a082015167ffffffffffffffff8111156158bc57600080fd5b6158c88482850161511e565b60a08301525060c082015167ffffffffffffffff8111156158e857600080fd5b6158f484828501615148565b60c08301525060e082015167ffffffffffffffff81111561591457600080fd5b61592084828501615172565b60e08301525061010082015167ffffffffffffffff81111561594157600080fd5b61594d84828501615298565b6101008301525092915050565b60006040828403121561596c57600080fd5b615976604061758a565b90506000615986848285016159d3565b600083015250602082015167ffffffffffffffff8111156159a657600080fd5b6159b2848285016155e6565b60208301525092915050565b6000813590506159cd81617c5a565b92915050565b6000815190506159e281617c5a565b92915050565b6000813590506159f781617c71565b92915050565b600081519050615a0c81617c71565b92915050565b600081359050615a2181617c88565b92915050565b600081519050615a3681617c88565b92915050565b600060208284031215615a4e57600080fd5b6000615a5c84828501615061565b91505092915050565b60008060408385031215615a7857600080fd5b6000615a8685828601615061565b9250506020615a9785828601615061565b9150509250929050565b600080600060608486031215615ab657600080fd5b6000615ac486828701615061565b9350506020615ad586828701615061565b9250506040615ae686828701615061565b9150509250925092565b60008060008060808587031215615b0657600080fd5b6000615b1487828801615061565b9450506020615b2587828801615061565b9350506040615b3687828801615061565b9250506060615b478782880161526e565b91505092959194509250565b600080600060608486031215615b6857600080fd5b6000615b7686828701615061565b9350506020615b8786828701615061565b925050604084013567ffffffffffffffff811115615ba457600080fd5b615bb0868287016150ca565b9150509250925092565b600080600060608486031215615bcf57600080fd5b6000615bdd86828701615061565b9350506020615bee86828701615061565b9250506040615bff868287016151c6565b9150509250925092565b600080600060608486031215615c1e57600080fd5b6000615c2c86828701615061565b9350506020615c3d86828701615061565b9250506040615c4e8682870161526e565b9150509250925092565b600080600060608486031215615c6d57600080fd5b6000615c7b86828701615061565b9350506020615c8c86828701615061565b9250506040615c9d868287016159be565b9150509250925092565b600080600060608486031215615cbc57600080fd5b6000615cca86828701615061565b9350506020615cdb86828701615061565b9250506040615cec868287016159e8565b9150509250925092565b60008060408385031215615d0957600080fd5b6000615d1785828601615061565b9250506020615d288582860161526e565b9150509250929050565b60008060408385031215615d4557600080fd5b6000615d5385828601615061565b9250506020615d64858286016159be565b9150509250929050565b600080600060608486031215615d8357600080fd5b6000615d9186828701615061565b9350506020615da286828701615a12565b925050604084013567ffffffffffffffff811115615dbf57600080fd5b615dcb868287016150a0565b9150509250925092565b600060208284031215615de757600080fd5b6000615df5848285016151c6565b91505092915050565b600060208284031215615e1057600080fd5b6000615e1e84828501615244565b91505092915050565b600060208284031215615e3957600080fd5b6000615e4784828501615259565b91505092915050565b60008060408385031215615e6357600080fd5b6000615e7185828601615259565b9250506020615e828582860161508b565b9150509250929050565b60008060008060808587031215615ea257600080fd5b6000615eb087828801615259565b945050602085015167ffffffffffffffff811115615ecd57600080fd5b615ed98782880161511e565b935050604085015167ffffffffffffffff811115615ef657600080fd5b615f0287828801615148565b925050606085015167ffffffffffffffff811115615f1f57600080fd5b615f2b87828801615172565b91505092959194509250565b60008060408385031215615f4a57600080fd5b6000615f5885828601615259565b9250506020615f69858286016151db565b9150509250929050565b60008060408385031215615f8657600080fd5b6000615f9485828601615259565b925050602083015167ffffffffffffffff811115615fb157600080fd5b615fbd85828601615446565b9150509250929050565b60008060408385031215615fda57600080fd5b6000615fe885828601615259565b925050602083015167ffffffffffffffff81111561600557600080fd5b6160118582860161569e565b9150509250929050565b6000806040838503121561602e57600080fd5b600061603c85828601615259565b925050602083015167ffffffffffffffff81111561605957600080fd5b61606585828601615806565b9150509250929050565b6000806040838503121561608257600080fd5b600061609085828601615259565b92505060206160a1858286016159d3565b9150509250929050565b6000806000606084860312156160c057600080fd5b60006160ce86828701615259565b93505060206160df86828701615a27565b925050604084015167ffffffffffffffff8111156160fc57600080fd5b616108868287016150f4565b9150509250925092565b600061611e83836166c7565b905092915050565b6000616132838361674f565b60208301905092915050565b600061614a83836167a6565b60408301905092915050565b60006161628383616817565b60a08301905092915050565b600061617a838361687f565b60c08301905092915050565b60006161928383616b68565b60608301905092915050565b60006161aa8383616c3a565b60c08301905092915050565b60006161c28383616e77565b905092915050565b60006161d68383616eb4565b905092915050565b6161e781617990565b82525050565b6161f681617990565b82525050565b6000616207826177a9565b6162118185617897565b93508360208202850161622385617719565b8060005b8581101561625f57848403895281516162408582616112565b945061624b83617822565b925060208a01995050600181019050616227565b50829750879550505050505092915050565b600061627c826177b4565b61628681856178a8565b935061629183617729565b8060005b838110156162c25781516162a98882616126565b97506162b48361782f565b925050600181019050616295565b5085935050505092915050565b60006162da826177bf565b6162e481856178b9565b93506162ef83617739565b8060005b83811015616320578151616307888261613e565b97506163128361783c565b9250506001810190506162f3565b5085935050505092915050565b6000616338826177ca565b61634281856178ca565b935061634d83617749565b8060005b8381101561637e5781516163658882616156565b975061637083617849565b925050600181019050616351565b5085935050505092915050565b6000616396826177ca565b6163a081856178db565b93506163ab83617749565b8060005b838110156163dc5781516163c38882616156565b97506163ce83617849565b9250506001810190506163af565b5085935050505092915050565b60006163f4826177d5565b6163fe81856178ec565b935061640983617759565b8060005b8381101561643a578151616421888261616e565b975061642c83617856565b92505060018101905061640d565b5085935050505092915050565b6000616452826177d5565b61645c81856178fd565b935061646783617759565b8060005b8381101561649857815161647f888261616e565b975061648a83617856565b92505060018101905061646b565b5085935050505092915050565b60006164b0826177e0565b6164ba818561790e565b93506164c583617769565b8060005b838110156164f65781516164dd8882616186565b97506164e883617863565b9250506001810190506164c9565b5085935050505092915050565b600061650e826177eb565b616518818561791f565b935061652383617779565b8060005b8381101561655457815161653b888261619e565b975061654683617870565b925050600181019050616527565b5085935050505092915050565b600061656c826177eb565b6165768185617930565b935061658183617779565b8060005b838110156165b2578151616599888261619e565b97506165a483617870565b925050600181019050616585565b5085935050505092915050565b60006165ca826177f6565b6165d48185617941565b9350836020820285016165e685617789565b8060005b85811015616622578484038952815161660385826161b6565b945061660e8361787d565b925060208a019950506001810190506165ea565b50829750879550505050505092915050565b600061663f82617801565b6166498185617952565b93508360208202850161665b85617799565b8060005b85811015616697578484038952815161667885826161ca565b94506166838361788a565b925060208a0199505060018101905061665f565b50829750879550505050505092915050565b6166b2816179b4565b82525050565b6166c1816179b4565b82525050565b60006166d28261780c565b6166dc8185617963565b93506166ec818560208601617a53565b6166f581617bbf565b840191505092915050565b600061670b8261780c565b6167158185617974565b9350616725818560208601617a53565b80840191505092915050565b61673a816179c0565b82525050565b61674981617a32565b82525050565b616758816179d7565b82525050565b616767816179d7565b82525050565b600061677882617817565b616782818561797f565b9350616792818560208601617a53565b61679b81617bbf565b840191505092915050565b6040820160008201516167bc60008501826161de565b5060208201516167cf602085018261674f565b50505050565b6060820160008201516167eb6000850182616f29565b5060208201516167fe60208501826161de565b5060408201516168116040850182616f29565b50505050565b60a08201600082015161682d6000850182616f29565b50602082015161684060208501826161de565b50604082015161685360408501826166a9565b50606082015161686660608501826166a9565b50608082015161687960808501826161de565b50505050565b60c0820160008201516168956000850182616f29565b5060208201516168a86020850182616f29565b5060408201516168bb6040850182616f29565b5060608201516168ce6060850182616f29565b5060808201516168e160808501826166a9565b5060a08201516168f460a08501826161de565b50505050565b600060408301600083015184820360008601526169178282616cb5565b915050602083015161692c6020860182616f29565b508091505092915050565b6000610160830160008301518482036000860152616955828261676d565b9150506020830151848203602086015261696f828261676d565b915050604083015161698460408601826161de565b506060830151848203606086015261699c828261676d565b91505060808301516169b160808601826166a9565b5060a08301516169c460a0860182616f29565b5060c08301516169d760c08601826166a9565b5060e083015184820360e08601526169ef82826165bf565b915050610100830151616a066101008601826167d5565b508091505092915050565b6000610160830160008301518482036000860152616a2f828261676d565b91505060208301518482036020860152616a49828261676d565b9150506040830151616a5e60408601826161de565b5060608301518482036060860152616a76828261676d565b9150506080830151616a8b60808601826166a9565b5060a0830151616a9e60a0860182616f29565b5060c0830151616ab160c08601826166a9565b5060e083015184820360e0860152616ac982826165bf565b915050610100830151616ae06101008601826167d5565b508091505092915050565b600060a083016000830151616b0360008601826166a9565b506020830151616b1660208601826161de565b5060408301518482036040860152616b2e82826166c7565b91505060608301518482036060860152616b4882826166c7565b9150506080830151616b5d60808601826161de565b508091505092915050565b606082016000820151616b7e60008501826161de565b506020820151616b9160208501826161de565b506040820151616ba4604085018261674f565b50505050565b600060c0830160008301518482036000860152616bc78282616cb5565b9150506020830151616bdc602086018261674f565b506040830151616bef60408601826161de565b506060830151616c02606086018261674f565b5060808301518482036080860152616c1a82826166c7565b91505060a0830151616c2f60a08601826161de565b508091505092915050565b60c082016000820151616c506000850182616f29565b506020820151616c636020850182616f29565b506040820151616c766040850182616f29565b506060820151616c8960608501826161de565b506080820151616c9c60808501826166a9565b5060a0820151616caf60a08501826161de565b50505050565b6000610120830160008301518482036000860152616cd38282616937565b9150506020830151616ce86020860182616f47565b506040830151616cfb60408601826166a9565b506060830151616d0e60608601826166a9565b506080830151616d2160808601826166a9565b5060a083015184820360a0860152616d39828261632d565b91505060c083015184820360c0860152616d5382826163e9565b91505060e083015184820360e0860152616d6d8282616503565b915050610100830151848203610100860152616d89828261676d565b9150508091505092915050565b6000610120830160008301518482036000860152616db48282616937565b9150506020830151616dc96020860182616f47565b506040830151616ddc60408601826166a9565b506060830151616def60608601826166a9565b506080830151616e0260808601826166a9565b5060a083015184820360a0860152616e1a828261632d565b91505060c083015184820360c0860152616e3482826163e9565b91505060e083015184820360e0860152616e4e8282616503565b915050610100830151848203610100860152616e6a828261676d565b9150508091505092915050565b6000604083016000830151616e8f6000860182616f0b565b5060208301518482036020860152616ea78282616aeb565b9150508091505092915050565b6000606083016000830151616ecc60008601826161de565b5060208301518482036020860152616ee482826162cf565b91505060408301518482036040860152616efe82826164a5565b9150508091505092915050565b616f1481617a04565b82525050565b616f2381617a04565b82525050565b616f3281617a0e565b82525050565b616f4181617a0e565b82525050565b616f5081617a1e565b82525050565b616f5f81617a1e565b82525050565b6000616f718284616700565b915081905092915050565b6000602082019050616f9160008301846161ed565b92915050565b6000604082019050616fac60008301856161ed565b616fb960208301846161ed565b9392505050565b6000606082019050616fd560008301866161ed565b616fe260208301856161ed565b616fef60408301846161ed565b949350505050565b600060808201905061700c60008301876161ed565b61701960208301866161ed565b61702660408301856161ed565b617033606083018461675e565b95945050505050565b600060608201905061705160008301866161ed565b61705e60208301856161ed565b81810360408301526170708184616271565b9050949350505050565b600060608201905061708f60008301866161ed565b61709c60208301856161ed565b6170a960408301846166b8565b949350505050565b60006060820190506170c660008301866161ed565b6170d360208301856161ed565b6170e06040830184616f1a565b949350505050565b60006060820190506170fd60008301866161ed565b61710a60208301856161ed565b6171176040830184616f38565b949350505050565b600060408201905061713460008301856161ed565b617141602083018461675e565b9392505050565b600060408201905061715d60008301856161ed565b61716a6020830184616f1a565b9392505050565b600060608201905061718660008301866161ed565b6171936020830185616f56565b81810360408301526171a581846161fc565b9050949350505050565b600060608201905081810360008301526171c9818661638b565b905081810360208301526171dd8185616447565b905081810360408301526171f18184616561565b9050949350505050565b600060208201905081810360008301526172158184616634565b905092915050565b600060208201905061723260008301846166b8565b92915050565b600060208201905061724d6000830184616731565b92915050565b60006040820190506172686000830185616731565b61727560208301846161ed565b9392505050565b60006040820190506172916000830185616731565b61729e60208301846166b8565b9392505050565b60006040820190506172ba6000830185616731565b81810360208301526172cc81846168fa565b90509392505050565b60006040820190506172ea6000830185616731565b81810360208301526172fc8184616baa565b90509392505050565b600060408201905061731a6000830185616731565b818103602083015261732c8184616d96565b90509392505050565b600060408201905061734a6000830185616731565b6173576020830184616f1a565b9392505050565b60006060820190506173736000830186616731565b6173806020830185616f56565b81810360408301526173928184616271565b9050949350505050565b60006020820190506173b16000830184616740565b92915050565b60006080820190506173cc600083018761675e565b81810360208301526173de818661638b565b905081810360408301526173f28185616447565b905081810360608301526174068184616561565b905095945050505050565b6000602082019050818103600083015261742b81846168fa565b905092915050565b6000602082019050818103600083015261744d8184616a11565b905092915050565b6000606082019050818103600083015261746f8186616a11565b905061747e6020830185616f1a565b61748b6040830184616f1a565b949350505050565b600060a08201905081810360008301526174ad8188616a11565b90506174bc6020830187616f1a565b6174c96040830186616f1a565b81810360608301526174db818561638b565b905081810360808301526174ef8184616447565b90509695505050505050565b600060208201905081810360008301526175158184616baa565b905092915050565b600060208201905081810360008301526175378184616d96565b905092915050565b60006020820190506175546000830184616f1a565b92915050565b600060408201905061756f6000830185616f56565b81810360208301526175818184616271565b90509392505050565b60006175946175a5565b90506175a08282617ab8565b919050565b6000604051905090565b600067ffffffffffffffff8211156175ca576175c9617b90565b5b602082029050602081019050919050565b600067ffffffffffffffff8211156175f6576175f5617b90565b5b602082029050602081019050919050565b600067ffffffffffffffff82111561762257617621617b90565b5b602082029050602081019050919050565b600067ffffffffffffffff82111561764e5761764d617b90565b5b602082029050602081019050919050565b600067ffffffffffffffff82111561767a57617679617b90565b5b602082029050602081019050919050565b600067ffffffffffffffff8211156176a6576176a5617b90565b5b602082029050602081019050919050565b600067ffffffffffffffff8211156176d2576176d1617b90565b5b6176db82617bbf565b9050602081019050919050565b600067ffffffffffffffff82111561770357617702617b90565b5b61770c82617bbf565b9050602081019050919050565b6000819050602082019050919050565b6000819050602082019050919050565b6000819050602082019050919050565b6000819050602082019050919050565b6000819050602082019050919050565b6000819050602082019050919050565b6000819050602082019050919050565b6000819050602082019050919050565b6000819050602082019050919050565b600081519050919050565b600081519050919050565b600081519050919050565b600081519050919050565b600081519050919050565b600081519050919050565b600081519050919050565b600081519050919050565b600081519050919050565b600081519050919050565b600081519050919050565b6000602082019050919050565b6000602082019050919050565b6000602082019050919050565b6000602082019050919050565b6000602082019050919050565b6000602082019050919050565b6000602082019050919050565b6000602082019050919050565b6000602082019050919050565b600082825260208201905092915050565b600082825260208201905092915050565b600082825260208201905092915050565b600082825260208201905092915050565b600082825260208201905092915050565b600082825260208201905092915050565b600082825260208201905092915050565b600082825260208201905092915050565b600082825260208201905092915050565b600082825260208201905092915050565b600082825260208201905092915050565b600082825260208201905092915050565b600082825260208201905092915050565b600081905092915050565b600082825260208201905092915050565b600061799b826179e4565b9050919050565b60006179ad826179e4565b9050919050565b60008115159050919050565b6000819050919050565b60008160030b9050919050565b60008160070b9050919050565b600073ffffffffffffffffffffffffffffffffffffffff82169050919050565b6000819050919050565b600063ffffffff82169050919050565b600067ffffffffffffffff82169050919050565b6000617a3d826179d7565b9050919050565b82818337600083830152505050565b60005b83811015617a71578082015181840152602081019050617a56565b83811115617a80576000848401525b50505050565b60006002820490506001821680617a9e57607f821691505b60208210811415617ab257617ab1617b61565b5b50919050565b617ac182617bbf565b810181811067ffffffffffffffff82111715617ae057617adf617b90565b5b80604052505050565b6000617af4826179d7565b91507fffffffffffffffffffffffffffffffffffffffffffffffff8000000000000000821415617b2757617b26617b32565b5b816000039050919050565b7f4e487b7100000000000000000000000000000000000000000000000000000000600052601160045260246000fd5b7f4e487b7100000000000000000000000000000000000000000000000000000000600052602260045260246000fd5b7f4e487b7100000000000000000000000000000000000000000000000000000000600052604160045260246000fd5b6000601f19601f8301169050919050565b617bd981617990565b8114617be457600080fd5b50565b617bf0816179a2565b8114617bfb57600080fd5b50565b617c07816179b4565b8114617c1257600080fd5b50565b617c1e816179c0565b8114617c2957600080fd5b50565b617c35816179ca565b8114617c4057600080fd5b50565b617c4c816179d7565b8114617c5757600080fd5b50565b617c6381617a04565b8114617c6e57600080fd5b50565b617c7a81617a0e565b8114617c8557600080fd5b50565b617c9181617a1e565b8114617c9c57600080fd5b5056fea264697066735822122092ea8a0e9e81cf217131b6a9d58a521cb2936a4b5771a3831676377e361cf7a364736f6c63430008040033",
  "linkReferences": {},
  "deployedLinkReferences": {}
}