{
  "_format": "hh-sol-artifact-1",
  "contractName": "BaseHTS",
  "sourceName": "contracts/BaseHTS.sol",
  "abi": [
    {
      "anonymous": false,
      "inputs": [
        {
          "indexed": false,
          "internalType": "uint256",
          "name": "amount",
          "type": "uint256"
        }
      ],
      "name": "AllowanceValue",
      "type": "event"
    },
    {
      "anonymous": false,
      "inputs": [
        {
          "indexed": false,
          "internalType": "bool",
          "name": "approved",
          "type": "bool"
        }
      ],
      "name": "Approved",
      "type": "event"
    },
    {
      "anonymous": false,
      "inputs": [
        {
          "indexed": false,
          "internalType": "address",
          "name": "approved",
          "type": "address"
        }
      ],
      "name": "ApprovedAddress",
      "type": "event"
    },
    {
      "anonymous": false,
      "inputs": [
        {
          "indexed": false,
          "internalType": "address",
          "name": "tokenAddress",
          "type": "address"
        }
      ],
      "name": "CreatedToken",
      "type": "event"
    },
    {
      "anonymous": false,
      "inputs": [
        {
          "indexed": false,
          "internalType": "bool",
          "name": "freezeStatus",
          "type": "bool"
        }
      ],
      "name": "DefaultFreezeStatusChanged",
      "type": "event"
    },
    {
      "anonymous": false,
      "inputs": [
        {
          "indexed": false,
          "internalType": "bool",
          "name": "frozen",
          "type": "bool"
        }
      ],
      "name": "Frozen",
      "type": "event"
    },
    {
      "anonymous": false,
      "inputs": [
        {
          "components": [
            {
              "components": [
                {
                  "components": [
                    {
                      "internalType": "string",
                      "name": "name",
                      "type": "string"
                    },
                    {
                      "internalType": "string",
                      "name": "symbol",
                      "type": "string"
                    },
                    {
                      "internalType": "address",
                      "name": "treasury",
                      "type": "address"
                    },
                    {
                      "internalType": "string",
                      "name": "memo",
                      "type": "string"
                    },
                    {
                      "internalType": "bool",
                      "name": "tokenSupplyType",
                      "type": "bool"
                    },
                    {
                      "internalType": "int64",
                      "name": "maxSupply",
                      "type": "int64"
                    },
                    {
                      "internalType": "bool",
                      "name": "freezeDefault",
                      "type": "bool"
                    },
                    {
                      "components": [
                        {
                          "internalType": "uint256",
                          "name": "keyType",
                          "type": "uint256"
                        },
                        {
                          "components": [
                            {
                              "internalType": "bool",
                              "name": "inheritAccountKey",
                              "type": "bool"
                            },
                            {
                              "internalType": "address",
                              "name": "contractId",
                              "type": "address"
                            },
                            {
                              "internalType": "bytes",
                              "name": "ed25519",
                              "type": "bytes"
                            },
                            {
                              "internalType": "bytes",
                              "name": "ECDSA_secp256k1",
                              "type": "bytes"
                            },
                            {
                              "internalType": "address",
                              "name": "delegatableContractId",
                              "type": "address"
                            }
                          ],
                          "internalType": "struct IHederaTokenService.KeyValue",
                          "name": "key",
                          "type": "tuple"
                        }
                      ],
                      "internalType": "struct IHederaTokenService.TokenKey[]",
                      "name": "tokenKeys",
                      "type": "tuple[]"
                    },
                    {
                      "components": [
                        {
                          "internalType": "uint32",
                          "name": "second",
                          "type": "uint32"
                        },
                        {
                          "internalType": "address",
                          "name": "autoRenewAccount",
                          "type": "address"
                        },
                        {
                          "internalType": "uint32",
                          "name": "autoRenewPeriod",
                          "type": "uint32"
                        }
                      ],
                      "internalType": "struct IHederaTokenService.Expiry",
                      "name": "expiry",
                      "type": "tuple"
                    }
                  ],
                  "internalType": "struct IHederaTokenService.HederaToken",
                  "name": "token",
                  "type": "tuple"
                },
                {
                  "internalType": "uint64",
                  "name": "totalSupply",
                  "type": "uint64"
                },
                {
                  "internalType": "bool",
                  "name": "deleted",
                  "type": "bool"
                },
                {
                  "internalType": "bool",
                  "name": "defaultKycStatus",
                  "type": "bool"
                },
                {
                  "internalType": "bool",
                  "name": "pauseStatus",
                  "type": "bool"
                },
                {
                  "components": [
                    {
                      "internalType": "uint32",
                      "name": "amount",
                      "type": "uint32"
                    },
                    {
                      "internalType": "address",
                      "name": "tokenId",
                      "type": "address"
                    },
                    {
                      "internalType": "bool",
                      "name": "useHbarsForPayment",
                      "type": "bool"
                    },
                    {
                      "internalType": "bool",
                      "name": "useCurrentTokenForPayment",
                      "type": "bool"
                    },
                    {
                      "internalType": "address",
                      "name": "feeCollector",
                      "type": "address"
                    }
                  ],
                  "internalType": "struct IHederaTokenService.FixedFee[]",
                  "name": "fixedFees",
                  "type": "tuple[]"
                },
                {
                  "components": [
                    {
                      "internalType": "uint32",
                      "name": "numerator",
                      "type": "uint32"
                    },
                    {
                      "internalType": "uint32",
                      "name": "denominator",
                      "type": "uint32"
                    },
                    {
                      "internalType": "uint32",
                      "name": "minimumAmount",
                      "type": "uint32"
                    },
                    {
                      "internalType": "uint32",
                      "name": "maximumAmount",
                      "type": "uint32"
                    },
                    {
                      "internalType": "bool",
                      "name": "netOfTransfers",
                      "type": "bool"
                    },
                    {
                      "internalType": "address",
                      "name": "feeCollector",
                      "type": "address"
                    }
                  ],
                  "internalType": "struct IHederaTokenService.FractionalFee[]",
                  "name": "fractionalFees",
                  "type": "tuple[]"
                },
                {
                  "components": [
                    {
                      "internalType": "uint32",
                      "name": "numerator",
                      "type": "uint32"
                    },
                    {
                      "internalType": "uint32",
                      "name": "denominator",
                      "type": "uint32"
                    },
                    {
                      "internalType": "uint32",
                      "name": "amount",
                      "type": "uint32"
                    },
                    {
                      "internalType": "address",
                      "name": "tokenId",
                      "type": "address"
                    },
                    {
                      "internalType": "bool",
                      "name": "useHbarsForPayment",
                      "type": "bool"
                    },
                    {
                      "internalType": "address",
                      "name": "feeCollector",
                      "type": "address"
                    }
                  ],
                  "internalType": "struct IHederaTokenService.RoyaltyFee[]",
                  "name": "royaltyFees",
                  "type": "tuple[]"
                },
                {
                  "internalType": "string",
                  "name": "ledgerId",
                  "type": "string"
                }
              ],
              "internalType": "struct IHederaTokenService.TokenInfo",
              "name": "tokenInfo",
              "type": "tuple"
            },
            {
              "internalType": "uint32",
              "name": "decimals",
              "type": "uint32"
            }
          ],
          "indexed": false,
          "internalType": "struct IHederaTokenService.FungibleTokenInfo",
          "name": "tokenInfo",
          "type": "tuple"
        }
      ],
      "name": "FungibleTokenInfo",
      "type": "event"
    },
    {
      "anonymous": false,
      "inputs": [
        {
          "indexed": false,
          "internalType": "bool",
          "name": "kycGranted",
          "type": "bool"
        }
      ],
      "name": "KycGranted",
      "type": "event"
    },
    {
      "anonymous": false,
      "inputs": [
        {
          "indexed": false,
          "internalType": "uint64",
          "name": "newTotalSupply",
          "type": "uint64"
        },
        {
          "indexed": false,
          "internalType": "int64[]",
          "name": "serialNumbers",
          "type": "int64[]"
        }
      ],
      "name": "MintedToken",
      "type": "event"
    },
    {
      "anonymous": false,
      "inputs": [
        {
          "components": [
            {
              "components": [
                {
                  "components": [
                    {
                      "internalType": "string",
                      "name": "name",
                      "type": "string"
                    },
                    {
                      "internalType": "string",
                      "name": "symbol",
                      "type": "string"
                    },
                    {
                      "internalType": "address",
                      "name": "treasury",
                      "type": "address"
                    },
                    {
                      "internalType": "string",
                      "name": "memo",
                      "type": "string"
                    },
                    {
                      "internalType": "bool",
                      "name": "tokenSupplyType",
                      "type": "bool"
                    },
                    {
                      "internalType": "int64",
                      "name": "maxSupply",
                      "type": "int64"
                    },
                    {
                      "internalType": "bool",
                      "name": "freezeDefault",
                      "type": "bool"
                    },
                    {
                      "components": [
                        {
                          "internalType": "uint256",
                          "name": "keyType",
                          "type": "uint256"
                        },
                        {
                          "components": [
                            {
                              "internalType": "bool",
                              "name": "inheritAccountKey",
                              "type": "bool"
                            },
                            {
                              "internalType": "address",
                              "name": "contractId",
                              "type": "address"
                            },
                            {
                              "internalType": "bytes",
                              "name": "ed25519",
                              "type": "bytes"
                            },
                            {
                              "internalType": "bytes",
                              "name": "ECDSA_secp256k1",
                              "type": "bytes"
                            },
                            {
                              "internalType": "address",
                              "name": "delegatableContractId",
                              "type": "address"
                            }
                          ],
                          "internalType": "struct IHederaTokenService.KeyValue",
                          "name": "key",
                          "type": "tuple"
                        }
                      ],
                      "internalType": "struct IHederaTokenService.TokenKey[]",
                      "name": "tokenKeys",
                      "type": "tuple[]"
                    },
                    {
                      "components": [
                        {
                          "internalType": "uint32",
                          "name": "second",
                          "type": "uint32"
                        },
                        {
                          "internalType": "address",
                          "name": "autoRenewAccount",
                          "type": "address"
                        },
                        {
                          "internalType": "uint32",
                          "name": "autoRenewPeriod",
                          "type": "uint32"
                        }
                      ],
                      "internalType": "struct IHederaTokenService.Expiry",
                      "name": "expiry",
                      "type": "tuple"
                    }
                  ],
                  "internalType": "struct IHederaTokenService.HederaToken",
                  "name": "token",
                  "type": "tuple"
                },
                {
                  "internalType": "uint64",
                  "name": "totalSupply",
                  "type": "uint64"
                },
                {
                  "internalType": "bool",
                  "name": "deleted",
                  "type": "bool"
                },
                {
                  "internalType": "bool",
                  "name": "defaultKycStatus",
                  "type": "bool"
                },
                {
                  "internalType": "bool",
                  "name": "pauseStatus",
                  "type": "bool"
                },
                {
                  "components": [
                    {
                      "internalType": "uint32",
                      "name": "amount",
                      "type": "uint32"
                    },
                    {
                      "internalType": "address",
                      "name": "tokenId",
                      "type": "address"
                    },
                    {
                      "internalType": "bool",
                      "name": "useHbarsForPayment",
                      "type": "bool"
                    },
                    {
                      "internalType": "bool",
                      "name": "useCurrentTokenForPayment",
                      "type": "bool"
                    },
                    {
                      "internalType": "address",
                      "name": "feeCollector",
                      "type": "address"
                    }
                  ],
                  "internalType": "struct IHederaTokenService.FixedFee[]",
                  "name": "fixedFees",
                  "type": "tuple[]"
                },
                {
                  "components": [
                    {
                      "internalType": "uint32",
                      "name": "numerator",
                      "type": "uint32"
                    },
                    {
                      "internalType": "uint32",
                      "name": "denominator",
                      "type": "uint32"
                    },
                    {
                      "internalType": "uint32",
                      "name": "minimumAmount",
                      "type": "uint32"
                    },
                    {
                      "internalType": "uint32",
                      "name": "maximumAmount",
                      "type": "uint32"
                    },
                    {
                      "internalType": "bool",
                      "name": "netOfTransfers",
                      "type": "bool"
                    },
                    {
                      "internalType": "address",
                      "name": "feeCollector",
                      "type": "address"
                    }
                  ],
                  "internalType": "struct IHederaTokenService.FractionalFee[]",
                  "name": "fractionalFees",
                  "type": "tuple[]"
                },
                {
                  "components": [
                    {
                      "internalType": "uint32",
                      "name": "numerator",
                      "type": "uint32"
                    },
                    {
                      "internalType": "uint32",
                      "name": "denominator",
                      "type": "uint32"
                    },
                    {
                      "internalType": "uint32",
                      "name": "amount",
                      "type": "uint32"
                    },
                    {
                      "internalType": "address",
                      "name": "tokenId",
                      "type": "address"
                    },
                    {
                      "internalType": "bool",
                      "name": "useHbarsForPayment",
                      "type": "bool"
                    },
                    {
                      "internalType": "address",
                      "name": "feeCollector",
                      "type": "address"
                    }
                  ],
                  "internalType": "struct IHederaTokenService.RoyaltyFee[]",
                  "name": "royaltyFees",
                  "type": "tuple[]"
                },
                {
                  "internalType": "string",
                  "name": "ledgerId",
                  "type": "string"
                }
              ],
              "internalType": "struct IHederaTokenService.TokenInfo",
              "name": "tokenInfo",
              "type": "tuple"
            },
            {
              "internalType": "int64",
              "name": "serialNumber",
              "type": "int64"
            },
            {
              "internalType": "address",
              "name": "ownerId",
              "type": "address"
            },
            {
              "internalType": "int64",
              "name": "creationTime",
              "type": "int64"
            },
            {
              "internalType": "bytes",
              "name": "metadata",
              "type": "bytes"
            },
            {
              "internalType": "address",
              "name": "spenderId",
              "type": "address"
            }
          ],
          "indexed": false,
          "internalType": "struct IHederaTokenService.NonFungibleTokenInfo",
          "name": "tokenInfo",
          "type": "tuple"
        }
      ],
      "name": "NonFungibleTokenInfo",
      "type": "event"
    },
    {
      "anonymous": false,
      "inputs": [
        {
          "indexed": false,
          "internalType": "bool",
          "name": "paused",
          "type": "bool"
        }
      ],
      "name": "PausedToken",
      "type": "event"
    },
    {
      "anonymous": false,
      "inputs": [
        {
          "indexed": false,
          "internalType": "int256",
          "name": "responseCode",
          "type": "int256"
        }
      ],
      "name": "ResponseCode",
      "type": "event"
    },
    {
      "anonymous": false,
      "inputs": [
        {
          "components": [
            {
              "internalType": "uint32",
              "name": "amount",
              "type": "uint32"
            },
            {
              "internalType": "address",
              "name": "tokenId",
              "type": "address"
            },
            {
              "internalType": "bool",
              "name": "useHbarsForPayment",
              "type": "bool"
            },
            {
              "internalType": "bool",
              "name": "useCurrentTokenForPayment",
              "type": "bool"
            },
            {
              "internalType": "address",
              "name": "feeCollector",
              "type": "address"
            }
          ],
          "indexed": false,
          "internalType": "struct IHederaTokenService.FixedFee[]",
          "name": "fixedFees",
          "type": "tuple[]"
        },
        {
          "components": [
            {
              "internalType": "uint32",
              "name": "numerator",
              "type": "uint32"
            },
            {
              "internalType": "uint32",
              "name": "denominator",
              "type": "uint32"
            },
            {
              "internalType": "uint32",
              "name": "minimumAmount",
              "type": "uint32"
            },
            {
              "internalType": "uint32",
              "name": "maximumAmount",
              "type": "uint32"
            },
            {
              "internalType": "bool",
              "name": "netOfTransfers",
              "type": "bool"
            },
            {
              "internalType": "address",
              "name": "feeCollector",
              "type": "address"
            }
          ],
          "indexed": false,
          "internalType": "struct IHederaTokenService.FractionalFee[]",
          "name": "fractionalFees",
          "type": "tuple[]"
        },
        {
          "components": [
            {
              "internalType": "uint32",
              "name": "numerator",
              "type": "uint32"
            },
            {
              "internalType": "uint32",
              "name": "denominator",
              "type": "uint32"
            },
            {
              "internalType": "uint32",
              "name": "amount",
              "type": "uint32"
            },
            {
              "internalType": "address",
              "name": "tokenId",
              "type": "address"
            },
            {
              "internalType": "bool",
              "name": "useHbarsForPayment",
              "type": "bool"
            },
            {
              "internalType": "address",
              "name": "feeCollector",
              "type": "address"
            }
          ],
          "indexed": false,
          "internalType": "struct IHederaTokenService.RoyaltyFee[]",
          "name": "royaltyFees",
          "type": "tuple[]"
        }
      ],
      "name": "TokenCustomFees",
      "type": "event"
    },
    {
      "anonymous": false,
      "inputs": [
        {
          "indexed": false,
          "internalType": "bool",
          "name": "defaultFreezeStatus",
          "type": "bool"
        }
      ],
      "name": "TokenDefaultFreezeStatus",
      "type": "event"
    },
    {
      "anonymous": false,
      "inputs": [
        {
          "indexed": false,
          "internalType": "bool",
          "name": "defaultKycStatus",
          "type": "bool"
        }
      ],
      "name": "TokenDefaultKycStatus",
      "type": "event"
    },
    {
      "anonymous": false,
      "inputs": [
        {
          "components": [
            {
              "internalType": "uint32",
              "name": "second",
              "type": "uint32"
            },
            {
              "internalType": "address",
              "name": "autoRenewAccount",
              "type": "address"
            },
            {
              "internalType": "uint32",
              "name": "autoRenewPeriod",
              "type": "uint32"
            }
          ],
          "indexed": false,
          "internalType": "struct IHederaTokenService.Expiry",
          "name": "expiryInfo",
          "type": "tuple"
        }
      ],
      "name": "TokenExpiryInfo",
      "type": "event"
    },
    {
      "anonymous": false,
      "inputs": [
        {
          "components": [
            {
              "components": [
                {
                  "internalType": "string",
                  "name": "name",
                  "type": "string"
                },
                {
                  "internalType": "string",
                  "name": "symbol",
                  "type": "string"
                },
                {
                  "internalType": "address",
                  "name": "treasury",
                  "type": "address"
                },
                {
                  "internalType": "string",
                  "name": "memo",
                  "type": "string"
                },
                {
                  "internalType": "bool",
                  "name": "tokenSupplyType",
                  "type": "bool"
                },
                {
                  "internalType": "int64",
                  "name": "maxSupply",
                  "type": "int64"
                },
                {
                  "internalType": "bool",
                  "name": "freezeDefault",
                  "type": "bool"
                },
                {
                  "components": [
                    {
                      "internalType": "uint256",
                      "name": "keyType",
                      "type": "uint256"
                    },
                    {
                      "components": [
                        {
                          "internalType": "bool",
                          "name": "inheritAccountKey",
                          "type": "bool"
                        },
                        {
                          "internalType": "address",
                          "name": "contractId",
                          "type": "address"
                        },
                        {
                          "internalType": "bytes",
                          "name": "ed25519",
                          "type": "bytes"
                        },
                        {
                          "internalType": "bytes",
                          "name": "ECDSA_secp256k1",
                          "type": "bytes"
                        },
                        {
                          "internalType": "address",
                          "name": "delegatableContractId",
                          "type": "address"
                        }
                      ],
                      "internalType": "struct IHederaTokenService.KeyValue",
                      "name": "key",
                      "type": "tuple"
                    }
                  ],
                  "internalType": "struct IHederaTokenService.TokenKey[]",
                  "name": "tokenKeys",
                  "type": "tuple[]"
                },
                {
                  "components": [
                    {
                      "internalType": "uint32",
                      "name": "second",
                      "type": "uint32"
                    },
                    {
                      "internalType": "address",
                      "name": "autoRenewAccount",
                      "type": "address"
                    },
                    {
                      "internalType": "uint32",
                      "name": "autoRenewPeriod",
                      "type": "uint32"
                    }
                  ],
                  "internalType": "struct IHederaTokenService.Expiry",
                  "name": "expiry",
                  "type": "tuple"
                }
              ],
              "internalType": "struct IHederaTokenService.HederaToken",
              "name": "token",
              "type": "tuple"
            },
            {
              "internalType": "uint64",
              "name": "totalSupply",
              "type": "uint64"
            },
            {
              "internalType": "bool",
              "name": "deleted",
              "type": "bool"
            },
            {
              "internalType": "bool",
              "name": "defaultKycStatus",
              "type": "bool"
            },
            {
              "internalType": "bool",
              "name": "pauseStatus",
              "type": "bool"
            },
            {
              "components": [
                {
                  "internalType": "uint32",
                  "name": "amount",
                  "type": "uint32"
                },
                {
                  "internalType": "address",
                  "name": "tokenId",
                  "type": "address"
                },
                {
                  "internalType": "bool",
                  "name": "useHbarsForPayment",
                  "type": "bool"
                },
                {
                  "internalType": "bool",
                  "name": "useCurrentTokenForPayment",
                  "type": "bool"
                },
                {
                  "internalType": "address",
                  "name": "feeCollector",
                  "type": "address"
                }
              ],
              "internalType": "struct IHederaTokenService.FixedFee[]",
              "name": "fixedFees",
              "type": "tuple[]"
            },
            {
              "components": [
                {
                  "internalType": "uint32",
                  "name": "numerator",
                  "type": "uint32"
                },
                {
                  "internalType": "uint32",
                  "name": "denominator",
                  "type": "uint32"
                },
                {
                  "internalType": "uint32",
                  "name": "minimumAmount",
                  "type": "uint32"
                },
                {
                  "internalType": "uint32",
                  "name": "maximumAmount",
                  "type": "uint32"
                },
                {
                  "internalType": "bool",
                  "name": "netOfTransfers",
                  "type": "bool"
                },
                {
                  "internalType": "address",
                  "name": "feeCollector",
                  "type": "address"
                }
              ],
              "internalType": "struct IHederaTokenService.FractionalFee[]",
              "name": "fractionalFees",
              "type": "tuple[]"
            },
            {
              "components": [
                {
                  "internalType": "uint32",
                  "name": "numerator",
                  "type": "uint32"
                },
                {
                  "internalType": "uint32",
                  "name": "denominator",
                  "type": "uint32"
                },
                {
                  "internalType": "uint32",
                  "name": "amount",
                  "type": "uint32"
                },
                {
                  "internalType": "address",
                  "name": "tokenId",
                  "type": "address"
                },
                {
                  "internalType": "bool",
                  "name": "useHbarsForPayment",
                  "type": "bool"
                },
                {
                  "internalType": "address",
                  "name": "feeCollector",
                  "type": "address"
                }
              ],
              "internalType": "struct IHederaTokenService.RoyaltyFee[]",
              "name": "royaltyFees",
              "type": "tuple[]"
            },
            {
              "internalType": "string",
              "name": "ledgerId",
              "type": "string"
            }
          ],
          "indexed": false,
          "internalType": "struct IHederaTokenService.TokenInfo",
          "name": "tokenInfo",
          "type": "tuple"
        }
      ],
      "name": "TokenInfo",
      "type": "event"
    },
    {
      "anonymous": false,
      "inputs": [
        {
          "components": [
            {
              "internalType": "bool",
              "name": "inheritAccountKey",
              "type": "bool"
            },
            {
              "internalType": "address",
              "name": "contractId",
              "type": "address"
            },
            {
              "internalType": "bytes",
              "name": "ed25519",
              "type": "bytes"
            },
            {
              "internalType": "bytes",
              "name": "ECDSA_secp256k1",
              "type": "bytes"
            },
            {
              "internalType": "address",
              "name": "delegatableContractId",
              "type": "address"
            }
          ],
          "indexed": false,
          "internalType": "struct IHederaTokenService.KeyValue",
          "name": "key",
          "type": "tuple"
        }
      ],
      "name": "TokenKey",
      "type": "event"
    },
    {
      "anonymous": false,
      "inputs": [
        {
          "indexed": false,
          "internalType": "bool",
          "name": "unpaused",
          "type": "bool"
        }
      ],
      "name": "UnpausedToken",
      "type": "event"
    },
    {
      "inputs": [
        {
          "internalType": "address",
          "name": "token",
          "type": "address"
        },
        {
          "internalType": "address",
          "name": "owner",
          "type": "address"
        },
        {
          "internalType": "address",
          "name": "spender",
          "type": "address"
        }
      ],
      "name": "allowancePublic",
      "outputs": [
        {
          "internalType": "int256",
          "name": "responseCode",
          "type": "int256"
        },
        {
          "internalType": "uint256",
          "name": "amount",
          "type": "uint256"
        }
      ],
      "stateMutability": "nonpayable",
      "type": "function"
    },
    {
      "inputs": [
        {
          "internalType": "address",
          "name": "token",
          "type": "address"
        },
        {
          "internalType": "address",
          "name": "approved",
          "type": "address"
        },
        {
          "internalType": "uint256",
          "name": "serialNumber",
          "type": "uint256"
        }
      ],
      "name": "approveNFTPublic",
      "outputs": [
        {
          "internalType": "int256",
          "name": "responseCode",
          "type": "int256"
        }
      ],
      "stateMutability": "nonpayable",
      "type": "function"
    },
    {
      "inputs": [
        {
          "internalType": "address",
          "name": "token",
          "type": "address"
        },
        {
          "internalType": "address",
          "name": "spender",
          "type": "address"
        },
        {
          "internalType": "uint256",
          "name": "amount",
          "type": "uint256"
        }
      ],
      "name": "approvePublic",
      "outputs": [
        {
          "internalType": "int256",
          "name": "responseCode",
          "type": "int256"
        }
      ],
      "stateMutability": "nonpayable",
      "type": "function"
    },
    {
      "inputs": [
        {
          "internalType": "address",
          "name": "account",
          "type": "address"
        },
        {
          "internalType": "address",
          "name": "token",
          "type": "address"
        }
      ],
      "name": "associateTokenPublic",
      "outputs": [
        {
          "internalType": "int256",
          "name": "responseCode",
          "type": "int256"
        }
      ],
      "stateMutability": "nonpayable",
      "type": "function"
    },
    {
      "inputs": [
        {
          "internalType": "address",
          "name": "treasury",
          "type": "address"
        }
      ],
      "name": "createFungibleTokenPublic",
      "outputs": [],
      "stateMutability": "payable",
      "type": "function"
    },
    {
      "inputs": [
        {
          "internalType": "address",
          "name": "treasury",
          "type": "address"
        },
        {
          "internalType": "address",
          "name": "fixedFeeTokenAddress",
          "type": "address"
        }
      ],
      "name": "createFungibleTokenWithCustomFeesPublic",
      "outputs": [],
      "stateMutability": "payable",
      "type": "function"
    },
    {
      "inputs": [
        {
          "internalType": "address",
          "name": "treasury",
          "type": "address"
        }
      ],
      "name": "createNonFungibleTokenPublic",
      "outputs": [],
      "stateMutability": "payable",
      "type": "function"
    },
    {
      "inputs": [
        {
          "components": [
            {
              "internalType": "address",
              "name": "token",
              "type": "address"
            },
            {
              "components": [
                {
                  "internalType": "address",
                  "name": "accountID",
                  "type": "address"
                },
                {
                  "internalType": "int64",
                  "name": "amount",
                  "type": "int64"
                }
              ],
              "internalType": "struct IHederaTokenService.AccountAmount[]",
              "name": "transfers",
              "type": "tuple[]"
            },
            {
              "components": [
                {
                  "internalType": "address",
                  "name": "senderAccountID",
                  "type": "address"
                },
                {
                  "internalType": "address",
                  "name": "receiverAccountID",
                  "type": "address"
                },
                {
                  "internalType": "int64",
                  "name": "serialNumber",
                  "type": "int64"
                }
              ],
              "internalType": "struct IHederaTokenService.NftTransfer[]",
              "name": "nftTransfers",
              "type": "tuple[]"
            }
          ],
          "internalType": "struct IHederaTokenService.TokenTransferList[]",
          "name": "tokenTransferList",
          "type": "tuple[]"
        }
      ],
      "name": "cryptoTransferPublic",
      "outputs": [
        {
          "internalType": "int256",
          "name": "responseCode",
          "type": "int256"
        }
      ],
      "stateMutability": "nonpayable",
      "type": "function"
    },
    {
      "inputs": [
        {
          "internalType": "address",
          "name": "account",
          "type": "address"
        },
        {
          "internalType": "address",
          "name": "token",
          "type": "address"
        },
        {
          "internalType": "int64",
          "name": "amount",
          "type": "int64"
        }
      ],
      "name": "cryptoTransferTokenPublic",
      "outputs": [
        {
          "internalType": "int256",
          "name": "responseCode",
          "type": "int256"
        }
      ],
      "stateMutability": "nonpayable",
      "type": "function"
    },
    {
      "inputs": [
        {
          "internalType": "address",
          "name": "token",
          "type": "address"
        }
      ],
      "name": "deleteTokenPublic",
      "outputs": [
        {
          "internalType": "int256",
          "name": "responseCode",
          "type": "int256"
        }
      ],
      "stateMutability": "nonpayable",
      "type": "function"
    },
    {
      "inputs": [
        {
          "internalType": "address",
          "name": "token",
          "type": "address"
        },
        {
          "internalType": "address",
          "name": "account",
          "type": "address"
        }
      ],
      "name": "freezeTokenPublic",
      "outputs": [
        {
          "internalType": "int256",
          "name": "responseCode",
          "type": "int256"
        }
      ],
      "stateMutability": "nonpayable",
      "type": "function"
    },
    {
      "inputs": [
        {
          "internalType": "address",
          "name": "token",
          "type": "address"
        },
        {
          "internalType": "uint256",
          "name": "serialNumber",
          "type": "uint256"
        }
      ],
      "name": "getApprovedPublic",
      "outputs": [
        {
          "internalType": "int256",
          "name": "responseCode",
          "type": "int256"
        },
        {
          "internalType": "address",
          "name": "approved",
          "type": "address"
        }
      ],
      "stateMutability": "nonpayable",
      "type": "function"
    },
    {
      "inputs": [
        {
          "internalType": "address",
          "name": "token",
          "type": "address"
        }
      ],
      "name": "getFungibleTokenInfoPublic",
      "outputs": [
        {
          "internalType": "int256",
          "name": "responseCode",
          "type": "int256"
        },
        {
          "components": [
            {
              "components": [
                {
                  "components": [
                    {
                      "internalType": "string",
                      "name": "name",
                      "type": "string"
                    },
                    {
                      "internalType": "string",
                      "name": "symbol",
                      "type": "string"
                    },
                    {
                      "internalType": "address",
                      "name": "treasury",
                      "type": "address"
                    },
                    {
                      "internalType": "string",
                      "name": "memo",
                      "type": "string"
                    },
                    {
                      "internalType": "bool",
                      "name": "tokenSupplyType",
                      "type": "bool"
                    },
                    {
                      "internalType": "int64",
                      "name": "maxSupply",
                      "type": "int64"
                    },
                    {
                      "internalType": "bool",
                      "name": "freezeDefault",
                      "type": "bool"
                    },
                    {
                      "components": [
                        {
                          "internalType": "uint256",
                          "name": "keyType",
                          "type": "uint256"
                        },
                        {
                          "components": [
                            {
                              "internalType": "bool",
                              "name": "inheritAccountKey",
                              "type": "bool"
                            },
                            {
                              "internalType": "address",
                              "name": "contractId",
                              "type": "address"
                            },
                            {
                              "internalType": "bytes",
                              "name": "ed25519",
                              "type": "bytes"
                            },
                            {
                              "internalType": "bytes",
                              "name": "ECDSA_secp256k1",
                              "type": "bytes"
                            },
                            {
                              "internalType": "address",
                              "name": "delegatableContractId",
                              "type": "address"
                            }
                          ],
                          "internalType": "struct IHederaTokenService.KeyValue",
                          "name": "key",
                          "type": "tuple"
                        }
                      ],
                      "internalType": "struct IHederaTokenService.TokenKey[]",
                      "name": "tokenKeys",
                      "type": "tuple[]"
                    },
                    {
                      "components": [
                        {
                          "internalType": "uint32",
                          "name": "second",
                          "type": "uint32"
                        },
                        {
                          "internalType": "address",
                          "name": "autoRenewAccount",
                          "type": "address"
                        },
                        {
                          "internalType": "uint32",
                          "name": "autoRenewPeriod",
                          "type": "uint32"
                        }
                      ],
                      "internalType": "struct IHederaTokenService.Expiry",
                      "name": "expiry",
                      "type": "tuple"
                    }
                  ],
                  "internalType": "struct IHederaTokenService.HederaToken",
                  "name": "token",
                  "type": "tuple"
                },
                {
                  "internalType": "uint64",
                  "name": "totalSupply",
                  "type": "uint64"
                },
                {
                  "internalType": "bool",
                  "name": "deleted",
                  "type": "bool"
                },
                {
                  "internalType": "bool",
                  "name": "defaultKycStatus",
                  "type": "bool"
                },
                {
                  "internalType": "bool",
                  "name": "pauseStatus",
                  "type": "bool"
                },
                {
                  "components": [
                    {
                      "internalType": "uint32",
                      "name": "amount",
                      "type": "uint32"
                    },
                    {
                      "internalType": "address",
                      "name": "tokenId",
                      "type": "address"
                    },
                    {
                      "internalType": "bool",
                      "name": "useHbarsForPayment",
                      "type": "bool"
                    },
                    {
                      "internalType": "bool",
                      "name": "useCurrentTokenForPayment",
                      "type": "bool"
                    },
                    {
                      "internalType": "address",
                      "name": "feeCollector",
                      "type": "address"
                    }
                  ],
                  "internalType": "struct IHederaTokenService.FixedFee[]",
                  "name": "fixedFees",
                  "type": "tuple[]"
                },
                {
                  "components": [
                    {
                      "internalType": "uint32",
                      "name": "numerator",
                      "type": "uint32"
                    },
                    {
                      "internalType": "uint32",
                      "name": "denominator",
                      "type": "uint32"
                    },
                    {
                      "internalType": "uint32",
                      "name": "minimumAmount",
                      "type": "uint32"
                    },
                    {
                      "internalType": "uint32",
                      "name": "maximumAmount",
                      "type": "uint32"
                    },
                    {
                      "internalType": "bool",
                      "name": "netOfTransfers",
                      "type": "bool"
                    },
                    {
                      "internalType": "address",
                      "name": "feeCollector",
                      "type": "address"
                    }
                  ],
                  "internalType": "struct IHederaTokenService.FractionalFee[]",
                  "name": "fractionalFees",
                  "type": "tuple[]"
                },
                {
                  "components": [
                    {
                      "internalType": "uint32",
                      "name": "numerator",
                      "type": "uint32"
                    },
                    {
                      "internalType": "uint32",
                      "name": "denominator",
                      "type": "uint32"
                    },
                    {
                      "internalType": "uint32",
                      "name": "amount",
                      "type": "uint32"
                    },
                    {
                      "internalType": "address",
                      "name": "tokenId",
                      "type": "address"
                    },
                    {
                      "internalType": "bool",
                      "name": "useHbarsForPayment",
                      "type": "bool"
                    },
                    {
                      "internalType": "address",
                      "name": "feeCollector",
                      "type": "address"
                    }
                  ],
                  "internalType": "struct IHederaTokenService.RoyaltyFee[]",
                  "name": "royaltyFees",
                  "type": "tuple[]"
                },
                {
                  "internalType": "string",
                  "name": "ledgerId",
                  "type": "string"
                }
              ],
              "internalType": "struct IHederaTokenService.TokenInfo",
              "name": "tokenInfo",
              "type": "tuple"
            },
            {
              "internalType": "uint32",
              "name": "decimals",
              "type": "uint32"
            }
          ],
          "internalType": "struct IHederaTokenService.FungibleTokenInfo",
          "name": "tokenInfo",
          "type": "tuple"
        }
      ],
      "stateMutability": "nonpayable",
      "type": "function"
    },
    {
      "inputs": [
        {
          "internalType": "address",
          "name": "token",
          "type": "address"
        },
        {
          "internalType": "int64",
          "name": "serialNumber",
          "type": "int64"
        }
      ],
      "name": "getNonFungibleTokenInfoPublic",
      "outputs": [
        {
          "internalType": "int256",
          "name": "responseCode",
          "type": "int256"
        },
        {
          "components": [
            {
              "components": [
                {
                  "components": [
                    {
                      "internalType": "string",
                      "name": "name",
                      "type": "string"
                    },
                    {
                      "internalType": "string",
                      "name": "symbol",
                      "type": "string"
                    },
                    {
                      "internalType": "address",
                      "name": "treasury",
                      "type": "address"
                    },
                    {
                      "internalType": "string",
                      "name": "memo",
                      "type": "string"
                    },
                    {
                      "internalType": "bool",
                      "name": "tokenSupplyType",
                      "type": "bool"
                    },
                    {
                      "internalType": "int64",
                      "name": "maxSupply",
                      "type": "int64"
                    },
                    {
                      "internalType": "bool",
                      "name": "freezeDefault",
                      "type": "bool"
                    },
                    {
                      "components": [
                        {
                          "internalType": "uint256",
                          "name": "keyType",
                          "type": "uint256"
                        },
                        {
                          "components": [
                            {
                              "internalType": "bool",
                              "name": "inheritAccountKey",
                              "type": "bool"
                            },
                            {
                              "internalType": "address",
                              "name": "contractId",
                              "type": "address"
                            },
                            {
                              "internalType": "bytes",
                              "name": "ed25519",
                              "type": "bytes"
                            },
                            {
                              "internalType": "bytes",
                              "name": "ECDSA_secp256k1",
                              "type": "bytes"
                            },
                            {
                              "internalType": "address",
                              "name": "delegatableContractId",
                              "type": "address"
                            }
                          ],
                          "internalType": "struct IHederaTokenService.KeyValue",
                          "name": "key",
                          "type": "tuple"
                        }
                      ],
                      "internalType": "struct IHederaTokenService.TokenKey[]",
                      "name": "tokenKeys",
                      "type": "tuple[]"
                    },
                    {
                      "components": [
                        {
                          "internalType": "uint32",
                          "name": "second",
                          "type": "uint32"
                        },
                        {
                          "internalType": "address",
                          "name": "autoRenewAccount",
                          "type": "address"
                        },
                        {
                          "internalType": "uint32",
                          "name": "autoRenewPeriod",
                          "type": "uint32"
                        }
                      ],
                      "internalType": "struct IHederaTokenService.Expiry",
                      "name": "expiry",
                      "type": "tuple"
                    }
                  ],
                  "internalType": "struct IHederaTokenService.HederaToken",
                  "name": "token",
                  "type": "tuple"
                },
                {
                  "internalType": "uint64",
                  "name": "totalSupply",
                  "type": "uint64"
                },
                {
                  "internalType": "bool",
                  "name": "deleted",
                  "type": "bool"
                },
                {
                  "internalType": "bool",
                  "name": "defaultKycStatus",
                  "type": "bool"
                },
                {
                  "internalType": "bool",
                  "name": "pauseStatus",
                  "type": "bool"
                },
                {
                  "components": [
                    {
                      "internalType": "uint32",
                      "name": "amount",
                      "type": "uint32"
                    },
                    {
                      "internalType": "address",
                      "name": "tokenId",
                      "type": "address"
                    },
                    {
                      "internalType": "bool",
                      "name": "useHbarsForPayment",
                      "type": "bool"
                    },
                    {
                      "internalType": "bool",
                      "name": "useCurrentTokenForPayment",
                      "type": "bool"
                    },
                    {
                      "internalType": "address",
                      "name": "feeCollector",
                      "type": "address"
                    }
                  ],
                  "internalType": "struct IHederaTokenService.FixedFee[]",
                  "name": "fixedFees",
                  "type": "tuple[]"
                },
                {
                  "components": [
                    {
                      "internalType": "uint32",
                      "name": "numerator",
                      "type": "uint32"
                    },
                    {
                      "internalType": "uint32",
                      "name": "denominator",
                      "type": "uint32"
                    },
                    {
                      "internalType": "uint32",
                      "name": "minimumAmount",
                      "type": "uint32"
                    },
                    {
                      "internalType": "uint32",
                      "name": "maximumAmount",
                      "type": "uint32"
                    },
                    {
                      "internalType": "bool",
                      "name": "netOfTransfers",
                      "type": "bool"
                    },
                    {
                      "internalType": "address",
                      "name": "feeCollector",
                      "type": "address"
                    }
                  ],
                  "internalType": "struct IHederaTokenService.FractionalFee[]",
                  "name": "fractionalFees",
                  "type": "tuple[]"
                },
                {
                  "components": [
                    {
                      "internalType": "uint32",
                      "name": "numerator",
                      "type": "uint32"
                    },
                    {
                      "internalType": "uint32",
                      "name": "denominator",
                      "type": "uint32"
                    },
                    {
                      "internalType": "uint32",
                      "name": "amount",
                      "type": "uint32"
                    },
                    {
                      "internalType": "address",
                      "name": "tokenId",
                      "type": "address"
                    },
                    {
                      "internalType": "bool",
                      "name": "useHbarsForPayment",
                      "type": "bool"
                    },
                    {
                      "internalType": "address",
                      "name": "feeCollector",
                      "type": "address"
                    }
                  ],
                  "internalType": "struct IHederaTokenService.RoyaltyFee[]",
                  "name": "royaltyFees",
                  "type": "tuple[]"
                },
                {
                  "internalType": "string",
                  "name": "ledgerId",
                  "type": "string"
                }
              ],
              "internalType": "struct IHederaTokenService.TokenInfo",
              "name": "tokenInfo",
              "type": "tuple"
            },
            {
              "internalType": "int64",
              "name": "serialNumber",
              "type": "int64"
            },
            {
              "internalType": "address",
              "name": "ownerId",
              "type": "address"
            },
            {
              "internalType": "int64",
              "name": "creationTime",
              "type": "int64"
            },
            {
              "internalType": "bytes",
              "name": "metadata",
              "type": "bytes"
            },
            {
              "internalType": "address",
              "name": "spenderId",
              "type": "address"
            }
          ],
          "internalType": "struct IHederaTokenService.NonFungibleTokenInfo",
          "name": "tokenInfo",
          "type": "tuple"
        }
      ],
      "stateMutability": "nonpayable",
      "type": "function"
    },
    {
      "inputs": [
        {
          "internalType": "address",
          "name": "token",
          "type": "address"
        }
      ],
      "name": "getTokenCustomFeesPublic",
      "outputs": [
        {
          "internalType": "int64",
          "name": "responseCode",
          "type": "int64"
        },
        {
          "components": [
            {
              "internalType": "uint32",
              "name": "amount",
              "type": "uint32"
            },
            {
              "internalType": "address",
              "name": "tokenId",
              "type": "address"
            },
            {
              "internalType": "bool",
              "name": "useHbarsForPayment",
              "type": "bool"
            },
            {
              "internalType": "bool",
              "name": "useCurrentTokenForPayment",
              "type": "bool"
            },
            {
              "internalType": "address",
              "name": "feeCollector",
              "type": "address"
            }
          ],
          "internalType": "struct IHederaTokenService.FixedFee[]",
          "name": "fixedFees",
          "type": "tuple[]"
        },
        {
          "components": [
            {
              "internalType": "uint32",
              "name": "numerator",
              "type": "uint32"
            },
            {
              "internalType": "uint32",
              "name": "denominator",
              "type": "uint32"
            },
            {
              "internalType": "uint32",
              "name": "minimumAmount",
              "type": "uint32"
            },
            {
              "internalType": "uint32",
              "name": "maximumAmount",
              "type": "uint32"
            },
            {
              "internalType": "bool",
              "name": "netOfTransfers",
              "type": "bool"
            },
            {
              "internalType": "address",
              "name": "feeCollector",
              "type": "address"
            }
          ],
          "internalType": "struct IHederaTokenService.FractionalFee[]",
          "name": "fractionalFees",
          "type": "tuple[]"
        },
        {
          "components": [
            {
              "internalType": "uint32",
              "name": "numerator",
              "type": "uint32"
            },
            {
              "internalType": "uint32",
              "name": "denominator",
              "type": "uint32"
            },
            {
              "internalType": "uint32",
              "name": "amount",
              "type": "uint32"
            },
            {
              "internalType": "address",
              "name": "tokenId",
              "type": "address"
            },
            {
              "internalType": "bool",
              "name": "useHbarsForPayment",
              "type": "bool"
            },
            {
              "internalType": "address",
              "name": "feeCollector",
              "type": "address"
            }
          ],
          "internalType": "struct IHederaTokenService.RoyaltyFee[]",
          "name": "royaltyFees",
          "type": "tuple[]"
        }
      ],
      "stateMutability": "nonpayable",
      "type": "function"
    },
    {
      "inputs": [
        {
          "internalType": "address",
          "name": "token",
          "type": "address"
        }
      ],
      "name": "getTokenDefaultFreezeStatusPublic",
      "outputs": [
        {
          "internalType": "int256",
          "name": "responseCode",
          "type": "int256"
        },
        {
          "internalType": "bool",
          "name": "defaultFreezeStatus",
          "type": "bool"
        }
      ],
      "stateMutability": "nonpayable",
      "type": "function"
    },
    {
      "inputs": [
        {
          "internalType": "address",
          "name": "token",
          "type": "address"
        }
      ],
      "name": "getTokenDefaultKycStatusPublic",
      "outputs": [
        {
          "internalType": "int256",
          "name": "responseCode",
          "type": "int256"
        },
        {
          "internalType": "bool",
          "name": "defaultKycStatus",
          "type": "bool"
        }
      ],
      "stateMutability": "nonpayable",
      "type": "function"
    },
    {
      "inputs": [
        {
          "internalType": "address",
          "name": "token",
          "type": "address"
        }
      ],
      "name": "getTokenExpiryInfo",
      "outputs": [
        {
          "internalType": "int256",
          "name": "responseCode",
          "type": "int256"
        },
        {
          "components": [
            {
              "internalType": "uint32",
              "name": "second",
              "type": "uint32"
            },
            {
              "internalType": "address",
              "name": "autoRenewAccount",
              "type": "address"
            },
            {
              "internalType": "uint32",
              "name": "autoRenewPeriod",
              "type": "uint32"
            }
          ],
          "internalType": "struct IHederaTokenService.Expiry",
          "name": "expiryInfo",
          "type": "tuple"
        }
      ],
      "stateMutability": "nonpayable",
      "type": "function"
    },
    {
      "inputs": [
        {
          "internalType": "address",
          "name": "token",
          "type": "address"
        }
      ],
      "name": "getTokenExpiryInfoPublic",
      "outputs": [
        {
          "internalType": "int256",
          "name": "responseCode",
          "type": "int256"
        },
        {
          "components": [
            {
              "internalType": "uint32",
              "name": "second",
              "type": "uint32"
            },
            {
              "internalType": "address",
              "name": "autoRenewAccount",
              "type": "address"
            },
            {
              "internalType": "uint32",
              "name": "autoRenewPeriod",
              "type": "uint32"
            }
          ],
          "internalType": "struct IHederaTokenService.Expiry",
          "name": "expiryInfo",
          "type": "tuple"
        }
      ],
      "stateMutability": "nonpayable",
      "type": "function"
    },
    {
      "inputs": [
        {
          "internalType": "address",
          "name": "token",
          "type": "address"
        }
      ],
      "name": "getTokenInfoPublic",
      "outputs": [
        {
          "internalType": "int256",
          "name": "responseCode",
          "type": "int256"
        },
        {
          "components": [
            {
              "components": [
                {
                  "internalType": "string",
                  "name": "name",
                  "type": "string"
                },
                {
                  "internalType": "string",
                  "name": "symbol",
                  "type": "string"
                },
                {
                  "internalType": "address",
                  "name": "treasury",
                  "type": "address"
                },
                {
                  "internalType": "string",
                  "name": "memo",
                  "type": "string"
                },
                {
                  "internalType": "bool",
                  "name": "tokenSupplyType",
                  "type": "bool"
                },
                {
                  "internalType": "int64",
                  "name": "maxSupply",
                  "type": "int64"
                },
                {
                  "internalType": "bool",
                  "name": "freezeDefault",
                  "type": "bool"
                },
                {
                  "components": [
                    {
                      "internalType": "uint256",
                      "name": "keyType",
                      "type": "uint256"
                    },
                    {
                      "components": [
                        {
                          "internalType": "bool",
                          "name": "inheritAccountKey",
                          "type": "bool"
                        },
                        {
                          "internalType": "address",
                          "name": "contractId",
                          "type": "address"
                        },
                        {
                          "internalType": "bytes",
                          "name": "ed25519",
                          "type": "bytes"
                        },
                        {
                          "internalType": "bytes",
                          "name": "ECDSA_secp256k1",
                          "type": "bytes"
                        },
                        {
                          "internalType": "address",
                          "name": "delegatableContractId",
                          "type": "address"
                        }
                      ],
                      "internalType": "struct IHederaTokenService.KeyValue",
                      "name": "key",
                      "type": "tuple"
                    }
                  ],
                  "internalType": "struct IHederaTokenService.TokenKey[]",
                  "name": "tokenKeys",
                  "type": "tuple[]"
                },
                {
                  "components": [
                    {
                      "internalType": "uint32",
                      "name": "second",
                      "type": "uint32"
                    },
                    {
                      "internalType": "address",
                      "name": "autoRenewAccount",
                      "type": "address"
                    },
                    {
                      "internalType": "uint32",
                      "name": "autoRenewPeriod",
                      "type": "uint32"
                    }
                  ],
                  "internalType": "struct IHederaTokenService.Expiry",
                  "name": "expiry",
                  "type": "tuple"
                }
              ],
              "internalType": "struct IHederaTokenService.HederaToken",
              "name": "token",
              "type": "tuple"
            },
            {
              "internalType": "uint64",
              "name": "totalSupply",
              "type": "uint64"
            },
            {
              "internalType": "bool",
              "name": "deleted",
              "type": "bool"
            },
            {
              "internalType": "bool",
              "name": "defaultKycStatus",
              "type": "bool"
            },
            {
              "internalType": "bool",
              "name": "pauseStatus",
              "type": "bool"
            },
            {
              "components": [
                {
                  "internalType": "uint32",
                  "name": "amount",
                  "type": "uint32"
                },
                {
                  "internalType": "address",
                  "name": "tokenId",
                  "type": "address"
                },
                {
                  "internalType": "bool",
                  "name": "useHbarsForPayment",
                  "type": "bool"
                },
                {
                  "internalType": "bool",
                  "name": "useCurrentTokenForPayment",
                  "type": "bool"
                },
                {
                  "internalType": "address",
                  "name": "feeCollector",
                  "type": "address"
                }
              ],
              "internalType": "struct IHederaTokenService.FixedFee[]",
              "name": "fixedFees",
              "type": "tuple[]"
            },
            {
              "components": [
                {
                  "internalType": "uint32",
                  "name": "numerator",
                  "type": "uint32"
                },
                {
                  "internalType": "uint32",
                  "name": "denominator",
                  "type": "uint32"
                },
                {
                  "internalType": "uint32",
                  "name": "minimumAmount",
                  "type": "uint32"
                },
                {
                  "internalType": "uint32",
                  "name": "maximumAmount",
                  "type": "uint32"
                },
                {
                  "internalType": "bool",
                  "name": "netOfTransfers",
                  "type": "bool"
                },
                {
                  "internalType": "address",
                  "name": "feeCollector",
                  "type": "address"
                }
              ],
              "internalType": "struct IHederaTokenService.FractionalFee[]",
              "name": "fractionalFees",
              "type": "tuple[]"
            },
            {
              "components": [
                {
                  "internalType": "uint32",
                  "name": "numerator",
                  "type": "uint32"
                },
                {
                  "internalType": "uint32",
                  "name": "denominator",
                  "type": "uint32"
                },
                {
                  "internalType": "uint32",
                  "name": "amount",
                  "type": "uint32"
                },
                {
                  "internalType": "address",
                  "name": "tokenId",
                  "type": "address"
                },
                {
                  "internalType": "bool",
                  "name": "useHbarsForPayment",
                  "type": "bool"
                },
                {
                  "internalType": "address",
                  "name": "feeCollector",
                  "type": "address"
                }
              ],
              "internalType": "struct IHederaTokenService.RoyaltyFee[]",
              "name": "royaltyFees",
              "type": "tuple[]"
            },
            {
              "internalType": "string",
              "name": "ledgerId",
              "type": "string"
            }
          ],
          "internalType": "struct IHederaTokenService.TokenInfo",
          "name": "tokenInfo",
          "type": "tuple"
        }
      ],
      "stateMutability": "nonpayable",
      "type": "function"
    },
    {
      "inputs": [
        {
          "internalType": "address",
          "name": "token",
          "type": "address"
        },
        {
          "internalType": "address",
          "name": "account",
          "type": "address"
        }
      ],
      "name": "grantTokenKyc",
      "outputs": [
        {
          "internalType": "int64",
          "name": "responseCode",
          "type": "int64"
        }
      ],
      "stateMutability": "nonpayable",
      "type": "function"
    },
    {
      "inputs": [
        {
          "internalType": "address",
          "name": "token",
          "type": "address"
        },
        {
          "internalType": "address",
          "name": "account",
          "type": "address"
        }
      ],
      "name": "grantTokenKycPublic",
      "outputs": [
        {
          "internalType": "int64",
          "name": "responseCode",
          "type": "int64"
        }
      ],
      "stateMutability": "nonpayable",
      "type": "function"
    },
    {
      "inputs": [
        {
          "internalType": "address",
          "name": "token",
          "type": "address"
        },
        {
          "internalType": "address",
          "name": "owner",
          "type": "address"
        },
        {
          "internalType": "address",
          "name": "operator",
          "type": "address"
        }
      ],
      "name": "isApprovedForAllPublic",
      "outputs": [
        {
          "internalType": "int256",
          "name": "responseCode",
          "type": "int256"
        },
        {
          "internalType": "bool",
          "name": "approved",
          "type": "bool"
        }
      ],
      "stateMutability": "nonpayable",
      "type": "function"
    },
    {
      "inputs": [
        {
          "internalType": "address",
          "name": "token",
          "type": "address"
        },
        {
          "internalType": "address",
          "name": "account",
          "type": "address"
        }
      ],
      "name": "isFrozenPublic",
      "outputs": [
        {
          "internalType": "int256",
          "name": "responseCode",
          "type": "int256"
        },
        {
          "internalType": "bool",
          "name": "frozen",
          "type": "bool"
        }
      ],
      "stateMutability": "nonpayable",
      "type": "function"
    },
    {
      "inputs": [
        {
          "internalType": "address",
          "name": "token",
          "type": "address"
        },
        {
          "internalType": "address",
          "name": "account",
          "type": "address"
        }
      ],
      "name": "isKyc",
      "outputs": [
        {
          "internalType": "int64",
          "name": "responseCode",
          "type": "int64"
        },
        {
          "internalType": "bool",
          "name": "kycGranted",
          "type": "bool"
        }
      ],
      "stateMutability": "nonpayable",
      "type": "function"
    },
    {
      "inputs": [
        {
          "internalType": "address",
          "name": "token",
          "type": "address"
        },
        {
          "internalType": "address",
          "name": "account",
          "type": "address"
        }
      ],
      "name": "isKycPublic",
      "outputs": [
        {
          "internalType": "int64",
          "name": "responseCode",
          "type": "int64"
        },
        {
          "internalType": "bool",
          "name": "kycGranted",
          "type": "bool"
        }
      ],
      "stateMutability": "nonpayable",
      "type": "function"
    },
    {
      "inputs": [
        {
          "internalType": "address",
          "name": "token",
          "type": "address"
        },
        {
          "internalType": "uint64",
          "name": "amount",
          "type": "uint64"
        },
        {
          "internalType": "bytes[]",
          "name": "metadata",
          "type": "bytes[]"
        }
      ],
      "name": "mintTokenPublic",
      "outputs": [
        {
          "internalType": "int256",
          "name": "responseCode",
          "type": "int256"
        },
        {
          "internalType": "uint64",
          "name": "newTotalSupply",
          "type": "uint64"
        },
        {
          "internalType": "int64[]",
          "name": "serialNumbers",
          "type": "int64[]"
        }
      ],
      "stateMutability": "nonpayable",
      "type": "function"
    },
    {
      "inputs": [
        {
          "internalType": "address",
          "name": "token",
          "type": "address"
        }
      ],
      "name": "pauseToken",
      "outputs": [
        {
          "internalType": "int256",
          "name": "responseCode",
          "type": "int256"
        }
      ],
      "stateMutability": "nonpayable",
      "type": "function"
    },
    {
      "inputs": [
        {
          "internalType": "address",
          "name": "token",
          "type": "address"
        }
      ],
      "name": "pauseTokenPublic",
      "outputs": [
        {
          "internalType": "int256",
          "name": "responseCode",
          "type": "int256"
        }
      ],
      "stateMutability": "nonpayable",
      "type": "function"
    },
    {
      "inputs": [
        {
          "internalType": "address",
          "name": "token",
          "type": "address"
        },
        {
          "internalType": "address",
          "name": "account",
          "type": "address"
        }
      ],
      "name": "revokeTokenKyc",
      "outputs": [
        {
          "internalType": "int64",
          "name": "responseCode",
          "type": "int64"
        }
      ],
      "stateMutability": "nonpayable",
      "type": "function"
    },
    {
      "inputs": [
        {
          "internalType": "address",
          "name": "token",
          "type": "address"
        },
        {
          "internalType": "address",
          "name": "account",
          "type": "address"
        }
      ],
      "name": "revokeTokenKycPublic",
      "outputs": [
        {
          "internalType": "int64",
          "name": "responseCode",
          "type": "int64"
        }
      ],
      "stateMutability": "nonpayable",
      "type": "function"
    },
    {
      "inputs": [
        {
          "internalType": "address",
          "name": "token",
          "type": "address"
        },
        {
          "internalType": "address",
          "name": "operator",
          "type": "address"
        },
        {
          "internalType": "bool",
          "name": "approved",
          "type": "bool"
        }
      ],
      "name": "setApprovalForAllPublic",
      "outputs": [
        {
          "internalType": "int256",
          "name": "responseCode",
          "type": "int256"
        }
      ],
      "stateMutability": "nonpayable",
      "type": "function"
    },
    {
      "inputs": [
        {
          "internalType": "bool",
          "name": "newFreezeStatus",
          "type": "bool"
        }
      ],
      "name": "setFreezeDefaultStatus",
      "outputs": [],
      "stateMutability": "nonpayable",
      "type": "function"
    },
    {
      "inputs": [
        {
          "internalType": "address",
          "name": "token",
          "type": "address"
        },
        {
          "internalType": "address",
          "name": "sender",
          "type": "address"
        },
        {
          "internalType": "address",
          "name": "receiver",
          "type": "address"
        },
        {
          "internalType": "int64",
          "name": "serialNumber",
          "type": "int64"
        }
      ],
      "name": "transferNFTPublic",
      "outputs": [
        {
          "internalType": "int256",
          "name": "responseCode",
          "type": "int256"
        }
      ],
      "stateMutability": "nonpayable",
      "type": "function"
    },
    {
      "inputs": [
        {
          "internalType": "address",
          "name": "token",
          "type": "address"
        },
        {
          "internalType": "address",
          "name": "sender",
          "type": "address"
        },
        {
          "internalType": "address",
          "name": "receiver",
          "type": "address"
        },
        {
          "internalType": "int64",
          "name": "amount",
          "type": "int64"
        }
      ],
      "name": "transferTokenPublic",
      "outputs": [
        {
          "internalType": "int256",
          "name": "responseCode",
          "type": "int256"
        }
      ],
      "stateMutability": "nonpayable",
      "type": "function"
    },
    {
      "inputs": [
        {
          "internalType": "address",
          "name": "token",
          "type": "address"
        },
        {
          "internalType": "address",
          "name": "account",
          "type": "address"
        }
      ],
      "name": "unfreezeTokenPublic",
      "outputs": [
        {
          "internalType": "int256",
          "name": "responseCode",
          "type": "int256"
        }
      ],
      "stateMutability": "nonpayable",
      "type": "function"
    },
    {
      "inputs": [
        {
          "internalType": "address",
          "name": "token",
          "type": "address"
        }
      ],
      "name": "unpauseToken",
      "outputs": [
        {
          "internalType": "int256",
          "name": "responseCode",
          "type": "int256"
        }
      ],
      "stateMutability": "nonpayable",
      "type": "function"
    },
    {
      "inputs": [
        {
          "internalType": "address",
          "name": "token",
          "type": "address"
        }
      ],
      "name": "unpauseTokenPublic",
      "outputs": [
        {
          "internalType": "int256",
          "name": "responseCode",
          "type": "int256"
        }
      ],
      "stateMutability": "nonpayable",
      "type": "function"
    },
    {
      "inputs": [
        {
          "internalType": "address",
          "name": "token",
          "type": "address"
        },
        {
          "components": [
            {
              "internalType": "uint32",
              "name": "second",
              "type": "uint32"
            },
            {
              "internalType": "address",
              "name": "autoRenewAccount",
              "type": "address"
            },
            {
              "internalType": "uint32",
              "name": "autoRenewPeriod",
              "type": "uint32"
            }
          ],
          "internalType": "struct IHederaTokenService.Expiry",
          "name": "expiryInfo",
          "type": "tuple"
        }
      ],
      "name": "updateTokenExpiryInfo",
      "outputs": [
        {
          "internalType": "int256",
          "name": "responseCode",
          "type": "int256"
        }
      ],
      "stateMutability": "nonpayable",
      "type": "function"
    },
    {
      "inputs": [
        {
          "internalType": "address",
          "name": "token",
          "type": "address"
        },
        {
          "components": [
            {
              "internalType": "uint32",
              "name": "second",
              "type": "uint32"
            },
            {
              "internalType": "address",
              "name": "autoRenewAccount",
              "type": "address"
            },
            {
              "internalType": "uint32",
              "name": "autoRenewPeriod",
              "type": "uint32"
            }
          ],
          "internalType": "struct IHederaTokenService.Expiry",
          "name": "expiryInfo",
          "type": "tuple"
        }
      ],
      "name": "updateTokenExpiryInfoPublic",
      "outputs": [
        {
          "internalType": "int256",
          "name": "responseCode",
          "type": "int256"
        }
      ],
      "stateMutability": "nonpayable",
      "type": "function"
    },
    {
      "inputs": [
        {
          "internalType": "address",
          "name": "token",
          "type": "address"
        },
        {
          "components": [
            {
              "internalType": "string",
              "name": "name",
              "type": "string"
            },
            {
              "internalType": "string",
              "name": "symbol",
              "type": "string"
            },
            {
              "internalType": "address",
              "name": "treasury",
              "type": "address"
            },
            {
              "internalType": "string",
              "name": "memo",
              "type": "string"
            },
            {
              "internalType": "bool",
              "name": "tokenSupplyType",
              "type": "bool"
            },
            {
              "internalType": "int64",
              "name": "maxSupply",
              "type": "int64"
            },
            {
              "internalType": "bool",
              "name": "freezeDefault",
              "type": "bool"
            },
            {
              "components": [
                {
                  "internalType": "uint256",
                  "name": "keyType",
                  "type": "uint256"
                },
                {
                  "components": [
                    {
                      "internalType": "bool",
                      "name": "inheritAccountKey",
                      "type": "bool"
                    },
                    {
                      "internalType": "address",
                      "name": "contractId",
                      "type": "address"
                    },
                    {
                      "internalType": "bytes",
                      "name": "ed25519",
                      "type": "bytes"
                    },
                    {
                      "internalType": "bytes",
                      "name": "ECDSA_secp256k1",
                      "type": "bytes"
                    },
                    {
                      "internalType": "address",
                      "name": "delegatableContractId",
                      "type": "address"
                    }
                  ],
                  "internalType": "struct IHederaTokenService.KeyValue",
                  "name": "key",
                  "type": "tuple"
                }
              ],
              "internalType": "struct IHederaTokenService.TokenKey[]",
              "name": "tokenKeys",
              "type": "tuple[]"
            },
            {
              "components": [
                {
                  "internalType": "uint32",
                  "name": "second",
                  "type": "uint32"
                },
                {
                  "internalType": "address",
                  "name": "autoRenewAccount",
                  "type": "address"
                },
                {
                  "internalType": "uint32",
                  "name": "autoRenewPeriod",
                  "type": "uint32"
                }
              ],
              "internalType": "struct IHederaTokenService.Expiry",
              "name": "expiry",
              "type": "tuple"
            }
          ],
          "internalType": "struct IHederaTokenService.HederaToken",
          "name": "tokenInfo",
          "type": "tuple"
        }
      ],
      "name": "updateTokenInfo",
      "outputs": [
        {
          "internalType": "int256",
          "name": "responseCode",
          "type": "int256"
        }
      ],
      "stateMutability": "nonpayable",
      "type": "function"
    }
  ],
  "bytecode": "0x60c06040526009608081905268746f6b656e4e616d6560b81b60a09081526200002c9160019190620000c7565b5060408051808201909152600b8082526a1d1bdad95b94de5b589bdb60aa1b60209092019182526200006191600291620000c7565b50604080518082019091526004808252636d656d6f60e01b60209092019182526200008f91600391620000c7565b50600480546001600160a81b031916700800000000000003e800000000000003e8179055348015620000c057600080fd5b50620001aa565b828054620000d5906200016d565b90600052602060002090601f016020900481019282620000f9576000855562000144565b82601f106200011457805160ff191683800117855562000144565b8280016001018555821562000144579182015b828111156200014457825182559160200191906001019062000127565b506200015292915062000156565b5090565b5b8082111562000152576000815560010162000157565b600181811c908216806200018257607f821691505b60208210811415620001a457634e487b7160e01b600052602260045260246000fd5b50919050565b615a0d80620001ba6000396000f3fe6080604052600436106102465760003560e01c80638070905f11610139578063d85f74c1116100b6578063f2f38a741161007a578063f2f38a7414610756578063f4a01e5b14610784578063f7be3425146107a4578063f848fec4146107c4578063f9e978bd146107e4578063fdc8321e1461080457600080fd5b8063d85f74c1146106c3578063df6c06f5146106d6578063eee55ac8146106f6578063f25b120014610716578063f2c31ff41461073657600080fd5b8063a345f7bd116100fd578063a345f7bd146105fb578063a3ad5b551461061b578063af99c63314610655578063c0b19b6d14610675578063d614cdb8146106a357600080fd5b80638070905f1461055957806386f88d88146105885780638ba74da0146105a85780638f8d7f99146105bb5780639604ca65146105db57600080fd5b80634ba67035116101c757806369837dc21161018b57806369837dc2146104ab5780636a4dde21146104d95780636da6b1f0146104f95780637c41ad2c146105195780637d3e5da81461053957600080fd5b80634ba67035146103d85780634cbdb37b146103f8578063593d6e82146104265780635a5e6c31146104465780635b9076b71461047b57600080fd5b80632d73bb2e1161020e5780632d73bb2e146103435780632eecbca3146103635780633b3bff0f146103835780633eed2c39146103a35780634b5c6687146103c357600080fd5b80630fd2601e1461024b57806313c05dd81461028357806318370d34146102b857806319db44b6146102e65780632b256ec814610323575b600080fd5b34801561025757600080fd5b5061026b61026636600461436e565b610824565b60405160079190910b81526020015b60405180910390f35b34801561028f57600080fd5b506102a361029e3660046143a6565b6108dd565b6040805192835290151560208301520161027a565b3480156102c457600080fd5b506102d86102d336600461456b565b61095b565b60405190815260200161027a565b3480156102f257600080fd5b506103066103013660046146ab565b610a38565b604080519283526001600160a01b0390911660208301520161027a565b34801561032f57600080fd5b506102d861033e366004614352565b610abc565b34801561034f57600080fd5b506102d861035e36600461436e565b610ba8565b34801561036f57600080fd5b5061026b61037e36600461436e565b610bed565b34801561038f57600080fd5b506102d861039e366004614352565b610c15565b3480156103af57600080fd5b506102a36103be366004614352565b610cef565b6103d66103d1366004614352565b610d69565b005b3480156103e457600080fd5b506102d86103f33660046143f0565b611180565b34801561040457600080fd5b50610418610413366004614509565b6111cc565b60405161027a929190615455565b34801561043257600080fd5b506102d8610441366004614536565b611242565b34801561045257600080fd5b506104666104613660046143a6565b61126e565b6040805192835260208301919091520161027a565b34801561048757600080fd5b5061049b610496366004614352565b6112df565b60405161027a94939291906154b8565b3480156104b757600080fd5b506104cb6104c6366004614352565b611371565b60405161027a92919061543c565b3480156104e557600080fd5b506102a36104f436600461436e565b6113e6565b34801561050557600080fd5b506102d86105143660046143f0565b61145d565b34801561052557600080fd5b506102d8610534366004614352565b61146b565b34801561054557600080fd5b506102d861055436600461436e565b611499565b34801561056557600080fd5b506105796105743660046146d6565b6114a5565b60405161027a93929190615487565b34801561059457600080fd5b506102a36105a3366004614352565b61152d565b6103d66105b636600461436e565b61159e565b3480156105c757600080fd5b5061026b6105d636600461436e565b611a7b565b3480156105e757600080fd5b506102d86105f63660046147ac565b611aa7565b34801561060757600080fd5b506102d8610616366004614352565b611adc565b34801561062757600080fd5b5061063b61063636600461436e565b611b22565b6040805160079390930b835290151560208301520161027a565b34801561066157600080fd5b5061026b61067036600461436e565b611c0a565b34801561068157600080fd5b50610695610690366004614352565b611c36565b60405161027a929190615428565b3480156106af57600080fd5b506106956106be366004614352565b611d2d565b6103d66106d1366004614352565b611e3c565b3480156106e257600080fd5b506102d86106f13660046144c9565b612226565b34801561070257600080fd5b506102d8610711366004614536565b612270565b34801561072257600080fd5b506102d861073136600461444b565b6122ea565b34801561074257600080fd5b5061063b61075136600461436e565b6122f7565b34801561076257600080fd5b50610776610771366004614352565b6123cb565b60405161027a92919061546e565b34801561079057600080fd5b506102d861079f36600461436e565b612440565b3480156107b057600080fd5b506102d86107bf366004614352565b61244c565b3480156107d057600080fd5b506102d86107df3660046144c9565b61252f565b3480156107f057600080fd5b506103d66107ff36600461481b565b61253c565b34801561081057600080fd5b506102d861081f36600461448a565b612597565b604051638f8d7f9960e01b81526000903090638f8d7f999061084c9086908690600401615240565b602060405180830381600087803b15801561086657600080fd5b505af115801561087a573d6000803e3d6000fd5b505050506040513d601f19601f8201168201806040525081019061089e9190614c60565b604051600782900b81529091506000805160206159b88339815191529060200160405180910390a1600781900b6016146108d757600080fd5b92915050565b6000806108eb858585612798565b60405182815291935091506000805160206159b88339815191529060200160405180910390a16016821461091e57600080fd5b60405181151581527e1c2e72360171244b3bb8cc8ddd767820edf37138ad6f129fb3574b407c307d906020015b60405180910390a1935093915050565b60008060006101676001600160a01b03166318370d3460e01b8686604051602401610987929190615277565b60408051601f198184030181529181526020820180516001600160e01b03166001600160e01b03199094169390931790925290516109c59190615224565b6000604051808303816000865af19150503d8060008114610a02576040519150601f19603f3d011682016040523d82523d6000602084013e610a07565b606091505b509150915081610a18576015610a2c565b80806020019051810190610a2c9190614872565b60030b95945050505050565b600080610a45848461287e565b60405182815291935091506000805160206159b88339815191529060200160405180910390a160168214610a7857600080fd5b6040516001600160a01b03821681527fc2c78c7c31baf14949e75c51df12be56edb9af523cf82839c2869bbcf13b3ecb906020015b60405180910390a19250929050565b604051631f106b4b60e21b81526001600160a01b03821660048201526000903090637c41ad2c90602401602060405180830381600087803b158015610b0057600080fd5b505af1158015610b14573d6000803e3d6000fd5b505050506040513d601f19601f82011682018060405250810190610b389190614837565b90506000805160206159b883398151915281604051610b5991815260200190565b60405180910390a160168114610b6e57600080fd5b604051600181527f0c9c765845f4d139956bb8fc8decb2eec6093c9c608b809641b16054b29f0e13906020015b60405180910390a1919050565b6000610bb48383612945565b60070b90506000805160206159b883398151915281604051610bd891815260200190565b60405180910390a1601681146108d757600080fd5b60405163af99c63360e01b8152600090309063af99c6339061084c9086908690600401615240565b6040516001600160a01b03821660248201526000908190819061016790633b3bff0f60e01b906044015b60408051601f198184030181529181526020820180516001600160e01b03166001600160e01b0319909416939093179092529051610c7d9190615224565b6000604051808303816000865af19150503d8060008114610cba576040519150601f19603f3d011682016040523d82523d6000602084013e610cbf565b606091505b509150915081610cd0576015610ce4565b80806020019051810190610ce49190614872565b60030b949350505050565b600080610cfb83612971565b60405182815291935091506000805160206159b88339815191529060200160405180910390a160168214610d2e57600080fd5b60405181151581527f6b7f3306751292f85ab4161ee2b0ac16dfc8ded13e6446ce6bd859d0a2f4c78e906020015b60405180910390a1915091565b60408051600480825260a08201909252600091816020015b610d8961382e565b815260200190600190039081610d81579050509050610dbc60006006600160405180602001604052806000815250612a55565b81600081518110610ddd57634e487b7160e01b600052603260045260246000fd5b6020026020010181905250610e0360018060405180602001604052806000815250612a8c565b81600181518110610e2457634e487b7160e01b600052603260045260246000fd5b6020026020010181905250610e4b6002600160405180602001604052806000815250612a8c565b81600281518110610e6c57634e487b7160e01b600052603260045260246000fd5b6020026020010181905250610e936003600160405180602001604052806000815250612a8c565b81600381518110610eb457634e487b7160e01b600052603260045260246000fd5b602002602001018190525060006040518060600160405280600063ffffffff168152602001846001600160a01b03168152602001627a120063ffffffff168152509050600060405180610120016040528060018054610f12906158d8565b80601f0160208091040260200160405190810160405280929190818152602001828054610f3e906158d8565b8015610f8b5780601f10610f6057610100808354040283529160200191610f8b565b820191906000526020600020905b815481529060010190602001808311610f6e57829003601f168201915b5050505050815260200160028054610fa2906158d8565b80601f0160208091040260200160405190810160405280929190818152602001828054610fce906158d8565b801561101b5780601f10610ff05761010080835404028352916020019161101b565b820191906000526020600020905b815481529060010190602001808311610ffe57829003601f168201915b50505050508152602001856001600160a01b0316815260200160038054611041906158d8565b80601f016020809104026020016040519081016040528092919081815260200182805461106d906158d8565b80156110ba5780601f1061108f576101008083540402835291602001916110ba565b820191906000526020600020905b81548152906001019060200180831161109d57829003601f168201915b505050918352505060016020820152600454600160401b8104600790810b900b6040830152600160a01b810460ff16151560608301526080820186905260a0909101849052909150600090819061112a9084906001600160401b03811690600160801b900463ffffffff16612ac1565b90925090506016821461113c57600080fd5b6040516001600160a01b03821681527f7bb17726df1f3adee8aa00ba8e8bc5d6f182af3bbf77604639cb7f008dd3b4ed9060200160405180910390a1505050505050565b600061118e85858585612bef565b90506000805160206159b8833981519152816040516111af91815260200190565b60405180910390a1601681146111c457600080fd5b949350505050565b60006111d661384d565b6111e08484612ce6565b60405182815291935091506000805160206159b88339815191529060200160405180910390a16016821461121357600080fd5b7fd010ef68d3ac3e07c14bed496400730a484fd17c48a4d373cbc4722a56540def81604051610aad91906155d1565b60008060006101676001600160a01b031663593d6e8260e01b868660405160240161098792919061525a565b60008061127c858585612dc0565b60405182815291935091506000805160206159b88339815191529060200160405180910390a1601682146112af57600080fd5b6040518181527f25b6684a7e8fe1b676e9c39c8dd65034fbafea906d3bdfd97bf748b7b55e14c89060200161094b565b600060608060606112ef85612e93565b604051600785900b8152939750919550935091506000805160206159b88339815191529060200160405180910390a1600784900b60161461132f57600080fd5b7f2efc8334b040613a552197fe34283d6ca2909c8ffae393e128424931f20c69b38383836040516113629392919061531c565b60405180910390a19193509193565b600061137b613888565b61138483612f7a565b60405182815291935091506000805160206159b88339815191529060200160405180910390a1601682146113b757600080fd5b7fea9419ffbaa766adf982c4c9864330eee1d848eff36c79e510e7e589c8bb265f81604051610d5c9190615513565b6000806113f3848461304a565b60405160079290920b808352935091506000805160206159b88339815191529060200160405180910390a16016821461142b57600080fd5b60405181151581527f59800d968fcce138300a0019410b4b75041610d65b3cdc5f31656b03ed14912e90602001610aad565b600061118e85858585613077565b6040516001600160a01b03821660248201526000908190819061016790631f106b4b60e21b90604401610c3f565b6000610bb483836130bf565b60008060606114b58686866130eb565b60405183815292955090935091506000805160206159b88339815191529060200160405180910390a1601683146114eb57600080fd5b7feff23992f47b3c101679f8b4dc9d3e242c903909dba4a453f2b2341ad463b0e2828260405161151c9291906155f7565b60405180910390a193509350939050565b600080611539836131e9565b60405182815291935091506000805160206159b88339815191529060200160405180910390a16016821461156c57600080fd5b60405181151581527f9ee19e13dfa1ba8db2502e15ff56dbecdeb0e0473323fb195473ce648030a2cd90602001610d5c565b604080516001808252818301909252600091816020015b6115bd61382e565b8152602001906001900390816115b55790505090506115ef600080600160405180602001604052806000815250612a55565b8160008151811061161057634e487b7160e01b600052603260045260246000fd5b602002602001018190525060006040518060600160405280600063ffffffff168152602001856001600160a01b03168152602001627a120063ffffffff16815250905060006040518061012001604052806001805461166e906158d8565b80601f016020809104026020016040519081016040528092919081815260200182805461169a906158d8565b80156116e75780601f106116bc576101008083540402835291602001916116e7565b820191906000526020600020905b8154815290600101906020018083116116ca57829003601f168201915b50505050508152602001600280546116fe906158d8565b80601f016020809104026020016040519081016040528092919081815260200182805461172a906158d8565b80156117775780601f1061174c57610100808354040283529160200191611777565b820191906000526020600020905b81548152906001019060200180831161175a57829003601f168201915b50505050508152602001866001600160a01b031681526020016003805461179d906158d8565b80601f01602080910402602001604051908101604052809291908181526020018280546117c9906158d8565b80156118165780601f106117eb57610100808354040283529160200191611816565b820191906000526020600020905b8154815290600101906020018083116117f957829003601f168201915b5050509183525050600160208201819052600454600160401b9004600790810b900b6040808401919091526000606084018190526080840188905260a09093018690528051828152808201909152929350909190816020015b6040805160a08101825260008082526020808301829052928201819052606082018190526080820152825260001990920191018161186f5750506040805160a081018252600181526001600160a01b0388811660208301526000928201839052606082018390528916608082015282519293509183919061190057634e487b7160e01b600052603260045260246000fd5b6020908102919091010152604080516001808252818301909252600091816020015b6040805160c08101825260008082526020808301829052928201819052606082018190526080820181905260a082015282526000199092019101816119225750506040805160c0810182526004815260056020820152600a91810191909152601e60608201526000608082018190526001600160a01b038a1660a0830152825192935090918391906119c457634e487b7160e01b600052603260045260246000fd5b602090810291909101015260045460009081906119fc9086906001600160401b03811690600160801b900463ffffffff168787613219565b915091506000805160206159b883398151915282604051611a1f91815260200190565b60405180910390a160168214611a3457600080fd5b6040516001600160a01b03821681527f7bb17726df1f3adee8aa00ba8e8bc5d6f182af3bbf77604639cb7f008dd3b4ed9060200160405180910390a1505050505050505050565b60008060006101676001600160a01b0316638f8d7f9960e01b8686604051602401610987929190615240565b6000611abb611ab68385615744565b61334d565b90506000805160206159b883398151915281604051610bd891815260200190565b6000611ae782613377565b90506000805160206159b883398151915281604051611b0891815260200190565b60405180910390a160168114611b1d57600080fd5b919050565b604051633cb0c7fd60e21b81526000908190309063f2c31ff490611b4c9087908790600401615240565b6040805180830381600087803b158015611b6557600080fd5b505af1158015611b79573d6000803e3d6000fd5b505050506040513d601f19601f82011682018060405250810190611b9d9190614c7c565b604051600783900b815291935091506000805160206159b88339815191529060200160405180910390a1600782900b601614611bd857600080fd5b60405181151581527fd24dda6928587354b65aa1a18c2eaf249bef7e5bafd2a71fac71d286f76f957f90602001610aad565b60008060006101676001600160a01b031663af99c63360e01b8686604051602401610987929190615240565b60408051606081018252600080825260208201819052918101829052604051631ac299b760e31b81526001600160a01b0384166004820152309063d614cdb890602401608060405180830381600087803b158015611c9357600080fd5b505af1158015611ca7573d6000803e3d6000fd5b505050506040513d601f19601f82011682018060405250810190611ccb919061484f565b60405182815291935091506000805160206159b88339815191529060200160405180910390a160168214611cfe57600080fd5b7fa0a16bf9db2c17796faeca5af5aaeef8523f9d4c350c512cb00062ad89604f8881604051610d5c9190615505565b604080516060810182526000808252602080830182905282840182905283516001600160a01b038616602480830191909152855180830390910181526044909101855290810180516001600160e01b0316631ac299b760e31b179052925190928391829161016791611d9f9190615224565b6000604051808303816000865af19150503d8060008114611ddc576040519150601f19603f3d011682016040523d82523d6000602084013e611de1565b606091505b5091509150611e09604080516060810182526000808252602082018190529181019190915290565b82611e1657601581611e2a565b81806020019051810190611e2a9190614976565b60039190910b97909650945050505050565b60408051600580825260c08201909252600091816020015b611e5c61382e565b815260200190600190039081611e54579050509050611e8f60006006600160405180602001604052806000815250612a55565b81600081518110611eb057634e487b7160e01b600052603260045260246000fd5b6020026020010181905250611ed660018060405180602001604052806000815250612a8c565b81600181518110611ef757634e487b7160e01b600052603260045260246000fd5b6020026020010181905250611f1e6002600160405180602001604052806000815250612a8c565b81600281518110611f3f57634e487b7160e01b600052603260045260246000fd5b6020026020010181905250611f666004600160405180602001604052806000815250612a8c565b81600381518110611f8757634e487b7160e01b600052603260045260246000fd5b6020026020010181905250611fae6003600160405180602001604052806000815250612a8c565b81600481518110611fcf57634e487b7160e01b600052603260045260246000fd5b602002602001018190525060006040518060600160405280600063ffffffff168152602001846001600160a01b03168152602001627a120063ffffffff16815250905060006040518061012001604052806001805461202d906158d8565b80601f0160208091040260200160405190810160405280929190818152602001828054612059906158d8565b80156120a65780601f1061207b576101008083540402835291602001916120a6565b820191906000526020600020905b81548152906001019060200180831161208957829003601f168201915b50505050508152602001600280546120bd906158d8565b80601f01602080910402602001604051908101604052809291908181526020018280546120e9906158d8565b80156121365780601f1061210b57610100808354040283529160200191612136565b820191906000526020600020905b81548152906001019060200180831161211957829003601f168201915b50505050508152602001856001600160a01b031681526020016003805461215c906158d8565b80601f0160208091040260200160405190810160405280929190818152602001828054612188906158d8565b80156121d55780601f106121aa576101008083540402835291602001916121d5565b820191906000526020600020905b8154815290600101906020018083116121b857829003601f168201915b505050918352505060016020820152600454600160401b8104600790810b900b6040830152600160a01b900460ff16151560608201526080810185905260a001839052905060008061112a836133a5565b600061223384848461348f565b90506000805160206159b88339815191528160405161225491815260200190565b60405180910390a16016811461226957600080fd5b9392505050565b604051632c9eb74160e11b8152600090309063593d6e8290612298908690869060040161525a565b602060405180830381600087803b1580156122b257600080fd5b505af11580156122c6573d6000803e3d6000fd5b505050506040513d601f19601f82011682018060405250810190611abb9190614837565b600061223384848461357a565b6000806000806101676001600160a01b031663f2c31ff460e01b8787604051602401612324929190615240565b60408051601f198184030181529181526020820180516001600160e01b03166001600160e01b03199094169390931790925290516123629190615224565b6000604051808303816000865af19150503d806000811461239f576040519150601f19603f3d011682016040523d82523d6000602084013e6123a4565b606091505b5091509150816123b75760156000611e2a565b80806020019051810190611e2a919061494b565b60006123d56138a8565b6123de836135b8565b60405182815291935091506000805160206159b88339815191529060200160405180910390a16016821461241157600080fd5b7fbdb65f8c2a2e9a3a37ea49e903836883766a922e4ce9b21f684035e304962d4181604051610d5c91906155e4565b6000611abb8383613688565b604051633b3bff0f60e01b81526001600160a01b03821660048201526000903090633b3bff0f90602401602060405180830381600087803b15801561249057600080fd5b505af11580156124a4573d6000803e3d6000fd5b505050506040513d601f19601f820116820180604052508101906124c89190614837565b90506000805160206159b8833981519152816040516124e991815260200190565b60405180910390a1601681146124fe57600080fd5b604051600181527f319ab7084208e4afa38c6e6ff7aea9587439f2e4700746f4c7d425fea17426d290602001610b9b565b60006122338484846136b4565b6004805460ff60a01b1916600160a01b8315158102919091179182905560405160ff9190920416151581527f457c3a16a0ebdc38e3675609957ca3fcc4490e220bd15d85d34f58e2e145cb089060200160405180910390a150565b604080516000808252602082019092528190816125dc565b60408051606081018252600080825260208083018290529282015282526000199092019101816125af5790505b50905060006040518060400160405280336001600160a01b031681526020018561260590615913565b600790810b9091526040805180820182526001600160a01b038a1681529187900b602083015280516002808252606082019092529293509091600091816020015b6040805180820190915260008082526020820152815260200190600190039081612646579050509050828160008151811061269157634e487b7160e01b600052603260045260246000fd5b602002602001018190525081816001815181106126be57634e487b7160e01b600052603260045260246000fd5b602090810291909101810191909152604080516060810182526001600160a01b038a16815291820183905281810186905280516001808252818301909252600091816020015b612731604051806060016040528060006001600160a01b0316815260200160608152602001606081525090565b815260200190600190039081612704579050509050818160008151811061276857634e487b7160e01b600052603260045260246000fd5b602002602001018190525061277c8161334d565b96506016871461278b57600080fd5b5050505050509392505050565b604080516001600160a01b0385811660248301528481166044830152831660648083019190915282518083039091018152608490910182526020810180516001600160e01b031663f49f40db60e01b17905290516000918291829182916101679161280291615224565b6000604051808303816000865af19150503d806000811461283f576040519150601f19603f3d011682016040523d82523d6000602084013e612844565b606091505b509150915081612857576015600061286b565b8080602001905181019061286b919061494b565b60039190910b9890975095505050505050565b604080516001600160a01b0384166024820152604480820184905282518083039091018152606490910182526020810180516001600160e01b03166304c791b360e11b1790529051600091829182918291610167916128dc91615224565b6000604051808303816000865af19150503d8060008114612919576040519150601f19603f3d011682016040523d82523d6000602084013e61291e565b606091505b5091509150816129315760156000611e2a565b80806020019051810190611e2a919061488c565b60008060006101676001600160a01b03166352f9138760e01b8686604051602401610987929190615240565b6040516001600160a01b03821660248201526000908190819081906101679063a7daa18d60e01b906044015b60408051601f198184030181529181526020820180516001600160e01b03166001600160e01b03199094169390931790925290516129db9190615224565b6000604051808303816000865af19150503d8060008114612a18576040519150601f19603f3d011682016040523d82523d6000602084013e612a1d565b606091505b509150915081612a305760156000612a44565b80806020019051810190612a44919061494b565b60039190910b969095509350505050565b612a5d61382e565b6040518060400160405280612a7287876136f1565b8152602001612a81858561370a565b905295945050505050565b612a9461382e565b6040518060400160405280612aa88661379c565b8152602001612ab7858561370a565b9052949350505050565b600080848061010001516000015163ffffffff166000148015612af157506101008101516040015163ffffffff16155b15612b07576101008101516276a7006040909101525b6000806101676001600160a01b03163463c23baeb660e01b8a8a8a604051602401612b3493929190615539565b60408051601f198184030181529181526020820180516001600160e01b03166001600160e01b0319909416939093179092529051612b729190615224565b60006040518083038185875af1925050503d8060008114612baf576040519150601f19603f3d011682016040523d82523d6000602084013e612bb4565b606091505b509150915081612bc75760156000612bdb565b80806020019051810190612bdb919061488c565b60039190910b999098509650505050505050565b6040516001600160a01b038581166024830152848116604483015283166064820152600782900b6084820152600090819081906101679063eca3691760e01b9060a4015b60408051601f198184030181529181526020820180516001600160e01b03166001600160e01b0319909416939093179092529051612c719190615224565b6000604051808303816000865af19150503d8060008114612cae576040519150601f19603f3d011682016040523d82523d6000602084013e612cb3565b606091505b509150915081612cc4576015612cd8565b80806020019051810190612cd89190614872565b60030b979650505050505050565b6000612cf061384d565b604080516001600160a01b0386166024820152600785900b60448083019190915282518083039091018152606490910182526020810180516001600160e01b031663050fc3b560e31b1790529051600091829161016791612d5091615224565b6000604051808303816000865af19150503d8060008114612d8d576040519150601f19603f3d011682016040523d82523d6000602084013e612d92565b606091505b5091509150612d9f61384d565b82612dac5760158161286b565b8180602001905181019061286b9190614a47565b604080516001600160a01b0385811660248301528481166044830152831660648083019190915282518083039091018152608490910182526020810180516001600160e01b031663927da10560e01b179052905160009182918291829161016791612e2a91615224565b6000604051808303816000865af19150503d8060008114612e67576040519150601f19603f3d011682016040523d82523d6000602084013e612e6c565b606091505b509150915081612e7f576015600061286b565b8080602001905181019061286b9190614b74565b604080516001600160a01b03831660248083019190915282518083039091018152604490910182526020810180516001600160e01b0316630573b08d60e51b1790529051600091606091829182918591829161016791612ef291615224565b6000604051808303816000865af19150503d8060008114612f2f576040519150601f19603f3d011682016040523d82523d6000602084013e612f34565b606091505b5091509150606080606084612f4d576015838383612f61565b83806020019051810190612f6191906148b7565b60039390930b9d919c509a509098509650505050505050565b6000612f84613888565b604080516001600160a01b03851660248083019190915282518083039091018152604490910182526020810180516001600160e01b0316633f28a19b60e01b1790529051600091829161016791612fda91615224565b6000604051808303816000865af19150503d8060008114613017576040519150601f19603f3d011682016040523d82523d6000602084013e61301c565b606091505b5091509150613029613888565b8261303657601581611e2a565b81806020019051810190611e2a91906149a0565b6000806000806101676001600160a01b03166346de0fb160e01b8787604051602401612324929190615240565b6040516001600160a01b038581166024830152848116604483015283166064820152600782900b60848201526000908190819061016790635cfc901160e01b9060a401612c33565b60008060006101676001600160a01b0316635b8f858460e01b8686604051602401610987929190615240565b60008060606000806101676001600160a01b031663278e0b8860e01b89898960405160240161311c9392919061529b565b60408051601f198184030181529181526020820180516001600160e01b03166001600160e01b031990941693909317909252905161315a9190615224565b6000604051808303816000865af19150503d8060008114613197576040519150601f19603f3d011682016040523d82523d6000602084013e61319c565b606091505b5091509150816131bf5760408051600080825260208201909252601591906131d3565b808060200190518101906131d39190614b9f565b60039290920b9a90995090975095505050505050565b6040516001600160a01b03821660248201526000908190819081906101679063335e04c160e01b9060440161299d565b600080868061010001516000015163ffffffff16600014801561324957506101008101516040015163ffffffff16155b1561325f576101008101516276a7006040909101525b6000806101676001600160a01b03163463b937581a60e01b8c8c8c8c8c604051602401613290959493929190615571565b60408051601f198184030181529181526020820180516001600160e01b03166001600160e01b03199094169390931790925290516132ce9190615224565b60006040518083038185875af1925050503d806000811461330b576040519150601f19603f3d011682016040523d82523d6000602084013e613310565b606091505b5091509150816133235760156000613337565b80806020019051810190613337919061488c565b60039190910b9b909a5098505050505050505050565b60008060006101676001600160a01b031663189a554c60e01b85604051602401610c3f9190615355565b6040516001600160a01b03821660248201526000908190819061016790637834fb8960e11b90604401610c3f565b600080828061010001516000015163ffffffff1660001480156133d557506101008101516040015163ffffffff16155b156133eb576101008101516276a7006040909101525b6000806101676001600160a01b031634639c89bb3560e01b886040516024016134149190615526565b60408051601f198184030181529181526020820180516001600160e01b03166001600160e01b03199094169390931790925290516134529190615224565b60006040518083038185875af1925050503d8060008114612919576040519150601f19603f3d011682016040523d82523d6000602084013e61291e565b6040516001600160a01b038481166024830152831660448201526064810182905260009081908190610167906307336aaf60e41b906084015b60408051601f198184030181529181526020820180516001600160e01b03166001600160e01b03199094169390931790925290516135069190615224565b6000604051808303816000865af19150503d8060008114613543576040519150601f19603f3d011682016040523d82523d6000602084013e613548565b606091505b50915091508161355957601561356d565b8080602001905181019061356d9190614872565b60030b9695505050505050565b6040516001600160a01b0384811660248301528316604482015281151560648201526000908190819061016790631b3b02e560e11b906084016134c8565b60006135c26138a8565b604080516001600160a01b03851660248083019190915282518083039091018152604490910182526020810180516001600160e01b0316631f69565f60e01b179052905160009182916101679161361891615224565b6000604051808303816000865af19150503d8060008114613655576040519150601f19603f3d011682016040523d82523d6000602084013e61365a565b606091505b50915091506136676138a8565b8261367457601581611e2a565b81806020019051810190611e2a9190614b29565b60008060006101676001600160a01b03166349146bde60e01b8686604051602401610987929190615240565b6040516001600160a01b0384811660248301528316604482015260648101829052600090819081906101679063e1f21c6760e01b906084016134c8565b6000600160ff84161b9050600160ff83161b8117612269565b613712613909565b8260ff166001141561372757600181526108d7565b8260ff1660021415613749576000546001600160a01b031660208201526108d7565b8260ff166003141561376157604081018290526108d7565b8260ff166004141561377957606081018290526108d7565b8260ff16600514156108d7576000546001600160a01b0316608082015292915050565b600060ff82166137ae57506001919050565b8160ff16600114156137c257506002919050565b8160ff16600214156137d657506004919050565b8160ff16600314156137ea57506008919050565b8160ff16600414156137fe57506010919050565b8160ff166005141561381257506020919050565b8160ff166006141561382657506040919050565b506000919050565b604051806040016040528060008152602001613848613909565b905290565b6040518060c001604052806138606138a8565b8152600060208201819052604082018190526060808301829052608083015260a09091015290565b604051806040016040528061389b6138a8565b8152600060209091015290565b6040518061012001604052806138bc61394c565b815260200160006001600160401b03168152602001600015158152602001600015158152602001600015158152602001606081526020016060815260200160608152602001606081525090565b6040518060a0016040528060001515815260200160006001600160a01b03168152602001606081526020016060815260200160006001600160a01b031681525090565b604051806101200160405280606081526020016060815260200160006001600160a01b0316815260200160608152602001600015158152602001600060070b815260200160001515815260200160608152602001613848604080516060810182526000808252602082018190529181019190915290565b8035611b1d8161595b565b8051611b1d8161595b565b600082601f8301126139e9578081fd5b815160206139fe6139f9836156fa565b6156ca565b8281528181019085830160a080860288018501891015613a1c578687fd5b865b86811015613aa55781838b031215613a34578788fd5b613a3c615619565b8351613a4781615990565b815283870151613a568161595b565b81880152604084810151613a6981615973565b90820152606084810151613a7c81615973565b90820152608084810151613a8f8161595b565b9082015285529385019391810191600101613a1e565b509198975050505050505050565b600082601f830112613ac3578081fd5b81516020613ad36139f9836156fa565b8281528181019085830160c080860288018501891015613af1578687fd5b865b86811015613aa55781838b031215613b09578788fd5b613b11615641565b8351613b1c81615990565b815283870151613b2b81615990565b81880152604084810151613b3e81615990565b90820152606084810151613b5181615990565b90820152608084810151613b6481615973565b9082015260a084810151613b778161595b565b9082015285529385019391810191600101613af3565b600082601f830112613b9d578081fd5b81356020613bad6139f9836156fa565b82815281810190858301606080860288018501891015613bcb578687fd5b865b86811015613aa55781838b031215613be3578788fd5b613beb615663565b8335613bf68161595b565b815283870135613c058161595b565b81880152604084810135613c1881615981565b9082015285529385019391810191600101613bcd565b600082601f830112613c3e578081fd5b81516020613c4e6139f9836156fa565b8281528181019085830160c080860288018501891015613c6c578687fd5b865b86811015613aa55781838b031215613c84578788fd5b613c8c615641565b8351613c9781615990565b815283870151613ca681615990565b81880152604084810151613cb981615990565b90820152606084810151613ccc8161595b565b90820152608084810151613cdf81615973565b9082015260a084810151613cf28161595b565b9082015285529385019391810191600101613c6e565b600082601f830112613d18578081fd5b81356020613d286139f9836156fa565b80838252828201915082860187848660051b8901011115613d47578586fd5b855b85811015613e535781356001600160401b0380821115613d67578889fd5b90890190601f196040838d0382011215613d7f57898afd5b613d87615685565b888401358152604084013583811115613d9e578b8cfd5b939093019260a0848e0383011215613db4578a8bfd5b613dbc615619565b915088840135613dcb81615973565b8252613dd9604085016139c3565b89830152606084013583811115613dee578b8cfd5b613dfc8e8b83880101613fc1565b604084015250608084013583811115613e13578b8cfd5b613e218e8b83880101613fc1565b606084015250613e3360a085016139c3565b608083015280890191909152865250509284019290840190600101613d49565b5090979650505050505050565b600082601f830112613e70578081fd5b81516020613e806139f9836156fa565b80838252828201915082860187848660051b8901011115613e9f578586fd5b855b85811015613e535781516001600160401b0380821115613ebf578889fd5b90890190601f196040838d0382011215613ed757898afd5b613edf615685565b888401518152604084015183811115613ef6578b8cfd5b939093019260a0848e0383011215613f0c578a8bfd5b613f14615619565b915088840151613f2381615973565b8252613f31604085016139ce565b89830152606084015183811115613f46578b8cfd5b613f548e8b8388010161400d565b604084015250608084015183811115613f6b578b8cfd5b613f798e8b8388010161400d565b606084015250613f8b60a085016139ce565b608083015280890191909152865250509284019290840190600101613ea1565b8035611b1d81615973565b8051611b1d81615973565b600082601f830112613fd1578081fd5b8135613fdf6139f98261571d565b818152846020838601011115613ff3578283fd5b816020850160208301379081016020019190915292915050565b600082601f83011261401d578081fd5b815161402b6139f98261571d565b81815284602083860101111561403f578283fd5b6111c48260208301602087016158a8565b8051600381900b8114611b1d57600080fd5b8035611b1d81615981565b8051611b1d81615981565b600060608284031215614089578081fd5b614091615663565b9050813561409e81615990565b815260208201356140ae8161595b565b602082015260408201356140c181615990565b604082015292915050565b6000606082840312156140dd578081fd5b6140e5615663565b905081516140f281615990565b815260208201516141028161595b565b602082015260408201516140c181615990565b60006101608284031215614127578081fd5b61412f6156a7565b905081516001600160401b038082111561414857600080fd5b6141548583860161400d565b8352602084015191508082111561416a57600080fd5b6141768583860161400d565b6020840152614187604085016139ce565b604084015260608401519150808211156141a057600080fd5b6141ac8583860161400d565b60608401526141bd60808501613fb6565b60808401526141ce60a0850161406d565b60a08401526141df60c08501613fb6565b60c084015260e08401519150808211156141f857600080fd5b5061420584828501613e60565b60e08301525061010061421a848285016140cc565b9082015292915050565b60006101208284031215614236578081fd5b61423e6156a7565b905081516001600160401b038082111561425757600080fd5b61426385838601614115565b835261427160208501614347565b602084015261428260408501613fb6565b604084015261429360608501613fb6565b60608401526142a460808501613fb6565b608084015260a08401519150808211156142bd57600080fd5b6142c9858386016139d9565b60a084015260c08401519150808211156142e257600080fd5b6142ee85838601613ab3565b60c084015260e084015191508082111561430757600080fd5b61431385838601613c2e565b60e08401526101009150818401518181111561432e57600080fd5b61433a8682870161400d565b8385015250505092915050565b8051611b1d816159a2565b600060208284031215614363578081fd5b81356122698161595b565b60008060408385031215614380578081fd5b823561438b8161595b565b9150602083013561439b8161595b565b809150509250929050565b6000806000606084860312156143ba578081fd5b83356143c58161595b565b925060208401356143d58161595b565b915060408401356143e58161595b565b809150509250925092565b60008060008060808587031215614405578182fd5b84356144108161595b565b935060208501356144208161595b565b925060408501356144308161595b565b9150606085013561444081615981565b939692955090935050565b60008060006060848603121561445f578081fd5b833561446a8161595b565b9250602084013561447a8161595b565b915060408401356143e581615973565b60008060006060848603121561449e578081fd5b83356144a98161595b565b925060208401356144b98161595b565b915060408401356143e581615981565b6000806000606084860312156144dd578081fd5b83356144e88161595b565b925060208401356144f88161595b565b929592945050506040919091013590565b6000806040838503121561451b578182fd5b82356145268161595b565b9150602083013561439b81615981565b60008060808385031215614548578182fd5b82356145538161595b565b91506145628460208501614078565b90509250929050565b6000806040838503121561457d578182fd5b82356145888161595b565b915060208301356001600160401b03808211156145a3578283fd5b9084019061016082870312156145b7578283fd5b6145bf6156a7565b8235828111156145cd578485fd5b6145d988828601613fc1565b8252506020830135828111156145ed578485fd5b6145f988828601613fc1565b60208301525061460b604084016139c3565b6040820152606083013582811115614621578485fd5b61462d88828601613fc1565b60608301525061463f60808401613fab565b608082015261465060a08401614062565b60a082015261466160c08401613fab565b60c082015260e083013582811115614677578485fd5b61468388828601613d08565b60e083015250610100915061469a87838501614078565b828201528093505050509250929050565b600080604083850312156146bd578182fd5b82356146c88161595b565b946020939093013593505050565b6000806000606084860312156146ea578081fd5b83356146f58161595b565b9250602084810135614706816159a2565b925060408501356001600160401b0380821115614721578384fd5b818701915087601f830112614734578384fd5b81356147426139f9826156fa565b8082825285820191508585018b878560051b8801011115614761578788fd5b875b8481101561479a5781358681111561477957898afd5b6147878e8a838b0101613fc1565b8552509287019290870190600101614763565b50508096505050505050509250925092565b600080602083850312156147be578182fd5b82356001600160401b03808211156147d4578384fd5b818501915085601f8301126147e7578384fd5b8135818111156147f5578485fd5b8660208260051b8501011115614809578485fd5b60209290920196919550909350505050565b60006020828403121561482c578081fd5b813561226981615973565b600060208284031215614848578081fd5b5051919050565b60008060808385031215614861578182fd5b8251915061456284602085016140cc565b600060208284031215614883578081fd5b61226982614050565b6000806040838503121561489e578182fd5b6148a783614050565b9150602083015161439b8161595b565b600080600080608085870312156148cc578182fd5b6148d585614050565b935060208501516001600160401b03808211156148f0578384fd5b6148fc888389016139d9565b94506040870151915080821115614911578384fd5b61491d88838901613ab3565b93506060870151915080821115614932578283fd5b5061493f87828801613c2e565b91505092959194509250565b6000806040838503121561495d578182fd5b61496683614050565b9150602083015161439b81615973565b60008060808385031215614988578182fd5b61499183614050565b915061456284602085016140cc565b600080604083850312156149b2578182fd5b6149bb83614050565b915060208301516001600160401b03808211156149d6578283fd5b90840190604082870312156149e9578283fd5b604051604081018181108382111715614a0457614a04615945565b604052825182811115614a15578485fd5b614a2188828601614224565b82525060208301519250614a3483615990565b8260208201528093505050509250929050565b60008060408385031215614a59578182fd5b614a6283614050565b915060208301516001600160401b0380821115614a7d578283fd5b9084019060c08287031215614a90578283fd5b614a98615641565b825182811115614aa6578485fd5b614ab288828601614224565b825250614ac16020840161406d565b6020820152614ad2604084016139ce565b6040820152614ae36060840161406d565b6060820152608083015182811115614af9578485fd5b614b058882860161400d565b608083015250614b1760a084016139ce565b60a08201528093505050509250929050565b60008060408385031215614b3b578182fd5b614b4483614050565b915060208301516001600160401b03811115614b5e578182fd5b614b6a85828601614224565b9150509250929050565b60008060408385031215614b86578182fd5b614b8f83614050565b9150602083015190509250929050565b600080600060608486031215614bb3578081fd5b614bbc84614050565b9250602080850151614bcd816159a2565b60408601519093506001600160401b03811115614be8578283fd5b8501601f81018713614bf8578283fd5b8051614c066139f9826156fa565b8082825284820191508484018a868560051b8701011115614c25578687fd5b8694505b83851015614c50578051614c3c81615981565b835260019490940193918501918501614c29565b5080955050505050509250925092565b600060208284031215614c71578081fd5b815161226981615981565b60008060408385031215614c8e578182fd5b8251614c9981615981565b602084015190925061439b81615973565b6000815180845260208085019450808401835b83811015614cdc57815160070b87529582019590820190600101614cbd565b509495945050505050565b6000815180845260208085019450808401835b83811015614cdc578151805163ffffffff168852838101516001600160a01b03908116858a01526040808301511515908a01526060808301511515908a0152608091820151169088015260a09096019590820190600101614cfa565b6000815180845260208085019450808401835b83811015614cdc578151805163ffffffff9081168952848201518116858a01526040808301518216908a01526060808301519091169089015260808082015115159089015260a0908101516001600160a01b03169088015260c09096019590820190600101614d69565b6000815180845260208085019450808401835b83811015614cdc57815180516001600160a01b03908116895284820151168489015260409081015160070b9088015260609096019590820190600101614de6565b6000815180845260208085019450808401835b83811015614cdc578151805163ffffffff9081168952848201518116858a0152604080830151909116908901526060808201516001600160a01b03908116918a01919091526080808301511515908a015260a091820151169088015260c09096019590820190600101614e3a565b600081518084526020808501808196508360051b81019150828601855b85811015614f5d57828403895281516040815186528682015191508087870152815115158187015286820151606060018060a01b03808316828a015283850151935060a09250608083818b0152614f1f60e08b0186614f6a565b928601518a8403603f1901858c0152929450614f3b8584614f6a565b9501511660c09890980197909752505098850198935090840190600101614ec5565b5091979650505050505050565b60008151808452614f828160208601602086016158a8565b601f01601f19169290920160200192915050565b805163ffffffff90811683526020808301516001600160a01b03169084015260409182015116910152565b6000815160408452614fd66040850182615144565b60209384015163ffffffff16949093019390935250919050565b6000610160825181855261500682860182614f6a565b915050602083015184820360208601526150208282614f6a565b915050604083015161503d60408601826001600160a01b03169052565b50606083015184820360608601526150558282614f6a565b915050608083015161506b608086018215159052565b5060a083015161508060a086018260070b9052565b5060c083015161509460c086018215159052565b5060e083015184820360e08601526150ac8282614ea8565b915050610100808401516150c282870182614f96565b5090949350505050565b6000815160c084526150e160c0850182615144565b9050602083015160070b6020850152604083015160018060a01b038082166040870152606085015160070b606087015260808501519150858303608087015261512a8383614f6a565b92508060a08601511660a087015250508091505092915050565b6000610120825181855261515a82860182614ff0565b915050602083015161517760208601826001600160401b03169052565b50604083015161518b604086018215159052565b50606083015161519f606086018215159052565b5060808301516151b3608086018215159052565b5060a083015184820360a08601526151cb8282614ce7565b91505060c083015184820360c08601526151e58282614d56565b91505060e083015184820360e08601526151ff8282614e27565b915050610100808401518583038287015261521a8382614f6a565b9695505050505050565b600082516152368184602087016158a8565b9190910192915050565b6001600160a01b0392831681529116602082015260400190565b6001600160a01b0383168152608081016122696020830184614f96565b6001600160a01b03831681526040602082018190526000906111c490830184614ff0565b60006060820160018060a01b038616835260206001600160401b038616818501526060604085015281855180845260808601915060808160051b8701019350828701855b8281101561530d57607f198887030184526152fb868351614f6a565b955092840192908401906001016152df565b50939998505050505050505050565b60608152600061532f6060830186614ce7565b82810360208401526153418186614d56565b9050828103604084015261521a8185614e27565b60006020808301818452808551808352604092508286019150828160051b870101848801865b8381101561541a57888303603f19018552815180516001600160a01b0390811685528882015160608a870181905281519087018190526080870192918b0191908c905b808210156153ec5783518051841686528d015160070b8d860152938b0193928c0192600191909101906153be565b505050509087015184820385890152906154068183614dd3565b96890196945050509086019060010161537b565b509098975050505050505050565b828152608081016122696020830184614f96565b8281526040602082015260006111c46040830184614fc1565b8281526040602082015260006111c460408301846150cc565b8281526040602082015260006111c46040830184615144565b8381526001600160401b03831660208201526060604082015260006154af6060830184614caa565b95945050505050565b8460070b81526080602082015260006154d46080830186614ce7565b82810360408401526154e68186614d56565b905082810360608401526154fa8185614e27565b979650505050505050565b606081016108d78284614f96565b6020815260006122696020830184614fc1565b6020815260006122696020830184614ff0565b60608152600061554c6060830186614ff0565b90506001600160401b038416602083015263ffffffff83166040830152949350505050565b60a08152600061558460a0830188614ff0565b6001600160401b038716602084015263ffffffff8616604084015282810360608401526155b18186614ce7565b905082810360808401526155c58185614d56565b98975050505050505050565b60208152600061226960208301846150cc565b6020815260006122696020830184615144565b6001600160401b03831681526040602082015260006111c46040830184614caa565b60405160a081016001600160401b038111828210171561563b5761563b615945565b60405290565b60405160c081016001600160401b038111828210171561563b5761563b615945565b604051606081016001600160401b038111828210171561563b5761563b615945565b604080519081016001600160401b038111828210171561563b5761563b615945565b60405161012081016001600160401b038111828210171561563b5761563b615945565b604051601f8201601f191681016001600160401b03811182821017156156f2576156f2615945565b604052919050565b60006001600160401b0382111561571357615713615945565b5060051b60200190565b60006001600160401b0382111561573657615736615945565b50601f01601f191660200190565b60006157526139f9846156fa565b808482526020808301925084368760051b8701111561576f578485fd5b845b8781101561589c5781356001600160401b038082111561578f578788fd5b8189019150606082360312156157a3578788fd5b6157ab615663565b82356157b68161595b565b815282860135828111156157c857898afd5b830136601f8201126157d857898afd5b80356157e66139f9826156fa565b81815288810190838a0136600685901b86018c011115615804578d8efd5b8d94505b83851015615859576040808236031215615820578e8ffd5b615828615685565b82356158338161595b565b8152828d013561584281615981565b818e0152845260019590950194928b019201615808565b50848a01525060409150508381013583811115615874578a8bfd5b61588036828701613b8d565b9183019190915250875250509382019390820190600101615771565b50919695505050505050565b60005b838110156158c35781810151838201526020016158ab565b838111156158d2576000848401525b50505050565b600181811c908216806158ec57607f821691505b6020821081141561590d57634e487b7160e01b600052602260045260246000fd5b50919050565b60008160070b677fffffffffffffff1981141561593e57634e487b7160e01b82526011600452602482fd5b9003919050565b634e487b7160e01b600052604160045260246000fd5b6001600160a01b038116811461597057600080fd5b50565b801515811461597057600080fd5b8060070b811461597057600080fd5b63ffffffff8116811461597057600080fd5b6001600160401b038116811461597057600080fdfe90a5cf4cffe88b4edbb041cfc7a8a812c48a5ec30b84640fb37690875168e3aaa26469706673582212201a340d8acb3946110f93c5e5be41ceb1f67b2e7095d46e4e2a45e4879c18a2cc64736f6c63430008040033",
  "linkReferences": {},
  "deployedLinkReferences": {}
}