{
  "_format": "hh-sol-artifact-1",
  "contractName": "BaseHTS",
  "sourceName": "contracts/BaseHTS.sol",
  "abi": [
    {
      "anonymous": false,
      "inputs": [
        {
          "indexed": false,
          "internalType": "uint256",
          "name": "amount",
          "type": "uint256"
        }
      ],
      "name": "AllowanceValue",
      "type": "event"
    },
    {
      "anonymous": false,
      "inputs": [
        {
          "indexed": false,
          "internalType": "bool",
          "name": "approved",
          "type": "bool"
        }
      ],
      "name": "Approved",
      "type": "event"
    },
    {
      "anonymous": false,
      "inputs": [
        {
          "indexed": false,
          "internalType": "address",
          "name": "approved",
          "type": "address"
        }
      ],
      "name": "ApprovedAddress",
      "type": "event"
    },
    {
      "anonymous": false,
      "inputs": [
        {
          "indexed": false,
          "internalType": "address",
          "name": "tokenAddress",
          "type": "address"
        }
      ],
      "name": "CreatedToken",
      "type": "event"
    },
    {
      "anonymous": false,
      "inputs": [
        {
          "indexed": false,
          "internalType": "bool",
          "name": "frozen",
          "type": "bool"
        }
      ],
      "name": "Frozen",
      "type": "event"
    },
    {
      "anonymous": false,
      "inputs": [
        {
          "components": [
            {
              "components": [
                {
                  "components": [
                    {
                      "internalType": "string",
                      "name": "name",
                      "type": "string"
                    },
                    {
                      "internalType": "string",
                      "name": "symbol",
                      "type": "string"
                    },
                    {
                      "internalType": "address",
                      "name": "treasury",
                      "type": "address"
                    },
                    {
                      "internalType": "string",
                      "name": "memo",
                      "type": "string"
                    },
                    {
                      "internalType": "bool",
                      "name": "tokenSupplyType",
                      "type": "bool"
                    },
                    {
                      "internalType": "uint32",
                      "name": "maxSupply",
                      "type": "uint32"
                    },
                    {
                      "internalType": "bool",
                      "name": "freezeDefault",
                      "type": "bool"
                    },
                    {
                      "components": [
                        {
                          "internalType": "uint256",
                          "name": "keyType",
                          "type": "uint256"
                        },
                        {
                          "components": [
                            {
                              "internalType": "bool",
                              "name": "inheritAccountKey",
                              "type": "bool"
                            },
                            {
                              "internalType": "address",
                              "name": "contractId",
                              "type": "address"
                            },
                            {
                              "internalType": "bytes",
                              "name": "ed25519",
                              "type": "bytes"
                            },
                            {
                              "internalType": "bytes",
                              "name": "ECDSA_secp256k1",
                              "type": "bytes"
                            },
                            {
                              "internalType": "address",
                              "name": "delegatableContractId",
                              "type": "address"
                            }
                          ],
                          "internalType": "struct IHederaTokenService.KeyValue",
                          "name": "key",
                          "type": "tuple"
                        }
                      ],
                      "internalType": "struct IHederaTokenService.TokenKey[]",
                      "name": "tokenKeys",
                      "type": "tuple[]"
                    },
                    {
                      "components": [
                        {
                          "internalType": "uint32",
                          "name": "second",
                          "type": "uint32"
                        },
                        {
                          "internalType": "address",
                          "name": "autoRenewAccount",
                          "type": "address"
                        },
                        {
                          "internalType": "uint32",
                          "name": "autoRenewPeriod",
                          "type": "uint32"
                        }
                      ],
                      "internalType": "struct IHederaTokenService.Expiry",
                      "name": "expiry",
                      "type": "tuple"
                    }
                  ],
                  "internalType": "struct IHederaTokenService.HederaToken",
                  "name": "hedera",
                  "type": "tuple"
                },
                {
                  "components": [
                    {
                      "internalType": "uint32",
                      "name": "amount",
                      "type": "uint32"
                    },
                    {
                      "internalType": "address",
                      "name": "tokenId",
                      "type": "address"
                    },
                    {
                      "internalType": "bool",
                      "name": "useHbarsForPayment",
                      "type": "bool"
                    },
                    {
                      "internalType": "bool",
                      "name": "useCurrentTokenForPayment",
                      "type": "bool"
                    },
                    {
                      "internalType": "address",
                      "name": "feeCollector",
                      "type": "address"
                    }
                  ],
                  "internalType": "struct IHederaTokenService.FixedFee[]",
                  "name": "fixedFees",
                  "type": "tuple[]"
                },
                {
                  "components": [
                    {
                      "internalType": "uint32",
                      "name": "numerator",
                      "type": "uint32"
                    },
                    {
                      "internalType": "uint32",
                      "name": "denominator",
                      "type": "uint32"
                    },
                    {
                      "internalType": "uint32",
                      "name": "minimumAmount",
                      "type": "uint32"
                    },
                    {
                      "internalType": "uint32",
                      "name": "maximumAmount",
                      "type": "uint32"
                    },
                    {
                      "internalType": "bool",
                      "name": "netOfTransfers",
                      "type": "bool"
                    },
                    {
                      "internalType": "address",
                      "name": "feeCollector",
                      "type": "address"
                    }
                  ],
                  "internalType": "struct IHederaTokenService.FractionalFee[]",
                  "name": "fractionalFees",
                  "type": "tuple[]"
                },
                {
                  "components": [
                    {
                      "internalType": "uint32",
                      "name": "numerator",
                      "type": "uint32"
                    },
                    {
                      "internalType": "uint32",
                      "name": "denominator",
                      "type": "uint32"
                    },
                    {
                      "internalType": "uint32",
                      "name": "amount",
                      "type": "uint32"
                    },
                    {
                      "internalType": "address",
                      "name": "tokenId",
                      "type": "address"
                    },
                    {
                      "internalType": "bool",
                      "name": "useHbarsForPayment",
                      "type": "bool"
                    },
                    {
                      "internalType": "address",
                      "name": "feeCollector",
                      "type": "address"
                    }
                  ],
                  "internalType": "struct IHederaTokenService.RoyaltyFee[]",
                  "name": "royaltyFees",
                  "type": "tuple[]"
                },
                {
                  "internalType": "bool",
                  "name": "defaultKycStatus",
                  "type": "bool"
                },
                {
                  "internalType": "bool",
                  "name": "deleted",
                  "type": "bool"
                },
                {
                  "internalType": "string",
                  "name": "ledgerId",
                  "type": "string"
                },
                {
                  "internalType": "bool",
                  "name": "pauseStatus",
                  "type": "bool"
                },
                {
                  "internalType": "uint64",
                  "name": "totalSupply",
                  "type": "uint64"
                }
              ],
              "internalType": "struct IHederaTokenService.TokenInfo",
              "name": "tokenInfo",
              "type": "tuple"
            },
            {
              "internalType": "uint32",
              "name": "decimals",
              "type": "uint32"
            }
          ],
          "indexed": false,
          "internalType": "struct IHederaTokenService.FungibleTokenInfo",
          "name": "tokenInfo",
          "type": "tuple"
        }
      ],
      "name": "FungibleTokenInfo",
      "type": "event"
    },
    {
      "anonymous": false,
      "inputs": [
        {
          "components": [
            {
              "internalType": "bool",
              "name": "inheritAccountKey",
              "type": "bool"
            },
            {
              "internalType": "address",
              "name": "contractId",
              "type": "address"
            },
            {
              "internalType": "bytes",
              "name": "ed25519",
              "type": "bytes"
            },
            {
              "internalType": "bytes",
              "name": "ECDSA_secp256k1",
              "type": "bytes"
            },
            {
              "internalType": "address",
              "name": "delegatableContractId",
              "type": "address"
            }
          ],
          "indexed": false,
          "internalType": "struct IHederaTokenService.KeyValue",
          "name": "key",
          "type": "tuple"
        }
      ],
      "name": "KeyValue",
      "type": "event"
    },
    {
      "anonymous": false,
      "inputs": [
        {
          "indexed": false,
          "internalType": "uint64",
          "name": "newTotalSupply",
          "type": "uint64"
        },
        {
          "indexed": false,
          "internalType": "int64[]",
          "name": "serialNumbers",
          "type": "int64[]"
        }
      ],
      "name": "MintedToken",
      "type": "event"
    },
    {
      "anonymous": false,
      "inputs": [
        {
          "components": [
            {
              "components": [
                {
                  "components": [
                    {
                      "internalType": "string",
                      "name": "name",
                      "type": "string"
                    },
                    {
                      "internalType": "string",
                      "name": "symbol",
                      "type": "string"
                    },
                    {
                      "internalType": "address",
                      "name": "treasury",
                      "type": "address"
                    },
                    {
                      "internalType": "string",
                      "name": "memo",
                      "type": "string"
                    },
                    {
                      "internalType": "bool",
                      "name": "tokenSupplyType",
                      "type": "bool"
                    },
                    {
                      "internalType": "uint32",
                      "name": "maxSupply",
                      "type": "uint32"
                    },
                    {
                      "internalType": "bool",
                      "name": "freezeDefault",
                      "type": "bool"
                    },
                    {
                      "components": [
                        {
                          "internalType": "uint256",
                          "name": "keyType",
                          "type": "uint256"
                        },
                        {
                          "components": [
                            {
                              "internalType": "bool",
                              "name": "inheritAccountKey",
                              "type": "bool"
                            },
                            {
                              "internalType": "address",
                              "name": "contractId",
                              "type": "address"
                            },
                            {
                              "internalType": "bytes",
                              "name": "ed25519",
                              "type": "bytes"
                            },
                            {
                              "internalType": "bytes",
                              "name": "ECDSA_secp256k1",
                              "type": "bytes"
                            },
                            {
                              "internalType": "address",
                              "name": "delegatableContractId",
                              "type": "address"
                            }
                          ],
                          "internalType": "struct IHederaTokenService.KeyValue",
                          "name": "key",
                          "type": "tuple"
                        }
                      ],
                      "internalType": "struct IHederaTokenService.TokenKey[]",
                      "name": "tokenKeys",
                      "type": "tuple[]"
                    },
                    {
                      "components": [
                        {
                          "internalType": "uint32",
                          "name": "second",
                          "type": "uint32"
                        },
                        {
                          "internalType": "address",
                          "name": "autoRenewAccount",
                          "type": "address"
                        },
                        {
                          "internalType": "uint32",
                          "name": "autoRenewPeriod",
                          "type": "uint32"
                        }
                      ],
                      "internalType": "struct IHederaTokenService.Expiry",
                      "name": "expiry",
                      "type": "tuple"
                    }
                  ],
                  "internalType": "struct IHederaTokenService.HederaToken",
                  "name": "hedera",
                  "type": "tuple"
                },
                {
                  "components": [
                    {
                      "internalType": "uint32",
                      "name": "amount",
                      "type": "uint32"
                    },
                    {
                      "internalType": "address",
                      "name": "tokenId",
                      "type": "address"
                    },
                    {
                      "internalType": "bool",
                      "name": "useHbarsForPayment",
                      "type": "bool"
                    },
                    {
                      "internalType": "bool",
                      "name": "useCurrentTokenForPayment",
                      "type": "bool"
                    },
                    {
                      "internalType": "address",
                      "name": "feeCollector",
                      "type": "address"
                    }
                  ],
                  "internalType": "struct IHederaTokenService.FixedFee[]",
                  "name": "fixedFees",
                  "type": "tuple[]"
                },
                {
                  "components": [
                    {
                      "internalType": "uint32",
                      "name": "numerator",
                      "type": "uint32"
                    },
                    {
                      "internalType": "uint32",
                      "name": "denominator",
                      "type": "uint32"
                    },
                    {
                      "internalType": "uint32",
                      "name": "minimumAmount",
                      "type": "uint32"
                    },
                    {
                      "internalType": "uint32",
                      "name": "maximumAmount",
                      "type": "uint32"
                    },
                    {
                      "internalType": "bool",
                      "name": "netOfTransfers",
                      "type": "bool"
                    },
                    {
                      "internalType": "address",
                      "name": "feeCollector",
                      "type": "address"
                    }
                  ],
                  "internalType": "struct IHederaTokenService.FractionalFee[]",
                  "name": "fractionalFees",
                  "type": "tuple[]"
                },
                {
                  "components": [
                    {
                      "internalType": "uint32",
                      "name": "numerator",
                      "type": "uint32"
                    },
                    {
                      "internalType": "uint32",
                      "name": "denominator",
                      "type": "uint32"
                    },
                    {
                      "internalType": "uint32",
                      "name": "amount",
                      "type": "uint32"
                    },
                    {
                      "internalType": "address",
                      "name": "tokenId",
                      "type": "address"
                    },
                    {
                      "internalType": "bool",
                      "name": "useHbarsForPayment",
                      "type": "bool"
                    },
                    {
                      "internalType": "address",
                      "name": "feeCollector",
                      "type": "address"
                    }
                  ],
                  "internalType": "struct IHederaTokenService.RoyaltyFee[]",
                  "name": "royaltyFees",
                  "type": "tuple[]"
                },
                {
                  "internalType": "bool",
                  "name": "defaultKycStatus",
                  "type": "bool"
                },
                {
                  "internalType": "bool",
                  "name": "deleted",
                  "type": "bool"
                },
                {
                  "internalType": "string",
                  "name": "ledgerId",
                  "type": "string"
                },
                {
                  "internalType": "bool",
                  "name": "pauseStatus",
                  "type": "bool"
                },
                {
                  "internalType": "uint64",
                  "name": "totalSupply",
                  "type": "uint64"
                }
              ],
              "internalType": "struct IHederaTokenService.TokenInfo",
              "name": "tokenInfo",
              "type": "tuple"
            },
            {
              "internalType": "int64",
              "name": "serialNumber",
              "type": "int64"
            },
            {
              "internalType": "address",
              "name": "ownerId",
              "type": "address"
            },
            {
              "internalType": "int32",
              "name": "creationTime",
              "type": "int32"
            },
            {
              "internalType": "bytes",
              "name": "metadata",
              "type": "bytes"
            },
            {
              "internalType": "address",
              "name": "spenderId",
              "type": "address"
            }
          ],
          "indexed": false,
          "internalType": "struct IHederaTokenService.NonFungibleTokenInfo",
          "name": "tokenInfo",
          "type": "tuple"
        }
      ],
      "name": "NonFungibleTokenInfo",
      "type": "event"
    },
    {
      "anonymous": false,
      "inputs": [
        {
          "indexed": false,
          "internalType": "bool",
          "name": "paused",
          "type": "bool"
        }
      ],
      "name": "PausedToken",
      "type": "event"
    },
    {
      "anonymous": false,
      "inputs": [
        {
          "indexed": false,
          "internalType": "int256",
          "name": "responseCode",
          "type": "int256"
        }
      ],
      "name": "ResponseCode",
      "type": "event"
    },
    {
      "anonymous": false,
      "inputs": [
        {
          "components": [
            {
              "components": [
                {
                  "internalType": "string",
                  "name": "name",
                  "type": "string"
                },
                {
                  "internalType": "string",
                  "name": "symbol",
                  "type": "string"
                },
                {
                  "internalType": "address",
                  "name": "treasury",
                  "type": "address"
                },
                {
                  "internalType": "string",
                  "name": "memo",
                  "type": "string"
                },
                {
                  "internalType": "bool",
                  "name": "tokenSupplyType",
                  "type": "bool"
                },
                {
                  "internalType": "uint32",
                  "name": "maxSupply",
                  "type": "uint32"
                },
                {
                  "internalType": "bool",
                  "name": "freezeDefault",
                  "type": "bool"
                },
                {
                  "components": [
                    {
                      "internalType": "uint256",
                      "name": "keyType",
                      "type": "uint256"
                    },
                    {
                      "components": [
                        {
                          "internalType": "bool",
                          "name": "inheritAccountKey",
                          "type": "bool"
                        },
                        {
                          "internalType": "address",
                          "name": "contractId",
                          "type": "address"
                        },
                        {
                          "internalType": "bytes",
                          "name": "ed25519",
                          "type": "bytes"
                        },
                        {
                          "internalType": "bytes",
                          "name": "ECDSA_secp256k1",
                          "type": "bytes"
                        },
                        {
                          "internalType": "address",
                          "name": "delegatableContractId",
                          "type": "address"
                        }
                      ],
                      "internalType": "struct IHederaTokenService.KeyValue",
                      "name": "key",
                      "type": "tuple"
                    }
                  ],
                  "internalType": "struct IHederaTokenService.TokenKey[]",
                  "name": "tokenKeys",
                  "type": "tuple[]"
                },
                {
                  "components": [
                    {
                      "internalType": "uint32",
                      "name": "second",
                      "type": "uint32"
                    },
                    {
                      "internalType": "address",
                      "name": "autoRenewAccount",
                      "type": "address"
                    },
                    {
                      "internalType": "uint32",
                      "name": "autoRenewPeriod",
                      "type": "uint32"
                    }
                  ],
                  "internalType": "struct IHederaTokenService.Expiry",
                  "name": "expiry",
                  "type": "tuple"
                }
              ],
              "internalType": "struct IHederaTokenService.HederaToken",
              "name": "hedera",
              "type": "tuple"
            },
            {
              "components": [
                {
                  "internalType": "uint32",
                  "name": "amount",
                  "type": "uint32"
                },
                {
                  "internalType": "address",
                  "name": "tokenId",
                  "type": "address"
                },
                {
                  "internalType": "bool",
                  "name": "useHbarsForPayment",
                  "type": "bool"
                },
                {
                  "internalType": "bool",
                  "name": "useCurrentTokenForPayment",
                  "type": "bool"
                },
                {
                  "internalType": "address",
                  "name": "feeCollector",
                  "type": "address"
                }
              ],
              "internalType": "struct IHederaTokenService.FixedFee[]",
              "name": "fixedFees",
              "type": "tuple[]"
            },
            {
              "components": [
                {
                  "internalType": "uint32",
                  "name": "numerator",
                  "type": "uint32"
                },
                {
                  "internalType": "uint32",
                  "name": "denominator",
                  "type": "uint32"
                },
                {
                  "internalType": "uint32",
                  "name": "minimumAmount",
                  "type": "uint32"
                },
                {
                  "internalType": "uint32",
                  "name": "maximumAmount",
                  "type": "uint32"
                },
                {
                  "internalType": "bool",
                  "name": "netOfTransfers",
                  "type": "bool"
                },
                {
                  "internalType": "address",
                  "name": "feeCollector",
                  "type": "address"
                }
              ],
              "internalType": "struct IHederaTokenService.FractionalFee[]",
              "name": "fractionalFees",
              "type": "tuple[]"
            },
            {
              "components": [
                {
                  "internalType": "uint32",
                  "name": "numerator",
                  "type": "uint32"
                },
                {
                  "internalType": "uint32",
                  "name": "denominator",
                  "type": "uint32"
                },
                {
                  "internalType": "uint32",
                  "name": "amount",
                  "type": "uint32"
                },
                {
                  "internalType": "address",
                  "name": "tokenId",
                  "type": "address"
                },
                {
                  "internalType": "bool",
                  "name": "useHbarsForPayment",
                  "type": "bool"
                },
                {
                  "internalType": "address",
                  "name": "feeCollector",
                  "type": "address"
                }
              ],
              "internalType": "struct IHederaTokenService.RoyaltyFee[]",
              "name": "royaltyFees",
              "type": "tuple[]"
            },
            {
              "internalType": "bool",
              "name": "defaultKycStatus",
              "type": "bool"
            },
            {
              "internalType": "bool",
              "name": "deleted",
              "type": "bool"
            },
            {
              "internalType": "string",
              "name": "ledgerId",
              "type": "string"
            },
            {
              "internalType": "bool",
              "name": "pauseStatus",
              "type": "bool"
            },
            {
              "internalType": "uint64",
              "name": "totalSupply",
              "type": "uint64"
            }
          ],
          "indexed": false,
          "internalType": "struct IHederaTokenService.TokenInfo",
          "name": "tokenInfo",
          "type": "tuple"
        }
      ],
      "name": "TokenInfo",
      "type": "event"
    },
    {
      "anonymous": false,
      "inputs": [
        {
          "indexed": false,
          "internalType": "bool",
          "name": "unpaused",
          "type": "bool"
        }
      ],
      "name": "UnpausedToken",
      "type": "event"
    },
    {
      "inputs": [
        {
          "internalType": "address",
          "name": "token",
          "type": "address"
        },
        {
          "internalType": "address",
          "name": "owner",
          "type": "address"
        },
        {
          "internalType": "address",
          "name": "spender",
          "type": "address"
        }
      ],
      "name": "allowancePublic",
      "outputs": [
        {
          "internalType": "int256",
          "name": "responseCode",
          "type": "int256"
        },
        {
          "internalType": "uint256",
          "name": "amount",
          "type": "uint256"
        }
      ],
      "stateMutability": "nonpayable",
      "type": "function"
    },
    {
      "inputs": [
        {
          "internalType": "address",
          "name": "token",
          "type": "address"
        },
        {
          "internalType": "address",
          "name": "spender",
          "type": "address"
        },
        {
          "internalType": "uint256",
          "name": "amount",
          "type": "uint256"
        }
      ],
      "name": "approvePublic",
      "outputs": [
        {
          "internalType": "int256",
          "name": "responseCode",
          "type": "int256"
        }
      ],
      "stateMutability": "nonpayable",
      "type": "function"
    },
    {
      "inputs": [
        {
          "internalType": "address",
          "name": "account",
          "type": "address"
        },
        {
          "internalType": "address",
          "name": "token",
          "type": "address"
        }
      ],
      "name": "associateTokenPublic",
      "outputs": [
        {
          "internalType": "int256",
          "name": "responseCode",
          "type": "int256"
        }
      ],
      "stateMutability": "nonpayable",
      "type": "function"
    },
    {
      "inputs": [
        {
          "internalType": "address",
          "name": "treasury",
          "type": "address"
        }
      ],
      "name": "createFungibleTokenPublic",
      "outputs": [],
      "stateMutability": "payable",
      "type": "function"
    },
    {
      "inputs": [
        {
          "internalType": "address",
          "name": "treasury",
          "type": "address"
        }
      ],
      "name": "createNonFungibleTokenPublic",
      "outputs": [],
      "stateMutability": "payable",
      "type": "function"
    },
    {
      "inputs": [
        {
          "internalType": "address",
          "name": "token",
          "type": "address"
        },
        {
          "internalType": "address",
          "name": "account",
          "type": "address"
        }
      ],
      "name": "freezeTokenPublic",
      "outputs": [
        {
          "internalType": "int256",
          "name": "responseCode",
          "type": "int256"
        }
      ],
      "stateMutability": "nonpayable",
      "type": "function"
    },
    {
      "inputs": [
        {
          "internalType": "address",
          "name": "token",
          "type": "address"
        },
        {
          "internalType": "uint256",
          "name": "serialNumber",
          "type": "uint256"
        }
      ],
      "name": "getApprovedPublic",
      "outputs": [
        {
          "internalType": "int256",
          "name": "responseCode",
          "type": "int256"
        },
        {
          "internalType": "address",
          "name": "approved",
          "type": "address"
        }
      ],
      "stateMutability": "nonpayable",
      "type": "function"
    },
    {
      "inputs": [
        {
          "internalType": "address",
          "name": "token",
          "type": "address"
        }
      ],
      "name": "getFungibleTokenInfoPublic",
      "outputs": [
        {
          "internalType": "int256",
          "name": "responseCode",
          "type": "int256"
        },
        {
          "components": [
            {
              "components": [
                {
                  "components": [
                    {
                      "internalType": "string",
                      "name": "name",
                      "type": "string"
                    },
                    {
                      "internalType": "string",
                      "name": "symbol",
                      "type": "string"
                    },
                    {
                      "internalType": "address",
                      "name": "treasury",
                      "type": "address"
                    },
                    {
                      "internalType": "string",
                      "name": "memo",
                      "type": "string"
                    },
                    {
                      "internalType": "bool",
                      "name": "tokenSupplyType",
                      "type": "bool"
                    },
                    {
                      "internalType": "uint32",
                      "name": "maxSupply",
                      "type": "uint32"
                    },
                    {
                      "internalType": "bool",
                      "name": "freezeDefault",
                      "type": "bool"
                    },
                    {
                      "components": [
                        {
                          "internalType": "uint256",
                          "name": "keyType",
                          "type": "uint256"
                        },
                        {
                          "components": [
                            {
                              "internalType": "bool",
                              "name": "inheritAccountKey",
                              "type": "bool"
                            },
                            {
                              "internalType": "address",
                              "name": "contractId",
                              "type": "address"
                            },
                            {
                              "internalType": "bytes",
                              "name": "ed25519",
                              "type": "bytes"
                            },
                            {
                              "internalType": "bytes",
                              "name": "ECDSA_secp256k1",
                              "type": "bytes"
                            },
                            {
                              "internalType": "address",
                              "name": "delegatableContractId",
                              "type": "address"
                            }
                          ],
                          "internalType": "struct IHederaTokenService.KeyValue",
                          "name": "key",
                          "type": "tuple"
                        }
                      ],
                      "internalType": "struct IHederaTokenService.TokenKey[]",
                      "name": "tokenKeys",
                      "type": "tuple[]"
                    },
                    {
                      "components": [
                        {
                          "internalType": "uint32",
                          "name": "second",
                          "type": "uint32"
                        },
                        {
                          "internalType": "address",
                          "name": "autoRenewAccount",
                          "type": "address"
                        },
                        {
                          "internalType": "uint32",
                          "name": "autoRenewPeriod",
                          "type": "uint32"
                        }
                      ],
                      "internalType": "struct IHederaTokenService.Expiry",
                      "name": "expiry",
                      "type": "tuple"
                    }
                  ],
                  "internalType": "struct IHederaTokenService.HederaToken",
                  "name": "hedera",
                  "type": "tuple"
                },
                {
                  "components": [
                    {
                      "internalType": "uint32",
                      "name": "amount",
                      "type": "uint32"
                    },
                    {
                      "internalType": "address",
                      "name": "tokenId",
                      "type": "address"
                    },
                    {
                      "internalType": "bool",
                      "name": "useHbarsForPayment",
                      "type": "bool"
                    },
                    {
                      "internalType": "bool",
                      "name": "useCurrentTokenForPayment",
                      "type": "bool"
                    },
                    {
                      "internalType": "address",
                      "name": "feeCollector",
                      "type": "address"
                    }
                  ],
                  "internalType": "struct IHederaTokenService.FixedFee[]",
                  "name": "fixedFees",
                  "type": "tuple[]"
                },
                {
                  "components": [
                    {
                      "internalType": "uint32",
                      "name": "numerator",
                      "type": "uint32"
                    },
                    {
                      "internalType": "uint32",
                      "name": "denominator",
                      "type": "uint32"
                    },
                    {
                      "internalType": "uint32",
                      "name": "minimumAmount",
                      "type": "uint32"
                    },
                    {
                      "internalType": "uint32",
                      "name": "maximumAmount",
                      "type": "uint32"
                    },
                    {
                      "internalType": "bool",
                      "name": "netOfTransfers",
                      "type": "bool"
                    },
                    {
                      "internalType": "address",
                      "name": "feeCollector",
                      "type": "address"
                    }
                  ],
                  "internalType": "struct IHederaTokenService.FractionalFee[]",
                  "name": "fractionalFees",
                  "type": "tuple[]"
                },
                {
                  "components": [
                    {
                      "internalType": "uint32",
                      "name": "numerator",
                      "type": "uint32"
                    },
                    {
                      "internalType": "uint32",
                      "name": "denominator",
                      "type": "uint32"
                    },
                    {
                      "internalType": "uint32",
                      "name": "amount",
                      "type": "uint32"
                    },
                    {
                      "internalType": "address",
                      "name": "tokenId",
                      "type": "address"
                    },
                    {
                      "internalType": "bool",
                      "name": "useHbarsForPayment",
                      "type": "bool"
                    },
                    {
                      "internalType": "address",
                      "name": "feeCollector",
                      "type": "address"
                    }
                  ],
                  "internalType": "struct IHederaTokenService.RoyaltyFee[]",
                  "name": "royaltyFees",
                  "type": "tuple[]"
                },
                {
                  "internalType": "bool",
                  "name": "defaultKycStatus",
                  "type": "bool"
                },
                {
                  "internalType": "bool",
                  "name": "deleted",
                  "type": "bool"
                },
                {
                  "internalType": "string",
                  "name": "ledgerId",
                  "type": "string"
                },
                {
                  "internalType": "bool",
                  "name": "pauseStatus",
                  "type": "bool"
                },
                {
                  "internalType": "uint64",
                  "name": "totalSupply",
                  "type": "uint64"
                }
              ],
              "internalType": "struct IHederaTokenService.TokenInfo",
              "name": "tokenInfo",
              "type": "tuple"
            },
            {
              "internalType": "uint32",
              "name": "decimals",
              "type": "uint32"
            }
          ],
          "internalType": "struct IHederaTokenService.FungibleTokenInfo",
          "name": "tokenInfo",
          "type": "tuple"
        }
      ],
      "stateMutability": "nonpayable",
      "type": "function"
    },
    {
      "inputs": [
        {
          "internalType": "address",
          "name": "token",
          "type": "address"
        },
        {
          "internalType": "int64",
          "name": "serialNumber",
          "type": "int64"
        }
      ],
      "name": "getNonFungibleTokenInfoPublic",
      "outputs": [
        {
          "internalType": "int256",
          "name": "responseCode",
          "type": "int256"
        },
        {
          "components": [
            {
              "components": [
                {
                  "components": [
                    {
                      "internalType": "string",
                      "name": "name",
                      "type": "string"
                    },
                    {
                      "internalType": "string",
                      "name": "symbol",
                      "type": "string"
                    },
                    {
                      "internalType": "address",
                      "name": "treasury",
                      "type": "address"
                    },
                    {
                      "internalType": "string",
                      "name": "memo",
                      "type": "string"
                    },
                    {
                      "internalType": "bool",
                      "name": "tokenSupplyType",
                      "type": "bool"
                    },
                    {
                      "internalType": "uint32",
                      "name": "maxSupply",
                      "type": "uint32"
                    },
                    {
                      "internalType": "bool",
                      "name": "freezeDefault",
                      "type": "bool"
                    },
                    {
                      "components": [
                        {
                          "internalType": "uint256",
                          "name": "keyType",
                          "type": "uint256"
                        },
                        {
                          "components": [
                            {
                              "internalType": "bool",
                              "name": "inheritAccountKey",
                              "type": "bool"
                            },
                            {
                              "internalType": "address",
                              "name": "contractId",
                              "type": "address"
                            },
                            {
                              "internalType": "bytes",
                              "name": "ed25519",
                              "type": "bytes"
                            },
                            {
                              "internalType": "bytes",
                              "name": "ECDSA_secp256k1",
                              "type": "bytes"
                            },
                            {
                              "internalType": "address",
                              "name": "delegatableContractId",
                              "type": "address"
                            }
                          ],
                          "internalType": "struct IHederaTokenService.KeyValue",
                          "name": "key",
                          "type": "tuple"
                        }
                      ],
                      "internalType": "struct IHederaTokenService.TokenKey[]",
                      "name": "tokenKeys",
                      "type": "tuple[]"
                    },
                    {
                      "components": [
                        {
                          "internalType": "uint32",
                          "name": "second",
                          "type": "uint32"
                        },
                        {
                          "internalType": "address",
                          "name": "autoRenewAccount",
                          "type": "address"
                        },
                        {
                          "internalType": "uint32",
                          "name": "autoRenewPeriod",
                          "type": "uint32"
                        }
                      ],
                      "internalType": "struct IHederaTokenService.Expiry",
                      "name": "expiry",
                      "type": "tuple"
                    }
                  ],
                  "internalType": "struct IHederaTokenService.HederaToken",
                  "name": "hedera",
                  "type": "tuple"
                },
                {
                  "components": [
                    {
                      "internalType": "uint32",
                      "name": "amount",
                      "type": "uint32"
                    },
                    {
                      "internalType": "address",
                      "name": "tokenId",
                      "type": "address"
                    },
                    {
                      "internalType": "bool",
                      "name": "useHbarsForPayment",
                      "type": "bool"
                    },
                    {
                      "internalType": "bool",
                      "name": "useCurrentTokenForPayment",
                      "type": "bool"
                    },
                    {
                      "internalType": "address",
                      "name": "feeCollector",
                      "type": "address"
                    }
                  ],
                  "internalType": "struct IHederaTokenService.FixedFee[]",
                  "name": "fixedFees",
                  "type": "tuple[]"
                },
                {
                  "components": [
                    {
                      "internalType": "uint32",
                      "name": "numerator",
                      "type": "uint32"
                    },
                    {
                      "internalType": "uint32",
                      "name": "denominator",
                      "type": "uint32"
                    },
                    {
                      "internalType": "uint32",
                      "name": "minimumAmount",
                      "type": "uint32"
                    },
                    {
                      "internalType": "uint32",
                      "name": "maximumAmount",
                      "type": "uint32"
                    },
                    {
                      "internalType": "bool",
                      "name": "netOfTransfers",
                      "type": "bool"
                    },
                    {
                      "internalType": "address",
                      "name": "feeCollector",
                      "type": "address"
                    }
                  ],
                  "internalType": "struct IHederaTokenService.FractionalFee[]",
                  "name": "fractionalFees",
                  "type": "tuple[]"
                },
                {
                  "components": [
                    {
                      "internalType": "uint32",
                      "name": "numerator",
                      "type": "uint32"
                    },
                    {
                      "internalType": "uint32",
                      "name": "denominator",
                      "type": "uint32"
                    },
                    {
                      "internalType": "uint32",
                      "name": "amount",
                      "type": "uint32"
                    },
                    {
                      "internalType": "address",
                      "name": "tokenId",
                      "type": "address"
                    },
                    {
                      "internalType": "bool",
                      "name": "useHbarsForPayment",
                      "type": "bool"
                    },
                    {
                      "internalType": "address",
                      "name": "feeCollector",
                      "type": "address"
                    }
                  ],
                  "internalType": "struct IHederaTokenService.RoyaltyFee[]",
                  "name": "royaltyFees",
                  "type": "tuple[]"
                },
                {
                  "internalType": "bool",
                  "name": "defaultKycStatus",
                  "type": "bool"
                },
                {
                  "internalType": "bool",
                  "name": "deleted",
                  "type": "bool"
                },
                {
                  "internalType": "string",
                  "name": "ledgerId",
                  "type": "string"
                },
                {
                  "internalType": "bool",
                  "name": "pauseStatus",
                  "type": "bool"
                },
                {
                  "internalType": "uint64",
                  "name": "totalSupply",
                  "type": "uint64"
                }
              ],
              "internalType": "struct IHederaTokenService.TokenInfo",
              "name": "tokenInfo",
              "type": "tuple"
            },
            {
              "internalType": "int64",
              "name": "serialNumber",
              "type": "int64"
            },
            {
              "internalType": "address",
              "name": "ownerId",
              "type": "address"
            },
            {
              "internalType": "int32",
              "name": "creationTime",
              "type": "int32"
            },
            {
              "internalType": "bytes",
              "name": "metadata",
              "type": "bytes"
            },
            {
              "internalType": "address",
              "name": "spenderId",
              "type": "address"
            }
          ],
          "internalType": "struct IHederaTokenService.NonFungibleTokenInfo",
          "name": "tokenInfo",
          "type": "tuple"
        }
      ],
      "stateMutability": "nonpayable",
      "type": "function"
    },
    {
      "inputs": [
        {
          "internalType": "address",
          "name": "token",
          "type": "address"
        }
      ],
      "name": "getTokenInfoPublic",
      "outputs": [
        {
          "internalType": "int256",
          "name": "responseCode",
          "type": "int256"
        },
        {
          "components": [
            {
              "components": [
                {
                  "internalType": "string",
                  "name": "name",
                  "type": "string"
                },
                {
                  "internalType": "string",
                  "name": "symbol",
                  "type": "string"
                },
                {
                  "internalType": "address",
                  "name": "treasury",
                  "type": "address"
                },
                {
                  "internalType": "string",
                  "name": "memo",
                  "type": "string"
                },
                {
                  "internalType": "bool",
                  "name": "tokenSupplyType",
                  "type": "bool"
                },
                {
                  "internalType": "uint32",
                  "name": "maxSupply",
                  "type": "uint32"
                },
                {
                  "internalType": "bool",
                  "name": "freezeDefault",
                  "type": "bool"
                },
                {
                  "components": [
                    {
                      "internalType": "uint256",
                      "name": "keyType",
                      "type": "uint256"
                    },
                    {
                      "components": [
                        {
                          "internalType": "bool",
                          "name": "inheritAccountKey",
                          "type": "bool"
                        },
                        {
                          "internalType": "address",
                          "name": "contractId",
                          "type": "address"
                        },
                        {
                          "internalType": "bytes",
                          "name": "ed25519",
                          "type": "bytes"
                        },
                        {
                          "internalType": "bytes",
                          "name": "ECDSA_secp256k1",
                          "type": "bytes"
                        },
                        {
                          "internalType": "address",
                          "name": "delegatableContractId",
                          "type": "address"
                        }
                      ],
                      "internalType": "struct IHederaTokenService.KeyValue",
                      "name": "key",
                      "type": "tuple"
                    }
                  ],
                  "internalType": "struct IHederaTokenService.TokenKey[]",
                  "name": "tokenKeys",
                  "type": "tuple[]"
                },
                {
                  "components": [
                    {
                      "internalType": "uint32",
                      "name": "second",
                      "type": "uint32"
                    },
                    {
                      "internalType": "address",
                      "name": "autoRenewAccount",
                      "type": "address"
                    },
                    {
                      "internalType": "uint32",
                      "name": "autoRenewPeriod",
                      "type": "uint32"
                    }
                  ],
                  "internalType": "struct IHederaTokenService.Expiry",
                  "name": "expiry",
                  "type": "tuple"
                }
              ],
              "internalType": "struct IHederaTokenService.HederaToken",
              "name": "hedera",
              "type": "tuple"
            },
            {
              "components": [
                {
                  "internalType": "uint32",
                  "name": "amount",
                  "type": "uint32"
                },
                {
                  "internalType": "address",
                  "name": "tokenId",
                  "type": "address"
                },
                {
                  "internalType": "bool",
                  "name": "useHbarsForPayment",
                  "type": "bool"
                },
                {
                  "internalType": "bool",
                  "name": "useCurrentTokenForPayment",
                  "type": "bool"
                },
                {
                  "internalType": "address",
                  "name": "feeCollector",
                  "type": "address"
                }
              ],
              "internalType": "struct IHederaTokenService.FixedFee[]",
              "name": "fixedFees",
              "type": "tuple[]"
            },
            {
              "components": [
                {
                  "internalType": "uint32",
                  "name": "numerator",
                  "type": "uint32"
                },
                {
                  "internalType": "uint32",
                  "name": "denominator",
                  "type": "uint32"
                },
                {
                  "internalType": "uint32",
                  "name": "minimumAmount",
                  "type": "uint32"
                },
                {
                  "internalType": "uint32",
                  "name": "maximumAmount",
                  "type": "uint32"
                },
                {
                  "internalType": "bool",
                  "name": "netOfTransfers",
                  "type": "bool"
                },
                {
                  "internalType": "address",
                  "name": "feeCollector",
                  "type": "address"
                }
              ],
              "internalType": "struct IHederaTokenService.FractionalFee[]",
              "name": "fractionalFees",
              "type": "tuple[]"
            },
            {
              "components": [
                {
                  "internalType": "uint32",
                  "name": "numerator",
                  "type": "uint32"
                },
                {
                  "internalType": "uint32",
                  "name": "denominator",
                  "type": "uint32"
                },
                {
                  "internalType": "uint32",
                  "name": "amount",
                  "type": "uint32"
                },
                {
                  "internalType": "address",
                  "name": "tokenId",
                  "type": "address"
                },
                {
                  "internalType": "bool",
                  "name": "useHbarsForPayment",
                  "type": "bool"
                },
                {
                  "internalType": "address",
                  "name": "feeCollector",
                  "type": "address"
                }
              ],
              "internalType": "struct IHederaTokenService.RoyaltyFee[]",
              "name": "royaltyFees",
              "type": "tuple[]"
            },
            {
              "internalType": "bool",
              "name": "defaultKycStatus",
              "type": "bool"
            },
            {
              "internalType": "bool",
              "name": "deleted",
              "type": "bool"
            },
            {
              "internalType": "string",
              "name": "ledgerId",
              "type": "string"
            },
            {
              "internalType": "bool",
              "name": "pauseStatus",
              "type": "bool"
            },
            {
              "internalType": "uint64",
              "name": "totalSupply",
              "type": "uint64"
            }
          ],
          "internalType": "struct IHederaTokenService.TokenInfo",
          "name": "tokenInfo",
          "type": "tuple"
        }
      ],
      "stateMutability": "nonpayable",
      "type": "function"
    },
    {
      "inputs": [
        {
          "internalType": "address",
          "name": "token",
          "type": "address"
        },
        {
          "internalType": "uint256",
          "name": "keyType",
          "type": "uint256"
        }
      ],
      "name": "getTokenKeyPublic",
      "outputs": [
        {
          "internalType": "int256",
          "name": "responseCode",
          "type": "int256"
        },
        {
          "components": [
            {
              "internalType": "bool",
              "name": "inheritAccountKey",
              "type": "bool"
            },
            {
              "internalType": "address",
              "name": "contractId",
              "type": "address"
            },
            {
              "internalType": "bytes",
              "name": "ed25519",
              "type": "bytes"
            },
            {
              "internalType": "bytes",
              "name": "ECDSA_secp256k1",
              "type": "bytes"
            },
            {
              "internalType": "address",
              "name": "delegatableContractId",
              "type": "address"
            }
          ],
          "internalType": "struct IHederaTokenService.KeyValue",
          "name": "key",
          "type": "tuple"
        }
      ],
      "stateMutability": "nonpayable",
      "type": "function"
    },
    {
      "inputs": [
        {
          "internalType": "address",
          "name": "token",
          "type": "address"
        },
        {
          "internalType": "address",
          "name": "owner",
          "type": "address"
        },
        {
          "internalType": "address",
          "name": "operator",
          "type": "address"
        }
      ],
      "name": "isApprovedForAllPublic",
      "outputs": [
        {
          "internalType": "int256",
          "name": "responseCode",
          "type": "int256"
        },
        {
          "internalType": "bool",
          "name": "approved",
          "type": "bool"
        }
      ],
      "stateMutability": "nonpayable",
      "type": "function"
    },
    {
      "inputs": [
        {
          "internalType": "address",
          "name": "token",
          "type": "address"
        },
        {
          "internalType": "address",
          "name": "account",
          "type": "address"
        }
      ],
      "name": "isFrozenPublic",
      "outputs": [
        {
          "internalType": "int256",
          "name": "responseCode",
          "type": "int256"
        },
        {
          "internalType": "bool",
          "name": "frozen",
          "type": "bool"
        }
      ],
      "stateMutability": "nonpayable",
      "type": "function"
    },
    {
      "inputs": [
        {
          "internalType": "address",
          "name": "token",
          "type": "address"
        },
        {
          "internalType": "uint64",
          "name": "amount",
          "type": "uint64"
        },
        {
          "internalType": "bytes[]",
          "name": "metadata",
          "type": "bytes[]"
        }
      ],
      "name": "mintTokenPublic",
      "outputs": [
        {
          "internalType": "int256",
          "name": "responseCode",
          "type": "int256"
        },
        {
          "internalType": "uint64",
          "name": "newTotalSupply",
          "type": "uint64"
        },
        {
          "internalType": "int64[]",
          "name": "serialNumbers",
          "type": "int64[]"
        }
      ],
      "stateMutability": "nonpayable",
      "type": "function"
    },
    {
      "inputs": [
        {
          "internalType": "address",
          "name": "token",
          "type": "address"
        }
      ],
      "name": "pauseToken",
      "outputs": [
        {
          "internalType": "int256",
          "name": "responseCode",
          "type": "int256"
        }
      ],
      "stateMutability": "nonpayable",
      "type": "function"
    },
    {
      "inputs": [
        {
          "internalType": "address",
          "name": "token",
          "type": "address"
        }
      ],
      "name": "pauseTokenPublic",
      "outputs": [
        {
          "internalType": "int256",
          "name": "responseCode",
          "type": "int256"
        }
      ],
      "stateMutability": "nonpayable",
      "type": "function"
    },
    {
      "inputs": [
        {
          "internalType": "address",
          "name": "token",
          "type": "address"
        },
        {
          "internalType": "address",
          "name": "operator",
          "type": "address"
        },
        {
          "internalType": "bool",
          "name": "approved",
          "type": "bool"
        }
      ],
      "name": "setApprovalForAllPublic",
      "outputs": [
        {
          "internalType": "int256",
          "name": "responseCode",
          "type": "int256"
        }
      ],
      "stateMutability": "nonpayable",
      "type": "function"
    },
    {
      "inputs": [
        {
          "internalType": "address",
          "name": "token",
          "type": "address"
        },
        {
          "internalType": "address",
          "name": "sender",
          "type": "address"
        },
        {
          "internalType": "address",
          "name": "receiver",
          "type": "address"
        },
        {
          "internalType": "int64",
          "name": "serialNumber",
          "type": "int64"
        }
      ],
      "name": "transferNFTPublic",
      "outputs": [
        {
          "internalType": "int256",
          "name": "responseCode",
          "type": "int256"
        }
      ],
      "stateMutability": "nonpayable",
      "type": "function"
    },
    {
      "inputs": [
        {
          "internalType": "address",
          "name": "account",
          "type": "address"
        },
        {
          "internalType": "address",
          "name": "token",
          "type": "address"
        },
        {
          "internalType": "int64",
          "name": "amount",
          "type": "int64"
        }
      ],
      "name": "transferTokenPublic",
      "outputs": [
        {
          "internalType": "int256",
          "name": "responseCode",
          "type": "int256"
        }
      ],
      "stateMutability": "nonpayable",
      "type": "function"
    },
    {
      "inputs": [
        {
          "internalType": "address",
          "name": "token",
          "type": "address"
        },
        {
          "internalType": "address",
          "name": "account",
          "type": "address"
        }
      ],
      "name": "unfreezeTokenPublic",
      "outputs": [
        {
          "internalType": "int256",
          "name": "responseCode",
          "type": "int256"
        }
      ],
      "stateMutability": "nonpayable",
      "type": "function"
    },
    {
      "inputs": [
        {
          "internalType": "address",
          "name": "token",
          "type": "address"
        }
      ],
      "name": "unpauseToken",
      "outputs": [
        {
          "internalType": "int256",
          "name": "responseCode",
          "type": "int256"
        }
      ],
      "stateMutability": "nonpayable",
      "type": "function"
    },
    {
      "inputs": [
        {
          "internalType": "address",
          "name": "token",
          "type": "address"
        }
      ],
      "name": "unpauseTokenPublic",
      "outputs": [
        {
          "internalType": "int256",
          "name": "responseCode",
          "type": "int256"
        }
      ],
      "stateMutability": "nonpayable",
      "type": "function"
    },
    {
      "inputs": [
        {
          "internalType": "address",
          "name": "token",
          "type": "address"
        },
        {
          "components": [
            {
              "internalType": "uint256",
              "name": "keyType",
              "type": "uint256"
            },
            {
              "components": [
                {
                  "internalType": "bool",
                  "name": "inheritAccountKey",
                  "type": "bool"
                },
                {
                  "internalType": "address",
                  "name": "contractId",
                  "type": "address"
                },
                {
                  "internalType": "bytes",
                  "name": "ed25519",
                  "type": "bytes"
                },
                {
                  "internalType": "bytes",
                  "name": "ECDSA_secp256k1",
                  "type": "bytes"
                },
                {
                  "internalType": "address",
                  "name": "delegatableContractId",
                  "type": "address"
                }
              ],
              "internalType": "struct IHederaTokenService.KeyValue",
              "name": "key",
              "type": "tuple"
            }
          ],
          "internalType": "struct IHederaTokenService.TokenKey[]",
          "name": "keys",
          "type": "tuple[]"
        }
      ],
      "name": "updateTokenKeysPublic",
      "outputs": [
        {
          "internalType": "int256",
          "name": "responseCode",
          "type": "int256"
        }
      ],
      "stateMutability": "nonpayable",
      "type": "function"
    },
    {
      "inputs": [
        {
          "internalType": "address",
          "name": "token",
          "type": "address"
        },
        {
          "internalType": "address",
          "name": "account",
          "type": "address"
        },
        {
          "internalType": "int64[]",
          "name": "serialNumbers",
          "type": "int64[]"
        }
      ],
      "name": "wipeTokenAccountNFTPublic",
      "outputs": [
        {
          "internalType": "int256",
          "name": "responseCode",
          "type": "int256"
        }
      ],
      "stateMutability": "nonpayable",
      "type": "function"
    },
    {
      "inputs": [
        {
          "internalType": "address",
          "name": "token",
          "type": "address"
        },
        {
          "internalType": "address",
          "name": "account",
          "type": "address"
        },
        {
          "internalType": "uint32",
          "name": "amount",
          "type": "uint32"
        }
      ],
      "name": "wipeTokenAccountPublic",
      "outputs": [
        {
          "internalType": "int256",
          "name": "responseCode",
          "type": "int256"
        }
      ],
      "stateMutability": "nonpayable",
      "type": "function"
    }
  ],
  "bytecode": "0x60c06040526009608081905268746f6b656e4e616d6560b81b60a09081526200002c9160019190620000c1565b5060408051808201909152600b8082526a1d1bdad95b94de5b589bdb60aa1b60209092019182526200006191600291620000c1565b50604080518082019091526004808252636d656d6f60e01b60209092019182526200008f91600391620000c1565b506103e860048190556005805463ffffffff191690911790556008600655348015620000ba57600080fd5b50620001a4565b828054620000cf9062000167565b90600052602060002090601f016020900481019282620000f357600085556200013e565b82601f106200010e57805160ff19168380011785556200013e565b828001600101855582156200013e579182015b828111156200013e57825182559160200191906001019062000121565b506200014c92915062000150565b5090565b5b808211156200014c576000815560010162000151565b600181811c908216806200017c57607f821691505b602082108114156200019e57634e487b7160e01b600052602260045260246000fd5b50919050565b61432980620001b46000396000f3fe6080604052600436106101665760003560e01c80636a4dde21116100d1578063d92ac2481161008a578063f2f38a7411610064578063f2f38a7414610486578063f4a01e5b146104b4578063f7be3425146104d4578063f848fec4146104f457600080fd5b8063d92ac24814610426578063ec855c3114610446578063f25b12001461046657600080fd5b80636a4dde21146103645780636da6b1f0146103845780637c41ad2c146103a45780637d3e5da8146103c45780638070905f146103e4578063d85f74c11461041357600080fd5b80634b5c6687116101235780634b5c66871461027e5780634cbdb37b146102935780634d8f27c9146102c157806356af8403146102e15780635a5e6c311461030157806369837dc21461033657600080fd5b806313c05dd81461016b5780631955de0b146101a557806319db44b6146101d35780632b256ec8146102105780632d73bb2e1461023e5780633b3bff0f1461025e575b600080fd5b34801561017757600080fd5b5061018b610186366004612faa565b610514565b604080519283529015156020830152015b60405180910390f35b3480156101b157600080fd5b506101c56101c03660046133de565b610592565b60405161019c929190613fa2565b3480156101df57600080fd5b506101f36101ee3660046133de565b61061c565b604080519283526001600160a01b0390911660208301520161019c565b34801561021c57600080fd5b5061023061022b366004612f56565b610695565b60405190815260200161019c565b34801561024a57600080fd5b50610230610259366004612f72565b610781565b34801561026a57600080fd5b50610230610279366004612f56565b6107cc565b61029161028c366004612f56565b6108a6565b005b34801561029f57600080fd5b506102b36102ae3660046133b1565b610c54565b60405161019c929190613fbb565b3480156102cd57600080fd5b506102306102dc36600461320e565b610cca565b3480156102ed57600080fd5b506102306102fc36600461304f565b610cd6565b34801561030d57600080fd5b5061032161031c366004612faa565b610d20565b6040805192835260208301919091520161019c565b34801561034257600080fd5b50610356610351366004612f56565b610d91565b60405161019c929190613f89565b34801561037057600080fd5b5061018b61037f366004612f72565b610e13565b34801561039057600080fd5b5061023061039f366004612ff4565b610e8a565b3480156103b057600080fd5b506102306103bf366004612f56565b610ed6565b3480156103d057600080fd5b506102306103df366004612f72565b610f04565b3480156103f057600080fd5b506104046103ff366004613409565b610f10565b60405161019c93929190613fed565b610291610421366004612f56565b610f98565b34801561043257600080fd5b506102306104413660046131cf565b61132c565b34801561045257600080fd5b50610230610461366004613150565b611339565b34801561047257600080fd5b50610230610481366004613111565b61153a565b34801561049257600080fd5b506104a66104a1366004612f56565b611547565b60405161019c929190613fd4565b3480156104c057600080fd5b506102306104cf366004612f72565b6115bc565b3480156104e057600080fd5b506102306104ef366004612f56565b6115e9565b34801561050057600080fd5b5061023061050f36600461318f565b6116cc565b6000806105228585856116d9565b60405182815291935091506000805160206142d48339815191529060200160405180910390a16016821461055557600080fd5b60405181151581527e1c2e72360171244b3bb8cc8ddd767820edf37138ad6f129fb3574b407c307d906020015b60405180910390a1935093915050565b600061059c61266d565b6105a684846117bf565b60405160079290920b808352935091506000805160206142d48339815191529060200160405180910390a1601682146105de57600080fd5b7f9d8dc9f818d9961433765a17d0b36c47a9b5289dd4e22e00fa5624f6db0084748160405161060d9190614060565b60405180910390a19250929050565b6000806106298484611893565b60405182815291935091506000805160206142d48339815191529060200160405180910390a16016821461065c57600080fd5b6040516001600160a01b03821681527fc2c78c7c31baf14949e75c51df12be56edb9af523cf82839c2869bbcf13b3ecb9060200161060d565b604051631f106b4b60e21b81526001600160a01b03821660048201526000903090637c41ad2c90602401602060405180830381600087803b1580156106d957600080fd5b505af11580156106ed573d6000803e3d6000fd5b505050506040513d601f19601f8201168201806040525081019061071191906134df565b90506000805160206142d48339815191528160405161073291815260200190565b60405180910390a16016811461074757600080fd5b604051600181527f0c9c765845f4d139956bb8fc8decb2eec6093c9c608b809641b16054b29f0e13906020015b60405180910390a1919050565b600061078d838361196c565b60070b90506000805160206142d4833981519152816040516107b191815260200190565b60405180910390a1601681146107c657600080fd5b92915050565b6040516001600160a01b03821660248201526000908190819061016790633b3bff0f60e01b906044015b60408051601f198184030181529181526020820180516001600160e01b03166001600160e01b03199094169390931790925290516108349190613dc0565b6000604051808303816000865af19150503d8060008114610871576040519150601f19603f3d011682016040523d82523d6000602084013e610876565b606091505b50915091508161088757601561089b565b8080602001905181019061089b91906134f7565b60030b949350505050565b60408051600380825260808201909252600091816020015b6108c66126b0565b8152602001906001900390816108be5790505090506108f960006006600160405180602001604052806000815250611a4f565b8160008151811061091a57634e487b7160e01b600052603260045260246000fd5b60200260200101819052506109416002600160405180602001604052806000815250611a86565b8160018151811061096257634e487b7160e01b600052603260045260246000fd5b60200260200101819052506109896003600160405180602001604052806000815250611a86565b816002815181106109aa57634e487b7160e01b600052603260045260246000fd5b602002602001018190525060006040518060600160405280600063ffffffff168152602001846001600160a01b03168152602001627a120063ffffffff168152509050600060405180610120016040528060018054610a08906141f4565b80601f0160208091040260200160405190810160405280929190818152602001828054610a34906141f4565b8015610a815780601f10610a5657610100808354040283529160200191610a81565b820191906000526020600020905b815481529060010190602001808311610a6457829003601f168201915b5050505050815260200160028054610a98906141f4565b80601f0160208091040260200160405190810160405280929190818152602001828054610ac4906141f4565b8015610b115780601f10610ae657610100808354040283529160200191610b11565b820191906000526020600020905b815481529060010190602001808311610af457829003601f168201915b50505050508152602001856001600160a01b0316815260200160038054610b37906141f4565b80601f0160208091040260200160405190810160405280929190818152602001828054610b63906141f4565b8015610bb05780601f10610b8557610100808354040283529160200191610bb0565b820191906000526020600020905b815481529060010190602001808311610b9357829003601f168201915b50505091835250506001602082015260055463ffffffff1660408201526000606082018190526080820186905260a090910184905260045460065492935090918291610bfe91859190611abb565b909250905060168214610c1057600080fd5b6040516001600160a01b03821681527f7bb17726df1f3adee8aa00ba8e8bc5d6f182af3bbf77604639cb7f008dd3b4ed9060200160405180910390a1505050505050565b6000610c5e6126cf565b610c688484611be9565b60405182815291935091506000805160206142d48339815191529060200160405180910390a160168214610c9b57600080fd5b7f3224016a4ea7bf4a9e645acbf6868a1d8e1c84e370843415099771f2e117abfc8160405161060d9190614073565b600061078d8383611cc3565b6000610ce3848484611cef565b90506000805160206142d483398151915281604051610d0491815260200190565b60405180910390a160168114610d1957600080fd5b9392505050565b600080610d2e858585611dcf565b60405182815291935091506000805160206142d48339815191529060200160405180910390a160168214610d6157600080fd5b6040518181527f25b6684a7e8fe1b676e9c39c8dd65034fbafea906d3bdfd97bf748b7b55e14c890602001610582565b6000610d9b61270a565b610da483611ea2565b60405182815291935091506000805160206142d48339815191529060200160405180910390a160168214610dd757600080fd5b7f62247a6d6985850f919ece8bce85d12fbf1c6357ece818231e6a843897ab825a81604051610e069190614015565b60405180910390a1915091565b600080610e208484611f72565b60405160079290920b808352935091506000805160206142d48339815191529060200160405180910390a160168214610e5857600080fd5b60405181151581527f59800d968fcce138300a0019410b4b75041610d65b3cdc5f31656b03ed14912e9060200161060d565b6000610e988585858561203d565b90506000805160206142d483398151915281604051610eb991815260200190565b60405180910390a160168114610ece57600080fd5b949350505050565b6040516001600160a01b03821660248201526000908190819061016790631f106b4b60e21b906044016107f6565b600061078d8383612125565b6000806060610f2086868661215b565b60405183815292955090935091506000805160206142d48339815191529060200160405180910390a160168314610f5657600080fd5b7feff23992f47b3c101679f8b4dc9d3e242c903909dba4a453f2b2341ad463b0e28282604051610f87929190614099565b60405180910390a193509350939050565b60408051600480825260a08201909252600091816020015b610fb86126b0565b815260200190600190039081610fb0579050509050610feb60006006600160405180602001604052806000815250611a4f565b8160008151811061100c57634e487b7160e01b600052603260045260246000fd5b60200260200101819052506110336004600160405180602001604052806000815250611a86565b8160018151811061105457634e487b7160e01b600052603260045260246000fd5b602002602001018190525061107b6002600160405180602001604052806000815250611a86565b8160028151811061109c57634e487b7160e01b600052603260045260246000fd5b60200260200101819052506110c36003600160405180602001604052806000815250611a86565b816003815181106110e457634e487b7160e01b600052603260045260246000fd5b602002602001018190525060006040518060600160405280600063ffffffff168152602001846001600160a01b03168152602001627a120063ffffffff168152509050600060405180610120016040528060018054611142906141f4565b80601f016020809104026020016040519081016040528092919081815260200182805461116e906141f4565b80156111bb5780601f10611190576101008083540402835291602001916111bb565b820191906000526020600020905b81548152906001019060200180831161119e57829003601f168201915b50505050508152602001600280546111d2906141f4565b80601f01602080910402602001604051908101604052809291908181526020018280546111fe906141f4565b801561124b5780601f106112205761010080835404028352916020019161124b565b820191906000526020600020905b81548152906001019060200180831161122e57829003601f168201915b50505050508152602001856001600160a01b0316815260200160038054611271906141f4565b80601f016020809104026020016040519081016040528092919081815260200182805461129d906141f4565b80156112ea5780601f106112bf576101008083540402835291602001916112ea565b820191906000526020600020905b8154815290600101906020018083116112cd57829003601f168201915b50505091835250506001602082015260055463ffffffff1660408201526000606082018190526080820186905260a090910184905290915080610bfe83612259565b6000610ce3848484612343565b6040805160008082526020820190925281908161137e565b60408051606081018252600080825260208083018290529282015282526000199092019101816113515790505b50905060006040518060400160405280336001600160a01b03168152602001856113a79061422f565b600790810b9091526040805180820182526001600160a01b038a1681529187900b602083015280516002808252606082019092529293509091600091816020015b60408051808201909152600080825260208201528152602001906001900390816113e8579050509050828160008151811061143357634e487b7160e01b600052603260045260246000fd5b6020026020010181905250818160018151811061146057634e487b7160e01b600052603260045260246000fd5b602090810291909101810191909152604080516060810182526001600160a01b038a16815291820183905281810186905280516001808252818301909252600091816020015b6114d3604051806060016040528060006001600160a01b0316815260200160608152602001606081525090565b8152602001906001900390816114a6579050509050818160008151811061150a57634e487b7160e01b600052603260045260246000fd5b602002602001018190525061151e81612385565b96506016871461152d57600080fd5b5050505050509392505050565b6000610ce38484846123af565b600061155161272a565b61155a836123ed565b60405182815291935091506000805160206142d48339815191529060200160405180910390a16016821461158d57600080fd5b7f5adb394adfef64589c38a792b3a628d4b35f6f49b44643a9afbb50f52dfafcd481604051610e069190614086565b60006115c883836124bd565b90506000805160206142d4833981519152816040516107b191815260200190565b604051633b3bff0f60e01b81526001600160a01b03821660048201526000903090633b3bff0f90602401602060405180830381600087803b15801561162d57600080fd5b505af1158015611641573d6000803e3d6000fd5b505050506040513d601f19601f8201168201806040525081019061166591906134df565b90506000805160206142d48339815191528160405161168691815260200190565b60405180910390a16016811461169b57600080fd5b604051600181527f319ab7084208e4afa38c6e6ff7aea9587439f2e4700746f4c7d425fea17426d290602001610774565b6000610ce38484846124f3565b604080516001600160a01b0385811660248301528481166044830152831660648083019190915282518083039091018152608490910182526020810180516001600160e01b031663f49f40db60e01b17905290516000918291829182916101679161174391613dc0565b6000604051808303816000865af19150503d8060008114611780576040519150601f19603f3d011682016040523d82523d6000602084013e611785565b606091505b50915091508161179857601560006117ac565b808060200190518101906117ac919061353c565b60039190910b9890975095505050505050565b60006117c961266d565b604080516001600160a01b0386166024820152604480820186905282518083039091018152606490910182526020810180516001600160e01b0316631e26e99760e11b179052905160009182916101679161182391613dc0565b6000604051808303816000865af19150503d8060008114611860576040519150601f19603f3d011682016040523d82523d6000602084013e611865565b606091505b509150915061187261266d565b8261187f576015816117ac565b818060200190518101906117ac91906135f8565b604080516001600160a01b0384166024820152604480820184905282518083039091018152606490910182526020810180516001600160e01b03166301b2194b60e01b1790529051600091829182918291610167916118f191613dc0565b6000604051808303816000865af19150503d806000811461192e576040519150601f19603f3d011682016040523d82523d6000602084013e611933565b606091505b509150915081611946576015600061195a565b8080602001905181019061195a9190613511565b60039190910b97909650945050505050565b6040516001600160a01b0383811660248301528216604482015260009081908190610167906352f9138760e01b906064015b60408051601f198184030181529181526020820180516001600160e01b03166001600160e01b03199094169390931790925290516119dc9190613dc0565b6000604051808303816000865af19150503d8060008114611a19576040519150601f19603f3d011682016040523d82523d6000602084013e611a1e565b606091505b509150915081611a2f576015611a43565b80806020019051810190611a4391906134f7565b60030b95945050505050565b611a576126b0565b6040518060400160405280611a6c8787612530565b8152602001611a7b8585612549565b905295945050505050565b611a8e6126b0565b6040518060400160405280611aa2866125db565b8152602001611ab18585612549565b9052949350505050565b600080848061010001516000015163ffffffff166000148015611aeb57506101008101516040015163ffffffff16155b15611b01576101008101516276a7006040909101525b6000806101676001600160a01b031634637812a04b60e01b8a8a8a604051602401611b2e9392919061403b565b60408051601f198184030181529181526020820180516001600160e01b03166001600160e01b0319909416939093179092529051611b6c9190613dc0565b60006040518083038185875af1925050503d8060008114611ba9576040519150601f19603f3d011682016040523d82523d6000602084013e611bae565b606091505b509150915081611bc15760156000611bd5565b80806020019051810190611bd59190613511565b60039190910b999098509650505050505050565b6000611bf36126cf565b604080516001600160a01b0386166024820152600785900b60448083019190915282518083039091018152606490910182526020810180516001600160e01b031663050fc3b560e31b1790529051600091829161016791611c5391613dc0565b6000604051808303816000865af19150503d8060008114611c90576040519150601f19603f3d011682016040523d82523d6000602084013e611c95565b606091505b5091509150611ca26126cf565b82611caf576015816117ac565b818060200190518101906117ac9190613643565b60008060006101676001600160a01b0316636fc3cbaf60e01b868660405160240161199e929190613e11565b60008060006101676001600160a01b031663f7f38e2660e01b878787604051602401611d1d93929190613ddc565b60408051601f198184030181529181526020820180516001600160e01b03166001600160e01b0319909416939093179092529051611d5b9190613dc0565b6000604051808303816000865af19150503d8060008114611d98576040519150601f19603f3d011682016040523d82523d6000602084013e611d9d565b606091505b509150915081611dae576015611dc2565b80806020019051810190611dc291906134f7565b60030b9695505050505050565b604080516001600160a01b0385811660248301528481166044830152831660648083019190915282518083039091018152608490910182526020810180516001600160e01b031663927da10560e01b179052905160009182918291829161016791611e3991613dc0565b6000604051808303816000865af19150503d8060008114611e76576040519150601f19603f3d011682016040523d82523d6000602084013e611e7b565b606091505b509150915081611e8e57601560006117ac565b808060200190518101906117ac9190613766565b6000611eac61270a565b604080516001600160a01b03851660248083019190915282518083039091018152604490910182526020810180516001600160e01b0316633f28a19b60e01b1790529051600091829161016791611f0291613dc0565b6000604051808303816000865af19150503d8060008114611f3f576040519150601f19603f3d011682016040523d82523d6000602084013e611f44565b606091505b5091509150611f5161270a565b82611f5e5760158161195a565b8180602001905181019061195a9190613567565b604080516001600160a01b038481166024830152831660448083019190915282518083039091018152606490910182526020810180516001600160e01b03166346de0fb160e01b179052905160009182918291829161016791611fd491613dc0565b6000604051808303816000865af19150503d8060008114612011576040519150601f19603f3d011682016040523d82523d6000602084013e612016565b606091505b509150915081612029576015600061195a565b8080602001905181019061195a919061353c565b604080516001600160a01b038681166024830152858116604483015284166064820152600783900b6084808301919091528251808303909101815260a490910182526020810180516001600160e01b0316635cfc901160e01b179052905160009182918291610167916120b09190613dc0565b6000604051808303816000865af19150503d80600081146120ed576040519150601f19603f3d011682016040523d82523d6000602084013e6120f2565b606091505b509150915081612103576015612117565b8080602001905181019061211791906134f7565b60030b979650505050505050565b6040516001600160a01b0383811660248301528216604482015260009081908190610167906316e3e16160e21b9060640161199e565b60008060606000806101676001600160a01b031663278e0b8860e01b89898960405160240161218c93929190613e35565b60408051601f198184030181529181526020820180516001600160e01b03166001600160e01b03199094169390931790925290516121ca9190613dc0565b6000604051808303816000865af19150503d8060008114612207576040519150601f19603f3d011682016040523d82523d6000602084013e61220c565b606091505b50915091508161222f576040805160008082526020820190925260159190612243565b808060200190518101906122439190613791565b60039290920b9a90995090975095505050505050565b600080828061010001516000015163ffffffff16600014801561228957506101008101516040015163ffffffff16155b1561229f576101008101516276a7006040909101525b6000806101676001600160a01b031634639dc711e060e01b886040516024016122c89190614028565b60408051601f198184030181529181526020820180516001600160e01b03166001600160e01b03199094169390931790925290516123069190613dc0565b60006040518083038185875af1925050503d806000811461192e576040519150601f19603f3d011682016040523d82523d6000602084013e611933565b6040516001600160a01b0384811660248301528316604482015263ffffffff821660648201526000908190819061016790639790686d60e01b90608401611d1d565b60008060006101676001600160a01b031663189a554c60e01b856040516024016107f69190613eb6565b6040516001600160a01b0384811660248301528316604482015281151560648201526000908190819061016790631b3b02e560e11b90608401611d1d565b60006123f761272a565b604080516001600160a01b03851660248083019190915282518083039091018152604490910182526020810180516001600160e01b0316631f69565f60e01b179052905160009182916101679161244d91613dc0565b6000604051808303816000865af19150503d806000811461248a576040519150601f19603f3d011682016040523d82523d6000602084013e61248f565b606091505b509150915061249c61272a565b826124a95760158161195a565b8180602001905181019061195a9190613725565b6040516001600160a01b03838116602483015282166044820152600090819081906101679063248a35ef60e11b9060640161199e565b6040516001600160a01b0384811660248301528316604482015260648101829052600090819081906101679063e1f21c6760e01b90608401611d1d565b6000600160ff84161b9050600160ff83161b8117610d19565b61255161266d565b8260ff166001141561256657600181526107c6565b8260ff1660021415612588576000546001600160a01b031660208201526107c6565b8260ff16600314156125a057604081018290526107c6565b8260ff16600414156125b857606081018290526107c6565b8260ff16600514156107c6576000546001600160a01b0316608082015292915050565b600060ff82166125ed57506001919050565b8160ff166001141561260157506002919050565b8160ff166002141561261557506004919050565b8160ff166003141561262957506008919050565b8160ff166004141561263d57506010919050565b8160ff166005141561265157506020919050565b8160ff166006141561266557506040919050565b506000919050565b6040518060a0016040528060001515815260200160006001600160a01b03168152602001606081526020016060815260200160006001600160a01b031681525090565b6040518060400160405280600081526020016126ca61266d565b905290565b6040518060c001604052806126e261272a565b8152600060208201819052604082018190526060808301829052608083015260a09091015290565b604051806040016040528061271d61272a565b8152600060209091015290565b60408051610240810182526060610120820181815261014083018290526000610160840181905261018084018390526101a084018190526101c084018190526101e0840181905261020084018390528451808401865281815260208082018390528187018390526102208601919091529184529083018290529282018190528082018190526080820183905260a0820183905260c082015260e0810182905261010081019190915290565b80356127e081614277565b919050565b80516127e081614277565b600082601f830112612800578081fd5b815160206128156128108361417a565b61414a565b8281528181019085830160a080860288018501891015612833578687fd5b865b868110156128bc5781838b03121561284b578788fd5b6128536140bb565b835161285e816142ac565b81528387015161286d81614277565b818801526040848101516128808161428f565b908201526060848101516128938161428f565b908201526080848101516128a681614277565b9082015285529385019391810191600101612835565b509198975050505050505050565b600082601f8301126128da578081fd5b815160206128ea6128108361417a565b8281528181019085830160c080860288018501891015612908578687fd5b865b868110156128bc5781838b031215612920578788fd5b6129286140e3565b8351612933816142ac565b815283870151612942816142ac565b81880152604084810151612955816142ac565b90820152606084810151612968816142ac565b9082015260808481015161297b8161428f565b9082015260a08481015161298e81614277565b908201528552938501939181019160010161290a565b600082601f8301126129b4578081fd5b815160206129c46128108361417a565b8281528181019085830160c0808602880185018910156129e2578687fd5b865b868110156128bc5781838b0312156129fa578788fd5b612a026140e3565b8351612a0d816142ac565b815283870151612a1c816142ac565b81880152604084810151612a2f816142ac565b90820152606084810151612a4281614277565b90820152608084810151612a558161428f565b9082015260a084810151612a6881614277565b90820152855293850193918101916001016129e4565b600082601f830112612a8e578081fd5b81516020612a9e6128108361417a565b80838252828201915082860187848660051b8901011115612abd578586fd5b855b85811015612b3b5781516001600160401b0380821115612add578889fd5b908901906040828c03601f1901811315612af557898afd5b612afd614105565b838901518152908301519082821115612b14578a8bfd5b612b228d8a84870101612d84565b818a015287525050509284019290840190600101612abf565b5090979650505050505050565b80516127e08161428f565b600082601f830112612b63578081fd5b8135612b716128108261419d565b818152846020838601011115612b85578283fd5b816020850160208301379081016020019190915292915050565b600082601f830112612baf578081fd5b8151612bbd6128108261419d565b818152846020838601011115612bd1578283fd5b610ece8260208301602087016141c4565b8051600381900b81146127e057600080fd5b80516127e08161429d565b600060608284031215612c10578081fd5b604051606081018181106001600160401b0382111715612c3257612c32614261565b80604052508091508251612c45816142ac565b81526020830151612c5581614277565b60208201526040830151612c68816142ac565b6040919091015292915050565b60006101608284031215612c87578081fd5b612c8f614127565b905081516001600160401b0380821115612ca857600080fd5b612cb485838601612b9f565b83526020840151915080821115612cca57600080fd5b612cd685838601612b9f565b6020840152612ce7604085016127e5565b60408401526060840151915080821115612d0057600080fd5b612d0c85838601612b9f565b6060840152612d1d60808501612b48565b6080840152612d2e60a08501612f40565b60a0840152612d3f60c08501612b48565b60c084015260e0840151915080821115612d5857600080fd5b50612d6584828501612a7e565b60e083015250610100612d7a84828501612bff565b9082015292915050565b600060a08284031215612d95578081fd5b612d9d6140bb565b90508151612daa8161428f565b81526020820151612dba81614277565b602082015260408201516001600160401b0380821115612dd957600080fd5b612de585838601612b9f565b60408401526060840151915080821115612dfe57600080fd5b50612e0b84828501612b9f565b606083015250612e1d608083016127e5565b608082015292915050565b60006101208284031215612e3a578081fd5b612e42614127565b905081516001600160401b0380821115612e5b57600080fd5b612e6785838601612c75565b83526020840151915080821115612e7d57600080fd5b612e89858386016127f0565b60208401526040840151915080821115612ea257600080fd5b612eae858386016128ca565b60408401526060840151915080821115612ec757600080fd5b612ed3858386016129a4565b6060840152612ee460808501612b48565b6080840152612ef560a08501612b48565b60a084015260c0840151915080821115612f0e57600080fd5b50612f1b84828501612b9f565b60c083015250612f2d60e08301612b48565b60e0820152610100612d7a818401612f4b565b80516127e0816142ac565b80516127e0816142be565b600060208284031215612f67578081fd5b8135610d1981614277565b60008060408385031215612f84578081fd5b8235612f8f81614277565b91506020830135612f9f81614277565b809150509250929050565b600080600060608486031215612fbe578081fd5b8335612fc981614277565b92506020840135612fd981614277565b91506040840135612fe981614277565b809150509250925092565b60008060008060808587031215613009578182fd5b843561301481614277565b9350602085013561302481614277565b9250604085013561303481614277565b915060608501356130448161429d565b939692955090935050565b600080600060608486031215613063578081fd5b833561306e81614277565b925060208481013561307f81614277565b925060408501356001600160401b03811115613099578283fd5b8501601f810187136130a9578283fd5b80356130b76128108261417a565b8082825284820191508484018a868560051b87010111156130d6578687fd5b8694505b838510156131015780356130ed8161429d565b8352600194909401939185019185016130da565b5080955050505050509250925092565b600080600060608486031215613125578081fd5b833561313081614277565b9250602084013561314081614277565b91506040840135612fe98161428f565b600080600060608486031215613164578081fd5b833561316f81614277565b9250602084013561317f81614277565b91506040840135612fe98161429d565b6000806000606084860312156131a3578081fd5b83356131ae81614277565b925060208401356131be81614277565b929592945050506040919091013590565b6000806000606084860312156131e3578081fd5b83356131ee81614277565b925060208401356131fe81614277565b91506040840135612fe9816142ac565b60008060408385031215613220578182fd5b61322a8335614277565b823591506001600160401b038060208501351115613246578182fd5b6020840135840185601f82011261325b578283fd5b613268612810823561417a565b808235825260208201915060208301886020853560051b860101111561328c578586fd5b855b84358110156133a25785823511156132a4578687fd5b81358501601f196040828d03820112156132bc578889fd5b6132c4614105565b6020830135815288604084013511156132db57898afd5b60408301358301925060a082848f030112156132f557898afd5b6132fd6140bb565b915061330c602084013561428f565b6020830135825261331f604084016127d5565b6020830152886060840135111561333457898afd5b6133478d60206060860135860101612b53565b6040830152886080840135111561335c57898afd5b61336f8d60206080860135860101612b53565b606083015261338060a084016127d5565b608083015260208181019290925286529485019492909201915060010161328e565b50959890975095505050505050565b600080604083850312156133c3578182fd5b82356133ce81614277565b91506020830135612f9f8161429d565b600080604083850312156133f0578182fd5b82356133fb81614277565b946020939093013593505050565b60008060006060848603121561341d578081fd5b833561342881614277565b9250602084810135613439816142be565b925060408501356001600160401b0380821115613454578384fd5b818701915087601f830112613467578384fd5b81356134756128108261417a565b8082825285820191508585018b878560051b8801011115613494578788fd5b875b848110156134cd578135868111156134ac57898afd5b6134ba8e8a838b0101612b53565b8552509287019290870190600101613496565b50508096505050505050509250925092565b6000602082840312156134f0578081fd5b5051919050565b600060208284031215613508578081fd5b610d1982612be2565b60008060408385031215613523578182fd5b61352c83612be2565b91506020830151612f9f81614277565b6000806040838503121561354e578182fd5b61355783612be2565b91506020830151612f9f8161428f565b60008060408385031215613579578182fd5b61358283612be2565b915060208301516001600160401b038082111561359d578283fd5b90840190604082870312156135b0578283fd5b6135b8614105565b8251828111156135c6578485fd5b6135d288828601612e28565b825250602083015192506135e5836142ac565b8260208201528093505050509250929050565b6000806040838503121561360a578182fd5b61361383612be2565b915060208301516001600160401b0381111561362d578182fd5b61363985828601612d84565b9150509250929050565b60008060408385031215613655578182fd5b61365e83612be2565b915060208301516001600160401b0380821115613679578283fd5b9084019060c0828703121561368c578283fd5b6136946140e3565b8251828111156136a2578485fd5b6136ae88828601612e28565b8252506136bd60208401612bf4565b60208201526136ce604084016127e5565b60408201526136df60608401612be2565b60608201526080830151828111156136f5578485fd5b61370188828601612b9f565b60808301525061371360a084016127e5565b60a08201528093505050509250929050565b60008060408385031215613737578182fd5b61374083612be2565b915060208301516001600160401b0381111561375a578182fd5b61363985828601612e28565b60008060408385031215613778578182fd5b61378183612be2565b9150602083015190509250929050565b6000806000606084860312156137a5578081fd5b6137ae84612be2565b92506020808501516137bf816142be565b60408601519093506001600160401b038111156137da578283fd5b8501601f810187136137ea578283fd5b80516137f86128108261417a565b8082825284820191508484018a868560051b8701011115613817578687fd5b8694505b8385101561310157805161382e8161429d565b83526001949094019391850191850161381b565b6000815180845260208085019450808401835b8381101561387457815160070b87529582019590820190600101613855565b509495945050505050565b6000815180845260208085019450808401835b83811015613874578151805163ffffffff168852838101516001600160a01b03908116858a01526040808301511515908a01526060808301511515908a0152608091820151169088015260a09096019590820190600101613892565b6000815180845260208085019450808401835b83811015613874578151805163ffffffff9081168952848201518116858a01526040808301518216908a01526060808301519091169089015260808082015115159089015260a0908101516001600160a01b03169088015260c09096019590820190600101613901565b6000815180845260208085019450808401835b8381101561387457815180516001600160a01b03908116895284820151168489015260409081015160070b908801526060909601959082019060010161397e565b6000815180845260208085019450808401835b83811015613874578151805163ffffffff9081168952848201518116858a0152604080830151909116908901526060808201516001600160a01b03908116918a01919091526080808301511515908a015260a091820151169088015260c090960195908201906001016139d2565b600081518084526020808501808196508360051b81019150828601855b85811015613a9b5782840389528151805185528501516040868601819052613a8781870183613c07565b9a87019a9550505090840190600101613a5d565b5091979650505050505050565b60008151808452613ac08160208601602086016141c4565b601f01601f19169290920160200192915050565b6000815160408452613ae96040850182613ce9565b60209384015163ffffffff16949093019390935250919050565b60006101608251818552613b1982860182613aa8565b91505060208301518482036020860152613b338282613aa8565b9150506040830151613b5060408601826001600160a01b03169052565b5060608301518482036060860152613b688282613aa8565b9150506080830151613b7e608086018215159052565b5060a0830151613b9660a086018263ffffffff169052565b5060c0830151613baa60c086018215159052565b5060e083015184820360e0860152613bc28282613a40565b61010085810151805163ffffffff9081168984015260208201516001600160a01b03166101208a015260408201511661014089015291935091505b5090949350505050565b8051151582526000602082015160018060a01b0380821660208601526040840151915060a06040860152613c3e60a0860183613aa8565b915060608401518583036060870152613c578382613aa8565b925050806080850151166080860152508091505092915050565b6000815160c08452613c8660c0850182613ce9565b9050602083015160070b6020850152604083015160018060a01b038082166040870152606085015160030b6060870152608085015191508583036080870152613ccf8383613aa8565b92508060a08601511660a087015250508091505092915050565b60006101208251818552613cff82860182613b03565b91505060208301518482036020860152613d19828261387f565b91505060408301518482036040860152613d3382826138ee565b91505060608301518482036060860152613d4d82826139bf565b9150506080830151613d63608086018215159052565b5060a0830151613d7760a086018215159052565b5060c083015184820360c0860152613d8f8282613aa8565b91505060e0830151613da560e086018215159052565b50610100838101516001600160401b03811686830152613bfd565b60008251613dd28184602087016141c4565b9190910192915050565b6001600160a01b03848116825283166020820152606060408201819052600090613e0890830184613842565b95945050505050565b6001600160a01b0383168152604060208201819052600090610ece90830184613a40565b60006060820160018060a01b038616835260206001600160401b038616818501526060604085015281855180845260808601915060808160051b8701019350828701855b82811015613ea757607f19888703018452613e95868351613aa8565b95509284019290840190600101613e79565b50939998505050505050505050565b60006020808301818452808551808352604092508286019150828160051b870101848801865b83811015613f7b57888303603f19018552815180516001600160a01b0390811685528882015160608a870181905281519087018190526080870192918b0191908c905b80821015613f4d5783518051841686528d015160070b8d860152938b0193928c019260019190910190613f1f565b50505050908701518482038589015290613f67818361396b565b968901969450505090860190600101613edc565b509098975050505050505050565b828152604060208201526000610ece6040830184613ad4565b828152604060208201526000610ece6040830184613c07565b828152604060208201526000610ece6040830184613c71565b828152604060208201526000610ece6040830184613ce9565b8381526001600160401b0383166020820152606060408201526000613e086060830184613842565b602081526000610d196020830184613ad4565b602081526000610d196020830184613b03565b60608152600061404e6060830186613b03565b60208301949094525060400152919050565b602081526000610d196020830184613c07565b602081526000610d196020830184613c71565b602081526000610d196020830184613ce9565b6001600160401b0383168152604060208201526000610ece6040830184613842565b60405160a081016001600160401b03811182821017156140dd576140dd614261565b60405290565b60405160c081016001600160401b03811182821017156140dd576140dd614261565b604080519081016001600160401b03811182821017156140dd576140dd614261565b60405161012081016001600160401b03811182821017156140dd576140dd614261565b604051601f8201601f191681016001600160401b038111828210171561417257614172614261565b604052919050565b60006001600160401b0382111561419357614193614261565b5060051b60200190565b60006001600160401b038211156141b6576141b6614261565b50601f01601f191660200190565b60005b838110156141df5781810151838201526020016141c7565b838111156141ee576000848401525b50505050565b600181811c9082168061420857607f821691505b6020821081141561422957634e487b7160e01b600052602260045260246000fd5b50919050565b60008160070b677fffffffffffffff1981141561425a57634e487b7160e01b82526011600452602482fd5b9003919050565b634e487b7160e01b600052604160045260246000fd5b6001600160a01b038116811461428c57600080fd5b50565b801515811461428c57600080fd5b8060070b811461428c57600080fd5b63ffffffff8116811461428c57600080fd5b6001600160401b038116811461428c57600080fdfe90a5cf4cffe88b4edbb041cfc7a8a812c48a5ec30b84640fb37690875168e3aaa2646970667358221220a9a4b369f493e0520d107444bdbdcf31dcb779064762d3b5b82ac9a4ea651a0b64736f6c63430008040033",
  "linkReferences": {},
  "deployedLinkReferences": {}
}