{
  "_format": "hh-sol-artifact-1",
  "contractName": "BaseHTS",
  "sourceName": "contracts/BaseHTS.sol",
  "abi": [
    {
      "anonymous": false,
      "inputs": [
        {
          "indexed": false,
          "internalType": "uint256",
          "name": "amount",
          "type": "uint256"
        }
      ],
      "name": "AllowanceValue",
      "type": "event"
    },
    {
      "anonymous": false,
      "inputs": [
        {
          "indexed": false,
          "internalType": "bool",
          "name": "approved",
          "type": "bool"
        }
      ],
      "name": "Approved",
      "type": "event"
    },
    {
      "anonymous": false,
      "inputs": [
        {
          "indexed": false,
          "internalType": "address",
          "name": "approved",
          "type": "address"
        }
      ],
      "name": "ApprovedAddress",
      "type": "event"
    },
    {
      "anonymous": false,
      "inputs": [
        {
          "indexed": false,
          "internalType": "address",
          "name": "tokenAddress",
          "type": "address"
        }
      ],
      "name": "CreatedToken",
      "type": "event"
    },
    {
      "anonymous": false,
      "inputs": [
        {
          "indexed": false,
          "internalType": "bool",
          "name": "freezeStatus",
          "type": "bool"
        }
      ],
      "name": "DefaultFreezeStatusChanged",
      "type": "event"
    },
    {
      "anonymous": false,
      "inputs": [
        {
          "indexed": false,
          "internalType": "bool",
          "name": "frozen",
          "type": "bool"
        }
      ],
      "name": "Frozen",
      "type": "event"
    },
    {
      "anonymous": false,
      "inputs": [
        {
          "components": [
            {
              "components": [
                {
                  "components": [
                    {
                      "internalType": "string",
                      "name": "name",
                      "type": "string"
                    },
                    {
                      "internalType": "string",
                      "name": "symbol",
                      "type": "string"
                    },
                    {
                      "internalType": "address",
                      "name": "treasury",
                      "type": "address"
                    },
                    {
                      "internalType": "string",
                      "name": "memo",
                      "type": "string"
                    },
                    {
                      "internalType": "bool",
                      "name": "tokenSupplyType",
                      "type": "bool"
                    },
                    {
                      "internalType": "int64",
                      "name": "maxSupply",
                      "type": "int64"
                    },
                    {
                      "internalType": "bool",
                      "name": "freezeDefault",
                      "type": "bool"
                    },
                    {
                      "components": [
                        {
                          "internalType": "uint256",
                          "name": "keyType",
                          "type": "uint256"
                        },
                        {
                          "components": [
                            {
                              "internalType": "bool",
                              "name": "inheritAccountKey",
                              "type": "bool"
                            },
                            {
                              "internalType": "address",
                              "name": "contractId",
                              "type": "address"
                            },
                            {
                              "internalType": "bytes",
                              "name": "ed25519",
                              "type": "bytes"
                            },
                            {
                              "internalType": "bytes",
                              "name": "ECDSA_secp256k1",
                              "type": "bytes"
                            },
                            {
                              "internalType": "address",
                              "name": "delegatableContractId",
                              "type": "address"
                            }
                          ],
                          "internalType": "struct IHederaTokenService.KeyValue",
                          "name": "key",
                          "type": "tuple"
                        }
                      ],
                      "internalType": "struct IHederaTokenService.TokenKey[]",
                      "name": "tokenKeys",
                      "type": "tuple[]"
                    },
                    {
                      "components": [
                        {
                          "internalType": "uint32",
                          "name": "second",
                          "type": "uint32"
                        },
                        {
                          "internalType": "address",
                          "name": "autoRenewAccount",
                          "type": "address"
                        },
                        {
                          "internalType": "uint32",
                          "name": "autoRenewPeriod",
                          "type": "uint32"
                        }
                      ],
                      "internalType": "struct IHederaTokenService.Expiry",
                      "name": "expiry",
                      "type": "tuple"
                    }
                  ],
                  "internalType": "struct IHederaTokenService.HederaToken",
                  "name": "token",
                  "type": "tuple"
                },
                {
                  "internalType": "uint64",
                  "name": "totalSupply",
                  "type": "uint64"
                },
                {
                  "internalType": "bool",
                  "name": "deleted",
                  "type": "bool"
                },
                {
                  "internalType": "bool",
                  "name": "defaultKycStatus",
                  "type": "bool"
                },
                {
                  "internalType": "bool",
                  "name": "pauseStatus",
                  "type": "bool"
                },
                {
                  "components": [
                    {
                      "internalType": "uint32",
                      "name": "amount",
                      "type": "uint32"
                    },
                    {
                      "internalType": "address",
                      "name": "tokenId",
                      "type": "address"
                    },
                    {
                      "internalType": "bool",
                      "name": "useHbarsForPayment",
                      "type": "bool"
                    },
                    {
                      "internalType": "bool",
                      "name": "useCurrentTokenForPayment",
                      "type": "bool"
                    },
                    {
                      "internalType": "address",
                      "name": "feeCollector",
                      "type": "address"
                    }
                  ],
                  "internalType": "struct IHederaTokenService.FixedFee[]",
                  "name": "fixedFees",
                  "type": "tuple[]"
                },
                {
                  "components": [
                    {
                      "internalType": "uint32",
                      "name": "numerator",
                      "type": "uint32"
                    },
                    {
                      "internalType": "uint32",
                      "name": "denominator",
                      "type": "uint32"
                    },
                    {
                      "internalType": "uint32",
                      "name": "minimumAmount",
                      "type": "uint32"
                    },
                    {
                      "internalType": "uint32",
                      "name": "maximumAmount",
                      "type": "uint32"
                    },
                    {
                      "internalType": "bool",
                      "name": "netOfTransfers",
                      "type": "bool"
                    },
                    {
                      "internalType": "address",
                      "name": "feeCollector",
                      "type": "address"
                    }
                  ],
                  "internalType": "struct IHederaTokenService.FractionalFee[]",
                  "name": "fractionalFees",
                  "type": "tuple[]"
                },
                {
                  "components": [
                    {
                      "internalType": "uint32",
                      "name": "numerator",
                      "type": "uint32"
                    },
                    {
                      "internalType": "uint32",
                      "name": "denominator",
                      "type": "uint32"
                    },
                    {
                      "internalType": "uint32",
                      "name": "amount",
                      "type": "uint32"
                    },
                    {
                      "internalType": "address",
                      "name": "tokenId",
                      "type": "address"
                    },
                    {
                      "internalType": "bool",
                      "name": "useHbarsForPayment",
                      "type": "bool"
                    },
                    {
                      "internalType": "address",
                      "name": "feeCollector",
                      "type": "address"
                    }
                  ],
                  "internalType": "struct IHederaTokenService.RoyaltyFee[]",
                  "name": "royaltyFees",
                  "type": "tuple[]"
                },
                {
                  "internalType": "string",
                  "name": "ledgerId",
                  "type": "string"
                }
              ],
              "internalType": "struct IHederaTokenService.TokenInfo",
              "name": "tokenInfo",
              "type": "tuple"
            },
            {
              "internalType": "uint32",
              "name": "decimals",
              "type": "uint32"
            }
          ],
          "indexed": false,
          "internalType": "struct IHederaTokenService.FungibleTokenInfo",
          "name": "tokenInfo",
          "type": "tuple"
        }
      ],
      "name": "FungibleTokenInfo",
      "type": "event"
    },
    {
      "anonymous": false,
      "inputs": [
        {
          "indexed": false,
          "internalType": "bool",
          "name": "kycGranted",
          "type": "bool"
        }
      ],
      "name": "KycGranted",
      "type": "event"
    },
    {
      "anonymous": false,
      "inputs": [
        {
          "indexed": false,
          "internalType": "uint64",
          "name": "newTotalSupply",
          "type": "uint64"
        },
        {
          "indexed": false,
          "internalType": "int64[]",
          "name": "serialNumbers",
          "type": "int64[]"
        }
      ],
      "name": "MintedToken",
      "type": "event"
    },
    {
      "anonymous": false,
      "inputs": [
        {
          "components": [
            {
              "components": [
                {
                  "components": [
                    {
                      "internalType": "string",
                      "name": "name",
                      "type": "string"
                    },
                    {
                      "internalType": "string",
                      "name": "symbol",
                      "type": "string"
                    },
                    {
                      "internalType": "address",
                      "name": "treasury",
                      "type": "address"
                    },
                    {
                      "internalType": "string",
                      "name": "memo",
                      "type": "string"
                    },
                    {
                      "internalType": "bool",
                      "name": "tokenSupplyType",
                      "type": "bool"
                    },
                    {
                      "internalType": "int64",
                      "name": "maxSupply",
                      "type": "int64"
                    },
                    {
                      "internalType": "bool",
                      "name": "freezeDefault",
                      "type": "bool"
                    },
                    {
                      "components": [
                        {
                          "internalType": "uint256",
                          "name": "keyType",
                          "type": "uint256"
                        },
                        {
                          "components": [
                            {
                              "internalType": "bool",
                              "name": "inheritAccountKey",
                              "type": "bool"
                            },
                            {
                              "internalType": "address",
                              "name": "contractId",
                              "type": "address"
                            },
                            {
                              "internalType": "bytes",
                              "name": "ed25519",
                              "type": "bytes"
                            },
                            {
                              "internalType": "bytes",
                              "name": "ECDSA_secp256k1",
                              "type": "bytes"
                            },
                            {
                              "internalType": "address",
                              "name": "delegatableContractId",
                              "type": "address"
                            }
                          ],
                          "internalType": "struct IHederaTokenService.KeyValue",
                          "name": "key",
                          "type": "tuple"
                        }
                      ],
                      "internalType": "struct IHederaTokenService.TokenKey[]",
                      "name": "tokenKeys",
                      "type": "tuple[]"
                    },
                    {
                      "components": [
                        {
                          "internalType": "uint32",
                          "name": "second",
                          "type": "uint32"
                        },
                        {
                          "internalType": "address",
                          "name": "autoRenewAccount",
                          "type": "address"
                        },
                        {
                          "internalType": "uint32",
                          "name": "autoRenewPeriod",
                          "type": "uint32"
                        }
                      ],
                      "internalType": "struct IHederaTokenService.Expiry",
                      "name": "expiry",
                      "type": "tuple"
                    }
                  ],
                  "internalType": "struct IHederaTokenService.HederaToken",
                  "name": "token",
                  "type": "tuple"
                },
                {
                  "internalType": "uint64",
                  "name": "totalSupply",
                  "type": "uint64"
                },
                {
                  "internalType": "bool",
                  "name": "deleted",
                  "type": "bool"
                },
                {
                  "internalType": "bool",
                  "name": "defaultKycStatus",
                  "type": "bool"
                },
                {
                  "internalType": "bool",
                  "name": "pauseStatus",
                  "type": "bool"
                },
                {
                  "components": [
                    {
                      "internalType": "uint32",
                      "name": "amount",
                      "type": "uint32"
                    },
                    {
                      "internalType": "address",
                      "name": "tokenId",
                      "type": "address"
                    },
                    {
                      "internalType": "bool",
                      "name": "useHbarsForPayment",
                      "type": "bool"
                    },
                    {
                      "internalType": "bool",
                      "name": "useCurrentTokenForPayment",
                      "type": "bool"
                    },
                    {
                      "internalType": "address",
                      "name": "feeCollector",
                      "type": "address"
                    }
                  ],
                  "internalType": "struct IHederaTokenService.FixedFee[]",
                  "name": "fixedFees",
                  "type": "tuple[]"
                },
                {
                  "components": [
                    {
                      "internalType": "uint32",
                      "name": "numerator",
                      "type": "uint32"
                    },
                    {
                      "internalType": "uint32",
                      "name": "denominator",
                      "type": "uint32"
                    },
                    {
                      "internalType": "uint32",
                      "name": "minimumAmount",
                      "type": "uint32"
                    },
                    {
                      "internalType": "uint32",
                      "name": "maximumAmount",
                      "type": "uint32"
                    },
                    {
                      "internalType": "bool",
                      "name": "netOfTransfers",
                      "type": "bool"
                    },
                    {
                      "internalType": "address",
                      "name": "feeCollector",
                      "type": "address"
                    }
                  ],
                  "internalType": "struct IHederaTokenService.FractionalFee[]",
                  "name": "fractionalFees",
                  "type": "tuple[]"
                },
                {
                  "components": [
                    {
                      "internalType": "uint32",
                      "name": "numerator",
                      "type": "uint32"
                    },
                    {
                      "internalType": "uint32",
                      "name": "denominator",
                      "type": "uint32"
                    },
                    {
                      "internalType": "uint32",
                      "name": "amount",
                      "type": "uint32"
                    },
                    {
                      "internalType": "address",
                      "name": "tokenId",
                      "type": "address"
                    },
                    {
                      "internalType": "bool",
                      "name": "useHbarsForPayment",
                      "type": "bool"
                    },
                    {
                      "internalType": "address",
                      "name": "feeCollector",
                      "type": "address"
                    }
                  ],
                  "internalType": "struct IHederaTokenService.RoyaltyFee[]",
                  "name": "royaltyFees",
                  "type": "tuple[]"
                },
                {
                  "internalType": "string",
                  "name": "ledgerId",
                  "type": "string"
                }
              ],
              "internalType": "struct IHederaTokenService.TokenInfo",
              "name": "tokenInfo",
              "type": "tuple"
            },
            {
              "internalType": "int64",
              "name": "serialNumber",
              "type": "int64"
            },
            {
              "internalType": "address",
              "name": "ownerId",
              "type": "address"
            },
            {
              "internalType": "int64",
              "name": "creationTime",
              "type": "int64"
            },
            {
              "internalType": "bytes",
              "name": "metadata",
              "type": "bytes"
            },
            {
              "internalType": "address",
              "name": "spenderId",
              "type": "address"
            }
          ],
          "indexed": false,
          "internalType": "struct IHederaTokenService.NonFungibleTokenInfo",
          "name": "tokenInfo",
          "type": "tuple"
        }
      ],
      "name": "NonFungibleTokenInfo",
      "type": "event"
    },
    {
      "anonymous": false,
      "inputs": [
        {
          "indexed": false,
          "internalType": "bool",
          "name": "paused",
          "type": "bool"
        }
      ],
      "name": "PausedToken",
      "type": "event"
    },
    {
      "anonymous": false,
      "inputs": [
        {
          "indexed": false,
          "internalType": "int256",
          "name": "responseCode",
          "type": "int256"
        }
      ],
      "name": "ResponseCode",
      "type": "event"
    },
    {
      "anonymous": false,
      "inputs": [
        {
          "components": [
            {
              "internalType": "uint32",
              "name": "amount",
              "type": "uint32"
            },
            {
              "internalType": "address",
              "name": "tokenId",
              "type": "address"
            },
            {
              "internalType": "bool",
              "name": "useHbarsForPayment",
              "type": "bool"
            },
            {
              "internalType": "bool",
              "name": "useCurrentTokenForPayment",
              "type": "bool"
            },
            {
              "internalType": "address",
              "name": "feeCollector",
              "type": "address"
            }
          ],
          "indexed": false,
          "internalType": "struct IHederaTokenService.FixedFee[]",
          "name": "fixedFees",
          "type": "tuple[]"
        },
        {
          "components": [
            {
              "internalType": "uint32",
              "name": "numerator",
              "type": "uint32"
            },
            {
              "internalType": "uint32",
              "name": "denominator",
              "type": "uint32"
            },
            {
              "internalType": "uint32",
              "name": "minimumAmount",
              "type": "uint32"
            },
            {
              "internalType": "uint32",
              "name": "maximumAmount",
              "type": "uint32"
            },
            {
              "internalType": "bool",
              "name": "netOfTransfers",
              "type": "bool"
            },
            {
              "internalType": "address",
              "name": "feeCollector",
              "type": "address"
            }
          ],
          "indexed": false,
          "internalType": "struct IHederaTokenService.FractionalFee[]",
          "name": "fractionalFees",
          "type": "tuple[]"
        },
        {
          "components": [
            {
              "internalType": "uint32",
              "name": "numerator",
              "type": "uint32"
            },
            {
              "internalType": "uint32",
              "name": "denominator",
              "type": "uint32"
            },
            {
              "internalType": "uint32",
              "name": "amount",
              "type": "uint32"
            },
            {
              "internalType": "address",
              "name": "tokenId",
              "type": "address"
            },
            {
              "internalType": "bool",
              "name": "useHbarsForPayment",
              "type": "bool"
            },
            {
              "internalType": "address",
              "name": "feeCollector",
              "type": "address"
            }
          ],
          "indexed": false,
          "internalType": "struct IHederaTokenService.RoyaltyFee[]",
          "name": "royaltyFees",
          "type": "tuple[]"
        }
      ],
      "name": "TokenCustomFees",
      "type": "event"
    },
    {
      "anonymous": false,
      "inputs": [
        {
          "indexed": false,
          "internalType": "bool",
          "name": "defaultFreezeStatus",
          "type": "bool"
        }
      ],
      "name": "TokenDefaultFreezeStatus",
      "type": "event"
    },
    {
      "anonymous": false,
      "inputs": [
        {
          "indexed": false,
          "internalType": "bool",
          "name": "defaultKycStatus",
          "type": "bool"
        }
      ],
      "name": "TokenDefaultKycStatus",
      "type": "event"
    },
    {
      "anonymous": false,
      "inputs": [
        {
          "components": [
            {
              "internalType": "uint32",
              "name": "second",
              "type": "uint32"
            },
            {
              "internalType": "address",
              "name": "autoRenewAccount",
              "type": "address"
            },
            {
              "internalType": "uint32",
              "name": "autoRenewPeriod",
              "type": "uint32"
            }
          ],
          "indexed": false,
          "internalType": "struct IHederaTokenService.Expiry",
          "name": "expiryInfo",
          "type": "tuple"
        }
      ],
      "name": "TokenExpiryInfo",
      "type": "event"
    },
    {
      "anonymous": false,
      "inputs": [
        {
          "components": [
            {
              "components": [
                {
                  "internalType": "string",
                  "name": "name",
                  "type": "string"
                },
                {
                  "internalType": "string",
                  "name": "symbol",
                  "type": "string"
                },
                {
                  "internalType": "address",
                  "name": "treasury",
                  "type": "address"
                },
                {
                  "internalType": "string",
                  "name": "memo",
                  "type": "string"
                },
                {
                  "internalType": "bool",
                  "name": "tokenSupplyType",
                  "type": "bool"
                },
                {
                  "internalType": "int64",
                  "name": "maxSupply",
                  "type": "int64"
                },
                {
                  "internalType": "bool",
                  "name": "freezeDefault",
                  "type": "bool"
                },
                {
                  "components": [
                    {
                      "internalType": "uint256",
                      "name": "keyType",
                      "type": "uint256"
                    },
                    {
                      "components": [
                        {
                          "internalType": "bool",
                          "name": "inheritAccountKey",
                          "type": "bool"
                        },
                        {
                          "internalType": "address",
                          "name": "contractId",
                          "type": "address"
                        },
                        {
                          "internalType": "bytes",
                          "name": "ed25519",
                          "type": "bytes"
                        },
                        {
                          "internalType": "bytes",
                          "name": "ECDSA_secp256k1",
                          "type": "bytes"
                        },
                        {
                          "internalType": "address",
                          "name": "delegatableContractId",
                          "type": "address"
                        }
                      ],
                      "internalType": "struct IHederaTokenService.KeyValue",
                      "name": "key",
                      "type": "tuple"
                    }
                  ],
                  "internalType": "struct IHederaTokenService.TokenKey[]",
                  "name": "tokenKeys",
                  "type": "tuple[]"
                },
                {
                  "components": [
                    {
                      "internalType": "uint32",
                      "name": "second",
                      "type": "uint32"
                    },
                    {
                      "internalType": "address",
                      "name": "autoRenewAccount",
                      "type": "address"
                    },
                    {
                      "internalType": "uint32",
                      "name": "autoRenewPeriod",
                      "type": "uint32"
                    }
                  ],
                  "internalType": "struct IHederaTokenService.Expiry",
                  "name": "expiry",
                  "type": "tuple"
                }
              ],
              "internalType": "struct IHederaTokenService.HederaToken",
              "name": "token",
              "type": "tuple"
            },
            {
              "internalType": "uint64",
              "name": "totalSupply",
              "type": "uint64"
            },
            {
              "internalType": "bool",
              "name": "deleted",
              "type": "bool"
            },
            {
              "internalType": "bool",
              "name": "defaultKycStatus",
              "type": "bool"
            },
            {
              "internalType": "bool",
              "name": "pauseStatus",
              "type": "bool"
            },
            {
              "components": [
                {
                  "internalType": "uint32",
                  "name": "amount",
                  "type": "uint32"
                },
                {
                  "internalType": "address",
                  "name": "tokenId",
                  "type": "address"
                },
                {
                  "internalType": "bool",
                  "name": "useHbarsForPayment",
                  "type": "bool"
                },
                {
                  "internalType": "bool",
                  "name": "useCurrentTokenForPayment",
                  "type": "bool"
                },
                {
                  "internalType": "address",
                  "name": "feeCollector",
                  "type": "address"
                }
              ],
              "internalType": "struct IHederaTokenService.FixedFee[]",
              "name": "fixedFees",
              "type": "tuple[]"
            },
            {
              "components": [
                {
                  "internalType": "uint32",
                  "name": "numerator",
                  "type": "uint32"
                },
                {
                  "internalType": "uint32",
                  "name": "denominator",
                  "type": "uint32"
                },
                {
                  "internalType": "uint32",
                  "name": "minimumAmount",
                  "type": "uint32"
                },
                {
                  "internalType": "uint32",
                  "name": "maximumAmount",
                  "type": "uint32"
                },
                {
                  "internalType": "bool",
                  "name": "netOfTransfers",
                  "type": "bool"
                },
                {
                  "internalType": "address",
                  "name": "feeCollector",
                  "type": "address"
                }
              ],
              "internalType": "struct IHederaTokenService.FractionalFee[]",
              "name": "fractionalFees",
              "type": "tuple[]"
            },
            {
              "components": [
                {
                  "internalType": "uint32",
                  "name": "numerator",
                  "type": "uint32"
                },
                {
                  "internalType": "uint32",
                  "name": "denominator",
                  "type": "uint32"
                },
                {
                  "internalType": "uint32",
                  "name": "amount",
                  "type": "uint32"
                },
                {
                  "internalType": "address",
                  "name": "tokenId",
                  "type": "address"
                },
                {
                  "internalType": "bool",
                  "name": "useHbarsForPayment",
                  "type": "bool"
                },
                {
                  "internalType": "address",
                  "name": "feeCollector",
                  "type": "address"
                }
              ],
              "internalType": "struct IHederaTokenService.RoyaltyFee[]",
              "name": "royaltyFees",
              "type": "tuple[]"
            },
            {
              "internalType": "string",
              "name": "ledgerId",
              "type": "string"
            }
          ],
          "indexed": false,
          "internalType": "struct IHederaTokenService.TokenInfo",
          "name": "tokenInfo",
          "type": "tuple"
        }
      ],
      "name": "TokenInfo",
      "type": "event"
    },
    {
      "anonymous": false,
      "inputs": [
        {
          "indexed": false,
          "internalType": "bool",
          "name": "unpaused",
          "type": "bool"
        }
      ],
      "name": "UnpausedToken",
      "type": "event"
    },
    {
      "inputs": [
        {
          "internalType": "address",
          "name": "token",
          "type": "address"
        },
        {
          "internalType": "address",
          "name": "owner",
          "type": "address"
        },
        {
          "internalType": "address",
          "name": "spender",
          "type": "address"
        }
      ],
      "name": "allowancePublic",
      "outputs": [
        {
          "internalType": "int256",
          "name": "responseCode",
          "type": "int256"
        },
        {
          "internalType": "uint256",
          "name": "amount",
          "type": "uint256"
        }
      ],
      "stateMutability": "nonpayable",
      "type": "function"
    },
    {
      "inputs": [
        {
          "internalType": "address",
          "name": "token",
          "type": "address"
        },
        {
          "internalType": "address",
          "name": "spender",
          "type": "address"
        },
        {
          "internalType": "uint256",
          "name": "amount",
          "type": "uint256"
        }
      ],
      "name": "approvePublic",
      "outputs": [
        {
          "internalType": "int256",
          "name": "responseCode",
          "type": "int256"
        }
      ],
      "stateMutability": "nonpayable",
      "type": "function"
    },
    {
      "inputs": [
        {
          "internalType": "address",
          "name": "account",
          "type": "address"
        },
        {
          "internalType": "address",
          "name": "token",
          "type": "address"
        }
      ],
      "name": "associateTokenPublic",
      "outputs": [
        {
          "internalType": "int256",
          "name": "responseCode",
          "type": "int256"
        }
      ],
      "stateMutability": "nonpayable",
      "type": "function"
    },
    {
      "inputs": [
        {
          "internalType": "address",
          "name": "treasury",
          "type": "address"
        }
      ],
      "name": "createFungibleTokenPublic",
      "outputs": [],
      "stateMutability": "payable",
      "type": "function"
    },
    {
      "inputs": [
        {
          "internalType": "address",
          "name": "treasury",
          "type": "address"
        },
        {
          "internalType": "address",
          "name": "fixedFeeTokenAddress",
          "type": "address"
        }
      ],
      "name": "createFungibleTokenWithCustomFeesPublic",
      "outputs": [],
      "stateMutability": "payable",
      "type": "function"
    },
    {
      "inputs": [
        {
          "internalType": "address",
          "name": "treasury",
          "type": "address"
        }
      ],
      "name": "createNonFungibleTokenPublic",
      "outputs": [],
      "stateMutability": "payable",
      "type": "function"
    },
    {
      "inputs": [
        {
          "components": [
            {
              "internalType": "address",
              "name": "token",
              "type": "address"
            },
            {
              "components": [
                {
                  "internalType": "address",
                  "name": "accountID",
                  "type": "address"
                },
                {
                  "internalType": "int64",
                  "name": "amount",
                  "type": "int64"
                }
              ],
              "internalType": "struct IHederaTokenService.AccountAmount[]",
              "name": "transfers",
              "type": "tuple[]"
            },
            {
              "components": [
                {
                  "internalType": "address",
                  "name": "senderAccountID",
                  "type": "address"
                },
                {
                  "internalType": "address",
                  "name": "receiverAccountID",
                  "type": "address"
                },
                {
                  "internalType": "int64",
                  "name": "serialNumber",
                  "type": "int64"
                }
              ],
              "internalType": "struct IHederaTokenService.NftTransfer[]",
              "name": "nftTransfers",
              "type": "tuple[]"
            }
          ],
          "internalType": "struct IHederaTokenService.TokenTransferList[]",
          "name": "tokenTransferList",
          "type": "tuple[]"
        }
      ],
      "name": "cryptoTransferPublic",
      "outputs": [
        {
          "internalType": "int256",
          "name": "responseCode",
          "type": "int256"
        }
      ],
      "stateMutability": "nonpayable",
      "type": "function"
    },
    {
      "inputs": [
        {
          "internalType": "address",
          "name": "account",
          "type": "address"
        },
        {
          "internalType": "address",
          "name": "token",
          "type": "address"
        },
        {
          "internalType": "int64",
          "name": "amount",
          "type": "int64"
        }
      ],
      "name": "cryptoTransferTokenPublic",
      "outputs": [
        {
          "internalType": "int256",
          "name": "responseCode",
          "type": "int256"
        }
      ],
      "stateMutability": "nonpayable",
      "type": "function"
    },
    {
      "inputs": [
        {
          "internalType": "address",
          "name": "token",
          "type": "address"
        }
      ],
      "name": "deleteTokenPublic",
      "outputs": [
        {
          "internalType": "int256",
          "name": "responseCode",
          "type": "int256"
        }
      ],
      "stateMutability": "nonpayable",
      "type": "function"
    },
    {
      "inputs": [
        {
          "internalType": "address",
          "name": "token",
          "type": "address"
        },
        {
          "internalType": "address",
          "name": "account",
          "type": "address"
        }
      ],
      "name": "freezeTokenPublic",
      "outputs": [
        {
          "internalType": "int256",
          "name": "responseCode",
          "type": "int256"
        }
      ],
      "stateMutability": "nonpayable",
      "type": "function"
    },
    {
      "inputs": [
        {
          "internalType": "address",
          "name": "token",
          "type": "address"
        },
        {
          "internalType": "uint256",
          "name": "serialNumber",
          "type": "uint256"
        }
      ],
      "name": "getApprovedPublic",
      "outputs": [
        {
          "internalType": "int256",
          "name": "responseCode",
          "type": "int256"
        },
        {
          "internalType": "address",
          "name": "approved",
          "type": "address"
        }
      ],
      "stateMutability": "nonpayable",
      "type": "function"
    },
    {
      "inputs": [
        {
          "internalType": "address",
          "name": "token",
          "type": "address"
        }
      ],
      "name": "getFungibleTokenInfoPublic",
      "outputs": [
        {
          "internalType": "int256",
          "name": "responseCode",
          "type": "int256"
        },
        {
          "components": [
            {
              "components": [
                {
                  "components": [
                    {
                      "internalType": "string",
                      "name": "name",
                      "type": "string"
                    },
                    {
                      "internalType": "string",
                      "name": "symbol",
                      "type": "string"
                    },
                    {
                      "internalType": "address",
                      "name": "treasury",
                      "type": "address"
                    },
                    {
                      "internalType": "string",
                      "name": "memo",
                      "type": "string"
                    },
                    {
                      "internalType": "bool",
                      "name": "tokenSupplyType",
                      "type": "bool"
                    },
                    {
                      "internalType": "int64",
                      "name": "maxSupply",
                      "type": "int64"
                    },
                    {
                      "internalType": "bool",
                      "name": "freezeDefault",
                      "type": "bool"
                    },
                    {
                      "components": [
                        {
                          "internalType": "uint256",
                          "name": "keyType",
                          "type": "uint256"
                        },
                        {
                          "components": [
                            {
                              "internalType": "bool",
                              "name": "inheritAccountKey",
                              "type": "bool"
                            },
                            {
                              "internalType": "address",
                              "name": "contractId",
                              "type": "address"
                            },
                            {
                              "internalType": "bytes",
                              "name": "ed25519",
                              "type": "bytes"
                            },
                            {
                              "internalType": "bytes",
                              "name": "ECDSA_secp256k1",
                              "type": "bytes"
                            },
                            {
                              "internalType": "address",
                              "name": "delegatableContractId",
                              "type": "address"
                            }
                          ],
                          "internalType": "struct IHederaTokenService.KeyValue",
                          "name": "key",
                          "type": "tuple"
                        }
                      ],
                      "internalType": "struct IHederaTokenService.TokenKey[]",
                      "name": "tokenKeys",
                      "type": "tuple[]"
                    },
                    {
                      "components": [
                        {
                          "internalType": "uint32",
                          "name": "second",
                          "type": "uint32"
                        },
                        {
                          "internalType": "address",
                          "name": "autoRenewAccount",
                          "type": "address"
                        },
                        {
                          "internalType": "uint32",
                          "name": "autoRenewPeriod",
                          "type": "uint32"
                        }
                      ],
                      "internalType": "struct IHederaTokenService.Expiry",
                      "name": "expiry",
                      "type": "tuple"
                    }
                  ],
                  "internalType": "struct IHederaTokenService.HederaToken",
                  "name": "token",
                  "type": "tuple"
                },
                {
                  "internalType": "uint64",
                  "name": "totalSupply",
                  "type": "uint64"
                },
                {
                  "internalType": "bool",
                  "name": "deleted",
                  "type": "bool"
                },
                {
                  "internalType": "bool",
                  "name": "defaultKycStatus",
                  "type": "bool"
                },
                {
                  "internalType": "bool",
                  "name": "pauseStatus",
                  "type": "bool"
                },
                {
                  "components": [
                    {
                      "internalType": "uint32",
                      "name": "amount",
                      "type": "uint32"
                    },
                    {
                      "internalType": "address",
                      "name": "tokenId",
                      "type": "address"
                    },
                    {
                      "internalType": "bool",
                      "name": "useHbarsForPayment",
                      "type": "bool"
                    },
                    {
                      "internalType": "bool",
                      "name": "useCurrentTokenForPayment",
                      "type": "bool"
                    },
                    {
                      "internalType": "address",
                      "name": "feeCollector",
                      "type": "address"
                    }
                  ],
                  "internalType": "struct IHederaTokenService.FixedFee[]",
                  "name": "fixedFees",
                  "type": "tuple[]"
                },
                {
                  "components": [
                    {
                      "internalType": "uint32",
                      "name": "numerator",
                      "type": "uint32"
                    },
                    {
                      "internalType": "uint32",
                      "name": "denominator",
                      "type": "uint32"
                    },
                    {
                      "internalType": "uint32",
                      "name": "minimumAmount",
                      "type": "uint32"
                    },
                    {
                      "internalType": "uint32",
                      "name": "maximumAmount",
                      "type": "uint32"
                    },
                    {
                      "internalType": "bool",
                      "name": "netOfTransfers",
                      "type": "bool"
                    },
                    {
                      "internalType": "address",
                      "name": "feeCollector",
                      "type": "address"
                    }
                  ],
                  "internalType": "struct IHederaTokenService.FractionalFee[]",
                  "name": "fractionalFees",
                  "type": "tuple[]"
                },
                {
                  "components": [
                    {
                      "internalType": "uint32",
                      "name": "numerator",
                      "type": "uint32"
                    },
                    {
                      "internalType": "uint32",
                      "name": "denominator",
                      "type": "uint32"
                    },
                    {
                      "internalType": "uint32",
                      "name": "amount",
                      "type": "uint32"
                    },
                    {
                      "internalType": "address",
                      "name": "tokenId",
                      "type": "address"
                    },
                    {
                      "internalType": "bool",
                      "name": "useHbarsForPayment",
                      "type": "bool"
                    },
                    {
                      "internalType": "address",
                      "name": "feeCollector",
                      "type": "address"
                    }
                  ],
                  "internalType": "struct IHederaTokenService.RoyaltyFee[]",
                  "name": "royaltyFees",
                  "type": "tuple[]"
                },
                {
                  "internalType": "string",
                  "name": "ledgerId",
                  "type": "string"
                }
              ],
              "internalType": "struct IHederaTokenService.TokenInfo",
              "name": "tokenInfo",
              "type": "tuple"
            },
            {
              "internalType": "uint32",
              "name": "decimals",
              "type": "uint32"
            }
          ],
          "internalType": "struct IHederaTokenService.FungibleTokenInfo",
          "name": "tokenInfo",
          "type": "tuple"
        }
      ],
      "stateMutability": "nonpayable",
      "type": "function"
    },
    {
      "inputs": [
        {
          "internalType": "address",
          "name": "token",
          "type": "address"
        },
        {
          "internalType": "int64",
          "name": "serialNumber",
          "type": "int64"
        }
      ],
      "name": "getNonFungibleTokenInfoPublic",
      "outputs": [
        {
          "internalType": "int256",
          "name": "responseCode",
          "type": "int256"
        },
        {
          "components": [
            {
              "components": [
                {
                  "components": [
                    {
                      "internalType": "string",
                      "name": "name",
                      "type": "string"
                    },
                    {
                      "internalType": "string",
                      "name": "symbol",
                      "type": "string"
                    },
                    {
                      "internalType": "address",
                      "name": "treasury",
                      "type": "address"
                    },
                    {
                      "internalType": "string",
                      "name": "memo",
                      "type": "string"
                    },
                    {
                      "internalType": "bool",
                      "name": "tokenSupplyType",
                      "type": "bool"
                    },
                    {
                      "internalType": "int64",
                      "name": "maxSupply",
                      "type": "int64"
                    },
                    {
                      "internalType": "bool",
                      "name": "freezeDefault",
                      "type": "bool"
                    },
                    {
                      "components": [
                        {
                          "internalType": "uint256",
                          "name": "keyType",
                          "type": "uint256"
                        },
                        {
                          "components": [
                            {
                              "internalType": "bool",
                              "name": "inheritAccountKey",
                              "type": "bool"
                            },
                            {
                              "internalType": "address",
                              "name": "contractId",
                              "type": "address"
                            },
                            {
                              "internalType": "bytes",
                              "name": "ed25519",
                              "type": "bytes"
                            },
                            {
                              "internalType": "bytes",
                              "name": "ECDSA_secp256k1",
                              "type": "bytes"
                            },
                            {
                              "internalType": "address",
                              "name": "delegatableContractId",
                              "type": "address"
                            }
                          ],
                          "internalType": "struct IHederaTokenService.KeyValue",
                          "name": "key",
                          "type": "tuple"
                        }
                      ],
                      "internalType": "struct IHederaTokenService.TokenKey[]",
                      "name": "tokenKeys",
                      "type": "tuple[]"
                    },
                    {
                      "components": [
                        {
                          "internalType": "uint32",
                          "name": "second",
                          "type": "uint32"
                        },
                        {
                          "internalType": "address",
                          "name": "autoRenewAccount",
                          "type": "address"
                        },
                        {
                          "internalType": "uint32",
                          "name": "autoRenewPeriod",
                          "type": "uint32"
                        }
                      ],
                      "internalType": "struct IHederaTokenService.Expiry",
                      "name": "expiry",
                      "type": "tuple"
                    }
                  ],
                  "internalType": "struct IHederaTokenService.HederaToken",
                  "name": "token",
                  "type": "tuple"
                },
                {
                  "internalType": "uint64",
                  "name": "totalSupply",
                  "type": "uint64"
                },
                {
                  "internalType": "bool",
                  "name": "deleted",
                  "type": "bool"
                },
                {
                  "internalType": "bool",
                  "name": "defaultKycStatus",
                  "type": "bool"
                },
                {
                  "internalType": "bool",
                  "name": "pauseStatus",
                  "type": "bool"
                },
                {
                  "components": [
                    {
                      "internalType": "uint32",
                      "name": "amount",
                      "type": "uint32"
                    },
                    {
                      "internalType": "address",
                      "name": "tokenId",
                      "type": "address"
                    },
                    {
                      "internalType": "bool",
                      "name": "useHbarsForPayment",
                      "type": "bool"
                    },
                    {
                      "internalType": "bool",
                      "name": "useCurrentTokenForPayment",
                      "type": "bool"
                    },
                    {
                      "internalType": "address",
                      "name": "feeCollector",
                      "type": "address"
                    }
                  ],
                  "internalType": "struct IHederaTokenService.FixedFee[]",
                  "name": "fixedFees",
                  "type": "tuple[]"
                },
                {
                  "components": [
                    {
                      "internalType": "uint32",
                      "name": "numerator",
                      "type": "uint32"
                    },
                    {
                      "internalType": "uint32",
                      "name": "denominator",
                      "type": "uint32"
                    },
                    {
                      "internalType": "uint32",
                      "name": "minimumAmount",
                      "type": "uint32"
                    },
                    {
                      "internalType": "uint32",
                      "name": "maximumAmount",
                      "type": "uint32"
                    },
                    {
                      "internalType": "bool",
                      "name": "netOfTransfers",
                      "type": "bool"
                    },
                    {
                      "internalType": "address",
                      "name": "feeCollector",
                      "type": "address"
                    }
                  ],
                  "internalType": "struct IHederaTokenService.FractionalFee[]",
                  "name": "fractionalFees",
                  "type": "tuple[]"
                },
                {
                  "components": [
                    {
                      "internalType": "uint32",
                      "name": "numerator",
                      "type": "uint32"
                    },
                    {
                      "internalType": "uint32",
                      "name": "denominator",
                      "type": "uint32"
                    },
                    {
                      "internalType": "uint32",
                      "name": "amount",
                      "type": "uint32"
                    },
                    {
                      "internalType": "address",
                      "name": "tokenId",
                      "type": "address"
                    },
                    {
                      "internalType": "bool",
                      "name": "useHbarsForPayment",
                      "type": "bool"
                    },
                    {
                      "internalType": "address",
                      "name": "feeCollector",
                      "type": "address"
                    }
                  ],
                  "internalType": "struct IHederaTokenService.RoyaltyFee[]",
                  "name": "royaltyFees",
                  "type": "tuple[]"
                },
                {
                  "internalType": "string",
                  "name": "ledgerId",
                  "type": "string"
                }
              ],
              "internalType": "struct IHederaTokenService.TokenInfo",
              "name": "tokenInfo",
              "type": "tuple"
            },
            {
              "internalType": "int64",
              "name": "serialNumber",
              "type": "int64"
            },
            {
              "internalType": "address",
              "name": "ownerId",
              "type": "address"
            },
            {
              "internalType": "int64",
              "name": "creationTime",
              "type": "int64"
            },
            {
              "internalType": "bytes",
              "name": "metadata",
              "type": "bytes"
            },
            {
              "internalType": "address",
              "name": "spenderId",
              "type": "address"
            }
          ],
          "internalType": "struct IHederaTokenService.NonFungibleTokenInfo",
          "name": "tokenInfo",
          "type": "tuple"
        }
      ],
      "stateMutability": "nonpayable",
      "type": "function"
    },
    {
      "inputs": [
        {
          "internalType": "address",
          "name": "token",
          "type": "address"
        }
      ],
      "name": "getTokenCustomFeesPublic",
      "outputs": [
        {
          "internalType": "int64",
          "name": "responseCode",
          "type": "int64"
        },
        {
          "components": [
            {
              "internalType": "uint32",
              "name": "amount",
              "type": "uint32"
            },
            {
              "internalType": "address",
              "name": "tokenId",
              "type": "address"
            },
            {
              "internalType": "bool",
              "name": "useHbarsForPayment",
              "type": "bool"
            },
            {
              "internalType": "bool",
              "name": "useCurrentTokenForPayment",
              "type": "bool"
            },
            {
              "internalType": "address",
              "name": "feeCollector",
              "type": "address"
            }
          ],
          "internalType": "struct IHederaTokenService.FixedFee[]",
          "name": "fixedFees",
          "type": "tuple[]"
        },
        {
          "components": [
            {
              "internalType": "uint32",
              "name": "numerator",
              "type": "uint32"
            },
            {
              "internalType": "uint32",
              "name": "denominator",
              "type": "uint32"
            },
            {
              "internalType": "uint32",
              "name": "minimumAmount",
              "type": "uint32"
            },
            {
              "internalType": "uint32",
              "name": "maximumAmount",
              "type": "uint32"
            },
            {
              "internalType": "bool",
              "name": "netOfTransfers",
              "type": "bool"
            },
            {
              "internalType": "address",
              "name": "feeCollector",
              "type": "address"
            }
          ],
          "internalType": "struct IHederaTokenService.FractionalFee[]",
          "name": "fractionalFees",
          "type": "tuple[]"
        },
        {
          "components": [
            {
              "internalType": "uint32",
              "name": "numerator",
              "type": "uint32"
            },
            {
              "internalType": "uint32",
              "name": "denominator",
              "type": "uint32"
            },
            {
              "internalType": "uint32",
              "name": "amount",
              "type": "uint32"
            },
            {
              "internalType": "address",
              "name": "tokenId",
              "type": "address"
            },
            {
              "internalType": "bool",
              "name": "useHbarsForPayment",
              "type": "bool"
            },
            {
              "internalType": "address",
              "name": "feeCollector",
              "type": "address"
            }
          ],
          "internalType": "struct IHederaTokenService.RoyaltyFee[]",
          "name": "royaltyFees",
          "type": "tuple[]"
        }
      ],
      "stateMutability": "nonpayable",
      "type": "function"
    },
    {
      "inputs": [
        {
          "internalType": "address",
          "name": "token",
          "type": "address"
        }
      ],
      "name": "getTokenDefaultFreezeStatusPublic",
      "outputs": [
        {
          "internalType": "int256",
          "name": "responseCode",
          "type": "int256"
        },
        {
          "internalType": "bool",
          "name": "defaultFreezeStatus",
          "type": "bool"
        }
      ],
      "stateMutability": "nonpayable",
      "type": "function"
    },
    {
      "inputs": [
        {
          "internalType": "address",
          "name": "token",
          "type": "address"
        }
      ],
      "name": "getTokenDefaultKycStatusPublic",
      "outputs": [
        {
          "internalType": "int256",
          "name": "responseCode",
          "type": "int256"
        },
        {
          "internalType": "bool",
          "name": "defaultKycStatus",
          "type": "bool"
        }
      ],
      "stateMutability": "nonpayable",
      "type": "function"
    },
    {
      "inputs": [
        {
          "internalType": "address",
          "name": "token",
          "type": "address"
        }
      ],
      "name": "getTokenExpiryInfo",
      "outputs": [
        {
          "internalType": "int256",
          "name": "responseCode",
          "type": "int256"
        },
        {
          "components": [
            {
              "internalType": "uint32",
              "name": "second",
              "type": "uint32"
            },
            {
              "internalType": "address",
              "name": "autoRenewAccount",
              "type": "address"
            },
            {
              "internalType": "uint32",
              "name": "autoRenewPeriod",
              "type": "uint32"
            }
          ],
          "internalType": "struct IHederaTokenService.Expiry",
          "name": "expiryInfo",
          "type": "tuple"
        }
      ],
      "stateMutability": "nonpayable",
      "type": "function"
    },
    {
      "inputs": [
        {
          "internalType": "address",
          "name": "token",
          "type": "address"
        }
      ],
      "name": "getTokenExpiryInfoPublic",
      "outputs": [
        {
          "internalType": "int256",
          "name": "responseCode",
          "type": "int256"
        },
        {
          "components": [
            {
              "internalType": "uint32",
              "name": "second",
              "type": "uint32"
            },
            {
              "internalType": "address",
              "name": "autoRenewAccount",
              "type": "address"
            },
            {
              "internalType": "uint32",
              "name": "autoRenewPeriod",
              "type": "uint32"
            }
          ],
          "internalType": "struct IHederaTokenService.Expiry",
          "name": "expiryInfo",
          "type": "tuple"
        }
      ],
      "stateMutability": "nonpayable",
      "type": "function"
    },
    {
      "inputs": [
        {
          "internalType": "address",
          "name": "token",
          "type": "address"
        }
      ],
      "name": "getTokenInfoPublic",
      "outputs": [
        {
          "internalType": "int256",
          "name": "responseCode",
          "type": "int256"
        },
        {
          "components": [
            {
              "components": [
                {
                  "internalType": "string",
                  "name": "name",
                  "type": "string"
                },
                {
                  "internalType": "string",
                  "name": "symbol",
                  "type": "string"
                },
                {
                  "internalType": "address",
                  "name": "treasury",
                  "type": "address"
                },
                {
                  "internalType": "string",
                  "name": "memo",
                  "type": "string"
                },
                {
                  "internalType": "bool",
                  "name": "tokenSupplyType",
                  "type": "bool"
                },
                {
                  "internalType": "int64",
                  "name": "maxSupply",
                  "type": "int64"
                },
                {
                  "internalType": "bool",
                  "name": "freezeDefault",
                  "type": "bool"
                },
                {
                  "components": [
                    {
                      "internalType": "uint256",
                      "name": "keyType",
                      "type": "uint256"
                    },
                    {
                      "components": [
                        {
                          "internalType": "bool",
                          "name": "inheritAccountKey",
                          "type": "bool"
                        },
                        {
                          "internalType": "address",
                          "name": "contractId",
                          "type": "address"
                        },
                        {
                          "internalType": "bytes",
                          "name": "ed25519",
                          "type": "bytes"
                        },
                        {
                          "internalType": "bytes",
                          "name": "ECDSA_secp256k1",
                          "type": "bytes"
                        },
                        {
                          "internalType": "address",
                          "name": "delegatableContractId",
                          "type": "address"
                        }
                      ],
                      "internalType": "struct IHederaTokenService.KeyValue",
                      "name": "key",
                      "type": "tuple"
                    }
                  ],
                  "internalType": "struct IHederaTokenService.TokenKey[]",
                  "name": "tokenKeys",
                  "type": "tuple[]"
                },
                {
                  "components": [
                    {
                      "internalType": "uint32",
                      "name": "second",
                      "type": "uint32"
                    },
                    {
                      "internalType": "address",
                      "name": "autoRenewAccount",
                      "type": "address"
                    },
                    {
                      "internalType": "uint32",
                      "name": "autoRenewPeriod",
                      "type": "uint32"
                    }
                  ],
                  "internalType": "struct IHederaTokenService.Expiry",
                  "name": "expiry",
                  "type": "tuple"
                }
              ],
              "internalType": "struct IHederaTokenService.HederaToken",
              "name": "token",
              "type": "tuple"
            },
            {
              "internalType": "uint64",
              "name": "totalSupply",
              "type": "uint64"
            },
            {
              "internalType": "bool",
              "name": "deleted",
              "type": "bool"
            },
            {
              "internalType": "bool",
              "name": "defaultKycStatus",
              "type": "bool"
            },
            {
              "internalType": "bool",
              "name": "pauseStatus",
              "type": "bool"
            },
            {
              "components": [
                {
                  "internalType": "uint32",
                  "name": "amount",
                  "type": "uint32"
                },
                {
                  "internalType": "address",
                  "name": "tokenId",
                  "type": "address"
                },
                {
                  "internalType": "bool",
                  "name": "useHbarsForPayment",
                  "type": "bool"
                },
                {
                  "internalType": "bool",
                  "name": "useCurrentTokenForPayment",
                  "type": "bool"
                },
                {
                  "internalType": "address",
                  "name": "feeCollector",
                  "type": "address"
                }
              ],
              "internalType": "struct IHederaTokenService.FixedFee[]",
              "name": "fixedFees",
              "type": "tuple[]"
            },
            {
              "components": [
                {
                  "internalType": "uint32",
                  "name": "numerator",
                  "type": "uint32"
                },
                {
                  "internalType": "uint32",
                  "name": "denominator",
                  "type": "uint32"
                },
                {
                  "internalType": "uint32",
                  "name": "minimumAmount",
                  "type": "uint32"
                },
                {
                  "internalType": "uint32",
                  "name": "maximumAmount",
                  "type": "uint32"
                },
                {
                  "internalType": "bool",
                  "name": "netOfTransfers",
                  "type": "bool"
                },
                {
                  "internalType": "address",
                  "name": "feeCollector",
                  "type": "address"
                }
              ],
              "internalType": "struct IHederaTokenService.FractionalFee[]",
              "name": "fractionalFees",
              "type": "tuple[]"
            },
            {
              "components": [
                {
                  "internalType": "uint32",
                  "name": "numerator",
                  "type": "uint32"
                },
                {
                  "internalType": "uint32",
                  "name": "denominator",
                  "type": "uint32"
                },
                {
                  "internalType": "uint32",
                  "name": "amount",
                  "type": "uint32"
                },
                {
                  "internalType": "address",
                  "name": "tokenId",
                  "type": "address"
                },
                {
                  "internalType": "bool",
                  "name": "useHbarsForPayment",
                  "type": "bool"
                },
                {
                  "internalType": "address",
                  "name": "feeCollector",
                  "type": "address"
                }
              ],
              "internalType": "struct IHederaTokenService.RoyaltyFee[]",
              "name": "royaltyFees",
              "type": "tuple[]"
            },
            {
              "internalType": "string",
              "name": "ledgerId",
              "type": "string"
            }
          ],
          "internalType": "struct IHederaTokenService.TokenInfo",
          "name": "tokenInfo",
          "type": "tuple"
        }
      ],
      "stateMutability": "nonpayable",
      "type": "function"
    },
    {
      "inputs": [
        {
          "internalType": "address",
          "name": "token",
          "type": "address"
        },
        {
          "internalType": "address",
          "name": "account",
          "type": "address"
        }
      ],
      "name": "grantTokenKyc",
      "outputs": [
        {
          "internalType": "int64",
          "name": "responseCode",
          "type": "int64"
        }
      ],
      "stateMutability": "nonpayable",
      "type": "function"
    },
    {
      "inputs": [
        {
          "internalType": "address",
          "name": "token",
          "type": "address"
        },
        {
          "internalType": "address",
          "name": "account",
          "type": "address"
        }
      ],
      "name": "grantTokenKycPublic",
      "outputs": [
        {
          "internalType": "int64",
          "name": "responseCode",
          "type": "int64"
        }
      ],
      "stateMutability": "nonpayable",
      "type": "function"
    },
    {
      "inputs": [
        {
          "internalType": "address",
          "name": "token",
          "type": "address"
        },
        {
          "internalType": "address",
          "name": "owner",
          "type": "address"
        },
        {
          "internalType": "address",
          "name": "operator",
          "type": "address"
        }
      ],
      "name": "isApprovedForAllPublic",
      "outputs": [
        {
          "internalType": "int256",
          "name": "responseCode",
          "type": "int256"
        },
        {
          "internalType": "bool",
          "name": "approved",
          "type": "bool"
        }
      ],
      "stateMutability": "nonpayable",
      "type": "function"
    },
    {
      "inputs": [
        {
          "internalType": "address",
          "name": "token",
          "type": "address"
        },
        {
          "internalType": "address",
          "name": "account",
          "type": "address"
        }
      ],
      "name": "isFrozenPublic",
      "outputs": [
        {
          "internalType": "int256",
          "name": "responseCode",
          "type": "int256"
        },
        {
          "internalType": "bool",
          "name": "frozen",
          "type": "bool"
        }
      ],
      "stateMutability": "nonpayable",
      "type": "function"
    },
    {
      "inputs": [
        {
          "internalType": "address",
          "name": "token",
          "type": "address"
        },
        {
          "internalType": "address",
          "name": "account",
          "type": "address"
        }
      ],
      "name": "isKyc",
      "outputs": [
        {
          "internalType": "int64",
          "name": "responseCode",
          "type": "int64"
        },
        {
          "internalType": "bool",
          "name": "kycGranted",
          "type": "bool"
        }
      ],
      "stateMutability": "nonpayable",
      "type": "function"
    },
    {
      "inputs": [
        {
          "internalType": "address",
          "name": "token",
          "type": "address"
        },
        {
          "internalType": "address",
          "name": "account",
          "type": "address"
        }
      ],
      "name": "isKycPublic",
      "outputs": [
        {
          "internalType": "int64",
          "name": "responseCode",
          "type": "int64"
        },
        {
          "internalType": "bool",
          "name": "kycGranted",
          "type": "bool"
        }
      ],
      "stateMutability": "nonpayable",
      "type": "function"
    },
    {
      "inputs": [
        {
          "internalType": "address",
          "name": "token",
          "type": "address"
        },
        {
          "internalType": "uint64",
          "name": "amount",
          "type": "uint64"
        },
        {
          "internalType": "bytes[]",
          "name": "metadata",
          "type": "bytes[]"
        }
      ],
      "name": "mintTokenPublic",
      "outputs": [
        {
          "internalType": "int256",
          "name": "responseCode",
          "type": "int256"
        },
        {
          "internalType": "uint64",
          "name": "newTotalSupply",
          "type": "uint64"
        },
        {
          "internalType": "int64[]",
          "name": "serialNumbers",
          "type": "int64[]"
        }
      ],
      "stateMutability": "nonpayable",
      "type": "function"
    },
    {
      "inputs": [
        {
          "internalType": "address",
          "name": "token",
          "type": "address"
        }
      ],
      "name": "pauseToken",
      "outputs": [
        {
          "internalType": "int256",
          "name": "responseCode",
          "type": "int256"
        }
      ],
      "stateMutability": "nonpayable",
      "type": "function"
    },
    {
      "inputs": [
        {
          "internalType": "address",
          "name": "token",
          "type": "address"
        }
      ],
      "name": "pauseTokenPublic",
      "outputs": [
        {
          "internalType": "int256",
          "name": "responseCode",
          "type": "int256"
        }
      ],
      "stateMutability": "nonpayable",
      "type": "function"
    },
    {
      "inputs": [
        {
          "internalType": "address",
          "name": "token",
          "type": "address"
        },
        {
          "internalType": "address",
          "name": "account",
          "type": "address"
        }
      ],
      "name": "revokeTokenKyc",
      "outputs": [
        {
          "internalType": "int64",
          "name": "responseCode",
          "type": "int64"
        }
      ],
      "stateMutability": "nonpayable",
      "type": "function"
    },
    {
      "inputs": [
        {
          "internalType": "address",
          "name": "token",
          "type": "address"
        },
        {
          "internalType": "address",
          "name": "account",
          "type": "address"
        }
      ],
      "name": "revokeTokenKycPublic",
      "outputs": [
        {
          "internalType": "int64",
          "name": "responseCode",
          "type": "int64"
        }
      ],
      "stateMutability": "nonpayable",
      "type": "function"
    },
    {
      "inputs": [
        {
          "internalType": "address",
          "name": "token",
          "type": "address"
        },
        {
          "internalType": "address",
          "name": "operator",
          "type": "address"
        },
        {
          "internalType": "bool",
          "name": "approved",
          "type": "bool"
        }
      ],
      "name": "setApprovalForAllPublic",
      "outputs": [
        {
          "internalType": "int256",
          "name": "responseCode",
          "type": "int256"
        }
      ],
      "stateMutability": "nonpayable",
      "type": "function"
    },
    {
      "inputs": [
        {
          "internalType": "bool",
          "name": "newFreezeStatus",
          "type": "bool"
        }
      ],
      "name": "setFreezeDefaultStatus",
      "outputs": [],
      "stateMutability": "nonpayable",
      "type": "function"
    },
    {
      "inputs": [
        {
          "internalType": "address",
          "name": "token",
          "type": "address"
        },
        {
          "internalType": "address",
          "name": "sender",
          "type": "address"
        },
        {
          "internalType": "address",
          "name": "receiver",
          "type": "address"
        },
        {
          "internalType": "int64",
          "name": "serialNumber",
          "type": "int64"
        }
      ],
      "name": "transferNFTPublic",
      "outputs": [
        {
          "internalType": "int256",
          "name": "responseCode",
          "type": "int256"
        }
      ],
      "stateMutability": "nonpayable",
      "type": "function"
    },
    {
      "inputs": [
        {
          "internalType": "address",
          "name": "token",
          "type": "address"
        },
        {
          "internalType": "address",
          "name": "sender",
          "type": "address"
        },
        {
          "internalType": "address",
          "name": "receiver",
          "type": "address"
        },
        {
          "internalType": "int64",
          "name": "amount",
          "type": "int64"
        }
      ],
      "name": "transferTokenPublic",
      "outputs": [
        {
          "internalType": "int256",
          "name": "responseCode",
          "type": "int256"
        }
      ],
      "stateMutability": "nonpayable",
      "type": "function"
    },
    {
      "inputs": [
        {
          "internalType": "address",
          "name": "token",
          "type": "address"
        },
        {
          "internalType": "address",
          "name": "account",
          "type": "address"
        }
      ],
      "name": "unfreezeTokenPublic",
      "outputs": [
        {
          "internalType": "int256",
          "name": "responseCode",
          "type": "int256"
        }
      ],
      "stateMutability": "nonpayable",
      "type": "function"
    },
    {
      "inputs": [
        {
          "internalType": "address",
          "name": "token",
          "type": "address"
        }
      ],
      "name": "unpauseToken",
      "outputs": [
        {
          "internalType": "int256",
          "name": "responseCode",
          "type": "int256"
        }
      ],
      "stateMutability": "nonpayable",
      "type": "function"
    },
    {
      "inputs": [
        {
          "internalType": "address",
          "name": "token",
          "type": "address"
        }
      ],
      "name": "unpauseTokenPublic",
      "outputs": [
        {
          "internalType": "int256",
          "name": "responseCode",
          "type": "int256"
        }
      ],
      "stateMutability": "nonpayable",
      "type": "function"
    },
    {
      "inputs": [
        {
          "internalType": "address",
          "name": "token",
          "type": "address"
        },
        {
          "components": [
            {
              "internalType": "uint32",
              "name": "second",
              "type": "uint32"
            },
            {
              "internalType": "address",
              "name": "autoRenewAccount",
              "type": "address"
            },
            {
              "internalType": "uint32",
              "name": "autoRenewPeriod",
              "type": "uint32"
            }
          ],
          "internalType": "struct IHederaTokenService.Expiry",
          "name": "expiryInfo",
          "type": "tuple"
        }
      ],
      "name": "updateTokenExpiryInfo",
      "outputs": [
        {
          "internalType": "int256",
          "name": "responseCode",
          "type": "int256"
        }
      ],
      "stateMutability": "nonpayable",
      "type": "function"
    },
    {
      "inputs": [
        {
          "internalType": "address",
          "name": "token",
          "type": "address"
        },
        {
          "components": [
            {
              "internalType": "uint32",
              "name": "second",
              "type": "uint32"
            },
            {
              "internalType": "address",
              "name": "autoRenewAccount",
              "type": "address"
            },
            {
              "internalType": "uint32",
              "name": "autoRenewPeriod",
              "type": "uint32"
            }
          ],
          "internalType": "struct IHederaTokenService.Expiry",
          "name": "expiryInfo",
          "type": "tuple"
        }
      ],
      "name": "updateTokenExpiryInfoPublic",
      "outputs": [
        {
          "internalType": "int256",
          "name": "responseCode",
          "type": "int256"
        }
      ],
      "stateMutability": "nonpayable",
      "type": "function"
    },
    {
      "inputs": [
        {
          "internalType": "address",
          "name": "token",
          "type": "address"
        },
        {
          "internalType": "address",
          "name": "account",
          "type": "address"
        },
        {
          "internalType": "int64[]",
          "name": "serialNumbers",
          "type": "int64[]"
        }
      ],
      "name": "wipeTokenAccountNFTPublic",
      "outputs": [
        {
          "internalType": "int256",
          "name": "responseCode",
          "type": "int256"
        }
      ],
      "stateMutability": "nonpayable",
      "type": "function"
    },
    {
      "inputs": [
        {
          "internalType": "address",
          "name": "token",
          "type": "address"
        },
        {
          "internalType": "address",
          "name": "account",
          "type": "address"
        },
        {
          "internalType": "uint32",
          "name": "amount",
          "type": "uint32"
        }
      ],
      "name": "wipeTokenAccountPublic",
      "outputs": [
        {
          "internalType": "int256",
          "name": "responseCode",
          "type": "int256"
        }
      ],
      "stateMutability": "nonpayable",
      "type": "function"
    }
  ],
  "bytecode": "0x60c06040526009608081905268746f6b656e4e616d6560b81b60a09081526200002c9160019190620000c7565b5060408051808201909152600b8082526a1d1bdad95b94de5b589bdb60aa1b60209092019182526200006191600291620000c7565b50604080518082019091526004808252636d656d6f60e01b60209092019182526200008f91600391620000c7565b50600480546001600160a81b031916700800000000000003e800000000000003e8179055348015620000c057600080fd5b50620001aa565b828054620000d5906200016d565b90600052602060002090601f016020900481019282620000f9576000855562000144565b82601f106200011457805160ff191683800117855562000144565b8280016001018555821562000144579182015b828111156200014457825182559160200191906001019062000127565b506200015292915062000156565b5090565b5b8082111562000152576000815560010162000157565b600181811c908216806200018257607f821691505b60208210811415620001a457634e487b7160e01b600052602260045260246000fd5b50919050565b615b9b80620001ba6000396000f3fe6080604052600436106102c65760003560e01c80638070905f11610179578063d85f74c1116100d6578063f2f38a741161008a578063f848fec411610064578063f848fec414610844578063f9e978bd14610864578063fdc8321e1461088457600080fd5b8063f2f38a74146107d6578063f4a01e5b14610804578063f7be34251461082457600080fd5b8063eee55ac8116100bb578063eee55ac814610776578063f25b120014610796578063f2c31ff4146107b657600080fd5b8063d85f74c114610743578063d92ac2481461075657600080fd5b8063a345f7bd1161012d578063af99c63311610112578063af99c633146106d5578063c0b19b6d146106f5578063d614cdb81461072357600080fd5b8063a345f7bd1461067b578063a3ad5b551461069b57600080fd5b80638ba74da01161015e5780638ba74da0146106285780638f8d7f991461063b5780639604ca651461065b57600080fd5b80638070905f146105d957806386f88d881461060857600080fd5b80634cbdb37b1161022757806369837dc2116101db5780636da6b1f0116101c05780636da6b1f0146105795780637c41ad2c146105995780637d3e5da8146105b957600080fd5b806369837dc21461052b5780636a4dde211461055957600080fd5b8063593d6e821161020c578063593d6e82146104a65780635a5e6c31146104c65780635b9076b7146104fb57600080fd5b80634cbdb37b1461045857806356af84031461048657600080fd5b80632eecbca31161027e5780633eed2c39116102635780633eed2c39146104035780634b5c6687146104235780634ba670351461043857600080fd5b80632eecbca3146103c35780633b3bff0f146103e357600080fd5b806319db44b6116102af57806319db44b6146103385780632b256ec8146103755780632d73bb2e146103a357600080fd5b80630fd2601e146102cb57806313c05dd814610303575b600080fd5b3480156102d757600080fd5b506102eb6102e6366004613c51565b6108a4565b60405160079190910b81526020015b60405180910390f35b34801561030f57600080fd5b5061032361031e366004613c8a565b610968565b604080519283529015156020830152016102fa565b34801561034457600080fd5b50610358610353366004613cd5565b6109e6565b604080519283526001600160a01b039091166020830152016102fa565b34801561038157600080fd5b50610395610390366004613d01565b610a6a565b6040519081526020016102fa565b3480156103af57600080fd5b506103956103be366004613c51565b610b56565b3480156103cf57600080fd5b506102eb6103de366004613c51565b610b9b565b3480156103ef57600080fd5b506103956103fe366004613d01565b610bd2565b34801561040f57600080fd5b5061032361041e366004613d01565b610cac565b610436610431366004613d01565b610d26565b005b34801561044457600080fd5b50610395610453366004613d2d565b611114565b34801561046457600080fd5b50610478610473366004613d89565b611160565b6040516102fa9291906142ac565b34801561049257600080fd5b506103956104a13660046143e6565b6111d6565b3480156104b257600080fd5b506103956104c13660046144be565b611220565b3480156104d257600080fd5b506104e66104e1366004613c8a565b6112fd565b604080519283526020830191909152016102fa565b34801561050757600080fd5b5061051b610516366004613d01565b61136e565b6040516102fa949392919061453b565b34801561053757600080fd5b5061054b610546366004613d01565b611400565b6040516102fa9291906145b7565b34801561056557600080fd5b50610323610574366004613c51565b611475565b34801561058557600080fd5b50610395610594366004613d2d565b6114ec565b3480156105a557600080fd5b506103956105b4366004613d01565b6114fa565b3480156105c557600080fd5b506103956105d4366004613c51565b611528565b3480156105e557600080fd5b506105f96105f436600461460e565b611534565b6040516102fa93929190614757565b34801561061457600080fd5b50610323610623366004613d01565b6115bc565b610436610636366004613c51565b61162d565b34801561064757600080fd5b506102eb610656366004613c51565b611aef565b34801561066757600080fd5b50610395610676366004614789565b611b25565b34801561068757600080fd5b50610395610696366004613d01565b611b5a565b3480156106a757600080fd5b506106bb6106b6366004613c51565b611ba0565b6040805160079390930b83529015156020830152016102fa565b3480156106e157600080fd5b506102eb6106f0366004613c51565b611c92565b34801561070157600080fd5b50610715610710366004613d01565b611cc8565b6040516102fa9291906147fe565b34801561072f57600080fd5b5061071561073e366004613d01565b611dbf565b610436610751366004613d01565b611ec9565b34801561076257600080fd5b50610395610771366004614838565b61226e565b34801561078257600080fd5b506103956107913660046144be565b61227b565b3480156107a257600080fd5b506103956107b1366004614886565b61230e565b3480156107c257600080fd5b506106bb6107d1366004613c51565b61231b565b3480156107e257600080fd5b506107f66107f1366004613d01565b6123f6565b6040516102fa9291906148c6565b34801561081057600080fd5b5061039561081f366004613c51565b61246b565b34801561083057600080fd5b5061039561083f366004613d01565b612477565b34801561085057600080fd5b5061039561085f3660046148df565b61255a565b34801561087057600080fd5b5061043661087f366004614920565b612567565b34801561089057600080fd5b5061039561089f36600461493d565b6125dd565b604051638f8d7f9960e01b81526001600160a01b038084166004830152821660248201526000903090638f8d7f99906044015b602060405180830381600087803b1580156108f157600080fd5b505af1158015610905573d6000803e3d6000fd5b505050506040513d601f19601f820116820180604052508101906109299190614988565b604051600782900b8152909150600080516020615b468339815191529060200160405180910390a1600781900b60161461096257600080fd5b92915050565b6000806109768585856127b4565b6040518281529193509150600080516020615b468339815191529060200160405180910390a1601682146109a957600080fd5b60405181151581527e1c2e72360171244b3bb8cc8ddd767820edf37138ad6f129fb3574b407c307d906020015b60405180910390a1935093915050565b6000806109f384846128b3565b6040518281529193509150600080516020615b468339815191529060200160405180910390a160168214610a2657600080fd5b6040516001600160a01b03821681527fc2c78c7c31baf14949e75c51df12be56edb9af523cf82839c2869bbcf13b3ecb906020015b60405180910390a19250929050565b604051631f106b4b60e21b81526001600160a01b03821660048201526000903090637c41ad2c90602401602060405180830381600087803b158015610aae57600080fd5b505af1158015610ac2573d6000803e3d6000fd5b505050506040513d601f19601f82011682018060405250810190610ae691906149a5565b9050600080516020615b4683398151915281604051610b0791815260200190565b60405180910390a160168114610b1c57600080fd5b604051600181527f0c9c765845f4d139956bb8fc8decb2eec6093c9c608b809641b16054b29f0e13906020015b60405180910390a1919050565b6000610b628383612993565b60070b9050600080516020615b4683398151915281604051610b8691815260200190565b60405180910390a16016811461096257600080fd5b60405163af99c63360e01b81526001600160a01b03808416600483015282166024820152600090309063af99c633906044016108d7565b6040516001600160a01b03821660248201526000908190819061016790633b3bff0f60e01b906044015b60408051601f198184030181529181526020820180516001600160e01b03166001600160e01b0319909416939093179092529051610c3a91906149be565b6000604051808303816000865af19150503d8060008114610c77576040519150601f19603f3d011682016040523d82523d6000602084013e610c7c565b606091505b509150915081610c8d576015610ca1565b80806020019051810190610ca191906149ec565b60030b949350505050565b600080610cb8836129e2565b6040518281529193509150600080516020615b468339815191529060200160405180910390a160168214610ceb57600080fd5b60405181151581527f6b7f3306751292f85ab4161ee2b0ac16dfc8ded13e6446ce6bd859d0a2f4c78e906020015b60405180910390a1915091565b60408051600480825260a08201909252600091816020015b610d46613ac3565b815260200190600190039081610d3e579050509050610d7960006006600160405180602001604052806000815250612adf565b81600081518110610d8c57610d8c614a07565b6020026020010181905250610db260018060405180602001604052806000815250612b16565b81600181518110610dc557610dc5614a07565b6020026020010181905250610dec6002600160405180602001604052806000815250612b16565b81600281518110610dff57610dff614a07565b6020026020010181905250610e266003600160405180602001604052806000815250612b16565b81600381518110610e3957610e39614a07565b602002602001018190525060006040518060600160405280600063ffffffff168152602001846001600160a01b03168152602001627a120063ffffffff168152509050600060405180610120016040528060018054610e9790614a1d565b80601f0160208091040260200160405190810160405280929190818152602001828054610ec390614a1d565b8015610f105780601f10610ee557610100808354040283529160200191610f10565b820191906000526020600020905b815481529060010190602001808311610ef357829003601f168201915b5050505050815260200160028054610f2790614a1d565b80601f0160208091040260200160405190810160405280929190818152602001828054610f5390614a1d565b8015610fa05780601f10610f7557610100808354040283529160200191610fa0565b820191906000526020600020905b815481529060010190602001808311610f8357829003601f168201915b50505050508152602001856001600160a01b0316815260200160038054610fc690614a1d565b80601f0160208091040260200160405190810160405280929190818152602001828054610ff290614a1d565b801561103f5780601f106110145761010080835404028352916020019161103f565b820191906000526020600020905b81548152906001019060200180831161102257829003601f168201915b50505091835250506001602082015260045468010000000000000000810460070b6040830152600160a01b810460ff16151560608301526080820186905260a090910184905290915060009081906110be90849067ffffffffffffffff811690700100000000000000000000000000000000900463ffffffff16612b4b565b9092509050601682146110d057600080fd5b6040516001600160a01b03821681527f7bb17726df1f3adee8aa00ba8e8bc5d6f182af3bbf77604639cb7f008dd3b4ed9060200160405180910390a1505050505050565b600061112285858585612c79565b9050600080516020615b468339815191528160405161114391815260200190565b60405180910390a16016811461115857600080fd5b949350505050565b600061116a613b20565b6111748484612d89565b6040518281529193509150600080516020615b468339815191529060200160405180910390a1601682146111a757600080fd5b7fd010ef68d3ac3e07c14bed496400730a484fd17c48a4d373cbc4722a56540def81604051610a5b9190614a58565b60006111e3848484612e7c565b9050600080516020615b468339815191528160405161120491815260200190565b60405180910390a16016811461121957600080fd5b9392505050565b60008060006101676001600160a01b031663593d6e8260e01b868660405160240161124c929190614a6b565b60408051601f198184030181529181526020820180516001600160e01b03166001600160e01b031990941693909317909252905161128a91906149be565b6000604051808303816000865af19150503d80600081146112c7576040519150601f19603f3d011682016040523d82523d6000602084013e6112cc565b606091505b5091509150816112dd5760156112f1565b808060200190518101906112f191906149ec565b60030b95945050505050565b60008061130b858585612f5c565b6040518281529193509150600080516020615b468339815191529060200160405180910390a16016821461133e57600080fd5b6040518181527f25b6684a7e8fe1b676e9c39c8dd65034fbafea906d3bdfd97bf748b7b55e14c8906020016109d6565b6000606080606061137e85613048565b604051600785900b815293975091955093509150600080516020615b468339815191529060200160405180910390a1600784900b6016146113be57600080fd5b7f2efc8334b040613a552197fe34283d6ca2909c8ffae393e128424931f20c69b38383836040516113f193929190614aae565b60405180910390a19193509193565b600061140a613b5b565b61141383613148565b6040518281529193509150600080516020615b468339815191529060200160405180910390a16016821461144657600080fd5b7fea9419ffbaa766adf982c4c9864330eee1d848eff36c79e510e7e589c8bb265f81604051610d199190614ae7565b6000806114828484613231565b60405160079290920b80835293509150600080516020615b468339815191529060200160405180910390a1601682146114ba57600080fd5b60405181151581527f59800d968fcce138300a0019410b4b75041610d65b3cdc5f31656b03ed14912e90602001610a5b565b600061112285858585613282565b6040516001600160a01b03821660248201526000908190819061016790631f106b4b60e21b90604401610bfc565b6000610b6283836132e3565b6000806060611544868686613332565b6040518381529295509093509150600080516020615b468339815191529060200160405180910390a16016831461157a57600080fd5b7feff23992f47b3c101679f8b4dc9d3e242c903909dba4a453f2b2341ad463b0e282826040516115ab929190614afa565b60405180910390a193509350939050565b6000806115c883613430565b6040518281529193509150600080516020615b468339815191529060200160405180910390a1601682146115fb57600080fd5b60405181151581527f9ee19e13dfa1ba8db2502e15ff56dbecdeb0e0473323fb195473ce648030a2cd90602001610d19565b604080516001808252818301909252600091816020015b61164c613ac3565b81526020019060019003908161164457905050905061167e600080600160405180602001604052806000815250612adf565b8160008151811061169157611691614a07565b602002602001018190525060006040518060600160405280600063ffffffff168152602001856001600160a01b03168152602001627a120063ffffffff1681525090506000604051806101200160405280600180546116ef90614a1d565b80601f016020809104026020016040519081016040528092919081815260200182805461171b90614a1d565b80156117685780601f1061173d57610100808354040283529160200191611768565b820191906000526020600020905b81548152906001019060200180831161174b57829003601f168201915b505050505081526020016002805461177f90614a1d565b80601f01602080910402602001604051908101604052809291908181526020018280546117ab90614a1d565b80156117f85780601f106117cd576101008083540402835291602001916117f8565b820191906000526020600020905b8154815290600101906020018083116117db57829003601f168201915b50505050508152602001866001600160a01b031681526020016003805461181e90614a1d565b80601f016020809104026020016040519081016040528092919081815260200182805461184a90614a1d565b80156118975780601f1061186c57610100808354040283529160200191611897565b820191906000526020600020905b81548152906001019060200180831161187a57829003601f168201915b505050918352505060016020820181905260045468010000000000000000900460070b6040808401919091526000606084018190526080840188905260a09093018690528051828152808201909152929350909190816020015b6040805160a0810182526000808252602080830182905292820181905260608201819052608082015282526000199092019101816118f15750506040805160a081018252600181526001600160a01b0388811660208301526000928201839052606082018390528916608082015282519293509183919061197457611974614a07565b6020908102919091010152604080516001808252818301909252600091816020015b6040805160c08101825260008082526020808301829052928201819052606082018190526080820181905260a082015282526000199092019101816119965750506040805160c0810182526004815260056020820152600a91810191909152601e60608201526000608082018190526001600160a01b038a1660a083015282519293509091839190611a2a57611a2a614a07565b60209081029190910101526004546000908190611a7090869067ffffffffffffffff811690700100000000000000000000000000000000900463ffffffff168787613479565b91509150600080516020615b4683398151915282604051611a9391815260200190565b60405180910390a160168214611aa857600080fd5b6040516001600160a01b03821681527f7bb17726df1f3adee8aa00ba8e8bc5d6f182af3bbf77604639cb7f008dd3b4ed9060200160405180910390a1505050505050505050565b6040516001600160a01b038381166024830152821660448201526000908190819061016790638f8d7f9960e01b9060640161124c565b6000611b39611b348385614bcc565b6135ad565b9050600080516020615b4683398151915281604051610b8691815260200190565b6000611b65826135d7565b9050600080516020615b4683398151915281604051611b8691815260200190565b60405180910390a160168114611b9b57600080fd5b919050565b604051633cb0c7fd60e21b81526001600160a01b038084166004830152821660248201526000908190309063f2c31ff4906044016040805180830381600087803b158015611bed57600080fd5b505af1158015611c01573d6000803e3d6000fd5b505050506040513d601f19601f82011682018060405250810190611c259190614d44565b604051600783900b81529193509150600080516020615b468339815191529060200160405180910390a1600782900b601614611c6057600080fd5b60405181151581527fd24dda6928587354b65aa1a18c2eaf249bef7e5bafd2a71fac71d286f76f957f90602001610a5b565b6040516001600160a01b03838116602483015282166044820152600090819081906101679063af99c63360e01b9060640161124c565b60408051606081018252600080825260208201819052918101829052604051631ac299b760e31b81526001600160a01b0384166004820152309063d614cdb890602401608060405180830381600087803b158015611d2557600080fd5b505af1158015611d39573d6000803e3d6000fd5b505050506040513d601f19601f82011682018060405250810190611d5d9190614dd3565b6040518281529193509150600080516020615b468339815191529060200160405180910390a160168214611d9057600080fd5b7fa0a16bf9db2c17796faeca5af5aaeef8523f9d4c350c512cb00062ad89604f8881604051610d199190614e00565b604080516060810182526000808252602080830182905282840182905283516001600160a01b038616602480830191909152855180830390910181526044909101855290810180516001600160e01b0316631ac299b760e31b179052925190928391829161016791611e3191906149be565b6000604051808303816000865af19150503d8060008114611e6e576040519150601f19603f3d011682016040523d82523d6000602084013e611e73565b606091505b506040805160608101825260008082526020820181905291810191909152919350915082611ea357601581611eb7565b81806020019051810190611eb79190614e34565b60039190910b97909650945050505050565b60408051600580825260c08201909252600091816020015b611ee9613ac3565b815260200190600190039081611ee1579050509050611f1c60006006600160405180602001604052806000815250612adf565b81600081518110611f2f57611f2f614a07565b6020026020010181905250611f5560018060405180602001604052806000815250612b16565b81600181518110611f6857611f68614a07565b6020026020010181905250611f8f6002600160405180602001604052806000815250612b16565b81600281518110611fa257611fa2614a07565b6020026020010181905250611fc96004600160405180602001604052806000815250612b16565b81600381518110611fdc57611fdc614a07565b60200260200101819052506120036003600160405180602001604052806000815250612b16565b8160048151811061201657612016614a07565b602002602001018190525060006040518060600160405280600063ffffffff168152602001846001600160a01b03168152602001627a120063ffffffff16815250905060006040518061012001604052806001805461207490614a1d565b80601f01602080910402602001604051908101604052809291908181526020018280546120a090614a1d565b80156120ed5780601f106120c2576101008083540402835291602001916120ed565b820191906000526020600020905b8154815290600101906020018083116120d057829003601f168201915b505050505081526020016002805461210490614a1d565b80601f016020809104026020016040519081016040528092919081815260200182805461213090614a1d565b801561217d5780601f106121525761010080835404028352916020019161217d565b820191906000526020600020905b81548152906001019060200180831161216057829003601f168201915b50505050508152602001856001600160a01b03168152602001600380546121a390614a1d565b80601f01602080910402602001604051908101604052809291908181526020018280546121cf90614a1d565b801561221c5780601f106121f15761010080835404028352916020019161221c565b820191906000526020600020905b8154815290600101906020018083116121ff57829003601f168201915b50505091835250506001602082015260045468010000000000000000810460070b6040830152600160a01b900460ff16151560608201526080810185905260a00183905290506000806110be8361361e565b60006111e3848484613708565b6040517f593d6e82000000000000000000000000000000000000000000000000000000008152600090309063593d6e82906122bc9086908690600401614a6b565b602060405180830381600087803b1580156122d657600080fd5b505af11580156122ea573d6000803e3d6000fd5b505050506040513d601f19601f82011682018060405250810190611b3991906149a5565b60006111e3848484613763565b6040516001600160a01b0383811660248301528216604482015260009081908190819061016790633cb0c7fd60e21b906064015b60408051601f198184030181529181526020820180516001600160e01b03166001600160e01b031990941693909317909252905161238d91906149be565b6000604051808303816000865af19150503d80600081146123ca576040519150601f19603f3d011682016040523d82523d6000602084013e6123cf565b606091505b5091509150816123e25760156000611eb7565b80806020019051810190611eb79190614e5f565b6000612400613b7b565b612409836137ba565b6040518281529193509150600080516020615b468339815191529060200160405180910390a16016821461243c57600080fd5b7fbdb65f8c2a2e9a3a37ea49e903836883766a922e4ce9b21f684035e304962d4181604051610d199190614e8b565b6000611b3983836138a3565b604051633b3bff0f60e01b81526001600160a01b03821660048201526000903090633b3bff0f90602401602060405180830381600087803b1580156124bb57600080fd5b505af11580156124cf573d6000803e3d6000fd5b505050506040513d601f19601f820116820180604052508101906124f391906149a5565b9050600080516020615b468339815191528160405161251491815260200190565b60405180910390a16016811461252957600080fd5b604051600181527f319ab7084208e4afa38c6e6ff7aea9587439f2e4700746f4c7d425fea17426d290602001610b49565b60006111e38484846138f2565b600480547fffffffffffffffffffffff00ffffffffffffffffffffffffffffffffffffffff16600160a01b8315158102919091179182905560405160ff9190920416151581527f457c3a16a0ebdc38e3675609957ca3fcc4490e220bd15d85d34f58e2e145cb089060200160405180910390a150565b60408051600080825260208201909252819081612622565b60408051606081018252600080825260208083018290529282015282526000199092019101816125f55790505b50905060006040518060400160405280336001600160a01b031681526020018561264b90614e9e565b600790810b9091526040805180820182526001600160a01b038a1681529187900b602083015280516002808252606082019092529293509091600091816020015b604080518082019091526000808252602082015281526020019060019003908161268c57905050905082816000815181106126c9576126c9614a07565b602002602001018190525081816001815181106126e8576126e8614a07565b602090810291909101810191909152604080516060810182526001600160a01b038a16815291820183905281810186905280516001808252818301909252600091816020015b61275b604051806060016040528060006001600160a01b0316815260200160608152602001606081525090565b81526020019060019003908161272e579050509050818160008151811061278457612784614a07565b6020026020010181905250612798816135ad565b9650601687146127a757600080fd5b5050505050509392505050565b604080516001600160a01b0385811660248301528481166044830152831660648083019190915282518083039091018152608490910182526020810180516001600160e01b03167ff49f40db00000000000000000000000000000000000000000000000000000000179052905160009182918291829161016791612837916149be565b6000604051808303816000865af19150503d8060008114612874576040519150601f19603f3d011682016040523d82523d6000602084013e612879565b606091505b50915091508161288c57601560006128a0565b808060200190518101906128a09190614e5f565b60039190910b9890975095505050505050565b604080516001600160a01b0384166024820152604480820184905282518083039091018152606490910182526020810180516001600160e01b03167f098f23660000000000000000000000000000000000000000000000000000000017905290516000918291829182916101679161292a916149be565b6000604051808303816000865af19150503d8060008114612967576040519150601f19603f3d011682016040523d82523d6000602084013e61296c565b606091505b50915091508161297f5760156000611eb7565b80806020019051810190611eb79190614ed4565b6040516001600160a01b0383811660248301528216604482015260009081908190610167907f52f91387000000000000000000000000000000000000000000000000000000009060640161124c565b6040516001600160a01b0382166024820152600090819081908190610167907fa7daa18d00000000000000000000000000000000000000000000000000000000906044015b60408051601f198184030181529181526020820180516001600160e01b03166001600160e01b0319909416939093179092529051612a6591906149be565b6000604051808303816000865af19150503d8060008114612aa2576040519150601f19603f3d011682016040523d82523d6000602084013e612aa7565b606091505b509150915081612aba5760156000612ace565b80806020019051810190612ace9190614e5f565b60039190910b969095509350505050565b612ae7613ac3565b6040518060400160405280612afc8787613948565b8152602001612b0b8585613961565b905295945050505050565b612b1e613ac3565b6040518060400160405280612b3286613a31565b8152602001612b418585613961565b9052949350505050565b600080848061010001516000015163ffffffff166000148015612b7b57506101008101516040015163ffffffff16155b15612b91576101008101516276a7006040909101525b6000806101676001600160a01b03163463c23baeb660e01b8a8a8a604051602401612bbe93929190614f00565b60408051601f198184030181529181526020820180516001600160e01b03166001600160e01b0319909416939093179092529051612bfc91906149be565b60006040518083038185875af1925050503d8060008114612c39576040519150601f19603f3d011682016040523d82523d6000602084013e612c3e565b606091505b509150915081612c515760156000612c65565b80806020019051810190612c659190614ed4565b60039190910b999098509650505050505050565b6040516001600160a01b038581166024830152848116604483015283166064820152600782900b608482015260009081908190610167907feca36917000000000000000000000000000000000000000000000000000000009060a4015b60408051601f198184030181529181526020820180516001600160e01b03166001600160e01b0319909416939093179092529051612d1491906149be565b6000604051808303816000865af19150503d8060008114612d51576040519150601f19603f3d011682016040523d82523d6000602084013e612d56565b606091505b509150915081612d67576015612d7b565b80806020019051810190612d7b91906149ec565b60030b979650505050505050565b6000612d93613b20565b604080516001600160a01b0386166024820152600785900b60448083019190915282518083039091018152606490910182526020810180516001600160e01b03167f287e1da8000000000000000000000000000000000000000000000000000000001790529051600091829161016791612e0c916149be565b6000604051808303816000865af19150503d8060008114612e49576040519150601f19603f3d011682016040523d82523d6000602084013e612e4e565b606091505b5091509150612e5b613b20565b82612e68576015816128a0565b818060200190518101906128a0919061559e565b60008060006101676001600160a01b031663f7f38e2660e01b878787604051602401612eaa93929190615686565b60408051601f198184030181529181526020820180516001600160e01b03166001600160e01b0319909416939093179092529051612ee891906149be565b6000604051808303816000865af19150503d8060008114612f25576040519150601f19603f3d011682016040523d82523d6000602084013e612f2a565b606091505b509150915081612f3b576015612f4f565b80806020019051810190612f4f91906149ec565b60030b9695505050505050565b604080516001600160a01b0385811660248301528481166044830152831660648083019190915282518083039091018152608490910182526020810180516001600160e01b03167f927da10500000000000000000000000000000000000000000000000000000000179052905160009182918291829161016791612fdf916149be565b6000604051808303816000865af19150503d806000811461301c576040519150601f19603f3d011682016040523d82523d6000602084013e613021565b606091505b50915091508161303457601560006128a0565b808060200190518101906128a091906156b2565b604080516001600160a01b03831660248083019190915282518083039091018152604490910182526020810180516001600160e01b03167fae7611a00000000000000000000000000000000000000000000000000000000017905290516000916060918291829185918291610167916130c0916149be565b6000604051808303816000865af19150503d80600081146130fd576040519150601f19603f3d011682016040523d82523d6000602084013e613102565b606091505b509150915060608060608461311b57601583838361312f565b8380602001905181019061312f91906156de565b60039390930b9d919c509a509098509650505050505050565b6000613152613b5b565b604080516001600160a01b03851660248083019190915282518083039091018152604490910182526020810180516001600160e01b03167f3f28a19b0000000000000000000000000000000000000000000000000000000017905290516000918291610167916131c1916149be565b6000604051808303816000865af19150503d80600081146131fe576040519150601f19603f3d011682016040523d82523d6000602084013e613203565b606091505b5091509150613210613b5b565b8261321d57601581611eb7565b81806020019051810190611eb79190615777565b6040516001600160a01b03838116602483015282166044820152600090819081908190610167907f46de0fb1000000000000000000000000000000000000000000000000000000009060640161234f565b6040516001600160a01b038581166024830152848116604483015283166064820152600782900b608482015260009081908190610167907f5cfc9011000000000000000000000000000000000000000000000000000000009060a401612cd6565b6040516001600160a01b0383811660248301528216604482015260009081908190610167907f5b8f8584000000000000000000000000000000000000000000000000000000009060640161124c565b60008060606000806101676001600160a01b031663278e0b8860e01b89898960405160240161336393929190615823565b60408051601f198184030181529181526020820180516001600160e01b03166001600160e01b03199094169390931790925290516133a191906149be565b6000604051808303816000865af19150503d80600081146133de576040519150601f19603f3d011682016040523d82523d6000602084013e6133e3565b606091505b50915091508161340657604080516000808252602082019092526015919061341a565b8080602001905181019061341a91906158a7565b60039290920b9a90995090975095505050505050565b6040516001600160a01b0382166024820152600090819081908190610167907f335e04c10000000000000000000000000000000000000000000000000000000090604401612a27565b600080868061010001516000015163ffffffff1660001480156134a957506101008101516040015163ffffffff16155b156134bf576101008101516276a7006040909101525b6000806101676001600160a01b03163463b937581a60e01b8c8c8c8c8c6040516024016134f0959493929190615958565b60408051601f198184030181529181526020820180516001600160e01b03166001600160e01b031990941693909317909252905161352e91906149be565b60006040518083038185875af1925050503d806000811461356b576040519150601f19603f3d011682016040523d82523d6000602084013e613570565b606091505b5091509150816135835760156000613597565b808060200190518101906135979190614ed4565b60039190910b9b909a5098505050505050505050565b60008060006101676001600160a01b031663189a554c60e01b85604051602401610bfc9190615a0e565b6040516001600160a01b038216602482015260009081908190610167907ff069f7120000000000000000000000000000000000000000000000000000000090604401610bfc565b600080828061010001516000015163ffffffff16600014801561364e57506101008101516040015163ffffffff16155b15613664576101008101516276a7006040909101525b6000806101676001600160a01b031634639c89bb3560e01b8860405160240161368d9190615ae4565b60408051601f198184030181529181526020820180516001600160e01b03166001600160e01b03199094169390931790925290516136cb91906149be565b60006040518083038185875af1925050503d8060008114612967576040519150601f19603f3d011682016040523d82523d6000602084013e61296c565b6040516001600160a01b0384811660248301528316604482015263ffffffff8216606482015260009081908190610167907f9790686d0000000000000000000000000000000000000000000000000000000090608401612eaa565b6040516001600160a01b03848116602483015283166044820152811515606482015260009081908190610167907f367605ca0000000000000000000000000000000000000000000000000000000090608401612eaa565b60006137c4613b7b565b604080516001600160a01b03851660248083019190915282518083039091018152604490910182526020810180516001600160e01b03167f1f69565f000000000000000000000000000000000000000000000000000000001790529051600091829161016791613833916149be565b6000604051808303816000865af19150503d8060008114613870576040519150601f19603f3d011682016040523d82523d6000602084013e613875565b606091505b5091509150613882613b7b565b8261388f57601581611eb7565b81806020019051810190611eb79190615af7565b6040516001600160a01b0383811660248301528216604482015260009081908190610167907f49146bde000000000000000000000000000000000000000000000000000000009060640161124c565b6040516001600160a01b038481166024830152831660448201526064810182905260009081908190610167907fe1f21c670000000000000000000000000000000000000000000000000000000090608401612eaa565b6000600160ff84161b9050600160ff83161b8117611219565b6139a76040518060a0016040528060001515815260200160006001600160a01b03168152602001606081526020016060815260200160006001600160a01b031681525090565b8260ff16600114156139bc5760018152610962565b8260ff16600214156139de576000546001600160a01b03166020820152610962565b8260ff16600314156139f65760408101829052610962565b8260ff1660041415613a0e5760608101829052610962565b8260ff1660051415610962576000546001600160a01b0316608082015292915050565b600060ff8216613a4357506001919050565b8160ff1660011415613a5757506002919050565b8160ff1660021415613a6b57506004919050565b8160ff1660031415613a7f57506008919050565b8160ff1660041415613a9357506010919050565b8160ff1660051415613aa757506020919050565b8160ff1660061415613abb57506040919050565b506000919050565b604051806040016040528060008152602001613b1b6040518060a0016040528060001515815260200160006001600160a01b03168152602001606081526020016060815260200160006001600160a01b031681525090565b905290565b6040518060c00160405280613b33613b7b565b8152600060208201819052604082018190526060808301829052608083015260a09091015290565b6040518060400160405280613b6e613b7b565b8152600060209091015290565b60408051610240810182526060610120820181815261014083018290526000610160840181905261018084018390526101a084018190526101c084018190526101e0840181905261020084018390528451928301855280835260208301819052938201939093526102208201529081908152602001600067ffffffffffffffff168152602001600015158152602001600015158152602001600015158152602001606081526020016060815260200160608152602001606081525090565b6001600160a01b0381168114613c4e57600080fd5b50565b60008060408385031215613c6457600080fd5b8235613c6f81613c39565b91506020830135613c7f81613c39565b809150509250929050565b600080600060608486031215613c9f57600080fd5b8335613caa81613c39565b92506020840135613cba81613c39565b91506040840135613cca81613c39565b809150509250925092565b60008060408385031215613ce857600080fd5b8235613cf381613c39565b946020939093013593505050565b600060208284031215613d1357600080fd5b813561121981613c39565b8060070b8114613c4e57600080fd5b60008060008060808587031215613d4357600080fd5b8435613d4e81613c39565b93506020850135613d5e81613c39565b92506040850135613d6e81613c39565b91506060850135613d7e81613d1e565b939692955090935050565b60008060408385031215613d9c57600080fd5b8235613da781613c39565b91506020830135613c7f81613d1e565b60005b83811015613dd2578181015183820152602001613dba565b83811115613de1576000848401525b50505050565b60008151808452613dff816020860160208601613db7565b601f01601f19169290920160200192915050565b600081518084526020808501808196508360051b8101915082860160005b85811015613eca5782840389528151604081518652868201519150808787015281511515818701528682015160606001600160a01b03808316828a015283850151935060a09250608083818b0152613e8c60e08b0186613de7565b928601518a8403603f1901858c0152929450613ea88584613de7565b9501511660c09890980197909752505098850198935090840190600101613e31565b5091979650505050505050565b60006101608251818552613eed82860182613de7565b91505060208301518482036020860152613f078282613de7565b9150506040830151613f2460408601826001600160a01b03169052565b5060608301518482036060860152613f3c8282613de7565b9150506080830151613f52608086018215159052565b5060a0830151613f6760a086018260070b9052565b5060c0830151613f7b60c086018215159052565b5060e083015184820360e0860152613f938282613e13565b61010085810151805163ffffffff9081168984015260208201516001600160a01b03166101208a015260408201511661014089015291935091505090949350505050565b600081518084526020808501945080840160005b83811015614047578151805163ffffffff168852838101516001600160a01b03908116858a01526040808301511515908a01526060808301511515908a0152608091820151169088015260a09096019590820190600101613feb565b509495945050505050565b600081518084526020808501945080840160005b83811015614047578151805163ffffffff9081168952848201518116858a01526040808301518216908a01526060808301519091169089015260808082015115159089015260a0908101516001600160a01b03169088015260c09096019590820190600101614066565b600081518084526020808501945080840160005b83811015614047578151805163ffffffff9081168952848201518116858a0152604080830151909116908901526060808201516001600160a01b03908116918a01919091526080808301511515908a015260a091820151169088015260c090960195908201906001016140e4565b6000610120825181855261416882860182613ed7565b9150506020830151614186602086018267ffffffffffffffff169052565b50604083015161419a604086018215159052565b5060608301516141ae606086018215159052565b5060808301516141c2608086018215159052565b5060a083015184820360a08601526141da8282613fd7565b91505060c083015184820360c08601526141f48282614052565b91505060e083015184820360e086015261420e82826140d0565b91505061010080840151858303828701526142298382613de7565b9695505050505050565b6000815160c0845261424860c0850182614152565b9050602083015160070b602085015260408301516001600160a01b038082166040870152606085015160070b60608701526080850151915085830360808701526142928383613de7565b92508060a08601511660a087015250508091505092915050565b8281526040602082015260006111586040830184614233565b634e487b7160e01b600052604160045260246000fd5b6040516060810167ffffffffffffffff811182821017156142fe576142fe6142c5565b60405290565b6040805190810167ffffffffffffffff811182821017156142fe576142fe6142c5565b60405160a0810167ffffffffffffffff811182821017156142fe576142fe6142c5565b604051610120810167ffffffffffffffff811182821017156142fe576142fe6142c5565b60405160c0810167ffffffffffffffff811182821017156142fe576142fe6142c5565b604051601f8201601f1916810167ffffffffffffffff811182821017156143ba576143ba6142c5565b604052919050565b600067ffffffffffffffff8211156143dc576143dc6142c5565b5060051b60200190565b6000806000606084860312156143fb57600080fd5b833561440681613c39565b925060208481013561441781613c39565b9250604085013567ffffffffffffffff81111561443357600080fd5b8501601f8101871361444457600080fd5b8035614457614452826143c2565b614391565b81815260059190911b8201830190838101908983111561447657600080fd5b928401925b8284101561449d57833561448e81613d1e565b8252928401929084019061447b565b80955050505050509250925092565b63ffffffff81168114613c4e57600080fd5b60008082840360808112156144d257600080fd5b83356144dd81613c39565b92506060601f19820112156144f157600080fd5b506144fa6142db565b6020840135614508816144ac565b8152604084013561451881613c39565b6020820152606084013561452b816144ac565b6040820152919491935090915050565b8460070b81526080602082015260006145576080830186613fd7565b82810360408401526145698186614052565b9050828103606084015261457d81856140d0565b979650505050505050565b600081516040845261459d6040850182614152565b60209384015163ffffffff16949093019390935250919050565b8281526040602082015260006111586040830184614588565b67ffffffffffffffff81168114613c4e57600080fd5b600067ffffffffffffffff821115614600576146006142c5565b50601f01601f191660200190565b60008060006060848603121561462357600080fd5b833561462e81613c39565b925060208481013561463f816145d0565b925060408581013567ffffffffffffffff8082111561465d57600080fd5b818801915088601f83011261467157600080fd5b813561467f614452826143c2565b81815260059190911b8301850190858101908b83111561469e57600080fd5b8685015b83811015614712578035858111156146ba5760008081fd5b8601603f81018e136146cc5760008081fd5b888101356146dc614452826145e6565b8181528f8a8385010111156146f15760008081fd5b818a84018c83013760009181018b01919091528452509187019187016146a2565b50809750505050505050509250925092565b600081518084526020808501945080840160005b8381101561404757815160070b87529582019590820190600101614738565b83815267ffffffffffffffff831660208201526060604082015260006147806060830184614724565b95945050505050565b6000806020838503121561479c57600080fd5b823567ffffffffffffffff808211156147b457600080fd5b818501915085601f8301126147c857600080fd5b8135818111156147d757600080fd5b8660208260051b85010111156147ec57600080fd5b60209290920196919550909350505050565b828152608081016112196020830184805163ffffffff90811683526020808301516001600160a01b03169084015260409182015116910152565b60008060006060848603121561484d57600080fd5b833561485881613c39565b9250602084013561486881613c39565b91506040840135613cca816144ac565b8015158114613c4e57600080fd5b60008060006060848603121561489b57600080fd5b83356148a681613c39565b925060208401356148b681613c39565b91506040840135613cca81614878565b8281526040602082015260006111586040830184614152565b6000806000606084860312156148f457600080fd5b83356148ff81613c39565b9250602084013561490f81613c39565b929592945050506040919091013590565b60006020828403121561493257600080fd5b813561121981614878565b60008060006060848603121561495257600080fd5b833561495d81613c39565b9250602084013561496d81613c39565b91506040840135613cca81613d1e565b8051611b9b81613d1e565b60006020828403121561499a57600080fd5b815161121981613d1e565b6000602082840312156149b757600080fd5b5051919050565b600082516149d0818460208701613db7565b9190910192915050565b8051600381900b8114611b9b57600080fd5b6000602082840312156149fe57600080fd5b611219826149da565b634e487b7160e01b600052603260045260246000fd5b600181811c90821680614a3157607f821691505b60208210811415614a5257634e487b7160e01b600052602260045260246000fd5b50919050565b6020815260006112196020830184614233565b6001600160a01b0383168152608081016112196020830184805163ffffffff90811683526020808301516001600160a01b03169084015260409182015116910152565b606081526000614ac16060830186613fd7565b8281036020840152614ad38186614052565b9050828103604084015261422981856140d0565b6020815260006112196020830184614588565b67ffffffffffffffff831681526040602082015260006111586040830184614724565b600082601f830112614b2e57600080fd5b81356020614b3e614452836143c2565b82815260609283028501820192828201919087851115614b5d57600080fd5b8387015b85811015614bbf5781818a031215614b795760008081fd5b614b816142db565b8135614b8c81613c39565b815281860135614b9b81613c39565b81870152604082810135614bae81613d1e565b908201528452928401928101614b61565b5090979650505050505050565b6000614bda614452846143c2565b80848252602080830192508560051b850136811115614bf857600080fd5b855b81811015614d2d57803567ffffffffffffffff80821115614c1b5760008081fd5b818901915060608236031215614c315760008081fd5b614c396142db565b8235614c4481613c39565b81528286013582811115614c585760008081fd5b830136601f820112614c6a5760008081fd5b8035614c78614452826143c2565b81815260069190911b82018801908881019036831115614c985760008081fd5b928901925b82841015614cee5760408436031215614cb65760008081fd5b614cbe614304565b8435614cc981613c39565b8152848b0135614cd881613d1e565b818c015282526040939093019290890190614c9d565b848a01525060409150508381013583811115614d0a5760008081fd5b614d1636828701614b1d565b918301919091525087525050938201938201614bfa565b50919695505050505050565b8051611b9b81614878565b60008060408385031215614d5757600080fd5b8251614d6281613d1e565b6020840151909250613c7f81614878565b8051611b9b81613c39565b600060608284031215614d9057600080fd5b614d986142db565b90508151614da5816144ac565b81526020820151614db581613c39565b60208201526040820151614dc8816144ac565b604082015292915050565b60008060808385031215614de657600080fd5b82519150614df78460208501614d7e565b90509250929050565b606081016109628284805163ffffffff90811683526020808301516001600160a01b03169084015260409182015116910152565b60008060808385031215614e4757600080fd5b614e50836149da565b9150614df78460208501614d7e565b60008060408385031215614e7257600080fd5b614e7b836149da565b91506020830151613c7f81614878565b6020815260006112196020830184614152565b60008160070b677fffffffffffffff19811415614ecb57634e487b7160e01b600052601160045260246000fd5b60000392915050565b60008060408385031215614ee757600080fd5b614ef0836149da565b91506020830151613c7f81613c39565b606081526000614f136060830186613ed7565b905067ffffffffffffffff8416602083015263ffffffff83166040830152949350505050565b600082601f830112614f4a57600080fd5b8151614f58614452826145e6565b818152846020838601011115614f6d57600080fd5b611158826020830160208701613db7565b600082601f830112614f8f57600080fd5b81516020614f9f614452836143c2565b82815260059290921b84018101918181019086841115614fbe57600080fd5b8286015b848110156150d457805167ffffffffffffffff80821115614fe257600080fd5b908801906040601f19838c038101821315614ffc57600080fd5b615004614304565b888501518152828501518481111561501b57600080fd5b949094019360a0858e03830112156150335760008081fd5b61503b614327565b91508885015161504a81614878565b82528483015161505981613c39565b828a0152606085810151858111156150715760008081fd5b61507f8f8c838a0101614f39565b858501525060809350838601518581111561509a5760008081fd5b6150a88f8c838a0101614f39565b8285015250506150ba60a08601614d73565b928201929092528188015285525050918301918301614fc2565b509695505050505050565b600061016082840312156150f257600080fd5b6150fa61434a565b9050815167ffffffffffffffff8082111561511457600080fd5b61512085838601614f39565b8352602084015191508082111561513657600080fd5b61514285838601614f39565b602084015261515360408501614d73565b6040840152606084015191508082111561516c57600080fd5b61517885838601614f39565b606084015261518960808501614d39565b608084015261519a60a0850161497d565b60a08401526151ab60c08501614d39565b60c084015260e08401519150808211156151c457600080fd5b506151d184828501614f7e565b60e0830152506101006151e684828501614d7e565b9082015292915050565b8051611b9b816145d0565b600082601f83011261520c57600080fd5b8151602061521c614452836143c2565b82815260a0928302850182019282820191908785111561523b57600080fd5b8387015b85811015614bbf5781818a0312156152575760008081fd5b61525f614327565b815161526a816144ac565b81528186015161527981613c39565b8187015260408281015161528c81614878565b9082015260608281015161529f81614878565b908201526080828101516152b281613c39565b90820152845292840192810161523f565b600082601f8301126152d457600080fd5b815160206152e4614452836143c2565b82815260c0928302850182019282820191908785111561530357600080fd5b8387015b85811015614bbf5781818a03121561531f5760008081fd5b61532761436e565b8151615332816144ac565b815281860151615341816144ac565b81870152604082810151615354816144ac565b90820152606082810151615367816144ac565b9082015260808281015161537a81614878565b9082015260a08281015161538d81613c39565b908201528452928401928101615307565b600082601f8301126153af57600080fd5b815160206153bf614452836143c2565b82815260c092830285018201928282019190878511156153de57600080fd5b8387015b85811015614bbf5781818a0312156153fa5760008081fd5b61540261436e565b815161540d816144ac565b81528186015161541c816144ac565b8187015260408281015161542f816144ac565b9082015260608281015161544281613c39565b9082015260808281015161545581614878565b9082015260a08281015161546881613c39565b9082015284529284019281016153e2565b6000610120828403121561548c57600080fd5b61549461434a565b9050815167ffffffffffffffff808211156154ae57600080fd5b6154ba858386016150df565b83526154c8602085016151f0565b60208401526154d960408501614d39565b60408401526154ea60608501614d39565b60608401526154fb60808501614d39565b608084015260a084015191508082111561551457600080fd5b615520858386016151fb565b60a084015260c084015191508082111561553957600080fd5b615545858386016152c3565b60c084015260e084015191508082111561555e57600080fd5b61556a8583860161539e565b60e08401526101009150818401518181111561558557600080fd5b61559186828701614f39565b8385015250505092915050565b600080604083850312156155b157600080fd5b6155ba836149da565b9150602083015167ffffffffffffffff808211156155d757600080fd5b9084019060c082870312156155eb57600080fd5b6155f361436e565b82518281111561560257600080fd5b61560e88828601615479565b82525061561d6020840161497d565b602082015261562e60408401614d73565b604082015261563f6060840161497d565b606082015260808301518281111561565657600080fd5b61566288828601614f39565b60808301525061567460a08401614d73565b60a08201528093505050509250929050565b60006001600160a01b038086168352808516602084015250606060408301526147806060830184614724565b600080604083850312156156c557600080fd5b6156ce836149da565b9150602083015190509250929050565b600080600080608085870312156156f457600080fd5b6156fd856149da565b9350602085015167ffffffffffffffff8082111561571a57600080fd5b615726888389016151fb565b9450604087015191508082111561573c57600080fd5b615748888389016152c3565b9350606087015191508082111561575e57600080fd5b5061576b8782880161539e565b91505092959194509250565b6000806040838503121561578a57600080fd5b615793836149da565b9150602083015167ffffffffffffffff808211156157b057600080fd5b90840190604082870312156157c457600080fd5b6040516040810181811083821117156157df576157df6142c5565b6040528251828111156157f157600080fd5b6157fd88828601615479565b82525060208301519250615810836144ac565b8260208201528093505050509250929050565b6000606082016001600160a01b0386168352602067ffffffffffffffff8616818501526060604085015281855180845260808601915060808160051b870101935082870160005b8281101561589857607f19888703018452615886868351613de7565b9550928401929084019060010161586a565b50939998505050505050505050565b6000806000606084860312156158bc57600080fd5b6158c5846149da565b92506020808501516158d6816145d0565b604086015190935067ffffffffffffffff8111156158f357600080fd5b8501601f8101871361590457600080fd5b8051615912614452826143c2565b81815260059190911b8201830190838101908983111561593157600080fd5b928401925b8284101561449d57835161594981613d1e565b82529284019290840190615936565b60a08152600061596b60a0830188613ed7565b67ffffffffffffffff8716602084015263ffffffff8616604084015282810360608401526159998186613fd7565b905082810360808401526159ad8185614052565b98975050505050505050565b600081518084526020808501945080840160005b8381101561404757815180516001600160a01b03908116895284820151168489015260409081015160070b90880152606090960195908201906001016159cd565b60006020808301818452808551808352604092508286019150828160051b8701018488016000805b84811015615ad557898403603f19018652825180516001600160a01b0390811686528982015160608b880181905281519088018190526080880192918c01919086905b80821015615aa75783518051841686528e015160070b8e860152938c0193928d019260019190910190615a79565b5050505090880151858203868a015290615ac181836159b9565b978a01979550505091870191600101615a36565b50919998505050505050505050565b6020815260006112196020830184613ed7565b60008060408385031215615b0a57600080fd5b615b13836149da565b9150602083015167ffffffffffffffff811115615b2f57600080fd5b615b3b85828601615479565b915050925092905056fe90a5cf4cffe88b4edbb041cfc7a8a812c48a5ec30b84640fb37690875168e3aaa26469706673582212209b2868512f7ada058e50140bc7190fa533d71748a7da3f3bddc48212a1d566c664736f6c63430008090033",
  "linkReferences": {},
  "deployedLinkReferences": {}
}