{
  "_format": "hh-sol-artifact-1",
  "contractName": "BaseHTS",
  "sourceName": "contracts/BaseHTS.sol",
  "abi": [
    {
      "anonymous": false,
      "inputs": [
        {
          "indexed": false,
          "internalType": "uint256",
          "name": "amount",
          "type": "uint256"
        }
      ],
      "name": "AllowanceValue",
      "type": "event"
    },
    {
      "anonymous": false,
      "inputs": [
        {
          "indexed": false,
          "internalType": "bool",
          "name": "approved",
          "type": "bool"
        }
      ],
      "name": "Approved",
      "type": "event"
    },
    {
      "anonymous": false,
      "inputs": [
        {
          "indexed": false,
          "internalType": "address",
          "name": "approved",
          "type": "address"
        }
      ],
      "name": "ApprovedAddress",
      "type": "event"
    },
    {
      "anonymous": false,
      "inputs": [
        {
          "indexed": false,
          "internalType": "address",
          "name": "tokenAddress",
          "type": "address"
        }
      ],
      "name": "CreatedToken",
      "type": "event"
    },
    {
      "anonymous": false,
      "inputs": [
        {
          "indexed": false,
          "internalType": "bool",
          "name": "freezeStatus",
          "type": "bool"
        }
      ],
      "name": "DefaultFreezeStatusChanged",
      "type": "event"
    },
    {
      "anonymous": false,
      "inputs": [
        {
          "indexed": false,
          "internalType": "bool",
          "name": "frozen",
          "type": "bool"
        }
      ],
      "name": "Frozen",
      "type": "event"
    },
    {
      "anonymous": false,
      "inputs": [
        {
          "components": [
            {
              "components": [
                {
                  "components": [
                    {
                      "internalType": "string",
                      "name": "name",
                      "type": "string"
                    },
                    {
                      "internalType": "string",
                      "name": "symbol",
                      "type": "string"
                    },
                    {
                      "internalType": "address",
                      "name": "treasury",
                      "type": "address"
                    },
                    {
                      "internalType": "string",
                      "name": "memo",
                      "type": "string"
                    },
                    {
                      "internalType": "bool",
                      "name": "tokenSupplyType",
                      "type": "bool"
                    },
                    {
                      "internalType": "uint32",
                      "name": "maxSupply",
                      "type": "uint32"
                    },
                    {
                      "internalType": "bool",
                      "name": "freezeDefault",
                      "type": "bool"
                    },
                    {
                      "components": [
                        {
                          "internalType": "uint256",
                          "name": "keyType",
                          "type": "uint256"
                        },
                        {
                          "components": [
                            {
                              "internalType": "bool",
                              "name": "inheritAccountKey",
                              "type": "bool"
                            },
                            {
                              "internalType": "address",
                              "name": "contractId",
                              "type": "address"
                            },
                            {
                              "internalType": "bytes",
                              "name": "ed25519",
                              "type": "bytes"
                            },
                            {
                              "internalType": "bytes",
                              "name": "ECDSA_secp256k1",
                              "type": "bytes"
                            },
                            {
                              "internalType": "address",
                              "name": "delegatableContractId",
                              "type": "address"
                            }
                          ],
                          "internalType": "struct IHederaTokenService.KeyValue",
                          "name": "key",
                          "type": "tuple"
                        }
                      ],
                      "internalType": "struct IHederaTokenService.TokenKey[]",
                      "name": "tokenKeys",
                      "type": "tuple[]"
                    },
                    {
                      "components": [
                        {
                          "internalType": "uint32",
                          "name": "second",
                          "type": "uint32"
                        },
                        {
                          "internalType": "address",
                          "name": "autoRenewAccount",
                          "type": "address"
                        },
                        {
                          "internalType": "uint32",
                          "name": "autoRenewPeriod",
                          "type": "uint32"
                        }
                      ],
                      "internalType": "struct IHederaTokenService.Expiry",
                      "name": "expiry",
                      "type": "tuple"
                    }
                  ],
                  "internalType": "struct IHederaTokenService.HederaToken",
                  "name": "token",
                  "type": "tuple"
                },
                {
                  "internalType": "uint64",
                  "name": "totalSupply",
                  "type": "uint64"
                },
                {
                  "internalType": "bool",
                  "name": "deleted",
                  "type": "bool"
                },
                {
                  "internalType": "bool",
                  "name": "defaultKycStatus",
                  "type": "bool"
                },
                {
                  "internalType": "bool",
                  "name": "pauseStatus",
                  "type": "bool"
                },
                {
                  "components": [
                    {
                      "internalType": "uint32",
                      "name": "amount",
                      "type": "uint32"
                    },
                    {
                      "internalType": "address",
                      "name": "tokenId",
                      "type": "address"
                    },
                    {
                      "internalType": "bool",
                      "name": "useHbarsForPayment",
                      "type": "bool"
                    },
                    {
                      "internalType": "bool",
                      "name": "useCurrentTokenForPayment",
                      "type": "bool"
                    },
                    {
                      "internalType": "address",
                      "name": "feeCollector",
                      "type": "address"
                    }
                  ],
                  "internalType": "struct IHederaTokenService.FixedFee[]",
                  "name": "fixedFees",
                  "type": "tuple[]"
                },
                {
                  "components": [
                    {
                      "internalType": "uint32",
                      "name": "numerator",
                      "type": "uint32"
                    },
                    {
                      "internalType": "uint32",
                      "name": "denominator",
                      "type": "uint32"
                    },
                    {
                      "internalType": "uint32",
                      "name": "minimumAmount",
                      "type": "uint32"
                    },
                    {
                      "internalType": "uint32",
                      "name": "maximumAmount",
                      "type": "uint32"
                    },
                    {
                      "internalType": "bool",
                      "name": "netOfTransfers",
                      "type": "bool"
                    },
                    {
                      "internalType": "address",
                      "name": "feeCollector",
                      "type": "address"
                    }
                  ],
                  "internalType": "struct IHederaTokenService.FractionalFee[]",
                  "name": "fractionalFees",
                  "type": "tuple[]"
                },
                {
                  "components": [
                    {
                      "internalType": "uint32",
                      "name": "numerator",
                      "type": "uint32"
                    },
                    {
                      "internalType": "uint32",
                      "name": "denominator",
                      "type": "uint32"
                    },
                    {
                      "internalType": "uint32",
                      "name": "amount",
                      "type": "uint32"
                    },
                    {
                      "internalType": "address",
                      "name": "tokenId",
                      "type": "address"
                    },
                    {
                      "internalType": "bool",
                      "name": "useHbarsForPayment",
                      "type": "bool"
                    },
                    {
                      "internalType": "address",
                      "name": "feeCollector",
                      "type": "address"
                    }
                  ],
                  "internalType": "struct IHederaTokenService.RoyaltyFee[]",
                  "name": "royaltyFees",
                  "type": "tuple[]"
                },
                {
                  "internalType": "string",
                  "name": "ledgerId",
                  "type": "string"
                }
              ],
              "internalType": "struct IHederaTokenService.TokenInfo",
              "name": "tokenInfo",
              "type": "tuple"
            },
            {
              "internalType": "uint32",
              "name": "decimals",
              "type": "uint32"
            }
          ],
          "indexed": false,
          "internalType": "struct IHederaTokenService.FungibleTokenInfo",
          "name": "tokenInfo",
          "type": "tuple"
        }
      ],
      "name": "FungibleTokenInfo",
      "type": "event"
    },
    {
      "anonymous": false,
      "inputs": [
        {
          "indexed": false,
          "internalType": "bool",
          "name": "isToken",
          "type": "bool"
        }
      ],
      "name": "IsToken",
      "type": "event"
    },
    {
      "anonymous": false,
      "inputs": [
        {
          "indexed": false,
          "internalType": "bool",
          "name": "kycGranted",
          "type": "bool"
        }
      ],
      "name": "KycGranted",
      "type": "event"
    },
    {
      "anonymous": false,
      "inputs": [
        {
          "indexed": false,
          "internalType": "uint64",
          "name": "newTotalSupply",
          "type": "uint64"
        },
        {
          "indexed": false,
          "internalType": "int64[]",
          "name": "serialNumbers",
          "type": "int64[]"
        }
      ],
      "name": "MintedToken",
      "type": "event"
    },
    {
      "anonymous": false,
      "inputs": [
        {
          "components": [
            {
              "components": [
                {
                  "components": [
                    {
                      "internalType": "string",
                      "name": "name",
                      "type": "string"
                    },
                    {
                      "internalType": "string",
                      "name": "symbol",
                      "type": "string"
                    },
                    {
                      "internalType": "address",
                      "name": "treasury",
                      "type": "address"
                    },
                    {
                      "internalType": "string",
                      "name": "memo",
                      "type": "string"
                    },
                    {
                      "internalType": "bool",
                      "name": "tokenSupplyType",
                      "type": "bool"
                    },
                    {
                      "internalType": "uint32",
                      "name": "maxSupply",
                      "type": "uint32"
                    },
                    {
                      "internalType": "bool",
                      "name": "freezeDefault",
                      "type": "bool"
                    },
                    {
                      "components": [
                        {
                          "internalType": "uint256",
                          "name": "keyType",
                          "type": "uint256"
                        },
                        {
                          "components": [
                            {
                              "internalType": "bool",
                              "name": "inheritAccountKey",
                              "type": "bool"
                            },
                            {
                              "internalType": "address",
                              "name": "contractId",
                              "type": "address"
                            },
                            {
                              "internalType": "bytes",
                              "name": "ed25519",
                              "type": "bytes"
                            },
                            {
                              "internalType": "bytes",
                              "name": "ECDSA_secp256k1",
                              "type": "bytes"
                            },
                            {
                              "internalType": "address",
                              "name": "delegatableContractId",
                              "type": "address"
                            }
                          ],
                          "internalType": "struct IHederaTokenService.KeyValue",
                          "name": "key",
                          "type": "tuple"
                        }
                      ],
                      "internalType": "struct IHederaTokenService.TokenKey[]",
                      "name": "tokenKeys",
                      "type": "tuple[]"
                    },
                    {
                      "components": [
                        {
                          "internalType": "uint32",
                          "name": "second",
                          "type": "uint32"
                        },
                        {
                          "internalType": "address",
                          "name": "autoRenewAccount",
                          "type": "address"
                        },
                        {
                          "internalType": "uint32",
                          "name": "autoRenewPeriod",
                          "type": "uint32"
                        }
                      ],
                      "internalType": "struct IHederaTokenService.Expiry",
                      "name": "expiry",
                      "type": "tuple"
                    }
                  ],
                  "internalType": "struct IHederaTokenService.HederaToken",
                  "name": "token",
                  "type": "tuple"
                },
                {
                  "internalType": "uint64",
                  "name": "totalSupply",
                  "type": "uint64"
                },
                {
                  "internalType": "bool",
                  "name": "deleted",
                  "type": "bool"
                },
                {
                  "internalType": "bool",
                  "name": "defaultKycStatus",
                  "type": "bool"
                },
                {
                  "internalType": "bool",
                  "name": "pauseStatus",
                  "type": "bool"
                },
                {
                  "components": [
                    {
                      "internalType": "uint32",
                      "name": "amount",
                      "type": "uint32"
                    },
                    {
                      "internalType": "address",
                      "name": "tokenId",
                      "type": "address"
                    },
                    {
                      "internalType": "bool",
                      "name": "useHbarsForPayment",
                      "type": "bool"
                    },
                    {
                      "internalType": "bool",
                      "name": "useCurrentTokenForPayment",
                      "type": "bool"
                    },
                    {
                      "internalType": "address",
                      "name": "feeCollector",
                      "type": "address"
                    }
                  ],
                  "internalType": "struct IHederaTokenService.FixedFee[]",
                  "name": "fixedFees",
                  "type": "tuple[]"
                },
                {
                  "components": [
                    {
                      "internalType": "uint32",
                      "name": "numerator",
                      "type": "uint32"
                    },
                    {
                      "internalType": "uint32",
                      "name": "denominator",
                      "type": "uint32"
                    },
                    {
                      "internalType": "uint32",
                      "name": "minimumAmount",
                      "type": "uint32"
                    },
                    {
                      "internalType": "uint32",
                      "name": "maximumAmount",
                      "type": "uint32"
                    },
                    {
                      "internalType": "bool",
                      "name": "netOfTransfers",
                      "type": "bool"
                    },
                    {
                      "internalType": "address",
                      "name": "feeCollector",
                      "type": "address"
                    }
                  ],
                  "internalType": "struct IHederaTokenService.FractionalFee[]",
                  "name": "fractionalFees",
                  "type": "tuple[]"
                },
                {
                  "components": [
                    {
                      "internalType": "uint32",
                      "name": "numerator",
                      "type": "uint32"
                    },
                    {
                      "internalType": "uint32",
                      "name": "denominator",
                      "type": "uint32"
                    },
                    {
                      "internalType": "uint32",
                      "name": "amount",
                      "type": "uint32"
                    },
                    {
                      "internalType": "address",
                      "name": "tokenId",
                      "type": "address"
                    },
                    {
                      "internalType": "bool",
                      "name": "useHbarsForPayment",
                      "type": "bool"
                    },
                    {
                      "internalType": "address",
                      "name": "feeCollector",
                      "type": "address"
                    }
                  ],
                  "internalType": "struct IHederaTokenService.RoyaltyFee[]",
                  "name": "royaltyFees",
                  "type": "tuple[]"
                },
                {
                  "internalType": "string",
                  "name": "ledgerId",
                  "type": "string"
                }
              ],
              "internalType": "struct IHederaTokenService.TokenInfo",
              "name": "tokenInfo",
              "type": "tuple"
            },
            {
              "internalType": "int64",
              "name": "serialNumber",
              "type": "int64"
            },
            {
              "internalType": "address",
              "name": "ownerId",
              "type": "address"
            },
            {
              "internalType": "int64",
              "name": "creationTime",
              "type": "int64"
            },
            {
              "internalType": "bytes",
              "name": "metadata",
              "type": "bytes"
            },
            {
              "internalType": "address",
              "name": "spenderId",
              "type": "address"
            }
          ],
          "indexed": false,
          "internalType": "struct IHederaTokenService.NonFungibleTokenInfo",
          "name": "tokenInfo",
          "type": "tuple"
        }
      ],
      "name": "NonFungibleTokenInfo",
      "type": "event"
    },
    {
      "anonymous": false,
      "inputs": [
        {
          "indexed": false,
          "internalType": "bool",
          "name": "paused",
          "type": "bool"
        }
      ],
      "name": "PausedToken",
      "type": "event"
    },
    {
      "anonymous": false,
      "inputs": [
        {
          "indexed": false,
          "internalType": "int256",
          "name": "responseCode",
          "type": "int256"
        }
      ],
      "name": "ResponseCode",
      "type": "event"
    },
    {
      "anonymous": false,
      "inputs": [
        {
          "components": [
            {
              "internalType": "uint32",
              "name": "amount",
              "type": "uint32"
            },
            {
              "internalType": "address",
              "name": "tokenId",
              "type": "address"
            },
            {
              "internalType": "bool",
              "name": "useHbarsForPayment",
              "type": "bool"
            },
            {
              "internalType": "bool",
              "name": "useCurrentTokenForPayment",
              "type": "bool"
            },
            {
              "internalType": "address",
              "name": "feeCollector",
              "type": "address"
            }
          ],
          "indexed": false,
          "internalType": "struct IHederaTokenService.FixedFee[]",
          "name": "fixedFees",
          "type": "tuple[]"
        },
        {
          "components": [
            {
              "internalType": "uint32",
              "name": "numerator",
              "type": "uint32"
            },
            {
              "internalType": "uint32",
              "name": "denominator",
              "type": "uint32"
            },
            {
              "internalType": "uint32",
              "name": "minimumAmount",
              "type": "uint32"
            },
            {
              "internalType": "uint32",
              "name": "maximumAmount",
              "type": "uint32"
            },
            {
              "internalType": "bool",
              "name": "netOfTransfers",
              "type": "bool"
            },
            {
              "internalType": "address",
              "name": "feeCollector",
              "type": "address"
            }
          ],
          "indexed": false,
          "internalType": "struct IHederaTokenService.FractionalFee[]",
          "name": "fractionalFees",
          "type": "tuple[]"
        },
        {
          "components": [
            {
              "internalType": "uint32",
              "name": "numerator",
              "type": "uint32"
            },
            {
              "internalType": "uint32",
              "name": "denominator",
              "type": "uint32"
            },
            {
              "internalType": "uint32",
              "name": "amount",
              "type": "uint32"
            },
            {
              "internalType": "address",
              "name": "tokenId",
              "type": "address"
            },
            {
              "internalType": "bool",
              "name": "useHbarsForPayment",
              "type": "bool"
            },
            {
              "internalType": "address",
              "name": "feeCollector",
              "type": "address"
            }
          ],
          "indexed": false,
          "internalType": "struct IHederaTokenService.RoyaltyFee[]",
          "name": "royaltyFees",
          "type": "tuple[]"
        }
      ],
      "name": "TokenCustomFees",
      "type": "event"
    },
    {
      "anonymous": false,
      "inputs": [
        {
          "indexed": false,
          "internalType": "bool",
          "name": "defaultFreezeStatus",
          "type": "bool"
        }
      ],
      "name": "TokenDefaultFreezeStatus",
      "type": "event"
    },
    {
      "anonymous": false,
      "inputs": [
        {
          "indexed": false,
          "internalType": "bool",
          "name": "defaultKycStatus",
          "type": "bool"
        }
      ],
      "name": "TokenDefaultKycStatus",
      "type": "event"
    },
    {
      "anonymous": false,
      "inputs": [
        {
          "components": [
            {
              "components": [
                {
                  "internalType": "string",
                  "name": "name",
                  "type": "string"
                },
                {
                  "internalType": "string",
                  "name": "symbol",
                  "type": "string"
                },
                {
                  "internalType": "address",
                  "name": "treasury",
                  "type": "address"
                },
                {
                  "internalType": "string",
                  "name": "memo",
                  "type": "string"
                },
                {
                  "internalType": "bool",
                  "name": "tokenSupplyType",
                  "type": "bool"
                },
                {
                  "internalType": "uint32",
                  "name": "maxSupply",
                  "type": "uint32"
                },
                {
                  "internalType": "bool",
                  "name": "freezeDefault",
                  "type": "bool"
                },
                {
                  "components": [
                    {
                      "internalType": "uint256",
                      "name": "keyType",
                      "type": "uint256"
                    },
                    {
                      "components": [
                        {
                          "internalType": "bool",
                          "name": "inheritAccountKey",
                          "type": "bool"
                        },
                        {
                          "internalType": "address",
                          "name": "contractId",
                          "type": "address"
                        },
                        {
                          "internalType": "bytes",
                          "name": "ed25519",
                          "type": "bytes"
                        },
                        {
                          "internalType": "bytes",
                          "name": "ECDSA_secp256k1",
                          "type": "bytes"
                        },
                        {
                          "internalType": "address",
                          "name": "delegatableContractId",
                          "type": "address"
                        }
                      ],
                      "internalType": "struct IHederaTokenService.KeyValue",
                      "name": "key",
                      "type": "tuple"
                    }
                  ],
                  "internalType": "struct IHederaTokenService.TokenKey[]",
                  "name": "tokenKeys",
                  "type": "tuple[]"
                },
                {
                  "components": [
                    {
                      "internalType": "uint32",
                      "name": "second",
                      "type": "uint32"
                    },
                    {
                      "internalType": "address",
                      "name": "autoRenewAccount",
                      "type": "address"
                    },
                    {
                      "internalType": "uint32",
                      "name": "autoRenewPeriod",
                      "type": "uint32"
                    }
                  ],
                  "internalType": "struct IHederaTokenService.Expiry",
                  "name": "expiry",
                  "type": "tuple"
                }
              ],
              "internalType": "struct IHederaTokenService.HederaToken",
              "name": "token",
              "type": "tuple"
            },
            {
              "internalType": "uint64",
              "name": "totalSupply",
              "type": "uint64"
            },
            {
              "internalType": "bool",
              "name": "deleted",
              "type": "bool"
            },
            {
              "internalType": "bool",
              "name": "defaultKycStatus",
              "type": "bool"
            },
            {
              "internalType": "bool",
              "name": "pauseStatus",
              "type": "bool"
            },
            {
              "components": [
                {
                  "internalType": "uint32",
                  "name": "amount",
                  "type": "uint32"
                },
                {
                  "internalType": "address",
                  "name": "tokenId",
                  "type": "address"
                },
                {
                  "internalType": "bool",
                  "name": "useHbarsForPayment",
                  "type": "bool"
                },
                {
                  "internalType": "bool",
                  "name": "useCurrentTokenForPayment",
                  "type": "bool"
                },
                {
                  "internalType": "address",
                  "name": "feeCollector",
                  "type": "address"
                }
              ],
              "internalType": "struct IHederaTokenService.FixedFee[]",
              "name": "fixedFees",
              "type": "tuple[]"
            },
            {
              "components": [
                {
                  "internalType": "uint32",
                  "name": "numerator",
                  "type": "uint32"
                },
                {
                  "internalType": "uint32",
                  "name": "denominator",
                  "type": "uint32"
                },
                {
                  "internalType": "uint32",
                  "name": "minimumAmount",
                  "type": "uint32"
                },
                {
                  "internalType": "uint32",
                  "name": "maximumAmount",
                  "type": "uint32"
                },
                {
                  "internalType": "bool",
                  "name": "netOfTransfers",
                  "type": "bool"
                },
                {
                  "internalType": "address",
                  "name": "feeCollector",
                  "type": "address"
                }
              ],
              "internalType": "struct IHederaTokenService.FractionalFee[]",
              "name": "fractionalFees",
              "type": "tuple[]"
            },
            {
              "components": [
                {
                  "internalType": "uint32",
                  "name": "numerator",
                  "type": "uint32"
                },
                {
                  "internalType": "uint32",
                  "name": "denominator",
                  "type": "uint32"
                },
                {
                  "internalType": "uint32",
                  "name": "amount",
                  "type": "uint32"
                },
                {
                  "internalType": "address",
                  "name": "tokenId",
                  "type": "address"
                },
                {
                  "internalType": "bool",
                  "name": "useHbarsForPayment",
                  "type": "bool"
                },
                {
                  "internalType": "address",
                  "name": "feeCollector",
                  "type": "address"
                }
              ],
              "internalType": "struct IHederaTokenService.RoyaltyFee[]",
              "name": "royaltyFees",
              "type": "tuple[]"
            },
            {
              "internalType": "string",
              "name": "ledgerId",
              "type": "string"
            }
          ],
          "indexed": false,
          "internalType": "struct IHederaTokenService.TokenInfo",
          "name": "tokenInfo",
          "type": "tuple"
        }
      ],
      "name": "TokenInfo",
      "type": "event"
    },
    {
      "anonymous": false,
      "inputs": [
        {
          "indexed": false,
          "internalType": "int32",
          "name": "tokenType",
          "type": "int32"
        }
      ],
      "name": "TokenType",
      "type": "event"
    },
    {
      "anonymous": false,
      "inputs": [
        {
          "indexed": false,
          "internalType": "bool",
          "name": "unpaused",
          "type": "bool"
        }
      ],
      "name": "UnpausedToken",
      "type": "event"
    },
    {
      "inputs": [
        {
          "internalType": "address",
          "name": "token",
          "type": "address"
        },
        {
          "internalType": "address",
          "name": "owner",
          "type": "address"
        },
        {
          "internalType": "address",
          "name": "spender",
          "type": "address"
        }
      ],
      "name": "allowancePublic",
      "outputs": [
        {
          "internalType": "int256",
          "name": "responseCode",
          "type": "int256"
        },
        {
          "internalType": "uint256",
          "name": "amount",
          "type": "uint256"
        }
      ],
      "stateMutability": "nonpayable",
      "type": "function"
    },
    {
      "inputs": [
        {
          "internalType": "address",
          "name": "token",
          "type": "address"
        },
        {
          "internalType": "address",
          "name": "spender",
          "type": "address"
        },
        {
          "internalType": "uint256",
          "name": "amount",
          "type": "uint256"
        }
      ],
      "name": "approvePublic",
      "outputs": [
        {
          "internalType": "int256",
          "name": "responseCode",
          "type": "int256"
        }
      ],
      "stateMutability": "nonpayable",
      "type": "function"
    },
    {
      "inputs": [
        {
          "internalType": "address",
          "name": "account",
          "type": "address"
        },
        {
          "internalType": "address",
          "name": "token",
          "type": "address"
        }
      ],
      "name": "associateTokenPublic",
      "outputs": [
        {
          "internalType": "int256",
          "name": "responseCode",
          "type": "int256"
        }
      ],
      "stateMutability": "nonpayable",
      "type": "function"
    },
    {
      "inputs": [
        {
          "internalType": "address",
          "name": "treasury",
          "type": "address"
        }
      ],
      "name": "createFungibleTokenPublic",
      "outputs": [],
      "stateMutability": "payable",
      "type": "function"
    },
    {
      "inputs": [
        {
          "internalType": "address",
          "name": "treasury",
          "type": "address"
        },
        {
          "internalType": "address",
          "name": "fixedFeeTokenAddress",
          "type": "address"
        }
      ],
      "name": "createFungibleTokenWithCustomFeesPublic",
      "outputs": [],
      "stateMutability": "payable",
      "type": "function"
    },
    {
      "inputs": [
        {
          "internalType": "address",
          "name": "treasury",
          "type": "address"
        }
      ],
      "name": "createNonFungibleTokenPublic",
      "outputs": [],
      "stateMutability": "payable",
      "type": "function"
    },
    {
      "inputs": [
        {
          "internalType": "address",
          "name": "token",
          "type": "address"
        }
      ],
      "name": "deleteTokenPublic",
      "outputs": [
        {
          "internalType": "int256",
          "name": "responseCode",
          "type": "int256"
        }
      ],
      "stateMutability": "nonpayable",
      "type": "function"
    },
    {
      "inputs": [
        {
          "internalType": "address",
          "name": "token",
          "type": "address"
        },
        {
          "internalType": "address",
          "name": "account",
          "type": "address"
        }
      ],
      "name": "freezeTokenPublic",
      "outputs": [
        {
          "internalType": "int256",
          "name": "responseCode",
          "type": "int256"
        }
      ],
      "stateMutability": "nonpayable",
      "type": "function"
    },
    {
      "inputs": [
        {
          "internalType": "address",
          "name": "token",
          "type": "address"
        },
        {
          "internalType": "uint256",
          "name": "serialNumber",
          "type": "uint256"
        }
      ],
      "name": "getApprovedPublic",
      "outputs": [
        {
          "internalType": "int256",
          "name": "responseCode",
          "type": "int256"
        },
        {
          "internalType": "address",
          "name": "approved",
          "type": "address"
        }
      ],
      "stateMutability": "nonpayable",
      "type": "function"
    },
    {
      "inputs": [
        {
          "internalType": "address",
          "name": "token",
          "type": "address"
        }
      ],
      "name": "getFungibleTokenInfoPublic",
      "outputs": [
        {
          "internalType": "int256",
          "name": "responseCode",
          "type": "int256"
        },
        {
          "components": [
            {
              "components": [
                {
                  "components": [
                    {
                      "internalType": "string",
                      "name": "name",
                      "type": "string"
                    },
                    {
                      "internalType": "string",
                      "name": "symbol",
                      "type": "string"
                    },
                    {
                      "internalType": "address",
                      "name": "treasury",
                      "type": "address"
                    },
                    {
                      "internalType": "string",
                      "name": "memo",
                      "type": "string"
                    },
                    {
                      "internalType": "bool",
                      "name": "tokenSupplyType",
                      "type": "bool"
                    },
                    {
                      "internalType": "uint32",
                      "name": "maxSupply",
                      "type": "uint32"
                    },
                    {
                      "internalType": "bool",
                      "name": "freezeDefault",
                      "type": "bool"
                    },
                    {
                      "components": [
                        {
                          "internalType": "uint256",
                          "name": "keyType",
                          "type": "uint256"
                        },
                        {
                          "components": [
                            {
                              "internalType": "bool",
                              "name": "inheritAccountKey",
                              "type": "bool"
                            },
                            {
                              "internalType": "address",
                              "name": "contractId",
                              "type": "address"
                            },
                            {
                              "internalType": "bytes",
                              "name": "ed25519",
                              "type": "bytes"
                            },
                            {
                              "internalType": "bytes",
                              "name": "ECDSA_secp256k1",
                              "type": "bytes"
                            },
                            {
                              "internalType": "address",
                              "name": "delegatableContractId",
                              "type": "address"
                            }
                          ],
                          "internalType": "struct IHederaTokenService.KeyValue",
                          "name": "key",
                          "type": "tuple"
                        }
                      ],
                      "internalType": "struct IHederaTokenService.TokenKey[]",
                      "name": "tokenKeys",
                      "type": "tuple[]"
                    },
                    {
                      "components": [
                        {
                          "internalType": "uint32",
                          "name": "second",
                          "type": "uint32"
                        },
                        {
                          "internalType": "address",
                          "name": "autoRenewAccount",
                          "type": "address"
                        },
                        {
                          "internalType": "uint32",
                          "name": "autoRenewPeriod",
                          "type": "uint32"
                        }
                      ],
                      "internalType": "struct IHederaTokenService.Expiry",
                      "name": "expiry",
                      "type": "tuple"
                    }
                  ],
                  "internalType": "struct IHederaTokenService.HederaToken",
                  "name": "token",
                  "type": "tuple"
                },
                {
                  "internalType": "uint64",
                  "name": "totalSupply",
                  "type": "uint64"
                },
                {
                  "internalType": "bool",
                  "name": "deleted",
                  "type": "bool"
                },
                {
                  "internalType": "bool",
                  "name": "defaultKycStatus",
                  "type": "bool"
                },
                {
                  "internalType": "bool",
                  "name": "pauseStatus",
                  "type": "bool"
                },
                {
                  "components": [
                    {
                      "internalType": "uint32",
                      "name": "amount",
                      "type": "uint32"
                    },
                    {
                      "internalType": "address",
                      "name": "tokenId",
                      "type": "address"
                    },
                    {
                      "internalType": "bool",
                      "name": "useHbarsForPayment",
                      "type": "bool"
                    },
                    {
                      "internalType": "bool",
                      "name": "useCurrentTokenForPayment",
                      "type": "bool"
                    },
                    {
                      "internalType": "address",
                      "name": "feeCollector",
                      "type": "address"
                    }
                  ],
                  "internalType": "struct IHederaTokenService.FixedFee[]",
                  "name": "fixedFees",
                  "type": "tuple[]"
                },
                {
                  "components": [
                    {
                      "internalType": "uint32",
                      "name": "numerator",
                      "type": "uint32"
                    },
                    {
                      "internalType": "uint32",
                      "name": "denominator",
                      "type": "uint32"
                    },
                    {
                      "internalType": "uint32",
                      "name": "minimumAmount",
                      "type": "uint32"
                    },
                    {
                      "internalType": "uint32",
                      "name": "maximumAmount",
                      "type": "uint32"
                    },
                    {
                      "internalType": "bool",
                      "name": "netOfTransfers",
                      "type": "bool"
                    },
                    {
                      "internalType": "address",
                      "name": "feeCollector",
                      "type": "address"
                    }
                  ],
                  "internalType": "struct IHederaTokenService.FractionalFee[]",
                  "name": "fractionalFees",
                  "type": "tuple[]"
                },
                {
                  "components": [
                    {
                      "internalType": "uint32",
                      "name": "numerator",
                      "type": "uint32"
                    },
                    {
                      "internalType": "uint32",
                      "name": "denominator",
                      "type": "uint32"
                    },
                    {
                      "internalType": "uint32",
                      "name": "amount",
                      "type": "uint32"
                    },
                    {
                      "internalType": "address",
                      "name": "tokenId",
                      "type": "address"
                    },
                    {
                      "internalType": "bool",
                      "name": "useHbarsForPayment",
                      "type": "bool"
                    },
                    {
                      "internalType": "address",
                      "name": "feeCollector",
                      "type": "address"
                    }
                  ],
                  "internalType": "struct IHederaTokenService.RoyaltyFee[]",
                  "name": "royaltyFees",
                  "type": "tuple[]"
                },
                {
                  "internalType": "string",
                  "name": "ledgerId",
                  "type": "string"
                }
              ],
              "internalType": "struct IHederaTokenService.TokenInfo",
              "name": "tokenInfo",
              "type": "tuple"
            },
            {
              "internalType": "uint32",
              "name": "decimals",
              "type": "uint32"
            }
          ],
          "internalType": "struct IHederaTokenService.FungibleTokenInfo",
          "name": "tokenInfo",
          "type": "tuple"
        }
      ],
      "stateMutability": "nonpayable",
      "type": "function"
    },
    {
      "inputs": [
        {
          "internalType": "address",
          "name": "token",
          "type": "address"
        },
        {
          "internalType": "int64",
          "name": "serialNumber",
          "type": "int64"
        }
      ],
      "name": "getNonFungibleTokenInfoPublic",
      "outputs": [
        {
          "internalType": "int256",
          "name": "responseCode",
          "type": "int256"
        },
        {
          "components": [
            {
              "components": [
                {
                  "components": [
                    {
                      "internalType": "string",
                      "name": "name",
                      "type": "string"
                    },
                    {
                      "internalType": "string",
                      "name": "symbol",
                      "type": "string"
                    },
                    {
                      "internalType": "address",
                      "name": "treasury",
                      "type": "address"
                    },
                    {
                      "internalType": "string",
                      "name": "memo",
                      "type": "string"
                    },
                    {
                      "internalType": "bool",
                      "name": "tokenSupplyType",
                      "type": "bool"
                    },
                    {
                      "internalType": "uint32",
                      "name": "maxSupply",
                      "type": "uint32"
                    },
                    {
                      "internalType": "bool",
                      "name": "freezeDefault",
                      "type": "bool"
                    },
                    {
                      "components": [
                        {
                          "internalType": "uint256",
                          "name": "keyType",
                          "type": "uint256"
                        },
                        {
                          "components": [
                            {
                              "internalType": "bool",
                              "name": "inheritAccountKey",
                              "type": "bool"
                            },
                            {
                              "internalType": "address",
                              "name": "contractId",
                              "type": "address"
                            },
                            {
                              "internalType": "bytes",
                              "name": "ed25519",
                              "type": "bytes"
                            },
                            {
                              "internalType": "bytes",
                              "name": "ECDSA_secp256k1",
                              "type": "bytes"
                            },
                            {
                              "internalType": "address",
                              "name": "delegatableContractId",
                              "type": "address"
                            }
                          ],
                          "internalType": "struct IHederaTokenService.KeyValue",
                          "name": "key",
                          "type": "tuple"
                        }
                      ],
                      "internalType": "struct IHederaTokenService.TokenKey[]",
                      "name": "tokenKeys",
                      "type": "tuple[]"
                    },
                    {
                      "components": [
                        {
                          "internalType": "uint32",
                          "name": "second",
                          "type": "uint32"
                        },
                        {
                          "internalType": "address",
                          "name": "autoRenewAccount",
                          "type": "address"
                        },
                        {
                          "internalType": "uint32",
                          "name": "autoRenewPeriod",
                          "type": "uint32"
                        }
                      ],
                      "internalType": "struct IHederaTokenService.Expiry",
                      "name": "expiry",
                      "type": "tuple"
                    }
                  ],
                  "internalType": "struct IHederaTokenService.HederaToken",
                  "name": "token",
                  "type": "tuple"
                },
                {
                  "internalType": "uint64",
                  "name": "totalSupply",
                  "type": "uint64"
                },
                {
                  "internalType": "bool",
                  "name": "deleted",
                  "type": "bool"
                },
                {
                  "internalType": "bool",
                  "name": "defaultKycStatus",
                  "type": "bool"
                },
                {
                  "internalType": "bool",
                  "name": "pauseStatus",
                  "type": "bool"
                },
                {
                  "components": [
                    {
                      "internalType": "uint32",
                      "name": "amount",
                      "type": "uint32"
                    },
                    {
                      "internalType": "address",
                      "name": "tokenId",
                      "type": "address"
                    },
                    {
                      "internalType": "bool",
                      "name": "useHbarsForPayment",
                      "type": "bool"
                    },
                    {
                      "internalType": "bool",
                      "name": "useCurrentTokenForPayment",
                      "type": "bool"
                    },
                    {
                      "internalType": "address",
                      "name": "feeCollector",
                      "type": "address"
                    }
                  ],
                  "internalType": "struct IHederaTokenService.FixedFee[]",
                  "name": "fixedFees",
                  "type": "tuple[]"
                },
                {
                  "components": [
                    {
                      "internalType": "uint32",
                      "name": "numerator",
                      "type": "uint32"
                    },
                    {
                      "internalType": "uint32",
                      "name": "denominator",
                      "type": "uint32"
                    },
                    {
                      "internalType": "uint32",
                      "name": "minimumAmount",
                      "type": "uint32"
                    },
                    {
                      "internalType": "uint32",
                      "name": "maximumAmount",
                      "type": "uint32"
                    },
                    {
                      "internalType": "bool",
                      "name": "netOfTransfers",
                      "type": "bool"
                    },
                    {
                      "internalType": "address",
                      "name": "feeCollector",
                      "type": "address"
                    }
                  ],
                  "internalType": "struct IHederaTokenService.FractionalFee[]",
                  "name": "fractionalFees",
                  "type": "tuple[]"
                },
                {
                  "components": [
                    {
                      "internalType": "uint32",
                      "name": "numerator",
                      "type": "uint32"
                    },
                    {
                      "internalType": "uint32",
                      "name": "denominator",
                      "type": "uint32"
                    },
                    {
                      "internalType": "uint32",
                      "name": "amount",
                      "type": "uint32"
                    },
                    {
                      "internalType": "address",
                      "name": "tokenId",
                      "type": "address"
                    },
                    {
                      "internalType": "bool",
                      "name": "useHbarsForPayment",
                      "type": "bool"
                    },
                    {
                      "internalType": "address",
                      "name": "feeCollector",
                      "type": "address"
                    }
                  ],
                  "internalType": "struct IHederaTokenService.RoyaltyFee[]",
                  "name": "royaltyFees",
                  "type": "tuple[]"
                },
                {
                  "internalType": "string",
                  "name": "ledgerId",
                  "type": "string"
                }
              ],
              "internalType": "struct IHederaTokenService.TokenInfo",
              "name": "tokenInfo",
              "type": "tuple"
            },
            {
              "internalType": "int64",
              "name": "serialNumber",
              "type": "int64"
            },
            {
              "internalType": "address",
              "name": "ownerId",
              "type": "address"
            },
            {
              "internalType": "int64",
              "name": "creationTime",
              "type": "int64"
            },
            {
              "internalType": "bytes",
              "name": "metadata",
              "type": "bytes"
            },
            {
              "internalType": "address",
              "name": "spenderId",
              "type": "address"
            }
          ],
          "internalType": "struct IHederaTokenService.NonFungibleTokenInfo",
          "name": "tokenInfo",
          "type": "tuple"
        }
      ],
      "stateMutability": "nonpayable",
      "type": "function"
    },
    {
      "inputs": [
        {
          "internalType": "address",
          "name": "token",
          "type": "address"
        }
      ],
      "name": "getTokenCustomFeesPublic",
      "outputs": [
        {
          "internalType": "int64",
          "name": "responseCode",
          "type": "int64"
        },
        {
          "components": [
            {
              "internalType": "uint32",
              "name": "amount",
              "type": "uint32"
            },
            {
              "internalType": "address",
              "name": "tokenId",
              "type": "address"
            },
            {
              "internalType": "bool",
              "name": "useHbarsForPayment",
              "type": "bool"
            },
            {
              "internalType": "bool",
              "name": "useCurrentTokenForPayment",
              "type": "bool"
            },
            {
              "internalType": "address",
              "name": "feeCollector",
              "type": "address"
            }
          ],
          "internalType": "struct IHederaTokenService.FixedFee[]",
          "name": "fixedFees",
          "type": "tuple[]"
        },
        {
          "components": [
            {
              "internalType": "uint32",
              "name": "numerator",
              "type": "uint32"
            },
            {
              "internalType": "uint32",
              "name": "denominator",
              "type": "uint32"
            },
            {
              "internalType": "uint32",
              "name": "minimumAmount",
              "type": "uint32"
            },
            {
              "internalType": "uint32",
              "name": "maximumAmount",
              "type": "uint32"
            },
            {
              "internalType": "bool",
              "name": "netOfTransfers",
              "type": "bool"
            },
            {
              "internalType": "address",
              "name": "feeCollector",
              "type": "address"
            }
          ],
          "internalType": "struct IHederaTokenService.FractionalFee[]",
          "name": "fractionalFees",
          "type": "tuple[]"
        },
        {
          "components": [
            {
              "internalType": "uint32",
              "name": "numerator",
              "type": "uint32"
            },
            {
              "internalType": "uint32",
              "name": "denominator",
              "type": "uint32"
            },
            {
              "internalType": "uint32",
              "name": "amount",
              "type": "uint32"
            },
            {
              "internalType": "address",
              "name": "tokenId",
              "type": "address"
            },
            {
              "internalType": "bool",
              "name": "useHbarsForPayment",
              "type": "bool"
            },
            {
              "internalType": "address",
              "name": "feeCollector",
              "type": "address"
            }
          ],
          "internalType": "struct IHederaTokenService.RoyaltyFee[]",
          "name": "royaltyFees",
          "type": "tuple[]"
        }
      ],
      "stateMutability": "nonpayable",
      "type": "function"
    },
    {
      "inputs": [
        {
          "internalType": "address",
          "name": "token",
          "type": "address"
        }
      ],
      "name": "getTokenDefaultFreezeStatusPublic",
      "outputs": [
        {
          "internalType": "int256",
          "name": "responseCode",
          "type": "int256"
        },
        {
          "internalType": "bool",
          "name": "defaultFreezeStatus",
          "type": "bool"
        }
      ],
      "stateMutability": "nonpayable",
      "type": "function"
    },
    {
      "inputs": [
        {
          "internalType": "address",
          "name": "token",
          "type": "address"
        }
      ],
      "name": "getTokenDefaultKycStatusPublic",
      "outputs": [
        {
          "internalType": "int256",
          "name": "responseCode",
          "type": "int256"
        },
        {
          "internalType": "bool",
          "name": "defaultKycStatus",
          "type": "bool"
        }
      ],
      "stateMutability": "nonpayable",
      "type": "function"
    },
    {
      "inputs": [
        {
          "internalType": "address",
          "name": "token",
          "type": "address"
        }
      ],
      "name": "getTokenInfoPublic",
      "outputs": [
        {
          "internalType": "int256",
          "name": "responseCode",
          "type": "int256"
        },
        {
          "components": [
            {
              "components": [
                {
                  "internalType": "string",
                  "name": "name",
                  "type": "string"
                },
                {
                  "internalType": "string",
                  "name": "symbol",
                  "type": "string"
                },
                {
                  "internalType": "address",
                  "name": "treasury",
                  "type": "address"
                },
                {
                  "internalType": "string",
                  "name": "memo",
                  "type": "string"
                },
                {
                  "internalType": "bool",
                  "name": "tokenSupplyType",
                  "type": "bool"
                },
                {
                  "internalType": "uint32",
                  "name": "maxSupply",
                  "type": "uint32"
                },
                {
                  "internalType": "bool",
                  "name": "freezeDefault",
                  "type": "bool"
                },
                {
                  "components": [
                    {
                      "internalType": "uint256",
                      "name": "keyType",
                      "type": "uint256"
                    },
                    {
                      "components": [
                        {
                          "internalType": "bool",
                          "name": "inheritAccountKey",
                          "type": "bool"
                        },
                        {
                          "internalType": "address",
                          "name": "contractId",
                          "type": "address"
                        },
                        {
                          "internalType": "bytes",
                          "name": "ed25519",
                          "type": "bytes"
                        },
                        {
                          "internalType": "bytes",
                          "name": "ECDSA_secp256k1",
                          "type": "bytes"
                        },
                        {
                          "internalType": "address",
                          "name": "delegatableContractId",
                          "type": "address"
                        }
                      ],
                      "internalType": "struct IHederaTokenService.KeyValue",
                      "name": "key",
                      "type": "tuple"
                    }
                  ],
                  "internalType": "struct IHederaTokenService.TokenKey[]",
                  "name": "tokenKeys",
                  "type": "tuple[]"
                },
                {
                  "components": [
                    {
                      "internalType": "uint32",
                      "name": "second",
                      "type": "uint32"
                    },
                    {
                      "internalType": "address",
                      "name": "autoRenewAccount",
                      "type": "address"
                    },
                    {
                      "internalType": "uint32",
                      "name": "autoRenewPeriod",
                      "type": "uint32"
                    }
                  ],
                  "internalType": "struct IHederaTokenService.Expiry",
                  "name": "expiry",
                  "type": "tuple"
                }
              ],
              "internalType": "struct IHederaTokenService.HederaToken",
              "name": "token",
              "type": "tuple"
            },
            {
              "internalType": "uint64",
              "name": "totalSupply",
              "type": "uint64"
            },
            {
              "internalType": "bool",
              "name": "deleted",
              "type": "bool"
            },
            {
              "internalType": "bool",
              "name": "defaultKycStatus",
              "type": "bool"
            },
            {
              "internalType": "bool",
              "name": "pauseStatus",
              "type": "bool"
            },
            {
              "components": [
                {
                  "internalType": "uint32",
                  "name": "amount",
                  "type": "uint32"
                },
                {
                  "internalType": "address",
                  "name": "tokenId",
                  "type": "address"
                },
                {
                  "internalType": "bool",
                  "name": "useHbarsForPayment",
                  "type": "bool"
                },
                {
                  "internalType": "bool",
                  "name": "useCurrentTokenForPayment",
                  "type": "bool"
                },
                {
                  "internalType": "address",
                  "name": "feeCollector",
                  "type": "address"
                }
              ],
              "internalType": "struct IHederaTokenService.FixedFee[]",
              "name": "fixedFees",
              "type": "tuple[]"
            },
            {
              "components": [
                {
                  "internalType": "uint32",
                  "name": "numerator",
                  "type": "uint32"
                },
                {
                  "internalType": "uint32",
                  "name": "denominator",
                  "type": "uint32"
                },
                {
                  "internalType": "uint32",
                  "name": "minimumAmount",
                  "type": "uint32"
                },
                {
                  "internalType": "uint32",
                  "name": "maximumAmount",
                  "type": "uint32"
                },
                {
                  "internalType": "bool",
                  "name": "netOfTransfers",
                  "type": "bool"
                },
                {
                  "internalType": "address",
                  "name": "feeCollector",
                  "type": "address"
                }
              ],
              "internalType": "struct IHederaTokenService.FractionalFee[]",
              "name": "fractionalFees",
              "type": "tuple[]"
            },
            {
              "components": [
                {
                  "internalType": "uint32",
                  "name": "numerator",
                  "type": "uint32"
                },
                {
                  "internalType": "uint32",
                  "name": "denominator",
                  "type": "uint32"
                },
                {
                  "internalType": "uint32",
                  "name": "amount",
                  "type": "uint32"
                },
                {
                  "internalType": "address",
                  "name": "tokenId",
                  "type": "address"
                },
                {
                  "internalType": "bool",
                  "name": "useHbarsForPayment",
                  "type": "bool"
                },
                {
                  "internalType": "address",
                  "name": "feeCollector",
                  "type": "address"
                }
              ],
              "internalType": "struct IHederaTokenService.RoyaltyFee[]",
              "name": "royaltyFees",
              "type": "tuple[]"
            },
            {
              "internalType": "string",
              "name": "ledgerId",
              "type": "string"
            }
          ],
          "internalType": "struct IHederaTokenService.TokenInfo",
          "name": "tokenInfo",
          "type": "tuple"
        }
      ],
      "stateMutability": "nonpayable",
      "type": "function"
    },
    {
      "inputs": [
        {
          "internalType": "address",
          "name": "token",
          "type": "address"
        }
      ],
      "name": "getTokenTypePublic",
      "outputs": [
        {
          "internalType": "int64",
          "name": "responseCode",
          "type": "int64"
        },
        {
          "internalType": "int32",
          "name": "tokenType",
          "type": "int32"
        }
      ],
      "stateMutability": "nonpayable",
      "type": "function"
    },
    {
      "inputs": [
        {
          "internalType": "address",
          "name": "token",
          "type": "address"
        },
        {
          "internalType": "address",
          "name": "account",
          "type": "address"
        }
      ],
      "name": "grantTokenKyc",
      "outputs": [
        {
          "internalType": "int64",
          "name": "responseCode",
          "type": "int64"
        }
      ],
      "stateMutability": "nonpayable",
      "type": "function"
    },
    {
      "inputs": [
        {
          "internalType": "address",
          "name": "token",
          "type": "address"
        },
        {
          "internalType": "address",
          "name": "account",
          "type": "address"
        }
      ],
      "name": "grantTokenKycPublic",
      "outputs": [
        {
          "internalType": "int64",
          "name": "responseCode",
          "type": "int64"
        }
      ],
      "stateMutability": "nonpayable",
      "type": "function"
    },
    {
      "inputs": [
        {
          "internalType": "address",
          "name": "token",
          "type": "address"
        },
        {
          "internalType": "address",
          "name": "owner",
          "type": "address"
        },
        {
          "internalType": "address",
          "name": "operator",
          "type": "address"
        }
      ],
      "name": "isApprovedForAllPublic",
      "outputs": [
        {
          "internalType": "int256",
          "name": "responseCode",
          "type": "int256"
        },
        {
          "internalType": "bool",
          "name": "approved",
          "type": "bool"
        }
      ],
      "stateMutability": "nonpayable",
      "type": "function"
    },
    {
      "inputs": [
        {
          "internalType": "address",
          "name": "token",
          "type": "address"
        },
        {
          "internalType": "address",
          "name": "account",
          "type": "address"
        }
      ],
      "name": "isFrozenPublic",
      "outputs": [
        {
          "internalType": "int256",
          "name": "responseCode",
          "type": "int256"
        },
        {
          "internalType": "bool",
          "name": "frozen",
          "type": "bool"
        }
      ],
      "stateMutability": "nonpayable",
      "type": "function"
    },
    {
      "inputs": [
        {
          "internalType": "address",
          "name": "token",
          "type": "address"
        },
        {
          "internalType": "address",
          "name": "account",
          "type": "address"
        }
      ],
      "name": "isKyc",
      "outputs": [
        {
          "internalType": "int64",
          "name": "responseCode",
          "type": "int64"
        },
        {
          "internalType": "bool",
          "name": "kycGranted",
          "type": "bool"
        }
      ],
      "stateMutability": "nonpayable",
      "type": "function"
    },
    {
      "inputs": [
        {
          "internalType": "address",
          "name": "token",
          "type": "address"
        },
        {
          "internalType": "address",
          "name": "account",
          "type": "address"
        }
      ],
      "name": "isKycPublic",
      "outputs": [
        {
          "internalType": "int64",
          "name": "responseCode",
          "type": "int64"
        },
        {
          "internalType": "bool",
          "name": "kycGranted",
          "type": "bool"
        }
      ],
      "stateMutability": "nonpayable",
      "type": "function"
    },
    {
      "inputs": [
        {
          "internalType": "address",
          "name": "token",
          "type": "address"
        }
      ],
      "name": "isTokenPublic",
      "outputs": [
        {
          "internalType": "int64",
          "name": "responseCode",
          "type": "int64"
        },
        {
          "internalType": "bool",
          "name": "isTokenFlag",
          "type": "bool"
        }
      ],
      "stateMutability": "nonpayable",
      "type": "function"
    },
    {
      "inputs": [
        {
          "internalType": "address",
          "name": "token",
          "type": "address"
        },
        {
          "internalType": "uint64",
          "name": "amount",
          "type": "uint64"
        },
        {
          "internalType": "bytes[]",
          "name": "metadata",
          "type": "bytes[]"
        }
      ],
      "name": "mintTokenPublic",
      "outputs": [
        {
          "internalType": "int256",
          "name": "responseCode",
          "type": "int256"
        },
        {
          "internalType": "uint64",
          "name": "newTotalSupply",
          "type": "uint64"
        },
        {
          "internalType": "int64[]",
          "name": "serialNumbers",
          "type": "int64[]"
        }
      ],
      "stateMutability": "nonpayable",
      "type": "function"
    },
    {
      "inputs": [
        {
          "internalType": "address",
          "name": "token",
          "type": "address"
        }
      ],
      "name": "pauseToken",
      "outputs": [
        {
          "internalType": "int256",
          "name": "responseCode",
          "type": "int256"
        }
      ],
      "stateMutability": "nonpayable",
      "type": "function"
    },
    {
      "inputs": [
        {
          "internalType": "address",
          "name": "token",
          "type": "address"
        }
      ],
      "name": "pauseTokenPublic",
      "outputs": [
        {
          "internalType": "int256",
          "name": "responseCode",
          "type": "int256"
        }
      ],
      "stateMutability": "nonpayable",
      "type": "function"
    },
    {
      "inputs": [
        {
          "internalType": "address",
          "name": "token",
          "type": "address"
        },
        {
          "internalType": "address",
          "name": "account",
          "type": "address"
        }
      ],
      "name": "revokeTokenKyc",
      "outputs": [
        {
          "internalType": "int64",
          "name": "responseCode",
          "type": "int64"
        }
      ],
      "stateMutability": "nonpayable",
      "type": "function"
    },
    {
      "inputs": [
        {
          "internalType": "address",
          "name": "token",
          "type": "address"
        },
        {
          "internalType": "address",
          "name": "account",
          "type": "address"
        }
      ],
      "name": "revokeTokenKycPublic",
      "outputs": [
        {
          "internalType": "int64",
          "name": "responseCode",
          "type": "int64"
        }
      ],
      "stateMutability": "nonpayable",
      "type": "function"
    },
    {
      "inputs": [
        {
          "internalType": "address",
          "name": "token",
          "type": "address"
        },
        {
          "internalType": "address",
          "name": "operator",
          "type": "address"
        },
        {
          "internalType": "bool",
          "name": "approved",
          "type": "bool"
        }
      ],
      "name": "setApprovalForAllPublic",
      "outputs": [
        {
          "internalType": "int256",
          "name": "responseCode",
          "type": "int256"
        }
      ],
      "stateMutability": "nonpayable",
      "type": "function"
    },
    {
      "inputs": [
        {
          "internalType": "bool",
          "name": "newFreezeStatus",
          "type": "bool"
        }
      ],
      "name": "setFreezeDefaultStatus",
      "outputs": [],
      "stateMutability": "nonpayable",
      "type": "function"
    },
    {
      "inputs": [
        {
          "internalType": "address",
          "name": "token",
          "type": "address"
        },
        {
          "internalType": "address",
          "name": "sender",
          "type": "address"
        },
        {
          "internalType": "address",
          "name": "receiver",
          "type": "address"
        },
        {
          "internalType": "int64",
          "name": "serialNumber",
          "type": "int64"
        }
      ],
      "name": "transferNFTPublic",
      "outputs": [
        {
          "internalType": "int256",
          "name": "responseCode",
          "type": "int256"
        }
      ],
      "stateMutability": "nonpayable",
      "type": "function"
    },
    {
      "inputs": [
        {
          "internalType": "address",
          "name": "account",
          "type": "address"
        },
        {
          "internalType": "address",
          "name": "token",
          "type": "address"
        },
        {
          "internalType": "int64",
          "name": "amount",
          "type": "int64"
        }
      ],
      "name": "transferTokenPublic",
      "outputs": [
        {
          "internalType": "int256",
          "name": "responseCode",
          "type": "int256"
        }
      ],
      "stateMutability": "nonpayable",
      "type": "function"
    },
    {
      "inputs": [
        {
          "internalType": "address",
          "name": "token",
          "type": "address"
        },
        {
          "internalType": "address",
          "name": "account",
          "type": "address"
        }
      ],
      "name": "unfreezeTokenPublic",
      "outputs": [
        {
          "internalType": "int256",
          "name": "responseCode",
          "type": "int256"
        }
      ],
      "stateMutability": "nonpayable",
      "type": "function"
    },
    {
      "inputs": [
        {
          "internalType": "address",
          "name": "token",
          "type": "address"
        }
      ],
      "name": "unpauseToken",
      "outputs": [
        {
          "internalType": "int256",
          "name": "responseCode",
          "type": "int256"
        }
      ],
      "stateMutability": "nonpayable",
      "type": "function"
    },
    {
      "inputs": [
        {
          "internalType": "address",
          "name": "token",
          "type": "address"
        }
      ],
      "name": "unpauseTokenPublic",
      "outputs": [
        {
          "internalType": "int256",
          "name": "responseCode",
          "type": "int256"
        }
      ],
      "stateMutability": "nonpayable",
      "type": "function"
    },
    {
      "inputs": [
        {
          "internalType": "address",
          "name": "token",
          "type": "address"
        },
        {
          "internalType": "address",
          "name": "account",
          "type": "address"
        },
        {
          "internalType": "int64[]",
          "name": "serialNumbers",
          "type": "int64[]"
        }
      ],
      "name": "wipeTokenAccountNFTPublic",
      "outputs": [
        {
          "internalType": "int256",
          "name": "responseCode",
          "type": "int256"
        }
      ],
      "stateMutability": "nonpayable",
      "type": "function"
    },
    {
      "inputs": [
        {
          "internalType": "address",
          "name": "token",
          "type": "address"
        },
        {
          "internalType": "address",
          "name": "account",
          "type": "address"
        },
        {
          "internalType": "uint32",
          "name": "amount",
          "type": "uint32"
        }
      ],
      "name": "wipeTokenAccountPublic",
      "outputs": [
        {
          "internalType": "int256",
          "name": "responseCode",
          "type": "int256"
        }
      ],
      "stateMutability": "nonpayable",
      "type": "function"
    }
  ],
  "bytecode": "0x60c06040526009608081905268746f6b656e4e616d6560b81b60a09081526200002c9160019190620000cb565b5060408051808201909152600b8082526a1d1bdad95b94de5b589bdb60aa1b60209092019182526200006191600291620000cb565b50604080518082019091526004808252636d656d6f60e01b60209092019182526200008f91600391620000cb565b506103e860048190556005805463ffffffff1916909117905560086006556007805460ff19169055348015620000c457600080fd5b50620001ae565b828054620000d99062000171565b90600052602060002090601f016020900481019282620000fd576000855562000148565b82601f106200011857805160ff191683800117855562000148565b8280016001018555821562000148579182015b82811115620001485782518255916020019190600101906200012b565b50620001569291506200015a565b5090565b5b808211156200015657600081556001016200015b565b600181811c908216806200018657607f821691505b60208210811415620001a857634e487b7160e01b600052602260045260246000fd5b50919050565b61559b80620001be6000396000f3fe60806040526004361061026a5760003560e01c80637d3e5da811610153578063d85f74c1116100cb578063f2f38a741161007f578063f7be342511610064578063f7be342514610777578063f848fec414610797578063f9e978bd146107b757600080fd5b8063f2f38a7414610729578063f4a01e5b1461075757600080fd5b8063ec855c31116100b0578063ec855c31146106c9578063f25b1200146106e9578063f2c31ff41461070957600080fd5b8063d85f74c114610696578063d92ac248146106a957600080fd5b80638c99ef5d11610122578063a345f7bd11610107578063a345f7bd14610636578063a3ad5b5514610656578063af99c6331461067657600080fd5b80638c99ef5d146105dc5780638f8d7f991461061657600080fd5b80637d3e5da81461055a5780638070905f1461057a57806386f88d88146105a95780638ba74da0146105c957600080fd5b80634cbdb37b116101e65780635d2c5bad116101b55780636a4dde211161019a5780636a4dde21146104fa5780636da6b1f01461051a5780637c41ad2c1461053a57600080fd5b80635d2c5bad1461048f57806369837dc2146104cc57600080fd5b80634cbdb37b146103dc57806356af84031461040a5780635a5e6c311461042a5780635b9076b71461045f57600080fd5b80632d73bb2e1161023d5780633b3bff0f116102225780633b3bff0f146103875780633eed2c39146103a75780634b5c6687146103c757600080fd5b80632d73bb2e146103475780632eecbca31461036757600080fd5b80630fd2601e1461026f57806313c05dd8146102a757806319db44b6146102dc5780632b256ec814610319575b600080fd5b34801561027b57600080fd5b5061028f61028a3660046141ba565b6107d7565b60405160079190910b81526020015b60405180910390f35b3480156102b357600080fd5b506102c76102c23660046141f2565b61089b565b6040805192835290151560208301520161029e565b3480156102e857600080fd5b506102fc6102f7366004614484565b610919565b604080519283526001600160a01b0390911660208301520161029e565b34801561032557600080fd5b5061033961033436600461419e565b61099d565b60405190815260200161029e565b34801561035357600080fd5b506103396103623660046141ba565b610a89565b34801561037357600080fd5b5061028f6103823660046141ba565b610ace565b34801561039357600080fd5b506103396103a236600461419e565b610b05565b3480156103b357600080fd5b506102c76103c236600461419e565b610bdf565b6103da6103d536600461419e565b610c59565b005b3480156103e857600080fd5b506103fc6103f7366004614457565b611051565b60405161029e929190615198565b34801561041657600080fd5b50610339610425366004614297565b6110c7565b34801561043657600080fd5b5061044a6104453660046141f2565b611111565b6040805192835260208301919091520161029e565b34801561046b57600080fd5b5061047f61047a36600461419e565b611182565b60405161029e94939291906151f3565b34801561049b57600080fd5b506104af6104aa36600461419e565b611214565b6040805160079390930b835260039190910b60208301520161029e565b3480156104d857600080fd5b506104ec6104e736600461419e565b61128f565b60405161029e92919061517f565b34801561050657600080fd5b506102c76105153660046141ba565b611304565b34801561052657600080fd5b5061033961053536600461423c565b61137b565b34801561054657600080fd5b5061033961055536600461419e565b6113c7565b34801561056657600080fd5b506103396105753660046141ba565b6113f5565b34801561058657600080fd5b5061059a6105953660046144af565b611401565b60405161029e939291906151ca565b3480156105b557600080fd5b506102c76105c436600461419e565b611489565b6103da6105d73660046141ba565b6114fa565b3480156105e857600080fd5b506105fc6105f736600461419e565b6119b6565b6040805160079390930b835290151560208301520161029e565b34801561062257600080fd5b5061028f6106313660046141ba565b611a2f565b34801561064257600080fd5b5061033961065136600461419e565b611b12565b34801561066257600080fd5b506105fc6106713660046141ba565b611b58565b34801561068257600080fd5b5061028f6106913660046141ba565b611c4a565b6103da6106a436600461419e565b611c80565b3480156106b557600080fd5b506103396106c4366004614418565b61205e565b3480156106d557600080fd5b506103396106e4366004614399565b61206b565b3480156106f557600080fd5b5061033961070436600461435a565b61226c565b34801561071557600080fd5b506105fc6107243660046141ba565b612279565b34801561073557600080fd5b5061074961074436600461419e565b612366565b60405161029e9291906151b1565b34801561076357600080fd5b506103396107723660046141ba565b6123db565b34801561078357600080fd5b5061033961079236600461419e565b612408565b3480156107a357600080fd5b506103396107b23660046143d8565b6124eb565b3480156107c357600080fd5b506103da6107d23660046145bd565b6124f8565b604051638f8d7f9960e01b81526001600160a01b038084166004830152821660248201526000903090638f8d7f99906044015b602060405180830381600087803b15801561082457600080fd5b505af1158015610838573d6000803e3d6000fd5b505050506040513d601f19601f8201168201806040525081019061085c91906149dc565b604051600782900b81529091506000805160206155468339815191529060200160405180910390a1600781900b60161461089557600080fd5b92915050565b6000806108a9858585612545565b60405182815291935091506000805160206155468339815191529060200160405180910390a1601682146108dc57600080fd5b60405181151581527e1c2e72360171244b3bb8cc8ddd767820edf37138ad6f129fb3574b407c307d906020015b60405180910390a1935093915050565b6000806109268484612644565b60405182815291935091506000805160206155468339815191529060200160405180910390a16016821461095957600080fd5b6040516001600160a01b03821681527fc2c78c7c31baf14949e75c51df12be56edb9af523cf82839c2869bbcf13b3ecb906020015b60405180910390a19250929050565b604051631f106b4b60e21b81526001600160a01b03821660048201526000903090637c41ad2c90602401602060405180830381600087803b1580156109e157600080fd5b505af11580156109f5573d6000803e3d6000fd5b505050506040513d601f19601f82011682018060405250810190610a1991906145d9565b905060008051602061554683398151915281604051610a3a91815260200190565b60405180910390a160168114610a4f57600080fd5b604051600181527f0c9c765845f4d139956bb8fc8decb2eec6093c9c608b809641b16054b29f0e13906020015b60405180910390a1919050565b6000610a958383612724565b60070b905060008051602061554683398151915281604051610ab991815260200190565b60405180910390a16016811461089557600080fd5b60405163af99c63360e01b81526001600160a01b03808416600483015282166024820152600090309063af99c6339060440161080a565b6040516001600160a01b03821660248201526000908190819061016790633b3bff0f60e01b906044015b60408051601f198184030181529181526020820180516001600160e01b03166001600160e01b0319909416939093179092529051610b6d9190614f9f565b6000604051808303816000865af19150503d8060008114610baa576040519150601f19603f3d011682016040523d82523d6000602084013e610baf565b606091505b509150915081610bc0576015610bd4565b80806020019051810190610bd491906145f1565b60030b949350505050565b600080610beb83612773565b60405182815291935091506000805160206155468339815191529060200160405180910390a160168214610c1e57600080fd5b60405181151581527f6b7f3306751292f85ab4161ee2b0ac16dfc8ded13e6446ce6bd859d0a2f4c78e906020015b60405180910390a1915091565b60408051600480825260a08201909252600091816020015b610c7961390a565b815260200190600190039081610c71579050509050610cac60006006600160405180602001604052806000815250612870565b81600081518110610ccd57634e487b7160e01b600052603260045260246000fd5b6020026020010181905250610cf3600180604051806020016040528060008152506128a7565b81600181518110610d1457634e487b7160e01b600052603260045260246000fd5b6020026020010181905250610d3b60026001604051806020016040528060008152506128a7565b81600281518110610d5c57634e487b7160e01b600052603260045260246000fd5b6020026020010181905250610d8360036001604051806020016040528060008152506128a7565b81600381518110610da457634e487b7160e01b600052603260045260246000fd5b602002602001018190525060006040518060600160405280600063ffffffff168152602001846001600160a01b03168152602001627a120063ffffffff168152509050600060405180610120016040528060018054610e0290615465565b80601f0160208091040260200160405190810160405280929190818152602001828054610e2e90615465565b8015610e7b5780601f10610e5057610100808354040283529160200191610e7b565b820191906000526020600020905b815481529060010190602001808311610e5e57829003601f168201915b5050505050815260200160028054610e9290615465565b80601f0160208091040260200160405190810160405280929190818152602001828054610ebe90615465565b8015610f0b5780601f10610ee057610100808354040283529160200191610f0b565b820191906000526020600020905b815481529060010190602001808311610eee57829003601f168201915b50505050508152602001856001600160a01b0316815260200160038054610f3190615465565b80601f0160208091040260200160405190810160405280929190818152602001828054610f5d90615465565b8015610faa5780601f10610f7f57610100808354040283529160200191610faa565b820191906000526020600020905b815481529060010190602001808311610f8d57829003601f168201915b50505091835250506001602082015260055463ffffffff16604082015260075460ff16151560608201526080810185905260a0018390526004546006549192506000918291610ffb918591906128dc565b90925090506016821461100d57600080fd5b6040516001600160a01b03821681527f7bb17726df1f3adee8aa00ba8e8bc5d6f182af3bbf77604639cb7f008dd3b4ed9060200160405180910390a1505050505050565b600061105b613967565b6110658484612a0a565b60405182815291935091506000805160206155468339815191529060200160405180910390a16016821461109857600080fd5b7fa516f81c528634d0fc1e993bba1d227231b4bd6d1beb72d33b056a6199c0f9888160405161098e91906152dc565b60006110d4848484612afd565b9050600080516020615546833981519152816040516110f591815260200190565b60405180910390a16016811461110a57600080fd5b9392505050565b60008061111f858585612bdd565b60405182815291935091506000805160206155468339815191529060200160405180910390a16016821461115257600080fd5b6040518181527f25b6684a7e8fe1b676e9c39c8dd65034fbafea906d3bdfd97bf748b7b55e14c890602001610909565b6000606080606061119285612cc9565b604051600785900b8152939750919550935091506000805160206155468339815191529060200160405180910390a1600784900b6016146111d257600080fd5b7f2efc8334b040613a552197fe34283d6ca2909c8ffae393e128424931f20c69b383838360405161120593929190615073565b60405180910390a19193509193565b60008061122083612dc9565b604051600783900b815291935091506000805160206155468339815191529060200160405180910390a1600782900b60161461125b57600080fd5b604051600382900b81527f182137409609594f2b12128230091c673507ea4cab315d59415d5e3f8c301ad590602001610c4c565b60006112996139a2565b6112a283612ea6565b60405182815291935091506000805160206155468339815191529060200160405180910390a1601682146112d557600080fd5b7f476a9a9b28e2717d55288b2ae3c48a72aac52b11f8bd855017c9d41d9fc1896481604051610c4c9190615240565b6000806113118484612f8f565b60405160079290920b808352935091506000805160206155468339815191529060200160405180910390a16016821461134957600080fd5b60405181151581527f59800d968fcce138300a0019410b4b75041610d65b3cdc5f31656b03ed14912e9060200161098e565b600061138985858585612fe0565b9050600080516020615546833981519152816040516113aa91815260200190565b60405180910390a1601681146113bf57600080fd5b949350505050565b6040516001600160a01b03821660248201526000908190819061016790631f106b4b60e21b90604401610b2f565b6000610a9583836130e1565b6000806060611411868686613130565b60405183815292955090935091506000805160206155468339815191529060200160405180910390a16016831461144757600080fd5b7feff23992f47b3c101679f8b4dc9d3e242c903909dba4a453f2b2341ad463b0e28282604051611478929190615302565b60405180910390a193509350939050565b6000806114958361322e565b60405182815291935091506000805160206155468339815191529060200160405180910390a1601682146114c857600080fd5b60405181151581527f9ee19e13dfa1ba8db2502e15ff56dbecdeb0e0473323fb195473ce648030a2cd90602001610c4c565b604080516001808252818301909252600091816020015b61151961390a565b81526020019060019003908161151157905050905061154b600080600160405180602001604052806000815250612870565b8160008151811061156c57634e487b7160e01b600052603260045260246000fd5b602002602001018190525060006040518060600160405280600063ffffffff168152602001856001600160a01b03168152602001627a120063ffffffff1681525090506000604051806101200160405280600180546115ca90615465565b80601f01602080910402602001604051908101604052809291908181526020018280546115f690615465565b80156116435780601f1061161857610100808354040283529160200191611643565b820191906000526020600020905b81548152906001019060200180831161162657829003601f168201915b505050505081526020016002805461165a90615465565b80601f016020809104026020016040519081016040528092919081815260200182805461168690615465565b80156116d35780601f106116a8576101008083540402835291602001916116d3565b820191906000526020600020905b8154815290600101906020018083116116b657829003601f168201915b50505050508152602001866001600160a01b03168152602001600380546116f990615465565b80601f016020809104026020016040519081016040528092919081815260200182805461172590615465565b80156117725780601f1061174757610100808354040283529160200191611772565b820191906000526020600020905b81548152906001019060200180831161175557829003601f168201915b505050918352505060016020820181905260055463ffffffff166040808401919091526000606084018190526080840188905260a09093018690528051828152808201909152929350909190816020015b6040805160a0810182526000808252602080830182905292820181905260608201819052608082015282526000199092019101816117c35750506040805160a081018252600181526001600160a01b0388811660208301526000928201839052606082018390528916608082015282519293509183919061185457634e487b7160e01b600052603260045260246000fd5b6020908102919091010152604080516001808252818301909252600091816020015b6040805160c08101825260008082526020808301829052928201819052606082018190526080820181905260a082015282526000199092019101816118765750506040805160c0810182526004815260056020820152600a91810191909152601e60608201526000608082018190526001600160a01b038a1660a08301528251929350909183919061191857634e487b7160e01b600052603260045260246000fd5b6020026020010181905250600080611937856004546006548787613277565b915091506000805160206155468339815191528260405161195a91815260200190565b60405180910390a16016821461196f57600080fd5b6040516001600160a01b03821681527f7bb17726df1f3adee8aa00ba8e8bc5d6f182af3bbf77604639cb7f008dd3b4ed9060200160405180910390a1505050505050505050565b6000806119c2836133ab565b604051600783900b815291935091506000805160206155468339815191529060200160405180910390a1600782900b6016146119fd57600080fd5b60405181151581527f5080c42cc33acbcea410fa6eaa925bd878674825501981184fdd53749f8478a890602001610c4c565b6040516001600160a01b038381166024830152821660448201526000908190819061016790638f8d7f9960e01b906064015b60408051601f198184030181529181526020820180516001600160e01b03166001600160e01b0319909416939093179092529051611a9f9190614f9f565b6000604051808303816000865af19150503d8060008114611adc576040519150601f19603f3d011682016040523d82523d6000602084013e611ae1565b606091505b509150915081611af2576015611b06565b80806020019051810190611b0691906145f1565b60030b95945050505050565b6000611b1d826133f4565b905060008051602061554683398151915281604051611b3e91815260200190565b60405180910390a160168114611b5357600080fd5b919050565b604051633cb0c7fd60e21b81526001600160a01b038084166004830152821660248201526000908190309063f2c31ff4906044016040805180830381600087803b158015611ba557600080fd5b505af1158015611bb9573d6000803e3d6000fd5b505050506040513d601f19601f82011682018060405250810190611bdd91906149f8565b604051600783900b815291935091506000805160206155468339815191529060200160405180910390a1600782900b601614611c1857600080fd5b60405181151581527fd24dda6928587354b65aa1a18c2eaf249bef7e5bafd2a71fac71d286f76f957f9060200161098e565b6040516001600160a01b03838116602483015282166044820152600090819081906101679063af99c63360e01b90606401611a61565b60408051600580825260c08201909252600091816020015b611ca061390a565b815260200190600190039081611c98579050509050611cd360006006600160405180602001604052806000815250612870565b81600081518110611cf457634e487b7160e01b600052603260045260246000fd5b6020026020010181905250611d1a600180604051806020016040528060008152506128a7565b81600181518110611d3b57634e487b7160e01b600052603260045260246000fd5b6020026020010181905250611d6260026001604051806020016040528060008152506128a7565b81600281518110611d8357634e487b7160e01b600052603260045260246000fd5b6020026020010181905250611daa60046001604051806020016040528060008152506128a7565b81600381518110611dcb57634e487b7160e01b600052603260045260246000fd5b6020026020010181905250611df260036001604051806020016040528060008152506128a7565b81600481518110611e1357634e487b7160e01b600052603260045260246000fd5b602002602001018190525060006040518060600160405280600063ffffffff168152602001846001600160a01b03168152602001627a120063ffffffff168152509050600060405180610120016040528060018054611e7190615465565b80601f0160208091040260200160405190810160405280929190818152602001828054611e9d90615465565b8015611eea5780601f10611ebf57610100808354040283529160200191611eea565b820191906000526020600020905b815481529060010190602001808311611ecd57829003601f168201915b5050505050815260200160028054611f0190615465565b80601f0160208091040260200160405190810160405280929190818152602001828054611f2d90615465565b8015611f7a5780601f10611f4f57610100808354040283529160200191611f7a565b820191906000526020600020905b815481529060010190602001808311611f5d57829003601f168201915b50505050508152602001856001600160a01b0316815260200160038054611fa090615465565b80601f0160208091040260200160405190810160405280929190818152602001828054611fcc90615465565b80156120195780601f10611fee57610100808354040283529160200191612019565b820191906000526020600020905b815481529060010190602001808311611ffc57829003601f168201915b50505091835250506001602082015260055463ffffffff16604082015260075460ff16151560608201526080810185905260a0018390529050600080610ffb8361343b565b60006110d4848484613525565b604080516000808252602082019092528190816120b0565b60408051606081018252600080825260208083018290529282015282526000199092019101816120835790505b50905060006040518060400160405280336001600160a01b03168152602001856120d9906154a0565b600790810b9091526040805180820182526001600160a01b038a1681529187900b602083015280516002808252606082019092529293509091600091816020015b604080518082019091526000808252602082015281526020019060019003908161211a579050509050828160008151811061216557634e487b7160e01b600052603260045260246000fd5b6020026020010181905250818160018151811061219257634e487b7160e01b600052603260045260246000fd5b602090810291909101810191909152604080516060810182526001600160a01b038a16815291820183905281810186905280516001808252818301909252600091816020015b612205604051806060016040528060006001600160a01b0316815260200160608152602001606081525090565b8152602001906001900390816121d8579050509050818160008151811061223c57634e487b7160e01b600052603260045260246000fd5b602002602001018190525061225081613580565b96506016871461225f57600080fd5b5050505050509392505050565b60006110d48484846135aa565b6040516001600160a01b0383811660248301528216604482015260009081908190819061016790633cb0c7fd60e21b906064015b60408051601f198184030181529181526020820180516001600160e01b03166001600160e01b03199094169390931790925290516122eb9190614f9f565b6000604051808303816000865af19150503d8060008114612328576040519150601f19603f3d011682016040523d82523d6000602084013e61232d565b606091505b5091509150816123405760156000612354565b8080602001905181019061235491906146cb565b60039190910b97909650945050505050565b60006123706139c2565b61237983613601565b60405182815291935091506000805160206155468339815191529060200160405180910390a1601682146123ac57600080fd5b7f528c7dcea75f0c9e110a038e50647cd6a70ac06d331399b77dd9a80f903ebc1681604051610c4c91906152ef565b60006123e783836136ea565b905060008051602061554683398151915281604051610ab991815260200190565b604051633b3bff0f60e01b81526001600160a01b03821660048201526000903090633b3bff0f90602401602060405180830381600087803b15801561244c57600080fd5b505af1158015612460573d6000803e3d6000fd5b505050506040513d601f19601f8201168201806040525081019061248491906145d9565b9050600080516020615546833981519152816040516124a591815260200190565b60405180910390a1601681146124ba57600080fd5b604051600181527f319ab7084208e4afa38c6e6ff7aea9587439f2e4700746f4c7d425fea17426d290602001610a7c565b60006110d4848484613739565b6007805460ff191682151590811790915560405160ff909116151581527f457c3a16a0ebdc38e3675609957ca3fcc4490e220bd15d85d34f58e2e145cb089060200160405180910390a150565b604080516001600160a01b0385811660248301528481166044830152831660648083019190915282518083039091018152608490910182526020810180516001600160e01b03167ff49f40db000000000000000000000000000000000000000000000000000000001790529051600091829182918291610167916125c891614f9f565b6000604051808303816000865af19150503d8060008114612605576040519150601f19603f3d011682016040523d82523d6000602084013e61260a565b606091505b50915091508161261d5760156000612631565b8080602001905181019061263191906146cb565b60039190910b9890975095505050505050565b604080516001600160a01b0384166024820152604480820184905282518083039091018152606490910182526020810180516001600160e01b03167f098f2366000000000000000000000000000000000000000000000000000000001790529051600091829182918291610167916126bb91614f9f565b6000604051808303816000865af19150503d80600081146126f8576040519150601f19603f3d011682016040523d82523d6000602084013e6126fd565b606091505b5091509150816127105760156000612354565b80806020019051810190612354919061460b565b6040516001600160a01b0383811660248301528216604482015260009081908190610167907f52f913870000000000000000000000000000000000000000000000000000000090606401611a61565b6040516001600160a01b0382166024820152600090819081908190610167907fa7daa18d00000000000000000000000000000000000000000000000000000000906044015b60408051601f198184030181529181526020820180516001600160e01b03166001600160e01b03199094169390931790925290516127f69190614f9f565b6000604051808303816000865af19150503d8060008114612833576040519150601f19603f3d011682016040523d82523d6000602084013e612838565b606091505b50915091508161284b576015600061285f565b8080602001905181019061285f91906146cb565b60039190910b969095509350505050565b61287861390a565b604051806040016040528061288d878761378f565b815260200161289c85856137a8565b905295945050505050565b6128af61390a565b60405180604001604052806128c386613878565b81526020016128d285856137a8565b9052949350505050565b600080848061010001516000015163ffffffff16600014801561290c57506101008101516040015163ffffffff16155b15612922576101008101516276a7006040909101525b6000806101676001600160a01b031634637812a04b60e01b8a8a8a60405160240161294f93929190615266565b60408051601f198184030181529181526020820180516001600160e01b03166001600160e01b031990941693909317909252905161298d9190614f9f565b60006040518083038185875af1925050503d80600081146129ca576040519150601f19603f3d011682016040523d82523d6000602084013e6129cf565b606091505b5091509150816129e257601560006129f6565b808060200190518101906129f6919061460b565b60039190910b999098509650505050505050565b6000612a14613967565b604080516001600160a01b0386166024820152600785900b60448083019190915282518083039091018152606490910182526020810180516001600160e01b03167f287e1da8000000000000000000000000000000000000000000000000000000001790529051600091829161016791612a8d91614f9f565b6000604051808303816000865af19150503d8060008114612aca576040519150601f19603f3d011682016040523d82523d6000602084013e612acf565b606091505b5091509150612adc613967565b82612ae957601581612631565b8180602001905181019061263191906147d0565b60008060006101676001600160a01b031663f7f38e2660e01b878787604051602401612b2b93929190614fbb565b60408051601f198184030181529181526020820180516001600160e01b03166001600160e01b0319909416939093179092529051612b699190614f9f565b6000604051808303816000865af19150503d8060008114612ba6576040519150601f19603f3d011682016040523d82523d6000602084013e612bab565b606091505b509150915081612bbc576015612bd0565b80806020019051810190612bd091906145f1565b60030b9695505050505050565b604080516001600160a01b0385811660248301528481166044830152831660648083019190915282518083039091018152608490910182526020810180516001600160e01b03167f927da10500000000000000000000000000000000000000000000000000000000179052905160009182918291829161016791612c6091614f9f565b6000604051808303816000865af19150503d8060008114612c9d576040519150601f19603f3d011682016040523d82523d6000602084013e612ca2565b606091505b509150915081612cb55760156000612631565b8080602001905181019061263191906148ff565b604080516001600160a01b03831660248083019190915282518083039091018152604490910182526020810180516001600160e01b03167fae7611a0000000000000000000000000000000000000000000000000000000001790529051600091606091829182918591829161016791612d4191614f9f565b6000604051808303816000865af19150503d8060008114612d7e576040519150601f19603f3d011682016040523d82523d6000602084013e612d83565b606091505b5091509150606080606084612d9c576015838383612db0565b83806020019051810190612db09190614636565b60039390930b9d919c509a509098509650505050505050565b604080516001600160a01b03831660248083019190915282518083039091018152604490910182526020810180516001600160e01b03167f93272baf00000000000000000000000000000000000000000000000000000000179052905160009182918291829161016791612e3c91614f9f565b6000604051808303816000865af19150503d8060008114612e79576040519150601f19603f3d011682016040523d82523d6000602084013e612e7e565b606091505b509150915081612e9257601560001961285f565b8080602001905181019061285f91906146f6565b6000612eb06139a2565b604080516001600160a01b03851660248083019190915282518083039091018152604490910182526020810180516001600160e01b03167f3f28a19b000000000000000000000000000000000000000000000000000000001790529051600091829161016791612f1f91614f9f565b6000604051808303816000865af19150503d8060008114612f5c576040519150601f19603f3d011682016040523d82523d6000602084013e612f61565b606091505b5091509150612f6e6139a2565b82612f7b57601581612354565b818060200190518101906123549190614728565b6040516001600160a01b03838116602483015282166044820152600090819081908190610167907f46de0fb100000000000000000000000000000000000000000000000000000000906064016122ad565b604080516001600160a01b038681166024830152858116604483015284166064820152600783900b6084808301919091528251808303909101815260a490910182526020810180516001600160e01b03167f5cfc9011000000000000000000000000000000000000000000000000000000001790529051600091829182916101679161306c9190614f9f565b6000604051808303816000865af19150503d80600081146130a9576040519150601f19603f3d011682016040523d82523d6000602084013e6130ae565b606091505b5091509150816130bf5760156130d3565b808060200190518101906130d391906145f1565b60030b979650505050505050565b6040516001600160a01b0383811660248301528216604482015260009081908190610167907f5b8f85840000000000000000000000000000000000000000000000000000000090606401611a61565b60008060606000806101676001600160a01b031663278e0b8860e01b89898960405160240161316193929190614ff0565b60408051601f198184030181529181526020820180516001600160e01b03166001600160e01b031990941693909317909252905161319f9190614f9f565b6000604051808303816000865af19150503d80600081146131dc576040519150601f19603f3d011682016040523d82523d6000602084013e6131e1565b606091505b509150915081613204576040805160008082526020820190925260159190613218565b80806020019051810190613218919061492a565b60039290920b9a90995090975095505050505050565b6040516001600160a01b0382166024820152600090819081908190610167907f335e04c100000000000000000000000000000000000000000000000000000000906044016127b8565b600080868061010001516000015163ffffffff1660001480156132a757506101008101516040015163ffffffff16155b156132bd576101008101516276a7006040909101525b6000806101676001600160a01b031634634c381ae760e01b8c8c8c8c8c6040516024016132ee95949392919061528b565b60408051601f198184030181529181526020820180516001600160e01b03166001600160e01b031990941693909317909252905161332c9190614f9f565b60006040518083038185875af1925050503d8060008114613369576040519150601f19603f3d011682016040523d82523d6000602084013e61336e565b606091505b5091509150816133815760156000613395565b80806020019051810190613395919061460b565b60039190910b9b909a5098505050505050505050565b6040516001600160a01b0382166024820152600090819081908190610167907f19f3736100000000000000000000000000000000000000000000000000000000906044016127b8565b6040516001600160a01b038216602482015260009081908190610167907ff069f7120000000000000000000000000000000000000000000000000000000090604401610b2f565b600080828061010001516000015163ffffffff16600014801561346b57506101008101516040015163ffffffff16155b15613481576101008101516276a7006040909101525b6000806101676001600160a01b031634639dc711e060e01b886040516024016134aa9190615253565b60408051601f198184030181529181526020820180516001600160e01b03166001600160e01b03199094169390931790925290516134e89190614f9f565b60006040518083038185875af1925050503d80600081146126f8576040519150601f19603f3d011682016040523d82523d6000602084013e6126fd565b6040516001600160a01b0384811660248301528316604482015263ffffffff8216606482015260009081908190610167907f9790686d0000000000000000000000000000000000000000000000000000000090608401612b2b565b60008060006101676001600160a01b031663189a554c60e01b85604051602401610b2f91906150ac565b6040516001600160a01b03848116602483015283166044820152811515606482015260009081908190610167907f367605ca0000000000000000000000000000000000000000000000000000000090608401612b2b565b600061360b6139c2565b604080516001600160a01b03851660248083019190915282518083039091018152604490910182526020810180516001600160e01b03167f1f69565f00000000000000000000000000000000000000000000000000000000179052905160009182916101679161367a91614f9f565b6000604051808303816000865af19150503d80600081146136b7576040519150601f19603f3d011682016040523d82523d6000602084013e6136bc565b606091505b50915091506136c96139c2565b826136d657601581612354565b8180602001905181019061235491906148b3565b6040516001600160a01b0383811660248301528216604482015260009081908190610167907f49146bde0000000000000000000000000000000000000000000000000000000090606401611a61565b6040516001600160a01b038481166024830152831660448201526064810182905260009081908190610167907fe1f21c670000000000000000000000000000000000000000000000000000000090608401612b2b565b6000600160ff84161b9050600160ff83161b811761110a565b6137ee6040518060a0016040528060001515815260200160006001600160a01b03168152602001606081526020016060815260200160006001600160a01b031681525090565b8260ff16600114156138035760018152610895565b8260ff1660021415613825576000546001600160a01b03166020820152610895565b8260ff166003141561383d5760408101829052610895565b8260ff16600414156138555760608101829052610895565b8260ff1660051415610895576000546001600160a01b0316608082015292915050565b600060ff821661388a57506001919050565b8160ff166001141561389e57506002919050565b8160ff16600214156138b257506004919050565b8160ff16600314156138c657506008919050565b8160ff16600414156138da57506010919050565b8160ff16600514156138ee57506020919050565b8160ff166006141561390257506040919050565b506000919050565b6040518060400160405280600081526020016139626040518060a0016040528060001515815260200160006001600160a01b03168152602001606081526020016060815260200160006001600160a01b031681525090565b905290565b6040518060c0016040528061397a6139c2565b8152600060208201819052604082018190526060808301829052608083015260a09091015290565b60405180604001604052806139b56139c2565b8152600060209091015290565b60408051610240810182526060610120820181815261014083018290526000610160840181905261018084018390526101a084018190526101c084018190526101e0840181905261020084018390528451928301855280835260208301819052938201939093526102208201529081908152602001600067ffffffffffffffff168152602001600015158152602001600015158152602001600015158152602001606081526020016060815260200160608152602001606081525090565b8051611b53816154e8565b600082601f830112613a9b578081fd5b81516020613ab0613aab836153e9565b6153b8565b8281528181019085830160a080860288018501891015613ace578687fd5b865b86811015613b575781838b031215613ae6578788fd5b613aee615325565b8351613af98161551d565b815283870151613b08816154e8565b81880152604084810151613b1b81615500565b90820152606084810151613b2e81615500565b90820152608084810151613b41816154e8565b9082015285529385019391810191600101613ad0565b509198975050505050505050565b600082601f830112613b75578081fd5b81516020613b85613aab836153e9565b8281528181019085830160c080860288018501891015613ba3578687fd5b865b86811015613b575781838b031215613bbb578788fd5b613bc361534e565b8351613bce8161551d565b815283870151613bdd8161551d565b81880152604084810151613bf08161551d565b90820152606084810151613c038161551d565b90820152608084810151613c1681615500565b9082015260a084810151613c29816154e8565b9082015285529385019391810191600101613ba5565b600082601f830112613c4f578081fd5b81516020613c5f613aab836153e9565b8281528181019085830160c080860288018501891015613c7d578687fd5b865b86811015613b575781838b031215613c95578788fd5b613c9d61534e565b8351613ca88161551d565b815283870151613cb78161551d565b81880152604084810151613cca8161551d565b90820152606084810151613cdd816154e8565b90820152608084810151613cf081615500565b9082015260a084810151613d03816154e8565b9082015285529385019391810191600101613c7f565b600082601f830112613d29578081fd5b81516020613d39613aab836153e9565b80838252828201915082860187848660051b8901011115613d58578586fd5b855b85811015613e6557815167ffffffffffffffff80821115613d79578889fd5b90890190601f196040838d0382011215613d9157898afd5b613d99615371565b888401518152604084015183811115613db0578b8cfd5b939093019260a0848e0383011215613dc6578a8bfd5b613dce615325565b915088840151613ddd81615500565b8252613deb60408501613a80565b89830152606084015183811115613e00578b8cfd5b613e0e8e8b83880101613e7d565b604084015250608084015183811115613e25578b8cfd5b613e338e8b83880101613e7d565b606084015250613e4560a08501613a80565b608083015280890191909152865250509284019290840190600101613d5a565b5090979650505050505050565b8051611b5381615500565b600082601f830112613e8d578081fd5b8151613e9b613aab8261540d565b818152846020838601011115613eaf578283fd5b6113bf826020830160208701615435565b8051600381900b8114611b5357600080fd5b8051611b538161550e565b600060608284031215613eee578081fd5b6040516060810181811067ffffffffffffffff82111715613f1157613f116154d2565b80604052508091508251613f248161551d565b81526020830151613f34816154e8565b60208201526040830151613f478161551d565b6040919091015292915050565b60006101608284031215613f66578081fd5b613f6e615394565b9050815167ffffffffffffffff80821115613f8857600080fd5b613f9485838601613e7d565b83526020840151915080821115613faa57600080fd5b613fb685838601613e7d565b6020840152613fc760408501613a80565b60408401526060840151915080821115613fe057600080fd5b613fec85838601613e7d565b6060840152613ffd60808501613e72565b608084015261400e60a08501614188565b60a084015261401f60c08501613e72565b60c084015260e084015191508082111561403857600080fd5b5061404584828501613d19565b60e08301525061010061405a84828501613edd565b9082015292915050565b60006101208284031215614076578081fd5b61407e615394565b9050815167ffffffffffffffff8082111561409857600080fd5b6140a485838601613f54565b83526140b260208501614193565b60208401526140c360408501613e72565b60408401526140d460608501613e72565b60608401526140e560808501613e72565b608084015260a08401519150808211156140fe57600080fd5b61410a85838601613a8b565b60a084015260c084015191508082111561412357600080fd5b61412f85838601613b65565b60c084015260e084015191508082111561414857600080fd5b61415485838601613c3f565b60e08401526101009150818401518181111561416f57600080fd5b61417b86828701613e7d565b8385015250505092915050565b8051611b538161551d565b8051611b538161552f565b6000602082840312156141af578081fd5b813561110a816154e8565b600080604083850312156141cc578081fd5b82356141d7816154e8565b915060208301356141e7816154e8565b809150509250929050565b600080600060608486031215614206578081fd5b8335614211816154e8565b92506020840135614221816154e8565b91506040840135614231816154e8565b809150509250925092565b60008060008060808587031215614251578182fd5b843561425c816154e8565b9350602085013561426c816154e8565b9250604085013561427c816154e8565b9150606085013561428c8161550e565b939692955090935050565b6000806000606084860312156142ab578081fd5b83356142b6816154e8565b92506020848101356142c7816154e8565b9250604085013567ffffffffffffffff8111156142e2578283fd5b8501601f810187136142f2578283fd5b8035614300613aab826153e9565b8082825284820191508484018a868560051b870101111561431f578687fd5b8694505b8385101561434a5780356143368161550e565b835260019490940193918501918501614323565b5080955050505050509250925092565b60008060006060848603121561436e578081fd5b8335614379816154e8565b92506020840135614389816154e8565b9150604084013561423181615500565b6000806000606084860312156143ad578081fd5b83356143b8816154e8565b925060208401356143c8816154e8565b915060408401356142318161550e565b6000806000606084860312156143ec578081fd5b83356143f7816154e8565b92506020840135614407816154e8565b929592945050506040919091013590565b60008060006060848603121561442c578081fd5b8335614437816154e8565b92506020840135614447816154e8565b915060408401356142318161551d565b60008060408385031215614469578182fd5b8235614474816154e8565b915060208301356141e78161550e565b60008060408385031215614496578182fd5b82356144a1816154e8565b946020939093013593505050565b6000806000606084860312156144c3578081fd5b83356144ce816154e8565b92506020848101356144df8161552f565b9250604085013567ffffffffffffffff808211156144fb578384fd5b818701915087601f83011261450e578384fd5b813561451c613aab826153e9565b8082825285820191508585018b878560051b880101111561453b578788fd5b875b848110156145ab5781358681111561455357898afd5b8701603f81018e1361456357898afd5b88810135614573613aab8261540d565b8181528f6040838501011115614587578b8cfd5b81604084018c8301379081018a018b9052855250928701929087019060010161453d565b50508096505050505050509250925092565b6000602082840312156145ce578081fd5b813561110a81615500565b6000602082840312156145ea578081fd5b5051919050565b600060208284031215614602578081fd5b61110a82613ec0565b6000806040838503121561461d578182fd5b61462683613ec0565b915060208301516141e7816154e8565b6000806000806080858703121561464b578182fd5b61465485613ec0565b9350602085015167ffffffffffffffff80821115614670578384fd5b61467c88838901613a8b565b94506040870151915080821115614691578384fd5b61469d88838901613b65565b935060608701519150808211156146b2578283fd5b506146bf87828801613c3f565b91505092959194509250565b600080604083850312156146dd578182fd5b6146e683613ec0565b915060208301516141e781615500565b60008060408385031215614708578182fd5b61471183613ec0565b915061471f60208401613ec0565b90509250929050565b6000806040838503121561473a578182fd5b61474383613ec0565b9150602083015167ffffffffffffffff8082111561475f578283fd5b9084019060408287031215614772578283fd5b60405160408101818110838211171561478d5761478d6154d2565b60405282518281111561479e578485fd5b6147aa88828601614064565b825250602083015192506147bd8361551d565b8260208201528093505050509250929050565b600080604083850312156147e2578182fd5b6147eb83613ec0565b9150602083015167ffffffffffffffff80821115614807578283fd5b9084019060c0828703121561481a578283fd5b61482261534e565b825182811115614830578485fd5b61483c88828601614064565b82525061484b60208401613ed2565b602082015261485c60408401613a80565b604082015261486d60608401613ed2565b6060820152608083015182811115614883578485fd5b61488f88828601613e7d565b6080830152506148a160a08401613a80565b60a08201528093505050509250929050565b600080604083850312156148c5578182fd5b6148ce83613ec0565b9150602083015167ffffffffffffffff8111156148e9578182fd5b6148f585828601614064565b9150509250929050565b60008060408385031215614911578182fd5b61491a83613ec0565b9150602083015190509250929050565b60008060006060848603121561493e578081fd5b61494784613ec0565b92506020808501516149588161552f565b604086015190935067ffffffffffffffff811115614974578283fd5b8501601f81018713614984578283fd5b8051614992613aab826153e9565b8082825284820191508484018a868560051b87010111156149b1578687fd5b8694505b8385101561434a5780516149c88161550e565b8352600194909401939185019185016149b5565b6000602082840312156149ed578081fd5b815161110a8161550e565b60008060408385031215614a0a578182fd5b8251614a158161550e565b60208401519092506141e781615500565b6000815180845260208085019450808401835b83811015614a5857815160070b87529582019590820190600101614a39565b509495945050505050565b6000815180845260208085019450808401835b83811015614a58578151805163ffffffff168852838101516001600160a01b03908116858a01526040808301511515908a01526060808301511515908a0152608091820151169088015260a09096019590820190600101614a76565b6000815180845260208085019450808401835b83811015614a58578151805163ffffffff9081168952848201518116858a01526040808301518216908a01526060808301519091169089015260808082015115159089015260a0908101516001600160a01b03169088015260c09096019590820190600101614ae5565b6000815180845260208085019450808401835b83811015614a5857815180516001600160a01b03908116895284820151168489015260409081015160070b9088015260609096019590820190600101614b62565b6000815180845260208085019450808401835b83811015614a58578151805163ffffffff9081168952848201518116858a0152604080830151909116908901526060808201516001600160a01b03908116918a01919091526080808301511515908a015260a091820151169088015260c09096019590820190600101614bb6565b600081518084526020808501808196508360051b81019150828601855b85811015614cda5782840389528151604081518652868201519150808787015281511515818701528682015160606001600160a01b03808316828a015283850151935060a09250608083818b0152614c9c60e08b0186614ce7565b928601518a8403603f1901858c0152929450614cb88584614ce7565b9501511660c09890980197909752505098850198935090840190600101614c41565b5091979650505050505050565b60008151808452614cff816020860160208601615435565b601f01601f19169290920160200192915050565b6000815160408452614d286040850182614ebe565b60209384015163ffffffff16949093019390935250919050565b60006101608251818552614d5882860182614ce7565b91505060208301518482036020860152614d728282614ce7565b9150506040830151614d8f60408601826001600160a01b03169052565b5060608301518482036060860152614da78282614ce7565b9150506080830151614dbd608086018215159052565b5060a0830151614dd560a086018263ffffffff169052565b5060c0830151614de960c086018215159052565b5060e083015184820360e0860152614e018282614c24565b61010085810151805163ffffffff9081168984015260208201516001600160a01b03166101208a015260408201511661014089015291935091505090949350505050565b6000815160c08452614e5a60c0850182614ebe565b9050602083015160070b602085015260408301516001600160a01b038082166040870152606085015160070b6060870152608085015191508583036080870152614ea48383614ce7565b92508060a08601511660a087015250508091505092915050565b60006101208251818552614ed482860182614d42565b9150506020830151614ef2602086018267ffffffffffffffff169052565b506040830151614f06604086018215159052565b506060830151614f1a606086018215159052565b506080830151614f2e608086018215159052565b5060a083015184820360a0860152614f468282614a63565b91505060c083015184820360c0860152614f608282614ad2565b91505060e083015184820360e0860152614f7a8282614ba3565b9150506101008084015185830382870152614f958382614ce7565b9695505050505050565b60008251614fb1818460208701615435565b9190910192915050565b60006001600160a01b03808616835280851660208401525060606040830152614fe76060830184614a26565b95945050505050565b6000606082016001600160a01b0386168352602067ffffffffffffffff8616818501526060604085015281855180845260808601915060808160051b8701019350828701855b8281101561506457607f19888703018452615052868351614ce7565b95509284019290840190600101615036565b50939998505050505050505050565b6060815260006150866060830186614a63565b82810360208401526150988186614ad2565b90508281036040840152614f958185614ba3565b60006020808301818452808551808352604092508286019150828160051b870101848801865b8381101561517157888303603f19018552815180516001600160a01b0390811685528882015160608a870181905281519087018190526080870192918b0191908c905b808210156151435783518051841686528d015160070b8d860152938b0193928c019260019190910190615115565b5050505090870151848203858901529061515d8183614b4f565b9689019694505050908601906001016150d2565b509098975050505050505050565b8281526040602082015260006113bf6040830184614d13565b8281526040602082015260006113bf6040830184614e45565b8281526040602082015260006113bf6040830184614ebe565b83815267ffffffffffffffff83166020820152606060408201526000614fe76060830184614a26565b8460070b815260806020820152600061520f6080830186614a63565b82810360408401526152218186614ad2565b905082810360608401526152358185614ba3565b979650505050505050565b60208152600061110a6020830184614d13565b60208152600061110a6020830184614d42565b6060815260006152796060830186614d42565b60208301949094525060400152919050565b60a08152600061529e60a0830188614d42565b86602084015285604084015282810360608401526152bc8186614a63565b905082810360808401526152d08185614ad2565b98975050505050505050565b60208152600061110a6020830184614e45565b60208152600061110a6020830184614ebe565b67ffffffffffffffff831681526040602082015260006113bf6040830184614a26565b60405160a0810167ffffffffffffffff81118282101715615348576153486154d2565b60405290565b60405160c0810167ffffffffffffffff81118282101715615348576153486154d2565b6040805190810167ffffffffffffffff81118282101715615348576153486154d2565b604051610120810167ffffffffffffffff81118282101715615348576153486154d2565b604051601f8201601f1916810167ffffffffffffffff811182821017156153e1576153e16154d2565b604052919050565b600067ffffffffffffffff821115615403576154036154d2565b5060051b60200190565b600067ffffffffffffffff821115615427576154276154d2565b50601f01601f191660200190565b60005b83811015615450578181015183820152602001615438565b8381111561545f576000848401525b50505050565b600181811c9082168061547957607f821691505b6020821081141561549a57634e487b7160e01b600052602260045260246000fd5b50919050565b60008160070b677fffffffffffffff198114156154cb57634e487b7160e01b82526011600452602482fd5b9003919050565b634e487b7160e01b600052604160045260246000fd5b6001600160a01b03811681146154fd57600080fd5b50565b80151581146154fd57600080fd5b8060070b81146154fd57600080fd5b63ffffffff811681146154fd57600080fd5b67ffffffffffffffff811681146154fd57600080fdfe90a5cf4cffe88b4edbb041cfc7a8a812c48a5ec30b84640fb37690875168e3aaa264697066735822122071a4a1614151d290728655174ece0441d92496feeb7f415d4ecb6da7dabe465764736f6c63430008040033",
  "linkReferences": {},
  "deployedLinkReferences": {}
}