{
  "_format": "hh-sol-artifact-1",
  "contractName": "BaseHTS",
  "sourceName": "contracts/BaseHTS.sol",
  "abi": [
    {
      "anonymous": false,
      "inputs": [
        {
          "indexed": false,
          "internalType": "uint256",
          "name": "amount",
          "type": "uint256"
        }
      ],
      "name": "AllowanceValue",
      "type": "event"
    },
    {
      "anonymous": false,
      "inputs": [
        {
          "indexed": false,
          "internalType": "bool",
          "name": "approved",
          "type": "bool"
        }
      ],
      "name": "Approved",
      "type": "event"
    },
    {
      "anonymous": false,
      "inputs": [
        {
          "indexed": false,
          "internalType": "address",
          "name": "approved",
          "type": "address"
        }
      ],
      "name": "ApprovedAddress",
      "type": "event"
    },
    {
      "anonymous": false,
      "inputs": [
        {
          "indexed": false,
          "internalType": "address",
          "name": "tokenAddress",
          "type": "address"
        }
      ],
      "name": "CreatedToken",
      "type": "event"
    },
    {
      "anonymous": false,
      "inputs": [
        {
          "indexed": false,
          "internalType": "bool",
          "name": "freezeStatus",
          "type": "bool"
        }
      ],
      "name": "DefaultFreezeStatusChanged",
      "type": "event"
    },
    {
      "anonymous": false,
      "inputs": [
        {
          "indexed": false,
          "internalType": "bool",
          "name": "frozen",
          "type": "bool"
        }
      ],
      "name": "Frozen",
      "type": "event"
    },
    {
      "anonymous": false,
      "inputs": [
        {
          "components": [
            {
              "components": [
                {
                  "components": [
                    {
                      "internalType": "string",
                      "name": "name",
                      "type": "string"
                    },
                    {
                      "internalType": "string",
                      "name": "symbol",
                      "type": "string"
                    },
                    {
                      "internalType": "address",
                      "name": "treasury",
                      "type": "address"
                    },
                    {
                      "internalType": "string",
                      "name": "memo",
                      "type": "string"
                    },
                    {
                      "internalType": "bool",
                      "name": "tokenSupplyType",
                      "type": "bool"
                    },
                    {
                      "internalType": "uint32",
                      "name": "maxSupply",
                      "type": "uint32"
                    },
                    {
                      "internalType": "bool",
                      "name": "freezeDefault",
                      "type": "bool"
                    },
                    {
                      "components": [
                        {
                          "internalType": "uint256",
                          "name": "keyType",
                          "type": "uint256"
                        },
                        {
                          "components": [
                            {
                              "internalType": "bool",
                              "name": "inheritAccountKey",
                              "type": "bool"
                            },
                            {
                              "internalType": "address",
                              "name": "contractId",
                              "type": "address"
                            },
                            {
                              "internalType": "bytes",
                              "name": "ed25519",
                              "type": "bytes"
                            },
                            {
                              "internalType": "bytes",
                              "name": "ECDSA_secp256k1",
                              "type": "bytes"
                            },
                            {
                              "internalType": "address",
                              "name": "delegatableContractId",
                              "type": "address"
                            }
                          ],
                          "internalType": "struct IHederaTokenService.KeyValue",
                          "name": "key",
                          "type": "tuple"
                        }
                      ],
                      "internalType": "struct IHederaTokenService.TokenKey[]",
                      "name": "tokenKeys",
                      "type": "tuple[]"
                    },
                    {
                      "components": [
                        {
                          "internalType": "uint32",
                          "name": "second",
                          "type": "uint32"
                        },
                        {
                          "internalType": "address",
                          "name": "autoRenewAccount",
                          "type": "address"
                        },
                        {
                          "internalType": "uint32",
                          "name": "autoRenewPeriod",
                          "type": "uint32"
                        }
                      ],
                      "internalType": "struct IHederaTokenService.Expiry",
                      "name": "expiry",
                      "type": "tuple"
                    }
                  ],
                  "internalType": "struct IHederaTokenService.HederaToken",
                  "name": "token",
                  "type": "tuple"
                },
                {
                  "internalType": "uint64",
                  "name": "totalSupply",
                  "type": "uint64"
                },
                {
                  "internalType": "bool",
                  "name": "deleted",
                  "type": "bool"
                },
                {
                  "internalType": "bool",
                  "name": "defaultKycStatus",
                  "type": "bool"
                },
                {
                  "internalType": "bool",
                  "name": "pauseStatus",
                  "type": "bool"
                },
                {
                  "components": [
                    {
                      "internalType": "uint32",
                      "name": "amount",
                      "type": "uint32"
                    },
                    {
                      "internalType": "address",
                      "name": "tokenId",
                      "type": "address"
                    },
                    {
                      "internalType": "bool",
                      "name": "useHbarsForPayment",
                      "type": "bool"
                    },
                    {
                      "internalType": "bool",
                      "name": "useCurrentTokenForPayment",
                      "type": "bool"
                    },
                    {
                      "internalType": "address",
                      "name": "feeCollector",
                      "type": "address"
                    }
                  ],
                  "internalType": "struct IHederaTokenService.FixedFee[]",
                  "name": "fixedFees",
                  "type": "tuple[]"
                },
                {
                  "components": [
                    {
                      "internalType": "uint32",
                      "name": "numerator",
                      "type": "uint32"
                    },
                    {
                      "internalType": "uint32",
                      "name": "denominator",
                      "type": "uint32"
                    },
                    {
                      "internalType": "uint32",
                      "name": "minimumAmount",
                      "type": "uint32"
                    },
                    {
                      "internalType": "uint32",
                      "name": "maximumAmount",
                      "type": "uint32"
                    },
                    {
                      "internalType": "bool",
                      "name": "netOfTransfers",
                      "type": "bool"
                    },
                    {
                      "internalType": "address",
                      "name": "feeCollector",
                      "type": "address"
                    }
                  ],
                  "internalType": "struct IHederaTokenService.FractionalFee[]",
                  "name": "fractionalFees",
                  "type": "tuple[]"
                },
                {
                  "components": [
                    {
                      "internalType": "uint32",
                      "name": "numerator",
                      "type": "uint32"
                    },
                    {
                      "internalType": "uint32",
                      "name": "denominator",
                      "type": "uint32"
                    },
                    {
                      "internalType": "uint32",
                      "name": "amount",
                      "type": "uint32"
                    },
                    {
                      "internalType": "address",
                      "name": "tokenId",
                      "type": "address"
                    },
                    {
                      "internalType": "bool",
                      "name": "useHbarsForPayment",
                      "type": "bool"
                    },
                    {
                      "internalType": "address",
                      "name": "feeCollector",
                      "type": "address"
                    }
                  ],
                  "internalType": "struct IHederaTokenService.RoyaltyFee[]",
                  "name": "royaltyFees",
                  "type": "tuple[]"
                },
                {
                  "internalType": "string",
                  "name": "ledgerId",
                  "type": "string"
                }
              ],
              "internalType": "struct IHederaTokenService.TokenInfo",
              "name": "tokenInfo",
              "type": "tuple"
            },
            {
              "internalType": "uint32",
              "name": "decimals",
              "type": "uint32"
            }
          ],
          "indexed": false,
          "internalType": "struct IHederaTokenService.FungibleTokenInfo",
          "name": "tokenInfo",
          "type": "tuple"
        }
      ],
      "name": "FungibleTokenInfo",
      "type": "event"
    },
    {
      "anonymous": false,
      "inputs": [
        {
          "indexed": false,
          "internalType": "bool",
          "name": "kycGranted",
          "type": "bool"
        }
      ],
      "name": "KycGranted",
      "type": "event"
    },
    {
      "anonymous": false,
      "inputs": [
        {
          "indexed": false,
          "internalType": "uint64",
          "name": "newTotalSupply",
          "type": "uint64"
        },
        {
          "indexed": false,
          "internalType": "int64[]",
          "name": "serialNumbers",
          "type": "int64[]"
        }
      ],
      "name": "MintedToken",
      "type": "event"
    },
    {
      "anonymous": false,
      "inputs": [
        {
          "components": [
            {
              "components": [
                {
                  "components": [
                    {
                      "internalType": "string",
                      "name": "name",
                      "type": "string"
                    },
                    {
                      "internalType": "string",
                      "name": "symbol",
                      "type": "string"
                    },
                    {
                      "internalType": "address",
                      "name": "treasury",
                      "type": "address"
                    },
                    {
                      "internalType": "string",
                      "name": "memo",
                      "type": "string"
                    },
                    {
                      "internalType": "bool",
                      "name": "tokenSupplyType",
                      "type": "bool"
                    },
                    {
                      "internalType": "uint32",
                      "name": "maxSupply",
                      "type": "uint32"
                    },
                    {
                      "internalType": "bool",
                      "name": "freezeDefault",
                      "type": "bool"
                    },
                    {
                      "components": [
                        {
                          "internalType": "uint256",
                          "name": "keyType",
                          "type": "uint256"
                        },
                        {
                          "components": [
                            {
                              "internalType": "bool",
                              "name": "inheritAccountKey",
                              "type": "bool"
                            },
                            {
                              "internalType": "address",
                              "name": "contractId",
                              "type": "address"
                            },
                            {
                              "internalType": "bytes",
                              "name": "ed25519",
                              "type": "bytes"
                            },
                            {
                              "internalType": "bytes",
                              "name": "ECDSA_secp256k1",
                              "type": "bytes"
                            },
                            {
                              "internalType": "address",
                              "name": "delegatableContractId",
                              "type": "address"
                            }
                          ],
                          "internalType": "struct IHederaTokenService.KeyValue",
                          "name": "key",
                          "type": "tuple"
                        }
                      ],
                      "internalType": "struct IHederaTokenService.TokenKey[]",
                      "name": "tokenKeys",
                      "type": "tuple[]"
                    },
                    {
                      "components": [
                        {
                          "internalType": "uint32",
                          "name": "second",
                          "type": "uint32"
                        },
                        {
                          "internalType": "address",
                          "name": "autoRenewAccount",
                          "type": "address"
                        },
                        {
                          "internalType": "uint32",
                          "name": "autoRenewPeriod",
                          "type": "uint32"
                        }
                      ],
                      "internalType": "struct IHederaTokenService.Expiry",
                      "name": "expiry",
                      "type": "tuple"
                    }
                  ],
                  "internalType": "struct IHederaTokenService.HederaToken",
                  "name": "token",
                  "type": "tuple"
                },
                {
                  "internalType": "uint64",
                  "name": "totalSupply",
                  "type": "uint64"
                },
                {
                  "internalType": "bool",
                  "name": "deleted",
                  "type": "bool"
                },
                {
                  "internalType": "bool",
                  "name": "defaultKycStatus",
                  "type": "bool"
                },
                {
                  "internalType": "bool",
                  "name": "pauseStatus",
                  "type": "bool"
                },
                {
                  "components": [
                    {
                      "internalType": "uint32",
                      "name": "amount",
                      "type": "uint32"
                    },
                    {
                      "internalType": "address",
                      "name": "tokenId",
                      "type": "address"
                    },
                    {
                      "internalType": "bool",
                      "name": "useHbarsForPayment",
                      "type": "bool"
                    },
                    {
                      "internalType": "bool",
                      "name": "useCurrentTokenForPayment",
                      "type": "bool"
                    },
                    {
                      "internalType": "address",
                      "name": "feeCollector",
                      "type": "address"
                    }
                  ],
                  "internalType": "struct IHederaTokenService.FixedFee[]",
                  "name": "fixedFees",
                  "type": "tuple[]"
                },
                {
                  "components": [
                    {
                      "internalType": "uint32",
                      "name": "numerator",
                      "type": "uint32"
                    },
                    {
                      "internalType": "uint32",
                      "name": "denominator",
                      "type": "uint32"
                    },
                    {
                      "internalType": "uint32",
                      "name": "minimumAmount",
                      "type": "uint32"
                    },
                    {
                      "internalType": "uint32",
                      "name": "maximumAmount",
                      "type": "uint32"
                    },
                    {
                      "internalType": "bool",
                      "name": "netOfTransfers",
                      "type": "bool"
                    },
                    {
                      "internalType": "address",
                      "name": "feeCollector",
                      "type": "address"
                    }
                  ],
                  "internalType": "struct IHederaTokenService.FractionalFee[]",
                  "name": "fractionalFees",
                  "type": "tuple[]"
                },
                {
                  "components": [
                    {
                      "internalType": "uint32",
                      "name": "numerator",
                      "type": "uint32"
                    },
                    {
                      "internalType": "uint32",
                      "name": "denominator",
                      "type": "uint32"
                    },
                    {
                      "internalType": "uint32",
                      "name": "amount",
                      "type": "uint32"
                    },
                    {
                      "internalType": "address",
                      "name": "tokenId",
                      "type": "address"
                    },
                    {
                      "internalType": "bool",
                      "name": "useHbarsForPayment",
                      "type": "bool"
                    },
                    {
                      "internalType": "address",
                      "name": "feeCollector",
                      "type": "address"
                    }
                  ],
                  "internalType": "struct IHederaTokenService.RoyaltyFee[]",
                  "name": "royaltyFees",
                  "type": "tuple[]"
                },
                {
                  "internalType": "string",
                  "name": "ledgerId",
                  "type": "string"
                }
              ],
              "internalType": "struct IHederaTokenService.TokenInfo",
              "name": "tokenInfo",
              "type": "tuple"
            },
            {
              "internalType": "int64",
              "name": "serialNumber",
              "type": "int64"
            },
            {
              "internalType": "address",
              "name": "ownerId",
              "type": "address"
            },
            {
              "internalType": "int64",
              "name": "creationTime",
              "type": "int64"
            },
            {
              "internalType": "bytes",
              "name": "metadata",
              "type": "bytes"
            },
            {
              "internalType": "address",
              "name": "spenderId",
              "type": "address"
            }
          ],
          "indexed": false,
          "internalType": "struct IHederaTokenService.NonFungibleTokenInfo",
          "name": "tokenInfo",
          "type": "tuple"
        }
      ],
      "name": "NonFungibleTokenInfo",
      "type": "event"
    },
    {
      "anonymous": false,
      "inputs": [
        {
          "indexed": false,
          "internalType": "bool",
          "name": "paused",
          "type": "bool"
        }
      ],
      "name": "PausedToken",
      "type": "event"
    },
    {
      "anonymous": false,
      "inputs": [
        {
          "indexed": false,
          "internalType": "int256",
          "name": "responseCode",
          "type": "int256"
        }
      ],
      "name": "ResponseCode",
      "type": "event"
    },
    {
      "anonymous": false,
      "inputs": [
        {
          "components": [
            {
              "internalType": "uint32",
              "name": "amount",
              "type": "uint32"
            },
            {
              "internalType": "address",
              "name": "tokenId",
              "type": "address"
            },
            {
              "internalType": "bool",
              "name": "useHbarsForPayment",
              "type": "bool"
            },
            {
              "internalType": "bool",
              "name": "useCurrentTokenForPayment",
              "type": "bool"
            },
            {
              "internalType": "address",
              "name": "feeCollector",
              "type": "address"
            }
          ],
          "indexed": false,
          "internalType": "struct IHederaTokenService.FixedFee[]",
          "name": "fixedFees",
          "type": "tuple[]"
        },
        {
          "components": [
            {
              "internalType": "uint32",
              "name": "numerator",
              "type": "uint32"
            },
            {
              "internalType": "uint32",
              "name": "denominator",
              "type": "uint32"
            },
            {
              "internalType": "uint32",
              "name": "minimumAmount",
              "type": "uint32"
            },
            {
              "internalType": "uint32",
              "name": "maximumAmount",
              "type": "uint32"
            },
            {
              "internalType": "bool",
              "name": "netOfTransfers",
              "type": "bool"
            },
            {
              "internalType": "address",
              "name": "feeCollector",
              "type": "address"
            }
          ],
          "indexed": false,
          "internalType": "struct IHederaTokenService.FractionalFee[]",
          "name": "fractionalFees",
          "type": "tuple[]"
        },
        {
          "components": [
            {
              "internalType": "uint32",
              "name": "numerator",
              "type": "uint32"
            },
            {
              "internalType": "uint32",
              "name": "denominator",
              "type": "uint32"
            },
            {
              "internalType": "uint32",
              "name": "amount",
              "type": "uint32"
            },
            {
              "internalType": "address",
              "name": "tokenId",
              "type": "address"
            },
            {
              "internalType": "bool",
              "name": "useHbarsForPayment",
              "type": "bool"
            },
            {
              "internalType": "address",
              "name": "feeCollector",
              "type": "address"
            }
          ],
          "indexed": false,
          "internalType": "struct IHederaTokenService.RoyaltyFee[]",
          "name": "royaltyFees",
          "type": "tuple[]"
        }
      ],
      "name": "TokenCustomFees",
      "type": "event"
    },
    {
      "anonymous": false,
      "inputs": [
        {
          "indexed": false,
          "internalType": "bool",
          "name": "defaultFreezeStatus",
          "type": "bool"
        }
      ],
      "name": "TokenDefaultFreezeStatus",
      "type": "event"
    },
    {
      "anonymous": false,
      "inputs": [
        {
          "indexed": false,
          "internalType": "bool",
          "name": "defaultKycStatus",
          "type": "bool"
        }
      ],
      "name": "TokenDefaultKycStatus",
      "type": "event"
    },
    {
      "anonymous": false,
      "inputs": [
        {
          "components": [
            {
              "components": [
                {
                  "internalType": "string",
                  "name": "name",
                  "type": "string"
                },
                {
                  "internalType": "string",
                  "name": "symbol",
                  "type": "string"
                },
                {
                  "internalType": "address",
                  "name": "treasury",
                  "type": "address"
                },
                {
                  "internalType": "string",
                  "name": "memo",
                  "type": "string"
                },
                {
                  "internalType": "bool",
                  "name": "tokenSupplyType",
                  "type": "bool"
                },
                {
                  "internalType": "uint32",
                  "name": "maxSupply",
                  "type": "uint32"
                },
                {
                  "internalType": "bool",
                  "name": "freezeDefault",
                  "type": "bool"
                },
                {
                  "components": [
                    {
                      "internalType": "uint256",
                      "name": "keyType",
                      "type": "uint256"
                    },
                    {
                      "components": [
                        {
                          "internalType": "bool",
                          "name": "inheritAccountKey",
                          "type": "bool"
                        },
                        {
                          "internalType": "address",
                          "name": "contractId",
                          "type": "address"
                        },
                        {
                          "internalType": "bytes",
                          "name": "ed25519",
                          "type": "bytes"
                        },
                        {
                          "internalType": "bytes",
                          "name": "ECDSA_secp256k1",
                          "type": "bytes"
                        },
                        {
                          "internalType": "address",
                          "name": "delegatableContractId",
                          "type": "address"
                        }
                      ],
                      "internalType": "struct IHederaTokenService.KeyValue",
                      "name": "key",
                      "type": "tuple"
                    }
                  ],
                  "internalType": "struct IHederaTokenService.TokenKey[]",
                  "name": "tokenKeys",
                  "type": "tuple[]"
                },
                {
                  "components": [
                    {
                      "internalType": "uint32",
                      "name": "second",
                      "type": "uint32"
                    },
                    {
                      "internalType": "address",
                      "name": "autoRenewAccount",
                      "type": "address"
                    },
                    {
                      "internalType": "uint32",
                      "name": "autoRenewPeriod",
                      "type": "uint32"
                    }
                  ],
                  "internalType": "struct IHederaTokenService.Expiry",
                  "name": "expiry",
                  "type": "tuple"
                }
              ],
              "internalType": "struct IHederaTokenService.HederaToken",
              "name": "token",
              "type": "tuple"
            },
            {
              "internalType": "uint64",
              "name": "totalSupply",
              "type": "uint64"
            },
            {
              "internalType": "bool",
              "name": "deleted",
              "type": "bool"
            },
            {
              "internalType": "bool",
              "name": "defaultKycStatus",
              "type": "bool"
            },
            {
              "internalType": "bool",
              "name": "pauseStatus",
              "type": "bool"
            },
            {
              "components": [
                {
                  "internalType": "uint32",
                  "name": "amount",
                  "type": "uint32"
                },
                {
                  "internalType": "address",
                  "name": "tokenId",
                  "type": "address"
                },
                {
                  "internalType": "bool",
                  "name": "useHbarsForPayment",
                  "type": "bool"
                },
                {
                  "internalType": "bool",
                  "name": "useCurrentTokenForPayment",
                  "type": "bool"
                },
                {
                  "internalType": "address",
                  "name": "feeCollector",
                  "type": "address"
                }
              ],
              "internalType": "struct IHederaTokenService.FixedFee[]",
              "name": "fixedFees",
              "type": "tuple[]"
            },
            {
              "components": [
                {
                  "internalType": "uint32",
                  "name": "numerator",
                  "type": "uint32"
                },
                {
                  "internalType": "uint32",
                  "name": "denominator",
                  "type": "uint32"
                },
                {
                  "internalType": "uint32",
                  "name": "minimumAmount",
                  "type": "uint32"
                },
                {
                  "internalType": "uint32",
                  "name": "maximumAmount",
                  "type": "uint32"
                },
                {
                  "internalType": "bool",
                  "name": "netOfTransfers",
                  "type": "bool"
                },
                {
                  "internalType": "address",
                  "name": "feeCollector",
                  "type": "address"
                }
              ],
              "internalType": "struct IHederaTokenService.FractionalFee[]",
              "name": "fractionalFees",
              "type": "tuple[]"
            },
            {
              "components": [
                {
                  "internalType": "uint32",
                  "name": "numerator",
                  "type": "uint32"
                },
                {
                  "internalType": "uint32",
                  "name": "denominator",
                  "type": "uint32"
                },
                {
                  "internalType": "uint32",
                  "name": "amount",
                  "type": "uint32"
                },
                {
                  "internalType": "address",
                  "name": "tokenId",
                  "type": "address"
                },
                {
                  "internalType": "bool",
                  "name": "useHbarsForPayment",
                  "type": "bool"
                },
                {
                  "internalType": "address",
                  "name": "feeCollector",
                  "type": "address"
                }
              ],
              "internalType": "struct IHederaTokenService.RoyaltyFee[]",
              "name": "royaltyFees",
              "type": "tuple[]"
            },
            {
              "internalType": "string",
              "name": "ledgerId",
              "type": "string"
            }
          ],
          "indexed": false,
          "internalType": "struct IHederaTokenService.TokenInfo",
          "name": "tokenInfo",
          "type": "tuple"
        }
      ],
      "name": "TokenInfo",
      "type": "event"
    },
    {
      "anonymous": false,
      "inputs": [
        {
          "components": [
            {
              "internalType": "bool",
              "name": "inheritAccountKey",
              "type": "bool"
            },
            {
              "internalType": "address",
              "name": "contractId",
              "type": "address"
            },
            {
              "internalType": "bytes",
              "name": "ed25519",
              "type": "bytes"
            },
            {
              "internalType": "bytes",
              "name": "ECDSA_secp256k1",
              "type": "bytes"
            },
            {
              "internalType": "address",
              "name": "delegatableContractId",
              "type": "address"
            }
          ],
          "indexed": false,
          "internalType": "struct IHederaTokenService.KeyValue",
          "name": "key",
          "type": "tuple"
        }
      ],
      "name": "TokenKey",
      "type": "event"
    },
    {
      "anonymous": false,
      "inputs": [
        {
          "indexed": false,
          "internalType": "bool",
          "name": "unpaused",
          "type": "bool"
        }
      ],
      "name": "UnpausedToken",
      "type": "event"
    },
    {
      "inputs": [
        {
          "internalType": "address",
          "name": "token",
          "type": "address"
        },
        {
          "internalType": "address",
          "name": "owner",
          "type": "address"
        },
        {
          "internalType": "address",
          "name": "spender",
          "type": "address"
        }
      ],
      "name": "allowancePublic",
      "outputs": [
        {
          "internalType": "int256",
          "name": "responseCode",
          "type": "int256"
        },
        {
          "internalType": "uint256",
          "name": "amount",
          "type": "uint256"
        }
      ],
      "stateMutability": "nonpayable",
      "type": "function"
    },
    {
      "inputs": [
        {
          "internalType": "address",
          "name": "token",
          "type": "address"
        },
        {
          "internalType": "address",
          "name": "spender",
          "type": "address"
        },
        {
          "internalType": "uint256",
          "name": "amount",
          "type": "uint256"
        }
      ],
      "name": "approvePublic",
      "outputs": [
        {
          "internalType": "int256",
          "name": "responseCode",
          "type": "int256"
        }
      ],
      "stateMutability": "nonpayable",
      "type": "function"
    },
    {
      "inputs": [
        {
          "internalType": "address",
          "name": "account",
          "type": "address"
        },
        {
          "internalType": "address",
          "name": "token",
          "type": "address"
        }
      ],
      "name": "associateTokenPublic",
      "outputs": [
        {
          "internalType": "int256",
          "name": "responseCode",
          "type": "int256"
        }
      ],
      "stateMutability": "nonpayable",
      "type": "function"
    },
    {
      "inputs": [
        {
          "internalType": "address",
          "name": "treasury",
          "type": "address"
        }
      ],
      "name": "createFungibleTokenPublic",
      "outputs": [],
      "stateMutability": "payable",
      "type": "function"
    },
    {
      "inputs": [
        {
          "internalType": "address",
          "name": "treasury",
          "type": "address"
        },
        {
          "internalType": "address",
          "name": "fixedFeeTokenAddress",
          "type": "address"
        }
      ],
      "name": "createFungibleTokenWithCustomFeesPublic",
      "outputs": [],
      "stateMutability": "payable",
      "type": "function"
    },
    {
      "inputs": [
        {
          "internalType": "address",
          "name": "treasury",
          "type": "address"
        }
      ],
      "name": "createNonFungibleTokenPublic",
      "outputs": [],
      "stateMutability": "payable",
      "type": "function"
    },
    {
      "inputs": [
        {
          "internalType": "address",
          "name": "token",
          "type": "address"
        }
      ],
      "name": "deleteTokenPublic",
      "outputs": [
        {
          "internalType": "int256",
          "name": "responseCode",
          "type": "int256"
        }
      ],
      "stateMutability": "nonpayable",
      "type": "function"
    },
    {
      "inputs": [
        {
          "internalType": "address",
          "name": "token",
          "type": "address"
        },
        {
          "internalType": "address",
          "name": "account",
          "type": "address"
        }
      ],
      "name": "freezeTokenPublic",
      "outputs": [
        {
          "internalType": "int256",
          "name": "responseCode",
          "type": "int256"
        }
      ],
      "stateMutability": "nonpayable",
      "type": "function"
    },
    {
      "inputs": [
        {
          "internalType": "address",
          "name": "token",
          "type": "address"
        },
        {
          "internalType": "uint256",
          "name": "serialNumber",
          "type": "uint256"
        }
      ],
      "name": "getApprovedPublic",
      "outputs": [
        {
          "internalType": "int256",
          "name": "responseCode",
          "type": "int256"
        },
        {
          "internalType": "address",
          "name": "approved",
          "type": "address"
        }
      ],
      "stateMutability": "nonpayable",
      "type": "function"
    },
    {
      "inputs": [
        {
          "internalType": "address",
          "name": "token",
          "type": "address"
        }
      ],
      "name": "getFungibleTokenInfoPublic",
      "outputs": [
        {
          "internalType": "int256",
          "name": "responseCode",
          "type": "int256"
        },
        {
          "components": [
            {
              "components": [
                {
                  "components": [
                    {
                      "internalType": "string",
                      "name": "name",
                      "type": "string"
                    },
                    {
                      "internalType": "string",
                      "name": "symbol",
                      "type": "string"
                    },
                    {
                      "internalType": "address",
                      "name": "treasury",
                      "type": "address"
                    },
                    {
                      "internalType": "string",
                      "name": "memo",
                      "type": "string"
                    },
                    {
                      "internalType": "bool",
                      "name": "tokenSupplyType",
                      "type": "bool"
                    },
                    {
                      "internalType": "uint32",
                      "name": "maxSupply",
                      "type": "uint32"
                    },
                    {
                      "internalType": "bool",
                      "name": "freezeDefault",
                      "type": "bool"
                    },
                    {
                      "components": [
                        {
                          "internalType": "uint256",
                          "name": "keyType",
                          "type": "uint256"
                        },
                        {
                          "components": [
                            {
                              "internalType": "bool",
                              "name": "inheritAccountKey",
                              "type": "bool"
                            },
                            {
                              "internalType": "address",
                              "name": "contractId",
                              "type": "address"
                            },
                            {
                              "internalType": "bytes",
                              "name": "ed25519",
                              "type": "bytes"
                            },
                            {
                              "internalType": "bytes",
                              "name": "ECDSA_secp256k1",
                              "type": "bytes"
                            },
                            {
                              "internalType": "address",
                              "name": "delegatableContractId",
                              "type": "address"
                            }
                          ],
                          "internalType": "struct IHederaTokenService.KeyValue",
                          "name": "key",
                          "type": "tuple"
                        }
                      ],
                      "internalType": "struct IHederaTokenService.TokenKey[]",
                      "name": "tokenKeys",
                      "type": "tuple[]"
                    },
                    {
                      "components": [
                        {
                          "internalType": "uint32",
                          "name": "second",
                          "type": "uint32"
                        },
                        {
                          "internalType": "address",
                          "name": "autoRenewAccount",
                          "type": "address"
                        },
                        {
                          "internalType": "uint32",
                          "name": "autoRenewPeriod",
                          "type": "uint32"
                        }
                      ],
                      "internalType": "struct IHederaTokenService.Expiry",
                      "name": "expiry",
                      "type": "tuple"
                    }
                  ],
                  "internalType": "struct IHederaTokenService.HederaToken",
                  "name": "token",
                  "type": "tuple"
                },
                {
                  "internalType": "uint64",
                  "name": "totalSupply",
                  "type": "uint64"
                },
                {
                  "internalType": "bool",
                  "name": "deleted",
                  "type": "bool"
                },
                {
                  "internalType": "bool",
                  "name": "defaultKycStatus",
                  "type": "bool"
                },
                {
                  "internalType": "bool",
                  "name": "pauseStatus",
                  "type": "bool"
                },
                {
                  "components": [
                    {
                      "internalType": "uint32",
                      "name": "amount",
                      "type": "uint32"
                    },
                    {
                      "internalType": "address",
                      "name": "tokenId",
                      "type": "address"
                    },
                    {
                      "internalType": "bool",
                      "name": "useHbarsForPayment",
                      "type": "bool"
                    },
                    {
                      "internalType": "bool",
                      "name": "useCurrentTokenForPayment",
                      "type": "bool"
                    },
                    {
                      "internalType": "address",
                      "name": "feeCollector",
                      "type": "address"
                    }
                  ],
                  "internalType": "struct IHederaTokenService.FixedFee[]",
                  "name": "fixedFees",
                  "type": "tuple[]"
                },
                {
                  "components": [
                    {
                      "internalType": "uint32",
                      "name": "numerator",
                      "type": "uint32"
                    },
                    {
                      "internalType": "uint32",
                      "name": "denominator",
                      "type": "uint32"
                    },
                    {
                      "internalType": "uint32",
                      "name": "minimumAmount",
                      "type": "uint32"
                    },
                    {
                      "internalType": "uint32",
                      "name": "maximumAmount",
                      "type": "uint32"
                    },
                    {
                      "internalType": "bool",
                      "name": "netOfTransfers",
                      "type": "bool"
                    },
                    {
                      "internalType": "address",
                      "name": "feeCollector",
                      "type": "address"
                    }
                  ],
                  "internalType": "struct IHederaTokenService.FractionalFee[]",
                  "name": "fractionalFees",
                  "type": "tuple[]"
                },
                {
                  "components": [
                    {
                      "internalType": "uint32",
                      "name": "numerator",
                      "type": "uint32"
                    },
                    {
                      "internalType": "uint32",
                      "name": "denominator",
                      "type": "uint32"
                    },
                    {
                      "internalType": "uint32",
                      "name": "amount",
                      "type": "uint32"
                    },
                    {
                      "internalType": "address",
                      "name": "tokenId",
                      "type": "address"
                    },
                    {
                      "internalType": "bool",
                      "name": "useHbarsForPayment",
                      "type": "bool"
                    },
                    {
                      "internalType": "address",
                      "name": "feeCollector",
                      "type": "address"
                    }
                  ],
                  "internalType": "struct IHederaTokenService.RoyaltyFee[]",
                  "name": "royaltyFees",
                  "type": "tuple[]"
                },
                {
                  "internalType": "string",
                  "name": "ledgerId",
                  "type": "string"
                }
              ],
              "internalType": "struct IHederaTokenService.TokenInfo",
              "name": "tokenInfo",
              "type": "tuple"
            },
            {
              "internalType": "uint32",
              "name": "decimals",
              "type": "uint32"
            }
          ],
          "internalType": "struct IHederaTokenService.FungibleTokenInfo",
          "name": "tokenInfo",
          "type": "tuple"
        }
      ],
      "stateMutability": "nonpayable",
      "type": "function"
    },
    {
      "inputs": [
        {
          "internalType": "address",
          "name": "token",
          "type": "address"
        },
        {
          "internalType": "int64",
          "name": "serialNumber",
          "type": "int64"
        }
      ],
      "name": "getNonFungibleTokenInfoPublic",
      "outputs": [
        {
          "internalType": "int256",
          "name": "responseCode",
          "type": "int256"
        },
        {
          "components": [
            {
              "components": [
                {
                  "components": [
                    {
                      "internalType": "string",
                      "name": "name",
                      "type": "string"
                    },
                    {
                      "internalType": "string",
                      "name": "symbol",
                      "type": "string"
                    },
                    {
                      "internalType": "address",
                      "name": "treasury",
                      "type": "address"
                    },
                    {
                      "internalType": "string",
                      "name": "memo",
                      "type": "string"
                    },
                    {
                      "internalType": "bool",
                      "name": "tokenSupplyType",
                      "type": "bool"
                    },
                    {
                      "internalType": "uint32",
                      "name": "maxSupply",
                      "type": "uint32"
                    },
                    {
                      "internalType": "bool",
                      "name": "freezeDefault",
                      "type": "bool"
                    },
                    {
                      "components": [
                        {
                          "internalType": "uint256",
                          "name": "keyType",
                          "type": "uint256"
                        },
                        {
                          "components": [
                            {
                              "internalType": "bool",
                              "name": "inheritAccountKey",
                              "type": "bool"
                            },
                            {
                              "internalType": "address",
                              "name": "contractId",
                              "type": "address"
                            },
                            {
                              "internalType": "bytes",
                              "name": "ed25519",
                              "type": "bytes"
                            },
                            {
                              "internalType": "bytes",
                              "name": "ECDSA_secp256k1",
                              "type": "bytes"
                            },
                            {
                              "internalType": "address",
                              "name": "delegatableContractId",
                              "type": "address"
                            }
                          ],
                          "internalType": "struct IHederaTokenService.KeyValue",
                          "name": "key",
                          "type": "tuple"
                        }
                      ],
                      "internalType": "struct IHederaTokenService.TokenKey[]",
                      "name": "tokenKeys",
                      "type": "tuple[]"
                    },
                    {
                      "components": [
                        {
                          "internalType": "uint32",
                          "name": "second",
                          "type": "uint32"
                        },
                        {
                          "internalType": "address",
                          "name": "autoRenewAccount",
                          "type": "address"
                        },
                        {
                          "internalType": "uint32",
                          "name": "autoRenewPeriod",
                          "type": "uint32"
                        }
                      ],
                      "internalType": "struct IHederaTokenService.Expiry",
                      "name": "expiry",
                      "type": "tuple"
                    }
                  ],
                  "internalType": "struct IHederaTokenService.HederaToken",
                  "name": "token",
                  "type": "tuple"
                },
                {
                  "internalType": "uint64",
                  "name": "totalSupply",
                  "type": "uint64"
                },
                {
                  "internalType": "bool",
                  "name": "deleted",
                  "type": "bool"
                },
                {
                  "internalType": "bool",
                  "name": "defaultKycStatus",
                  "type": "bool"
                },
                {
                  "internalType": "bool",
                  "name": "pauseStatus",
                  "type": "bool"
                },
                {
                  "components": [
                    {
                      "internalType": "uint32",
                      "name": "amount",
                      "type": "uint32"
                    },
                    {
                      "internalType": "address",
                      "name": "tokenId",
                      "type": "address"
                    },
                    {
                      "internalType": "bool",
                      "name": "useHbarsForPayment",
                      "type": "bool"
                    },
                    {
                      "internalType": "bool",
                      "name": "useCurrentTokenForPayment",
                      "type": "bool"
                    },
                    {
                      "internalType": "address",
                      "name": "feeCollector",
                      "type": "address"
                    }
                  ],
                  "internalType": "struct IHederaTokenService.FixedFee[]",
                  "name": "fixedFees",
                  "type": "tuple[]"
                },
                {
                  "components": [
                    {
                      "internalType": "uint32",
                      "name": "numerator",
                      "type": "uint32"
                    },
                    {
                      "internalType": "uint32",
                      "name": "denominator",
                      "type": "uint32"
                    },
                    {
                      "internalType": "uint32",
                      "name": "minimumAmount",
                      "type": "uint32"
                    },
                    {
                      "internalType": "uint32",
                      "name": "maximumAmount",
                      "type": "uint32"
                    },
                    {
                      "internalType": "bool",
                      "name": "netOfTransfers",
                      "type": "bool"
                    },
                    {
                      "internalType": "address",
                      "name": "feeCollector",
                      "type": "address"
                    }
                  ],
                  "internalType": "struct IHederaTokenService.FractionalFee[]",
                  "name": "fractionalFees",
                  "type": "tuple[]"
                },
                {
                  "components": [
                    {
                      "internalType": "uint32",
                      "name": "numerator",
                      "type": "uint32"
                    },
                    {
                      "internalType": "uint32",
                      "name": "denominator",
                      "type": "uint32"
                    },
                    {
                      "internalType": "uint32",
                      "name": "amount",
                      "type": "uint32"
                    },
                    {
                      "internalType": "address",
                      "name": "tokenId",
                      "type": "address"
                    },
                    {
                      "internalType": "bool",
                      "name": "useHbarsForPayment",
                      "type": "bool"
                    },
                    {
                      "internalType": "address",
                      "name": "feeCollector",
                      "type": "address"
                    }
                  ],
                  "internalType": "struct IHederaTokenService.RoyaltyFee[]",
                  "name": "royaltyFees",
                  "type": "tuple[]"
                },
                {
                  "internalType": "string",
                  "name": "ledgerId",
                  "type": "string"
                }
              ],
              "internalType": "struct IHederaTokenService.TokenInfo",
              "name": "tokenInfo",
              "type": "tuple"
            },
            {
              "internalType": "int64",
              "name": "serialNumber",
              "type": "int64"
            },
            {
              "internalType": "address",
              "name": "ownerId",
              "type": "address"
            },
            {
              "internalType": "int64",
              "name": "creationTime",
              "type": "int64"
            },
            {
              "internalType": "bytes",
              "name": "metadata",
              "type": "bytes"
            },
            {
              "internalType": "address",
              "name": "spenderId",
              "type": "address"
            }
          ],
          "internalType": "struct IHederaTokenService.NonFungibleTokenInfo",
          "name": "tokenInfo",
          "type": "tuple"
        }
      ],
      "stateMutability": "nonpayable",
      "type": "function"
    },
    {
      "inputs": [
        {
          "internalType": "address",
          "name": "token",
          "type": "address"
        }
      ],
      "name": "getTokenCustomFeesPublic",
      "outputs": [
        {
          "internalType": "int64",
          "name": "responseCode",
          "type": "int64"
        },
        {
          "components": [
            {
              "internalType": "uint32",
              "name": "amount",
              "type": "uint32"
            },
            {
              "internalType": "address",
              "name": "tokenId",
              "type": "address"
            },
            {
              "internalType": "bool",
              "name": "useHbarsForPayment",
              "type": "bool"
            },
            {
              "internalType": "bool",
              "name": "useCurrentTokenForPayment",
              "type": "bool"
            },
            {
              "internalType": "address",
              "name": "feeCollector",
              "type": "address"
            }
          ],
          "internalType": "struct IHederaTokenService.FixedFee[]",
          "name": "fixedFees",
          "type": "tuple[]"
        },
        {
          "components": [
            {
              "internalType": "uint32",
              "name": "numerator",
              "type": "uint32"
            },
            {
              "internalType": "uint32",
              "name": "denominator",
              "type": "uint32"
            },
            {
              "internalType": "uint32",
              "name": "minimumAmount",
              "type": "uint32"
            },
            {
              "internalType": "uint32",
              "name": "maximumAmount",
              "type": "uint32"
            },
            {
              "internalType": "bool",
              "name": "netOfTransfers",
              "type": "bool"
            },
            {
              "internalType": "address",
              "name": "feeCollector",
              "type": "address"
            }
          ],
          "internalType": "struct IHederaTokenService.FractionalFee[]",
          "name": "fractionalFees",
          "type": "tuple[]"
        },
        {
          "components": [
            {
              "internalType": "uint32",
              "name": "numerator",
              "type": "uint32"
            },
            {
              "internalType": "uint32",
              "name": "denominator",
              "type": "uint32"
            },
            {
              "internalType": "uint32",
              "name": "amount",
              "type": "uint32"
            },
            {
              "internalType": "address",
              "name": "tokenId",
              "type": "address"
            },
            {
              "internalType": "bool",
              "name": "useHbarsForPayment",
              "type": "bool"
            },
            {
              "internalType": "address",
              "name": "feeCollector",
              "type": "address"
            }
          ],
          "internalType": "struct IHederaTokenService.RoyaltyFee[]",
          "name": "royaltyFees",
          "type": "tuple[]"
        }
      ],
      "stateMutability": "nonpayable",
      "type": "function"
    },
    {
      "inputs": [
        {
          "internalType": "address",
          "name": "token",
          "type": "address"
        }
      ],
      "name": "getTokenDefaultFreezeStatusPublic",
      "outputs": [
        {
          "internalType": "int256",
          "name": "responseCode",
          "type": "int256"
        },
        {
          "internalType": "bool",
          "name": "defaultFreezeStatus",
          "type": "bool"
        }
      ],
      "stateMutability": "nonpayable",
      "type": "function"
    },
    {
      "inputs": [
        {
          "internalType": "address",
          "name": "token",
          "type": "address"
        }
      ],
      "name": "getTokenDefaultKycStatusPublic",
      "outputs": [
        {
          "internalType": "int256",
          "name": "responseCode",
          "type": "int256"
        },
        {
          "internalType": "bool",
          "name": "defaultKycStatus",
          "type": "bool"
        }
      ],
      "stateMutability": "nonpayable",
      "type": "function"
    },
    {
      "inputs": [
        {
          "internalType": "address",
          "name": "token",
          "type": "address"
        }
      ],
      "name": "getTokenInfoPublic",
      "outputs": [
        {
          "internalType": "int256",
          "name": "responseCode",
          "type": "int256"
        },
        {
          "components": [
            {
              "components": [
                {
                  "internalType": "string",
                  "name": "name",
                  "type": "string"
                },
                {
                  "internalType": "string",
                  "name": "symbol",
                  "type": "string"
                },
                {
                  "internalType": "address",
                  "name": "treasury",
                  "type": "address"
                },
                {
                  "internalType": "string",
                  "name": "memo",
                  "type": "string"
                },
                {
                  "internalType": "bool",
                  "name": "tokenSupplyType",
                  "type": "bool"
                },
                {
                  "internalType": "uint32",
                  "name": "maxSupply",
                  "type": "uint32"
                },
                {
                  "internalType": "bool",
                  "name": "freezeDefault",
                  "type": "bool"
                },
                {
                  "components": [
                    {
                      "internalType": "uint256",
                      "name": "keyType",
                      "type": "uint256"
                    },
                    {
                      "components": [
                        {
                          "internalType": "bool",
                          "name": "inheritAccountKey",
                          "type": "bool"
                        },
                        {
                          "internalType": "address",
                          "name": "contractId",
                          "type": "address"
                        },
                        {
                          "internalType": "bytes",
                          "name": "ed25519",
                          "type": "bytes"
                        },
                        {
                          "internalType": "bytes",
                          "name": "ECDSA_secp256k1",
                          "type": "bytes"
                        },
                        {
                          "internalType": "address",
                          "name": "delegatableContractId",
                          "type": "address"
                        }
                      ],
                      "internalType": "struct IHederaTokenService.KeyValue",
                      "name": "key",
                      "type": "tuple"
                    }
                  ],
                  "internalType": "struct IHederaTokenService.TokenKey[]",
                  "name": "tokenKeys",
                  "type": "tuple[]"
                },
                {
                  "components": [
                    {
                      "internalType": "uint32",
                      "name": "second",
                      "type": "uint32"
                    },
                    {
                      "internalType": "address",
                      "name": "autoRenewAccount",
                      "type": "address"
                    },
                    {
                      "internalType": "uint32",
                      "name": "autoRenewPeriod",
                      "type": "uint32"
                    }
                  ],
                  "internalType": "struct IHederaTokenService.Expiry",
                  "name": "expiry",
                  "type": "tuple"
                }
              ],
              "internalType": "struct IHederaTokenService.HederaToken",
              "name": "token",
              "type": "tuple"
            },
            {
              "internalType": "uint64",
              "name": "totalSupply",
              "type": "uint64"
            },
            {
              "internalType": "bool",
              "name": "deleted",
              "type": "bool"
            },
            {
              "internalType": "bool",
              "name": "defaultKycStatus",
              "type": "bool"
            },
            {
              "internalType": "bool",
              "name": "pauseStatus",
              "type": "bool"
            },
            {
              "components": [
                {
                  "internalType": "uint32",
                  "name": "amount",
                  "type": "uint32"
                },
                {
                  "internalType": "address",
                  "name": "tokenId",
                  "type": "address"
                },
                {
                  "internalType": "bool",
                  "name": "useHbarsForPayment",
                  "type": "bool"
                },
                {
                  "internalType": "bool",
                  "name": "useCurrentTokenForPayment",
                  "type": "bool"
                },
                {
                  "internalType": "address",
                  "name": "feeCollector",
                  "type": "address"
                }
              ],
              "internalType": "struct IHederaTokenService.FixedFee[]",
              "name": "fixedFees",
              "type": "tuple[]"
            },
            {
              "components": [
                {
                  "internalType": "uint32",
                  "name": "numerator",
                  "type": "uint32"
                },
                {
                  "internalType": "uint32",
                  "name": "denominator",
                  "type": "uint32"
                },
                {
                  "internalType": "uint32",
                  "name": "minimumAmount",
                  "type": "uint32"
                },
                {
                  "internalType": "uint32",
                  "name": "maximumAmount",
                  "type": "uint32"
                },
                {
                  "internalType": "bool",
                  "name": "netOfTransfers",
                  "type": "bool"
                },
                {
                  "internalType": "address",
                  "name": "feeCollector",
                  "type": "address"
                }
              ],
              "internalType": "struct IHederaTokenService.FractionalFee[]",
              "name": "fractionalFees",
              "type": "tuple[]"
            },
            {
              "components": [
                {
                  "internalType": "uint32",
                  "name": "numerator",
                  "type": "uint32"
                },
                {
                  "internalType": "uint32",
                  "name": "denominator",
                  "type": "uint32"
                },
                {
                  "internalType": "uint32",
                  "name": "amount",
                  "type": "uint32"
                },
                {
                  "internalType": "address",
                  "name": "tokenId",
                  "type": "address"
                },
                {
                  "internalType": "bool",
                  "name": "useHbarsForPayment",
                  "type": "bool"
                },
                {
                  "internalType": "address",
                  "name": "feeCollector",
                  "type": "address"
                }
              ],
              "internalType": "struct IHederaTokenService.RoyaltyFee[]",
              "name": "royaltyFees",
              "type": "tuple[]"
            },
            {
              "internalType": "string",
              "name": "ledgerId",
              "type": "string"
            }
          ],
          "internalType": "struct IHederaTokenService.TokenInfo",
          "name": "tokenInfo",
          "type": "tuple"
        }
      ],
      "stateMutability": "nonpayable",
      "type": "function"
    },
    {
      "inputs": [
        {
          "internalType": "address",
          "name": "token",
          "type": "address"
        },
        {
          "internalType": "uint256",
          "name": "keyType",
          "type": "uint256"
        }
      ],
      "name": "getTokenKey",
      "outputs": [
        {
          "internalType": "int64",
          "name": "responseCode",
          "type": "int64"
        },
        {
          "components": [
            {
              "internalType": "bool",
              "name": "inheritAccountKey",
              "type": "bool"
            },
            {
              "internalType": "address",
              "name": "contractId",
              "type": "address"
            },
            {
              "internalType": "bytes",
              "name": "ed25519",
              "type": "bytes"
            },
            {
              "internalType": "bytes",
              "name": "ECDSA_secp256k1",
              "type": "bytes"
            },
            {
              "internalType": "address",
              "name": "delegatableContractId",
              "type": "address"
            }
          ],
          "internalType": "struct IHederaTokenService.KeyValue",
          "name": "key",
          "type": "tuple"
        }
      ],
      "stateMutability": "nonpayable",
      "type": "function"
    },
    {
      "inputs": [
        {
          "internalType": "address",
          "name": "token",
          "type": "address"
        },
        {
          "internalType": "uint256",
          "name": "keyType",
          "type": "uint256"
        }
      ],
      "name": "getTokenKeyPublic",
      "outputs": [
        {
          "internalType": "int64",
          "name": "responseCode",
          "type": "int64"
        },
        {
          "components": [
            {
              "internalType": "bool",
              "name": "inheritAccountKey",
              "type": "bool"
            },
            {
              "internalType": "address",
              "name": "contractId",
              "type": "address"
            },
            {
              "internalType": "bytes",
              "name": "ed25519",
              "type": "bytes"
            },
            {
              "internalType": "bytes",
              "name": "ECDSA_secp256k1",
              "type": "bytes"
            },
            {
              "internalType": "address",
              "name": "delegatableContractId",
              "type": "address"
            }
          ],
          "internalType": "struct IHederaTokenService.KeyValue",
          "name": "key",
          "type": "tuple"
        }
      ],
      "stateMutability": "nonpayable",
      "type": "function"
    },
    {
      "inputs": [
        {
          "internalType": "address",
          "name": "token",
          "type": "address"
        },
        {
          "internalType": "address",
          "name": "account",
          "type": "address"
        }
      ],
      "name": "grantTokenKyc",
      "outputs": [
        {
          "internalType": "int64",
          "name": "responseCode",
          "type": "int64"
        }
      ],
      "stateMutability": "nonpayable",
      "type": "function"
    },
    {
      "inputs": [
        {
          "internalType": "address",
          "name": "token",
          "type": "address"
        },
        {
          "internalType": "address",
          "name": "account",
          "type": "address"
        }
      ],
      "name": "grantTokenKycPublic",
      "outputs": [
        {
          "internalType": "int64",
          "name": "responseCode",
          "type": "int64"
        }
      ],
      "stateMutability": "nonpayable",
      "type": "function"
    },
    {
      "inputs": [
        {
          "internalType": "address",
          "name": "token",
          "type": "address"
        },
        {
          "internalType": "address",
          "name": "owner",
          "type": "address"
        },
        {
          "internalType": "address",
          "name": "operator",
          "type": "address"
        }
      ],
      "name": "isApprovedForAllPublic",
      "outputs": [
        {
          "internalType": "int256",
          "name": "responseCode",
          "type": "int256"
        },
        {
          "internalType": "bool",
          "name": "approved",
          "type": "bool"
        }
      ],
      "stateMutability": "nonpayable",
      "type": "function"
    },
    {
      "inputs": [
        {
          "internalType": "address",
          "name": "token",
          "type": "address"
        },
        {
          "internalType": "address",
          "name": "account",
          "type": "address"
        }
      ],
      "name": "isFrozenPublic",
      "outputs": [
        {
          "internalType": "int256",
          "name": "responseCode",
          "type": "int256"
        },
        {
          "internalType": "bool",
          "name": "frozen",
          "type": "bool"
        }
      ],
      "stateMutability": "nonpayable",
      "type": "function"
    },
    {
      "inputs": [
        {
          "internalType": "address",
          "name": "token",
          "type": "address"
        },
        {
          "internalType": "address",
          "name": "account",
          "type": "address"
        }
      ],
      "name": "isKyc",
      "outputs": [
        {
          "internalType": "int64",
          "name": "responseCode",
          "type": "int64"
        },
        {
          "internalType": "bool",
          "name": "kycGranted",
          "type": "bool"
        }
      ],
      "stateMutability": "nonpayable",
      "type": "function"
    },
    {
      "inputs": [
        {
          "internalType": "address",
          "name": "token",
          "type": "address"
        },
        {
          "internalType": "address",
          "name": "account",
          "type": "address"
        }
      ],
      "name": "isKycPublic",
      "outputs": [
        {
          "internalType": "int64",
          "name": "responseCode",
          "type": "int64"
        },
        {
          "internalType": "bool",
          "name": "kycGranted",
          "type": "bool"
        }
      ],
      "stateMutability": "nonpayable",
      "type": "function"
    },
    {
      "inputs": [
        {
          "internalType": "address",
          "name": "token",
          "type": "address"
        },
        {
          "internalType": "uint64",
          "name": "amount",
          "type": "uint64"
        },
        {
          "internalType": "bytes[]",
          "name": "metadata",
          "type": "bytes[]"
        }
      ],
      "name": "mintTokenPublic",
      "outputs": [
        {
          "internalType": "int256",
          "name": "responseCode",
          "type": "int256"
        },
        {
          "internalType": "uint64",
          "name": "newTotalSupply",
          "type": "uint64"
        },
        {
          "internalType": "int64[]",
          "name": "serialNumbers",
          "type": "int64[]"
        }
      ],
      "stateMutability": "nonpayable",
      "type": "function"
    },
    {
      "inputs": [
        {
          "internalType": "address",
          "name": "token",
          "type": "address"
        }
      ],
      "name": "pauseToken",
      "outputs": [
        {
          "internalType": "int256",
          "name": "responseCode",
          "type": "int256"
        }
      ],
      "stateMutability": "nonpayable",
      "type": "function"
    },
    {
      "inputs": [
        {
          "internalType": "address",
          "name": "token",
          "type": "address"
        }
      ],
      "name": "pauseTokenPublic",
      "outputs": [
        {
          "internalType": "int256",
          "name": "responseCode",
          "type": "int256"
        }
      ],
      "stateMutability": "nonpayable",
      "type": "function"
    },
    {
      "inputs": [
        {
          "internalType": "address",
          "name": "token",
          "type": "address"
        },
        {
          "internalType": "address",
          "name": "account",
          "type": "address"
        }
      ],
      "name": "revokeTokenKyc",
      "outputs": [
        {
          "internalType": "int64",
          "name": "responseCode",
          "type": "int64"
        }
      ],
      "stateMutability": "nonpayable",
      "type": "function"
    },
    {
      "inputs": [
        {
          "internalType": "address",
          "name": "token",
          "type": "address"
        },
        {
          "internalType": "address",
          "name": "account",
          "type": "address"
        }
      ],
      "name": "revokeTokenKycPublic",
      "outputs": [
        {
          "internalType": "int64",
          "name": "responseCode",
          "type": "int64"
        }
      ],
      "stateMutability": "nonpayable",
      "type": "function"
    },
    {
      "inputs": [
        {
          "internalType": "address",
          "name": "token",
          "type": "address"
        },
        {
          "internalType": "address",
          "name": "operator",
          "type": "address"
        },
        {
          "internalType": "bool",
          "name": "approved",
          "type": "bool"
        }
      ],
      "name": "setApprovalForAllPublic",
      "outputs": [
        {
          "internalType": "int256",
          "name": "responseCode",
          "type": "int256"
        }
      ],
      "stateMutability": "nonpayable",
      "type": "function"
    },
    {
      "inputs": [
        {
          "internalType": "bool",
          "name": "newFreezeStatus",
          "type": "bool"
        }
      ],
      "name": "setFreezeDefaultStatus",
      "outputs": [],
      "stateMutability": "nonpayable",
      "type": "function"
    },
    {
      "inputs": [
        {
          "internalType": "address",
          "name": "token",
          "type": "address"
        },
        {
          "internalType": "address",
          "name": "sender",
          "type": "address"
        },
        {
          "internalType": "address",
          "name": "receiver",
          "type": "address"
        },
        {
          "internalType": "int64",
          "name": "serialNumber",
          "type": "int64"
        }
      ],
      "name": "transferNFTPublic",
      "outputs": [
        {
          "internalType": "int256",
          "name": "responseCode",
          "type": "int256"
        }
      ],
      "stateMutability": "nonpayable",
      "type": "function"
    },
    {
      "inputs": [
        {
          "internalType": "address",
          "name": "account",
          "type": "address"
        },
        {
          "internalType": "address",
          "name": "token",
          "type": "address"
        },
        {
          "internalType": "int64",
          "name": "amount",
          "type": "int64"
        }
      ],
      "name": "transferTokenPublic",
      "outputs": [
        {
          "internalType": "int256",
          "name": "responseCode",
          "type": "int256"
        }
      ],
      "stateMutability": "nonpayable",
      "type": "function"
    },
    {
      "inputs": [
        {
          "internalType": "address",
          "name": "token",
          "type": "address"
        },
        {
          "internalType": "address",
          "name": "account",
          "type": "address"
        }
      ],
      "name": "unfreezeTokenPublic",
      "outputs": [
        {
          "internalType": "int256",
          "name": "responseCode",
          "type": "int256"
        }
      ],
      "stateMutability": "nonpayable",
      "type": "function"
    },
    {
      "inputs": [
        {
          "internalType": "address",
          "name": "token",
          "type": "address"
        }
      ],
      "name": "unpauseToken",
      "outputs": [
        {
          "internalType": "int256",
          "name": "responseCode",
          "type": "int256"
        }
      ],
      "stateMutability": "nonpayable",
      "type": "function"
    },
    {
      "inputs": [
        {
          "internalType": "address",
          "name": "token",
          "type": "address"
        }
      ],
      "name": "unpauseTokenPublic",
      "outputs": [
        {
          "internalType": "int256",
          "name": "responseCode",
          "type": "int256"
        }
      ],
      "stateMutability": "nonpayable",
      "type": "function"
    },
    {
      "inputs": [
        {
          "internalType": "address",
          "name": "token",
          "type": "address"
        },
        {
          "components": [
            {
              "internalType": "uint256",
              "name": "keyType",
              "type": "uint256"
            },
            {
              "components": [
                {
                  "internalType": "bool",
                  "name": "inheritAccountKey",
                  "type": "bool"
                },
                {
                  "internalType": "address",
                  "name": "contractId",
                  "type": "address"
                },
                {
                  "internalType": "bytes",
                  "name": "ed25519",
                  "type": "bytes"
                },
                {
                  "internalType": "bytes",
                  "name": "ECDSA_secp256k1",
                  "type": "bytes"
                },
                {
                  "internalType": "address",
                  "name": "delegatableContractId",
                  "type": "address"
                }
              ],
              "internalType": "struct IHederaTokenService.KeyValue",
              "name": "key",
              "type": "tuple"
            }
          ],
          "internalType": "struct IHederaTokenService.TokenKey[]",
          "name": "keys",
          "type": "tuple[]"
        }
      ],
      "name": "updateTokenKeys",
      "outputs": [
        {
          "internalType": "int64",
          "name": "responseCode",
          "type": "int64"
        }
      ],
      "stateMutability": "nonpayable",
      "type": "function"
    },
    {
      "inputs": [
        {
          "internalType": "address",
          "name": "token",
          "type": "address"
        },
        {
          "components": [
            {
              "internalType": "uint256",
              "name": "keyType",
              "type": "uint256"
            },
            {
              "components": [
                {
                  "internalType": "bool",
                  "name": "inheritAccountKey",
                  "type": "bool"
                },
                {
                  "internalType": "address",
                  "name": "contractId",
                  "type": "address"
                },
                {
                  "internalType": "bytes",
                  "name": "ed25519",
                  "type": "bytes"
                },
                {
                  "internalType": "bytes",
                  "name": "ECDSA_secp256k1",
                  "type": "bytes"
                },
                {
                  "internalType": "address",
                  "name": "delegatableContractId",
                  "type": "address"
                }
              ],
              "internalType": "struct IHederaTokenService.KeyValue",
              "name": "key",
              "type": "tuple"
            }
          ],
          "internalType": "struct IHederaTokenService.TokenKey[]",
          "name": "keys",
          "type": "tuple[]"
        }
      ],
      "name": "updateTokenKeysPublic",
      "outputs": [
        {
          "internalType": "int64",
          "name": "responseCode",
          "type": "int64"
        }
      ],
      "stateMutability": "nonpayable",
      "type": "function"
    },
    {
      "inputs": [
        {
          "internalType": "address",
          "name": "token",
          "type": "address"
        },
        {
          "internalType": "address",
          "name": "account",
          "type": "address"
        },
        {
          "internalType": "int64[]",
          "name": "serialNumbers",
          "type": "int64[]"
        }
      ],
      "name": "wipeTokenAccountNFTPublic",
      "outputs": [
        {
          "internalType": "int256",
          "name": "responseCode",
          "type": "int256"
        }
      ],
      "stateMutability": "nonpayable",
      "type": "function"
    },
    {
      "inputs": [
        {
          "internalType": "address",
          "name": "token",
          "type": "address"
        },
        {
          "internalType": "address",
          "name": "account",
          "type": "address"
        },
        {
          "internalType": "uint32",
          "name": "amount",
          "type": "uint32"
        }
      ],
      "name": "wipeTokenAccountPublic",
      "outputs": [
        {
          "internalType": "int256",
          "name": "responseCode",
          "type": "int256"
        }
      ],
      "stateMutability": "nonpayable",
      "type": "function"
    }
  ],
  "bytecode": "0x60c06040526009608081905268746f6b656e4e616d6560b81b60a09081526200002c9160019190620000cb565b5060408051808201909152600b8082526a1d1bdad95b94de5b589bdb60aa1b60209092019182526200006191600291620000cb565b50604080518082019091526004808252636d656d6f60e01b60209092019182526200008f91600391620000cb565b506103e860048190556005805463ffffffff1916909117905560086006556007805460ff19169055348015620000c457600080fd5b50620001ae565b828054620000d99062000171565b90600052602060002090601f016020900481019282620000fd576000855562000148565b82601f106200011857805160ff191683800117855562000148565b8280016001018555821562000148579182015b82811115620001485782518255916020019190600101906200012b565b50620001569291506200015a565b5090565b5b808211156200015657600081556001016200015b565b600181811c908216806200018657607f821691505b60208210811415620001a857634e487b7160e01b600052602260045260246000fd5b50919050565b61584880620001be6000396000f3fe6080604052600436106102a05760003560e01c80636fc3cbaf1161016e578063d85f74c1116100cb578063f2f38a741161007f578063f7be342511610064578063f7be3425146107de578063f848fec4146107fe578063f9e978bd1461081e57600080fd5b8063f2f38a7414610790578063f4a01e5b146107be57600080fd5b8063ec855c31116100b0578063ec855c3114610730578063f25b120014610750578063f2c31ff41461077057600080fd5b8063d85f74c1146106fd578063d92ac2481461071057600080fd5b80638ba74da011610122578063a345f7bd11610107578063a345f7bd14610683578063a3ad5b55146106a3578063af99c633146106dd57600080fd5b80638ba74da0146106505780638f8d7f991461066357600080fd5b80637d3e5da8116101535780637d3e5da8146105e15780638070905f1461060157806386f88d881461063057600080fd5b80636fc3cbaf146105a15780637c41ad2c146105c157600080fd5b80633eed2c391161021c5780635a5e6c31116101d057806369837dc2116101b557806369837dc2146105335780636a4dde21146105615780636da6b1f01461058157600080fd5b80635a5e6c31146104ce5780635b9076b71461050357600080fd5b80634cbdb37b116102015780634cbdb37b146104605780634d8f27c91461048e57806356af8403146104ae57600080fd5b80633eed2c391461042b5780634b5c66871461044b57600080fd5b80632b256ec8116102735780632eecbca3116102585780632eecbca3146103cb5780633b3bff0f146103eb5780633c4dd32e1461040b57600080fd5b80632b256ec81461037d5780632d73bb2e146103ab57600080fd5b80630fd2601e146102a557806313c05dd8146102dd5780631955de0b1461031257806319db44b614610340575b600080fd5b3480156102b157600080fd5b506102c56102c036600461429f565b61083e565b60405160079190910b81526020015b60405180910390f35b3480156102e957600080fd5b506102fd6102f83660046142d7565b610902565b604080519283529015156020830152016102d4565b34801561031e57600080fd5b5061033261032d36600461470d565b610980565b6040516102d49291906154be565b34801561034c57600080fd5b5061036061035b36600461470d565b610a2f565b604080519283526001600160a01b039091166020830152016102d4565b34801561038957600080fd5b5061039d610398366004614283565b610aa8565b6040519081526020016102d4565b3480156103b757600080fd5b5061039d6103c636600461429f565b610b94565b3480156103d757600080fd5b506102c56103e636600461429f565b610bd9565b3480156103f757600080fd5b5061039d610406366004614283565b610c10565b34801561041757600080fd5b5061033261042636600461470d565b610cea565b34801561043757600080fd5b506102fd610446366004614283565b610e47565b61045e610459366004614283565b610ec1565b005b34801561046c57600080fd5b5061048061047b3660046146e0565b6112b9565b6040516102d4929190615416565b34801561049a57600080fd5b506102c56104a936600461453c565b61132f565b3480156104ba57600080fd5b5061039d6104c936600461437c565b61133b565b3480156104da57600080fd5b506104ee6104e93660046142d7565b611385565b604080519283526020830191909152016102d4565b34801561050f57600080fd5b5061052361051e366004614283565b6113f6565b6040516102d49493929190615471565b34801561053f57600080fd5b5061055361054e366004614283565b611488565b6040516102d49291906153fd565b34801561056d57600080fd5b506102fd61057c36600461429f565b6114fd565b34801561058d57600080fd5b5061039d61059c366004614321565b611574565b3480156105ad57600080fd5b506102c56105bc36600461453c565b6115c0565b3480156105cd57600080fd5b5061039d6105dc366004614283565b61169d565b3480156105ed57600080fd5b5061039d6105fc36600461429f565b6116cb565b34801561060d57600080fd5b5061062161061c366004614738565b6116d7565b6040516102d493929190615448565b34801561063c57600080fd5b506102fd61064b366004614283565b61175f565b61045e61065e36600461429f565b6117d0565b34801561066f57600080fd5b506102c561067e36600461429f565b611c8c565b34801561068f57600080fd5b5061039d61069e366004614283565b611cc2565b3480156106af57600080fd5b506106c36106be36600461429f565b611d08565b6040805160079390930b83529015156020830152016102d4565b3480156106e957600080fd5b506102c56106f836600461429f565b611dfa565b61045e61070b366004614283565b611e30565b34801561071c57600080fd5b5061039d61072b3660046144fd565b61220e565b34801561073c57600080fd5b5061039d61074b36600461447e565b61221b565b34801561075c57600080fd5b5061039d61076b36600461443f565b61241c565b34801561077c57600080fd5b506106c361078b36600461429f565b612429565b34801561079c57600080fd5b506107b06107ab366004614283565b612516565b6040516102d492919061542f565b3480156107ca57600080fd5b5061039d6107d936600461429f565b61258b565b3480156107ea57600080fd5b5061039d6107f9366004614283565b6125b8565b34801561080a57600080fd5b5061039d6108193660046144bd565b61269b565b34801561082a57600080fd5b5061045e61083936600461480f565b6126a8565b604051638f8d7f9960e01b81526001600160a01b038084166004830152821660248201526000903090638f8d7f99906044015b602060405180830381600087803b15801561088b57600080fd5b505af115801561089f573d6000803e3d6000fd5b505050506040513d601f19601f820116820180604052508101906108c39190614c28565b604051600782900b81529091506000805160206157f38339815191529060200160405180910390a1600781900b6016146108fc57600080fd5b92915050565b6000806109108585856126f5565b60405182815291935091506000805160206157f38339815191529060200160405180910390a16016821461094357600080fd5b60405181151581527e1c2e72360171244b3bb8cc8ddd767820edf37138ad6f129fb3574b407c307d906020015b60405180910390a1935093915050565b6040805160a081018252600080825260208201819052606092820183905282820192909252608081018290526109b68484610cea565b604051600783900b815291935091506000805160206157f38339815191529060200160405180910390a1600782900b6016146109f157600080fd5b7faed084fbdf29b6ba2242463299d7270f64e0f8ced16013cfff249856bd88715781604051610a209190615576565b60405180910390a19250929050565b600080610a3c84846127e1565b60405182815291935091506000805160206157f38339815191529060200160405180910390a160168214610a6f57600080fd5b6040516001600160a01b03821681527fc2c78c7c31baf14949e75c51df12be56edb9af523cf82839c2869bbcf13b3ecb90602001610a20565b604051631f106b4b60e21b81526001600160a01b03821660048201526000903090637c41ad2c90602401602060405180830381600087803b158015610aec57600080fd5b505af1158015610b00573d6000803e3d6000fd5b505050506040513d601f19601f82011682018060405250810190610b24919061482b565b90506000805160206157f383398151915281604051610b4591815260200190565b60405180910390a160168114610b5a57600080fd5b604051600181527f0c9c765845f4d139956bb8fc8decb2eec6093c9c608b809641b16054b29f0e13906020015b60405180910390a1919050565b6000610ba083836128c1565b60070b90506000805160206157f383398151915281604051610bc491815260200190565b60405180910390a1601681146108fc57600080fd5b60405163af99c63360e01b81526001600160a01b03808416600483015282166024820152600090309063af99c63390604401610871565b6040516001600160a01b03821660248201526000908190819061016790633b3bff0f60e01b906044015b60408051601f198184030181529181526020820180516001600160e01b03166001600160e01b0319909416939093179092529051610c7891906151fb565b6000604051808303816000865af19150503d8060008114610cb5576040519150601f19603f3d011682016040523d82523d6000602084013e610cba565b606091505b509150915081610ccb576015610cdf565b80806020019051810190610cdf9190614843565b60030b949350505050565b6040805160a081018252600080825260208083018290526060838501819052808401526080830182905283516001600160a01b03871660248201526044808201879052855180830390910181526064909101855290810180516001600160e01b03167f3c4dd32e00000000000000000000000000000000000000000000000000000000179052925190928391829161016791610d8691906151fb565b6000604051808303816000865af19150503d8060008114610dc3576040519150601f19603f3d011682016040523d82523d6000602084013e610dc8565b606091505b5091509150610e136040518060a0016040528060001515815260200160006001600160a01b03168152602001606081526020016060815260200160006001600160a01b031681525090565b82610e2057601581610e34565b81806020019051810190610e3491906149da565b60039190910b9890975095505050505050565b600080610e5383612910565b60405182815291935091506000805160206157f38339815191529060200160405180910390a160168214610e8657600080fd5b60405181151581527f6b7f3306751292f85ab4161ee2b0ac16dfc8ded13e6446ce6bd859d0a2f4c78e906020015b60405180910390a1915091565b60408051600480825260a08201909252600091816020015b610ee1613981565b815260200190600190039081610ed9579050509050610f1460006006600160405180602001604052806000815250612a0d565b81600081518110610f3557634e487b7160e01b600052603260045260246000fd5b6020026020010181905250610f5b60018060405180602001604052806000815250612a44565b81600181518110610f7c57634e487b7160e01b600052603260045260246000fd5b6020026020010181905250610fa36002600160405180602001604052806000815250612a44565b81600281518110610fc457634e487b7160e01b600052603260045260246000fd5b6020026020010181905250610feb6003600160405180602001604052806000815250612a44565b8160038151811061100c57634e487b7160e01b600052603260045260246000fd5b602002602001018190525060006040518060600160405280600063ffffffff168152602001846001600160a01b03168152602001627a120063ffffffff16815250905060006040518061012001604052806001805461106a90615712565b80601f016020809104026020016040519081016040528092919081815260200182805461109690615712565b80156110e35780601f106110b8576101008083540402835291602001916110e3565b820191906000526020600020905b8154815290600101906020018083116110c657829003601f168201915b50505050508152602001600280546110fa90615712565b80601f016020809104026020016040519081016040528092919081815260200182805461112690615712565b80156111735780601f1061114857610100808354040283529160200191611173565b820191906000526020600020905b81548152906001019060200180831161115657829003601f168201915b50505050508152602001856001600160a01b031681526020016003805461119990615712565b80601f01602080910402602001604051908101604052809291908181526020018280546111c590615712565b80156112125780601f106111e757610100808354040283529160200191611212565b820191906000526020600020905b8154815290600101906020018083116111f557829003601f168201915b50505091835250506001602082015260055463ffffffff16604082015260075460ff16151560608201526080810185905260a001839052600454600654919250600091829161126391859190612a79565b90925090506016821461127557600080fd5b6040516001600160a01b03821681527f7bb17726df1f3adee8aa00ba8e8bc5d6f182af3bbf77604639cb7f008dd3b4ed9060200160405180910390a1505050505050565b60006112c36139de565b6112cd8484612ba7565b60405182815291935091506000805160206157f38339815191529060200160405180910390a16016821461130057600080fd5b7fa516f81c528634d0fc1e993bba1d227231b4bd6d1beb72d33b056a6199c0f98881604051610a209190615589565b60006108c383836115c0565b6000611348848484612c9a565b90506000805160206157f38339815191528160405161136991815260200190565b60405180910390a16016811461137e57600080fd5b9392505050565b600080611393858585612d7a565b60405182815291935091506000805160206157f38339815191529060200160405180910390a1601682146113c657600080fd5b6040518181527f25b6684a7e8fe1b676e9c39c8dd65034fbafea906d3bdfd97bf748b7b55e14c890602001610970565b6000606080606061140685612e66565b604051600785900b8152939750919550935091506000805160206157f38339815191529060200160405180910390a1600784900b60161461144657600080fd5b7f2efc8334b040613a552197fe34283d6ca2909c8ffae393e128424931f20c69b3838383604051611479939291906152f1565b60405180910390a19193509193565b6000611492613a19565b61149b83612f66565b60405182815291935091506000805160206157f38339815191529060200160405180910390a1601682146114ce57600080fd5b7f476a9a9b28e2717d55288b2ae3c48a72aac52b11f8bd855017c9d41d9fc1896481604051610eb491906154da565b60008061150a848461304f565b60405160079290920b808352935091506000805160206157f38339815191529060200160405180910390a16016821461154257600080fd5b60405181151581527f59800d968fcce138300a0019410b4b75041610d65b3cdc5f31656b03ed14912e90602001610a20565b6000611582858585856130a0565b90506000805160206157f3833981519152816040516115a391815260200190565b60405180910390a1601681146115b857600080fd5b949350505050565b60008060006101676001600160a01b0316636fc3cbaf60e01b86866040516024016115ec92919061524c565b60408051601f198184030181529181526020820180516001600160e01b03166001600160e01b031990941693909317909252905161162a91906151fb565b6000604051808303816000865af19150503d8060008114611667576040519150601f19603f3d011682016040523d82523d6000602084013e61166c565b606091505b50915091508161167d576015611691565b808060200190518101906116919190614843565b60030b95945050505050565b6040516001600160a01b03821660248201526000908190819061016790631f106b4b60e21b90604401610c3a565b6000610ba083836131a1565b60008060606116e78686866131f0565b60405183815292955090935091506000805160206157f38339815191529060200160405180910390a16016831461171d57600080fd5b7feff23992f47b3c101679f8b4dc9d3e242c903909dba4a453f2b2341ad463b0e2828260405161174e9291906155af565b60405180910390a193509350939050565b60008061176b836132ee565b60405182815291935091506000805160206157f38339815191529060200160405180910390a16016821461179e57600080fd5b60405181151581527f9ee19e13dfa1ba8db2502e15ff56dbecdeb0e0473323fb195473ce648030a2cd90602001610eb4565b604080516001808252818301909252600091816020015b6117ef613981565b8152602001906001900390816117e7579050509050611821600080600160405180602001604052806000815250612a0d565b8160008151811061184257634e487b7160e01b600052603260045260246000fd5b602002602001018190525060006040518060600160405280600063ffffffff168152602001856001600160a01b03168152602001627a120063ffffffff1681525090506000604051806101200160405280600180546118a090615712565b80601f01602080910402602001604051908101604052809291908181526020018280546118cc90615712565b80156119195780601f106118ee57610100808354040283529160200191611919565b820191906000526020600020905b8154815290600101906020018083116118fc57829003601f168201915b505050505081526020016002805461193090615712565b80601f016020809104026020016040519081016040528092919081815260200182805461195c90615712565b80156119a95780601f1061197e576101008083540402835291602001916119a9565b820191906000526020600020905b81548152906001019060200180831161198c57829003601f168201915b50505050508152602001866001600160a01b03168152602001600380546119cf90615712565b80601f01602080910402602001604051908101604052809291908181526020018280546119fb90615712565b8015611a485780601f10611a1d57610100808354040283529160200191611a48565b820191906000526020600020905b815481529060010190602001808311611a2b57829003601f168201915b505050918352505060016020820181905260055463ffffffff166040808401919091526000606084018190526080840188905260a09093018690528051828152808201909152929350909190816020015b6040805160a081018252600080825260208083018290529282018190526060820181905260808201528252600019909201910181611a995750506040805160a081018252600181526001600160a01b03888116602083015260009282018390526060820183905289166080820152825192935091839190611b2a57634e487b7160e01b600052603260045260246000fd5b6020908102919091010152604080516001808252818301909252600091816020015b6040805160c08101825260008082526020808301829052928201819052606082018190526080820181905260a08201528252600019909201910181611b4c5750506040805160c0810182526004815260056020820152600a91810191909152601e60608201526000608082018190526001600160a01b038a1660a083015282519293509091839190611bee57634e487b7160e01b600052603260045260246000fd5b6020026020010181905250600080611c0d856004546006548787613337565b915091506000805160206157f383398151915282604051611c3091815260200190565b60405180910390a160168214611c4557600080fd5b6040516001600160a01b03821681527f7bb17726df1f3adee8aa00ba8e8bc5d6f182af3bbf77604639cb7f008dd3b4ed9060200160405180910390a1505050505050505050565b6040516001600160a01b038381166024830152821660448201526000908190819061016790638f8d7f9960e01b906064016115ec565b6000611ccd8261346b565b90506000805160206157f383398151915281604051611cee91815260200190565b60405180910390a160168114611d0357600080fd5b919050565b604051633cb0c7fd60e21b81526001600160a01b038084166004830152821660248201526000908190309063f2c31ff4906044016040805180830381600087803b158015611d5557600080fd5b505af1158015611d69573d6000803e3d6000fd5b505050506040513d601f19601f82011682018060405250810190611d8d9190614c44565b604051600783900b815291935091506000805160206157f38339815191529060200160405180910390a1600782900b601614611dc857600080fd5b60405181151581527fd24dda6928587354b65aa1a18c2eaf249bef7e5bafd2a71fac71d286f76f957f90602001610a20565b6040516001600160a01b03838116602483015282166044820152600090819081906101679063af99c63360e01b906064016115ec565b60408051600580825260c08201909252600091816020015b611e50613981565b815260200190600190039081611e48579050509050611e8360006006600160405180602001604052806000815250612a0d565b81600081518110611ea457634e487b7160e01b600052603260045260246000fd5b6020026020010181905250611eca60018060405180602001604052806000815250612a44565b81600181518110611eeb57634e487b7160e01b600052603260045260246000fd5b6020026020010181905250611f126002600160405180602001604052806000815250612a44565b81600281518110611f3357634e487b7160e01b600052603260045260246000fd5b6020026020010181905250611f5a6004600160405180602001604052806000815250612a44565b81600381518110611f7b57634e487b7160e01b600052603260045260246000fd5b6020026020010181905250611fa26003600160405180602001604052806000815250612a44565b81600481518110611fc357634e487b7160e01b600052603260045260246000fd5b602002602001018190525060006040518060600160405280600063ffffffff168152602001846001600160a01b03168152602001627a120063ffffffff16815250905060006040518061012001604052806001805461202190615712565b80601f016020809104026020016040519081016040528092919081815260200182805461204d90615712565b801561209a5780601f1061206f5761010080835404028352916020019161209a565b820191906000526020600020905b81548152906001019060200180831161207d57829003601f168201915b50505050508152602001600280546120b190615712565b80601f01602080910402602001604051908101604052809291908181526020018280546120dd90615712565b801561212a5780601f106120ff5761010080835404028352916020019161212a565b820191906000526020600020905b81548152906001019060200180831161210d57829003601f168201915b50505050508152602001856001600160a01b031681526020016003805461215090615712565b80601f016020809104026020016040519081016040528092919081815260200182805461217c90615712565b80156121c95780601f1061219e576101008083540402835291602001916121c9565b820191906000526020600020905b8154815290600101906020018083116121ac57829003601f168201915b50505091835250506001602082015260055463ffffffff16604082015260075460ff16151560608201526080810185905260a0018390529050600080611263836134b2565b600061134884848461359c565b60408051600080825260208201909252819081612260565b60408051606081018252600080825260208083018290529282015282526000199092019101816122335790505b50905060006040518060400160405280336001600160a01b03168152602001856122899061574d565b600790810b9091526040805180820182526001600160a01b038a1681529187900b602083015280516002808252606082019092529293509091600091816020015b60408051808201909152600080825260208201528152602001906001900390816122ca579050509050828160008151811061231557634e487b7160e01b600052603260045260246000fd5b6020026020010181905250818160018151811061234257634e487b7160e01b600052603260045260246000fd5b602090810291909101810191909152604080516060810182526001600160a01b038a16815291820183905281810186905280516001808252818301909252600091816020015b6123b5604051806060016040528060006001600160a01b0316815260200160608152602001606081525090565b81526020019060019003908161238857905050905081816000815181106123ec57634e487b7160e01b600052603260045260246000fd5b6020026020010181905250612400816135f7565b96506016871461240f57600080fd5b5050505050509392505050565b6000611348848484613621565b6040516001600160a01b0383811660248301528216604482015260009081908190819061016790633cb0c7fd60e21b906064015b60408051601f198184030181529181526020820180516001600160e01b03166001600160e01b031990941693909317909252905161249b91906151fb565b6000604051808303816000865af19150503d80600081146124d8576040519150601f19603f3d011682016040523d82523d6000602084013e6124dd565b606091505b5091509150816124f05760156000612504565b80806020019051810190612504919061491d565b60039190910b97909650945050505050565b6000612520613a39565b61252983613678565b60405182815291935091506000805160206157f38339815191529060200160405180910390a16016821461255c57600080fd5b7f528c7dcea75f0c9e110a038e50647cd6a70ac06d331399b77dd9a80f903ebc1681604051610eb4919061559c565b60006125978383613761565b90506000805160206157f383398151915281604051610bc491815260200190565b604051633b3bff0f60e01b81526001600160a01b03821660048201526000903090633b3bff0f90602401602060405180830381600087803b1580156125fc57600080fd5b505af1158015612610573d6000803e3d6000fd5b505050506040513d601f19601f82011682018060405250810190612634919061482b565b90506000805160206157f38339815191528160405161265591815260200190565b60405180910390a16016811461266a57600080fd5b604051600181527f319ab7084208e4afa38c6e6ff7aea9587439f2e4700746f4c7d425fea17426d290602001610b87565b60006113488484846137b0565b6007805460ff191682151590811790915560405160ff909116151581527f457c3a16a0ebdc38e3675609957ca3fcc4490e220bd15d85d34f58e2e145cb089060200160405180910390a150565b604080516001600160a01b0385811660248301528481166044830152831660648083019190915282518083039091018152608490910182526020810180516001600160e01b03167ff49f40db00000000000000000000000000000000000000000000000000000000179052905160009182918291829161016791612778916151fb565b6000604051808303816000865af19150503d80600081146127b5576040519150601f19603f3d011682016040523d82523d6000602084013e6127ba565b606091505b5091509150816127cd5760156000610e34565b80806020019051810190610e34919061491d565b604080516001600160a01b0384166024820152604480820184905282518083039091018152606490910182526020810180516001600160e01b03167f098f236600000000000000000000000000000000000000000000000000000000179052905160009182918291829161016791612858916151fb565b6000604051808303816000865af19150503d8060008114612895576040519150601f19603f3d011682016040523d82523d6000602084013e61289a565b606091505b5091509150816128ad5760156000612504565b80806020019051810190612504919061485d565b6040516001600160a01b0383811660248301528216604482015260009081908190610167907f52f9138700000000000000000000000000000000000000000000000000000000906064016115ec565b6040516001600160a01b0382166024820152600090819081908190610167907fa7daa18d00000000000000000000000000000000000000000000000000000000906044015b60408051601f198184030181529181526020820180516001600160e01b03166001600160e01b031990941693909317909252905161299391906151fb565b6000604051808303816000865af19150503d80600081146129d0576040519150601f19603f3d011682016040523d82523d6000602084013e6129d5565b606091505b5091509150816129e857601560006129fc565b808060200190518101906129fc919061491d565b60039190910b969095509350505050565b612a15613981565b6040518060400160405280612a2a8787613806565b8152602001612a39858561381f565b905295945050505050565b612a4c613981565b6040518060400160405280612a60866138ef565b8152602001612a6f858561381f565b9052949350505050565b600080848061010001516000015163ffffffff166000148015612aa957506101008101516040015163ffffffff16155b15612abf576101008101516276a7006040909101525b6000806101676001600160a01b031634637812a04b60e01b8a8a8a604051602401612aec93929190615500565b60408051601f198184030181529181526020820180516001600160e01b03166001600160e01b0319909416939093179092529051612b2a91906151fb565b60006040518083038185875af1925050503d8060008114612b67576040519150601f19603f3d011682016040523d82523d6000602084013e612b6c565b606091505b509150915081612b7f5760156000612b93565b80806020019051810190612b93919061485d565b60039190910b999098509650505050505050565b6000612bb16139de565b604080516001600160a01b0386166024820152600785900b60448083019190915282518083039091018152606490910182526020810180516001600160e01b03167f287e1da8000000000000000000000000000000000000000000000000000000001790529051600091829161016791612c2a916151fb565b6000604051808303816000865af19150503d8060008114612c67576040519150601f19603f3d011682016040523d82523d6000602084013e612c6c565b606091505b5091509150612c796139de565b82612c8657601581610e34565b81806020019051810190610e349190614a26565b60008060006101676001600160a01b031663f7f38e2660e01b878787604051602401612cc893929190615217565b60408051601f198184030181529181526020820180516001600160e01b03166001600160e01b0319909416939093179092529051612d0691906151fb565b6000604051808303816000865af19150503d8060008114612d43576040519150601f19603f3d011682016040523d82523d6000602084013e612d48565b606091505b509150915081612d59576015612d6d565b80806020019051810190612d6d9190614843565b60030b9695505050505050565b604080516001600160a01b0385811660248301528481166044830152831660648083019190915282518083039091018152608490910182526020810180516001600160e01b03167f927da10500000000000000000000000000000000000000000000000000000000179052905160009182918291829161016791612dfd916151fb565b6000604051808303816000865af19150503d8060008114612e3a576040519150601f19603f3d011682016040523d82523d6000602084013e612e3f565b606091505b509150915081612e525760156000610e34565b80806020019051810190610e349190614b4b565b604080516001600160a01b03831660248083019190915282518083039091018152604490910182526020810180516001600160e01b03167fae7611a0000000000000000000000000000000000000000000000000000000001790529051600091606091829182918591829161016791612ede916151fb565b6000604051808303816000865af19150503d8060008114612f1b576040519150601f19603f3d011682016040523d82523d6000602084013e612f20565b606091505b5091509150606080606084612f39576015838383612f4d565b83806020019051810190612f4d9190614888565b60039390930b9d919c509a509098509650505050505050565b6000612f70613a19565b604080516001600160a01b03851660248083019190915282518083039091018152604490910182526020810180516001600160e01b03167f3f28a19b000000000000000000000000000000000000000000000000000000001790529051600091829161016791612fdf916151fb565b6000604051808303816000865af19150503d806000811461301c576040519150601f19603f3d011682016040523d82523d6000602084013e613021565b606091505b509150915061302e613a19565b8261303b57601581612504565b818060200190518101906125049190614948565b6040516001600160a01b03838116602483015282166044820152600090819081908190610167907f46de0fb1000000000000000000000000000000000000000000000000000000009060640161245d565b604080516001600160a01b038681166024830152858116604483015284166064820152600783900b6084808301919091528251808303909101815260a490910182526020810180516001600160e01b03167f5cfc9011000000000000000000000000000000000000000000000000000000001790529051600091829182916101679161312c91906151fb565b6000604051808303816000865af19150503d8060008114613169576040519150601f19603f3d011682016040523d82523d6000602084013e61316e565b606091505b50915091508161317f576015613193565b808060200190518101906131939190614843565b60030b979650505050505050565b6040516001600160a01b0383811660248301528216604482015260009081908190610167907f5b8f858400000000000000000000000000000000000000000000000000000000906064016115ec565b60008060606000806101676001600160a01b031663278e0b8860e01b8989896040516024016132219392919061526e565b60408051601f198184030181529181526020820180516001600160e01b03166001600160e01b031990941693909317909252905161325f91906151fb565b6000604051808303816000865af19150503d806000811461329c576040519150601f19603f3d011682016040523d82523d6000602084013e6132a1565b606091505b5091509150816132c45760408051600080825260208201909252601591906132d8565b808060200190518101906132d89190614b76565b60039290920b9a90995090975095505050505050565b6040516001600160a01b0382166024820152600090819081908190610167907f335e04c10000000000000000000000000000000000000000000000000000000090604401612955565b600080868061010001516000015163ffffffff16600014801561336757506101008101516040015163ffffffff16155b1561337d576101008101516276a7006040909101525b6000806101676001600160a01b031634634c381ae760e01b8c8c8c8c8c6040516024016133ae959493929190615525565b60408051601f198184030181529181526020820180516001600160e01b03166001600160e01b03199094169390931790925290516133ec91906151fb565b60006040518083038185875af1925050503d8060008114613429576040519150601f19603f3d011682016040523d82523d6000602084013e61342e565b606091505b5091509150816134415760156000613455565b80806020019051810190613455919061485d565b60039190910b9b909a5098505050505050505050565b6040516001600160a01b038216602482015260009081908190610167907ff069f7120000000000000000000000000000000000000000000000000000000090604401610c3a565b600080828061010001516000015163ffffffff1660001480156134e257506101008101516040015163ffffffff16155b156134f8576101008101516276a7006040909101525b6000806101676001600160a01b031634639dc711e060e01b8860405160240161352191906154ed565b60408051601f198184030181529181526020820180516001600160e01b03166001600160e01b031990941693909317909252905161355f91906151fb565b60006040518083038185875af1925050503d8060008114612895576040519150601f19603f3d011682016040523d82523d6000602084013e61289a565b6040516001600160a01b0384811660248301528316604482015263ffffffff8216606482015260009081908190610167907f9790686d0000000000000000000000000000000000000000000000000000000090608401612cc8565b60008060006101676001600160a01b031663189a554c60e01b85604051602401610c3a919061532a565b6040516001600160a01b03848116602483015283166044820152811515606482015260009081908190610167907f367605ca0000000000000000000000000000000000000000000000000000000090608401612cc8565b6000613682613a39565b604080516001600160a01b03851660248083019190915282518083039091018152604490910182526020810180516001600160e01b03167f1f69565f0000000000000000000000000000000000000000000000000000000017905290516000918291610167916136f1916151fb565b6000604051808303816000865af19150503d806000811461372e576040519150601f19603f3d011682016040523d82523d6000602084013e613733565b606091505b5091509150613740613a39565b8261374d57601581612504565b818060200190518101906125049190614b09565b6040516001600160a01b0383811660248301528216604482015260009081908190610167907f49146bde00000000000000000000000000000000000000000000000000000000906064016115ec565b6040516001600160a01b038481166024830152831660448201526064810182905260009081908190610167907fe1f21c670000000000000000000000000000000000000000000000000000000090608401612cc8565b6000600160ff84161b9050600160ff83161b811761137e565b6138656040518060a0016040528060001515815260200160006001600160a01b03168152602001606081526020016060815260200160006001600160a01b031681525090565b8260ff166001141561387a57600181526108fc565b8260ff166002141561389c576000546001600160a01b031660208201526108fc565b8260ff16600314156138b457604081018290526108fc565b8260ff16600414156138cc57606081018290526108fc565b8260ff16600514156108fc576000546001600160a01b0316608082015292915050565b600060ff821661390157506001919050565b8160ff166001141561391557506002919050565b8160ff166002141561392957506004919050565b8160ff166003141561393d57506008919050565b8160ff166004141561395157506010919050565b8160ff166005141561396557506020919050565b8160ff166006141561397957506040919050565b506000919050565b6040518060400160405280600081526020016139d96040518060a0016040528060001515815260200160006001600160a01b03168152602001606081526020016060815260200160006001600160a01b031681525090565b905290565b6040518060c001604052806139f1613a39565b8152600060208201819052604082018190526060808301829052608083015260a09091015290565b6040518060400160405280613a2c613a39565b8152600060209091015290565b60408051610240810182526060610120820181815261014083018290526000610160840181905261018084018390526101a084018190526101c084018190526101e0840181905261020084018390528451928301855280835260208301819052938201939093526102208201529081908152602001600067ffffffffffffffff168152602001600015158152602001600015158152602001600015158152602001606081526020016060815260200160608152602001606081525090565b8035611d0381615795565b8051611d0381615795565b600082601f830112613b1d578081fd5b81516020613b32613b2d83615696565b615665565b8281528181019085830160a080860288018501891015613b50578687fd5b865b86811015613bd95781838b031215613b68578788fd5b613b706155d2565b8351613b7b816157ca565b815283870151613b8a81615795565b81880152604084810151613b9d816157ad565b90820152606084810151613bb0816157ad565b90820152608084810151613bc381615795565b9082015285529385019391810191600101613b52565b509198975050505050505050565b600082601f830112613bf7578081fd5b81516020613c07613b2d83615696565b8281528181019085830160c080860288018501891015613c25578687fd5b865b86811015613bd95781838b031215613c3d578788fd5b613c456155fb565b8351613c50816157ca565b815283870151613c5f816157ca565b81880152604084810151613c72816157ca565b90820152606084810151613c85816157ca565b90820152608084810151613c98816157ad565b9082015260a084810151613cab81615795565b9082015285529385019391810191600101613c27565b600082601f830112613cd1578081fd5b81516020613ce1613b2d83615696565b8281528181019085830160c080860288018501891015613cff578687fd5b865b86811015613bd95781838b031215613d17578788fd5b613d1f6155fb565b8351613d2a816157ca565b815283870151613d39816157ca565b81880152604084810151613d4c816157ca565b90820152606084810151613d5f81615795565b90820152608084810151613d72816157ad565b9082015260a084810151613d8581615795565b9082015285529385019391810191600101613d01565b600082601f830112613dab578081fd5b81516020613dbb613b2d83615696565b80838252828201915082860187848660051b8901011115613dda578586fd5b855b85811015613e5957815167ffffffffffffffff80821115613dfb578889fd5b908901906040828c03601f1901811315613e1357898afd5b613e1b61561e565b838901518152908301519082821115613e32578a8bfd5b613e408d8a848701016140a4565b818a015287525050509284019290840190600101613ddc565b5090979650505050505050565b8051611d03816157ad565b600082601f830112613e81578081fd5b8135613e8f613b2d826156ba565b818152846020838601011115613ea3578283fd5b816020850160208301379081016020019190915292915050565b600082601f830112613ecd578081fd5b8151613edb613b2d826156ba565b818152846020838601011115613eef578283fd5b6115b88260208301602087016156e2565b8051600381900b8114611d0357600080fd5b8051611d03816157bb565b600060608284031215613f2e578081fd5b6040516060810181811067ffffffffffffffff82111715613f5157613f5161577f565b80604052508091508251613f64816157ca565b81526020830151613f7481615795565b60208201526040830151613f87816157ca565b6040919091015292915050565b60006101608284031215613fa6578081fd5b613fae615641565b9050815167ffffffffffffffff80821115613fc857600080fd5b613fd485838601613ebd565b83526020840151915080821115613fea57600080fd5b613ff685838601613ebd565b602084015261400760408501613b02565b6040840152606084015191508082111561402057600080fd5b61402c85838601613ebd565b606084015261403d60808501613e66565b608084015261404e60a0850161426d565b60a084015261405f60c08501613e66565b60c084015260e084015191508082111561407857600080fd5b5061408584828501613d9b565b60e08301525061010061409a84828501613f1d565b9082015292915050565b600060a082840312156140b5578081fd5b6140bd6155d2565b905081516140ca816157ad565b815260208201516140da81615795565b6020820152604082015167ffffffffffffffff808211156140fa57600080fd5b61410685838601613ebd565b6040840152606084015191508082111561411f57600080fd5b5061412c84828501613ebd565b60608301525061413e60808301613b02565b608082015292915050565b6000610120828403121561415b578081fd5b614163615641565b9050815167ffffffffffffffff8082111561417d57600080fd5b61418985838601613f94565b835261419760208501614278565b60208401526141a860408501613e66565b60408401526141b960608501613e66565b60608401526141ca60808501613e66565b608084015260a08401519150808211156141e357600080fd5b6141ef85838601613b0d565b60a084015260c084015191508082111561420857600080fd5b61421485838601613be7565b60c084015260e084015191508082111561422d57600080fd5b61423985838601613cc1565b60e08401526101009150818401518181111561425457600080fd5b61426086828701613ebd565b8385015250505092915050565b8051611d03816157ca565b8051611d03816157dc565b600060208284031215614294578081fd5b813561137e81615795565b600080604083850312156142b1578081fd5b82356142bc81615795565b915060208301356142cc81615795565b809150509250929050565b6000806000606084860312156142eb578081fd5b83356142f681615795565b9250602084013561430681615795565b9150604084013561431681615795565b809150509250925092565b60008060008060808587031215614336578182fd5b843561434181615795565b9350602085013561435181615795565b9250604085013561436181615795565b91506060850135614371816157bb565b939692955090935050565b600080600060608486031215614390578081fd5b833561439b81615795565b92506020848101356143ac81615795565b9250604085013567ffffffffffffffff8111156143c7578283fd5b8501601f810187136143d7578283fd5b80356143e5613b2d82615696565b8082825284820191508484018a868560051b8701011115614404578687fd5b8694505b8385101561442f57803561441b816157bb565b835260019490940193918501918501614408565b5080955050505050509250925092565b600080600060608486031215614453578081fd5b833561445e81615795565b9250602084013561446e81615795565b91506040840135614316816157ad565b600080600060608486031215614492578081fd5b833561449d81615795565b925060208401356144ad81615795565b91506040840135614316816157bb565b6000806000606084860312156144d1578081fd5b83356144dc81615795565b925060208401356144ec81615795565b929592945050506040919091013590565b600080600060608486031215614511578081fd5b833561451c81615795565b9250602084013561452c81615795565b91506040840135614316816157ca565b6000806040838503121561454e578182fd5b6145588335615795565b8235915067ffffffffffffffff8060208501351115614575578182fd5b6020840135840185601f82011261458a578283fd5b614597613b2d8235615696565b808235825260208201915060208301886020853560051b86010111156145bb578586fd5b855b84358110156146d15785823511156145d3578687fd5b81358501601f196040828d03820112156145eb578889fd5b6145f361561e565b60208301358152886040840135111561460a57898afd5b60408301358301925060a082848f0301121561462457898afd5b61462c6155d2565b915061463b60208401356157ad565b6020830135825261464e60408401613af7565b6020830152886060840135111561466357898afd5b6146768d60206060860135860101613e71565b6040830152886080840135111561468b57898afd5b61469e8d60206080860135860101613e71565b60608301526146af60a08401613af7565b60808301526020818101929092528652948501949290920191506001016145bd565b50959890975095505050505050565b600080604083850312156146f2578182fd5b82356146fd81615795565b915060208301356142cc816157bb565b6000806040838503121561471f578182fd5b823561472a81615795565b946020939093013593505050565b60008060006060848603121561474c578081fd5b833561475781615795565b9250602084810135614768816157dc565b9250604085013567ffffffffffffffff80821115614784578384fd5b818701915087601f830112614797578384fd5b81356147a5613b2d82615696565b8082825285820191508585018b878560051b88010111156147c4578788fd5b875b848110156147fd578135868111156147dc57898afd5b6147ea8e8a838b0101613e71565b85525092870192908701906001016147c6565b50508096505050505050509250925092565b600060208284031215614820578081fd5b813561137e816157ad565b60006020828403121561483c578081fd5b5051919050565b600060208284031215614854578081fd5b61137e82613f00565b6000806040838503121561486f578182fd5b61487883613f00565b915060208301516142cc81615795565b6000806000806080858703121561489d578182fd5b6148a685613f00565b9350602085015167ffffffffffffffff808211156148c2578384fd5b6148ce88838901613b0d565b945060408701519150808211156148e3578384fd5b6148ef88838901613be7565b93506060870151915080821115614904578283fd5b5061491187828801613cc1565b91505092959194509250565b6000806040838503121561492f578182fd5b61493883613f00565b915060208301516142cc816157ad565b6000806040838503121561495a578182fd5b61496383613f00565b9150602083015167ffffffffffffffff8082111561497f578283fd5b9084019060408287031215614992578283fd5b61499a61561e565b8251828111156149a8578485fd5b6149b488828601614149565b825250602083015192506149c7836157ca565b8260208201528093505050509250929050565b600080604083850312156149ec578182fd5b6149f583613f00565b9150602083015167ffffffffffffffff811115614a10578182fd5b614a1c858286016140a4565b9150509250929050565b60008060408385031215614a38578182fd5b614a4183613f00565b9150602083015167ffffffffffffffff80821115614a5d578283fd5b9084019060c08287031215614a70578283fd5b614a786155fb565b825182811115614a86578485fd5b614a9288828601614149565b825250614aa160208401613f12565b6020820152614ab260408401613b02565b6040820152614ac360608401613f12565b6060820152608083015182811115614ad9578485fd5b614ae588828601613ebd565b608083015250614af760a08401613b02565b60a08201528093505050509250929050565b60008060408385031215614b1b578182fd5b614b2483613f00565b9150602083015167ffffffffffffffff811115614b3f578182fd5b614a1c85828601614149565b60008060408385031215614b5d578182fd5b614b6683613f00565b9150602083015190509250929050565b600080600060608486031215614b8a578081fd5b614b9384613f00565b9250602080850151614ba4816157dc565b604086015190935067ffffffffffffffff811115614bc0578283fd5b8501601f81018713614bd0578283fd5b8051614bde613b2d82615696565b8082825284820191508484018a868560051b8701011115614bfd578687fd5b8694505b8385101561442f578051614c14816157bb565b835260019490940193918501918501614c01565b600060208284031215614c39578081fd5b815161137e816157bb565b60008060408385031215614c56578182fd5b8251614c61816157bb565b60208401519092506142cc816157ad565b6000815180845260208085019450808401835b83811015614ca457815160070b87529582019590820190600101614c85565b509495945050505050565b6000815180845260208085019450808401835b83811015614ca4578151805163ffffffff168852838101516001600160a01b03908116858a01526040808301511515908a01526060808301511515908a0152608091820151169088015260a09096019590820190600101614cc2565b6000815180845260208085019450808401835b83811015614ca4578151805163ffffffff9081168952848201518116858a01526040808301518216908a01526060808301519091169089015260808082015115159089015260a0908101516001600160a01b03169088015260c09096019590820190600101614d31565b6000815180845260208085019450808401835b83811015614ca457815180516001600160a01b03908116895284820151168489015260409081015160070b9088015260609096019590820190600101614dae565b6000815180845260208085019450808401835b83811015614ca4578151805163ffffffff9081168952848201518116858a0152604080830151909116908901526060808201516001600160a01b03908116918a01919091526080808301511515908a015260a091820151169088015260c09096019590820190600101614e02565b600081518084526020808501808196508360051b81019150828601855b85811015614ecb5782840389528151805185528501516040868601819052614eb781870183615036565b9a87019a9550505090840190600101614e8d565b5091979650505050505050565b60008151808452614ef08160208601602086016156e2565b601f01601f19169290920160200192915050565b6000815160408452614f19604085018261511a565b60209384015163ffffffff16949093019390935250919050565b60006101608251818552614f4982860182614ed8565b91505060208301518482036020860152614f638282614ed8565b9150506040830151614f8060408601826001600160a01b03169052565b5060608301518482036060860152614f988282614ed8565b9150506080830151614fae608086018215159052565b5060a0830151614fc660a086018263ffffffff169052565b5060c0830151614fda60c086018215159052565b5060e083015184820360e0860152614ff28282614e70565b61010085810151805163ffffffff9081168984015260208201516001600160a01b03166101208a015260408201511661014089015291935091505090949350505050565b805115158252600060208201516001600160a01b0380821660208601526040840151915060a0604086015261506e60a0860183614ed8565b9150606084015185830360608701526150878382614ed8565b925050806080850151166080860152508091505092915050565b6000815160c084526150b660c085018261511a565b9050602083015160070b602085015260408301516001600160a01b038082166040870152606085015160070b60608701526080850151915085830360808701526151008383614ed8565b92508060a08601511660a087015250508091505092915050565b6000610120825181855261513082860182614f33565b915050602083015161514e602086018267ffffffffffffffff169052565b506040830151615162604086018215159052565b506060830151615176606086018215159052565b50608083015161518a608086018215159052565b5060a083015184820360a08601526151a28282614caf565b91505060c083015184820360c08601526151bc8282614d1e565b91505060e083015184820360e08601526151d68282614def565b91505061010080840151858303828701526151f18382614ed8565b9695505050505050565b6000825161520d8184602087016156e2565b9190910192915050565b60006001600160a01b038086168352808516602084015250606060408301526152436060830184614c72565b95945050505050565b6001600160a01b03831681526040602082015260006115b86040830184614e70565b6000606082016001600160a01b0386168352602067ffffffffffffffff8616818501526060604085015281855180845260808601915060808160051b8701019350828701855b828110156152e257607f198887030184526152d0868351614ed8565b955092840192908401906001016152b4565b50939998505050505050505050565b6060815260006153046060830186614caf565b82810360208401526153168186614d1e565b905082810360408401526151f18185614def565b60006020808301818452808551808352604092508286019150828160051b870101848801865b838110156153ef57888303603f19018552815180516001600160a01b0390811685528882015160608a870181905281519087018190526080870192918b0191908c905b808210156153c15783518051841686528d015160070b8d860152938b0193928c019260019190910190615393565b505050509087015184820385890152906153db8183614d9b565b968901969450505090860190600101615350565b509098975050505050505050565b8281526040602082015260006115b86040830184614f04565b8281526040602082015260006115b860408301846150a1565b8281526040602082015260006115b8604083018461511a565b83815267ffffffffffffffff831660208201526060604082015260006152436060830184614c72565b8460070b815260806020820152600061548d6080830186614caf565b828103604084015261549f8186614d1e565b905082810360608401526154b38185614def565b979650505050505050565b8260070b81526040602082015260006115b86040830184615036565b60208152600061137e6020830184614f04565b60208152600061137e6020830184614f33565b6060815260006155136060830186614f33565b60208301949094525060400152919050565b60a08152600061553860a0830188614f33565b86602084015285604084015282810360608401526155568186614caf565b9050828103608084015261556a8185614d1e565b98975050505050505050565b60208152600061137e6020830184615036565b60208152600061137e60208301846150a1565b60208152600061137e602083018461511a565b67ffffffffffffffff831681526040602082015260006115b86040830184614c72565b60405160a0810167ffffffffffffffff811182821017156155f5576155f561577f565b60405290565b60405160c0810167ffffffffffffffff811182821017156155f5576155f561577f565b6040805190810167ffffffffffffffff811182821017156155f5576155f561577f565b604051610120810167ffffffffffffffff811182821017156155f5576155f561577f565b604051601f8201601f1916810167ffffffffffffffff8111828210171561568e5761568e61577f565b604052919050565b600067ffffffffffffffff8211156156b0576156b061577f565b5060051b60200190565b600067ffffffffffffffff8211156156d4576156d461577f565b50601f01601f191660200190565b60005b838110156156fd5781810151838201526020016156e5565b8381111561570c576000848401525b50505050565b600181811c9082168061572657607f821691505b6020821081141561574757634e487b7160e01b600052602260045260246000fd5b50919050565b60008160070b677fffffffffffffff1981141561577857634e487b7160e01b82526011600452602482fd5b9003919050565b634e487b7160e01b600052604160045260246000fd5b6001600160a01b03811681146157aa57600080fd5b50565b80151581146157aa57600080fd5b8060070b81146157aa57600080fd5b63ffffffff811681146157aa57600080fd5b67ffffffffffffffff811681146157aa57600080fdfe90a5cf4cffe88b4edbb041cfc7a8a812c48a5ec30b84640fb37690875168e3aaa2646970667358221220072388609b9bcb3330f44ecfb1f5a1f713881d3144b0ce0d4b642a114e56f47e64736f6c63430008040033",
  "linkReferences": {},
  "deployedLinkReferences": {}
}