{
  "_format": "hh-sol-artifact-1",
  "contractName": "BaseHTS",
  "sourceName": "contracts/BaseHTS.sol",
  "abi": [
    {
      "anonymous": false,
      "inputs": [
        {
          "indexed": false,
          "internalType": "uint256",
          "name": "amount",
          "type": "uint256"
        }
      ],
      "name": "AllowanceValue",
      "type": "event"
    },
    {
      "anonymous": false,
      "inputs": [
        {
          "indexed": false,
          "internalType": "bool",
          "name": "approved",
          "type": "bool"
        }
      ],
      "name": "Approved",
      "type": "event"
    },
    {
      "anonymous": false,
      "inputs": [
        {
          "indexed": false,
          "internalType": "address",
          "name": "approved",
          "type": "address"
        }
      ],
      "name": "ApprovedAddress",
      "type": "event"
    },
    {
      "anonymous": false,
      "inputs": [
        {
          "indexed": false,
          "internalType": "address",
          "name": "tokenAddress",
          "type": "address"
        }
      ],
      "name": "CreatedToken",
      "type": "event"
    },
    {
      "anonymous": false,
      "inputs": [
        {
          "indexed": false,
          "internalType": "uint64",
          "name": "newTotalSupply",
          "type": "uint64"
        },
        {
          "indexed": false,
          "internalType": "int64[]",
          "name": "serialNumbers",
          "type": "int64[]"
        }
      ],
      "name": "MintedToken",
      "type": "event"
    },
    {
      "anonymous": false,
      "inputs": [
        {
          "indexed": false,
          "internalType": "int256",
          "name": "responseCode",
          "type": "int256"
        }
      ],
      "name": "ResponseCode",
      "type": "event"
    },
    {
      "anonymous": false,
      "inputs": [
        {
          "components": [
            {
              "components": [
                {
                  "components": [
                    {
                      "internalType": "string",
                      "name": "name",
                      "type": "string"
                    },
                    {
                      "internalType": "string",
                      "name": "symbol",
                      "type": "string"
                    },
                    {
                      "internalType": "address",
                      "name": "treasury",
                      "type": "address"
                    },
                    {
                      "internalType": "string",
                      "name": "memo",
                      "type": "string"
                    },
                    {
                      "internalType": "bool",
                      "name": "tokenSupplyType",
                      "type": "bool"
                    },
                    {
                      "internalType": "uint32",
                      "name": "maxSupply",
                      "type": "uint32"
                    },
                    {
                      "internalType": "bool",
                      "name": "freezeDefault",
                      "type": "bool"
                    },
                    {
                      "components": [
                        {
                          "internalType": "uint256",
                          "name": "keyType",
                          "type": "uint256"
                        },
                        {
                          "components": [
                            {
                              "internalType": "bool",
                              "name": "inheritAccountKey",
                              "type": "bool"
                            },
                            {
                              "internalType": "address",
                              "name": "contractId",
                              "type": "address"
                            },
                            {
                              "internalType": "bytes",
                              "name": "ed25519",
                              "type": "bytes"
                            },
                            {
                              "internalType": "bytes",
                              "name": "ECDSA_secp256k1",
                              "type": "bytes"
                            },
                            {
                              "internalType": "address",
                              "name": "delegatableContractId",
                              "type": "address"
                            }
                          ],
                          "internalType": "struct IHederaTokenService.KeyValue",
                          "name": "key",
                          "type": "tuple"
                        }
                      ],
                      "internalType": "struct IHederaTokenService.TokenKey[]",
                      "name": "tokenKeys",
                      "type": "tuple[]"
                    },
                    {
                      "components": [
                        {
                          "internalType": "uint32",
                          "name": "second",
                          "type": "uint32"
                        },
                        {
                          "internalType": "address",
                          "name": "autoRenewAccount",
                          "type": "address"
                        },
                        {
                          "internalType": "uint32",
                          "name": "autoRenewPeriod",
                          "type": "uint32"
                        }
                      ],
                      "internalType": "struct IHederaTokenService.Expiry",
                      "name": "expiry",
                      "type": "tuple"
                    }
                  ],
                  "internalType": "struct IHederaTokenService.HederaToken",
                  "name": "token",
                  "type": "tuple"
                },
                {
                  "internalType": "uint64",
                  "name": "totalSupply",
                  "type": "uint64"
                },
                {
                  "internalType": "bool",
                  "name": "deleted",
                  "type": "bool"
                },
                {
                  "internalType": "bool",
                  "name": "defaultKycStatus",
                  "type": "bool"
                },
                {
                  "internalType": "bool",
                  "name": "pauseStatus",
                  "type": "bool"
                },
                {
                  "components": [
                    {
                      "internalType": "uint32",
                      "name": "amount",
                      "type": "uint32"
                    },
                    {
                      "internalType": "address",
                      "name": "tokenId",
                      "type": "address"
                    },
                    {
                      "internalType": "bool",
                      "name": "useHbarsForPayment",
                      "type": "bool"
                    },
                    {
                      "internalType": "bool",
                      "name": "useCurrentTokenForPayment",
                      "type": "bool"
                    },
                    {
                      "internalType": "address",
                      "name": "feeCollector",
                      "type": "address"
                    }
                  ],
                  "internalType": "struct IHederaTokenService.FixedFee[]",
                  "name": "fixedFees",
                  "type": "tuple[]"
                },
                {
                  "components": [
                    {
                      "internalType": "uint32",
                      "name": "numerator",
                      "type": "uint32"
                    },
                    {
                      "internalType": "uint32",
                      "name": "denominator",
                      "type": "uint32"
                    },
                    {
                      "internalType": "uint32",
                      "name": "minimumAmount",
                      "type": "uint32"
                    },
                    {
                      "internalType": "uint32",
                      "name": "maximumAmount",
                      "type": "uint32"
                    },
                    {
                      "internalType": "bool",
                      "name": "netOfTransfers",
                      "type": "bool"
                    },
                    {
                      "internalType": "address",
                      "name": "feeCollector",
                      "type": "address"
                    }
                  ],
                  "internalType": "struct IHederaTokenService.FractionalFee[]",
                  "name": "fractionalFees",
                  "type": "tuple[]"
                },
                {
                  "components": [
                    {
                      "internalType": "uint32",
                      "name": "numerator",
                      "type": "uint32"
                    },
                    {
                      "internalType": "uint32",
                      "name": "denominator",
                      "type": "uint32"
                    },
                    {
                      "internalType": "uint32",
                      "name": "amount",
                      "type": "uint32"
                    },
                    {
                      "internalType": "address",
                      "name": "tokenId",
                      "type": "address"
                    },
                    {
                      "internalType": "bool",
                      "name": "useHbarsForPayment",
                      "type": "bool"
                    },
                    {
                      "internalType": "address",
                      "name": "feeCollector",
                      "type": "address"
                    }
                  ],
                  "internalType": "struct IHederaTokenService.RoyaltyFee[]",
                  "name": "royaltyFees",
                  "type": "tuple[]"
                },
                {
                  "internalType": "string",
                  "name": "ledgerId",
                  "type": "string"
                }
              ],
              "internalType": "struct IHederaTokenService.TokenInfo",
              "name": "tokenInfo",
              "type": "tuple"
            },
            {
              "internalType": "int64",
              "name": "serialNumber",
              "type": "int64"
            },
            {
              "internalType": "address",
              "name": "ownerId",
              "type": "address"
            },
            {
              "internalType": "int64",
              "name": "creationTime",
              "type": "int64"
            },
            {
              "internalType": "bytes",
              "name": "metadata",
              "type": "bytes"
            },
            {
              "internalType": "address",
              "name": "spenderId",
              "type": "address"
            }
          ],
          "indexed": false,
          "internalType": "struct IHederaTokenService.NonFungibleTokenInfo",
          "name": "tokenInfo",
          "type": "tuple"
        }
      ],
      "name": "TokenInfo",
      "type": "event"
    },
    {
      "inputs": [
        {
          "internalType": "address",
          "name": "token",
          "type": "address"
        },
        {
          "internalType": "address",
          "name": "owner",
          "type": "address"
        },
        {
          "internalType": "address",
          "name": "spender",
          "type": "address"
        }
      ],
      "name": "allowancePublic",
      "outputs": [
        {
          "internalType": "int256",
          "name": "responseCode",
          "type": "int256"
        },
        {
          "internalType": "uint256",
          "name": "amount",
          "type": "uint256"
        }
      ],
      "stateMutability": "nonpayable",
      "type": "function"
    },
    {
      "inputs": [
        {
          "internalType": "address",
          "name": "token",
          "type": "address"
        },
        {
          "internalType": "address",
          "name": "approved",
          "type": "address"
        },
        {
          "internalType": "uint256",
          "name": "serialNumber",
          "type": "uint256"
        }
      ],
      "name": "approveNFTPublic",
      "outputs": [
        {
          "internalType": "int256",
          "name": "responseCode",
          "type": "int256"
        }
      ],
      "stateMutability": "nonpayable",
      "type": "function"
    },
    {
      "inputs": [
        {
          "internalType": "address",
          "name": "token",
          "type": "address"
        },
        {
          "internalType": "address",
          "name": "spender",
          "type": "address"
        },
        {
          "internalType": "uint256",
          "name": "amount",
          "type": "uint256"
        }
      ],
      "name": "approvePublic",
      "outputs": [
        {
          "internalType": "int256",
          "name": "responseCode",
          "type": "int256"
        }
      ],
      "stateMutability": "nonpayable",
      "type": "function"
    },
    {
      "inputs": [
        {
          "internalType": "address",
          "name": "account",
          "type": "address"
        },
        {
          "internalType": "address",
          "name": "token",
          "type": "address"
        }
      ],
      "name": "associateTokenPublic",
      "outputs": [
        {
          "internalType": "int256",
          "name": "responseCode",
          "type": "int256"
        }
      ],
      "stateMutability": "nonpayable",
      "type": "function"
    },
    {
      "inputs": [
        {
          "internalType": "address",
          "name": "treasury",
          "type": "address"
        }
      ],
      "name": "createFungibleTokenPublic",
      "outputs": [],
      "stateMutability": "payable",
      "type": "function"
    },
    {
      "inputs": [
        {
          "internalType": "address",
          "name": "treasury",
          "type": "address"
        }
      ],
      "name": "createNonFungibleTokenPublic",
      "outputs": [],
      "stateMutability": "payable",
      "type": "function"
    },
    {
      "inputs": [
        {
          "internalType": "address",
          "name": "token",
          "type": "address"
        },
        {
          "internalType": "uint256",
          "name": "serialNumber",
          "type": "uint256"
        }
      ],
      "name": "getApprovedPublic",
      "outputs": [
        {
          "internalType": "int256",
          "name": "responseCode",
          "type": "int256"
        },
        {
          "internalType": "address",
          "name": "approved",
          "type": "address"
        }
      ],
      "stateMutability": "nonpayable",
      "type": "function"
    },
    {
      "inputs": [
        {
          "internalType": "address",
          "name": "token",
          "type": "address"
        },
        {
          "internalType": "int64",
          "name": "serialNumber",
          "type": "int64"
        }
      ],
      "name": "getNonFungibleTokenInfoPublic",
      "outputs": [
        {
          "internalType": "int256",
          "name": "responseCode",
          "type": "int256"
        },
        {
          "components": [
            {
              "components": [
                {
                  "components": [
                    {
                      "internalType": "string",
                      "name": "name",
                      "type": "string"
                    },
                    {
                      "internalType": "string",
                      "name": "symbol",
                      "type": "string"
                    },
                    {
                      "internalType": "address",
                      "name": "treasury",
                      "type": "address"
                    },
                    {
                      "internalType": "string",
                      "name": "memo",
                      "type": "string"
                    },
                    {
                      "internalType": "bool",
                      "name": "tokenSupplyType",
                      "type": "bool"
                    },
                    {
                      "internalType": "uint32",
                      "name": "maxSupply",
                      "type": "uint32"
                    },
                    {
                      "internalType": "bool",
                      "name": "freezeDefault",
                      "type": "bool"
                    },
                    {
                      "components": [
                        {
                          "internalType": "uint256",
                          "name": "keyType",
                          "type": "uint256"
                        },
                        {
                          "components": [
                            {
                              "internalType": "bool",
                              "name": "inheritAccountKey",
                              "type": "bool"
                            },
                            {
                              "internalType": "address",
                              "name": "contractId",
                              "type": "address"
                            },
                            {
                              "internalType": "bytes",
                              "name": "ed25519",
                              "type": "bytes"
                            },
                            {
                              "internalType": "bytes",
                              "name": "ECDSA_secp256k1",
                              "type": "bytes"
                            },
                            {
                              "internalType": "address",
                              "name": "delegatableContractId",
                              "type": "address"
                            }
                          ],
                          "internalType": "struct IHederaTokenService.KeyValue",
                          "name": "key",
                          "type": "tuple"
                        }
                      ],
                      "internalType": "struct IHederaTokenService.TokenKey[]",
                      "name": "tokenKeys",
                      "type": "tuple[]"
                    },
                    {
                      "components": [
                        {
                          "internalType": "uint32",
                          "name": "second",
                          "type": "uint32"
                        },
                        {
                          "internalType": "address",
                          "name": "autoRenewAccount",
                          "type": "address"
                        },
                        {
                          "internalType": "uint32",
                          "name": "autoRenewPeriod",
                          "type": "uint32"
                        }
                      ],
                      "internalType": "struct IHederaTokenService.Expiry",
                      "name": "expiry",
                      "type": "tuple"
                    }
                  ],
                  "internalType": "struct IHederaTokenService.HederaToken",
                  "name": "token",
                  "type": "tuple"
                },
                {
                  "internalType": "uint64",
                  "name": "totalSupply",
                  "type": "uint64"
                },
                {
                  "internalType": "bool",
                  "name": "deleted",
                  "type": "bool"
                },
                {
                  "internalType": "bool",
                  "name": "defaultKycStatus",
                  "type": "bool"
                },
                {
                  "internalType": "bool",
                  "name": "pauseStatus",
                  "type": "bool"
                },
                {
                  "components": [
                    {
                      "internalType": "uint32",
                      "name": "amount",
                      "type": "uint32"
                    },
                    {
                      "internalType": "address",
                      "name": "tokenId",
                      "type": "address"
                    },
                    {
                      "internalType": "bool",
                      "name": "useHbarsForPayment",
                      "type": "bool"
                    },
                    {
                      "internalType": "bool",
                      "name": "useCurrentTokenForPayment",
                      "type": "bool"
                    },
                    {
                      "internalType": "address",
                      "name": "feeCollector",
                      "type": "address"
                    }
                  ],
                  "internalType": "struct IHederaTokenService.FixedFee[]",
                  "name": "fixedFees",
                  "type": "tuple[]"
                },
                {
                  "components": [
                    {
                      "internalType": "uint32",
                      "name": "numerator",
                      "type": "uint32"
                    },
                    {
                      "internalType": "uint32",
                      "name": "denominator",
                      "type": "uint32"
                    },
                    {
                      "internalType": "uint32",
                      "name": "minimumAmount",
                      "type": "uint32"
                    },
                    {
                      "internalType": "uint32",
                      "name": "maximumAmount",
                      "type": "uint32"
                    },
                    {
                      "internalType": "bool",
                      "name": "netOfTransfers",
                      "type": "bool"
                    },
                    {
                      "internalType": "address",
                      "name": "feeCollector",
                      "type": "address"
                    }
                  ],
                  "internalType": "struct IHederaTokenService.FractionalFee[]",
                  "name": "fractionalFees",
                  "type": "tuple[]"
                },
                {
                  "components": [
                    {
                      "internalType": "uint32",
                      "name": "numerator",
                      "type": "uint32"
                    },
                    {
                      "internalType": "uint32",
                      "name": "denominator",
                      "type": "uint32"
                    },
                    {
                      "internalType": "uint32",
                      "name": "amount",
                      "type": "uint32"
                    },
                    {
                      "internalType": "address",
                      "name": "tokenId",
                      "type": "address"
                    },
                    {
                      "internalType": "bool",
                      "name": "useHbarsForPayment",
                      "type": "bool"
                    },
                    {
                      "internalType": "address",
                      "name": "feeCollector",
                      "type": "address"
                    }
                  ],
                  "internalType": "struct IHederaTokenService.RoyaltyFee[]",
                  "name": "royaltyFees",
                  "type": "tuple[]"
                },
                {
                  "internalType": "string",
                  "name": "ledgerId",
                  "type": "string"
                }
              ],
              "internalType": "struct IHederaTokenService.TokenInfo",
              "name": "tokenInfo",
              "type": "tuple"
            },
            {
              "internalType": "int64",
              "name": "serialNumber",
              "type": "int64"
            },
            {
              "internalType": "address",
              "name": "ownerId",
              "type": "address"
            },
            {
              "internalType": "int64",
              "name": "creationTime",
              "type": "int64"
            },
            {
              "internalType": "bytes",
              "name": "metadata",
              "type": "bytes"
            },
            {
              "internalType": "address",
              "name": "spenderId",
              "type": "address"
            }
          ],
          "internalType": "struct IHederaTokenService.NonFungibleTokenInfo",
          "name": "tokenInfo",
          "type": "tuple"
        }
      ],
      "stateMutability": "nonpayable",
      "type": "function"
    },
    {
      "inputs": [
        {
          "internalType": "address",
          "name": "token",
          "type": "address"
        },
        {
          "internalType": "address",
          "name": "owner",
          "type": "address"
        },
        {
          "internalType": "address",
          "name": "operator",
          "type": "address"
        }
      ],
      "name": "isApprovedForAllPublic",
      "outputs": [
        {
          "internalType": "int256",
          "name": "responseCode",
          "type": "int256"
        },
        {
          "internalType": "bool",
          "name": "approved",
          "type": "bool"
        }
      ],
      "stateMutability": "nonpayable",
      "type": "function"
    },
    {
      "inputs": [
        {
          "internalType": "address",
          "name": "token",
          "type": "address"
        },
        {
          "internalType": "uint64",
          "name": "amount",
          "type": "uint64"
        },
        {
          "internalType": "bytes[]",
          "name": "metadata",
          "type": "bytes[]"
        }
      ],
      "name": "mintTokenPublic",
      "outputs": [
        {
          "internalType": "int256",
          "name": "responseCode",
          "type": "int256"
        },
        {
          "internalType": "uint64",
          "name": "newTotalSupply",
          "type": "uint64"
        },
        {
          "internalType": "int64[]",
          "name": "serialNumbers",
          "type": "int64[]"
        }
      ],
      "stateMutability": "nonpayable",
      "type": "function"
    },
    {
      "inputs": [
        {
          "internalType": "address",
          "name": "token",
          "type": "address"
        }
      ],
      "name": "pauseToken",
      "outputs": [
        {
          "internalType": "int256",
          "name": "responseCode",
          "type": "int256"
        }
      ],
      "stateMutability": "nonpayable",
      "type": "function"
    },
    {
      "inputs": [
        {
          "internalType": "address",
          "name": "token",
          "type": "address"
        },
        {
          "internalType": "address",
          "name": "operator",
          "type": "address"
        },
        {
          "internalType": "bool",
          "name": "approved",
          "type": "bool"
        }
      ],
      "name": "setApprovalForAllPublic",
      "outputs": [
        {
          "internalType": "int256",
          "name": "responseCode",
          "type": "int256"
        }
      ],
      "stateMutability": "nonpayable",
      "type": "function"
    },
    {
      "inputs": [
        {
          "internalType": "address",
          "name": "token",
          "type": "address"
        },
        {
          "internalType": "address",
          "name": "sender",
          "type": "address"
        },
        {
          "internalType": "address",
          "name": "receiver",
          "type": "address"
        },
        {
          "internalType": "int64",
          "name": "serialNumber",
          "type": "int64"
        }
      ],
      "name": "transferNFTPublic",
      "outputs": [
        {
          "internalType": "int256",
          "name": "responseCode",
          "type": "int256"
        }
      ],
      "stateMutability": "nonpayable",
      "type": "function"
    },
    {
      "inputs": [
        {
          "internalType": "address",
          "name": "account",
          "type": "address"
        },
        {
          "internalType": "address",
          "name": "token",
          "type": "address"
        },
        {
          "internalType": "int64",
          "name": "amount",
          "type": "int64"
        }
      ],
      "name": "transferTokenPublic",
      "outputs": [
        {
          "internalType": "int256",
          "name": "responseCode",
          "type": "int256"
        }
      ],
      "stateMutability": "nonpayable",
      "type": "function"
    },
    {
      "inputs": [
        {
          "internalType": "address",
          "name": "token",
          "type": "address"
        }
      ],
      "name": "unpauseToken",
      "outputs": [
        {
          "internalType": "int256",
          "name": "responseCode",
          "type": "int256"
        }
      ],
      "stateMutability": "nonpayable",
      "type": "function"
    },
    {
      "inputs": [
        {
          "internalType": "address",
          "name": "token",
          "type": "address"
        },
        {
          "internalType": "address",
          "name": "account",
          "type": "address"
        },
        {
          "internalType": "int64[]",
          "name": "serialNumbers",
          "type": "int64[]"
        }
      ],
      "name": "wipeTokenAccountNFTPublic",
      "outputs": [
        {
          "internalType": "int256",
          "name": "responseCode",
          "type": "int256"
        }
      ],
      "stateMutability": "nonpayable",
      "type": "function"
    },
    {
      "inputs": [
        {
          "internalType": "address",
          "name": "token",
          "type": "address"
        },
        {
          "internalType": "address",
          "name": "account",
          "type": "address"
        },
        {
          "internalType": "uint32",
          "name": "amount",
          "type": "uint32"
        }
      ],
      "name": "wipeTokenAccountPublic",
      "outputs": [
        {
          "internalType": "int256",
          "name": "responseCode",
          "type": "int256"
        }
      ],
      "stateMutability": "nonpayable",
      "type": "function"
    }
  ],
  "bytecode": "0x60c06040526009608081905268746f6b656e4e616d6560b81b60a09081526200002c9160019190620000c1565b5060408051808201909152600b8082526a1d1bdad95b94de5b589bdb60aa1b60209092019182526200006191600291620000c1565b50604080518082019091526004808252636d656d6f60e01b60209092019182526200008f91600391620000c1565b506103e860048190556005805463ffffffff191690911790556008600655348015620000ba57600080fd5b50620001a4565b828054620000cf9062000167565b90600052602060002090601f016020900481019282620000f357600085556200013e565b82601f106200010e57805160ff19168380011785556200013e565b828001600101855582156200013e579182015b828111156200013e57825182559160200191906001019062000121565b506200014c92915062000150565b5090565b5b808211156200014c576000815560010162000151565b600181811c908216806200017c57607f821691505b602082108114156200019e57634e487b7160e01b600052602260045260246000fd5b50919050565b61361080620001b46000396000f3fe6080604052600436106100fe5760003560e01c80637c41ad2c11610095578063df6c06f511610064578063df6c06f5146102e2578063ec855c3114610302578063f25b120014610322578063f4a01e5b14610342578063f848fec41461036257600080fd5b80637c41ad2c146102605780638070905f14610280578063d85f74c1146102af578063d92ac248146102c257600080fd5b80634cbdb37b116100d15780634cbdb37b146101bd57806356af8403146101eb5780635a5e6c311461020b5780636da6b1f01461024057600080fd5b806313c05dd81461010357806319db44b61461013d5780633b3bff0f1461017a5780634b5c6687146101a8575b600080fd5b34801561010f57600080fd5b5061012361011e3660046125fc565b610382565b604080519283529015156020830152015b60405180910390f35b34801561014957600080fd5b5061015d61015836600461288d565b610400565b604080519283526001600160a01b03909116602083015201610134565b34801561018657600080fd5b5061019a6101953660046125a8565b610484565b604051908152602001610134565b6101bb6101b63660046125a8565b61055e565b005b3480156101c957600080fd5b506101dd6101d8366004612860565b6108c3565b6040516101349291906132f4565b3480156101f757600080fd5b5061019a6102063660046126a1565b610939565b34801561021757600080fd5b5061022b6102263660046125fc565b610983565b60408051928352602083019190915201610134565b34801561024c57600080fd5b5061019a61025b366004612646565b6109f4565b34801561026c57600080fd5b5061019a61027b3660046125a8565b610a40565b34801561028c57600080fd5b506102a061029b3660046128b8565b610a6e565b6040516101349392919061330d565b6101bb6102bd3660046125a8565b610af6565b3480156102ce57600080fd5b5061019a6102dd366004612821565b610e41565b3480156102ee57600080fd5b5061019a6102fd3660046127e1565b610e4e565b34801561030e57600080fd5b5061019a61031d3660046127a2565b610e5b565b34801561032e57600080fd5b5061019a61033d366004612763565b61105c565b34801561034e57600080fd5b5061019a61035d3660046125c4565b611069565b34801561036e57600080fd5b5061019a61037d3660046127e1565b6110b1565b6000806103908585856110be565b60405182815291935091506000805160206135bb8339815191529060200160405180910390a1601682146103c357600080fd5b60405181151581527e1c2e72360171244b3bb8cc8ddd767820edf37138ad6f129fb3574b407c307d906020015b60405180910390a1935093915050565b60008061040d8484611193565b60405182815291935091506000805160206135bb8339815191529060200160405180910390a16016821461044057600080fd5b6040516001600160a01b03821681527fc2c78c7c31baf14949e75c51df12be56edb9af523cf82839c2869bbcf13b3ecb906020015b60405180910390a19250929050565b6040516001600160a01b03821660248201526000908190819061016790633b3bff0f60e01b906044015b60408051601f198184030181529181526020820180516001600160e01b03166001600160e01b03199094169390931790925290516104ec919061314f565b6000604051808303816000865af19150503d8060008114610529576040519150601f19603f3d011682016040523d82523d6000602084013e61052e565b606091505b50915091508161053f576015610553565b8080602001905181019061055391906129c5565b60030b949350505050565b60408051600280825260608201909252600091816020015b61057e611d48565b8152602001906001900390816105765790505090506105b060008060016040518060200160405280600081525061125b565b816000815181106105d157634e487b7160e01b600052603260045260246000fd5b60200260200101819052506105f86003600160405180602001604052806000815250611292565b8160018151811061061957634e487b7160e01b600052603260045260246000fd5b602002602001018190525060006040518060600160405280600063ffffffff168152602001846001600160a01b03168152602001627a120063ffffffff168152509050600060405180610120016040528060018054610677906134db565b80601f01602080910402602001604051908101604052809291908181526020018280546106a3906134db565b80156106f05780601f106106c5576101008083540402835291602001916106f0565b820191906000526020600020905b8154815290600101906020018083116106d357829003601f168201915b5050505050815260200160028054610707906134db565b80601f0160208091040260200160405190810160405280929190818152602001828054610733906134db565b80156107805780601f1061075557610100808354040283529160200191610780565b820191906000526020600020905b81548152906001019060200180831161076357829003601f168201915b50505050508152602001856001600160a01b03168152602001600380546107a6906134db565b80601f01602080910402602001604051908101604052809291908181526020018280546107d2906134db565b801561081f5780601f106107f45761010080835404028352916020019161081f565b820191906000526020600020905b81548152906001019060200180831161080257829003601f168201915b50505091835250506001602082015260055463ffffffff1660408201526000606082018190526080820186905260a09091018490526004546006549293509091829161086d918591906112c7565b90925090506016821461087f57600080fd5b6040516001600160a01b03821681527f7bb17726df1f3adee8aa00ba8e8bc5d6f182af3bbf77604639cb7f008dd3b4ed9060200160405180910390a1505050505050565b60006108cd611d67565b6108d784846113f5565b60405182815291935091506000805160206135bb8339815191529060200160405180910390a16016821461090a57600080fd5b7f2901bb5599cafab7311386be7a7eaf6613f9092f07376ffc76f782df62fbc0b581604051610475919061336d565b60006109468484846114e2565b90506000805160206135bb8339815191528160405161096791815260200190565b60405180910390a16016811461097c57600080fd5b9392505050565b6000806109918585856115c2565b60405182815291935091506000805160206135bb8339815191529060200160405180910390a1601682146109c457600080fd5b6040518181527f25b6684a7e8fe1b676e9c39c8dd65034fbafea906d3bdfd97bf748b7b55e14c8906020016103f0565b6000610a0285858585611695565b90506000805160206135bb83398151915281604051610a2391815260200190565b60405180910390a160168114610a3857600080fd5b949350505050565b6040516001600160a01b03821660248201526000908190819061016790631f106b4b60e21b906044016104ae565b6000806060610a7e86868661177d565b60405183815292955090935091506000805160206135bb8339815191529060200160405180910390a160168314610ab457600080fd5b7feff23992f47b3c101679f8b4dc9d3e242c903909dba4a453f2b2341ad463b0e28282604051610ae5929190613380565b60405180910390a193509350939050565b60408051600380825260808201909252600091816020015b610b16611d48565b815260200190600190039081610b0e579050509050610b4860008060016040518060200160405280600081525061125b565b81600081518110610b6957634e487b7160e01b600052603260045260246000fd5b6020026020010181905250610b906004600160405180602001604052806000815250611292565b81600181518110610bb157634e487b7160e01b600052603260045260246000fd5b6020026020010181905250610bd86003600160405180602001604052806000815250611292565b81600281518110610bf957634e487b7160e01b600052603260045260246000fd5b602002602001018190525060006040518060600160405280600063ffffffff168152602001846001600160a01b03168152602001627a120063ffffffff168152509050600060405180610120016040528060018054610c57906134db565b80601f0160208091040260200160405190810160405280929190818152602001828054610c83906134db565b8015610cd05780601f10610ca557610100808354040283529160200191610cd0565b820191906000526020600020905b815481529060010190602001808311610cb357829003601f168201915b5050505050815260200160028054610ce7906134db565b80601f0160208091040260200160405190810160405280929190818152602001828054610d13906134db565b8015610d605780601f10610d3557610100808354040283529160200191610d60565b820191906000526020600020905b815481529060010190602001808311610d4357829003601f168201915b50505050508152602001856001600160a01b0316815260200160038054610d86906134db565b80601f0160208091040260200160405190810160405280929190818152602001828054610db2906134db565b8015610dff5780601f10610dd457610100808354040283529160200191610dff565b820191906000526020600020905b815481529060010190602001808311610de257829003601f168201915b50505091835250506001602082015260055463ffffffff1660408201526000606082018190526080820186905260a09091018490529091508061086d8361187b565b6000610946848484611991565b60006109468484846119d3565b60408051600080825260208201909252819081610ea0565b6040805160608101825260008082526020808301829052928201528252600019909201910181610e735790505b50905060006040518060400160405280336001600160a01b0316815260200185610ec990613516565b600790810b9091526040805180820182526001600160a01b038a1681529187900b602083015280516002808252606082019092529293509091600091816020015b6040805180820190915260008082526020820152815260200190600190039081610f0a5790505090508281600081518110610f5557634e487b7160e01b600052603260045260246000fd5b60200260200101819052508181600181518110610f8257634e487b7160e01b600052603260045260246000fd5b602090810291909101810191909152604080516060810182526001600160a01b038a16815291820183905281810186905280516001808252818301909252600091816020015b610ff5604051806060016040528060006001600160a01b0316815260200160608152602001606081525090565b815260200190600190039081610fc8579050509050818160008151811061102c57634e487b7160e01b600052603260045260246000fd5b602002602001018190525061104081611a10565b96506016871461104f57600080fd5b5050505050509392505050565b6000610946848484611a3a565b60006110758383611b06565b90506000805160206135bb8339815191528160405161109691815260200190565b60405180910390a1601681146110ab57600080fd5b92915050565b6000610946848484611bce565b604080516001600160a01b0385811660248301528481166044830152831660648083019190915282518083039091018152608490910182526020810180516001600160e01b031663f49f40db60e01b17905290516000918291829161016791611127919061314f565b6000604051808303816000865af19150503d8060008114611164576040519150601f19603f3d011682016040523d82523d6000602084013e611169565b606091505b50915050808060200190518101906111819190612a0a565b60039190910b97909650945050505050565b604080516001600160a01b0384166024820152604480820184905282518083039091018152606490910182526020810180516001600160e01b03166304c791b360e11b179052905160009182918291610167916111f0919061314f565b6000604051808303816000865af19150503d806000811461122d576040519150601f19603f3d011682016040523d82523d6000602084013e611232565b606091505b509150508080602001905181019061124a91906129df565b60039190910b969095509350505050565b611263611d48565b60405180604001604052806112788787611c0b565b81526020016112878585611c24565b905295945050505050565b61129a611d48565b60405180604001604052806112ae86611cb6565b81526020016112bd8585611c24565b9052949350505050565b600080848061010001516000015163ffffffff1660001480156112f757506101008101516040015163ffffffff16155b1561130d576101008101516276a7006040909101525b6000806101676001600160a01b031634637812a04b60e01b8a8a8a60405160240161133a93929190613348565b60408051601f198184030181529181526020820180516001600160e01b03166001600160e01b0319909416939093179092529051611378919061314f565b60006040518083038185875af1925050503d80600081146113b5576040519150601f19603f3d011682016040523d82523d6000602084013e6113ba565b606091505b5091509150816113cd57601560006113e1565b808060200190518101906113e191906129df565b60039190910b999098509650505050505050565b60006113ff611d67565b604080516001600160a01b0386166024820152600785900b60448083019190915282518083039091018152606490910182526020810180516001600160e01b031663050fc3b560e31b179052905160009182916101679161145f9161314f565b6000604051808303816000865af19150503d806000811461149c576040519150601f19603f3d011682016040523d82523d6000602084013e6114a1565b606091505b50915091506114ae611d67565b826114bb576015816114cf565b818060200190518101906114cf9190612a35565b60039190910b9890975095505050505050565b60008060006101676001600160a01b031663f7f38e2660e01b8787876040516024016115109392919061316b565b60408051601f198184030181529181526020820180516001600160e01b03166001600160e01b031990941693909317909252905161154e919061314f565b6000604051808303816000865af19150503d806000811461158b576040519150601f19603f3d011682016040523d82523d6000602084013e611590565b606091505b5091509150816115a15760156115b5565b808060200190518101906115b591906129c5565b60030b9695505050505050565b604080516001600160a01b0385811660248301528481166044830152831660648083019190915282518083039091018152608490910182526020810180516001600160e01b031663927da10560e01b17905290516000918291829182916101679161162c9161314f565b6000604051808303816000865af19150503d8060008114611669576040519150601f19603f3d011682016040523d82523d6000602084013e61166e565b606091505b50915091508161168157601560006114cf565b808060200190518101906114cf9190612b17565b604080516001600160a01b038681166024830152858116604483015284166064820152600783900b6084808301919091528251808303909101815260a490910182526020810180516001600160e01b0316635cfc901160e01b17905290516000918291829161016791611708919061314f565b6000604051808303816000865af19150503d8060008114611745576040519150601f19603f3d011682016040523d82523d6000602084013e61174a565b606091505b50915091508161175b57601561176f565b8080602001905181019061176f91906129c5565b60030b979650505050505050565b60008060606000806101676001600160a01b031663278e0b8860e01b8989896040516024016117ae939291906131a0565b60408051601f198184030181529181526020820180516001600160e01b03166001600160e01b03199094169390931790925290516117ec919061314f565b6000604051808303816000865af19150503d8060008114611829576040519150601f19603f3d011682016040523d82523d6000602084013e61182e565b606091505b509150915081611851576040805160008082526020820190925260159190611865565b808060200190518101906118659190612b42565b60039290920b9a90995090975095505050505050565b600080828061010001516000015163ffffffff1660001480156118ab57506101008101516040015163ffffffff16155b156118c1576101008101516276a7006040909101525b6000806101676001600160a01b031634639dc711e060e01b886040516024016118ea9190613335565b60408051601f198184030181529181526020820180516001600160e01b03166001600160e01b0319909416939093179092529051611928919061314f565b60006040518083038185875af1925050503d8060008114611965576040519150601f19603f3d011682016040523d82523d6000602084013e61196a565b606091505b50915091508161197d5760156000611181565b8080602001905181019061118191906129df565b6040516001600160a01b0384811660248301528316604482015263ffffffff821660648201526000908190819061016790639790686d60e01b90608401611510565b6040516001600160a01b038481166024830152831660448201526064810182905260009081908190610167906307336aaf60e41b90608401611510565b60008060006101676001600160a01b031663189a554c60e01b856040516024016104ae9190613221565b604080516001600160a01b0385811660248301528416604482015282151560648083019190915282518083039091018152608490910182526020810180516001600160e01b0316631b3b02e560e11b1790529051600091829161016791611aa09161314f565b6000604051808303816000865af19150503d8060008114611add576040519150601f19603f3d011682016040523d82523d6000602084013e611ae2565b606091505b5091505080806020019051810190611afa91906129c5565b60030b95945050505050565b604080516001600160a01b038481166024830152831660448083019190915282518083039091018152606490910182526020810180516001600160e01b031663248a35ef60e11b17905290516000918291829161016791611b67919061314f565b6000604051808303816000865af19150503d8060008114611ba4576040519150601f19603f3d011682016040523d82523d6000602084013e611ba9565b606091505b509150915081611bba576015611afa565b80806020019051810190611afa91906129c5565b6040516001600160a01b0384811660248301528316604482015260648101829052600090819081906101679063e1f21c6760e01b90608401611510565b6000600160ff84161b9050600160ff83161b811761097c565b611c2c611e46565b8260ff1660011415611c4157600181526110ab565b8260ff1660021415611c63576000546001600160a01b031660208201526110ab565b8260ff1660031415611c7b57604081018290526110ab565b8260ff1660041415611c9357606081018290526110ab565b8260ff16600514156110ab576000546001600160a01b0316608082015292915050565b600060ff8216611cc857506001919050565b8160ff1660011415611cdc57506002919050565b8160ff1660021415611cf057506004919050565b8160ff1660031415611d0457506008919050565b8160ff1660041415611d1857506010919050565b8160ff1660051415611d2c57506020919050565b8160ff1660061415611d4057506040919050565b506000919050565b604051806040016040528060008152602001611d62611e46565b905290565b604080516103008101825260606101e082018181526102008301829052600061022084018190526102408401839052610260840181905261028084018190526102a084018190526102c0840183905284518084018652818152602081018290529485018190526102e084019490945260c0830190815260e0830184905261010083018490526101208301849052610140830193909352610160820181905261018082018190526101a082018190526101c08201529081908152600060208201819052604082018190526060808301829052608083015260a09091015290565b6040518060a0016040528060001515815260200160006001600160a01b03168152602001606081526020016060815260200160006001600160a01b031681525090565b8051611e948161355e565b919050565b600082601f830112611ea9578081fd5b81516020611ebe611eb983613461565b613431565b8281528181019085830160a080860288018501891015611edc578687fd5b865b86811015611f655781838b031215611ef4578788fd5b611efc6133a2565b8351611f0781613593565b815283870151611f168161355e565b81880152604084810151611f2981613576565b90820152606084810151611f3c81613576565b90820152608084810151611f4f8161355e565b9082015285529385019391810191600101611ede565b509198975050505050505050565b600082601f830112611f83578081fd5b81516020611f93611eb983613461565b8281528181019085830160c080860288018501891015611fb1578687fd5b865b86811015611f655781838b031215611fc9578788fd5b611fd16133ca565b8351611fdc81613593565b815283870151611feb81613593565b81880152604084810151611ffe81613593565b9082015260608481015161201181613593565b9082015260808481015161202481613576565b9082015260a0848101516120378161355e565b9082015285529385019391810191600101611fb3565b600082601f83011261205d578081fd5b8151602061206d611eb983613461565b8281528181019085830160c08086028801850189101561208b578687fd5b865b86811015611f655781838b0312156120a3578788fd5b6120ab6133ca565b83516120b681613593565b8152838701516120c581613593565b818801526040848101516120d881613593565b908201526060848101516120eb8161355e565b908201526080848101516120fe81613576565b9082015260a0848101516121118161355e565b908201528552938501939181019160010161208d565b600082601f830112612137578081fd5b81516020612147611eb983613461565b80838252828201915082860187848660051b8901011115612166578586fd5b855b858110156122725781516001600160401b0380821115612186578889fd5b90890190601f196040838d038201121561219e57898afd5b6121a66133ec565b8884015181526040840151838111156121bd578b8cfd5b939093019260a0848e03830112156121d3578a8bfd5b6121db6133a2565b9150888401516121ea81613576565b82526121f860408501611e89565b8983015260608401518381111561220d578b8cfd5b61221b8e8b8388010161228a565b604084015250608084015183811115612232578b8cfd5b6122408e8b8388010161228a565b60608401525061225260a08501611e89565b608083015280890191909152865250509284019290840190600101612168565b5090979650505050505050565b8051611e9481613576565b600082601f83011261229a578081fd5b81516122a8611eb982613484565b8181528460208386010111156122bc578283fd5b610a388260208301602087016134ab565b8051600381900b8114611e9457600080fd5b8051611e9481613584565b6000606082840312156122fb578081fd5b604051606081018181106001600160401b038211171561231d5761231d613548565b8060405250809150825161233081613593565b815260208301516123408161355e565b6020820152604083015161235381613593565b6040919091015292915050565b60006101608284031215612372578081fd5b61237a61340e565b905081516001600160401b038082111561239357600080fd5b61239f8583860161228a565b835260208401519150808211156123b557600080fd5b6123c18583860161228a565b60208401526123d260408501611e89565b604084015260608401519150808211156123eb57600080fd5b6123f78583860161228a565b60608401526124086080850161227f565b608084015261241960a08501612592565b60a084015261242a60c0850161227f565b60c084015260e084015191508082111561244357600080fd5b5061245084828501612127565b60e083015250610100612465848285016122ea565b9082015292915050565b60006101208284031215612481578081fd5b61248961340e565b905081516001600160401b03808211156124a257600080fd5b6124ae85838601612360565b83526124bc6020850161259d565b60208401526124cd6040850161227f565b60408401526124de6060850161227f565b60608401526124ef6080850161227f565b608084015260a084015191508082111561250857600080fd5b61251485838601611e99565b60a084015260c084015191508082111561252d57600080fd5b61253985838601611f73565b60c084015260e084015191508082111561255257600080fd5b61255e8583860161204d565b60e08401526101009150818401518181111561257957600080fd5b6125858682870161228a565b8385015250505092915050565b8051611e9481613593565b8051611e94816135a5565b6000602082840312156125b9578081fd5b813561097c8161355e565b600080604083850312156125d6578081fd5b82356125e18161355e565b915060208301356125f18161355e565b809150509250929050565b600080600060608486031215612610578081fd5b833561261b8161355e565b9250602084013561262b8161355e565b9150604084013561263b8161355e565b809150509250925092565b6000806000806080858703121561265b578182fd5b84356126668161355e565b935060208501356126768161355e565b925060408501356126868161355e565b9150606085013561269681613584565b939692955090935050565b6000806000606084860312156126b5578081fd5b83356126c08161355e565b92506020848101356126d18161355e565b925060408501356001600160401b038111156126eb578283fd5b8501601f810187136126fb578283fd5b8035612709611eb982613461565b8082825284820191508484018a868560051b8701011115612728578687fd5b8694505b8385101561275357803561273f81613584565b83526001949094019391850191850161272c565b5080955050505050509250925092565b600080600060608486031215612777578081fd5b83356127828161355e565b925060208401356127928161355e565b9150604084013561263b81613576565b6000806000606084860312156127b6578081fd5b83356127c18161355e565b925060208401356127d18161355e565b9150604084013561263b81613584565b6000806000606084860312156127f5578081fd5b83356128008161355e565b925060208401356128108161355e565b929592945050506040919091013590565b600080600060608486031215612835578081fd5b83356128408161355e565b925060208401356128508161355e565b9150604084013561263b81613593565b60008060408385031215612872578182fd5b823561287d8161355e565b915060208301356125f181613584565b6000806040838503121561289f578182fd5b82356128aa8161355e565b946020939093013593505050565b6000806000606084860312156128cc578081fd5b83356128d78161355e565b92506020848101356128e8816135a5565b925060408501356001600160401b0380821115612903578384fd5b818701915087601f830112612916578384fd5b8135612924611eb982613461565b8082825285820191508585018b878560051b8801011115612943578788fd5b875b848110156129b35781358681111561295b57898afd5b8701603f81018e1361296b57898afd5b8881013561297b611eb982613484565b8181528f604083850101111561298f578b8cfd5b81604084018c8301379081018a018b90528552509287019290870190600101612945565b50508096505050505050509250925092565b6000602082840312156129d6578081fd5b61097c826122cd565b600080604083850312156129f1578182fd5b6129fa836122cd565b915060208301516125f18161355e565b60008060408385031215612a1c578182fd5b612a25836122cd565b915060208301516125f181613576565b60008060408385031215612a47578182fd5b612a50836122cd565b915060208301516001600160401b0380821115612a6b578283fd5b9084019060c08287031215612a7e578283fd5b612a866133ca565b825182811115612a94578485fd5b612aa08882860161246f565b825250612aaf602084016122df565b6020820152612ac060408401611e89565b6040820152612ad1606084016122df565b6060820152608083015182811115612ae7578485fd5b612af38882860161228a565b608083015250612b0560a08401611e89565b60a08201528093505050509250929050565b60008060408385031215612b29578182fd5b612b32836122cd565b9150602083015190509250929050565b600080600060608486031215612b56578081fd5b612b5f846122cd565b9250602080850151612b70816135a5565b60408601519093506001600160401b03811115612b8b578283fd5b8501601f81018713612b9b578283fd5b8051612ba9611eb982613461565b8082825284820191508484018a868560051b8701011115612bc8578687fd5b8694505b83851015612753578051612bdf81613584565b835260019490940193918501918501612bcc565b6000815180845260208085019450808401835b83811015612c2557815160070b87529582019590820190600101612c06565b509495945050505050565b6000815180845260208085019450808401835b83811015612c25578151805163ffffffff168852838101516001600160a01b03908116858a01526040808301511515908a01526060808301511515908a0152608091820151169088015260a09096019590820190600101612c43565b6000815180845260208085019450808401835b83811015612c25578151805163ffffffff9081168952848201518116858a01526040808301518216908a01526060808301519091169089015260808082015115159089015260a0908101516001600160a01b03169088015260c09096019590820190600101612cb2565b6000815180845260208085019450808401835b83811015612c2557815180516001600160a01b03908116895284820151168489015260409081015160070b9088015260609096019590820190600101612d2f565b6000815180845260208085019450808401835b83811015612c25578151805163ffffffff9081168952848201518116858a0152604080830151909116908901526060808201516001600160a01b03908116918a01919091526080808301511515908a015260a091820151169088015260c09096019590820190600101612d83565b600081518084526020808501808196508360051b81019150828601855b85811015612ea657828403895281516040815186528682015191508087870152815115158187015286820151606060018060a01b03808316828a015283850151935060a09250608083818b0152612e6860e08b0186612eb3565b928601518a8403603f1901858c0152929450612e848584612eb3565b9501511660c09890980197909752505098850198935090840190600101612e0e565b5091979650505050505050565b60008151808452612ecb8160208601602086016134ab565b601f01601f19169290920160200192915050565b60006101608251818552612ef582860182612eb3565b91505060208301518482036020860152612f0f8282612eb3565b9150506040830151612f2c60408601826001600160a01b03169052565b5060608301518482036060860152612f448282612eb3565b9150506080830151612f5a608086018215159052565b5060a0830151612f7260a086018263ffffffff169052565b5060c0830151612f8660c086018215159052565b5060e083015184820360e0860152612f9e8282612df1565b61010085810151805163ffffffff9081168984015260208201516001600160a01b03166101208a015260408201511661014089015291935091505090949350505050565b6000815160c0845280516101208060c08701526130036101e0870183612edf565b9150602083015161301f60e08801826001600160401b03169052565b5060408301516101006130358189018315159052565b6060850151151592880192909252506080830151151561014087015260a083015186830360bf1990810161016089015290916130718484612c30565b935060c08501519250818885030161018089015261308f8484612c9f565b935060e0850151925081888503016101a08901526130ad8484612d70565b9401518785039091016101c08801529291506130cb90508183612eb3565b91505060208301516130e2602086018260070b9052565b5060408301516130fd60408601826001600160a01b03169052565b506060830151613112606086018260070b9052565b506080830151848203608086015261312a8282612eb3565b91505060a083015161314760a08601826001600160a01b03169052565b509392505050565b600082516131618184602087016134ab565b9190910192915050565b6001600160a01b0384811682528316602082015260606040820181905260009061319790830184612bf3565b95945050505050565b60006060820160018060a01b038616835260206001600160401b038616818501526060604085015281855180845260808601915060808160051b8701019350828701855b8281101561321257607f19888703018452613200868351612eb3565b955092840192908401906001016131e4565b50939998505050505050505050565b60006020808301818452808551808352604092508286019150828160051b870101848801865b838110156132e657888303603f19018552815180516001600160a01b0390811685528882015160608a870181905281519087018190526080870192918b0191908c905b808210156132b85783518051841686528d015160070b8d860152938b0193928c01926001919091019061328a565b505050509087015184820385890152906132d28183612d1c565b968901969450505090860190600101613247565b509098975050505050505050565b828152604060208201526000610a386040830184612fe2565b8381526001600160401b03831660208201526060604082015260006131976060830184612bf3565b60208152600061097c6020830184612edf565b60608152600061335b6060830186612edf565b60208301949094525060400152919050565b60208152600061097c6020830184612fe2565b6001600160401b0383168152604060208201526000610a386040830184612bf3565b60405160a081016001600160401b03811182821017156133c4576133c4613548565b60405290565b60405160c081016001600160401b03811182821017156133c4576133c4613548565b604080519081016001600160401b03811182821017156133c4576133c4613548565b60405161012081016001600160401b03811182821017156133c4576133c4613548565b604051601f8201601f191681016001600160401b038111828210171561345957613459613548565b604052919050565b60006001600160401b0382111561347a5761347a613548565b5060051b60200190565b60006001600160401b0382111561349d5761349d613548565b50601f01601f191660200190565b60005b838110156134c65781810151838201526020016134ae565b838111156134d5576000848401525b50505050565b600181811c908216806134ef57607f821691505b6020821081141561351057634e487b7160e01b600052602260045260246000fd5b50919050565b60008160070b677fffffffffffffff1981141561354157634e487b7160e01b82526011600452602482fd5b9003919050565b634e487b7160e01b600052604160045260246000fd5b6001600160a01b038116811461357357600080fd5b50565b801515811461357357600080fd5b8060070b811461357357600080fd5b63ffffffff8116811461357357600080fd5b6001600160401b038116811461357357600080fdfe90a5cf4cffe88b4edbb041cfc7a8a812c48a5ec30b84640fb37690875168e3aaa264697066735822122099dffe0a99cad05a40561c8573f95f8fbb0091aa561e365eb2c0307737d95a1a64736f6c63430008040033",
  "linkReferences": {},
  "deployedLinkReferences": {}
}