{
  "_format": "hh-sol-artifact-1",
  "contractName": "BaseHTS",
  "sourceName": "contracts/BaseHTS.sol",
  "abi": [
    {
      "anonymous": false,
      "inputs": [
        {
          "indexed": false,
          "internalType": "uint256",
          "name": "amount",
          "type": "uint256"
        }
      ],
      "name": "AllowanceValue",
      "type": "event"
    },
    {
      "anonymous": false,
      "inputs": [
        {
          "indexed": false,
          "internalType": "bool",
          "name": "approved",
          "type": "bool"
        }
      ],
      "name": "Approved",
      "type": "event"
    },
    {
      "anonymous": false,
      "inputs": [
        {
          "indexed": false,
          "internalType": "address",
          "name": "approved",
          "type": "address"
        }
      ],
      "name": "ApprovedAddress",
      "type": "event"
    },
    {
      "anonymous": false,
      "inputs": [
        {
          "indexed": false,
          "internalType": "address",
          "name": "tokenAddress",
          "type": "address"
        }
      ],
      "name": "CreatedToken",
      "type": "event"
    },
    {
      "anonymous": false,
      "inputs": [
        {
          "indexed": false,
          "internalType": "bool",
          "name": "frozen",
          "type": "bool"
        }
      ],
      "name": "Frozen",
      "type": "event"
    },
    {
      "anonymous": false,
      "inputs": [
        {
          "components": [
            {
              "components": [
                {
                  "components": [
                    {
                      "internalType": "string",
                      "name": "name",
                      "type": "string"
                    },
                    {
                      "internalType": "string",
                      "name": "symbol",
                      "type": "string"
                    },
                    {
                      "internalType": "address",
                      "name": "treasury",
                      "type": "address"
                    },
                    {
                      "internalType": "string",
                      "name": "memo",
                      "type": "string"
                    },
                    {
                      "internalType": "bool",
                      "name": "tokenSupplyType",
                      "type": "bool"
                    },
                    {
                      "internalType": "uint32",
                      "name": "maxSupply",
                      "type": "uint32"
                    },
                    {
                      "internalType": "bool",
                      "name": "freezeDefault",
                      "type": "bool"
                    },
                    {
                      "components": [
                        {
                          "internalType": "uint256",
                          "name": "keyType",
                          "type": "uint256"
                        },
                        {
                          "components": [
                            {
                              "internalType": "bool",
                              "name": "inheritAccountKey",
                              "type": "bool"
                            },
                            {
                              "internalType": "address",
                              "name": "contractId",
                              "type": "address"
                            },
                            {
                              "internalType": "bytes",
                              "name": "ed25519",
                              "type": "bytes"
                            },
                            {
                              "internalType": "bytes",
                              "name": "ECDSA_secp256k1",
                              "type": "bytes"
                            },
                            {
                              "internalType": "address",
                              "name": "delegatableContractId",
                              "type": "address"
                            }
                          ],
                          "internalType": "struct IHederaTokenService.KeyValue",
                          "name": "key",
                          "type": "tuple"
                        }
                      ],
                      "internalType": "struct IHederaTokenService.TokenKey[]",
                      "name": "tokenKeys",
                      "type": "tuple[]"
                    },
                    {
                      "components": [
                        {
                          "internalType": "uint32",
                          "name": "second",
                          "type": "uint32"
                        },
                        {
                          "internalType": "address",
                          "name": "autoRenewAccount",
                          "type": "address"
                        },
                        {
                          "internalType": "uint32",
                          "name": "autoRenewPeriod",
                          "type": "uint32"
                        }
                      ],
                      "internalType": "struct IHederaTokenService.Expiry",
                      "name": "expiry",
                      "type": "tuple"
                    }
                  ],
                  "internalType": "struct IHederaTokenService.HederaToken",
                  "name": "token",
                  "type": "tuple"
                },
                {
                  "internalType": "uint64",
                  "name": "totalSupply",
                  "type": "uint64"
                },
                {
                  "internalType": "bool",
                  "name": "deleted",
                  "type": "bool"
                },
                {
                  "internalType": "bool",
                  "name": "defaultKycStatus",
                  "type": "bool"
                },
                {
                  "internalType": "bool",
                  "name": "pauseStatus",
                  "type": "bool"
                },
                {
                  "components": [
                    {
                      "internalType": "uint32",
                      "name": "amount",
                      "type": "uint32"
                    },
                    {
                      "internalType": "address",
                      "name": "tokenId",
                      "type": "address"
                    },
                    {
                      "internalType": "bool",
                      "name": "useHbarsForPayment",
                      "type": "bool"
                    },
                    {
                      "internalType": "bool",
                      "name": "useCurrentTokenForPayment",
                      "type": "bool"
                    },
                    {
                      "internalType": "address",
                      "name": "feeCollector",
                      "type": "address"
                    }
                  ],
                  "internalType": "struct IHederaTokenService.FixedFee[]",
                  "name": "fixedFees",
                  "type": "tuple[]"
                },
                {
                  "components": [
                    {
                      "internalType": "uint32",
                      "name": "numerator",
                      "type": "uint32"
                    },
                    {
                      "internalType": "uint32",
                      "name": "denominator",
                      "type": "uint32"
                    },
                    {
                      "internalType": "uint32",
                      "name": "minimumAmount",
                      "type": "uint32"
                    },
                    {
                      "internalType": "uint32",
                      "name": "maximumAmount",
                      "type": "uint32"
                    },
                    {
                      "internalType": "bool",
                      "name": "netOfTransfers",
                      "type": "bool"
                    },
                    {
                      "internalType": "address",
                      "name": "feeCollector",
                      "type": "address"
                    }
                  ],
                  "internalType": "struct IHederaTokenService.FractionalFee[]",
                  "name": "fractionalFees",
                  "type": "tuple[]"
                },
                {
                  "components": [
                    {
                      "internalType": "uint32",
                      "name": "numerator",
                      "type": "uint32"
                    },
                    {
                      "internalType": "uint32",
                      "name": "denominator",
                      "type": "uint32"
                    },
                    {
                      "internalType": "uint32",
                      "name": "amount",
                      "type": "uint32"
                    },
                    {
                      "internalType": "address",
                      "name": "tokenId",
                      "type": "address"
                    },
                    {
                      "internalType": "bool",
                      "name": "useHbarsForPayment",
                      "type": "bool"
                    },
                    {
                      "internalType": "address",
                      "name": "feeCollector",
                      "type": "address"
                    }
                  ],
                  "internalType": "struct IHederaTokenService.RoyaltyFee[]",
                  "name": "royaltyFees",
                  "type": "tuple[]"
                },
                {
                  "internalType": "string",
                  "name": "ledgerId",
                  "type": "string"
                }
              ],
              "internalType": "struct IHederaTokenService.TokenInfo",
              "name": "tokenInfo",
              "type": "tuple"
            },
            {
              "internalType": "uint32",
              "name": "decimals",
              "type": "uint32"
            }
          ],
          "indexed": false,
          "internalType": "struct IHederaTokenService.FungibleTokenInfo",
          "name": "tokenInfo",
          "type": "tuple"
        }
      ],
      "name": "FungibleTokenInfo",
      "type": "event"
    },
    {
      "anonymous": false,
      "inputs": [
        {
          "indexed": false,
          "internalType": "uint64",
          "name": "newTotalSupply",
          "type": "uint64"
        },
        {
          "indexed": false,
          "internalType": "int64[]",
          "name": "serialNumbers",
          "type": "int64[]"
        }
      ],
      "name": "MintedToken",
      "type": "event"
    },
    {
      "anonymous": false,
      "inputs": [
        {
          "components": [
            {
              "components": [
                {
                  "components": [
                    {
                      "internalType": "string",
                      "name": "name",
                      "type": "string"
                    },
                    {
                      "internalType": "string",
                      "name": "symbol",
                      "type": "string"
                    },
                    {
                      "internalType": "address",
                      "name": "treasury",
                      "type": "address"
                    },
                    {
                      "internalType": "string",
                      "name": "memo",
                      "type": "string"
                    },
                    {
                      "internalType": "bool",
                      "name": "tokenSupplyType",
                      "type": "bool"
                    },
                    {
                      "internalType": "uint32",
                      "name": "maxSupply",
                      "type": "uint32"
                    },
                    {
                      "internalType": "bool",
                      "name": "freezeDefault",
                      "type": "bool"
                    },
                    {
                      "components": [
                        {
                          "internalType": "uint256",
                          "name": "keyType",
                          "type": "uint256"
                        },
                        {
                          "components": [
                            {
                              "internalType": "bool",
                              "name": "inheritAccountKey",
                              "type": "bool"
                            },
                            {
                              "internalType": "address",
                              "name": "contractId",
                              "type": "address"
                            },
                            {
                              "internalType": "bytes",
                              "name": "ed25519",
                              "type": "bytes"
                            },
                            {
                              "internalType": "bytes",
                              "name": "ECDSA_secp256k1",
                              "type": "bytes"
                            },
                            {
                              "internalType": "address",
                              "name": "delegatableContractId",
                              "type": "address"
                            }
                          ],
                          "internalType": "struct IHederaTokenService.KeyValue",
                          "name": "key",
                          "type": "tuple"
                        }
                      ],
                      "internalType": "struct IHederaTokenService.TokenKey[]",
                      "name": "tokenKeys",
                      "type": "tuple[]"
                    },
                    {
                      "components": [
                        {
                          "internalType": "uint32",
                          "name": "second",
                          "type": "uint32"
                        },
                        {
                          "internalType": "address",
                          "name": "autoRenewAccount",
                          "type": "address"
                        },
                        {
                          "internalType": "uint32",
                          "name": "autoRenewPeriod",
                          "type": "uint32"
                        }
                      ],
                      "internalType": "struct IHederaTokenService.Expiry",
                      "name": "expiry",
                      "type": "tuple"
                    }
                  ],
                  "internalType": "struct IHederaTokenService.HederaToken",
                  "name": "token",
                  "type": "tuple"
                },
                {
                  "internalType": "uint64",
                  "name": "totalSupply",
                  "type": "uint64"
                },
                {
                  "internalType": "bool",
                  "name": "deleted",
                  "type": "bool"
                },
                {
                  "internalType": "bool",
                  "name": "defaultKycStatus",
                  "type": "bool"
                },
                {
                  "internalType": "bool",
                  "name": "pauseStatus",
                  "type": "bool"
                },
                {
                  "components": [
                    {
                      "internalType": "uint32",
                      "name": "amount",
                      "type": "uint32"
                    },
                    {
                      "internalType": "address",
                      "name": "tokenId",
                      "type": "address"
                    },
                    {
                      "internalType": "bool",
                      "name": "useHbarsForPayment",
                      "type": "bool"
                    },
                    {
                      "internalType": "bool",
                      "name": "useCurrentTokenForPayment",
                      "type": "bool"
                    },
                    {
                      "internalType": "address",
                      "name": "feeCollector",
                      "type": "address"
                    }
                  ],
                  "internalType": "struct IHederaTokenService.FixedFee[]",
                  "name": "fixedFees",
                  "type": "tuple[]"
                },
                {
                  "components": [
                    {
                      "internalType": "uint32",
                      "name": "numerator",
                      "type": "uint32"
                    },
                    {
                      "internalType": "uint32",
                      "name": "denominator",
                      "type": "uint32"
                    },
                    {
                      "internalType": "uint32",
                      "name": "minimumAmount",
                      "type": "uint32"
                    },
                    {
                      "internalType": "uint32",
                      "name": "maximumAmount",
                      "type": "uint32"
                    },
                    {
                      "internalType": "bool",
                      "name": "netOfTransfers",
                      "type": "bool"
                    },
                    {
                      "internalType": "address",
                      "name": "feeCollector",
                      "type": "address"
                    }
                  ],
                  "internalType": "struct IHederaTokenService.FractionalFee[]",
                  "name": "fractionalFees",
                  "type": "tuple[]"
                },
                {
                  "components": [
                    {
                      "internalType": "uint32",
                      "name": "numerator",
                      "type": "uint32"
                    },
                    {
                      "internalType": "uint32",
                      "name": "denominator",
                      "type": "uint32"
                    },
                    {
                      "internalType": "uint32",
                      "name": "amount",
                      "type": "uint32"
                    },
                    {
                      "internalType": "address",
                      "name": "tokenId",
                      "type": "address"
                    },
                    {
                      "internalType": "bool",
                      "name": "useHbarsForPayment",
                      "type": "bool"
                    },
                    {
                      "internalType": "address",
                      "name": "feeCollector",
                      "type": "address"
                    }
                  ],
                  "internalType": "struct IHederaTokenService.RoyaltyFee[]",
                  "name": "royaltyFees",
                  "type": "tuple[]"
                },
                {
                  "internalType": "string",
                  "name": "ledgerId",
                  "type": "string"
                }
              ],
              "internalType": "struct IHederaTokenService.TokenInfo",
              "name": "tokenInfo",
              "type": "tuple"
            },
            {
              "internalType": "int64",
              "name": "serialNumber",
              "type": "int64"
            },
            {
              "internalType": "address",
              "name": "ownerId",
              "type": "address"
            },
            {
              "internalType": "int64",
              "name": "creationTime",
              "type": "int64"
            },
            {
              "internalType": "bytes",
              "name": "metadata",
              "type": "bytes"
            },
            {
              "internalType": "address",
              "name": "spenderId",
              "type": "address"
            }
          ],
          "indexed": false,
          "internalType": "struct IHederaTokenService.NonFungibleTokenInfo",
          "name": "tokenInfo",
          "type": "tuple"
        }
      ],
      "name": "NonFungibleTokenInfo",
      "type": "event"
    },
    {
      "anonymous": false,
      "inputs": [
        {
          "indexed": false,
          "internalType": "bool",
          "name": "paused",
          "type": "bool"
        }
      ],
      "name": "PausedToken",
      "type": "event"
    },
    {
      "anonymous": false,
      "inputs": [
        {
          "indexed": false,
          "internalType": "int256",
          "name": "responseCode",
          "type": "int256"
        }
      ],
      "name": "ResponseCode",
      "type": "event"
    },
    {
      "anonymous": false,
      "inputs": [
        {
          "components": [
            {
              "components": [
                {
                  "internalType": "string",
                  "name": "name",
                  "type": "string"
                },
                {
                  "internalType": "string",
                  "name": "symbol",
                  "type": "string"
                },
                {
                  "internalType": "address",
                  "name": "treasury",
                  "type": "address"
                },
                {
                  "internalType": "string",
                  "name": "memo",
                  "type": "string"
                },
                {
                  "internalType": "bool",
                  "name": "tokenSupplyType",
                  "type": "bool"
                },
                {
                  "internalType": "uint32",
                  "name": "maxSupply",
                  "type": "uint32"
                },
                {
                  "internalType": "bool",
                  "name": "freezeDefault",
                  "type": "bool"
                },
                {
                  "components": [
                    {
                      "internalType": "uint256",
                      "name": "keyType",
                      "type": "uint256"
                    },
                    {
                      "components": [
                        {
                          "internalType": "bool",
                          "name": "inheritAccountKey",
                          "type": "bool"
                        },
                        {
                          "internalType": "address",
                          "name": "contractId",
                          "type": "address"
                        },
                        {
                          "internalType": "bytes",
                          "name": "ed25519",
                          "type": "bytes"
                        },
                        {
                          "internalType": "bytes",
                          "name": "ECDSA_secp256k1",
                          "type": "bytes"
                        },
                        {
                          "internalType": "address",
                          "name": "delegatableContractId",
                          "type": "address"
                        }
                      ],
                      "internalType": "struct IHederaTokenService.KeyValue",
                      "name": "key",
                      "type": "tuple"
                    }
                  ],
                  "internalType": "struct IHederaTokenService.TokenKey[]",
                  "name": "tokenKeys",
                  "type": "tuple[]"
                },
                {
                  "components": [
                    {
                      "internalType": "uint32",
                      "name": "second",
                      "type": "uint32"
                    },
                    {
                      "internalType": "address",
                      "name": "autoRenewAccount",
                      "type": "address"
                    },
                    {
                      "internalType": "uint32",
                      "name": "autoRenewPeriod",
                      "type": "uint32"
                    }
                  ],
                  "internalType": "struct IHederaTokenService.Expiry",
                  "name": "expiry",
                  "type": "tuple"
                }
              ],
              "internalType": "struct IHederaTokenService.HederaToken",
              "name": "token",
              "type": "tuple"
            },
            {
              "internalType": "uint64",
              "name": "totalSupply",
              "type": "uint64"
            },
            {
              "internalType": "bool",
              "name": "deleted",
              "type": "bool"
            },
            {
              "internalType": "bool",
              "name": "defaultKycStatus",
              "type": "bool"
            },
            {
              "internalType": "bool",
              "name": "pauseStatus",
              "type": "bool"
            },
            {
              "components": [
                {
                  "internalType": "uint32",
                  "name": "amount",
                  "type": "uint32"
                },
                {
                  "internalType": "address",
                  "name": "tokenId",
                  "type": "address"
                },
                {
                  "internalType": "bool",
                  "name": "useHbarsForPayment",
                  "type": "bool"
                },
                {
                  "internalType": "bool",
                  "name": "useCurrentTokenForPayment",
                  "type": "bool"
                },
                {
                  "internalType": "address",
                  "name": "feeCollector",
                  "type": "address"
                }
              ],
              "internalType": "struct IHederaTokenService.FixedFee[]",
              "name": "fixedFees",
              "type": "tuple[]"
            },
            {
              "components": [
                {
                  "internalType": "uint32",
                  "name": "numerator",
                  "type": "uint32"
                },
                {
                  "internalType": "uint32",
                  "name": "denominator",
                  "type": "uint32"
                },
                {
                  "internalType": "uint32",
                  "name": "minimumAmount",
                  "type": "uint32"
                },
                {
                  "internalType": "uint32",
                  "name": "maximumAmount",
                  "type": "uint32"
                },
                {
                  "internalType": "bool",
                  "name": "netOfTransfers",
                  "type": "bool"
                },
                {
                  "internalType": "address",
                  "name": "feeCollector",
                  "type": "address"
                }
              ],
              "internalType": "struct IHederaTokenService.FractionalFee[]",
              "name": "fractionalFees",
              "type": "tuple[]"
            },
            {
              "components": [
                {
                  "internalType": "uint32",
                  "name": "numerator",
                  "type": "uint32"
                },
                {
                  "internalType": "uint32",
                  "name": "denominator",
                  "type": "uint32"
                },
                {
                  "internalType": "uint32",
                  "name": "amount",
                  "type": "uint32"
                },
                {
                  "internalType": "address",
                  "name": "tokenId",
                  "type": "address"
                },
                {
                  "internalType": "bool",
                  "name": "useHbarsForPayment",
                  "type": "bool"
                },
                {
                  "internalType": "address",
                  "name": "feeCollector",
                  "type": "address"
                }
              ],
              "internalType": "struct IHederaTokenService.RoyaltyFee[]",
              "name": "royaltyFees",
              "type": "tuple[]"
            },
            {
              "internalType": "string",
              "name": "ledgerId",
              "type": "string"
            }
          ],
          "indexed": false,
          "internalType": "struct IHederaTokenService.TokenInfo",
          "name": "tokenInfo",
          "type": "tuple"
        }
      ],
      "name": "TokenInfo",
      "type": "event"
    },
    {
      "anonymous": false,
      "inputs": [
        {
          "indexed": false,
          "internalType": "bool",
          "name": "unpaused",
          "type": "bool"
        }
      ],
      "name": "UnpausedToken",
      "type": "event"
    },
    {
      "inputs": [
        {
          "internalType": "address",
          "name": "token",
          "type": "address"
        },
        {
          "internalType": "address",
          "name": "owner",
          "type": "address"
        },
        {
          "internalType": "address",
          "name": "spender",
          "type": "address"
        }
      ],
      "name": "allowancePublic",
      "outputs": [
        {
          "internalType": "int256",
          "name": "responseCode",
          "type": "int256"
        },
        {
          "internalType": "uint256",
          "name": "amount",
          "type": "uint256"
        }
      ],
      "stateMutability": "nonpayable",
      "type": "function"
    },
    {
      "inputs": [
        {
          "internalType": "address",
          "name": "token",
          "type": "address"
        },
        {
          "internalType": "address",
          "name": "spender",
          "type": "address"
        },
        {
          "internalType": "uint256",
          "name": "amount",
          "type": "uint256"
        }
      ],
      "name": "approvePublic",
      "outputs": [
        {
          "internalType": "int256",
          "name": "responseCode",
          "type": "int256"
        }
      ],
      "stateMutability": "nonpayable",
      "type": "function"
    },
    {
      "inputs": [
        {
          "internalType": "address",
          "name": "account",
          "type": "address"
        },
        {
          "internalType": "address",
          "name": "token",
          "type": "address"
        }
      ],
      "name": "associateTokenPublic",
      "outputs": [
        {
          "internalType": "int256",
          "name": "responseCode",
          "type": "int256"
        }
      ],
      "stateMutability": "nonpayable",
      "type": "function"
    },
    {
      "inputs": [
        {
          "internalType": "address",
          "name": "treasury",
          "type": "address"
        }
      ],
      "name": "createFungibleTokenPublic",
      "outputs": [],
      "stateMutability": "payable",
      "type": "function"
    },
    {
      "inputs": [
        {
          "internalType": "address",
          "name": "treasury",
          "type": "address"
        }
      ],
      "name": "createNonFungibleTokenPublic",
      "outputs": [],
      "stateMutability": "payable",
      "type": "function"
    },
    {
      "inputs": [
        {
          "internalType": "address",
          "name": "token",
          "type": "address"
        },
        {
          "internalType": "address",
          "name": "account",
          "type": "address"
        }
      ],
      "name": "freezeTokenPublic",
      "outputs": [
        {
          "internalType": "int256",
          "name": "responseCode",
          "type": "int256"
        }
      ],
      "stateMutability": "nonpayable",
      "type": "function"
    },
    {
      "inputs": [
        {
          "internalType": "address",
          "name": "token",
          "type": "address"
        },
        {
          "internalType": "uint256",
          "name": "serialNumber",
          "type": "uint256"
        }
      ],
      "name": "getApprovedPublic",
      "outputs": [
        {
          "internalType": "int256",
          "name": "responseCode",
          "type": "int256"
        },
        {
          "internalType": "address",
          "name": "approved",
          "type": "address"
        }
      ],
      "stateMutability": "nonpayable",
      "type": "function"
    },
    {
      "inputs": [
        {
          "internalType": "address",
          "name": "token",
          "type": "address"
        }
      ],
      "name": "getFungibleTokenInfoPublic",
      "outputs": [
        {
          "internalType": "int256",
          "name": "responseCode",
          "type": "int256"
        },
        {
          "components": [
            {
              "components": [
                {
                  "components": [
                    {
                      "internalType": "string",
                      "name": "name",
                      "type": "string"
                    },
                    {
                      "internalType": "string",
                      "name": "symbol",
                      "type": "string"
                    },
                    {
                      "internalType": "address",
                      "name": "treasury",
                      "type": "address"
                    },
                    {
                      "internalType": "string",
                      "name": "memo",
                      "type": "string"
                    },
                    {
                      "internalType": "bool",
                      "name": "tokenSupplyType",
                      "type": "bool"
                    },
                    {
                      "internalType": "uint32",
                      "name": "maxSupply",
                      "type": "uint32"
                    },
                    {
                      "internalType": "bool",
                      "name": "freezeDefault",
                      "type": "bool"
                    },
                    {
                      "components": [
                        {
                          "internalType": "uint256",
                          "name": "keyType",
                          "type": "uint256"
                        },
                        {
                          "components": [
                            {
                              "internalType": "bool",
                              "name": "inheritAccountKey",
                              "type": "bool"
                            },
                            {
                              "internalType": "address",
                              "name": "contractId",
                              "type": "address"
                            },
                            {
                              "internalType": "bytes",
                              "name": "ed25519",
                              "type": "bytes"
                            },
                            {
                              "internalType": "bytes",
                              "name": "ECDSA_secp256k1",
                              "type": "bytes"
                            },
                            {
                              "internalType": "address",
                              "name": "delegatableContractId",
                              "type": "address"
                            }
                          ],
                          "internalType": "struct IHederaTokenService.KeyValue",
                          "name": "key",
                          "type": "tuple"
                        }
                      ],
                      "internalType": "struct IHederaTokenService.TokenKey[]",
                      "name": "tokenKeys",
                      "type": "tuple[]"
                    },
                    {
                      "components": [
                        {
                          "internalType": "uint32",
                          "name": "second",
                          "type": "uint32"
                        },
                        {
                          "internalType": "address",
                          "name": "autoRenewAccount",
                          "type": "address"
                        },
                        {
                          "internalType": "uint32",
                          "name": "autoRenewPeriod",
                          "type": "uint32"
                        }
                      ],
                      "internalType": "struct IHederaTokenService.Expiry",
                      "name": "expiry",
                      "type": "tuple"
                    }
                  ],
                  "internalType": "struct IHederaTokenService.HederaToken",
                  "name": "token",
                  "type": "tuple"
                },
                {
                  "internalType": "uint64",
                  "name": "totalSupply",
                  "type": "uint64"
                },
                {
                  "internalType": "bool",
                  "name": "deleted",
                  "type": "bool"
                },
                {
                  "internalType": "bool",
                  "name": "defaultKycStatus",
                  "type": "bool"
                },
                {
                  "internalType": "bool",
                  "name": "pauseStatus",
                  "type": "bool"
                },
                {
                  "components": [
                    {
                      "internalType": "uint32",
                      "name": "amount",
                      "type": "uint32"
                    },
                    {
                      "internalType": "address",
                      "name": "tokenId",
                      "type": "address"
                    },
                    {
                      "internalType": "bool",
                      "name": "useHbarsForPayment",
                      "type": "bool"
                    },
                    {
                      "internalType": "bool",
                      "name": "useCurrentTokenForPayment",
                      "type": "bool"
                    },
                    {
                      "internalType": "address",
                      "name": "feeCollector",
                      "type": "address"
                    }
                  ],
                  "internalType": "struct IHederaTokenService.FixedFee[]",
                  "name": "fixedFees",
                  "type": "tuple[]"
                },
                {
                  "components": [
                    {
                      "internalType": "uint32",
                      "name": "numerator",
                      "type": "uint32"
                    },
                    {
                      "internalType": "uint32",
                      "name": "denominator",
                      "type": "uint32"
                    },
                    {
                      "internalType": "uint32",
                      "name": "minimumAmount",
                      "type": "uint32"
                    },
                    {
                      "internalType": "uint32",
                      "name": "maximumAmount",
                      "type": "uint32"
                    },
                    {
                      "internalType": "bool",
                      "name": "netOfTransfers",
                      "type": "bool"
                    },
                    {
                      "internalType": "address",
                      "name": "feeCollector",
                      "type": "address"
                    }
                  ],
                  "internalType": "struct IHederaTokenService.FractionalFee[]",
                  "name": "fractionalFees",
                  "type": "tuple[]"
                },
                {
                  "components": [
                    {
                      "internalType": "uint32",
                      "name": "numerator",
                      "type": "uint32"
                    },
                    {
                      "internalType": "uint32",
                      "name": "denominator",
                      "type": "uint32"
                    },
                    {
                      "internalType": "uint32",
                      "name": "amount",
                      "type": "uint32"
                    },
                    {
                      "internalType": "address",
                      "name": "tokenId",
                      "type": "address"
                    },
                    {
                      "internalType": "bool",
                      "name": "useHbarsForPayment",
                      "type": "bool"
                    },
                    {
                      "internalType": "address",
                      "name": "feeCollector",
                      "type": "address"
                    }
                  ],
                  "internalType": "struct IHederaTokenService.RoyaltyFee[]",
                  "name": "royaltyFees",
                  "type": "tuple[]"
                },
                {
                  "internalType": "string",
                  "name": "ledgerId",
                  "type": "string"
                }
              ],
              "internalType": "struct IHederaTokenService.TokenInfo",
              "name": "tokenInfo",
              "type": "tuple"
            },
            {
              "internalType": "uint32",
              "name": "decimals",
              "type": "uint32"
            }
          ],
          "internalType": "struct IHederaTokenService.FungibleTokenInfo",
          "name": "tokenInfo",
          "type": "tuple"
        }
      ],
      "stateMutability": "nonpayable",
      "type": "function"
    },
    {
      "inputs": [
        {
          "internalType": "address",
          "name": "token",
          "type": "address"
        },
        {
          "internalType": "int64",
          "name": "serialNumber",
          "type": "int64"
        }
      ],
      "name": "getNonFungibleTokenInfoPublic",
      "outputs": [
        {
          "internalType": "int256",
          "name": "responseCode",
          "type": "int256"
        },
        {
          "components": [
            {
              "components": [
                {
                  "components": [
                    {
                      "internalType": "string",
                      "name": "name",
                      "type": "string"
                    },
                    {
                      "internalType": "string",
                      "name": "symbol",
                      "type": "string"
                    },
                    {
                      "internalType": "address",
                      "name": "treasury",
                      "type": "address"
                    },
                    {
                      "internalType": "string",
                      "name": "memo",
                      "type": "string"
                    },
                    {
                      "internalType": "bool",
                      "name": "tokenSupplyType",
                      "type": "bool"
                    },
                    {
                      "internalType": "uint32",
                      "name": "maxSupply",
                      "type": "uint32"
                    },
                    {
                      "internalType": "bool",
                      "name": "freezeDefault",
                      "type": "bool"
                    },
                    {
                      "components": [
                        {
                          "internalType": "uint256",
                          "name": "keyType",
                          "type": "uint256"
                        },
                        {
                          "components": [
                            {
                              "internalType": "bool",
                              "name": "inheritAccountKey",
                              "type": "bool"
                            },
                            {
                              "internalType": "address",
                              "name": "contractId",
                              "type": "address"
                            },
                            {
                              "internalType": "bytes",
                              "name": "ed25519",
                              "type": "bytes"
                            },
                            {
                              "internalType": "bytes",
                              "name": "ECDSA_secp256k1",
                              "type": "bytes"
                            },
                            {
                              "internalType": "address",
                              "name": "delegatableContractId",
                              "type": "address"
                            }
                          ],
                          "internalType": "struct IHederaTokenService.KeyValue",
                          "name": "key",
                          "type": "tuple"
                        }
                      ],
                      "internalType": "struct IHederaTokenService.TokenKey[]",
                      "name": "tokenKeys",
                      "type": "tuple[]"
                    },
                    {
                      "components": [
                        {
                          "internalType": "uint32",
                          "name": "second",
                          "type": "uint32"
                        },
                        {
                          "internalType": "address",
                          "name": "autoRenewAccount",
                          "type": "address"
                        },
                        {
                          "internalType": "uint32",
                          "name": "autoRenewPeriod",
                          "type": "uint32"
                        }
                      ],
                      "internalType": "struct IHederaTokenService.Expiry",
                      "name": "expiry",
                      "type": "tuple"
                    }
                  ],
                  "internalType": "struct IHederaTokenService.HederaToken",
                  "name": "token",
                  "type": "tuple"
                },
                {
                  "internalType": "uint64",
                  "name": "totalSupply",
                  "type": "uint64"
                },
                {
                  "internalType": "bool",
                  "name": "deleted",
                  "type": "bool"
                },
                {
                  "internalType": "bool",
                  "name": "defaultKycStatus",
                  "type": "bool"
                },
                {
                  "internalType": "bool",
                  "name": "pauseStatus",
                  "type": "bool"
                },
                {
                  "components": [
                    {
                      "internalType": "uint32",
                      "name": "amount",
                      "type": "uint32"
                    },
                    {
                      "internalType": "address",
                      "name": "tokenId",
                      "type": "address"
                    },
                    {
                      "internalType": "bool",
                      "name": "useHbarsForPayment",
                      "type": "bool"
                    },
                    {
                      "internalType": "bool",
                      "name": "useCurrentTokenForPayment",
                      "type": "bool"
                    },
                    {
                      "internalType": "address",
                      "name": "feeCollector",
                      "type": "address"
                    }
                  ],
                  "internalType": "struct IHederaTokenService.FixedFee[]",
                  "name": "fixedFees",
                  "type": "tuple[]"
                },
                {
                  "components": [
                    {
                      "internalType": "uint32",
                      "name": "numerator",
                      "type": "uint32"
                    },
                    {
                      "internalType": "uint32",
                      "name": "denominator",
                      "type": "uint32"
                    },
                    {
                      "internalType": "uint32",
                      "name": "minimumAmount",
                      "type": "uint32"
                    },
                    {
                      "internalType": "uint32",
                      "name": "maximumAmount",
                      "type": "uint32"
                    },
                    {
                      "internalType": "bool",
                      "name": "netOfTransfers",
                      "type": "bool"
                    },
                    {
                      "internalType": "address",
                      "name": "feeCollector",
                      "type": "address"
                    }
                  ],
                  "internalType": "struct IHederaTokenService.FractionalFee[]",
                  "name": "fractionalFees",
                  "type": "tuple[]"
                },
                {
                  "components": [
                    {
                      "internalType": "uint32",
                      "name": "numerator",
                      "type": "uint32"
                    },
                    {
                      "internalType": "uint32",
                      "name": "denominator",
                      "type": "uint32"
                    },
                    {
                      "internalType": "uint32",
                      "name": "amount",
                      "type": "uint32"
                    },
                    {
                      "internalType": "address",
                      "name": "tokenId",
                      "type": "address"
                    },
                    {
                      "internalType": "bool",
                      "name": "useHbarsForPayment",
                      "type": "bool"
                    },
                    {
                      "internalType": "address",
                      "name": "feeCollector",
                      "type": "address"
                    }
                  ],
                  "internalType": "struct IHederaTokenService.RoyaltyFee[]",
                  "name": "royaltyFees",
                  "type": "tuple[]"
                },
                {
                  "internalType": "string",
                  "name": "ledgerId",
                  "type": "string"
                }
              ],
              "internalType": "struct IHederaTokenService.TokenInfo",
              "name": "tokenInfo",
              "type": "tuple"
            },
            {
              "internalType": "int64",
              "name": "serialNumber",
              "type": "int64"
            },
            {
              "internalType": "address",
              "name": "ownerId",
              "type": "address"
            },
            {
              "internalType": "int64",
              "name": "creationTime",
              "type": "int64"
            },
            {
              "internalType": "bytes",
              "name": "metadata",
              "type": "bytes"
            },
            {
              "internalType": "address",
              "name": "spenderId",
              "type": "address"
            }
          ],
          "internalType": "struct IHederaTokenService.NonFungibleTokenInfo",
          "name": "tokenInfo",
          "type": "tuple"
        }
      ],
      "stateMutability": "nonpayable",
      "type": "function"
    },
    {
      "inputs": [
        {
          "internalType": "address",
          "name": "token",
          "type": "address"
        }
      ],
      "name": "getTokenInfoPublic",
      "outputs": [
        {
          "internalType": "int256",
          "name": "responseCode",
          "type": "int256"
        },
        {
          "components": [
            {
              "components": [
                {
                  "internalType": "string",
                  "name": "name",
                  "type": "string"
                },
                {
                  "internalType": "string",
                  "name": "symbol",
                  "type": "string"
                },
                {
                  "internalType": "address",
                  "name": "treasury",
                  "type": "address"
                },
                {
                  "internalType": "string",
                  "name": "memo",
                  "type": "string"
                },
                {
                  "internalType": "bool",
                  "name": "tokenSupplyType",
                  "type": "bool"
                },
                {
                  "internalType": "uint32",
                  "name": "maxSupply",
                  "type": "uint32"
                },
                {
                  "internalType": "bool",
                  "name": "freezeDefault",
                  "type": "bool"
                },
                {
                  "components": [
                    {
                      "internalType": "uint256",
                      "name": "keyType",
                      "type": "uint256"
                    },
                    {
                      "components": [
                        {
                          "internalType": "bool",
                          "name": "inheritAccountKey",
                          "type": "bool"
                        },
                        {
                          "internalType": "address",
                          "name": "contractId",
                          "type": "address"
                        },
                        {
                          "internalType": "bytes",
                          "name": "ed25519",
                          "type": "bytes"
                        },
                        {
                          "internalType": "bytes",
                          "name": "ECDSA_secp256k1",
                          "type": "bytes"
                        },
                        {
                          "internalType": "address",
                          "name": "delegatableContractId",
                          "type": "address"
                        }
                      ],
                      "internalType": "struct IHederaTokenService.KeyValue",
                      "name": "key",
                      "type": "tuple"
                    }
                  ],
                  "internalType": "struct IHederaTokenService.TokenKey[]",
                  "name": "tokenKeys",
                  "type": "tuple[]"
                },
                {
                  "components": [
                    {
                      "internalType": "uint32",
                      "name": "second",
                      "type": "uint32"
                    },
                    {
                      "internalType": "address",
                      "name": "autoRenewAccount",
                      "type": "address"
                    },
                    {
                      "internalType": "uint32",
                      "name": "autoRenewPeriod",
                      "type": "uint32"
                    }
                  ],
                  "internalType": "struct IHederaTokenService.Expiry",
                  "name": "expiry",
                  "type": "tuple"
                }
              ],
              "internalType": "struct IHederaTokenService.HederaToken",
              "name": "token",
              "type": "tuple"
            },
            {
              "internalType": "uint64",
              "name": "totalSupply",
              "type": "uint64"
            },
            {
              "internalType": "bool",
              "name": "deleted",
              "type": "bool"
            },
            {
              "internalType": "bool",
              "name": "defaultKycStatus",
              "type": "bool"
            },
            {
              "internalType": "bool",
              "name": "pauseStatus",
              "type": "bool"
            },
            {
              "components": [
                {
                  "internalType": "uint32",
                  "name": "amount",
                  "type": "uint32"
                },
                {
                  "internalType": "address",
                  "name": "tokenId",
                  "type": "address"
                },
                {
                  "internalType": "bool",
                  "name": "useHbarsForPayment",
                  "type": "bool"
                },
                {
                  "internalType": "bool",
                  "name": "useCurrentTokenForPayment",
                  "type": "bool"
                },
                {
                  "internalType": "address",
                  "name": "feeCollector",
                  "type": "address"
                }
              ],
              "internalType": "struct IHederaTokenService.FixedFee[]",
              "name": "fixedFees",
              "type": "tuple[]"
            },
            {
              "components": [
                {
                  "internalType": "uint32",
                  "name": "numerator",
                  "type": "uint32"
                },
                {
                  "internalType": "uint32",
                  "name": "denominator",
                  "type": "uint32"
                },
                {
                  "internalType": "uint32",
                  "name": "minimumAmount",
                  "type": "uint32"
                },
                {
                  "internalType": "uint32",
                  "name": "maximumAmount",
                  "type": "uint32"
                },
                {
                  "internalType": "bool",
                  "name": "netOfTransfers",
                  "type": "bool"
                },
                {
                  "internalType": "address",
                  "name": "feeCollector",
                  "type": "address"
                }
              ],
              "internalType": "struct IHederaTokenService.FractionalFee[]",
              "name": "fractionalFees",
              "type": "tuple[]"
            },
            {
              "components": [
                {
                  "internalType": "uint32",
                  "name": "numerator",
                  "type": "uint32"
                },
                {
                  "internalType": "uint32",
                  "name": "denominator",
                  "type": "uint32"
                },
                {
                  "internalType": "uint32",
                  "name": "amount",
                  "type": "uint32"
                },
                {
                  "internalType": "address",
                  "name": "tokenId",
                  "type": "address"
                },
                {
                  "internalType": "bool",
                  "name": "useHbarsForPayment",
                  "type": "bool"
                },
                {
                  "internalType": "address",
                  "name": "feeCollector",
                  "type": "address"
                }
              ],
              "internalType": "struct IHederaTokenService.RoyaltyFee[]",
              "name": "royaltyFees",
              "type": "tuple[]"
            },
            {
              "internalType": "string",
              "name": "ledgerId",
              "type": "string"
            }
          ],
          "internalType": "struct IHederaTokenService.TokenInfo",
          "name": "tokenInfo",
          "type": "tuple"
        }
      ],
      "stateMutability": "nonpayable",
      "type": "function"
    },
    {
      "inputs": [
        {
          "internalType": "address",
          "name": "token",
          "type": "address"
        },
        {
          "internalType": "address",
          "name": "owner",
          "type": "address"
        },
        {
          "internalType": "address",
          "name": "operator",
          "type": "address"
        }
      ],
      "name": "isApprovedForAllPublic",
      "outputs": [
        {
          "internalType": "int256",
          "name": "responseCode",
          "type": "int256"
        },
        {
          "internalType": "bool",
          "name": "approved",
          "type": "bool"
        }
      ],
      "stateMutability": "nonpayable",
      "type": "function"
    },
    {
      "inputs": [
        {
          "internalType": "address",
          "name": "token",
          "type": "address"
        },
        {
          "internalType": "address",
          "name": "account",
          "type": "address"
        }
      ],
      "name": "isFrozenPublic",
      "outputs": [
        {
          "internalType": "int256",
          "name": "responseCode",
          "type": "int256"
        },
        {
          "internalType": "bool",
          "name": "frozen",
          "type": "bool"
        }
      ],
      "stateMutability": "nonpayable",
      "type": "function"
    },
    {
      "inputs": [
        {
          "internalType": "address",
          "name": "token",
          "type": "address"
        },
        {
          "internalType": "uint64",
          "name": "amount",
          "type": "uint64"
        },
        {
          "internalType": "bytes[]",
          "name": "metadata",
          "type": "bytes[]"
        }
      ],
      "name": "mintTokenPublic",
      "outputs": [
        {
          "internalType": "int256",
          "name": "responseCode",
          "type": "int256"
        },
        {
          "internalType": "uint64",
          "name": "newTotalSupply",
          "type": "uint64"
        },
        {
          "internalType": "int64[]",
          "name": "serialNumbers",
          "type": "int64[]"
        }
      ],
      "stateMutability": "nonpayable",
      "type": "function"
    },
    {
      "inputs": [
        {
          "internalType": "address",
          "name": "token",
          "type": "address"
        }
      ],
      "name": "pauseToken",
      "outputs": [
        {
          "internalType": "int256",
          "name": "responseCode",
          "type": "int256"
        }
      ],
      "stateMutability": "nonpayable",
      "type": "function"
    },
    {
      "inputs": [
        {
          "internalType": "address",
          "name": "token",
          "type": "address"
        }
      ],
      "name": "pauseTokenPublic",
      "outputs": [
        {
          "internalType": "int256",
          "name": "responseCode",
          "type": "int256"
        }
      ],
      "stateMutability": "nonpayable",
      "type": "function"
    },
    {
      "inputs": [
        {
          "internalType": "address",
          "name": "token",
          "type": "address"
        },
        {
          "internalType": "address",
          "name": "operator",
          "type": "address"
        },
        {
          "internalType": "bool",
          "name": "approved",
          "type": "bool"
        }
      ],
      "name": "setApprovalForAllPublic",
      "outputs": [
        {
          "internalType": "int256",
          "name": "responseCode",
          "type": "int256"
        }
      ],
      "stateMutability": "nonpayable",
      "type": "function"
    },
    {
      "inputs": [
        {
          "internalType": "address",
          "name": "account",
          "type": "address"
        },
        {
          "internalType": "address",
          "name": "token",
          "type": "address"
        },
        {
          "internalType": "int64",
          "name": "amount",
          "type": "int64"
        }
      ],
      "name": "transferTokenPublic",
      "outputs": [
        {
          "internalType": "int256",
          "name": "responseCode",
          "type": "int256"
        }
      ],
      "stateMutability": "nonpayable",
      "type": "function"
    },
    {
      "inputs": [
        {
          "internalType": "address",
          "name": "token",
          "type": "address"
        },
        {
          "internalType": "address",
          "name": "account",
          "type": "address"
        }
      ],
      "name": "unfreezeTokenPublic",
      "outputs": [
        {
          "internalType": "int256",
          "name": "responseCode",
          "type": "int256"
        }
      ],
      "stateMutability": "nonpayable",
      "type": "function"
    },
    {
      "inputs": [
        {
          "internalType": "address",
          "name": "token",
          "type": "address"
        }
      ],
      "name": "unpauseToken",
      "outputs": [
        {
          "internalType": "int256",
          "name": "responseCode",
          "type": "int256"
        }
      ],
      "stateMutability": "nonpayable",
      "type": "function"
    },
    {
      "inputs": [
        {
          "internalType": "address",
          "name": "token",
          "type": "address"
        }
      ],
      "name": "unpauseTokenPublic",
      "outputs": [
        {
          "internalType": "int256",
          "name": "responseCode",
          "type": "int256"
        }
      ],
      "stateMutability": "nonpayable",
      "type": "function"
    }
  ],
  "bytecode": "0x60806040526040518060400160405280600981526020017f746f6b656e4e616d650000000000000000000000000000000000000000000000815250600190805190602001906200005192919062000130565b506040518060400160405280600b81526020017f746f6b656e53796d626f6c000000000000000000000000000000000000000000815250600290805190602001906200009f92919062000130565b506040518060400160405280600481526020017f6d656d6f0000000000000000000000000000000000000000000000000000000081525060039080519060200190620000ed92919062000130565b506103e86004556103e8600560006101000a81548163ffffffff021916908363ffffffff16021790555060086006553480156200012957600080fd5b5062000245565b8280546200013e906200020f565b90600052602060002090601f016020900481019282620001625760008555620001ae565b82601f106200017d57805160ff1916838001178555620001ae565b82800160010185558215620001ae579182015b82811115620001ad57825182559160200191906001019062000190565b5b509050620001bd9190620001c1565b5090565b5b80821115620001dc576000816000905550600101620001c2565b5090565b7f4e487b7100000000000000000000000000000000000000000000000000000000600052602260045260246000fd5b600060028204905060018216806200022857607f821691505b602082108114156200023f576200023e620001e0565b5b50919050565b615e8280620002556000396000f3fe60806040526004361061011f5760003560e01c80637c41ad2c116100a0578063f25b120011610064578063f25b12001461047d578063f2f38a74146104ba578063f4a01e5b146104f8578063f7be342514610535578063f848fec4146105725761011f565b80637c41ad2c1461036b5780637d3e5da8146103a85780638070905f146103e5578063d85f74c114610424578063ec855c31146104405761011f565b80634b5c6687116100e75780634b5c6687146102575780634cbdb37b146102735780635a5e6c31146102b157806369837dc2146102ef5780636a4dde211461032d5761011f565b806313c05dd81461012457806319db44b6146101625780632b256ec8146101a05780632d73bb2e146101dd5780633b3bff0f1461021a575b600080fd5b34801561013057600080fd5b5061014b6004803603810190610146919061335e565b6105af565b6040516101599291906133e5565b60405180910390f35b34801561016e57600080fd5b5061018960048036038101906101849190613444565b61064a565b604051610197929190613493565b60405180910390f35b3480156101ac57600080fd5b506101c760048036038101906101c291906134bc565b6106e4565b6040516101d491906134e9565b60405180910390f35b3480156101e957600080fd5b5061020460048036038101906101ff9190613504565b6107f7565b60405161021191906134e9565b60405180910390f35b34801561022657600080fd5b50610241600480360381019061023c91906134bc565b610855565b60405161024e91906134e9565b60405180910390f35b610271600480360381019061026c91906134bc565b61096a565b005b34801561027f57600080fd5b5061029a6004803603810190610295919061357d565b610cfb565b6040516102a8929190613e9d565b60405180910390f35b3480156102bd57600080fd5b506102d860048036038101906102d3919061335e565b610d9c565b6040516102e6929190613edc565b60405180910390f35b3480156102fb57600080fd5b50610316600480360381019061031191906134bc565b610e38565b604051610324929190613f42565b60405180910390f35b34801561033957600080fd5b50610354600480360381019061034f9190613504565b610ed6565b6040516103629291906133e5565b60405180910390f35b34801561037757600080fd5b50610392600480360381019061038d91906134bc565b610f76565b60405161039f91906134e9565b60405180910390f35b3480156103b457600080fd5b506103cf60048036038101906103ca9190613504565b61108b565b6040516103dc91906134e9565b60405180910390f35b3480156103f157600080fd5b5061040c600480360381019061040791906141b9565b6110e9565b60405161041b939291906142e6565b60405180910390f35b61043e600480360381019061043991906134bc565b61118e565b005b34801561044c57600080fd5b5061046760048036038101906104629190614324565b611554565b60405161047491906134e9565b60405180910390f35b34801561048957600080fd5b506104a4600480360381019061049f91906143a3565b61178a565b6040516104b191906134e9565b60405180910390f35b3480156104c657600080fd5b506104e160048036038101906104dc91906134bc565b6117e7565b6040516104ef9291906144d7565b60405180910390f35b34801561050457600080fd5b5061051f600480360381019061051a9190613504565b611885565b60405161052c91906134e9565b60405180910390f35b34801561054157600080fd5b5061055c600480360381019061055791906134bc565b6118e0565b60405161056991906134e9565b60405180910390f35b34801561057e57600080fd5b5061059960048036038101906105949190614507565b6119f3565b6040516105a691906134e9565b60405180910390f35b6000806105bd858585611a50565b80925081935050507f90a5cf4cffe88b4edbb041cfc7a8a812c48a5ec30b84640fb37690875168e3aa826040516105f491906134e9565b60405180910390a1601660030b821461060c57600080fd5b7e1c2e72360171244b3bb8cc8ddd767820edf37138ad6f129fb3574b407c307d8160405161063a919061455a565b60405180910390a1935093915050565b6000806106578484611b78565b80925081935050507f90a5cf4cffe88b4edbb041cfc7a8a812c48a5ec30b84640fb37690875168e3aa8260405161068e91906134e9565b60405180910390a1601660030b82146106a657600080fd5b7fc2c78c7c31baf14949e75c51df12be56edb9af523cf82839c2869bbcf13b3ecb816040516106d59190614575565b60405180910390a19250929050565b60003073ffffffffffffffffffffffffffffffffffffffff16637c41ad2c836040518263ffffffff1660e01b815260040161071f9190614575565b602060405180830381600087803b15801561073957600080fd5b505af115801561074d573d6000803e3d6000fd5b505050506040513d601f19601f8201168201806040525081019061077191906145bc565b90507f90a5cf4cffe88b4edbb041cfc7a8a812c48a5ec30b84640fb37690875168e3aa816040516107a291906134e9565b60405180910390a1601660030b81146107ba57600080fd5b7f0c9c765845f4d139956bb8fc8decb2eec6093c9c608b809641b16054b29f0e1360016040516107ea919061455a565b60405180910390a1919050565b60006108038383611c9d565b60070b90507f90a5cf4cffe88b4edbb041cfc7a8a812c48a5ec30b84640fb37690875168e3aa8160405161083791906134e9565b60405180910390a1601660030b811461084f57600080fd5b92915050565b600080600061016773ffffffffffffffffffffffffffffffffffffffff16633b3bff0f60e01b8560405160240161088c9190614575565b604051602081830303815290604052907bffffffffffffffffffffffffffffffffffffffffffffffffffffffff19166020820180517bffffffffffffffffffffffffffffffffffffffffffffffffffffffff83818316178352505050506040516108f69190614625565b6000604051808303816000865af19150503d8060008114610933576040519150601f19603f3d011682016040523d82523d6000602084013e610938565b606091505b50915091508161094957601561095e565b8080602001905181019061095d9190614675565b5b60030b92505050919050565b6000600267ffffffffffffffff81111561098757610986613fa3565b5b6040519080825280602002602001820160405280156109c057816020015b6109ad61300a565b8152602001906001900390816109a55790505b5090506109e160006006600160405180602001604052806000815250611db5565b816000815181106109f5576109f46146a2565b5b6020026020010181905250610a1c6002600160405180602001604052806000815250611dee565b81600181518110610a3057610a2f6146a2565b5b602002602001018190525060006040518060600160405280600063ffffffff1681526020018473ffffffffffffffffffffffffffffffffffffffff168152602001627a120063ffffffff168152509050600060405180610120016040528060018054610a9b90614700565b80601f0160208091040260200160405190810160405280929190818152602001828054610ac790614700565b8015610b145780601f10610ae957610100808354040283529160200191610b14565b820191906000526020600020905b815481529060010190602001808311610af757829003601f168201915b5050505050815260200160028054610b2b90614700565b80601f0160208091040260200160405190810160405280929190818152602001828054610b5790614700565b8015610ba45780601f10610b7957610100808354040283529160200191610ba4565b820191906000526020600020905b815481529060010190602001808311610b8757829003601f168201915b505050505081526020018573ffffffffffffffffffffffffffffffffffffffff16815260200160038054610bd790614700565b80601f0160208091040260200160405190810160405280929190818152602001828054610c0390614700565b8015610c505780601f10610c2557610100808354040283529160200191610c50565b820191906000526020600020905b815481529060010190602001808311610c3357829003601f168201915b50505050508152602001600115158152602001600560009054906101000a900463ffffffff1663ffffffff168152602001600015158152602001848152602001838152509050600080610ca883600454600654611e25565b91509150601660030b8214610cbc57600080fd5b7f7bb17726df1f3adee8aa00ba8e8bc5d6f182af3bbf77604639cb7f008dd3b4ed81604051610ceb9190614575565b60405180910390a1505050505050565b6000610d0561302a565b610d0f8484611fa4565b80925081935050507f90a5cf4cffe88b4edbb041cfc7a8a812c48a5ec30b84640fb37690875168e3aa82604051610d4691906134e9565b60405180910390a1601660030b8214610d5e57600080fd5b7fa516f81c528634d0fc1e993bba1d227231b4bd6d1beb72d33b056a6199c0f98881604051610d8d9190614732565b60405180910390a19250929050565b600080610daa8585856120d8565b80925081935050507f90a5cf4cffe88b4edbb041cfc7a8a812c48a5ec30b84640fb37690875168e3aa82604051610de191906134e9565b60405180910390a1601660030b8214610df957600080fd5b7f25b6684a7e8fe1b676e9c39c8dd65034fbafea906d3bdfd97bf748b7b55e14c881604051610e289190614754565b60405180910390a1935093915050565b6000610e42613098565b610e4b83612200565b80925081935050507f90a5cf4cffe88b4edbb041cfc7a8a812c48a5ec30b84640fb37690875168e3aa82604051610e8291906134e9565b60405180910390a1601660030b8214610e9a57600080fd5b7f476a9a9b28e2717d55288b2ae3c48a72aac52b11f8bd855017c9d41d9fc1896481604051610ec9919061476f565b60405180910390a1915091565b600080610ee38484612330565b8160070b915080925081935050507f90a5cf4cffe88b4edbb041cfc7a8a812c48a5ec30b84640fb37690875168e3aa82604051610f2091906134e9565b60405180910390a1601660030b8214610f3857600080fd5b7f59800d968fcce138300a0019410b4b75041610d65b3cdc5f31656b03ed14912e81604051610f67919061455a565b60405180910390a19250929050565b600080600061016773ffffffffffffffffffffffffffffffffffffffff16637c41ad2c60e01b85604051602401610fad9190614575565b604051602081830303815290604052907bffffffffffffffffffffffffffffffffffffffffffffffffffffffff19166020820180517bffffffffffffffffffffffffffffffffffffffffffffffffffffffff83818316178352505050506040516110179190614625565b6000604051808303816000865af19150503d8060008114611054576040519150601f19603f3d011682016040523d82523d6000602084013e611059565b606091505b50915091508161106a57601561107f565b8080602001905181019061107e9190614675565b5b60030b92505050919050565b60006110978383612455565b60070b90507f90a5cf4cffe88b4edbb041cfc7a8a812c48a5ec30b84640fb37690875168e3aa816040516110cb91906134e9565b60405180910390a1601660030b81146110e357600080fd5b92915050565b60008060606110f986868661256d565b8093508194508295505050507f90a5cf4cffe88b4edbb041cfc7a8a812c48a5ec30b84640fb37690875168e3aa8360405161113491906134e9565b60405180910390a1601660030b831461114c57600080fd5b7feff23992f47b3c101679f8b4dc9d3e242c903909dba4a453f2b2341ad463b0e2828260405161117d929190614791565b60405180910390a193509350939050565b6000600367ffffffffffffffff8111156111ab576111aa613fa3565b5b6040519080825280602002602001820160405280156111e457816020015b6111d161300a565b8152602001906001900390816111c95790505b50905061120560006006600160405180602001604052806000815250611db5565b81600081518110611219576112186146a2565b5b60200260200101819052506112406004600160405180602001604052806000815250611dee565b81600181518110611254576112536146a2565b5b602002602001018190525061127b6002600160405180602001604052806000815250611dee565b8160028151811061128f5761128e6146a2565b5b602002602001018190525060006040518060600160405280600063ffffffff1681526020018473ffffffffffffffffffffffffffffffffffffffff168152602001627a120063ffffffff1681525090506000604051806101200160405280600180546112fa90614700565b80601f016020809104026020016040519081016040528092919081815260200182805461132690614700565b80156113735780601f1061134857610100808354040283529160200191611373565b820191906000526020600020905b81548152906001019060200180831161135657829003601f168201915b505050505081526020016002805461138a90614700565b80601f01602080910402602001604051908101604052809291908181526020018280546113b690614700565b80156114035780601f106113d857610100808354040283529160200191611403565b820191906000526020600020905b8154815290600101906020018083116113e657829003601f168201915b505050505081526020018573ffffffffffffffffffffffffffffffffffffffff1681526020016003805461143690614700565b80601f016020809104026020016040519081016040528092919081815260200182805461146290614700565b80156114af5780601f10611484576101008083540402835291602001916114af565b820191906000526020600020905b81548152906001019060200180831161149257829003601f168201915b50505050508152602001600115158152602001600560009054906101000a900463ffffffff1663ffffffff168152602001600015158152602001848152602001838152509050600080611501836126e5565b91509150601660030b821461151557600080fd5b7f7bb17726df1f3adee8aa00ba8e8bc5d6f182af3bbf77604639cb7f008dd3b4ed816040516115449190614575565b60405180910390a1505050505050565b600080600067ffffffffffffffff81111561157257611571613fa3565b5b6040519080825280602002602001820160405280156115ab57816020015b6115986130be565b8152602001906001900390816115905790505b509050600060405180604001604052803373ffffffffffffffffffffffffffffffffffffffff168152602001856115e1906147f0565b60070b8152509050600060405180604001604052808873ffffffffffffffffffffffffffffffffffffffff1681526020018660070b81525090506000600267ffffffffffffffff81111561163857611637613fa3565b5b60405190808252806020026020018201604052801561167157816020015b61165e61310e565b8152602001906001900390816116565790505b5090508281600081518110611689576116886146a2565b5b602002602001018190525081816001815181106116a9576116a86146a2565b5b6020026020010181905250600060405180606001604052808973ffffffffffffffffffffffffffffffffffffffff1681526020018381526020018681525090506000600167ffffffffffffffff81111561170657611705613fa3565b5b60405190808252806020026020018201604052801561173f57816020015b61172c613141565b8152602001906001900390816117245790505b5090508181600081518110611757576117566146a2565b5b602002602001018190525061176b8161285d565b9650601660030b871461177d57600080fd5b5050505050509392505050565b6000611797848484612972565b90507f90a5cf4cffe88b4edbb041cfc7a8a812c48a5ec30b84640fb37690875168e3aa816040516117c891906134e9565b60405180910390a1601660030b81146117e057600080fd5b9392505050565b60006117f1613178565b6117fa83612a8d565b80925081935050507f90a5cf4cffe88b4edbb041cfc7a8a812c48a5ec30b84640fb37690875168e3aa8260405161183191906134e9565b60405180910390a1601660030b821461184957600080fd5b7f528c7dcea75f0c9e110a038e50647cd6a70ac06d331399b77dd9a80f903ebc16816040516118789190614839565b60405180910390a1915091565b60006118918383612bbd565b90507f90a5cf4cffe88b4edbb041cfc7a8a812c48a5ec30b84640fb37690875168e3aa816040516118c291906134e9565b60405180910390a1601660030b81146118da57600080fd5b92915050565b60003073ffffffffffffffffffffffffffffffffffffffff16633b3bff0f836040518263ffffffff1660e01b815260040161191b9190614575565b602060405180830381600087803b15801561193557600080fd5b505af1158015611949573d6000803e3d6000fd5b505050506040513d601f19601f8201168201806040525081019061196d91906145bc565b90507f90a5cf4cffe88b4edbb041cfc7a8a812c48a5ec30b84640fb37690875168e3aa8160405161199e91906134e9565b60405180910390a1601660030b81146119b657600080fd5b7f319ab7084208e4afa38c6e6ff7aea9587439f2e4700746f4c7d425fea17426d260016040516119e6919061455a565b60405180910390a1919050565b6000611a00848484612cd5565b90507f90a5cf4cffe88b4edbb041cfc7a8a812c48a5ec30b84640fb37690875168e3aa81604051611a3191906134e9565b60405180910390a1601660030b8114611a4957600080fd5b9392505050565b60008060008061016773ffffffffffffffffffffffffffffffffffffffff1663f49f40db60e01b888888604051602401611a8c9392919061485b565b604051602081830303815290604052907bffffffffffffffffffffffffffffffffffffffffffffffffffffffff19166020820180517bffffffffffffffffffffffffffffffffffffffffffffffffffffffff8381831617835250505050604051611af69190614625565b6000604051808303816000865af19150503d8060008114611b33576040519150601f19603f3d011682016040523d82523d6000602084013e611b38565b606091505b509150915081611b4b5760156000611b60565b80806020019051810190611b5f91906148a7565b5b8160030b915080945081955050505050935093915050565b60008060008061016773ffffffffffffffffffffffffffffffffffffffff1663098f236660e01b8787604051602401611bb29291906148e7565b604051602081830303815290604052907bffffffffffffffffffffffffffffffffffffffffffffffffffffffff19166020820180517bffffffffffffffffffffffffffffffffffffffffffffffffffffffff8381831617835250505050604051611c1c9190614625565b6000604051808303816000865af19150503d8060008114611c59576040519150601f19603f3d011682016040523d82523d6000602084013e611c5e565b606091505b509150915081611c715760156000611c86565b80806020019051810190611c85919061494e565b5b8160030b9150809450819550505050509250929050565b600080600061016773ffffffffffffffffffffffffffffffffffffffff166352f9138760e01b8686604051602401611cd692919061498e565b604051602081830303815290604052907bffffffffffffffffffffffffffffffffffffffffffffffffffffffff19166020820180517bffffffffffffffffffffffffffffffffffffffffffffffffffffffff8381831617835250505050604051611d409190614625565b6000604051808303816000865af19150503d8060008114611d7d576040519150601f19603f3d011682016040523d82523d6000602084013e611d82565b606091505b509150915081611d93576015611da8565b80806020019051810190611da79190614675565b5b60030b9250505092915050565b611dbd61300a565b6040518060400160405280611dd28787612df0565b8152602001611de18585612e22565b8152509050949350505050565b611df661300a565b6040518060400160405280611e0a86612f58565b8152602001611e198585612e22565b81525090509392505050565b6000808460008161010001516000015163ffffffff16148015611e57575060008161010001516040015163ffffffff16145b15611e7d576276a7008161010001516040019063ffffffff16908163ffffffff16815250505b60008061016773ffffffffffffffffffffffffffffffffffffffff1634637812a04b60e01b8a8a8a604051602401611eb793929190614a91565b604051602081830303815290604052907bffffffffffffffffffffffffffffffffffffffffffffffffffffffff19166020820180517bffffffffffffffffffffffffffffffffffffffffffffffffffffffff8381831617835250505050604051611f219190614625565b60006040518083038185875af1925050503d8060008114611f5e576040519150601f19603f3d011682016040523d82523d6000602084013e611f63565b606091505b509150915081611f765760156000611f8b565b80806020019051810190611f8a919061494e565b5b8160030b91508095508196505050505050935093915050565b6000611fae61302a565b60008061016773ffffffffffffffffffffffffffffffffffffffff1663287e1da860e01b8787604051602401611fe5929190614ade565b604051602081830303815290604052907bffffffffffffffffffffffffffffffffffffffffffffffffffffffff19166020820180517bffffffffffffffffffffffffffffffffffffffffffffffffffffffff838183161783525050505060405161204f9190614625565b6000604051808303816000865af19150503d806000811461208c576040519150601f19603f3d011682016040523d82523d6000602084013e612091565b606091505b509150915061209e61302a565b826120ab576015816120c0565b818060200190518101906120bf91906156c0565b5b8160030b915080955081965050505050509250929050565b60008060008061016773ffffffffffffffffffffffffffffffffffffffff1663927da10560e01b8888886040516024016121149392919061485b565b604051602081830303815290604052907bffffffffffffffffffffffffffffffffffffffffffffffffffffffff19166020820180517bffffffffffffffffffffffffffffffffffffffffffffffffffffffff838183161783525050505060405161217e9190614625565b6000604051808303816000865af19150503d80600081146121bb576040519150601f19603f3d011682016040523d82523d6000602084013e6121c0565b606091505b5091509150816121d357601560006121e8565b808060200190518101906121e7919061571c565b5b8160030b915080945081955050505050935093915050565b600061220a613098565b60008061016773ffffffffffffffffffffffffffffffffffffffff16633f28a19b60e01b8660405160240161223f9190614575565b604051602081830303815290604052907bffffffffffffffffffffffffffffffffffffffffffffffffffffffff19166020820180517bffffffffffffffffffffffffffffffffffffffffffffffffffffffff83818316178352505050506040516122a99190614625565b6000604051808303816000865af19150503d80600081146122e6576040519150601f19603f3d011682016040523d82523d6000602084013e6122eb565b606091505b50915091506122f8613098565b826123055760158161231a565b8180602001905181019061231991906157c8565b5b8160030b91508095508196505050505050915091565b60008060008061016773ffffffffffffffffffffffffffffffffffffffff166346de0fb160e01b878760405160240161236a92919061498e565b604051602081830303815290604052907bffffffffffffffffffffffffffffffffffffffffffffffffffffffff19166020820180517bffffffffffffffffffffffffffffffffffffffffffffffffffffffff83818316178352505050506040516123d49190614625565b6000604051808303816000865af19150503d8060008114612411576040519150601f19603f3d011682016040523d82523d6000602084013e612416565b606091505b509150915081612429576015600061243e565b8080602001905181019061243d91906148a7565b5b8160030b9150809450819550505050509250929050565b600080600061016773ffffffffffffffffffffffffffffffffffffffff16635b8f858460e01b868660405160240161248e92919061498e565b604051602081830303815290604052907bffffffffffffffffffffffffffffffffffffffffffffffffffffffff19166020820180517bffffffffffffffffffffffffffffffffffffffffffffffffffffffff83818316178352505050506040516124f89190614625565b6000604051808303816000865af19150503d8060008114612535576040519150601f19603f3d011682016040523d82523d6000602084013e61253a565b606091505b50915091508161254b576015612560565b8080602001905181019061255f9190614675565b5b60030b9250505092915050565b600080606060008061016773ffffffffffffffffffffffffffffffffffffffff1663278e0b8860e01b8989896040516024016125ab939291906158e6565b604051602081830303815290604052907bffffffffffffffffffffffffffffffffffffffffffffffffffffffff19166020820180517bffffffffffffffffffffffffffffffffffffffffffffffffffffffff83818316178352505050506040516126159190614625565b6000604051808303816000865af19150503d8060008114612652576040519150601f19603f3d011682016040523d82523d6000602084013e612657565b606091505b5091509150816126b357601560008067ffffffffffffffff81111561267f5761267e613fa3565b5b6040519080825280602002602001820160405280156126ad5781602001602082028036833780820191505090505b506126c8565b808060200190518101906126c791906159e7565b5b8260030b9250809550819650829750505050505093509350939050565b6000808260008161010001516000015163ffffffff16148015612717575060008161010001516040015163ffffffff16145b1561273d576276a7008161010001516040019063ffffffff16908163ffffffff16815250505b60008061016773ffffffffffffffffffffffffffffffffffffffff1634639dc711e060e01b886040516024016127739190615a56565b604051602081830303815290604052907bffffffffffffffffffffffffffffffffffffffffffffffffffffffff19166020820180517bffffffffffffffffffffffffffffffffffffffffffffffffffffffff83818316178352505050506040516127dd9190614625565b60006040518083038185875af1925050503d806000811461281a576040519150601f19603f3d011682016040523d82523d6000602084013e61281f565b606091505b5091509150816128325760156000612847565b80806020019051810190612846919061494e565b5b8160030b91508095508196505050505050915091565b600080600061016773ffffffffffffffffffffffffffffffffffffffff1663189a554c60e01b856040516024016128949190615d60565b604051602081830303815290604052907bffffffffffffffffffffffffffffffffffffffffffffffffffffffff19166020820180517bffffffffffffffffffffffffffffffffffffffffffffffffffffffff83818316178352505050506040516128fe9190614625565b6000604051808303816000865af19150503d806000811461293b576040519150601f19603f3d011682016040523d82523d6000602084013e612940565b606091505b509150915081612951576015612966565b808060200190518101906129659190614675565b5b60030b92505050919050565b600080600061016773ffffffffffffffffffffffffffffffffffffffff1663367605ca60e01b8787876040516024016129ad93929190615d82565b604051602081830303815290604052907bffffffffffffffffffffffffffffffffffffffffffffffffffffffff19166020820180517bffffffffffffffffffffffffffffffffffffffffffffffffffffffff8381831617835250505050604051612a179190614625565b6000604051808303816000865af19150503d8060008114612a54576040519150601f19603f3d011682016040523d82523d6000602084013e612a59565b606091505b509150915081612a6a576015612a7f565b80806020019051810190612a7e9190614675565b5b60030b925050509392505050565b6000612a97613178565b60008061016773ffffffffffffffffffffffffffffffffffffffff16631f69565f60e01b86604051602401612acc9190614575565b604051602081830303815290604052907bffffffffffffffffffffffffffffffffffffffffffffffffffffffff19166020820180517bffffffffffffffffffffffffffffffffffffffffffffffffffffffff8381831617835250505050604051612b369190614625565b6000604051808303816000865af19150503d8060008114612b73576040519150601f19603f3d011682016040523d82523d6000602084013e612b78565b606091505b5091509150612b85613178565b82612b9257601581612ba7565b81806020019051810190612ba69190615db9565b5b8160030b91508095508196505050505050915091565b600080600061016773ffffffffffffffffffffffffffffffffffffffff166349146bde60e01b8686604051602401612bf692919061498e565b604051602081830303815290604052907bffffffffffffffffffffffffffffffffffffffffffffffffffffffff19166020820180517bffffffffffffffffffffffffffffffffffffffffffffffffffffffff8381831617835250505050604051612c609190614625565b6000604051808303816000865af19150503d8060008114612c9d576040519150601f19603f3d011682016040523d82523d6000602084013e612ca2565b606091505b509150915081612cb3576015612cc8565b80806020019051810190612cc79190614675565b5b60030b9250505092915050565b600080600061016773ffffffffffffffffffffffffffffffffffffffff1663e1f21c6760e01b878787604051602401612d1093929190615e15565b604051602081830303815290604052907bffffffffffffffffffffffffffffffffffffffffffffffffffffffff19166020820180517bffffffffffffffffffffffffffffffffffffffffffffffffffffffff8381831617835250505050604051612d7a9190614625565b6000604051808303816000865af19150503d8060008114612db7576040519150601f19603f3d011682016040523d82523d6000602084013e612dbc565b606091505b509150915081612dcd576015612de2565b80806020019051810190612de19190614675565b5b60030b925050509392505050565b6000612e058382612ff690919063ffffffff16565b9050612e1a8282612ff690919063ffffffff16565b905092915050565b612e2a6131da565b60018360ff161415612e4c576001816000019015159081151581525050612f52565b60028360ff161415612eb55760008054906101000a900473ffffffffffffffffffffffffffffffffffffffff16816020019073ffffffffffffffffffffffffffffffffffffffff16908173ffffffffffffffffffffffffffffffffffffffff1681525050612f51565b60038360ff161415612ecf57818160400181905250612f50565b60048360ff161415612ee957818160600181905250612f4f565b60058360ff161415612f4e5760008054906101000a900473ffffffffffffffffffffffffffffffffffffffff16816080019073ffffffffffffffffffffffffffffffffffffffff16908173ffffffffffffffffffffffffffffffffffffffff16815250505b5b5b5b5b92915050565b6000808260ff161415612f6e5760019050612ff1565b60018260ff161415612f835760029050612ff1565b60028260ff161415612f985760049050612ff1565b60038260ff161415612fad5760089050612ff1565b60048260ff161415612fc25760109050612ff1565b60058260ff161415612fd75760209050612ff1565b60068260ff161415612fec5760409050612ff1565b600090505b919050565b60008160ff166001901b8317905092915050565b6040518060400160405280600081526020016130246131da565b81525090565b6040518060c0016040528061303d613178565b8152602001600060070b8152602001600073ffffffffffffffffffffffffffffffffffffffff168152602001600060070b815260200160608152602001600073ffffffffffffffffffffffffffffffffffffffff1681525090565b60405180604001604052806130ab613178565b8152602001600063ffffffff1681525090565b6040518060600160405280600073ffffffffffffffffffffffffffffffffffffffff168152602001600073ffffffffffffffffffffffffffffffffffffffff168152602001600060070b81525090565b6040518060400160405280600073ffffffffffffffffffffffffffffffffffffffff168152602001600060070b81525090565b6040518060600160405280600073ffffffffffffffffffffffffffffffffffffffff16815260200160608152602001606081525090565b60405180610120016040528061318c613237565b8152602001600067ffffffffffffffff168152602001600015158152602001600015158152602001600015158152602001606081526020016060815260200160608152602001606081525090565b6040518060a00160405280600015158152602001600073ffffffffffffffffffffffffffffffffffffffff1681526020016060815260200160608152602001600073ffffffffffffffffffffffffffffffffffffffff1681525090565b6040518061012001604052806060815260200160608152602001600073ffffffffffffffffffffffffffffffffffffffff16815260200160608152602001600015158152602001600063ffffffff168152602001600015158152602001606081526020016132a36132a9565b81525090565b6040518060600160405280600063ffffffff168152602001600073ffffffffffffffffffffffffffffffffffffffff168152602001600063ffffffff1681525090565b6000604051905090565b600080fd5b600080fd5b600073ffffffffffffffffffffffffffffffffffffffff82169050919050565b600061332b82613300565b9050919050565b61333b81613320565b811461334657600080fd5b50565b60008135905061335881613332565b92915050565b600080600060608486031215613377576133766132f6565b5b600061338586828701613349565b935050602061339686828701613349565b92505060406133a786828701613349565b9150509250925092565b6000819050919050565b6133c4816133b1565b82525050565b60008115159050919050565b6133df816133ca565b82525050565b60006040820190506133fa60008301856133bb565b61340760208301846133d6565b9392505050565b6000819050919050565b6134218161340e565b811461342c57600080fd5b50565b60008135905061343e81613418565b92915050565b6000806040838503121561345b5761345a6132f6565b5b600061346985828601613349565b925050602061347a8582860161342f565b9150509250929050565b61348d81613320565b82525050565b60006040820190506134a860008301856133bb565b6134b56020830184613484565b9392505050565b6000602082840312156134d2576134d16132f6565b5b60006134e084828501613349565b91505092915050565b60006020820190506134fe60008301846133bb565b92915050565b6000806040838503121561351b5761351a6132f6565b5b600061352985828601613349565b925050602061353a85828601613349565b9150509250929050565b60008160070b9050919050565b61355a81613544565b811461356557600080fd5b50565b60008135905061357781613551565b92915050565b60008060408385031215613594576135936132f6565b5b60006135a285828601613349565b92505060206135b385828601613568565b9150509250929050565b600081519050919050565b600082825260208201905092915050565b60005b838110156135f75780820151818401526020810190506135dc565b83811115613606576000848401525b50505050565b6000601f19601f8301169050919050565b6000613628826135bd565b61363281856135c8565b93506136428185602086016135d9565b61364b8161360c565b840191505092915050565b61365f81613320565b82525050565b61366e816133ca565b82525050565b600063ffffffff82169050919050565b61368d81613674565b82525050565b600081519050919050565b600082825260208201905092915050565b6000819050602082019050919050565b6136c88161340e565b82525050565b600081519050919050565b600082825260208201905092915050565b60006136f5826136ce565b6136ff81856136d9565b935061370f8185602086016135d9565b6137188161360c565b840191505092915050565b600060a08301600083015161373b6000860182613665565b50602083015161374e6020860182613656565b506040830151848203604086015261376682826136ea565b9150506060830151848203606086015261378082826136ea565b91505060808301516137956080860182613656565b508091505092915050565b60006040830160008301516137b860008601826136bf565b50602083015184820360208601526137d08282613723565b9150508091505092915050565b60006137e983836137a0565b905092915050565b6000602082019050919050565b600061380982613693565b613813818561369e565b935083602082028501613825856136af565b8060005b85811015613861578484038952815161384285826137dd565b945061384d836137f1565b925060208a01995050600181019050613829565b50829750879550505050505092915050565b6060820160008201516138896000850182613684565b50602082015161389c6020850182613656565b5060408201516138af6040850182613684565b50505050565b60006101608301600083015184820360008601526138d3828261361d565b915050602083015184820360208601526138ed828261361d565b91505060408301516139026040860182613656565b506060830151848203606086015261391a828261361d565b915050608083015161392f6080860182613665565b5060a083015161394260a0860182613684565b5060c083015161395560c0860182613665565b5060e083015184820360e086015261396d82826137fe565b915050610100830151613984610100860182613873565b508091505092915050565b600067ffffffffffffffff82169050919050565b6139ac8161398f565b82525050565b600081519050919050565b600082825260208201905092915050565b6000819050602082019050919050565b60a0820160008201516139f46000850182613684565b506020820151613a076020850182613656565b506040820151613a1a6040850182613665565b506060820151613a2d6060850182613665565b506080820151613a406080850182613656565b50505050565b6000613a5283836139de565b60a08301905092915050565b6000602082019050919050565b6000613a76826139b2565b613a8081856139bd565b9350613a8b836139ce565b8060005b83811015613abc578151613aa38882613a46565b9750613aae83613a5e565b925050600181019050613a8f565b5085935050505092915050565b600081519050919050565b600082825260208201905092915050565b6000819050602082019050919050565b60c082016000820151613b0b6000850182613684565b506020820151613b1e6020850182613684565b506040820151613b316040850182613684565b506060820151613b446060850182613684565b506080820151613b576080850182613665565b5060a0820151613b6a60a0850182613656565b50505050565b6000613b7c8383613af5565b60c08301905092915050565b6000602082019050919050565b6000613ba082613ac9565b613baa8185613ad4565b9350613bb583613ae5565b8060005b83811015613be6578151613bcd8882613b70565b9750613bd883613b88565b925050600181019050613bb9565b5085935050505092915050565b600081519050919050565b600082825260208201905092915050565b6000819050602082019050919050565b60c082016000820151613c356000850182613684565b506020820151613c486020850182613684565b506040820151613c5b6040850182613684565b506060820151613c6e6060850182613656565b506080820151613c816080850182613665565b5060a0820151613c9460a0850182613656565b50505050565b6000613ca68383613c1f565b60c08301905092915050565b6000602082019050919050565b6000613cca82613bf3565b613cd48185613bfe565b9350613cdf83613c0f565b8060005b83811015613d10578151613cf78882613c9a565b9750613d0283613cb2565b925050600181019050613ce3565b5085935050505092915050565b6000610120830160008301518482036000860152613d3b82826138b5565b9150506020830151613d5060208601826139a3565b506040830151613d636040860182613665565b506060830151613d766060860182613665565b506080830151613d896080860182613665565b5060a083015184820360a0860152613da18282613a6b565b91505060c083015184820360c0860152613dbb8282613b95565b91505060e083015184820360e0860152613dd58282613cbf565b915050610100830151848203610100860152613df1828261361d565b9150508091505092915050565b613e0781613544565b82525050565b600060c0830160008301518482036000860152613e2a8282613d1d565b9150506020830151613e3f6020860182613dfe565b506040830151613e526040860182613656565b506060830151613e656060860182613dfe565b5060808301518482036080860152613e7d82826136ea565b91505060a0830151613e9260a0860182613656565b508091505092915050565b6000604082019050613eb260008301856133bb565b8181036020830152613ec48184613e0d565b90509392505050565b613ed68161340e565b82525050565b6000604082019050613ef160008301856133bb565b613efe6020830184613ecd565b9392505050565b60006040830160008301518482036000860152613f228282613d1d565b9150506020830151613f376020860182613684565b508091505092915050565b6000604082019050613f5760008301856133bb565b8181036020830152613f698184613f05565b90509392505050565b613f7b8161398f565b8114613f8657600080fd5b50565b600081359050613f9881613f72565b92915050565b600080fd5b7f4e487b7100000000000000000000000000000000000000000000000000000000600052604160045260246000fd5b613fdb8261360c565b810181811067ffffffffffffffff82111715613ffa57613ff9613fa3565b5b80604052505050565b600061400d6132ec565b90506140198282613fd2565b919050565b600067ffffffffffffffff82111561403957614038613fa3565b5b602082029050602081019050919050565b600080fd5b600080fd5b600067ffffffffffffffff82111561406f5761406e613fa3565b5b6140788261360c565b9050602081019050919050565b82818337600083830152505050565b60006140a76140a284614054565b614003565b9050828152602081018484840111156140c3576140c261404f565b5b6140ce848285614085565b509392505050565b600082601f8301126140eb576140ea613f9e565b5b81356140fb848260208601614094565b91505092915050565b60006141176141128461401e565b614003565b9050808382526020820190506020840283018581111561413a5761413961404a565b5b835b8181101561418157803567ffffffffffffffff81111561415f5761415e613f9e565b5b80860161416c89826140d6565b8552602085019450505060208101905061413c565b5050509392505050565b600082601f8301126141a05761419f613f9e565b5b81356141b0848260208601614104565b91505092915050565b6000806000606084860312156141d2576141d16132f6565b5b60006141e086828701613349565b93505060206141f186828701613f89565b925050604084013567ffffffffffffffff811115614212576142116132fb565b5b61421e8682870161418b565b9150509250925092565b6142318161398f565b82525050565b600081519050919050565b600082825260208201905092915050565b6000819050602082019050919050565b600061426f8383613dfe565b60208301905092915050565b6000602082019050919050565b600061429382614237565b61429d8185614242565b93506142a883614253565b8060005b838110156142d95781516142c08882614263565b97506142cb8361427b565b9250506001810190506142ac565b5085935050505092915050565b60006060820190506142fb60008301866133bb565b6143086020830185614228565b818103604083015261431a8184614288565b9050949350505050565b60008060006060848603121561433d5761433c6132f6565b5b600061434b86828701613349565b935050602061435c86828701613349565b925050604061436d86828701613568565b9150509250925092565b614380816133ca565b811461438b57600080fd5b50565b60008135905061439d81614377565b92915050565b6000806000606084860312156143bc576143bb6132f6565b5b60006143ca86828701613349565b93505060206143db86828701613349565b92505060406143ec8682870161438e565b9150509250925092565b600061012083016000830151848203600086015261441482826138b5565b915050602083015161442960208601826139a3565b50604083015161443c6040860182613665565b50606083015161444f6060860182613665565b5060808301516144626080860182613665565b5060a083015184820360a086015261447a8282613a6b565b91505060c083015184820360c08601526144948282613b95565b91505060e083015184820360e08601526144ae8282613cbf565b9150506101008301518482036101008601526144ca828261361d565b9150508091505092915050565b60006040820190506144ec60008301856133bb565b81810360208301526144fe81846143f6565b90509392505050565b6000806000606084860312156145205761451f6132f6565b5b600061452e86828701613349565b935050602061453f86828701613349565b92505060406145508682870161342f565b9150509250925092565b600060208201905061456f60008301846133d6565b92915050565b600060208201905061458a6000830184613484565b92915050565b614599816133b1565b81146145a457600080fd5b50565b6000815190506145b681614590565b92915050565b6000602082840312156145d2576145d16132f6565b5b60006145e0848285016145a7565b91505092915050565b600081905092915050565b60006145ff826136ce565b61460981856145e9565b93506146198185602086016135d9565b80840191505092915050565b600061463182846145f4565b915081905092915050565b60008160030b9050919050565b6146528161463c565b811461465d57600080fd5b50565b60008151905061466f81614649565b92915050565b60006020828403121561468b5761468a6132f6565b5b600061469984828501614660565b91505092915050565b7f4e487b7100000000000000000000000000000000000000000000000000000000600052603260045260246000fd5b7f4e487b7100000000000000000000000000000000000000000000000000000000600052602260045260246000fd5b6000600282049050600182168061471857607f821691505b6020821081141561472c5761472b6146d1565b5b50919050565b6000602082019050818103600083015261474c8184613e0d565b905092915050565b60006020820190506147696000830184613ecd565b92915050565b600060208201905081810360008301526147898184613f05565b905092915050565b60006040820190506147a66000830185614228565b81810360208301526147b88184614288565b90509392505050565b7f4e487b7100000000000000000000000000000000000000000000000000000000600052601160045260246000fd5b60006147fb82613544565b91507fffffffffffffffffffffffffffffffffffffffffffffffff800000000000000082141561482e5761482d6147c1565b5b816000039050919050565b6000602082019050818103600083015261485381846143f6565b905092915050565b60006060820190506148706000830186613484565b61487d6020830185613484565b61488a6040830184613484565b949350505050565b6000815190506148a181614377565b92915050565b600080604083850312156148be576148bd6132f6565b5b60006148cc85828601614660565b92505060206148dd85828601614892565b9150509250929050565b60006040820190506148fc6000830185613484565b6149096020830184613ecd565b9392505050565b600061491b82613300565b9050919050565b61492b81614910565b811461493657600080fd5b50565b60008151905061494881614922565b92915050565b60008060408385031215614965576149646132f6565b5b600061497385828601614660565b925050602061498485828601614939565b9150509250929050565b60006040820190506149a36000830185613484565b6149b06020830184613484565b9392505050565b60006101608301600083015184820360008601526149d5828261361d565b915050602083015184820360208601526149ef828261361d565b9150506040830151614a046040860182613656565b5060608301518482036060860152614a1c828261361d565b9150506080830151614a316080860182613665565b5060a0830151614a4460a0860182613684565b5060c0830151614a5760c0860182613665565b5060e083015184820360e0860152614a6f82826137fe565b915050610100830151614a86610100860182613873565b508091505092915050565b60006060820190508181036000830152614aab81866149b7565b9050614aba6020830185613ecd565b614ac76040830184613ecd565b949350505050565b614ad881613544565b82525050565b6000604082019050614af36000830185613484565b614b006020830184614acf565b9392505050565b600080fd5b600080fd5b600067ffffffffffffffff821115614b2c57614b2b613fa3565b5b614b358261360c565b9050602081019050919050565b6000614b55614b5084614b11565b614003565b905082815260208101848484011115614b7157614b7061404f565b5b614b7c8482856135d9565b509392505050565b600082601f830112614b9957614b98613f9e565b5b8151614ba9848260208601614b42565b91505092915050565b600081519050614bc181613332565b92915050565b614bd081613674565b8114614bdb57600080fd5b50565b600081519050614bed81614bc7565b92915050565b600067ffffffffffffffff821115614c0e57614c0d613fa3565b5b602082029050602081019050919050565b600081519050614c2e81613418565b92915050565b6000614c47614c4284614054565b614003565b905082815260208101848484011115614c6357614c6261404f565b5b614c6e8482856135d9565b509392505050565b600082601f830112614c8b57614c8a613f9e565b5b8151614c9b848260208601614c34565b91505092915050565b600060a08284031215614cba57614cb9614b07565b5b614cc460a0614003565b90506000614cd484828501614892565b6000830152506020614ce884828501614bb2565b602083015250604082015167ffffffffffffffff811115614d0c57614d0b614b0c565b5b614d1884828501614c76565b604083015250606082015167ffffffffffffffff811115614d3c57614d3b614b0c565b5b614d4884828501614c76565b6060830152506080614d5c84828501614bb2565b60808301525092915050565b600060408284031215614d7e57614d7d614b07565b5b614d886040614003565b90506000614d9884828501614c1f565b600083015250602082015167ffffffffffffffff811115614dbc57614dbb614b0c565b5b614dc884828501614ca4565b60208301525092915050565b6000614de7614de284614bf3565b614003565b90508083825260208201905060208402830185811115614e0a57614e0961404a565b5b835b81811015614e5157805167ffffffffffffffff811115614e2f57614e2e613f9e565b5b808601614e3c8982614d68565b85526020850194505050602081019050614e0c565b5050509392505050565b600082601f830112614e7057614e6f613f9e565b5b8151614e80848260208601614dd4565b91505092915050565b600060608284031215614e9f57614e9e614b07565b5b614ea96060614003565b90506000614eb984828501614bde565b6000830152506020614ecd84828501614bb2565b6020830152506040614ee184828501614bde565b60408301525092915050565b60006101608284031215614f0457614f03614b07565b5b614f0f610120614003565b9050600082015167ffffffffffffffff811115614f2f57614f2e614b0c565b5b614f3b84828501614b84565b600083015250602082015167ffffffffffffffff811115614f5f57614f5e614b0c565b5b614f6b84828501614b84565b6020830152506040614f7f84828501614bb2565b604083015250606082015167ffffffffffffffff811115614fa357614fa2614b0c565b5b614faf84828501614b84565b6060830152506080614fc384828501614892565b60808301525060a0614fd784828501614bde565b60a08301525060c0614feb84828501614892565b60c08301525060e082015167ffffffffffffffff81111561500f5761500e614b0c565b5b61501b84828501614e5b565b60e08301525061010061503084828501614e89565b6101008301525092915050565b60008151905061504c81613f72565b92915050565b600067ffffffffffffffff82111561506d5761506c613fa3565b5b602082029050602081019050919050565b600060a0828403121561509457615093614b07565b5b61509e60a0614003565b905060006150ae84828501614bde565b60008301525060206150c284828501614bb2565b60208301525060406150d684828501614892565b60408301525060606150ea84828501614892565b60608301525060806150fe84828501614bb2565b60808301525092915050565b600061511d61511884615052565b614003565b90508083825260208201905060a084028301858111156151405761513f61404a565b5b835b818110156151695780615155888261507e565b84526020840193505060a081019050615142565b5050509392505050565b600082601f83011261518857615187613f9e565b5b815161519884826020860161510a565b91505092915050565b600067ffffffffffffffff8211156151bc576151bb613fa3565b5b602082029050602081019050919050565b600060c082840312156151e3576151e2614b07565b5b6151ed60c0614003565b905060006151fd84828501614bde565b600083015250602061521184828501614bde565b602083015250604061522584828501614bde565b604083015250606061523984828501614bde565b606083015250608061524d84828501614892565b60808301525060a061526184828501614bb2565b60a08301525092915050565b600061528061527b846151a1565b614003565b90508083825260208201905060c084028301858111156152a3576152a261404a565b5b835b818110156152cc57806152b888826151cd565b84526020840193505060c0810190506152a5565b5050509392505050565b600082601f8301126152eb576152ea613f9e565b5b81516152fb84826020860161526d565b91505092915050565b600067ffffffffffffffff82111561531f5761531e613fa3565b5b602082029050602081019050919050565b600060c0828403121561534657615345614b07565b5b61535060c0614003565b9050600061536084828501614bde565b600083015250602061537484828501614bde565b602083015250604061538884828501614bde565b604083015250606061539c84828501614bb2565b60608301525060806153b084828501614892565b60808301525060a06153c484828501614bb2565b60a08301525092915050565b60006153e36153de84615304565b614003565b90508083825260208201905060c084028301858111156154065761540561404a565b5b835b8181101561542f578061541b8882615330565b84526020840193505060c081019050615408565b5050509392505050565b600082601f83011261544e5761544d613f9e565b5b815161545e8482602086016153d0565b91505092915050565b6000610120828403121561547e5761547d614b07565b5b615489610120614003565b9050600082015167ffffffffffffffff8111156154a9576154a8614b0c565b5b6154b584828501614eed565b60008301525060206154c98482850161503d565b60208301525060406154dd84828501614892565b60408301525060606154f184828501614892565b606083015250608061550584828501614892565b60808301525060a082015167ffffffffffffffff81111561552957615528614b0c565b5b61553584828501615173565b60a08301525060c082015167ffffffffffffffff81111561555957615558614b0c565b5b615565848285016152d6565b60c08301525060e082015167ffffffffffffffff81111561558957615588614b0c565b5b61559584828501615439565b60e08301525061010082015167ffffffffffffffff8111156155ba576155b9614b0c565b5b6155c684828501614b84565b6101008301525092915050565b6000815190506155e281613551565b92915050565b600060c082840312156155fe576155fd614b07565b5b61560860c0614003565b9050600082015167ffffffffffffffff81111561562857615627614b0c565b5b61563484828501615467565b6000830152506020615648848285016155d3565b602083015250604061565c84828501614bb2565b6040830152506060615670848285016155d3565b606083015250608082015167ffffffffffffffff81111561569457615693614b0c565b5b6156a084828501614c76565b60808301525060a06156b484828501614bb2565b60a08301525092915050565b600080604083850312156156d7576156d66132f6565b5b60006156e585828601614660565b925050602083015167ffffffffffffffff811115615706576157056132fb565b5b615712858286016155e8565b9150509250929050565b60008060408385031215615733576157326132f6565b5b600061574185828601614660565b925050602061575285828601614c1f565b9150509250929050565b60006040828403121561577257615771614b07565b5b61577c6040614003565b9050600082015167ffffffffffffffff81111561579c5761579b614b0c565b5b6157a884828501615467565b60008301525060206157bc84828501614bde565b60208301525092915050565b600080604083850312156157df576157de6132f6565b5b60006157ed85828601614660565b925050602083015167ffffffffffffffff81111561580e5761580d6132fb565b5b61581a8582860161575c565b9150509250929050565b600081519050919050565b600082825260208201905092915050565b6000819050602082019050919050565b600061585c83836136ea565b905092915050565b6000602082019050919050565b600061587c82615824565b615886818561582f565b93508360208202850161589885615840565b8060005b858110156158d457848403895281516158b58582615850565b94506158c083615864565b925060208a0199505060018101905061589c565b50829750879550505050505092915050565b60006060820190506158fb6000830186613484565b6159086020830185614228565b818103604083015261591a8184615871565b9050949350505050565b600067ffffffffffffffff82111561593f5761593e613fa3565b5b602082029050602081019050919050565b600061596361595e84615924565b614003565b905080838252602082019050602084028301858111156159865761598561404a565b5b835b818110156159af578061599b88826155d3565b845260208401935050602081019050615988565b5050509392505050565b600082601f8301126159ce576159cd613f9e565b5b81516159de848260208601615950565b91505092915050565b600080600060608486031215615a00576159ff6132f6565b5b6000615a0e86828701614660565b9350506020615a1f8682870161503d565b925050604084015167ffffffffffffffff811115615a4057615a3f6132fb565b5b615a4c868287016159b9565b9150509250925092565b60006020820190508181036000830152615a7081846149b7565b905092915050565b600081519050919050565b600082825260208201905092915050565b6000819050602082019050919050565b600081519050919050565b600082825260208201905092915050565b6000819050602082019050919050565b604082016000820151615ae66000850182613656565b506020820151615af96020850182613dfe565b50505050565b6000615b0b8383615ad0565b60408301905092915050565b6000602082019050919050565b6000615b2f82615aa4565b615b398185615aaf565b9350615b4483615ac0565b8060005b83811015615b75578151615b5c8882615aff565b9750615b6783615b17565b925050600181019050615b48565b5085935050505092915050565b600081519050919050565b600082825260208201905092915050565b6000819050602082019050919050565b606082016000820151615bc46000850182613656565b506020820151615bd76020850182613656565b506040820151615bea6040850182613dfe565b50505050565b6000615bfc8383615bae565b60608301905092915050565b6000602082019050919050565b6000615c2082615b82565b615c2a8185615b8d565b9350615c3583615b9e565b8060005b83811015615c66578151615c4d8882615bf0565b9750615c5883615c08565b925050600181019050615c39565b5085935050505092915050565b6000606083016000830151615c8b6000860182613656565b5060208301518482036020860152615ca38282615b24565b91505060408301518482036040860152615cbd8282615c15565b9150508091505092915050565b6000615cd68383615c73565b905092915050565b6000602082019050919050565b6000615cf682615a78565b615d008185615a83565b935083602082028501615d1285615a94565b8060005b85811015615d4e5784840389528151615d2f8582615cca565b9450615d3a83615cde565b925060208a01995050600181019050615d16565b50829750879550505050505092915050565b60006020820190508181036000830152615d7a8184615ceb565b905092915050565b6000606082019050615d976000830186613484565b615da46020830185613484565b615db160408301846133d6565b949350505050565b60008060408385031215615dd057615dcf6132f6565b5b6000615dde85828601614660565b925050602083015167ffffffffffffffff811115615dff57615dfe6132fb565b5b615e0b85828601615467565b9150509250929050565b6000606082019050615e2a6000830186613484565b615e376020830185613484565b615e446040830184613ecd565b94935050505056fea2646970667358221220140ab27ff324936a9daacd5bd16bfdd1d775e96775f9853de35556df2effb28a64736f6c63430008090033",
  "linkReferences": {},
  "deployedLinkReferences": {}
}