{
  "_format": "hh-sol-artifact-1",
  "contractName": "BaseHTS",
  "sourceName": "contracts/BaseHTS.sol",
  "abi": [
    {
      "anonymous": false,
      "inputs": [
        {
          "indexed": false,
          "internalType": "address",
          "name": "tokenAddress",
          "type": "address"
        }
      ],
      "name": "CreatedToken",
      "type": "event"
    },
    {
      "inputs": [
        {
          "internalType": "address",
          "name": "account",
          "type": "address"
        },
        {
          "internalType": "address",
          "name": "token",
          "type": "address"
        }
      ],
      "name": "associateTokenTo",
      "outputs": [
        {
          "internalType": "int256",
          "name": "responseCode",
          "type": "int256"
        }
      ],
      "stateMutability": "nonpayable",
      "type": "function"
    },
    {
      "inputs": [
        {
          "internalType": "address",
          "name": "treasury",
          "type": "address"
        }
      ],
      "name": "createToken",
      "outputs": [],
      "stateMutability": "payable",
      "type": "function"
    },
    {
      "inputs": [
        {
          "internalType": "address",
          "name": "token",
          "type": "address"
        }
      ],
      "name": "pauseToken",
      "outputs": [
        {
          "internalType": "int256",
          "name": "responseCode",
          "type": "int256"
        }
      ],
      "stateMutability": "nonpayable",
      "type": "function"
    },
    {
      "inputs": [
        {
          "internalType": "address",
          "name": "account",
          "type": "address"
        },
        {
          "internalType": "address",
          "name": "token",
          "type": "address"
        },
        {
          "internalType": "int64",
          "name": "amount",
          "type": "int64"
        }
      ],
      "name": "transferTokenTo",
      "outputs": [
        {
          "internalType": "int256",
          "name": "responseCode",
          "type": "int256"
        }
      ],
      "stateMutability": "nonpayable",
      "type": "function"
    },
    {
      "inputs": [
        {
          "internalType": "address",
          "name": "token",
          "type": "address"
        }
      ],
      "name": "unpauseToken",
      "outputs": [
        {
          "internalType": "int256",
          "name": "responseCode",
          "type": "int256"
        }
      ],
      "stateMutability": "nonpayable",
      "type": "function"
    }
  ],
  "bytecode": "0x60c06040526009608081905268746f6b656e4e616d6560b81b60a09081526200002c9160019190620000c1565b5060408051808201909152600b8082526a1d1bdad95b94de5b589bdb60aa1b60209092019182526200006191600291620000c1565b50604080518082019091526004808252636d656d6f60e01b60209092019182526200008f91600391620000c1565b506103e860048190556005805463ffffffff191690911790556008600655348015620000ba57600080fd5b50620001a4565b828054620000cf9062000167565b90600052602060002090601f016020900481019282620000f357600085556200013e565b82601f106200010e57805160ff19168380011785556200013e565b828001600101855582156200013e579182015b828111156200013e57825182559160200191906001019062000121565b506200014c92915062000150565b5090565b5b808211156200014c576000815560010162000151565b600181811c908216806200017c57607f821691505b602082108114156200019e57634e487b7160e01b600052602260045260246000fd5b50919050565b610fff80620001b46000396000f3fe60806040526004361061004a5760003560e01c80633b3bff0f1461004f57806349dca8cc146100815780635eceade8146100a15780637c41ad2c146100c1578063c21ab7f9146100e1575b600080fd5b34801561005b57600080fd5b5061006f61006a366004610ac6565b6100f6565b60405190815260200160405180910390f35b34801561008d57600080fd5b5061006f61009c366004610ae2565b6101d0565b3480156100ad57600080fd5b5061006f6100bc366004610b1a565b6101f1565b3480156100cd57600080fd5b5061006f6100dc366004610ac6565b6103f2565b6100f46100ef366004610ac6565b610420565b005b6040516001600160a01b03821660248201526000908190819061016790633b3bff0f60e01b906044015b60408051601f198184030181529181526020820180516001600160e01b03166001600160e01b031990941693909317909252905161015e9190610d04565b6000604051808303816000865af19150503d806000811461019b576040519150601f19603f3d011682016040523d82523d6000602084013e6101a0565b606091505b5091509150816101b15760156101c5565b808060200190518101906101c59190610b6a565b60030b949350505050565b60006101dc838361073c565b9050601681146101eb57600080fd5b92915050565b60408051600080825260208201909252819081610236565b60408051606081018252600080825260208083018290529282015282526000199092019101816102095790505b50905060006040518060400160405280336001600160a01b031681526020018561025f90610f7f565b600790810b9091526040805180820182526001600160a01b038a1681529187900b602083015280516002808252606082019092529293509091600091816020015b60408051808201909152600080825260208201528152602001906001900390816102a057905050905082816000815181106102eb57634e487b7160e01b600052603260045260246000fd5b6020026020010181905250818160018151811061031857634e487b7160e01b600052603260045260246000fd5b602090810291909101810191909152604080516060810182526001600160a01b038a16815291820183905281810186905280516001808252818301909252600091816020015b61038b604051806060016040528060006001600160a01b0316815260200160608152602001606081525090565b81526020019060019003908161035e57905050905081816000815181106103c257634e487b7160e01b600052603260045260246000fd5b60200260200101819052506103d681610810565b9650601687146103e557600080fd5b5050505050509392505050565b6040516001600160a01b03821660248201526000908190819061016790631f106b4b60e21b90604401610120565b604080516001808252818301909252600091816020015b61043f610a4d565b81526020019060019003908161043757905050905061047160008060016040518060200160405280600081525061083a565b8160008151811061049257634e487b7160e01b600052603260045260246000fd5b602002602001018190525060006040518060600160405280600063ffffffff168152602001846001600160a01b03168152602001627a120063ffffffff1681525090506000604051806101200160405280600180546104f090610f44565b80601f016020809104026020016040519081016040528092919081815260200182805461051c90610f44565b80156105695780601f1061053e57610100808354040283529160200191610569565b820191906000526020600020905b81548152906001019060200180831161054c57829003601f168201915b505050505081526020016002805461058090610f44565b80601f01602080910402602001604051908101604052809291908181526020018280546105ac90610f44565b80156105f95780601f106105ce576101008083540402835291602001916105f9565b820191906000526020600020905b8154815290600101906020018083116105dc57829003601f168201915b50505050508152602001856001600160a01b031681526020016003805461061f90610f44565b80601f016020809104026020016040519081016040528092919081815260200182805461064b90610f44565b80156106985780601f1061066d57610100808354040283529160200191610698565b820191906000526020600020905b81548152906001019060200180831161067b57829003601f168201915b50505091835250506001602082015260055463ffffffff1660408201526000606082018190526080820186905260a0909101849052600454600654929350909182916106e691859190610871565b9092509050601682146106f857600080fd5b6040516001600160a01b03821681527f7bb17726df1f3adee8aa00ba8e8bc5d6f182af3bbf77604639cb7f008dd3b4ed9060200160405180910390a1505050505050565b604080516001600160a01b038481166024830152831660448083019190915282518083039091018152606490910182526020810180516001600160e01b031663248a35ef60e11b1790529051600091829182916101679161079d9190610d04565b6000604051808303816000865af19150503d80600081146107da576040519150601f19603f3d011682016040523d82523d6000602084013e6107df565b606091505b5091509150816107f0576015610804565b808060200190518101906108049190610b6a565b60030b95945050505050565b60008060006101676001600160a01b031663189a554c60e01b856040516024016101209190610d20565b610842610a4d565b6040518060400160405280610857878761099f565b815260200161086685856109bb565b905295945050505050565b600080848061010001516000015163ffffffff1660001480156108a157506101008101516040015163ffffffff16155b156108b7576101008101516276a7006040909101525b6000806101676001600160a01b031634637812a04b60e01b8a8a8a6040516024016108e493929190610df3565b60408051601f198184030181529181526020820180516001600160e01b03166001600160e01b03199094169390931790925290516109229190610d04565b60006040518083038185875af1925050503d806000811461095f576040519150601f19603f3d011682016040523d82523d6000602084013e610964565b606091505b509150915081610977576015600061098b565b8080602001905181019061098b9190610b84565b60039190910b999098509650505050505050565b6000600160ff84161b9050600160ff83161b81175b9392505050565b6109c3610a6c565b8260ff16600114156109d857600181526101eb565b8260ff16600214156109fa576000546001600160a01b031660208201526101eb565b8260ff1660031415610a1257604081018290526101eb565b8260ff1660041415610a2a57606081018290526101eb565b8260ff16600514156101eb576000546001600160a01b0316608082015292915050565b604051806040016040528060008152602001610a67610a6c565b905290565b6040518060a0016040528060001515815260200160006001600160a01b03168152602001606081526020016060815260200160006001600160a01b031681525090565b8051600381900b8114610ac157600080fd5b919050565b600060208284031215610ad7578081fd5b81356109b481610fb1565b60008060408385031215610af4578081fd5b8235610aff81610fb1565b91506020830135610b0f81610fb1565b809150509250929050565b600080600060608486031215610b2e578081fd5b8335610b3981610fb1565b92506020840135610b4981610fb1565b91506040840135600781900b8114610b5f578182fd5b809150509250925092565b600060208284031215610b7b578081fd5b6109b482610aaf565b60008060408385031215610b96578182fd5b610b9f83610aaf565b91506020830151610b0f81610fb1565b6000815180845260208085019450808401835b83811015610c0357815180516001600160a01b03908116895284820151168489015260409081015160070b9088015260609096019590820190600101610bc2565b509495945050505050565b600082825180855260208086019550808260051b840101818601855b84811015610ccb57858303601f1901895281518051845284015160408585018190528151151581860152818601516001600160a01b039081166060808801919091529183015160a06080808901829052919390929091610c8d60e08a0186610cd8565b92860151898403603f1901858b0152929450610ca98584610cd8565b9501511660c09790970196909652505098840198925090830190600101610c2a565b5090979650505050505050565b60008151808452610cf0816020860160208601610f14565b601f01601f19169290920160200192915050565b60008251610d16818460208701610f14565b9190910192915050565b60006020808301818452808551808352604092508286019150828160051b870101848801865b83811015610de557888303603f19018552815180516001600160a01b0390811685528882015160608a870181905281519087018190526080870192918b0191908c905b80821015610db75783518051841686528d015160070b8d860152938b0193928c019260019190910190610d89565b50505050908701518482038589015290610dd18183610baf565b968901969450505090860190600101610d46565b509098975050505050505050565b6060815260008451610160806060850152610e126101c0850183610cd8565b91506020870151605f1980868503016080870152610e308483610cd8565b935060408901519150610e4e60a08701836001600160a01b03169052565b60608901519150808685030160c0870152610e698483610cd8565b935060808901519150610e8060e087018315159052565b60a08901519150610100610e9b8188018463ffffffff169052565b60c08a0151151561012088015260e08a015187860383016101408901529250610ec48584610c0e565b9450808a015192505050610f0082860182805163ffffffff90811683526020808301516001600160a01b03169084015260409182015116910152565b505060208301949094525060400152919050565b60005b83811015610f2f578181015183820152602001610f17565b83811115610f3e576000848401525b50505050565b600181811c90821680610f5857607f821691505b60208210811415610f7957634e487b7160e01b600052602260045260246000fd5b50919050565b60008160070b677fffffffffffffff19811415610faa57634e487b7160e01b82526011600452602482fd5b9003919050565b6001600160a01b0381168114610fc657600080fd5b5056fea26469706673582212209a4f98af3a0405bf67b3a563b31a7aa33c49fd0ab83b802b893740740a968bcf64736f6c63430008040033",
  "linkReferences": {},
  "deployedLinkReferences": {}
}