{
  "_format": "hh-sol-artifact-1",
  "contractName": "BaseHTS",
  "sourceName": "contracts/BaseHTS.sol",
  "abi": [
    {
      "anonymous": false,
      "inputs": [
        {
          "indexed": false,
          "internalType": "uint256",
          "name": "amount",
          "type": "uint256"
        }
      ],
      "name": "AllowanceValue",
      "type": "event"
    },
    {
      "anonymous": false,
      "inputs": [
        {
          "indexed": false,
          "internalType": "bool",
          "name": "approved",
          "type": "bool"
        }
      ],
      "name": "Approved",
      "type": "event"
    },
    {
      "anonymous": false,
      "inputs": [
        {
          "indexed": false,
          "internalType": "address",
          "name": "approved",
          "type": "address"
        }
      ],
      "name": "ApprovedAddress",
      "type": "event"
    },
    {
      "anonymous": false,
      "inputs": [
        {
          "indexed": false,
          "internalType": "address",
          "name": "tokenAddress",
          "type": "address"
        }
      ],
      "name": "CreatedToken",
      "type": "event"
    },
    {
      "anonymous": false,
      "inputs": [
        {
          "indexed": false,
          "internalType": "bool",
          "name": "freezeStatus",
          "type": "bool"
        }
      ],
      "name": "DefaultFreezeStatusChanged",
      "type": "event"
    },
    {
      "anonymous": false,
      "inputs": [
        {
          "indexed": false,
          "internalType": "bool",
          "name": "frozen",
          "type": "bool"
        }
      ],
      "name": "Frozen",
      "type": "event"
    },
    {
      "anonymous": false,
      "inputs": [
        {
          "components": [
            {
              "components": [
                {
                  "components": [
                    {
                      "internalType": "string",
                      "name": "name",
                      "type": "string"
                    },
                    {
                      "internalType": "string",
                      "name": "symbol",
                      "type": "string"
                    },
                    {
                      "internalType": "address",
                      "name": "treasury",
                      "type": "address"
                    },
                    {
                      "internalType": "string",
                      "name": "memo",
                      "type": "string"
                    },
                    {
                      "internalType": "bool",
                      "name": "tokenSupplyType",
                      "type": "bool"
                    },
                    {
                      "internalType": "int64",
                      "name": "maxSupply",
                      "type": "int64"
                    },
                    {
                      "internalType": "bool",
                      "name": "freezeDefault",
                      "type": "bool"
                    },
                    {
                      "components": [
                        {
                          "internalType": "uint256",
                          "name": "keyType",
                          "type": "uint256"
                        },
                        {
                          "components": [
                            {
                              "internalType": "bool",
                              "name": "inheritAccountKey",
                              "type": "bool"
                            },
                            {
                              "internalType": "address",
                              "name": "contractId",
                              "type": "address"
                            },
                            {
                              "internalType": "bytes",
                              "name": "ed25519",
                              "type": "bytes"
                            },
                            {
                              "internalType": "bytes",
                              "name": "ECDSA_secp256k1",
                              "type": "bytes"
                            },
                            {
                              "internalType": "address",
                              "name": "delegatableContractId",
                              "type": "address"
                            }
                          ],
                          "internalType": "struct IHederaTokenService.KeyValue",
                          "name": "key",
                          "type": "tuple"
                        }
                      ],
                      "internalType": "struct IHederaTokenService.TokenKey[]",
                      "name": "tokenKeys",
                      "type": "tuple[]"
                    },
                    {
                      "components": [
                        {
                          "internalType": "uint32",
                          "name": "second",
                          "type": "uint32"
                        },
                        {
                          "internalType": "address",
                          "name": "autoRenewAccount",
                          "type": "address"
                        },
                        {
                          "internalType": "uint32",
                          "name": "autoRenewPeriod",
                          "type": "uint32"
                        }
                      ],
                      "internalType": "struct IHederaTokenService.Expiry",
                      "name": "expiry",
                      "type": "tuple"
                    }
                  ],
                  "internalType": "struct IHederaTokenService.HederaToken",
                  "name": "token",
                  "type": "tuple"
                },
                {
                  "internalType": "uint64",
                  "name": "totalSupply",
                  "type": "uint64"
                },
                {
                  "internalType": "bool",
                  "name": "deleted",
                  "type": "bool"
                },
                {
                  "internalType": "bool",
                  "name": "defaultKycStatus",
                  "type": "bool"
                },
                {
                  "internalType": "bool",
                  "name": "pauseStatus",
                  "type": "bool"
                },
                {
                  "components": [
                    {
                      "internalType": "uint32",
                      "name": "amount",
                      "type": "uint32"
                    },
                    {
                      "internalType": "address",
                      "name": "tokenId",
                      "type": "address"
                    },
                    {
                      "internalType": "bool",
                      "name": "useHbarsForPayment",
                      "type": "bool"
                    },
                    {
                      "internalType": "bool",
                      "name": "useCurrentTokenForPayment",
                      "type": "bool"
                    },
                    {
                      "internalType": "address",
                      "name": "feeCollector",
                      "type": "address"
                    }
                  ],
                  "internalType": "struct IHederaTokenService.FixedFee[]",
                  "name": "fixedFees",
                  "type": "tuple[]"
                },
                {
                  "components": [
                    {
                      "internalType": "uint32",
                      "name": "numerator",
                      "type": "uint32"
                    },
                    {
                      "internalType": "uint32",
                      "name": "denominator",
                      "type": "uint32"
                    },
                    {
                      "internalType": "uint32",
                      "name": "minimumAmount",
                      "type": "uint32"
                    },
                    {
                      "internalType": "uint32",
                      "name": "maximumAmount",
                      "type": "uint32"
                    },
                    {
                      "internalType": "bool",
                      "name": "netOfTransfers",
                      "type": "bool"
                    },
                    {
                      "internalType": "address",
                      "name": "feeCollector",
                      "type": "address"
                    }
                  ],
                  "internalType": "struct IHederaTokenService.FractionalFee[]",
                  "name": "fractionalFees",
                  "type": "tuple[]"
                },
                {
                  "components": [
                    {
                      "internalType": "uint32",
                      "name": "numerator",
                      "type": "uint32"
                    },
                    {
                      "internalType": "uint32",
                      "name": "denominator",
                      "type": "uint32"
                    },
                    {
                      "internalType": "uint32",
                      "name": "amount",
                      "type": "uint32"
                    },
                    {
                      "internalType": "address",
                      "name": "tokenId",
                      "type": "address"
                    },
                    {
                      "internalType": "bool",
                      "name": "useHbarsForPayment",
                      "type": "bool"
                    },
                    {
                      "internalType": "address",
                      "name": "feeCollector",
                      "type": "address"
                    }
                  ],
                  "internalType": "struct IHederaTokenService.RoyaltyFee[]",
                  "name": "royaltyFees",
                  "type": "tuple[]"
                },
                {
                  "internalType": "string",
                  "name": "ledgerId",
                  "type": "string"
                }
              ],
              "internalType": "struct IHederaTokenService.TokenInfo",
              "name": "tokenInfo",
              "type": "tuple"
            },
            {
              "internalType": "uint32",
              "name": "decimals",
              "type": "uint32"
            }
          ],
          "indexed": false,
          "internalType": "struct IHederaTokenService.FungibleTokenInfo",
          "name": "tokenInfo",
          "type": "tuple"
        }
      ],
      "name": "FungibleTokenInfo",
      "type": "event"
    },
    {
      "anonymous": false,
      "inputs": [
        {
          "indexed": false,
          "internalType": "bool",
          "name": "isToken",
          "type": "bool"
        }
      ],
      "name": "IsToken",
      "type": "event"
    },
    {
      "anonymous": false,
      "inputs": [
        {
          "indexed": false,
          "internalType": "bool",
          "name": "kycGranted",
          "type": "bool"
        }
      ],
      "name": "KycGranted",
      "type": "event"
    },
    {
      "anonymous": false,
      "inputs": [
        {
          "indexed": false,
          "internalType": "uint64",
          "name": "newTotalSupply",
          "type": "uint64"
        },
        {
          "indexed": false,
          "internalType": "int64[]",
          "name": "serialNumbers",
          "type": "int64[]"
        }
      ],
      "name": "MintedToken",
      "type": "event"
    },
    {
      "anonymous": false,
      "inputs": [
        {
          "components": [
            {
              "components": [
                {
                  "components": [
                    {
                      "internalType": "string",
                      "name": "name",
                      "type": "string"
                    },
                    {
                      "internalType": "string",
                      "name": "symbol",
                      "type": "string"
                    },
                    {
                      "internalType": "address",
                      "name": "treasury",
                      "type": "address"
                    },
                    {
                      "internalType": "string",
                      "name": "memo",
                      "type": "string"
                    },
                    {
                      "internalType": "bool",
                      "name": "tokenSupplyType",
                      "type": "bool"
                    },
                    {
                      "internalType": "int64",
                      "name": "maxSupply",
                      "type": "int64"
                    },
                    {
                      "internalType": "bool",
                      "name": "freezeDefault",
                      "type": "bool"
                    },
                    {
                      "components": [
                        {
                          "internalType": "uint256",
                          "name": "keyType",
                          "type": "uint256"
                        },
                        {
                          "components": [
                            {
                              "internalType": "bool",
                              "name": "inheritAccountKey",
                              "type": "bool"
                            },
                            {
                              "internalType": "address",
                              "name": "contractId",
                              "type": "address"
                            },
                            {
                              "internalType": "bytes",
                              "name": "ed25519",
                              "type": "bytes"
                            },
                            {
                              "internalType": "bytes",
                              "name": "ECDSA_secp256k1",
                              "type": "bytes"
                            },
                            {
                              "internalType": "address",
                              "name": "delegatableContractId",
                              "type": "address"
                            }
                          ],
                          "internalType": "struct IHederaTokenService.KeyValue",
                          "name": "key",
                          "type": "tuple"
                        }
                      ],
                      "internalType": "struct IHederaTokenService.TokenKey[]",
                      "name": "tokenKeys",
                      "type": "tuple[]"
                    },
                    {
                      "components": [
                        {
                          "internalType": "uint32",
                          "name": "second",
                          "type": "uint32"
                        },
                        {
                          "internalType": "address",
                          "name": "autoRenewAccount",
                          "type": "address"
                        },
                        {
                          "internalType": "uint32",
                          "name": "autoRenewPeriod",
                          "type": "uint32"
                        }
                      ],
                      "internalType": "struct IHederaTokenService.Expiry",
                      "name": "expiry",
                      "type": "tuple"
                    }
                  ],
                  "internalType": "struct IHederaTokenService.HederaToken",
                  "name": "token",
                  "type": "tuple"
                },
                {
                  "internalType": "uint64",
                  "name": "totalSupply",
                  "type": "uint64"
                },
                {
                  "internalType": "bool",
                  "name": "deleted",
                  "type": "bool"
                },
                {
                  "internalType": "bool",
                  "name": "defaultKycStatus",
                  "type": "bool"
                },
                {
                  "internalType": "bool",
                  "name": "pauseStatus",
                  "type": "bool"
                },
                {
                  "components": [
                    {
                      "internalType": "uint32",
                      "name": "amount",
                      "type": "uint32"
                    },
                    {
                      "internalType": "address",
                      "name": "tokenId",
                      "type": "address"
                    },
                    {
                      "internalType": "bool",
                      "name": "useHbarsForPayment",
                      "type": "bool"
                    },
                    {
                      "internalType": "bool",
                      "name": "useCurrentTokenForPayment",
                      "type": "bool"
                    },
                    {
                      "internalType": "address",
                      "name": "feeCollector",
                      "type": "address"
                    }
                  ],
                  "internalType": "struct IHederaTokenService.FixedFee[]",
                  "name": "fixedFees",
                  "type": "tuple[]"
                },
                {
                  "components": [
                    {
                      "internalType": "uint32",
                      "name": "numerator",
                      "type": "uint32"
                    },
                    {
                      "internalType": "uint32",
                      "name": "denominator",
                      "type": "uint32"
                    },
                    {
                      "internalType": "uint32",
                      "name": "minimumAmount",
                      "type": "uint32"
                    },
                    {
                      "internalType": "uint32",
                      "name": "maximumAmount",
                      "type": "uint32"
                    },
                    {
                      "internalType": "bool",
                      "name": "netOfTransfers",
                      "type": "bool"
                    },
                    {
                      "internalType": "address",
                      "name": "feeCollector",
                      "type": "address"
                    }
                  ],
                  "internalType": "struct IHederaTokenService.FractionalFee[]",
                  "name": "fractionalFees",
                  "type": "tuple[]"
                },
                {
                  "components": [
                    {
                      "internalType": "uint32",
                      "name": "numerator",
                      "type": "uint32"
                    },
                    {
                      "internalType": "uint32",
                      "name": "denominator",
                      "type": "uint32"
                    },
                    {
                      "internalType": "uint32",
                      "name": "amount",
                      "type": "uint32"
                    },
                    {
                      "internalType": "address",
                      "name": "tokenId",
                      "type": "address"
                    },
                    {
                      "internalType": "bool",
                      "name": "useHbarsForPayment",
                      "type": "bool"
                    },
                    {
                      "internalType": "address",
                      "name": "feeCollector",
                      "type": "address"
                    }
                  ],
                  "internalType": "struct IHederaTokenService.RoyaltyFee[]",
                  "name": "royaltyFees",
                  "type": "tuple[]"
                },
                {
                  "internalType": "string",
                  "name": "ledgerId",
                  "type": "string"
                }
              ],
              "internalType": "struct IHederaTokenService.TokenInfo",
              "name": "tokenInfo",
              "type": "tuple"
            },
            {
              "internalType": "int64",
              "name": "serialNumber",
              "type": "int64"
            },
            {
              "internalType": "address",
              "name": "ownerId",
              "type": "address"
            },
            {
              "internalType": "int64",
              "name": "creationTime",
              "type": "int64"
            },
            {
              "internalType": "bytes",
              "name": "metadata",
              "type": "bytes"
            },
            {
              "internalType": "address",
              "name": "spenderId",
              "type": "address"
            }
          ],
          "indexed": false,
          "internalType": "struct IHederaTokenService.NonFungibleTokenInfo",
          "name": "tokenInfo",
          "type": "tuple"
        }
      ],
      "name": "NonFungibleTokenInfo",
      "type": "event"
    },
    {
      "anonymous": false,
      "inputs": [
        {
          "indexed": false,
          "internalType": "bool",
          "name": "paused",
          "type": "bool"
        }
      ],
      "name": "PausedToken",
      "type": "event"
    },
    {
      "anonymous": false,
      "inputs": [
        {
          "indexed": false,
          "internalType": "int256",
          "name": "responseCode",
          "type": "int256"
        }
      ],
      "name": "ResponseCode",
      "type": "event"
    },
    {
      "anonymous": false,
      "inputs": [
        {
          "components": [
            {
              "internalType": "uint32",
              "name": "amount",
              "type": "uint32"
            },
            {
              "internalType": "address",
              "name": "tokenId",
              "type": "address"
            },
            {
              "internalType": "bool",
              "name": "useHbarsForPayment",
              "type": "bool"
            },
            {
              "internalType": "bool",
              "name": "useCurrentTokenForPayment",
              "type": "bool"
            },
            {
              "internalType": "address",
              "name": "feeCollector",
              "type": "address"
            }
          ],
          "indexed": false,
          "internalType": "struct IHederaTokenService.FixedFee[]",
          "name": "fixedFees",
          "type": "tuple[]"
        },
        {
          "components": [
            {
              "internalType": "uint32",
              "name": "numerator",
              "type": "uint32"
            },
            {
              "internalType": "uint32",
              "name": "denominator",
              "type": "uint32"
            },
            {
              "internalType": "uint32",
              "name": "minimumAmount",
              "type": "uint32"
            },
            {
              "internalType": "uint32",
              "name": "maximumAmount",
              "type": "uint32"
            },
            {
              "internalType": "bool",
              "name": "netOfTransfers",
              "type": "bool"
            },
            {
              "internalType": "address",
              "name": "feeCollector",
              "type": "address"
            }
          ],
          "indexed": false,
          "internalType": "struct IHederaTokenService.FractionalFee[]",
          "name": "fractionalFees",
          "type": "tuple[]"
        },
        {
          "components": [
            {
              "internalType": "uint32",
              "name": "numerator",
              "type": "uint32"
            },
            {
              "internalType": "uint32",
              "name": "denominator",
              "type": "uint32"
            },
            {
              "internalType": "uint32",
              "name": "amount",
              "type": "uint32"
            },
            {
              "internalType": "address",
              "name": "tokenId",
              "type": "address"
            },
            {
              "internalType": "bool",
              "name": "useHbarsForPayment",
              "type": "bool"
            },
            {
              "internalType": "address",
              "name": "feeCollector",
              "type": "address"
            }
          ],
          "indexed": false,
          "internalType": "struct IHederaTokenService.RoyaltyFee[]",
          "name": "royaltyFees",
          "type": "tuple[]"
        }
      ],
      "name": "TokenCustomFees",
      "type": "event"
    },
    {
      "anonymous": false,
      "inputs": [
        {
          "indexed": false,
          "internalType": "bool",
          "name": "defaultFreezeStatus",
          "type": "bool"
        }
      ],
      "name": "TokenDefaultFreezeStatus",
      "type": "event"
    },
    {
      "anonymous": false,
      "inputs": [
        {
          "indexed": false,
          "internalType": "bool",
          "name": "defaultKycStatus",
          "type": "bool"
        }
      ],
      "name": "TokenDefaultKycStatus",
      "type": "event"
    },
    {
      "anonymous": false,
      "inputs": [
        {
          "components": [
            {
              "internalType": "uint32",
              "name": "second",
              "type": "uint32"
            },
            {
              "internalType": "address",
              "name": "autoRenewAccount",
              "type": "address"
            },
            {
              "internalType": "uint32",
              "name": "autoRenewPeriod",
              "type": "uint32"
            }
          ],
          "indexed": false,
          "internalType": "struct IHederaTokenService.Expiry",
          "name": "expiryInfo",
          "type": "tuple"
        }
      ],
      "name": "TokenExpiryInfo",
      "type": "event"
    },
    {
      "anonymous": false,
      "inputs": [
        {
          "components": [
            {
              "components": [
                {
                  "internalType": "string",
                  "name": "name",
                  "type": "string"
                },
                {
                  "internalType": "string",
                  "name": "symbol",
                  "type": "string"
                },
                {
                  "internalType": "address",
                  "name": "treasury",
                  "type": "address"
                },
                {
                  "internalType": "string",
                  "name": "memo",
                  "type": "string"
                },
                {
                  "internalType": "bool",
                  "name": "tokenSupplyType",
                  "type": "bool"
                },
                {
                  "internalType": "int64",
                  "name": "maxSupply",
                  "type": "int64"
                },
                {
                  "internalType": "bool",
                  "name": "freezeDefault",
                  "type": "bool"
                },
                {
                  "components": [
                    {
                      "internalType": "uint256",
                      "name": "keyType",
                      "type": "uint256"
                    },
                    {
                      "components": [
                        {
                          "internalType": "bool",
                          "name": "inheritAccountKey",
                          "type": "bool"
                        },
                        {
                          "internalType": "address",
                          "name": "contractId",
                          "type": "address"
                        },
                        {
                          "internalType": "bytes",
                          "name": "ed25519",
                          "type": "bytes"
                        },
                        {
                          "internalType": "bytes",
                          "name": "ECDSA_secp256k1",
                          "type": "bytes"
                        },
                        {
                          "internalType": "address",
                          "name": "delegatableContractId",
                          "type": "address"
                        }
                      ],
                      "internalType": "struct IHederaTokenService.KeyValue",
                      "name": "key",
                      "type": "tuple"
                    }
                  ],
                  "internalType": "struct IHederaTokenService.TokenKey[]",
                  "name": "tokenKeys",
                  "type": "tuple[]"
                },
                {
                  "components": [
                    {
                      "internalType": "uint32",
                      "name": "second",
                      "type": "uint32"
                    },
                    {
                      "internalType": "address",
                      "name": "autoRenewAccount",
                      "type": "address"
                    },
                    {
                      "internalType": "uint32",
                      "name": "autoRenewPeriod",
                      "type": "uint32"
                    }
                  ],
                  "internalType": "struct IHederaTokenService.Expiry",
                  "name": "expiry",
                  "type": "tuple"
                }
              ],
              "internalType": "struct IHederaTokenService.HederaToken",
              "name": "token",
              "type": "tuple"
            },
            {
              "internalType": "uint64",
              "name": "totalSupply",
              "type": "uint64"
            },
            {
              "internalType": "bool",
              "name": "deleted",
              "type": "bool"
            },
            {
              "internalType": "bool",
              "name": "defaultKycStatus",
              "type": "bool"
            },
            {
              "internalType": "bool",
              "name": "pauseStatus",
              "type": "bool"
            },
            {
              "components": [
                {
                  "internalType": "uint32",
                  "name": "amount",
                  "type": "uint32"
                },
                {
                  "internalType": "address",
                  "name": "tokenId",
                  "type": "address"
                },
                {
                  "internalType": "bool",
                  "name": "useHbarsForPayment",
                  "type": "bool"
                },
                {
                  "internalType": "bool",
                  "name": "useCurrentTokenForPayment",
                  "type": "bool"
                },
                {
                  "internalType": "address",
                  "name": "feeCollector",
                  "type": "address"
                }
              ],
              "internalType": "struct IHederaTokenService.FixedFee[]",
              "name": "fixedFees",
              "type": "tuple[]"
            },
            {
              "components": [
                {
                  "internalType": "uint32",
                  "name": "numerator",
                  "type": "uint32"
                },
                {
                  "internalType": "uint32",
                  "name": "denominator",
                  "type": "uint32"
                },
                {
                  "internalType": "uint32",
                  "name": "minimumAmount",
                  "type": "uint32"
                },
                {
                  "internalType": "uint32",
                  "name": "maximumAmount",
                  "type": "uint32"
                },
                {
                  "internalType": "bool",
                  "name": "netOfTransfers",
                  "type": "bool"
                },
                {
                  "internalType": "address",
                  "name": "feeCollector",
                  "type": "address"
                }
              ],
              "internalType": "struct IHederaTokenService.FractionalFee[]",
              "name": "fractionalFees",
              "type": "tuple[]"
            },
            {
              "components": [
                {
                  "internalType": "uint32",
                  "name": "numerator",
                  "type": "uint32"
                },
                {
                  "internalType": "uint32",
                  "name": "denominator",
                  "type": "uint32"
                },
                {
                  "internalType": "uint32",
                  "name": "amount",
                  "type": "uint32"
                },
                {
                  "internalType": "address",
                  "name": "tokenId",
                  "type": "address"
                },
                {
                  "internalType": "bool",
                  "name": "useHbarsForPayment",
                  "type": "bool"
                },
                {
                  "internalType": "address",
                  "name": "feeCollector",
                  "type": "address"
                }
              ],
              "internalType": "struct IHederaTokenService.RoyaltyFee[]",
              "name": "royaltyFees",
              "type": "tuple[]"
            },
            {
              "internalType": "string",
              "name": "ledgerId",
              "type": "string"
            }
          ],
          "indexed": false,
          "internalType": "struct IHederaTokenService.TokenInfo",
          "name": "tokenInfo",
          "type": "tuple"
        }
      ],
      "name": "TokenInfo",
      "type": "event"
    },
    {
      "anonymous": false,
      "inputs": [
        {
          "indexed": false,
          "internalType": "int32",
          "name": "tokenType",
          "type": "int32"
        }
      ],
      "name": "TokenType",
      "type": "event"
    },
    {
      "anonymous": false,
      "inputs": [
        {
          "indexed": false,
          "internalType": "bool",
          "name": "unpaused",
          "type": "bool"
        }
      ],
      "name": "UnpausedToken",
      "type": "event"
    },
    {
      "inputs": [
        {
          "internalType": "address",
          "name": "token",
          "type": "address"
        },
        {
          "internalType": "address",
          "name": "owner",
          "type": "address"
        },
        {
          "internalType": "address",
          "name": "spender",
          "type": "address"
        }
      ],
      "name": "allowancePublic",
      "outputs": [
        {
          "internalType": "int256",
          "name": "responseCode",
          "type": "int256"
        },
        {
          "internalType": "uint256",
          "name": "amount",
          "type": "uint256"
        }
      ],
      "stateMutability": "nonpayable",
      "type": "function"
    },
    {
      "inputs": [
        {
          "internalType": "address",
          "name": "token",
          "type": "address"
        },
        {
          "internalType": "address",
          "name": "approved",
          "type": "address"
        },
        {
          "internalType": "uint256",
          "name": "serialNumber",
          "type": "uint256"
        }
      ],
      "name": "approveNFTPublic",
      "outputs": [
        {
          "internalType": "int256",
          "name": "responseCode",
          "type": "int256"
        }
      ],
      "stateMutability": "nonpayable",
      "type": "function"
    },
    {
      "inputs": [
        {
          "internalType": "address",
          "name": "token",
          "type": "address"
        },
        {
          "internalType": "address",
          "name": "spender",
          "type": "address"
        },
        {
          "internalType": "uint256",
          "name": "amount",
          "type": "uint256"
        }
      ],
      "name": "approvePublic",
      "outputs": [
        {
          "internalType": "int256",
          "name": "responseCode",
          "type": "int256"
        }
      ],
      "stateMutability": "nonpayable",
      "type": "function"
    },
    {
      "inputs": [
        {
          "internalType": "address",
          "name": "account",
          "type": "address"
        },
        {
          "internalType": "address",
          "name": "token",
          "type": "address"
        }
      ],
      "name": "associateTokenPublic",
      "outputs": [
        {
          "internalType": "int256",
          "name": "responseCode",
          "type": "int256"
        }
      ],
      "stateMutability": "nonpayable",
      "type": "function"
    },
    {
      "inputs": [
        {
          "internalType": "address",
          "name": "treasury",
          "type": "address"
        }
      ],
      "name": "createFungibleTokenPublic",
      "outputs": [],
      "stateMutability": "payable",
      "type": "function"
    },
    {
      "inputs": [
        {
          "internalType": "address",
          "name": "treasury",
          "type": "address"
        },
        {
          "internalType": "address",
          "name": "fixedFeeTokenAddress",
          "type": "address"
        }
      ],
      "name": "createFungibleTokenWithCustomFeesPublic",
      "outputs": [],
      "stateMutability": "payable",
      "type": "function"
    },
    {
      "inputs": [
        {
          "internalType": "address",
          "name": "treasury",
          "type": "address"
        }
      ],
      "name": "createNonFungibleTokenPublic",
      "outputs": [],
      "stateMutability": "payable",
      "type": "function"
    },
    {
      "inputs": [
        {
          "components": [
            {
              "internalType": "address",
              "name": "token",
              "type": "address"
            },
            {
              "components": [
                {
                  "internalType": "address",
                  "name": "accountID",
                  "type": "address"
                },
                {
                  "internalType": "int64",
                  "name": "amount",
                  "type": "int64"
                }
              ],
              "internalType": "struct IHederaTokenService.AccountAmount[]",
              "name": "transfers",
              "type": "tuple[]"
            },
            {
              "components": [
                {
                  "internalType": "address",
                  "name": "senderAccountID",
                  "type": "address"
                },
                {
                  "internalType": "address",
                  "name": "receiverAccountID",
                  "type": "address"
                },
                {
                  "internalType": "int64",
                  "name": "serialNumber",
                  "type": "int64"
                }
              ],
              "internalType": "struct IHederaTokenService.NftTransfer[]",
              "name": "nftTransfers",
              "type": "tuple[]"
            }
          ],
          "internalType": "struct IHederaTokenService.TokenTransferList[]",
          "name": "tokenTransferList",
          "type": "tuple[]"
        }
      ],
      "name": "cryptoTransferPublic",
      "outputs": [
        {
          "internalType": "int256",
          "name": "responseCode",
          "type": "int256"
        }
      ],
      "stateMutability": "nonpayable",
      "type": "function"
    },
    {
      "inputs": [
        {
          "internalType": "address",
          "name": "account",
          "type": "address"
        },
        {
          "internalType": "address",
          "name": "token",
          "type": "address"
        },
        {
          "internalType": "int64",
          "name": "amount",
          "type": "int64"
        }
      ],
      "name": "cryptoTransferTokenPublic",
      "outputs": [
        {
          "internalType": "int256",
          "name": "responseCode",
          "type": "int256"
        }
      ],
      "stateMutability": "nonpayable",
      "type": "function"
    },
    {
      "inputs": [
        {
          "internalType": "address",
          "name": "token",
          "type": "address"
        }
      ],
      "name": "deleteTokenPublic",
      "outputs": [
        {
          "internalType": "int256",
          "name": "responseCode",
          "type": "int256"
        }
      ],
      "stateMutability": "nonpayable",
      "type": "function"
    },
    {
      "inputs": [
        {
          "internalType": "address",
          "name": "token",
          "type": "address"
        },
        {
          "internalType": "address",
          "name": "account",
          "type": "address"
        }
      ],
      "name": "freezeTokenPublic",
      "outputs": [
        {
          "internalType": "int256",
          "name": "responseCode",
          "type": "int256"
        }
      ],
      "stateMutability": "nonpayable",
      "type": "function"
    },
    {
      "inputs": [
        {
          "internalType": "address",
          "name": "token",
          "type": "address"
        },
        {
          "internalType": "uint256",
          "name": "serialNumber",
          "type": "uint256"
        }
      ],
      "name": "getApprovedPublic",
      "outputs": [
        {
          "internalType": "int256",
          "name": "responseCode",
          "type": "int256"
        },
        {
          "internalType": "address",
          "name": "approved",
          "type": "address"
        }
      ],
      "stateMutability": "nonpayable",
      "type": "function"
    },
    {
      "inputs": [
        {
          "internalType": "address",
          "name": "token",
          "type": "address"
        }
      ],
      "name": "getFungibleTokenInfoPublic",
      "outputs": [
        {
          "internalType": "int256",
          "name": "responseCode",
          "type": "int256"
        },
        {
          "components": [
            {
              "components": [
                {
                  "components": [
                    {
                      "internalType": "string",
                      "name": "name",
                      "type": "string"
                    },
                    {
                      "internalType": "string",
                      "name": "symbol",
                      "type": "string"
                    },
                    {
                      "internalType": "address",
                      "name": "treasury",
                      "type": "address"
                    },
                    {
                      "internalType": "string",
                      "name": "memo",
                      "type": "string"
                    },
                    {
                      "internalType": "bool",
                      "name": "tokenSupplyType",
                      "type": "bool"
                    },
                    {
                      "internalType": "int64",
                      "name": "maxSupply",
                      "type": "int64"
                    },
                    {
                      "internalType": "bool",
                      "name": "freezeDefault",
                      "type": "bool"
                    },
                    {
                      "components": [
                        {
                          "internalType": "uint256",
                          "name": "keyType",
                          "type": "uint256"
                        },
                        {
                          "components": [
                            {
                              "internalType": "bool",
                              "name": "inheritAccountKey",
                              "type": "bool"
                            },
                            {
                              "internalType": "address",
                              "name": "contractId",
                              "type": "address"
                            },
                            {
                              "internalType": "bytes",
                              "name": "ed25519",
                              "type": "bytes"
                            },
                            {
                              "internalType": "bytes",
                              "name": "ECDSA_secp256k1",
                              "type": "bytes"
                            },
                            {
                              "internalType": "address",
                              "name": "delegatableContractId",
                              "type": "address"
                            }
                          ],
                          "internalType": "struct IHederaTokenService.KeyValue",
                          "name": "key",
                          "type": "tuple"
                        }
                      ],
                      "internalType": "struct IHederaTokenService.TokenKey[]",
                      "name": "tokenKeys",
                      "type": "tuple[]"
                    },
                    {
                      "components": [
                        {
                          "internalType": "uint32",
                          "name": "second",
                          "type": "uint32"
                        },
                        {
                          "internalType": "address",
                          "name": "autoRenewAccount",
                          "type": "address"
                        },
                        {
                          "internalType": "uint32",
                          "name": "autoRenewPeriod",
                          "type": "uint32"
                        }
                      ],
                      "internalType": "struct IHederaTokenService.Expiry",
                      "name": "expiry",
                      "type": "tuple"
                    }
                  ],
                  "internalType": "struct IHederaTokenService.HederaToken",
                  "name": "token",
                  "type": "tuple"
                },
                {
                  "internalType": "uint64",
                  "name": "totalSupply",
                  "type": "uint64"
                },
                {
                  "internalType": "bool",
                  "name": "deleted",
                  "type": "bool"
                },
                {
                  "internalType": "bool",
                  "name": "defaultKycStatus",
                  "type": "bool"
                },
                {
                  "internalType": "bool",
                  "name": "pauseStatus",
                  "type": "bool"
                },
                {
                  "components": [
                    {
                      "internalType": "uint32",
                      "name": "amount",
                      "type": "uint32"
                    },
                    {
                      "internalType": "address",
                      "name": "tokenId",
                      "type": "address"
                    },
                    {
                      "internalType": "bool",
                      "name": "useHbarsForPayment",
                      "type": "bool"
                    },
                    {
                      "internalType": "bool",
                      "name": "useCurrentTokenForPayment",
                      "type": "bool"
                    },
                    {
                      "internalType": "address",
                      "name": "feeCollector",
                      "type": "address"
                    }
                  ],
                  "internalType": "struct IHederaTokenService.FixedFee[]",
                  "name": "fixedFees",
                  "type": "tuple[]"
                },
                {
                  "components": [
                    {
                      "internalType": "uint32",
                      "name": "numerator",
                      "type": "uint32"
                    },
                    {
                      "internalType": "uint32",
                      "name": "denominator",
                      "type": "uint32"
                    },
                    {
                      "internalType": "uint32",
                      "name": "minimumAmount",
                      "type": "uint32"
                    },
                    {
                      "internalType": "uint32",
                      "name": "maximumAmount",
                      "type": "uint32"
                    },
                    {
                      "internalType": "bool",
                      "name": "netOfTransfers",
                      "type": "bool"
                    },
                    {
                      "internalType": "address",
                      "name": "feeCollector",
                      "type": "address"
                    }
                  ],
                  "internalType": "struct IHederaTokenService.FractionalFee[]",
                  "name": "fractionalFees",
                  "type": "tuple[]"
                },
                {
                  "components": [
                    {
                      "internalType": "uint32",
                      "name": "numerator",
                      "type": "uint32"
                    },
                    {
                      "internalType": "uint32",
                      "name": "denominator",
                      "type": "uint32"
                    },
                    {
                      "internalType": "uint32",
                      "name": "amount",
                      "type": "uint32"
                    },
                    {
                      "internalType": "address",
                      "name": "tokenId",
                      "type": "address"
                    },
                    {
                      "internalType": "bool",
                      "name": "useHbarsForPayment",
                      "type": "bool"
                    },
                    {
                      "internalType": "address",
                      "name": "feeCollector",
                      "type": "address"
                    }
                  ],
                  "internalType": "struct IHederaTokenService.RoyaltyFee[]",
                  "name": "royaltyFees",
                  "type": "tuple[]"
                },
                {
                  "internalType": "string",
                  "name": "ledgerId",
                  "type": "string"
                }
              ],
              "internalType": "struct IHederaTokenService.TokenInfo",
              "name": "tokenInfo",
              "type": "tuple"
            },
            {
              "internalType": "uint32",
              "name": "decimals",
              "type": "uint32"
            }
          ],
          "internalType": "struct IHederaTokenService.FungibleTokenInfo",
          "name": "tokenInfo",
          "type": "tuple"
        }
      ],
      "stateMutability": "nonpayable",
      "type": "function"
    },
    {
      "inputs": [
        {
          "internalType": "address",
          "name": "token",
          "type": "address"
        },
        {
          "internalType": "int64",
          "name": "serialNumber",
          "type": "int64"
        }
      ],
      "name": "getNonFungibleTokenInfoPublic",
      "outputs": [
        {
          "internalType": "int256",
          "name": "responseCode",
          "type": "int256"
        },
        {
          "components": [
            {
              "components": [
                {
                  "components": [
                    {
                      "internalType": "string",
                      "name": "name",
                      "type": "string"
                    },
                    {
                      "internalType": "string",
                      "name": "symbol",
                      "type": "string"
                    },
                    {
                      "internalType": "address",
                      "name": "treasury",
                      "type": "address"
                    },
                    {
                      "internalType": "string",
                      "name": "memo",
                      "type": "string"
                    },
                    {
                      "internalType": "bool",
                      "name": "tokenSupplyType",
                      "type": "bool"
                    },
                    {
                      "internalType": "int64",
                      "name": "maxSupply",
                      "type": "int64"
                    },
                    {
                      "internalType": "bool",
                      "name": "freezeDefault",
                      "type": "bool"
                    },
                    {
                      "components": [
                        {
                          "internalType": "uint256",
                          "name": "keyType",
                          "type": "uint256"
                        },
                        {
                          "components": [
                            {
                              "internalType": "bool",
                              "name": "inheritAccountKey",
                              "type": "bool"
                            },
                            {
                              "internalType": "address",
                              "name": "contractId",
                              "type": "address"
                            },
                            {
                              "internalType": "bytes",
                              "name": "ed25519",
                              "type": "bytes"
                            },
                            {
                              "internalType": "bytes",
                              "name": "ECDSA_secp256k1",
                              "type": "bytes"
                            },
                            {
                              "internalType": "address",
                              "name": "delegatableContractId",
                              "type": "address"
                            }
                          ],
                          "internalType": "struct IHederaTokenService.KeyValue",
                          "name": "key",
                          "type": "tuple"
                        }
                      ],
                      "internalType": "struct IHederaTokenService.TokenKey[]",
                      "name": "tokenKeys",
                      "type": "tuple[]"
                    },
                    {
                      "components": [
                        {
                          "internalType": "uint32",
                          "name": "second",
                          "type": "uint32"
                        },
                        {
                          "internalType": "address",
                          "name": "autoRenewAccount",
                          "type": "address"
                        },
                        {
                          "internalType": "uint32",
                          "name": "autoRenewPeriod",
                          "type": "uint32"
                        }
                      ],
                      "internalType": "struct IHederaTokenService.Expiry",
                      "name": "expiry",
                      "type": "tuple"
                    }
                  ],
                  "internalType": "struct IHederaTokenService.HederaToken",
                  "name": "token",
                  "type": "tuple"
                },
                {
                  "internalType": "uint64",
                  "name": "totalSupply",
                  "type": "uint64"
                },
                {
                  "internalType": "bool",
                  "name": "deleted",
                  "type": "bool"
                },
                {
                  "internalType": "bool",
                  "name": "defaultKycStatus",
                  "type": "bool"
                },
                {
                  "internalType": "bool",
                  "name": "pauseStatus",
                  "type": "bool"
                },
                {
                  "components": [
                    {
                      "internalType": "uint32",
                      "name": "amount",
                      "type": "uint32"
                    },
                    {
                      "internalType": "address",
                      "name": "tokenId",
                      "type": "address"
                    },
                    {
                      "internalType": "bool",
                      "name": "useHbarsForPayment",
                      "type": "bool"
                    },
                    {
                      "internalType": "bool",
                      "name": "useCurrentTokenForPayment",
                      "type": "bool"
                    },
                    {
                      "internalType": "address",
                      "name": "feeCollector",
                      "type": "address"
                    }
                  ],
                  "internalType": "struct IHederaTokenService.FixedFee[]",
                  "name": "fixedFees",
                  "type": "tuple[]"
                },
                {
                  "components": [
                    {
                      "internalType": "uint32",
                      "name": "numerator",
                      "type": "uint32"
                    },
                    {
                      "internalType": "uint32",
                      "name": "denominator",
                      "type": "uint32"
                    },
                    {
                      "internalType": "uint32",
                      "name": "minimumAmount",
                      "type": "uint32"
                    },
                    {
                      "internalType": "uint32",
                      "name": "maximumAmount",
                      "type": "uint32"
                    },
                    {
                      "internalType": "bool",
                      "name": "netOfTransfers",
                      "type": "bool"
                    },
                    {
                      "internalType": "address",
                      "name": "feeCollector",
                      "type": "address"
                    }
                  ],
                  "internalType": "struct IHederaTokenService.FractionalFee[]",
                  "name": "fractionalFees",
                  "type": "tuple[]"
                },
                {
                  "components": [
                    {
                      "internalType": "uint32",
                      "name": "numerator",
                      "type": "uint32"
                    },
                    {
                      "internalType": "uint32",
                      "name": "denominator",
                      "type": "uint32"
                    },
                    {
                      "internalType": "uint32",
                      "name": "amount",
                      "type": "uint32"
                    },
                    {
                      "internalType": "address",
                      "name": "tokenId",
                      "type": "address"
                    },
                    {
                      "internalType": "bool",
                      "name": "useHbarsForPayment",
                      "type": "bool"
                    },
                    {
                      "internalType": "address",
                      "name": "feeCollector",
                      "type": "address"
                    }
                  ],
                  "internalType": "struct IHederaTokenService.RoyaltyFee[]",
                  "name": "royaltyFees",
                  "type": "tuple[]"
                },
                {
                  "internalType": "string",
                  "name": "ledgerId",
                  "type": "string"
                }
              ],
              "internalType": "struct IHederaTokenService.TokenInfo",
              "name": "tokenInfo",
              "type": "tuple"
            },
            {
              "internalType": "int64",
              "name": "serialNumber",
              "type": "int64"
            },
            {
              "internalType": "address",
              "name": "ownerId",
              "type": "address"
            },
            {
              "internalType": "int64",
              "name": "creationTime",
              "type": "int64"
            },
            {
              "internalType": "bytes",
              "name": "metadata",
              "type": "bytes"
            },
            {
              "internalType": "address",
              "name": "spenderId",
              "type": "address"
            }
          ],
          "internalType": "struct IHederaTokenService.NonFungibleTokenInfo",
          "name": "tokenInfo",
          "type": "tuple"
        }
      ],
      "stateMutability": "nonpayable",
      "type": "function"
    },
    {
      "inputs": [
        {
          "internalType": "address",
          "name": "token",
          "type": "address"
        }
      ],
      "name": "getTokenCustomFeesPublic",
      "outputs": [
        {
          "internalType": "int64",
          "name": "responseCode",
          "type": "int64"
        },
        {
          "components": [
            {
              "internalType": "uint32",
              "name": "amount",
              "type": "uint32"
            },
            {
              "internalType": "address",
              "name": "tokenId",
              "type": "address"
            },
            {
              "internalType": "bool",
              "name": "useHbarsForPayment",
              "type": "bool"
            },
            {
              "internalType": "bool",
              "name": "useCurrentTokenForPayment",
              "type": "bool"
            },
            {
              "internalType": "address",
              "name": "feeCollector",
              "type": "address"
            }
          ],
          "internalType": "struct IHederaTokenService.FixedFee[]",
          "name": "fixedFees",
          "type": "tuple[]"
        },
        {
          "components": [
            {
              "internalType": "uint32",
              "name": "numerator",
              "type": "uint32"
            },
            {
              "internalType": "uint32",
              "name": "denominator",
              "type": "uint32"
            },
            {
              "internalType": "uint32",
              "name": "minimumAmount",
              "type": "uint32"
            },
            {
              "internalType": "uint32",
              "name": "maximumAmount",
              "type": "uint32"
            },
            {
              "internalType": "bool",
              "name": "netOfTransfers",
              "type": "bool"
            },
            {
              "internalType": "address",
              "name": "feeCollector",
              "type": "address"
            }
          ],
          "internalType": "struct IHederaTokenService.FractionalFee[]",
          "name": "fractionalFees",
          "type": "tuple[]"
        },
        {
          "components": [
            {
              "internalType": "uint32",
              "name": "numerator",
              "type": "uint32"
            },
            {
              "internalType": "uint32",
              "name": "denominator",
              "type": "uint32"
            },
            {
              "internalType": "uint32",
              "name": "amount",
              "type": "uint32"
            },
            {
              "internalType": "address",
              "name": "tokenId",
              "type": "address"
            },
            {
              "internalType": "bool",
              "name": "useHbarsForPayment",
              "type": "bool"
            },
            {
              "internalType": "address",
              "name": "feeCollector",
              "type": "address"
            }
          ],
          "internalType": "struct IHederaTokenService.RoyaltyFee[]",
          "name": "royaltyFees",
          "type": "tuple[]"
        }
      ],
      "stateMutability": "nonpayable",
      "type": "function"
    },
    {
      "inputs": [
        {
          "internalType": "address",
          "name": "token",
          "type": "address"
        }
      ],
      "name": "getTokenDefaultFreezeStatusPublic",
      "outputs": [
        {
          "internalType": "int256",
          "name": "responseCode",
          "type": "int256"
        },
        {
          "internalType": "bool",
          "name": "defaultFreezeStatus",
          "type": "bool"
        }
      ],
      "stateMutability": "nonpayable",
      "type": "function"
    },
    {
      "inputs": [
        {
          "internalType": "address",
          "name": "token",
          "type": "address"
        }
      ],
      "name": "getTokenDefaultKycStatusPublic",
      "outputs": [
        {
          "internalType": "int256",
          "name": "responseCode",
          "type": "int256"
        },
        {
          "internalType": "bool",
          "name": "defaultKycStatus",
          "type": "bool"
        }
      ],
      "stateMutability": "nonpayable",
      "type": "function"
    },
    {
      "inputs": [
        {
          "internalType": "address",
          "name": "token",
          "type": "address"
        }
      ],
      "name": "getTokenExpiryInfo",
      "outputs": [
        {
          "internalType": "int256",
          "name": "responseCode",
          "type": "int256"
        },
        {
          "components": [
            {
              "internalType": "uint32",
              "name": "second",
              "type": "uint32"
            },
            {
              "internalType": "address",
              "name": "autoRenewAccount",
              "type": "address"
            },
            {
              "internalType": "uint32",
              "name": "autoRenewPeriod",
              "type": "uint32"
            }
          ],
          "internalType": "struct IHederaTokenService.Expiry",
          "name": "expiryInfo",
          "type": "tuple"
        }
      ],
      "stateMutability": "nonpayable",
      "type": "function"
    },
    {
      "inputs": [
        {
          "internalType": "address",
          "name": "token",
          "type": "address"
        }
      ],
      "name": "getTokenExpiryInfoPublic",
      "outputs": [
        {
          "internalType": "int256",
          "name": "responseCode",
          "type": "int256"
        },
        {
          "components": [
            {
              "internalType": "uint32",
              "name": "second",
              "type": "uint32"
            },
            {
              "internalType": "address",
              "name": "autoRenewAccount",
              "type": "address"
            },
            {
              "internalType": "uint32",
              "name": "autoRenewPeriod",
              "type": "uint32"
            }
          ],
          "internalType": "struct IHederaTokenService.Expiry",
          "name": "expiryInfo",
          "type": "tuple"
        }
      ],
      "stateMutability": "nonpayable",
      "type": "function"
    },
    {
      "inputs": [
        {
          "internalType": "address",
          "name": "token",
          "type": "address"
        }
      ],
      "name": "getTokenInfoPublic",
      "outputs": [
        {
          "internalType": "int256",
          "name": "responseCode",
          "type": "int256"
        },
        {
          "components": [
            {
              "components": [
                {
                  "internalType": "string",
                  "name": "name",
                  "type": "string"
                },
                {
                  "internalType": "string",
                  "name": "symbol",
                  "type": "string"
                },
                {
                  "internalType": "address",
                  "name": "treasury",
                  "type": "address"
                },
                {
                  "internalType": "string",
                  "name": "memo",
                  "type": "string"
                },
                {
                  "internalType": "bool",
                  "name": "tokenSupplyType",
                  "type": "bool"
                },
                {
                  "internalType": "int64",
                  "name": "maxSupply",
                  "type": "int64"
                },
                {
                  "internalType": "bool",
                  "name": "freezeDefault",
                  "type": "bool"
                },
                {
                  "components": [
                    {
                      "internalType": "uint256",
                      "name": "keyType",
                      "type": "uint256"
                    },
                    {
                      "components": [
                        {
                          "internalType": "bool",
                          "name": "inheritAccountKey",
                          "type": "bool"
                        },
                        {
                          "internalType": "address",
                          "name": "contractId",
                          "type": "address"
                        },
                        {
                          "internalType": "bytes",
                          "name": "ed25519",
                          "type": "bytes"
                        },
                        {
                          "internalType": "bytes",
                          "name": "ECDSA_secp256k1",
                          "type": "bytes"
                        },
                        {
                          "internalType": "address",
                          "name": "delegatableContractId",
                          "type": "address"
                        }
                      ],
                      "internalType": "struct IHederaTokenService.KeyValue",
                      "name": "key",
                      "type": "tuple"
                    }
                  ],
                  "internalType": "struct IHederaTokenService.TokenKey[]",
                  "name": "tokenKeys",
                  "type": "tuple[]"
                },
                {
                  "components": [
                    {
                      "internalType": "uint32",
                      "name": "second",
                      "type": "uint32"
                    },
                    {
                      "internalType": "address",
                      "name": "autoRenewAccount",
                      "type": "address"
                    },
                    {
                      "internalType": "uint32",
                      "name": "autoRenewPeriod",
                      "type": "uint32"
                    }
                  ],
                  "internalType": "struct IHederaTokenService.Expiry",
                  "name": "expiry",
                  "type": "tuple"
                }
              ],
              "internalType": "struct IHederaTokenService.HederaToken",
              "name": "token",
              "type": "tuple"
            },
            {
              "internalType": "uint64",
              "name": "totalSupply",
              "type": "uint64"
            },
            {
              "internalType": "bool",
              "name": "deleted",
              "type": "bool"
            },
            {
              "internalType": "bool",
              "name": "defaultKycStatus",
              "type": "bool"
            },
            {
              "internalType": "bool",
              "name": "pauseStatus",
              "type": "bool"
            },
            {
              "components": [
                {
                  "internalType": "uint32",
                  "name": "amount",
                  "type": "uint32"
                },
                {
                  "internalType": "address",
                  "name": "tokenId",
                  "type": "address"
                },
                {
                  "internalType": "bool",
                  "name": "useHbarsForPayment",
                  "type": "bool"
                },
                {
                  "internalType": "bool",
                  "name": "useCurrentTokenForPayment",
                  "type": "bool"
                },
                {
                  "internalType": "address",
                  "name": "feeCollector",
                  "type": "address"
                }
              ],
              "internalType": "struct IHederaTokenService.FixedFee[]",
              "name": "fixedFees",
              "type": "tuple[]"
            },
            {
              "components": [
                {
                  "internalType": "uint32",
                  "name": "numerator",
                  "type": "uint32"
                },
                {
                  "internalType": "uint32",
                  "name": "denominator",
                  "type": "uint32"
                },
                {
                  "internalType": "uint32",
                  "name": "minimumAmount",
                  "type": "uint32"
                },
                {
                  "internalType": "uint32",
                  "name": "maximumAmount",
                  "type": "uint32"
                },
                {
                  "internalType": "bool",
                  "name": "netOfTransfers",
                  "type": "bool"
                },
                {
                  "internalType": "address",
                  "name": "feeCollector",
                  "type": "address"
                }
              ],
              "internalType": "struct IHederaTokenService.FractionalFee[]",
              "name": "fractionalFees",
              "type": "tuple[]"
            },
            {
              "components": [
                {
                  "internalType": "uint32",
                  "name": "numerator",
                  "type": "uint32"
                },
                {
                  "internalType": "uint32",
                  "name": "denominator",
                  "type": "uint32"
                },
                {
                  "internalType": "uint32",
                  "name": "amount",
                  "type": "uint32"
                },
                {
                  "internalType": "address",
                  "name": "tokenId",
                  "type": "address"
                },
                {
                  "internalType": "bool",
                  "name": "useHbarsForPayment",
                  "type": "bool"
                },
                {
                  "internalType": "address",
                  "name": "feeCollector",
                  "type": "address"
                }
              ],
              "internalType": "struct IHederaTokenService.RoyaltyFee[]",
              "name": "royaltyFees",
              "type": "tuple[]"
            },
            {
              "internalType": "string",
              "name": "ledgerId",
              "type": "string"
            }
          ],
          "internalType": "struct IHederaTokenService.TokenInfo",
          "name": "tokenInfo",
          "type": "tuple"
        }
      ],
      "stateMutability": "nonpayable",
      "type": "function"
    },
    {
      "inputs": [
        {
          "internalType": "address",
          "name": "token",
          "type": "address"
        }
      ],
      "name": "getTokenTypePublic",
      "outputs": [
        {
          "internalType": "int64",
          "name": "responseCode",
          "type": "int64"
        },
        {
          "internalType": "int32",
          "name": "tokenType",
          "type": "int32"
        }
      ],
      "stateMutability": "nonpayable",
      "type": "function"
    },
    {
      "inputs": [
        {
          "internalType": "address",
          "name": "token",
          "type": "address"
        },
        {
          "internalType": "address",
          "name": "account",
          "type": "address"
        }
      ],
      "name": "grantTokenKyc",
      "outputs": [
        {
          "internalType": "int64",
          "name": "responseCode",
          "type": "int64"
        }
      ],
      "stateMutability": "nonpayable",
      "type": "function"
    },
    {
      "inputs": [
        {
          "internalType": "address",
          "name": "token",
          "type": "address"
        },
        {
          "internalType": "address",
          "name": "account",
          "type": "address"
        }
      ],
      "name": "grantTokenKycPublic",
      "outputs": [
        {
          "internalType": "int64",
          "name": "responseCode",
          "type": "int64"
        }
      ],
      "stateMutability": "nonpayable",
      "type": "function"
    },
    {
      "inputs": [
        {
          "internalType": "address",
          "name": "token",
          "type": "address"
        },
        {
          "internalType": "address",
          "name": "owner",
          "type": "address"
        },
        {
          "internalType": "address",
          "name": "operator",
          "type": "address"
        }
      ],
      "name": "isApprovedForAllPublic",
      "outputs": [
        {
          "internalType": "int256",
          "name": "responseCode",
          "type": "int256"
        },
        {
          "internalType": "bool",
          "name": "approved",
          "type": "bool"
        }
      ],
      "stateMutability": "nonpayable",
      "type": "function"
    },
    {
      "inputs": [
        {
          "internalType": "address",
          "name": "token",
          "type": "address"
        },
        {
          "internalType": "address",
          "name": "account",
          "type": "address"
        }
      ],
      "name": "isFrozenPublic",
      "outputs": [
        {
          "internalType": "int256",
          "name": "responseCode",
          "type": "int256"
        },
        {
          "internalType": "bool",
          "name": "frozen",
          "type": "bool"
        }
      ],
      "stateMutability": "nonpayable",
      "type": "function"
    },
    {
      "inputs": [
        {
          "internalType": "address",
          "name": "token",
          "type": "address"
        },
        {
          "internalType": "address",
          "name": "account",
          "type": "address"
        }
      ],
      "name": "isKyc",
      "outputs": [
        {
          "internalType": "int64",
          "name": "responseCode",
          "type": "int64"
        },
        {
          "internalType": "bool",
          "name": "kycGranted",
          "type": "bool"
        }
      ],
      "stateMutability": "nonpayable",
      "type": "function"
    },
    {
      "inputs": [
        {
          "internalType": "address",
          "name": "token",
          "type": "address"
        },
        {
          "internalType": "address",
          "name": "account",
          "type": "address"
        }
      ],
      "name": "isKycPublic",
      "outputs": [
        {
          "internalType": "int64",
          "name": "responseCode",
          "type": "int64"
        },
        {
          "internalType": "bool",
          "name": "kycGranted",
          "type": "bool"
        }
      ],
      "stateMutability": "nonpayable",
      "type": "function"
    },
    {
      "inputs": [
        {
          "internalType": "address",
          "name": "token",
          "type": "address"
        }
      ],
      "name": "isTokenPublic",
      "outputs": [
        {
          "internalType": "int64",
          "name": "responseCode",
          "type": "int64"
        },
        {
          "internalType": "bool",
          "name": "isTokenFlag",
          "type": "bool"
        }
      ],
      "stateMutability": "nonpayable",
      "type": "function"
    },
    {
      "inputs": [
        {
          "internalType": "address",
          "name": "token",
          "type": "address"
        },
        {
          "internalType": "uint64",
          "name": "amount",
          "type": "uint64"
        },
        {
          "internalType": "bytes[]",
          "name": "metadata",
          "type": "bytes[]"
        }
      ],
      "name": "mintTokenPublic",
      "outputs": [
        {
          "internalType": "int256",
          "name": "responseCode",
          "type": "int256"
        },
        {
          "internalType": "uint64",
          "name": "newTotalSupply",
          "type": "uint64"
        },
        {
          "internalType": "int64[]",
          "name": "serialNumbers",
          "type": "int64[]"
        }
      ],
      "stateMutability": "nonpayable",
      "type": "function"
    },
    {
      "inputs": [
        {
          "internalType": "address",
          "name": "token",
          "type": "address"
        }
      ],
      "name": "pauseToken",
      "outputs": [
        {
          "internalType": "int256",
          "name": "responseCode",
          "type": "int256"
        }
      ],
      "stateMutability": "nonpayable",
      "type": "function"
    },
    {
      "inputs": [
        {
          "internalType": "address",
          "name": "token",
          "type": "address"
        }
      ],
      "name": "pauseTokenPublic",
      "outputs": [
        {
          "internalType": "int256",
          "name": "responseCode",
          "type": "int256"
        }
      ],
      "stateMutability": "nonpayable",
      "type": "function"
    },
    {
      "inputs": [
        {
          "internalType": "address",
          "name": "token",
          "type": "address"
        },
        {
          "internalType": "address",
          "name": "account",
          "type": "address"
        }
      ],
      "name": "revokeTokenKyc",
      "outputs": [
        {
          "internalType": "int64",
          "name": "responseCode",
          "type": "int64"
        }
      ],
      "stateMutability": "nonpayable",
      "type": "function"
    },
    {
      "inputs": [
        {
          "internalType": "address",
          "name": "token",
          "type": "address"
        },
        {
          "internalType": "address",
          "name": "account",
          "type": "address"
        }
      ],
      "name": "revokeTokenKycPublic",
      "outputs": [
        {
          "internalType": "int64",
          "name": "responseCode",
          "type": "int64"
        }
      ],
      "stateMutability": "nonpayable",
      "type": "function"
    },
    {
      "inputs": [
        {
          "internalType": "address",
          "name": "token",
          "type": "address"
        },
        {
          "internalType": "address",
          "name": "operator",
          "type": "address"
        },
        {
          "internalType": "bool",
          "name": "approved",
          "type": "bool"
        }
      ],
      "name": "setApprovalForAllPublic",
      "outputs": [
        {
          "internalType": "int256",
          "name": "responseCode",
          "type": "int256"
        }
      ],
      "stateMutability": "nonpayable",
      "type": "function"
    },
    {
      "inputs": [
        {
          "internalType": "bool",
          "name": "newFreezeStatus",
          "type": "bool"
        }
      ],
      "name": "setFreezeDefaultStatus",
      "outputs": [],
      "stateMutability": "nonpayable",
      "type": "function"
    },
    {
      "inputs": [
        {
          "internalType": "address",
          "name": "token",
          "type": "address"
        },
        {
          "internalType": "address",
          "name": "sender",
          "type": "address"
        },
        {
          "internalType": "address",
          "name": "receiver",
          "type": "address"
        },
        {
          "internalType": "int64",
          "name": "serialNumber",
          "type": "int64"
        }
      ],
      "name": "transferNFTPublic",
      "outputs": [
        {
          "internalType": "int256",
          "name": "responseCode",
          "type": "int256"
        }
      ],
      "stateMutability": "nonpayable",
      "type": "function"
    },
    {
      "inputs": [
        {
          "internalType": "address",
          "name": "token",
          "type": "address"
        },
        {
          "internalType": "address",
          "name": "sender",
          "type": "address"
        },
        {
          "internalType": "address",
          "name": "receiver",
          "type": "address"
        },
        {
          "internalType": "int64",
          "name": "amount",
          "type": "int64"
        }
      ],
      "name": "transferTokenPublic",
      "outputs": [
        {
          "internalType": "int256",
          "name": "responseCode",
          "type": "int256"
        }
      ],
      "stateMutability": "nonpayable",
      "type": "function"
    },
    {
      "inputs": [
        {
          "internalType": "address",
          "name": "token",
          "type": "address"
        },
        {
          "internalType": "address",
          "name": "account",
          "type": "address"
        }
      ],
      "name": "unfreezeTokenPublic",
      "outputs": [
        {
          "internalType": "int256",
          "name": "responseCode",
          "type": "int256"
        }
      ],
      "stateMutability": "nonpayable",
      "type": "function"
    },
    {
      "inputs": [
        {
          "internalType": "address",
          "name": "token",
          "type": "address"
        }
      ],
      "name": "unpauseToken",
      "outputs": [
        {
          "internalType": "int256",
          "name": "responseCode",
          "type": "int256"
        }
      ],
      "stateMutability": "nonpayable",
      "type": "function"
    },
    {
      "inputs": [
        {
          "internalType": "address",
          "name": "token",
          "type": "address"
        }
      ],
      "name": "unpauseTokenPublic",
      "outputs": [
        {
          "internalType": "int256",
          "name": "responseCode",
          "type": "int256"
        }
      ],
      "stateMutability": "nonpayable",
      "type": "function"
    },
    {
      "inputs": [
        {
          "internalType": "address",
          "name": "token",
          "type": "address"
        },
        {
          "components": [
            {
              "internalType": "uint32",
              "name": "second",
              "type": "uint32"
            },
            {
              "internalType": "address",
              "name": "autoRenewAccount",
              "type": "address"
            },
            {
              "internalType": "uint32",
              "name": "autoRenewPeriod",
              "type": "uint32"
            }
          ],
          "internalType": "struct IHederaTokenService.Expiry",
          "name": "expiryInfo",
          "type": "tuple"
        }
      ],
      "name": "updateTokenExpiryInfo",
      "outputs": [
        {
          "internalType": "int256",
          "name": "responseCode",
          "type": "int256"
        }
      ],
      "stateMutability": "nonpayable",
      "type": "function"
    },
    {
      "inputs": [
        {
          "internalType": "address",
          "name": "token",
          "type": "address"
        },
        {
          "components": [
            {
              "internalType": "uint32",
              "name": "second",
              "type": "uint32"
            },
            {
              "internalType": "address",
              "name": "autoRenewAccount",
              "type": "address"
            },
            {
              "internalType": "uint32",
              "name": "autoRenewPeriod",
              "type": "uint32"
            }
          ],
          "internalType": "struct IHederaTokenService.Expiry",
          "name": "expiryInfo",
          "type": "tuple"
        }
      ],
      "name": "updateTokenExpiryInfoPublic",
      "outputs": [
        {
          "internalType": "int256",
          "name": "responseCode",
          "type": "int256"
        }
      ],
      "stateMutability": "nonpayable",
      "type": "function"
    },
    {
      "inputs": [
        {
          "internalType": "address",
          "name": "token",
          "type": "address"
        },
        {
          "internalType": "address",
          "name": "account",
          "type": "address"
        },
        {
          "internalType": "int64[]",
          "name": "serialNumbers",
          "type": "int64[]"
        }
      ],
      "name": "wipeTokenAccountNFTPublic",
      "outputs": [
        {
          "internalType": "int256",
          "name": "responseCode",
          "type": "int256"
        }
      ],
      "stateMutability": "nonpayable",
      "type": "function"
    },
    {
      "inputs": [
        {
          "internalType": "address",
          "name": "token",
          "type": "address"
        },
        {
          "internalType": "address",
          "name": "account",
          "type": "address"
        },
        {
          "internalType": "uint32",
          "name": "amount",
          "type": "uint32"
        }
      ],
      "name": "wipeTokenAccountPublic",
      "outputs": [
        {
          "internalType": "int256",
          "name": "responseCode",
          "type": "int256"
        }
      ],
      "stateMutability": "nonpayable",
      "type": "function"
    }
  ],
  "bytecode": "0x60c06040526009608081905268746f6b656e4e616d6560b81b60a09081526200002c9160019190620000c7565b5060408051808201909152600b8082526a1d1bdad95b94de5b589bdb60aa1b60209092019182526200006191600291620000c7565b50604080518082019091526004808252636d656d6f60e01b60209092019182526200008f91600391620000c7565b50600480546001600160a81b031916700800000000000003e800000000000003e8179055348015620000c057600080fd5b50620001aa565b828054620000d5906200016d565b90600052602060002090601f016020900481019282620000f9576000855562000144565b82601f106200011457805160ff191683800117855562000144565b8280016001018555821562000144579182015b828111156200014457825182559160200191906001019062000127565b506200015292915062000156565b5090565b5b8082111562000152576000815560010162000157565b600181811c908216806200018257607f821691505b60208210811415620001a457634e487b7160e01b600052602260045260246000fd5b50919050565b615ee080620001ba6000396000f3fe6080604052600436106102e75760003560e01c806386f88d8811610184578063d92ac248116100d6578063f2f38a741161008a578063f848fec411610064578063f848fec4146108e2578063f9e978bd14610902578063fdc8321e1461092257600080fd5b8063f2f38a7414610874578063f4a01e5b146108a2578063f7be3425146108c257600080fd5b8063eee55ac8116100bb578063eee55ac814610814578063f25b120014610834578063f2c31ff41461085457600080fd5b8063d92ac248146107d4578063df6c06f5146107f457600080fd5b8063a345f7bd11610138578063c0b19b6d11610112578063c0b19b6d14610773578063d614cdb8146107a1578063d85f74c1146107c157600080fd5b8063a345f7bd14610713578063a3ad5b5514610733578063af99c6331461075357600080fd5b80638c99ef5d116101695780638c99ef5d146106995780638f8d7f99146106d35780639604ca65146106f357600080fd5b806386f88d88146106665780638ba74da01461068657600080fd5b806356af84031161023d57806369837dc2116101f15780637c41ad2c116101cb5780637c41ad2c146105f75780637d3e5da8146106175780638070905f1461063757600080fd5b806369837dc2146105895780636a4dde21146105b75780636da6b1f0146105d757600080fd5b80635a5e6c31116102225780635a5e6c31146104e75780635b9076b71461051c5780635d2c5bad1461054c57600080fd5b806356af8403146104a7578063593d6e82146104c757600080fd5b80632eecbca31161029f5780634b5c6687116102795780634b5c6687146104445780634ba67035146104595780634cbdb37b1461047957600080fd5b80632eecbca3146103e45780633b3bff0f146104045780633eed2c391461042457600080fd5b806319db44b6116102d057806319db44b6146103595780632b256ec8146103965780632d73bb2e146103c457600080fd5b80630fd2601e146102ec57806313c05dd814610324575b600080fd5b3480156102f857600080fd5b5061030c610307366004613f6c565b610942565b60405160079190910b81526020015b60405180910390f35b34801561033057600080fd5b5061034461033f366004613fa5565b610a06565b6040805192835290151560208301520161031b565b34801561036557600080fd5b50610379610374366004613ff0565b610a84565b604080519283526001600160a01b0390911660208301520161031b565b3480156103a257600080fd5b506103b66103b136600461401c565b610b08565b60405190815260200161031b565b3480156103d057600080fd5b506103b66103df366004613f6c565b610bf4565b3480156103f057600080fd5b5061030c6103ff366004613f6c565b610c39565b34801561041057600080fd5b506103b661041f36600461401c565b610c70565b34801561043057600080fd5b5061034461043f36600461401c565b610d4a565b61045761045236600461401c565b610dc4565b005b34801561046557600080fd5b506103b6610474366004614048565b6111b2565b34801561048557600080fd5b506104996104943660046140a4565b6111fe565b60405161031b9291906145c7565b3480156104b357600080fd5b506103b66104c2366004614701565b611274565b3480156104d357600080fd5b506103b66104e23660046147d9565b6112be565b3480156104f357600080fd5b50610507610502366004613fa5565b61139b565b6040805192835260208301919091520161031b565b34801561052857600080fd5b5061053c61053736600461401c565b61140c565b60405161031b9493929190614856565b34801561055857600080fd5b5061056c61056736600461401c565b61149e565b6040805160079390930b835260039190910b60208301520161031b565b34801561059557600080fd5b506105a96105a436600461401c565b611519565b60405161031b9291906148d2565b3480156105c357600080fd5b506103446105d2366004613f6c565b61158e565b3480156105e357600080fd5b506103b66105f2366004614048565b611605565b34801561060357600080fd5b506103b661061236600461401c565b611613565b34801561062357600080fd5b506103b6610632366004613f6c565b611641565b34801561064357600080fd5b50610657610652366004614929565b61164d565b60405161031b93929190614a72565b34801561067257600080fd5b5061034461068136600461401c565b6116d5565b610457610694366004613f6c565b611746565b3480156106a557600080fd5b506106b96106b436600461401c565b611c08565b6040805160079390930b835290151560208301520161031b565b3480156106df57600080fd5b5061030c6106ee366004613f6c565b611c81565b3480156106ff57600080fd5b506103b661070e366004614aa4565b611cb7565b34801561071f57600080fd5b506103b661072e36600461401c565b611cec565b34801561073f57600080fd5b506106b961074e366004613f6c565b611d32565b34801561075f57600080fd5b5061030c61076e366004613f6c565b611e24565b34801561077f57600080fd5b5061079361078e36600461401c565b611e5a565b60405161031b929190614b19565b3480156107ad57600080fd5b506107936107bc36600461401c565b611f51565b6104576107cf36600461401c565b61205b565b3480156107e057600080fd5b506103b66107ef366004614b53565b612400565b34801561080057600080fd5b506103b661080f366004614b93565b61240d565b34801561082057600080fd5b506103b661082f3660046147d9565b61241a565b34801561084057600080fd5b506103b661084f366004614be2565b6124ad565b34801561086057600080fd5b506106b961086f366004613f6c565b6124ba565b34801561088057600080fd5b5061089461088f36600461401c565b612595565b60405161031b929190614c22565b3480156108ae57600080fd5b506103b66108bd366004613f6c565b61260a565b3480156108ce57600080fd5b506103b66108dd36600461401c565b612616565b3480156108ee57600080fd5b506103b66108fd366004614b93565b6126f9565b34801561090e57600080fd5b5061045761091d366004614c3b565b612706565b34801561092e57600080fd5b506103b661093d366004614c58565b61277c565b604051638f8d7f9960e01b81526001600160a01b038084166004830152821660248201526000903090638f8d7f99906044015b602060405180830381600087803b15801561098f57600080fd5b505af11580156109a3573d6000803e3d6000fd5b505050506040513d601f19601f820116820180604052508101906109c79190614ca3565b604051600782900b8152909150600080516020615e8b8339815191529060200160405180910390a1600781900b601614610a0057600080fd5b92915050565b600080610a14858585612953565b6040518281529193509150600080516020615e8b8339815191529060200160405180910390a160168214610a4757600080fd5b60405181151581527e1c2e72360171244b3bb8cc8ddd767820edf37138ad6f129fb3574b407c307d906020015b60405180910390a1935093915050565b600080610a918484612a52565b6040518281529193509150600080516020615e8b8339815191529060200160405180910390a160168214610ac457600080fd5b6040516001600160a01b03821681527fc2c78c7c31baf14949e75c51df12be56edb9af523cf82839c2869bbcf13b3ecb906020015b60405180910390a19250929050565b604051631f106b4b60e21b81526001600160a01b03821660048201526000903090637c41ad2c90602401602060405180830381600087803b158015610b4c57600080fd5b505af1158015610b60573d6000803e3d6000fd5b505050506040513d601f19601f82011682018060405250810190610b849190614cc0565b9050600080516020615e8b83398151915281604051610ba591815260200190565b60405180910390a160168114610bba57600080fd5b604051600181527f0c9c765845f4d139956bb8fc8decb2eec6093c9c608b809641b16054b29f0e13906020015b60405180910390a1919050565b6000610c008383612b32565b60070b9050600080516020615e8b83398151915281604051610c2491815260200190565b60405180910390a160168114610a0057600080fd5b60405163af99c63360e01b81526001600160a01b03808416600483015282166024820152600090309063af99c63390604401610975565b6040516001600160a01b03821660248201526000908190819061016790633b3bff0f60e01b906044015b60408051601f198184030181529181526020820180516001600160e01b03166001600160e01b0319909416939093179092529051610cd89190614cd9565b6000604051808303816000865af19150503d8060008114610d15576040519150601f19603f3d011682016040523d82523d6000602084013e610d1a565b606091505b509150915081610d2b576015610d3f565b80806020019051810190610d3f9190614d07565b60030b949350505050565b600080610d5683612b81565b6040518281529193509150600080516020615e8b8339815191529060200160405180910390a160168214610d8957600080fd5b60405181151581527f6b7f3306751292f85ab4161ee2b0ac16dfc8ded13e6446ce6bd859d0a2f4c78e906020015b60405180910390a1915091565b60408051600480825260a08201909252600091816020015b610de4613dde565b815260200190600190039081610ddc579050509050610e1760006006600160405180602001604052806000815250612c7e565b81600081518110610e2a57610e2a614d22565b6020026020010181905250610e5060018060405180602001604052806000815250612cb5565b81600181518110610e6357610e63614d22565b6020026020010181905250610e8a6002600160405180602001604052806000815250612cb5565b81600281518110610e9d57610e9d614d22565b6020026020010181905250610ec46003600160405180602001604052806000815250612cb5565b81600381518110610ed757610ed7614d22565b602002602001018190525060006040518060600160405280600063ffffffff168152602001846001600160a01b03168152602001627a120063ffffffff168152509050600060405180610120016040528060018054610f3590614d38565b80601f0160208091040260200160405190810160405280929190818152602001828054610f6190614d38565b8015610fae5780601f10610f8357610100808354040283529160200191610fae565b820191906000526020600020905b815481529060010190602001808311610f9157829003601f168201915b5050505050815260200160028054610fc590614d38565b80601f0160208091040260200160405190810160405280929190818152602001828054610ff190614d38565b801561103e5780601f106110135761010080835404028352916020019161103e565b820191906000526020600020905b81548152906001019060200180831161102157829003601f168201915b50505050508152602001856001600160a01b031681526020016003805461106490614d38565b80601f016020809104026020016040519081016040528092919081815260200182805461109090614d38565b80156110dd5780601f106110b2576101008083540402835291602001916110dd565b820191906000526020600020905b8154815290600101906020018083116110c057829003601f168201915b50505091835250506001602082015260045468010000000000000000810460070b6040830152600160a01b810460ff16151560608301526080820186905260a0909101849052909150600090819061115c90849067ffffffffffffffff811690700100000000000000000000000000000000900463ffffffff16612cea565b90925090506016821461116e57600080fd5b6040516001600160a01b03821681527f7bb17726df1f3adee8aa00ba8e8bc5d6f182af3bbf77604639cb7f008dd3b4ed9060200160405180910390a1505050505050565b60006111c085858585612e18565b9050600080516020615e8b833981519152816040516111e191815260200190565b60405180910390a1601681146111f657600080fd5b949350505050565b6000611208613e3b565b6112128484612f28565b6040518281529193509150600080516020615e8b8339815191529060200160405180910390a16016821461124557600080fd5b7fd010ef68d3ac3e07c14bed496400730a484fd17c48a4d373cbc4722a56540def81604051610af99190614d73565b600061128184848461301b565b9050600080516020615e8b833981519152816040516112a291815260200190565b60405180910390a1601681146112b757600080fd5b9392505050565b60008060006101676001600160a01b031663593d6e8260e01b86866040516024016112ea929190614d86565b60408051601f198184030181529181526020820180516001600160e01b03166001600160e01b03199094169390931790925290516113289190614cd9565b6000604051808303816000865af19150503d8060008114611365576040519150601f19603f3d011682016040523d82523d6000602084013e61136a565b606091505b50915091508161137b57601561138f565b8080602001905181019061138f9190614d07565b60030b95945050505050565b6000806113a98585856130fb565b6040518281529193509150600080516020615e8b8339815191529060200160405180910390a1601682146113dc57600080fd5b6040518181527f25b6684a7e8fe1b676e9c39c8dd65034fbafea906d3bdfd97bf748b7b55e14c890602001610a74565b6000606080606061141c856131e7565b604051600785900b815293975091955093509150600080516020615e8b8339815191529060200160405180910390a1600784900b60161461145c57600080fd5b7f2efc8334b040613a552197fe34283d6ca2909c8ffae393e128424931f20c69b383838360405161148f93929190614dc9565b60405180910390a19193509193565b6000806114aa836132e7565b604051600783900b81529193509150600080516020615e8b8339815191529060200160405180910390a1600782900b6016146114e557600080fd5b604051600382900b81527f182137409609594f2b12128230091c673507ea4cab315d59415d5e3f8c301ad590602001610db7565b6000611523613e76565b61152c836133c4565b6040518281529193509150600080516020615e8b8339815191529060200160405180910390a16016821461155f57600080fd5b7fea9419ffbaa766adf982c4c9864330eee1d848eff36c79e510e7e589c8bb265f81604051610db79190614e02565b60008061159b84846134ad565b60405160079290920b80835293509150600080516020615e8b8339815191529060200160405180910390a1601682146115d357600080fd5b60405181151581527f59800d968fcce138300a0019410b4b75041610d65b3cdc5f31656b03ed14912e90602001610af9565b60006111c0858585856134fe565b6040516001600160a01b03821660248201526000908190819061016790631f106b4b60e21b90604401610c9a565b6000610c00838361355f565b600080606061165d8686866135ae565b6040518381529295509093509150600080516020615e8b8339815191529060200160405180910390a16016831461169357600080fd5b7feff23992f47b3c101679f8b4dc9d3e242c903909dba4a453f2b2341ad463b0e282826040516116c4929190614e15565b60405180910390a193509350939050565b6000806116e1836136ac565b6040518281529193509150600080516020615e8b8339815191529060200160405180910390a16016821461171457600080fd5b60405181151581527f9ee19e13dfa1ba8db2502e15ff56dbecdeb0e0473323fb195473ce648030a2cd90602001610db7565b604080516001808252818301909252600091816020015b611765613dde565b81526020019060019003908161175d579050509050611797600080600160405180602001604052806000815250612c7e565b816000815181106117aa576117aa614d22565b602002602001018190525060006040518060600160405280600063ffffffff168152602001856001600160a01b03168152602001627a120063ffffffff16815250905060006040518061012001604052806001805461180890614d38565b80601f016020809104026020016040519081016040528092919081815260200182805461183490614d38565b80156118815780601f1061185657610100808354040283529160200191611881565b820191906000526020600020905b81548152906001019060200180831161186457829003601f168201915b505050505081526020016002805461189890614d38565b80601f01602080910402602001604051908101604052809291908181526020018280546118c490614d38565b80156119115780601f106118e657610100808354040283529160200191611911565b820191906000526020600020905b8154815290600101906020018083116118f457829003601f168201915b50505050508152602001866001600160a01b031681526020016003805461193790614d38565b80601f016020809104026020016040519081016040528092919081815260200182805461196390614d38565b80156119b05780601f10611985576101008083540402835291602001916119b0565b820191906000526020600020905b81548152906001019060200180831161199357829003601f168201915b505050918352505060016020820181905260045468010000000000000000900460070b6040808401919091526000606084018190526080840188905260a09093018690528051828152808201909152929350909190816020015b6040805160a081018252600080825260208083018290529282018190526060820181905260808201528252600019909201910181611a0a5750506040805160a081018252600181526001600160a01b03888116602083015260009282018390526060820183905289166080820152825192935091839190611a8d57611a8d614d22565b6020908102919091010152604080516001808252818301909252600091816020015b6040805160c08101825260008082526020808301829052928201819052606082018190526080820181905260a08201528252600019909201910181611aaf5750506040805160c0810182526004815260056020820152600a91810191909152601e60608201526000608082018190526001600160a01b038a1660a083015282519293509091839190611b4357611b43614d22565b60209081029190910101526004546000908190611b8990869067ffffffffffffffff811690700100000000000000000000000000000000900463ffffffff1687876136f5565b91509150600080516020615e8b83398151915282604051611bac91815260200190565b60405180910390a160168214611bc157600080fd5b6040516001600160a01b03821681527f7bb17726df1f3adee8aa00ba8e8bc5d6f182af3bbf77604639cb7f008dd3b4ed9060200160405180910390a1505050505050505050565b600080611c1483613829565b604051600783900b81529193509150600080516020615e8b8339815191529060200160405180910390a1600782900b601614611c4f57600080fd5b60405181151581527f5080c42cc33acbcea410fa6eaa925bd878674825501981184fdd53749f8478a890602001610db7565b6040516001600160a01b038381166024830152821660448201526000908190819061016790638f8d7f9960e01b906064016112ea565b6000611ccb611cc68385614ee7565b613872565b9050600080516020615e8b83398151915281604051610c2491815260200190565b6000611cf78261389c565b9050600080516020615e8b83398151915281604051611d1891815260200190565b60405180910390a160168114611d2d57600080fd5b919050565b604051633cb0c7fd60e21b81526001600160a01b038084166004830152821660248201526000908190309063f2c31ff4906044016040805180830381600087803b158015611d7f57600080fd5b505af1158015611d93573d6000803e3d6000fd5b505050506040513d601f19601f82011682018060405250810190611db7919061505f565b604051600783900b81529193509150600080516020615e8b8339815191529060200160405180910390a1600782900b601614611df257600080fd5b60405181151581527fd24dda6928587354b65aa1a18c2eaf249bef7e5bafd2a71fac71d286f76f957f90602001610af9565b6040516001600160a01b03838116602483015282166044820152600090819081906101679063af99c63360e01b906064016112ea565b60408051606081018252600080825260208201819052918101829052604051631ac299b760e31b81526001600160a01b0384166004820152309063d614cdb890602401608060405180830381600087803b158015611eb757600080fd5b505af1158015611ecb573d6000803e3d6000fd5b505050506040513d601f19601f82011682018060405250810190611eef91906150ee565b6040518281529193509150600080516020615e8b8339815191529060200160405180910390a160168214611f2257600080fd5b7fa0a16bf9db2c17796faeca5af5aaeef8523f9d4c350c512cb00062ad89604f8881604051610db7919061511b565b604080516060810182526000808252602080830182905282840182905283516001600160a01b038616602480830191909152855180830390910181526044909101855290810180516001600160e01b0316631ac299b760e31b179052925190928391829161016791611fc39190614cd9565b6000604051808303816000865af19150503d8060008114612000576040519150601f19603f3d011682016040523d82523d6000602084013e612005565b606091505b50604080516060810182526000808252602082018190529181019190915291935091508261203557601581612049565b81806020019051810190612049919061514f565b60039190910b97909650945050505050565b60408051600580825260c08201909252600091816020015b61207b613dde565b8152602001906001900390816120735790505090506120ae60006006600160405180602001604052806000815250612c7e565b816000815181106120c1576120c1614d22565b60200260200101819052506120e760018060405180602001604052806000815250612cb5565b816001815181106120fa576120fa614d22565b60200260200101819052506121216002600160405180602001604052806000815250612cb5565b8160028151811061213457612134614d22565b602002602001018190525061215b6004600160405180602001604052806000815250612cb5565b8160038151811061216e5761216e614d22565b60200260200101819052506121956003600160405180602001604052806000815250612cb5565b816004815181106121a8576121a8614d22565b602002602001018190525060006040518060600160405280600063ffffffff168152602001846001600160a01b03168152602001627a120063ffffffff16815250905060006040518061012001604052806001805461220690614d38565b80601f016020809104026020016040519081016040528092919081815260200182805461223290614d38565b801561227f5780601f106122545761010080835404028352916020019161227f565b820191906000526020600020905b81548152906001019060200180831161226257829003601f168201915b505050505081526020016002805461229690614d38565b80601f01602080910402602001604051908101604052809291908181526020018280546122c290614d38565b801561230f5780601f106122e45761010080835404028352916020019161230f565b820191906000526020600020905b8154815290600101906020018083116122f257829003601f168201915b50505050508152602001856001600160a01b031681526020016003805461233590614d38565b80601f016020809104026020016040519081016040528092919081815260200182805461236190614d38565b80156123ae5780601f10612383576101008083540402835291602001916123ae565b820191906000526020600020905b81548152906001019060200180831161239157829003601f168201915b50505091835250506001602082015260045468010000000000000000810460070b6040830152600160a01b900460ff16151560608201526080810185905260a001839052905060008061115c836138e3565b60006112818484846139cd565b6000611281848484613a28565b6040517f593d6e82000000000000000000000000000000000000000000000000000000008152600090309063593d6e829061245b9086908690600401614d86565b602060405180830381600087803b15801561247557600080fd5b505af1158015612489573d6000803e3d6000fd5b505050506040513d601f19601f82011682018060405250810190611ccb9190614cc0565b6000611281848484613a7e565b6040516001600160a01b0383811660248301528216604482015260009081908190819061016790633cb0c7fd60e21b906064015b60408051601f198184030181529181526020820180516001600160e01b03166001600160e01b031990941693909317909252905161252c9190614cd9565b6000604051808303816000865af19150503d8060008114612569576040519150601f19603f3d011682016040523d82523d6000602084013e61256e565b606091505b5091509150816125815760156000612049565b80806020019051810190612049919061517a565b600061259f613e96565b6125a883613ad5565b6040518281529193509150600080516020615e8b8339815191529060200160405180910390a1601682146125db57600080fd5b7fbdb65f8c2a2e9a3a37ea49e903836883766a922e4ce9b21f684035e304962d4181604051610db791906151a6565b6000611ccb8383613bbe565b604051633b3bff0f60e01b81526001600160a01b03821660048201526000903090633b3bff0f90602401602060405180830381600087803b15801561265a57600080fd5b505af115801561266e573d6000803e3d6000fd5b505050506040513d601f19601f820116820180604052508101906126929190614cc0565b9050600080516020615e8b833981519152816040516126b391815260200190565b60405180910390a1601681146126c857600080fd5b604051600181527f319ab7084208e4afa38c6e6ff7aea9587439f2e4700746f4c7d425fea17426d290602001610be7565b6000611281848484613c0d565b600480547fffffffffffffffffffffff00ffffffffffffffffffffffffffffffffffffffff16600160a01b8315158102919091179182905560405160ff9190920416151581527f457c3a16a0ebdc38e3675609957ca3fcc4490e220bd15d85d34f58e2e145cb089060200160405180910390a150565b604080516000808252602082019092528190816127c1565b60408051606081018252600080825260208083018290529282015282526000199092019101816127945790505b50905060006040518060400160405280336001600160a01b03168152602001856127ea906151b9565b600790810b9091526040805180820182526001600160a01b038a1681529187900b602083015280516002808252606082019092529293509091600091816020015b604080518082019091526000808252602082015281526020019060019003908161282b579050509050828160008151811061286857612868614d22565b6020026020010181905250818160018151811061288757612887614d22565b602090810291909101810191909152604080516060810182526001600160a01b038a16815291820183905281810186905280516001808252818301909252600091816020015b6128fa604051806060016040528060006001600160a01b0316815260200160608152602001606081525090565b8152602001906001900390816128cd579050509050818160008151811061292357612923614d22565b602002602001018190525061293781613872565b96506016871461294657600080fd5b5050505050509392505050565b604080516001600160a01b0385811660248301528481166044830152831660648083019190915282518083039091018152608490910182526020810180516001600160e01b03167ff49f40db000000000000000000000000000000000000000000000000000000001790529051600091829182918291610167916129d691614cd9565b6000604051808303816000865af19150503d8060008114612a13576040519150601f19603f3d011682016040523d82523d6000602084013e612a18565b606091505b509150915081612a2b5760156000612a3f565b80806020019051810190612a3f919061517a565b60039190910b9890975095505050505050565b604080516001600160a01b0384166024820152604480820184905282518083039091018152606490910182526020810180516001600160e01b03167f098f236600000000000000000000000000000000000000000000000000000000179052905160009182918291829161016791612ac991614cd9565b6000604051808303816000865af19150503d8060008114612b06576040519150601f19603f3d011682016040523d82523d6000602084013e612b0b565b606091505b509150915081612b1e5760156000612049565b8080602001905181019061204991906151ef565b6040516001600160a01b0383811660248301528216604482015260009081908190610167907f52f9138700000000000000000000000000000000000000000000000000000000906064016112ea565b6040516001600160a01b0382166024820152600090819081908190610167907fa7daa18d00000000000000000000000000000000000000000000000000000000906044015b60408051601f198184030181529181526020820180516001600160e01b03166001600160e01b0319909416939093179092529051612c049190614cd9565b6000604051808303816000865af19150503d8060008114612c41576040519150601f19603f3d011682016040523d82523d6000602084013e612c46565b606091505b509150915081612c595760156000612c6d565b80806020019051810190612c6d919061517a565b60039190910b969095509350505050565b612c86613dde565b6040518060400160405280612c9b8787613c63565b8152602001612caa8585613c7c565b905295945050505050565b612cbd613dde565b6040518060400160405280612cd186613d4c565b8152602001612ce08585613c7c565b9052949350505050565b600080848061010001516000015163ffffffff166000148015612d1a57506101008101516040015163ffffffff16155b15612d30576101008101516276a7006040909101525b6000806101676001600160a01b03163463c23baeb660e01b8a8a8a604051602401612d5d9392919061521b565b60408051601f198184030181529181526020820180516001600160e01b03166001600160e01b0319909416939093179092529051612d9b9190614cd9565b60006040518083038185875af1925050503d8060008114612dd8576040519150601f19603f3d011682016040523d82523d6000602084013e612ddd565b606091505b509150915081612df05760156000612e04565b80806020019051810190612e0491906151ef565b60039190910b999098509650505050505050565b6040516001600160a01b038581166024830152848116604483015283166064820152600782900b608482015260009081908190610167907feca36917000000000000000000000000000000000000000000000000000000009060a4015b60408051601f198184030181529181526020820180516001600160e01b03166001600160e01b0319909416939093179092529051612eb39190614cd9565b6000604051808303816000865af19150503d8060008114612ef0576040519150601f19603f3d011682016040523d82523d6000602084013e612ef5565b606091505b509150915081612f06576015612f1a565b80806020019051810190612f1a9190614d07565b60030b979650505050505050565b6000612f32613e3b565b604080516001600160a01b0386166024820152600785900b60448083019190915282518083039091018152606490910182526020810180516001600160e01b03167f287e1da8000000000000000000000000000000000000000000000000000000001790529051600091829161016791612fab91614cd9565b6000604051808303816000865af19150503d8060008114612fe8576040519150601f19603f3d011682016040523d82523d6000602084013e612fed565b606091505b5091509150612ffa613e3b565b8261300757601581612a3f565b81806020019051810190612a3f91906158b9565b60008060006101676001600160a01b031663f7f38e2660e01b878787604051602401613049939291906159a1565b60408051601f198184030181529181526020820180516001600160e01b03166001600160e01b03199094169390931790925290516130879190614cd9565b6000604051808303816000865af19150503d80600081146130c4576040519150601f19603f3d011682016040523d82523d6000602084013e6130c9565b606091505b5091509150816130da5760156130ee565b808060200190518101906130ee9190614d07565b60030b9695505050505050565b604080516001600160a01b0385811660248301528481166044830152831660648083019190915282518083039091018152608490910182526020810180516001600160e01b03167f927da1050000000000000000000000000000000000000000000000000000000017905290516000918291829182916101679161317e91614cd9565b6000604051808303816000865af19150503d80600081146131bb576040519150601f19603f3d011682016040523d82523d6000602084013e6131c0565b606091505b5091509150816131d35760156000612a3f565b80806020019051810190612a3f91906159cd565b604080516001600160a01b03831660248083019190915282518083039091018152604490910182526020810180516001600160e01b03167fae7611a000000000000000000000000000000000000000000000000000000000179052905160009160609182918291859182916101679161325f91614cd9565b6000604051808303816000865af19150503d806000811461329c576040519150601f19603f3d011682016040523d82523d6000602084013e6132a1565b606091505b50915091506060806060846132ba5760158383836132ce565b838060200190518101906132ce91906159f9565b60039390930b9d919c509a509098509650505050505050565b604080516001600160a01b03831660248083019190915282518083039091018152604490910182526020810180516001600160e01b03167f93272baf0000000000000000000000000000000000000000000000000000000017905290516000918291829182916101679161335a91614cd9565b6000604051808303816000865af19150503d8060008114613397576040519150601f19603f3d011682016040523d82523d6000602084013e61339c565b606091505b5091509150816133b0576015600019612c6d565b80806020019051810190612c6d9190615a92565b60006133ce613e76565b604080516001600160a01b03851660248083019190915282518083039091018152604490910182526020810180516001600160e01b03167f3f28a19b00000000000000000000000000000000000000000000000000000000179052905160009182916101679161343d91614cd9565b6000604051808303816000865af19150503d806000811461347a576040519150601f19603f3d011682016040523d82523d6000602084013e61347f565b606091505b509150915061348c613e76565b8261349957601581612049565b818060200190518101906120499190615abc565b6040516001600160a01b03838116602483015282166044820152600090819081908190610167907f46de0fb100000000000000000000000000000000000000000000000000000000906064016124ee565b6040516001600160a01b038581166024830152848116604483015283166064820152600782900b608482015260009081908190610167907f5cfc9011000000000000000000000000000000000000000000000000000000009060a401612e75565b6040516001600160a01b0383811660248301528216604482015260009081908190610167907f5b8f858400000000000000000000000000000000000000000000000000000000906064016112ea565b60008060606000806101676001600160a01b031663278e0b8860e01b8989896040516024016135df93929190615b68565b60408051601f198184030181529181526020820180516001600160e01b03166001600160e01b031990941693909317909252905161361d9190614cd9565b6000604051808303816000865af19150503d806000811461365a576040519150601f19603f3d011682016040523d82523d6000602084013e61365f565b606091505b509150915081613682576040805160008082526020820190925260159190613696565b808060200190518101906136969190615bec565b60039290920b9a90995090975095505050505050565b6040516001600160a01b0382166024820152600090819081908190610167907f335e04c10000000000000000000000000000000000000000000000000000000090604401612bc6565b600080868061010001516000015163ffffffff16600014801561372557506101008101516040015163ffffffff16155b1561373b576101008101516276a7006040909101525b6000806101676001600160a01b03163463b937581a60e01b8c8c8c8c8c60405160240161376c959493929190615c9d565b60408051601f198184030181529181526020820180516001600160e01b03166001600160e01b03199094169390931790925290516137aa9190614cd9565b60006040518083038185875af1925050503d80600081146137e7576040519150601f19603f3d011682016040523d82523d6000602084013e6137ec565b606091505b5091509150816137ff5760156000613813565b8080602001905181019061381391906151ef565b60039190910b9b909a5098505050505050505050565b6040516001600160a01b0382166024820152600090819081908190610167907f19f373610000000000000000000000000000000000000000000000000000000090604401612bc6565b60008060006101676001600160a01b031663189a554c60e01b85604051602401610c9a9190615d53565b6040516001600160a01b038216602482015260009081908190610167907ff069f7120000000000000000000000000000000000000000000000000000000090604401610c9a565b600080828061010001516000015163ffffffff16600014801561391357506101008101516040015163ffffffff16155b15613929576101008101516276a7006040909101525b6000806101676001600160a01b031634639c89bb3560e01b886040516024016139529190615e29565b60408051601f198184030181529181526020820180516001600160e01b03166001600160e01b03199094169390931790925290516139909190614cd9565b60006040518083038185875af1925050503d8060008114612b06576040519150601f19603f3d011682016040523d82523d6000602084013e612b0b565b6040516001600160a01b0384811660248301528316604482015263ffffffff8216606482015260009081908190610167907f9790686d0000000000000000000000000000000000000000000000000000000090608401613049565b6040516001600160a01b038481166024830152831660448201526064810182905260009081908190610167907f7336aaf00000000000000000000000000000000000000000000000000000000090608401613049565b6040516001600160a01b03848116602483015283166044820152811515606482015260009081908190610167907f367605ca0000000000000000000000000000000000000000000000000000000090608401613049565b6000613adf613e96565b604080516001600160a01b03851660248083019190915282518083039091018152604490910182526020810180516001600160e01b03167f1f69565f000000000000000000000000000000000000000000000000000000001790529051600091829161016791613b4e91614cd9565b6000604051808303816000865af19150503d8060008114613b8b576040519150601f19603f3d011682016040523d82523d6000602084013e613b90565b606091505b5091509150613b9d613e96565b82613baa57601581612049565b818060200190518101906120499190615e3c565b6040516001600160a01b0383811660248301528216604482015260009081908190610167907f49146bde00000000000000000000000000000000000000000000000000000000906064016112ea565b6040516001600160a01b038481166024830152831660448201526064810182905260009081908190610167907fe1f21c670000000000000000000000000000000000000000000000000000000090608401613049565b6000600160ff84161b9050600160ff83161b81176112b7565b613cc26040518060a0016040528060001515815260200160006001600160a01b03168152602001606081526020016060815260200160006001600160a01b031681525090565b8260ff1660011415613cd75760018152610a00565b8260ff1660021415613cf9576000546001600160a01b03166020820152610a00565b8260ff1660031415613d115760408101829052610a00565b8260ff1660041415613d295760608101829052610a00565b8260ff1660051415610a00576000546001600160a01b0316608082015292915050565b600060ff8216613d5e57506001919050565b8160ff1660011415613d7257506002919050565b8160ff1660021415613d8657506004919050565b8160ff1660031415613d9a57506008919050565b8160ff1660041415613dae57506010919050565b8160ff1660051415613dc257506020919050565b8160ff1660061415613dd657506040919050565b506000919050565b604051806040016040528060008152602001613e366040518060a0016040528060001515815260200160006001600160a01b03168152602001606081526020016060815260200160006001600160a01b031681525090565b905290565b6040518060c00160405280613e4e613e96565b8152600060208201819052604082018190526060808301829052608083015260a09091015290565b6040518060400160405280613e89613e96565b8152600060209091015290565b60408051610240810182526060610120820181815261014083018290526000610160840181905261018084018390526101a084018190526101c084018190526101e0840181905261020084018390528451928301855280835260208301819052938201939093526102208201529081908152602001600067ffffffffffffffff168152602001600015158152602001600015158152602001600015158152602001606081526020016060815260200160608152602001606081525090565b6001600160a01b0381168114613f6957600080fd5b50565b60008060408385031215613f7f57600080fd5b8235613f8a81613f54565b91506020830135613f9a81613f54565b809150509250929050565b600080600060608486031215613fba57600080fd5b8335613fc581613f54565b92506020840135613fd581613f54565b91506040840135613fe581613f54565b809150509250925092565b6000806040838503121561400357600080fd5b823561400e81613f54565b946020939093013593505050565b60006020828403121561402e57600080fd5b81356112b781613f54565b8060070b8114613f6957600080fd5b6000806000806080858703121561405e57600080fd5b843561406981613f54565b9350602085013561407981613f54565b9250604085013561408981613f54565b9150606085013561409981614039565b939692955090935050565b600080604083850312156140b757600080fd5b82356140c281613f54565b91506020830135613f9a81614039565b60005b838110156140ed5781810151838201526020016140d5565b838111156140fc576000848401525b50505050565b6000815180845261411a8160208601602086016140d2565b601f01601f19169290920160200192915050565b600081518084526020808501808196508360051b8101915082860160005b858110156141e55782840389528151604081518652868201519150808787015281511515818701528682015160606001600160a01b03808316828a015283850151935060a09250608083818b01526141a760e08b0186614102565b928601518a8403603f1901858c01529294506141c38584614102565b9501511660c0989098019790975250509885019893509084019060010161414c565b5091979650505050505050565b6000610160825181855261420882860182614102565b915050602083015184820360208601526142228282614102565b915050604083015161423f60408601826001600160a01b03169052565b50606083015184820360608601526142578282614102565b915050608083015161426d608086018215159052565b5060a083015161428260a086018260070b9052565b5060c083015161429660c086018215159052565b5060e083015184820360e08601526142ae828261412e565b61010085810151805163ffffffff9081168984015260208201516001600160a01b03166101208a015260408201511661014089015291935091505090949350505050565b600081518084526020808501945080840160005b83811015614362578151805163ffffffff168852838101516001600160a01b03908116858a01526040808301511515908a01526060808301511515908a0152608091820151169088015260a09096019590820190600101614306565b509495945050505050565b600081518084526020808501945080840160005b83811015614362578151805163ffffffff9081168952848201518116858a01526040808301518216908a01526060808301519091169089015260808082015115159089015260a0908101516001600160a01b03169088015260c09096019590820190600101614381565b600081518084526020808501945080840160005b83811015614362578151805163ffffffff9081168952848201518116858a0152604080830151909116908901526060808201516001600160a01b03908116918a01919091526080808301511515908a015260a091820151169088015260c090960195908201906001016143ff565b60006101208251818552614483828601826141f2565b91505060208301516144a1602086018267ffffffffffffffff169052565b5060408301516144b5604086018215159052565b5060608301516144c9606086018215159052565b5060808301516144dd608086018215159052565b5060a083015184820360a08601526144f582826142f2565b91505060c083015184820360c086015261450f828261436d565b91505060e083015184820360e086015261452982826143eb565b91505061010080840151858303828701526145448382614102565b9695505050505050565b6000815160c0845261456360c085018261446d565b9050602083015160070b602085015260408301516001600160a01b038082166040870152606085015160070b60608701526080850151915085830360808701526145ad8383614102565b92508060a08601511660a087015250508091505092915050565b8281526040602082015260006111f6604083018461454e565b634e487b7160e01b600052604160045260246000fd5b6040516060810167ffffffffffffffff81118282101715614619576146196145e0565b60405290565b6040805190810167ffffffffffffffff81118282101715614619576146196145e0565b60405160a0810167ffffffffffffffff81118282101715614619576146196145e0565b604051610120810167ffffffffffffffff81118282101715614619576146196145e0565b60405160c0810167ffffffffffffffff81118282101715614619576146196145e0565b604051601f8201601f1916810167ffffffffffffffff811182821017156146d5576146d56145e0565b604052919050565b600067ffffffffffffffff8211156146f7576146f76145e0565b5060051b60200190565b60008060006060848603121561471657600080fd5b833561472181613f54565b925060208481013561473281613f54565b9250604085013567ffffffffffffffff81111561474e57600080fd5b8501601f8101871361475f57600080fd5b803561477261476d826146dd565b6146ac565b81815260059190911b8201830190838101908983111561479157600080fd5b928401925b828410156147b85783356147a981614039565b82529284019290840190614796565b80955050505050509250925092565b63ffffffff81168114613f6957600080fd5b60008082840360808112156147ed57600080fd5b83356147f881613f54565b92506060601f198201121561480c57600080fd5b506148156145f6565b6020840135614823816147c7565b8152604084013561483381613f54565b60208201526060840135614846816147c7565b6040820152919491935090915050565b8460070b815260806020820152600061487260808301866142f2565b8281036040840152614884818661436d565b9050828103606084015261489881856143eb565b979650505050505050565b60008151604084526148b8604085018261446d565b60209384015163ffffffff16949093019390935250919050565b8281526040602082015260006111f660408301846148a3565b67ffffffffffffffff81168114613f6957600080fd5b600067ffffffffffffffff82111561491b5761491b6145e0565b50601f01601f191660200190565b60008060006060848603121561493e57600080fd5b833561494981613f54565b925060208481013561495a816148eb565b925060408581013567ffffffffffffffff8082111561497857600080fd5b818801915088601f83011261498c57600080fd5b813561499a61476d826146dd565b81815260059190911b8301850190858101908b8311156149b957600080fd5b8685015b83811015614a2d578035858111156149d55760008081fd5b8601603f81018e136149e75760008081fd5b888101356149f761476d82614901565b8181528f8a838501011115614a0c5760008081fd5b818a84018c83013760009181018b01919091528452509187019187016149bd565b50809750505050505050509250925092565b600081518084526020808501945080840160005b8381101561436257815160070b87529582019590820190600101614a53565b83815267ffffffffffffffff83166020820152606060408201526000614a9b6060830184614a3f565b95945050505050565b60008060208385031215614ab757600080fd5b823567ffffffffffffffff80821115614acf57600080fd5b818501915085601f830112614ae357600080fd5b813581811115614af257600080fd5b8660208260051b8501011115614b0757600080fd5b60209290920196919550909350505050565b828152608081016112b76020830184805163ffffffff90811683526020808301516001600160a01b03169084015260409182015116910152565b600080600060608486031215614b6857600080fd5b8335614b7381613f54565b92506020840135614b8381613f54565b91506040840135613fe5816147c7565b600080600060608486031215614ba857600080fd5b8335614bb381613f54565b92506020840135614bc381613f54565b929592945050506040919091013590565b8015158114613f6957600080fd5b600080600060608486031215614bf757600080fd5b8335614c0281613f54565b92506020840135614c1281613f54565b91506040840135613fe581614bd4565b8281526040602082015260006111f6604083018461446d565b600060208284031215614c4d57600080fd5b81356112b781614bd4565b600080600060608486031215614c6d57600080fd5b8335614c7881613f54565b92506020840135614c8881613f54565b91506040840135613fe581614039565b8051611d2d81614039565b600060208284031215614cb557600080fd5b81516112b781614039565b600060208284031215614cd257600080fd5b5051919050565b60008251614ceb8184602087016140d2565b9190910192915050565b8051600381900b8114611d2d57600080fd5b600060208284031215614d1957600080fd5b6112b782614cf5565b634e487b7160e01b600052603260045260246000fd5b600181811c90821680614d4c57607f821691505b60208210811415614d6d57634e487b7160e01b600052602260045260246000fd5b50919050565b6020815260006112b7602083018461454e565b6001600160a01b0383168152608081016112b76020830184805163ffffffff90811683526020808301516001600160a01b03169084015260409182015116910152565b606081526000614ddc60608301866142f2565b8281036020840152614dee818661436d565b9050828103604084015261454481856143eb565b6020815260006112b760208301846148a3565b67ffffffffffffffff831681526040602082015260006111f66040830184614a3f565b600082601f830112614e4957600080fd5b81356020614e5961476d836146dd565b82815260609283028501820192828201919087851115614e7857600080fd5b8387015b85811015614eda5781818a031215614e945760008081fd5b614e9c6145f6565b8135614ea781613f54565b815281860135614eb681613f54565b81870152604082810135614ec981614039565b908201528452928401928101614e7c565b5090979650505050505050565b6000614ef561476d846146dd565b80848252602080830192508560051b850136811115614f1357600080fd5b855b8181101561504857803567ffffffffffffffff80821115614f365760008081fd5b818901915060608236031215614f4c5760008081fd5b614f546145f6565b8235614f5f81613f54565b81528286013582811115614f735760008081fd5b830136601f820112614f855760008081fd5b8035614f9361476d826146dd565b81815260069190911b82018801908881019036831115614fb35760008081fd5b928901925b828410156150095760408436031215614fd15760008081fd5b614fd961461f565b8435614fe481613f54565b8152848b0135614ff381614039565b818c015282526040939093019290890190614fb8565b848a015250604091505083810135838111156150255760008081fd5b61503136828701614e38565b918301919091525087525050938201938201614f15565b50919695505050505050565b8051611d2d81614bd4565b6000806040838503121561507257600080fd5b825161507d81614039565b6020840151909250613f9a81614bd4565b8051611d2d81613f54565b6000606082840312156150ab57600080fd5b6150b36145f6565b905081516150c0816147c7565b815260208201516150d081613f54565b602082015260408201516150e3816147c7565b604082015292915050565b6000806080838503121561510157600080fd5b825191506151128460208501615099565b90509250929050565b60608101610a008284805163ffffffff90811683526020808301516001600160a01b03169084015260409182015116910152565b6000806080838503121561516257600080fd5b61516b83614cf5565b91506151128460208501615099565b6000806040838503121561518d57600080fd5b61519683614cf5565b91506020830151613f9a81614bd4565b6020815260006112b7602083018461446d565b60008160070b677fffffffffffffff198114156151e657634e487b7160e01b600052601160045260246000fd5b60000392915050565b6000806040838503121561520257600080fd5b61520b83614cf5565b91506020830151613f9a81613f54565b60608152600061522e60608301866141f2565b905067ffffffffffffffff8416602083015263ffffffff83166040830152949350505050565b600082601f83011261526557600080fd5b815161527361476d82614901565b81815284602083860101111561528857600080fd5b6111f68260208301602087016140d2565b600082601f8301126152aa57600080fd5b815160206152ba61476d836146dd565b82815260059290921b840181019181810190868411156152d957600080fd5b8286015b848110156153ef57805167ffffffffffffffff808211156152fd57600080fd5b908801906040601f19838c03810182131561531757600080fd5b61531f61461f565b888501518152828501518481111561533657600080fd5b949094019360a0858e038301121561534e5760008081fd5b615356614642565b91508885015161536581614bd4565b82528483015161537481613f54565b828a01526060858101518581111561538c5760008081fd5b61539a8f8c838a0101615254565b85850152506080935083860151858111156153b55760008081fd5b6153c38f8c838a0101615254565b8285015250506153d560a0860161508e565b9282019290925281880152855250509183019183016152dd565b509695505050505050565b6000610160828403121561540d57600080fd5b615415614665565b9050815167ffffffffffffffff8082111561542f57600080fd5b61543b85838601615254565b8352602084015191508082111561545157600080fd5b61545d85838601615254565b602084015261546e6040850161508e565b6040840152606084015191508082111561548757600080fd5b61549385838601615254565b60608401526154a460808501615054565b60808401526154b560a08501614c98565b60a08401526154c660c08501615054565b60c084015260e08401519150808211156154df57600080fd5b506154ec84828501615299565b60e08301525061010061550184828501615099565b9082015292915050565b8051611d2d816148eb565b600082601f83011261552757600080fd5b8151602061553761476d836146dd565b82815260a0928302850182019282820191908785111561555657600080fd5b8387015b85811015614eda5781818a0312156155725760008081fd5b61557a614642565b8151615585816147c7565b81528186015161559481613f54565b818701526040828101516155a781614bd4565b908201526060828101516155ba81614bd4565b908201526080828101516155cd81613f54565b90820152845292840192810161555a565b600082601f8301126155ef57600080fd5b815160206155ff61476d836146dd565b82815260c0928302850182019282820191908785111561561e57600080fd5b8387015b85811015614eda5781818a03121561563a5760008081fd5b615642614689565b815161564d816147c7565b81528186015161565c816147c7565b8187015260408281015161566f816147c7565b90820152606082810151615682816147c7565b9082015260808281015161569581614bd4565b9082015260a0828101516156a881613f54565b908201528452928401928101615622565b600082601f8301126156ca57600080fd5b815160206156da61476d836146dd565b82815260c092830285018201928282019190878511156156f957600080fd5b8387015b85811015614eda5781818a0312156157155760008081fd5b61571d614689565b8151615728816147c7565b815281860151615737816147c7565b8187015260408281015161574a816147c7565b9082015260608281015161575d81613f54565b9082015260808281015161577081614bd4565b9082015260a08281015161578381613f54565b9082015284529284019281016156fd565b600061012082840312156157a757600080fd5b6157af614665565b9050815167ffffffffffffffff808211156157c957600080fd5b6157d5858386016153fa565b83526157e36020850161550b565b60208401526157f460408501615054565b604084015261580560608501615054565b606084015261581660808501615054565b608084015260a084015191508082111561582f57600080fd5b61583b85838601615516565b60a084015260c084015191508082111561585457600080fd5b615860858386016155de565b60c084015260e084015191508082111561587957600080fd5b615885858386016156b9565b60e0840152610100915081840151818111156158a057600080fd5b6158ac86828701615254565b8385015250505092915050565b600080604083850312156158cc57600080fd5b6158d583614cf5565b9150602083015167ffffffffffffffff808211156158f257600080fd5b9084019060c0828703121561590657600080fd5b61590e614689565b82518281111561591d57600080fd5b61592988828601615794565b82525061593860208401614c98565b60208201526159496040840161508e565b604082015261595a60608401614c98565b606082015260808301518281111561597157600080fd5b61597d88828601615254565b60808301525061598f60a0840161508e565b60a08201528093505050509250929050565b60006001600160a01b03808616835280851660208401525060606040830152614a9b6060830184614a3f565b600080604083850312156159e057600080fd5b6159e983614cf5565b9150602083015190509250929050565b60008060008060808587031215615a0f57600080fd5b615a1885614cf5565b9350602085015167ffffffffffffffff80821115615a3557600080fd5b615a4188838901615516565b94506040870151915080821115615a5757600080fd5b615a63888389016155de565b93506060870151915080821115615a7957600080fd5b50615a86878288016156b9565b91505092959194509250565b60008060408385031215615aa557600080fd5b615aae83614cf5565b915061511260208401614cf5565b60008060408385031215615acf57600080fd5b615ad883614cf5565b9150602083015167ffffffffffffffff80821115615af557600080fd5b9084019060408287031215615b0957600080fd5b604051604081018181108382111715615b2457615b246145e0565b604052825182811115615b3657600080fd5b615b4288828601615794565b82525060208301519250615b55836147c7565b8260208201528093505050509250929050565b6000606082016001600160a01b0386168352602067ffffffffffffffff8616818501526060604085015281855180845260808601915060808160051b870101935082870160005b82811015615bdd57607f19888703018452615bcb868351614102565b95509284019290840190600101615baf565b50939998505050505050505050565b600080600060608486031215615c0157600080fd5b615c0a84614cf5565b9250602080850151615c1b816148eb565b604086015190935067ffffffffffffffff811115615c3857600080fd5b8501601f81018713615c4957600080fd5b8051615c5761476d826146dd565b81815260059190911b82018301908381019089831115615c7657600080fd5b928401925b828410156147b8578351615c8e81614039565b82529284019290840190615c7b565b60a081526000615cb060a08301886141f2565b67ffffffffffffffff8716602084015263ffffffff861660408401528281036060840152615cde81866142f2565b90508281036080840152615cf2818561436d565b98975050505050505050565b600081518084526020808501945080840160005b8381101561436257815180516001600160a01b03908116895284820151168489015260409081015160070b9088015260609096019590820190600101615d12565b60006020808301818452808551808352604092508286019150828160051b8701018488016000805b84811015615e1a57898403603f19018652825180516001600160a01b0390811686528982015160608b880181905281519088018190526080880192918c01919086905b80821015615dec5783518051841686528e015160070b8e860152938c0193928d019260019190910190615dbe565b5050505090880151858203868a015290615e068183615cfe565b978a01979550505091870191600101615d7b565b50919998505050505050505050565b6020815260006112b760208301846141f2565b60008060408385031215615e4f57600080fd5b615e5883614cf5565b9150602083015167ffffffffffffffff811115615e7457600080fd5b615e8085828601615794565b915050925092905056fe90a5cf4cffe88b4edbb041cfc7a8a812c48a5ec30b84640fb37690875168e3aaa26469706673582212205223da62cb0f45615d2d96125a4fd330176a9b50df38913dfda2628a89fb9d7964736f6c63430008090033",
  "linkReferences": {},
  "deployedLinkReferences": {}
}