{
  "_format": "hh-sol-artifact-1",
  "contractName": "BaseHTS",
  "sourceName": "contracts/BaseHTS.sol",
  "abi": [
    {
      "anonymous": false,
      "inputs": [
        {
          "indexed": false,
          "internalType": "uint256",
          "name": "amount",
          "type": "uint256"
        }
      ],
      "name": "AllowanceValue",
      "type": "event"
    },
    {
      "anonymous": false,
      "inputs": [
        {
          "indexed": false,
          "internalType": "bool",
          "name": "approved",
          "type": "bool"
        }
      ],
      "name": "Approved",
      "type": "event"
    },
    {
      "anonymous": false,
      "inputs": [
        {
          "indexed": false,
          "internalType": "address",
          "name": "approved",
          "type": "address"
        }
      ],
      "name": "ApprovedAddress",
      "type": "event"
    },
    {
      "anonymous": false,
      "inputs": [
        {
          "indexed": false,
          "internalType": "address",
          "name": "tokenAddress",
          "type": "address"
        }
      ],
      "name": "CreatedToken",
      "type": "event"
    },
    {
      "anonymous": false,
      "inputs": [
        {
          "indexed": false,
          "internalType": "bool",
          "name": "freezeStatus",
          "type": "bool"
        }
      ],
      "name": "DefaultFreezeStatusChanged",
      "type": "event"
    },
    {
      "anonymous": false,
      "inputs": [
        {
          "indexed": false,
          "internalType": "bool",
          "name": "frozen",
          "type": "bool"
        }
      ],
      "name": "Frozen",
      "type": "event"
    },
    {
      "anonymous": false,
      "inputs": [
        {
          "components": [
            {
              "components": [
                {
                  "components": [
                    {
                      "internalType": "string",
                      "name": "name",
                      "type": "string"
                    },
                    {
                      "internalType": "string",
                      "name": "symbol",
                      "type": "string"
                    },
                    {
                      "internalType": "address",
                      "name": "treasury",
                      "type": "address"
                    },
                    {
                      "internalType": "string",
                      "name": "memo",
                      "type": "string"
                    },
                    {
                      "internalType": "bool",
                      "name": "tokenSupplyType",
                      "type": "bool"
                    },
                    {
                      "internalType": "int64",
                      "name": "maxSupply",
                      "type": "int64"
                    },
                    {
                      "internalType": "bool",
                      "name": "freezeDefault",
                      "type": "bool"
                    },
                    {
                      "components": [
                        {
                          "internalType": "uint256",
                          "name": "keyType",
                          "type": "uint256"
                        },
                        {
                          "components": [
                            {
                              "internalType": "bool",
                              "name": "inheritAccountKey",
                              "type": "bool"
                            },
                            {
                              "internalType": "address",
                              "name": "contractId",
                              "type": "address"
                            },
                            {
                              "internalType": "bytes",
                              "name": "ed25519",
                              "type": "bytes"
                            },
                            {
                              "internalType": "bytes",
                              "name": "ECDSA_secp256k1",
                              "type": "bytes"
                            },
                            {
                              "internalType": "address",
                              "name": "delegatableContractId",
                              "type": "address"
                            }
                          ],
                          "internalType": "struct IHederaTokenService.KeyValue",
                          "name": "key",
                          "type": "tuple"
                        }
                      ],
                      "internalType": "struct IHederaTokenService.TokenKey[]",
                      "name": "tokenKeys",
                      "type": "tuple[]"
                    },
                    {
                      "components": [
                        {
                          "internalType": "uint32",
                          "name": "second",
                          "type": "uint32"
                        },
                        {
                          "internalType": "address",
                          "name": "autoRenewAccount",
                          "type": "address"
                        },
                        {
                          "internalType": "uint32",
                          "name": "autoRenewPeriod",
                          "type": "uint32"
                        }
                      ],
                      "internalType": "struct IHederaTokenService.Expiry",
                      "name": "expiry",
                      "type": "tuple"
                    }
                  ],
                  "internalType": "struct IHederaTokenService.HederaToken",
                  "name": "token",
                  "type": "tuple"
                },
                {
                  "internalType": "uint64",
                  "name": "totalSupply",
                  "type": "uint64"
                },
                {
                  "internalType": "bool",
                  "name": "deleted",
                  "type": "bool"
                },
                {
                  "internalType": "bool",
                  "name": "defaultKycStatus",
                  "type": "bool"
                },
                {
                  "internalType": "bool",
                  "name": "pauseStatus",
                  "type": "bool"
                },
                {
                  "components": [
                    {
                      "internalType": "uint32",
                      "name": "amount",
                      "type": "uint32"
                    },
                    {
                      "internalType": "address",
                      "name": "tokenId",
                      "type": "address"
                    },
                    {
                      "internalType": "bool",
                      "name": "useHbarsForPayment",
                      "type": "bool"
                    },
                    {
                      "internalType": "bool",
                      "name": "useCurrentTokenForPayment",
                      "type": "bool"
                    },
                    {
                      "internalType": "address",
                      "name": "feeCollector",
                      "type": "address"
                    }
                  ],
                  "internalType": "struct IHederaTokenService.FixedFee[]",
                  "name": "fixedFees",
                  "type": "tuple[]"
                },
                {
                  "components": [
                    {
                      "internalType": "uint32",
                      "name": "numerator",
                      "type": "uint32"
                    },
                    {
                      "internalType": "uint32",
                      "name": "denominator",
                      "type": "uint32"
                    },
                    {
                      "internalType": "uint32",
                      "name": "minimumAmount",
                      "type": "uint32"
                    },
                    {
                      "internalType": "uint32",
                      "name": "maximumAmount",
                      "type": "uint32"
                    },
                    {
                      "internalType": "bool",
                      "name": "netOfTransfers",
                      "type": "bool"
                    },
                    {
                      "internalType": "address",
                      "name": "feeCollector",
                      "type": "address"
                    }
                  ],
                  "internalType": "struct IHederaTokenService.FractionalFee[]",
                  "name": "fractionalFees",
                  "type": "tuple[]"
                },
                {
                  "components": [
                    {
                      "internalType": "uint32",
                      "name": "numerator",
                      "type": "uint32"
                    },
                    {
                      "internalType": "uint32",
                      "name": "denominator",
                      "type": "uint32"
                    },
                    {
                      "internalType": "uint32",
                      "name": "amount",
                      "type": "uint32"
                    },
                    {
                      "internalType": "address",
                      "name": "tokenId",
                      "type": "address"
                    },
                    {
                      "internalType": "bool",
                      "name": "useHbarsForPayment",
                      "type": "bool"
                    },
                    {
                      "internalType": "address",
                      "name": "feeCollector",
                      "type": "address"
                    }
                  ],
                  "internalType": "struct IHederaTokenService.RoyaltyFee[]",
                  "name": "royaltyFees",
                  "type": "tuple[]"
                },
                {
                  "internalType": "string",
                  "name": "ledgerId",
                  "type": "string"
                }
              ],
              "internalType": "struct IHederaTokenService.TokenInfo",
              "name": "tokenInfo",
              "type": "tuple"
            },
            {
              "internalType": "uint32",
              "name": "decimals",
              "type": "uint32"
            }
          ],
          "indexed": false,
          "internalType": "struct IHederaTokenService.FungibleTokenInfo",
          "name": "tokenInfo",
          "type": "tuple"
        }
      ],
      "name": "FungibleTokenInfo",
      "type": "event"
    },
    {
      "anonymous": false,
      "inputs": [
        {
          "indexed": false,
          "internalType": "bool",
          "name": "isToken",
          "type": "bool"
        }
      ],
      "name": "IsToken",
      "type": "event"
    },
    {
      "anonymous": false,
      "inputs": [
        {
          "indexed": false,
          "internalType": "bool",
          "name": "kycGranted",
          "type": "bool"
        }
      ],
      "name": "KycGranted",
      "type": "event"
    },
    {
      "anonymous": false,
      "inputs": [
        {
          "indexed": false,
          "internalType": "uint64",
          "name": "newTotalSupply",
          "type": "uint64"
        },
        {
          "indexed": false,
          "internalType": "int64[]",
          "name": "serialNumbers",
          "type": "int64[]"
        }
      ],
      "name": "MintedToken",
      "type": "event"
    },
    {
      "anonymous": false,
      "inputs": [
        {
          "components": [
            {
              "components": [
                {
                  "components": [
                    {
                      "internalType": "string",
                      "name": "name",
                      "type": "string"
                    },
                    {
                      "internalType": "string",
                      "name": "symbol",
                      "type": "string"
                    },
                    {
                      "internalType": "address",
                      "name": "treasury",
                      "type": "address"
                    },
                    {
                      "internalType": "string",
                      "name": "memo",
                      "type": "string"
                    },
                    {
                      "internalType": "bool",
                      "name": "tokenSupplyType",
                      "type": "bool"
                    },
                    {
                      "internalType": "int64",
                      "name": "maxSupply",
                      "type": "int64"
                    },
                    {
                      "internalType": "bool",
                      "name": "freezeDefault",
                      "type": "bool"
                    },
                    {
                      "components": [
                        {
                          "internalType": "uint256",
                          "name": "keyType",
                          "type": "uint256"
                        },
                        {
                          "components": [
                            {
                              "internalType": "bool",
                              "name": "inheritAccountKey",
                              "type": "bool"
                            },
                            {
                              "internalType": "address",
                              "name": "contractId",
                              "type": "address"
                            },
                            {
                              "internalType": "bytes",
                              "name": "ed25519",
                              "type": "bytes"
                            },
                            {
                              "internalType": "bytes",
                              "name": "ECDSA_secp256k1",
                              "type": "bytes"
                            },
                            {
                              "internalType": "address",
                              "name": "delegatableContractId",
                              "type": "address"
                            }
                          ],
                          "internalType": "struct IHederaTokenService.KeyValue",
                          "name": "key",
                          "type": "tuple"
                        }
                      ],
                      "internalType": "struct IHederaTokenService.TokenKey[]",
                      "name": "tokenKeys",
                      "type": "tuple[]"
                    },
                    {
                      "components": [
                        {
                          "internalType": "uint32",
                          "name": "second",
                          "type": "uint32"
                        },
                        {
                          "internalType": "address",
                          "name": "autoRenewAccount",
                          "type": "address"
                        },
                        {
                          "internalType": "uint32",
                          "name": "autoRenewPeriod",
                          "type": "uint32"
                        }
                      ],
                      "internalType": "struct IHederaTokenService.Expiry",
                      "name": "expiry",
                      "type": "tuple"
                    }
                  ],
                  "internalType": "struct IHederaTokenService.HederaToken",
                  "name": "token",
                  "type": "tuple"
                },
                {
                  "internalType": "uint64",
                  "name": "totalSupply",
                  "type": "uint64"
                },
                {
                  "internalType": "bool",
                  "name": "deleted",
                  "type": "bool"
                },
                {
                  "internalType": "bool",
                  "name": "defaultKycStatus",
                  "type": "bool"
                },
                {
                  "internalType": "bool",
                  "name": "pauseStatus",
                  "type": "bool"
                },
                {
                  "components": [
                    {
                      "internalType": "uint32",
                      "name": "amount",
                      "type": "uint32"
                    },
                    {
                      "internalType": "address",
                      "name": "tokenId",
                      "type": "address"
                    },
                    {
                      "internalType": "bool",
                      "name": "useHbarsForPayment",
                      "type": "bool"
                    },
                    {
                      "internalType": "bool",
                      "name": "useCurrentTokenForPayment",
                      "type": "bool"
                    },
                    {
                      "internalType": "address",
                      "name": "feeCollector",
                      "type": "address"
                    }
                  ],
                  "internalType": "struct IHederaTokenService.FixedFee[]",
                  "name": "fixedFees",
                  "type": "tuple[]"
                },
                {
                  "components": [
                    {
                      "internalType": "uint32",
                      "name": "numerator",
                      "type": "uint32"
                    },
                    {
                      "internalType": "uint32",
                      "name": "denominator",
                      "type": "uint32"
                    },
                    {
                      "internalType": "uint32",
                      "name": "minimumAmount",
                      "type": "uint32"
                    },
                    {
                      "internalType": "uint32",
                      "name": "maximumAmount",
                      "type": "uint32"
                    },
                    {
                      "internalType": "bool",
                      "name": "netOfTransfers",
                      "type": "bool"
                    },
                    {
                      "internalType": "address",
                      "name": "feeCollector",
                      "type": "address"
                    }
                  ],
                  "internalType": "struct IHederaTokenService.FractionalFee[]",
                  "name": "fractionalFees",
                  "type": "tuple[]"
                },
                {
                  "components": [
                    {
                      "internalType": "uint32",
                      "name": "numerator",
                      "type": "uint32"
                    },
                    {
                      "internalType": "uint32",
                      "name": "denominator",
                      "type": "uint32"
                    },
                    {
                      "internalType": "uint32",
                      "name": "amount",
                      "type": "uint32"
                    },
                    {
                      "internalType": "address",
                      "name": "tokenId",
                      "type": "address"
                    },
                    {
                      "internalType": "bool",
                      "name": "useHbarsForPayment",
                      "type": "bool"
                    },
                    {
                      "internalType": "address",
                      "name": "feeCollector",
                      "type": "address"
                    }
                  ],
                  "internalType": "struct IHederaTokenService.RoyaltyFee[]",
                  "name": "royaltyFees",
                  "type": "tuple[]"
                },
                {
                  "internalType": "string",
                  "name": "ledgerId",
                  "type": "string"
                }
              ],
              "internalType": "struct IHederaTokenService.TokenInfo",
              "name": "tokenInfo",
              "type": "tuple"
            },
            {
              "internalType": "int64",
              "name": "serialNumber",
              "type": "int64"
            },
            {
              "internalType": "address",
              "name": "ownerId",
              "type": "address"
            },
            {
              "internalType": "int64",
              "name": "creationTime",
              "type": "int64"
            },
            {
              "internalType": "bytes",
              "name": "metadata",
              "type": "bytes"
            },
            {
              "internalType": "address",
              "name": "spenderId",
              "type": "address"
            }
          ],
          "indexed": false,
          "internalType": "struct IHederaTokenService.NonFungibleTokenInfo",
          "name": "tokenInfo",
          "type": "tuple"
        }
      ],
      "name": "NonFungibleTokenInfo",
      "type": "event"
    },
    {
      "anonymous": false,
      "inputs": [
        {
          "indexed": false,
          "internalType": "bool",
          "name": "paused",
          "type": "bool"
        }
      ],
      "name": "PausedToken",
      "type": "event"
    },
    {
      "anonymous": false,
      "inputs": [
        {
          "indexed": false,
          "internalType": "int256",
          "name": "responseCode",
          "type": "int256"
        }
      ],
      "name": "ResponseCode",
      "type": "event"
    },
    {
      "anonymous": false,
      "inputs": [
        {
          "components": [
            {
              "internalType": "uint32",
              "name": "amount",
              "type": "uint32"
            },
            {
              "internalType": "address",
              "name": "tokenId",
              "type": "address"
            },
            {
              "internalType": "bool",
              "name": "useHbarsForPayment",
              "type": "bool"
            },
            {
              "internalType": "bool",
              "name": "useCurrentTokenForPayment",
              "type": "bool"
            },
            {
              "internalType": "address",
              "name": "feeCollector",
              "type": "address"
            }
          ],
          "indexed": false,
          "internalType": "struct IHederaTokenService.FixedFee[]",
          "name": "fixedFees",
          "type": "tuple[]"
        },
        {
          "components": [
            {
              "internalType": "uint32",
              "name": "numerator",
              "type": "uint32"
            },
            {
              "internalType": "uint32",
              "name": "denominator",
              "type": "uint32"
            },
            {
              "internalType": "uint32",
              "name": "minimumAmount",
              "type": "uint32"
            },
            {
              "internalType": "uint32",
              "name": "maximumAmount",
              "type": "uint32"
            },
            {
              "internalType": "bool",
              "name": "netOfTransfers",
              "type": "bool"
            },
            {
              "internalType": "address",
              "name": "feeCollector",
              "type": "address"
            }
          ],
          "indexed": false,
          "internalType": "struct IHederaTokenService.FractionalFee[]",
          "name": "fractionalFees",
          "type": "tuple[]"
        },
        {
          "components": [
            {
              "internalType": "uint32",
              "name": "numerator",
              "type": "uint32"
            },
            {
              "internalType": "uint32",
              "name": "denominator",
              "type": "uint32"
            },
            {
              "internalType": "uint32",
              "name": "amount",
              "type": "uint32"
            },
            {
              "internalType": "address",
              "name": "tokenId",
              "type": "address"
            },
            {
              "internalType": "bool",
              "name": "useHbarsForPayment",
              "type": "bool"
            },
            {
              "internalType": "address",
              "name": "feeCollector",
              "type": "address"
            }
          ],
          "indexed": false,
          "internalType": "struct IHederaTokenService.RoyaltyFee[]",
          "name": "royaltyFees",
          "type": "tuple[]"
        }
      ],
      "name": "TokenCustomFees",
      "type": "event"
    },
    {
      "anonymous": false,
      "inputs": [
        {
          "indexed": false,
          "internalType": "bool",
          "name": "defaultFreezeStatus",
          "type": "bool"
        }
      ],
      "name": "TokenDefaultFreezeStatus",
      "type": "event"
    },
    {
      "anonymous": false,
      "inputs": [
        {
          "indexed": false,
          "internalType": "bool",
          "name": "defaultKycStatus",
          "type": "bool"
        }
      ],
      "name": "TokenDefaultKycStatus",
      "type": "event"
    },
    {
      "anonymous": false,
      "inputs": [
        {
          "components": [
            {
              "internalType": "uint32",
              "name": "second",
              "type": "uint32"
            },
            {
              "internalType": "address",
              "name": "autoRenewAccount",
              "type": "address"
            },
            {
              "internalType": "uint32",
              "name": "autoRenewPeriod",
              "type": "uint32"
            }
          ],
          "indexed": false,
          "internalType": "struct IHederaTokenService.Expiry",
          "name": "expiryInfo",
          "type": "tuple"
        }
      ],
      "name": "TokenExpiryInfo",
      "type": "event"
    },
    {
      "anonymous": false,
      "inputs": [
        {
          "components": [
            {
              "components": [
                {
                  "internalType": "string",
                  "name": "name",
                  "type": "string"
                },
                {
                  "internalType": "string",
                  "name": "symbol",
                  "type": "string"
                },
                {
                  "internalType": "address",
                  "name": "treasury",
                  "type": "address"
                },
                {
                  "internalType": "string",
                  "name": "memo",
                  "type": "string"
                },
                {
                  "internalType": "bool",
                  "name": "tokenSupplyType",
                  "type": "bool"
                },
                {
                  "internalType": "int64",
                  "name": "maxSupply",
                  "type": "int64"
                },
                {
                  "internalType": "bool",
                  "name": "freezeDefault",
                  "type": "bool"
                },
                {
                  "components": [
                    {
                      "internalType": "uint256",
                      "name": "keyType",
                      "type": "uint256"
                    },
                    {
                      "components": [
                        {
                          "internalType": "bool",
                          "name": "inheritAccountKey",
                          "type": "bool"
                        },
                        {
                          "internalType": "address",
                          "name": "contractId",
                          "type": "address"
                        },
                        {
                          "internalType": "bytes",
                          "name": "ed25519",
                          "type": "bytes"
                        },
                        {
                          "internalType": "bytes",
                          "name": "ECDSA_secp256k1",
                          "type": "bytes"
                        },
                        {
                          "internalType": "address",
                          "name": "delegatableContractId",
                          "type": "address"
                        }
                      ],
                      "internalType": "struct IHederaTokenService.KeyValue",
                      "name": "key",
                      "type": "tuple"
                    }
                  ],
                  "internalType": "struct IHederaTokenService.TokenKey[]",
                  "name": "tokenKeys",
                  "type": "tuple[]"
                },
                {
                  "components": [
                    {
                      "internalType": "uint32",
                      "name": "second",
                      "type": "uint32"
                    },
                    {
                      "internalType": "address",
                      "name": "autoRenewAccount",
                      "type": "address"
                    },
                    {
                      "internalType": "uint32",
                      "name": "autoRenewPeriod",
                      "type": "uint32"
                    }
                  ],
                  "internalType": "struct IHederaTokenService.Expiry",
                  "name": "expiry",
                  "type": "tuple"
                }
              ],
              "internalType": "struct IHederaTokenService.HederaToken",
              "name": "token",
              "type": "tuple"
            },
            {
              "internalType": "uint64",
              "name": "totalSupply",
              "type": "uint64"
            },
            {
              "internalType": "bool",
              "name": "deleted",
              "type": "bool"
            },
            {
              "internalType": "bool",
              "name": "defaultKycStatus",
              "type": "bool"
            },
            {
              "internalType": "bool",
              "name": "pauseStatus",
              "type": "bool"
            },
            {
              "components": [
                {
                  "internalType": "uint32",
                  "name": "amount",
                  "type": "uint32"
                },
                {
                  "internalType": "address",
                  "name": "tokenId",
                  "type": "address"
                },
                {
                  "internalType": "bool",
                  "name": "useHbarsForPayment",
                  "type": "bool"
                },
                {
                  "internalType": "bool",
                  "name": "useCurrentTokenForPayment",
                  "type": "bool"
                },
                {
                  "internalType": "address",
                  "name": "feeCollector",
                  "type": "address"
                }
              ],
              "internalType": "struct IHederaTokenService.FixedFee[]",
              "name": "fixedFees",
              "type": "tuple[]"
            },
            {
              "components": [
                {
                  "internalType": "uint32",
                  "name": "numerator",
                  "type": "uint32"
                },
                {
                  "internalType": "uint32",
                  "name": "denominator",
                  "type": "uint32"
                },
                {
                  "internalType": "uint32",
                  "name": "minimumAmount",
                  "type": "uint32"
                },
                {
                  "internalType": "uint32",
                  "name": "maximumAmount",
                  "type": "uint32"
                },
                {
                  "internalType": "bool",
                  "name": "netOfTransfers",
                  "type": "bool"
                },
                {
                  "internalType": "address",
                  "name": "feeCollector",
                  "type": "address"
                }
              ],
              "internalType": "struct IHederaTokenService.FractionalFee[]",
              "name": "fractionalFees",
              "type": "tuple[]"
            },
            {
              "components": [
                {
                  "internalType": "uint32",
                  "name": "numerator",
                  "type": "uint32"
                },
                {
                  "internalType": "uint32",
                  "name": "denominator",
                  "type": "uint32"
                },
                {
                  "internalType": "uint32",
                  "name": "amount",
                  "type": "uint32"
                },
                {
                  "internalType": "address",
                  "name": "tokenId",
                  "type": "address"
                },
                {
                  "internalType": "bool",
                  "name": "useHbarsForPayment",
                  "type": "bool"
                },
                {
                  "internalType": "address",
                  "name": "feeCollector",
                  "type": "address"
                }
              ],
              "internalType": "struct IHederaTokenService.RoyaltyFee[]",
              "name": "royaltyFees",
              "type": "tuple[]"
            },
            {
              "internalType": "string",
              "name": "ledgerId",
              "type": "string"
            }
          ],
          "indexed": false,
          "internalType": "struct IHederaTokenService.TokenInfo",
          "name": "tokenInfo",
          "type": "tuple"
        }
      ],
      "name": "TokenInfo",
      "type": "event"
    },
    {
      "anonymous": false,
      "inputs": [
        {
          "components": [
            {
              "internalType": "bool",
              "name": "inheritAccountKey",
              "type": "bool"
            },
            {
              "internalType": "address",
              "name": "contractId",
              "type": "address"
            },
            {
              "internalType": "bytes",
              "name": "ed25519",
              "type": "bytes"
            },
            {
              "internalType": "bytes",
              "name": "ECDSA_secp256k1",
              "type": "bytes"
            },
            {
              "internalType": "address",
              "name": "delegatableContractId",
              "type": "address"
            }
          ],
          "indexed": false,
          "internalType": "struct IHederaTokenService.KeyValue",
          "name": "key",
          "type": "tuple"
        }
      ],
      "name": "TokenKey",
      "type": "event"
    },
    {
      "anonymous": false,
      "inputs": [
        {
          "indexed": false,
          "internalType": "int32",
          "name": "tokenType",
          "type": "int32"
        }
      ],
      "name": "TokenType",
      "type": "event"
    },
    {
      "anonymous": false,
      "inputs": [
        {
          "indexed": false,
          "internalType": "bool",
          "name": "unpaused",
          "type": "bool"
        }
      ],
      "name": "UnpausedToken",
      "type": "event"
    },
    {
      "inputs": [
        {
          "internalType": "address",
          "name": "token",
          "type": "address"
        },
        {
          "internalType": "address",
          "name": "owner",
          "type": "address"
        },
        {
          "internalType": "address",
          "name": "spender",
          "type": "address"
        }
      ],
      "name": "allowancePublic",
      "outputs": [
        {
          "internalType": "int256",
          "name": "responseCode",
          "type": "int256"
        },
        {
          "internalType": "uint256",
          "name": "amount",
          "type": "uint256"
        }
      ],
      "stateMutability": "nonpayable",
      "type": "function"
    },
    {
      "inputs": [
        {
          "internalType": "address",
          "name": "token",
          "type": "address"
        },
        {
          "internalType": "address",
          "name": "spender",
          "type": "address"
        },
        {
          "internalType": "uint256",
          "name": "amount",
          "type": "uint256"
        }
      ],
      "name": "approvePublic",
      "outputs": [
        {
          "internalType": "int256",
          "name": "responseCode",
          "type": "int256"
        }
      ],
      "stateMutability": "nonpayable",
      "type": "function"
    },
    {
      "inputs": [
        {
          "internalType": "address",
          "name": "account",
          "type": "address"
        },
        {
          "internalType": "address",
          "name": "token",
          "type": "address"
        }
      ],
      "name": "associateTokenPublic",
      "outputs": [
        {
          "internalType": "int256",
          "name": "responseCode",
          "type": "int256"
        }
      ],
      "stateMutability": "nonpayable",
      "type": "function"
    },
    {
      "inputs": [
        {
          "internalType": "address",
          "name": "treasury",
          "type": "address"
        }
      ],
      "name": "createFungibleTokenPublic",
      "outputs": [],
      "stateMutability": "payable",
      "type": "function"
    },
    {
      "inputs": [
        {
          "internalType": "address",
          "name": "treasury",
          "type": "address"
        },
        {
          "internalType": "address",
          "name": "fixedFeeTokenAddress",
          "type": "address"
        }
      ],
      "name": "createFungibleTokenWithCustomFeesPublic",
      "outputs": [],
      "stateMutability": "payable",
      "type": "function"
    },
    {
      "inputs": [
        {
          "internalType": "address",
          "name": "treasury",
          "type": "address"
        }
      ],
      "name": "createNonFungibleTokenPublic",
      "outputs": [],
      "stateMutability": "payable",
      "type": "function"
    },
    {
      "inputs": [
        {
          "components": [
            {
              "internalType": "address",
              "name": "token",
              "type": "address"
            },
            {
              "components": [
                {
                  "internalType": "address",
                  "name": "accountID",
                  "type": "address"
                },
                {
                  "internalType": "int64",
                  "name": "amount",
                  "type": "int64"
                }
              ],
              "internalType": "struct IHederaTokenService.AccountAmount[]",
              "name": "transfers",
              "type": "tuple[]"
            },
            {
              "components": [
                {
                  "internalType": "address",
                  "name": "senderAccountID",
                  "type": "address"
                },
                {
                  "internalType": "address",
                  "name": "receiverAccountID",
                  "type": "address"
                },
                {
                  "internalType": "int64",
                  "name": "serialNumber",
                  "type": "int64"
                }
              ],
              "internalType": "struct IHederaTokenService.NftTransfer[]",
              "name": "nftTransfers",
              "type": "tuple[]"
            }
          ],
          "internalType": "struct IHederaTokenService.TokenTransferList[]",
          "name": "tokenTransferList",
          "type": "tuple[]"
        }
      ],
      "name": "cryptoTransferPublic",
      "outputs": [
        {
          "internalType": "int256",
          "name": "responseCode",
          "type": "int256"
        }
      ],
      "stateMutability": "nonpayable",
      "type": "function"
    },
    {
      "inputs": [
        {
          "internalType": "address",
          "name": "account",
          "type": "address"
        },
        {
          "internalType": "address",
          "name": "token",
          "type": "address"
        },
        {
          "internalType": "int64",
          "name": "amount",
          "type": "int64"
        }
      ],
      "name": "cryptoTransferTokenPublic",
      "outputs": [
        {
          "internalType": "int256",
          "name": "responseCode",
          "type": "int256"
        }
      ],
      "stateMutability": "nonpayable",
      "type": "function"
    },
    {
      "inputs": [
        {
          "internalType": "address",
          "name": "token",
          "type": "address"
        }
      ],
      "name": "deleteTokenPublic",
      "outputs": [
        {
          "internalType": "int256",
          "name": "responseCode",
          "type": "int256"
        }
      ],
      "stateMutability": "nonpayable",
      "type": "function"
    },
    {
      "inputs": [
        {
          "internalType": "address",
          "name": "token",
          "type": "address"
        },
        {
          "internalType": "address",
          "name": "account",
          "type": "address"
        }
      ],
      "name": "freezeTokenPublic",
      "outputs": [
        {
          "internalType": "int256",
          "name": "responseCode",
          "type": "int256"
        }
      ],
      "stateMutability": "nonpayable",
      "type": "function"
    },
    {
      "inputs": [
        {
          "internalType": "address",
          "name": "token",
          "type": "address"
        },
        {
          "internalType": "uint256",
          "name": "serialNumber",
          "type": "uint256"
        }
      ],
      "name": "getApprovedPublic",
      "outputs": [
        {
          "internalType": "int256",
          "name": "responseCode",
          "type": "int256"
        },
        {
          "internalType": "address",
          "name": "approved",
          "type": "address"
        }
      ],
      "stateMutability": "nonpayable",
      "type": "function"
    },
    {
      "inputs": [
        {
          "internalType": "address",
          "name": "token",
          "type": "address"
        }
      ],
      "name": "getFungibleTokenInfoPublic",
      "outputs": [
        {
          "internalType": "int256",
          "name": "responseCode",
          "type": "int256"
        },
        {
          "components": [
            {
              "components": [
                {
                  "components": [
                    {
                      "internalType": "string",
                      "name": "name",
                      "type": "string"
                    },
                    {
                      "internalType": "string",
                      "name": "symbol",
                      "type": "string"
                    },
                    {
                      "internalType": "address",
                      "name": "treasury",
                      "type": "address"
                    },
                    {
                      "internalType": "string",
                      "name": "memo",
                      "type": "string"
                    },
                    {
                      "internalType": "bool",
                      "name": "tokenSupplyType",
                      "type": "bool"
                    },
                    {
                      "internalType": "int64",
                      "name": "maxSupply",
                      "type": "int64"
                    },
                    {
                      "internalType": "bool",
                      "name": "freezeDefault",
                      "type": "bool"
                    },
                    {
                      "components": [
                        {
                          "internalType": "uint256",
                          "name": "keyType",
                          "type": "uint256"
                        },
                        {
                          "components": [
                            {
                              "internalType": "bool",
                              "name": "inheritAccountKey",
                              "type": "bool"
                            },
                            {
                              "internalType": "address",
                              "name": "contractId",
                              "type": "address"
                            },
                            {
                              "internalType": "bytes",
                              "name": "ed25519",
                              "type": "bytes"
                            },
                            {
                              "internalType": "bytes",
                              "name": "ECDSA_secp256k1",
                              "type": "bytes"
                            },
                            {
                              "internalType": "address",
                              "name": "delegatableContractId",
                              "type": "address"
                            }
                          ],
                          "internalType": "struct IHederaTokenService.KeyValue",
                          "name": "key",
                          "type": "tuple"
                        }
                      ],
                      "internalType": "struct IHederaTokenService.TokenKey[]",
                      "name": "tokenKeys",
                      "type": "tuple[]"
                    },
                    {
                      "components": [
                        {
                          "internalType": "uint32",
                          "name": "second",
                          "type": "uint32"
                        },
                        {
                          "internalType": "address",
                          "name": "autoRenewAccount",
                          "type": "address"
                        },
                        {
                          "internalType": "uint32",
                          "name": "autoRenewPeriod",
                          "type": "uint32"
                        }
                      ],
                      "internalType": "struct IHederaTokenService.Expiry",
                      "name": "expiry",
                      "type": "tuple"
                    }
                  ],
                  "internalType": "struct IHederaTokenService.HederaToken",
                  "name": "token",
                  "type": "tuple"
                },
                {
                  "internalType": "uint64",
                  "name": "totalSupply",
                  "type": "uint64"
                },
                {
                  "internalType": "bool",
                  "name": "deleted",
                  "type": "bool"
                },
                {
                  "internalType": "bool",
                  "name": "defaultKycStatus",
                  "type": "bool"
                },
                {
                  "internalType": "bool",
                  "name": "pauseStatus",
                  "type": "bool"
                },
                {
                  "components": [
                    {
                      "internalType": "uint32",
                      "name": "amount",
                      "type": "uint32"
                    },
                    {
                      "internalType": "address",
                      "name": "tokenId",
                      "type": "address"
                    },
                    {
                      "internalType": "bool",
                      "name": "useHbarsForPayment",
                      "type": "bool"
                    },
                    {
                      "internalType": "bool",
                      "name": "useCurrentTokenForPayment",
                      "type": "bool"
                    },
                    {
                      "internalType": "address",
                      "name": "feeCollector",
                      "type": "address"
                    }
                  ],
                  "internalType": "struct IHederaTokenService.FixedFee[]",
                  "name": "fixedFees",
                  "type": "tuple[]"
                },
                {
                  "components": [
                    {
                      "internalType": "uint32",
                      "name": "numerator",
                      "type": "uint32"
                    },
                    {
                      "internalType": "uint32",
                      "name": "denominator",
                      "type": "uint32"
                    },
                    {
                      "internalType": "uint32",
                      "name": "minimumAmount",
                      "type": "uint32"
                    },
                    {
                      "internalType": "uint32",
                      "name": "maximumAmount",
                      "type": "uint32"
                    },
                    {
                      "internalType": "bool",
                      "name": "netOfTransfers",
                      "type": "bool"
                    },
                    {
                      "internalType": "address",
                      "name": "feeCollector",
                      "type": "address"
                    }
                  ],
                  "internalType": "struct IHederaTokenService.FractionalFee[]",
                  "name": "fractionalFees",
                  "type": "tuple[]"
                },
                {
                  "components": [
                    {
                      "internalType": "uint32",
                      "name": "numerator",
                      "type": "uint32"
                    },
                    {
                      "internalType": "uint32",
                      "name": "denominator",
                      "type": "uint32"
                    },
                    {
                      "internalType": "uint32",
                      "name": "amount",
                      "type": "uint32"
                    },
                    {
                      "internalType": "address",
                      "name": "tokenId",
                      "type": "address"
                    },
                    {
                      "internalType": "bool",
                      "name": "useHbarsForPayment",
                      "type": "bool"
                    },
                    {
                      "internalType": "address",
                      "name": "feeCollector",
                      "type": "address"
                    }
                  ],
                  "internalType": "struct IHederaTokenService.RoyaltyFee[]",
                  "name": "royaltyFees",
                  "type": "tuple[]"
                },
                {
                  "internalType": "string",
                  "name": "ledgerId",
                  "type": "string"
                }
              ],
              "internalType": "struct IHederaTokenService.TokenInfo",
              "name": "tokenInfo",
              "type": "tuple"
            },
            {
              "internalType": "uint32",
              "name": "decimals",
              "type": "uint32"
            }
          ],
          "internalType": "struct IHederaTokenService.FungibleTokenInfo",
          "name": "tokenInfo",
          "type": "tuple"
        }
      ],
      "stateMutability": "nonpayable",
      "type": "function"
    },
    {
      "inputs": [
        {
          "internalType": "address",
          "name": "token",
          "type": "address"
        },
        {
          "internalType": "int64",
          "name": "serialNumber",
          "type": "int64"
        }
      ],
      "name": "getNonFungibleTokenInfoPublic",
      "outputs": [
        {
          "internalType": "int256",
          "name": "responseCode",
          "type": "int256"
        },
        {
          "components": [
            {
              "components": [
                {
                  "components": [
                    {
                      "internalType": "string",
                      "name": "name",
                      "type": "string"
                    },
                    {
                      "internalType": "string",
                      "name": "symbol",
                      "type": "string"
                    },
                    {
                      "internalType": "address",
                      "name": "treasury",
                      "type": "address"
                    },
                    {
                      "internalType": "string",
                      "name": "memo",
                      "type": "string"
                    },
                    {
                      "internalType": "bool",
                      "name": "tokenSupplyType",
                      "type": "bool"
                    },
                    {
                      "internalType": "int64",
                      "name": "maxSupply",
                      "type": "int64"
                    },
                    {
                      "internalType": "bool",
                      "name": "freezeDefault",
                      "type": "bool"
                    },
                    {
                      "components": [
                        {
                          "internalType": "uint256",
                          "name": "keyType",
                          "type": "uint256"
                        },
                        {
                          "components": [
                            {
                              "internalType": "bool",
                              "name": "inheritAccountKey",
                              "type": "bool"
                            },
                            {
                              "internalType": "address",
                              "name": "contractId",
                              "type": "address"
                            },
                            {
                              "internalType": "bytes",
                              "name": "ed25519",
                              "type": "bytes"
                            },
                            {
                              "internalType": "bytes",
                              "name": "ECDSA_secp256k1",
                              "type": "bytes"
                            },
                            {
                              "internalType": "address",
                              "name": "delegatableContractId",
                              "type": "address"
                            }
                          ],
                          "internalType": "struct IHederaTokenService.KeyValue",
                          "name": "key",
                          "type": "tuple"
                        }
                      ],
                      "internalType": "struct IHederaTokenService.TokenKey[]",
                      "name": "tokenKeys",
                      "type": "tuple[]"
                    },
                    {
                      "components": [
                        {
                          "internalType": "uint32",
                          "name": "second",
                          "type": "uint32"
                        },
                        {
                          "internalType": "address",
                          "name": "autoRenewAccount",
                          "type": "address"
                        },
                        {
                          "internalType": "uint32",
                          "name": "autoRenewPeriod",
                          "type": "uint32"
                        }
                      ],
                      "internalType": "struct IHederaTokenService.Expiry",
                      "name": "expiry",
                      "type": "tuple"
                    }
                  ],
                  "internalType": "struct IHederaTokenService.HederaToken",
                  "name": "token",
                  "type": "tuple"
                },
                {
                  "internalType": "uint64",
                  "name": "totalSupply",
                  "type": "uint64"
                },
                {
                  "internalType": "bool",
                  "name": "deleted",
                  "type": "bool"
                },
                {
                  "internalType": "bool",
                  "name": "defaultKycStatus",
                  "type": "bool"
                },
                {
                  "internalType": "bool",
                  "name": "pauseStatus",
                  "type": "bool"
                },
                {
                  "components": [
                    {
                      "internalType": "uint32",
                      "name": "amount",
                      "type": "uint32"
                    },
                    {
                      "internalType": "address",
                      "name": "tokenId",
                      "type": "address"
                    },
                    {
                      "internalType": "bool",
                      "name": "useHbarsForPayment",
                      "type": "bool"
                    },
                    {
                      "internalType": "bool",
                      "name": "useCurrentTokenForPayment",
                      "type": "bool"
                    },
                    {
                      "internalType": "address",
                      "name": "feeCollector",
                      "type": "address"
                    }
                  ],
                  "internalType": "struct IHederaTokenService.FixedFee[]",
                  "name": "fixedFees",
                  "type": "tuple[]"
                },
                {
                  "components": [
                    {
                      "internalType": "uint32",
                      "name": "numerator",
                      "type": "uint32"
                    },
                    {
                      "internalType": "uint32",
                      "name": "denominator",
                      "type": "uint32"
                    },
                    {
                      "internalType": "uint32",
                      "name": "minimumAmount",
                      "type": "uint32"
                    },
                    {
                      "internalType": "uint32",
                      "name": "maximumAmount",
                      "type": "uint32"
                    },
                    {
                      "internalType": "bool",
                      "name": "netOfTransfers",
                      "type": "bool"
                    },
                    {
                      "internalType": "address",
                      "name": "feeCollector",
                      "type": "address"
                    }
                  ],
                  "internalType": "struct IHederaTokenService.FractionalFee[]",
                  "name": "fractionalFees",
                  "type": "tuple[]"
                },
                {
                  "components": [
                    {
                      "internalType": "uint32",
                      "name": "numerator",
                      "type": "uint32"
                    },
                    {
                      "internalType": "uint32",
                      "name": "denominator",
                      "type": "uint32"
                    },
                    {
                      "internalType": "uint32",
                      "name": "amount",
                      "type": "uint32"
                    },
                    {
                      "internalType": "address",
                      "name": "tokenId",
                      "type": "address"
                    },
                    {
                      "internalType": "bool",
                      "name": "useHbarsForPayment",
                      "type": "bool"
                    },
                    {
                      "internalType": "address",
                      "name": "feeCollector",
                      "type": "address"
                    }
                  ],
                  "internalType": "struct IHederaTokenService.RoyaltyFee[]",
                  "name": "royaltyFees",
                  "type": "tuple[]"
                },
                {
                  "internalType": "string",
                  "name": "ledgerId",
                  "type": "string"
                }
              ],
              "internalType": "struct IHederaTokenService.TokenInfo",
              "name": "tokenInfo",
              "type": "tuple"
            },
            {
              "internalType": "int64",
              "name": "serialNumber",
              "type": "int64"
            },
            {
              "internalType": "address",
              "name": "ownerId",
              "type": "address"
            },
            {
              "internalType": "int64",
              "name": "creationTime",
              "type": "int64"
            },
            {
              "internalType": "bytes",
              "name": "metadata",
              "type": "bytes"
            },
            {
              "internalType": "address",
              "name": "spenderId",
              "type": "address"
            }
          ],
          "internalType": "struct IHederaTokenService.NonFungibleTokenInfo",
          "name": "tokenInfo",
          "type": "tuple"
        }
      ],
      "stateMutability": "nonpayable",
      "type": "function"
    },
    {
      "inputs": [
        {
          "internalType": "address",
          "name": "token",
          "type": "address"
        }
      ],
      "name": "getTokenCustomFeesPublic",
      "outputs": [
        {
          "internalType": "int64",
          "name": "responseCode",
          "type": "int64"
        },
        {
          "components": [
            {
              "internalType": "uint32",
              "name": "amount",
              "type": "uint32"
            },
            {
              "internalType": "address",
              "name": "tokenId",
              "type": "address"
            },
            {
              "internalType": "bool",
              "name": "useHbarsForPayment",
              "type": "bool"
            },
            {
              "internalType": "bool",
              "name": "useCurrentTokenForPayment",
              "type": "bool"
            },
            {
              "internalType": "address",
              "name": "feeCollector",
              "type": "address"
            }
          ],
          "internalType": "struct IHederaTokenService.FixedFee[]",
          "name": "fixedFees",
          "type": "tuple[]"
        },
        {
          "components": [
            {
              "internalType": "uint32",
              "name": "numerator",
              "type": "uint32"
            },
            {
              "internalType": "uint32",
              "name": "denominator",
              "type": "uint32"
            },
            {
              "internalType": "uint32",
              "name": "minimumAmount",
              "type": "uint32"
            },
            {
              "internalType": "uint32",
              "name": "maximumAmount",
              "type": "uint32"
            },
            {
              "internalType": "bool",
              "name": "netOfTransfers",
              "type": "bool"
            },
            {
              "internalType": "address",
              "name": "feeCollector",
              "type": "address"
            }
          ],
          "internalType": "struct IHederaTokenService.FractionalFee[]",
          "name": "fractionalFees",
          "type": "tuple[]"
        },
        {
          "components": [
            {
              "internalType": "uint32",
              "name": "numerator",
              "type": "uint32"
            },
            {
              "internalType": "uint32",
              "name": "denominator",
              "type": "uint32"
            },
            {
              "internalType": "uint32",
              "name": "amount",
              "type": "uint32"
            },
            {
              "internalType": "address",
              "name": "tokenId",
              "type": "address"
            },
            {
              "internalType": "bool",
              "name": "useHbarsForPayment",
              "type": "bool"
            },
            {
              "internalType": "address",
              "name": "feeCollector",
              "type": "address"
            }
          ],
          "internalType": "struct IHederaTokenService.RoyaltyFee[]",
          "name": "royaltyFees",
          "type": "tuple[]"
        }
      ],
      "stateMutability": "nonpayable",
      "type": "function"
    },
    {
      "inputs": [
        {
          "internalType": "address",
          "name": "token",
          "type": "address"
        }
      ],
      "name": "getTokenDefaultFreezeStatusPublic",
      "outputs": [
        {
          "internalType": "int256",
          "name": "responseCode",
          "type": "int256"
        },
        {
          "internalType": "bool",
          "name": "defaultFreezeStatus",
          "type": "bool"
        }
      ],
      "stateMutability": "nonpayable",
      "type": "function"
    },
    {
      "inputs": [
        {
          "internalType": "address",
          "name": "token",
          "type": "address"
        }
      ],
      "name": "getTokenDefaultKycStatusPublic",
      "outputs": [
        {
          "internalType": "int256",
          "name": "responseCode",
          "type": "int256"
        },
        {
          "internalType": "bool",
          "name": "defaultKycStatus",
          "type": "bool"
        }
      ],
      "stateMutability": "nonpayable",
      "type": "function"
    },
    {
      "inputs": [
        {
          "internalType": "address",
          "name": "token",
          "type": "address"
        }
      ],
      "name": "getTokenExpiryInfo",
      "outputs": [
        {
          "internalType": "int256",
          "name": "responseCode",
          "type": "int256"
        },
        {
          "components": [
            {
              "internalType": "uint32",
              "name": "second",
              "type": "uint32"
            },
            {
              "internalType": "address",
              "name": "autoRenewAccount",
              "type": "address"
            },
            {
              "internalType": "uint32",
              "name": "autoRenewPeriod",
              "type": "uint32"
            }
          ],
          "internalType": "struct IHederaTokenService.Expiry",
          "name": "expiryInfo",
          "type": "tuple"
        }
      ],
      "stateMutability": "nonpayable",
      "type": "function"
    },
    {
      "inputs": [
        {
          "internalType": "address",
          "name": "token",
          "type": "address"
        }
      ],
      "name": "getTokenExpiryInfoPublic",
      "outputs": [
        {
          "internalType": "int256",
          "name": "responseCode",
          "type": "int256"
        },
        {
          "components": [
            {
              "internalType": "uint32",
              "name": "second",
              "type": "uint32"
            },
            {
              "internalType": "address",
              "name": "autoRenewAccount",
              "type": "address"
            },
            {
              "internalType": "uint32",
              "name": "autoRenewPeriod",
              "type": "uint32"
            }
          ],
          "internalType": "struct IHederaTokenService.Expiry",
          "name": "expiryInfo",
          "type": "tuple"
        }
      ],
      "stateMutability": "nonpayable",
      "type": "function"
    },
    {
      "inputs": [
        {
          "internalType": "address",
          "name": "token",
          "type": "address"
        }
      ],
      "name": "getTokenInfoPublic",
      "outputs": [
        {
          "internalType": "int256",
          "name": "responseCode",
          "type": "int256"
        },
        {
          "components": [
            {
              "components": [
                {
                  "internalType": "string",
                  "name": "name",
                  "type": "string"
                },
                {
                  "internalType": "string",
                  "name": "symbol",
                  "type": "string"
                },
                {
                  "internalType": "address",
                  "name": "treasury",
                  "type": "address"
                },
                {
                  "internalType": "string",
                  "name": "memo",
                  "type": "string"
                },
                {
                  "internalType": "bool",
                  "name": "tokenSupplyType",
                  "type": "bool"
                },
                {
                  "internalType": "int64",
                  "name": "maxSupply",
                  "type": "int64"
                },
                {
                  "internalType": "bool",
                  "name": "freezeDefault",
                  "type": "bool"
                },
                {
                  "components": [
                    {
                      "internalType": "uint256",
                      "name": "keyType",
                      "type": "uint256"
                    },
                    {
                      "components": [
                        {
                          "internalType": "bool",
                          "name": "inheritAccountKey",
                          "type": "bool"
                        },
                        {
                          "internalType": "address",
                          "name": "contractId",
                          "type": "address"
                        },
                        {
                          "internalType": "bytes",
                          "name": "ed25519",
                          "type": "bytes"
                        },
                        {
                          "internalType": "bytes",
                          "name": "ECDSA_secp256k1",
                          "type": "bytes"
                        },
                        {
                          "internalType": "address",
                          "name": "delegatableContractId",
                          "type": "address"
                        }
                      ],
                      "internalType": "struct IHederaTokenService.KeyValue",
                      "name": "key",
                      "type": "tuple"
                    }
                  ],
                  "internalType": "struct IHederaTokenService.TokenKey[]",
                  "name": "tokenKeys",
                  "type": "tuple[]"
                },
                {
                  "components": [
                    {
                      "internalType": "uint32",
                      "name": "second",
                      "type": "uint32"
                    },
                    {
                      "internalType": "address",
                      "name": "autoRenewAccount",
                      "type": "address"
                    },
                    {
                      "internalType": "uint32",
                      "name": "autoRenewPeriod",
                      "type": "uint32"
                    }
                  ],
                  "internalType": "struct IHederaTokenService.Expiry",
                  "name": "expiry",
                  "type": "tuple"
                }
              ],
              "internalType": "struct IHederaTokenService.HederaToken",
              "name": "token",
              "type": "tuple"
            },
            {
              "internalType": "uint64",
              "name": "totalSupply",
              "type": "uint64"
            },
            {
              "internalType": "bool",
              "name": "deleted",
              "type": "bool"
            },
            {
              "internalType": "bool",
              "name": "defaultKycStatus",
              "type": "bool"
            },
            {
              "internalType": "bool",
              "name": "pauseStatus",
              "type": "bool"
            },
            {
              "components": [
                {
                  "internalType": "uint32",
                  "name": "amount",
                  "type": "uint32"
                },
                {
                  "internalType": "address",
                  "name": "tokenId",
                  "type": "address"
                },
                {
                  "internalType": "bool",
                  "name": "useHbarsForPayment",
                  "type": "bool"
                },
                {
                  "internalType": "bool",
                  "name": "useCurrentTokenForPayment",
                  "type": "bool"
                },
                {
                  "internalType": "address",
                  "name": "feeCollector",
                  "type": "address"
                }
              ],
              "internalType": "struct IHederaTokenService.FixedFee[]",
              "name": "fixedFees",
              "type": "tuple[]"
            },
            {
              "components": [
                {
                  "internalType": "uint32",
                  "name": "numerator",
                  "type": "uint32"
                },
                {
                  "internalType": "uint32",
                  "name": "denominator",
                  "type": "uint32"
                },
                {
                  "internalType": "uint32",
                  "name": "minimumAmount",
                  "type": "uint32"
                },
                {
                  "internalType": "uint32",
                  "name": "maximumAmount",
                  "type": "uint32"
                },
                {
                  "internalType": "bool",
                  "name": "netOfTransfers",
                  "type": "bool"
                },
                {
                  "internalType": "address",
                  "name": "feeCollector",
                  "type": "address"
                }
              ],
              "internalType": "struct IHederaTokenService.FractionalFee[]",
              "name": "fractionalFees",
              "type": "tuple[]"
            },
            {
              "components": [
                {
                  "internalType": "uint32",
                  "name": "numerator",
                  "type": "uint32"
                },
                {
                  "internalType": "uint32",
                  "name": "denominator",
                  "type": "uint32"
                },
                {
                  "internalType": "uint32",
                  "name": "amount",
                  "type": "uint32"
                },
                {
                  "internalType": "address",
                  "name": "tokenId",
                  "type": "address"
                },
                {
                  "internalType": "bool",
                  "name": "useHbarsForPayment",
                  "type": "bool"
                },
                {
                  "internalType": "address",
                  "name": "feeCollector",
                  "type": "address"
                }
              ],
              "internalType": "struct IHederaTokenService.RoyaltyFee[]",
              "name": "royaltyFees",
              "type": "tuple[]"
            },
            {
              "internalType": "string",
              "name": "ledgerId",
              "type": "string"
            }
          ],
          "internalType": "struct IHederaTokenService.TokenInfo",
          "name": "tokenInfo",
          "type": "tuple"
        }
      ],
      "stateMutability": "nonpayable",
      "type": "function"
    },
    {
      "inputs": [
        {
          "internalType": "address",
          "name": "token",
          "type": "address"
        },
        {
          "internalType": "uint256",
          "name": "keyType",
          "type": "uint256"
        }
      ],
      "name": "getTokenKeyPublic",
      "outputs": [
        {
          "internalType": "int64",
          "name": "responseCode",
          "type": "int64"
        },
        {
          "components": [
            {
              "internalType": "bool",
              "name": "inheritAccountKey",
              "type": "bool"
            },
            {
              "internalType": "address",
              "name": "contractId",
              "type": "address"
            },
            {
              "internalType": "bytes",
              "name": "ed25519",
              "type": "bytes"
            },
            {
              "internalType": "bytes",
              "name": "ECDSA_secp256k1",
              "type": "bytes"
            },
            {
              "internalType": "address",
              "name": "delegatableContractId",
              "type": "address"
            }
          ],
          "internalType": "struct IHederaTokenService.KeyValue",
          "name": "key",
          "type": "tuple"
        }
      ],
      "stateMutability": "nonpayable",
      "type": "function"
    },
    {
      "inputs": [
        {
          "internalType": "address",
          "name": "token",
          "type": "address"
        }
      ],
      "name": "getTokenTypePublic",
      "outputs": [
        {
          "internalType": "int64",
          "name": "responseCode",
          "type": "int64"
        },
        {
          "internalType": "int32",
          "name": "tokenType",
          "type": "int32"
        }
      ],
      "stateMutability": "nonpayable",
      "type": "function"
    },
    {
      "inputs": [
        {
          "internalType": "address",
          "name": "token",
          "type": "address"
        },
        {
          "internalType": "address",
          "name": "account",
          "type": "address"
        }
      ],
      "name": "grantTokenKyc",
      "outputs": [
        {
          "internalType": "int64",
          "name": "responseCode",
          "type": "int64"
        }
      ],
      "stateMutability": "nonpayable",
      "type": "function"
    },
    {
      "inputs": [
        {
          "internalType": "address",
          "name": "token",
          "type": "address"
        },
        {
          "internalType": "address",
          "name": "account",
          "type": "address"
        }
      ],
      "name": "grantTokenKycPublic",
      "outputs": [
        {
          "internalType": "int64",
          "name": "responseCode",
          "type": "int64"
        }
      ],
      "stateMutability": "nonpayable",
      "type": "function"
    },
    {
      "inputs": [
        {
          "internalType": "address",
          "name": "token",
          "type": "address"
        },
        {
          "internalType": "address",
          "name": "owner",
          "type": "address"
        },
        {
          "internalType": "address",
          "name": "operator",
          "type": "address"
        }
      ],
      "name": "isApprovedForAllPublic",
      "outputs": [
        {
          "internalType": "int256",
          "name": "responseCode",
          "type": "int256"
        },
        {
          "internalType": "bool",
          "name": "approved",
          "type": "bool"
        }
      ],
      "stateMutability": "nonpayable",
      "type": "function"
    },
    {
      "inputs": [
        {
          "internalType": "address",
          "name": "token",
          "type": "address"
        },
        {
          "internalType": "address",
          "name": "account",
          "type": "address"
        }
      ],
      "name": "isFrozenPublic",
      "outputs": [
        {
          "internalType": "int256",
          "name": "responseCode",
          "type": "int256"
        },
        {
          "internalType": "bool",
          "name": "frozen",
          "type": "bool"
        }
      ],
      "stateMutability": "nonpayable",
      "type": "function"
    },
    {
      "inputs": [
        {
          "internalType": "address",
          "name": "token",
          "type": "address"
        },
        {
          "internalType": "address",
          "name": "account",
          "type": "address"
        }
      ],
      "name": "isKyc",
      "outputs": [
        {
          "internalType": "int64",
          "name": "responseCode",
          "type": "int64"
        },
        {
          "internalType": "bool",
          "name": "kycGranted",
          "type": "bool"
        }
      ],
      "stateMutability": "nonpayable",
      "type": "function"
    },
    {
      "inputs": [
        {
          "internalType": "address",
          "name": "token",
          "type": "address"
        },
        {
          "internalType": "address",
          "name": "account",
          "type": "address"
        }
      ],
      "name": "isKycPublic",
      "outputs": [
        {
          "internalType": "int64",
          "name": "responseCode",
          "type": "int64"
        },
        {
          "internalType": "bool",
          "name": "kycGranted",
          "type": "bool"
        }
      ],
      "stateMutability": "nonpayable",
      "type": "function"
    },
    {
      "inputs": [
        {
          "internalType": "address",
          "name": "token",
          "type": "address"
        }
      ],
      "name": "isTokenPublic",
      "outputs": [
        {
          "internalType": "int64",
          "name": "responseCode",
          "type": "int64"
        },
        {
          "internalType": "bool",
          "name": "isTokenFlag",
          "type": "bool"
        }
      ],
      "stateMutability": "nonpayable",
      "type": "function"
    },
    {
      "inputs": [
        {
          "internalType": "address",
          "name": "token",
          "type": "address"
        },
        {
          "internalType": "uint64",
          "name": "amount",
          "type": "uint64"
        },
        {
          "internalType": "bytes[]",
          "name": "metadata",
          "type": "bytes[]"
        }
      ],
      "name": "mintTokenPublic",
      "outputs": [
        {
          "internalType": "int256",
          "name": "responseCode",
          "type": "int256"
        },
        {
          "internalType": "uint64",
          "name": "newTotalSupply",
          "type": "uint64"
        },
        {
          "internalType": "int64[]",
          "name": "serialNumbers",
          "type": "int64[]"
        }
      ],
      "stateMutability": "nonpayable",
      "type": "function"
    },
    {
      "inputs": [
        {
          "internalType": "address",
          "name": "token",
          "type": "address"
        }
      ],
      "name": "pauseToken",
      "outputs": [
        {
          "internalType": "int256",
          "name": "responseCode",
          "type": "int256"
        }
      ],
      "stateMutability": "nonpayable",
      "type": "function"
    },
    {
      "inputs": [
        {
          "internalType": "address",
          "name": "token",
          "type": "address"
        }
      ],
      "name": "pauseTokenPublic",
      "outputs": [
        {
          "internalType": "int256",
          "name": "responseCode",
          "type": "int256"
        }
      ],
      "stateMutability": "nonpayable",
      "type": "function"
    },
    {
      "inputs": [
        {
          "internalType": "address",
          "name": "token",
          "type": "address"
        },
        {
          "internalType": "address",
          "name": "account",
          "type": "address"
        }
      ],
      "name": "revokeTokenKyc",
      "outputs": [
        {
          "internalType": "int64",
          "name": "responseCode",
          "type": "int64"
        }
      ],
      "stateMutability": "nonpayable",
      "type": "function"
    },
    {
      "inputs": [
        {
          "internalType": "address",
          "name": "token",
          "type": "address"
        },
        {
          "internalType": "address",
          "name": "account",
          "type": "address"
        }
      ],
      "name": "revokeTokenKycPublic",
      "outputs": [
        {
          "internalType": "int64",
          "name": "responseCode",
          "type": "int64"
        }
      ],
      "stateMutability": "nonpayable",
      "type": "function"
    },
    {
      "inputs": [
        {
          "internalType": "address",
          "name": "token",
          "type": "address"
        },
        {
          "internalType": "address",
          "name": "operator",
          "type": "address"
        },
        {
          "internalType": "bool",
          "name": "approved",
          "type": "bool"
        }
      ],
      "name": "setApprovalForAllPublic",
      "outputs": [
        {
          "internalType": "int256",
          "name": "responseCode",
          "type": "int256"
        }
      ],
      "stateMutability": "nonpayable",
      "type": "function"
    },
    {
      "inputs": [
        {
          "internalType": "bool",
          "name": "newFreezeStatus",
          "type": "bool"
        }
      ],
      "name": "setFreezeDefaultStatus",
      "outputs": [],
      "stateMutability": "nonpayable",
      "type": "function"
    },
    {
      "inputs": [
        {
          "internalType": "address",
          "name": "token",
          "type": "address"
        },
        {
          "internalType": "address",
          "name": "sender",
          "type": "address"
        },
        {
          "internalType": "address",
          "name": "receiver",
          "type": "address"
        },
        {
          "internalType": "int64",
          "name": "serialNumber",
          "type": "int64"
        }
      ],
      "name": "transferNFTPublic",
      "outputs": [
        {
          "internalType": "int256",
          "name": "responseCode",
          "type": "int256"
        }
      ],
      "stateMutability": "nonpayable",
      "type": "function"
    },
    {
      "inputs": [
        {
          "internalType": "address",
          "name": "token",
          "type": "address"
        },
        {
          "internalType": "address",
          "name": "sender",
          "type": "address"
        },
        {
          "internalType": "address",
          "name": "receiver",
          "type": "address"
        },
        {
          "internalType": "int64",
          "name": "amount",
          "type": "int64"
        }
      ],
      "name": "transferTokenPublic",
      "outputs": [
        {
          "internalType": "int256",
          "name": "responseCode",
          "type": "int256"
        }
      ],
      "stateMutability": "nonpayable",
      "type": "function"
    },
    {
      "inputs": [
        {
          "internalType": "address",
          "name": "token",
          "type": "address"
        },
        {
          "internalType": "address",
          "name": "account",
          "type": "address"
        }
      ],
      "name": "unfreezeTokenPublic",
      "outputs": [
        {
          "internalType": "int256",
          "name": "responseCode",
          "type": "int256"
        }
      ],
      "stateMutability": "nonpayable",
      "type": "function"
    },
    {
      "inputs": [
        {
          "internalType": "address",
          "name": "token",
          "type": "address"
        }
      ],
      "name": "unpauseToken",
      "outputs": [
        {
          "internalType": "int256",
          "name": "responseCode",
          "type": "int256"
        }
      ],
      "stateMutability": "nonpayable",
      "type": "function"
    },
    {
      "inputs": [
        {
          "internalType": "address",
          "name": "token",
          "type": "address"
        }
      ],
      "name": "unpauseTokenPublic",
      "outputs": [
        {
          "internalType": "int256",
          "name": "responseCode",
          "type": "int256"
        }
      ],
      "stateMutability": "nonpayable",
      "type": "function"
    },
    {
      "inputs": [
        {
          "internalType": "address",
          "name": "token",
          "type": "address"
        },
        {
          "components": [
            {
              "internalType": "uint32",
              "name": "second",
              "type": "uint32"
            },
            {
              "internalType": "address",
              "name": "autoRenewAccount",
              "type": "address"
            },
            {
              "internalType": "uint32",
              "name": "autoRenewPeriod",
              "type": "uint32"
            }
          ],
          "internalType": "struct IHederaTokenService.Expiry",
          "name": "expiryInfo",
          "type": "tuple"
        }
      ],
      "name": "updateTokenExpiryInfo",
      "outputs": [
        {
          "internalType": "int256",
          "name": "responseCode",
          "type": "int256"
        }
      ],
      "stateMutability": "nonpayable",
      "type": "function"
    },
    {
      "inputs": [
        {
          "internalType": "address",
          "name": "token",
          "type": "address"
        },
        {
          "components": [
            {
              "internalType": "uint32",
              "name": "second",
              "type": "uint32"
            },
            {
              "internalType": "address",
              "name": "autoRenewAccount",
              "type": "address"
            },
            {
              "internalType": "uint32",
              "name": "autoRenewPeriod",
              "type": "uint32"
            }
          ],
          "internalType": "struct IHederaTokenService.Expiry",
          "name": "expiryInfo",
          "type": "tuple"
        }
      ],
      "name": "updateTokenExpiryInfoPublic",
      "outputs": [
        {
          "internalType": "int256",
          "name": "responseCode",
          "type": "int256"
        }
      ],
      "stateMutability": "nonpayable",
      "type": "function"
    },
    {
      "inputs": [
        {
          "internalType": "address",
          "name": "token",
          "type": "address"
        },
        {
          "components": [
            {
              "internalType": "uint256",
              "name": "keyType",
              "type": "uint256"
            },
            {
              "components": [
                {
                  "internalType": "bool",
                  "name": "inheritAccountKey",
                  "type": "bool"
                },
                {
                  "internalType": "address",
                  "name": "contractId",
                  "type": "address"
                },
                {
                  "internalType": "bytes",
                  "name": "ed25519",
                  "type": "bytes"
                },
                {
                  "internalType": "bytes",
                  "name": "ECDSA_secp256k1",
                  "type": "bytes"
                },
                {
                  "internalType": "address",
                  "name": "delegatableContractId",
                  "type": "address"
                }
              ],
              "internalType": "struct IHederaTokenService.KeyValue",
              "name": "key",
              "type": "tuple"
            }
          ],
          "internalType": "struct IHederaTokenService.TokenKey[]",
          "name": "keys",
          "type": "tuple[]"
        }
      ],
      "name": "updateTokenKeysPublic",
      "outputs": [
        {
          "internalType": "int64",
          "name": "responseCode",
          "type": "int64"
        }
      ],
      "stateMutability": "nonpayable",
      "type": "function"
    },
    {
      "inputs": [
        {
          "internalType": "address",
          "name": "token",
          "type": "address"
        },
        {
          "internalType": "address",
          "name": "account",
          "type": "address"
        },
        {
          "internalType": "int64[]",
          "name": "serialNumbers",
          "type": "int64[]"
        }
      ],
      "name": "wipeTokenAccountNFTPublic",
      "outputs": [
        {
          "internalType": "int256",
          "name": "responseCode",
          "type": "int256"
        }
      ],
      "stateMutability": "nonpayable",
      "type": "function"
    },
    {
      "inputs": [
        {
          "internalType": "address",
          "name": "token",
          "type": "address"
        },
        {
          "internalType": "address",
          "name": "account",
          "type": "address"
        },
        {
          "internalType": "uint32",
          "name": "amount",
          "type": "uint32"
        }
      ],
      "name": "wipeTokenAccountPublic",
      "outputs": [
        {
          "internalType": "int256",
          "name": "responseCode",
          "type": "int256"
        }
      ],
      "stateMutability": "nonpayable",
      "type": "function"
    }
  ],
  "bytecode": "0x60c06040526009608081905268746f6b656e4e616d6560b81b60a09081526200002c9160019190620000c7565b5060408051808201909152600b8082526a1d1bdad95b94de5b589bdb60aa1b60209092019182526200006191600291620000c7565b50604080518082019091526004808252636d656d6f60e01b60209092019182526200008f91600391620000c7565b50600480546001600160a81b031916700800000000000003e800000000000003e8179055348015620000c057600080fd5b50620001aa565b828054620000d5906200016d565b90600052602060002090601f016020900481019282620000f9576000855562000144565b82601f106200011457805160ff191683800117855562000144565b8280016001018555821562000144579182015b828111156200014457825182559160200191906001019062000127565b506200015292915062000156565b5090565b5b8082111562000152576000815560010162000157565b600181811c908216806200018257607f821691505b60208210811415620001a457634e487b7160e01b600052602260045260246000fd5b50919050565b615f4080620001ba6000396000f3fe6080604052600436106102725760003560e01c80637d3e5da81161014f578063d614cdb8116100c1578063f2f38a741161007a578063f2f38a741461082d578063f4a01e5b1461085b578063f7be34251461087b578063f848fec41461089b578063f9e978bd146108bb578063fdc8321e146108db57600080fd5b8063d614cdb81461077a578063d85f74c11461079a578063d92ac248146107ad578063eee55ac8146107cd578063f25b1200146107ed578063f2c31ff41461080d57600080fd5b80638f8d7f99116101135780638f8d7f99146106ac5780639604ca65146106cc578063a345f7bd146106ec578063a3ad5b551461070c578063af99c6331461072c578063c0b19b6d1461074c57600080fd5b80637d3e5da8146105f05780638070905f1461061057806386f88d881461063f5780638ba74da01461065f5780638c99ef5d1461067257600080fd5b80634cbdb37b116101e85780635b9076b7116101ac5780635b9076b7146104f55780635d2c5bad1461052557806369837dc2146105625780636a4dde21146105905780636da6b1f0146105b05780637c41ad2c146105d057600080fd5b80634cbdb37b146104325780634d8f27c91461046057806356af840314610480578063593d6e82146104a05780635a5e6c31146104c057600080fd5b80632d73bb2e1161023a5780632d73bb2e1461037d5780632eecbca31461039d5780633b3bff0f146103bd5780633eed2c39146103dd5780634b5c6687146103fd5780634ba670351461041257600080fd5b80630fd2601e1461027757806313c05dd8146102af5780631955de0b146102e457806319db44b6146103125780632b256ec81461034f575b600080fd5b34801561028357600080fd5b5061029761029236600461463f565b6108fb565b60405160079190910b81526020015b60405180910390f35b3480156102bb57600080fd5b506102cf6102ca366004614677565b6109b4565b604080519283529015156020830152016102a6565b3480156102f057600080fd5b506103046102ff366004614b26565b610a32565b6040516102a6929190615a09565b34801561031e57600080fd5b5061033261032d366004614b26565b610abf565b604080519283526001600160a01b039091166020830152016102a6565b34801561035b57600080fd5b5061036f61036a366004614623565b610b38565b6040519081526020016102a6565b34801561038957600080fd5b5061036f61039836600461463f565b610c24565b3480156103a957600080fd5b506102976103b836600461463f565b610c69565b3480156103c957600080fd5b5061036f6103d8366004614623565b610c91565b3480156103e957600080fd5b506102cf6103f8366004614623565b610d6b565b61041061040b366004614623565b610de5565b005b34801561041e57600080fd5b5061036f61042d3660046146c1565b6111fc565b34801561043e57600080fd5b5061045261044d366004614a7e565b611248565b6040516102a6929190615962565b34801561046c57600080fd5b5061029761047b3660046148db565b6112be565b34801561048c57600080fd5b5061036f61049b36600461471c565b6112ca565b3480156104ac57600080fd5b5061036f6104bb366004614aab565b611314565b3480156104cc57600080fd5b506104e06104db366004614677565b6113f1565b604080519283526020830191909152016102a6565b34801561050157600080fd5b50610515610510366004614623565b611462565b6040516102a694939291906159bc565b34801561053157600080fd5b50610545610540366004614623565b6114f4565b6040805160079390930b835260039190910b6020830152016102a6565b34801561056e57600080fd5b5061058261057d366004614623565b61156f565b6040516102a6929190615949565b34801561059c57600080fd5b506102cf6105ab36600461463f565b6115e4565b3480156105bc57600080fd5b5061036f6105cb3660046146c1565b61165b565b3480156105dc57600080fd5b5061036f6105eb366004614623565b611669565b3480156105fc57600080fd5b5061036f61060b36600461463f565b611697565b34801561061c57600080fd5b5061063061062b366004614b51565b6116a3565b6040516102a693929190615994565b34801561064b57600080fd5b506102cf61065a366004614623565b61172b565b61041061066d36600461463f565b61179c565b34801561067e57600080fd5b5061069261068d366004614623565b611c79565b6040805160079390930b83529015156020830152016102a6565b3480156106b857600080fd5b506102976106c736600461463f565b611cf2565b3480156106d857600080fd5b5061036f6106e7366004614c27565b611d1e565b3480156106f857600080fd5b5061036f610707366004614623565b611d53565b34801561071857600080fd5b5061069261072736600461463f565b611d99565b34801561073857600080fd5b5061029761074736600461463f565b611e81565b34801561075857600080fd5b5061076c610767366004614623565b611ead565b6040516102a6929190615935565b34801561078657600080fd5b5061076c610795366004614623565b611fa4565b6104106107a8366004614623565b6120b3565b3480156107b957600080fd5b5061036f6107c836600461489c565b61249d565b3480156107d957600080fd5b5061036f6107e8366004614aab565b6124aa565b3480156107f957600080fd5b5061036f6108083660046147de565b612524565b34801561081957600080fd5b5061069261082836600461463f565b612531565b34801561083957600080fd5b5061084d610848366004614623565b612605565b6040516102a692919061597b565b34801561086757600080fd5b5061036f61087636600461463f565b61267a565b34801561088757600080fd5b5061036f610896366004614623565b612686565b3480156108a757600080fd5b5061036f6108b636600461485c565b612769565b3480156108c757600080fd5b506104106108d6366004614c96565b612776565b3480156108e757600080fd5b5061036f6108f636600461481d565b6127d1565b604051638f8d7f9960e01b81526000903090638f8d7f99906109239086908690600401615718565b602060405180830381600087803b15801561093d57600080fd5b505af1158015610951573d6000803e3d6000fd5b505050506040513d601f19601f820116820180604052508101906109759190615128565b604051600782900b8152909150600080516020615eeb8339815191529060200160405180910390a1600781900b6016146109ae57600080fd5b92915050565b6000806109c28585856129d2565b6040518281529193509150600080516020615eeb8339815191529060200160405180910390a1601682146109f557600080fd5b60405181151581527e1c2e72360171244b3bb8cc8ddd767820edf37138ad6f129fb3574b407c307d906020015b60405180910390a1935093915050565b6000610a3c613c93565b610a468484612ab8565b604051600783900b81529193509150600080516020615eeb8339815191529060200160405180910390a1600782900b601614610a8157600080fd5b7faed084fbdf29b6ba2242463299d7270f64e0f8ced16013cfff249856bd88715781604051610ab09190615af1565b60405180910390a19250929050565b600080610acc8484612b8c565b6040518281529193509150600080516020615eeb8339815191529060200160405180910390a160168214610aff57600080fd5b6040516001600160a01b03821681527fc2c78c7c31baf14949e75c51df12be56edb9af523cf82839c2869bbcf13b3ecb90602001610ab0565b604051631f106b4b60e21b81526001600160a01b03821660048201526000903090637c41ad2c90602401602060405180830381600087803b158015610b7c57600080fd5b505af1158015610b90573d6000803e3d6000fd5b505050506040513d601f19601f82011682018060405250810190610bb49190614cb2565b9050600080516020615eeb83398151915281604051610bd591815260200190565b60405180910390a160168114610bea57600080fd5b604051600181527f0c9c765845f4d139956bb8fc8decb2eec6093c9c608b809641b16054b29f0e13906020015b60405180910390a1919050565b6000610c308383612c53565b60070b9050600080516020615eeb83398151915281604051610c5491815260200190565b60405180910390a1601681146109ae57600080fd5b60405163af99c63360e01b8152600090309063af99c633906109239086908690600401615718565b6040516001600160a01b03821660248201526000908190819061016790633b3bff0f60e01b906044015b60408051601f198184030181529181526020820180516001600160e01b03166001600160e01b0319909416939093179092529051610cf991906156fc565b6000604051808303816000865af19150503d8060008114610d36576040519150601f19603f3d011682016040523d82523d6000602084013e610d3b565b606091505b509150915081610d4c576015610d60565b80806020019051810190610d609190614cf6565b60030b949350505050565b600080610d7783612c7f565b6040518281529193509150600080516020615eeb8339815191529060200160405180910390a160168214610daa57600080fd5b60405181151581527f6b7f3306751292f85ab4161ee2b0ac16dfc8ded13e6446ce6bd859d0a2f4c78e906020015b60405180910390a1915091565b60408051600480825260a08201909252600091816020015b610e05613cd6565b815260200190600190039081610dfd579050509050610e3860006006600160405180602001604052806000815250612d63565b81600081518110610e5957634e487b7160e01b600052603260045260246000fd5b6020026020010181905250610e7f60018060405180602001604052806000815250612d9a565b81600181518110610ea057634e487b7160e01b600052603260045260246000fd5b6020026020010181905250610ec76002600160405180602001604052806000815250612d9a565b81600281518110610ee857634e487b7160e01b600052603260045260246000fd5b6020026020010181905250610f0f6003600160405180602001604052806000815250612d9a565b81600381518110610f3057634e487b7160e01b600052603260045260246000fd5b602002602001018190525060006040518060600160405280600063ffffffff168152602001846001600160a01b03168152602001627a120063ffffffff168152509050600060405180610120016040528060018054610f8e90615e0b565b80601f0160208091040260200160405190810160405280929190818152602001828054610fba90615e0b565b80156110075780601f10610fdc57610100808354040283529160200191611007565b820191906000526020600020905b815481529060010190602001808311610fea57829003601f168201915b505050505081526020016002805461101e90615e0b565b80601f016020809104026020016040519081016040528092919081815260200182805461104a90615e0b565b80156110975780601f1061106c57610100808354040283529160200191611097565b820191906000526020600020905b81548152906001019060200180831161107a57829003601f168201915b50505050508152602001856001600160a01b03168152602001600380546110bd90615e0b565b80601f01602080910402602001604051908101604052809291908181526020018280546110e990615e0b565b80156111365780601f1061110b57610100808354040283529160200191611136565b820191906000526020600020905b81548152906001019060200180831161111957829003601f168201915b505050918352505060016020820152600454600160401b8104600790810b900b6040830152600160a01b810460ff16151560608301526080820186905260a090910184905290915060009081906111a69084906001600160401b03811690600160801b900463ffffffff16612dcf565b9092509050601682146111b857600080fd5b6040516001600160a01b03821681527f7bb17726df1f3adee8aa00ba8e8bc5d6f182af3bbf77604639cb7f008dd3b4ed9060200160405180910390a1505050505050565b600061120a85858585612efd565b9050600080516020615eeb8339815191528160405161122b91815260200190565b60405180910390a16016811461124057600080fd5b949350505050565b6000611252613cf5565b61125c8484612ff4565b6040518281529193509150600080516020615eeb8339815191529060200160405180910390a16016821461128f57600080fd5b7fd010ef68d3ac3e07c14bed496400730a484fd17c48a4d373cbc4722a56540def81604051610ab09190615b04565b600061097583836130ce565b60006112d78484846130fa565b9050600080516020615eeb833981519152816040516112f891815260200190565b60405180910390a16016811461130d57600080fd5b9392505050565b60008060006101676001600160a01b031663593d6e8260e01b868660405160240161134092919061578b565b60408051601f198184030181529181526020820180516001600160e01b03166001600160e01b031990941693909317909252905161137e91906156fc565b6000604051808303816000865af19150503d80600081146113bb576040519150601f19603f3d011682016040523d82523d6000602084013e6113c0565b606091505b5091509150816113d15760156113e5565b808060200190518101906113e59190614cf6565b60030b95945050505050565b6000806113ff8585856131da565b6040518281529193509150600080516020615eeb8339815191529060200160405180910390a16016821461143257600080fd5b6040518181527f25b6684a7e8fe1b676e9c39c8dd65034fbafea906d3bdfd97bf748b7b55e14c890602001610a22565b60006060806060611472856132ad565b604051600785900b815293975091955093509150600080516020615eeb8339815191529060200160405180910390a1600784900b6016146114b257600080fd5b7f2efc8334b040613a552197fe34283d6ca2909c8ffae393e128424931f20c69b38383836040516114e593929190615829565b60405180910390a19193509193565b60008061150083613394565b604051600783900b81529193509150600080516020615eeb8339815191529060200160405180910390a1600782900b60161461153b57600080fd5b604051600382900b81527f182137409609594f2b12128230091c673507ea4cab315d59415d5e3f8c301ad590602001610dd8565b6000611579613d30565b61158283613458565b6040518281529193509150600080516020615eeb8339815191529060200160405180910390a1601682146115b557600080fd5b7fea9419ffbaa766adf982c4c9864330eee1d848eff36c79e510e7e589c8bb265f81604051610dd89190615a33565b6000806115f18484613528565b60405160079290920b80835293509150600080516020615eeb8339815191529060200160405180910390a16016821461162957600080fd5b60405181151581527f59800d968fcce138300a0019410b4b75041610d65b3cdc5f31656b03ed14912e90602001610ab0565b600061120a85858585613555565b6040516001600160a01b03821660248201526000908190819061016790631f106b4b60e21b90604401610cbb565b6000610c30838361359d565b60008060606116b38686866135c9565b6040518381529295509093509150600080516020615eeb8339815191529060200160405180910390a1601683146116e957600080fd5b7feff23992f47b3c101679f8b4dc9d3e242c903909dba4a453f2b2341ad463b0e2828260405161171a929190615b2a565b60405180910390a193509350939050565b600080611737836136c7565b6040518281529193509150600080516020615eeb8339815191529060200160405180910390a16016821461176a57600080fd5b60405181151581527f9ee19e13dfa1ba8db2502e15ff56dbecdeb0e0473323fb195473ce648030a2cd90602001610dd8565b604080516001808252818301909252600091816020015b6117bb613cd6565b8152602001906001900390816117b35790505090506117ed600080600160405180602001604052806000815250612d63565b8160008151811061180e57634e487b7160e01b600052603260045260246000fd5b602002602001018190525060006040518060600160405280600063ffffffff168152602001856001600160a01b03168152602001627a120063ffffffff16815250905060006040518061012001604052806001805461186c90615e0b565b80601f016020809104026020016040519081016040528092919081815260200182805461189890615e0b565b80156118e55780601f106118ba576101008083540402835291602001916118e5565b820191906000526020600020905b8154815290600101906020018083116118c857829003601f168201915b50505050508152602001600280546118fc90615e0b565b80601f016020809104026020016040519081016040528092919081815260200182805461192890615e0b565b80156119755780601f1061194a57610100808354040283529160200191611975565b820191906000526020600020905b81548152906001019060200180831161195857829003601f168201915b50505050508152602001866001600160a01b031681526020016003805461199b90615e0b565b80601f01602080910402602001604051908101604052809291908181526020018280546119c790615e0b565b8015611a145780601f106119e957610100808354040283529160200191611a14565b820191906000526020600020905b8154815290600101906020018083116119f757829003601f168201915b5050509183525050600160208201819052600454600160401b9004600790810b900b6040808401919091526000606084018190526080840188905260a09093018690528051828152808201909152929350909190816020015b6040805160a081018252600080825260208083018290529282018190526060820181905260808201528252600019909201910181611a6d5750506040805160a081018252600181526001600160a01b03888116602083015260009282018390526060820183905289166080820152825192935091839190611afe57634e487b7160e01b600052603260045260246000fd5b6020908102919091010152604080516001808252818301909252600091816020015b6040805160c08101825260008082526020808301829052928201819052606082018190526080820181905260a08201528252600019909201910181611b205750506040805160c0810182526004815260056020820152600a91810191909152601e60608201526000608082018190526001600160a01b038a1660a083015282519293509091839190611bc257634e487b7160e01b600052603260045260246000fd5b60209081029190910101526004546000908190611bfa9086906001600160401b03811690600160801b900463ffffffff1687876136f7565b91509150600080516020615eeb83398151915282604051611c1d91815260200190565b60405180910390a160168214611c3257600080fd5b6040516001600160a01b03821681527f7bb17726df1f3adee8aa00ba8e8bc5d6f182af3bbf77604639cb7f008dd3b4ed9060200160405180910390a1505050505050505050565b600080611c858361382b565b604051600783900b81529193509150600080516020615eeb8339815191529060200160405180910390a1600782900b601614611cc057600080fd5b60405181151581527f5080c42cc33acbcea410fa6eaa925bd878674825501981184fdd53749f8478a890602001610dd8565b60008060006101676001600160a01b0316638f8d7f9960e01b8686604051602401611340929190615718565b6000611d32611d2d8385615c77565b61385b565b9050600080516020615eeb83398151915281604051610c5491815260200190565b6000611d5e82613885565b9050600080516020615eeb83398151915281604051611d7f91815260200190565b60405180910390a160168114611d9457600080fd5b919050565b604051633cb0c7fd60e21b81526000908190309063f2c31ff490611dc39087908790600401615718565b6040805180830381600087803b158015611ddc57600080fd5b505af1158015611df0573d6000803e3d6000fd5b505050506040513d601f19601f82011682018060405250810190611e149190615144565b604051600783900b81529193509150600080516020615eeb8339815191529060200160405180910390a1600782900b601614611e4f57600080fd5b60405181151581527fd24dda6928587354b65aa1a18c2eaf249bef7e5bafd2a71fac71d286f76f957f90602001610ab0565b60008060006101676001600160a01b031663af99c63360e01b8686604051602401611340929190615718565b60408051606081018252600080825260208201819052918101829052604051631ac299b760e31b81526001600160a01b0384166004820152309063d614cdb890602401608060405180830381600087803b158015611f0a57600080fd5b505af1158015611f1e573d6000803e3d6000fd5b505050506040513d601f19601f82011682018060405250810190611f429190614cca565b6040518281529193509150600080516020615eeb8339815191529060200160405180910390a160168214611f7557600080fd5b7fa0a16bf9db2c17796faeca5af5aaeef8523f9d4c350c512cb00062ad89604f8881604051610dd89190615a25565b604080516060810182526000808252602080830182905282840182905283516001600160a01b038616602480830191909152855180830390910181526044909101855290810180516001600160e01b0316631ac299b760e31b17905292519092839182916101679161201691906156fc565b6000604051808303816000865af19150503d8060008114612053576040519150601f19603f3d011682016040523d82523d6000602084013e612058565b606091505b5091509150612080604080516060810182526000808252602082018190529181019190915290565b8261208d576015816120a1565b818060200190518101906120a19190614e23565b60039190910b97909650945050505050565b60408051600580825260c08201909252600091816020015b6120d3613cd6565b8152602001906001900390816120cb57905050905061210660006006600160405180602001604052806000815250612d63565b8160008151811061212757634e487b7160e01b600052603260045260246000fd5b602002602001018190525061214d60018060405180602001604052806000815250612d9a565b8160018151811061216e57634e487b7160e01b600052603260045260246000fd5b60200260200101819052506121956002600160405180602001604052806000815250612d9a565b816002815181106121b657634e487b7160e01b600052603260045260246000fd5b60200260200101819052506121dd6004600160405180602001604052806000815250612d9a565b816003815181106121fe57634e487b7160e01b600052603260045260246000fd5b60200260200101819052506122256003600160405180602001604052806000815250612d9a565b8160048151811061224657634e487b7160e01b600052603260045260246000fd5b602002602001018190525060006040518060600160405280600063ffffffff168152602001846001600160a01b03168152602001627a120063ffffffff1681525090506000604051806101200160405280600180546122a490615e0b565b80601f01602080910402602001604051908101604052809291908181526020018280546122d090615e0b565b801561231d5780601f106122f25761010080835404028352916020019161231d565b820191906000526020600020905b81548152906001019060200180831161230057829003601f168201915b505050505081526020016002805461233490615e0b565b80601f016020809104026020016040519081016040528092919081815260200182805461236090615e0b565b80156123ad5780601f10612382576101008083540402835291602001916123ad565b820191906000526020600020905b81548152906001019060200180831161239057829003601f168201915b50505050508152602001856001600160a01b03168152602001600380546123d390615e0b565b80601f01602080910402602001604051908101604052809291908181526020018280546123ff90615e0b565b801561244c5780601f106124215761010080835404028352916020019161244c565b820191906000526020600020905b81548152906001019060200180831161242f57829003601f168201915b505050918352505060016020820152600454600160401b8104600790810b900b6040830152600160a01b900460ff16151560608201526080810185905260a00183905290506000806111a6836138b3565b60006112d784848461399d565b604051632c9eb74160e11b8152600090309063593d6e82906124d2908690869060040161578b565b602060405180830381600087803b1580156124ec57600080fd5b505af1158015612500573d6000803e3d6000fd5b505050506040513d601f19601f82011682018060405250810190611d329190614cb2565b60006112d78484846139df565b6000806000806101676001600160a01b031663f2c31ff460e01b878760405160240161255e929190615718565b60408051601f198184030181529181526020820180516001600160e01b03166001600160e01b031990941693909317909252905161259c91906156fc565b6000604051808303816000865af19150503d80600081146125d9576040519150601f19603f3d011682016040523d82523d6000602084013e6125de565b606091505b5091509150816125f157601560006120a1565b808060200190518101906120a19190614dcf565b600061260f613d50565b61261883613a1d565b6040518281529193509150600080516020615eeb8339815191529060200160405180910390a16016821461264b57600080fd5b7fbdb65f8c2a2e9a3a37ea49e903836883766a922e4ce9b21f684035e304962d4181604051610dd89190615b17565b6000611d328383613aed565b604051633b3bff0f60e01b81526001600160a01b03821660048201526000903090633b3bff0f90602401602060405180830381600087803b1580156126ca57600080fd5b505af11580156126de573d6000803e3d6000fd5b505050506040513d601f19601f820116820180604052508101906127029190614cb2565b9050600080516020615eeb8339815191528160405161272391815260200190565b60405180910390a16016811461273857600080fd5b604051600181527f319ab7084208e4afa38c6e6ff7aea9587439f2e4700746f4c7d425fea17426d290602001610c17565b60006112d7848484613b19565b6004805460ff60a01b1916600160a01b8315158102919091179182905560405160ff9190920416151581527f457c3a16a0ebdc38e3675609957ca3fcc4490e220bd15d85d34f58e2e145cb089060200160405180910390a150565b60408051600080825260208201909252819081612816565b60408051606081018252600080825260208083018290529282015282526000199092019101816127e95790505b50905060006040518060400160405280336001600160a01b031681526020018561283f90615e46565b600790810b9091526040805180820182526001600160a01b038a1681529187900b602083015280516002808252606082019092529293509091600091816020015b604080518082019091526000808252602082015281526020019060019003908161288057905050905082816000815181106128cb57634e487b7160e01b600052603260045260246000fd5b602002602001018190525081816001815181106128f857634e487b7160e01b600052603260045260246000fd5b602090810291909101810191909152604080516060810182526001600160a01b038a16815291820183905281810186905280516001808252818301909252600091816020015b61296b604051806060016040528060006001600160a01b0316815260200160608152602001606081525090565b81526020019060019003908161293e57905050905081816000815181106129a257634e487b7160e01b600052603260045260246000fd5b60200260200101819052506129b68161385b565b9650601687146129c557600080fd5b5050505050509392505050565b604080516001600160a01b0385811660248301528481166044830152831660648083019190915282518083039091018152608490910182526020810180516001600160e01b031663f49f40db60e01b179052905160009182918291829161016791612a3c916156fc565b6000604051808303816000865af19150503d8060008114612a79576040519150601f19603f3d011682016040523d82523d6000602084013e612a7e565b606091505b509150915081612a915760156000612aa5565b80806020019051810190612aa59190614dcf565b60039190910b9890975095505050505050565b6000612ac2613c93565b604080516001600160a01b0386166024820152604480820186905282518083039091018152606490910182526020810180516001600160e01b0316631e26e99760e11b1790529051600091829161016791612b1c916156fc565b6000604051808303816000865af19150503d8060008114612b59576040519150601f19603f3d011682016040523d82523d6000602084013e612b5e565b606091505b5091509150612b6b613c93565b82612b7857601581612aa5565b81806020019051810190612aa59190614ede565b604080516001600160a01b0384166024820152604480820184905282518083039091018152606490910182526020810180516001600160e01b03166304c791b360e11b179052905160009182918291829161016791612bea916156fc565b6000604051808303816000865af19150503d8060008114612c27576040519150601f19603f3d011682016040523d82523d6000602084013e612c2c565b606091505b509150915081612c3f57601560006120a1565b808060200190518101906120a19190614d10565b60008060006101676001600160a01b03166352f9138760e01b8686604051602401611340929190615718565b6040516001600160a01b03821660248201526000908190819081906101679063a7daa18d60e01b906044015b60408051601f198184030181529181526020820180516001600160e01b03166001600160e01b0319909416939093179092529051612ce991906156fc565b6000604051808303816000865af19150503d8060008114612d26576040519150601f19603f3d011682016040523d82523d6000602084013e612d2b565b606091505b509150915081612d3e5760156000612d52565b80806020019051810190612d529190614dcf565b60039190910b969095509350505050565b612d6b613cd6565b6040518060400160405280612d808787613b56565b8152602001612d8f8585613b6f565b905295945050505050565b612da2613cd6565b6040518060400160405280612db686613c01565b8152602001612dc58585613b6f565b9052949350505050565b600080848061010001516000015163ffffffff166000148015612dff57506101008101516040015163ffffffff16155b15612e15576101008101516276a7006040909101525b6000806101676001600160a01b03163463c23baeb660e01b8a8a8a604051602401612e4293929190615a59565b60408051601f198184030181529181526020820180516001600160e01b03166001600160e01b0319909416939093179092529051612e8091906156fc565b60006040518083038185875af1925050503d8060008114612ebd576040519150601f19603f3d011682016040523d82523d6000602084013e612ec2565b606091505b509150915081612ed55760156000612ee9565b80806020019051810190612ee99190614d10565b60039190910b999098509650505050505050565b6040516001600160a01b038581166024830152848116604483015283166064820152600782900b6084820152600090819081906101679063eca3691760e01b9060a4015b60408051601f198184030181529181526020820180516001600160e01b03166001600160e01b0319909416939093179092529051612f7f91906156fc565b6000604051808303816000865af19150503d8060008114612fbc576040519150601f19603f3d011682016040523d82523d6000602084013e612fc1565b606091505b509150915081612fd2576015612fe6565b80806020019051810190612fe69190614cf6565b60030b979650505050505050565b6000612ffe613cf5565b604080516001600160a01b0386166024820152600785900b60448083019190915282518083039091018152606490910182526020810180516001600160e01b031663050fc3b560e31b179052905160009182916101679161305e916156fc565b6000604051808303816000865af19150503d806000811461309b576040519150601f19603f3d011682016040523d82523d6000602084013e6130a0565b606091505b50915091506130ad613cf5565b826130ba57601581612aa5565b81806020019051810190612aa59190614f29565b60008060006101676001600160a01b0316636fc3cbaf60e01b8686604051602401611340929190615767565b60008060006101676001600160a01b031663f7f38e2660e01b87878760405160240161312893929190615732565b60408051601f198184030181529181526020820180516001600160e01b03166001600160e01b031990941693909317909252905161316691906156fc565b6000604051808303816000865af19150503d80600081146131a3576040519150601f19603f3d011682016040523d82523d6000602084013e6131a8565b606091505b5091509150816131b95760156131cd565b808060200190518101906131cd9190614cf6565b60030b9695505050505050565b604080516001600160a01b0385811660248301528481166044830152831660648083019190915282518083039091018152608490910182526020810180516001600160e01b031663927da10560e01b179052905160009182918291829161016791613244916156fc565b6000604051808303816000865af19150503d8060008114613281576040519150601f19603f3d011682016040523d82523d6000602084013e613286565b606091505b5091509150816132995760156000612aa5565b80806020019051810190612aa5919061504c565b604080516001600160a01b03831660248083019190915282518083039091018152604490910182526020810180516001600160e01b0316630573b08d60e51b179052905160009160609182918291859182916101679161330c916156fc565b6000604051808303816000865af19150503d8060008114613349576040519150601f19603f3d011682016040523d82523d6000602084013e61334e565b606091505b509150915060608060608461336757601583838361337b565b8380602001905181019061337b9190614d3b565b60039390930b9d919c509a509098509650505050505050565b604080516001600160a01b03831660248083019190915282518083039091018152604490910182526020810180516001600160e01b03166393272baf60e01b1790529051600091829182918291610167916133ee916156fc565b6000604051808303816000865af19150503d806000811461342b576040519150601f19603f3d011682016040523d82523d6000602084013e613430565b606091505b509150915081613444576015600019612d52565b80806020019051810190612d529190614dfa565b6000613462613d30565b604080516001600160a01b03851660248083019190915282518083039091018152604490910182526020810180516001600160e01b0316633f28a19b60e01b17905290516000918291610167916134b8916156fc565b6000604051808303816000865af19150503d80600081146134f5576040519150601f19603f3d011682016040523d82523d6000602084013e6134fa565b606091505b5091509150613507613d30565b82613514576015816120a1565b818060200190518101906120a19190614e4d565b6000806000806101676001600160a01b03166346de0fb160e01b878760405160240161255e929190615718565b6040516001600160a01b038581166024830152848116604483015283166064820152600782900b60848201526000908190819061016790635cfc901160e01b9060a401612f41565b60008060006101676001600160a01b0316635b8f858460e01b8686604051602401611340929190615718565b60008060606000806101676001600160a01b031663278e0b8860e01b8989896040516024016135fa939291906157a8565b60408051601f198184030181529181526020820180516001600160e01b03166001600160e01b031990941693909317909252905161363891906156fc565b6000604051808303816000865af19150503d8060008114613675576040519150601f19603f3d011682016040523d82523d6000602084013e61367a565b606091505b50915091508161369d5760408051600080825260208201909252601591906136b1565b808060200190518101906136b19190615077565b60039290920b9a90995090975095505050505050565b6040516001600160a01b03821660248201526000908190819081906101679063335e04c160e01b90604401612cab565b600080868061010001516000015163ffffffff16600014801561372757506101008101516040015163ffffffff16155b1561373d576101008101516276a7006040909101525b6000806101676001600160a01b03163463b937581a60e01b8c8c8c8c8c60405160240161376e959493929190615a91565b60408051601f198184030181529181526020820180516001600160e01b03166001600160e01b03199094169390931790925290516137ac91906156fc565b60006040518083038185875af1925050503d80600081146137e9576040519150601f19603f3d011682016040523d82523d6000602084013e6137ee565b606091505b5091509150816138015760156000613815565b808060200190518101906138159190614d10565b60039190910b9b909a5098505050505050505050565b6040516001600160a01b0382166024820152600090819081908190610167906319f3736160e01b90604401612cab565b60008060006101676001600160a01b031663189a554c60e01b85604051602401610cbb9190615862565b6040516001600160a01b03821660248201526000908190819061016790637834fb8960e11b90604401610cbb565b600080828061010001516000015163ffffffff1660001480156138e357506101008101516040015163ffffffff16155b156138f9576101008101516276a7006040909101525b6000806101676001600160a01b031634639c89bb3560e01b886040516024016139229190615a46565b60408051601f198184030181529181526020820180516001600160e01b03166001600160e01b031990941693909317909252905161396091906156fc565b60006040518083038185875af1925050503d8060008114612c27576040519150601f19603f3d011682016040523d82523d6000602084013e612c2c565b6040516001600160a01b0384811660248301528316604482015263ffffffff821660648201526000908190819061016790639790686d60e01b90608401613128565b6040516001600160a01b0384811660248301528316604482015281151560648201526000908190819061016790631b3b02e560e11b90608401613128565b6000613a27613d50565b604080516001600160a01b03851660248083019190915282518083039091018152604490910182526020810180516001600160e01b0316631f69565f60e01b1790529051600091829161016791613a7d916156fc565b6000604051808303816000865af19150503d8060008114613aba576040519150601f19603f3d011682016040523d82523d6000602084013e613abf565b606091505b5091509150613acc613d50565b82613ad9576015816120a1565b818060200190518101906120a1919061500b565b60008060006101676001600160a01b03166349146bde60e01b8686604051602401611340929190615718565b6040516001600160a01b0384811660248301528316604482015260648101829052600090819081906101679063e1f21c6760e01b90608401613128565b6000600160ff84161b9050600160ff83161b811761130d565b613b77613c93565b8260ff1660011415613b8c57600181526109ae565b8260ff1660021415613bae576000546001600160a01b031660208201526109ae565b8260ff1660031415613bc657604081018290526109ae565b8260ff1660041415613bde57606081018290526109ae565b8260ff16600514156109ae576000546001600160a01b0316608082015292915050565b600060ff8216613c1357506001919050565b8160ff1660011415613c2757506002919050565b8160ff1660021415613c3b57506004919050565b8160ff1660031415613c4f57506008919050565b8160ff1660041415613c6357506010919050565b8160ff1660051415613c7757506020919050565b8160ff1660061415613c8b57506040919050565b506000919050565b6040518060a0016040528060001515815260200160006001600160a01b03168152602001606081526020016060815260200160006001600160a01b031681525090565b604051806040016040528060008152602001613cf0613c93565b905290565b6040518060c00160405280613d08613d50565b8152600060208201819052604082018190526060808301829052608083015260a09091015290565b6040518060400160405280613d43613d50565b8152600060209091015290565b604051806101200160405280613d64613db1565b815260200160006001600160401b03168152602001600015158152602001600015158152602001600015158152602001606081526020016060815260200160608152602001606081525090565b604051806101200160405280606081526020016060815260200160006001600160a01b0316815260200160608152602001600015158152602001600060070b815260200160001515815260200160608152602001613cf0604080516060810182526000808252602082018190529181019190915290565b8035611d9481615e8e565b8051611d9481615e8e565b600082601f830112613e4e578081fd5b81516020613e63613e5e83615c2d565b615bfd565b8281528181019085830160a080860288018501891015613e81578687fd5b865b86811015613f0a5781838b031215613e99578788fd5b613ea1615b4c565b8351613eac81615ec3565b815283870151613ebb81615e8e565b81880152604084810151613ece81615ea6565b90820152606084810151613ee181615ea6565b90820152608084810151613ef481615e8e565b9082015285529385019391810191600101613e83565b509198975050505050505050565b600082601f830112613f28578081fd5b81516020613f38613e5e83615c2d565b8281528181019085830160c080860288018501891015613f56578687fd5b865b86811015613f0a5781838b031215613f6e578788fd5b613f76615b74565b8351613f8181615ec3565b815283870151613f9081615ec3565b81880152604084810151613fa381615ec3565b90820152606084810151613fb681615ec3565b90820152608084810151613fc981615ea6565b9082015260a084810151613fdc81615e8e565b9082015285529385019391810191600101613f58565b600082601f830112614002578081fd5b81356020614012613e5e83615c2d565b82815281810190858301606080860288018501891015614030578687fd5b865b86811015613f0a5781838b031215614048578788fd5b614050615b96565b833561405b81615e8e565b81528387013561406a81615e8e565b8188015260408481013561407d81615eb4565b9082015285529385019391810191600101614032565b600082601f8301126140a3578081fd5b815160206140b3613e5e83615c2d565b8281528181019085830160c0808602880185018910156140d1578687fd5b865b86811015613f0a5781838b0312156140e9578788fd5b6140f1615b74565b83516140fc81615ec3565b81528387015161410b81615ec3565b8188015260408481015161411e81615ec3565b9082015260608481015161413181615e8e565b9082015260808481015161414481615ea6565b9082015260a08481015161415781615e8e565b90820152855293850193918101916001016140d3565b600082601f83011261417d578081fd5b8151602061418d613e5e83615c2d565b80838252828201915082860187848660051b89010111156141ac578586fd5b855b8581101561422a5781516001600160401b03808211156141cc578889fd5b908901906040828c03601f19018113156141e457898afd5b6141ec615bb8565b838901518152908301519082821115614203578a8bfd5b6142118d8a84870101614451565b818a0152875250505092840192908401906001016141ae565b5090979650505050505050565b8051611d9481615ea6565b600082601f830112614252578081fd5b8135614260613e5e82615c50565b818152846020838601011115614274578283fd5b816020850160208301379081016020019190915292915050565b600082601f83011261429e578081fd5b81516142ac613e5e82615c50565b8181528460208386010111156142c0578283fd5b611240826020830160208701615ddb565b8051600381900b8114611d9457600080fd5b8051611d9481615eb4565b6000606082840312156142ff578081fd5b614307615b96565b9050815161431481615ec3565b8152602082015161432481615e8e565b6020820152604082015161433781615ec3565b604082015292915050565b60006101608284031215614354578081fd5b61435c615bda565b905081516001600160401b038082111561437557600080fd5b6143818583860161428e565b8352602084015191508082111561439757600080fd5b6143a38583860161428e565b60208401526143b460408501613e33565b604084015260608401519150808211156143cd57600080fd5b6143d98583860161428e565b60608401526143ea60808501614237565b60808401526143fb60a085016142e3565b60a084015261440c60c08501614237565b60c084015260e084015191508082111561442557600080fd5b506144328482850161416d565b60e083015250610100614447848285016142ee565b9082015292915050565b600060a08284031215614462578081fd5b61446a615b4c565b9050815161447781615ea6565b8152602082015161448781615e8e565b602082015260408201516001600160401b03808211156144a657600080fd5b6144b28583860161428e565b604084015260608401519150808211156144cb57600080fd5b506144d88482850161428e565b6060830152506144ea60808301613e33565b608082015292915050565b60006101208284031215614507578081fd5b61450f615bda565b905081516001600160401b038082111561452857600080fd5b61453485838601614342565b835261454260208501614618565b602084015261455360408501614237565b604084015261456460608501614237565b606084015261457560808501614237565b608084015260a084015191508082111561458e57600080fd5b61459a85838601613e3e565b60a084015260c08401519150808211156145b357600080fd5b6145bf85838601613f18565b60c084015260e08401519150808211156145d857600080fd5b6145e485838601614093565b60e0840152610100915081840151818111156145ff57600080fd5b61460b8682870161428e565b8385015250505092915050565b8051611d9481615ed5565b600060208284031215614634578081fd5b813561130d81615e8e565b60008060408385031215614651578081fd5b823561465c81615e8e565b9150602083013561466c81615e8e565b809150509250929050565b60008060006060848603121561468b578081fd5b833561469681615e8e565b925060208401356146a681615e8e565b915060408401356146b681615e8e565b809150509250925092565b600080600080608085870312156146d6578182fd5b84356146e181615e8e565b935060208501356146f181615e8e565b9250604085013561470181615e8e565b9150606085013561471181615eb4565b939692955090935050565b600080600060608486031215614730578081fd5b833561473b81615e8e565b925060208481013561474c81615e8e565b925060408501356001600160401b03811115614766578283fd5b8501601f81018713614776578283fd5b8035614784613e5e82615c2d565b8082825284820191508484018a868560051b87010111156147a3578687fd5b8694505b838510156147ce5780356147ba81615eb4565b8352600194909401939185019185016147a7565b5080955050505050509250925092565b6000806000606084860312156147f2578081fd5b83356147fd81615e8e565b9250602084013561480d81615e8e565b915060408401356146b681615ea6565b600080600060608486031215614831578081fd5b833561483c81615e8e565b9250602084013561484c81615e8e565b915060408401356146b681615eb4565b600080600060608486031215614870578081fd5b833561487b81615e8e565b9250602084013561488b81615e8e565b929592945050506040919091013590565b6000806000606084860312156148b0578081fd5b83356148bb81615e8e565b925060208401356148cb81615e8e565b915060408401356146b681615ec3565b600080604083850312156148ed578182fd5b6148f78335615e8e565b823591506001600160401b038060208501351115614913578182fd5b6020840135840185601f820112614928578283fd5b614935613e5e8235615c2d565b808235825260208201915060208301886020853560051b8601011115614959578586fd5b855b8435811015614a6f578582351115614971578687fd5b81358501601f196040828d0382011215614989578889fd5b614991615bb8565b6020830135815288604084013511156149a857898afd5b60408301358301925060a082848f030112156149c257898afd5b6149ca615b4c565b91506149d96020840135615ea6565b602083013582526149ec60408401613e28565b60208301528860608401351115614a0157898afd5b614a148d60206060860135860101614242565b60408301528860808401351115614a2957898afd5b614a3c8d60206080860135860101614242565b6060830152614a4d60a08401613e28565b608083015260208181019290925286529485019492909201915060010161495b565b50959890975095505050505050565b60008060408385031215614a90578182fd5b8235614a9b81615e8e565b9150602083013561466c81615eb4565b6000808284036080811215614abe578283fd5b8335614ac981615e8e565b92506060601f1982011215614adc578182fd5b50614ae5615b96565b6020840135614af381615ec3565b81526040840135614b0381615e8e565b60208201526060840135614b1681615ec3565b6040820152919491935090915050565b60008060408385031215614b38578182fd5b8235614b4381615e8e565b946020939093013593505050565b600080600060608486031215614b65578081fd5b8335614b7081615e8e565b9250602084810135614b8181615ed5565b925060408501356001600160401b0380821115614b9c578384fd5b818701915087601f830112614baf578384fd5b8135614bbd613e5e82615c2d565b8082825285820191508585018b878560051b8801011115614bdc578788fd5b875b84811015614c1557813586811115614bf457898afd5b614c028e8a838b0101614242565b8552509287019290870190600101614bde565b50508096505050505050509250925092565b60008060208385031215614c39578182fd5b82356001600160401b0380821115614c4f578384fd5b818501915085601f830112614c62578384fd5b813581811115614c70578485fd5b8660208260051b8501011115614c84578485fd5b60209290920196919550909350505050565b600060208284031215614ca7578081fd5b813561130d81615ea6565b600060208284031215614cc3578081fd5b5051919050565b60008060808385031215614cdc578182fd5b82519150614ced84602085016142ee565b90509250929050565b600060208284031215614d07578081fd5b61130d826142d1565b60008060408385031215614d22578182fd5b614d2b836142d1565b9150602083015161466c81615e8e565b60008060008060808587031215614d50578182fd5b614d59856142d1565b935060208501516001600160401b0380821115614d74578384fd5b614d8088838901613e3e565b94506040870151915080821115614d95578384fd5b614da188838901613f18565b93506060870151915080821115614db6578283fd5b50614dc387828801614093565b91505092959194509250565b60008060408385031215614de1578182fd5b614dea836142d1565b9150602083015161466c81615ea6565b60008060408385031215614e0c578182fd5b614e15836142d1565b9150614ced602084016142d1565b60008060808385031215614e35578182fd5b614e3e836142d1565b9150614ced84602085016142ee565b60008060408385031215614e5f578182fd5b614e68836142d1565b915060208301516001600160401b0380821115614e83578283fd5b9084019060408287031215614e96578283fd5b614e9e615bb8565b825182811115614eac578485fd5b614eb8888286016144f5565b82525060208301519250614ecb83615ec3565b8260208201528093505050509250929050565b60008060408385031215614ef0578182fd5b614ef9836142d1565b915060208301516001600160401b03811115614f13578182fd5b614f1f85828601614451565b9150509250929050565b60008060408385031215614f3b578182fd5b614f44836142d1565b915060208301516001600160401b0380821115614f5f578283fd5b9084019060c08287031215614f72578283fd5b614f7a615b74565b825182811115614f88578485fd5b614f94888286016144f5565b825250614fa3602084016142e3565b6020820152614fb460408401613e33565b6040820152614fc5606084016142e3565b6060820152608083015182811115614fdb578485fd5b614fe78882860161428e565b608083015250614ff960a08401613e33565b60a08201528093505050509250929050565b6000806040838503121561501d578182fd5b615026836142d1565b915060208301516001600160401b03811115615040578182fd5b614f1f858286016144f5565b6000806040838503121561505e578182fd5b615067836142d1565b9150602083015190509250929050565b60008060006060848603121561508b578081fd5b615094846142d1565b92506020808501516150a581615ed5565b60408601519093506001600160401b038111156150c0578283fd5b8501601f810187136150d0578283fd5b80516150de613e5e82615c2d565b8082825284820191508484018a868560051b87010111156150fd578687fd5b8694505b838510156147ce57805161511481615eb4565b835260019490940193918501918501615101565b600060208284031215615139578081fd5b815161130d81615eb4565b60008060408385031215615156578182fd5b825161516181615eb4565b602084015190925061466c81615ea6565b6000815180845260208085019450808401835b838110156151a457815160070b87529582019590820190600101615185565b509495945050505050565b6000815180845260208085019450808401835b838110156151a4578151805163ffffffff168852838101516001600160a01b03908116858a01526040808301511515908a01526060808301511515908a0152608091820151169088015260a090960195908201906001016151c2565b6000815180845260208085019450808401835b838110156151a4578151805163ffffffff9081168952848201518116858a01526040808301518216908a01526060808301519091169089015260808082015115159089015260a0908101516001600160a01b03169088015260c09096019590820190600101615231565b6000815180845260208085019450808401835b838110156151a457815180516001600160a01b03908116895284820151168489015260409081015160070b90880152606090960195908201906001016152ae565b6000815180845260208085019450808401835b838110156151a4578151805163ffffffff9081168952848201518116858a0152604080830151909116908901526060808201516001600160a01b03908116918a01919091526080808301511515908a015260a091820151169088015260c09096019590820190600101615302565b600081518084526020808501808196508360051b81019150828601855b858110156153cb57828403895281518051855285015160408686018190526153b78187018361553a565b9a87019a955050509084019060010161538d565b5091979650505050505050565b600081518084526153f0816020860160208601615ddb565b601f01601f19169290920160200192915050565b805163ffffffff90811683526020808301516001600160a01b03169084015260409182015116910152565b6000815160408452615444604085018261561c565b60209384015163ffffffff16949093019390935250919050565b60006101608251818552615474828601826153d8565b9150506020830151848203602086015261548e82826153d8565b91505060408301516154ab60408601826001600160a01b03169052565b50606083015184820360608601526154c382826153d8565b91505060808301516154d9608086018215159052565b5060a08301516154ee60a086018260070b9052565b5060c083015161550260c086018215159052565b5060e083015184820360e086015261551a8282615370565b9150506101008084015161553082870182615404565b5090949350505050565b8051151582526000602082015160018060a01b0380821660208601526040840151915060a0604086015261557160a08601836153d8565b91506060840151858303606087015261558a83826153d8565b925050806080850151166080860152508091505092915050565b6000815160c084526155b960c085018261561c565b9050602083015160070b6020850152604083015160018060a01b038082166040870152606085015160070b606087015260808501519150858303608087015261560283836153d8565b92508060a08601511660a087015250508091505092915050565b600061012082518185526156328286018261545e565b915050602083015161564f60208601826001600160401b03169052565b506040830151615663604086018215159052565b506060830151615677606086018215159052565b50608083015161568b608086018215159052565b5060a083015184820360a08601526156a382826151af565b91505060c083015184820360c08601526156bd828261521e565b91505060e083015184820360e08601526156d782826152ef565b91505061010080840151858303828701526156f283826153d8565b9695505050505050565b6000825161570e818460208701615ddb565b9190910192915050565b6001600160a01b0392831681529116602082015260400190565b6001600160a01b0384811682528316602082015260606040820181905260009061575e90830184615172565b95945050505050565b6001600160a01b038316815260406020820181905260009061124090830184615370565b6001600160a01b03831681526080810161130d6020830184615404565b60006060820160018060a01b038616835260206001600160401b038616818501526060604085015281855180845260808601915060808160051b8701019350828701855b8281101561581a57607f198887030184526158088683516153d8565b955092840192908401906001016157ec565b50939998505050505050505050565b60608152600061583c60608301866151af565b828103602084015261584e818661521e565b905082810360408401526156f281856152ef565b60006020808301818452808551808352604092508286019150828160051b870101848801865b8381101561592757888303603f19018552815180516001600160a01b0390811685528882015160608a870181905281519087018190526080870192918b0191908c905b808210156158f95783518051841686528d015160070b8d860152938b0193928c0192600191909101906158cb565b50505050908701518482038589015290615913818361529b565b968901969450505090860190600101615888565b509098975050505050505050565b8281526080810161130d6020830184615404565b828152604060208201526000611240604083018461542f565b82815260406020820152600061124060408301846155a4565b828152604060208201526000611240604083018461561c565b8381526001600160401b038316602082015260606040820152600061575e6060830184615172565b8460070b81526080602082015260006159d860808301866151af565b82810360408401526159ea818661521e565b905082810360608401526159fe81856152ef565b979650505050505050565b8260070b8152604060208201526000611240604083018461553a565b606081016109ae8284615404565b60208152600061130d602083018461542f565b60208152600061130d602083018461545e565b606081526000615a6c606083018661545e565b90506001600160401b038416602083015263ffffffff83166040830152949350505050565b60a081526000615aa460a083018861545e565b6001600160401b038716602084015263ffffffff861660408401528281036060840152615ad181866151af565b90508281036080840152615ae5818561521e565b98975050505050505050565b60208152600061130d602083018461553a565b60208152600061130d60208301846155a4565b60208152600061130d602083018461561c565b6001600160401b03831681526040602082015260006112406040830184615172565b60405160a081016001600160401b0381118282101715615b6e57615b6e615e78565b60405290565b60405160c081016001600160401b0381118282101715615b6e57615b6e615e78565b604051606081016001600160401b0381118282101715615b6e57615b6e615e78565b604080519081016001600160401b0381118282101715615b6e57615b6e615e78565b60405161012081016001600160401b0381118282101715615b6e57615b6e615e78565b604051601f8201601f191681016001600160401b0381118282101715615c2557615c25615e78565b604052919050565b60006001600160401b03821115615c4657615c46615e78565b5060051b60200190565b60006001600160401b03821115615c6957615c69615e78565b50601f01601f191660200190565b6000615c85613e5e84615c2d565b808482526020808301925084368760051b87011115615ca2578485fd5b845b87811015615dcf5781356001600160401b0380821115615cc2578788fd5b818901915060608236031215615cd6578788fd5b615cde615b96565b8235615ce981615e8e565b81528286013582811115615cfb57898afd5b830136601f820112615d0b57898afd5b8035615d19613e5e82615c2d565b81815288810190838a0136600685901b86018c011115615d37578d8efd5b8d94505b83851015615d8c576040808236031215615d53578e8ffd5b615d5b615bb8565b8235615d6681615e8e565b8152828d0135615d7581615eb4565b818e0152845260019590950194928b019201615d3b565b50848a01525060409150508381013583811115615da7578a8bfd5b615db336828701613ff2565b9183019190915250875250509382019390820190600101615ca4565b50919695505050505050565b60005b83811015615df6578181015183820152602001615dde565b83811115615e05576000848401525b50505050565b600181811c90821680615e1f57607f821691505b60208210811415615e4057634e487b7160e01b600052602260045260246000fd5b50919050565b60008160070b677fffffffffffffff19811415615e7157634e487b7160e01b82526011600452602482fd5b9003919050565b634e487b7160e01b600052604160045260246000fd5b6001600160a01b0381168114615ea357600080fd5b50565b8015158114615ea357600080fd5b8060070b8114615ea357600080fd5b63ffffffff81168114615ea357600080fd5b6001600160401b0381168114615ea357600080fdfe90a5cf4cffe88b4edbb041cfc7a8a812c48a5ec30b84640fb37690875168e3aaa2646970667358221220ad9eecf15f6e370288b692a10069eb1efc641b86722203ac73936d4323e7d6ea64736f6c63430008040033",
  "linkReferences": {},
  "deployedLinkReferences": {}
}