{
  "_format": "hh-sol-artifact-1",
  "contractName": "BaseHTS",
  "sourceName": "contracts/BaseHTS.sol",
  "abi": [
    {
      "anonymous": false,
      "inputs": [
        {
          "indexed": false,
          "internalType": "uint256",
          "name": "amount",
          "type": "uint256"
        }
      ],
      "name": "AllowanceValue",
      "type": "event"
    },
    {
      "anonymous": false,
      "inputs": [
        {
          "indexed": false,
          "internalType": "bool",
          "name": "approved",
          "type": "bool"
        }
      ],
      "name": "Approved",
      "type": "event"
    },
    {
      "anonymous": false,
      "inputs": [
        {
          "indexed": false,
          "internalType": "address",
          "name": "approved",
          "type": "address"
        }
      ],
      "name": "ApprovedAddress",
      "type": "event"
    },
    {
      "anonymous": false,
      "inputs": [
        {
          "indexed": false,
          "internalType": "address",
          "name": "tokenAddress",
          "type": "address"
        }
      ],
      "name": "CreatedToken",
      "type": "event"
    },
    {
      "anonymous": false,
      "inputs": [
        {
          "indexed": false,
          "internalType": "bool",
          "name": "freezeStatus",
          "type": "bool"
        }
      ],
      "name": "DefaultFreezeStatusChanged",
      "type": "event"
    },
    {
      "anonymous": false,
      "inputs": [
        {
          "indexed": false,
          "internalType": "bool",
          "name": "frozen",
          "type": "bool"
        }
      ],
      "name": "Frozen",
      "type": "event"
    },
    {
      "anonymous": false,
      "inputs": [
        {
          "components": [
            {
              "components": [
                {
                  "components": [
                    {
                      "internalType": "string",
                      "name": "name",
                      "type": "string"
                    },
                    {
                      "internalType": "string",
                      "name": "symbol",
                      "type": "string"
                    },
                    {
                      "internalType": "address",
                      "name": "treasury",
                      "type": "address"
                    },
                    {
                      "internalType": "string",
                      "name": "memo",
                      "type": "string"
                    },
                    {
                      "internalType": "bool",
                      "name": "tokenSupplyType",
                      "type": "bool"
                    },
                    {
                      "internalType": "uint32",
                      "name": "maxSupply",
                      "type": "uint32"
                    },
                    {
                      "internalType": "bool",
                      "name": "freezeDefault",
                      "type": "bool"
                    },
                    {
                      "components": [
                        {
                          "internalType": "uint256",
                          "name": "keyType",
                          "type": "uint256"
                        },
                        {
                          "components": [
                            {
                              "internalType": "bool",
                              "name": "inheritAccountKey",
                              "type": "bool"
                            },
                            {
                              "internalType": "address",
                              "name": "contractId",
                              "type": "address"
                            },
                            {
                              "internalType": "bytes",
                              "name": "ed25519",
                              "type": "bytes"
                            },
                            {
                              "internalType": "bytes",
                              "name": "ECDSA_secp256k1",
                              "type": "bytes"
                            },
                            {
                              "internalType": "address",
                              "name": "delegatableContractId",
                              "type": "address"
                            }
                          ],
                          "internalType": "struct IHederaTokenService.KeyValue",
                          "name": "key",
                          "type": "tuple"
                        }
                      ],
                      "internalType": "struct IHederaTokenService.TokenKey[]",
                      "name": "tokenKeys",
                      "type": "tuple[]"
                    },
                    {
                      "components": [
                        {
                          "internalType": "uint32",
                          "name": "second",
                          "type": "uint32"
                        },
                        {
                          "internalType": "address",
                          "name": "autoRenewAccount",
                          "type": "address"
                        },
                        {
                          "internalType": "uint32",
                          "name": "autoRenewPeriod",
                          "type": "uint32"
                        }
                      ],
                      "internalType": "struct IHederaTokenService.Expiry",
                      "name": "expiry",
                      "type": "tuple"
                    }
                  ],
                  "internalType": "struct IHederaTokenService.HederaToken",
                  "name": "token",
                  "type": "tuple"
                },
                {
                  "internalType": "uint64",
                  "name": "totalSupply",
                  "type": "uint64"
                },
                {
                  "internalType": "bool",
                  "name": "deleted",
                  "type": "bool"
                },
                {
                  "internalType": "bool",
                  "name": "defaultKycStatus",
                  "type": "bool"
                },
                {
                  "internalType": "bool",
                  "name": "pauseStatus",
                  "type": "bool"
                },
                {
                  "components": [
                    {
                      "internalType": "uint32",
                      "name": "amount",
                      "type": "uint32"
                    },
                    {
                      "internalType": "address",
                      "name": "tokenId",
                      "type": "address"
                    },
                    {
                      "internalType": "bool",
                      "name": "useHbarsForPayment",
                      "type": "bool"
                    },
                    {
                      "internalType": "bool",
                      "name": "useCurrentTokenForPayment",
                      "type": "bool"
                    },
                    {
                      "internalType": "address",
                      "name": "feeCollector",
                      "type": "address"
                    }
                  ],
                  "internalType": "struct IHederaTokenService.FixedFee[]",
                  "name": "fixedFees",
                  "type": "tuple[]"
                },
                {
                  "components": [
                    {
                      "internalType": "uint32",
                      "name": "numerator",
                      "type": "uint32"
                    },
                    {
                      "internalType": "uint32",
                      "name": "denominator",
                      "type": "uint32"
                    },
                    {
                      "internalType": "uint32",
                      "name": "minimumAmount",
                      "type": "uint32"
                    },
                    {
                      "internalType": "uint32",
                      "name": "maximumAmount",
                      "type": "uint32"
                    },
                    {
                      "internalType": "bool",
                      "name": "netOfTransfers",
                      "type": "bool"
                    },
                    {
                      "internalType": "address",
                      "name": "feeCollector",
                      "type": "address"
                    }
                  ],
                  "internalType": "struct IHederaTokenService.FractionalFee[]",
                  "name": "fractionalFees",
                  "type": "tuple[]"
                },
                {
                  "components": [
                    {
                      "internalType": "uint32",
                      "name": "numerator",
                      "type": "uint32"
                    },
                    {
                      "internalType": "uint32",
                      "name": "denominator",
                      "type": "uint32"
                    },
                    {
                      "internalType": "uint32",
                      "name": "amount",
                      "type": "uint32"
                    },
                    {
                      "internalType": "address",
                      "name": "tokenId",
                      "type": "address"
                    },
                    {
                      "internalType": "bool",
                      "name": "useHbarsForPayment",
                      "type": "bool"
                    },
                    {
                      "internalType": "address",
                      "name": "feeCollector",
                      "type": "address"
                    }
                  ],
                  "internalType": "struct IHederaTokenService.RoyaltyFee[]",
                  "name": "royaltyFees",
                  "type": "tuple[]"
                },
                {
                  "internalType": "string",
                  "name": "ledgerId",
                  "type": "string"
                }
              ],
              "internalType": "struct IHederaTokenService.TokenInfo",
              "name": "tokenInfo",
              "type": "tuple"
            },
            {
              "internalType": "uint32",
              "name": "decimals",
              "type": "uint32"
            }
          ],
          "indexed": false,
          "internalType": "struct IHederaTokenService.FungibleTokenInfo",
          "name": "tokenInfo",
          "type": "tuple"
        }
      ],
      "name": "FungibleTokenInfo",
      "type": "event"
    },
    {
      "anonymous": false,
      "inputs": [
        {
          "indexed": false,
          "internalType": "bool",
          "name": "kycGranted",
          "type": "bool"
        }
      ],
      "name": "KycGranted",
      "type": "event"
    },
    {
      "anonymous": false,
      "inputs": [
        {
          "indexed": false,
          "internalType": "uint64",
          "name": "newTotalSupply",
          "type": "uint64"
        },
        {
          "indexed": false,
          "internalType": "int64[]",
          "name": "serialNumbers",
          "type": "int64[]"
        }
      ],
      "name": "MintedToken",
      "type": "event"
    },
    {
      "anonymous": false,
      "inputs": [
        {
          "components": [
            {
              "components": [
                {
                  "components": [
                    {
                      "internalType": "string",
                      "name": "name",
                      "type": "string"
                    },
                    {
                      "internalType": "string",
                      "name": "symbol",
                      "type": "string"
                    },
                    {
                      "internalType": "address",
                      "name": "treasury",
                      "type": "address"
                    },
                    {
                      "internalType": "string",
                      "name": "memo",
                      "type": "string"
                    },
                    {
                      "internalType": "bool",
                      "name": "tokenSupplyType",
                      "type": "bool"
                    },
                    {
                      "internalType": "uint32",
                      "name": "maxSupply",
                      "type": "uint32"
                    },
                    {
                      "internalType": "bool",
                      "name": "freezeDefault",
                      "type": "bool"
                    },
                    {
                      "components": [
                        {
                          "internalType": "uint256",
                          "name": "keyType",
                          "type": "uint256"
                        },
                        {
                          "components": [
                            {
                              "internalType": "bool",
                              "name": "inheritAccountKey",
                              "type": "bool"
                            },
                            {
                              "internalType": "address",
                              "name": "contractId",
                              "type": "address"
                            },
                            {
                              "internalType": "bytes",
                              "name": "ed25519",
                              "type": "bytes"
                            },
                            {
                              "internalType": "bytes",
                              "name": "ECDSA_secp256k1",
                              "type": "bytes"
                            },
                            {
                              "internalType": "address",
                              "name": "delegatableContractId",
                              "type": "address"
                            }
                          ],
                          "internalType": "struct IHederaTokenService.KeyValue",
                          "name": "key",
                          "type": "tuple"
                        }
                      ],
                      "internalType": "struct IHederaTokenService.TokenKey[]",
                      "name": "tokenKeys",
                      "type": "tuple[]"
                    },
                    {
                      "components": [
                        {
                          "internalType": "uint32",
                          "name": "second",
                          "type": "uint32"
                        },
                        {
                          "internalType": "address",
                          "name": "autoRenewAccount",
                          "type": "address"
                        },
                        {
                          "internalType": "uint32",
                          "name": "autoRenewPeriod",
                          "type": "uint32"
                        }
                      ],
                      "internalType": "struct IHederaTokenService.Expiry",
                      "name": "expiry",
                      "type": "tuple"
                    }
                  ],
                  "internalType": "struct IHederaTokenService.HederaToken",
                  "name": "token",
                  "type": "tuple"
                },
                {
                  "internalType": "uint64",
                  "name": "totalSupply",
                  "type": "uint64"
                },
                {
                  "internalType": "bool",
                  "name": "deleted",
                  "type": "bool"
                },
                {
                  "internalType": "bool",
                  "name": "defaultKycStatus",
                  "type": "bool"
                },
                {
                  "internalType": "bool",
                  "name": "pauseStatus",
                  "type": "bool"
                },
                {
                  "components": [
                    {
                      "internalType": "uint32",
                      "name": "amount",
                      "type": "uint32"
                    },
                    {
                      "internalType": "address",
                      "name": "tokenId",
                      "type": "address"
                    },
                    {
                      "internalType": "bool",
                      "name": "useHbarsForPayment",
                      "type": "bool"
                    },
                    {
                      "internalType": "bool",
                      "name": "useCurrentTokenForPayment",
                      "type": "bool"
                    },
                    {
                      "internalType": "address",
                      "name": "feeCollector",
                      "type": "address"
                    }
                  ],
                  "internalType": "struct IHederaTokenService.FixedFee[]",
                  "name": "fixedFees",
                  "type": "tuple[]"
                },
                {
                  "components": [
                    {
                      "internalType": "uint32",
                      "name": "numerator",
                      "type": "uint32"
                    },
                    {
                      "internalType": "uint32",
                      "name": "denominator",
                      "type": "uint32"
                    },
                    {
                      "internalType": "uint32",
                      "name": "minimumAmount",
                      "type": "uint32"
                    },
                    {
                      "internalType": "uint32",
                      "name": "maximumAmount",
                      "type": "uint32"
                    },
                    {
                      "internalType": "bool",
                      "name": "netOfTransfers",
                      "type": "bool"
                    },
                    {
                      "internalType": "address",
                      "name": "feeCollector",
                      "type": "address"
                    }
                  ],
                  "internalType": "struct IHederaTokenService.FractionalFee[]",
                  "name": "fractionalFees",
                  "type": "tuple[]"
                },
                {
                  "components": [
                    {
                      "internalType": "uint32",
                      "name": "numerator",
                      "type": "uint32"
                    },
                    {
                      "internalType": "uint32",
                      "name": "denominator",
                      "type": "uint32"
                    },
                    {
                      "internalType": "uint32",
                      "name": "amount",
                      "type": "uint32"
                    },
                    {
                      "internalType": "address",
                      "name": "tokenId",
                      "type": "address"
                    },
                    {
                      "internalType": "bool",
                      "name": "useHbarsForPayment",
                      "type": "bool"
                    },
                    {
                      "internalType": "address",
                      "name": "feeCollector",
                      "type": "address"
                    }
                  ],
                  "internalType": "struct IHederaTokenService.RoyaltyFee[]",
                  "name": "royaltyFees",
                  "type": "tuple[]"
                },
                {
                  "internalType": "string",
                  "name": "ledgerId",
                  "type": "string"
                }
              ],
              "internalType": "struct IHederaTokenService.TokenInfo",
              "name": "tokenInfo",
              "type": "tuple"
            },
            {
              "internalType": "int64",
              "name": "serialNumber",
              "type": "int64"
            },
            {
              "internalType": "address",
              "name": "ownerId",
              "type": "address"
            },
            {
              "internalType": "int64",
              "name": "creationTime",
              "type": "int64"
            },
            {
              "internalType": "bytes",
              "name": "metadata",
              "type": "bytes"
            },
            {
              "internalType": "address",
              "name": "spenderId",
              "type": "address"
            }
          ],
          "indexed": false,
          "internalType": "struct IHederaTokenService.NonFungibleTokenInfo",
          "name": "tokenInfo",
          "type": "tuple"
        }
      ],
      "name": "NonFungibleTokenInfo",
      "type": "event"
    },
    {
      "anonymous": false,
      "inputs": [
        {
          "indexed": false,
          "internalType": "bool",
          "name": "paused",
          "type": "bool"
        }
      ],
      "name": "PausedToken",
      "type": "event"
    },
    {
      "anonymous": false,
      "inputs": [
        {
          "indexed": false,
          "internalType": "int256",
          "name": "responseCode",
          "type": "int256"
        }
      ],
      "name": "ResponseCode",
      "type": "event"
    },
    {
      "anonymous": false,
      "inputs": [
        {
          "components": [
            {
              "internalType": "uint32",
              "name": "amount",
              "type": "uint32"
            },
            {
              "internalType": "address",
              "name": "tokenId",
              "type": "address"
            },
            {
              "internalType": "bool",
              "name": "useHbarsForPayment",
              "type": "bool"
            },
            {
              "internalType": "bool",
              "name": "useCurrentTokenForPayment",
              "type": "bool"
            },
            {
              "internalType": "address",
              "name": "feeCollector",
              "type": "address"
            }
          ],
          "indexed": false,
          "internalType": "struct IHederaTokenService.FixedFee[]",
          "name": "fixedFees",
          "type": "tuple[]"
        },
        {
          "components": [
            {
              "internalType": "uint32",
              "name": "numerator",
              "type": "uint32"
            },
            {
              "internalType": "uint32",
              "name": "denominator",
              "type": "uint32"
            },
            {
              "internalType": "uint32",
              "name": "minimumAmount",
              "type": "uint32"
            },
            {
              "internalType": "uint32",
              "name": "maximumAmount",
              "type": "uint32"
            },
            {
              "internalType": "bool",
              "name": "netOfTransfers",
              "type": "bool"
            },
            {
              "internalType": "address",
              "name": "feeCollector",
              "type": "address"
            }
          ],
          "indexed": false,
          "internalType": "struct IHederaTokenService.FractionalFee[]",
          "name": "fractionalFees",
          "type": "tuple[]"
        },
        {
          "components": [
            {
              "internalType": "uint32",
              "name": "numerator",
              "type": "uint32"
            },
            {
              "internalType": "uint32",
              "name": "denominator",
              "type": "uint32"
            },
            {
              "internalType": "uint32",
              "name": "amount",
              "type": "uint32"
            },
            {
              "internalType": "address",
              "name": "tokenId",
              "type": "address"
            },
            {
              "internalType": "bool",
              "name": "useHbarsForPayment",
              "type": "bool"
            },
            {
              "internalType": "address",
              "name": "feeCollector",
              "type": "address"
            }
          ],
          "indexed": false,
          "internalType": "struct IHederaTokenService.RoyaltyFee[]",
          "name": "royaltyFees",
          "type": "tuple[]"
        }
      ],
      "name": "TokenCustomFees",
      "type": "event"
    },
    {
      "anonymous": false,
      "inputs": [
        {
          "indexed": false,
          "internalType": "bool",
          "name": "defaultFreezeStatus",
          "type": "bool"
        }
      ],
      "name": "TokenDefaultFreezeStatus",
      "type": "event"
    },
    {
      "anonymous": false,
      "inputs": [
        {
          "indexed": false,
          "internalType": "bool",
          "name": "defaultKycStatus",
          "type": "bool"
        }
      ],
      "name": "TokenDefaultKycStatus",
      "type": "event"
    },
    {
      "anonymous": false,
      "inputs": [
        {
          "components": [
            {
              "internalType": "uint32",
              "name": "second",
              "type": "uint32"
            },
            {
              "internalType": "address",
              "name": "autoRenewAccount",
              "type": "address"
            },
            {
              "internalType": "uint32",
              "name": "autoRenewPeriod",
              "type": "uint32"
            }
          ],
          "indexed": false,
          "internalType": "struct IHederaTokenService.Expiry",
          "name": "expiryInfo",
          "type": "tuple"
        }
      ],
      "name": "TokenExpiryInfo",
      "type": "event"
    },
    {
      "anonymous": false,
      "inputs": [
        {
          "components": [
            {
              "components": [
                {
                  "internalType": "string",
                  "name": "name",
                  "type": "string"
                },
                {
                  "internalType": "string",
                  "name": "symbol",
                  "type": "string"
                },
                {
                  "internalType": "address",
                  "name": "treasury",
                  "type": "address"
                },
                {
                  "internalType": "string",
                  "name": "memo",
                  "type": "string"
                },
                {
                  "internalType": "bool",
                  "name": "tokenSupplyType",
                  "type": "bool"
                },
                {
                  "internalType": "uint32",
                  "name": "maxSupply",
                  "type": "uint32"
                },
                {
                  "internalType": "bool",
                  "name": "freezeDefault",
                  "type": "bool"
                },
                {
                  "components": [
                    {
                      "internalType": "uint256",
                      "name": "keyType",
                      "type": "uint256"
                    },
                    {
                      "components": [
                        {
                          "internalType": "bool",
                          "name": "inheritAccountKey",
                          "type": "bool"
                        },
                        {
                          "internalType": "address",
                          "name": "contractId",
                          "type": "address"
                        },
                        {
                          "internalType": "bytes",
                          "name": "ed25519",
                          "type": "bytes"
                        },
                        {
                          "internalType": "bytes",
                          "name": "ECDSA_secp256k1",
                          "type": "bytes"
                        },
                        {
                          "internalType": "address",
                          "name": "delegatableContractId",
                          "type": "address"
                        }
                      ],
                      "internalType": "struct IHederaTokenService.KeyValue",
                      "name": "key",
                      "type": "tuple"
                    }
                  ],
                  "internalType": "struct IHederaTokenService.TokenKey[]",
                  "name": "tokenKeys",
                  "type": "tuple[]"
                },
                {
                  "components": [
                    {
                      "internalType": "uint32",
                      "name": "second",
                      "type": "uint32"
                    },
                    {
                      "internalType": "address",
                      "name": "autoRenewAccount",
                      "type": "address"
                    },
                    {
                      "internalType": "uint32",
                      "name": "autoRenewPeriod",
                      "type": "uint32"
                    }
                  ],
                  "internalType": "struct IHederaTokenService.Expiry",
                  "name": "expiry",
                  "type": "tuple"
                }
              ],
              "internalType": "struct IHederaTokenService.HederaToken",
              "name": "token",
              "type": "tuple"
            },
            {
              "internalType": "uint64",
              "name": "totalSupply",
              "type": "uint64"
            },
            {
              "internalType": "bool",
              "name": "deleted",
              "type": "bool"
            },
            {
              "internalType": "bool",
              "name": "defaultKycStatus",
              "type": "bool"
            },
            {
              "internalType": "bool",
              "name": "pauseStatus",
              "type": "bool"
            },
            {
              "components": [
                {
                  "internalType": "uint32",
                  "name": "amount",
                  "type": "uint32"
                },
                {
                  "internalType": "address",
                  "name": "tokenId",
                  "type": "address"
                },
                {
                  "internalType": "bool",
                  "name": "useHbarsForPayment",
                  "type": "bool"
                },
                {
                  "internalType": "bool",
                  "name": "useCurrentTokenForPayment",
                  "type": "bool"
                },
                {
                  "internalType": "address",
                  "name": "feeCollector",
                  "type": "address"
                }
              ],
              "internalType": "struct IHederaTokenService.FixedFee[]",
              "name": "fixedFees",
              "type": "tuple[]"
            },
            {
              "components": [
                {
                  "internalType": "uint32",
                  "name": "numerator",
                  "type": "uint32"
                },
                {
                  "internalType": "uint32",
                  "name": "denominator",
                  "type": "uint32"
                },
                {
                  "internalType": "uint32",
                  "name": "minimumAmount",
                  "type": "uint32"
                },
                {
                  "internalType": "uint32",
                  "name": "maximumAmount",
                  "type": "uint32"
                },
                {
                  "internalType": "bool",
                  "name": "netOfTransfers",
                  "type": "bool"
                },
                {
                  "internalType": "address",
                  "name": "feeCollector",
                  "type": "address"
                }
              ],
              "internalType": "struct IHederaTokenService.FractionalFee[]",
              "name": "fractionalFees",
              "type": "tuple[]"
            },
            {
              "components": [
                {
                  "internalType": "uint32",
                  "name": "numerator",
                  "type": "uint32"
                },
                {
                  "internalType": "uint32",
                  "name": "denominator",
                  "type": "uint32"
                },
                {
                  "internalType": "uint32",
                  "name": "amount",
                  "type": "uint32"
                },
                {
                  "internalType": "address",
                  "name": "tokenId",
                  "type": "address"
                },
                {
                  "internalType": "bool",
                  "name": "useHbarsForPayment",
                  "type": "bool"
                },
                {
                  "internalType": "address",
                  "name": "feeCollector",
                  "type": "address"
                }
              ],
              "internalType": "struct IHederaTokenService.RoyaltyFee[]",
              "name": "royaltyFees",
              "type": "tuple[]"
            },
            {
              "internalType": "string",
              "name": "ledgerId",
              "type": "string"
            }
          ],
          "indexed": false,
          "internalType": "struct IHederaTokenService.TokenInfo",
          "name": "tokenInfo",
          "type": "tuple"
        }
      ],
      "name": "TokenInfo",
      "type": "event"
    },
    {
      "anonymous": false,
      "inputs": [
        {
          "indexed": false,
          "internalType": "bool",
          "name": "unpaused",
          "type": "bool"
        }
      ],
      "name": "UnpausedToken",
      "type": "event"
    },
    {
      "inputs": [
        {
          "internalType": "address",
          "name": "token",
          "type": "address"
        },
        {
          "internalType": "address",
          "name": "owner",
          "type": "address"
        },
        {
          "internalType": "address",
          "name": "spender",
          "type": "address"
        }
      ],
      "name": "allowancePublic",
      "outputs": [
        {
          "internalType": "int256",
          "name": "responseCode",
          "type": "int256"
        },
        {
          "internalType": "uint256",
          "name": "amount",
          "type": "uint256"
        }
      ],
      "stateMutability": "nonpayable",
      "type": "function"
    },
    {
      "inputs": [
        {
          "internalType": "address",
          "name": "token",
          "type": "address"
        },
        {
          "internalType": "address",
          "name": "spender",
          "type": "address"
        },
        {
          "internalType": "uint256",
          "name": "amount",
          "type": "uint256"
        }
      ],
      "name": "approvePublic",
      "outputs": [
        {
          "internalType": "int256",
          "name": "responseCode",
          "type": "int256"
        }
      ],
      "stateMutability": "nonpayable",
      "type": "function"
    },
    {
      "inputs": [
        {
          "internalType": "address",
          "name": "account",
          "type": "address"
        },
        {
          "internalType": "address",
          "name": "token",
          "type": "address"
        }
      ],
      "name": "associateTokenPublic",
      "outputs": [
        {
          "internalType": "int256",
          "name": "responseCode",
          "type": "int256"
        }
      ],
      "stateMutability": "nonpayable",
      "type": "function"
    },
    {
      "inputs": [
        {
          "internalType": "address",
          "name": "treasury",
          "type": "address"
        }
      ],
      "name": "createFungibleTokenPublic",
      "outputs": [],
      "stateMutability": "payable",
      "type": "function"
    },
    {
      "inputs": [
        {
          "internalType": "address",
          "name": "treasury",
          "type": "address"
        },
        {
          "internalType": "address",
          "name": "fixedFeeTokenAddress",
          "type": "address"
        }
      ],
      "name": "createFungibleTokenWithCustomFeesPublic",
      "outputs": [],
      "stateMutability": "payable",
      "type": "function"
    },
    {
      "inputs": [
        {
          "internalType": "address",
          "name": "treasury",
          "type": "address"
        }
      ],
      "name": "createNonFungibleTokenPublic",
      "outputs": [],
      "stateMutability": "payable",
      "type": "function"
    },
    {
      "inputs": [
        {
          "components": [
            {
              "internalType": "address",
              "name": "token",
              "type": "address"
            },
            {
              "components": [
                {
                  "internalType": "address",
                  "name": "accountID",
                  "type": "address"
                },
                {
                  "internalType": "int64",
                  "name": "amount",
                  "type": "int64"
                }
              ],
              "internalType": "struct IHederaTokenService.AccountAmount[]",
              "name": "transfers",
              "type": "tuple[]"
            },
            {
              "components": [
                {
                  "internalType": "address",
                  "name": "senderAccountID",
                  "type": "address"
                },
                {
                  "internalType": "address",
                  "name": "receiverAccountID",
                  "type": "address"
                },
                {
                  "internalType": "int64",
                  "name": "serialNumber",
                  "type": "int64"
                }
              ],
              "internalType": "struct IHederaTokenService.NftTransfer[]",
              "name": "nftTransfers",
              "type": "tuple[]"
            }
          ],
          "internalType": "struct IHederaTokenService.TokenTransferList[]",
          "name": "tokenTransferList",
          "type": "tuple[]"
        }
      ],
      "name": "cryptoTransferPublic",
      "outputs": [
        {
          "internalType": "int256",
          "name": "responseCode",
          "type": "int256"
        }
      ],
      "stateMutability": "nonpayable",
      "type": "function"
    },
    {
      "inputs": [
        {
          "internalType": "address",
          "name": "account",
          "type": "address"
        },
        {
          "internalType": "address",
          "name": "token",
          "type": "address"
        },
        {
          "internalType": "int64",
          "name": "amount",
          "type": "int64"
        }
      ],
      "name": "cryptoTransferTokenPublic",
      "outputs": [
        {
          "internalType": "int256",
          "name": "responseCode",
          "type": "int256"
        }
      ],
      "stateMutability": "nonpayable",
      "type": "function"
    },
    {
      "inputs": [
        {
          "internalType": "address",
          "name": "token",
          "type": "address"
        }
      ],
      "name": "deleteTokenPublic",
      "outputs": [
        {
          "internalType": "int256",
          "name": "responseCode",
          "type": "int256"
        }
      ],
      "stateMutability": "nonpayable",
      "type": "function"
    },
    {
      "inputs": [
        {
          "internalType": "address",
          "name": "token",
          "type": "address"
        },
        {
          "internalType": "address",
          "name": "account",
          "type": "address"
        }
      ],
      "name": "freezeTokenPublic",
      "outputs": [
        {
          "internalType": "int256",
          "name": "responseCode",
          "type": "int256"
        }
      ],
      "stateMutability": "nonpayable",
      "type": "function"
    },
    {
      "inputs": [
        {
          "internalType": "address",
          "name": "token",
          "type": "address"
        },
        {
          "internalType": "uint256",
          "name": "serialNumber",
          "type": "uint256"
        }
      ],
      "name": "getApprovedPublic",
      "outputs": [
        {
          "internalType": "int256",
          "name": "responseCode",
          "type": "int256"
        },
        {
          "internalType": "address",
          "name": "approved",
          "type": "address"
        }
      ],
      "stateMutability": "nonpayable",
      "type": "function"
    },
    {
      "inputs": [
        {
          "internalType": "address",
          "name": "token",
          "type": "address"
        }
      ],
      "name": "getFungibleTokenInfoPublic",
      "outputs": [
        {
          "internalType": "int256",
          "name": "responseCode",
          "type": "int256"
        },
        {
          "components": [
            {
              "components": [
                {
                  "components": [
                    {
                      "internalType": "string",
                      "name": "name",
                      "type": "string"
                    },
                    {
                      "internalType": "string",
                      "name": "symbol",
                      "type": "string"
                    },
                    {
                      "internalType": "address",
                      "name": "treasury",
                      "type": "address"
                    },
                    {
                      "internalType": "string",
                      "name": "memo",
                      "type": "string"
                    },
                    {
                      "internalType": "bool",
                      "name": "tokenSupplyType",
                      "type": "bool"
                    },
                    {
                      "internalType": "uint32",
                      "name": "maxSupply",
                      "type": "uint32"
                    },
                    {
                      "internalType": "bool",
                      "name": "freezeDefault",
                      "type": "bool"
                    },
                    {
                      "components": [
                        {
                          "internalType": "uint256",
                          "name": "keyType",
                          "type": "uint256"
                        },
                        {
                          "components": [
                            {
                              "internalType": "bool",
                              "name": "inheritAccountKey",
                              "type": "bool"
                            },
                            {
                              "internalType": "address",
                              "name": "contractId",
                              "type": "address"
                            },
                            {
                              "internalType": "bytes",
                              "name": "ed25519",
                              "type": "bytes"
                            },
                            {
                              "internalType": "bytes",
                              "name": "ECDSA_secp256k1",
                              "type": "bytes"
                            },
                            {
                              "internalType": "address",
                              "name": "delegatableContractId",
                              "type": "address"
                            }
                          ],
                          "internalType": "struct IHederaTokenService.KeyValue",
                          "name": "key",
                          "type": "tuple"
                        }
                      ],
                      "internalType": "struct IHederaTokenService.TokenKey[]",
                      "name": "tokenKeys",
                      "type": "tuple[]"
                    },
                    {
                      "components": [
                        {
                          "internalType": "uint32",
                          "name": "second",
                          "type": "uint32"
                        },
                        {
                          "internalType": "address",
                          "name": "autoRenewAccount",
                          "type": "address"
                        },
                        {
                          "internalType": "uint32",
                          "name": "autoRenewPeriod",
                          "type": "uint32"
                        }
                      ],
                      "internalType": "struct IHederaTokenService.Expiry",
                      "name": "expiry",
                      "type": "tuple"
                    }
                  ],
                  "internalType": "struct IHederaTokenService.HederaToken",
                  "name": "token",
                  "type": "tuple"
                },
                {
                  "internalType": "uint64",
                  "name": "totalSupply",
                  "type": "uint64"
                },
                {
                  "internalType": "bool",
                  "name": "deleted",
                  "type": "bool"
                },
                {
                  "internalType": "bool",
                  "name": "defaultKycStatus",
                  "type": "bool"
                },
                {
                  "internalType": "bool",
                  "name": "pauseStatus",
                  "type": "bool"
                },
                {
                  "components": [
                    {
                      "internalType": "uint32",
                      "name": "amount",
                      "type": "uint32"
                    },
                    {
                      "internalType": "address",
                      "name": "tokenId",
                      "type": "address"
                    },
                    {
                      "internalType": "bool",
                      "name": "useHbarsForPayment",
                      "type": "bool"
                    },
                    {
                      "internalType": "bool",
                      "name": "useCurrentTokenForPayment",
                      "type": "bool"
                    },
                    {
                      "internalType": "address",
                      "name": "feeCollector",
                      "type": "address"
                    }
                  ],
                  "internalType": "struct IHederaTokenService.FixedFee[]",
                  "name": "fixedFees",
                  "type": "tuple[]"
                },
                {
                  "components": [
                    {
                      "internalType": "uint32",
                      "name": "numerator",
                      "type": "uint32"
                    },
                    {
                      "internalType": "uint32",
                      "name": "denominator",
                      "type": "uint32"
                    },
                    {
                      "internalType": "uint32",
                      "name": "minimumAmount",
                      "type": "uint32"
                    },
                    {
                      "internalType": "uint32",
                      "name": "maximumAmount",
                      "type": "uint32"
                    },
                    {
                      "internalType": "bool",
                      "name": "netOfTransfers",
                      "type": "bool"
                    },
                    {
                      "internalType": "address",
                      "name": "feeCollector",
                      "type": "address"
                    }
                  ],
                  "internalType": "struct IHederaTokenService.FractionalFee[]",
                  "name": "fractionalFees",
                  "type": "tuple[]"
                },
                {
                  "components": [
                    {
                      "internalType": "uint32",
                      "name": "numerator",
                      "type": "uint32"
                    },
                    {
                      "internalType": "uint32",
                      "name": "denominator",
                      "type": "uint32"
                    },
                    {
                      "internalType": "uint32",
                      "name": "amount",
                      "type": "uint32"
                    },
                    {
                      "internalType": "address",
                      "name": "tokenId",
                      "type": "address"
                    },
                    {
                      "internalType": "bool",
                      "name": "useHbarsForPayment",
                      "type": "bool"
                    },
                    {
                      "internalType": "address",
                      "name": "feeCollector",
                      "type": "address"
                    }
                  ],
                  "internalType": "struct IHederaTokenService.RoyaltyFee[]",
                  "name": "royaltyFees",
                  "type": "tuple[]"
                },
                {
                  "internalType": "string",
                  "name": "ledgerId",
                  "type": "string"
                }
              ],
              "internalType": "struct IHederaTokenService.TokenInfo",
              "name": "tokenInfo",
              "type": "tuple"
            },
            {
              "internalType": "uint32",
              "name": "decimals",
              "type": "uint32"
            }
          ],
          "internalType": "struct IHederaTokenService.FungibleTokenInfo",
          "name": "tokenInfo",
          "type": "tuple"
        }
      ],
      "stateMutability": "nonpayable",
      "type": "function"
    },
    {
      "inputs": [
        {
          "internalType": "address",
          "name": "token",
          "type": "address"
        },
        {
          "internalType": "int64",
          "name": "serialNumber",
          "type": "int64"
        }
      ],
      "name": "getNonFungibleTokenInfoPublic",
      "outputs": [
        {
          "internalType": "int256",
          "name": "responseCode",
          "type": "int256"
        },
        {
          "components": [
            {
              "components": [
                {
                  "components": [
                    {
                      "internalType": "string",
                      "name": "name",
                      "type": "string"
                    },
                    {
                      "internalType": "string",
                      "name": "symbol",
                      "type": "string"
                    },
                    {
                      "internalType": "address",
                      "name": "treasury",
                      "type": "address"
                    },
                    {
                      "internalType": "string",
                      "name": "memo",
                      "type": "string"
                    },
                    {
                      "internalType": "bool",
                      "name": "tokenSupplyType",
                      "type": "bool"
                    },
                    {
                      "internalType": "uint32",
                      "name": "maxSupply",
                      "type": "uint32"
                    },
                    {
                      "internalType": "bool",
                      "name": "freezeDefault",
                      "type": "bool"
                    },
                    {
                      "components": [
                        {
                          "internalType": "uint256",
                          "name": "keyType",
                          "type": "uint256"
                        },
                        {
                          "components": [
                            {
                              "internalType": "bool",
                              "name": "inheritAccountKey",
                              "type": "bool"
                            },
                            {
                              "internalType": "address",
                              "name": "contractId",
                              "type": "address"
                            },
                            {
                              "internalType": "bytes",
                              "name": "ed25519",
                              "type": "bytes"
                            },
                            {
                              "internalType": "bytes",
                              "name": "ECDSA_secp256k1",
                              "type": "bytes"
                            },
                            {
                              "internalType": "address",
                              "name": "delegatableContractId",
                              "type": "address"
                            }
                          ],
                          "internalType": "struct IHederaTokenService.KeyValue",
                          "name": "key",
                          "type": "tuple"
                        }
                      ],
                      "internalType": "struct IHederaTokenService.TokenKey[]",
                      "name": "tokenKeys",
                      "type": "tuple[]"
                    },
                    {
                      "components": [
                        {
                          "internalType": "uint32",
                          "name": "second",
                          "type": "uint32"
                        },
                        {
                          "internalType": "address",
                          "name": "autoRenewAccount",
                          "type": "address"
                        },
                        {
                          "internalType": "uint32",
                          "name": "autoRenewPeriod",
                          "type": "uint32"
                        }
                      ],
                      "internalType": "struct IHederaTokenService.Expiry",
                      "name": "expiry",
                      "type": "tuple"
                    }
                  ],
                  "internalType": "struct IHederaTokenService.HederaToken",
                  "name": "token",
                  "type": "tuple"
                },
                {
                  "internalType": "uint64",
                  "name": "totalSupply",
                  "type": "uint64"
                },
                {
                  "internalType": "bool",
                  "name": "deleted",
                  "type": "bool"
                },
                {
                  "internalType": "bool",
                  "name": "defaultKycStatus",
                  "type": "bool"
                },
                {
                  "internalType": "bool",
                  "name": "pauseStatus",
                  "type": "bool"
                },
                {
                  "components": [
                    {
                      "internalType": "uint32",
                      "name": "amount",
                      "type": "uint32"
                    },
                    {
                      "internalType": "address",
                      "name": "tokenId",
                      "type": "address"
                    },
                    {
                      "internalType": "bool",
                      "name": "useHbarsForPayment",
                      "type": "bool"
                    },
                    {
                      "internalType": "bool",
                      "name": "useCurrentTokenForPayment",
                      "type": "bool"
                    },
                    {
                      "internalType": "address",
                      "name": "feeCollector",
                      "type": "address"
                    }
                  ],
                  "internalType": "struct IHederaTokenService.FixedFee[]",
                  "name": "fixedFees",
                  "type": "tuple[]"
                },
                {
                  "components": [
                    {
                      "internalType": "uint32",
                      "name": "numerator",
                      "type": "uint32"
                    },
                    {
                      "internalType": "uint32",
                      "name": "denominator",
                      "type": "uint32"
                    },
                    {
                      "internalType": "uint32",
                      "name": "minimumAmount",
                      "type": "uint32"
                    },
                    {
                      "internalType": "uint32",
                      "name": "maximumAmount",
                      "type": "uint32"
                    },
                    {
                      "internalType": "bool",
                      "name": "netOfTransfers",
                      "type": "bool"
                    },
                    {
                      "internalType": "address",
                      "name": "feeCollector",
                      "type": "address"
                    }
                  ],
                  "internalType": "struct IHederaTokenService.FractionalFee[]",
                  "name": "fractionalFees",
                  "type": "tuple[]"
                },
                {
                  "components": [
                    {
                      "internalType": "uint32",
                      "name": "numerator",
                      "type": "uint32"
                    },
                    {
                      "internalType": "uint32",
                      "name": "denominator",
                      "type": "uint32"
                    },
                    {
                      "internalType": "uint32",
                      "name": "amount",
                      "type": "uint32"
                    },
                    {
                      "internalType": "address",
                      "name": "tokenId",
                      "type": "address"
                    },
                    {
                      "internalType": "bool",
                      "name": "useHbarsForPayment",
                      "type": "bool"
                    },
                    {
                      "internalType": "address",
                      "name": "feeCollector",
                      "type": "address"
                    }
                  ],
                  "internalType": "struct IHederaTokenService.RoyaltyFee[]",
                  "name": "royaltyFees",
                  "type": "tuple[]"
                },
                {
                  "internalType": "string",
                  "name": "ledgerId",
                  "type": "string"
                }
              ],
              "internalType": "struct IHederaTokenService.TokenInfo",
              "name": "tokenInfo",
              "type": "tuple"
            },
            {
              "internalType": "int64",
              "name": "serialNumber",
              "type": "int64"
            },
            {
              "internalType": "address",
              "name": "ownerId",
              "type": "address"
            },
            {
              "internalType": "int64",
              "name": "creationTime",
              "type": "int64"
            },
            {
              "internalType": "bytes",
              "name": "metadata",
              "type": "bytes"
            },
            {
              "internalType": "address",
              "name": "spenderId",
              "type": "address"
            }
          ],
          "internalType": "struct IHederaTokenService.NonFungibleTokenInfo",
          "name": "tokenInfo",
          "type": "tuple"
        }
      ],
      "stateMutability": "nonpayable",
      "type": "function"
    },
    {
      "inputs": [
        {
          "internalType": "address",
          "name": "token",
          "type": "address"
        }
      ],
      "name": "getTokenCustomFeesPublic",
      "outputs": [
        {
          "internalType": "int64",
          "name": "responseCode",
          "type": "int64"
        },
        {
          "components": [
            {
              "internalType": "uint32",
              "name": "amount",
              "type": "uint32"
            },
            {
              "internalType": "address",
              "name": "tokenId",
              "type": "address"
            },
            {
              "internalType": "bool",
              "name": "useHbarsForPayment",
              "type": "bool"
            },
            {
              "internalType": "bool",
              "name": "useCurrentTokenForPayment",
              "type": "bool"
            },
            {
              "internalType": "address",
              "name": "feeCollector",
              "type": "address"
            }
          ],
          "internalType": "struct IHederaTokenService.FixedFee[]",
          "name": "fixedFees",
          "type": "tuple[]"
        },
        {
          "components": [
            {
              "internalType": "uint32",
              "name": "numerator",
              "type": "uint32"
            },
            {
              "internalType": "uint32",
              "name": "denominator",
              "type": "uint32"
            },
            {
              "internalType": "uint32",
              "name": "minimumAmount",
              "type": "uint32"
            },
            {
              "internalType": "uint32",
              "name": "maximumAmount",
              "type": "uint32"
            },
            {
              "internalType": "bool",
              "name": "netOfTransfers",
              "type": "bool"
            },
            {
              "internalType": "address",
              "name": "feeCollector",
              "type": "address"
            }
          ],
          "internalType": "struct IHederaTokenService.FractionalFee[]",
          "name": "fractionalFees",
          "type": "tuple[]"
        },
        {
          "components": [
            {
              "internalType": "uint32",
              "name": "numerator",
              "type": "uint32"
            },
            {
              "internalType": "uint32",
              "name": "denominator",
              "type": "uint32"
            },
            {
              "internalType": "uint32",
              "name": "amount",
              "type": "uint32"
            },
            {
              "internalType": "address",
              "name": "tokenId",
              "type": "address"
            },
            {
              "internalType": "bool",
              "name": "useHbarsForPayment",
              "type": "bool"
            },
            {
              "internalType": "address",
              "name": "feeCollector",
              "type": "address"
            }
          ],
          "internalType": "struct IHederaTokenService.RoyaltyFee[]",
          "name": "royaltyFees",
          "type": "tuple[]"
        }
      ],
      "stateMutability": "nonpayable",
      "type": "function"
    },
    {
      "inputs": [
        {
          "internalType": "address",
          "name": "token",
          "type": "address"
        }
      ],
      "name": "getTokenDefaultFreezeStatusPublic",
      "outputs": [
        {
          "internalType": "int256",
          "name": "responseCode",
          "type": "int256"
        },
        {
          "internalType": "bool",
          "name": "defaultFreezeStatus",
          "type": "bool"
        }
      ],
      "stateMutability": "nonpayable",
      "type": "function"
    },
    {
      "inputs": [
        {
          "internalType": "address",
          "name": "token",
          "type": "address"
        }
      ],
      "name": "getTokenDefaultKycStatusPublic",
      "outputs": [
        {
          "internalType": "int256",
          "name": "responseCode",
          "type": "int256"
        },
        {
          "internalType": "bool",
          "name": "defaultKycStatus",
          "type": "bool"
        }
      ],
      "stateMutability": "nonpayable",
      "type": "function"
    },
    {
      "inputs": [
        {
          "internalType": "address",
          "name": "token",
          "type": "address"
        }
      ],
      "name": "getTokenExpiryInfo",
      "outputs": [
        {
          "internalType": "int256",
          "name": "responseCode",
          "type": "int256"
        },
        {
          "components": [
            {
              "internalType": "uint32",
              "name": "second",
              "type": "uint32"
            },
            {
              "internalType": "address",
              "name": "autoRenewAccount",
              "type": "address"
            },
            {
              "internalType": "uint32",
              "name": "autoRenewPeriod",
              "type": "uint32"
            }
          ],
          "internalType": "struct IHederaTokenService.Expiry",
          "name": "expiryInfo",
          "type": "tuple"
        }
      ],
      "stateMutability": "nonpayable",
      "type": "function"
    },
    {
      "inputs": [
        {
          "internalType": "address",
          "name": "token",
          "type": "address"
        }
      ],
      "name": "getTokenExpiryInfoPublic",
      "outputs": [
        {
          "internalType": "int256",
          "name": "responseCode",
          "type": "int256"
        },
        {
          "components": [
            {
              "internalType": "uint32",
              "name": "second",
              "type": "uint32"
            },
            {
              "internalType": "address",
              "name": "autoRenewAccount",
              "type": "address"
            },
            {
              "internalType": "uint32",
              "name": "autoRenewPeriod",
              "type": "uint32"
            }
          ],
          "internalType": "struct IHederaTokenService.Expiry",
          "name": "expiryInfo",
          "type": "tuple"
        }
      ],
      "stateMutability": "nonpayable",
      "type": "function"
    },
    {
      "inputs": [
        {
          "internalType": "address",
          "name": "token",
          "type": "address"
        }
      ],
      "name": "getTokenInfoPublic",
      "outputs": [
        {
          "internalType": "int256",
          "name": "responseCode",
          "type": "int256"
        },
        {
          "components": [
            {
              "components": [
                {
                  "internalType": "string",
                  "name": "name",
                  "type": "string"
                },
                {
                  "internalType": "string",
                  "name": "symbol",
                  "type": "string"
                },
                {
                  "internalType": "address",
                  "name": "treasury",
                  "type": "address"
                },
                {
                  "internalType": "string",
                  "name": "memo",
                  "type": "string"
                },
                {
                  "internalType": "bool",
                  "name": "tokenSupplyType",
                  "type": "bool"
                },
                {
                  "internalType": "uint32",
                  "name": "maxSupply",
                  "type": "uint32"
                },
                {
                  "internalType": "bool",
                  "name": "freezeDefault",
                  "type": "bool"
                },
                {
                  "components": [
                    {
                      "internalType": "uint256",
                      "name": "keyType",
                      "type": "uint256"
                    },
                    {
                      "components": [
                        {
                          "internalType": "bool",
                          "name": "inheritAccountKey",
                          "type": "bool"
                        },
                        {
                          "internalType": "address",
                          "name": "contractId",
                          "type": "address"
                        },
                        {
                          "internalType": "bytes",
                          "name": "ed25519",
                          "type": "bytes"
                        },
                        {
                          "internalType": "bytes",
                          "name": "ECDSA_secp256k1",
                          "type": "bytes"
                        },
                        {
                          "internalType": "address",
                          "name": "delegatableContractId",
                          "type": "address"
                        }
                      ],
                      "internalType": "struct IHederaTokenService.KeyValue",
                      "name": "key",
                      "type": "tuple"
                    }
                  ],
                  "internalType": "struct IHederaTokenService.TokenKey[]",
                  "name": "tokenKeys",
                  "type": "tuple[]"
                },
                {
                  "components": [
                    {
                      "internalType": "uint32",
                      "name": "second",
                      "type": "uint32"
                    },
                    {
                      "internalType": "address",
                      "name": "autoRenewAccount",
                      "type": "address"
                    },
                    {
                      "internalType": "uint32",
                      "name": "autoRenewPeriod",
                      "type": "uint32"
                    }
                  ],
                  "internalType": "struct IHederaTokenService.Expiry",
                  "name": "expiry",
                  "type": "tuple"
                }
              ],
              "internalType": "struct IHederaTokenService.HederaToken",
              "name": "token",
              "type": "tuple"
            },
            {
              "internalType": "uint64",
              "name": "totalSupply",
              "type": "uint64"
            },
            {
              "internalType": "bool",
              "name": "deleted",
              "type": "bool"
            },
            {
              "internalType": "bool",
              "name": "defaultKycStatus",
              "type": "bool"
            },
            {
              "internalType": "bool",
              "name": "pauseStatus",
              "type": "bool"
            },
            {
              "components": [
                {
                  "internalType": "uint32",
                  "name": "amount",
                  "type": "uint32"
                },
                {
                  "internalType": "address",
                  "name": "tokenId",
                  "type": "address"
                },
                {
                  "internalType": "bool",
                  "name": "useHbarsForPayment",
                  "type": "bool"
                },
                {
                  "internalType": "bool",
                  "name": "useCurrentTokenForPayment",
                  "type": "bool"
                },
                {
                  "internalType": "address",
                  "name": "feeCollector",
                  "type": "address"
                }
              ],
              "internalType": "struct IHederaTokenService.FixedFee[]",
              "name": "fixedFees",
              "type": "tuple[]"
            },
            {
              "components": [
                {
                  "internalType": "uint32",
                  "name": "numerator",
                  "type": "uint32"
                },
                {
                  "internalType": "uint32",
                  "name": "denominator",
                  "type": "uint32"
                },
                {
                  "internalType": "uint32",
                  "name": "minimumAmount",
                  "type": "uint32"
                },
                {
                  "internalType": "uint32",
                  "name": "maximumAmount",
                  "type": "uint32"
                },
                {
                  "internalType": "bool",
                  "name": "netOfTransfers",
                  "type": "bool"
                },
                {
                  "internalType": "address",
                  "name": "feeCollector",
                  "type": "address"
                }
              ],
              "internalType": "struct IHederaTokenService.FractionalFee[]",
              "name": "fractionalFees",
              "type": "tuple[]"
            },
            {
              "components": [
                {
                  "internalType": "uint32",
                  "name": "numerator",
                  "type": "uint32"
                },
                {
                  "internalType": "uint32",
                  "name": "denominator",
                  "type": "uint32"
                },
                {
                  "internalType": "uint32",
                  "name": "amount",
                  "type": "uint32"
                },
                {
                  "internalType": "address",
                  "name": "tokenId",
                  "type": "address"
                },
                {
                  "internalType": "bool",
                  "name": "useHbarsForPayment",
                  "type": "bool"
                },
                {
                  "internalType": "address",
                  "name": "feeCollector",
                  "type": "address"
                }
              ],
              "internalType": "struct IHederaTokenService.RoyaltyFee[]",
              "name": "royaltyFees",
              "type": "tuple[]"
            },
            {
              "internalType": "string",
              "name": "ledgerId",
              "type": "string"
            }
          ],
          "internalType": "struct IHederaTokenService.TokenInfo",
          "name": "tokenInfo",
          "type": "tuple"
        }
      ],
      "stateMutability": "nonpayable",
      "type": "function"
    },
    {
      "inputs": [
        {
          "internalType": "address",
          "name": "token",
          "type": "address"
        },
        {
          "internalType": "address",
          "name": "account",
          "type": "address"
        }
      ],
      "name": "grantTokenKyc",
      "outputs": [
        {
          "internalType": "int64",
          "name": "responseCode",
          "type": "int64"
        }
      ],
      "stateMutability": "nonpayable",
      "type": "function"
    },
    {
      "inputs": [
        {
          "internalType": "address",
          "name": "token",
          "type": "address"
        },
        {
          "internalType": "address",
          "name": "account",
          "type": "address"
        }
      ],
      "name": "grantTokenKycPublic",
      "outputs": [
        {
          "internalType": "int64",
          "name": "responseCode",
          "type": "int64"
        }
      ],
      "stateMutability": "nonpayable",
      "type": "function"
    },
    {
      "inputs": [
        {
          "internalType": "address",
          "name": "token",
          "type": "address"
        },
        {
          "internalType": "address",
          "name": "owner",
          "type": "address"
        },
        {
          "internalType": "address",
          "name": "operator",
          "type": "address"
        }
      ],
      "name": "isApprovedForAllPublic",
      "outputs": [
        {
          "internalType": "int256",
          "name": "responseCode",
          "type": "int256"
        },
        {
          "internalType": "bool",
          "name": "approved",
          "type": "bool"
        }
      ],
      "stateMutability": "nonpayable",
      "type": "function"
    },
    {
      "inputs": [
        {
          "internalType": "address",
          "name": "token",
          "type": "address"
        },
        {
          "internalType": "address",
          "name": "account",
          "type": "address"
        }
      ],
      "name": "isFrozenPublic",
      "outputs": [
        {
          "internalType": "int256",
          "name": "responseCode",
          "type": "int256"
        },
        {
          "internalType": "bool",
          "name": "frozen",
          "type": "bool"
        }
      ],
      "stateMutability": "nonpayable",
      "type": "function"
    },
    {
      "inputs": [
        {
          "internalType": "address",
          "name": "token",
          "type": "address"
        },
        {
          "internalType": "address",
          "name": "account",
          "type": "address"
        }
      ],
      "name": "isKyc",
      "outputs": [
        {
          "internalType": "int64",
          "name": "responseCode",
          "type": "int64"
        },
        {
          "internalType": "bool",
          "name": "kycGranted",
          "type": "bool"
        }
      ],
      "stateMutability": "nonpayable",
      "type": "function"
    },
    {
      "inputs": [
        {
          "internalType": "address",
          "name": "token",
          "type": "address"
        },
        {
          "internalType": "address",
          "name": "account",
          "type": "address"
        }
      ],
      "name": "isKycPublic",
      "outputs": [
        {
          "internalType": "int64",
          "name": "responseCode",
          "type": "int64"
        },
        {
          "internalType": "bool",
          "name": "kycGranted",
          "type": "bool"
        }
      ],
      "stateMutability": "nonpayable",
      "type": "function"
    },
    {
      "inputs": [
        {
          "internalType": "address",
          "name": "token",
          "type": "address"
        },
        {
          "internalType": "uint64",
          "name": "amount",
          "type": "uint64"
        },
        {
          "internalType": "bytes[]",
          "name": "metadata",
          "type": "bytes[]"
        }
      ],
      "name": "mintTokenPublic",
      "outputs": [
        {
          "internalType": "int256",
          "name": "responseCode",
          "type": "int256"
        },
        {
          "internalType": "uint64",
          "name": "newTotalSupply",
          "type": "uint64"
        },
        {
          "internalType": "int64[]",
          "name": "serialNumbers",
          "type": "int64[]"
        }
      ],
      "stateMutability": "nonpayable",
      "type": "function"
    },
    {
      "inputs": [
        {
          "internalType": "address",
          "name": "token",
          "type": "address"
        }
      ],
      "name": "pauseToken",
      "outputs": [
        {
          "internalType": "int256",
          "name": "responseCode",
          "type": "int256"
        }
      ],
      "stateMutability": "nonpayable",
      "type": "function"
    },
    {
      "inputs": [
        {
          "internalType": "address",
          "name": "token",
          "type": "address"
        }
      ],
      "name": "pauseTokenPublic",
      "outputs": [
        {
          "internalType": "int256",
          "name": "responseCode",
          "type": "int256"
        }
      ],
      "stateMutability": "nonpayable",
      "type": "function"
    },
    {
      "inputs": [
        {
          "internalType": "address",
          "name": "token",
          "type": "address"
        },
        {
          "internalType": "address",
          "name": "account",
          "type": "address"
        }
      ],
      "name": "revokeTokenKyc",
      "outputs": [
        {
          "internalType": "int64",
          "name": "responseCode",
          "type": "int64"
        }
      ],
      "stateMutability": "nonpayable",
      "type": "function"
    },
    {
      "inputs": [
        {
          "internalType": "address",
          "name": "token",
          "type": "address"
        },
        {
          "internalType": "address",
          "name": "account",
          "type": "address"
        }
      ],
      "name": "revokeTokenKycPublic",
      "outputs": [
        {
          "internalType": "int64",
          "name": "responseCode",
          "type": "int64"
        }
      ],
      "stateMutability": "nonpayable",
      "type": "function"
    },
    {
      "inputs": [
        {
          "internalType": "address",
          "name": "token",
          "type": "address"
        },
        {
          "internalType": "address",
          "name": "operator",
          "type": "address"
        },
        {
          "internalType": "bool",
          "name": "approved",
          "type": "bool"
        }
      ],
      "name": "setApprovalForAllPublic",
      "outputs": [
        {
          "internalType": "int256",
          "name": "responseCode",
          "type": "int256"
        }
      ],
      "stateMutability": "nonpayable",
      "type": "function"
    },
    {
      "inputs": [
        {
          "internalType": "bool",
          "name": "newFreezeStatus",
          "type": "bool"
        }
      ],
      "name": "setFreezeDefaultStatus",
      "outputs": [],
      "stateMutability": "nonpayable",
      "type": "function"
    },
    {
      "inputs": [
        {
          "internalType": "address",
          "name": "token",
          "type": "address"
        },
        {
          "internalType": "address",
          "name": "sender",
          "type": "address"
        },
        {
          "internalType": "address",
          "name": "receiver",
          "type": "address"
        },
        {
          "internalType": "int64",
          "name": "serialNumber",
          "type": "int64"
        }
      ],
      "name": "transferNFTPublic",
      "outputs": [
        {
          "internalType": "int256",
          "name": "responseCode",
          "type": "int256"
        }
      ],
      "stateMutability": "nonpayable",
      "type": "function"
    },
    {
      "inputs": [
        {
          "internalType": "address",
          "name": "token",
          "type": "address"
        },
        {
          "internalType": "address",
          "name": "sender",
          "type": "address"
        },
        {
          "internalType": "address",
          "name": "receiver",
          "type": "address"
        },
        {
          "internalType": "int64",
          "name": "amount",
          "type": "int64"
        }
      ],
      "name": "transferTokenPublic",
      "outputs": [
        {
          "internalType": "int256",
          "name": "responseCode",
          "type": "int256"
        }
      ],
      "stateMutability": "nonpayable",
      "type": "function"
    },
    {
      "inputs": [
        {
          "internalType": "address",
          "name": "token",
          "type": "address"
        },
        {
          "internalType": "address",
          "name": "account",
          "type": "address"
        }
      ],
      "name": "unfreezeTokenPublic",
      "outputs": [
        {
          "internalType": "int256",
          "name": "responseCode",
          "type": "int256"
        }
      ],
      "stateMutability": "nonpayable",
      "type": "function"
    },
    {
      "inputs": [
        {
          "internalType": "address",
          "name": "token",
          "type": "address"
        }
      ],
      "name": "unpauseToken",
      "outputs": [
        {
          "internalType": "int256",
          "name": "responseCode",
          "type": "int256"
        }
      ],
      "stateMutability": "nonpayable",
      "type": "function"
    },
    {
      "inputs": [
        {
          "internalType": "address",
          "name": "token",
          "type": "address"
        }
      ],
      "name": "unpauseTokenPublic",
      "outputs": [
        {
          "internalType": "int256",
          "name": "responseCode",
          "type": "int256"
        }
      ],
      "stateMutability": "nonpayable",
      "type": "function"
    },
    {
      "inputs": [
        {
          "internalType": "address",
          "name": "token",
          "type": "address"
        },
        {
          "components": [
            {
              "internalType": "uint32",
              "name": "second",
              "type": "uint32"
            },
            {
              "internalType": "address",
              "name": "autoRenewAccount",
              "type": "address"
            },
            {
              "internalType": "uint32",
              "name": "autoRenewPeriod",
              "type": "uint32"
            }
          ],
          "internalType": "struct IHederaTokenService.Expiry",
          "name": "expiryInfo",
          "type": "tuple"
        }
      ],
      "name": "updateTokenExpiryInfo",
      "outputs": [
        {
          "internalType": "int256",
          "name": "responseCode",
          "type": "int256"
        }
      ],
      "stateMutability": "nonpayable",
      "type": "function"
    },
    {
      "inputs": [
        {
          "internalType": "address",
          "name": "token",
          "type": "address"
        },
        {
          "components": [
            {
              "internalType": "uint32",
              "name": "second",
              "type": "uint32"
            },
            {
              "internalType": "address",
              "name": "autoRenewAccount",
              "type": "address"
            },
            {
              "internalType": "uint32",
              "name": "autoRenewPeriod",
              "type": "uint32"
            }
          ],
          "internalType": "struct IHederaTokenService.Expiry",
          "name": "expiryInfo",
          "type": "tuple"
        }
      ],
      "name": "updateTokenExpiryInfoPublic",
      "outputs": [
        {
          "internalType": "int256",
          "name": "responseCode",
          "type": "int256"
        }
      ],
      "stateMutability": "nonpayable",
      "type": "function"
    },
    {
      "inputs": [
        {
          "internalType": "address",
          "name": "token",
          "type": "address"
        },
        {
          "internalType": "address",
          "name": "account",
          "type": "address"
        },
        {
          "internalType": "int64[]",
          "name": "serialNumbers",
          "type": "int64[]"
        }
      ],
      "name": "wipeTokenAccountNFTPublic",
      "outputs": [
        {
          "internalType": "int256",
          "name": "responseCode",
          "type": "int256"
        }
      ],
      "stateMutability": "nonpayable",
      "type": "function"
    },
    {
      "inputs": [
        {
          "internalType": "address",
          "name": "token",
          "type": "address"
        },
        {
          "internalType": "address",
          "name": "account",
          "type": "address"
        },
        {
          "internalType": "uint32",
          "name": "amount",
          "type": "uint32"
        }
      ],
      "name": "wipeTokenAccountPublic",
      "outputs": [
        {
          "internalType": "int256",
          "name": "responseCode",
          "type": "int256"
        }
      ],
      "stateMutability": "nonpayable",
      "type": "function"
    }
  ],
  "bytecode": "0x60c06040526009608081905268746f6b656e4e616d6560b81b60a09081526200002c9160019190620000cb565b5060408051808201909152600b8082526a1d1bdad95b94de5b589bdb60aa1b60209092019182526200006191600291620000cb565b50604080518082019091526004808252636d656d6f60e01b60209092019182526200008f91600391620000cb565b506103e860048190556005805463ffffffff1916909117905560086006556007805460ff19169055348015620000c457600080fd5b50620001ae565b828054620000d99062000171565b90600052602060002090601f016020900481019282620000fd576000855562000148565b82601f106200011857805160ff191683800117855562000148565b8280016001018555821562000148579182015b82811115620001485782518255916020019190600101906200012b565b50620001569291506200015a565b5090565b5b808211156200015657600081556001016200015b565b600181811c908216806200018657607f821691505b60208210811415620001a857634e487b7160e01b600052602260045260246000fd5b50919050565b615af180620001be6000396000f3fe6080604052600436106102c65760003560e01c80638070905f11610179578063d85f74c1116100d6578063f2f38a741161008a578063f848fec411610064578063f848fec414610844578063f9e978bd14610864578063fdc8321e1461088457600080fd5b8063f2f38a74146107d6578063f4a01e5b14610804578063f7be34251461082457600080fd5b8063eee55ac8116100bb578063eee55ac814610776578063f25b120014610796578063f2c31ff4146107b657600080fd5b8063d85f74c114610743578063d92ac2481461075657600080fd5b8063a345f7bd1161012d578063af99c63311610112578063af99c633146106d5578063c0b19b6d146106f5578063d614cdb81461072357600080fd5b8063a345f7bd1461067b578063a3ad5b551461069b57600080fd5b80638ba74da01161015e5780638ba74da0146106285780638f8d7f991461063b5780639604ca651461065b57600080fd5b80638070905f146105d957806386f88d881461060857600080fd5b80634cbdb37b1161022757806369837dc2116101db5780636da6b1f0116101c05780636da6b1f0146105795780637c41ad2c146105995780637d3e5da8146105b957600080fd5b806369837dc21461052b5780636a4dde211461055957600080fd5b8063593d6e821161020c578063593d6e82146104a65780635a5e6c31146104c65780635b9076b7146104fb57600080fd5b80634cbdb37b1461045857806356af84031461048657600080fd5b80632eecbca31161027e5780633eed2c39116102635780633eed2c39146104035780634b5c6687146104235780634ba670351461043857600080fd5b80632eecbca3146103c35780633b3bff0f146103e357600080fd5b806319db44b6116102af57806319db44b6146103385780632b256ec8146103755780632d73bb2e146103a357600080fd5b80630fd2601e146102cb57806313c05dd814610303575b600080fd5b3480156102d757600080fd5b506102eb6102e6366004613bbd565b6108a4565b60405160079190910b81526020015b60405180910390f35b34801561030f57600080fd5b5061032361031e366004613bf6565b610968565b604080519283529015156020830152016102fa565b34801561034457600080fd5b50610358610353366004613c41565b6109e6565b604080519283526001600160a01b039091166020830152016102fa565b34801561038157600080fd5b50610395610390366004613c6d565b610a6a565b6040519081526020016102fa565b3480156103af57600080fd5b506103956103be366004613bbd565b610b56565b3480156103cf57600080fd5b506102eb6103de366004613bbd565b610b9b565b3480156103ef57600080fd5b506103956103fe366004613c6d565b610bd2565b34801561040f57600080fd5b5061032361041e366004613c6d565b610cac565b610436610431366004613c6d565b610d26565b005b34801561044457600080fd5b50610395610453366004613c99565b6110e6565b34801561046457600080fd5b50610478610473366004613cf5565b611132565b6040516102fa92919061421b565b34801561049257600080fd5b506103956104a1366004614355565b6111a8565b3480156104b257600080fd5b506103956104c136600461442d565b6111f2565b3480156104d257600080fd5b506104e66104e1366004613bf6565b6112cf565b604080519283526020830191909152016102fa565b34801561050757600080fd5b5061051b610516366004613c6d565b611340565b6040516102fa94939291906144aa565b34801561053757600080fd5b5061054b610546366004613c6d565b6113d2565b6040516102fa929190614526565b34801561056557600080fd5b50610323610574366004613bbd565b611447565b34801561058557600080fd5b50610395610594366004613c99565b6114be565b3480156105a557600080fd5b506103956105b4366004613c6d565b6114cc565b3480156105c557600080fd5b506103956105d4366004613bbd565b6114fa565b3480156105e557600080fd5b506105f96105f436600461457d565b611506565b6040516102fa939291906146c6565b34801561061457600080fd5b50610323610623366004613c6d565b61158e565b610436610636366004613bbd565b6115ff565b34801561064757600080fd5b506102eb610656366004613bbd565b611a91565b34801561066757600080fd5b506103956106763660046146f8565b611ac7565b34801561068757600080fd5b50610395610696366004613c6d565b611afc565b3480156106a757600080fd5b506106bb6106b6366004613bbd565b611b42565b6040805160079390930b83529015156020830152016102fa565b3480156106e157600080fd5b506102eb6106f0366004613bbd565b611c34565b34801561070157600080fd5b50610715610710366004613c6d565b611c6a565b6040516102fa92919061476d565b34801561072f57600080fd5b5061071561073e366004613c6d565b611d61565b610436610751366004613c6d565b611e6b565b34801561076257600080fd5b506103956107713660046147a7565b612203565b34801561078257600080fd5b5061039561079136600461442d565b612210565b3480156107a257600080fd5b506103956107b13660046147f5565b6122a3565b3480156107c257600080fd5b506106bb6107d1366004613bbd565b6122b0565b3480156107e257600080fd5b506107f66107f1366004613c6d565b61238b565b6040516102fa929190614835565b34801561081057600080fd5b5061039561081f366004613bbd565b612400565b34801561083057600080fd5b5061039561083f366004613c6d565b61240c565b34801561085057600080fd5b5061039561085f36600461484e565b6124ef565b34801561087057600080fd5b5061043661087f36600461488f565b6124fc565b34801561089057600080fd5b5061039561089f3660046148ac565b612549565b604051638f8d7f9960e01b81526001600160a01b038084166004830152821660248201526000903090638f8d7f99906044015b602060405180830381600087803b1580156108f157600080fd5b505af1158015610905573d6000803e3d6000fd5b505050506040513d601f19601f8201168201806040525081019061092991906148f7565b604051600782900b8152909150600080516020615a9c8339815191529060200160405180910390a1600781900b60161461096257600080fd5b92915050565b600080610976858585612720565b6040518281529193509150600080516020615a9c8339815191529060200160405180910390a1601682146109a957600080fd5b60405181151581527e1c2e72360171244b3bb8cc8ddd767820edf37138ad6f129fb3574b407c307d906020015b60405180910390a1935093915050565b6000806109f3848461281f565b6040518281529193509150600080516020615a9c8339815191529060200160405180910390a160168214610a2657600080fd5b6040516001600160a01b03821681527fc2c78c7c31baf14949e75c51df12be56edb9af523cf82839c2869bbcf13b3ecb906020015b60405180910390a19250929050565b604051631f106b4b60e21b81526001600160a01b03821660048201526000903090637c41ad2c90602401602060405180830381600087803b158015610aae57600080fd5b505af1158015610ac2573d6000803e3d6000fd5b505050506040513d601f19601f82011682018060405250810190610ae69190614914565b9050600080516020615a9c83398151915281604051610b0791815260200190565b60405180910390a160168114610b1c57600080fd5b604051600181527f0c9c765845f4d139956bb8fc8decb2eec6093c9c608b809641b16054b29f0e13906020015b60405180910390a1919050565b6000610b6283836128ff565b60070b9050600080516020615a9c83398151915281604051610b8691815260200190565b60405180910390a16016811461096257600080fd5b60405163af99c63360e01b81526001600160a01b03808416600483015282166024820152600090309063af99c633906044016108d7565b6040516001600160a01b03821660248201526000908190819061016790633b3bff0f60e01b906044015b60408051601f198184030181529181526020820180516001600160e01b03166001600160e01b0319909416939093179092529051610c3a919061492d565b6000604051808303816000865af19150503d8060008114610c77576040519150601f19603f3d011682016040523d82523d6000602084013e610c7c565b606091505b509150915081610c8d576015610ca1565b80806020019051810190610ca1919061495b565b60030b949350505050565b600080610cb88361294e565b6040518281529193509150600080516020615a9c8339815191529060200160405180910390a160168214610ceb57600080fd5b60405181151581527f6b7f3306751292f85ab4161ee2b0ac16dfc8ded13e6446ce6bd859d0a2f4c78e906020015b60405180910390a1915091565b60408051600480825260a08201909252600091816020015b610d46613a2f565b815260200190600190039081610d3e579050509050610d7960006006600160405180602001604052806000815250612a4b565b81600081518110610d8c57610d8c614976565b6020026020010181905250610db260018060405180602001604052806000815250612a82565b81600181518110610dc557610dc5614976565b6020026020010181905250610dec6002600160405180602001604052806000815250612a82565b81600281518110610dff57610dff614976565b6020026020010181905250610e266003600160405180602001604052806000815250612a82565b81600381518110610e3957610e39614976565b602002602001018190525060006040518060600160405280600063ffffffff168152602001846001600160a01b03168152602001627a120063ffffffff168152509050600060405180610120016040528060018054610e979061498c565b80601f0160208091040260200160405190810160405280929190818152602001828054610ec39061498c565b8015610f105780601f10610ee557610100808354040283529160200191610f10565b820191906000526020600020905b815481529060010190602001808311610ef357829003601f168201915b5050505050815260200160028054610f279061498c565b80601f0160208091040260200160405190810160405280929190818152602001828054610f539061498c565b8015610fa05780601f10610f7557610100808354040283529160200191610fa0565b820191906000526020600020905b815481529060010190602001808311610f8357829003601f168201915b50505050508152602001856001600160a01b0316815260200160038054610fc69061498c565b80601f0160208091040260200160405190810160405280929190818152602001828054610ff29061498c565b801561103f5780601f106110145761010080835404028352916020019161103f565b820191906000526020600020905b81548152906001019060200180831161102257829003601f168201915b50505091835250506001602082015260055463ffffffff16604082015260075460ff16151560608201526080810185905260a001839052600454600654919250600091829161109091859190612ab7565b9092509050601682146110a257600080fd5b6040516001600160a01b03821681527f7bb17726df1f3adee8aa00ba8e8bc5d6f182af3bbf77604639cb7f008dd3b4ed9060200160405180910390a1505050505050565b60006110f485858585612be5565b9050600080516020615a9c8339815191528160405161111591815260200190565b60405180910390a16016811461112a57600080fd5b949350505050565b600061113c613a8c565b6111468484612cf5565b6040518281529193509150600080516020615a9c8339815191529060200160405180910390a16016821461117957600080fd5b7fa516f81c528634d0fc1e993bba1d227231b4bd6d1beb72d33b056a6199c0f98881604051610a5b91906149c7565b60006111b5848484612de8565b9050600080516020615a9c833981519152816040516111d691815260200190565b60405180910390a1601681146111eb57600080fd5b9392505050565b60008060006101676001600160a01b031663593d6e8260e01b868660405160240161121e9291906149da565b60408051601f198184030181529181526020820180516001600160e01b03166001600160e01b031990941693909317909252905161125c919061492d565b6000604051808303816000865af19150503d8060008114611299576040519150601f19603f3d011682016040523d82523d6000602084013e61129e565b606091505b5091509150816112af5760156112c3565b808060200190518101906112c3919061495b565b60030b95945050505050565b6000806112dd858585612ec8565b6040518281529193509150600080516020615a9c8339815191529060200160405180910390a16016821461131057600080fd5b6040518181527f25b6684a7e8fe1b676e9c39c8dd65034fbafea906d3bdfd97bf748b7b55e14c8906020016109d6565b6000606080606061135085612fb4565b604051600785900b815293975091955093509150600080516020615a9c8339815191529060200160405180910390a1600784900b60161461139057600080fd5b7f2efc8334b040613a552197fe34283d6ca2909c8ffae393e128424931f20c69b38383836040516113c393929190614a1d565b60405180910390a19193509193565b60006113dc613ac7565b6113e5836130b4565b6040518281529193509150600080516020615a9c8339815191529060200160405180910390a16016821461141857600080fd5b7f476a9a9b28e2717d55288b2ae3c48a72aac52b11f8bd855017c9d41d9fc1896481604051610d199190614a56565b600080611454848461319d565b60405160079290920b80835293509150600080516020615a9c8339815191529060200160405180910390a16016821461148c57600080fd5b60405181151581527f59800d968fcce138300a0019410b4b75041610d65b3cdc5f31656b03ed14912e90602001610a5b565b60006110f4858585856131ee565b6040516001600160a01b03821660248201526000908190819061016790631f106b4b60e21b90604401610bfc565b6000610b62838361324f565b600080606061151686868661329e565b6040518381529295509093509150600080516020615a9c8339815191529060200160405180910390a16016831461154c57600080fd5b7feff23992f47b3c101679f8b4dc9d3e242c903909dba4a453f2b2341ad463b0e2828260405161157d929190614a69565b60405180910390a193509350939050565b60008061159a8361339c565b6040518281529193509150600080516020615a9c8339815191529060200160405180910390a1601682146115cd57600080fd5b60405181151581527f9ee19e13dfa1ba8db2502e15ff56dbecdeb0e0473323fb195473ce648030a2cd90602001610d19565b604080516001808252818301909252600091816020015b61161e613a2f565b815260200190600190039081611616579050509050611650600080600160405180602001604052806000815250612a4b565b8160008151811061166357611663614976565b602002602001018190525060006040518060600160405280600063ffffffff168152602001856001600160a01b03168152602001627a120063ffffffff1681525090506000604051806101200160405280600180546116c19061498c565b80601f01602080910402602001604051908101604052809291908181526020018280546116ed9061498c565b801561173a5780601f1061170f5761010080835404028352916020019161173a565b820191906000526020600020905b81548152906001019060200180831161171d57829003601f168201915b50505050508152602001600280546117519061498c565b80601f016020809104026020016040519081016040528092919081815260200182805461177d9061498c565b80156117ca5780601f1061179f576101008083540402835291602001916117ca565b820191906000526020600020905b8154815290600101906020018083116117ad57829003601f168201915b50505050508152602001866001600160a01b03168152602001600380546117f09061498c565b80601f016020809104026020016040519081016040528092919081815260200182805461181c9061498c565b80156118695780601f1061183e57610100808354040283529160200191611869565b820191906000526020600020905b81548152906001019060200180831161184c57829003601f168201915b505050918352505060016020820181905260055463ffffffff166040808401919091526000606084018190526080840188905260a09093018690528051828152808201909152929350909190816020015b6040805160a0810182526000808252602080830182905292820181905260608201819052608082015282526000199092019101816118ba5750506040805160a081018252600181526001600160a01b0388811660208301526000928201839052606082018390528916608082015282519293509183919061193d5761193d614976565b6020908102919091010152604080516001808252818301909252600091816020015b6040805160c08101825260008082526020808301829052928201819052606082018190526080820181905260a0820152825260001990920191018161195f5750506040805160c0810182526004815260056020820152600a91810191909152601e60608201526000608082018190526001600160a01b038a1660a0830152825192935090918391906119f3576119f3614976565b6020026020010181905250600080611a128560045460065487876133e5565b91509150600080516020615a9c83398151915282604051611a3591815260200190565b60405180910390a160168214611a4a57600080fd5b6040516001600160a01b03821681527f7bb17726df1f3adee8aa00ba8e8bc5d6f182af3bbf77604639cb7f008dd3b4ed9060200160405180910390a1505050505050505050565b6040516001600160a01b038381166024830152821660448201526000908190819061016790638f8d7f9960e01b9060640161121e565b6000611adb611ad68385614b3b565b613519565b9050600080516020615a9c83398151915281604051610b8691815260200190565b6000611b0782613543565b9050600080516020615a9c83398151915281604051611b2891815260200190565b60405180910390a160168114611b3d57600080fd5b919050565b604051633cb0c7fd60e21b81526001600160a01b038084166004830152821660248201526000908190309063f2c31ff4906044016040805180830381600087803b158015611b8f57600080fd5b505af1158015611ba3573d6000803e3d6000fd5b505050506040513d601f19601f82011682018060405250810190611bc79190614cb3565b604051600783900b81529193509150600080516020615a9c8339815191529060200160405180910390a1600782900b601614611c0257600080fd5b60405181151581527fd24dda6928587354b65aa1a18c2eaf249bef7e5bafd2a71fac71d286f76f957f90602001610a5b565b6040516001600160a01b03838116602483015282166044820152600090819081906101679063af99c63360e01b9060640161121e565b60408051606081018252600080825260208201819052918101829052604051631ac299b760e31b81526001600160a01b0384166004820152309063d614cdb890602401608060405180830381600087803b158015611cc757600080fd5b505af1158015611cdb573d6000803e3d6000fd5b505050506040513d601f19601f82011682018060405250810190611cff9190614d4d565b6040518281529193509150600080516020615a9c8339815191529060200160405180910390a160168214611d3257600080fd5b7fa0a16bf9db2c17796faeca5af5aaeef8523f9d4c350c512cb00062ad89604f8881604051610d199190614d7a565b604080516060810182526000808252602080830182905282840182905283516001600160a01b038616602480830191909152855180830390910181526044909101855290810180516001600160e01b0316631ac299b760e31b179052925190928391829161016791611dd3919061492d565b6000604051808303816000865af19150503d8060008114611e10576040519150601f19603f3d011682016040523d82523d6000602084013e611e15565b606091505b506040805160608101825260008082526020820181905291810191909152919350915082611e4557601581611e59565b81806020019051810190611e599190614dae565b60039190910b97909650945050505050565b60408051600580825260c08201909252600091816020015b611e8b613a2f565b815260200190600190039081611e83579050509050611ebe60006006600160405180602001604052806000815250612a4b565b81600081518110611ed157611ed1614976565b6020026020010181905250611ef760018060405180602001604052806000815250612a82565b81600181518110611f0a57611f0a614976565b6020026020010181905250611f316002600160405180602001604052806000815250612a82565b81600281518110611f4457611f44614976565b6020026020010181905250611f6b6004600160405180602001604052806000815250612a82565b81600381518110611f7e57611f7e614976565b6020026020010181905250611fa56003600160405180602001604052806000815250612a82565b81600481518110611fb857611fb8614976565b602002602001018190525060006040518060600160405280600063ffffffff168152602001846001600160a01b03168152602001627a120063ffffffff1681525090506000604051806101200160405280600180546120169061498c565b80601f01602080910402602001604051908101604052809291908181526020018280546120429061498c565b801561208f5780601f106120645761010080835404028352916020019161208f565b820191906000526020600020905b81548152906001019060200180831161207257829003601f168201915b50505050508152602001600280546120a69061498c565b80601f01602080910402602001604051908101604052809291908181526020018280546120d29061498c565b801561211f5780601f106120f45761010080835404028352916020019161211f565b820191906000526020600020905b81548152906001019060200180831161210257829003601f168201915b50505050508152602001856001600160a01b03168152602001600380546121459061498c565b80601f01602080910402602001604051908101604052809291908181526020018280546121719061498c565b80156121be5780601f10612193576101008083540402835291602001916121be565b820191906000526020600020905b8154815290600101906020018083116121a157829003601f168201915b50505091835250506001602082015260055463ffffffff16604082015260075460ff16151560608201526080810185905260a00183905290506000806110908361358a565b60006111b5848484613674565b6040517f593d6e82000000000000000000000000000000000000000000000000000000008152600090309063593d6e829061225190869086906004016149da565b602060405180830381600087803b15801561226b57600080fd5b505af115801561227f573d6000803e3d6000fd5b505050506040513d601f19601f82011682018060405250810190611adb9190614914565b60006111b58484846136cf565b6040516001600160a01b0383811660248301528216604482015260009081908190819061016790633cb0c7fd60e21b906064015b60408051601f198184030181529181526020820180516001600160e01b03166001600160e01b0319909416939093179092529051612322919061492d565b6000604051808303816000865af19150503d806000811461235f576040519150601f19603f3d011682016040523d82523d6000602084013e612364565b606091505b5091509150816123775760156000611e59565b80806020019051810190611e599190614dd9565b6000612395613ae7565b61239e83613726565b6040518281529193509150600080516020615a9c8339815191529060200160405180910390a1601682146123d157600080fd5b7f528c7dcea75f0c9e110a038e50647cd6a70ac06d331399b77dd9a80f903ebc1681604051610d199190614e05565b6000611adb838361380f565b604051633b3bff0f60e01b81526001600160a01b03821660048201526000903090633b3bff0f90602401602060405180830381600087803b15801561245057600080fd5b505af1158015612464573d6000803e3d6000fd5b505050506040513d601f19601f820116820180604052508101906124889190614914565b9050600080516020615a9c833981519152816040516124a991815260200190565b60405180910390a1601681146124be57600080fd5b604051600181527f319ab7084208e4afa38c6e6ff7aea9587439f2e4700746f4c7d425fea17426d290602001610b49565b60006111b584848461385e565b6007805460ff191682151590811790915560405160ff909116151581527f457c3a16a0ebdc38e3675609957ca3fcc4490e220bd15d85d34f58e2e145cb089060200160405180910390a150565b6040805160008082526020820190925281908161258e565b60408051606081018252600080825260208083018290529282015282526000199092019101816125615790505b50905060006040518060400160405280336001600160a01b03168152602001856125b790614e18565b600790810b9091526040805180820182526001600160a01b038a1681529187900b602083015280516002808252606082019092529293509091600091816020015b60408051808201909152600080825260208201528152602001906001900390816125f8579050509050828160008151811061263557612635614976565b6020026020010181905250818160018151811061265457612654614976565b602090810291909101810191909152604080516060810182526001600160a01b038a16815291820183905281810186905280516001808252818301909252600091816020015b6126c7604051806060016040528060006001600160a01b0316815260200160608152602001606081525090565b81526020019060019003908161269a57905050905081816000815181106126f0576126f0614976565b602002602001018190525061270481613519565b96506016871461271357600080fd5b5050505050509392505050565b604080516001600160a01b0385811660248301528481166044830152831660648083019190915282518083039091018152608490910182526020810180516001600160e01b03167ff49f40db000000000000000000000000000000000000000000000000000000001790529051600091829182918291610167916127a39161492d565b6000604051808303816000865af19150503d80600081146127e0576040519150601f19603f3d011682016040523d82523d6000602084013e6127e5565b606091505b5091509150816127f8576015600061280c565b8080602001905181019061280c9190614dd9565b60039190910b9890975095505050505050565b604080516001600160a01b0384166024820152604480820184905282518083039091018152606490910182526020810180516001600160e01b03167f098f2366000000000000000000000000000000000000000000000000000000001790529051600091829182918291610167916128969161492d565b6000604051808303816000865af19150503d80600081146128d3576040519150601f19603f3d011682016040523d82523d6000602084013e6128d8565b606091505b5091509150816128eb5760156000611e59565b80806020019051810190611e599190614e4e565b6040516001600160a01b0383811660248301528216604482015260009081908190610167907f52f91387000000000000000000000000000000000000000000000000000000009060640161121e565b6040516001600160a01b0382166024820152600090819081908190610167907fa7daa18d00000000000000000000000000000000000000000000000000000000906044015b60408051601f198184030181529181526020820180516001600160e01b03166001600160e01b03199094169390931790925290516129d1919061492d565b6000604051808303816000865af19150503d8060008114612a0e576040519150601f19603f3d011682016040523d82523d6000602084013e612a13565b606091505b509150915081612a265760156000612a3a565b80806020019051810190612a3a9190614dd9565b60039190910b969095509350505050565b612a53613a2f565b6040518060400160405280612a6887876138b4565b8152602001612a7785856138cd565b905295945050505050565b612a8a613a2f565b6040518060400160405280612a9e8661399d565b8152602001612aad85856138cd565b9052949350505050565b600080848061010001516000015163ffffffff166000148015612ae757506101008101516040015163ffffffff16155b15612afd576101008101516276a7006040909101525b6000806101676001600160a01b031634637812a04b60e01b8a8a8a604051602401612b2a93929190614e7a565b60408051601f198184030181529181526020820180516001600160e01b03166001600160e01b0319909416939093179092529051612b68919061492d565b60006040518083038185875af1925050503d8060008114612ba5576040519150601f19603f3d011682016040523d82523d6000602084013e612baa565b606091505b509150915081612bbd5760156000612bd1565b80806020019051810190612bd19190614e4e565b60039190910b999098509650505050505050565b6040516001600160a01b038581166024830152848116604483015283166064820152600782900b608482015260009081908190610167907feca36917000000000000000000000000000000000000000000000000000000009060a4015b60408051601f198184030181529181526020820180516001600160e01b03166001600160e01b0319909416939093179092529051612c80919061492d565b6000604051808303816000865af19150503d8060008114612cbd576040519150601f19603f3d011682016040523d82523d6000602084013e612cc2565b606091505b509150915081612cd3576015612ce7565b80806020019051810190612ce7919061495b565b60030b979650505050505050565b6000612cff613a8c565b604080516001600160a01b0386166024820152600785900b60448083019190915282518083039091018152606490910182526020810180516001600160e01b03167f287e1da8000000000000000000000000000000000000000000000000000000001790529051600091829161016791612d789161492d565b6000604051808303816000865af19150503d8060008114612db5576040519150601f19603f3d011682016040523d82523d6000602084013e612dba565b606091505b5091509150612dc7613a8c565b82612dd45760158161280c565b8180602001905181019061280c9190615504565b60008060006101676001600160a01b031663f7f38e2660e01b878787604051602401612e16939291906155ec565b60408051601f198184030181529181526020820180516001600160e01b03166001600160e01b0319909416939093179092529051612e54919061492d565b6000604051808303816000865af19150503d8060008114612e91576040519150601f19603f3d011682016040523d82523d6000602084013e612e96565b606091505b509150915081612ea7576015612ebb565b80806020019051810190612ebb919061495b565b60030b9695505050505050565b604080516001600160a01b0385811660248301528481166044830152831660648083019190915282518083039091018152608490910182526020810180516001600160e01b03167f927da10500000000000000000000000000000000000000000000000000000000179052905160009182918291829161016791612f4b9161492d565b6000604051808303816000865af19150503d8060008114612f88576040519150601f19603f3d011682016040523d82523d6000602084013e612f8d565b606091505b509150915081612fa0576015600061280c565b8080602001905181019061280c9190615618565b604080516001600160a01b03831660248083019190915282518083039091018152604490910182526020810180516001600160e01b03167fae7611a000000000000000000000000000000000000000000000000000000000179052905160009160609182918291859182916101679161302c9161492d565b6000604051808303816000865af19150503d8060008114613069576040519150601f19603f3d011682016040523d82523d6000602084013e61306e565b606091505b509150915060608060608461308757601583838361309b565b8380602001905181019061309b9190615644565b60039390930b9d919c509a509098509650505050505050565b60006130be613ac7565b604080516001600160a01b03851660248083019190915282518083039091018152604490910182526020810180516001600160e01b03167f3f28a19b00000000000000000000000000000000000000000000000000000000179052905160009182916101679161312d9161492d565b6000604051808303816000865af19150503d806000811461316a576040519150601f19603f3d011682016040523d82523d6000602084013e61316f565b606091505b509150915061317c613ac7565b8261318957601581611e59565b81806020019051810190611e5991906156dd565b6040516001600160a01b03838116602483015282166044820152600090819081908190610167907f46de0fb100000000000000000000000000000000000000000000000000000000906064016122e4565b6040516001600160a01b038581166024830152848116604483015283166064820152600782900b608482015260009081908190610167907f5cfc9011000000000000000000000000000000000000000000000000000000009060a401612c42565b6040516001600160a01b0383811660248301528216604482015260009081908190610167907f5b8f8584000000000000000000000000000000000000000000000000000000009060640161121e565b60008060606000806101676001600160a01b031663278e0b8860e01b8989896040516024016132cf93929190615789565b60408051601f198184030181529181526020820180516001600160e01b03166001600160e01b031990941693909317909252905161330d919061492d565b6000604051808303816000865af19150503d806000811461334a576040519150601f19603f3d011682016040523d82523d6000602084013e61334f565b606091505b509150915081613372576040805160008082526020820190925260159190613386565b80806020019051810190613386919061580d565b60039290920b9a90995090975095505050505050565b6040516001600160a01b0382166024820152600090819081908190610167907f335e04c10000000000000000000000000000000000000000000000000000000090604401612993565b600080868061010001516000015163ffffffff16600014801561341557506101008101516040015163ffffffff16155b1561342b576101008101516276a7006040909101525b6000806101676001600160a01b031634634c381ae760e01b8c8c8c8c8c60405160240161345c9594939291906158be565b60408051601f198184030181529181526020820180516001600160e01b03166001600160e01b031990941693909317909252905161349a919061492d565b60006040518083038185875af1925050503d80600081146134d7576040519150601f19603f3d011682016040523d82523d6000602084013e6134dc565b606091505b5091509150816134ef5760156000613503565b808060200190518101906135039190614e4e565b60039190910b9b909a5098505050505050505050565b60008060006101676001600160a01b031663189a554c60e01b85604051602401610bfc9190615964565b6040516001600160a01b038216602482015260009081908190610167907ff069f7120000000000000000000000000000000000000000000000000000000090604401610bfc565b600080828061010001516000015163ffffffff1660001480156135ba57506101008101516040015163ffffffff16155b156135d0576101008101516276a7006040909101525b6000806101676001600160a01b031634639dc711e060e01b886040516024016135f99190615a3a565b60408051601f198184030181529181526020820180516001600160e01b03166001600160e01b0319909416939093179092529051613637919061492d565b60006040518083038185875af1925050503d80600081146128d3576040519150601f19603f3d011682016040523d82523d6000602084013e6128d8565b6040516001600160a01b0384811660248301528316604482015263ffffffff8216606482015260009081908190610167907f9790686d0000000000000000000000000000000000000000000000000000000090608401612e16565b6040516001600160a01b03848116602483015283166044820152811515606482015260009081908190610167907f367605ca0000000000000000000000000000000000000000000000000000000090608401612e16565b6000613730613ae7565b604080516001600160a01b03851660248083019190915282518083039091018152604490910182526020810180516001600160e01b03167f1f69565f00000000000000000000000000000000000000000000000000000000179052905160009182916101679161379f9161492d565b6000604051808303816000865af19150503d80600081146137dc576040519150601f19603f3d011682016040523d82523d6000602084013e6137e1565b606091505b50915091506137ee613ae7565b826137fb57601581611e59565b81806020019051810190611e599190615a4d565b6040516001600160a01b0383811660248301528216604482015260009081908190610167907f49146bde000000000000000000000000000000000000000000000000000000009060640161121e565b6040516001600160a01b038481166024830152831660448201526064810182905260009081908190610167907fe1f21c670000000000000000000000000000000000000000000000000000000090608401612e16565b6000600160ff84161b9050600160ff83161b81176111eb565b6139136040518060a0016040528060001515815260200160006001600160a01b03168152602001606081526020016060815260200160006001600160a01b031681525090565b8260ff16600114156139285760018152610962565b8260ff166002141561394a576000546001600160a01b03166020820152610962565b8260ff16600314156139625760408101829052610962565b8260ff166004141561397a5760608101829052610962565b8260ff1660051415610962576000546001600160a01b0316608082015292915050565b600060ff82166139af57506001919050565b8160ff16600114156139c357506002919050565b8160ff16600214156139d757506004919050565b8160ff16600314156139eb57506008919050565b8160ff16600414156139ff57506010919050565b8160ff1660051415613a1357506020919050565b8160ff1660061415613a2757506040919050565b506000919050565b604051806040016040528060008152602001613a876040518060a0016040528060001515815260200160006001600160a01b03168152602001606081526020016060815260200160006001600160a01b031681525090565b905290565b6040518060c00160405280613a9f613ae7565b8152600060208201819052604082018190526060808301829052608083015260a09091015290565b6040518060400160405280613ada613ae7565b8152600060209091015290565b60408051610240810182526060610120820181815261014083018290526000610160840181905261018084018390526101a084018190526101c084018190526101e0840181905261020084018390528451928301855280835260208301819052938201939093526102208201529081908152602001600067ffffffffffffffff168152602001600015158152602001600015158152602001600015158152602001606081526020016060815260200160608152602001606081525090565b6001600160a01b0381168114613bba57600080fd5b50565b60008060408385031215613bd057600080fd5b8235613bdb81613ba5565b91506020830135613beb81613ba5565b809150509250929050565b600080600060608486031215613c0b57600080fd5b8335613c1681613ba5565b92506020840135613c2681613ba5565b91506040840135613c3681613ba5565b809150509250925092565b60008060408385031215613c5457600080fd5b8235613c5f81613ba5565b946020939093013593505050565b600060208284031215613c7f57600080fd5b81356111eb81613ba5565b8060070b8114613bba57600080fd5b60008060008060808587031215613caf57600080fd5b8435613cba81613ba5565b93506020850135613cca81613ba5565b92506040850135613cda81613ba5565b91506060850135613cea81613c8a565b939692955090935050565b60008060408385031215613d0857600080fd5b8235613d1381613ba5565b91506020830135613beb81613c8a565b60005b83811015613d3e578181015183820152602001613d26565b83811115613d4d576000848401525b50505050565b60008151808452613d6b816020860160208601613d23565b601f01601f19169290920160200192915050565b600081518084526020808501808196508360051b8101915082860160005b85811015613e365782840389528151604081518652868201519150808787015281511515818701528682015160606001600160a01b03808316828a015283850151935060a09250608083818b0152613df860e08b0186613d53565b928601518a8403603f1901858c0152929450613e148584613d53565b9501511660c09890980197909752505098850198935090840190600101613d9d565b5091979650505050505050565b60006101608251818552613e5982860182613d53565b91505060208301518482036020860152613e738282613d53565b9150506040830151613e9060408601826001600160a01b03169052565b5060608301518482036060860152613ea88282613d53565b9150506080830151613ebe608086018215159052565b5060a0830151613ed660a086018263ffffffff169052565b5060c0830151613eea60c086018215159052565b5060e083015184820360e0860152613f028282613d7f565b61010085810151805163ffffffff9081168984015260208201516001600160a01b03166101208a015260408201511661014089015291935091505090949350505050565b600081518084526020808501945080840160005b83811015613fb6578151805163ffffffff168852838101516001600160a01b03908116858a01526040808301511515908a01526060808301511515908a0152608091820151169088015260a09096019590820190600101613f5a565b509495945050505050565b600081518084526020808501945080840160005b83811015613fb6578151805163ffffffff9081168952848201518116858a01526040808301518216908a01526060808301519091169089015260808082015115159089015260a0908101516001600160a01b03169088015260c09096019590820190600101613fd5565b600081518084526020808501945080840160005b83811015613fb6578151805163ffffffff9081168952848201518116858a0152604080830151909116908901526060808201516001600160a01b03908116918a01919091526080808301511515908a015260a091820151169088015260c09096019590820190600101614053565b600061012082518185526140d782860182613e43565b91505060208301516140f5602086018267ffffffffffffffff169052565b506040830151614109604086018215159052565b50606083015161411d606086018215159052565b506080830151614131608086018215159052565b5060a083015184820360a08601526141498282613f46565b91505060c083015184820360c08601526141638282613fc1565b91505060e083015184820360e086015261417d828261403f565b91505061010080840151858303828701526141988382613d53565b9695505050505050565b6000815160c084526141b760c08501826140c1565b9050602083015160070b602085015260408301516001600160a01b038082166040870152606085015160070b60608701526080850151915085830360808701526142018383613d53565b92508060a08601511660a087015250508091505092915050565b82815260406020820152600061112a60408301846141a2565b634e487b7160e01b600052604160045260246000fd5b6040516060810167ffffffffffffffff8111828210171561426d5761426d614234565b60405290565b6040805190810167ffffffffffffffff8111828210171561426d5761426d614234565b60405160a0810167ffffffffffffffff8111828210171561426d5761426d614234565b604051610120810167ffffffffffffffff8111828210171561426d5761426d614234565b60405160c0810167ffffffffffffffff8111828210171561426d5761426d614234565b604051601f8201601f1916810167ffffffffffffffff8111828210171561432957614329614234565b604052919050565b600067ffffffffffffffff82111561434b5761434b614234565b5060051b60200190565b60008060006060848603121561436a57600080fd5b833561437581613ba5565b925060208481013561438681613ba5565b9250604085013567ffffffffffffffff8111156143a257600080fd5b8501601f810187136143b357600080fd5b80356143c66143c182614331565b614300565b81815260059190911b820183019083810190898311156143e557600080fd5b928401925b8284101561440c5783356143fd81613c8a565b825292840192908401906143ea565b80955050505050509250925092565b63ffffffff81168114613bba57600080fd5b600080828403608081121561444157600080fd5b833561444c81613ba5565b92506060601f198201121561446057600080fd5b5061446961424a565b60208401356144778161441b565b8152604084013561448781613ba5565b6020820152606084013561449a8161441b565b6040820152919491935090915050565b8460070b81526080602082015260006144c66080830186613f46565b82810360408401526144d88186613fc1565b905082810360608401526144ec818561403f565b979650505050505050565b600081516040845261450c60408501826140c1565b60209384015163ffffffff16949093019390935250919050565b82815260406020820152600061112a60408301846144f7565b67ffffffffffffffff81168114613bba57600080fd5b600067ffffffffffffffff82111561456f5761456f614234565b50601f01601f191660200190565b60008060006060848603121561459257600080fd5b833561459d81613ba5565b92506020848101356145ae8161453f565b925060408581013567ffffffffffffffff808211156145cc57600080fd5b818801915088601f8301126145e057600080fd5b81356145ee6143c182614331565b81815260059190911b8301850190858101908b83111561460d57600080fd5b8685015b83811015614681578035858111156146295760008081fd5b8601603f81018e1361463b5760008081fd5b8881013561464b6143c182614555565b8181528f8a8385010111156146605760008081fd5b818a84018c83013760009181018b0191909152845250918701918701614611565b50809750505050505050509250925092565b600081518084526020808501945080840160005b83811015613fb657815160070b875295820195908201906001016146a7565b83815267ffffffffffffffff831660208201526060604082015260006146ef6060830184614693565b95945050505050565b6000806020838503121561470b57600080fd5b823567ffffffffffffffff8082111561472357600080fd5b818501915085601f83011261473757600080fd5b81358181111561474657600080fd5b8660208260051b850101111561475b57600080fd5b60209290920196919550909350505050565b828152608081016111eb6020830184805163ffffffff90811683526020808301516001600160a01b03169084015260409182015116910152565b6000806000606084860312156147bc57600080fd5b83356147c781613ba5565b925060208401356147d781613ba5565b91506040840135613c368161441b565b8015158114613bba57600080fd5b60008060006060848603121561480a57600080fd5b833561481581613ba5565b9250602084013561482581613ba5565b91506040840135613c36816147e7565b82815260406020820152600061112a60408301846140c1565b60008060006060848603121561486357600080fd5b833561486e81613ba5565b9250602084013561487e81613ba5565b929592945050506040919091013590565b6000602082840312156148a157600080fd5b81356111eb816147e7565b6000806000606084860312156148c157600080fd5b83356148cc81613ba5565b925060208401356148dc81613ba5565b91506040840135613c3681613c8a565b8051611b3d81613c8a565b60006020828403121561490957600080fd5b81516111eb81613c8a565b60006020828403121561492657600080fd5b5051919050565b6000825161493f818460208701613d23565b9190910192915050565b8051600381900b8114611b3d57600080fd5b60006020828403121561496d57600080fd5b6111eb82614949565b634e487b7160e01b600052603260045260246000fd5b600181811c908216806149a057607f821691505b602082108114156149c157634e487b7160e01b600052602260045260246000fd5b50919050565b6020815260006111eb60208301846141a2565b6001600160a01b0383168152608081016111eb6020830184805163ffffffff90811683526020808301516001600160a01b03169084015260409182015116910152565b606081526000614a306060830186613f46565b8281036020840152614a428186613fc1565b90508281036040840152614198818561403f565b6020815260006111eb60208301846144f7565b67ffffffffffffffff8316815260406020820152600061112a6040830184614693565b600082601f830112614a9d57600080fd5b81356020614aad6143c183614331565b82815260609283028501820192828201919087851115614acc57600080fd5b8387015b85811015614b2e5781818a031215614ae85760008081fd5b614af061424a565b8135614afb81613ba5565b815281860135614b0a81613ba5565b81870152604082810135614b1d81613c8a565b908201528452928401928101614ad0565b5090979650505050505050565b6000614b496143c184614331565b80848252602080830192508560051b850136811115614b6757600080fd5b855b81811015614c9c57803567ffffffffffffffff80821115614b8a5760008081fd5b818901915060608236031215614ba05760008081fd5b614ba861424a565b8235614bb381613ba5565b81528286013582811115614bc75760008081fd5b830136601f820112614bd95760008081fd5b8035614be76143c182614331565b81815260069190911b82018801908881019036831115614c075760008081fd5b928901925b82841015614c5d5760408436031215614c255760008081fd5b614c2d614273565b8435614c3881613ba5565b8152848b0135614c4781613c8a565b818c015282526040939093019290890190614c0c565b848a01525060409150508381013583811115614c795760008081fd5b614c8536828701614a8c565b918301919091525087525050938201938201614b69565b50919695505050505050565b8051611b3d816147e7565b60008060408385031215614cc657600080fd5b8251614cd181613c8a565b6020840151909250613beb816147e7565b8051611b3d8161441b565b8051611b3d81613ba5565b600060608284031215614d0a57600080fd5b614d1261424a565b90508151614d1f8161441b565b81526020820151614d2f81613ba5565b60208201526040820151614d428161441b565b604082015292915050565b60008060808385031215614d6057600080fd5b82519150614d718460208501614cf8565b90509250929050565b606081016109628284805163ffffffff90811683526020808301516001600160a01b03169084015260409182015116910152565b60008060808385031215614dc157600080fd5b614dca83614949565b9150614d718460208501614cf8565b60008060408385031215614dec57600080fd5b614df583614949565b91506020830151613beb816147e7565b6020815260006111eb60208301846140c1565b60008160070b677fffffffffffffff19811415614e4557634e487b7160e01b600052601160045260246000fd5b60000392915050565b60008060408385031215614e6157600080fd5b614e6a83614949565b91506020830151613beb81613ba5565b606081526000614e8d6060830186613e43565b60208301949094525060400152919050565b600082601f830112614eb057600080fd5b8151614ebe6143c182614555565b818152846020838601011115614ed357600080fd5b61112a826020830160208701613d23565b600082601f830112614ef557600080fd5b81516020614f056143c183614331565b82815260059290921b84018101918181019086841115614f2457600080fd5b8286015b8481101561503a57805167ffffffffffffffff80821115614f4857600080fd5b908801906040601f19838c038101821315614f6257600080fd5b614f6a614273565b8885015181528285015184811115614f8157600080fd5b949094019360a0858e0383011215614f995760008081fd5b614fa1614296565b915088850151614fb0816147e7565b825284830151614fbf81613ba5565b828a015260608581015185811115614fd75760008081fd5b614fe58f8c838a0101614e9f565b85850152506080935083860151858111156150005760008081fd5b61500e8f8c838a0101614e9f565b82850152505061502060a08601614ced565b928201929092528188015285525050918301918301614f28565b509695505050505050565b6000610160828403121561505857600080fd5b6150606142b9565b9050815167ffffffffffffffff8082111561507a57600080fd5b61508685838601614e9f565b8352602084015191508082111561509c57600080fd5b6150a885838601614e9f565b60208401526150b960408501614ced565b604084015260608401519150808211156150d257600080fd5b6150de85838601614e9f565b60608401526150ef60808501614ca8565b608084015261510060a08501614ce2565b60a084015261511160c08501614ca8565b60c084015260e084015191508082111561512a57600080fd5b5061513784828501614ee4565b60e08301525061010061514c84828501614cf8565b9082015292915050565b8051611b3d8161453f565b600082601f83011261517257600080fd5b815160206151826143c183614331565b82815260a092830285018201928282019190878511156151a157600080fd5b8387015b85811015614b2e5781818a0312156151bd5760008081fd5b6151c5614296565b81516151d08161441b565b8152818601516151df81613ba5565b818701526040828101516151f2816147e7565b90820152606082810151615205816147e7565b9082015260808281015161521881613ba5565b9082015284529284019281016151a5565b600082601f83011261523a57600080fd5b8151602061524a6143c183614331565b82815260c0928302850182019282820191908785111561526957600080fd5b8387015b85811015614b2e5781818a0312156152855760008081fd5b61528d6142dd565b81516152988161441b565b8152818601516152a78161441b565b818701526040828101516152ba8161441b565b908201526060828101516152cd8161441b565b908201526080828101516152e0816147e7565b9082015260a0828101516152f381613ba5565b90820152845292840192810161526d565b600082601f83011261531557600080fd5b815160206153256143c183614331565b82815260c0928302850182019282820191908785111561534457600080fd5b8387015b85811015614b2e5781818a0312156153605760008081fd5b6153686142dd565b81516153738161441b565b8152818601516153828161441b565b818701526040828101516153958161441b565b908201526060828101516153a881613ba5565b908201526080828101516153bb816147e7565b9082015260a0828101516153ce81613ba5565b908201528452928401928101615348565b600061012082840312156153f257600080fd5b6153fa6142b9565b9050815167ffffffffffffffff8082111561541457600080fd5b61542085838601615045565b835261542e60208501615156565b602084015261543f60408501614ca8565b604084015261545060608501614ca8565b606084015261546160808501614ca8565b608084015260a084015191508082111561547a57600080fd5b61548685838601615161565b60a084015260c084015191508082111561549f57600080fd5b6154ab85838601615229565b60c084015260e08401519150808211156154c457600080fd5b6154d085838601615304565b60e0840152610100915081840151818111156154eb57600080fd5b6154f786828701614e9f565b8385015250505092915050565b6000806040838503121561551757600080fd5b61552083614949565b9150602083015167ffffffffffffffff8082111561553d57600080fd5b9084019060c0828703121561555157600080fd5b6155596142dd565b82518281111561556857600080fd5b615574888286016153df565b825250615583602084016148ec565b602082015261559460408401614ced565b60408201526155a5606084016148ec565b60608201526080830151828111156155bc57600080fd5b6155c888828601614e9f565b6080830152506155da60a08401614ced565b60a08201528093505050509250929050565b60006001600160a01b038086168352808516602084015250606060408301526146ef6060830184614693565b6000806040838503121561562b57600080fd5b61563483614949565b9150602083015190509250929050565b6000806000806080858703121561565a57600080fd5b61566385614949565b9350602085015167ffffffffffffffff8082111561568057600080fd5b61568c88838901615161565b945060408701519150808211156156a257600080fd5b6156ae88838901615229565b935060608701519150808211156156c457600080fd5b506156d187828801615304565b91505092959194509250565b600080604083850312156156f057600080fd5b6156f983614949565b9150602083015167ffffffffffffffff8082111561571657600080fd5b908401906040828703121561572a57600080fd5b60405160408101818110838211171561574557615745614234565b60405282518281111561575757600080fd5b615763888286016153df565b825250602083015192506157768361441b565b8260208201528093505050509250929050565b6000606082016001600160a01b0386168352602067ffffffffffffffff8616818501526060604085015281855180845260808601915060808160051b870101935082870160005b828110156157fe57607f198887030184526157ec868351613d53565b955092840192908401906001016157d0565b50939998505050505050505050565b60008060006060848603121561582257600080fd5b61582b84614949565b925060208085015161583c8161453f565b604086015190935067ffffffffffffffff81111561585957600080fd5b8501601f8101871361586a57600080fd5b80516158786143c182614331565b81815260059190911b8201830190838101908983111561589757600080fd5b928401925b8284101561440c5783516158af81613c8a565b8252928401929084019061589c565b60a0815260006158d160a0830188613e43565b86602084015285604084015282810360608401526158ef8186613f46565b905082810360808401526159038185613fc1565b98975050505050505050565b600081518084526020808501945080840160005b83811015613fb657815180516001600160a01b03908116895284820151168489015260409081015160070b9088015260609096019590820190600101615923565b60006020808301818452808551808352604092508286019150828160051b8701018488016000805b84811015615a2b57898403603f19018652825180516001600160a01b0390811686528982015160608b880181905281519088018190526080880192918c01919086905b808210156159fd5783518051841686528e015160070b8e860152938c0193928d0192600191909101906159cf565b5050505090880151858203868a015290615a17818361590f565b978a0197955050509187019160010161598c565b50919998505050505050505050565b6020815260006111eb6020830184613e43565b60008060408385031215615a6057600080fd5b615a6983614949565b9150602083015167ffffffffffffffff811115615a8557600080fd5b615a91858286016153df565b915050925092905056fe90a5cf4cffe88b4edbb041cfc7a8a812c48a5ec30b84640fb37690875168e3aaa26469706673582212200e78f269d9e7b70c329341bf2e8cd11c83b1b8affe71ae06bf9922e36f1a7a9764736f6c63430008090033",
  "linkReferences": {},
  "deployedLinkReferences": {}
}