{
  "_format": "hh-sol-artifact-1",
  "contractName": "BaseHTS",
  "sourceName": "contracts/BaseHTS.sol",
  "abi": [
    {
      "anonymous": false,
      "inputs": [
        {
          "indexed": false,
          "internalType": "uint256",
          "name": "amount",
          "type": "uint256"
        }
      ],
      "name": "AllowanceValue",
      "type": "event"
    },
    {
      "anonymous": false,
      "inputs": [
        {
          "indexed": false,
          "internalType": "bool",
          "name": "approved",
          "type": "bool"
        }
      ],
      "name": "Approved",
      "type": "event"
    },
    {
      "anonymous": false,
      "inputs": [
        {
          "indexed": false,
          "internalType": "address",
          "name": "approved",
          "type": "address"
        }
      ],
      "name": "ApprovedAddress",
      "type": "event"
    },
    {
      "anonymous": false,
      "inputs": [
        {
          "indexed": false,
          "internalType": "address",
          "name": "tokenAddress",
          "type": "address"
        }
      ],
      "name": "CreatedToken",
      "type": "event"
    },
    {
      "anonymous": false,
      "inputs": [
        {
          "indexed": false,
          "internalType": "bool",
          "name": "frozen",
          "type": "bool"
        }
      ],
      "name": "Frozen",
      "type": "event"
    },
    {
      "anonymous": false,
      "inputs": [
        {
          "components": [
            {
              "components": [
                {
                  "components": [
                    {
                      "internalType": "string",
                      "name": "name",
                      "type": "string"
                    },
                    {
                      "internalType": "string",
                      "name": "symbol",
                      "type": "string"
                    },
                    {
                      "internalType": "address",
                      "name": "treasury",
                      "type": "address"
                    },
                    {
                      "internalType": "string",
                      "name": "memo",
                      "type": "string"
                    },
                    {
                      "internalType": "bool",
                      "name": "tokenSupplyType",
                      "type": "bool"
                    },
                    {
                      "internalType": "uint32",
                      "name": "maxSupply",
                      "type": "uint32"
                    },
                    {
                      "internalType": "bool",
                      "name": "freezeDefault",
                      "type": "bool"
                    },
                    {
                      "components": [
                        {
                          "internalType": "uint256",
                          "name": "keyType",
                          "type": "uint256"
                        },
                        {
                          "components": [
                            {
                              "internalType": "bool",
                              "name": "inheritAccountKey",
                              "type": "bool"
                            },
                            {
                              "internalType": "address",
                              "name": "contractId",
                              "type": "address"
                            },
                            {
                              "internalType": "bytes",
                              "name": "ed25519",
                              "type": "bytes"
                            },
                            {
                              "internalType": "bytes",
                              "name": "ECDSA_secp256k1",
                              "type": "bytes"
                            },
                            {
                              "internalType": "address",
                              "name": "delegatableContractId",
                              "type": "address"
                            }
                          ],
                          "internalType": "struct IHederaTokenService.KeyValue",
                          "name": "key",
                          "type": "tuple"
                        }
                      ],
                      "internalType": "struct IHederaTokenService.TokenKey[]",
                      "name": "tokenKeys",
                      "type": "tuple[]"
                    },
                    {
                      "components": [
                        {
                          "internalType": "uint32",
                          "name": "second",
                          "type": "uint32"
                        },
                        {
                          "internalType": "address",
                          "name": "autoRenewAccount",
                          "type": "address"
                        },
                        {
                          "internalType": "uint32",
                          "name": "autoRenewPeriod",
                          "type": "uint32"
                        }
                      ],
                      "internalType": "struct IHederaTokenService.Expiry",
                      "name": "expiry",
                      "type": "tuple"
                    }
                  ],
                  "internalType": "struct IHederaTokenService.HederaToken",
                  "name": "token",
                  "type": "tuple"
                },
                {
                  "internalType": "uint64",
                  "name": "totalSupply",
                  "type": "uint64"
                },
                {
                  "internalType": "bool",
                  "name": "deleted",
                  "type": "bool"
                },
                {
                  "internalType": "bool",
                  "name": "defaultKycStatus",
                  "type": "bool"
                },
                {
                  "internalType": "bool",
                  "name": "pauseStatus",
                  "type": "bool"
                },
                {
                  "components": [
                    {
                      "internalType": "uint32",
                      "name": "amount",
                      "type": "uint32"
                    },
                    {
                      "internalType": "address",
                      "name": "tokenId",
                      "type": "address"
                    },
                    {
                      "internalType": "bool",
                      "name": "useHbarsForPayment",
                      "type": "bool"
                    },
                    {
                      "internalType": "bool",
                      "name": "useCurrentTokenForPayment",
                      "type": "bool"
                    },
                    {
                      "internalType": "address",
                      "name": "feeCollector",
                      "type": "address"
                    }
                  ],
                  "internalType": "struct IHederaTokenService.FixedFee[]",
                  "name": "fixedFees",
                  "type": "tuple[]"
                },
                {
                  "components": [
                    {
                      "internalType": "uint32",
                      "name": "numerator",
                      "type": "uint32"
                    },
                    {
                      "internalType": "uint32",
                      "name": "denominator",
                      "type": "uint32"
                    },
                    {
                      "internalType": "uint32",
                      "name": "minimumAmount",
                      "type": "uint32"
                    },
                    {
                      "internalType": "uint32",
                      "name": "maximumAmount",
                      "type": "uint32"
                    },
                    {
                      "internalType": "bool",
                      "name": "netOfTransfers",
                      "type": "bool"
                    },
                    {
                      "internalType": "address",
                      "name": "feeCollector",
                      "type": "address"
                    }
                  ],
                  "internalType": "struct IHederaTokenService.FractionalFee[]",
                  "name": "fractionalFees",
                  "type": "tuple[]"
                },
                {
                  "components": [
                    {
                      "internalType": "uint32",
                      "name": "numerator",
                      "type": "uint32"
                    },
                    {
                      "internalType": "uint32",
                      "name": "denominator",
                      "type": "uint32"
                    },
                    {
                      "internalType": "uint32",
                      "name": "amount",
                      "type": "uint32"
                    },
                    {
                      "internalType": "address",
                      "name": "tokenId",
                      "type": "address"
                    },
                    {
                      "internalType": "bool",
                      "name": "useHbarsForPayment",
                      "type": "bool"
                    },
                    {
                      "internalType": "address",
                      "name": "feeCollector",
                      "type": "address"
                    }
                  ],
                  "internalType": "struct IHederaTokenService.RoyaltyFee[]",
                  "name": "royaltyFees",
                  "type": "tuple[]"
                },
                {
                  "internalType": "string",
                  "name": "ledgerId",
                  "type": "string"
                }
              ],
              "internalType": "struct IHederaTokenService.TokenInfo",
              "name": "tokenInfo",
              "type": "tuple"
            },
            {
              "internalType": "uint32",
              "name": "decimals",
              "type": "uint32"
            }
          ],
          "indexed": false,
          "internalType": "struct IHederaTokenService.FungibleTokenInfo",
          "name": "tokenInfo",
          "type": "tuple"
        }
      ],
      "name": "FungibleTokenInfo",
      "type": "event"
    },
    {
      "anonymous": false,
      "inputs": [
        {
          "indexed": false,
          "internalType": "uint64",
          "name": "newTotalSupply",
          "type": "uint64"
        },
        {
          "indexed": false,
          "internalType": "int64[]",
          "name": "serialNumbers",
          "type": "int64[]"
        }
      ],
      "name": "MintedToken",
      "type": "event"
    },
    {
      "anonymous": false,
      "inputs": [
        {
          "components": [
            {
              "components": [
                {
                  "components": [
                    {
                      "internalType": "string",
                      "name": "name",
                      "type": "string"
                    },
                    {
                      "internalType": "string",
                      "name": "symbol",
                      "type": "string"
                    },
                    {
                      "internalType": "address",
                      "name": "treasury",
                      "type": "address"
                    },
                    {
                      "internalType": "string",
                      "name": "memo",
                      "type": "string"
                    },
                    {
                      "internalType": "bool",
                      "name": "tokenSupplyType",
                      "type": "bool"
                    },
                    {
                      "internalType": "uint32",
                      "name": "maxSupply",
                      "type": "uint32"
                    },
                    {
                      "internalType": "bool",
                      "name": "freezeDefault",
                      "type": "bool"
                    },
                    {
                      "components": [
                        {
                          "internalType": "uint256",
                          "name": "keyType",
                          "type": "uint256"
                        },
                        {
                          "components": [
                            {
                              "internalType": "bool",
                              "name": "inheritAccountKey",
                              "type": "bool"
                            },
                            {
                              "internalType": "address",
                              "name": "contractId",
                              "type": "address"
                            },
                            {
                              "internalType": "bytes",
                              "name": "ed25519",
                              "type": "bytes"
                            },
                            {
                              "internalType": "bytes",
                              "name": "ECDSA_secp256k1",
                              "type": "bytes"
                            },
                            {
                              "internalType": "address",
                              "name": "delegatableContractId",
                              "type": "address"
                            }
                          ],
                          "internalType": "struct IHederaTokenService.KeyValue",
                          "name": "key",
                          "type": "tuple"
                        }
                      ],
                      "internalType": "struct IHederaTokenService.TokenKey[]",
                      "name": "tokenKeys",
                      "type": "tuple[]"
                    },
                    {
                      "components": [
                        {
                          "internalType": "uint32",
                          "name": "second",
                          "type": "uint32"
                        },
                        {
                          "internalType": "address",
                          "name": "autoRenewAccount",
                          "type": "address"
                        },
                        {
                          "internalType": "uint32",
                          "name": "autoRenewPeriod",
                          "type": "uint32"
                        }
                      ],
                      "internalType": "struct IHederaTokenService.Expiry",
                      "name": "expiry",
                      "type": "tuple"
                    }
                  ],
                  "internalType": "struct IHederaTokenService.HederaToken",
                  "name": "token",
                  "type": "tuple"
                },
                {
                  "internalType": "uint64",
                  "name": "totalSupply",
                  "type": "uint64"
                },
                {
                  "internalType": "bool",
                  "name": "deleted",
                  "type": "bool"
                },
                {
                  "internalType": "bool",
                  "name": "defaultKycStatus",
                  "type": "bool"
                },
                {
                  "internalType": "bool",
                  "name": "pauseStatus",
                  "type": "bool"
                },
                {
                  "components": [
                    {
                      "internalType": "uint32",
                      "name": "amount",
                      "type": "uint32"
                    },
                    {
                      "internalType": "address",
                      "name": "tokenId",
                      "type": "address"
                    },
                    {
                      "internalType": "bool",
                      "name": "useHbarsForPayment",
                      "type": "bool"
                    },
                    {
                      "internalType": "bool",
                      "name": "useCurrentTokenForPayment",
                      "type": "bool"
                    },
                    {
                      "internalType": "address",
                      "name": "feeCollector",
                      "type": "address"
                    }
                  ],
                  "internalType": "struct IHederaTokenService.FixedFee[]",
                  "name": "fixedFees",
                  "type": "tuple[]"
                },
                {
                  "components": [
                    {
                      "internalType": "uint32",
                      "name": "numerator",
                      "type": "uint32"
                    },
                    {
                      "internalType": "uint32",
                      "name": "denominator",
                      "type": "uint32"
                    },
                    {
                      "internalType": "uint32",
                      "name": "minimumAmount",
                      "type": "uint32"
                    },
                    {
                      "internalType": "uint32",
                      "name": "maximumAmount",
                      "type": "uint32"
                    },
                    {
                      "internalType": "bool",
                      "name": "netOfTransfers",
                      "type": "bool"
                    },
                    {
                      "internalType": "address",
                      "name": "feeCollector",
                      "type": "address"
                    }
                  ],
                  "internalType": "struct IHederaTokenService.FractionalFee[]",
                  "name": "fractionalFees",
                  "type": "tuple[]"
                },
                {
                  "components": [
                    {
                      "internalType": "uint32",
                      "name": "numerator",
                      "type": "uint32"
                    },
                    {
                      "internalType": "uint32",
                      "name": "denominator",
                      "type": "uint32"
                    },
                    {
                      "internalType": "uint32",
                      "name": "amount",
                      "type": "uint32"
                    },
                    {
                      "internalType": "address",
                      "name": "tokenId",
                      "type": "address"
                    },
                    {
                      "internalType": "bool",
                      "name": "useHbarsForPayment",
                      "type": "bool"
                    },
                    {
                      "internalType": "address",
                      "name": "feeCollector",
                      "type": "address"
                    }
                  ],
                  "internalType": "struct IHederaTokenService.RoyaltyFee[]",
                  "name": "royaltyFees",
                  "type": "tuple[]"
                },
                {
                  "internalType": "string",
                  "name": "ledgerId",
                  "type": "string"
                }
              ],
              "internalType": "struct IHederaTokenService.TokenInfo",
              "name": "tokenInfo",
              "type": "tuple"
            },
            {
              "internalType": "int64",
              "name": "serialNumber",
              "type": "int64"
            },
            {
              "internalType": "address",
              "name": "ownerId",
              "type": "address"
            },
            {
              "internalType": "int64",
              "name": "creationTime",
              "type": "int64"
            },
            {
              "internalType": "bytes",
              "name": "metadata",
              "type": "bytes"
            },
            {
              "internalType": "address",
              "name": "spenderId",
              "type": "address"
            }
          ],
          "indexed": false,
          "internalType": "struct IHederaTokenService.NonFungibleTokenInfo",
          "name": "tokenInfo",
          "type": "tuple"
        }
      ],
      "name": "NonFungibleTokenInfo",
      "type": "event"
    },
    {
      "anonymous": false,
      "inputs": [
        {
          "indexed": false,
          "internalType": "bool",
          "name": "paused",
          "type": "bool"
        }
      ],
      "name": "PausedToken",
      "type": "event"
    },
    {
      "anonymous": false,
      "inputs": [
        {
          "indexed": false,
          "internalType": "int256",
          "name": "responseCode",
          "type": "int256"
        }
      ],
      "name": "ResponseCode",
      "type": "event"
    },
    {
      "anonymous": false,
      "inputs": [
        {
          "components": [
            {
              "internalType": "uint32",
              "name": "amount",
              "type": "uint32"
            },
            {
              "internalType": "address",
              "name": "tokenId",
              "type": "address"
            },
            {
              "internalType": "bool",
              "name": "useHbarsForPayment",
              "type": "bool"
            },
            {
              "internalType": "bool",
              "name": "useCurrentTokenForPayment",
              "type": "bool"
            },
            {
              "internalType": "address",
              "name": "feeCollector",
              "type": "address"
            }
          ],
          "indexed": false,
          "internalType": "struct IHederaTokenService.FixedFee[]",
          "name": "fixedFees",
          "type": "tuple[]"
        },
        {
          "components": [
            {
              "internalType": "uint32",
              "name": "numerator",
              "type": "uint32"
            },
            {
              "internalType": "uint32",
              "name": "denominator",
              "type": "uint32"
            },
            {
              "internalType": "uint32",
              "name": "minimumAmount",
              "type": "uint32"
            },
            {
              "internalType": "uint32",
              "name": "maximumAmount",
              "type": "uint32"
            },
            {
              "internalType": "bool",
              "name": "netOfTransfers",
              "type": "bool"
            },
            {
              "internalType": "address",
              "name": "feeCollector",
              "type": "address"
            }
          ],
          "indexed": false,
          "internalType": "struct IHederaTokenService.FractionalFee[]",
          "name": "fractionalFees",
          "type": "tuple[]"
        },
        {
          "components": [
            {
              "internalType": "uint32",
              "name": "numerator",
              "type": "uint32"
            },
            {
              "internalType": "uint32",
              "name": "denominator",
              "type": "uint32"
            },
            {
              "internalType": "uint32",
              "name": "amount",
              "type": "uint32"
            },
            {
              "internalType": "address",
              "name": "tokenId",
              "type": "address"
            },
            {
              "internalType": "bool",
              "name": "useHbarsForPayment",
              "type": "bool"
            },
            {
              "internalType": "address",
              "name": "feeCollector",
              "type": "address"
            }
          ],
          "indexed": false,
          "internalType": "struct IHederaTokenService.RoyaltyFee[]",
          "name": "royaltyFees",
          "type": "tuple[]"
        }
      ],
      "name": "TokenCustomFees",
      "type": "event"
    },
    {
      "anonymous": false,
      "inputs": [
        {
          "components": [
            {
              "components": [
                {
                  "internalType": "string",
                  "name": "name",
                  "type": "string"
                },
                {
                  "internalType": "string",
                  "name": "symbol",
                  "type": "string"
                },
                {
                  "internalType": "address",
                  "name": "treasury",
                  "type": "address"
                },
                {
                  "internalType": "string",
                  "name": "memo",
                  "type": "string"
                },
                {
                  "internalType": "bool",
                  "name": "tokenSupplyType",
                  "type": "bool"
                },
                {
                  "internalType": "uint32",
                  "name": "maxSupply",
                  "type": "uint32"
                },
                {
                  "internalType": "bool",
                  "name": "freezeDefault",
                  "type": "bool"
                },
                {
                  "components": [
                    {
                      "internalType": "uint256",
                      "name": "keyType",
                      "type": "uint256"
                    },
                    {
                      "components": [
                        {
                          "internalType": "bool",
                          "name": "inheritAccountKey",
                          "type": "bool"
                        },
                        {
                          "internalType": "address",
                          "name": "contractId",
                          "type": "address"
                        },
                        {
                          "internalType": "bytes",
                          "name": "ed25519",
                          "type": "bytes"
                        },
                        {
                          "internalType": "bytes",
                          "name": "ECDSA_secp256k1",
                          "type": "bytes"
                        },
                        {
                          "internalType": "address",
                          "name": "delegatableContractId",
                          "type": "address"
                        }
                      ],
                      "internalType": "struct IHederaTokenService.KeyValue",
                      "name": "key",
                      "type": "tuple"
                    }
                  ],
                  "internalType": "struct IHederaTokenService.TokenKey[]",
                  "name": "tokenKeys",
                  "type": "tuple[]"
                },
                {
                  "components": [
                    {
                      "internalType": "uint32",
                      "name": "second",
                      "type": "uint32"
                    },
                    {
                      "internalType": "address",
                      "name": "autoRenewAccount",
                      "type": "address"
                    },
                    {
                      "internalType": "uint32",
                      "name": "autoRenewPeriod",
                      "type": "uint32"
                    }
                  ],
                  "internalType": "struct IHederaTokenService.Expiry",
                  "name": "expiry",
                  "type": "tuple"
                }
              ],
              "internalType": "struct IHederaTokenService.HederaToken",
              "name": "token",
              "type": "tuple"
            },
            {
              "internalType": "uint64",
              "name": "totalSupply",
              "type": "uint64"
            },
            {
              "internalType": "bool",
              "name": "deleted",
              "type": "bool"
            },
            {
              "internalType": "bool",
              "name": "defaultKycStatus",
              "type": "bool"
            },
            {
              "internalType": "bool",
              "name": "pauseStatus",
              "type": "bool"
            },
            {
              "components": [
                {
                  "internalType": "uint32",
                  "name": "amount",
                  "type": "uint32"
                },
                {
                  "internalType": "address",
                  "name": "tokenId",
                  "type": "address"
                },
                {
                  "internalType": "bool",
                  "name": "useHbarsForPayment",
                  "type": "bool"
                },
                {
                  "internalType": "bool",
                  "name": "useCurrentTokenForPayment",
                  "type": "bool"
                },
                {
                  "internalType": "address",
                  "name": "feeCollector",
                  "type": "address"
                }
              ],
              "internalType": "struct IHederaTokenService.FixedFee[]",
              "name": "fixedFees",
              "type": "tuple[]"
            },
            {
              "components": [
                {
                  "internalType": "uint32",
                  "name": "numerator",
                  "type": "uint32"
                },
                {
                  "internalType": "uint32",
                  "name": "denominator",
                  "type": "uint32"
                },
                {
                  "internalType": "uint32",
                  "name": "minimumAmount",
                  "type": "uint32"
                },
                {
                  "internalType": "uint32",
                  "name": "maximumAmount",
                  "type": "uint32"
                },
                {
                  "internalType": "bool",
                  "name": "netOfTransfers",
                  "type": "bool"
                },
                {
                  "internalType": "address",
                  "name": "feeCollector",
                  "type": "address"
                }
              ],
              "internalType": "struct IHederaTokenService.FractionalFee[]",
              "name": "fractionalFees",
              "type": "tuple[]"
            },
            {
              "components": [
                {
                  "internalType": "uint32",
                  "name": "numerator",
                  "type": "uint32"
                },
                {
                  "internalType": "uint32",
                  "name": "denominator",
                  "type": "uint32"
                },
                {
                  "internalType": "uint32",
                  "name": "amount",
                  "type": "uint32"
                },
                {
                  "internalType": "address",
                  "name": "tokenId",
                  "type": "address"
                },
                {
                  "internalType": "bool",
                  "name": "useHbarsForPayment",
                  "type": "bool"
                },
                {
                  "internalType": "address",
                  "name": "feeCollector",
                  "type": "address"
                }
              ],
              "internalType": "struct IHederaTokenService.RoyaltyFee[]",
              "name": "royaltyFees",
              "type": "tuple[]"
            },
            {
              "internalType": "string",
              "name": "ledgerId",
              "type": "string"
            }
          ],
          "indexed": false,
          "internalType": "struct IHederaTokenService.TokenInfo",
          "name": "tokenInfo",
          "type": "tuple"
        }
      ],
      "name": "TokenInfo",
      "type": "event"
    },
    {
      "anonymous": false,
      "inputs": [
        {
          "indexed": false,
          "internalType": "bool",
          "name": "unpaused",
          "type": "bool"
        }
      ],
      "name": "UnpausedToken",
      "type": "event"
    },
    {
      "inputs": [
        {
          "internalType": "address",
          "name": "token",
          "type": "address"
        },
        {
          "internalType": "address",
          "name": "owner",
          "type": "address"
        },
        {
          "internalType": "address",
          "name": "spender",
          "type": "address"
        }
      ],
      "name": "allowancePublic",
      "outputs": [
        {
          "internalType": "int256",
          "name": "responseCode",
          "type": "int256"
        },
        {
          "internalType": "uint256",
          "name": "amount",
          "type": "uint256"
        }
      ],
      "stateMutability": "nonpayable",
      "type": "function"
    },
    {
      "inputs": [
        {
          "internalType": "address",
          "name": "token",
          "type": "address"
        },
        {
          "internalType": "address",
          "name": "spender",
          "type": "address"
        },
        {
          "internalType": "uint256",
          "name": "amount",
          "type": "uint256"
        }
      ],
      "name": "approvePublic",
      "outputs": [
        {
          "internalType": "int256",
          "name": "responseCode",
          "type": "int256"
        }
      ],
      "stateMutability": "nonpayable",
      "type": "function"
    },
    {
      "inputs": [
        {
          "internalType": "address",
          "name": "account",
          "type": "address"
        },
        {
          "internalType": "address",
          "name": "token",
          "type": "address"
        }
      ],
      "name": "associateTokenPublic",
      "outputs": [
        {
          "internalType": "int256",
          "name": "responseCode",
          "type": "int256"
        }
      ],
      "stateMutability": "nonpayable",
      "type": "function"
    },
    {
      "inputs": [
        {
          "internalType": "address",
          "name": "treasury",
          "type": "address"
        }
      ],
      "name": "createFungibleTokenPublic",
      "outputs": [],
      "stateMutability": "payable",
      "type": "function"
    },
    {
      "inputs": [
        {
          "internalType": "address",
          "name": "treasury",
          "type": "address"
        },
        {
          "internalType": "address",
          "name": "fixedFeeTokenAddress",
          "type": "address"
        }
      ],
      "name": "createFungibleTokenWithCustomFeesPublic",
      "outputs": [],
      "stateMutability": "payable",
      "type": "function"
    },
    {
      "inputs": [
        {
          "internalType": "address",
          "name": "treasury",
          "type": "address"
        }
      ],
      "name": "createNonFungibleTokenPublic",
      "outputs": [],
      "stateMutability": "payable",
      "type": "function"
    },
    {
      "inputs": [
        {
          "internalType": "address",
          "name": "token",
          "type": "address"
        }
      ],
      "name": "deleteTokenPublic",
      "outputs": [
        {
          "internalType": "int256",
          "name": "responseCode",
          "type": "int256"
        }
      ],
      "stateMutability": "nonpayable",
      "type": "function"
    },
    {
      "inputs": [
        {
          "internalType": "address",
          "name": "token",
          "type": "address"
        },
        {
          "internalType": "address",
          "name": "account",
          "type": "address"
        }
      ],
      "name": "freezeTokenPublic",
      "outputs": [
        {
          "internalType": "int256",
          "name": "responseCode",
          "type": "int256"
        }
      ],
      "stateMutability": "nonpayable",
      "type": "function"
    },
    {
      "inputs": [
        {
          "internalType": "address",
          "name": "token",
          "type": "address"
        },
        {
          "internalType": "uint256",
          "name": "serialNumber",
          "type": "uint256"
        }
      ],
      "name": "getApprovedPublic",
      "outputs": [
        {
          "internalType": "int256",
          "name": "responseCode",
          "type": "int256"
        },
        {
          "internalType": "address",
          "name": "approved",
          "type": "address"
        }
      ],
      "stateMutability": "nonpayable",
      "type": "function"
    },
    {
      "inputs": [
        {
          "internalType": "address",
          "name": "token",
          "type": "address"
        }
      ],
      "name": "getFungibleTokenInfoPublic",
      "outputs": [
        {
          "internalType": "int256",
          "name": "responseCode",
          "type": "int256"
        },
        {
          "components": [
            {
              "components": [
                {
                  "components": [
                    {
                      "internalType": "string",
                      "name": "name",
                      "type": "string"
                    },
                    {
                      "internalType": "string",
                      "name": "symbol",
                      "type": "string"
                    },
                    {
                      "internalType": "address",
                      "name": "treasury",
                      "type": "address"
                    },
                    {
                      "internalType": "string",
                      "name": "memo",
                      "type": "string"
                    },
                    {
                      "internalType": "bool",
                      "name": "tokenSupplyType",
                      "type": "bool"
                    },
                    {
                      "internalType": "uint32",
                      "name": "maxSupply",
                      "type": "uint32"
                    },
                    {
                      "internalType": "bool",
                      "name": "freezeDefault",
                      "type": "bool"
                    },
                    {
                      "components": [
                        {
                          "internalType": "uint256",
                          "name": "keyType",
                          "type": "uint256"
                        },
                        {
                          "components": [
                            {
                              "internalType": "bool",
                              "name": "inheritAccountKey",
                              "type": "bool"
                            },
                            {
                              "internalType": "address",
                              "name": "contractId",
                              "type": "address"
                            },
                            {
                              "internalType": "bytes",
                              "name": "ed25519",
                              "type": "bytes"
                            },
                            {
                              "internalType": "bytes",
                              "name": "ECDSA_secp256k1",
                              "type": "bytes"
                            },
                            {
                              "internalType": "address",
                              "name": "delegatableContractId",
                              "type": "address"
                            }
                          ],
                          "internalType": "struct IHederaTokenService.KeyValue",
                          "name": "key",
                          "type": "tuple"
                        }
                      ],
                      "internalType": "struct IHederaTokenService.TokenKey[]",
                      "name": "tokenKeys",
                      "type": "tuple[]"
                    },
                    {
                      "components": [
                        {
                          "internalType": "uint32",
                          "name": "second",
                          "type": "uint32"
                        },
                        {
                          "internalType": "address",
                          "name": "autoRenewAccount",
                          "type": "address"
                        },
                        {
                          "internalType": "uint32",
                          "name": "autoRenewPeriod",
                          "type": "uint32"
                        }
                      ],
                      "internalType": "struct IHederaTokenService.Expiry",
                      "name": "expiry",
                      "type": "tuple"
                    }
                  ],
                  "internalType": "struct IHederaTokenService.HederaToken",
                  "name": "token",
                  "type": "tuple"
                },
                {
                  "internalType": "uint64",
                  "name": "totalSupply",
                  "type": "uint64"
                },
                {
                  "internalType": "bool",
                  "name": "deleted",
                  "type": "bool"
                },
                {
                  "internalType": "bool",
                  "name": "defaultKycStatus",
                  "type": "bool"
                },
                {
                  "internalType": "bool",
                  "name": "pauseStatus",
                  "type": "bool"
                },
                {
                  "components": [
                    {
                      "internalType": "uint32",
                      "name": "amount",
                      "type": "uint32"
                    },
                    {
                      "internalType": "address",
                      "name": "tokenId",
                      "type": "address"
                    },
                    {
                      "internalType": "bool",
                      "name": "useHbarsForPayment",
                      "type": "bool"
                    },
                    {
                      "internalType": "bool",
                      "name": "useCurrentTokenForPayment",
                      "type": "bool"
                    },
                    {
                      "internalType": "address",
                      "name": "feeCollector",
                      "type": "address"
                    }
                  ],
                  "internalType": "struct IHederaTokenService.FixedFee[]",
                  "name": "fixedFees",
                  "type": "tuple[]"
                },
                {
                  "components": [
                    {
                      "internalType": "uint32",
                      "name": "numerator",
                      "type": "uint32"
                    },
                    {
                      "internalType": "uint32",
                      "name": "denominator",
                      "type": "uint32"
                    },
                    {
                      "internalType": "uint32",
                      "name": "minimumAmount",
                      "type": "uint32"
                    },
                    {
                      "internalType": "uint32",
                      "name": "maximumAmount",
                      "type": "uint32"
                    },
                    {
                      "internalType": "bool",
                      "name": "netOfTransfers",
                      "type": "bool"
                    },
                    {
                      "internalType": "address",
                      "name": "feeCollector",
                      "type": "address"
                    }
                  ],
                  "internalType": "struct IHederaTokenService.FractionalFee[]",
                  "name": "fractionalFees",
                  "type": "tuple[]"
                },
                {
                  "components": [
                    {
                      "internalType": "uint32",
                      "name": "numerator",
                      "type": "uint32"
                    },
                    {
                      "internalType": "uint32",
                      "name": "denominator",
                      "type": "uint32"
                    },
                    {
                      "internalType": "uint32",
                      "name": "amount",
                      "type": "uint32"
                    },
                    {
                      "internalType": "address",
                      "name": "tokenId",
                      "type": "address"
                    },
                    {
                      "internalType": "bool",
                      "name": "useHbarsForPayment",
                      "type": "bool"
                    },
                    {
                      "internalType": "address",
                      "name": "feeCollector",
                      "type": "address"
                    }
                  ],
                  "internalType": "struct IHederaTokenService.RoyaltyFee[]",
                  "name": "royaltyFees",
                  "type": "tuple[]"
                },
                {
                  "internalType": "string",
                  "name": "ledgerId",
                  "type": "string"
                }
              ],
              "internalType": "struct IHederaTokenService.TokenInfo",
              "name": "tokenInfo",
              "type": "tuple"
            },
            {
              "internalType": "uint32",
              "name": "decimals",
              "type": "uint32"
            }
          ],
          "internalType": "struct IHederaTokenService.FungibleTokenInfo",
          "name": "tokenInfo",
          "type": "tuple"
        }
      ],
      "stateMutability": "nonpayable",
      "type": "function"
    },
    {
      "inputs": [
        {
          "internalType": "address",
          "name": "token",
          "type": "address"
        },
        {
          "internalType": "int64",
          "name": "serialNumber",
          "type": "int64"
        }
      ],
      "name": "getNonFungibleTokenInfoPublic",
      "outputs": [
        {
          "internalType": "int256",
          "name": "responseCode",
          "type": "int256"
        },
        {
          "components": [
            {
              "components": [
                {
                  "components": [
                    {
                      "internalType": "string",
                      "name": "name",
                      "type": "string"
                    },
                    {
                      "internalType": "string",
                      "name": "symbol",
                      "type": "string"
                    },
                    {
                      "internalType": "address",
                      "name": "treasury",
                      "type": "address"
                    },
                    {
                      "internalType": "string",
                      "name": "memo",
                      "type": "string"
                    },
                    {
                      "internalType": "bool",
                      "name": "tokenSupplyType",
                      "type": "bool"
                    },
                    {
                      "internalType": "uint32",
                      "name": "maxSupply",
                      "type": "uint32"
                    },
                    {
                      "internalType": "bool",
                      "name": "freezeDefault",
                      "type": "bool"
                    },
                    {
                      "components": [
                        {
                          "internalType": "uint256",
                          "name": "keyType",
                          "type": "uint256"
                        },
                        {
                          "components": [
                            {
                              "internalType": "bool",
                              "name": "inheritAccountKey",
                              "type": "bool"
                            },
                            {
                              "internalType": "address",
                              "name": "contractId",
                              "type": "address"
                            },
                            {
                              "internalType": "bytes",
                              "name": "ed25519",
                              "type": "bytes"
                            },
                            {
                              "internalType": "bytes",
                              "name": "ECDSA_secp256k1",
                              "type": "bytes"
                            },
                            {
                              "internalType": "address",
                              "name": "delegatableContractId",
                              "type": "address"
                            }
                          ],
                          "internalType": "struct IHederaTokenService.KeyValue",
                          "name": "key",
                          "type": "tuple"
                        }
                      ],
                      "internalType": "struct IHederaTokenService.TokenKey[]",
                      "name": "tokenKeys",
                      "type": "tuple[]"
                    },
                    {
                      "components": [
                        {
                          "internalType": "uint32",
                          "name": "second",
                          "type": "uint32"
                        },
                        {
                          "internalType": "address",
                          "name": "autoRenewAccount",
                          "type": "address"
                        },
                        {
                          "internalType": "uint32",
                          "name": "autoRenewPeriod",
                          "type": "uint32"
                        }
                      ],
                      "internalType": "struct IHederaTokenService.Expiry",
                      "name": "expiry",
                      "type": "tuple"
                    }
                  ],
                  "internalType": "struct IHederaTokenService.HederaToken",
                  "name": "token",
                  "type": "tuple"
                },
                {
                  "internalType": "uint64",
                  "name": "totalSupply",
                  "type": "uint64"
                },
                {
                  "internalType": "bool",
                  "name": "deleted",
                  "type": "bool"
                },
                {
                  "internalType": "bool",
                  "name": "defaultKycStatus",
                  "type": "bool"
                },
                {
                  "internalType": "bool",
                  "name": "pauseStatus",
                  "type": "bool"
                },
                {
                  "components": [
                    {
                      "internalType": "uint32",
                      "name": "amount",
                      "type": "uint32"
                    },
                    {
                      "internalType": "address",
                      "name": "tokenId",
                      "type": "address"
                    },
                    {
                      "internalType": "bool",
                      "name": "useHbarsForPayment",
                      "type": "bool"
                    },
                    {
                      "internalType": "bool",
                      "name": "useCurrentTokenForPayment",
                      "type": "bool"
                    },
                    {
                      "internalType": "address",
                      "name": "feeCollector",
                      "type": "address"
                    }
                  ],
                  "internalType": "struct IHederaTokenService.FixedFee[]",
                  "name": "fixedFees",
                  "type": "tuple[]"
                },
                {
                  "components": [
                    {
                      "internalType": "uint32",
                      "name": "numerator",
                      "type": "uint32"
                    },
                    {
                      "internalType": "uint32",
                      "name": "denominator",
                      "type": "uint32"
                    },
                    {
                      "internalType": "uint32",
                      "name": "minimumAmount",
                      "type": "uint32"
                    },
                    {
                      "internalType": "uint32",
                      "name": "maximumAmount",
                      "type": "uint32"
                    },
                    {
                      "internalType": "bool",
                      "name": "netOfTransfers",
                      "type": "bool"
                    },
                    {
                      "internalType": "address",
                      "name": "feeCollector",
                      "type": "address"
                    }
                  ],
                  "internalType": "struct IHederaTokenService.FractionalFee[]",
                  "name": "fractionalFees",
                  "type": "tuple[]"
                },
                {
                  "components": [
                    {
                      "internalType": "uint32",
                      "name": "numerator",
                      "type": "uint32"
                    },
                    {
                      "internalType": "uint32",
                      "name": "denominator",
                      "type": "uint32"
                    },
                    {
                      "internalType": "uint32",
                      "name": "amount",
                      "type": "uint32"
                    },
                    {
                      "internalType": "address",
                      "name": "tokenId",
                      "type": "address"
                    },
                    {
                      "internalType": "bool",
                      "name": "useHbarsForPayment",
                      "type": "bool"
                    },
                    {
                      "internalType": "address",
                      "name": "feeCollector",
                      "type": "address"
                    }
                  ],
                  "internalType": "struct IHederaTokenService.RoyaltyFee[]",
                  "name": "royaltyFees",
                  "type": "tuple[]"
                },
                {
                  "internalType": "string",
                  "name": "ledgerId",
                  "type": "string"
                }
              ],
              "internalType": "struct IHederaTokenService.TokenInfo",
              "name": "tokenInfo",
              "type": "tuple"
            },
            {
              "internalType": "int64",
              "name": "serialNumber",
              "type": "int64"
            },
            {
              "internalType": "address",
              "name": "ownerId",
              "type": "address"
            },
            {
              "internalType": "int64",
              "name": "creationTime",
              "type": "int64"
            },
            {
              "internalType": "bytes",
              "name": "metadata",
              "type": "bytes"
            },
            {
              "internalType": "address",
              "name": "spenderId",
              "type": "address"
            }
          ],
          "internalType": "struct IHederaTokenService.NonFungibleTokenInfo",
          "name": "tokenInfo",
          "type": "tuple"
        }
      ],
      "stateMutability": "nonpayable",
      "type": "function"
    },
    {
      "inputs": [
        {
          "internalType": "address",
          "name": "token",
          "type": "address"
        }
      ],
      "name": "getTokenCustomFeesPublic",
      "outputs": [
        {
          "internalType": "int64",
          "name": "responseCode",
          "type": "int64"
        },
        {
          "components": [
            {
              "internalType": "uint32",
              "name": "amount",
              "type": "uint32"
            },
            {
              "internalType": "address",
              "name": "tokenId",
              "type": "address"
            },
            {
              "internalType": "bool",
              "name": "useHbarsForPayment",
              "type": "bool"
            },
            {
              "internalType": "bool",
              "name": "useCurrentTokenForPayment",
              "type": "bool"
            },
            {
              "internalType": "address",
              "name": "feeCollector",
              "type": "address"
            }
          ],
          "internalType": "struct IHederaTokenService.FixedFee[]",
          "name": "fixedFees",
          "type": "tuple[]"
        },
        {
          "components": [
            {
              "internalType": "uint32",
              "name": "numerator",
              "type": "uint32"
            },
            {
              "internalType": "uint32",
              "name": "denominator",
              "type": "uint32"
            },
            {
              "internalType": "uint32",
              "name": "minimumAmount",
              "type": "uint32"
            },
            {
              "internalType": "uint32",
              "name": "maximumAmount",
              "type": "uint32"
            },
            {
              "internalType": "bool",
              "name": "netOfTransfers",
              "type": "bool"
            },
            {
              "internalType": "address",
              "name": "feeCollector",
              "type": "address"
            }
          ],
          "internalType": "struct IHederaTokenService.FractionalFee[]",
          "name": "fractionalFees",
          "type": "tuple[]"
        },
        {
          "components": [
            {
              "internalType": "uint32",
              "name": "numerator",
              "type": "uint32"
            },
            {
              "internalType": "uint32",
              "name": "denominator",
              "type": "uint32"
            },
            {
              "internalType": "uint32",
              "name": "amount",
              "type": "uint32"
            },
            {
              "internalType": "address",
              "name": "tokenId",
              "type": "address"
            },
            {
              "internalType": "bool",
              "name": "useHbarsForPayment",
              "type": "bool"
            },
            {
              "internalType": "address",
              "name": "feeCollector",
              "type": "address"
            }
          ],
          "internalType": "struct IHederaTokenService.RoyaltyFee[]",
          "name": "royaltyFees",
          "type": "tuple[]"
        }
      ],
      "stateMutability": "nonpayable",
      "type": "function"
    },
    {
      "inputs": [
        {
          "internalType": "address",
          "name": "token",
          "type": "address"
        }
      ],
      "name": "getTokenInfoPublic",
      "outputs": [
        {
          "internalType": "int256",
          "name": "responseCode",
          "type": "int256"
        },
        {
          "components": [
            {
              "components": [
                {
                  "internalType": "string",
                  "name": "name",
                  "type": "string"
                },
                {
                  "internalType": "string",
                  "name": "symbol",
                  "type": "string"
                },
                {
                  "internalType": "address",
                  "name": "treasury",
                  "type": "address"
                },
                {
                  "internalType": "string",
                  "name": "memo",
                  "type": "string"
                },
                {
                  "internalType": "bool",
                  "name": "tokenSupplyType",
                  "type": "bool"
                },
                {
                  "internalType": "uint32",
                  "name": "maxSupply",
                  "type": "uint32"
                },
                {
                  "internalType": "bool",
                  "name": "freezeDefault",
                  "type": "bool"
                },
                {
                  "components": [
                    {
                      "internalType": "uint256",
                      "name": "keyType",
                      "type": "uint256"
                    },
                    {
                      "components": [
                        {
                          "internalType": "bool",
                          "name": "inheritAccountKey",
                          "type": "bool"
                        },
                        {
                          "internalType": "address",
                          "name": "contractId",
                          "type": "address"
                        },
                        {
                          "internalType": "bytes",
                          "name": "ed25519",
                          "type": "bytes"
                        },
                        {
                          "internalType": "bytes",
                          "name": "ECDSA_secp256k1",
                          "type": "bytes"
                        },
                        {
                          "internalType": "address",
                          "name": "delegatableContractId",
                          "type": "address"
                        }
                      ],
                      "internalType": "struct IHederaTokenService.KeyValue",
                      "name": "key",
                      "type": "tuple"
                    }
                  ],
                  "internalType": "struct IHederaTokenService.TokenKey[]",
                  "name": "tokenKeys",
                  "type": "tuple[]"
                },
                {
                  "components": [
                    {
                      "internalType": "uint32",
                      "name": "second",
                      "type": "uint32"
                    },
                    {
                      "internalType": "address",
                      "name": "autoRenewAccount",
                      "type": "address"
                    },
                    {
                      "internalType": "uint32",
                      "name": "autoRenewPeriod",
                      "type": "uint32"
                    }
                  ],
                  "internalType": "struct IHederaTokenService.Expiry",
                  "name": "expiry",
                  "type": "tuple"
                }
              ],
              "internalType": "struct IHederaTokenService.HederaToken",
              "name": "token",
              "type": "tuple"
            },
            {
              "internalType": "uint64",
              "name": "totalSupply",
              "type": "uint64"
            },
            {
              "internalType": "bool",
              "name": "deleted",
              "type": "bool"
            },
            {
              "internalType": "bool",
              "name": "defaultKycStatus",
              "type": "bool"
            },
            {
              "internalType": "bool",
              "name": "pauseStatus",
              "type": "bool"
            },
            {
              "components": [
                {
                  "internalType": "uint32",
                  "name": "amount",
                  "type": "uint32"
                },
                {
                  "internalType": "address",
                  "name": "tokenId",
                  "type": "address"
                },
                {
                  "internalType": "bool",
                  "name": "useHbarsForPayment",
                  "type": "bool"
                },
                {
                  "internalType": "bool",
                  "name": "useCurrentTokenForPayment",
                  "type": "bool"
                },
                {
                  "internalType": "address",
                  "name": "feeCollector",
                  "type": "address"
                }
              ],
              "internalType": "struct IHederaTokenService.FixedFee[]",
              "name": "fixedFees",
              "type": "tuple[]"
            },
            {
              "components": [
                {
                  "internalType": "uint32",
                  "name": "numerator",
                  "type": "uint32"
                },
                {
                  "internalType": "uint32",
                  "name": "denominator",
                  "type": "uint32"
                },
                {
                  "internalType": "uint32",
                  "name": "minimumAmount",
                  "type": "uint32"
                },
                {
                  "internalType": "uint32",
                  "name": "maximumAmount",
                  "type": "uint32"
                },
                {
                  "internalType": "bool",
                  "name": "netOfTransfers",
                  "type": "bool"
                },
                {
                  "internalType": "address",
                  "name": "feeCollector",
                  "type": "address"
                }
              ],
              "internalType": "struct IHederaTokenService.FractionalFee[]",
              "name": "fractionalFees",
              "type": "tuple[]"
            },
            {
              "components": [
                {
                  "internalType": "uint32",
                  "name": "numerator",
                  "type": "uint32"
                },
                {
                  "internalType": "uint32",
                  "name": "denominator",
                  "type": "uint32"
                },
                {
                  "internalType": "uint32",
                  "name": "amount",
                  "type": "uint32"
                },
                {
                  "internalType": "address",
                  "name": "tokenId",
                  "type": "address"
                },
                {
                  "internalType": "bool",
                  "name": "useHbarsForPayment",
                  "type": "bool"
                },
                {
                  "internalType": "address",
                  "name": "feeCollector",
                  "type": "address"
                }
              ],
              "internalType": "struct IHederaTokenService.RoyaltyFee[]",
              "name": "royaltyFees",
              "type": "tuple[]"
            },
            {
              "internalType": "string",
              "name": "ledgerId",
              "type": "string"
            }
          ],
          "internalType": "struct IHederaTokenService.TokenInfo",
          "name": "tokenInfo",
          "type": "tuple"
        }
      ],
      "stateMutability": "nonpayable",
      "type": "function"
    },
    {
      "inputs": [
        {
          "internalType": "address",
          "name": "token",
          "type": "address"
        },
        {
          "internalType": "address",
          "name": "owner",
          "type": "address"
        },
        {
          "internalType": "address",
          "name": "operator",
          "type": "address"
        }
      ],
      "name": "isApprovedForAllPublic",
      "outputs": [
        {
          "internalType": "int256",
          "name": "responseCode",
          "type": "int256"
        },
        {
          "internalType": "bool",
          "name": "approved",
          "type": "bool"
        }
      ],
      "stateMutability": "nonpayable",
      "type": "function"
    },
    {
      "inputs": [
        {
          "internalType": "address",
          "name": "token",
          "type": "address"
        },
        {
          "internalType": "address",
          "name": "account",
          "type": "address"
        }
      ],
      "name": "isFrozenPublic",
      "outputs": [
        {
          "internalType": "int256",
          "name": "responseCode",
          "type": "int256"
        },
        {
          "internalType": "bool",
          "name": "frozen",
          "type": "bool"
        }
      ],
      "stateMutability": "nonpayable",
      "type": "function"
    },
    {
      "inputs": [
        {
          "internalType": "address",
          "name": "token",
          "type": "address"
        },
        {
          "internalType": "uint64",
          "name": "amount",
          "type": "uint64"
        },
        {
          "internalType": "bytes[]",
          "name": "metadata",
          "type": "bytes[]"
        }
      ],
      "name": "mintTokenPublic",
      "outputs": [
        {
          "internalType": "int256",
          "name": "responseCode",
          "type": "int256"
        },
        {
          "internalType": "uint64",
          "name": "newTotalSupply",
          "type": "uint64"
        },
        {
          "internalType": "int64[]",
          "name": "serialNumbers",
          "type": "int64[]"
        }
      ],
      "stateMutability": "nonpayable",
      "type": "function"
    },
    {
      "inputs": [
        {
          "internalType": "address",
          "name": "token",
          "type": "address"
        }
      ],
      "name": "pauseToken",
      "outputs": [
        {
          "internalType": "int256",
          "name": "responseCode",
          "type": "int256"
        }
      ],
      "stateMutability": "nonpayable",
      "type": "function"
    },
    {
      "inputs": [
        {
          "internalType": "address",
          "name": "token",
          "type": "address"
        }
      ],
      "name": "pauseTokenPublic",
      "outputs": [
        {
          "internalType": "int256",
          "name": "responseCode",
          "type": "int256"
        }
      ],
      "stateMutability": "nonpayable",
      "type": "function"
    },
    {
      "inputs": [
        {
          "internalType": "address",
          "name": "token",
          "type": "address"
        },
        {
          "internalType": "address",
          "name": "operator",
          "type": "address"
        },
        {
          "internalType": "bool",
          "name": "approved",
          "type": "bool"
        }
      ],
      "name": "setApprovalForAllPublic",
      "outputs": [
        {
          "internalType": "int256",
          "name": "responseCode",
          "type": "int256"
        }
      ],
      "stateMutability": "nonpayable",
      "type": "function"
    },
    {
      "inputs": [
        {
          "internalType": "address",
          "name": "token",
          "type": "address"
        },
        {
          "internalType": "address",
          "name": "sender",
          "type": "address"
        },
        {
          "internalType": "address",
          "name": "receiver",
          "type": "address"
        },
        {
          "internalType": "int64",
          "name": "serialNumber",
          "type": "int64"
        }
      ],
      "name": "transferNFTPublic",
      "outputs": [
        {
          "internalType": "int256",
          "name": "responseCode",
          "type": "int256"
        }
      ],
      "stateMutability": "nonpayable",
      "type": "function"
    },
    {
      "inputs": [
        {
          "internalType": "address",
          "name": "account",
          "type": "address"
        },
        {
          "internalType": "address",
          "name": "token",
          "type": "address"
        },
        {
          "internalType": "int64",
          "name": "amount",
          "type": "int64"
        }
      ],
      "name": "transferTokenPublic",
      "outputs": [
        {
          "internalType": "int256",
          "name": "responseCode",
          "type": "int256"
        }
      ],
      "stateMutability": "nonpayable",
      "type": "function"
    },
    {
      "inputs": [
        {
          "internalType": "address",
          "name": "token",
          "type": "address"
        },
        {
          "internalType": "address",
          "name": "account",
          "type": "address"
        }
      ],
      "name": "unfreezeTokenPublic",
      "outputs": [
        {
          "internalType": "int256",
          "name": "responseCode",
          "type": "int256"
        }
      ],
      "stateMutability": "nonpayable",
      "type": "function"
    },
    {
      "inputs": [
        {
          "internalType": "address",
          "name": "token",
          "type": "address"
        }
      ],
      "name": "unpauseToken",
      "outputs": [
        {
          "internalType": "int256",
          "name": "responseCode",
          "type": "int256"
        }
      ],
      "stateMutability": "nonpayable",
      "type": "function"
    },
    {
      "inputs": [
        {
          "internalType": "address",
          "name": "token",
          "type": "address"
        }
      ],
      "name": "unpauseTokenPublic",
      "outputs": [
        {
          "internalType": "int256",
          "name": "responseCode",
          "type": "int256"
        }
      ],
      "stateMutability": "nonpayable",
      "type": "function"
    },
    {
      "inputs": [
        {
          "internalType": "address",
          "name": "token",
          "type": "address"
        },
        {
          "internalType": "address",
          "name": "account",
          "type": "address"
        },
        {
          "internalType": "int64[]",
          "name": "serialNumbers",
          "type": "int64[]"
        }
      ],
      "name": "wipeTokenAccountNFTPublic",
      "outputs": [
        {
          "internalType": "int256",
          "name": "responseCode",
          "type": "int256"
        }
      ],
      "stateMutability": "nonpayable",
      "type": "function"
    },
    {
      "inputs": [
        {
          "internalType": "address",
          "name": "token",
          "type": "address"
        },
        {
          "internalType": "address",
          "name": "account",
          "type": "address"
        },
        {
          "internalType": "uint32",
          "name": "amount",
          "type": "uint32"
        }
      ],
      "name": "wipeTokenAccountPublic",
      "outputs": [
        {
          "internalType": "int256",
          "name": "responseCode",
          "type": "int256"
        }
      ],
      "stateMutability": "nonpayable",
      "type": "function"
    }
  ],
  "bytecode": "0x60c06040526009608081905268746f6b656e4e616d6560b81b60a09081526200002c9160019190620000c1565b5060408051808201909152600b8082526a1d1bdad95b94de5b589bdb60aa1b60209092019182526200006191600291620000c1565b50604080518082019091526004808252636d656d6f60e01b60209092019182526200008f91600391620000c1565b506103e860048190556005805463ffffffff191690911790556008600655348015620000ba57600080fd5b50620001a4565b828054620000cf9062000167565b90600052602060002090601f016020900481019282620000f357600085556200013e565b82601f106200010e57805160ff19168380011785556200013e565b828001600101855582156200013e579182015b828111156200013e57825182559160200191906001019062000121565b506200014c92915062000150565b5090565b5b808211156200014c576000815560010162000151565b600181811c908216806200017c57607f821691505b602082108114156200019e57634e487b7160e01b600052602260045260246000fd5b50919050565b614ad680620001b46000396000f3fe6080604052600436106101a15760003560e01c80637c41ad2c116100e1578063d92ac2481161008a578063f2f38a7411610064578063f2f38a74146104d6578063f4a01e5b14610504578063f7be342514610524578063f848fec41461054457600080fd5b8063d92ac24814610476578063ec855c3114610496578063f25b1200146104b657600080fd5b80638ba74da0116100bb5780638ba74da014610430578063a345f7bd14610443578063d85f74c11461046357600080fd5b80637c41ad2c146103c15780637d3e5da8146103e15780638070905f1461040157600080fd5b80634cbdb37b1161014e5780635b9076b7116101285780635b9076b71461032357806369837dc2146103535780636a4dde21146103815780636da6b1f0146103a157600080fd5b80634cbdb37b146102a057806356af8403146102ce5780635a5e6c31146102ee57600080fd5b80632d73bb2e1161017f5780632d73bb2e1461024b5780633b3bff0f1461026b5780634b5c66871461028b57600080fd5b806313c05dd8146101a657806319db44b6146101e05780632b256ec81461021d575b600080fd5b3480156101b257600080fd5b506101c66101c13660046137c5565b610564565b604080519283529015156020830152015b60405180910390f35b3480156101ec57600080fd5b506102006101fb366004613a57565b6105e2565b604080519283526001600160a01b039091166020830152016101d7565b34801561022957600080fd5b5061023d610238366004613771565b610666565b6040519081526020016101d7565b34801561025757600080fd5b5061023d61026636600461378d565b610752565b34801561027757600080fd5b5061023d610286366004613771565b61079d565b61029e610299366004613771565b610877565b005b3480156102ac57600080fd5b506102c06102bb366004613a2a565b610c25565b6040516101d79291906146d3565b3480156102da57600080fd5b5061023d6102e936600461386a565b610c9b565b3480156102fa57600080fd5b5061030e6103093660046137c5565b610ce5565b604080519283526020830191909152016101d7565b34801561032f57600080fd5b5061034361033e366004613771565b610d56565b6040516101d7949392919061472e565b34801561035f57600080fd5b5061037361036e366004613771565b610de8565b6040516101d79291906146ba565b34801561038d57600080fd5b506101c661039c36600461378d565b610e6a565b3480156103ad57600080fd5b5061023d6103bc36600461380f565b610ee1565b3480156103cd57600080fd5b5061023d6103dc366004613771565b610f2d565b3480156103ed57600080fd5b5061023d6103fc36600461378d565b610f5b565b34801561040d57600080fd5b5061042161041c366004613a82565b610f67565b6040516101d793929190614705565b61029e61043e36600461378d565b610fef565b34801561044f57600080fd5b5061023d61045e366004613771565b6114ab565b61029e610471366004613771565b6114f1565b34801561048257600080fd5b5061023d6104913660046139eb565b611885565b3480156104a257600080fd5b5061023d6104b136600461396c565b611892565b3480156104c257600080fd5b5061023d6104d136600461392d565b611a93565b3480156104e257600080fd5b506104f66104f1366004613771565b611aa0565b6040516101d79291906146ec565b34801561051057600080fd5b5061023d61051f36600461378d565b611b15565b34801561053057600080fd5b5061023d61053f366004613771565b611b42565b34801561055057600080fd5b5061023d61055f3660046139ab565b611c25565b600080610572858585611c32565b6040518281529193509150600080516020614a818339815191529060200160405180910390a1601682146105a557600080fd5b60405181151581527e1c2e72360171244b3bb8cc8ddd767820edf37138ad6f129fb3574b407c307d906020015b60405180910390a1935093915050565b6000806105ef8484611d31565b6040518281529193509150600080516020614a818339815191529060200160405180910390a16016821461062257600080fd5b6040516001600160a01b03821681527fc2c78c7c31baf14949e75c51df12be56edb9af523cf82839c2869bbcf13b3ecb906020015b60405180910390a19250929050565b604051631f106b4b60e21b81526001600160a01b03821660048201526000903090637c41ad2c90602401602060405180830381600087803b1580156106aa57600080fd5b505af11580156106be573d6000803e3d6000fd5b505050506040513d601f19601f820116820180604052508101906106e29190613b90565b9050600080516020614a818339815191528160405161070391815260200190565b60405180910390a16016811461071857600080fd5b604051600181527f0c9c765845f4d139956bb8fc8decb2eec6093c9c608b809641b16054b29f0e13906020015b60405180910390a1919050565b600061075e8383611e23565b60070b9050600080516020614a818339815191528160405161078291815260200190565b60405180910390a16016811461079757600080fd5b92915050565b6040516001600160a01b03821660248201526000908190819061016790633b3bff0f60e01b906044015b60408051601f198184030181529181526020820180516001600160e01b03166001600160e01b031990941693909317909252905161080591906144da565b6000604051808303816000865af19150503d8060008114610842576040519150601f19603f3d011682016040523d82523d6000602084013e610847565b606091505b50915091508161085857601561086c565b8080602001905181019061086c9190613ba8565b60030b949350505050565b60408051600380825260808201909252600091816020015b610897612edd565b81526020019060019003908161088f5790505090506108ca60006006600160405180602001604052806000815250611f1f565b816000815181106108eb57634e487b7160e01b600052603260045260246000fd5b60200260200101819052506109126002600160405180602001604052806000815250611f56565b8160018151811061093357634e487b7160e01b600052603260045260246000fd5b602002602001018190525061095a6003600160405180602001604052806000815250611f56565b8160028151811061097b57634e487b7160e01b600052603260045260246000fd5b602002602001018190525060006040518060600160405280600063ffffffff168152602001846001600160a01b03168152602001627a120063ffffffff1681525090506000604051806101200160405280600180546109d9906149a0565b80601f0160208091040260200160405190810160405280929190818152602001828054610a05906149a0565b8015610a525780601f10610a2757610100808354040283529160200191610a52565b820191906000526020600020905b815481529060010190602001808311610a3557829003601f168201915b5050505050815260200160028054610a69906149a0565b80601f0160208091040260200160405190810160405280929190818152602001828054610a95906149a0565b8015610ae25780601f10610ab757610100808354040283529160200191610ae2565b820191906000526020600020905b815481529060010190602001808311610ac557829003601f168201915b50505050508152602001856001600160a01b0316815260200160038054610b08906149a0565b80601f0160208091040260200160405190810160405280929190818152602001828054610b34906149a0565b8015610b815780601f10610b5657610100808354040283529160200191610b81565b820191906000526020600020905b815481529060010190602001808311610b6457829003601f168201915b50505091835250506001602082015260055463ffffffff1660408201526000606082018190526080820186905260a090910184905260045460065492935090918291610bcf91859190611f8b565b909250905060168214610be157600080fd5b6040516001600160a01b03821681527f7bb17726df1f3adee8aa00ba8e8bc5d6f182af3bbf77604639cb7f008dd3b4ed9060200160405180910390a1505050505050565b6000610c2f612f3a565b610c3984846120b9565b6040518281529193509150600080516020614a818339815191529060200160405180910390a160168214610c6c57600080fd5b7fa516f81c528634d0fc1e993bba1d227231b4bd6d1beb72d33b056a6199c0f988816040516106579190614817565b6000610ca88484846121ac565b9050600080516020614a8183398151915281604051610cc991815260200190565b60405180910390a160168114610cde57600080fd5b9392505050565b600080610cf385858561228c565b6040518281529193509150600080516020614a818339815191529060200160405180910390a160168214610d2657600080fd5b6040518181527f25b6684a7e8fe1b676e9c39c8dd65034fbafea906d3bdfd97bf748b7b55e14c8906020016105d2565b60006060806060610d6685612378565b604051600785900b815293975091955093509150600080516020614a818339815191529060200160405180910390a1600784900b601614610da657600080fd5b7f2efc8334b040613a552197fe34283d6ca2909c8ffae393e128424931f20c69b3838383604051610dd9939291906145ae565b60405180910390a19193509193565b6000610df2612f75565b610dfb83612478565b6040518281529193509150600080516020614a818339815191529060200160405180910390a160168214610e2e57600080fd5b7f476a9a9b28e2717d55288b2ae3c48a72aac52b11f8bd855017c9d41d9fc1896481604051610e5d919061477b565b60405180910390a1915091565b600080610e778484612561565b60405160079290920b80835293509150600080516020614a818339815191529060200160405180910390a160168214610eaf57600080fd5b60405181151581527f59800d968fcce138300a0019410b4b75041610d65b3cdc5f31656b03ed14912e90602001610657565b6000610eef85858585612645565b9050600080516020614a8183398151915281604051610f1091815260200190565b60405180910390a160168114610f2557600080fd5b949350505050565b6040516001600160a01b03821660248201526000908190819061016790631f106b4b60e21b906044016107c7565b600061075e8383612746565b6000806060610f77868686612795565b6040518381529295509093509150600080516020614a818339815191529060200160405180910390a160168314610fad57600080fd5b7feff23992f47b3c101679f8b4dc9d3e242c903909dba4a453f2b2341ad463b0e28282604051610fde92919061483d565b60405180910390a193509350939050565b604080516001808252818301909252600091816020015b61100e612edd565b815260200190600190039081611006579050509050611040600080600160405180602001604052806000815250611f1f565b8160008151811061106157634e487b7160e01b600052603260045260246000fd5b602002602001018190525060006040518060600160405280600063ffffffff168152602001856001600160a01b03168152602001627a120063ffffffff1681525090506000604051806101200160405280600180546110bf906149a0565b80601f01602080910402602001604051908101604052809291908181526020018280546110eb906149a0565b80156111385780601f1061110d57610100808354040283529160200191611138565b820191906000526020600020905b81548152906001019060200180831161111b57829003601f168201915b505050505081526020016002805461114f906149a0565b80601f016020809104026020016040519081016040528092919081815260200182805461117b906149a0565b80156111c85780601f1061119d576101008083540402835291602001916111c8565b820191906000526020600020905b8154815290600101906020018083116111ab57829003601f168201915b50505050508152602001866001600160a01b03168152602001600380546111ee906149a0565b80601f016020809104026020016040519081016040528092919081815260200182805461121a906149a0565b80156112675780601f1061123c57610100808354040283529160200191611267565b820191906000526020600020905b81548152906001019060200180831161124a57829003601f168201915b505050918352505060016020820181905260055463ffffffff166040808401919091526000606084018190526080840188905260a09093018690528051828152808201909152929350909190816020015b6040805160a0810182526000808252602080830182905292820181905260608201819052608082015282526000199092019101816112b85750506040805160a081018252600181526001600160a01b0388811660208301526000928201839052606082018390528916608082015282519293509183919061134957634e487b7160e01b600052603260045260246000fd5b6020908102919091010152604080516001808252818301909252600091816020015b6040805160c08101825260008082526020808301829052928201819052606082018190526080820181905260a0820152825260001990920191018161136b5750506040805160c0810182526004815260056020820152600a91810191909152601e60608201526000608082018190526001600160a01b038a1660a08301528251929350909183919061140d57634e487b7160e01b600052603260045260246000fd5b602002602001018190525060008061142c856004546006548787612893565b91509150600080516020614a818339815191528260405161144f91815260200190565b60405180910390a16016821461146457600080fd5b6040516001600160a01b03821681527f7bb17726df1f3adee8aa00ba8e8bc5d6f182af3bbf77604639cb7f008dd3b4ed9060200160405180910390a1505050505050505050565b60006114b6826129c7565b9050600080516020614a81833981519152816040516114d791815260200190565b60405180910390a1601681146114ec57600080fd5b919050565b60408051600480825260a08201909252600091816020015b611511612edd565b81526020019060019003908161150957905050905061154460006006600160405180602001604052806000815250611f1f565b8160008151811061156557634e487b7160e01b600052603260045260246000fd5b602002602001018190525061158c6004600160405180602001604052806000815250611f56565b816001815181106115ad57634e487b7160e01b600052603260045260246000fd5b60200260200101819052506115d46002600160405180602001604052806000815250611f56565b816002815181106115f557634e487b7160e01b600052603260045260246000fd5b602002602001018190525061161c6003600160405180602001604052806000815250611f56565b8160038151811061163d57634e487b7160e01b600052603260045260246000fd5b602002602001018190525060006040518060600160405280600063ffffffff168152602001846001600160a01b03168152602001627a120063ffffffff16815250905060006040518061012001604052806001805461169b906149a0565b80601f01602080910402602001604051908101604052809291908181526020018280546116c7906149a0565b80156117145780601f106116e957610100808354040283529160200191611714565b820191906000526020600020905b8154815290600101906020018083116116f757829003601f168201915b505050505081526020016002805461172b906149a0565b80601f0160208091040260200160405190810160405280929190818152602001828054611757906149a0565b80156117a45780601f10611779576101008083540402835291602001916117a4565b820191906000526020600020905b81548152906001019060200180831161178757829003601f168201915b50505050508152602001856001600160a01b03168152602001600380546117ca906149a0565b80601f01602080910402602001604051908101604052809291908181526020018280546117f6906149a0565b80156118435780601f1061181857610100808354040283529160200191611843565b820191906000526020600020905b81548152906001019060200180831161182657829003601f168201915b50505091835250506001602082015260055463ffffffff1660408201526000606082018190526080820186905260a090910184905290915080610bcf83612a0e565b6000610ca8848484612af8565b604080516000808252602082019092528190816118d7565b60408051606081018252600080825260208083018290529282015282526000199092019101816118aa5790505b50905060006040518060400160405280336001600160a01b0316815260200185611900906149db565b600790810b9091526040805180820182526001600160a01b038a1681529187900b602083015280516002808252606082019092529293509091600091816020015b6040805180820190915260008082526020820152815260200190600190039081611941579050509050828160008151811061198c57634e487b7160e01b600052603260045260246000fd5b602002602001018190525081816001815181106119b957634e487b7160e01b600052603260045260246000fd5b602090810291909101810191909152604080516060810182526001600160a01b038a16815291820183905281810186905280516001808252818301909252600091816020015b611a2c604051806060016040528060006001600160a01b0316815260200160608152602001606081525090565b8152602001906001900390816119ff5790505090508181600081518110611a6357634e487b7160e01b600052603260045260246000fd5b6020026020010181905250611a7781612b53565b965060168714611a8657600080fd5b5050505050509392505050565b6000610ca8848484612b7d565b6000611aaa612f95565b611ab383612bd4565b6040518281529193509150600080516020614a818339815191529060200160405180910390a160168214611ae657600080fd5b7f528c7dcea75f0c9e110a038e50647cd6a70ac06d331399b77dd9a80f903ebc1681604051610e5d919061482a565b6000611b218383612cbd565b9050600080516020614a818339815191528160405161078291815260200190565b604051633b3bff0f60e01b81526001600160a01b03821660048201526000903090633b3bff0f90602401602060405180830381600087803b158015611b8657600080fd5b505af1158015611b9a573d6000803e3d6000fd5b505050506040513d601f19601f82011682018060405250810190611bbe9190613b90565b9050600080516020614a8183398151915281604051611bdf91815260200190565b60405180910390a160168114611bf457600080fd5b604051600181527f319ab7084208e4afa38c6e6ff7aea9587439f2e4700746f4c7d425fea17426d290602001610745565b6000610ca8848484612d0c565b604080516001600160a01b0385811660248301528481166044830152831660648083019190915282518083039091018152608490910182526020810180516001600160e01b03167ff49f40db00000000000000000000000000000000000000000000000000000000179052905160009182918291829161016791611cb5916144da565b6000604051808303816000865af19150503d8060008114611cf2576040519150601f19603f3d011682016040523d82523d6000602084013e611cf7565b606091505b509150915081611d0a5760156000611d1e565b80806020019051810190611d1e9190613c82565b60039190910b9890975095505050505050565b604080516001600160a01b0384166024820152604480820184905282518083039091018152606490910182526020810180516001600160e01b03167f098f236600000000000000000000000000000000000000000000000000000000179052905160009182918291829161016791611da8916144da565b6000604051808303816000865af19150503d8060008114611de5576040519150601f19603f3d011682016040523d82523d6000602084013e611dea565b606091505b509150915081611dfd5760156000611e11565b80806020019051810190611e119190613bc2565b60039190910b97909650945050505050565b6040516001600160a01b0383811660248301528216604482015260009081908190610167907f52f9138700000000000000000000000000000000000000000000000000000000906064015b60408051601f198184030181529181526020820180516001600160e01b03166001600160e01b0319909416939093179092529051611eac91906144da565b6000604051808303816000865af19150503d8060008114611ee9576040519150601f19603f3d011682016040523d82523d6000602084013e611eee565b606091505b509150915081611eff576015611f13565b80806020019051810190611f139190613ba8565b60030b95945050505050565b611f27612edd565b6040518060400160405280611f3c8787612d62565b8152602001611f4b8585612d7b565b905295945050505050565b611f5e612edd565b6040518060400160405280611f7286612e4b565b8152602001611f818585612d7b565b9052949350505050565b600080848061010001516000015163ffffffff166000148015611fbb57506101008101516040015163ffffffff16155b15611fd1576101008101516276a7006040909101525b6000806101676001600160a01b031634637812a04b60e01b8a8a8a604051602401611ffe939291906147a1565b60408051601f198184030181529181526020820180516001600160e01b03166001600160e01b031990941693909317909252905161203c91906144da565b60006040518083038185875af1925050503d8060008114612079576040519150601f19603f3d011682016040523d82523d6000602084013e61207e565b606091505b50915091508161209157601560006120a5565b808060200190518101906120a59190613bc2565b60039190910b999098509650505050505050565b60006120c3612f3a565b604080516001600160a01b0386166024820152600785900b60448083019190915282518083039091018152606490910182526020810180516001600160e01b03167f287e1da800000000000000000000000000000000000000000000000000000000179052905160009182916101679161213c916144da565b6000604051808303816000865af19150503d8060008114612179576040519150601f19603f3d011682016040523d82523d6000602084013e61217e565b606091505b509150915061218b612f3a565b8261219857601581611d1e565b81806020019051810190611d1e9190613d55565b60008060006101676001600160a01b031663f7f38e2660e01b8787876040516024016121da939291906144f6565b60408051601f198184030181529181526020820180516001600160e01b03166001600160e01b031990941693909317909252905161221891906144da565b6000604051808303816000865af19150503d8060008114612255576040519150601f19603f3d011682016040523d82523d6000602084013e61225a565b606091505b50915091508161226b57601561227f565b8080602001905181019061227f9190613ba8565b60030b9695505050505050565b604080516001600160a01b0385811660248301528481166044830152831660648083019190915282518083039091018152608490910182526020810180516001600160e01b03167f927da1050000000000000000000000000000000000000000000000000000000017905290516000918291829182916101679161230f916144da565b6000604051808303816000865af19150503d806000811461234c576040519150601f19603f3d011682016040523d82523d6000602084013e612351565b606091505b5091509150816123645760156000611d1e565b80806020019051810190611d1e9190613e84565b604080516001600160a01b03831660248083019190915282518083039091018152604490910182526020810180516001600160e01b03167fae7611a00000000000000000000000000000000000000000000000000000000017905290516000916060918291829185918291610167916123f0916144da565b6000604051808303816000865af19150503d806000811461242d576040519150601f19603f3d011682016040523d82523d6000602084013e612432565b606091505b509150915060608060608461244b57601583838361245f565b8380602001905181019061245f9190613bed565b60039390930b9d919c509a509098509650505050505050565b6000612482612f75565b604080516001600160a01b03851660248083019190915282518083039091018152604490910182526020810180516001600160e01b03167f3f28a19b0000000000000000000000000000000000000000000000000000000017905290516000918291610167916124f1916144da565b6000604051808303816000865af19150503d806000811461252e576040519150601f19603f3d011682016040523d82523d6000602084013e612533565b606091505b5091509150612540612f75565b8261254d57601581611e11565b81806020019051810190611e119190613cad565b604080516001600160a01b038481166024830152831660448083019190915282518083039091018152606490910182526020810180516001600160e01b03167f46de0fb1000000000000000000000000000000000000000000000000000000001790529051600091829182918291610167916125dc916144da565b6000604051808303816000865af19150503d8060008114612619576040519150601f19603f3d011682016040523d82523d6000602084013e61261e565b606091505b5091509150816126315760156000611e11565b80806020019051810190611e119190613c82565b604080516001600160a01b038681166024830152858116604483015284166064820152600783900b6084808301919091528251808303909101815260a490910182526020810180516001600160e01b03167f5cfc901100000000000000000000000000000000000000000000000000000000179052905160009182918291610167916126d191906144da565b6000604051808303816000865af19150503d806000811461270e576040519150601f19603f3d011682016040523d82523d6000602084013e612713565b606091505b509150915081612724576015612738565b808060200190518101906127389190613ba8565b60030b979650505050505050565b6040516001600160a01b0383811660248301528216604482015260009081908190610167907f5b8f85840000000000000000000000000000000000000000000000000000000090606401611e6e565b60008060606000806101676001600160a01b031663278e0b8860e01b8989896040516024016127c69392919061452b565b60408051601f198184030181529181526020820180516001600160e01b03166001600160e01b031990941693909317909252905161280491906144da565b6000604051808303816000865af19150503d8060008114612841576040519150601f19603f3d011682016040523d82523d6000602084013e612846565b606091505b50915091508161286957604080516000808252602082019092526015919061287d565b8080602001905181019061287d9190613eaf565b60039290920b9a90995090975095505050505050565b600080868061010001516000015163ffffffff1660001480156128c357506101008101516040015163ffffffff16155b156128d9576101008101516276a7006040909101525b6000806101676001600160a01b031634634c381ae760e01b8c8c8c8c8c60405160240161290a9594939291906147c6565b60408051601f198184030181529181526020820180516001600160e01b03166001600160e01b031990941693909317909252905161294891906144da565b60006040518083038185875af1925050503d8060008114612985576040519150601f19603f3d011682016040523d82523d6000602084013e61298a565b606091505b50915091508161299d57601560006129b1565b808060200190518101906129b19190613bc2565b60039190910b9b909a5098505050505050505050565b6040516001600160a01b038216602482015260009081908190610167907ff069f71200000000000000000000000000000000000000000000000000000000906044016107c7565b600080828061010001516000015163ffffffff166000148015612a3e57506101008101516040015163ffffffff16155b15612a54576101008101516276a7006040909101525b6000806101676001600160a01b031634639dc711e060e01b88604051602401612a7d919061478e565b60408051601f198184030181529181526020820180516001600160e01b03166001600160e01b0319909416939093179092529051612abb91906144da565b60006040518083038185875af1925050503d8060008114611de5576040519150601f19603f3d011682016040523d82523d6000602084013e611dea565b6040516001600160a01b0384811660248301528316604482015263ffffffff8216606482015260009081908190610167907f9790686d00000000000000000000000000000000000000000000000000000000906084016121da565b60008060006101676001600160a01b031663189a554c60e01b856040516024016107c791906145e7565b6040516001600160a01b03848116602483015283166044820152811515606482015260009081908190610167907f367605ca00000000000000000000000000000000000000000000000000000000906084016121da565b6000612bde612f95565b604080516001600160a01b03851660248083019190915282518083039091018152604490910182526020810180516001600160e01b03167f1f69565f000000000000000000000000000000000000000000000000000000001790529051600091829161016791612c4d916144da565b6000604051808303816000865af19150503d8060008114612c8a576040519150601f19603f3d011682016040523d82523d6000602084013e612c8f565b606091505b5091509150612c9c612f95565b82612ca957601581611e11565b81806020019051810190611e119190613e38565b6040516001600160a01b0383811660248301528216604482015260009081908190610167907f49146bde0000000000000000000000000000000000000000000000000000000090606401611e6e565b6040516001600160a01b038481166024830152831660448201526064810182905260009081908190610167907fe1f21c6700000000000000000000000000000000000000000000000000000000906084016121da565b6000600160ff84161b9050600160ff83161b8117610cde565b612dc16040518060a0016040528060001515815260200160006001600160a01b03168152602001606081526020016060815260200160006001600160a01b031681525090565b8260ff1660011415612dd65760018152610797565b8260ff1660021415612df8576000546001600160a01b03166020820152610797565b8260ff1660031415612e105760408101829052610797565b8260ff1660041415612e285760608101829052610797565b8260ff1660051415610797576000546001600160a01b0316608082015292915050565b600060ff8216612e5d57506001919050565b8160ff1660011415612e7157506002919050565b8160ff1660021415612e8557506004919050565b8160ff1660031415612e9957506008919050565b8160ff1660041415612ead57506010919050565b8160ff1660051415612ec157506020919050565b8160ff1660061415612ed557506040919050565b506000919050565b604051806040016040528060008152602001612f356040518060a0016040528060001515815260200160006001600160a01b03168152602001606081526020016060815260200160006001600160a01b031681525090565b905290565b6040518060c00160405280612f4d612f95565b8152600060208201819052604082018190526060808301829052608083015260a09091015290565b6040518060400160405280612f88612f95565b8152600060209091015290565b60408051610240810182526060610120820181815261014083018290526000610160840181905261018084018390526101a084018190526101c084018190526101e0840181905261020084018390528451928301855280835260208301819052938201939093526102208201529081908152602001600067ffffffffffffffff168152602001600015158152602001600015158152602001600015158152602001606081526020016060815260200160608152602001606081525090565b80516114ec81614a23565b600082601f83011261306e578081fd5b8151602061308361307e83614924565b6148f3565b8281528181019085830160a0808602880185018910156130a1578687fd5b865b8681101561312a5781838b0312156130b9578788fd5b6130c1614860565b83516130cc81614a58565b8152838701516130db81614a23565b818801526040848101516130ee81614a3b565b9082015260608481015161310181614a3b565b9082015260808481015161311481614a23565b90820152855293850193918101916001016130a3565b509198975050505050505050565b600082601f830112613148578081fd5b8151602061315861307e83614924565b8281528181019085830160c080860288018501891015613176578687fd5b865b8681101561312a5781838b03121561318e578788fd5b613196614889565b83516131a181614a58565b8152838701516131b081614a58565b818801526040848101516131c381614a58565b908201526060848101516131d681614a58565b908201526080848101516131e981614a3b565b9082015260a0848101516131fc81614a23565b9082015285529385019391810191600101613178565b600082601f830112613222578081fd5b8151602061323261307e83614924565b8281528181019085830160c080860288018501891015613250578687fd5b865b8681101561312a5781838b031215613268578788fd5b613270614889565b835161327b81614a58565b81528387015161328a81614a58565b8188015260408481015161329d81614a58565b908201526060848101516132b081614a23565b908201526080848101516132c381614a3b565b9082015260a0848101516132d681614a23565b9082015285529385019391810191600101613252565b600082601f8301126132fc578081fd5b8151602061330c61307e83614924565b80838252828201915082860187848660051b890101111561332b578586fd5b855b8581101561343857815167ffffffffffffffff8082111561334c578889fd5b90890190601f196040838d038201121561336457898afd5b61336c6148ac565b888401518152604084015183811115613383578b8cfd5b939093019260a0848e0383011215613399578a8bfd5b6133a1614860565b9150888401516133b081614a3b565b82526133be60408501613053565b898301526060840151838111156133d3578b8cfd5b6133e18e8b83880101613450565b6040840152506080840151838111156133f8578b8cfd5b6134068e8b83880101613450565b60608401525061341860a08501613053565b60808301528089019190915286525050928401929084019060010161332d565b5090979650505050505050565b80516114ec81614a3b565b600082601f830112613460578081fd5b815161346e61307e82614948565b818152846020838601011115613482578283fd5b610f25826020830160208701614970565b8051600381900b81146114ec57600080fd5b80516114ec81614a49565b6000606082840312156134c1578081fd5b6040516060810181811067ffffffffffffffff821117156134e4576134e4614a0d565b806040525080915082516134f781614a58565b8152602083015161350781614a23565b6020820152604083015161351a81614a58565b6040919091015292915050565b60006101608284031215613539578081fd5b6135416148cf565b9050815167ffffffffffffffff8082111561355b57600080fd5b61356785838601613450565b8352602084015191508082111561357d57600080fd5b61358985838601613450565b602084015261359a60408501613053565b604084015260608401519150808211156135b357600080fd5b6135bf85838601613450565b60608401526135d060808501613445565b60808401526135e160a0850161375b565b60a08401526135f260c08501613445565b60c084015260e084015191508082111561360b57600080fd5b50613618848285016132ec565b60e08301525061010061362d848285016134b0565b9082015292915050565b60006101208284031215613649578081fd5b6136516148cf565b9050815167ffffffffffffffff8082111561366b57600080fd5b61367785838601613527565b835261368560208501613766565b602084015261369660408501613445565b60408401526136a760608501613445565b60608401526136b860808501613445565b608084015260a08401519150808211156136d157600080fd5b6136dd8583860161305e565b60a084015260c08401519150808211156136f657600080fd5b61370285838601613138565b60c084015260e084015191508082111561371b57600080fd5b61372785838601613212565b60e08401526101009150818401518181111561374257600080fd5b61374e86828701613450565b8385015250505092915050565b80516114ec81614a58565b80516114ec81614a6a565b600060208284031215613782578081fd5b8135610cde81614a23565b6000806040838503121561379f578081fd5b82356137aa81614a23565b915060208301356137ba81614a23565b809150509250929050565b6000806000606084860312156137d9578081fd5b83356137e481614a23565b925060208401356137f481614a23565b9150604084013561380481614a23565b809150509250925092565b60008060008060808587031215613824578182fd5b843561382f81614a23565b9350602085013561383f81614a23565b9250604085013561384f81614a23565b9150606085013561385f81614a49565b939692955090935050565b60008060006060848603121561387e578081fd5b833561388981614a23565b925060208481013561389a81614a23565b9250604085013567ffffffffffffffff8111156138b5578283fd5b8501601f810187136138c5578283fd5b80356138d361307e82614924565b8082825284820191508484018a868560051b87010111156138f2578687fd5b8694505b8385101561391d57803561390981614a49565b8352600194909401939185019185016138f6565b5080955050505050509250925092565b600080600060608486031215613941578081fd5b833561394c81614a23565b9250602084013561395c81614a23565b9150604084013561380481614a3b565b600080600060608486031215613980578081fd5b833561398b81614a23565b9250602084013561399b81614a23565b9150604084013561380481614a49565b6000806000606084860312156139bf578081fd5b83356139ca81614a23565b925060208401356139da81614a23565b929592945050506040919091013590565b6000806000606084860312156139ff578081fd5b8335613a0a81614a23565b92506020840135613a1a81614a23565b9150604084013561380481614a58565b60008060408385031215613a3c578182fd5b8235613a4781614a23565b915060208301356137ba81614a49565b60008060408385031215613a69578182fd5b8235613a7481614a23565b946020939093013593505050565b600080600060608486031215613a96578081fd5b8335613aa181614a23565b9250602084810135613ab281614a6a565b9250604085013567ffffffffffffffff80821115613ace578384fd5b818701915087601f830112613ae1578384fd5b8135613aef61307e82614924565b8082825285820191508585018b878560051b8801011115613b0e578788fd5b875b84811015613b7e57813586811115613b2657898afd5b8701603f81018e13613b3657898afd5b88810135613b4661307e82614948565b8181528f6040838501011115613b5a578b8cfd5b81604084018c8301379081018a018b90528552509287019290870190600101613b10565b50508096505050505050509250925092565b600060208284031215613ba1578081fd5b5051919050565b600060208284031215613bb9578081fd5b610cde82613493565b60008060408385031215613bd4578182fd5b613bdd83613493565b915060208301516137ba81614a23565b60008060008060808587031215613c02578182fd5b613c0b85613493565b9350602085015167ffffffffffffffff80821115613c27578384fd5b613c338883890161305e565b94506040870151915080821115613c48578384fd5b613c5488838901613138565b93506060870151915080821115613c69578283fd5b50613c7687828801613212565b91505092959194509250565b60008060408385031215613c94578182fd5b613c9d83613493565b915060208301516137ba81614a3b565b60008060408385031215613cbf578182fd5b613cc883613493565b9150602083015167ffffffffffffffff80821115613ce4578283fd5b9084019060408287031215613cf7578283fd5b604051604081018181108382111715613d1257613d12614a0d565b604052825182811115613d23578485fd5b613d2f88828601613637565b82525060208301519250613d4283614a58565b8260208201528093505050509250929050565b60008060408385031215613d67578182fd5b613d7083613493565b9150602083015167ffffffffffffffff80821115613d8c578283fd5b9084019060c08287031215613d9f578283fd5b613da7614889565b825182811115613db5578485fd5b613dc188828601613637565b825250613dd0602084016134a5565b6020820152613de160408401613053565b6040820152613df2606084016134a5565b6060820152608083015182811115613e08578485fd5b613e1488828601613450565b608083015250613e2660a08401613053565b60a08201528093505050509250929050565b60008060408385031215613e4a578182fd5b613e5383613493565b9150602083015167ffffffffffffffff811115613e6e578182fd5b613e7a85828601613637565b9150509250929050565b60008060408385031215613e96578182fd5b613e9f83613493565b9150602083015190509250929050565b600080600060608486031215613ec3578081fd5b613ecc84613493565b9250602080850151613edd81614a6a565b604086015190935067ffffffffffffffff811115613ef9578283fd5b8501601f81018713613f09578283fd5b8051613f1761307e82614924565b8082825284820191508484018a868560051b8701011115613f36578687fd5b8694505b8385101561391d578051613f4d81614a49565b835260019490940193918501918501613f3a565b6000815180845260208085019450808401835b83811015613f9357815160070b87529582019590820190600101613f74565b509495945050505050565b6000815180845260208085019450808401835b83811015613f93578151805163ffffffff168852838101516001600160a01b03908116858a01526040808301511515908a01526060808301511515908a0152608091820151169088015260a09096019590820190600101613fb1565b6000815180845260208085019450808401835b83811015613f93578151805163ffffffff9081168952848201518116858a01526040808301518216908a01526060808301519091169089015260808082015115159089015260a0908101516001600160a01b03169088015260c09096019590820190600101614020565b6000815180845260208085019450808401835b83811015613f9357815180516001600160a01b03908116895284820151168489015260409081015160070b908801526060909601959082019060010161409d565b6000815180845260208085019450808401835b83811015613f93578151805163ffffffff9081168952848201518116858a0152604080830151909116908901526060808201516001600160a01b03908116918a01919091526080808301511515908a015260a091820151169088015260c090960195908201906001016140f1565b600081518084526020808501808196508360051b81019150828601855b858110156142155782840389528151604081518652868201519150808787015281511515818701528682015160606001600160a01b03808316828a015283850151935060a09250608083818b01526141d760e08b0186614222565b928601518a8403603f1901858c01529294506141f38584614222565b9501511660c0989098019790975250509885019893509084019060010161417c565b5091979650505050505050565b6000815180845261423a816020860160208601614970565b601f01601f19169290920160200192915050565b600081516040845261426360408501826143f9565b60209384015163ffffffff16949093019390935250919050565b6000610160825181855261429382860182614222565b915050602083015184820360208601526142ad8282614222565b91505060408301516142ca60408601826001600160a01b03169052565b50606083015184820360608601526142e28282614222565b91505060808301516142f8608086018215159052565b5060a083015161431060a086018263ffffffff169052565b5060c083015161432460c086018215159052565b5060e083015184820360e086015261433c828261415f565b61010085810151805163ffffffff9081168984015260208201516001600160a01b03166101208a015260408201511661014089015291935091505090949350505050565b6000815160c0845261439560c08501826143f9565b9050602083015160070b602085015260408301516001600160a01b038082166040870152606085015160070b60608701526080850151915085830360808701526143df8383614222565b92508060a08601511660a087015250508091505092915050565b6000610120825181855261440f8286018261427d565b915050602083015161442d602086018267ffffffffffffffff169052565b506040830151614441604086018215159052565b506060830151614455606086018215159052565b506080830151614469608086018215159052565b5060a083015184820360a08601526144818282613f9e565b91505060c083015184820360c086015261449b828261400d565b91505060e083015184820360e08601526144b582826140de565b91505061010080840151858303828701526144d08382614222565b9695505050505050565b600082516144ec818460208701614970565b9190910192915050565b60006001600160a01b038086168352808516602084015250606060408301526145226060830184613f61565b95945050505050565b6000606082016001600160a01b0386168352602067ffffffffffffffff8616818501526060604085015281855180845260808601915060808160051b8701019350828701855b8281101561459f57607f1988870301845261458d868351614222565b95509284019290840190600101614571565b50939998505050505050505050565b6060815260006145c16060830186613f9e565b82810360208401526145d3818661400d565b905082810360408401526144d081856140de565b60006020808301818452808551808352604092508286019150828160051b870101848801865b838110156146ac57888303603f19018552815180516001600160a01b0390811685528882015160608a870181905281519087018190526080870192918b0191908c905b8082101561467e5783518051841686528d015160070b8d860152938b0193928c019260019190910190614650565b50505050908701518482038589015290614698818361408a565b96890196945050509086019060010161460d565b509098975050505050505050565b828152604060208201526000610f25604083018461424e565b828152604060208201526000610f256040830184614380565b828152604060208201526000610f2560408301846143f9565b83815267ffffffffffffffff831660208201526060604082015260006145226060830184613f61565b8460070b815260806020820152600061474a6080830186613f9e565b828103604084015261475c818661400d565b9050828103606084015261477081856140de565b979650505050505050565b602081526000610cde602083018461424e565b602081526000610cde602083018461427d565b6060815260006147b4606083018661427d565b60208301949094525060400152919050565b60a0815260006147d960a083018861427d565b86602084015285604084015282810360608401526147f78186613f9e565b9050828103608084015261480b818561400d565b98975050505050505050565b602081526000610cde6020830184614380565b602081526000610cde60208301846143f9565b67ffffffffffffffff83168152604060208201526000610f256040830184613f61565b60405160a0810167ffffffffffffffff8111828210171561488357614883614a0d565b60405290565b60405160c0810167ffffffffffffffff8111828210171561488357614883614a0d565b6040805190810167ffffffffffffffff8111828210171561488357614883614a0d565b604051610120810167ffffffffffffffff8111828210171561488357614883614a0d565b604051601f8201601f1916810167ffffffffffffffff8111828210171561491c5761491c614a0d565b604052919050565b600067ffffffffffffffff82111561493e5761493e614a0d565b5060051b60200190565b600067ffffffffffffffff82111561496257614962614a0d565b50601f01601f191660200190565b60005b8381101561498b578181015183820152602001614973565b8381111561499a576000848401525b50505050565b600181811c908216806149b457607f821691505b602082108114156149d557634e487b7160e01b600052602260045260246000fd5b50919050565b60008160070b677fffffffffffffff19811415614a0657634e487b7160e01b82526011600452602482fd5b9003919050565b634e487b7160e01b600052604160045260246000fd5b6001600160a01b0381168114614a3857600080fd5b50565b8015158114614a3857600080fd5b8060070b8114614a3857600080fd5b63ffffffff81168114614a3857600080fd5b67ffffffffffffffff81168114614a3857600080fdfe90a5cf4cffe88b4edbb041cfc7a8a812c48a5ec30b84640fb37690875168e3aaa264697066735822122012a8061dccb375c62ee887d1cd5f2f73e29e122e3b790a502f8424290705869864736f6c63430008040033",
  "linkReferences": {},
  "deployedLinkReferences": {}
}