{
  "_format": "hh-sol-artifact-1",
  "contractName": "BaseHTS",
  "sourceName": "contracts/BaseHTS.sol",
  "abi": [
    {
      "anonymous": false,
      "inputs": [
        {
          "indexed": false,
          "internalType": "uint256",
          "name": "amount",
          "type": "uint256"
        }
      ],
      "name": "AllowanceValue",
      "type": "event"
    },
    {
      "anonymous": false,
      "inputs": [
        {
          "indexed": false,
          "internalType": "bool",
          "name": "approved",
          "type": "bool"
        }
      ],
      "name": "Approved",
      "type": "event"
    },
    {
      "anonymous": false,
      "inputs": [
        {
          "indexed": false,
          "internalType": "address",
          "name": "approved",
          "type": "address"
        }
      ],
      "name": "ApprovedAddress",
      "type": "event"
    },
    {
      "anonymous": false,
      "inputs": [
        {
          "indexed": false,
          "internalType": "address",
          "name": "tokenAddress",
          "type": "address"
        }
      ],
      "name": "CreatedToken",
      "type": "event"
    },
    {
      "anonymous": false,
      "inputs": [
        {
          "indexed": false,
          "internalType": "bool",
          "name": "freezeStatus",
          "type": "bool"
        }
      ],
      "name": "DefaultFreezeStatusChanged",
      "type": "event"
    },
    {
      "anonymous": false,
      "inputs": [
        {
          "indexed": false,
          "internalType": "bool",
          "name": "frozen",
          "type": "bool"
        }
      ],
      "name": "Frozen",
      "type": "event"
    },
    {
      "anonymous": false,
      "inputs": [
        {
          "components": [
            {
              "components": [
                {
                  "components": [
                    {
                      "internalType": "string",
                      "name": "name",
                      "type": "string"
                    },
                    {
                      "internalType": "string",
                      "name": "symbol",
                      "type": "string"
                    },
                    {
                      "internalType": "address",
                      "name": "treasury",
                      "type": "address"
                    },
                    {
                      "internalType": "string",
                      "name": "memo",
                      "type": "string"
                    },
                    {
                      "internalType": "bool",
                      "name": "tokenSupplyType",
                      "type": "bool"
                    },
                    {
                      "internalType": "uint32",
                      "name": "maxSupply",
                      "type": "uint32"
                    },
                    {
                      "internalType": "bool",
                      "name": "freezeDefault",
                      "type": "bool"
                    },
                    {
                      "components": [
                        {
                          "internalType": "uint256",
                          "name": "keyType",
                          "type": "uint256"
                        },
                        {
                          "components": [
                            {
                              "internalType": "bool",
                              "name": "inheritAccountKey",
                              "type": "bool"
                            },
                            {
                              "internalType": "address",
                              "name": "contractId",
                              "type": "address"
                            },
                            {
                              "internalType": "bytes",
                              "name": "ed25519",
                              "type": "bytes"
                            },
                            {
                              "internalType": "bytes",
                              "name": "ECDSA_secp256k1",
                              "type": "bytes"
                            },
                            {
                              "internalType": "address",
                              "name": "delegatableContractId",
                              "type": "address"
                            }
                          ],
                          "internalType": "struct IHederaTokenService.KeyValue",
                          "name": "key",
                          "type": "tuple"
                        }
                      ],
                      "internalType": "struct IHederaTokenService.TokenKey[]",
                      "name": "tokenKeys",
                      "type": "tuple[]"
                    },
                    {
                      "components": [
                        {
                          "internalType": "uint32",
                          "name": "second",
                          "type": "uint32"
                        },
                        {
                          "internalType": "address",
                          "name": "autoRenewAccount",
                          "type": "address"
                        },
                        {
                          "internalType": "uint32",
                          "name": "autoRenewPeriod",
                          "type": "uint32"
                        }
                      ],
                      "internalType": "struct IHederaTokenService.Expiry",
                      "name": "expiry",
                      "type": "tuple"
                    }
                  ],
                  "internalType": "struct IHederaTokenService.HederaToken",
                  "name": "token",
                  "type": "tuple"
                },
                {
                  "internalType": "uint64",
                  "name": "totalSupply",
                  "type": "uint64"
                },
                {
                  "internalType": "bool",
                  "name": "deleted",
                  "type": "bool"
                },
                {
                  "internalType": "bool",
                  "name": "defaultKycStatus",
                  "type": "bool"
                },
                {
                  "internalType": "bool",
                  "name": "pauseStatus",
                  "type": "bool"
                },
                {
                  "components": [
                    {
                      "internalType": "uint32",
                      "name": "amount",
                      "type": "uint32"
                    },
                    {
                      "internalType": "address",
                      "name": "tokenId",
                      "type": "address"
                    },
                    {
                      "internalType": "bool",
                      "name": "useHbarsForPayment",
                      "type": "bool"
                    },
                    {
                      "internalType": "bool",
                      "name": "useCurrentTokenForPayment",
                      "type": "bool"
                    },
                    {
                      "internalType": "address",
                      "name": "feeCollector",
                      "type": "address"
                    }
                  ],
                  "internalType": "struct IHederaTokenService.FixedFee[]",
                  "name": "fixedFees",
                  "type": "tuple[]"
                },
                {
                  "components": [
                    {
                      "internalType": "uint32",
                      "name": "numerator",
                      "type": "uint32"
                    },
                    {
                      "internalType": "uint32",
                      "name": "denominator",
                      "type": "uint32"
                    },
                    {
                      "internalType": "uint32",
                      "name": "minimumAmount",
                      "type": "uint32"
                    },
                    {
                      "internalType": "uint32",
                      "name": "maximumAmount",
                      "type": "uint32"
                    },
                    {
                      "internalType": "bool",
                      "name": "netOfTransfers",
                      "type": "bool"
                    },
                    {
                      "internalType": "address",
                      "name": "feeCollector",
                      "type": "address"
                    }
                  ],
                  "internalType": "struct IHederaTokenService.FractionalFee[]",
                  "name": "fractionalFees",
                  "type": "tuple[]"
                },
                {
                  "components": [
                    {
                      "internalType": "uint32",
                      "name": "numerator",
                      "type": "uint32"
                    },
                    {
                      "internalType": "uint32",
                      "name": "denominator",
                      "type": "uint32"
                    },
                    {
                      "internalType": "uint32",
                      "name": "amount",
                      "type": "uint32"
                    },
                    {
                      "internalType": "address",
                      "name": "tokenId",
                      "type": "address"
                    },
                    {
                      "internalType": "bool",
                      "name": "useHbarsForPayment",
                      "type": "bool"
                    },
                    {
                      "internalType": "address",
                      "name": "feeCollector",
                      "type": "address"
                    }
                  ],
                  "internalType": "struct IHederaTokenService.RoyaltyFee[]",
                  "name": "royaltyFees",
                  "type": "tuple[]"
                },
                {
                  "internalType": "string",
                  "name": "ledgerId",
                  "type": "string"
                }
              ],
              "internalType": "struct IHederaTokenService.TokenInfo",
              "name": "tokenInfo",
              "type": "tuple"
            },
            {
              "internalType": "uint32",
              "name": "decimals",
              "type": "uint32"
            }
          ],
          "indexed": false,
          "internalType": "struct IHederaTokenService.FungibleTokenInfo",
          "name": "tokenInfo",
          "type": "tuple"
        }
      ],
      "name": "FungibleTokenInfo",
      "type": "event"
    },
    {
      "anonymous": false,
      "inputs": [
        {
          "indexed": false,
          "internalType": "bool",
          "name": "kycGranted",
          "type": "bool"
        }
      ],
      "name": "KycGranted",
      "type": "event"
    },
    {
      "anonymous": false,
      "inputs": [
        {
          "indexed": false,
          "internalType": "uint64",
          "name": "newTotalSupply",
          "type": "uint64"
        },
        {
          "indexed": false,
          "internalType": "int64[]",
          "name": "serialNumbers",
          "type": "int64[]"
        }
      ],
      "name": "MintedToken",
      "type": "event"
    },
    {
      "anonymous": false,
      "inputs": [
        {
          "components": [
            {
              "components": [
                {
                  "components": [
                    {
                      "internalType": "string",
                      "name": "name",
                      "type": "string"
                    },
                    {
                      "internalType": "string",
                      "name": "symbol",
                      "type": "string"
                    },
                    {
                      "internalType": "address",
                      "name": "treasury",
                      "type": "address"
                    },
                    {
                      "internalType": "string",
                      "name": "memo",
                      "type": "string"
                    },
                    {
                      "internalType": "bool",
                      "name": "tokenSupplyType",
                      "type": "bool"
                    },
                    {
                      "internalType": "uint32",
                      "name": "maxSupply",
                      "type": "uint32"
                    },
                    {
                      "internalType": "bool",
                      "name": "freezeDefault",
                      "type": "bool"
                    },
                    {
                      "components": [
                        {
                          "internalType": "uint256",
                          "name": "keyType",
                          "type": "uint256"
                        },
                        {
                          "components": [
                            {
                              "internalType": "bool",
                              "name": "inheritAccountKey",
                              "type": "bool"
                            },
                            {
                              "internalType": "address",
                              "name": "contractId",
                              "type": "address"
                            },
                            {
                              "internalType": "bytes",
                              "name": "ed25519",
                              "type": "bytes"
                            },
                            {
                              "internalType": "bytes",
                              "name": "ECDSA_secp256k1",
                              "type": "bytes"
                            },
                            {
                              "internalType": "address",
                              "name": "delegatableContractId",
                              "type": "address"
                            }
                          ],
                          "internalType": "struct IHederaTokenService.KeyValue",
                          "name": "key",
                          "type": "tuple"
                        }
                      ],
                      "internalType": "struct IHederaTokenService.TokenKey[]",
                      "name": "tokenKeys",
                      "type": "tuple[]"
                    },
                    {
                      "components": [
                        {
                          "internalType": "uint32",
                          "name": "second",
                          "type": "uint32"
                        },
                        {
                          "internalType": "address",
                          "name": "autoRenewAccount",
                          "type": "address"
                        },
                        {
                          "internalType": "uint32",
                          "name": "autoRenewPeriod",
                          "type": "uint32"
                        }
                      ],
                      "internalType": "struct IHederaTokenService.Expiry",
                      "name": "expiry",
                      "type": "tuple"
                    }
                  ],
                  "internalType": "struct IHederaTokenService.HederaToken",
                  "name": "token",
                  "type": "tuple"
                },
                {
                  "internalType": "uint64",
                  "name": "totalSupply",
                  "type": "uint64"
                },
                {
                  "internalType": "bool",
                  "name": "deleted",
                  "type": "bool"
                },
                {
                  "internalType": "bool",
                  "name": "defaultKycStatus",
                  "type": "bool"
                },
                {
                  "internalType": "bool",
                  "name": "pauseStatus",
                  "type": "bool"
                },
                {
                  "components": [
                    {
                      "internalType": "uint32",
                      "name": "amount",
                      "type": "uint32"
                    },
                    {
                      "internalType": "address",
                      "name": "tokenId",
                      "type": "address"
                    },
                    {
                      "internalType": "bool",
                      "name": "useHbarsForPayment",
                      "type": "bool"
                    },
                    {
                      "internalType": "bool",
                      "name": "useCurrentTokenForPayment",
                      "type": "bool"
                    },
                    {
                      "internalType": "address",
                      "name": "feeCollector",
                      "type": "address"
                    }
                  ],
                  "internalType": "struct IHederaTokenService.FixedFee[]",
                  "name": "fixedFees",
                  "type": "tuple[]"
                },
                {
                  "components": [
                    {
                      "internalType": "uint32",
                      "name": "numerator",
                      "type": "uint32"
                    },
                    {
                      "internalType": "uint32",
                      "name": "denominator",
                      "type": "uint32"
                    },
                    {
                      "internalType": "uint32",
                      "name": "minimumAmount",
                      "type": "uint32"
                    },
                    {
                      "internalType": "uint32",
                      "name": "maximumAmount",
                      "type": "uint32"
                    },
                    {
                      "internalType": "bool",
                      "name": "netOfTransfers",
                      "type": "bool"
                    },
                    {
                      "internalType": "address",
                      "name": "feeCollector",
                      "type": "address"
                    }
                  ],
                  "internalType": "struct IHederaTokenService.FractionalFee[]",
                  "name": "fractionalFees",
                  "type": "tuple[]"
                },
                {
                  "components": [
                    {
                      "internalType": "uint32",
                      "name": "numerator",
                      "type": "uint32"
                    },
                    {
                      "internalType": "uint32",
                      "name": "denominator",
                      "type": "uint32"
                    },
                    {
                      "internalType": "uint32",
                      "name": "amount",
                      "type": "uint32"
                    },
                    {
                      "internalType": "address",
                      "name": "tokenId",
                      "type": "address"
                    },
                    {
                      "internalType": "bool",
                      "name": "useHbarsForPayment",
                      "type": "bool"
                    },
                    {
                      "internalType": "address",
                      "name": "feeCollector",
                      "type": "address"
                    }
                  ],
                  "internalType": "struct IHederaTokenService.RoyaltyFee[]",
                  "name": "royaltyFees",
                  "type": "tuple[]"
                },
                {
                  "internalType": "string",
                  "name": "ledgerId",
                  "type": "string"
                }
              ],
              "internalType": "struct IHederaTokenService.TokenInfo",
              "name": "tokenInfo",
              "type": "tuple"
            },
            {
              "internalType": "int64",
              "name": "serialNumber",
              "type": "int64"
            },
            {
              "internalType": "address",
              "name": "ownerId",
              "type": "address"
            },
            {
              "internalType": "int64",
              "name": "creationTime",
              "type": "int64"
            },
            {
              "internalType": "bytes",
              "name": "metadata",
              "type": "bytes"
            },
            {
              "internalType": "address",
              "name": "spenderId",
              "type": "address"
            }
          ],
          "indexed": false,
          "internalType": "struct IHederaTokenService.NonFungibleTokenInfo",
          "name": "tokenInfo",
          "type": "tuple"
        }
      ],
      "name": "NonFungibleTokenInfo",
      "type": "event"
    },
    {
      "anonymous": false,
      "inputs": [
        {
          "indexed": false,
          "internalType": "bool",
          "name": "paused",
          "type": "bool"
        }
      ],
      "name": "PausedToken",
      "type": "event"
    },
    {
      "anonymous": false,
      "inputs": [
        {
          "indexed": false,
          "internalType": "int256",
          "name": "responseCode",
          "type": "int256"
        }
      ],
      "name": "ResponseCode",
      "type": "event"
    },
    {
      "anonymous": false,
      "inputs": [
        {
          "components": [
            {
              "internalType": "uint32",
              "name": "amount",
              "type": "uint32"
            },
            {
              "internalType": "address",
              "name": "tokenId",
              "type": "address"
            },
            {
              "internalType": "bool",
              "name": "useHbarsForPayment",
              "type": "bool"
            },
            {
              "internalType": "bool",
              "name": "useCurrentTokenForPayment",
              "type": "bool"
            },
            {
              "internalType": "address",
              "name": "feeCollector",
              "type": "address"
            }
          ],
          "indexed": false,
          "internalType": "struct IHederaTokenService.FixedFee[]",
          "name": "fixedFees",
          "type": "tuple[]"
        },
        {
          "components": [
            {
              "internalType": "uint32",
              "name": "numerator",
              "type": "uint32"
            },
            {
              "internalType": "uint32",
              "name": "denominator",
              "type": "uint32"
            },
            {
              "internalType": "uint32",
              "name": "minimumAmount",
              "type": "uint32"
            },
            {
              "internalType": "uint32",
              "name": "maximumAmount",
              "type": "uint32"
            },
            {
              "internalType": "bool",
              "name": "netOfTransfers",
              "type": "bool"
            },
            {
              "internalType": "address",
              "name": "feeCollector",
              "type": "address"
            }
          ],
          "indexed": false,
          "internalType": "struct IHederaTokenService.FractionalFee[]",
          "name": "fractionalFees",
          "type": "tuple[]"
        },
        {
          "components": [
            {
              "internalType": "uint32",
              "name": "numerator",
              "type": "uint32"
            },
            {
              "internalType": "uint32",
              "name": "denominator",
              "type": "uint32"
            },
            {
              "internalType": "uint32",
              "name": "amount",
              "type": "uint32"
            },
            {
              "internalType": "address",
              "name": "tokenId",
              "type": "address"
            },
            {
              "internalType": "bool",
              "name": "useHbarsForPayment",
              "type": "bool"
            },
            {
              "internalType": "address",
              "name": "feeCollector",
              "type": "address"
            }
          ],
          "indexed": false,
          "internalType": "struct IHederaTokenService.RoyaltyFee[]",
          "name": "royaltyFees",
          "type": "tuple[]"
        }
      ],
      "name": "TokenCustomFees",
      "type": "event"
    },
    {
      "anonymous": false,
      "inputs": [
        {
          "indexed": false,
          "internalType": "bool",
          "name": "defaultFreezeStatus",
          "type": "bool"
        }
      ],
      "name": "TokenDefaultFreezeStatus",
      "type": "event"
    },
    {
      "anonymous": false,
      "inputs": [
        {
          "indexed": false,
          "internalType": "bool",
          "name": "defaultKycStatus",
          "type": "bool"
        }
      ],
      "name": "TokenDefaultKycStatus",
      "type": "event"
    },
    {
      "anonymous": false,
      "inputs": [
        {
          "components": [
            {
              "components": [
                {
                  "internalType": "string",
                  "name": "name",
                  "type": "string"
                },
                {
                  "internalType": "string",
                  "name": "symbol",
                  "type": "string"
                },
                {
                  "internalType": "address",
                  "name": "treasury",
                  "type": "address"
                },
                {
                  "internalType": "string",
                  "name": "memo",
                  "type": "string"
                },
                {
                  "internalType": "bool",
                  "name": "tokenSupplyType",
                  "type": "bool"
                },
                {
                  "internalType": "uint32",
                  "name": "maxSupply",
                  "type": "uint32"
                },
                {
                  "internalType": "bool",
                  "name": "freezeDefault",
                  "type": "bool"
                },
                {
                  "components": [
                    {
                      "internalType": "uint256",
                      "name": "keyType",
                      "type": "uint256"
                    },
                    {
                      "components": [
                        {
                          "internalType": "bool",
                          "name": "inheritAccountKey",
                          "type": "bool"
                        },
                        {
                          "internalType": "address",
                          "name": "contractId",
                          "type": "address"
                        },
                        {
                          "internalType": "bytes",
                          "name": "ed25519",
                          "type": "bytes"
                        },
                        {
                          "internalType": "bytes",
                          "name": "ECDSA_secp256k1",
                          "type": "bytes"
                        },
                        {
                          "internalType": "address",
                          "name": "delegatableContractId",
                          "type": "address"
                        }
                      ],
                      "internalType": "struct IHederaTokenService.KeyValue",
                      "name": "key",
                      "type": "tuple"
                    }
                  ],
                  "internalType": "struct IHederaTokenService.TokenKey[]",
                  "name": "tokenKeys",
                  "type": "tuple[]"
                },
                {
                  "components": [
                    {
                      "internalType": "uint32",
                      "name": "second",
                      "type": "uint32"
                    },
                    {
                      "internalType": "address",
                      "name": "autoRenewAccount",
                      "type": "address"
                    },
                    {
                      "internalType": "uint32",
                      "name": "autoRenewPeriod",
                      "type": "uint32"
                    }
                  ],
                  "internalType": "struct IHederaTokenService.Expiry",
                  "name": "expiry",
                  "type": "tuple"
                }
              ],
              "internalType": "struct IHederaTokenService.HederaToken",
              "name": "token",
              "type": "tuple"
            },
            {
              "internalType": "uint64",
              "name": "totalSupply",
              "type": "uint64"
            },
            {
              "internalType": "bool",
              "name": "deleted",
              "type": "bool"
            },
            {
              "internalType": "bool",
              "name": "defaultKycStatus",
              "type": "bool"
            },
            {
              "internalType": "bool",
              "name": "pauseStatus",
              "type": "bool"
            },
            {
              "components": [
                {
                  "internalType": "uint32",
                  "name": "amount",
                  "type": "uint32"
                },
                {
                  "internalType": "address",
                  "name": "tokenId",
                  "type": "address"
                },
                {
                  "internalType": "bool",
                  "name": "useHbarsForPayment",
                  "type": "bool"
                },
                {
                  "internalType": "bool",
                  "name": "useCurrentTokenForPayment",
                  "type": "bool"
                },
                {
                  "internalType": "address",
                  "name": "feeCollector",
                  "type": "address"
                }
              ],
              "internalType": "struct IHederaTokenService.FixedFee[]",
              "name": "fixedFees",
              "type": "tuple[]"
            },
            {
              "components": [
                {
                  "internalType": "uint32",
                  "name": "numerator",
                  "type": "uint32"
                },
                {
                  "internalType": "uint32",
                  "name": "denominator",
                  "type": "uint32"
                },
                {
                  "internalType": "uint32",
                  "name": "minimumAmount",
                  "type": "uint32"
                },
                {
                  "internalType": "uint32",
                  "name": "maximumAmount",
                  "type": "uint32"
                },
                {
                  "internalType": "bool",
                  "name": "netOfTransfers",
                  "type": "bool"
                },
                {
                  "internalType": "address",
                  "name": "feeCollector",
                  "type": "address"
                }
              ],
              "internalType": "struct IHederaTokenService.FractionalFee[]",
              "name": "fractionalFees",
              "type": "tuple[]"
            },
            {
              "components": [
                {
                  "internalType": "uint32",
                  "name": "numerator",
                  "type": "uint32"
                },
                {
                  "internalType": "uint32",
                  "name": "denominator",
                  "type": "uint32"
                },
                {
                  "internalType": "uint32",
                  "name": "amount",
                  "type": "uint32"
                },
                {
                  "internalType": "address",
                  "name": "tokenId",
                  "type": "address"
                },
                {
                  "internalType": "bool",
                  "name": "useHbarsForPayment",
                  "type": "bool"
                },
                {
                  "internalType": "address",
                  "name": "feeCollector",
                  "type": "address"
                }
              ],
              "internalType": "struct IHederaTokenService.RoyaltyFee[]",
              "name": "royaltyFees",
              "type": "tuple[]"
            },
            {
              "internalType": "string",
              "name": "ledgerId",
              "type": "string"
            }
          ],
          "indexed": false,
          "internalType": "struct IHederaTokenService.TokenInfo",
          "name": "tokenInfo",
          "type": "tuple"
        }
      ],
      "name": "TokenInfo",
      "type": "event"
    },
    {
      "anonymous": false,
      "inputs": [
        {
          "indexed": false,
          "internalType": "bool",
          "name": "unpaused",
          "type": "bool"
        }
      ],
      "name": "UnpausedToken",
      "type": "event"
    },
    {
      "inputs": [
        {
          "internalType": "address",
          "name": "token",
          "type": "address"
        },
        {
          "internalType": "address",
          "name": "owner",
          "type": "address"
        },
        {
          "internalType": "address",
          "name": "spender",
          "type": "address"
        }
      ],
      "name": "allowancePublic",
      "outputs": [
        {
          "internalType": "int256",
          "name": "responseCode",
          "type": "int256"
        },
        {
          "internalType": "uint256",
          "name": "amount",
          "type": "uint256"
        }
      ],
      "stateMutability": "nonpayable",
      "type": "function"
    },
    {
      "inputs": [
        {
          "internalType": "address",
          "name": "token",
          "type": "address"
        },
        {
          "internalType": "address",
          "name": "spender",
          "type": "address"
        },
        {
          "internalType": "uint256",
          "name": "amount",
          "type": "uint256"
        }
      ],
      "name": "approvePublic",
      "outputs": [
        {
          "internalType": "int256",
          "name": "responseCode",
          "type": "int256"
        }
      ],
      "stateMutability": "nonpayable",
      "type": "function"
    },
    {
      "inputs": [
        {
          "internalType": "address",
          "name": "account",
          "type": "address"
        },
        {
          "internalType": "address",
          "name": "token",
          "type": "address"
        }
      ],
      "name": "associateTokenPublic",
      "outputs": [
        {
          "internalType": "int256",
          "name": "responseCode",
          "type": "int256"
        }
      ],
      "stateMutability": "nonpayable",
      "type": "function"
    },
    {
      "inputs": [
        {
          "internalType": "address",
          "name": "treasury",
          "type": "address"
        }
      ],
      "name": "createFungibleTokenPublic",
      "outputs": [],
      "stateMutability": "payable",
      "type": "function"
    },
    {
      "inputs": [
        {
          "internalType": "address",
          "name": "treasury",
          "type": "address"
        },
        {
          "internalType": "address",
          "name": "fixedFeeTokenAddress",
          "type": "address"
        }
      ],
      "name": "createFungibleTokenWithCustomFeesPublic",
      "outputs": [],
      "stateMutability": "payable",
      "type": "function"
    },
    {
      "inputs": [
        {
          "internalType": "address",
          "name": "treasury",
          "type": "address"
        }
      ],
      "name": "createNonFungibleTokenPublic",
      "outputs": [],
      "stateMutability": "payable",
      "type": "function"
    },
    {
      "inputs": [
        {
          "internalType": "address",
          "name": "token",
          "type": "address"
        },
        {
          "internalType": "address",
          "name": "account",
          "type": "address"
        }
      ],
      "name": "freezeTokenPublic",
      "outputs": [
        {
          "internalType": "int256",
          "name": "responseCode",
          "type": "int256"
        }
      ],
      "stateMutability": "nonpayable",
      "type": "function"
    },
    {
      "inputs": [
        {
          "internalType": "address",
          "name": "token",
          "type": "address"
        },
        {
          "internalType": "uint256",
          "name": "serialNumber",
          "type": "uint256"
        }
      ],
      "name": "getApprovedPublic",
      "outputs": [
        {
          "internalType": "int256",
          "name": "responseCode",
          "type": "int256"
        },
        {
          "internalType": "address",
          "name": "approved",
          "type": "address"
        }
      ],
      "stateMutability": "nonpayable",
      "type": "function"
    },
    {
      "inputs": [
        {
          "internalType": "address",
          "name": "token",
          "type": "address"
        }
      ],
      "name": "getFungibleTokenInfoPublic",
      "outputs": [
        {
          "internalType": "int256",
          "name": "responseCode",
          "type": "int256"
        },
        {
          "components": [
            {
              "components": [
                {
                  "components": [
                    {
                      "internalType": "string",
                      "name": "name",
                      "type": "string"
                    },
                    {
                      "internalType": "string",
                      "name": "symbol",
                      "type": "string"
                    },
                    {
                      "internalType": "address",
                      "name": "treasury",
                      "type": "address"
                    },
                    {
                      "internalType": "string",
                      "name": "memo",
                      "type": "string"
                    },
                    {
                      "internalType": "bool",
                      "name": "tokenSupplyType",
                      "type": "bool"
                    },
                    {
                      "internalType": "uint32",
                      "name": "maxSupply",
                      "type": "uint32"
                    },
                    {
                      "internalType": "bool",
                      "name": "freezeDefault",
                      "type": "bool"
                    },
                    {
                      "components": [
                        {
                          "internalType": "uint256",
                          "name": "keyType",
                          "type": "uint256"
                        },
                        {
                          "components": [
                            {
                              "internalType": "bool",
                              "name": "inheritAccountKey",
                              "type": "bool"
                            },
                            {
                              "internalType": "address",
                              "name": "contractId",
                              "type": "address"
                            },
                            {
                              "internalType": "bytes",
                              "name": "ed25519",
                              "type": "bytes"
                            },
                            {
                              "internalType": "bytes",
                              "name": "ECDSA_secp256k1",
                              "type": "bytes"
                            },
                            {
                              "internalType": "address",
                              "name": "delegatableContractId",
                              "type": "address"
                            }
                          ],
                          "internalType": "struct IHederaTokenService.KeyValue",
                          "name": "key",
                          "type": "tuple"
                        }
                      ],
                      "internalType": "struct IHederaTokenService.TokenKey[]",
                      "name": "tokenKeys",
                      "type": "tuple[]"
                    },
                    {
                      "components": [
                        {
                          "internalType": "uint32",
                          "name": "second",
                          "type": "uint32"
                        },
                        {
                          "internalType": "address",
                          "name": "autoRenewAccount",
                          "type": "address"
                        },
                        {
                          "internalType": "uint32",
                          "name": "autoRenewPeriod",
                          "type": "uint32"
                        }
                      ],
                      "internalType": "struct IHederaTokenService.Expiry",
                      "name": "expiry",
                      "type": "tuple"
                    }
                  ],
                  "internalType": "struct IHederaTokenService.HederaToken",
                  "name": "token",
                  "type": "tuple"
                },
                {
                  "internalType": "uint64",
                  "name": "totalSupply",
                  "type": "uint64"
                },
                {
                  "internalType": "bool",
                  "name": "deleted",
                  "type": "bool"
                },
                {
                  "internalType": "bool",
                  "name": "defaultKycStatus",
                  "type": "bool"
                },
                {
                  "internalType": "bool",
                  "name": "pauseStatus",
                  "type": "bool"
                },
                {
                  "components": [
                    {
                      "internalType": "uint32",
                      "name": "amount",
                      "type": "uint32"
                    },
                    {
                      "internalType": "address",
                      "name": "tokenId",
                      "type": "address"
                    },
                    {
                      "internalType": "bool",
                      "name": "useHbarsForPayment",
                      "type": "bool"
                    },
                    {
                      "internalType": "bool",
                      "name": "useCurrentTokenForPayment",
                      "type": "bool"
                    },
                    {
                      "internalType": "address",
                      "name": "feeCollector",
                      "type": "address"
                    }
                  ],
                  "internalType": "struct IHederaTokenService.FixedFee[]",
                  "name": "fixedFees",
                  "type": "tuple[]"
                },
                {
                  "components": [
                    {
                      "internalType": "uint32",
                      "name": "numerator",
                      "type": "uint32"
                    },
                    {
                      "internalType": "uint32",
                      "name": "denominator",
                      "type": "uint32"
                    },
                    {
                      "internalType": "uint32",
                      "name": "minimumAmount",
                      "type": "uint32"
                    },
                    {
                      "internalType": "uint32",
                      "name": "maximumAmount",
                      "type": "uint32"
                    },
                    {
                      "internalType": "bool",
                      "name": "netOfTransfers",
                      "type": "bool"
                    },
                    {
                      "internalType": "address",
                      "name": "feeCollector",
                      "type": "address"
                    }
                  ],
                  "internalType": "struct IHederaTokenService.FractionalFee[]",
                  "name": "fractionalFees",
                  "type": "tuple[]"
                },
                {
                  "components": [
                    {
                      "internalType": "uint32",
                      "name": "numerator",
                      "type": "uint32"
                    },
                    {
                      "internalType": "uint32",
                      "name": "denominator",
                      "type": "uint32"
                    },
                    {
                      "internalType": "uint32",
                      "name": "amount",
                      "type": "uint32"
                    },
                    {
                      "internalType": "address",
                      "name": "tokenId",
                      "type": "address"
                    },
                    {
                      "internalType": "bool",
                      "name": "useHbarsForPayment",
                      "type": "bool"
                    },
                    {
                      "internalType": "address",
                      "name": "feeCollector",
                      "type": "address"
                    }
                  ],
                  "internalType": "struct IHederaTokenService.RoyaltyFee[]",
                  "name": "royaltyFees",
                  "type": "tuple[]"
                },
                {
                  "internalType": "string",
                  "name": "ledgerId",
                  "type": "string"
                }
              ],
              "internalType": "struct IHederaTokenService.TokenInfo",
              "name": "tokenInfo",
              "type": "tuple"
            },
            {
              "internalType": "uint32",
              "name": "decimals",
              "type": "uint32"
            }
          ],
          "internalType": "struct IHederaTokenService.FungibleTokenInfo",
          "name": "tokenInfo",
          "type": "tuple"
        }
      ],
      "stateMutability": "nonpayable",
      "type": "function"
    },
    {
      "inputs": [
        {
          "internalType": "address",
          "name": "token",
          "type": "address"
        },
        {
          "internalType": "int64",
          "name": "serialNumber",
          "type": "int64"
        }
      ],
      "name": "getNonFungibleTokenInfoPublic",
      "outputs": [
        {
          "internalType": "int256",
          "name": "responseCode",
          "type": "int256"
        },
        {
          "components": [
            {
              "components": [
                {
                  "components": [
                    {
                      "internalType": "string",
                      "name": "name",
                      "type": "string"
                    },
                    {
                      "internalType": "string",
                      "name": "symbol",
                      "type": "string"
                    },
                    {
                      "internalType": "address",
                      "name": "treasury",
                      "type": "address"
                    },
                    {
                      "internalType": "string",
                      "name": "memo",
                      "type": "string"
                    },
                    {
                      "internalType": "bool",
                      "name": "tokenSupplyType",
                      "type": "bool"
                    },
                    {
                      "internalType": "uint32",
                      "name": "maxSupply",
                      "type": "uint32"
                    },
                    {
                      "internalType": "bool",
                      "name": "freezeDefault",
                      "type": "bool"
                    },
                    {
                      "components": [
                        {
                          "internalType": "uint256",
                          "name": "keyType",
                          "type": "uint256"
                        },
                        {
                          "components": [
                            {
                              "internalType": "bool",
                              "name": "inheritAccountKey",
                              "type": "bool"
                            },
                            {
                              "internalType": "address",
                              "name": "contractId",
                              "type": "address"
                            },
                            {
                              "internalType": "bytes",
                              "name": "ed25519",
                              "type": "bytes"
                            },
                            {
                              "internalType": "bytes",
                              "name": "ECDSA_secp256k1",
                              "type": "bytes"
                            },
                            {
                              "internalType": "address",
                              "name": "delegatableContractId",
                              "type": "address"
                            }
                          ],
                          "internalType": "struct IHederaTokenService.KeyValue",
                          "name": "key",
                          "type": "tuple"
                        }
                      ],
                      "internalType": "struct IHederaTokenService.TokenKey[]",
                      "name": "tokenKeys",
                      "type": "tuple[]"
                    },
                    {
                      "components": [
                        {
                          "internalType": "uint32",
                          "name": "second",
                          "type": "uint32"
                        },
                        {
                          "internalType": "address",
                          "name": "autoRenewAccount",
                          "type": "address"
                        },
                        {
                          "internalType": "uint32",
                          "name": "autoRenewPeriod",
                          "type": "uint32"
                        }
                      ],
                      "internalType": "struct IHederaTokenService.Expiry",
                      "name": "expiry",
                      "type": "tuple"
                    }
                  ],
                  "internalType": "struct IHederaTokenService.HederaToken",
                  "name": "token",
                  "type": "tuple"
                },
                {
                  "internalType": "uint64",
                  "name": "totalSupply",
                  "type": "uint64"
                },
                {
                  "internalType": "bool",
                  "name": "deleted",
                  "type": "bool"
                },
                {
                  "internalType": "bool",
                  "name": "defaultKycStatus",
                  "type": "bool"
                },
                {
                  "internalType": "bool",
                  "name": "pauseStatus",
                  "type": "bool"
                },
                {
                  "components": [
                    {
                      "internalType": "uint32",
                      "name": "amount",
                      "type": "uint32"
                    },
                    {
                      "internalType": "address",
                      "name": "tokenId",
                      "type": "address"
                    },
                    {
                      "internalType": "bool",
                      "name": "useHbarsForPayment",
                      "type": "bool"
                    },
                    {
                      "internalType": "bool",
                      "name": "useCurrentTokenForPayment",
                      "type": "bool"
                    },
                    {
                      "internalType": "address",
                      "name": "feeCollector",
                      "type": "address"
                    }
                  ],
                  "internalType": "struct IHederaTokenService.FixedFee[]",
                  "name": "fixedFees",
                  "type": "tuple[]"
                },
                {
                  "components": [
                    {
                      "internalType": "uint32",
                      "name": "numerator",
                      "type": "uint32"
                    },
                    {
                      "internalType": "uint32",
                      "name": "denominator",
                      "type": "uint32"
                    },
                    {
                      "internalType": "uint32",
                      "name": "minimumAmount",
                      "type": "uint32"
                    },
                    {
                      "internalType": "uint32",
                      "name": "maximumAmount",
                      "type": "uint32"
                    },
                    {
                      "internalType": "bool",
                      "name": "netOfTransfers",
                      "type": "bool"
                    },
                    {
                      "internalType": "address",
                      "name": "feeCollector",
                      "type": "address"
                    }
                  ],
                  "internalType": "struct IHederaTokenService.FractionalFee[]",
                  "name": "fractionalFees",
                  "type": "tuple[]"
                },
                {
                  "components": [
                    {
                      "internalType": "uint32",
                      "name": "numerator",
                      "type": "uint32"
                    },
                    {
                      "internalType": "uint32",
                      "name": "denominator",
                      "type": "uint32"
                    },
                    {
                      "internalType": "uint32",
                      "name": "amount",
                      "type": "uint32"
                    },
                    {
                      "internalType": "address",
                      "name": "tokenId",
                      "type": "address"
                    },
                    {
                      "internalType": "bool",
                      "name": "useHbarsForPayment",
                      "type": "bool"
                    },
                    {
                      "internalType": "address",
                      "name": "feeCollector",
                      "type": "address"
                    }
                  ],
                  "internalType": "struct IHederaTokenService.RoyaltyFee[]",
                  "name": "royaltyFees",
                  "type": "tuple[]"
                },
                {
                  "internalType": "string",
                  "name": "ledgerId",
                  "type": "string"
                }
              ],
              "internalType": "struct IHederaTokenService.TokenInfo",
              "name": "tokenInfo",
              "type": "tuple"
            },
            {
              "internalType": "int64",
              "name": "serialNumber",
              "type": "int64"
            },
            {
              "internalType": "address",
              "name": "ownerId",
              "type": "address"
            },
            {
              "internalType": "int64",
              "name": "creationTime",
              "type": "int64"
            },
            {
              "internalType": "bytes",
              "name": "metadata",
              "type": "bytes"
            },
            {
              "internalType": "address",
              "name": "spenderId",
              "type": "address"
            }
          ],
          "internalType": "struct IHederaTokenService.NonFungibleTokenInfo",
          "name": "tokenInfo",
          "type": "tuple"
        }
      ],
      "stateMutability": "nonpayable",
      "type": "function"
    },
    {
      "inputs": [
        {
          "internalType": "address",
          "name": "token",
          "type": "address"
        }
      ],
      "name": "getTokenCustomFeesPublic",
      "outputs": [
        {
          "internalType": "int64",
          "name": "responseCode",
          "type": "int64"
        },
        {
          "components": [
            {
              "internalType": "uint32",
              "name": "amount",
              "type": "uint32"
            },
            {
              "internalType": "address",
              "name": "tokenId",
              "type": "address"
            },
            {
              "internalType": "bool",
              "name": "useHbarsForPayment",
              "type": "bool"
            },
            {
              "internalType": "bool",
              "name": "useCurrentTokenForPayment",
              "type": "bool"
            },
            {
              "internalType": "address",
              "name": "feeCollector",
              "type": "address"
            }
          ],
          "internalType": "struct IHederaTokenService.FixedFee[]",
          "name": "fixedFees",
          "type": "tuple[]"
        },
        {
          "components": [
            {
              "internalType": "uint32",
              "name": "numerator",
              "type": "uint32"
            },
            {
              "internalType": "uint32",
              "name": "denominator",
              "type": "uint32"
            },
            {
              "internalType": "uint32",
              "name": "minimumAmount",
              "type": "uint32"
            },
            {
              "internalType": "uint32",
              "name": "maximumAmount",
              "type": "uint32"
            },
            {
              "internalType": "bool",
              "name": "netOfTransfers",
              "type": "bool"
            },
            {
              "internalType": "address",
              "name": "feeCollector",
              "type": "address"
            }
          ],
          "internalType": "struct IHederaTokenService.FractionalFee[]",
          "name": "fractionalFees",
          "type": "tuple[]"
        },
        {
          "components": [
            {
              "internalType": "uint32",
              "name": "numerator",
              "type": "uint32"
            },
            {
              "internalType": "uint32",
              "name": "denominator",
              "type": "uint32"
            },
            {
              "internalType": "uint32",
              "name": "amount",
              "type": "uint32"
            },
            {
              "internalType": "address",
              "name": "tokenId",
              "type": "address"
            },
            {
              "internalType": "bool",
              "name": "useHbarsForPayment",
              "type": "bool"
            },
            {
              "internalType": "address",
              "name": "feeCollector",
              "type": "address"
            }
          ],
          "internalType": "struct IHederaTokenService.RoyaltyFee[]",
          "name": "royaltyFees",
          "type": "tuple[]"
        }
      ],
      "stateMutability": "nonpayable",
      "type": "function"
    },
    {
      "inputs": [
        {
          "internalType": "address",
          "name": "token",
          "type": "address"
        }
      ],
      "name": "getTokenDefaultFreezeStatusPublic",
      "outputs": [
        {
          "internalType": "int256",
          "name": "responseCode",
          "type": "int256"
        },
        {
          "internalType": "bool",
          "name": "defaultFreezeStatus",
          "type": "bool"
        }
      ],
      "stateMutability": "nonpayable",
      "type": "function"
    },
    {
      "inputs": [
        {
          "internalType": "address",
          "name": "token",
          "type": "address"
        }
      ],
      "name": "getTokenDefaultKycStatusPublic",
      "outputs": [
        {
          "internalType": "int256",
          "name": "responseCode",
          "type": "int256"
        },
        {
          "internalType": "bool",
          "name": "defaultKycStatus",
          "type": "bool"
        }
      ],
      "stateMutability": "nonpayable",
      "type": "function"
    },
    {
      "inputs": [
        {
          "internalType": "address",
          "name": "token",
          "type": "address"
        }
      ],
      "name": "getTokenInfoPublic",
      "outputs": [
        {
          "internalType": "int256",
          "name": "responseCode",
          "type": "int256"
        },
        {
          "components": [
            {
              "components": [
                {
                  "internalType": "string",
                  "name": "name",
                  "type": "string"
                },
                {
                  "internalType": "string",
                  "name": "symbol",
                  "type": "string"
                },
                {
                  "internalType": "address",
                  "name": "treasury",
                  "type": "address"
                },
                {
                  "internalType": "string",
                  "name": "memo",
                  "type": "string"
                },
                {
                  "internalType": "bool",
                  "name": "tokenSupplyType",
                  "type": "bool"
                },
                {
                  "internalType": "uint32",
                  "name": "maxSupply",
                  "type": "uint32"
                },
                {
                  "internalType": "bool",
                  "name": "freezeDefault",
                  "type": "bool"
                },
                {
                  "components": [
                    {
                      "internalType": "uint256",
                      "name": "keyType",
                      "type": "uint256"
                    },
                    {
                      "components": [
                        {
                          "internalType": "bool",
                          "name": "inheritAccountKey",
                          "type": "bool"
                        },
                        {
                          "internalType": "address",
                          "name": "contractId",
                          "type": "address"
                        },
                        {
                          "internalType": "bytes",
                          "name": "ed25519",
                          "type": "bytes"
                        },
                        {
                          "internalType": "bytes",
                          "name": "ECDSA_secp256k1",
                          "type": "bytes"
                        },
                        {
                          "internalType": "address",
                          "name": "delegatableContractId",
                          "type": "address"
                        }
                      ],
                      "internalType": "struct IHederaTokenService.KeyValue",
                      "name": "key",
                      "type": "tuple"
                    }
                  ],
                  "internalType": "struct IHederaTokenService.TokenKey[]",
                  "name": "tokenKeys",
                  "type": "tuple[]"
                },
                {
                  "components": [
                    {
                      "internalType": "uint32",
                      "name": "second",
                      "type": "uint32"
                    },
                    {
                      "internalType": "address",
                      "name": "autoRenewAccount",
                      "type": "address"
                    },
                    {
                      "internalType": "uint32",
                      "name": "autoRenewPeriod",
                      "type": "uint32"
                    }
                  ],
                  "internalType": "struct IHederaTokenService.Expiry",
                  "name": "expiry",
                  "type": "tuple"
                }
              ],
              "internalType": "struct IHederaTokenService.HederaToken",
              "name": "token",
              "type": "tuple"
            },
            {
              "internalType": "uint64",
              "name": "totalSupply",
              "type": "uint64"
            },
            {
              "internalType": "bool",
              "name": "deleted",
              "type": "bool"
            },
            {
              "internalType": "bool",
              "name": "defaultKycStatus",
              "type": "bool"
            },
            {
              "internalType": "bool",
              "name": "pauseStatus",
              "type": "bool"
            },
            {
              "components": [
                {
                  "internalType": "uint32",
                  "name": "amount",
                  "type": "uint32"
                },
                {
                  "internalType": "address",
                  "name": "tokenId",
                  "type": "address"
                },
                {
                  "internalType": "bool",
                  "name": "useHbarsForPayment",
                  "type": "bool"
                },
                {
                  "internalType": "bool",
                  "name": "useCurrentTokenForPayment",
                  "type": "bool"
                },
                {
                  "internalType": "address",
                  "name": "feeCollector",
                  "type": "address"
                }
              ],
              "internalType": "struct IHederaTokenService.FixedFee[]",
              "name": "fixedFees",
              "type": "tuple[]"
            },
            {
              "components": [
                {
                  "internalType": "uint32",
                  "name": "numerator",
                  "type": "uint32"
                },
                {
                  "internalType": "uint32",
                  "name": "denominator",
                  "type": "uint32"
                },
                {
                  "internalType": "uint32",
                  "name": "minimumAmount",
                  "type": "uint32"
                },
                {
                  "internalType": "uint32",
                  "name": "maximumAmount",
                  "type": "uint32"
                },
                {
                  "internalType": "bool",
                  "name": "netOfTransfers",
                  "type": "bool"
                },
                {
                  "internalType": "address",
                  "name": "feeCollector",
                  "type": "address"
                }
              ],
              "internalType": "struct IHederaTokenService.FractionalFee[]",
              "name": "fractionalFees",
              "type": "tuple[]"
            },
            {
              "components": [
                {
                  "internalType": "uint32",
                  "name": "numerator",
                  "type": "uint32"
                },
                {
                  "internalType": "uint32",
                  "name": "denominator",
                  "type": "uint32"
                },
                {
                  "internalType": "uint32",
                  "name": "amount",
                  "type": "uint32"
                },
                {
                  "internalType": "address",
                  "name": "tokenId",
                  "type": "address"
                },
                {
                  "internalType": "bool",
                  "name": "useHbarsForPayment",
                  "type": "bool"
                },
                {
                  "internalType": "address",
                  "name": "feeCollector",
                  "type": "address"
                }
              ],
              "internalType": "struct IHederaTokenService.RoyaltyFee[]",
              "name": "royaltyFees",
              "type": "tuple[]"
            },
            {
              "internalType": "string",
              "name": "ledgerId",
              "type": "string"
            }
          ],
          "internalType": "struct IHederaTokenService.TokenInfo",
          "name": "tokenInfo",
          "type": "tuple"
        }
      ],
      "stateMutability": "nonpayable",
      "type": "function"
    },
    {
      "inputs": [
        {
          "internalType": "address",
          "name": "token",
          "type": "address"
        },
        {
          "internalType": "address",
          "name": "account",
          "type": "address"
        }
      ],
      "name": "grantTokenKyc",
      "outputs": [
        {
          "internalType": "int64",
          "name": "responseCode",
          "type": "int64"
        }
      ],
      "stateMutability": "nonpayable",
      "type": "function"
    },
    {
      "inputs": [
        {
          "internalType": "address",
          "name": "token",
          "type": "address"
        },
        {
          "internalType": "address",
          "name": "account",
          "type": "address"
        }
      ],
      "name": "grantTokenKycPublic",
      "outputs": [
        {
          "internalType": "int64",
          "name": "responseCode",
          "type": "int64"
        }
      ],
      "stateMutability": "nonpayable",
      "type": "function"
    },
    {
      "inputs": [
        {
          "internalType": "address",
          "name": "token",
          "type": "address"
        },
        {
          "internalType": "address",
          "name": "owner",
          "type": "address"
        },
        {
          "internalType": "address",
          "name": "operator",
          "type": "address"
        }
      ],
      "name": "isApprovedForAllPublic",
      "outputs": [
        {
          "internalType": "int256",
          "name": "responseCode",
          "type": "int256"
        },
        {
          "internalType": "bool",
          "name": "approved",
          "type": "bool"
        }
      ],
      "stateMutability": "nonpayable",
      "type": "function"
    },
    {
      "inputs": [
        {
          "internalType": "address",
          "name": "token",
          "type": "address"
        },
        {
          "internalType": "address",
          "name": "account",
          "type": "address"
        }
      ],
      "name": "isFrozenPublic",
      "outputs": [
        {
          "internalType": "int256",
          "name": "responseCode",
          "type": "int256"
        },
        {
          "internalType": "bool",
          "name": "frozen",
          "type": "bool"
        }
      ],
      "stateMutability": "nonpayable",
      "type": "function"
    },
    {
      "inputs": [
        {
          "internalType": "address",
          "name": "token",
          "type": "address"
        },
        {
          "internalType": "address",
          "name": "account",
          "type": "address"
        }
      ],
      "name": "isKyc",
      "outputs": [
        {
          "internalType": "int64",
          "name": "responseCode",
          "type": "int64"
        },
        {
          "internalType": "bool",
          "name": "kycGranted",
          "type": "bool"
        }
      ],
      "stateMutability": "nonpayable",
      "type": "function"
    },
    {
      "inputs": [
        {
          "internalType": "address",
          "name": "token",
          "type": "address"
        },
        {
          "internalType": "address",
          "name": "account",
          "type": "address"
        }
      ],
      "name": "isKycPublic",
      "outputs": [
        {
          "internalType": "int64",
          "name": "responseCode",
          "type": "int64"
        },
        {
          "internalType": "bool",
          "name": "kycGranted",
          "type": "bool"
        }
      ],
      "stateMutability": "nonpayable",
      "type": "function"
    },
    {
      "inputs": [
        {
          "internalType": "address",
          "name": "token",
          "type": "address"
        },
        {
          "internalType": "uint64",
          "name": "amount",
          "type": "uint64"
        },
        {
          "internalType": "bytes[]",
          "name": "metadata",
          "type": "bytes[]"
        }
      ],
      "name": "mintTokenPublic",
      "outputs": [
        {
          "internalType": "int256",
          "name": "responseCode",
          "type": "int256"
        },
        {
          "internalType": "uint64",
          "name": "newTotalSupply",
          "type": "uint64"
        },
        {
          "internalType": "int64[]",
          "name": "serialNumbers",
          "type": "int64[]"
        }
      ],
      "stateMutability": "nonpayable",
      "type": "function"
    },
    {
      "inputs": [
        {
          "internalType": "address",
          "name": "token",
          "type": "address"
        }
      ],
      "name": "pauseToken",
      "outputs": [
        {
          "internalType": "int256",
          "name": "responseCode",
          "type": "int256"
        }
      ],
      "stateMutability": "nonpayable",
      "type": "function"
    },
    {
      "inputs": [
        {
          "internalType": "address",
          "name": "token",
          "type": "address"
        }
      ],
      "name": "pauseTokenPublic",
      "outputs": [
        {
          "internalType": "int256",
          "name": "responseCode",
          "type": "int256"
        }
      ],
      "stateMutability": "nonpayable",
      "type": "function"
    },
    {
      "inputs": [
        {
          "internalType": "address",
          "name": "token",
          "type": "address"
        },
        {
          "internalType": "address",
          "name": "account",
          "type": "address"
        }
      ],
      "name": "revokeTokenKyc",
      "outputs": [
        {
          "internalType": "int64",
          "name": "responseCode",
          "type": "int64"
        }
      ],
      "stateMutability": "nonpayable",
      "type": "function"
    },
    {
      "inputs": [
        {
          "internalType": "address",
          "name": "token",
          "type": "address"
        },
        {
          "internalType": "address",
          "name": "account",
          "type": "address"
        }
      ],
      "name": "revokeTokenKycPublic",
      "outputs": [
        {
          "internalType": "int64",
          "name": "responseCode",
          "type": "int64"
        }
      ],
      "stateMutability": "nonpayable",
      "type": "function"
    },
    {
      "inputs": [
        {
          "internalType": "address",
          "name": "token",
          "type": "address"
        },
        {
          "internalType": "address",
          "name": "operator",
          "type": "address"
        },
        {
          "internalType": "bool",
          "name": "approved",
          "type": "bool"
        }
      ],
      "name": "setApprovalForAllPublic",
      "outputs": [
        {
          "internalType": "int256",
          "name": "responseCode",
          "type": "int256"
        }
      ],
      "stateMutability": "nonpayable",
      "type": "function"
    },
    {
      "inputs": [
        {
          "internalType": "bool",
          "name": "newFreezeStatus",
          "type": "bool"
        }
      ],
      "name": "setFreezeDefaultStatus",
      "outputs": [],
      "stateMutability": "nonpayable",
      "type": "function"
    },
    {
      "inputs": [
        {
          "internalType": "address",
          "name": "token",
          "type": "address"
        },
        {
          "internalType": "address",
          "name": "sender",
          "type": "address"
        },
        {
          "internalType": "address",
          "name": "receiver",
          "type": "address"
        },
        {
          "internalType": "int64",
          "name": "serialNumber",
          "type": "int64"
        }
      ],
      "name": "transferNFTPublic",
      "outputs": [
        {
          "internalType": "int256",
          "name": "responseCode",
          "type": "int256"
        }
      ],
      "stateMutability": "nonpayable",
      "type": "function"
    },
    {
      "inputs": [
        {
          "internalType": "address",
          "name": "account",
          "type": "address"
        },
        {
          "internalType": "address",
          "name": "token",
          "type": "address"
        },
        {
          "internalType": "int64",
          "name": "amount",
          "type": "int64"
        }
      ],
      "name": "transferTokenPublic",
      "outputs": [
        {
          "internalType": "int256",
          "name": "responseCode",
          "type": "int256"
        }
      ],
      "stateMutability": "nonpayable",
      "type": "function"
    },
    {
      "inputs": [
        {
          "internalType": "address",
          "name": "token",
          "type": "address"
        },
        {
          "internalType": "address",
          "name": "account",
          "type": "address"
        }
      ],
      "name": "unfreezeTokenPublic",
      "outputs": [
        {
          "internalType": "int256",
          "name": "responseCode",
          "type": "int256"
        }
      ],
      "stateMutability": "nonpayable",
      "type": "function"
    },
    {
      "inputs": [
        {
          "internalType": "address",
          "name": "token",
          "type": "address"
        }
      ],
      "name": "unpauseToken",
      "outputs": [
        {
          "internalType": "int256",
          "name": "responseCode",
          "type": "int256"
        }
      ],
      "stateMutability": "nonpayable",
      "type": "function"
    },
    {
      "inputs": [
        {
          "internalType": "address",
          "name": "token",
          "type": "address"
        }
      ],
      "name": "unpauseTokenPublic",
      "outputs": [
        {
          "internalType": "int256",
          "name": "responseCode",
          "type": "int256"
        }
      ],
      "stateMutability": "nonpayable",
      "type": "function"
    },
    {
      "inputs": [
        {
          "internalType": "address",
          "name": "token",
          "type": "address"
        },
        {
          "internalType": "address",
          "name": "account",
          "type": "address"
        },
        {
          "internalType": "int64[]",
          "name": "serialNumbers",
          "type": "int64[]"
        }
      ],
      "name": "wipeTokenAccountNFTPublic",
      "outputs": [
        {
          "internalType": "int256",
          "name": "responseCode",
          "type": "int256"
        }
      ],
      "stateMutability": "nonpayable",
      "type": "function"
    },
    {
      "inputs": [
        {
          "internalType": "address",
          "name": "token",
          "type": "address"
        },
        {
          "internalType": "address",
          "name": "account",
          "type": "address"
        },
        {
          "internalType": "uint32",
          "name": "amount",
          "type": "uint32"
        }
      ],
      "name": "wipeTokenAccountPublic",
      "outputs": [
        {
          "internalType": "int256",
          "name": "responseCode",
          "type": "int256"
        }
      ],
      "stateMutability": "nonpayable",
      "type": "function"
    }
  ],
  "bytecode": "0x60c06040526009608081905268746f6b656e4e616d6560b81b60a09081526200002c9160019190620000cb565b5060408051808201909152600b8082526a1d1bdad95b94de5b589bdb60aa1b60209092019182526200006191600291620000cb565b50604080518082019091526004808252636d656d6f60e01b60209092019182526200008f91600391620000cb565b506103e860048190556005805463ffffffff1916909117905560086006556007805460ff19169055348015620000c457600080fd5b50620001ae565b828054620000d99062000171565b90600052602060002090601f016020900481019282620000fd576000855562000148565b82601f106200011857805160ff191683800117855562000148565b8280016001018555821562000148579182015b82811115620001485782518255916020019190600101906200012b565b50620001569291506200015a565b5090565b5b808211156200015657600081556001016200015b565b600181811c908216806200018657607f821691505b60208210811415620001a857634e487b7160e01b600052602260045260246000fd5b50919050565b61518080620001be6000396000f3fe6080604052600436106102195760003560e01c80637d3e5da81161011d578063d92ac248116100b0578063f2f38a741161007f578063f7be342511610064578063f7be3425146106a9578063f848fec4146106c9578063f9e978bd146106e957600080fd5b8063f2f38a741461065b578063f4a01e5b1461068957600080fd5b8063d92ac248146105db578063ec855c31146105fb578063f25b12001461061b578063f2c31ff41461063b57600080fd5b80638f8d7f99116100ec5780638f8d7f991461054e578063a3ad5b551461056e578063af99c633146105a8578063d85f74c1146105c857600080fd5b80637d3e5da8146104cc5780638070905f146104ec57806386f88d881461051b5780638ba74da01461053b57600080fd5b80634b5c6687116101b05780635b9076b71161017f5780636a4dde21116101645780636a4dde211461046c5780636da6b1f01461048c5780637c41ad2c146104ac57600080fd5b80635b9076b71461040e57806369837dc21461043e57600080fd5b80634b5c6687146103765780634cbdb37b1461038b57806356af8403146103b95780635a5e6c31146103d957600080fd5b80632d73bb2e116101ec5780632d73bb2e146102f65780632eecbca3146103165780633b3bff0f146103365780633eed2c391461035657600080fd5b80630fd2601e1461021e57806313c05dd81461025657806319db44b61461028b5780632b256ec8146102c8575b600080fd5b34801561022a57600080fd5b5061023e610239366004613651565b610709565b60405160079190910b81526020015b60405180910390f35b34801561026257600080fd5b5061027661027136600461368a565b6107cd565b6040805192835290151560208301520161024d565b34801561029757600080fd5b506102ab6102a63660046136d5565b61084b565b604080519283526001600160a01b0390911660208301520161024d565b3480156102d457600080fd5b506102e86102e3366004613701565b6108cf565b60405190815260200161024d565b34801561030257600080fd5b506102e8610311366004613651565b6109bb565b34801561032257600080fd5b5061023e610331366004613651565b610a00565b34801561034257600080fd5b506102e8610351366004613701565b610a37565b34801561036257600080fd5b50610276610371366004613701565b610b11565b610389610384366004613701565b610b8b565b005b34801561039757600080fd5b506103ab6103a636600461372d565b610f4b565b60405161024d929190613c53565b3480156103c557600080fd5b506102e86103d4366004613d6a565b610fc1565b3480156103e557600080fd5b506103f96103f436600461368a565b61100b565b6040805192835260208301919091520161024d565b34801561041a57600080fd5b5061042e610429366004613701565b61107c565b60405161024d9493929190613e30565b34801561044a57600080fd5b5061045e610459366004613701565b61110e565b60405161024d929190613eac565b34801561047857600080fd5b50610276610487366004613651565b611183565b34801561049857600080fd5b506102e86104a7366004613ec5565b6111fa565b3480156104b857600080fd5b506102e86104c7366004613701565b611246565b3480156104d857600080fd5b506102e86104e7366004613651565b611274565b3480156104f857600080fd5b5061050c610507366004613f5f565b611280565b60405161024d939291906140a8565b34801561052757600080fd5b50610276610536366004613701565b611308565b610389610549366004613651565b611379565b34801561055a57600080fd5b5061023e610569366004613651565b61180b565b34801561057a57600080fd5b5061058e610589366004613651565b6118ee565b6040805160079390930b835290151560208301520161024d565b3480156105b457600080fd5b5061023e6105c3366004613651565b6119e0565b6103896105d6366004613701565b611a16565b3480156105e757600080fd5b506102e86105f63660046140ec565b611dae565b34801561060757600080fd5b506102e861061636600461412c565b611dbb565b34801561062757600080fd5b506102e861063636600461417a565b611f92565b34801561064757600080fd5b5061058e610656366004613651565b611f9f565b34801561066757600080fd5b5061067b610676366004613701565b61208c565b60405161024d9291906141ba565b34801561069557600080fd5b506102e86106a4366004613651565b612101565b3480156106b557600080fd5b506102e86106c4366004613701565b61212e565b3480156106d557600080fd5b506102e86106e43660046141d3565b612211565b3480156106f557600080fd5b50610389610704366004614214565b61221e565b604051638f8d7f9960e01b81526001600160a01b038084166004830152821660248201526000903090638f8d7f99906044015b602060405180830381600087803b15801561075657600080fd5b505af115801561076a573d6000803e3d6000fd5b505050506040513d601f19601f8201168201806040525081019061078e9190614241565b604051600782900b815290915060008051602061512b8339815191529060200160405180910390a1600781900b6016146107c757600080fd5b92915050565b6000806107db85858561226b565b604051828152919350915060008051602061512b8339815191529060200160405180910390a16016821461080e57600080fd5b60405181151581527e1c2e72360171244b3bb8cc8ddd767820edf37138ad6f129fb3574b407c307d906020015b60405180910390a1935093915050565b600080610858848461236a565b604051828152919350915060008051602061512b8339815191529060200160405180910390a16016821461088b57600080fd5b6040516001600160a01b03821681527fc2c78c7c31baf14949e75c51df12be56edb9af523cf82839c2869bbcf13b3ecb906020015b60405180910390a19250929050565b604051631f106b4b60e21b81526001600160a01b03821660048201526000903090637c41ad2c90602401602060405180830381600087803b15801561091357600080fd5b505af1158015610927573d6000803e3d6000fd5b505050506040513d601f19601f8201168201806040525081019061094b919061425e565b905060008051602061512b8339815191528160405161096c91815260200190565b60405180910390a16016811461098157600080fd5b604051600181527f0c9c765845f4d139956bb8fc8decb2eec6093c9c608b809641b16054b29f0e13906020015b60405180910390a1919050565b60006109c7838361244a565b60070b905060008051602061512b833981519152816040516109eb91815260200190565b60405180910390a1601681146107c757600080fd5b60405163af99c63360e01b81526001600160a01b03808416600483015282166024820152600090309063af99c6339060440161073c565b6040516001600160a01b03821660248201526000908190819061016790633b3bff0f60e01b906044015b60408051601f198184030181529181526020820180516001600160e01b03166001600160e01b0319909416939093179092529051610a9f9190614277565b6000604051808303816000865af19150503d8060008114610adc576040519150601f19603f3d011682016040523d82523d6000602084013e610ae1565b606091505b509150915081610af2576015610b06565b80806020019051810190610b0691906142a5565b60030b949350505050565b600080610b1d83612499565b604051828152919350915060008051602061512b8339815191529060200160405180910390a160168214610b5057600080fd5b60405181151581527f6b7f3306751292f85ab4161ee2b0ac16dfc8ded13e6446ce6bd859d0a2f4c78e906020015b60405180910390a1915091565b60408051600480825260a08201909252600091816020015b610bab6134c3565b815260200190600190039081610ba3579050509050610bde60006006600160405180602001604052806000815250612596565b81600081518110610bf157610bf16142c0565b6020026020010181905250610c17600180604051806020016040528060008152506125cd565b81600181518110610c2a57610c2a6142c0565b6020026020010181905250610c5160026001604051806020016040528060008152506125cd565b81600281518110610c6457610c646142c0565b6020026020010181905250610c8b60036001604051806020016040528060008152506125cd565b81600381518110610c9e57610c9e6142c0565b602002602001018190525060006040518060600160405280600063ffffffff168152602001846001600160a01b03168152602001627a120063ffffffff168152509050600060405180610120016040528060018054610cfc906142d6565b80601f0160208091040260200160405190810160405280929190818152602001828054610d28906142d6565b8015610d755780601f10610d4a57610100808354040283529160200191610d75565b820191906000526020600020905b815481529060010190602001808311610d5857829003601f168201915b5050505050815260200160028054610d8c906142d6565b80601f0160208091040260200160405190810160405280929190818152602001828054610db8906142d6565b8015610e055780601f10610dda57610100808354040283529160200191610e05565b820191906000526020600020905b815481529060010190602001808311610de857829003601f168201915b50505050508152602001856001600160a01b0316815260200160038054610e2b906142d6565b80601f0160208091040260200160405190810160405280929190818152602001828054610e57906142d6565b8015610ea45780601f10610e7957610100808354040283529160200191610ea4565b820191906000526020600020905b815481529060010190602001808311610e8757829003601f168201915b50505091835250506001602082015260055463ffffffff16604082015260075460ff16151560608201526080810185905260a0018390526004546006549192506000918291610ef591859190612602565b909250905060168214610f0757600080fd5b6040516001600160a01b03821681527f7bb17726df1f3adee8aa00ba8e8bc5d6f182af3bbf77604639cb7f008dd3b4ed9060200160405180910390a1505050505050565b6000610f55613520565b610f5f8484612730565b604051828152919350915060008051602061512b8339815191529060200160405180910390a160168214610f9257600080fd5b7fa516f81c528634d0fc1e993bba1d227231b4bd6d1beb72d33b056a6199c0f988816040516108c09190614311565b6000610fce848484612823565b905060008051602061512b83398151915281604051610fef91815260200190565b60405180910390a16016811461100457600080fd5b9392505050565b600080611019858585612903565b604051828152919350915060008051602061512b8339815191529060200160405180910390a16016821461104c57600080fd5b6040518181527f25b6684a7e8fe1b676e9c39c8dd65034fbafea906d3bdfd97bf748b7b55e14c89060200161083b565b6000606080606061108c856129ef565b604051600785900b81529397509195509350915060008051602061512b8339815191529060200160405180910390a1600784900b6016146110cc57600080fd5b7f2efc8334b040613a552197fe34283d6ca2909c8ffae393e128424931f20c69b38383836040516110ff93929190614324565b60405180910390a19193509193565b600061111861355b565b61112183612aef565b604051828152919350915060008051602061512b8339815191529060200160405180910390a16016821461115457600080fd5b7f476a9a9b28e2717d55288b2ae3c48a72aac52b11f8bd855017c9d41d9fc1896481604051610b7e919061435d565b6000806111908484612bd8565b60405160079290920b8083529350915060008051602061512b8339815191529060200160405180910390a1601682146111c857600080fd5b60405181151581527f59800d968fcce138300a0019410b4b75041610d65b3cdc5f31656b03ed14912e906020016108c0565b600061120885858585612c29565b905060008051602061512b8339815191528160405161122991815260200190565b60405180910390a16016811461123e57600080fd5b949350505050565b6040516001600160a01b03821660248201526000908190819061016790631f106b4b60e21b90604401610a61565b60006109c78383612d2a565b6000806060611290868686612d79565b604051838152929550909350915060008051602061512b8339815191529060200160405180910390a1601683146112c657600080fd5b7feff23992f47b3c101679f8b4dc9d3e242c903909dba4a453f2b2341ad463b0e282826040516112f7929190614370565b60405180910390a193509350939050565b60008061131483612e77565b604051828152919350915060008051602061512b8339815191529060200160405180910390a16016821461134757600080fd5b60405181151581527f9ee19e13dfa1ba8db2502e15ff56dbecdeb0e0473323fb195473ce648030a2cd90602001610b7e565b604080516001808252818301909252600091816020015b6113986134c3565b8152602001906001900390816113905790505090506113ca600080600160405180602001604052806000815250612596565b816000815181106113dd576113dd6142c0565b602002602001018190525060006040518060600160405280600063ffffffff168152602001856001600160a01b03168152602001627a120063ffffffff16815250905060006040518061012001604052806001805461143b906142d6565b80601f0160208091040260200160405190810160405280929190818152602001828054611467906142d6565b80156114b45780601f10611489576101008083540402835291602001916114b4565b820191906000526020600020905b81548152906001019060200180831161149757829003601f168201915b50505050508152602001600280546114cb906142d6565b80601f01602080910402602001604051908101604052809291908181526020018280546114f7906142d6565b80156115445780601f1061151957610100808354040283529160200191611544565b820191906000526020600020905b81548152906001019060200180831161152757829003601f168201915b50505050508152602001866001600160a01b031681526020016003805461156a906142d6565b80601f0160208091040260200160405190810160405280929190818152602001828054611596906142d6565b80156115e35780601f106115b8576101008083540402835291602001916115e3565b820191906000526020600020905b8154815290600101906020018083116115c657829003601f168201915b505050918352505060016020820181905260055463ffffffff166040808401919091526000606084018190526080840188905260a09093018690528051828152808201909152929350909190816020015b6040805160a0810182526000808252602080830182905292820181905260608201819052608082015282526000199092019101816116345750506040805160a081018252600181526001600160a01b038881166020830152600092820183905260608201839052891660808201528251929350918391906116b7576116b76142c0565b6020908102919091010152604080516001808252818301909252600091816020015b6040805160c08101825260008082526020808301829052928201819052606082018190526080820181905260a082015282526000199092019101816116d95750506040805160c0810182526004815260056020820152600a91810191909152601e60608201526000608082018190526001600160a01b038a1660a08301528251929350909183919061176d5761176d6142c0565b602002602001018190525060008061178c856004546006548787612ec0565b9150915060008051602061512b833981519152826040516117af91815260200190565b60405180910390a1601682146117c457600080fd5b6040516001600160a01b03821681527f7bb17726df1f3adee8aa00ba8e8bc5d6f182af3bbf77604639cb7f008dd3b4ed9060200160405180910390a1505050505050505050565b6040516001600160a01b038381166024830152821660448201526000908190819061016790638f8d7f9960e01b906064015b60408051601f198184030181529181526020820180516001600160e01b03166001600160e01b031990941693909317909252905161187b9190614277565b6000604051808303816000865af19150503d80600081146118b8576040519150601f19603f3d011682016040523d82523d6000602084013e6118bd565b606091505b5091509150816118ce5760156118e2565b808060200190518101906118e291906142a5565b60030b95945050505050565b604051633cb0c7fd60e21b81526001600160a01b038084166004830152821660248201526000908190309063f2c31ff4906044016040805180830381600087803b15801561193b57600080fd5b505af115801561194f573d6000803e3d6000fd5b505050506040513d601f19601f82011682018060405250810190611973919061439e565b604051600783900b8152919350915060008051602061512b8339815191529060200160405180910390a1600782900b6016146119ae57600080fd5b60405181151581527fd24dda6928587354b65aa1a18c2eaf249bef7e5bafd2a71fac71d286f76f957f906020016108c0565b6040516001600160a01b03838116602483015282166044820152600090819081906101679063af99c63360e01b9060640161183d565b60408051600580825260c08201909252600091816020015b611a366134c3565b815260200190600190039081611a2e579050509050611a6960006006600160405180602001604052806000815250612596565b81600081518110611a7c57611a7c6142c0565b6020026020010181905250611aa2600180604051806020016040528060008152506125cd565b81600181518110611ab557611ab56142c0565b6020026020010181905250611adc60026001604051806020016040528060008152506125cd565b81600281518110611aef57611aef6142c0565b6020026020010181905250611b1660046001604051806020016040528060008152506125cd565b81600381518110611b2957611b296142c0565b6020026020010181905250611b5060036001604051806020016040528060008152506125cd565b81600481518110611b6357611b636142c0565b602002602001018190525060006040518060600160405280600063ffffffff168152602001846001600160a01b03168152602001627a120063ffffffff168152509050600060405180610120016040528060018054611bc1906142d6565b80601f0160208091040260200160405190810160405280929190818152602001828054611bed906142d6565b8015611c3a5780601f10611c0f57610100808354040283529160200191611c3a565b820191906000526020600020905b815481529060010190602001808311611c1d57829003601f168201915b5050505050815260200160028054611c51906142d6565b80601f0160208091040260200160405190810160405280929190818152602001828054611c7d906142d6565b8015611cca5780601f10611c9f57610100808354040283529160200191611cca565b820191906000526020600020905b815481529060010190602001808311611cad57829003601f168201915b50505050508152602001856001600160a01b0316815260200160038054611cf0906142d6565b80601f0160208091040260200160405190810160405280929190818152602001828054611d1c906142d6565b8015611d695780601f10611d3e57610100808354040283529160200191611d69565b820191906000526020600020905b815481529060010190602001808311611d4c57829003601f168201915b50505091835250506001602082015260055463ffffffff16604082015260075460ff16151560608201526080810185905260a0018390529050600080610ef583612ff4565b6000610fce8484846130de565b60408051600080825260208201909252819081611e00565b6040805160608101825260008082526020808301829052928201528252600019909201910181611dd35790505b50905060006040518060400160405280336001600160a01b0316815260200185611e29906143cd565b600790810b9091526040805180820182526001600160a01b038a1681529187900b602083015280516002808252606082019092529293509091600091816020015b6040805180820190915260008082526020820152815260200190600190039081611e6a5790505090508281600081518110611ea757611ea76142c0565b60200260200101819052508181600181518110611ec657611ec66142c0565b602090810291909101810191909152604080516060810182526001600160a01b038a16815291820183905281810186905280516001808252818301909252600091816020015b611f39604051806060016040528060006001600160a01b0316815260200160608152602001606081525090565b815260200190600190039081611f0c5790505090508181600081518110611f6257611f626142c0565b6020026020010181905250611f7681613139565b965060168714611f8557600080fd5b5050505050509392505050565b6000610fce848484613163565b6040516001600160a01b0383811660248301528216604482015260009081908190819061016790633cb0c7fd60e21b906064015b60408051601f198184030181529181526020820180516001600160e01b03166001600160e01b03199094169390931790925290516120119190614277565b6000604051808303816000865af19150503d806000811461204e576040519150601f19603f3d011682016040523d82523d6000602084013e612053565b606091505b509150915081612066576015600061207a565b8080602001905181019061207a9190614403565b60039190910b97909650945050505050565b600061209661357b565b61209f836131ba565b604051828152919350915060008051602061512b8339815191529060200160405180910390a1601682146120d257600080fd5b7f528c7dcea75f0c9e110a038e50647cd6a70ac06d331399b77dd9a80f903ebc1681604051610b7e919061442f565b600061210d83836132a3565b905060008051602061512b833981519152816040516109eb91815260200190565b604051633b3bff0f60e01b81526001600160a01b03821660048201526000903090633b3bff0f90602401602060405180830381600087803b15801561217257600080fd5b505af1158015612186573d6000803e3d6000fd5b505050506040513d601f19601f820116820180604052508101906121aa919061425e565b905060008051602061512b833981519152816040516121cb91815260200190565b60405180910390a1601681146121e057600080fd5b604051600181527f319ab7084208e4afa38c6e6ff7aea9587439f2e4700746f4c7d425fea17426d2906020016109ae565b6000610fce8484846132f2565b6007805460ff191682151590811790915560405160ff909116151581527f457c3a16a0ebdc38e3675609957ca3fcc4490e220bd15d85d34f58e2e145cb089060200160405180910390a150565b604080516001600160a01b0385811660248301528481166044830152831660648083019190915282518083039091018152608490910182526020810180516001600160e01b03167ff49f40db000000000000000000000000000000000000000000000000000000001790529051600091829182918291610167916122ee91614277565b6000604051808303816000865af19150503d806000811461232b576040519150601f19603f3d011682016040523d82523d6000602084013e612330565b606091505b5091509150816123435760156000612357565b808060200190518101906123579190614403565b60039190910b9890975095505050505050565b604080516001600160a01b0384166024820152604480820184905282518083039091018152606490910182526020810180516001600160e01b03167f098f2366000000000000000000000000000000000000000000000000000000001790529051600091829182918291610167916123e191614277565b6000604051808303816000865af19150503d806000811461241e576040519150601f19603f3d011682016040523d82523d6000602084013e612423565b606091505b509150915081612436576015600061207a565b8080602001905181019061207a9190614442565b6040516001600160a01b0383811660248301528216604482015260009081908190610167907f52f91387000000000000000000000000000000000000000000000000000000009060640161183d565b6040516001600160a01b0382166024820152600090819081908190610167907fa7daa18d00000000000000000000000000000000000000000000000000000000906044015b60408051601f198184030181529181526020820180516001600160e01b03166001600160e01b031990941693909317909252905161251c9190614277565b6000604051808303816000865af19150503d8060008114612559576040519150601f19603f3d011682016040523d82523d6000602084013e61255e565b606091505b5091509150816125715760156000612585565b808060200190518101906125859190614403565b60039190910b969095509350505050565b61259e6134c3565b60405180604001604052806125b38787613348565b81526020016125c28585613361565b905295945050505050565b6125d56134c3565b60405180604001604052806125e986613431565b81526020016125f88585613361565b9052949350505050565b600080848061010001516000015163ffffffff16600014801561263257506101008101516040015163ffffffff16155b15612648576101008101516276a7006040909101525b6000806101676001600160a01b031634637812a04b60e01b8a8a8a6040516024016126759392919061446e565b60408051601f198184030181529181526020820180516001600160e01b03166001600160e01b03199094169390931790925290516126b39190614277565b60006040518083038185875af1925050503d80600081146126f0576040519150601f19603f3d011682016040523d82523d6000602084013e6126f5565b606091505b509150915081612708576015600061271c565b8080602001905181019061271c9190614442565b60039190910b999098509650505050505050565b600061273a613520565b604080516001600160a01b0386166024820152600785900b60448083019190915282518083039091018152606490910182526020810180516001600160e01b03167f287e1da80000000000000000000000000000000000000000000000000000000017905290516000918291610167916127b391614277565b6000604051808303816000865af19150503d80600081146127f0576040519150601f19603f3d011682016040523d82523d6000602084013e6127f5565b606091505b5091509150612802613520565b8261280f57601581612357565b818060200190518101906123579190614b93565b60008060006101676001600160a01b031663f7f38e2660e01b87878760405160240161285193929190614c7b565b60408051601f198184030181529181526020820180516001600160e01b03166001600160e01b031990941693909317909252905161288f9190614277565b6000604051808303816000865af19150503d80600081146128cc576040519150601f19603f3d011682016040523d82523d6000602084013e6128d1565b606091505b5091509150816128e25760156128f6565b808060200190518101906128f691906142a5565b60030b9695505050505050565b604080516001600160a01b0385811660248301528481166044830152831660648083019190915282518083039091018152608490910182526020810180516001600160e01b03167f927da1050000000000000000000000000000000000000000000000000000000017905290516000918291829182916101679161298691614277565b6000604051808303816000865af19150503d80600081146129c3576040519150601f19603f3d011682016040523d82523d6000602084013e6129c8565b606091505b5091509150816129db5760156000612357565b808060200190518101906123579190614ca7565b604080516001600160a01b03831660248083019190915282518083039091018152604490910182526020810180516001600160e01b03167fae7611a0000000000000000000000000000000000000000000000000000000001790529051600091606091829182918591829161016791612a6791614277565b6000604051808303816000865af19150503d8060008114612aa4576040519150601f19603f3d011682016040523d82523d6000602084013e612aa9565b606091505b5091509150606080606084612ac2576015838383612ad6565b83806020019051810190612ad69190614cd3565b60039390930b9d919c509a509098509650505050505050565b6000612af961355b565b604080516001600160a01b03851660248083019190915282518083039091018152604490910182526020810180516001600160e01b03167f3f28a19b000000000000000000000000000000000000000000000000000000001790529051600091829161016791612b6891614277565b6000604051808303816000865af19150503d8060008114612ba5576040519150601f19603f3d011682016040523d82523d6000602084013e612baa565b606091505b5091509150612bb761355b565b82612bc45760158161207a565b8180602001905181019061207a9190614d6c565b6040516001600160a01b03838116602483015282166044820152600090819081908190610167907f46de0fb10000000000000000000000000000000000000000000000000000000090606401611fd3565b604080516001600160a01b038681166024830152858116604483015284166064820152600783900b6084808301919091528251808303909101815260a490910182526020810180516001600160e01b03167f5cfc90110000000000000000000000000000000000000000000000000000000017905290516000918291829161016791612cb59190614277565b6000604051808303816000865af19150503d8060008114612cf2576040519150601f19603f3d011682016040523d82523d6000602084013e612cf7565b606091505b509150915081612d08576015612d1c565b80806020019051810190612d1c91906142a5565b60030b979650505050505050565b6040516001600160a01b0383811660248301528216604482015260009081908190610167907f5b8f8584000000000000000000000000000000000000000000000000000000009060640161183d565b60008060606000806101676001600160a01b031663278e0b8860e01b898989604051602401612daa93929190614e18565b60408051601f198184030181529181526020820180516001600160e01b03166001600160e01b0319909416939093179092529051612de89190614277565b6000604051808303816000865af19150503d8060008114612e25576040519150601f19603f3d011682016040523d82523d6000602084013e612e2a565b606091505b509150915081612e4d576040805160008082526020820190925260159190612e61565b80806020019051810190612e619190614e9c565b60039290920b9a90995090975095505050505050565b6040516001600160a01b0382166024820152600090819081908190610167907f335e04c100000000000000000000000000000000000000000000000000000000906044016124de565b600080868061010001516000015163ffffffff166000148015612ef057506101008101516040015163ffffffff16155b15612f06576101008101516276a7006040909101525b6000806101676001600160a01b031634634c381ae760e01b8c8c8c8c8c604051602401612f37959493929190614f4d565b60408051601f198184030181529181526020820180516001600160e01b03166001600160e01b0319909416939093179092529051612f759190614277565b60006040518083038185875af1925050503d8060008114612fb2576040519150601f19603f3d011682016040523d82523d6000602084013e612fb7565b606091505b509150915081612fca5760156000612fde565b80806020019051810190612fde9190614442565b60039190910b9b909a5098505050505050505050565b600080828061010001516000015163ffffffff16600014801561302457506101008101516040015163ffffffff16155b1561303a576101008101516276a7006040909101525b6000806101676001600160a01b031634639dc711e060e01b886040516024016130639190614f9e565b60408051601f198184030181529181526020820180516001600160e01b03166001600160e01b03199094169390931790925290516130a19190614277565b60006040518083038185875af1925050503d806000811461241e576040519150601f19603f3d011682016040523d82523d6000602084013e612423565b6040516001600160a01b0384811660248301528316604482015263ffffffff8216606482015260009081908190610167907f9790686d0000000000000000000000000000000000000000000000000000000090608401612851565b60008060006101676001600160a01b031663189a554c60e01b85604051602401610a619190615006565b6040516001600160a01b03848116602483015283166044820152811515606482015260009081908190610167907f367605ca0000000000000000000000000000000000000000000000000000000090608401612851565b60006131c461357b565b604080516001600160a01b03851660248083019190915282518083039091018152604490910182526020810180516001600160e01b03167f1f69565f00000000000000000000000000000000000000000000000000000000179052905160009182916101679161323391614277565b6000604051808303816000865af19150503d8060008114613270576040519150601f19603f3d011682016040523d82523d6000602084013e613275565b606091505b509150915061328261357b565b8261328f5760158161207a565b8180602001905181019061207a91906150dc565b6040516001600160a01b0383811660248301528216604482015260009081908190610167907f49146bde000000000000000000000000000000000000000000000000000000009060640161183d565b6040516001600160a01b038481166024830152831660448201526064810182905260009081908190610167907fe1f21c670000000000000000000000000000000000000000000000000000000090608401612851565b6000600160ff84161b9050600160ff83161b8117611004565b6133a76040518060a0016040528060001515815260200160006001600160a01b03168152602001606081526020016060815260200160006001600160a01b031681525090565b8260ff16600114156133bc57600181526107c7565b8260ff16600214156133de576000546001600160a01b031660208201526107c7565b8260ff16600314156133f657604081018290526107c7565b8260ff166004141561340e57606081018290526107c7565b8260ff16600514156107c7576000546001600160a01b0316608082015292915050565b600060ff821661344357506001919050565b8160ff166001141561345757506002919050565b8160ff166002141561346b57506004919050565b8160ff166003141561347f57506008919050565b8160ff166004141561349357506010919050565b8160ff16600514156134a757506020919050565b8160ff16600614156134bb57506040919050565b506000919050565b60405180604001604052806000815260200161351b6040518060a0016040528060001515815260200160006001600160a01b03168152602001606081526020016060815260200160006001600160a01b031681525090565b905290565b6040518060c0016040528061353361357b565b8152600060208201819052604082018190526060808301829052608083015260a09091015290565b604051806040016040528061356e61357b565b8152600060209091015290565b60408051610240810182526060610120820181815261014083018290526000610160840181905261018084018390526101a084018190526101c084018190526101e0840181905261020084018390528451928301855280835260208301819052938201939093526102208201529081908152602001600067ffffffffffffffff168152602001600015158152602001600015158152602001600015158152602001606081526020016060815260200160608152602001606081525090565b6001600160a01b038116811461364e57600080fd5b50565b6000806040838503121561366457600080fd5b823561366f81613639565b9150602083013561367f81613639565b809150509250929050565b60008060006060848603121561369f57600080fd5b83356136aa81613639565b925060208401356136ba81613639565b915060408401356136ca81613639565b809150509250925092565b600080604083850312156136e857600080fd5b82356136f381613639565b946020939093013593505050565b60006020828403121561371357600080fd5b813561100481613639565b8060070b811461364e57600080fd5b6000806040838503121561374057600080fd5b823561374b81613639565b9150602083013561367f8161371e565b60005b8381101561377657818101518382015260200161375e565b83811115613785576000848401525b50505050565b600081518084526137a381602086016020860161375b565b601f01601f19169290920160200192915050565b600081518084526020808501808196508360051b8101915082860160005b8581101561386e5782840389528151604081518652868201519150808787015281511515818701528682015160606001600160a01b03808316828a015283850151935060a09250608083818b015261383060e08b018661378b565b928601518a8403603f1901858c015292945061384c858461378b565b9501511660c098909801979097525050988501989350908401906001016137d5565b5091979650505050505050565b600061016082518185526138918286018261378b565b915050602083015184820360208601526138ab828261378b565b91505060408301516138c860408601826001600160a01b03169052565b50606083015184820360608601526138e0828261378b565b91505060808301516138f6608086018215159052565b5060a083015161390e60a086018263ffffffff169052565b5060c083015161392260c086018215159052565b5060e083015184820360e086015261393a82826137b7565b61010085810151805163ffffffff9081168984015260208201516001600160a01b03166101208a015260408201511661014089015291935091505090949350505050565b600081518084526020808501945080840160005b838110156139ee578151805163ffffffff168852838101516001600160a01b03908116858a01526040808301511515908a01526060808301511515908a0152608091820151169088015260a09096019590820190600101613992565b509495945050505050565b600081518084526020808501945080840160005b838110156139ee578151805163ffffffff9081168952848201518116858a01526040808301518216908a01526060808301519091169089015260808082015115159089015260a0908101516001600160a01b03169088015260c09096019590820190600101613a0d565b600081518084526020808501945080840160005b838110156139ee578151805163ffffffff9081168952848201518116858a0152604080830151909116908901526060808201516001600160a01b03908116918a01919091526080808301511515908a015260a091820151169088015260c09096019590820190600101613a8b565b60006101208251818552613b0f8286018261387b565b9150506020830151613b2d602086018267ffffffffffffffff169052565b506040830151613b41604086018215159052565b506060830151613b55606086018215159052565b506080830151613b69608086018215159052565b5060a083015184820360a0860152613b81828261397e565b91505060c083015184820360c0860152613b9b82826139f9565b91505060e083015184820360e0860152613bb58282613a77565b9150506101008084015185830382870152613bd0838261378b565b9695505050505050565b6000815160c08452613bef60c0850182613af9565b9050602083015160070b602085015260408301516001600160a01b038082166040870152606085015160070b6060870152608085015191508583036080870152613c39838361378b565b92508060a08601511660a087015250508091505092915050565b82815260406020820152600061123e6040830184613bda565b634e487b7160e01b600052604160045260246000fd5b6040805190810167ffffffffffffffff81118282101715613ca557613ca5613c6c565b60405290565b60405160a0810167ffffffffffffffff81118282101715613ca557613ca5613c6c565b604051610120810167ffffffffffffffff81118282101715613ca557613ca5613c6c565b60405160c0810167ffffffffffffffff81118282101715613ca557613ca5613c6c565b604051601f8201601f1916810167ffffffffffffffff81118282101715613d3e57613d3e613c6c565b604052919050565b600067ffffffffffffffff821115613d6057613d60613c6c565b5060051b60200190565b600080600060608486031215613d7f57600080fd5b8335613d8a81613639565b9250602084810135613d9b81613639565b9250604085013567ffffffffffffffff811115613db757600080fd5b8501601f81018713613dc857600080fd5b8035613ddb613dd682613d46565b613d15565b81815260059190911b82018301908381019089831115613dfa57600080fd5b928401925b82841015613e21578335613e128161371e565b82529284019290840190613dff565b80955050505050509250925092565b8460070b8152608060208201526000613e4c608083018661397e565b8281036040840152613e5e81866139f9565b90508281036060840152613e728185613a77565b979650505050505050565b6000815160408452613e926040850182613af9565b60209384015163ffffffff16949093019390935250919050565b82815260406020820152600061123e6040830184613e7d565b60008060008060808587031215613edb57600080fd5b8435613ee681613639565b93506020850135613ef681613639565b92506040850135613f0681613639565b91506060850135613f168161371e565b939692955090935050565b67ffffffffffffffff8116811461364e57600080fd5b600067ffffffffffffffff821115613f5157613f51613c6c565b50601f01601f191660200190565b600080600060608486031215613f7457600080fd5b8335613f7f81613639565b9250602084810135613f9081613f21565b925060408581013567ffffffffffffffff80821115613fae57600080fd5b818801915088601f830112613fc257600080fd5b8135613fd0613dd682613d46565b81815260059190911b8301850190858101908b831115613fef57600080fd5b8685015b838110156140635780358581111561400b5760008081fd5b8601603f81018e1361401d5760008081fd5b8881013561402d613dd682613f37565b8181528f8a8385010111156140425760008081fd5b818a84018c83013760009181018b0191909152845250918701918701613ff3565b50809750505050505050509250925092565b600081518084526020808501945080840160005b838110156139ee57815160070b87529582019590820190600101614089565b83815267ffffffffffffffff831660208201526060604082015260006140d16060830184614075565b95945050505050565b63ffffffff8116811461364e57600080fd5b60008060006060848603121561410157600080fd5b833561410c81613639565b9250602084013561411c81613639565b915060408401356136ca816140da565b60008060006060848603121561414157600080fd5b833561414c81613639565b9250602084013561415c81613639565b915060408401356136ca8161371e565b801515811461364e57600080fd5b60008060006060848603121561418f57600080fd5b833561419a81613639565b925060208401356141aa81613639565b915060408401356136ca8161416c565b82815260406020820152600061123e6040830184613af9565b6000806000606084860312156141e857600080fd5b83356141f381613639565b9250602084013561420381613639565b929592945050506040919091013590565b60006020828403121561422657600080fd5b81356110048161416c565b805161423c8161371e565b919050565b60006020828403121561425357600080fd5b81516110048161371e565b60006020828403121561427057600080fd5b5051919050565b6000825161428981846020870161375b565b9190910192915050565b8051600381900b811461423c57600080fd5b6000602082840312156142b757600080fd5b61100482614293565b634e487b7160e01b600052603260045260246000fd5b600181811c908216806142ea57607f821691505b6020821081141561430b57634e487b7160e01b600052602260045260246000fd5b50919050565b6020815260006110046020830184613bda565b606081526000614337606083018661397e565b828103602084015261434981866139f9565b90508281036040840152613bd08185613a77565b6020815260006110046020830184613e7d565b67ffffffffffffffff8316815260406020820152600061123e6040830184614075565b805161423c8161416c565b600080604083850312156143b157600080fd5b82516143bc8161371e565b602084015190925061367f8161416c565b60008160070b677fffffffffffffff198114156143fa57634e487b7160e01b600052601160045260246000fd5b60000392915050565b6000806040838503121561441657600080fd5b61441f83614293565b9150602083015161367f8161416c565b6020815260006110046020830184613af9565b6000806040838503121561445557600080fd5b61445e83614293565b9150602083015161367f81613639565b606081526000614481606083018661387b565b60208301949094525060400152919050565b600082601f8301126144a457600080fd5b81516144b2613dd682613f37565b8181528460208386010111156144c757600080fd5b61123e82602083016020870161375b565b805161423c81613639565b805161423c816140da565b600082601f8301126144ff57600080fd5b8151602061450f613dd683613d46565b82815260059290921b8401810191818101908684111561452e57600080fd5b8286015b8481101561464457805167ffffffffffffffff8082111561455257600080fd5b908801906040601f19838c03810182131561456c57600080fd5b614574613c82565b888501518152828501518481111561458b57600080fd5b949094019360a0858e03830112156145a35760008081fd5b6145ab613cab565b9150888501516145ba8161416c565b8252848301516145c981613639565b828a0152606085810151858111156145e15760008081fd5b6145ef8f8c838a0101614493565b858501525060809350838601518581111561460a5760008081fd5b6146188f8c838a0101614493565b82850152505061462a60a086016144d8565b928201929092528188015285525050918301918301614532565b509695505050505050565b60006060828403121561466157600080fd5b6040516060810181811067ffffffffffffffff8211171561468457614684613c6c565b80604052508091508251614697816140da565b815260208301516146a781613639565b602082015260408301516146ba816140da565b6040919091015292915050565b600061016082840312156146da57600080fd5b6146e2613cce565b9050815167ffffffffffffffff808211156146fc57600080fd5b61470885838601614493565b8352602084015191508082111561471e57600080fd5b61472a85838601614493565b602084015261473b604085016144d8565b6040840152606084015191508082111561475457600080fd5b61476085838601614493565b606084015261477160808501614393565b608084015261478260a085016144e3565b60a084015261479360c08501614393565b60c084015260e08401519150808211156147ac57600080fd5b506147b9848285016144ee565b60e0830152506101006147ce8482850161464f565b9082015292915050565b805161423c81613f21565b600082601f8301126147f457600080fd5b81516020614804613dd683613d46565b82815260a0928302850182019282820191908785111561482357600080fd5b8387015b858110156148ab5781818a03121561483f5760008081fd5b614847613cab565b8151614852816140da565b81528186015161486181613639565b818701526040828101516148748161416c565b908201526060828101516148878161416c565b9082015260808281015161489a81613639565b908201528452928401928101614827565b5090979650505050505050565b600082601f8301126148c957600080fd5b815160206148d9613dd683613d46565b82815260c092830285018201928282019190878511156148f857600080fd5b8387015b858110156148ab5781818a0312156149145760008081fd5b61491c613cf2565b8151614927816140da565b815281860151614936816140da565b81870152604082810151614949816140da565b9082015260608281015161495c816140da565b9082015260808281015161496f8161416c565b9082015260a08281015161498281613639565b9082015284529284019281016148fc565b600082601f8301126149a457600080fd5b815160206149b4613dd683613d46565b82815260c092830285018201928282019190878511156149d357600080fd5b8387015b858110156148ab5781818a0312156149ef5760008081fd5b6149f7613cf2565b8151614a02816140da565b815281860151614a11816140da565b81870152604082810151614a24816140da565b90820152606082810151614a3781613639565b90820152608082810151614a4a8161416c565b9082015260a082810151614a5d81613639565b9082015284529284019281016149d7565b60006101208284031215614a8157600080fd5b614a89613cce565b9050815167ffffffffffffffff80821115614aa357600080fd5b614aaf858386016146c7565b8352614abd602085016147d8565b6020840152614ace60408501614393565b6040840152614adf60608501614393565b6060840152614af060808501614393565b608084015260a0840151915080821115614b0957600080fd5b614b15858386016147e3565b60a084015260c0840151915080821115614b2e57600080fd5b614b3a858386016148b8565b60c084015260e0840151915080821115614b5357600080fd5b614b5f85838601614993565b60e084015261010091508184015181811115614b7a57600080fd5b614b8686828701614493565b8385015250505092915050565b60008060408385031215614ba657600080fd5b614baf83614293565b9150602083015167ffffffffffffffff80821115614bcc57600080fd5b9084019060c08287031215614be057600080fd5b614be8613cf2565b825182811115614bf757600080fd5b614c0388828601614a6e565b825250614c1260208401614231565b6020820152614c23604084016144d8565b6040820152614c3460608401614231565b6060820152608083015182811115614c4b57600080fd5b614c5788828601614493565b608083015250614c6960a084016144d8565b60a08201528093505050509250929050565b60006001600160a01b038086168352808516602084015250606060408301526140d16060830184614075565b60008060408385031215614cba57600080fd5b614cc383614293565b9150602083015190509250929050565b60008060008060808587031215614ce957600080fd5b614cf285614293565b9350602085015167ffffffffffffffff80821115614d0f57600080fd5b614d1b888389016147e3565b94506040870151915080821115614d3157600080fd5b614d3d888389016148b8565b93506060870151915080821115614d5357600080fd5b50614d6087828801614993565b91505092959194509250565b60008060408385031215614d7f57600080fd5b614d8883614293565b9150602083015167ffffffffffffffff80821115614da557600080fd5b9084019060408287031215614db957600080fd5b604051604081018181108382111715614dd457614dd4613c6c565b604052825182811115614de657600080fd5b614df288828601614a6e565b82525060208301519250614e05836140da565b8260208201528093505050509250929050565b6000606082016001600160a01b0386168352602067ffffffffffffffff8616818501526060604085015281855180845260808601915060808160051b870101935082870160005b82811015614e8d57607f19888703018452614e7b86835161378b565b95509284019290840190600101614e5f565b50939998505050505050505050565b600080600060608486031215614eb157600080fd5b614eba84614293565b9250602080850151614ecb81613f21565b604086015190935067ffffffffffffffff811115614ee857600080fd5b8501601f81018713614ef957600080fd5b8051614f07613dd682613d46565b81815260059190911b82018301908381019089831115614f2657600080fd5b928401925b82841015613e21578351614f3e8161371e565b82529284019290840190614f2b565b60a081526000614f6060a083018861387b565b8660208401528560408401528281036060840152614f7e818661397e565b90508281036080840152614f9281856139f9565b98975050505050505050565b602081526000611004602083018461387b565b600081518084526020808501945080840160005b838110156139ee57815180516001600160a01b03908116895284820151168489015260409081015160070b9088015260609096019590820190600101614fc5565b60006020808301818452808551808352604092508286019150828160051b8701018488016000805b848110156150cd57898403603f19018652825180516001600160a01b0390811686528982015160608b880181905281519088018190526080880192918c01919086905b8082101561509f5783518051841686528e015160070b8e860152938c0193928d019260019190910190615071565b5050505090880151858203868a0152906150b98183614fb1565b978a0197955050509187019160010161502e565b50919998505050505050505050565b600080604083850312156150ef57600080fd5b6150f883614293565b9150602083015167ffffffffffffffff81111561511457600080fd5b61512085828601614a6e565b915050925092905056fe90a5cf4cffe88b4edbb041cfc7a8a812c48a5ec30b84640fb37690875168e3aaa2646970667358221220534d135be1e83daa920a371cc14b775616922c92f5a41a42960aaf48430e284a64736f6c63430008090033",
  "linkReferences": {},
  "deployedLinkReferences": {}
}