{
  "_format": "hh-sol-artifact-1",
  "contractName": "BaseHTS",
  "sourceName": "contracts/BaseHTS.sol",
  "abi": [
    {
      "anonymous": false,
      "inputs": [
        {
          "indexed": false,
          "internalType": "uint256",
          "name": "amount",
          "type": "uint256"
        }
      ],
      "name": "AllowanceValue",
      "type": "event"
    },
    {
      "anonymous": false,
      "inputs": [
        {
          "indexed": false,
          "internalType": "bool",
          "name": "approved",
          "type": "bool"
        }
      ],
      "name": "Approved",
      "type": "event"
    },
    {
      "anonymous": false,
      "inputs": [
        {
          "indexed": false,
          "internalType": "address",
          "name": "approved",
          "type": "address"
        }
      ],
      "name": "ApprovedAddress",
      "type": "event"
    },
    {
      "anonymous": false,
      "inputs": [
        {
          "indexed": false,
          "internalType": "address",
          "name": "tokenAddress",
          "type": "address"
        }
      ],
      "name": "CreatedToken",
      "type": "event"
    },
    {
      "anonymous": false,
      "inputs": [
        {
          "indexed": false,
          "internalType": "int256",
          "name": "responseCode",
          "type": "int256"
        }
      ],
      "name": "ResponseCode",
      "type": "event"
    },
    {
      "inputs": [
        {
          "internalType": "address",
          "name": "token",
          "type": "address"
        },
        {
          "internalType": "address",
          "name": "owner",
          "type": "address"
        },
        {
          "internalType": "address",
          "name": "spender",
          "type": "address"
        }
      ],
      "name": "allowancePublic",
      "outputs": [
        {
          "internalType": "int256",
          "name": "responseCode",
          "type": "int256"
        },
        {
          "internalType": "uint256",
          "name": "amount",
          "type": "uint256"
        }
      ],
      "stateMutability": "nonpayable",
      "type": "function"
    },
    {
      "inputs": [
        {
          "internalType": "address",
          "name": "token",
          "type": "address"
        },
        {
          "internalType": "address",
          "name": "spender",
          "type": "address"
        },
        {
          "internalType": "uint256",
          "name": "amount",
          "type": "uint256"
        }
      ],
      "name": "approvePublic",
      "outputs": [
        {
          "internalType": "int256",
          "name": "responseCode",
          "type": "int256"
        }
      ],
      "stateMutability": "nonpayable",
      "type": "function"
    },
    {
      "inputs": [
        {
          "internalType": "address",
          "name": "account",
          "type": "address"
        },
        {
          "internalType": "address",
          "name": "token",
          "type": "address"
        }
      ],
      "name": "associateTokenPublic",
      "outputs": [
        {
          "internalType": "int256",
          "name": "responseCode",
          "type": "int256"
        }
      ],
      "stateMutability": "nonpayable",
      "type": "function"
    },
    {
      "inputs": [
        {
          "internalType": "address",
          "name": "treasury",
          "type": "address"
        }
      ],
      "name": "createFungibleTokenPublic",
      "outputs": [],
      "stateMutability": "payable",
      "type": "function"
    },
    {
      "inputs": [
        {
          "internalType": "address",
          "name": "treasury",
          "type": "address"
        }
      ],
      "name": "createNonFungibleTokenPublic",
      "outputs": [],
      "stateMutability": "payable",
      "type": "function"
    },
    {
      "inputs": [
        {
          "internalType": "address",
          "name": "token",
          "type": "address"
        },
        {
          "internalType": "uint256",
          "name": "serialNumber",
          "type": "uint256"
        }
      ],
      "name": "getApprovedPublic",
      "outputs": [
        {
          "internalType": "int256",
          "name": "responseCode",
          "type": "int256"
        },
        {
          "internalType": "address",
          "name": "approved",
          "type": "address"
        }
      ],
      "stateMutability": "nonpayable",
      "type": "function"
    },
    {
      "inputs": [
        {
          "internalType": "address",
          "name": "token",
          "type": "address"
        },
        {
          "internalType": "address",
          "name": "owner",
          "type": "address"
        },
        {
          "internalType": "address",
          "name": "operator",
          "type": "address"
        }
      ],
      "name": "isApprovedForAllPublic",
      "outputs": [
        {
          "internalType": "int256",
          "name": "responseCode",
          "type": "int256"
        },
        {
          "internalType": "bool",
          "name": "approved",
          "type": "bool"
        }
      ],
      "stateMutability": "nonpayable",
      "type": "function"
    },
    {
      "inputs": [
        {
          "internalType": "address",
          "name": "token",
          "type": "address"
        }
      ],
      "name": "pauseToken",
      "outputs": [
        {
          "internalType": "int256",
          "name": "responseCode",
          "type": "int256"
        }
      ],
      "stateMutability": "nonpayable",
      "type": "function"
    },
    {
      "inputs": [
        {
          "internalType": "address",
          "name": "token",
          "type": "address"
        },
        {
          "internalType": "address",
          "name": "operator",
          "type": "address"
        },
        {
          "internalType": "bool",
          "name": "approved",
          "type": "bool"
        }
      ],
      "name": "setApprovalForAllPublic",
      "outputs": [
        {
          "internalType": "int256",
          "name": "responseCode",
          "type": "int256"
        }
      ],
      "stateMutability": "nonpayable",
      "type": "function"
    },
    {
      "inputs": [
        {
          "internalType": "address",
          "name": "account",
          "type": "address"
        },
        {
          "internalType": "address",
          "name": "token",
          "type": "address"
        },
        {
          "internalType": "int64",
          "name": "amount",
          "type": "int64"
        }
      ],
      "name": "transferTokenPublic",
      "outputs": [
        {
          "internalType": "int256",
          "name": "responseCode",
          "type": "int256"
        }
      ],
      "stateMutability": "nonpayable",
      "type": "function"
    },
    {
      "inputs": [
        {
          "internalType": "address",
          "name": "token",
          "type": "address"
        }
      ],
      "name": "unpauseToken",
      "outputs": [
        {
          "internalType": "int256",
          "name": "responseCode",
          "type": "int256"
        }
      ],
      "stateMutability": "nonpayable",
      "type": "function"
    }
  ],
  "bytecode": "0x60c06040526009608081905268746f6b656e4e616d6560b81b60a09081526200002c9160019190620000c1565b5060408051808201909152600b8082526a1d1bdad95b94de5b589bdb60aa1b60209092019182526200006191600291620000c1565b50604080518082019091526004808252636d656d6f60e01b60209092019182526200008f91600391620000c1565b506103e860048190556005805463ffffffff191690911790556008600655348015620000ba57600080fd5b50620001a4565b828054620000cf9062000167565b90600052602060002090601f016020900481019282620000f357600085556200013e565b82601f106200010e57805160ff19168380011785556200013e565b828001600101855582156200013e579182015b828111156200013e57825182559160200191906001019062000121565b506200014c92915062000150565b5090565b5b808211156200014c576000815560010162000151565b600181811c908216806200017c57607f821691505b602082108114156200019e57634e487b7160e01b600052602260045260246000fd5b50919050565b611da480620001b46000396000f3fe60806040526004361061009c5760003560e01c80637c41ad2c116100645780637c41ad2c14610190578063d85f74c1146101b0578063ec855c31146101c3578063f25b1200146101e3578063f4a01e5b14610203578063f848fec41461022357600080fd5b806313c05dd8146100a157806319db44b6146100db5780633b3bff0f146101185780634b5c6687146101465780635a5e6c311461015b575b600080fd5b3480156100ad57600080fd5b506100c16100bc366004611743565b610243565b604080519283529015156020830152015b60405180910390f35b3480156100e757600080fd5b506100fb6100f6366004611851565b6102b4565b604080519283526001600160a01b039091166020830152016100d2565b34801561012457600080fd5b506101386101333660046116ef565b61032a565b6040519081526020016100d2565b6101596101543660046116ef565b610404565b005b34801561016757600080fd5b5061017b610176366004611743565b610720565b604080519283526020830191909152016100d2565b34801561019c57600080fd5b506101386101ab3660046116ef565b610791565b6101596101be3660046116ef565b6107bf565b3480156101cf57600080fd5b506101386101de3660046117cc565b610ac2565b3480156101ef57600080fd5b506101386101fe36600461178d565b610cc3565b34801561020f57600080fd5b5061013861021e36600461170b565b610d01565b34801561022f57600080fd5b5061013861023e366004611811565b610d49565b600080610251858585610d8c565b6040518281529193509150600080516020611d4f8339815191529060200160405180910390a160405181151581527e1c2e72360171244b3bb8cc8ddd767820edf37138ad6f129fb3574b407c307d906020015b60405180910390a1935093915050565b6000806102c18484610e72565b6040518281529193509150600080516020611d4f8339815191529060200160405180910390a16040516001600160a01b03821681527fc2c78c7c31baf14949e75c51df12be56edb9af523cf82839c2869bbcf13b3ecb9060200160405180910390a19250929050565b6040516001600160a01b03821660248201526000908190819061016790633b3bff0f60e01b906044015b60408051601f198184030181529181526020820180516001600160e01b03166001600160e01b03199094169390931790925290516103929190611b64565b6000604051808303816000865af19150503d80600081146103cf576040519150601f19603f3d011682016040523d82523d6000602084013e6103d4565b606091505b5091509150816103e55760156103f9565b808060200190518101906103f9919061187c565b60030b949350505050565b604080516001808252818301909252600091816020015b610423611676565b81526020019060019003908161041b579050509050610455600080600160405180602001604052806000815250610f4b565b8160008151811061047657634e487b7160e01b600052603260045260246000fd5b602002602001018190525060006040518060600160405280600063ffffffff168152602001846001600160a01b03168152602001627a120063ffffffff1681525090506000604051806101200160405280600180546104d490611cbb565b80601f016020809104026020016040519081016040528092919081815260200182805461050090611cbb565b801561054d5780601f106105225761010080835404028352916020019161054d565b820191906000526020600020905b81548152906001019060200180831161053057829003601f168201915b505050505081526020016002805461056490611cbb565b80601f016020809104026020016040519081016040528092919081815260200182805461059090611cbb565b80156105dd5780601f106105b2576101008083540402835291602001916105dd565b820191906000526020600020905b8154815290600101906020018083116105c057829003601f168201915b50505050508152602001856001600160a01b031681526020016003805461060390611cbb565b80601f016020809104026020016040519081016040528092919081815260200182805461062f90611cbb565b801561067c5780601f106106515761010080835404028352916020019161067c565b820191906000526020600020905b81548152906001019060200180831161065f57829003601f168201915b50505091835250506001602082015260055463ffffffff1660408201526000606082018190526080820186905260a0909101849052600454600654929350909182916106ca91859190610f82565b9092509050601682146106dc57600080fd5b6040516001600160a01b03821681527f7bb17726df1f3adee8aa00ba8e8bc5d6f182af3bbf77604639cb7f008dd3b4ed9060200160405180910390a1505050505050565b60008061072e8585856110b0565b6040518281529193509150600080516020611d4f8339815191529060200160405180910390a16016821461076157600080fd5b6040518181527f25b6684a7e8fe1b676e9c39c8dd65034fbafea906d3bdfd97bf748b7b55e14c8906020016102a4565b6040516001600160a01b03821660248201526000908190819061016790631f106b4b60e21b90604401610354565b60408051600280825260608201909252600091816020015b6107df611676565b8152602001906001900390816107d7579050509050610811600080600160405180602001604052806000815250610f4b565b8160008151811061083257634e487b7160e01b600052603260045260246000fd5b60200260200101819052506108596004600160405180602001604052806000815250611183565b8160018151811061087a57634e487b7160e01b600052603260045260246000fd5b602002602001018190525060006040518060600160405280600063ffffffff168152602001846001600160a01b03168152602001627a120063ffffffff1681525090506000604051806101200160405280600180546108d890611cbb565b80601f016020809104026020016040519081016040528092919081815260200182805461090490611cbb565b80156109515780601f1061092657610100808354040283529160200191610951565b820191906000526020600020905b81548152906001019060200180831161093457829003601f168201915b505050505081526020016002805461096890611cbb565b80601f016020809104026020016040519081016040528092919081815260200182805461099490611cbb565b80156109e15780601f106109b6576101008083540402835291602001916109e1565b820191906000526020600020905b8154815290600101906020018083116109c457829003601f168201915b50505050508152602001856001600160a01b0316815260200160038054610a0790611cbb565b80601f0160208091040260200160405190810160405280929190818152602001828054610a3390611cbb565b8015610a805780601f10610a5557610100808354040283529160200191610a80565b820191906000526020600020905b815481529060010190602001808311610a6357829003601f168201915b50505091835250506001602082015260055463ffffffff1660408201526000606082018190526080820186905260a0909101849052909150806106ca836111b8565b60408051600080825260208201909252819081610b07565b6040805160608101825260008082526020808301829052928201528252600019909201910181610ada5790505b50905060006040518060400160405280336001600160a01b0316815260200185610b3090611cf6565b600790810b9091526040805180820182526001600160a01b038a1681529187900b602083015280516002808252606082019092529293509091600091816020015b6040805180820190915260008082526020820152815260200190600190039081610b715790505090508281600081518110610bbc57634e487b7160e01b600052603260045260246000fd5b60200260200101819052508181600181518110610be957634e487b7160e01b600052603260045260246000fd5b602090810291909101810191909152604080516060810182526001600160a01b038a16815291820183905281810186905280516001808252818301909252600091816020015b610c5c604051806060016040528060006001600160a01b0316815260200160608152602001606081525090565b815260200190600190039081610c2f5790505090508181600081518110610c9357634e487b7160e01b600052603260045260246000fd5b6020026020010181905250610ca7816112a2565b965060168714610cb657600080fd5b5050505050509392505050565b6000610cd08484846112cc565b9050600080516020611d4f83398151915281604051610cf191815260200190565b60405180910390a15b9392505050565b6000610d0d8383611398565b9050600080516020611d4f83398151915281604051610d2e91815260200190565b60405180910390a160168114610d4357600080fd5b92915050565b6000610d56848484611460565b9050600080516020611d4f83398151915281604051610d7791815260200190565b60405180910390a160168114610cfa57600080fd5b604080516001600160a01b0385811660248301528481166044830152831660648083019190915282518083039091018152608490910182526020810180516001600160e01b031663f49f40db60e01b179052905160009182918291829161016791610df691611b64565b6000604051808303816000865af19150503d8060008114610e33576040519150601f19603f3d011682016040523d82523d6000602084013e610e38565b606091505b509150915081610e4b5760156000610e5f565b80806020019051810190610e5f91906118c1565b60039190910b9890975095505050505050565b604080516001600160a01b0384166024820152604480820184905282518083039091018152606490910182526020810180516001600160e01b03166304c791b360e11b179052905160009182918291829161016791610ed091611b64565b6000604051808303816000865af19150503d8060008114610f0d576040519150601f19603f3d011682016040523d82523d6000602084013e610f12565b606091505b509150915081610f255760156000610f39565b80806020019051810190610f399190611896565b60039190910b97909650945050505050565b610f53611676565b6040518060400160405280610f688787611539565b8152602001610f778585611552565b905295945050505050565b600080848061010001516000015163ffffffff166000148015610fb257506101008101516040015163ffffffff16155b15610fc8576101008101516276a7006040909101525b6000806101676001600160a01b031634637812a04b60e01b8a8a8a604051602401610ff593929190611c66565b60408051601f198184030181529181526020820180516001600160e01b03166001600160e01b03199094169390931790925290516110339190611b64565b60006040518083038185875af1925050503d8060008114611070576040519150601f19603f3d011682016040523d82523d6000602084013e611075565b606091505b509150915081611088576015600061109c565b8080602001905181019061109c9190611896565b60039190910b999098509650505050505050565b604080516001600160a01b0385811660248301528481166044830152831660648083019190915282518083039091018152608490910182526020810180516001600160e01b031663927da10560e01b17905290516000918291829182916101679161111a91611b64565b6000604051808303816000865af19150503d8060008114611157576040519150601f19603f3d011682016040523d82523d6000602084013e61115c565b606091505b50915091508161116f5760156000610e5f565b80806020019051810190610e5f91906118ec565b61118b611676565b604051806040016040528061119f866115e4565b81526020016111ae8585611552565b9052949350505050565b600080828061010001516000015163ffffffff1660001480156111e857506101008101516040015163ffffffff16155b156111fe576101008101516276a7006040909101525b6000806101676001600160a01b031634639dc711e060e01b886040516024016112279190611c53565b60408051601f198184030181529181526020820180516001600160e01b03166001600160e01b03199094169390931790925290516112659190611b64565b60006040518083038185875af1925050503d8060008114610f0d576040519150601f19603f3d011682016040523d82523d6000602084013e610f12565b60008060006101676001600160a01b031663189a554c60e01b856040516024016103549190611b80565b604080516001600160a01b0385811660248301528416604482015282151560648083019190915282518083039091018152608490910182526020810180516001600160e01b0316631b3b02e560e11b179052905160009182916101679161133291611b64565b6000604051808303816000865af19150503d806000811461136f576040519150601f19603f3d011682016040523d82523d6000602084013e611374565b606091505b509150508080602001905181019061138c919061187c565b60030b95945050505050565b604080516001600160a01b038481166024830152831660448083019190915282518083039091018152606490910182526020810180516001600160e01b031663248a35ef60e11b179052905160009182918291610167916113f99190611b64565b6000604051808303816000865af19150503d8060008114611436576040519150601f19603f3d011682016040523d82523d6000602084013e61143b565b606091505b50915091508161144c57601561138c565b8080602001905181019061138c919061187c565b604080516001600160a01b03858116602483015284166044820152606480820184905282518083039091018152608490910182526020810180516001600160e01b031663e1f21c6760e01b179052905160009182918291610167916114c59190611b64565b6000604051808303816000865af19150503d8060008114611502576040519150601f19603f3d011682016040523d82523d6000602084013e611507565b606091505b50915091508161151857601561152c565b8080602001905181019061152c919061187c565b60030b9695505050505050565b6000600160ff84161b9050600160ff83161b8117610cfa565b61155a611695565b8260ff166001141561156f5760018152610d43565b8260ff1660021415611591576000546001600160a01b03166020820152610d43565b8260ff16600314156115a95760408101829052610d43565b8260ff16600414156115c15760608101829052610d43565b8260ff1660051415610d43576000546001600160a01b0316608082015292915050565b600060ff82166115f657506001919050565b8160ff166001141561160a57506002919050565b8160ff166002141561161e57506004919050565b8160ff166003141561163257506008919050565b8160ff166004141561164657506010919050565b8160ff166005141561165a57506020919050565b8160ff166006141561166e57506040919050565b506000919050565b604051806040016040528060008152602001611690611695565b905290565b6040518060a0016040528060001515815260200160006001600160a01b03168152602001606081526020016060815260200160006001600160a01b031681525090565b8051600381900b81146116ea57600080fd5b919050565b600060208284031215611700578081fd5b8135610cfa81611d28565b6000806040838503121561171d578081fd5b823561172881611d28565b9150602083013561173881611d28565b809150509250929050565b600080600060608486031215611757578081fd5b833561176281611d28565b9250602084013561177281611d28565b9150604084013561178281611d28565b809150509250925092565b6000806000606084860312156117a1578283fd5b83356117ac81611d28565b925060208401356117bc81611d28565b9150604084013561178281611d40565b6000806000606084860312156117e0578283fd5b83356117eb81611d28565b925060208401356117fb81611d28565b91506040840135600781900b8114611782578182fd5b600080600060608486031215611825578283fd5b833561183081611d28565b9250602084013561184081611d28565b929592945050506040919091013590565b60008060408385031215611863578182fd5b823561186e81611d28565b946020939093013593505050565b60006020828403121561188d578081fd5b610cfa826116d8565b600080604083850312156118a8578182fd5b6118b1836116d8565b9150602083015161173881611d28565b600080604083850312156118d3578182fd5b6118dc836116d8565b9150602083015161173881611d40565b600080604083850312156118fe578182fd5b611907836116d8565b9150602083015190509250929050565b6000815180845260208085019450808401835b8381101561196b57815180516001600160a01b03908116895284820151168489015260409081015160070b908801526060909601959082019060010161192a565b509495945050505050565b6000815180845260208085019450848260051b8601828601855b85811015611a2857838303895281516040815185528682015191508087860152815115158186015286820151606060018060a01b038083168289015283850151935060a09250608083818a01526119ea60e08a0186611a35565b92860151898403603f1901858b0152929450611a068584611a35565b9501511660c09790970196909652505098850198925090840190600101611990565b5090979650505050505050565b60008151808452611a4d816020860160208601611c8b565b601f01601f19169290920160200192915050565b60006101608251818552611a7782860182611a35565b91505060208301518482036020860152611a918282611a35565b9150506040830151611aae60408601826001600160a01b03169052565b5060608301518482036060860152611ac68282611a35565b9150506080830151611adc608086018215159052565b5060a0830151611af460a086018263ffffffff169052565b5060c0830151611b0860c086018215159052565b5060e083015184820360e0860152611b208282611976565b61010085810151805163ffffffff9081168984015260208201516001600160a01b03166101208a015260408201511661014089015291935091505090949350505050565b60008251611b76818460208701611c8b565b9190910192915050565b60006020808301818452808551808352604092508286019150828160051b870101848801865b83811015611c4557888303603f19018552815180516001600160a01b0390811685528882015160608a870181905281519087018190526080870192918b0191908c905b80821015611c175783518051841686528d015160070b8d860152938b0193928c019260019190910190611be9565b50505050908701518482038589015290611c318183611917565b968901969450505090860190600101611ba6565b509098975050505050505050565b602081526000610cfa6020830184611a61565b606081526000611c796060830186611a61565b60208301949094525060400152919050565b60005b83811015611ca6578181015183820152602001611c8e565b83811115611cb5576000848401525b50505050565b600181811c90821680611ccf57607f821691505b60208210811415611cf057634e487b7160e01b600052602260045260246000fd5b50919050565b60008160070b677fffffffffffffff19811415611d2157634e487b7160e01b82526011600452602482fd5b9003919050565b6001600160a01b0381168114611d3d57600080fd5b50565b8015158114611d3d57600080fdfe90a5cf4cffe88b4edbb041cfc7a8a812c48a5ec30b84640fb37690875168e3aaa26469706673582212206c0ac9e7a508dc41176d7826b8357039ebcf26f855b23412ed51af23816be93d64736f6c63430008040033",
  "linkReferences": {},
  "deployedLinkReferences": {}
}