{
  "_format": "hh-sol-artifact-1",
  "contractName": "BaseHTS",
  "sourceName": "contracts/BaseHTS.sol",
  "abi": [
    {
      "anonymous": false,
      "inputs": [
        {
          "indexed": false,
          "internalType": "uint256",
          "name": "amount",
          "type": "uint256"
        }
      ],
      "name": "AllowanceValue",
      "type": "event"
    },
    {
      "anonymous": false,
      "inputs": [
        {
          "indexed": false,
          "internalType": "bool",
          "name": "approved",
          "type": "bool"
        }
      ],
      "name": "Approved",
      "type": "event"
    },
    {
      "anonymous": false,
      "inputs": [
        {
          "indexed": false,
          "internalType": "address",
          "name": "approved",
          "type": "address"
        }
      ],
      "name": "ApprovedAddress",
      "type": "event"
    },
    {
      "anonymous": false,
      "inputs": [
        {
          "indexed": false,
          "internalType": "address",
          "name": "tokenAddress",
          "type": "address"
        }
      ],
      "name": "CreatedToken",
      "type": "event"
    },
    {
      "anonymous": false,
      "inputs": [
        {
          "indexed": false,
          "internalType": "bool",
          "name": "frozen",
          "type": "bool"
        }
      ],
      "name": "Frozen",
      "type": "event"
    },
    {
      "anonymous": false,
      "inputs": [
        {
          "components": [
            {
              "components": [
                {
                  "components": [
                    {
                      "internalType": "string",
                      "name": "name",
                      "type": "string"
                    },
                    {
                      "internalType": "string",
                      "name": "symbol",
                      "type": "string"
                    },
                    {
                      "internalType": "address",
                      "name": "treasury",
                      "type": "address"
                    },
                    {
                      "internalType": "string",
                      "name": "memo",
                      "type": "string"
                    },
                    {
                      "internalType": "bool",
                      "name": "tokenSupplyType",
                      "type": "bool"
                    },
                    {
                      "internalType": "uint32",
                      "name": "maxSupply",
                      "type": "uint32"
                    },
                    {
                      "internalType": "bool",
                      "name": "freezeDefault",
                      "type": "bool"
                    },
                    {
                      "components": [
                        {
                          "internalType": "uint256",
                          "name": "keyType",
                          "type": "uint256"
                        },
                        {
                          "components": [
                            {
                              "internalType": "bool",
                              "name": "inheritAccountKey",
                              "type": "bool"
                            },
                            {
                              "internalType": "address",
                              "name": "contractId",
                              "type": "address"
                            },
                            {
                              "internalType": "bytes",
                              "name": "ed25519",
                              "type": "bytes"
                            },
                            {
                              "internalType": "bytes",
                              "name": "ECDSA_secp256k1",
                              "type": "bytes"
                            },
                            {
                              "internalType": "address",
                              "name": "delegatableContractId",
                              "type": "address"
                            }
                          ],
                          "internalType": "struct IHederaTokenService.KeyValue",
                          "name": "key",
                          "type": "tuple"
                        }
                      ],
                      "internalType": "struct IHederaTokenService.TokenKey[]",
                      "name": "tokenKeys",
                      "type": "tuple[]"
                    },
                    {
                      "components": [
                        {
                          "internalType": "uint32",
                          "name": "second",
                          "type": "uint32"
                        },
                        {
                          "internalType": "address",
                          "name": "autoRenewAccount",
                          "type": "address"
                        },
                        {
                          "internalType": "uint32",
                          "name": "autoRenewPeriod",
                          "type": "uint32"
                        }
                      ],
                      "internalType": "struct IHederaTokenService.Expiry",
                      "name": "expiry",
                      "type": "tuple"
                    }
                  ],
                  "internalType": "struct IHederaTokenService.HederaToken",
                  "name": "token",
                  "type": "tuple"
                },
                {
                  "internalType": "uint64",
                  "name": "totalSupply",
                  "type": "uint64"
                },
                {
                  "internalType": "bool",
                  "name": "deleted",
                  "type": "bool"
                },
                {
                  "internalType": "bool",
                  "name": "defaultKycStatus",
                  "type": "bool"
                },
                {
                  "internalType": "bool",
                  "name": "pauseStatus",
                  "type": "bool"
                },
                {
                  "components": [
                    {
                      "internalType": "uint32",
                      "name": "amount",
                      "type": "uint32"
                    },
                    {
                      "internalType": "address",
                      "name": "tokenId",
                      "type": "address"
                    },
                    {
                      "internalType": "bool",
                      "name": "useHbarsForPayment",
                      "type": "bool"
                    },
                    {
                      "internalType": "bool",
                      "name": "useCurrentTokenForPayment",
                      "type": "bool"
                    },
                    {
                      "internalType": "address",
                      "name": "feeCollector",
                      "type": "address"
                    }
                  ],
                  "internalType": "struct IHederaTokenService.FixedFee[]",
                  "name": "fixedFees",
                  "type": "tuple[]"
                },
                {
                  "components": [
                    {
                      "internalType": "uint32",
                      "name": "numerator",
                      "type": "uint32"
                    },
                    {
                      "internalType": "uint32",
                      "name": "denominator",
                      "type": "uint32"
                    },
                    {
                      "internalType": "uint32",
                      "name": "minimumAmount",
                      "type": "uint32"
                    },
                    {
                      "internalType": "uint32",
                      "name": "maximumAmount",
                      "type": "uint32"
                    },
                    {
                      "internalType": "bool",
                      "name": "netOfTransfers",
                      "type": "bool"
                    },
                    {
                      "internalType": "address",
                      "name": "feeCollector",
                      "type": "address"
                    }
                  ],
                  "internalType": "struct IHederaTokenService.FractionalFee[]",
                  "name": "fractionalFees",
                  "type": "tuple[]"
                },
                {
                  "components": [
                    {
                      "internalType": "uint32",
                      "name": "numerator",
                      "type": "uint32"
                    },
                    {
                      "internalType": "uint32",
                      "name": "denominator",
                      "type": "uint32"
                    },
                    {
                      "internalType": "uint32",
                      "name": "amount",
                      "type": "uint32"
                    },
                    {
                      "internalType": "address",
                      "name": "tokenId",
                      "type": "address"
                    },
                    {
                      "internalType": "bool",
                      "name": "useHbarsForPayment",
                      "type": "bool"
                    },
                    {
                      "internalType": "address",
                      "name": "feeCollector",
                      "type": "address"
                    }
                  ],
                  "internalType": "struct IHederaTokenService.RoyaltyFee[]",
                  "name": "royaltyFees",
                  "type": "tuple[]"
                },
                {
                  "internalType": "string",
                  "name": "ledgerId",
                  "type": "string"
                }
              ],
              "internalType": "struct IHederaTokenService.TokenInfo",
              "name": "tokenInfo",
              "type": "tuple"
            },
            {
              "internalType": "uint32",
              "name": "decimals",
              "type": "uint32"
            }
          ],
          "indexed": false,
          "internalType": "struct IHederaTokenService.FungibleTokenInfo",
          "name": "tokenInfo",
          "type": "tuple"
        }
      ],
      "name": "FungibleTokenInfo",
      "type": "event"
    },
    {
      "anonymous": false,
      "inputs": [
        {
          "indexed": false,
          "internalType": "uint64",
          "name": "newTotalSupply",
          "type": "uint64"
        },
        {
          "indexed": false,
          "internalType": "int64[]",
          "name": "serialNumbers",
          "type": "int64[]"
        }
      ],
      "name": "MintedToken",
      "type": "event"
    },
    {
      "anonymous": false,
      "inputs": [
        {
          "components": [
            {
              "components": [
                {
                  "components": [
                    {
                      "internalType": "string",
                      "name": "name",
                      "type": "string"
                    },
                    {
                      "internalType": "string",
                      "name": "symbol",
                      "type": "string"
                    },
                    {
                      "internalType": "address",
                      "name": "treasury",
                      "type": "address"
                    },
                    {
                      "internalType": "string",
                      "name": "memo",
                      "type": "string"
                    },
                    {
                      "internalType": "bool",
                      "name": "tokenSupplyType",
                      "type": "bool"
                    },
                    {
                      "internalType": "uint32",
                      "name": "maxSupply",
                      "type": "uint32"
                    },
                    {
                      "internalType": "bool",
                      "name": "freezeDefault",
                      "type": "bool"
                    },
                    {
                      "components": [
                        {
                          "internalType": "uint256",
                          "name": "keyType",
                          "type": "uint256"
                        },
                        {
                          "components": [
                            {
                              "internalType": "bool",
                              "name": "inheritAccountKey",
                              "type": "bool"
                            },
                            {
                              "internalType": "address",
                              "name": "contractId",
                              "type": "address"
                            },
                            {
                              "internalType": "bytes",
                              "name": "ed25519",
                              "type": "bytes"
                            },
                            {
                              "internalType": "bytes",
                              "name": "ECDSA_secp256k1",
                              "type": "bytes"
                            },
                            {
                              "internalType": "address",
                              "name": "delegatableContractId",
                              "type": "address"
                            }
                          ],
                          "internalType": "struct IHederaTokenService.KeyValue",
                          "name": "key",
                          "type": "tuple"
                        }
                      ],
                      "internalType": "struct IHederaTokenService.TokenKey[]",
                      "name": "tokenKeys",
                      "type": "tuple[]"
                    },
                    {
                      "components": [
                        {
                          "internalType": "uint32",
                          "name": "second",
                          "type": "uint32"
                        },
                        {
                          "internalType": "address",
                          "name": "autoRenewAccount",
                          "type": "address"
                        },
                        {
                          "internalType": "uint32",
                          "name": "autoRenewPeriod",
                          "type": "uint32"
                        }
                      ],
                      "internalType": "struct IHederaTokenService.Expiry",
                      "name": "expiry",
                      "type": "tuple"
                    }
                  ],
                  "internalType": "struct IHederaTokenService.HederaToken",
                  "name": "token",
                  "type": "tuple"
                },
                {
                  "internalType": "uint64",
                  "name": "totalSupply",
                  "type": "uint64"
                },
                {
                  "internalType": "bool",
                  "name": "deleted",
                  "type": "bool"
                },
                {
                  "internalType": "bool",
                  "name": "defaultKycStatus",
                  "type": "bool"
                },
                {
                  "internalType": "bool",
                  "name": "pauseStatus",
                  "type": "bool"
                },
                {
                  "components": [
                    {
                      "internalType": "uint32",
                      "name": "amount",
                      "type": "uint32"
                    },
                    {
                      "internalType": "address",
                      "name": "tokenId",
                      "type": "address"
                    },
                    {
                      "internalType": "bool",
                      "name": "useHbarsForPayment",
                      "type": "bool"
                    },
                    {
                      "internalType": "bool",
                      "name": "useCurrentTokenForPayment",
                      "type": "bool"
                    },
                    {
                      "internalType": "address",
                      "name": "feeCollector",
                      "type": "address"
                    }
                  ],
                  "internalType": "struct IHederaTokenService.FixedFee[]",
                  "name": "fixedFees",
                  "type": "tuple[]"
                },
                {
                  "components": [
                    {
                      "internalType": "uint32",
                      "name": "numerator",
                      "type": "uint32"
                    },
                    {
                      "internalType": "uint32",
                      "name": "denominator",
                      "type": "uint32"
                    },
                    {
                      "internalType": "uint32",
                      "name": "minimumAmount",
                      "type": "uint32"
                    },
                    {
                      "internalType": "uint32",
                      "name": "maximumAmount",
                      "type": "uint32"
                    },
                    {
                      "internalType": "bool",
                      "name": "netOfTransfers",
                      "type": "bool"
                    },
                    {
                      "internalType": "address",
                      "name": "feeCollector",
                      "type": "address"
                    }
                  ],
                  "internalType": "struct IHederaTokenService.FractionalFee[]",
                  "name": "fractionalFees",
                  "type": "tuple[]"
                },
                {
                  "components": [
                    {
                      "internalType": "uint32",
                      "name": "numerator",
                      "type": "uint32"
                    },
                    {
                      "internalType": "uint32",
                      "name": "denominator",
                      "type": "uint32"
                    },
                    {
                      "internalType": "uint32",
                      "name": "amount",
                      "type": "uint32"
                    },
                    {
                      "internalType": "address",
                      "name": "tokenId",
                      "type": "address"
                    },
                    {
                      "internalType": "bool",
                      "name": "useHbarsForPayment",
                      "type": "bool"
                    },
                    {
                      "internalType": "address",
                      "name": "feeCollector",
                      "type": "address"
                    }
                  ],
                  "internalType": "struct IHederaTokenService.RoyaltyFee[]",
                  "name": "royaltyFees",
                  "type": "tuple[]"
                },
                {
                  "internalType": "string",
                  "name": "ledgerId",
                  "type": "string"
                }
              ],
              "internalType": "struct IHederaTokenService.TokenInfo",
              "name": "tokenInfo",
              "type": "tuple"
            },
            {
              "internalType": "int64",
              "name": "serialNumber",
              "type": "int64"
            },
            {
              "internalType": "address",
              "name": "ownerId",
              "type": "address"
            },
            {
              "internalType": "int64",
              "name": "creationTime",
              "type": "int64"
            },
            {
              "internalType": "bytes",
              "name": "metadata",
              "type": "bytes"
            },
            {
              "internalType": "address",
              "name": "spenderId",
              "type": "address"
            }
          ],
          "indexed": false,
          "internalType": "struct IHederaTokenService.NonFungibleTokenInfo",
          "name": "tokenInfo",
          "type": "tuple"
        }
      ],
      "name": "NonFungibleTokenInfo",
      "type": "event"
    },
    {
      "anonymous": false,
      "inputs": [
        {
          "indexed": false,
          "internalType": "bool",
          "name": "paused",
          "type": "bool"
        }
      ],
      "name": "PausedToken",
      "type": "event"
    },
    {
      "anonymous": false,
      "inputs": [
        {
          "indexed": false,
          "internalType": "int256",
          "name": "responseCode",
          "type": "int256"
        }
      ],
      "name": "ResponseCode",
      "type": "event"
    },
    {
      "anonymous": false,
      "inputs": [
        {
          "components": [
            {
              "internalType": "uint32",
              "name": "amount",
              "type": "uint32"
            },
            {
              "internalType": "address",
              "name": "tokenId",
              "type": "address"
            },
            {
              "internalType": "bool",
              "name": "useHbarsForPayment",
              "type": "bool"
            },
            {
              "internalType": "bool",
              "name": "useCurrentTokenForPayment",
              "type": "bool"
            },
            {
              "internalType": "address",
              "name": "feeCollector",
              "type": "address"
            }
          ],
          "indexed": false,
          "internalType": "struct IHederaTokenService.FixedFee[]",
          "name": "fixedFees",
          "type": "tuple[]"
        },
        {
          "components": [
            {
              "internalType": "uint32",
              "name": "numerator",
              "type": "uint32"
            },
            {
              "internalType": "uint32",
              "name": "denominator",
              "type": "uint32"
            },
            {
              "internalType": "uint32",
              "name": "minimumAmount",
              "type": "uint32"
            },
            {
              "internalType": "uint32",
              "name": "maximumAmount",
              "type": "uint32"
            },
            {
              "internalType": "bool",
              "name": "netOfTransfers",
              "type": "bool"
            },
            {
              "internalType": "address",
              "name": "feeCollector",
              "type": "address"
            }
          ],
          "indexed": false,
          "internalType": "struct IHederaTokenService.FractionalFee[]",
          "name": "fractionalFees",
          "type": "tuple[]"
        },
        {
          "components": [
            {
              "internalType": "uint32",
              "name": "numerator",
              "type": "uint32"
            },
            {
              "internalType": "uint32",
              "name": "denominator",
              "type": "uint32"
            },
            {
              "internalType": "uint32",
              "name": "amount",
              "type": "uint32"
            },
            {
              "internalType": "address",
              "name": "tokenId",
              "type": "address"
            },
            {
              "internalType": "bool",
              "name": "useHbarsForPayment",
              "type": "bool"
            },
            {
              "internalType": "address",
              "name": "feeCollector",
              "type": "address"
            }
          ],
          "indexed": false,
          "internalType": "struct IHederaTokenService.RoyaltyFee[]",
          "name": "royaltyFees",
          "type": "tuple[]"
        }
      ],
      "name": "TokenCustomFees",
      "type": "event"
    },
    {
      "anonymous": false,
      "inputs": [
        {
          "components": [
            {
              "components": [
                {
                  "internalType": "string",
                  "name": "name",
                  "type": "string"
                },
                {
                  "internalType": "string",
                  "name": "symbol",
                  "type": "string"
                },
                {
                  "internalType": "address",
                  "name": "treasury",
                  "type": "address"
                },
                {
                  "internalType": "string",
                  "name": "memo",
                  "type": "string"
                },
                {
                  "internalType": "bool",
                  "name": "tokenSupplyType",
                  "type": "bool"
                },
                {
                  "internalType": "uint32",
                  "name": "maxSupply",
                  "type": "uint32"
                },
                {
                  "internalType": "bool",
                  "name": "freezeDefault",
                  "type": "bool"
                },
                {
                  "components": [
                    {
                      "internalType": "uint256",
                      "name": "keyType",
                      "type": "uint256"
                    },
                    {
                      "components": [
                        {
                          "internalType": "bool",
                          "name": "inheritAccountKey",
                          "type": "bool"
                        },
                        {
                          "internalType": "address",
                          "name": "contractId",
                          "type": "address"
                        },
                        {
                          "internalType": "bytes",
                          "name": "ed25519",
                          "type": "bytes"
                        },
                        {
                          "internalType": "bytes",
                          "name": "ECDSA_secp256k1",
                          "type": "bytes"
                        },
                        {
                          "internalType": "address",
                          "name": "delegatableContractId",
                          "type": "address"
                        }
                      ],
                      "internalType": "struct IHederaTokenService.KeyValue",
                      "name": "key",
                      "type": "tuple"
                    }
                  ],
                  "internalType": "struct IHederaTokenService.TokenKey[]",
                  "name": "tokenKeys",
                  "type": "tuple[]"
                },
                {
                  "components": [
                    {
                      "internalType": "uint32",
                      "name": "second",
                      "type": "uint32"
                    },
                    {
                      "internalType": "address",
                      "name": "autoRenewAccount",
                      "type": "address"
                    },
                    {
                      "internalType": "uint32",
                      "name": "autoRenewPeriod",
                      "type": "uint32"
                    }
                  ],
                  "internalType": "struct IHederaTokenService.Expiry",
                  "name": "expiry",
                  "type": "tuple"
                }
              ],
              "internalType": "struct IHederaTokenService.HederaToken",
              "name": "token",
              "type": "tuple"
            },
            {
              "internalType": "uint64",
              "name": "totalSupply",
              "type": "uint64"
            },
            {
              "internalType": "bool",
              "name": "deleted",
              "type": "bool"
            },
            {
              "internalType": "bool",
              "name": "defaultKycStatus",
              "type": "bool"
            },
            {
              "internalType": "bool",
              "name": "pauseStatus",
              "type": "bool"
            },
            {
              "components": [
                {
                  "internalType": "uint32",
                  "name": "amount",
                  "type": "uint32"
                },
                {
                  "internalType": "address",
                  "name": "tokenId",
                  "type": "address"
                },
                {
                  "internalType": "bool",
                  "name": "useHbarsForPayment",
                  "type": "bool"
                },
                {
                  "internalType": "bool",
                  "name": "useCurrentTokenForPayment",
                  "type": "bool"
                },
                {
                  "internalType": "address",
                  "name": "feeCollector",
                  "type": "address"
                }
              ],
              "internalType": "struct IHederaTokenService.FixedFee[]",
              "name": "fixedFees",
              "type": "tuple[]"
            },
            {
              "components": [
                {
                  "internalType": "uint32",
                  "name": "numerator",
                  "type": "uint32"
                },
                {
                  "internalType": "uint32",
                  "name": "denominator",
                  "type": "uint32"
                },
                {
                  "internalType": "uint32",
                  "name": "minimumAmount",
                  "type": "uint32"
                },
                {
                  "internalType": "uint32",
                  "name": "maximumAmount",
                  "type": "uint32"
                },
                {
                  "internalType": "bool",
                  "name": "netOfTransfers",
                  "type": "bool"
                },
                {
                  "internalType": "address",
                  "name": "feeCollector",
                  "type": "address"
                }
              ],
              "internalType": "struct IHederaTokenService.FractionalFee[]",
              "name": "fractionalFees",
              "type": "tuple[]"
            },
            {
              "components": [
                {
                  "internalType": "uint32",
                  "name": "numerator",
                  "type": "uint32"
                },
                {
                  "internalType": "uint32",
                  "name": "denominator",
                  "type": "uint32"
                },
                {
                  "internalType": "uint32",
                  "name": "amount",
                  "type": "uint32"
                },
                {
                  "internalType": "address",
                  "name": "tokenId",
                  "type": "address"
                },
                {
                  "internalType": "bool",
                  "name": "useHbarsForPayment",
                  "type": "bool"
                },
                {
                  "internalType": "address",
                  "name": "feeCollector",
                  "type": "address"
                }
              ],
              "internalType": "struct IHederaTokenService.RoyaltyFee[]",
              "name": "royaltyFees",
              "type": "tuple[]"
            },
            {
              "internalType": "string",
              "name": "ledgerId",
              "type": "string"
            }
          ],
          "indexed": false,
          "internalType": "struct IHederaTokenService.TokenInfo",
          "name": "tokenInfo",
          "type": "tuple"
        }
      ],
      "name": "TokenInfo",
      "type": "event"
    },
    {
      "anonymous": false,
      "inputs": [
        {
          "indexed": false,
          "internalType": "bool",
          "name": "unpaused",
          "type": "bool"
        }
      ],
      "name": "UnpausedToken",
      "type": "event"
    },
    {
      "inputs": [
        {
          "internalType": "address",
          "name": "token",
          "type": "address"
        },
        {
          "internalType": "address",
          "name": "owner",
          "type": "address"
        },
        {
          "internalType": "address",
          "name": "spender",
          "type": "address"
        }
      ],
      "name": "allowancePublic",
      "outputs": [
        {
          "internalType": "int256",
          "name": "responseCode",
          "type": "int256"
        },
        {
          "internalType": "uint256",
          "name": "amount",
          "type": "uint256"
        }
      ],
      "stateMutability": "nonpayable",
      "type": "function"
    },
    {
      "inputs": [
        {
          "internalType": "address",
          "name": "token",
          "type": "address"
        },
        {
          "internalType": "address",
          "name": "spender",
          "type": "address"
        },
        {
          "internalType": "uint256",
          "name": "amount",
          "type": "uint256"
        }
      ],
      "name": "approvePublic",
      "outputs": [
        {
          "internalType": "int256",
          "name": "responseCode",
          "type": "int256"
        }
      ],
      "stateMutability": "nonpayable",
      "type": "function"
    },
    {
      "inputs": [
        {
          "internalType": "address",
          "name": "account",
          "type": "address"
        },
        {
          "internalType": "address",
          "name": "token",
          "type": "address"
        }
      ],
      "name": "associateTokenPublic",
      "outputs": [
        {
          "internalType": "int256",
          "name": "responseCode",
          "type": "int256"
        }
      ],
      "stateMutability": "nonpayable",
      "type": "function"
    },
    {
      "inputs": [
        {
          "internalType": "address",
          "name": "treasury",
          "type": "address"
        }
      ],
      "name": "createFungibleTokenPublic",
      "outputs": [],
      "stateMutability": "payable",
      "type": "function"
    },
    {
      "inputs": [
        {
          "internalType": "address",
          "name": "treasury",
          "type": "address"
        },
        {
          "internalType": "address",
          "name": "fixedFeeTokenAddress",
          "type": "address"
        }
      ],
      "name": "createFungibleTokenWithCustomFeesPublic",
      "outputs": [],
      "stateMutability": "payable",
      "type": "function"
    },
    {
      "inputs": [
        {
          "internalType": "address",
          "name": "treasury",
          "type": "address"
        }
      ],
      "name": "createNonFungibleTokenPublic",
      "outputs": [],
      "stateMutability": "payable",
      "type": "function"
    },
    {
      "inputs": [
        {
          "internalType": "address",
          "name": "token",
          "type": "address"
        },
        {
          "internalType": "address",
          "name": "account",
          "type": "address"
        }
      ],
      "name": "freezeTokenPublic",
      "outputs": [
        {
          "internalType": "int256",
          "name": "responseCode",
          "type": "int256"
        }
      ],
      "stateMutability": "nonpayable",
      "type": "function"
    },
    {
      "inputs": [
        {
          "internalType": "address",
          "name": "token",
          "type": "address"
        },
        {
          "internalType": "uint256",
          "name": "serialNumber",
          "type": "uint256"
        }
      ],
      "name": "getApprovedPublic",
      "outputs": [
        {
          "internalType": "int256",
          "name": "responseCode",
          "type": "int256"
        },
        {
          "internalType": "address",
          "name": "approved",
          "type": "address"
        }
      ],
      "stateMutability": "nonpayable",
      "type": "function"
    },
    {
      "inputs": [
        {
          "internalType": "address",
          "name": "token",
          "type": "address"
        }
      ],
      "name": "getFungibleTokenInfoPublic",
      "outputs": [
        {
          "internalType": "int256",
          "name": "responseCode",
          "type": "int256"
        },
        {
          "components": [
            {
              "components": [
                {
                  "components": [
                    {
                      "internalType": "string",
                      "name": "name",
                      "type": "string"
                    },
                    {
                      "internalType": "string",
                      "name": "symbol",
                      "type": "string"
                    },
                    {
                      "internalType": "address",
                      "name": "treasury",
                      "type": "address"
                    },
                    {
                      "internalType": "string",
                      "name": "memo",
                      "type": "string"
                    },
                    {
                      "internalType": "bool",
                      "name": "tokenSupplyType",
                      "type": "bool"
                    },
                    {
                      "internalType": "uint32",
                      "name": "maxSupply",
                      "type": "uint32"
                    },
                    {
                      "internalType": "bool",
                      "name": "freezeDefault",
                      "type": "bool"
                    },
                    {
                      "components": [
                        {
                          "internalType": "uint256",
                          "name": "keyType",
                          "type": "uint256"
                        },
                        {
                          "components": [
                            {
                              "internalType": "bool",
                              "name": "inheritAccountKey",
                              "type": "bool"
                            },
                            {
                              "internalType": "address",
                              "name": "contractId",
                              "type": "address"
                            },
                            {
                              "internalType": "bytes",
                              "name": "ed25519",
                              "type": "bytes"
                            },
                            {
                              "internalType": "bytes",
                              "name": "ECDSA_secp256k1",
                              "type": "bytes"
                            },
                            {
                              "internalType": "address",
                              "name": "delegatableContractId",
                              "type": "address"
                            }
                          ],
                          "internalType": "struct IHederaTokenService.KeyValue",
                          "name": "key",
                          "type": "tuple"
                        }
                      ],
                      "internalType": "struct IHederaTokenService.TokenKey[]",
                      "name": "tokenKeys",
                      "type": "tuple[]"
                    },
                    {
                      "components": [
                        {
                          "internalType": "uint32",
                          "name": "second",
                          "type": "uint32"
                        },
                        {
                          "internalType": "address",
                          "name": "autoRenewAccount",
                          "type": "address"
                        },
                        {
                          "internalType": "uint32",
                          "name": "autoRenewPeriod",
                          "type": "uint32"
                        }
                      ],
                      "internalType": "struct IHederaTokenService.Expiry",
                      "name": "expiry",
                      "type": "tuple"
                    }
                  ],
                  "internalType": "struct IHederaTokenService.HederaToken",
                  "name": "token",
                  "type": "tuple"
                },
                {
                  "internalType": "uint64",
                  "name": "totalSupply",
                  "type": "uint64"
                },
                {
                  "internalType": "bool",
                  "name": "deleted",
                  "type": "bool"
                },
                {
                  "internalType": "bool",
                  "name": "defaultKycStatus",
                  "type": "bool"
                },
                {
                  "internalType": "bool",
                  "name": "pauseStatus",
                  "type": "bool"
                },
                {
                  "components": [
                    {
                      "internalType": "uint32",
                      "name": "amount",
                      "type": "uint32"
                    },
                    {
                      "internalType": "address",
                      "name": "tokenId",
                      "type": "address"
                    },
                    {
                      "internalType": "bool",
                      "name": "useHbarsForPayment",
                      "type": "bool"
                    },
                    {
                      "internalType": "bool",
                      "name": "useCurrentTokenForPayment",
                      "type": "bool"
                    },
                    {
                      "internalType": "address",
                      "name": "feeCollector",
                      "type": "address"
                    }
                  ],
                  "internalType": "struct IHederaTokenService.FixedFee[]",
                  "name": "fixedFees",
                  "type": "tuple[]"
                },
                {
                  "components": [
                    {
                      "internalType": "uint32",
                      "name": "numerator",
                      "type": "uint32"
                    },
                    {
                      "internalType": "uint32",
                      "name": "denominator",
                      "type": "uint32"
                    },
                    {
                      "internalType": "uint32",
                      "name": "minimumAmount",
                      "type": "uint32"
                    },
                    {
                      "internalType": "uint32",
                      "name": "maximumAmount",
                      "type": "uint32"
                    },
                    {
                      "internalType": "bool",
                      "name": "netOfTransfers",
                      "type": "bool"
                    },
                    {
                      "internalType": "address",
                      "name": "feeCollector",
                      "type": "address"
                    }
                  ],
                  "internalType": "struct IHederaTokenService.FractionalFee[]",
                  "name": "fractionalFees",
                  "type": "tuple[]"
                },
                {
                  "components": [
                    {
                      "internalType": "uint32",
                      "name": "numerator",
                      "type": "uint32"
                    },
                    {
                      "internalType": "uint32",
                      "name": "denominator",
                      "type": "uint32"
                    },
                    {
                      "internalType": "uint32",
                      "name": "amount",
                      "type": "uint32"
                    },
                    {
                      "internalType": "address",
                      "name": "tokenId",
                      "type": "address"
                    },
                    {
                      "internalType": "bool",
                      "name": "useHbarsForPayment",
                      "type": "bool"
                    },
                    {
                      "internalType": "address",
                      "name": "feeCollector",
                      "type": "address"
                    }
                  ],
                  "internalType": "struct IHederaTokenService.RoyaltyFee[]",
                  "name": "royaltyFees",
                  "type": "tuple[]"
                },
                {
                  "internalType": "string",
                  "name": "ledgerId",
                  "type": "string"
                }
              ],
              "internalType": "struct IHederaTokenService.TokenInfo",
              "name": "tokenInfo",
              "type": "tuple"
            },
            {
              "internalType": "uint32",
              "name": "decimals",
              "type": "uint32"
            }
          ],
          "internalType": "struct IHederaTokenService.FungibleTokenInfo",
          "name": "tokenInfo",
          "type": "tuple"
        }
      ],
      "stateMutability": "nonpayable",
      "type": "function"
    },
    {
      "inputs": [
        {
          "internalType": "address",
          "name": "token",
          "type": "address"
        },
        {
          "internalType": "int64",
          "name": "serialNumber",
          "type": "int64"
        }
      ],
      "name": "getNonFungibleTokenInfoPublic",
      "outputs": [
        {
          "internalType": "int256",
          "name": "responseCode",
          "type": "int256"
        },
        {
          "components": [
            {
              "components": [
                {
                  "components": [
                    {
                      "internalType": "string",
                      "name": "name",
                      "type": "string"
                    },
                    {
                      "internalType": "string",
                      "name": "symbol",
                      "type": "string"
                    },
                    {
                      "internalType": "address",
                      "name": "treasury",
                      "type": "address"
                    },
                    {
                      "internalType": "string",
                      "name": "memo",
                      "type": "string"
                    },
                    {
                      "internalType": "bool",
                      "name": "tokenSupplyType",
                      "type": "bool"
                    },
                    {
                      "internalType": "uint32",
                      "name": "maxSupply",
                      "type": "uint32"
                    },
                    {
                      "internalType": "bool",
                      "name": "freezeDefault",
                      "type": "bool"
                    },
                    {
                      "components": [
                        {
                          "internalType": "uint256",
                          "name": "keyType",
                          "type": "uint256"
                        },
                        {
                          "components": [
                            {
                              "internalType": "bool",
                              "name": "inheritAccountKey",
                              "type": "bool"
                            },
                            {
                              "internalType": "address",
                              "name": "contractId",
                              "type": "address"
                            },
                            {
                              "internalType": "bytes",
                              "name": "ed25519",
                              "type": "bytes"
                            },
                            {
                              "internalType": "bytes",
                              "name": "ECDSA_secp256k1",
                              "type": "bytes"
                            },
                            {
                              "internalType": "address",
                              "name": "delegatableContractId",
                              "type": "address"
                            }
                          ],
                          "internalType": "struct IHederaTokenService.KeyValue",
                          "name": "key",
                          "type": "tuple"
                        }
                      ],
                      "internalType": "struct IHederaTokenService.TokenKey[]",
                      "name": "tokenKeys",
                      "type": "tuple[]"
                    },
                    {
                      "components": [
                        {
                          "internalType": "uint32",
                          "name": "second",
                          "type": "uint32"
                        },
                        {
                          "internalType": "address",
                          "name": "autoRenewAccount",
                          "type": "address"
                        },
                        {
                          "internalType": "uint32",
                          "name": "autoRenewPeriod",
                          "type": "uint32"
                        }
                      ],
                      "internalType": "struct IHederaTokenService.Expiry",
                      "name": "expiry",
                      "type": "tuple"
                    }
                  ],
                  "internalType": "struct IHederaTokenService.HederaToken",
                  "name": "token",
                  "type": "tuple"
                },
                {
                  "internalType": "uint64",
                  "name": "totalSupply",
                  "type": "uint64"
                },
                {
                  "internalType": "bool",
                  "name": "deleted",
                  "type": "bool"
                },
                {
                  "internalType": "bool",
                  "name": "defaultKycStatus",
                  "type": "bool"
                },
                {
                  "internalType": "bool",
                  "name": "pauseStatus",
                  "type": "bool"
                },
                {
                  "components": [
                    {
                      "internalType": "uint32",
                      "name": "amount",
                      "type": "uint32"
                    },
                    {
                      "internalType": "address",
                      "name": "tokenId",
                      "type": "address"
                    },
                    {
                      "internalType": "bool",
                      "name": "useHbarsForPayment",
                      "type": "bool"
                    },
                    {
                      "internalType": "bool",
                      "name": "useCurrentTokenForPayment",
                      "type": "bool"
                    },
                    {
                      "internalType": "address",
                      "name": "feeCollector",
                      "type": "address"
                    }
                  ],
                  "internalType": "struct IHederaTokenService.FixedFee[]",
                  "name": "fixedFees",
                  "type": "tuple[]"
                },
                {
                  "components": [
                    {
                      "internalType": "uint32",
                      "name": "numerator",
                      "type": "uint32"
                    },
                    {
                      "internalType": "uint32",
                      "name": "denominator",
                      "type": "uint32"
                    },
                    {
                      "internalType": "uint32",
                      "name": "minimumAmount",
                      "type": "uint32"
                    },
                    {
                      "internalType": "uint32",
                      "name": "maximumAmount",
                      "type": "uint32"
                    },
                    {
                      "internalType": "bool",
                      "name": "netOfTransfers",
                      "type": "bool"
                    },
                    {
                      "internalType": "address",
                      "name": "feeCollector",
                      "type": "address"
                    }
                  ],
                  "internalType": "struct IHederaTokenService.FractionalFee[]",
                  "name": "fractionalFees",
                  "type": "tuple[]"
                },
                {
                  "components": [
                    {
                      "internalType": "uint32",
                      "name": "numerator",
                      "type": "uint32"
                    },
                    {
                      "internalType": "uint32",
                      "name": "denominator",
                      "type": "uint32"
                    },
                    {
                      "internalType": "uint32",
                      "name": "amount",
                      "type": "uint32"
                    },
                    {
                      "internalType": "address",
                      "name": "tokenId",
                      "type": "address"
                    },
                    {
                      "internalType": "bool",
                      "name": "useHbarsForPayment",
                      "type": "bool"
                    },
                    {
                      "internalType": "address",
                      "name": "feeCollector",
                      "type": "address"
                    }
                  ],
                  "internalType": "struct IHederaTokenService.RoyaltyFee[]",
                  "name": "royaltyFees",
                  "type": "tuple[]"
                },
                {
                  "internalType": "string",
                  "name": "ledgerId",
                  "type": "string"
                }
              ],
              "internalType": "struct IHederaTokenService.TokenInfo",
              "name": "tokenInfo",
              "type": "tuple"
            },
            {
              "internalType": "int64",
              "name": "serialNumber",
              "type": "int64"
            },
            {
              "internalType": "address",
              "name": "ownerId",
              "type": "address"
            },
            {
              "internalType": "int64",
              "name": "creationTime",
              "type": "int64"
            },
            {
              "internalType": "bytes",
              "name": "metadata",
              "type": "bytes"
            },
            {
              "internalType": "address",
              "name": "spenderId",
              "type": "address"
            }
          ],
          "internalType": "struct IHederaTokenService.NonFungibleTokenInfo",
          "name": "tokenInfo",
          "type": "tuple"
        }
      ],
      "stateMutability": "nonpayable",
      "type": "function"
    },
    {
      "inputs": [
        {
          "internalType": "address",
          "name": "token",
          "type": "address"
        }
      ],
      "name": "getTokenCustomFeesPublic",
      "outputs": [
        {
          "internalType": "int64",
          "name": "responseCode",
          "type": "int64"
        },
        {
          "components": [
            {
              "internalType": "uint32",
              "name": "amount",
              "type": "uint32"
            },
            {
              "internalType": "address",
              "name": "tokenId",
              "type": "address"
            },
            {
              "internalType": "bool",
              "name": "useHbarsForPayment",
              "type": "bool"
            },
            {
              "internalType": "bool",
              "name": "useCurrentTokenForPayment",
              "type": "bool"
            },
            {
              "internalType": "address",
              "name": "feeCollector",
              "type": "address"
            }
          ],
          "internalType": "struct IHederaTokenService.FixedFee[]",
          "name": "fixedFees",
          "type": "tuple[]"
        },
        {
          "components": [
            {
              "internalType": "uint32",
              "name": "numerator",
              "type": "uint32"
            },
            {
              "internalType": "uint32",
              "name": "denominator",
              "type": "uint32"
            },
            {
              "internalType": "uint32",
              "name": "minimumAmount",
              "type": "uint32"
            },
            {
              "internalType": "uint32",
              "name": "maximumAmount",
              "type": "uint32"
            },
            {
              "internalType": "bool",
              "name": "netOfTransfers",
              "type": "bool"
            },
            {
              "internalType": "address",
              "name": "feeCollector",
              "type": "address"
            }
          ],
          "internalType": "struct IHederaTokenService.FractionalFee[]",
          "name": "fractionalFees",
          "type": "tuple[]"
        },
        {
          "components": [
            {
              "internalType": "uint32",
              "name": "numerator",
              "type": "uint32"
            },
            {
              "internalType": "uint32",
              "name": "denominator",
              "type": "uint32"
            },
            {
              "internalType": "uint32",
              "name": "amount",
              "type": "uint32"
            },
            {
              "internalType": "address",
              "name": "tokenId",
              "type": "address"
            },
            {
              "internalType": "bool",
              "name": "useHbarsForPayment",
              "type": "bool"
            },
            {
              "internalType": "address",
              "name": "feeCollector",
              "type": "address"
            }
          ],
          "internalType": "struct IHederaTokenService.RoyaltyFee[]",
          "name": "royaltyFees",
          "type": "tuple[]"
        }
      ],
      "stateMutability": "nonpayable",
      "type": "function"
    },
    {
      "inputs": [
        {
          "internalType": "address",
          "name": "token",
          "type": "address"
        }
      ],
      "name": "getTokenInfoPublic",
      "outputs": [
        {
          "internalType": "int256",
          "name": "responseCode",
          "type": "int256"
        },
        {
          "components": [
            {
              "components": [
                {
                  "internalType": "string",
                  "name": "name",
                  "type": "string"
                },
                {
                  "internalType": "string",
                  "name": "symbol",
                  "type": "string"
                },
                {
                  "internalType": "address",
                  "name": "treasury",
                  "type": "address"
                },
                {
                  "internalType": "string",
                  "name": "memo",
                  "type": "string"
                },
                {
                  "internalType": "bool",
                  "name": "tokenSupplyType",
                  "type": "bool"
                },
                {
                  "internalType": "uint32",
                  "name": "maxSupply",
                  "type": "uint32"
                },
                {
                  "internalType": "bool",
                  "name": "freezeDefault",
                  "type": "bool"
                },
                {
                  "components": [
                    {
                      "internalType": "uint256",
                      "name": "keyType",
                      "type": "uint256"
                    },
                    {
                      "components": [
                        {
                          "internalType": "bool",
                          "name": "inheritAccountKey",
                          "type": "bool"
                        },
                        {
                          "internalType": "address",
                          "name": "contractId",
                          "type": "address"
                        },
                        {
                          "internalType": "bytes",
                          "name": "ed25519",
                          "type": "bytes"
                        },
                        {
                          "internalType": "bytes",
                          "name": "ECDSA_secp256k1",
                          "type": "bytes"
                        },
                        {
                          "internalType": "address",
                          "name": "delegatableContractId",
                          "type": "address"
                        }
                      ],
                      "internalType": "struct IHederaTokenService.KeyValue",
                      "name": "key",
                      "type": "tuple"
                    }
                  ],
                  "internalType": "struct IHederaTokenService.TokenKey[]",
                  "name": "tokenKeys",
                  "type": "tuple[]"
                },
                {
                  "components": [
                    {
                      "internalType": "uint32",
                      "name": "second",
                      "type": "uint32"
                    },
                    {
                      "internalType": "address",
                      "name": "autoRenewAccount",
                      "type": "address"
                    },
                    {
                      "internalType": "uint32",
                      "name": "autoRenewPeriod",
                      "type": "uint32"
                    }
                  ],
                  "internalType": "struct IHederaTokenService.Expiry",
                  "name": "expiry",
                  "type": "tuple"
                }
              ],
              "internalType": "struct IHederaTokenService.HederaToken",
              "name": "token",
              "type": "tuple"
            },
            {
              "internalType": "uint64",
              "name": "totalSupply",
              "type": "uint64"
            },
            {
              "internalType": "bool",
              "name": "deleted",
              "type": "bool"
            },
            {
              "internalType": "bool",
              "name": "defaultKycStatus",
              "type": "bool"
            },
            {
              "internalType": "bool",
              "name": "pauseStatus",
              "type": "bool"
            },
            {
              "components": [
                {
                  "internalType": "uint32",
                  "name": "amount",
                  "type": "uint32"
                },
                {
                  "internalType": "address",
                  "name": "tokenId",
                  "type": "address"
                },
                {
                  "internalType": "bool",
                  "name": "useHbarsForPayment",
                  "type": "bool"
                },
                {
                  "internalType": "bool",
                  "name": "useCurrentTokenForPayment",
                  "type": "bool"
                },
                {
                  "internalType": "address",
                  "name": "feeCollector",
                  "type": "address"
                }
              ],
              "internalType": "struct IHederaTokenService.FixedFee[]",
              "name": "fixedFees",
              "type": "tuple[]"
            },
            {
              "components": [
                {
                  "internalType": "uint32",
                  "name": "numerator",
                  "type": "uint32"
                },
                {
                  "internalType": "uint32",
                  "name": "denominator",
                  "type": "uint32"
                },
                {
                  "internalType": "uint32",
                  "name": "minimumAmount",
                  "type": "uint32"
                },
                {
                  "internalType": "uint32",
                  "name": "maximumAmount",
                  "type": "uint32"
                },
                {
                  "internalType": "bool",
                  "name": "netOfTransfers",
                  "type": "bool"
                },
                {
                  "internalType": "address",
                  "name": "feeCollector",
                  "type": "address"
                }
              ],
              "internalType": "struct IHederaTokenService.FractionalFee[]",
              "name": "fractionalFees",
              "type": "tuple[]"
            },
            {
              "components": [
                {
                  "internalType": "uint32",
                  "name": "numerator",
                  "type": "uint32"
                },
                {
                  "internalType": "uint32",
                  "name": "denominator",
                  "type": "uint32"
                },
                {
                  "internalType": "uint32",
                  "name": "amount",
                  "type": "uint32"
                },
                {
                  "internalType": "address",
                  "name": "tokenId",
                  "type": "address"
                },
                {
                  "internalType": "bool",
                  "name": "useHbarsForPayment",
                  "type": "bool"
                },
                {
                  "internalType": "address",
                  "name": "feeCollector",
                  "type": "address"
                }
              ],
              "internalType": "struct IHederaTokenService.RoyaltyFee[]",
              "name": "royaltyFees",
              "type": "tuple[]"
            },
            {
              "internalType": "string",
              "name": "ledgerId",
              "type": "string"
            }
          ],
          "internalType": "struct IHederaTokenService.TokenInfo",
          "name": "tokenInfo",
          "type": "tuple"
        }
      ],
      "stateMutability": "nonpayable",
      "type": "function"
    },
    {
      "inputs": [
        {
          "internalType": "address",
          "name": "token",
          "type": "address"
        },
        {
          "internalType": "address",
          "name": "owner",
          "type": "address"
        },
        {
          "internalType": "address",
          "name": "operator",
          "type": "address"
        }
      ],
      "name": "isApprovedForAllPublic",
      "outputs": [
        {
          "internalType": "int256",
          "name": "responseCode",
          "type": "int256"
        },
        {
          "internalType": "bool",
          "name": "approved",
          "type": "bool"
        }
      ],
      "stateMutability": "nonpayable",
      "type": "function"
    },
    {
      "inputs": [
        {
          "internalType": "address",
          "name": "token",
          "type": "address"
        },
        {
          "internalType": "address",
          "name": "account",
          "type": "address"
        }
      ],
      "name": "isFrozenPublic",
      "outputs": [
        {
          "internalType": "int256",
          "name": "responseCode",
          "type": "int256"
        },
        {
          "internalType": "bool",
          "name": "frozen",
          "type": "bool"
        }
      ],
      "stateMutability": "nonpayable",
      "type": "function"
    },
    {
      "inputs": [
        {
          "internalType": "address",
          "name": "token",
          "type": "address"
        },
        {
          "internalType": "uint64",
          "name": "amount",
          "type": "uint64"
        },
        {
          "internalType": "bytes[]",
          "name": "metadata",
          "type": "bytes[]"
        }
      ],
      "name": "mintTokenPublic",
      "outputs": [
        {
          "internalType": "int256",
          "name": "responseCode",
          "type": "int256"
        },
        {
          "internalType": "uint64",
          "name": "newTotalSupply",
          "type": "uint64"
        },
        {
          "internalType": "int64[]",
          "name": "serialNumbers",
          "type": "int64[]"
        }
      ],
      "stateMutability": "nonpayable",
      "type": "function"
    },
    {
      "inputs": [
        {
          "internalType": "address",
          "name": "token",
          "type": "address"
        }
      ],
      "name": "pauseToken",
      "outputs": [
        {
          "internalType": "int256",
          "name": "responseCode",
          "type": "int256"
        }
      ],
      "stateMutability": "nonpayable",
      "type": "function"
    },
    {
      "inputs": [
        {
          "internalType": "address",
          "name": "token",
          "type": "address"
        }
      ],
      "name": "pauseTokenPublic",
      "outputs": [
        {
          "internalType": "int256",
          "name": "responseCode",
          "type": "int256"
        }
      ],
      "stateMutability": "nonpayable",
      "type": "function"
    },
    {
      "inputs": [
        {
          "internalType": "address",
          "name": "token",
          "type": "address"
        },
        {
          "internalType": "address",
          "name": "operator",
          "type": "address"
        },
        {
          "internalType": "bool",
          "name": "approved",
          "type": "bool"
        }
      ],
      "name": "setApprovalForAllPublic",
      "outputs": [
        {
          "internalType": "int256",
          "name": "responseCode",
          "type": "int256"
        }
      ],
      "stateMutability": "nonpayable",
      "type": "function"
    },
    {
      "inputs": [
        {
          "internalType": "address",
          "name": "account",
          "type": "address"
        },
        {
          "internalType": "address",
          "name": "token",
          "type": "address"
        },
        {
          "internalType": "int64",
          "name": "amount",
          "type": "int64"
        }
      ],
      "name": "transferTokenPublic",
      "outputs": [
        {
          "internalType": "int256",
          "name": "responseCode",
          "type": "int256"
        }
      ],
      "stateMutability": "nonpayable",
      "type": "function"
    },
    {
      "inputs": [
        {
          "internalType": "address",
          "name": "token",
          "type": "address"
        },
        {
          "internalType": "address",
          "name": "account",
          "type": "address"
        }
      ],
      "name": "unfreezeTokenPublic",
      "outputs": [
        {
          "internalType": "int256",
          "name": "responseCode",
          "type": "int256"
        }
      ],
      "stateMutability": "nonpayable",
      "type": "function"
    },
    {
      "inputs": [
        {
          "internalType": "address",
          "name": "token",
          "type": "address"
        }
      ],
      "name": "unpauseToken",
      "outputs": [
        {
          "internalType": "int256",
          "name": "responseCode",
          "type": "int256"
        }
      ],
      "stateMutability": "nonpayable",
      "type": "function"
    },
    {
      "inputs": [
        {
          "internalType": "address",
          "name": "token",
          "type": "address"
        }
      ],
      "name": "unpauseTokenPublic",
      "outputs": [
        {
          "internalType": "int256",
          "name": "responseCode",
          "type": "int256"
        }
      ],
      "stateMutability": "nonpayable",
      "type": "function"
    }
  ],
  "bytecode": "0x60c06040526009608081905268746f6b656e4e616d6560b81b60a09081526200002c9160019190620000c1565b5060408051808201909152600b8082526a1d1bdad95b94de5b589bdb60aa1b60209092019182526200006191600291620000c1565b50604080518082019091526004808252636d656d6f60e01b60209092019182526200008f91600391620000c1565b506103e860048190556005805463ffffffff191690911790556008600655348015620000ba57600080fd5b50620001a4565b828054620000cf9062000167565b90600052602060002090601f016020900481019282620000f357600085556200013e565b82601f106200010e57805160ff19168380011785556200013e565b828001600101855582156200013e579182015b828111156200013e57825182559160200191906001019062000121565b506200014c92915062000150565b5090565b5b808211156200014c576000815560010162000151565b600181811c908216806200017c57607f821691505b602082108114156200019e57634e487b7160e01b600052602260045260246000fd5b50919050565b61460b80620001b46000396000f3fe6080604052600436106101755760003560e01c80637c41ad2c116100cb578063ec855c311161007f578063f4a01e5b11610059578063f4a01e5b14610458578063f7be342514610478578063f848fec41461049857600080fd5b8063ec855c31146103ea578063f25b12001461040a578063f2f38a741461042a57600080fd5b80638070905f116100b05780638070905f146103955780638ba74da0146103c4578063d85f74c1146103d757600080fd5b80637c41ad2c146103555780637d3e5da81461037557600080fd5b80634b5c66871161012d5780635b9076b7116101075780635b9076b7146102d757806369837dc2146103075780636a4dde211461033557600080fd5b80634b5c66871461025f5780634cbdb37b146102745780635a5e6c31146102a257600080fd5b80632b256ec81161015e5780632b256ec8146101f15780632d73bb2e1461021f5780633b3bff0f1461023f57600080fd5b806313c05dd81461017a57806319db44b6146101b4575b600080fd5b34801561018657600080fd5b5061019a610195366004613494565b6104b8565b604080519283529015156020830152015b60405180910390f35b3480156101c057600080fd5b506101d46101cf3660046135c9565b610536565b604080519283526001600160a01b039091166020830152016101ab565b3480156101fd57600080fd5b5061021161020c366004613440565b6105ba565b6040519081526020016101ab565b34801561022b57600080fd5b5061021161023a36600461345c565b6106a6565b34801561024b57600080fd5b5061021161025a366004613440565b6106f1565b61027261026d366004613440565b6107cb565b005b34801561028057600080fd5b5061029461028f36600461359c565b610b31565b6040516101ab929190614211565b3480156102ae57600080fd5b506102c26102bd366004613494565b610ba7565b604080519283526020830191909152016101ab565b3480156102e357600080fd5b506102f76102f2366004613440565b610c18565b6040516101ab9493929190614275565b34801561031357600080fd5b50610327610322366004613440565b610caa565b6040516101ab9291906141f8565b34801561034157600080fd5b5061019a61035036600461345c565b610d2c565b34801561036157600080fd5b50610211610370366004613440565b610da3565b34801561038157600080fd5b5061021161039036600461345c565b610dd1565b3480156103a157600080fd5b506103b56103b03660046135f4565b610ddd565b6040516101ab93929190614243565b6102726103d236600461345c565b610e65565b6102726103e5366004613440565b611321565b3480156103f657600080fd5b5061021161040536600461351d565b61166d565b34801561041657600080fd5b506102116104253660046134de565b61186e565b34801561043657600080fd5b5061044a610445366004613440565b6118b8565b6040516101ab92919061422a565b34801561046457600080fd5b5061021161047336600461345c565b61192d565b34801561048457600080fd5b50610211610493366004613440565b61195a565b3480156104a457600080fd5b506102116104b336600461355c565b611a3d565b6000806104c6858585611a4a565b60405182815291935091506000805160206145b68339815191529060200160405180910390a1601682146104f957600080fd5b60405181151581527e1c2e72360171244b3bb8cc8ddd767820edf37138ad6f129fb3574b407c307d906020015b60405180910390a1935093915050565b6000806105438484611b38565b60405182815291935091506000805160206145b68339815191529060200160405180910390a16016821461057657600080fd5b6040516001600160a01b03821681527fc2c78c7c31baf14949e75c51df12be56edb9af523cf82839c2869bbcf13b3ecb906020015b60405180910390a19250929050565b604051631f106b4b60e21b81526001600160a01b03821660048201526000903090637c41ad2c90602401602060405180830381600087803b1580156105fe57600080fd5b505af1158015610612573d6000803e3d6000fd5b505050506040513d601f19601f820116820180604052508101906106369190613702565b90506000805160206145b68339815191528160405161065791815260200190565b60405180910390a16016811461066c57600080fd5b604051600181527f0c9c765845f4d139956bb8fc8decb2eec6093c9c608b809641b16054b29f0e13906020015b60405180910390a1919050565b60006106b28383611c19565b60070b90506000805160206145b6833981519152816040516106d691815260200190565b60405180910390a1601681146106eb57600080fd5b92915050565b6040516001600160a01b03821660248201526000908190819061016790633b3bff0f60e01b906044015b60408051601f198184030181529181526020820180516001600160e01b03166001600160e01b0319909416939093179092529051610759919061404d565b6000604051808303816000865af19150503d8060008114610796576040519150601f19603f3d011682016040523d82523d6000602084013e61079b565b606091505b5091509150816107ac5760156107c0565b808060200190518101906107c0919061371a565b60030b949350505050565b60408051600280825260608201909252600091816020015b6107eb612bad565b8152602001906001900390816107e357905050905061081e60006006600160405180602001604052806000815250611d15565b8160008151811061083f57634e487b7160e01b600052603260045260246000fd5b60200260200101819052506108666002600160405180602001604052806000815250611d4c565b8160018151811061088757634e487b7160e01b600052603260045260246000fd5b602002602001018190525060006040518060600160405280600063ffffffff168152602001846001600160a01b03168152602001627a120063ffffffff1681525090506000604051806101200160405280600180546108e5906144e7565b80601f0160208091040260200160405190810160405280929190818152602001828054610911906144e7565b801561095e5780601f106109335761010080835404028352916020019161095e565b820191906000526020600020905b81548152906001019060200180831161094157829003601f168201915b5050505050815260200160028054610975906144e7565b80601f01602080910402602001604051908101604052809291908181526020018280546109a1906144e7565b80156109ee5780601f106109c3576101008083540402835291602001916109ee565b820191906000526020600020905b8154815290600101906020018083116109d157829003601f168201915b50505050508152602001856001600160a01b0316815260200160038054610a14906144e7565b80601f0160208091040260200160405190810160405280929190818152602001828054610a40906144e7565b8015610a8d5780601f10610a6257610100808354040283529160200191610a8d565b820191906000526020600020905b815481529060010190602001808311610a7057829003601f168201915b50505091835250506001602082015260055463ffffffff1660408201526000606082018190526080820186905260a090910184905260045460065492935090918291610adb91859190611d81565b909250905060168214610aed57600080fd5b6040516001600160a01b03821681527f7bb17726df1f3adee8aa00ba8e8bc5d6f182af3bbf77604639cb7f008dd3b4ed9060200160405180910390a1505050505050565b6000610b3b612c0a565b610b458484611eaf565b60405182815291935091506000805160206145b68339815191529060200160405180910390a160168214610b7857600080fd5b7fa516f81c528634d0fc1e993bba1d227231b4bd6d1beb72d33b056a6199c0f988816040516105ab919061435e565b600080610bb5858585611fb5565b60405182815291935091506000805160206145b68339815191529060200160405180910390a160168214610be857600080fd5b6040518181527f25b6684a7e8fe1b676e9c39c8dd65034fbafea906d3bdfd97bf748b7b55e14c890602001610526565b60006060806060610c28856120a1565b604051600785900b8152939750919550935091506000805160206145b68339815191529060200160405180910390a1600784900b601614610c6857600080fd5b7f2efc8334b040613a552197fe34283d6ca2909c8ffae393e128424931f20c69b3838383604051610c9b939291906140ec565b60405180910390a19193509193565b6000610cb4612c45565b610cbd836121a1565b60405182815291935091506000805160206145b68339815191529060200160405180910390a160168214610cf057600080fd5b7f476a9a9b28e2717d55288b2ae3c48a72aac52b11f8bd855017c9d41d9fc1896481604051610d1f91906142c2565b60405180910390a1915091565b600080610d39848461228a565b60405160079290920b808352935091506000805160206145b68339815191529060200160405180910390a160168214610d7157600080fd5b60405181151581527f59800d968fcce138300a0019410b4b75041610d65b3cdc5f31656b03ed14912e906020016105ab565b6040516001600160a01b03821660248201526000908190819061016790631f106b4b60e21b9060440161071b565b60006106b2838361236e565b6000806060610ded8686866123bd565b60405183815292955090935091506000805160206145b68339815191529060200160405180910390a160168314610e2357600080fd5b7feff23992f47b3c101679f8b4dc9d3e242c903909dba4a453f2b2341ad463b0e28282604051610e54929190614384565b60405180910390a193509350939050565b604080516001808252818301909252600091816020015b610e84612bad565b815260200190600190039081610e7c579050509050610eb6600080600160405180602001604052806000815250611d15565b81600081518110610ed757634e487b7160e01b600052603260045260246000fd5b602002602001018190525060006040518060600160405280600063ffffffff168152602001856001600160a01b03168152602001627a120063ffffffff168152509050600060405180610120016040528060018054610f35906144e7565b80601f0160208091040260200160405190810160405280929190818152602001828054610f61906144e7565b8015610fae5780601f10610f8357610100808354040283529160200191610fae565b820191906000526020600020905b815481529060010190602001808311610f9157829003601f168201915b5050505050815260200160028054610fc5906144e7565b80601f0160208091040260200160405190810160405280929190818152602001828054610ff1906144e7565b801561103e5780601f106110135761010080835404028352916020019161103e565b820191906000526020600020905b81548152906001019060200180831161102157829003601f168201915b50505050508152602001866001600160a01b0316815260200160038054611064906144e7565b80601f0160208091040260200160405190810160405280929190818152602001828054611090906144e7565b80156110dd5780601f106110b2576101008083540402835291602001916110dd565b820191906000526020600020905b8154815290600101906020018083116110c057829003601f168201915b505050918352505060016020820181905260055463ffffffff166040808401919091526000606084018190526080840188905260a09093018690528051828152808201909152929350909190816020015b6040805160a08101825260008082526020808301829052928201819052606082018190526080820152825260001990920191018161112e5750506040805160a081018252600181526001600160a01b038881166020830152600092820183905260608201839052891660808201528251929350918391906111bf57634e487b7160e01b600052603260045260246000fd5b6020908102919091010152604080516001808252818301909252600091816020015b6040805160c08101825260008082526020808301829052928201819052606082018190526080820181905260a082015282526000199092019101816111e15750506040805160c0810182526004815260056020820152600a91810191909152601e60608201526000608082018190526001600160a01b038a1660a08301528251929350909183919061128357634e487b7160e01b600052603260045260246000fd5b60200260200101819052506000806112a28560045460065487876124bb565b915091506000805160206145b6833981519152826040516112c591815260200190565b60405180910390a1601682146112da57600080fd5b6040516001600160a01b03821681527f7bb17726df1f3adee8aa00ba8e8bc5d6f182af3bbf77604639cb7f008dd3b4ed9060200160405180910390a1505050505050505050565b60408051600380825260808201909252600091816020015b611341612bad565b81526020019060019003908161133957905050905061137460006006600160405180602001604052806000815250611d15565b8160008151811061139557634e487b7160e01b600052603260045260246000fd5b60200260200101819052506113bc6004600160405180602001604052806000815250611d4c565b816001815181106113dd57634e487b7160e01b600052603260045260246000fd5b60200260200101819052506114046002600160405180602001604052806000815250611d4c565b8160028151811061142557634e487b7160e01b600052603260045260246000fd5b602002602001018190525060006040518060600160405280600063ffffffff168152602001846001600160a01b03168152602001627a120063ffffffff168152509050600060405180610120016040528060018054611483906144e7565b80601f01602080910402602001604051908101604052809291908181526020018280546114af906144e7565b80156114fc5780601f106114d1576101008083540402835291602001916114fc565b820191906000526020600020905b8154815290600101906020018083116114df57829003601f168201915b5050505050815260200160028054611513906144e7565b80601f016020809104026020016040519081016040528092919081815260200182805461153f906144e7565b801561158c5780601f106115615761010080835404028352916020019161158c565b820191906000526020600020905b81548152906001019060200180831161156f57829003601f168201915b50505050508152602001856001600160a01b03168152602001600380546115b2906144e7565b80601f01602080910402602001604051908101604052809291908181526020018280546115de906144e7565b801561162b5780601f106116005761010080835404028352916020019161162b565b820191906000526020600020905b81548152906001019060200180831161160e57829003601f168201915b50505091835250506001602082015260055463ffffffff1660408201526000606082018190526080820186905260a090910184905290915080610adb836125ef565b604080516000808252602082019092528190816116b2565b60408051606081018252600080825260208083018290529282015282526000199092019101816116855790505b50905060006040518060400160405280336001600160a01b03168152602001856116db90614522565b600790810b9091526040805180820182526001600160a01b038a1681529187900b602083015280516002808252606082019092529293509091600091816020015b604080518082019091526000808252602082015281526020019060019003908161171c579050509050828160008151811061176757634e487b7160e01b600052603260045260246000fd5b6020026020010181905250818160018151811061179457634e487b7160e01b600052603260045260246000fd5b602090810291909101810191909152604080516060810182526001600160a01b038a16815291820183905281810186905280516001808252818301909252600091816020015b611807604051806060016040528060006001600160a01b0316815260200160608152602001606081525090565b8152602001906001900390816117da579050509050818160008151811061183e57634e487b7160e01b600052603260045260246000fd5b602002602001018190525061185281612705565b96506016871461186157600080fd5b5050505050509392505050565b600061187b84848461272f565b90506000805160206145b68339815191528160405161189c91815260200190565b60405180910390a1601681146118b157600080fd5b9392505050565b60006118c2612c65565b6118cb83612808565b60405182815291935091506000805160206145b68339815191529060200160405180910390a1601682146118fe57600080fd5b7f528c7dcea75f0c9e110a038e50647cd6a70ac06d331399b77dd9a80f903ebc1681604051610d1f9190614371565b600061193983836128f1565b90506000805160206145b6833981519152816040516106d691815260200190565b604051633b3bff0f60e01b81526001600160a01b03821660048201526000903090633b3bff0f90602401602060405180830381600087803b15801561199e57600080fd5b505af11580156119b2573d6000803e3d6000fd5b505050506040513d601f19601f820116820180604052508101906119d69190613702565b90506000805160206145b6833981519152816040516119f791815260200190565b60405180910390a160168114611a0c57600080fd5b604051600181527f319ab7084208e4afa38c6e6ff7aea9587439f2e4700746f4c7d425fea17426d290602001610699565b600061187b848484612940565b604080516001600160a01b0385811660248301528481166044830152831660648083019190915282518083039091018152608490910182526020810180516001600160e01b03167ff49f40db0000000000000000000000000000000000000000000000000000000017905290516000918291829161016791611acc919061404d565b6000604051808303816000865af19150503d8060008114611b09576040519150601f19603f3d011682016040523d82523d6000602084013e611b0e565b606091505b5091505080806020019051810190611b2691906137f4565b60039190910b97909650945050505050565b604080516001600160a01b0384166024820152604480820184905282518083039091018152606490910182526020810180516001600160e01b03167f098f23660000000000000000000000000000000000000000000000000000000017905290516000918291829161016791611bae919061404d565b6000604051808303816000865af19150503d8060008114611beb576040519150601f19603f3d011682016040523d82523d6000602084013e611bf0565b606091505b5091505080806020019051810190611c089190613734565b60039190910b969095509350505050565b6040516001600160a01b0383811660248301528216604482015260009081908190610167907f52f9138700000000000000000000000000000000000000000000000000000000906064015b60408051601f198184030181529181526020820180516001600160e01b03166001600160e01b0319909416939093179092529051611ca2919061404d565b6000604051808303816000865af19150503d8060008114611cdf576040519150601f19603f3d011682016040523d82523d6000602084013e611ce4565b606091505b509150915081611cf5576015611d09565b80806020019051810190611d09919061371a565b60030b95945050505050565b611d1d612bad565b6040518060400160405280611d328787612a32565b8152602001611d418585612a4b565b905295945050505050565b611d54612bad565b6040518060400160405280611d6886612b1b565b8152602001611d778585612a4b565b9052949350505050565b600080848061010001516000015163ffffffff166000148015611db157506101008101516040015163ffffffff16155b15611dc7576101008101516276a7006040909101525b6000806101676001600160a01b031634637812a04b60e01b8a8a8a604051602401611df4939291906142e8565b60408051601f198184030181529181526020820180516001600160e01b03166001600160e01b0319909416939093179092529051611e32919061404d565b60006040518083038185875af1925050503d8060008114611e6f576040519150601f19603f3d011682016040523d82523d6000602084013e611e74565b606091505b509150915081611e875760156000611e9b565b80806020019051810190611e9b9190613734565b60039190910b999098509650505050505050565b6000611eb9612c0a565b604080516001600160a01b0386166024820152600785900b60448083019190915282518083039091018152606490910182526020810180516001600160e01b03167f287e1da8000000000000000000000000000000000000000000000000000000001790529051600091829161016791611f329161404d565b6000604051808303816000865af19150503d8060008114611f6f576040519150601f19603f3d011682016040523d82523d6000602084013e611f74565b606091505b5091509150611f81612c0a565b82611f8e57601581611fa2565b81806020019051810190611fa291906138c2565b60039190910b9890975095505050505050565b604080516001600160a01b0385811660248301528481166044830152831660648083019190915282518083039091018152608490910182526020810180516001600160e01b03167f927da105000000000000000000000000000000000000000000000000000000001790529051600091829182918291610167916120389161404d565b6000604051808303816000865af19150503d8060008114612075576040519150601f19603f3d011682016040523d82523d6000602084013e61207a565b606091505b50915091508161208d5760156000611fa2565b80806020019051810190611fa291906139f1565b604080516001600160a01b03831660248083019190915282518083039091018152604490910182526020810180516001600160e01b03167fae7611a00000000000000000000000000000000000000000000000000000000017905290516000916060918291829185918291610167916121199161404d565b6000604051808303816000865af19150503d8060008114612156576040519150601f19603f3d011682016040523d82523d6000602084013e61215b565b606091505b5091509150606080606084612174576015838383612188565b83806020019051810190612188919061375f565b60039390930b9d919c509a509098509650505050505050565b60006121ab612c45565b604080516001600160a01b03851660248083019190915282518083039091018152604490910182526020810180516001600160e01b03167f3f28a19b00000000000000000000000000000000000000000000000000000000179052905160009182916101679161221a9161404d565b6000604051808303816000865af19150503d8060008114612257576040519150601f19603f3d011682016040523d82523d6000602084013e61225c565b606091505b5091509150612269612c45565b8261227657601581611b26565b81806020019051810190611b26919061381f565b604080516001600160a01b038481166024830152831660448083019190915282518083039091018152606490910182526020810180516001600160e01b03167f46de0fb1000000000000000000000000000000000000000000000000000000001790529051600091829182918291610167916123059161404d565b6000604051808303816000865af19150503d8060008114612342576040519150601f19603f3d011682016040523d82523d6000602084013e612347565b606091505b50915091508161235a5760156000611b26565b80806020019051810190611b2691906137f4565b6040516001600160a01b0383811660248301528216604482015260009081908190610167907f5b8f85840000000000000000000000000000000000000000000000000000000090606401611c64565b60008060606000806101676001600160a01b031663278e0b8860e01b8989896040516024016123ee93929190614069565b60408051601f198184030181529181526020820180516001600160e01b03166001600160e01b031990941693909317909252905161242c919061404d565b6000604051808303816000865af19150503d8060008114612469576040519150601f19603f3d011682016040523d82523d6000602084013e61246e565b606091505b5091509150816124915760408051600080825260208201909252601591906124a5565b808060200190518101906124a59190613a1c565b60039290920b9a90995090975095505050505050565b600080868061010001516000015163ffffffff1660001480156124eb57506101008101516040015163ffffffff16155b15612501576101008101516276a7006040909101525b6000806101676001600160a01b031634634c381ae760e01b8c8c8c8c8c60405160240161253295949392919061430d565b60408051601f198184030181529181526020820180516001600160e01b03166001600160e01b0319909416939093179092529051612570919061404d565b60006040518083038185875af1925050503d80600081146125ad576040519150601f19603f3d011682016040523d82523d6000602084013e6125b2565b606091505b5091509150816125c557601560006125d9565b808060200190518101906125d99190613734565b60039190910b9b909a5098505050505050505050565b600080828061010001516000015163ffffffff16600014801561261f57506101008101516040015163ffffffff16155b15612635576101008101516276a7006040909101525b6000806101676001600160a01b031634639dc711e060e01b8860405160240161265e91906142d5565b60408051601f198184030181529181526020820180516001600160e01b03166001600160e01b031990941693909317909252905161269c919061404d565b60006040518083038185875af1925050503d80600081146126d9576040519150601f19603f3d011682016040523d82523d6000602084013e6126de565b606091505b5091509150816126f15760156000611b26565b80806020019051810190611b269190613734565b60008060006101676001600160a01b031663189a554c60e01b8560405160240161071b9190614125565b604080516001600160a01b0385811660248301528416604482015282151560648083019190915282518083039091018152608490910182526020810180516001600160e01b03167f367605ca0000000000000000000000000000000000000000000000000000000017905290516000918291610167916127ae9161404d565b6000604051808303816000865af19150503d80600081146127eb576040519150601f19603f3d011682016040523d82523d6000602084013e6127f0565b606091505b5091505080806020019051810190611d09919061371a565b6000612812612c65565b604080516001600160a01b03851660248083019190915282518083039091018152604490910182526020810180516001600160e01b03167f1f69565f0000000000000000000000000000000000000000000000000000000017905290516000918291610167916128819161404d565b6000604051808303816000865af19150503d80600081146128be576040519150601f19603f3d011682016040523d82523d6000602084013e6128c3565b606091505b50915091506128d0612c65565b826128dd57601581611b26565b81806020019051810190611b2691906139a5565b6040516001600160a01b0383811660248301528216604482015260009081908190610167907f49146bde0000000000000000000000000000000000000000000000000000000090606401611c64565b604080516001600160a01b03858116602483015284166044820152606480820184905282518083039091018152608490910182526020810180516001600160e01b03167fe1f21c6700000000000000000000000000000000000000000000000000000000179052905160009182918291610167916129be919061404d565b6000604051808303816000865af19150503d80600081146129fb576040519150601f19603f3d011682016040523d82523d6000602084013e612a00565b606091505b509150915081612a11576015612a25565b80806020019051810190612a25919061371a565b60030b9695505050505050565b6000600160ff84161b9050600160ff83161b81176118b1565b612a916040518060a0016040528060001515815260200160006001600160a01b03168152602001606081526020016060815260200160006001600160a01b031681525090565b8260ff1660011415612aa657600181526106eb565b8260ff1660021415612ac8576000546001600160a01b031660208201526106eb565b8260ff1660031415612ae057604081018290526106eb565b8260ff1660041415612af857606081018290526106eb565b8260ff16600514156106eb576000546001600160a01b0316608082015292915050565b600060ff8216612b2d57506001919050565b8160ff1660011415612b4157506002919050565b8160ff1660021415612b5557506004919050565b8160ff1660031415612b6957506008919050565b8160ff1660041415612b7d57506010919050565b8160ff1660051415612b9157506020919050565b8160ff1660061415612ba557506040919050565b506000919050565b604051806040016040528060008152602001612c056040518060a0016040528060001515815260200160006001600160a01b03168152602001606081526020016060815260200160006001600160a01b031681525090565b905290565b6040518060c00160405280612c1d612c65565b8152600060208201819052604082018190526060808301829052608083015260a09091015290565b6040518060400160405280612c58612c65565b8152600060209091015290565b60408051610240810182526060610120820181815261014083018290526000610160840181905261018084018390526101a084018190526101c084018190526101e0840181905261020084018390528451928301855280835260208301819052938201939093526102208201529081908152602001600067ffffffffffffffff168152602001600015158152602001600015158152602001600015158152602001606081526020016060815260200160608152602001606081525090565b8051612d2e8161456a565b919050565b600082601f830112612d43578081fd5b81516020612d58612d538361446b565b61443a565b8281528181019085830160a080860288018501891015612d76578687fd5b865b86811015612dfd5781838b031215612d8e578788fd5b612d966143a7565b612d9f84613421565b815286840151612dae8161456a565b81880152604084810151612dc181614582565b90820152606084810151612dd481614582565b90820152608084810151612de78161456a565b9082015285529385019391810191600101612d78565b509198975050505050505050565b600082601f830112612e1b578081fd5b81516020612e2b612d538361446b565b8281528181019085830160c080860288018501891015612e49578687fd5b865b86811015612dfd5781838b031215612e61578788fd5b612e696143d0565b612e7284613421565b8152612e7f878501613421565b878201526040612e90818601613421565b908201526060612ea1858201613421565b90820152608084810151612eb481614582565b9082015260a084810151612ec78161456a565b9082015285529385019391810191600101612e4b565b600082601f830112612eed578081fd5b81516020612efd612d538361446b565b8281528181019085830160c080860288018501891015612f1b578687fd5b865b86811015612dfd5781838b031215612f33578788fd5b612f3b6143d0565b612f4484613421565b8152612f51878501613421565b878201526040612f62818601613421565b90820152606084810151612f758161456a565b90820152608084810151612f8881614582565b9082015260a084810151612f9b8161456a565b9082015285529385019391810191600101612f1d565b600082601f830112612fc1578081fd5b81516020612fd1612d538361446b565b80838252828201915082860187848660051b8901011115612ff0578586fd5b855b858110156130fd57815167ffffffffffffffff80821115613011578889fd5b90890190601f196040838d038201121561302957898afd5b6130316143f3565b888401518152604084015183811115613048578b8cfd5b939093019260a0848e038301121561305e578a8bfd5b6130666143a7565b91508884015161307581614582565b825261308360408501612d23565b89830152606084015183811115613098578b8cfd5b6130a68e8b83880101613115565b6040840152506080840151838111156130bd578b8cfd5b6130cb8e8b83880101613115565b6060840152506130dd60a08501612d23565b608083015280890191909152865250509284019290840190600101612ff2565b5090979650505050505050565b8051612d2e81614582565b600082601f830112613125578081fd5b8151613133612d538261448f565b818152846020838601011115613147578283fd5b6131588260208301602087016144b7565b949350505050565b8051600381900b8114612d2e57600080fd5b8051612d2e81614590565b60006060828403121561318e578081fd5b6040516060810181811067ffffffffffffffff821117156131b1576131b1614554565b6040529050806131c083613421565b815260208301516131d08161456a565b60208201526131e160408401613421565b60408201525092915050565b600061016082840312156131ff578081fd5b613207614416565b9050815167ffffffffffffffff8082111561322157600080fd5b61322d85838601613115565b8352602084015191508082111561324357600080fd5b61324f85838601613115565b602084015261326060408501612d23565b6040840152606084015191508082111561327957600080fd5b61328585838601613115565b60608401526132966080850161310a565b60808401526132a760a08501613421565b60a08401526132b860c0850161310a565b60c084015260e08401519150808211156132d157600080fd5b506132de84828501612fb1565b60e0830152506101006132f38482850161317d565b9082015292915050565b6000610120828403121561330f578081fd5b613317614416565b9050815167ffffffffffffffff8082111561333157600080fd5b61333d858386016131ed565b835261334b60208501613435565b602084015261335c6040850161310a565b604084015261336d6060850161310a565b606084015261337e6080850161310a565b608084015260a084015191508082111561339757600080fd5b6133a385838601612d33565b60a084015260c08401519150808211156133bc57600080fd5b6133c885838601612e0b565b60c084015260e08401519150808211156133e157600080fd5b6133ed85838601612edd565b60e08401526101009150818401518181111561340857600080fd5b61341486828701613115565b8385015250505092915050565b805163ffffffff81168114612d2e57600080fd5b8051612d2e8161459f565b600060208284031215613451578081fd5b81356118b18161456a565b6000806040838503121561346e578081fd5b82356134798161456a565b915060208301356134898161456a565b809150509250929050565b6000806000606084860312156134a8578081fd5b83356134b38161456a565b925060208401356134c38161456a565b915060408401356134d38161456a565b809150509250925092565b6000806000606084860312156134f2578081fd5b83356134fd8161456a565b9250602084013561350d8161456a565b915060408401356134d381614582565b600080600060608486031215613531578081fd5b833561353c8161456a565b9250602084013561354c8161456a565b915060408401356134d381614590565b600080600060608486031215613570578081fd5b833561357b8161456a565b9250602084013561358b8161456a565b929592945050506040919091013590565b600080604083850312156135ae578182fd5b82356135b98161456a565b9150602083013561348981614590565b600080604083850312156135db578182fd5b82356135e68161456a565b946020939093013593505050565b600080600060608486031215613608578081fd5b83356136138161456a565b92506020848101356136248161459f565b9250604085013567ffffffffffffffff80821115613640578384fd5b818701915087601f830112613653578384fd5b8135613661612d538261446b565b8082825285820191508585018b878560051b8801011115613680578788fd5b875b848110156136f05781358681111561369857898afd5b8701603f81018e136136a857898afd5b888101356136b8612d538261448f565b8181528f60408385010111156136cc578b8cfd5b81604084018c8301379081018a018b90528552509287019290870190600101613682565b50508096505050505050509250925092565b600060208284031215613713578081fd5b5051919050565b60006020828403121561372b578081fd5b6118b182613160565b60008060408385031215613746578182fd5b61374f83613160565b915060208301516134898161456a565b60008060008060808587031215613774578182fd5b61377d85613160565b9350602085015167ffffffffffffffff80821115613799578384fd5b6137a588838901612d33565b945060408701519150808211156137ba578384fd5b6137c688838901612e0b565b935060608701519150808211156137db578283fd5b506137e887828801612edd565b91505092959194509250565b60008060408385031215613806578182fd5b61380f83613160565b9150602083015161348981614582565b60008060408385031215613831578182fd5b61383a83613160565b9150602083015167ffffffffffffffff80821115613856578283fd5b9084019060408287031215613869578283fd5b60405160408101818110838211171561388457613884614554565b604052825182811115613895578485fd5b6138a1888286016132fd565b8252506138b060208401613421565b60208201528093505050509250929050565b600080604083850312156138d4578182fd5b6138dd83613160565b9150602083015167ffffffffffffffff808211156138f9578283fd5b9084019060c0828703121561390c578283fd5b6139146143d0565b825182811115613922578485fd5b61392e888286016132fd565b82525061393d60208401613172565b602082015261394e60408401612d23565b604082015261395f60608401613172565b6060820152608083015182811115613975578485fd5b61398188828601613115565b60808301525061399360a08401612d23565b60a08201528093505050509250929050565b600080604083850312156139b7578182fd5b6139c083613160565b9150602083015167ffffffffffffffff8111156139db578182fd5b6139e7858286016132fd565b9150509250929050565b60008060408385031215613a03578182fd5b613a0c83613160565b9150602083015190509250929050565b600080600060608486031215613a30578081fd5b613a3984613160565b9250602080850151613a4a8161459f565b604086015190935067ffffffffffffffff811115613a66578283fd5b8501601f81018713613a76578283fd5b8051613a84612d538261446b565b8082825284820191508484018a868560051b8701011115613aa3578687fd5b8694505b83851015613ace578051613aba81614590565b835260019490940193918501918501613aa7565b5080955050505050509250925092565b6000815180845260208085019450808401835b83811015613b1057815160070b87529582019590820190600101613af1565b509495945050505050565b6000815180845260208085019450808401835b83811015613b10578151805163ffffffff168852838101516001600160a01b03908116858a01526040808301511515908a01526060808301511515908a0152608091820151169088015260a09096019590820190600101613b2e565b6000815180845260208085019450808401835b83811015613b10578151805163ffffffff9081168952848201518116858a01526040808301518216908a01526060808301519091169089015260808082015115159089015260a0908101516001600160a01b03169088015260c09096019590820190600101613b9d565b6000815180845260208085019450808401835b83811015613b1057815180516001600160a01b03908116895284820151168489015260409081015160070b9088015260609096019590820190600101613c1a565b6000815180845260208085019450808401835b83811015613b10578151805163ffffffff9081168952848201518116858a0152604080830151909116908901526060808201516001600160a01b03908116918a01919091526080808301511515908a015260a091820151169088015260c09096019590820190600101613c6e565b600082825180855260208086019550808260051b840101818601855b848110156130fd57601f198684030189528151604081518552858201519150808686015281511515818601528582015160606001600160a01b038083168289015283850151935060a09250608083818a0152613d5760e08a0186613d95565b92860151898403603f1901858b0152929450613d738584613d95565b9501511660c09790970196909652505098840198925090830190600101613cf8565b60008151808452613dad8160208601602086016144b7565b601f01601f19169290920160200192915050565b6000815160408452613dd66040850182613f6c565b60209384015163ffffffff16949093019390935250919050565b60006101608251818552613e0682860182613d95565b91505060208301518482036020860152613e208282613d95565b9150506040830151613e3d60408601826001600160a01b03169052565b5060608301518482036060860152613e558282613d95565b9150506080830151613e6b608086018215159052565b5060a0830151613e8360a086018263ffffffff169052565b5060c0830151613e9760c086018215159052565b5060e083015184820360e0860152613eaf8282613cdc565b61010085810151805163ffffffff9081168984015260208201516001600160a01b03166101208a015260408201511661014089015291935091505090949350505050565b6000815160c08452613f0860c0850182613f6c565b9050602083015160070b602085015260408301516001600160a01b038082166040870152606085015160070b6060870152608085015191508583036080870152613f528383613d95565b92508060a08601511660a087015250508091505092915050565b60006101208251818552613f8282860182613df0565b9150506020830151613fa0602086018267ffffffffffffffff169052565b506040830151613fb4604086018215159052565b506060830151613fc8606086018215159052565b506080830151613fdc608086018215159052565b5060a083015184820360a0860152613ff48282613b1b565b91505060c083015184820360c086015261400e8282613b8a565b91505060e083015184820360e08601526140288282613c5b565b91505061010080840151858303828701526140438382613d95565b9695505050505050565b6000825161405f8184602087016144b7565b9190910192915050565b6000606082016001600160a01b0386168352602067ffffffffffffffff8616818501526060604085015281855180845260808601915060808160051b8701019350828701855b828110156140dd57607f198887030184526140cb868351613d95565b955092840192908401906001016140af565b50939998505050505050505050565b6060815260006140ff6060830186613b1b565b82810360208401526141118186613b8a565b905082810360408401526140438185613c5b565b60006020808301818452808551808352604092508286019150828160051b870101848801865b838110156141ea57888303603f19018552815180516001600160a01b0390811685528882015160608a870181905281519087018190526080870192918b0191908c905b808210156141bc5783518051841686528d015160070b8d860152938b0193928c01926001919091019061418e565b505050509087015184820385890152906141d68183613c07565b96890196945050509086019060010161414b565b509098975050505050505050565b8281526040602082015260006131586040830184613dc1565b8281526040602082015260006131586040830184613ef3565b8281526040602082015260006131586040830184613f6c565b83815267ffffffffffffffff8316602082015260606040820152600061426c6060830184613ade565b95945050505050565b8460070b81526080602082015260006142916080830186613b1b565b82810360408401526142a38186613b8a565b905082810360608401526142b78185613c5b565b979650505050505050565b6020815260006118b16020830184613dc1565b6020815260006118b16020830184613df0565b6060815260006142fb6060830186613df0565b60208301949094525060400152919050565b60a08152600061432060a0830188613df0565b866020840152856040840152828103606084015261433e8186613b1b565b905082810360808401526143528185613b8a565b98975050505050505050565b6020815260006118b16020830184613ef3565b6020815260006118b16020830184613f6c565b67ffffffffffffffff831681526040602082015260006131586040830184613ade565b60405160a0810167ffffffffffffffff811182821017156143ca576143ca614554565b60405290565b60405160c0810167ffffffffffffffff811182821017156143ca576143ca614554565b6040805190810167ffffffffffffffff811182821017156143ca576143ca614554565b604051610120810167ffffffffffffffff811182821017156143ca576143ca614554565b604051601f8201601f1916810167ffffffffffffffff8111828210171561446357614463614554565b604052919050565b600067ffffffffffffffff82111561448557614485614554565b5060051b60200190565b600067ffffffffffffffff8211156144a9576144a9614554565b50601f01601f191660200190565b60005b838110156144d25781810151838201526020016144ba565b838111156144e1576000848401525b50505050565b600181811c908216806144fb57607f821691505b6020821081141561451c57634e487b7160e01b600052602260045260246000fd5b50919050565b60008160070b677fffffffffffffff1981141561454d57634e487b7160e01b82526011600452602482fd5b9003919050565b634e487b7160e01b600052604160045260246000fd5b6001600160a01b038116811461457f57600080fd5b50565b801515811461457f57600080fd5b8060070b811461457f57600080fd5b67ffffffffffffffff8116811461457f57600080fdfe90a5cf4cffe88b4edbb041cfc7a8a812c48a5ec30b84640fb37690875168e3aaa26469706673582212207bb143a2829a6ff4f0ffb82f269a1228e5609ce46f5e17e43a83e6313a4f4cb864736f6c63430008040033",
  "linkReferences": {},
  "deployedLinkReferences": {}
}