{
  "_format": "hh-sol-artifact-1",
  "contractName": "BaseHTS",
  "sourceName": "contracts/BaseHTS.sol",
  "abi": [
    {
      "anonymous": false,
      "inputs": [
        {
          "indexed": false,
          "internalType": "uint256",
          "name": "amount",
          "type": "uint256"
        }
      ],
      "name": "AllowanceValue",
      "type": "event"
    },
    {
      "anonymous": false,
      "inputs": [
        {
          "indexed": false,
          "internalType": "bool",
          "name": "approved",
          "type": "bool"
        }
      ],
      "name": "Approved",
      "type": "event"
    },
    {
      "anonymous": false,
      "inputs": [
        {
          "indexed": false,
          "internalType": "address",
          "name": "approved",
          "type": "address"
        }
      ],
      "name": "ApprovedAddress",
      "type": "event"
    },
    {
      "anonymous": false,
      "inputs": [
        {
          "indexed": false,
          "internalType": "address",
          "name": "tokenAddress",
          "type": "address"
        }
      ],
      "name": "CreatedToken",
      "type": "event"
    },
    {
      "anonymous": false,
      "inputs": [
        {
          "indexed": false,
          "internalType": "bool",
          "name": "freezeStatus",
          "type": "bool"
        }
      ],
      "name": "DefaultFreezeStatusChanged",
      "type": "event"
    },
    {
      "anonymous": false,
      "inputs": [
        {
          "indexed": false,
          "internalType": "bool",
          "name": "frozen",
          "type": "bool"
        }
      ],
      "name": "Frozen",
      "type": "event"
    },
    {
      "anonymous": false,
      "inputs": [
        {
          "components": [
            {
              "components": [
                {
                  "components": [
                    {
                      "internalType": "string",
                      "name": "name",
                      "type": "string"
                    },
                    {
                      "internalType": "string",
                      "name": "symbol",
                      "type": "string"
                    },
                    {
                      "internalType": "address",
                      "name": "treasury",
                      "type": "address"
                    },
                    {
                      "internalType": "string",
                      "name": "memo",
                      "type": "string"
                    },
                    {
                      "internalType": "bool",
                      "name": "tokenSupplyType",
                      "type": "bool"
                    },
                    {
                      "internalType": "int64",
                      "name": "maxSupply",
                      "type": "int64"
                    },
                    {
                      "internalType": "bool",
                      "name": "freezeDefault",
                      "type": "bool"
                    },
                    {
                      "components": [
                        {
                          "internalType": "uint256",
                          "name": "keyType",
                          "type": "uint256"
                        },
                        {
                          "components": [
                            {
                              "internalType": "bool",
                              "name": "inheritAccountKey",
                              "type": "bool"
                            },
                            {
                              "internalType": "address",
                              "name": "contractId",
                              "type": "address"
                            },
                            {
                              "internalType": "bytes",
                              "name": "ed25519",
                              "type": "bytes"
                            },
                            {
                              "internalType": "bytes",
                              "name": "ECDSA_secp256k1",
                              "type": "bytes"
                            },
                            {
                              "internalType": "address",
                              "name": "delegatableContractId",
                              "type": "address"
                            }
                          ],
                          "internalType": "struct IHederaTokenService.KeyValue",
                          "name": "key",
                          "type": "tuple"
                        }
                      ],
                      "internalType": "struct IHederaTokenService.TokenKey[]",
                      "name": "tokenKeys",
                      "type": "tuple[]"
                    },
                    {
                      "components": [
                        {
                          "internalType": "uint32",
                          "name": "second",
                          "type": "uint32"
                        },
                        {
                          "internalType": "address",
                          "name": "autoRenewAccount",
                          "type": "address"
                        },
                        {
                          "internalType": "uint32",
                          "name": "autoRenewPeriod",
                          "type": "uint32"
                        }
                      ],
                      "internalType": "struct IHederaTokenService.Expiry",
                      "name": "expiry",
                      "type": "tuple"
                    }
                  ],
                  "internalType": "struct IHederaTokenService.HederaToken",
                  "name": "token",
                  "type": "tuple"
                },
                {
                  "internalType": "uint64",
                  "name": "totalSupply",
                  "type": "uint64"
                },
                {
                  "internalType": "bool",
                  "name": "deleted",
                  "type": "bool"
                },
                {
                  "internalType": "bool",
                  "name": "defaultKycStatus",
                  "type": "bool"
                },
                {
                  "internalType": "bool",
                  "name": "pauseStatus",
                  "type": "bool"
                },
                {
                  "components": [
                    {
                      "internalType": "uint32",
                      "name": "amount",
                      "type": "uint32"
                    },
                    {
                      "internalType": "address",
                      "name": "tokenId",
                      "type": "address"
                    },
                    {
                      "internalType": "bool",
                      "name": "useHbarsForPayment",
                      "type": "bool"
                    },
                    {
                      "internalType": "bool",
                      "name": "useCurrentTokenForPayment",
                      "type": "bool"
                    },
                    {
                      "internalType": "address",
                      "name": "feeCollector",
                      "type": "address"
                    }
                  ],
                  "internalType": "struct IHederaTokenService.FixedFee[]",
                  "name": "fixedFees",
                  "type": "tuple[]"
                },
                {
                  "components": [
                    {
                      "internalType": "uint32",
                      "name": "numerator",
                      "type": "uint32"
                    },
                    {
                      "internalType": "uint32",
                      "name": "denominator",
                      "type": "uint32"
                    },
                    {
                      "internalType": "uint32",
                      "name": "minimumAmount",
                      "type": "uint32"
                    },
                    {
                      "internalType": "uint32",
                      "name": "maximumAmount",
                      "type": "uint32"
                    },
                    {
                      "internalType": "bool",
                      "name": "netOfTransfers",
                      "type": "bool"
                    },
                    {
                      "internalType": "address",
                      "name": "feeCollector",
                      "type": "address"
                    }
                  ],
                  "internalType": "struct IHederaTokenService.FractionalFee[]",
                  "name": "fractionalFees",
                  "type": "tuple[]"
                },
                {
                  "components": [
                    {
                      "internalType": "uint32",
                      "name": "numerator",
                      "type": "uint32"
                    },
                    {
                      "internalType": "uint32",
                      "name": "denominator",
                      "type": "uint32"
                    },
                    {
                      "internalType": "uint32",
                      "name": "amount",
                      "type": "uint32"
                    },
                    {
                      "internalType": "address",
                      "name": "tokenId",
                      "type": "address"
                    },
                    {
                      "internalType": "bool",
                      "name": "useHbarsForPayment",
                      "type": "bool"
                    },
                    {
                      "internalType": "address",
                      "name": "feeCollector",
                      "type": "address"
                    }
                  ],
                  "internalType": "struct IHederaTokenService.RoyaltyFee[]",
                  "name": "royaltyFees",
                  "type": "tuple[]"
                },
                {
                  "internalType": "string",
                  "name": "ledgerId",
                  "type": "string"
                }
              ],
              "internalType": "struct IHederaTokenService.TokenInfo",
              "name": "tokenInfo",
              "type": "tuple"
            },
            {
              "internalType": "uint32",
              "name": "decimals",
              "type": "uint32"
            }
          ],
          "indexed": false,
          "internalType": "struct IHederaTokenService.FungibleTokenInfo",
          "name": "tokenInfo",
          "type": "tuple"
        }
      ],
      "name": "FungibleTokenInfo",
      "type": "event"
    },
    {
      "anonymous": false,
      "inputs": [
        {
          "indexed": false,
          "internalType": "bool",
          "name": "kycGranted",
          "type": "bool"
        }
      ],
      "name": "KycGranted",
      "type": "event"
    },
    {
      "anonymous": false,
      "inputs": [
        {
          "indexed": false,
          "internalType": "uint64",
          "name": "newTotalSupply",
          "type": "uint64"
        },
        {
          "indexed": false,
          "internalType": "int64[]",
          "name": "serialNumbers",
          "type": "int64[]"
        }
      ],
      "name": "MintedToken",
      "type": "event"
    },
    {
      "anonymous": false,
      "inputs": [
        {
          "components": [
            {
              "components": [
                {
                  "components": [
                    {
                      "internalType": "string",
                      "name": "name",
                      "type": "string"
                    },
                    {
                      "internalType": "string",
                      "name": "symbol",
                      "type": "string"
                    },
                    {
                      "internalType": "address",
                      "name": "treasury",
                      "type": "address"
                    },
                    {
                      "internalType": "string",
                      "name": "memo",
                      "type": "string"
                    },
                    {
                      "internalType": "bool",
                      "name": "tokenSupplyType",
                      "type": "bool"
                    },
                    {
                      "internalType": "int64",
                      "name": "maxSupply",
                      "type": "int64"
                    },
                    {
                      "internalType": "bool",
                      "name": "freezeDefault",
                      "type": "bool"
                    },
                    {
                      "components": [
                        {
                          "internalType": "uint256",
                          "name": "keyType",
                          "type": "uint256"
                        },
                        {
                          "components": [
                            {
                              "internalType": "bool",
                              "name": "inheritAccountKey",
                              "type": "bool"
                            },
                            {
                              "internalType": "address",
                              "name": "contractId",
                              "type": "address"
                            },
                            {
                              "internalType": "bytes",
                              "name": "ed25519",
                              "type": "bytes"
                            },
                            {
                              "internalType": "bytes",
                              "name": "ECDSA_secp256k1",
                              "type": "bytes"
                            },
                            {
                              "internalType": "address",
                              "name": "delegatableContractId",
                              "type": "address"
                            }
                          ],
                          "internalType": "struct IHederaTokenService.KeyValue",
                          "name": "key",
                          "type": "tuple"
                        }
                      ],
                      "internalType": "struct IHederaTokenService.TokenKey[]",
                      "name": "tokenKeys",
                      "type": "tuple[]"
                    },
                    {
                      "components": [
                        {
                          "internalType": "uint32",
                          "name": "second",
                          "type": "uint32"
                        },
                        {
                          "internalType": "address",
                          "name": "autoRenewAccount",
                          "type": "address"
                        },
                        {
                          "internalType": "uint32",
                          "name": "autoRenewPeriod",
                          "type": "uint32"
                        }
                      ],
                      "internalType": "struct IHederaTokenService.Expiry",
                      "name": "expiry",
                      "type": "tuple"
                    }
                  ],
                  "internalType": "struct IHederaTokenService.HederaToken",
                  "name": "token",
                  "type": "tuple"
                },
                {
                  "internalType": "uint64",
                  "name": "totalSupply",
                  "type": "uint64"
                },
                {
                  "internalType": "bool",
                  "name": "deleted",
                  "type": "bool"
                },
                {
                  "internalType": "bool",
                  "name": "defaultKycStatus",
                  "type": "bool"
                },
                {
                  "internalType": "bool",
                  "name": "pauseStatus",
                  "type": "bool"
                },
                {
                  "components": [
                    {
                      "internalType": "uint32",
                      "name": "amount",
                      "type": "uint32"
                    },
                    {
                      "internalType": "address",
                      "name": "tokenId",
                      "type": "address"
                    },
                    {
                      "internalType": "bool",
                      "name": "useHbarsForPayment",
                      "type": "bool"
                    },
                    {
                      "internalType": "bool",
                      "name": "useCurrentTokenForPayment",
                      "type": "bool"
                    },
                    {
                      "internalType": "address",
                      "name": "feeCollector",
                      "type": "address"
                    }
                  ],
                  "internalType": "struct IHederaTokenService.FixedFee[]",
                  "name": "fixedFees",
                  "type": "tuple[]"
                },
                {
                  "components": [
                    {
                      "internalType": "uint32",
                      "name": "numerator",
                      "type": "uint32"
                    },
                    {
                      "internalType": "uint32",
                      "name": "denominator",
                      "type": "uint32"
                    },
                    {
                      "internalType": "uint32",
                      "name": "minimumAmount",
                      "type": "uint32"
                    },
                    {
                      "internalType": "uint32",
                      "name": "maximumAmount",
                      "type": "uint32"
                    },
                    {
                      "internalType": "bool",
                      "name": "netOfTransfers",
                      "type": "bool"
                    },
                    {
                      "internalType": "address",
                      "name": "feeCollector",
                      "type": "address"
                    }
                  ],
                  "internalType": "struct IHederaTokenService.FractionalFee[]",
                  "name": "fractionalFees",
                  "type": "tuple[]"
                },
                {
                  "components": [
                    {
                      "internalType": "uint32",
                      "name": "numerator",
                      "type": "uint32"
                    },
                    {
                      "internalType": "uint32",
                      "name": "denominator",
                      "type": "uint32"
                    },
                    {
                      "internalType": "uint32",
                      "name": "amount",
                      "type": "uint32"
                    },
                    {
                      "internalType": "address",
                      "name": "tokenId",
                      "type": "address"
                    },
                    {
                      "internalType": "bool",
                      "name": "useHbarsForPayment",
                      "type": "bool"
                    },
                    {
                      "internalType": "address",
                      "name": "feeCollector",
                      "type": "address"
                    }
                  ],
                  "internalType": "struct IHederaTokenService.RoyaltyFee[]",
                  "name": "royaltyFees",
                  "type": "tuple[]"
                },
                {
                  "internalType": "string",
                  "name": "ledgerId",
                  "type": "string"
                }
              ],
              "internalType": "struct IHederaTokenService.TokenInfo",
              "name": "tokenInfo",
              "type": "tuple"
            },
            {
              "internalType": "int64",
              "name": "serialNumber",
              "type": "int64"
            },
            {
              "internalType": "address",
              "name": "ownerId",
              "type": "address"
            },
            {
              "internalType": "int64",
              "name": "creationTime",
              "type": "int64"
            },
            {
              "internalType": "bytes",
              "name": "metadata",
              "type": "bytes"
            },
            {
              "internalType": "address",
              "name": "spenderId",
              "type": "address"
            }
          ],
          "indexed": false,
          "internalType": "struct IHederaTokenService.NonFungibleTokenInfo",
          "name": "tokenInfo",
          "type": "tuple"
        }
      ],
      "name": "NonFungibleTokenInfo",
      "type": "event"
    },
    {
      "anonymous": false,
      "inputs": [
        {
          "indexed": false,
          "internalType": "bool",
          "name": "paused",
          "type": "bool"
        }
      ],
      "name": "PausedToken",
      "type": "event"
    },
    {
      "anonymous": false,
      "inputs": [
        {
          "indexed": false,
          "internalType": "int256",
          "name": "responseCode",
          "type": "int256"
        }
      ],
      "name": "ResponseCode",
      "type": "event"
    },
    {
      "anonymous": false,
      "inputs": [
        {
          "components": [
            {
              "internalType": "uint32",
              "name": "amount",
              "type": "uint32"
            },
            {
              "internalType": "address",
              "name": "tokenId",
              "type": "address"
            },
            {
              "internalType": "bool",
              "name": "useHbarsForPayment",
              "type": "bool"
            },
            {
              "internalType": "bool",
              "name": "useCurrentTokenForPayment",
              "type": "bool"
            },
            {
              "internalType": "address",
              "name": "feeCollector",
              "type": "address"
            }
          ],
          "indexed": false,
          "internalType": "struct IHederaTokenService.FixedFee[]",
          "name": "fixedFees",
          "type": "tuple[]"
        },
        {
          "components": [
            {
              "internalType": "uint32",
              "name": "numerator",
              "type": "uint32"
            },
            {
              "internalType": "uint32",
              "name": "denominator",
              "type": "uint32"
            },
            {
              "internalType": "uint32",
              "name": "minimumAmount",
              "type": "uint32"
            },
            {
              "internalType": "uint32",
              "name": "maximumAmount",
              "type": "uint32"
            },
            {
              "internalType": "bool",
              "name": "netOfTransfers",
              "type": "bool"
            },
            {
              "internalType": "address",
              "name": "feeCollector",
              "type": "address"
            }
          ],
          "indexed": false,
          "internalType": "struct IHederaTokenService.FractionalFee[]",
          "name": "fractionalFees",
          "type": "tuple[]"
        },
        {
          "components": [
            {
              "internalType": "uint32",
              "name": "numerator",
              "type": "uint32"
            },
            {
              "internalType": "uint32",
              "name": "denominator",
              "type": "uint32"
            },
            {
              "internalType": "uint32",
              "name": "amount",
              "type": "uint32"
            },
            {
              "internalType": "address",
              "name": "tokenId",
              "type": "address"
            },
            {
              "internalType": "bool",
              "name": "useHbarsForPayment",
              "type": "bool"
            },
            {
              "internalType": "address",
              "name": "feeCollector",
              "type": "address"
            }
          ],
          "indexed": false,
          "internalType": "struct IHederaTokenService.RoyaltyFee[]",
          "name": "royaltyFees",
          "type": "tuple[]"
        }
      ],
      "name": "TokenCustomFees",
      "type": "event"
    },
    {
      "anonymous": false,
      "inputs": [
        {
          "indexed": false,
          "internalType": "bool",
          "name": "defaultFreezeStatus",
          "type": "bool"
        }
      ],
      "name": "TokenDefaultFreezeStatus",
      "type": "event"
    },
    {
      "anonymous": false,
      "inputs": [
        {
          "indexed": false,
          "internalType": "bool",
          "name": "defaultKycStatus",
          "type": "bool"
        }
      ],
      "name": "TokenDefaultKycStatus",
      "type": "event"
    },
    {
      "anonymous": false,
      "inputs": [
        {
          "components": [
            {
              "internalType": "uint32",
              "name": "second",
              "type": "uint32"
            },
            {
              "internalType": "address",
              "name": "autoRenewAccount",
              "type": "address"
            },
            {
              "internalType": "uint32",
              "name": "autoRenewPeriod",
              "type": "uint32"
            }
          ],
          "indexed": false,
          "internalType": "struct IHederaTokenService.Expiry",
          "name": "expiryInfo",
          "type": "tuple"
        }
      ],
      "name": "TokenExpiryInfo",
      "type": "event"
    },
    {
      "anonymous": false,
      "inputs": [
        {
          "components": [
            {
              "components": [
                {
                  "internalType": "string",
                  "name": "name",
                  "type": "string"
                },
                {
                  "internalType": "string",
                  "name": "symbol",
                  "type": "string"
                },
                {
                  "internalType": "address",
                  "name": "treasury",
                  "type": "address"
                },
                {
                  "internalType": "string",
                  "name": "memo",
                  "type": "string"
                },
                {
                  "internalType": "bool",
                  "name": "tokenSupplyType",
                  "type": "bool"
                },
                {
                  "internalType": "int64",
                  "name": "maxSupply",
                  "type": "int64"
                },
                {
                  "internalType": "bool",
                  "name": "freezeDefault",
                  "type": "bool"
                },
                {
                  "components": [
                    {
                      "internalType": "uint256",
                      "name": "keyType",
                      "type": "uint256"
                    },
                    {
                      "components": [
                        {
                          "internalType": "bool",
                          "name": "inheritAccountKey",
                          "type": "bool"
                        },
                        {
                          "internalType": "address",
                          "name": "contractId",
                          "type": "address"
                        },
                        {
                          "internalType": "bytes",
                          "name": "ed25519",
                          "type": "bytes"
                        },
                        {
                          "internalType": "bytes",
                          "name": "ECDSA_secp256k1",
                          "type": "bytes"
                        },
                        {
                          "internalType": "address",
                          "name": "delegatableContractId",
                          "type": "address"
                        }
                      ],
                      "internalType": "struct IHederaTokenService.KeyValue",
                      "name": "key",
                      "type": "tuple"
                    }
                  ],
                  "internalType": "struct IHederaTokenService.TokenKey[]",
                  "name": "tokenKeys",
                  "type": "tuple[]"
                },
                {
                  "components": [
                    {
                      "internalType": "uint32",
                      "name": "second",
                      "type": "uint32"
                    },
                    {
                      "internalType": "address",
                      "name": "autoRenewAccount",
                      "type": "address"
                    },
                    {
                      "internalType": "uint32",
                      "name": "autoRenewPeriod",
                      "type": "uint32"
                    }
                  ],
                  "internalType": "struct IHederaTokenService.Expiry",
                  "name": "expiry",
                  "type": "tuple"
                }
              ],
              "internalType": "struct IHederaTokenService.HederaToken",
              "name": "token",
              "type": "tuple"
            },
            {
              "internalType": "uint64",
              "name": "totalSupply",
              "type": "uint64"
            },
            {
              "internalType": "bool",
              "name": "deleted",
              "type": "bool"
            },
            {
              "internalType": "bool",
              "name": "defaultKycStatus",
              "type": "bool"
            },
            {
              "internalType": "bool",
              "name": "pauseStatus",
              "type": "bool"
            },
            {
              "components": [
                {
                  "internalType": "uint32",
                  "name": "amount",
                  "type": "uint32"
                },
                {
                  "internalType": "address",
                  "name": "tokenId",
                  "type": "address"
                },
                {
                  "internalType": "bool",
                  "name": "useHbarsForPayment",
                  "type": "bool"
                },
                {
                  "internalType": "bool",
                  "name": "useCurrentTokenForPayment",
                  "type": "bool"
                },
                {
                  "internalType": "address",
                  "name": "feeCollector",
                  "type": "address"
                }
              ],
              "internalType": "struct IHederaTokenService.FixedFee[]",
              "name": "fixedFees",
              "type": "tuple[]"
            },
            {
              "components": [
                {
                  "internalType": "uint32",
                  "name": "numerator",
                  "type": "uint32"
                },
                {
                  "internalType": "uint32",
                  "name": "denominator",
                  "type": "uint32"
                },
                {
                  "internalType": "uint32",
                  "name": "minimumAmount",
                  "type": "uint32"
                },
                {
                  "internalType": "uint32",
                  "name": "maximumAmount",
                  "type": "uint32"
                },
                {
                  "internalType": "bool",
                  "name": "netOfTransfers",
                  "type": "bool"
                },
                {
                  "internalType": "address",
                  "name": "feeCollector",
                  "type": "address"
                }
              ],
              "internalType": "struct IHederaTokenService.FractionalFee[]",
              "name": "fractionalFees",
              "type": "tuple[]"
            },
            {
              "components": [
                {
                  "internalType": "uint32",
                  "name": "numerator",
                  "type": "uint32"
                },
                {
                  "internalType": "uint32",
                  "name": "denominator",
                  "type": "uint32"
                },
                {
                  "internalType": "uint32",
                  "name": "amount",
                  "type": "uint32"
                },
                {
                  "internalType": "address",
                  "name": "tokenId",
                  "type": "address"
                },
                {
                  "internalType": "bool",
                  "name": "useHbarsForPayment",
                  "type": "bool"
                },
                {
                  "internalType": "address",
                  "name": "feeCollector",
                  "type": "address"
                }
              ],
              "internalType": "struct IHederaTokenService.RoyaltyFee[]",
              "name": "royaltyFees",
              "type": "tuple[]"
            },
            {
              "internalType": "string",
              "name": "ledgerId",
              "type": "string"
            }
          ],
          "indexed": false,
          "internalType": "struct IHederaTokenService.TokenInfo",
          "name": "tokenInfo",
          "type": "tuple"
        }
      ],
      "name": "TokenInfo",
      "type": "event"
    },
    {
      "anonymous": false,
      "inputs": [
        {
          "indexed": false,
          "internalType": "bool",
          "name": "unpaused",
          "type": "bool"
        }
      ],
      "name": "UnpausedToken",
      "type": "event"
    },
    {
      "inputs": [
        {
          "internalType": "address",
          "name": "token",
          "type": "address"
        },
        {
          "internalType": "address",
          "name": "owner",
          "type": "address"
        },
        {
          "internalType": "address",
          "name": "spender",
          "type": "address"
        }
      ],
      "name": "allowancePublic",
      "outputs": [
        {
          "internalType": "int256",
          "name": "responseCode",
          "type": "int256"
        },
        {
          "internalType": "uint256",
          "name": "amount",
          "type": "uint256"
        }
      ],
      "stateMutability": "nonpayable",
      "type": "function"
    },
    {
      "inputs": [
        {
          "internalType": "address",
          "name": "token",
          "type": "address"
        },
        {
          "internalType": "address",
          "name": "approved",
          "type": "address"
        },
        {
          "internalType": "uint256",
          "name": "serialNumber",
          "type": "uint256"
        }
      ],
      "name": "approveNFTPublic",
      "outputs": [
        {
          "internalType": "int256",
          "name": "responseCode",
          "type": "int256"
        }
      ],
      "stateMutability": "nonpayable",
      "type": "function"
    },
    {
      "inputs": [
        {
          "internalType": "address",
          "name": "token",
          "type": "address"
        },
        {
          "internalType": "address",
          "name": "spender",
          "type": "address"
        },
        {
          "internalType": "uint256",
          "name": "amount",
          "type": "uint256"
        }
      ],
      "name": "approvePublic",
      "outputs": [
        {
          "internalType": "int256",
          "name": "responseCode",
          "type": "int256"
        }
      ],
      "stateMutability": "nonpayable",
      "type": "function"
    },
    {
      "inputs": [
        {
          "internalType": "address",
          "name": "account",
          "type": "address"
        },
        {
          "internalType": "address",
          "name": "token",
          "type": "address"
        }
      ],
      "name": "associateTokenPublic",
      "outputs": [
        {
          "internalType": "int256",
          "name": "responseCode",
          "type": "int256"
        }
      ],
      "stateMutability": "nonpayable",
      "type": "function"
    },
    {
      "inputs": [
        {
          "internalType": "address",
          "name": "treasury",
          "type": "address"
        }
      ],
      "name": "createFungibleTokenPublic",
      "outputs": [],
      "stateMutability": "payable",
      "type": "function"
    },
    {
      "inputs": [
        {
          "internalType": "address",
          "name": "treasury",
          "type": "address"
        },
        {
          "internalType": "address",
          "name": "fixedFeeTokenAddress",
          "type": "address"
        }
      ],
      "name": "createFungibleTokenWithCustomFeesPublic",
      "outputs": [],
      "stateMutability": "payable",
      "type": "function"
    },
    {
      "inputs": [
        {
          "internalType": "address",
          "name": "treasury",
          "type": "address"
        }
      ],
      "name": "createNonFungibleTokenPublic",
      "outputs": [],
      "stateMutability": "payable",
      "type": "function"
    },
    {
      "inputs": [
        {
          "components": [
            {
              "internalType": "address",
              "name": "token",
              "type": "address"
            },
            {
              "components": [
                {
                  "internalType": "address",
                  "name": "accountID",
                  "type": "address"
                },
                {
                  "internalType": "int64",
                  "name": "amount",
                  "type": "int64"
                }
              ],
              "internalType": "struct IHederaTokenService.AccountAmount[]",
              "name": "transfers",
              "type": "tuple[]"
            },
            {
              "components": [
                {
                  "internalType": "address",
                  "name": "senderAccountID",
                  "type": "address"
                },
                {
                  "internalType": "address",
                  "name": "receiverAccountID",
                  "type": "address"
                },
                {
                  "internalType": "int64",
                  "name": "serialNumber",
                  "type": "int64"
                }
              ],
              "internalType": "struct IHederaTokenService.NftTransfer[]",
              "name": "nftTransfers",
              "type": "tuple[]"
            }
          ],
          "internalType": "struct IHederaTokenService.TokenTransferList[]",
          "name": "tokenTransferList",
          "type": "tuple[]"
        }
      ],
      "name": "cryptoTransferPublic",
      "outputs": [
        {
          "internalType": "int256",
          "name": "responseCode",
          "type": "int256"
        }
      ],
      "stateMutability": "nonpayable",
      "type": "function"
    },
    {
      "inputs": [
        {
          "internalType": "address",
          "name": "account",
          "type": "address"
        },
        {
          "internalType": "address",
          "name": "token",
          "type": "address"
        },
        {
          "internalType": "int64",
          "name": "amount",
          "type": "int64"
        }
      ],
      "name": "cryptoTransferTokenPublic",
      "outputs": [
        {
          "internalType": "int256",
          "name": "responseCode",
          "type": "int256"
        }
      ],
      "stateMutability": "nonpayable",
      "type": "function"
    },
    {
      "inputs": [
        {
          "internalType": "address",
          "name": "token",
          "type": "address"
        }
      ],
      "name": "deleteTokenPublic",
      "outputs": [
        {
          "internalType": "int256",
          "name": "responseCode",
          "type": "int256"
        }
      ],
      "stateMutability": "nonpayable",
      "type": "function"
    },
    {
      "inputs": [
        {
          "internalType": "address",
          "name": "token",
          "type": "address"
        },
        {
          "internalType": "address",
          "name": "account",
          "type": "address"
        }
      ],
      "name": "freezeTokenPublic",
      "outputs": [
        {
          "internalType": "int256",
          "name": "responseCode",
          "type": "int256"
        }
      ],
      "stateMutability": "nonpayable",
      "type": "function"
    },
    {
      "inputs": [
        {
          "internalType": "address",
          "name": "token",
          "type": "address"
        },
        {
          "internalType": "uint256",
          "name": "serialNumber",
          "type": "uint256"
        }
      ],
      "name": "getApprovedPublic",
      "outputs": [
        {
          "internalType": "int256",
          "name": "responseCode",
          "type": "int256"
        },
        {
          "internalType": "address",
          "name": "approved",
          "type": "address"
        }
      ],
      "stateMutability": "nonpayable",
      "type": "function"
    },
    {
      "inputs": [
        {
          "internalType": "address",
          "name": "token",
          "type": "address"
        }
      ],
      "name": "getFungibleTokenInfoPublic",
      "outputs": [
        {
          "internalType": "int256",
          "name": "responseCode",
          "type": "int256"
        },
        {
          "components": [
            {
              "components": [
                {
                  "components": [
                    {
                      "internalType": "string",
                      "name": "name",
                      "type": "string"
                    },
                    {
                      "internalType": "string",
                      "name": "symbol",
                      "type": "string"
                    },
                    {
                      "internalType": "address",
                      "name": "treasury",
                      "type": "address"
                    },
                    {
                      "internalType": "string",
                      "name": "memo",
                      "type": "string"
                    },
                    {
                      "internalType": "bool",
                      "name": "tokenSupplyType",
                      "type": "bool"
                    },
                    {
                      "internalType": "int64",
                      "name": "maxSupply",
                      "type": "int64"
                    },
                    {
                      "internalType": "bool",
                      "name": "freezeDefault",
                      "type": "bool"
                    },
                    {
                      "components": [
                        {
                          "internalType": "uint256",
                          "name": "keyType",
                          "type": "uint256"
                        },
                        {
                          "components": [
                            {
                              "internalType": "bool",
                              "name": "inheritAccountKey",
                              "type": "bool"
                            },
                            {
                              "internalType": "address",
                              "name": "contractId",
                              "type": "address"
                            },
                            {
                              "internalType": "bytes",
                              "name": "ed25519",
                              "type": "bytes"
                            },
                            {
                              "internalType": "bytes",
                              "name": "ECDSA_secp256k1",
                              "type": "bytes"
                            },
                            {
                              "internalType": "address",
                              "name": "delegatableContractId",
                              "type": "address"
                            }
                          ],
                          "internalType": "struct IHederaTokenService.KeyValue",
                          "name": "key",
                          "type": "tuple"
                        }
                      ],
                      "internalType": "struct IHederaTokenService.TokenKey[]",
                      "name": "tokenKeys",
                      "type": "tuple[]"
                    },
                    {
                      "components": [
                        {
                          "internalType": "uint32",
                          "name": "second",
                          "type": "uint32"
                        },
                        {
                          "internalType": "address",
                          "name": "autoRenewAccount",
                          "type": "address"
                        },
                        {
                          "internalType": "uint32",
                          "name": "autoRenewPeriod",
                          "type": "uint32"
                        }
                      ],
                      "internalType": "struct IHederaTokenService.Expiry",
                      "name": "expiry",
                      "type": "tuple"
                    }
                  ],
                  "internalType": "struct IHederaTokenService.HederaToken",
                  "name": "token",
                  "type": "tuple"
                },
                {
                  "internalType": "uint64",
                  "name": "totalSupply",
                  "type": "uint64"
                },
                {
                  "internalType": "bool",
                  "name": "deleted",
                  "type": "bool"
                },
                {
                  "internalType": "bool",
                  "name": "defaultKycStatus",
                  "type": "bool"
                },
                {
                  "internalType": "bool",
                  "name": "pauseStatus",
                  "type": "bool"
                },
                {
                  "components": [
                    {
                      "internalType": "uint32",
                      "name": "amount",
                      "type": "uint32"
                    },
                    {
                      "internalType": "address",
                      "name": "tokenId",
                      "type": "address"
                    },
                    {
                      "internalType": "bool",
                      "name": "useHbarsForPayment",
                      "type": "bool"
                    },
                    {
                      "internalType": "bool",
                      "name": "useCurrentTokenForPayment",
                      "type": "bool"
                    },
                    {
                      "internalType": "address",
                      "name": "feeCollector",
                      "type": "address"
                    }
                  ],
                  "internalType": "struct IHederaTokenService.FixedFee[]",
                  "name": "fixedFees",
                  "type": "tuple[]"
                },
                {
                  "components": [
                    {
                      "internalType": "uint32",
                      "name": "numerator",
                      "type": "uint32"
                    },
                    {
                      "internalType": "uint32",
                      "name": "denominator",
                      "type": "uint32"
                    },
                    {
                      "internalType": "uint32",
                      "name": "minimumAmount",
                      "type": "uint32"
                    },
                    {
                      "internalType": "uint32",
                      "name": "maximumAmount",
                      "type": "uint32"
                    },
                    {
                      "internalType": "bool",
                      "name": "netOfTransfers",
                      "type": "bool"
                    },
                    {
                      "internalType": "address",
                      "name": "feeCollector",
                      "type": "address"
                    }
                  ],
                  "internalType": "struct IHederaTokenService.FractionalFee[]",
                  "name": "fractionalFees",
                  "type": "tuple[]"
                },
                {
                  "components": [
                    {
                      "internalType": "uint32",
                      "name": "numerator",
                      "type": "uint32"
                    },
                    {
                      "internalType": "uint32",
                      "name": "denominator",
                      "type": "uint32"
                    },
                    {
                      "internalType": "uint32",
                      "name": "amount",
                      "type": "uint32"
                    },
                    {
                      "internalType": "address",
                      "name": "tokenId",
                      "type": "address"
                    },
                    {
                      "internalType": "bool",
                      "name": "useHbarsForPayment",
                      "type": "bool"
                    },
                    {
                      "internalType": "address",
                      "name": "feeCollector",
                      "type": "address"
                    }
                  ],
                  "internalType": "struct IHederaTokenService.RoyaltyFee[]",
                  "name": "royaltyFees",
                  "type": "tuple[]"
                },
                {
                  "internalType": "string",
                  "name": "ledgerId",
                  "type": "string"
                }
              ],
              "internalType": "struct IHederaTokenService.TokenInfo",
              "name": "tokenInfo",
              "type": "tuple"
            },
            {
              "internalType": "uint32",
              "name": "decimals",
              "type": "uint32"
            }
          ],
          "internalType": "struct IHederaTokenService.FungibleTokenInfo",
          "name": "tokenInfo",
          "type": "tuple"
        }
      ],
      "stateMutability": "nonpayable",
      "type": "function"
    },
    {
      "inputs": [
        {
          "internalType": "address",
          "name": "token",
          "type": "address"
        },
        {
          "internalType": "int64",
          "name": "serialNumber",
          "type": "int64"
        }
      ],
      "name": "getNonFungibleTokenInfoPublic",
      "outputs": [
        {
          "internalType": "int256",
          "name": "responseCode",
          "type": "int256"
        },
        {
          "components": [
            {
              "components": [
                {
                  "components": [
                    {
                      "internalType": "string",
                      "name": "name",
                      "type": "string"
                    },
                    {
                      "internalType": "string",
                      "name": "symbol",
                      "type": "string"
                    },
                    {
                      "internalType": "address",
                      "name": "treasury",
                      "type": "address"
                    },
                    {
                      "internalType": "string",
                      "name": "memo",
                      "type": "string"
                    },
                    {
                      "internalType": "bool",
                      "name": "tokenSupplyType",
                      "type": "bool"
                    },
                    {
                      "internalType": "int64",
                      "name": "maxSupply",
                      "type": "int64"
                    },
                    {
                      "internalType": "bool",
                      "name": "freezeDefault",
                      "type": "bool"
                    },
                    {
                      "components": [
                        {
                          "internalType": "uint256",
                          "name": "keyType",
                          "type": "uint256"
                        },
                        {
                          "components": [
                            {
                              "internalType": "bool",
                              "name": "inheritAccountKey",
                              "type": "bool"
                            },
                            {
                              "internalType": "address",
                              "name": "contractId",
                              "type": "address"
                            },
                            {
                              "internalType": "bytes",
                              "name": "ed25519",
                              "type": "bytes"
                            },
                            {
                              "internalType": "bytes",
                              "name": "ECDSA_secp256k1",
                              "type": "bytes"
                            },
                            {
                              "internalType": "address",
                              "name": "delegatableContractId",
                              "type": "address"
                            }
                          ],
                          "internalType": "struct IHederaTokenService.KeyValue",
                          "name": "key",
                          "type": "tuple"
                        }
                      ],
                      "internalType": "struct IHederaTokenService.TokenKey[]",
                      "name": "tokenKeys",
                      "type": "tuple[]"
                    },
                    {
                      "components": [
                        {
                          "internalType": "uint32",
                          "name": "second",
                          "type": "uint32"
                        },
                        {
                          "internalType": "address",
                          "name": "autoRenewAccount",
                          "type": "address"
                        },
                        {
                          "internalType": "uint32",
                          "name": "autoRenewPeriod",
                          "type": "uint32"
                        }
                      ],
                      "internalType": "struct IHederaTokenService.Expiry",
                      "name": "expiry",
                      "type": "tuple"
                    }
                  ],
                  "internalType": "struct IHederaTokenService.HederaToken",
                  "name": "token",
                  "type": "tuple"
                },
                {
                  "internalType": "uint64",
                  "name": "totalSupply",
                  "type": "uint64"
                },
                {
                  "internalType": "bool",
                  "name": "deleted",
                  "type": "bool"
                },
                {
                  "internalType": "bool",
                  "name": "defaultKycStatus",
                  "type": "bool"
                },
                {
                  "internalType": "bool",
                  "name": "pauseStatus",
                  "type": "bool"
                },
                {
                  "components": [
                    {
                      "internalType": "uint32",
                      "name": "amount",
                      "type": "uint32"
                    },
                    {
                      "internalType": "address",
                      "name": "tokenId",
                      "type": "address"
                    },
                    {
                      "internalType": "bool",
                      "name": "useHbarsForPayment",
                      "type": "bool"
                    },
                    {
                      "internalType": "bool",
                      "name": "useCurrentTokenForPayment",
                      "type": "bool"
                    },
                    {
                      "internalType": "address",
                      "name": "feeCollector",
                      "type": "address"
                    }
                  ],
                  "internalType": "struct IHederaTokenService.FixedFee[]",
                  "name": "fixedFees",
                  "type": "tuple[]"
                },
                {
                  "components": [
                    {
                      "internalType": "uint32",
                      "name": "numerator",
                      "type": "uint32"
                    },
                    {
                      "internalType": "uint32",
                      "name": "denominator",
                      "type": "uint32"
                    },
                    {
                      "internalType": "uint32",
                      "name": "minimumAmount",
                      "type": "uint32"
                    },
                    {
                      "internalType": "uint32",
                      "name": "maximumAmount",
                      "type": "uint32"
                    },
                    {
                      "internalType": "bool",
                      "name": "netOfTransfers",
                      "type": "bool"
                    },
                    {
                      "internalType": "address",
                      "name": "feeCollector",
                      "type": "address"
                    }
                  ],
                  "internalType": "struct IHederaTokenService.FractionalFee[]",
                  "name": "fractionalFees",
                  "type": "tuple[]"
                },
                {
                  "components": [
                    {
                      "internalType": "uint32",
                      "name": "numerator",
                      "type": "uint32"
                    },
                    {
                      "internalType": "uint32",
                      "name": "denominator",
                      "type": "uint32"
                    },
                    {
                      "internalType": "uint32",
                      "name": "amount",
                      "type": "uint32"
                    },
                    {
                      "internalType": "address",
                      "name": "tokenId",
                      "type": "address"
                    },
                    {
                      "internalType": "bool",
                      "name": "useHbarsForPayment",
                      "type": "bool"
                    },
                    {
                      "internalType": "address",
                      "name": "feeCollector",
                      "type": "address"
                    }
                  ],
                  "internalType": "struct IHederaTokenService.RoyaltyFee[]",
                  "name": "royaltyFees",
                  "type": "tuple[]"
                },
                {
                  "internalType": "string",
                  "name": "ledgerId",
                  "type": "string"
                }
              ],
              "internalType": "struct IHederaTokenService.TokenInfo",
              "name": "tokenInfo",
              "type": "tuple"
            },
            {
              "internalType": "int64",
              "name": "serialNumber",
              "type": "int64"
            },
            {
              "internalType": "address",
              "name": "ownerId",
              "type": "address"
            },
            {
              "internalType": "int64",
              "name": "creationTime",
              "type": "int64"
            },
            {
              "internalType": "bytes",
              "name": "metadata",
              "type": "bytes"
            },
            {
              "internalType": "address",
              "name": "spenderId",
              "type": "address"
            }
          ],
          "internalType": "struct IHederaTokenService.NonFungibleTokenInfo",
          "name": "tokenInfo",
          "type": "tuple"
        }
      ],
      "stateMutability": "nonpayable",
      "type": "function"
    },
    {
      "inputs": [
        {
          "internalType": "address",
          "name": "token",
          "type": "address"
        }
      ],
      "name": "getTokenCustomFeesPublic",
      "outputs": [
        {
          "internalType": "int64",
          "name": "responseCode",
          "type": "int64"
        },
        {
          "components": [
            {
              "internalType": "uint32",
              "name": "amount",
              "type": "uint32"
            },
            {
              "internalType": "address",
              "name": "tokenId",
              "type": "address"
            },
            {
              "internalType": "bool",
              "name": "useHbarsForPayment",
              "type": "bool"
            },
            {
              "internalType": "bool",
              "name": "useCurrentTokenForPayment",
              "type": "bool"
            },
            {
              "internalType": "address",
              "name": "feeCollector",
              "type": "address"
            }
          ],
          "internalType": "struct IHederaTokenService.FixedFee[]",
          "name": "fixedFees",
          "type": "tuple[]"
        },
        {
          "components": [
            {
              "internalType": "uint32",
              "name": "numerator",
              "type": "uint32"
            },
            {
              "internalType": "uint32",
              "name": "denominator",
              "type": "uint32"
            },
            {
              "internalType": "uint32",
              "name": "minimumAmount",
              "type": "uint32"
            },
            {
              "internalType": "uint32",
              "name": "maximumAmount",
              "type": "uint32"
            },
            {
              "internalType": "bool",
              "name": "netOfTransfers",
              "type": "bool"
            },
            {
              "internalType": "address",
              "name": "feeCollector",
              "type": "address"
            }
          ],
          "internalType": "struct IHederaTokenService.FractionalFee[]",
          "name": "fractionalFees",
          "type": "tuple[]"
        },
        {
          "components": [
            {
              "internalType": "uint32",
              "name": "numerator",
              "type": "uint32"
            },
            {
              "internalType": "uint32",
              "name": "denominator",
              "type": "uint32"
            },
            {
              "internalType": "uint32",
              "name": "amount",
              "type": "uint32"
            },
            {
              "internalType": "address",
              "name": "tokenId",
              "type": "address"
            },
            {
              "internalType": "bool",
              "name": "useHbarsForPayment",
              "type": "bool"
            },
            {
              "internalType": "address",
              "name": "feeCollector",
              "type": "address"
            }
          ],
          "internalType": "struct IHederaTokenService.RoyaltyFee[]",
          "name": "royaltyFees",
          "type": "tuple[]"
        }
      ],
      "stateMutability": "nonpayable",
      "type": "function"
    },
    {
      "inputs": [
        {
          "internalType": "address",
          "name": "token",
          "type": "address"
        }
      ],
      "name": "getTokenDefaultFreezeStatusPublic",
      "outputs": [
        {
          "internalType": "int256",
          "name": "responseCode",
          "type": "int256"
        },
        {
          "internalType": "bool",
          "name": "defaultFreezeStatus",
          "type": "bool"
        }
      ],
      "stateMutability": "nonpayable",
      "type": "function"
    },
    {
      "inputs": [
        {
          "internalType": "address",
          "name": "token",
          "type": "address"
        }
      ],
      "name": "getTokenDefaultKycStatusPublic",
      "outputs": [
        {
          "internalType": "int256",
          "name": "responseCode",
          "type": "int256"
        },
        {
          "internalType": "bool",
          "name": "defaultKycStatus",
          "type": "bool"
        }
      ],
      "stateMutability": "nonpayable",
      "type": "function"
    },
    {
      "inputs": [
        {
          "internalType": "address",
          "name": "token",
          "type": "address"
        }
      ],
      "name": "getTokenExpiryInfo",
      "outputs": [
        {
          "internalType": "int256",
          "name": "responseCode",
          "type": "int256"
        },
        {
          "components": [
            {
              "internalType": "uint32",
              "name": "second",
              "type": "uint32"
            },
            {
              "internalType": "address",
              "name": "autoRenewAccount",
              "type": "address"
            },
            {
              "internalType": "uint32",
              "name": "autoRenewPeriod",
              "type": "uint32"
            }
          ],
          "internalType": "struct IHederaTokenService.Expiry",
          "name": "expiryInfo",
          "type": "tuple"
        }
      ],
      "stateMutability": "nonpayable",
      "type": "function"
    },
    {
      "inputs": [
        {
          "internalType": "address",
          "name": "token",
          "type": "address"
        }
      ],
      "name": "getTokenExpiryInfoPublic",
      "outputs": [
        {
          "internalType": "int256",
          "name": "responseCode",
          "type": "int256"
        },
        {
          "components": [
            {
              "internalType": "uint32",
              "name": "second",
              "type": "uint32"
            },
            {
              "internalType": "address",
              "name": "autoRenewAccount",
              "type": "address"
            },
            {
              "internalType": "uint32",
              "name": "autoRenewPeriod",
              "type": "uint32"
            }
          ],
          "internalType": "struct IHederaTokenService.Expiry",
          "name": "expiryInfo",
          "type": "tuple"
        }
      ],
      "stateMutability": "nonpayable",
      "type": "function"
    },
    {
      "inputs": [
        {
          "internalType": "address",
          "name": "token",
          "type": "address"
        }
      ],
      "name": "getTokenInfoPublic",
      "outputs": [
        {
          "internalType": "int256",
          "name": "responseCode",
          "type": "int256"
        },
        {
          "components": [
            {
              "components": [
                {
                  "internalType": "string",
                  "name": "name",
                  "type": "string"
                },
                {
                  "internalType": "string",
                  "name": "symbol",
                  "type": "string"
                },
                {
                  "internalType": "address",
                  "name": "treasury",
                  "type": "address"
                },
                {
                  "internalType": "string",
                  "name": "memo",
                  "type": "string"
                },
                {
                  "internalType": "bool",
                  "name": "tokenSupplyType",
                  "type": "bool"
                },
                {
                  "internalType": "int64",
                  "name": "maxSupply",
                  "type": "int64"
                },
                {
                  "internalType": "bool",
                  "name": "freezeDefault",
                  "type": "bool"
                },
                {
                  "components": [
                    {
                      "internalType": "uint256",
                      "name": "keyType",
                      "type": "uint256"
                    },
                    {
                      "components": [
                        {
                          "internalType": "bool",
                          "name": "inheritAccountKey",
                          "type": "bool"
                        },
                        {
                          "internalType": "address",
                          "name": "contractId",
                          "type": "address"
                        },
                        {
                          "internalType": "bytes",
                          "name": "ed25519",
                          "type": "bytes"
                        },
                        {
                          "internalType": "bytes",
                          "name": "ECDSA_secp256k1",
                          "type": "bytes"
                        },
                        {
                          "internalType": "address",
                          "name": "delegatableContractId",
                          "type": "address"
                        }
                      ],
                      "internalType": "struct IHederaTokenService.KeyValue",
                      "name": "key",
                      "type": "tuple"
                    }
                  ],
                  "internalType": "struct IHederaTokenService.TokenKey[]",
                  "name": "tokenKeys",
                  "type": "tuple[]"
                },
                {
                  "components": [
                    {
                      "internalType": "uint32",
                      "name": "second",
                      "type": "uint32"
                    },
                    {
                      "internalType": "address",
                      "name": "autoRenewAccount",
                      "type": "address"
                    },
                    {
                      "internalType": "uint32",
                      "name": "autoRenewPeriod",
                      "type": "uint32"
                    }
                  ],
                  "internalType": "struct IHederaTokenService.Expiry",
                  "name": "expiry",
                  "type": "tuple"
                }
              ],
              "internalType": "struct IHederaTokenService.HederaToken",
              "name": "token",
              "type": "tuple"
            },
            {
              "internalType": "uint64",
              "name": "totalSupply",
              "type": "uint64"
            },
            {
              "internalType": "bool",
              "name": "deleted",
              "type": "bool"
            },
            {
              "internalType": "bool",
              "name": "defaultKycStatus",
              "type": "bool"
            },
            {
              "internalType": "bool",
              "name": "pauseStatus",
              "type": "bool"
            },
            {
              "components": [
                {
                  "internalType": "uint32",
                  "name": "amount",
                  "type": "uint32"
                },
                {
                  "internalType": "address",
                  "name": "tokenId",
                  "type": "address"
                },
                {
                  "internalType": "bool",
                  "name": "useHbarsForPayment",
                  "type": "bool"
                },
                {
                  "internalType": "bool",
                  "name": "useCurrentTokenForPayment",
                  "type": "bool"
                },
                {
                  "internalType": "address",
                  "name": "feeCollector",
                  "type": "address"
                }
              ],
              "internalType": "struct IHederaTokenService.FixedFee[]",
              "name": "fixedFees",
              "type": "tuple[]"
            },
            {
              "components": [
                {
                  "internalType": "uint32",
                  "name": "numerator",
                  "type": "uint32"
                },
                {
                  "internalType": "uint32",
                  "name": "denominator",
                  "type": "uint32"
                },
                {
                  "internalType": "uint32",
                  "name": "minimumAmount",
                  "type": "uint32"
                },
                {
                  "internalType": "uint32",
                  "name": "maximumAmount",
                  "type": "uint32"
                },
                {
                  "internalType": "bool",
                  "name": "netOfTransfers",
                  "type": "bool"
                },
                {
                  "internalType": "address",
                  "name": "feeCollector",
                  "type": "address"
                }
              ],
              "internalType": "struct IHederaTokenService.FractionalFee[]",
              "name": "fractionalFees",
              "type": "tuple[]"
            },
            {
              "components": [
                {
                  "internalType": "uint32",
                  "name": "numerator",
                  "type": "uint32"
                },
                {
                  "internalType": "uint32",
                  "name": "denominator",
                  "type": "uint32"
                },
                {
                  "internalType": "uint32",
                  "name": "amount",
                  "type": "uint32"
                },
                {
                  "internalType": "address",
                  "name": "tokenId",
                  "type": "address"
                },
                {
                  "internalType": "bool",
                  "name": "useHbarsForPayment",
                  "type": "bool"
                },
                {
                  "internalType": "address",
                  "name": "feeCollector",
                  "type": "address"
                }
              ],
              "internalType": "struct IHederaTokenService.RoyaltyFee[]",
              "name": "royaltyFees",
              "type": "tuple[]"
            },
            {
              "internalType": "string",
              "name": "ledgerId",
              "type": "string"
            }
          ],
          "internalType": "struct IHederaTokenService.TokenInfo",
          "name": "tokenInfo",
          "type": "tuple"
        }
      ],
      "stateMutability": "nonpayable",
      "type": "function"
    },
    {
      "inputs": [
        {
          "internalType": "address",
          "name": "token",
          "type": "address"
        },
        {
          "internalType": "address",
          "name": "account",
          "type": "address"
        }
      ],
      "name": "grantTokenKyc",
      "outputs": [
        {
          "internalType": "int64",
          "name": "responseCode",
          "type": "int64"
        }
      ],
      "stateMutability": "nonpayable",
      "type": "function"
    },
    {
      "inputs": [
        {
          "internalType": "address",
          "name": "token",
          "type": "address"
        },
        {
          "internalType": "address",
          "name": "account",
          "type": "address"
        }
      ],
      "name": "grantTokenKycPublic",
      "outputs": [
        {
          "internalType": "int64",
          "name": "responseCode",
          "type": "int64"
        }
      ],
      "stateMutability": "nonpayable",
      "type": "function"
    },
    {
      "inputs": [
        {
          "internalType": "address",
          "name": "token",
          "type": "address"
        },
        {
          "internalType": "address",
          "name": "owner",
          "type": "address"
        },
        {
          "internalType": "address",
          "name": "operator",
          "type": "address"
        }
      ],
      "name": "isApprovedForAllPublic",
      "outputs": [
        {
          "internalType": "int256",
          "name": "responseCode",
          "type": "int256"
        },
        {
          "internalType": "bool",
          "name": "approved",
          "type": "bool"
        }
      ],
      "stateMutability": "nonpayable",
      "type": "function"
    },
    {
      "inputs": [
        {
          "internalType": "address",
          "name": "token",
          "type": "address"
        },
        {
          "internalType": "address",
          "name": "account",
          "type": "address"
        }
      ],
      "name": "isFrozenPublic",
      "outputs": [
        {
          "internalType": "int256",
          "name": "responseCode",
          "type": "int256"
        },
        {
          "internalType": "bool",
          "name": "frozen",
          "type": "bool"
        }
      ],
      "stateMutability": "nonpayable",
      "type": "function"
    },
    {
      "inputs": [
        {
          "internalType": "address",
          "name": "token",
          "type": "address"
        },
        {
          "internalType": "address",
          "name": "account",
          "type": "address"
        }
      ],
      "name": "isKyc",
      "outputs": [
        {
          "internalType": "int64",
          "name": "responseCode",
          "type": "int64"
        },
        {
          "internalType": "bool",
          "name": "kycGranted",
          "type": "bool"
        }
      ],
      "stateMutability": "nonpayable",
      "type": "function"
    },
    {
      "inputs": [
        {
          "internalType": "address",
          "name": "token",
          "type": "address"
        },
        {
          "internalType": "address",
          "name": "account",
          "type": "address"
        }
      ],
      "name": "isKycPublic",
      "outputs": [
        {
          "internalType": "int64",
          "name": "responseCode",
          "type": "int64"
        },
        {
          "internalType": "bool",
          "name": "kycGranted",
          "type": "bool"
        }
      ],
      "stateMutability": "nonpayable",
      "type": "function"
    },
    {
      "inputs": [
        {
          "internalType": "address",
          "name": "token",
          "type": "address"
        },
        {
          "internalType": "uint64",
          "name": "amount",
          "type": "uint64"
        },
        {
          "internalType": "bytes[]",
          "name": "metadata",
          "type": "bytes[]"
        }
      ],
      "name": "mintTokenPublic",
      "outputs": [
        {
          "internalType": "int256",
          "name": "responseCode",
          "type": "int256"
        },
        {
          "internalType": "uint64",
          "name": "newTotalSupply",
          "type": "uint64"
        },
        {
          "internalType": "int64[]",
          "name": "serialNumbers",
          "type": "int64[]"
        }
      ],
      "stateMutability": "nonpayable",
      "type": "function"
    },
    {
      "inputs": [
        {
          "internalType": "address",
          "name": "token",
          "type": "address"
        }
      ],
      "name": "pauseToken",
      "outputs": [
        {
          "internalType": "int256",
          "name": "responseCode",
          "type": "int256"
        }
      ],
      "stateMutability": "nonpayable",
      "type": "function"
    },
    {
      "inputs": [
        {
          "internalType": "address",
          "name": "token",
          "type": "address"
        }
      ],
      "name": "pauseTokenPublic",
      "outputs": [
        {
          "internalType": "int256",
          "name": "responseCode",
          "type": "int256"
        }
      ],
      "stateMutability": "nonpayable",
      "type": "function"
    },
    {
      "inputs": [
        {
          "internalType": "address",
          "name": "token",
          "type": "address"
        },
        {
          "internalType": "address",
          "name": "account",
          "type": "address"
        }
      ],
      "name": "revokeTokenKyc",
      "outputs": [
        {
          "internalType": "int64",
          "name": "responseCode",
          "type": "int64"
        }
      ],
      "stateMutability": "nonpayable",
      "type": "function"
    },
    {
      "inputs": [
        {
          "internalType": "address",
          "name": "token",
          "type": "address"
        },
        {
          "internalType": "address",
          "name": "account",
          "type": "address"
        }
      ],
      "name": "revokeTokenKycPublic",
      "outputs": [
        {
          "internalType": "int64",
          "name": "responseCode",
          "type": "int64"
        }
      ],
      "stateMutability": "nonpayable",
      "type": "function"
    },
    {
      "inputs": [
        {
          "internalType": "address",
          "name": "token",
          "type": "address"
        },
        {
          "internalType": "address",
          "name": "operator",
          "type": "address"
        },
        {
          "internalType": "bool",
          "name": "approved",
          "type": "bool"
        }
      ],
      "name": "setApprovalForAllPublic",
      "outputs": [
        {
          "internalType": "int256",
          "name": "responseCode",
          "type": "int256"
        }
      ],
      "stateMutability": "nonpayable",
      "type": "function"
    },
    {
      "inputs": [
        {
          "internalType": "bool",
          "name": "newFreezeStatus",
          "type": "bool"
        }
      ],
      "name": "setFreezeDefaultStatus",
      "outputs": [],
      "stateMutability": "nonpayable",
      "type": "function"
    },
    {
      "inputs": [
        {
          "internalType": "address",
          "name": "token",
          "type": "address"
        },
        {
          "internalType": "address",
          "name": "sender",
          "type": "address"
        },
        {
          "internalType": "address",
          "name": "receiver",
          "type": "address"
        },
        {
          "internalType": "int64",
          "name": "serialNumber",
          "type": "int64"
        }
      ],
      "name": "transferNFTPublic",
      "outputs": [
        {
          "internalType": "int256",
          "name": "responseCode",
          "type": "int256"
        }
      ],
      "stateMutability": "nonpayable",
      "type": "function"
    },
    {
      "inputs": [
        {
          "internalType": "address",
          "name": "token",
          "type": "address"
        },
        {
          "internalType": "address",
          "name": "sender",
          "type": "address"
        },
        {
          "internalType": "address",
          "name": "receiver",
          "type": "address"
        },
        {
          "internalType": "int64",
          "name": "amount",
          "type": "int64"
        }
      ],
      "name": "transferTokenPublic",
      "outputs": [
        {
          "internalType": "int256",
          "name": "responseCode",
          "type": "int256"
        }
      ],
      "stateMutability": "nonpayable",
      "type": "function"
    },
    {
      "inputs": [
        {
          "internalType": "address",
          "name": "token",
          "type": "address"
        },
        {
          "internalType": "address",
          "name": "account",
          "type": "address"
        }
      ],
      "name": "unfreezeTokenPublic",
      "outputs": [
        {
          "internalType": "int256",
          "name": "responseCode",
          "type": "int256"
        }
      ],
      "stateMutability": "nonpayable",
      "type": "function"
    },
    {
      "inputs": [
        {
          "internalType": "address",
          "name": "token",
          "type": "address"
        }
      ],
      "name": "unpauseToken",
      "outputs": [
        {
          "internalType": "int256",
          "name": "responseCode",
          "type": "int256"
        }
      ],
      "stateMutability": "nonpayable",
      "type": "function"
    },
    {
      "inputs": [
        {
          "internalType": "address",
          "name": "token",
          "type": "address"
        }
      ],
      "name": "unpauseTokenPublic",
      "outputs": [
        {
          "internalType": "int256",
          "name": "responseCode",
          "type": "int256"
        }
      ],
      "stateMutability": "nonpayable",
      "type": "function"
    },
    {
      "inputs": [
        {
          "internalType": "address",
          "name": "token",
          "type": "address"
        },
        {
          "components": [
            {
              "internalType": "uint32",
              "name": "second",
              "type": "uint32"
            },
            {
              "internalType": "address",
              "name": "autoRenewAccount",
              "type": "address"
            },
            {
              "internalType": "uint32",
              "name": "autoRenewPeriod",
              "type": "uint32"
            }
          ],
          "internalType": "struct IHederaTokenService.Expiry",
          "name": "expiryInfo",
          "type": "tuple"
        }
      ],
      "name": "updateTokenExpiryInfo",
      "outputs": [
        {
          "internalType": "int256",
          "name": "responseCode",
          "type": "int256"
        }
      ],
      "stateMutability": "nonpayable",
      "type": "function"
    },
    {
      "inputs": [
        {
          "internalType": "address",
          "name": "token",
          "type": "address"
        },
        {
          "components": [
            {
              "internalType": "uint32",
              "name": "second",
              "type": "uint32"
            },
            {
              "internalType": "address",
              "name": "autoRenewAccount",
              "type": "address"
            },
            {
              "internalType": "uint32",
              "name": "autoRenewPeriod",
              "type": "uint32"
            }
          ],
          "internalType": "struct IHederaTokenService.Expiry",
          "name": "expiryInfo",
          "type": "tuple"
        }
      ],
      "name": "updateTokenExpiryInfoPublic",
      "outputs": [
        {
          "internalType": "int256",
          "name": "responseCode",
          "type": "int256"
        }
      ],
      "stateMutability": "nonpayable",
      "type": "function"
    },
    {
      "inputs": [
        {
          "internalType": "address",
          "name": "token",
          "type": "address"
        },
        {
          "internalType": "address",
          "name": "account",
          "type": "address"
        },
        {
          "internalType": "int64[]",
          "name": "serialNumbers",
          "type": "int64[]"
        }
      ],
      "name": "wipeTokenAccountNFTPublic",
      "outputs": [
        {
          "internalType": "int256",
          "name": "responseCode",
          "type": "int256"
        }
      ],
      "stateMutability": "nonpayable",
      "type": "function"
    },
    {
      "inputs": [
        {
          "internalType": "address",
          "name": "token",
          "type": "address"
        },
        {
          "internalType": "address",
          "name": "account",
          "type": "address"
        },
        {
          "internalType": "uint32",
          "name": "amount",
          "type": "uint32"
        }
      ],
      "name": "wipeTokenAccountPublic",
      "outputs": [
        {
          "internalType": "int256",
          "name": "responseCode",
          "type": "int256"
        }
      ],
      "stateMutability": "nonpayable",
      "type": "function"
    }
  ],
  "bytecode": "0x60c06040526009608081905268746f6b656e4e616d6560b81b60a09081526200002c9160019190620000c7565b5060408051808201909152600b8082526a1d1bdad95b94de5b589bdb60aa1b60209092019182526200006191600291620000c7565b50604080518082019091526004808252636d656d6f60e01b60209092019182526200008f91600391620000c7565b50600480546001600160a81b031916700800000000000003e800000000000003e8179055348015620000c057600080fd5b50620001aa565b828054620000d5906200016d565b90600052602060002090601f016020900481019282620000f9576000855562000144565b82601f106200011457805160ff191683800117855562000144565b8280016001018555821562000144579182015b828111156200014457825182559160200191906001019062000127565b506200015292915062000156565b5090565b5b8082111562000152576000815560010162000157565b600181811c908216806200018257607f821691505b60208210811415620001a457634e487b7160e01b600052602260045260246000fd5b50919050565b615c2980620001ba6000396000f3fe6080604052600436106102d15760003560e01c806386f88d8811610179578063d92ac248116100d6578063f2f38a741161008a578063f848fec411610064578063f848fec41461086f578063f9e978bd1461088f578063fdc8321e146108af57600080fd5b8063f2f38a7414610801578063f4a01e5b1461082f578063f7be34251461084f57600080fd5b8063eee55ac8116100bb578063eee55ac8146107a1578063f25b1200146107c1578063f2c31ff4146107e157600080fd5b8063d92ac24814610761578063df6c06f51461078157600080fd5b8063a3ad5b551161012d578063c0b19b6d11610112578063c0b19b6d14610700578063d614cdb81461072e578063d85f74c11461074e57600080fd5b8063a3ad5b55146106a6578063af99c633146106e057600080fd5b80638f8d7f991161015e5780638f8d7f99146106465780639604ca6514610666578063a345f7bd1461068657600080fd5b806386f88d88146106135780638ba74da01461063357600080fd5b80634cbdb37b1161023257806369837dc2116101e65780637c41ad2c116101c05780637c41ad2c146105a45780637d3e5da8146105c45780638070905f146105e457600080fd5b806369837dc2146105365780636a4dde21146105645780636da6b1f01461058457600080fd5b8063593d6e8211610217578063593d6e82146104b15780635a5e6c31146104d15780635b9076b71461050657600080fd5b80634cbdb37b1461046357806356af84031461049157600080fd5b80632eecbca3116102895780633eed2c391161026e5780633eed2c391461040e5780634b5c66871461042e5780634ba670351461044357600080fd5b80632eecbca3146103ce5780633b3bff0f146103ee57600080fd5b806319db44b6116102ba57806319db44b6146103435780632b256ec8146103805780632d73bb2e146103ae57600080fd5b80630fd2601e146102d657806313c05dd81461030e575b600080fd5b3480156102e257600080fd5b506102f66102f1366004613cdf565b6108cf565b60405160079190910b81526020015b60405180910390f35b34801561031a57600080fd5b5061032e610329366004613d18565b610993565b60408051928352901515602083015201610305565b34801561034f57600080fd5b5061036361035e366004613d63565b610a11565b604080519283526001600160a01b03909116602083015201610305565b34801561038c57600080fd5b506103a061039b366004613d8f565b610a95565b604051908152602001610305565b3480156103ba57600080fd5b506103a06103c9366004613cdf565b610b81565b3480156103da57600080fd5b506102f66103e9366004613cdf565b610bc6565b3480156103fa57600080fd5b506103a0610409366004613d8f565b610bfd565b34801561041a57600080fd5b5061032e610429366004613d8f565b610cd7565b61044161043c366004613d8f565b610d51565b005b34801561044f57600080fd5b506103a061045e366004613dbb565b61113f565b34801561046f57600080fd5b5061048361047e366004613e17565b61118b565b60405161030592919061433a565b34801561049d57600080fd5b506103a06104ac366004614474565b611201565b3480156104bd57600080fd5b506103a06104cc36600461454c565b61124b565b3480156104dd57600080fd5b506104f16104ec366004613d18565b611328565b60408051928352602083019190915201610305565b34801561051257600080fd5b50610526610521366004613d8f565b611399565b60405161030594939291906145c9565b34801561054257600080fd5b50610556610551366004613d8f565b61142b565b604051610305929190614645565b34801561057057600080fd5b5061032e61057f366004613cdf565b6114a0565b34801561059057600080fd5b506103a061059f366004613dbb565b611517565b3480156105b057600080fd5b506103a06105bf366004613d8f565b611525565b3480156105d057600080fd5b506103a06105df366004613cdf565b611553565b3480156105f057600080fd5b506106046105ff36600461469c565b61155f565b604051610305939291906147e5565b34801561061f57600080fd5b5061032e61062e366004613d8f565b6115e7565b610441610641366004613cdf565b611658565b34801561065257600080fd5b506102f6610661366004613cdf565b611b1a565b34801561067257600080fd5b506103a0610681366004614817565b611b50565b34801561069257600080fd5b506103a06106a1366004613d8f565b611b85565b3480156106b257600080fd5b506106c66106c1366004613cdf565b611bcb565b6040805160079390930b8352901515602083015201610305565b3480156106ec57600080fd5b506102f66106fb366004613cdf565b611cbd565b34801561070c57600080fd5b5061072061071b366004613d8f565b611cf3565b60405161030592919061488c565b34801561073a57600080fd5b50610720610749366004613d8f565b611dea565b61044161075c366004613d8f565b611ef4565b34801561076d57600080fd5b506103a061077c3660046148c6565b612299565b34801561078d57600080fd5b506103a061079c366004614906565b6122a6565b3480156107ad57600080fd5b506103a06107bc36600461454c565b6122b3565b3480156107cd57600080fd5b506103a06107dc366004614955565b612346565b3480156107ed57600080fd5b506106c66107fc366004613cdf565b612353565b34801561080d57600080fd5b5061082161081c366004613d8f565b61242e565b604051610305929190614995565b34801561083b57600080fd5b506103a061084a366004613cdf565b6124a3565b34801561085b57600080fd5b506103a061086a366004613d8f565b6124af565b34801561087b57600080fd5b506103a061088a366004614906565b612592565b34801561089b57600080fd5b506104416108aa3660046149ae565b61259f565b3480156108bb57600080fd5b506103a06108ca3660046149cb565b612615565b604051638f8d7f9960e01b81526001600160a01b038084166004830152821660248201526000903090638f8d7f99906044015b602060405180830381600087803b15801561091c57600080fd5b505af1158015610930573d6000803e3d6000fd5b505050506040513d601f19601f820116820180604052508101906109549190614a16565b604051600782900b8152909150600080516020615bd48339815191529060200160405180910390a1600781900b60161461098d57600080fd5b92915050565b6000806109a18585856127ec565b6040518281529193509150600080516020615bd48339815191529060200160405180910390a1601682146109d457600080fd5b60405181151581527e1c2e72360171244b3bb8cc8ddd767820edf37138ad6f129fb3574b407c307d906020015b60405180910390a1935093915050565b600080610a1e84846128eb565b6040518281529193509150600080516020615bd48339815191529060200160405180910390a160168214610a5157600080fd5b6040516001600160a01b03821681527fc2c78c7c31baf14949e75c51df12be56edb9af523cf82839c2869bbcf13b3ecb906020015b60405180910390a19250929050565b604051631f106b4b60e21b81526001600160a01b03821660048201526000903090637c41ad2c90602401602060405180830381600087803b158015610ad957600080fd5b505af1158015610aed573d6000803e3d6000fd5b505050506040513d601f19601f82011682018060405250810190610b119190614a33565b9050600080516020615bd483398151915281604051610b3291815260200190565b60405180910390a160168114610b4757600080fd5b604051600181527f0c9c765845f4d139956bb8fc8decb2eec6093c9c608b809641b16054b29f0e13906020015b60405180910390a1919050565b6000610b8d83836129cb565b60070b9050600080516020615bd483398151915281604051610bb191815260200190565b60405180910390a16016811461098d57600080fd5b60405163af99c63360e01b81526001600160a01b03808416600483015282166024820152600090309063af99c63390604401610902565b6040516001600160a01b03821660248201526000908190819061016790633b3bff0f60e01b906044015b60408051601f198184030181529181526020820180516001600160e01b03166001600160e01b0319909416939093179092529051610c659190614a4c565b6000604051808303816000865af19150503d8060008114610ca2576040519150601f19603f3d011682016040523d82523d6000602084013e610ca7565b606091505b509150915081610cb8576015610ccc565b80806020019051810190610ccc9190614a7a565b60030b949350505050565b600080610ce383612a1a565b6040518281529193509150600080516020615bd48339815191529060200160405180910390a160168214610d1657600080fd5b60405181151581527f6b7f3306751292f85ab4161ee2b0ac16dfc8ded13e6446ce6bd859d0a2f4c78e906020015b60405180910390a1915091565b60408051600480825260a08201909252600091816020015b610d71613b51565b815260200190600190039081610d69579050509050610da460006006600160405180602001604052806000815250612b17565b81600081518110610db757610db7614a95565b6020026020010181905250610ddd60018060405180602001604052806000815250612b4e565b81600181518110610df057610df0614a95565b6020026020010181905250610e176002600160405180602001604052806000815250612b4e565b81600281518110610e2a57610e2a614a95565b6020026020010181905250610e516003600160405180602001604052806000815250612b4e565b81600381518110610e6457610e64614a95565b602002602001018190525060006040518060600160405280600063ffffffff168152602001846001600160a01b03168152602001627a120063ffffffff168152509050600060405180610120016040528060018054610ec290614aab565b80601f0160208091040260200160405190810160405280929190818152602001828054610eee90614aab565b8015610f3b5780601f10610f1057610100808354040283529160200191610f3b565b820191906000526020600020905b815481529060010190602001808311610f1e57829003601f168201915b5050505050815260200160028054610f5290614aab565b80601f0160208091040260200160405190810160405280929190818152602001828054610f7e90614aab565b8015610fcb5780601f10610fa057610100808354040283529160200191610fcb565b820191906000526020600020905b815481529060010190602001808311610fae57829003601f168201915b50505050508152602001856001600160a01b0316815260200160038054610ff190614aab565b80601f016020809104026020016040519081016040528092919081815260200182805461101d90614aab565b801561106a5780601f1061103f5761010080835404028352916020019161106a565b820191906000526020600020905b81548152906001019060200180831161104d57829003601f168201915b50505091835250506001602082015260045468010000000000000000810460070b6040830152600160a01b810460ff16151560608301526080820186905260a090910184905290915060009081906110e990849067ffffffffffffffff811690700100000000000000000000000000000000900463ffffffff16612b83565b9092509050601682146110fb57600080fd5b6040516001600160a01b03821681527f7bb17726df1f3adee8aa00ba8e8bc5d6f182af3bbf77604639cb7f008dd3b4ed9060200160405180910390a1505050505050565b600061114d85858585612cb1565b9050600080516020615bd48339815191528160405161116e91815260200190565b60405180910390a16016811461118357600080fd5b949350505050565b6000611195613bae565b61119f8484612dc1565b6040518281529193509150600080516020615bd48339815191529060200160405180910390a1601682146111d257600080fd5b7fd010ef68d3ac3e07c14bed496400730a484fd17c48a4d373cbc4722a56540def81604051610a869190614ae6565b600061120e848484612eb4565b9050600080516020615bd48339815191528160405161122f91815260200190565b60405180910390a16016811461124457600080fd5b9392505050565b60008060006101676001600160a01b031663593d6e8260e01b8686604051602401611277929190614af9565b60408051601f198184030181529181526020820180516001600160e01b03166001600160e01b03199094169390931790925290516112b59190614a4c565b6000604051808303816000865af19150503d80600081146112f2576040519150601f19603f3d011682016040523d82523d6000602084013e6112f7565b606091505b50915091508161130857601561131c565b8080602001905181019061131c9190614a7a565b60030b95945050505050565b600080611336858585612f94565b6040518281529193509150600080516020615bd48339815191529060200160405180910390a16016821461136957600080fd5b6040518181527f25b6684a7e8fe1b676e9c39c8dd65034fbafea906d3bdfd97bf748b7b55e14c890602001610a01565b600060608060606113a985613080565b604051600785900b815293975091955093509150600080516020615bd48339815191529060200160405180910390a1600784900b6016146113e957600080fd5b7f2efc8334b040613a552197fe34283d6ca2909c8ffae393e128424931f20c69b383838360405161141c93929190614b3c565b60405180910390a19193509193565b6000611435613be9565b61143e83613180565b6040518281529193509150600080516020615bd48339815191529060200160405180910390a16016821461147157600080fd5b7fea9419ffbaa766adf982c4c9864330eee1d848eff36c79e510e7e589c8bb265f81604051610d449190614b75565b6000806114ad8484613269565b60405160079290920b80835293509150600080516020615bd48339815191529060200160405180910390a1601682146114e557600080fd5b60405181151581527f59800d968fcce138300a0019410b4b75041610d65b3cdc5f31656b03ed14912e90602001610a86565b600061114d858585856132ba565b6040516001600160a01b03821660248201526000908190819061016790631f106b4b60e21b90604401610c27565b6000610b8d838361331b565b600080606061156f86868661336a565b6040518381529295509093509150600080516020615bd48339815191529060200160405180910390a1601683146115a557600080fd5b7feff23992f47b3c101679f8b4dc9d3e242c903909dba4a453f2b2341ad463b0e282826040516115d6929190614b88565b60405180910390a193509350939050565b6000806115f383613468565b6040518281529193509150600080516020615bd48339815191529060200160405180910390a16016821461162657600080fd5b60405181151581527f9ee19e13dfa1ba8db2502e15ff56dbecdeb0e0473323fb195473ce648030a2cd90602001610d44565b604080516001808252818301909252600091816020015b611677613b51565b81526020019060019003908161166f5790505090506116a9600080600160405180602001604052806000815250612b17565b816000815181106116bc576116bc614a95565b602002602001018190525060006040518060600160405280600063ffffffff168152602001856001600160a01b03168152602001627a120063ffffffff16815250905060006040518061012001604052806001805461171a90614aab565b80601f016020809104026020016040519081016040528092919081815260200182805461174690614aab565b80156117935780601f1061176857610100808354040283529160200191611793565b820191906000526020600020905b81548152906001019060200180831161177657829003601f168201915b50505050508152602001600280546117aa90614aab565b80601f01602080910402602001604051908101604052809291908181526020018280546117d690614aab565b80156118235780601f106117f857610100808354040283529160200191611823565b820191906000526020600020905b81548152906001019060200180831161180657829003601f168201915b50505050508152602001866001600160a01b031681526020016003805461184990614aab565b80601f016020809104026020016040519081016040528092919081815260200182805461187590614aab565b80156118c25780601f10611897576101008083540402835291602001916118c2565b820191906000526020600020905b8154815290600101906020018083116118a557829003601f168201915b505050918352505060016020820181905260045468010000000000000000900460070b6040808401919091526000606084018190526080840188905260a09093018690528051828152808201909152929350909190816020015b6040805160a08101825260008082526020808301829052928201819052606082018190526080820152825260001990920191018161191c5750506040805160a081018252600181526001600160a01b0388811660208301526000928201839052606082018390528916608082015282519293509183919061199f5761199f614a95565b6020908102919091010152604080516001808252818301909252600091816020015b6040805160c08101825260008082526020808301829052928201819052606082018190526080820181905260a082015282526000199092019101816119c15750506040805160c0810182526004815260056020820152600a91810191909152601e60608201526000608082018190526001600160a01b038a1660a083015282519293509091839190611a5557611a55614a95565b60209081029190910101526004546000908190611a9b90869067ffffffffffffffff811690700100000000000000000000000000000000900463ffffffff1687876134b1565b91509150600080516020615bd483398151915282604051611abe91815260200190565b60405180910390a160168214611ad357600080fd5b6040516001600160a01b03821681527f7bb17726df1f3adee8aa00ba8e8bc5d6f182af3bbf77604639cb7f008dd3b4ed9060200160405180910390a1505050505050505050565b6040516001600160a01b038381166024830152821660448201526000908190819061016790638f8d7f9960e01b90606401611277565b6000611b64611b5f8385614c5a565b6135e5565b9050600080516020615bd483398151915281604051610bb191815260200190565b6000611b908261360f565b9050600080516020615bd483398151915281604051611bb191815260200190565b60405180910390a160168114611bc657600080fd5b919050565b604051633cb0c7fd60e21b81526001600160a01b038084166004830152821660248201526000908190309063f2c31ff4906044016040805180830381600087803b158015611c1857600080fd5b505af1158015611c2c573d6000803e3d6000fd5b505050506040513d601f19601f82011682018060405250810190611c509190614dd2565b604051600783900b81529193509150600080516020615bd48339815191529060200160405180910390a1600782900b601614611c8b57600080fd5b60405181151581527fd24dda6928587354b65aa1a18c2eaf249bef7e5bafd2a71fac71d286f76f957f90602001610a86565b6040516001600160a01b03838116602483015282166044820152600090819081906101679063af99c63360e01b90606401611277565b60408051606081018252600080825260208201819052918101829052604051631ac299b760e31b81526001600160a01b0384166004820152309063d614cdb890602401608060405180830381600087803b158015611d5057600080fd5b505af1158015611d64573d6000803e3d6000fd5b505050506040513d601f19601f82011682018060405250810190611d889190614e61565b6040518281529193509150600080516020615bd48339815191529060200160405180910390a160168214611dbb57600080fd5b7fa0a16bf9db2c17796faeca5af5aaeef8523f9d4c350c512cb00062ad89604f8881604051610d449190614e8e565b604080516060810182526000808252602080830182905282840182905283516001600160a01b038616602480830191909152855180830390910181526044909101855290810180516001600160e01b0316631ac299b760e31b179052925190928391829161016791611e5c9190614a4c565b6000604051808303816000865af19150503d8060008114611e99576040519150601f19603f3d011682016040523d82523d6000602084013e611e9e565b606091505b506040805160608101825260008082526020820181905291810191909152919350915082611ece57601581611ee2565b81806020019051810190611ee29190614ec2565b60039190910b97909650945050505050565b60408051600580825260c08201909252600091816020015b611f14613b51565b815260200190600190039081611f0c579050509050611f4760006006600160405180602001604052806000815250612b17565b81600081518110611f5a57611f5a614a95565b6020026020010181905250611f8060018060405180602001604052806000815250612b4e565b81600181518110611f9357611f93614a95565b6020026020010181905250611fba6002600160405180602001604052806000815250612b4e565b81600281518110611fcd57611fcd614a95565b6020026020010181905250611ff46004600160405180602001604052806000815250612b4e565b8160038151811061200757612007614a95565b602002602001018190525061202e6003600160405180602001604052806000815250612b4e565b8160048151811061204157612041614a95565b602002602001018190525060006040518060600160405280600063ffffffff168152602001846001600160a01b03168152602001627a120063ffffffff16815250905060006040518061012001604052806001805461209f90614aab565b80601f01602080910402602001604051908101604052809291908181526020018280546120cb90614aab565b80156121185780601f106120ed57610100808354040283529160200191612118565b820191906000526020600020905b8154815290600101906020018083116120fb57829003601f168201915b505050505081526020016002805461212f90614aab565b80601f016020809104026020016040519081016040528092919081815260200182805461215b90614aab565b80156121a85780601f1061217d576101008083540402835291602001916121a8565b820191906000526020600020905b81548152906001019060200180831161218b57829003601f168201915b50505050508152602001856001600160a01b03168152602001600380546121ce90614aab565b80601f01602080910402602001604051908101604052809291908181526020018280546121fa90614aab565b80156122475780601f1061221c57610100808354040283529160200191612247565b820191906000526020600020905b81548152906001019060200180831161222a57829003601f168201915b50505091835250506001602082015260045468010000000000000000810460070b6040830152600160a01b900460ff16151560608201526080810185905260a00183905290506000806110e983613656565b600061120e848484613740565b600061120e84848461379b565b6040517f593d6e82000000000000000000000000000000000000000000000000000000008152600090309063593d6e82906122f49086908690600401614af9565b602060405180830381600087803b15801561230e57600080fd5b505af1158015612322573d6000803e3d6000fd5b505050506040513d601f19601f82011682018060405250810190611b649190614a33565b600061120e8484846137f1565b6040516001600160a01b0383811660248301528216604482015260009081908190819061016790633cb0c7fd60e21b906064015b60408051601f198184030181529181526020820180516001600160e01b03166001600160e01b03199094169390931790925290516123c59190614a4c565b6000604051808303816000865af19150503d8060008114612402576040519150601f19603f3d011682016040523d82523d6000602084013e612407565b606091505b50915091508161241a5760156000611ee2565b80806020019051810190611ee29190614eed565b6000612438613c09565b61244183613848565b6040518281529193509150600080516020615bd48339815191529060200160405180910390a16016821461247457600080fd5b7fbdb65f8c2a2e9a3a37ea49e903836883766a922e4ce9b21f684035e304962d4181604051610d449190614f19565b6000611b648383613931565b604051633b3bff0f60e01b81526001600160a01b03821660048201526000903090633b3bff0f90602401602060405180830381600087803b1580156124f357600080fd5b505af1158015612507573d6000803e3d6000fd5b505050506040513d601f19601f8201168201806040525081019061252b9190614a33565b9050600080516020615bd48339815191528160405161254c91815260200190565b60405180910390a16016811461256157600080fd5b604051600181527f319ab7084208e4afa38c6e6ff7aea9587439f2e4700746f4c7d425fea17426d290602001610b74565b600061120e848484613980565b600480547fffffffffffffffffffffff00ffffffffffffffffffffffffffffffffffffffff16600160a01b8315158102919091179182905560405160ff9190920416151581527f457c3a16a0ebdc38e3675609957ca3fcc4490e220bd15d85d34f58e2e145cb089060200160405180910390a150565b6040805160008082526020820190925281908161265a565b604080516060810182526000808252602080830182905292820152825260001990920191018161262d5790505b50905060006040518060400160405280336001600160a01b031681526020018561268390614f2c565b600790810b9091526040805180820182526001600160a01b038a1681529187900b602083015280516002808252606082019092529293509091600091816020015b60408051808201909152600080825260208201528152602001906001900390816126c4579050509050828160008151811061270157612701614a95565b6020026020010181905250818160018151811061272057612720614a95565b602090810291909101810191909152604080516060810182526001600160a01b038a16815291820183905281810186905280516001808252818301909252600091816020015b612793604051806060016040528060006001600160a01b0316815260200160608152602001606081525090565b81526020019060019003908161276657905050905081816000815181106127bc576127bc614a95565b60200260200101819052506127d0816135e5565b9650601687146127df57600080fd5b5050505050509392505050565b604080516001600160a01b0385811660248301528481166044830152831660648083019190915282518083039091018152608490910182526020810180516001600160e01b03167ff49f40db0000000000000000000000000000000000000000000000000000000017905290516000918291829182916101679161286f91614a4c565b6000604051808303816000865af19150503d80600081146128ac576040519150601f19603f3d011682016040523d82523d6000602084013e6128b1565b606091505b5091509150816128c457601560006128d8565b808060200190518101906128d89190614eed565b60039190910b9890975095505050505050565b604080516001600160a01b0384166024820152604480820184905282518083039091018152606490910182526020810180516001600160e01b03167f098f23660000000000000000000000000000000000000000000000000000000017905290516000918291829182916101679161296291614a4c565b6000604051808303816000865af19150503d806000811461299f576040519150601f19603f3d011682016040523d82523d6000602084013e6129a4565b606091505b5091509150816129b75760156000611ee2565b80806020019051810190611ee29190614f62565b6040516001600160a01b0383811660248301528216604482015260009081908190610167907f52f913870000000000000000000000000000000000000000000000000000000090606401611277565b6040516001600160a01b0382166024820152600090819081908190610167907fa7daa18d00000000000000000000000000000000000000000000000000000000906044015b60408051601f198184030181529181526020820180516001600160e01b03166001600160e01b0319909416939093179092529051612a9d9190614a4c565b6000604051808303816000865af19150503d8060008114612ada576040519150601f19603f3d011682016040523d82523d6000602084013e612adf565b606091505b509150915081612af25760156000612b06565b80806020019051810190612b069190614eed565b60039190910b969095509350505050565b612b1f613b51565b6040518060400160405280612b3487876139d6565b8152602001612b4385856139ef565b905295945050505050565b612b56613b51565b6040518060400160405280612b6a86613abf565b8152602001612b7985856139ef565b9052949350505050565b600080848061010001516000015163ffffffff166000148015612bb357506101008101516040015163ffffffff16155b15612bc9576101008101516276a7006040909101525b6000806101676001600160a01b03163463c23baeb660e01b8a8a8a604051602401612bf693929190614f8e565b60408051601f198184030181529181526020820180516001600160e01b03166001600160e01b0319909416939093179092529051612c349190614a4c565b60006040518083038185875af1925050503d8060008114612c71576040519150601f19603f3d011682016040523d82523d6000602084013e612c76565b606091505b509150915081612c895760156000612c9d565b80806020019051810190612c9d9190614f62565b60039190910b999098509650505050505050565b6040516001600160a01b038581166024830152848116604483015283166064820152600782900b608482015260009081908190610167907feca36917000000000000000000000000000000000000000000000000000000009060a4015b60408051601f198184030181529181526020820180516001600160e01b03166001600160e01b0319909416939093179092529051612d4c9190614a4c565b6000604051808303816000865af19150503d8060008114612d89576040519150601f19603f3d011682016040523d82523d6000602084013e612d8e565b606091505b509150915081612d9f576015612db3565b80806020019051810190612db39190614a7a565b60030b979650505050505050565b6000612dcb613bae565b604080516001600160a01b0386166024820152600785900b60448083019190915282518083039091018152606490910182526020810180516001600160e01b03167f287e1da8000000000000000000000000000000000000000000000000000000001790529051600091829161016791612e4491614a4c565b6000604051808303816000865af19150503d8060008114612e81576040519150601f19603f3d011682016040523d82523d6000602084013e612e86565b606091505b5091509150612e93613bae565b82612ea0576015816128d8565b818060200190518101906128d8919061562c565b60008060006101676001600160a01b031663f7f38e2660e01b878787604051602401612ee293929190615714565b60408051601f198184030181529181526020820180516001600160e01b03166001600160e01b0319909416939093179092529051612f209190614a4c565b6000604051808303816000865af19150503d8060008114612f5d576040519150601f19603f3d011682016040523d82523d6000602084013e612f62565b606091505b509150915081612f73576015612f87565b80806020019051810190612f879190614a7a565b60030b9695505050505050565b604080516001600160a01b0385811660248301528481166044830152831660648083019190915282518083039091018152608490910182526020810180516001600160e01b03167f927da1050000000000000000000000000000000000000000000000000000000017905290516000918291829182916101679161301791614a4c565b6000604051808303816000865af19150503d8060008114613054576040519150601f19603f3d011682016040523d82523d6000602084013e613059565b606091505b50915091508161306c57601560006128d8565b808060200190518101906128d89190615740565b604080516001600160a01b03831660248083019190915282518083039091018152604490910182526020810180516001600160e01b03167fae7611a00000000000000000000000000000000000000000000000000000000017905290516000916060918291829185918291610167916130f891614a4c565b6000604051808303816000865af19150503d8060008114613135576040519150601f19603f3d011682016040523d82523d6000602084013e61313a565b606091505b5091509150606080606084613153576015838383613167565b83806020019051810190613167919061576c565b60039390930b9d919c509a509098509650505050505050565b600061318a613be9565b604080516001600160a01b03851660248083019190915282518083039091018152604490910182526020810180516001600160e01b03167f3f28a19b0000000000000000000000000000000000000000000000000000000017905290516000918291610167916131f991614a4c565b6000604051808303816000865af19150503d8060008114613236576040519150601f19603f3d011682016040523d82523d6000602084013e61323b565b606091505b5091509150613248613be9565b8261325557601581611ee2565b81806020019051810190611ee29190615805565b6040516001600160a01b03838116602483015282166044820152600090819081908190610167907f46de0fb10000000000000000000000000000000000000000000000000000000090606401612387565b6040516001600160a01b038581166024830152848116604483015283166064820152600782900b608482015260009081908190610167907f5cfc9011000000000000000000000000000000000000000000000000000000009060a401612d0e565b6040516001600160a01b0383811660248301528216604482015260009081908190610167907f5b8f85840000000000000000000000000000000000000000000000000000000090606401611277565b60008060606000806101676001600160a01b031663278e0b8860e01b89898960405160240161339b939291906158b1565b60408051601f198184030181529181526020820180516001600160e01b03166001600160e01b03199094169390931790925290516133d99190614a4c565b6000604051808303816000865af19150503d8060008114613416576040519150601f19603f3d011682016040523d82523d6000602084013e61341b565b606091505b50915091508161343e576040805160008082526020820190925260159190613452565b808060200190518101906134529190615935565b60039290920b9a90995090975095505050505050565b6040516001600160a01b0382166024820152600090819081908190610167907f335e04c10000000000000000000000000000000000000000000000000000000090604401612a5f565b600080868061010001516000015163ffffffff1660001480156134e157506101008101516040015163ffffffff16155b156134f7576101008101516276a7006040909101525b6000806101676001600160a01b03163463b937581a60e01b8c8c8c8c8c6040516024016135289594939291906159e6565b60408051601f198184030181529181526020820180516001600160e01b03166001600160e01b03199094169390931790925290516135669190614a4c565b60006040518083038185875af1925050503d80600081146135a3576040519150601f19603f3d011682016040523d82523d6000602084013e6135a8565b606091505b5091509150816135bb57601560006135cf565b808060200190518101906135cf9190614f62565b60039190910b9b909a5098505050505050505050565b60008060006101676001600160a01b031663189a554c60e01b85604051602401610c279190615a9c565b6040516001600160a01b038216602482015260009081908190610167907ff069f7120000000000000000000000000000000000000000000000000000000090604401610c27565b600080828061010001516000015163ffffffff16600014801561368657506101008101516040015163ffffffff16155b1561369c576101008101516276a7006040909101525b6000806101676001600160a01b031634639c89bb3560e01b886040516024016136c59190615b72565b60408051601f198184030181529181526020820180516001600160e01b03166001600160e01b03199094169390931790925290516137039190614a4c565b60006040518083038185875af1925050503d806000811461299f576040519150601f19603f3d011682016040523d82523d6000602084013e6129a4565b6040516001600160a01b0384811660248301528316604482015263ffffffff8216606482015260009081908190610167907f9790686d0000000000000000000000000000000000000000000000000000000090608401612ee2565b6040516001600160a01b038481166024830152831660448201526064810182905260009081908190610167907f7336aaf00000000000000000000000000000000000000000000000000000000090608401612ee2565b6040516001600160a01b03848116602483015283166044820152811515606482015260009081908190610167907f367605ca0000000000000000000000000000000000000000000000000000000090608401612ee2565b6000613852613c09565b604080516001600160a01b03851660248083019190915282518083039091018152604490910182526020810180516001600160e01b03167f1f69565f0000000000000000000000000000000000000000000000000000000017905290516000918291610167916138c191614a4c565b6000604051808303816000865af19150503d80600081146138fe576040519150601f19603f3d011682016040523d82523d6000602084013e613903565b606091505b5091509150613910613c09565b8261391d57601581611ee2565b81806020019051810190611ee29190615b85565b6040516001600160a01b0383811660248301528216604482015260009081908190610167907f49146bde0000000000000000000000000000000000000000000000000000000090606401611277565b6040516001600160a01b038481166024830152831660448201526064810182905260009081908190610167907fe1f21c670000000000000000000000000000000000000000000000000000000090608401612ee2565b6000600160ff84161b9050600160ff83161b8117611244565b613a356040518060a0016040528060001515815260200160006001600160a01b03168152602001606081526020016060815260200160006001600160a01b031681525090565b8260ff1660011415613a4a576001815261098d565b8260ff1660021415613a6c576000546001600160a01b0316602082015261098d565b8260ff1660031415613a84576040810182905261098d565b8260ff1660041415613a9c576060810182905261098d565b8260ff166005141561098d576000546001600160a01b0316608082015292915050565b600060ff8216613ad157506001919050565b8160ff1660011415613ae557506002919050565b8160ff1660021415613af957506004919050565b8160ff1660031415613b0d57506008919050565b8160ff1660041415613b2157506010919050565b8160ff1660051415613b3557506020919050565b8160ff1660061415613b4957506040919050565b506000919050565b604051806040016040528060008152602001613ba96040518060a0016040528060001515815260200160006001600160a01b03168152602001606081526020016060815260200160006001600160a01b031681525090565b905290565b6040518060c00160405280613bc1613c09565b8152600060208201819052604082018190526060808301829052608083015260a09091015290565b6040518060400160405280613bfc613c09565b8152600060209091015290565b60408051610240810182526060610120820181815261014083018290526000610160840181905261018084018390526101a084018190526101c084018190526101e0840181905261020084018390528451928301855280835260208301819052938201939093526102208201529081908152602001600067ffffffffffffffff168152602001600015158152602001600015158152602001600015158152602001606081526020016060815260200160608152602001606081525090565b6001600160a01b0381168114613cdc57600080fd5b50565b60008060408385031215613cf257600080fd5b8235613cfd81613cc7565b91506020830135613d0d81613cc7565b809150509250929050565b600080600060608486031215613d2d57600080fd5b8335613d3881613cc7565b92506020840135613d4881613cc7565b91506040840135613d5881613cc7565b809150509250925092565b60008060408385031215613d7657600080fd5b8235613d8181613cc7565b946020939093013593505050565b600060208284031215613da157600080fd5b813561124481613cc7565b8060070b8114613cdc57600080fd5b60008060008060808587031215613dd157600080fd5b8435613ddc81613cc7565b93506020850135613dec81613cc7565b92506040850135613dfc81613cc7565b91506060850135613e0c81613dac565b939692955090935050565b60008060408385031215613e2a57600080fd5b8235613e3581613cc7565b91506020830135613d0d81613dac565b60005b83811015613e60578181015183820152602001613e48565b83811115613e6f576000848401525b50505050565b60008151808452613e8d816020860160208601613e45565b601f01601f19169290920160200192915050565b600081518084526020808501808196508360051b8101915082860160005b85811015613f585782840389528151604081518652868201519150808787015281511515818701528682015160606001600160a01b03808316828a015283850151935060a09250608083818b0152613f1a60e08b0186613e75565b928601518a8403603f1901858c0152929450613f368584613e75565b9501511660c09890980197909752505098850198935090840190600101613ebf565b5091979650505050505050565b60006101608251818552613f7b82860182613e75565b91505060208301518482036020860152613f958282613e75565b9150506040830151613fb260408601826001600160a01b03169052565b5060608301518482036060860152613fca8282613e75565b9150506080830151613fe0608086018215159052565b5060a0830151613ff560a086018260070b9052565b5060c083015161400960c086018215159052565b5060e083015184820360e08601526140218282613ea1565b61010085810151805163ffffffff9081168984015260208201516001600160a01b03166101208a015260408201511661014089015291935091505090949350505050565b600081518084526020808501945080840160005b838110156140d5578151805163ffffffff168852838101516001600160a01b03908116858a01526040808301511515908a01526060808301511515908a0152608091820151169088015260a09096019590820190600101614079565b509495945050505050565b600081518084526020808501945080840160005b838110156140d5578151805163ffffffff9081168952848201518116858a01526040808301518216908a01526060808301519091169089015260808082015115159089015260a0908101516001600160a01b03169088015260c090960195908201906001016140f4565b600081518084526020808501945080840160005b838110156140d5578151805163ffffffff9081168952848201518116858a0152604080830151909116908901526060808201516001600160a01b03908116918a01919091526080808301511515908a015260a091820151169088015260c09096019590820190600101614172565b600061012082518185526141f682860182613f65565b9150506020830151614214602086018267ffffffffffffffff169052565b506040830151614228604086018215159052565b50606083015161423c606086018215159052565b506080830151614250608086018215159052565b5060a083015184820360a08601526142688282614065565b91505060c083015184820360c086015261428282826140e0565b91505060e083015184820360e086015261429c828261415e565b91505061010080840151858303828701526142b78382613e75565b9695505050505050565b6000815160c084526142d660c08501826141e0565b9050602083015160070b602085015260408301516001600160a01b038082166040870152606085015160070b60608701526080850151915085830360808701526143208383613e75565b92508060a08601511660a087015250508091505092915050565b82815260406020820152600061118360408301846142c1565b634e487b7160e01b600052604160045260246000fd5b6040516060810167ffffffffffffffff8111828210171561438c5761438c614353565b60405290565b6040805190810167ffffffffffffffff8111828210171561438c5761438c614353565b60405160a0810167ffffffffffffffff8111828210171561438c5761438c614353565b604051610120810167ffffffffffffffff8111828210171561438c5761438c614353565b60405160c0810167ffffffffffffffff8111828210171561438c5761438c614353565b604051601f8201601f1916810167ffffffffffffffff8111828210171561444857614448614353565b604052919050565b600067ffffffffffffffff82111561446a5761446a614353565b5060051b60200190565b60008060006060848603121561448957600080fd5b833561449481613cc7565b92506020848101356144a581613cc7565b9250604085013567ffffffffffffffff8111156144c157600080fd5b8501601f810187136144d257600080fd5b80356144e56144e082614450565b61441f565b81815260059190911b8201830190838101908983111561450457600080fd5b928401925b8284101561452b57833561451c81613dac565b82529284019290840190614509565b80955050505050509250925092565b63ffffffff81168114613cdc57600080fd5b600080828403608081121561456057600080fd5b833561456b81613cc7565b92506060601f198201121561457f57600080fd5b50614588614369565b60208401356145968161453a565b815260408401356145a681613cc7565b602082015260608401356145b98161453a565b6040820152919491935090915050565b8460070b81526080602082015260006145e56080830186614065565b82810360408401526145f781866140e0565b9050828103606084015261460b818561415e565b979650505050505050565b600081516040845261462b60408501826141e0565b60209384015163ffffffff16949093019390935250919050565b8281526040602082015260006111836040830184614616565b67ffffffffffffffff81168114613cdc57600080fd5b600067ffffffffffffffff82111561468e5761468e614353565b50601f01601f191660200190565b6000806000606084860312156146b157600080fd5b83356146bc81613cc7565b92506020848101356146cd8161465e565b925060408581013567ffffffffffffffff808211156146eb57600080fd5b818801915088601f8301126146ff57600080fd5b813561470d6144e082614450565b81815260059190911b8301850190858101908b83111561472c57600080fd5b8685015b838110156147a0578035858111156147485760008081fd5b8601603f81018e1361475a5760008081fd5b8881013561476a6144e082614674565b8181528f8a83850101111561477f5760008081fd5b818a84018c83013760009181018b0191909152845250918701918701614730565b50809750505050505050509250925092565b600081518084526020808501945080840160005b838110156140d557815160070b875295820195908201906001016147c6565b83815267ffffffffffffffff8316602082015260606040820152600061480e60608301846147b2565b95945050505050565b6000806020838503121561482a57600080fd5b823567ffffffffffffffff8082111561484257600080fd5b818501915085601f83011261485657600080fd5b81358181111561486557600080fd5b8660208260051b850101111561487a57600080fd5b60209290920196919550909350505050565b828152608081016112446020830184805163ffffffff90811683526020808301516001600160a01b03169084015260409182015116910152565b6000806000606084860312156148db57600080fd5b83356148e681613cc7565b925060208401356148f681613cc7565b91506040840135613d588161453a565b60008060006060848603121561491b57600080fd5b833561492681613cc7565b9250602084013561493681613cc7565b929592945050506040919091013590565b8015158114613cdc57600080fd5b60008060006060848603121561496a57600080fd5b833561497581613cc7565b9250602084013561498581613cc7565b91506040840135613d5881614947565b82815260406020820152600061118360408301846141e0565b6000602082840312156149c057600080fd5b813561124481614947565b6000806000606084860312156149e057600080fd5b83356149eb81613cc7565b925060208401356149fb81613cc7565b91506040840135613d5881613dac565b8051611bc681613dac565b600060208284031215614a2857600080fd5b815161124481613dac565b600060208284031215614a4557600080fd5b5051919050565b60008251614a5e818460208701613e45565b9190910192915050565b8051600381900b8114611bc657600080fd5b600060208284031215614a8c57600080fd5b61124482614a68565b634e487b7160e01b600052603260045260246000fd5b600181811c90821680614abf57607f821691505b60208210811415614ae057634e487b7160e01b600052602260045260246000fd5b50919050565b60208152600061124460208301846142c1565b6001600160a01b0383168152608081016112446020830184805163ffffffff90811683526020808301516001600160a01b03169084015260409182015116910152565b606081526000614b4f6060830186614065565b8281036020840152614b6181866140e0565b905082810360408401526142b7818561415e565b6020815260006112446020830184614616565b67ffffffffffffffff8316815260406020820152600061118360408301846147b2565b600082601f830112614bbc57600080fd5b81356020614bcc6144e083614450565b82815260609283028501820192828201919087851115614beb57600080fd5b8387015b85811015614c4d5781818a031215614c075760008081fd5b614c0f614369565b8135614c1a81613cc7565b815281860135614c2981613cc7565b81870152604082810135614c3c81613dac565b908201528452928401928101614bef565b5090979650505050505050565b6000614c686144e084614450565b80848252602080830192508560051b850136811115614c8657600080fd5b855b81811015614dbb57803567ffffffffffffffff80821115614ca95760008081fd5b818901915060608236031215614cbf5760008081fd5b614cc7614369565b8235614cd281613cc7565b81528286013582811115614ce65760008081fd5b830136601f820112614cf85760008081fd5b8035614d066144e082614450565b81815260069190911b82018801908881019036831115614d265760008081fd5b928901925b82841015614d7c5760408436031215614d445760008081fd5b614d4c614392565b8435614d5781613cc7565b8152848b0135614d6681613dac565b818c015282526040939093019290890190614d2b565b848a01525060409150508381013583811115614d985760008081fd5b614da436828701614bab565b918301919091525087525050938201938201614c88565b50919695505050505050565b8051611bc681614947565b60008060408385031215614de557600080fd5b8251614df081613dac565b6020840151909250613d0d81614947565b8051611bc681613cc7565b600060608284031215614e1e57600080fd5b614e26614369565b90508151614e338161453a565b81526020820151614e4381613cc7565b60208201526040820151614e568161453a565b604082015292915050565b60008060808385031215614e7457600080fd5b82519150614e858460208501614e0c565b90509250929050565b6060810161098d8284805163ffffffff90811683526020808301516001600160a01b03169084015260409182015116910152565b60008060808385031215614ed557600080fd5b614ede83614a68565b9150614e858460208501614e0c565b60008060408385031215614f0057600080fd5b614f0983614a68565b91506020830151613d0d81614947565b60208152600061124460208301846141e0565b60008160070b677fffffffffffffff19811415614f5957634e487b7160e01b600052601160045260246000fd5b60000392915050565b60008060408385031215614f7557600080fd5b614f7e83614a68565b91506020830151613d0d81613cc7565b606081526000614fa16060830186613f65565b905067ffffffffffffffff8416602083015263ffffffff83166040830152949350505050565b600082601f830112614fd857600080fd5b8151614fe66144e082614674565b818152846020838601011115614ffb57600080fd5b611183826020830160208701613e45565b600082601f83011261501d57600080fd5b8151602061502d6144e083614450565b82815260059290921b8401810191818101908684111561504c57600080fd5b8286015b8481101561516257805167ffffffffffffffff8082111561507057600080fd5b908801906040601f19838c03810182131561508a57600080fd5b615092614392565b88850151815282850151848111156150a957600080fd5b949094019360a0858e03830112156150c15760008081fd5b6150c96143b5565b9150888501516150d881614947565b8252848301516150e781613cc7565b828a0152606085810151858111156150ff5760008081fd5b61510d8f8c838a0101614fc7565b85850152506080935083860151858111156151285760008081fd5b6151368f8c838a0101614fc7565b82850152505061514860a08601614e01565b928201929092528188015285525050918301918301615050565b509695505050505050565b6000610160828403121561518057600080fd5b6151886143d8565b9050815167ffffffffffffffff808211156151a257600080fd5b6151ae85838601614fc7565b835260208401519150808211156151c457600080fd5b6151d085838601614fc7565b60208401526151e160408501614e01565b604084015260608401519150808211156151fa57600080fd5b61520685838601614fc7565b606084015261521760808501614dc7565b608084015261522860a08501614a0b565b60a084015261523960c08501614dc7565b60c084015260e084015191508082111561525257600080fd5b5061525f8482850161500c565b60e08301525061010061527484828501614e0c565b9082015292915050565b8051611bc68161465e565b600082601f83011261529a57600080fd5b815160206152aa6144e083614450565b82815260a092830285018201928282019190878511156152c957600080fd5b8387015b85811015614c4d5781818a0312156152e55760008081fd5b6152ed6143b5565b81516152f88161453a565b81528186015161530781613cc7565b8187015260408281015161531a81614947565b9082015260608281015161532d81614947565b9082015260808281015161534081613cc7565b9082015284529284019281016152cd565b600082601f83011261536257600080fd5b815160206153726144e083614450565b82815260c0928302850182019282820191908785111561539157600080fd5b8387015b85811015614c4d5781818a0312156153ad5760008081fd5b6153b56143fc565b81516153c08161453a565b8152818601516153cf8161453a565b818701526040828101516153e28161453a565b908201526060828101516153f58161453a565b9082015260808281015161540881614947565b9082015260a08281015161541b81613cc7565b908201528452928401928101615395565b600082601f83011261543d57600080fd5b8151602061544d6144e083614450565b82815260c0928302850182019282820191908785111561546c57600080fd5b8387015b85811015614c4d5781818a0312156154885760008081fd5b6154906143fc565b815161549b8161453a565b8152818601516154aa8161453a565b818701526040828101516154bd8161453a565b908201526060828101516154d081613cc7565b908201526080828101516154e381614947565b9082015260a0828101516154f681613cc7565b908201528452928401928101615470565b6000610120828403121561551a57600080fd5b6155226143d8565b9050815167ffffffffffffffff8082111561553c57600080fd5b6155488583860161516d565b83526155566020850161527e565b602084015261556760408501614dc7565b604084015261557860608501614dc7565b606084015261558960808501614dc7565b608084015260a08401519150808211156155a257600080fd5b6155ae85838601615289565b60a084015260c08401519150808211156155c757600080fd5b6155d385838601615351565b60c084015260e08401519150808211156155ec57600080fd5b6155f88583860161542c565b60e08401526101009150818401518181111561561357600080fd5b61561f86828701614fc7565b8385015250505092915050565b6000806040838503121561563f57600080fd5b61564883614a68565b9150602083015167ffffffffffffffff8082111561566557600080fd5b9084019060c0828703121561567957600080fd5b6156816143fc565b82518281111561569057600080fd5b61569c88828601615507565b8252506156ab60208401614a0b565b60208201526156bc60408401614e01565b60408201526156cd60608401614a0b565b60608201526080830151828111156156e457600080fd5b6156f088828601614fc7565b60808301525061570260a08401614e01565b60a08201528093505050509250929050565b60006001600160a01b0380861683528085166020840152506060604083015261480e60608301846147b2565b6000806040838503121561575357600080fd5b61575c83614a68565b9150602083015190509250929050565b6000806000806080858703121561578257600080fd5b61578b85614a68565b9350602085015167ffffffffffffffff808211156157a857600080fd5b6157b488838901615289565b945060408701519150808211156157ca57600080fd5b6157d688838901615351565b935060608701519150808211156157ec57600080fd5b506157f98782880161542c565b91505092959194509250565b6000806040838503121561581857600080fd5b61582183614a68565b9150602083015167ffffffffffffffff8082111561583e57600080fd5b908401906040828703121561585257600080fd5b60405160408101818110838211171561586d5761586d614353565b60405282518281111561587f57600080fd5b61588b88828601615507565b8252506020830151925061589e8361453a565b8260208201528093505050509250929050565b6000606082016001600160a01b0386168352602067ffffffffffffffff8616818501526060604085015281855180845260808601915060808160051b870101935082870160005b8281101561592657607f19888703018452615914868351613e75565b955092840192908401906001016158f8565b50939998505050505050505050565b60008060006060848603121561594a57600080fd5b61595384614a68565b92506020808501516159648161465e565b604086015190935067ffffffffffffffff81111561598157600080fd5b8501601f8101871361599257600080fd5b80516159a06144e082614450565b81815260059190911b820183019083810190898311156159bf57600080fd5b928401925b8284101561452b5783516159d781613dac565b825292840192908401906159c4565b60a0815260006159f960a0830188613f65565b67ffffffffffffffff8716602084015263ffffffff861660408401528281036060840152615a278186614065565b90508281036080840152615a3b81856140e0565b98975050505050505050565b600081518084526020808501945080840160005b838110156140d557815180516001600160a01b03908116895284820151168489015260409081015160070b9088015260609096019590820190600101615a5b565b60006020808301818452808551808352604092508286019150828160051b8701018488016000805b84811015615b6357898403603f19018652825180516001600160a01b0390811686528982015160608b880181905281519088018190526080880192918c01919086905b80821015615b355783518051841686528e015160070b8e860152938c0193928d019260019190910190615b07565b5050505090880151858203868a015290615b4f8183615a47565b978a01979550505091870191600101615ac4565b50919998505050505050505050565b6020815260006112446020830184613f65565b60008060408385031215615b9857600080fd5b615ba183614a68565b9150602083015167ffffffffffffffff811115615bbd57600080fd5b615bc985828601615507565b915050925092905056fe90a5cf4cffe88b4edbb041cfc7a8a812c48a5ec30b84640fb37690875168e3aaa2646970667358221220f711f0e69b1e021563511dc329b96e97e23276e4a67019f4a92824add8679e8864736f6c63430008090033",
  "linkReferences": {},
  "deployedLinkReferences": {}
}