{
  "_format": "hh-sol-artifact-1",
  "contractName": "BaseHTS",
  "sourceName": "contracts/BaseHTS.sol",
  "abi": [
    {
      "anonymous": false,
      "inputs": [
        {
          "indexed": false,
          "internalType": "uint256",
          "name": "amount",
          "type": "uint256"
        }
      ],
      "name": "AllowanceValue",
      "type": "event"
    },
    {
      "anonymous": false,
      "inputs": [
        {
          "indexed": false,
          "internalType": "bool",
          "name": "approved",
          "type": "bool"
        }
      ],
      "name": "Approved",
      "type": "event"
    },
    {
      "anonymous": false,
      "inputs": [
        {
          "indexed": false,
          "internalType": "address",
          "name": "approved",
          "type": "address"
        }
      ],
      "name": "ApprovedAddress",
      "type": "event"
    },
    {
      "anonymous": false,
      "inputs": [
        {
          "indexed": false,
          "internalType": "address",
          "name": "tokenAddress",
          "type": "address"
        }
      ],
      "name": "CreatedToken",
      "type": "event"
    },
    {
      "anonymous": false,
      "inputs": [
        {
          "indexed": false,
          "internalType": "bool",
          "name": "freezeStatus",
          "type": "bool"
        }
      ],
      "name": "DefaultFreezeStatusChanged",
      "type": "event"
    },
    {
      "anonymous": false,
      "inputs": [
        {
          "indexed": false,
          "internalType": "bool",
          "name": "frozen",
          "type": "bool"
        }
      ],
      "name": "Frozen",
      "type": "event"
    },
    {
      "anonymous": false,
      "inputs": [
        {
          "components": [
            {
              "components": [
                {
                  "components": [
                    {
                      "internalType": "string",
                      "name": "name",
                      "type": "string"
                    },
                    {
                      "internalType": "string",
                      "name": "symbol",
                      "type": "string"
                    },
                    {
                      "internalType": "address",
                      "name": "treasury",
                      "type": "address"
                    },
                    {
                      "internalType": "string",
                      "name": "memo",
                      "type": "string"
                    },
                    {
                      "internalType": "bool",
                      "name": "tokenSupplyType",
                      "type": "bool"
                    },
                    {
                      "internalType": "uint32",
                      "name": "maxSupply",
                      "type": "uint32"
                    },
                    {
                      "internalType": "bool",
                      "name": "freezeDefault",
                      "type": "bool"
                    },
                    {
                      "components": [
                        {
                          "internalType": "uint256",
                          "name": "keyType",
                          "type": "uint256"
                        },
                        {
                          "components": [
                            {
                              "internalType": "bool",
                              "name": "inheritAccountKey",
                              "type": "bool"
                            },
                            {
                              "internalType": "address",
                              "name": "contractId",
                              "type": "address"
                            },
                            {
                              "internalType": "bytes",
                              "name": "ed25519",
                              "type": "bytes"
                            },
                            {
                              "internalType": "bytes",
                              "name": "ECDSA_secp256k1",
                              "type": "bytes"
                            },
                            {
                              "internalType": "address",
                              "name": "delegatableContractId",
                              "type": "address"
                            }
                          ],
                          "internalType": "struct IHederaTokenService.KeyValue",
                          "name": "key",
                          "type": "tuple"
                        }
                      ],
                      "internalType": "struct IHederaTokenService.TokenKey[]",
                      "name": "tokenKeys",
                      "type": "tuple[]"
                    },
                    {
                      "components": [
                        {
                          "internalType": "uint32",
                          "name": "second",
                          "type": "uint32"
                        },
                        {
                          "internalType": "address",
                          "name": "autoRenewAccount",
                          "type": "address"
                        },
                        {
                          "internalType": "uint32",
                          "name": "autoRenewPeriod",
                          "type": "uint32"
                        }
                      ],
                      "internalType": "struct IHederaTokenService.Expiry",
                      "name": "expiry",
                      "type": "tuple"
                    }
                  ],
                  "internalType": "struct IHederaTokenService.HederaToken",
                  "name": "token",
                  "type": "tuple"
                },
                {
                  "internalType": "uint64",
                  "name": "totalSupply",
                  "type": "uint64"
                },
                {
                  "internalType": "bool",
                  "name": "deleted",
                  "type": "bool"
                },
                {
                  "internalType": "bool",
                  "name": "defaultKycStatus",
                  "type": "bool"
                },
                {
                  "internalType": "bool",
                  "name": "pauseStatus",
                  "type": "bool"
                },
                {
                  "components": [
                    {
                      "internalType": "uint32",
                      "name": "amount",
                      "type": "uint32"
                    },
                    {
                      "internalType": "address",
                      "name": "tokenId",
                      "type": "address"
                    },
                    {
                      "internalType": "bool",
                      "name": "useHbarsForPayment",
                      "type": "bool"
                    },
                    {
                      "internalType": "bool",
                      "name": "useCurrentTokenForPayment",
                      "type": "bool"
                    },
                    {
                      "internalType": "address",
                      "name": "feeCollector",
                      "type": "address"
                    }
                  ],
                  "internalType": "struct IHederaTokenService.FixedFee[]",
                  "name": "fixedFees",
                  "type": "tuple[]"
                },
                {
                  "components": [
                    {
                      "internalType": "uint32",
                      "name": "numerator",
                      "type": "uint32"
                    },
                    {
                      "internalType": "uint32",
                      "name": "denominator",
                      "type": "uint32"
                    },
                    {
                      "internalType": "uint32",
                      "name": "minimumAmount",
                      "type": "uint32"
                    },
                    {
                      "internalType": "uint32",
                      "name": "maximumAmount",
                      "type": "uint32"
                    },
                    {
                      "internalType": "bool",
                      "name": "netOfTransfers",
                      "type": "bool"
                    },
                    {
                      "internalType": "address",
                      "name": "feeCollector",
                      "type": "address"
                    }
                  ],
                  "internalType": "struct IHederaTokenService.FractionalFee[]",
                  "name": "fractionalFees",
                  "type": "tuple[]"
                },
                {
                  "components": [
                    {
                      "internalType": "uint32",
                      "name": "numerator",
                      "type": "uint32"
                    },
                    {
                      "internalType": "uint32",
                      "name": "denominator",
                      "type": "uint32"
                    },
                    {
                      "internalType": "uint32",
                      "name": "amount",
                      "type": "uint32"
                    },
                    {
                      "internalType": "address",
                      "name": "tokenId",
                      "type": "address"
                    },
                    {
                      "internalType": "bool",
                      "name": "useHbarsForPayment",
                      "type": "bool"
                    },
                    {
                      "internalType": "address",
                      "name": "feeCollector",
                      "type": "address"
                    }
                  ],
                  "internalType": "struct IHederaTokenService.RoyaltyFee[]",
                  "name": "royaltyFees",
                  "type": "tuple[]"
                },
                {
                  "internalType": "string",
                  "name": "ledgerId",
                  "type": "string"
                }
              ],
              "internalType": "struct IHederaTokenService.TokenInfo",
              "name": "tokenInfo",
              "type": "tuple"
            },
            {
              "internalType": "uint32",
              "name": "decimals",
              "type": "uint32"
            }
          ],
          "indexed": false,
          "internalType": "struct IHederaTokenService.FungibleTokenInfo",
          "name": "tokenInfo",
          "type": "tuple"
        }
      ],
      "name": "FungibleTokenInfo",
      "type": "event"
    },
    {
      "anonymous": false,
      "inputs": [
        {
          "indexed": false,
          "internalType": "bool",
          "name": "kycGranted",
          "type": "bool"
        }
      ],
      "name": "KycGranted",
      "type": "event"
    },
    {
      "anonymous": false,
      "inputs": [
        {
          "indexed": false,
          "internalType": "uint64",
          "name": "newTotalSupply",
          "type": "uint64"
        },
        {
          "indexed": false,
          "internalType": "int64[]",
          "name": "serialNumbers",
          "type": "int64[]"
        }
      ],
      "name": "MintedToken",
      "type": "event"
    },
    {
      "anonymous": false,
      "inputs": [
        {
          "components": [
            {
              "components": [
                {
                  "components": [
                    {
                      "internalType": "string",
                      "name": "name",
                      "type": "string"
                    },
                    {
                      "internalType": "string",
                      "name": "symbol",
                      "type": "string"
                    },
                    {
                      "internalType": "address",
                      "name": "treasury",
                      "type": "address"
                    },
                    {
                      "internalType": "string",
                      "name": "memo",
                      "type": "string"
                    },
                    {
                      "internalType": "bool",
                      "name": "tokenSupplyType",
                      "type": "bool"
                    },
                    {
                      "internalType": "uint32",
                      "name": "maxSupply",
                      "type": "uint32"
                    },
                    {
                      "internalType": "bool",
                      "name": "freezeDefault",
                      "type": "bool"
                    },
                    {
                      "components": [
                        {
                          "internalType": "uint256",
                          "name": "keyType",
                          "type": "uint256"
                        },
                        {
                          "components": [
                            {
                              "internalType": "bool",
                              "name": "inheritAccountKey",
                              "type": "bool"
                            },
                            {
                              "internalType": "address",
                              "name": "contractId",
                              "type": "address"
                            },
                            {
                              "internalType": "bytes",
                              "name": "ed25519",
                              "type": "bytes"
                            },
                            {
                              "internalType": "bytes",
                              "name": "ECDSA_secp256k1",
                              "type": "bytes"
                            },
                            {
                              "internalType": "address",
                              "name": "delegatableContractId",
                              "type": "address"
                            }
                          ],
                          "internalType": "struct IHederaTokenService.KeyValue",
                          "name": "key",
                          "type": "tuple"
                        }
                      ],
                      "internalType": "struct IHederaTokenService.TokenKey[]",
                      "name": "tokenKeys",
                      "type": "tuple[]"
                    },
                    {
                      "components": [
                        {
                          "internalType": "uint32",
                          "name": "second",
                          "type": "uint32"
                        },
                        {
                          "internalType": "address",
                          "name": "autoRenewAccount",
                          "type": "address"
                        },
                        {
                          "internalType": "uint32",
                          "name": "autoRenewPeriod",
                          "type": "uint32"
                        }
                      ],
                      "internalType": "struct IHederaTokenService.Expiry",
                      "name": "expiry",
                      "type": "tuple"
                    }
                  ],
                  "internalType": "struct IHederaTokenService.HederaToken",
                  "name": "token",
                  "type": "tuple"
                },
                {
                  "internalType": "uint64",
                  "name": "totalSupply",
                  "type": "uint64"
                },
                {
                  "internalType": "bool",
                  "name": "deleted",
                  "type": "bool"
                },
                {
                  "internalType": "bool",
                  "name": "defaultKycStatus",
                  "type": "bool"
                },
                {
                  "internalType": "bool",
                  "name": "pauseStatus",
                  "type": "bool"
                },
                {
                  "components": [
                    {
                      "internalType": "uint32",
                      "name": "amount",
                      "type": "uint32"
                    },
                    {
                      "internalType": "address",
                      "name": "tokenId",
                      "type": "address"
                    },
                    {
                      "internalType": "bool",
                      "name": "useHbarsForPayment",
                      "type": "bool"
                    },
                    {
                      "internalType": "bool",
                      "name": "useCurrentTokenForPayment",
                      "type": "bool"
                    },
                    {
                      "internalType": "address",
                      "name": "feeCollector",
                      "type": "address"
                    }
                  ],
                  "internalType": "struct IHederaTokenService.FixedFee[]",
                  "name": "fixedFees",
                  "type": "tuple[]"
                },
                {
                  "components": [
                    {
                      "internalType": "uint32",
                      "name": "numerator",
                      "type": "uint32"
                    },
                    {
                      "internalType": "uint32",
                      "name": "denominator",
                      "type": "uint32"
                    },
                    {
                      "internalType": "uint32",
                      "name": "minimumAmount",
                      "type": "uint32"
                    },
                    {
                      "internalType": "uint32",
                      "name": "maximumAmount",
                      "type": "uint32"
                    },
                    {
                      "internalType": "bool",
                      "name": "netOfTransfers",
                      "type": "bool"
                    },
                    {
                      "internalType": "address",
                      "name": "feeCollector",
                      "type": "address"
                    }
                  ],
                  "internalType": "struct IHederaTokenService.FractionalFee[]",
                  "name": "fractionalFees",
                  "type": "tuple[]"
                },
                {
                  "components": [
                    {
                      "internalType": "uint32",
                      "name": "numerator",
                      "type": "uint32"
                    },
                    {
                      "internalType": "uint32",
                      "name": "denominator",
                      "type": "uint32"
                    },
                    {
                      "internalType": "uint32",
                      "name": "amount",
                      "type": "uint32"
                    },
                    {
                      "internalType": "address",
                      "name": "tokenId",
                      "type": "address"
                    },
                    {
                      "internalType": "bool",
                      "name": "useHbarsForPayment",
                      "type": "bool"
                    },
                    {
                      "internalType": "address",
                      "name": "feeCollector",
                      "type": "address"
                    }
                  ],
                  "internalType": "struct IHederaTokenService.RoyaltyFee[]",
                  "name": "royaltyFees",
                  "type": "tuple[]"
                },
                {
                  "internalType": "string",
                  "name": "ledgerId",
                  "type": "string"
                }
              ],
              "internalType": "struct IHederaTokenService.TokenInfo",
              "name": "tokenInfo",
              "type": "tuple"
            },
            {
              "internalType": "int64",
              "name": "serialNumber",
              "type": "int64"
            },
            {
              "internalType": "address",
              "name": "ownerId",
              "type": "address"
            },
            {
              "internalType": "int64",
              "name": "creationTime",
              "type": "int64"
            },
            {
              "internalType": "bytes",
              "name": "metadata",
              "type": "bytes"
            },
            {
              "internalType": "address",
              "name": "spenderId",
              "type": "address"
            }
          ],
          "indexed": false,
          "internalType": "struct IHederaTokenService.NonFungibleTokenInfo",
          "name": "tokenInfo",
          "type": "tuple"
        }
      ],
      "name": "NonFungibleTokenInfo",
      "type": "event"
    },
    {
      "anonymous": false,
      "inputs": [
        {
          "indexed": false,
          "internalType": "bool",
          "name": "paused",
          "type": "bool"
        }
      ],
      "name": "PausedToken",
      "type": "event"
    },
    {
      "anonymous": false,
      "inputs": [
        {
          "indexed": false,
          "internalType": "int256",
          "name": "responseCode",
          "type": "int256"
        }
      ],
      "name": "ResponseCode",
      "type": "event"
    },
    {
      "anonymous": false,
      "inputs": [
        {
          "components": [
            {
              "internalType": "uint32",
              "name": "amount",
              "type": "uint32"
            },
            {
              "internalType": "address",
              "name": "tokenId",
              "type": "address"
            },
            {
              "internalType": "bool",
              "name": "useHbarsForPayment",
              "type": "bool"
            },
            {
              "internalType": "bool",
              "name": "useCurrentTokenForPayment",
              "type": "bool"
            },
            {
              "internalType": "address",
              "name": "feeCollector",
              "type": "address"
            }
          ],
          "indexed": false,
          "internalType": "struct IHederaTokenService.FixedFee[]",
          "name": "fixedFees",
          "type": "tuple[]"
        },
        {
          "components": [
            {
              "internalType": "uint32",
              "name": "numerator",
              "type": "uint32"
            },
            {
              "internalType": "uint32",
              "name": "denominator",
              "type": "uint32"
            },
            {
              "internalType": "uint32",
              "name": "minimumAmount",
              "type": "uint32"
            },
            {
              "internalType": "uint32",
              "name": "maximumAmount",
              "type": "uint32"
            },
            {
              "internalType": "bool",
              "name": "netOfTransfers",
              "type": "bool"
            },
            {
              "internalType": "address",
              "name": "feeCollector",
              "type": "address"
            }
          ],
          "indexed": false,
          "internalType": "struct IHederaTokenService.FractionalFee[]",
          "name": "fractionalFees",
          "type": "tuple[]"
        },
        {
          "components": [
            {
              "internalType": "uint32",
              "name": "numerator",
              "type": "uint32"
            },
            {
              "internalType": "uint32",
              "name": "denominator",
              "type": "uint32"
            },
            {
              "internalType": "uint32",
              "name": "amount",
              "type": "uint32"
            },
            {
              "internalType": "address",
              "name": "tokenId",
              "type": "address"
            },
            {
              "internalType": "bool",
              "name": "useHbarsForPayment",
              "type": "bool"
            },
            {
              "internalType": "address",
              "name": "feeCollector",
              "type": "address"
            }
          ],
          "indexed": false,
          "internalType": "struct IHederaTokenService.RoyaltyFee[]",
          "name": "royaltyFees",
          "type": "tuple[]"
        }
      ],
      "name": "TokenCustomFees",
      "type": "event"
    },
    {
      "anonymous": false,
      "inputs": [
        {
          "indexed": false,
          "internalType": "bool",
          "name": "defaultFreezeStatus",
          "type": "bool"
        }
      ],
      "name": "TokenDefaultFreezeStatus",
      "type": "event"
    },
    {
      "anonymous": false,
      "inputs": [
        {
          "indexed": false,
          "internalType": "bool",
          "name": "defaultKycStatus",
          "type": "bool"
        }
      ],
      "name": "TokenDefaultKycStatus",
      "type": "event"
    },
    {
      "anonymous": false,
      "inputs": [
        {
          "components": [
            {
              "internalType": "uint32",
              "name": "second",
              "type": "uint32"
            },
            {
              "internalType": "address",
              "name": "autoRenewAccount",
              "type": "address"
            },
            {
              "internalType": "uint32",
              "name": "autoRenewPeriod",
              "type": "uint32"
            }
          ],
          "indexed": false,
          "internalType": "struct IHederaTokenService.Expiry",
          "name": "expiryInfo",
          "type": "tuple"
        }
      ],
      "name": "TokenExpiryInfo",
      "type": "event"
    },
    {
      "anonymous": false,
      "inputs": [
        {
          "components": [
            {
              "components": [
                {
                  "internalType": "string",
                  "name": "name",
                  "type": "string"
                },
                {
                  "internalType": "string",
                  "name": "symbol",
                  "type": "string"
                },
                {
                  "internalType": "address",
                  "name": "treasury",
                  "type": "address"
                },
                {
                  "internalType": "string",
                  "name": "memo",
                  "type": "string"
                },
                {
                  "internalType": "bool",
                  "name": "tokenSupplyType",
                  "type": "bool"
                },
                {
                  "internalType": "uint32",
                  "name": "maxSupply",
                  "type": "uint32"
                },
                {
                  "internalType": "bool",
                  "name": "freezeDefault",
                  "type": "bool"
                },
                {
                  "components": [
                    {
                      "internalType": "uint256",
                      "name": "keyType",
                      "type": "uint256"
                    },
                    {
                      "components": [
                        {
                          "internalType": "bool",
                          "name": "inheritAccountKey",
                          "type": "bool"
                        },
                        {
                          "internalType": "address",
                          "name": "contractId",
                          "type": "address"
                        },
                        {
                          "internalType": "bytes",
                          "name": "ed25519",
                          "type": "bytes"
                        },
                        {
                          "internalType": "bytes",
                          "name": "ECDSA_secp256k1",
                          "type": "bytes"
                        },
                        {
                          "internalType": "address",
                          "name": "delegatableContractId",
                          "type": "address"
                        }
                      ],
                      "internalType": "struct IHederaTokenService.KeyValue",
                      "name": "key",
                      "type": "tuple"
                    }
                  ],
                  "internalType": "struct IHederaTokenService.TokenKey[]",
                  "name": "tokenKeys",
                  "type": "tuple[]"
                },
                {
                  "components": [
                    {
                      "internalType": "uint32",
                      "name": "second",
                      "type": "uint32"
                    },
                    {
                      "internalType": "address",
                      "name": "autoRenewAccount",
                      "type": "address"
                    },
                    {
                      "internalType": "uint32",
                      "name": "autoRenewPeriod",
                      "type": "uint32"
                    }
                  ],
                  "internalType": "struct IHederaTokenService.Expiry",
                  "name": "expiry",
                  "type": "tuple"
                }
              ],
              "internalType": "struct IHederaTokenService.HederaToken",
              "name": "token",
              "type": "tuple"
            },
            {
              "internalType": "uint64",
              "name": "totalSupply",
              "type": "uint64"
            },
            {
              "internalType": "bool",
              "name": "deleted",
              "type": "bool"
            },
            {
              "internalType": "bool",
              "name": "defaultKycStatus",
              "type": "bool"
            },
            {
              "internalType": "bool",
              "name": "pauseStatus",
              "type": "bool"
            },
            {
              "components": [
                {
                  "internalType": "uint32",
                  "name": "amount",
                  "type": "uint32"
                },
                {
                  "internalType": "address",
                  "name": "tokenId",
                  "type": "address"
                },
                {
                  "internalType": "bool",
                  "name": "useHbarsForPayment",
                  "type": "bool"
                },
                {
                  "internalType": "bool",
                  "name": "useCurrentTokenForPayment",
                  "type": "bool"
                },
                {
                  "internalType": "address",
                  "name": "feeCollector",
                  "type": "address"
                }
              ],
              "internalType": "struct IHederaTokenService.FixedFee[]",
              "name": "fixedFees",
              "type": "tuple[]"
            },
            {
              "components": [
                {
                  "internalType": "uint32",
                  "name": "numerator",
                  "type": "uint32"
                },
                {
                  "internalType": "uint32",
                  "name": "denominator",
                  "type": "uint32"
                },
                {
                  "internalType": "uint32",
                  "name": "minimumAmount",
                  "type": "uint32"
                },
                {
                  "internalType": "uint32",
                  "name": "maximumAmount",
                  "type": "uint32"
                },
                {
                  "internalType": "bool",
                  "name": "netOfTransfers",
                  "type": "bool"
                },
                {
                  "internalType": "address",
                  "name": "feeCollector",
                  "type": "address"
                }
              ],
              "internalType": "struct IHederaTokenService.FractionalFee[]",
              "name": "fractionalFees",
              "type": "tuple[]"
            },
            {
              "components": [
                {
                  "internalType": "uint32",
                  "name": "numerator",
                  "type": "uint32"
                },
                {
                  "internalType": "uint32",
                  "name": "denominator",
                  "type": "uint32"
                },
                {
                  "internalType": "uint32",
                  "name": "amount",
                  "type": "uint32"
                },
                {
                  "internalType": "address",
                  "name": "tokenId",
                  "type": "address"
                },
                {
                  "internalType": "bool",
                  "name": "useHbarsForPayment",
                  "type": "bool"
                },
                {
                  "internalType": "address",
                  "name": "feeCollector",
                  "type": "address"
                }
              ],
              "internalType": "struct IHederaTokenService.RoyaltyFee[]",
              "name": "royaltyFees",
              "type": "tuple[]"
            },
            {
              "internalType": "string",
              "name": "ledgerId",
              "type": "string"
            }
          ],
          "indexed": false,
          "internalType": "struct IHederaTokenService.TokenInfo",
          "name": "tokenInfo",
          "type": "tuple"
        }
      ],
      "name": "TokenInfo",
      "type": "event"
    },
    {
      "anonymous": false,
      "inputs": [
        {
          "components": [
            {
              "internalType": "bool",
              "name": "inheritAccountKey",
              "type": "bool"
            },
            {
              "internalType": "address",
              "name": "contractId",
              "type": "address"
            },
            {
              "internalType": "bytes",
              "name": "ed25519",
              "type": "bytes"
            },
            {
              "internalType": "bytes",
              "name": "ECDSA_secp256k1",
              "type": "bytes"
            },
            {
              "internalType": "address",
              "name": "delegatableContractId",
              "type": "address"
            }
          ],
          "indexed": false,
          "internalType": "struct IHederaTokenService.KeyValue",
          "name": "key",
          "type": "tuple"
        }
      ],
      "name": "TokenKey",
      "type": "event"
    },
    {
      "anonymous": false,
      "inputs": [
        {
          "indexed": false,
          "internalType": "bool",
          "name": "unpaused",
          "type": "bool"
        }
      ],
      "name": "UnpausedToken",
      "type": "event"
    },
    {
      "inputs": [
        {
          "internalType": "address",
          "name": "token",
          "type": "address"
        },
        {
          "internalType": "address",
          "name": "owner",
          "type": "address"
        },
        {
          "internalType": "address",
          "name": "spender",
          "type": "address"
        }
      ],
      "name": "allowancePublic",
      "outputs": [
        {
          "internalType": "int256",
          "name": "responseCode",
          "type": "int256"
        },
        {
          "internalType": "uint256",
          "name": "amount",
          "type": "uint256"
        }
      ],
      "stateMutability": "nonpayable",
      "type": "function"
    },
    {
      "inputs": [
        {
          "internalType": "address",
          "name": "token",
          "type": "address"
        },
        {
          "internalType": "address",
          "name": "spender",
          "type": "address"
        },
        {
          "internalType": "uint256",
          "name": "amount",
          "type": "uint256"
        }
      ],
      "name": "approvePublic",
      "outputs": [
        {
          "internalType": "int256",
          "name": "responseCode",
          "type": "int256"
        }
      ],
      "stateMutability": "nonpayable",
      "type": "function"
    },
    {
      "inputs": [
        {
          "internalType": "address",
          "name": "account",
          "type": "address"
        },
        {
          "internalType": "address",
          "name": "token",
          "type": "address"
        }
      ],
      "name": "associateTokenPublic",
      "outputs": [
        {
          "internalType": "int256",
          "name": "responseCode",
          "type": "int256"
        }
      ],
      "stateMutability": "nonpayable",
      "type": "function"
    },
    {
      "inputs": [
        {
          "internalType": "address",
          "name": "treasury",
          "type": "address"
        }
      ],
      "name": "createFungibleTokenPublic",
      "outputs": [],
      "stateMutability": "payable",
      "type": "function"
    },
    {
      "inputs": [
        {
          "internalType": "address",
          "name": "treasury",
          "type": "address"
        },
        {
          "internalType": "address",
          "name": "fixedFeeTokenAddress",
          "type": "address"
        }
      ],
      "name": "createFungibleTokenWithCustomFeesPublic",
      "outputs": [],
      "stateMutability": "payable",
      "type": "function"
    },
    {
      "inputs": [
        {
          "internalType": "address",
          "name": "treasury",
          "type": "address"
        }
      ],
      "name": "createNonFungibleTokenPublic",
      "outputs": [],
      "stateMutability": "payable",
      "type": "function"
    },
    {
      "inputs": [
        {
          "components": [
            {
              "internalType": "address",
              "name": "token",
              "type": "address"
            },
            {
              "components": [
                {
                  "internalType": "address",
                  "name": "accountID",
                  "type": "address"
                },
                {
                  "internalType": "int64",
                  "name": "amount",
                  "type": "int64"
                }
              ],
              "internalType": "struct IHederaTokenService.AccountAmount[]",
              "name": "transfers",
              "type": "tuple[]"
            },
            {
              "components": [
                {
                  "internalType": "address",
                  "name": "senderAccountID",
                  "type": "address"
                },
                {
                  "internalType": "address",
                  "name": "receiverAccountID",
                  "type": "address"
                },
                {
                  "internalType": "int64",
                  "name": "serialNumber",
                  "type": "int64"
                }
              ],
              "internalType": "struct IHederaTokenService.NftTransfer[]",
              "name": "nftTransfers",
              "type": "tuple[]"
            }
          ],
          "internalType": "struct IHederaTokenService.TokenTransferList[]",
          "name": "tokenTransferList",
          "type": "tuple[]"
        }
      ],
      "name": "cryptoTransferPublic",
      "outputs": [
        {
          "internalType": "int256",
          "name": "responseCode",
          "type": "int256"
        }
      ],
      "stateMutability": "nonpayable",
      "type": "function"
    },
    {
      "inputs": [
        {
          "internalType": "address",
          "name": "account",
          "type": "address"
        },
        {
          "internalType": "address",
          "name": "token",
          "type": "address"
        },
        {
          "internalType": "int64",
          "name": "amount",
          "type": "int64"
        }
      ],
      "name": "cryptoTransferTokenPublic",
      "outputs": [
        {
          "internalType": "int256",
          "name": "responseCode",
          "type": "int256"
        }
      ],
      "stateMutability": "nonpayable",
      "type": "function"
    },
    {
      "inputs": [
        {
          "internalType": "address",
          "name": "token",
          "type": "address"
        }
      ],
      "name": "deleteTokenPublic",
      "outputs": [
        {
          "internalType": "int256",
          "name": "responseCode",
          "type": "int256"
        }
      ],
      "stateMutability": "nonpayable",
      "type": "function"
    },
    {
      "inputs": [
        {
          "internalType": "address",
          "name": "token",
          "type": "address"
        },
        {
          "internalType": "address",
          "name": "account",
          "type": "address"
        }
      ],
      "name": "freezeTokenPublic",
      "outputs": [
        {
          "internalType": "int256",
          "name": "responseCode",
          "type": "int256"
        }
      ],
      "stateMutability": "nonpayable",
      "type": "function"
    },
    {
      "inputs": [
        {
          "internalType": "address",
          "name": "token",
          "type": "address"
        },
        {
          "internalType": "uint256",
          "name": "serialNumber",
          "type": "uint256"
        }
      ],
      "name": "getApprovedPublic",
      "outputs": [
        {
          "internalType": "int256",
          "name": "responseCode",
          "type": "int256"
        },
        {
          "internalType": "address",
          "name": "approved",
          "type": "address"
        }
      ],
      "stateMutability": "nonpayable",
      "type": "function"
    },
    {
      "inputs": [
        {
          "internalType": "address",
          "name": "token",
          "type": "address"
        }
      ],
      "name": "getFungibleTokenInfoPublic",
      "outputs": [
        {
          "internalType": "int256",
          "name": "responseCode",
          "type": "int256"
        },
        {
          "components": [
            {
              "components": [
                {
                  "components": [
                    {
                      "internalType": "string",
                      "name": "name",
                      "type": "string"
                    },
                    {
                      "internalType": "string",
                      "name": "symbol",
                      "type": "string"
                    },
                    {
                      "internalType": "address",
                      "name": "treasury",
                      "type": "address"
                    },
                    {
                      "internalType": "string",
                      "name": "memo",
                      "type": "string"
                    },
                    {
                      "internalType": "bool",
                      "name": "tokenSupplyType",
                      "type": "bool"
                    },
                    {
                      "internalType": "uint32",
                      "name": "maxSupply",
                      "type": "uint32"
                    },
                    {
                      "internalType": "bool",
                      "name": "freezeDefault",
                      "type": "bool"
                    },
                    {
                      "components": [
                        {
                          "internalType": "uint256",
                          "name": "keyType",
                          "type": "uint256"
                        },
                        {
                          "components": [
                            {
                              "internalType": "bool",
                              "name": "inheritAccountKey",
                              "type": "bool"
                            },
                            {
                              "internalType": "address",
                              "name": "contractId",
                              "type": "address"
                            },
                            {
                              "internalType": "bytes",
                              "name": "ed25519",
                              "type": "bytes"
                            },
                            {
                              "internalType": "bytes",
                              "name": "ECDSA_secp256k1",
                              "type": "bytes"
                            },
                            {
                              "internalType": "address",
                              "name": "delegatableContractId",
                              "type": "address"
                            }
                          ],
                          "internalType": "struct IHederaTokenService.KeyValue",
                          "name": "key",
                          "type": "tuple"
                        }
                      ],
                      "internalType": "struct IHederaTokenService.TokenKey[]",
                      "name": "tokenKeys",
                      "type": "tuple[]"
                    },
                    {
                      "components": [
                        {
                          "internalType": "uint32",
                          "name": "second",
                          "type": "uint32"
                        },
                        {
                          "internalType": "address",
                          "name": "autoRenewAccount",
                          "type": "address"
                        },
                        {
                          "internalType": "uint32",
                          "name": "autoRenewPeriod",
                          "type": "uint32"
                        }
                      ],
                      "internalType": "struct IHederaTokenService.Expiry",
                      "name": "expiry",
                      "type": "tuple"
                    }
                  ],
                  "internalType": "struct IHederaTokenService.HederaToken",
                  "name": "token",
                  "type": "tuple"
                },
                {
                  "internalType": "uint64",
                  "name": "totalSupply",
                  "type": "uint64"
                },
                {
                  "internalType": "bool",
                  "name": "deleted",
                  "type": "bool"
                },
                {
                  "internalType": "bool",
                  "name": "defaultKycStatus",
                  "type": "bool"
                },
                {
                  "internalType": "bool",
                  "name": "pauseStatus",
                  "type": "bool"
                },
                {
                  "components": [
                    {
                      "internalType": "uint32",
                      "name": "amount",
                      "type": "uint32"
                    },
                    {
                      "internalType": "address",
                      "name": "tokenId",
                      "type": "address"
                    },
                    {
                      "internalType": "bool",
                      "name": "useHbarsForPayment",
                      "type": "bool"
                    },
                    {
                      "internalType": "bool",
                      "name": "useCurrentTokenForPayment",
                      "type": "bool"
                    },
                    {
                      "internalType": "address",
                      "name": "feeCollector",
                      "type": "address"
                    }
                  ],
                  "internalType": "struct IHederaTokenService.FixedFee[]",
                  "name": "fixedFees",
                  "type": "tuple[]"
                },
                {
                  "components": [
                    {
                      "internalType": "uint32",
                      "name": "numerator",
                      "type": "uint32"
                    },
                    {
                      "internalType": "uint32",
                      "name": "denominator",
                      "type": "uint32"
                    },
                    {
                      "internalType": "uint32",
                      "name": "minimumAmount",
                      "type": "uint32"
                    },
                    {
                      "internalType": "uint32",
                      "name": "maximumAmount",
                      "type": "uint32"
                    },
                    {
                      "internalType": "bool",
                      "name": "netOfTransfers",
                      "type": "bool"
                    },
                    {
                      "internalType": "address",
                      "name": "feeCollector",
                      "type": "address"
                    }
                  ],
                  "internalType": "struct IHederaTokenService.FractionalFee[]",
                  "name": "fractionalFees",
                  "type": "tuple[]"
                },
                {
                  "components": [
                    {
                      "internalType": "uint32",
                      "name": "numerator",
                      "type": "uint32"
                    },
                    {
                      "internalType": "uint32",
                      "name": "denominator",
                      "type": "uint32"
                    },
                    {
                      "internalType": "uint32",
                      "name": "amount",
                      "type": "uint32"
                    },
                    {
                      "internalType": "address",
                      "name": "tokenId",
                      "type": "address"
                    },
                    {
                      "internalType": "bool",
                      "name": "useHbarsForPayment",
                      "type": "bool"
                    },
                    {
                      "internalType": "address",
                      "name": "feeCollector",
                      "type": "address"
                    }
                  ],
                  "internalType": "struct IHederaTokenService.RoyaltyFee[]",
                  "name": "royaltyFees",
                  "type": "tuple[]"
                },
                {
                  "internalType": "string",
                  "name": "ledgerId",
                  "type": "string"
                }
              ],
              "internalType": "struct IHederaTokenService.TokenInfo",
              "name": "tokenInfo",
              "type": "tuple"
            },
            {
              "internalType": "uint32",
              "name": "decimals",
              "type": "uint32"
            }
          ],
          "internalType": "struct IHederaTokenService.FungibleTokenInfo",
          "name": "tokenInfo",
          "type": "tuple"
        }
      ],
      "stateMutability": "nonpayable",
      "type": "function"
    },
    {
      "inputs": [
        {
          "internalType": "address",
          "name": "token",
          "type": "address"
        },
        {
          "internalType": "int64",
          "name": "serialNumber",
          "type": "int64"
        }
      ],
      "name": "getNonFungibleTokenInfoPublic",
      "outputs": [
        {
          "internalType": "int256",
          "name": "responseCode",
          "type": "int256"
        },
        {
          "components": [
            {
              "components": [
                {
                  "components": [
                    {
                      "internalType": "string",
                      "name": "name",
                      "type": "string"
                    },
                    {
                      "internalType": "string",
                      "name": "symbol",
                      "type": "string"
                    },
                    {
                      "internalType": "address",
                      "name": "treasury",
                      "type": "address"
                    },
                    {
                      "internalType": "string",
                      "name": "memo",
                      "type": "string"
                    },
                    {
                      "internalType": "bool",
                      "name": "tokenSupplyType",
                      "type": "bool"
                    },
                    {
                      "internalType": "uint32",
                      "name": "maxSupply",
                      "type": "uint32"
                    },
                    {
                      "internalType": "bool",
                      "name": "freezeDefault",
                      "type": "bool"
                    },
                    {
                      "components": [
                        {
                          "internalType": "uint256",
                          "name": "keyType",
                          "type": "uint256"
                        },
                        {
                          "components": [
                            {
                              "internalType": "bool",
                              "name": "inheritAccountKey",
                              "type": "bool"
                            },
                            {
                              "internalType": "address",
                              "name": "contractId",
                              "type": "address"
                            },
                            {
                              "internalType": "bytes",
                              "name": "ed25519",
                              "type": "bytes"
                            },
                            {
                              "internalType": "bytes",
                              "name": "ECDSA_secp256k1",
                              "type": "bytes"
                            },
                            {
                              "internalType": "address",
                              "name": "delegatableContractId",
                              "type": "address"
                            }
                          ],
                          "internalType": "struct IHederaTokenService.KeyValue",
                          "name": "key",
                          "type": "tuple"
                        }
                      ],
                      "internalType": "struct IHederaTokenService.TokenKey[]",
                      "name": "tokenKeys",
                      "type": "tuple[]"
                    },
                    {
                      "components": [
                        {
                          "internalType": "uint32",
                          "name": "second",
                          "type": "uint32"
                        },
                        {
                          "internalType": "address",
                          "name": "autoRenewAccount",
                          "type": "address"
                        },
                        {
                          "internalType": "uint32",
                          "name": "autoRenewPeriod",
                          "type": "uint32"
                        }
                      ],
                      "internalType": "struct IHederaTokenService.Expiry",
                      "name": "expiry",
                      "type": "tuple"
                    }
                  ],
                  "internalType": "struct IHederaTokenService.HederaToken",
                  "name": "token",
                  "type": "tuple"
                },
                {
                  "internalType": "uint64",
                  "name": "totalSupply",
                  "type": "uint64"
                },
                {
                  "internalType": "bool",
                  "name": "deleted",
                  "type": "bool"
                },
                {
                  "internalType": "bool",
                  "name": "defaultKycStatus",
                  "type": "bool"
                },
                {
                  "internalType": "bool",
                  "name": "pauseStatus",
                  "type": "bool"
                },
                {
                  "components": [
                    {
                      "internalType": "uint32",
                      "name": "amount",
                      "type": "uint32"
                    },
                    {
                      "internalType": "address",
                      "name": "tokenId",
                      "type": "address"
                    },
                    {
                      "internalType": "bool",
                      "name": "useHbarsForPayment",
                      "type": "bool"
                    },
                    {
                      "internalType": "bool",
                      "name": "useCurrentTokenForPayment",
                      "type": "bool"
                    },
                    {
                      "internalType": "address",
                      "name": "feeCollector",
                      "type": "address"
                    }
                  ],
                  "internalType": "struct IHederaTokenService.FixedFee[]",
                  "name": "fixedFees",
                  "type": "tuple[]"
                },
                {
                  "components": [
                    {
                      "internalType": "uint32",
                      "name": "numerator",
                      "type": "uint32"
                    },
                    {
                      "internalType": "uint32",
                      "name": "denominator",
                      "type": "uint32"
                    },
                    {
                      "internalType": "uint32",
                      "name": "minimumAmount",
                      "type": "uint32"
                    },
                    {
                      "internalType": "uint32",
                      "name": "maximumAmount",
                      "type": "uint32"
                    },
                    {
                      "internalType": "bool",
                      "name": "netOfTransfers",
                      "type": "bool"
                    },
                    {
                      "internalType": "address",
                      "name": "feeCollector",
                      "type": "address"
                    }
                  ],
                  "internalType": "struct IHederaTokenService.FractionalFee[]",
                  "name": "fractionalFees",
                  "type": "tuple[]"
                },
                {
                  "components": [
                    {
                      "internalType": "uint32",
                      "name": "numerator",
                      "type": "uint32"
                    },
                    {
                      "internalType": "uint32",
                      "name": "denominator",
                      "type": "uint32"
                    },
                    {
                      "internalType": "uint32",
                      "name": "amount",
                      "type": "uint32"
                    },
                    {
                      "internalType": "address",
                      "name": "tokenId",
                      "type": "address"
                    },
                    {
                      "internalType": "bool",
                      "name": "useHbarsForPayment",
                      "type": "bool"
                    },
                    {
                      "internalType": "address",
                      "name": "feeCollector",
                      "type": "address"
                    }
                  ],
                  "internalType": "struct IHederaTokenService.RoyaltyFee[]",
                  "name": "royaltyFees",
                  "type": "tuple[]"
                },
                {
                  "internalType": "string",
                  "name": "ledgerId",
                  "type": "string"
                }
              ],
              "internalType": "struct IHederaTokenService.TokenInfo",
              "name": "tokenInfo",
              "type": "tuple"
            },
            {
              "internalType": "int64",
              "name": "serialNumber",
              "type": "int64"
            },
            {
              "internalType": "address",
              "name": "ownerId",
              "type": "address"
            },
            {
              "internalType": "int64",
              "name": "creationTime",
              "type": "int64"
            },
            {
              "internalType": "bytes",
              "name": "metadata",
              "type": "bytes"
            },
            {
              "internalType": "address",
              "name": "spenderId",
              "type": "address"
            }
          ],
          "internalType": "struct IHederaTokenService.NonFungibleTokenInfo",
          "name": "tokenInfo",
          "type": "tuple"
        }
      ],
      "stateMutability": "nonpayable",
      "type": "function"
    },
    {
      "inputs": [
        {
          "internalType": "address",
          "name": "token",
          "type": "address"
        }
      ],
      "name": "getTokenCustomFeesPublic",
      "outputs": [
        {
          "internalType": "int64",
          "name": "responseCode",
          "type": "int64"
        },
        {
          "components": [
            {
              "internalType": "uint32",
              "name": "amount",
              "type": "uint32"
            },
            {
              "internalType": "address",
              "name": "tokenId",
              "type": "address"
            },
            {
              "internalType": "bool",
              "name": "useHbarsForPayment",
              "type": "bool"
            },
            {
              "internalType": "bool",
              "name": "useCurrentTokenForPayment",
              "type": "bool"
            },
            {
              "internalType": "address",
              "name": "feeCollector",
              "type": "address"
            }
          ],
          "internalType": "struct IHederaTokenService.FixedFee[]",
          "name": "fixedFees",
          "type": "tuple[]"
        },
        {
          "components": [
            {
              "internalType": "uint32",
              "name": "numerator",
              "type": "uint32"
            },
            {
              "internalType": "uint32",
              "name": "denominator",
              "type": "uint32"
            },
            {
              "internalType": "uint32",
              "name": "minimumAmount",
              "type": "uint32"
            },
            {
              "internalType": "uint32",
              "name": "maximumAmount",
              "type": "uint32"
            },
            {
              "internalType": "bool",
              "name": "netOfTransfers",
              "type": "bool"
            },
            {
              "internalType": "address",
              "name": "feeCollector",
              "type": "address"
            }
          ],
          "internalType": "struct IHederaTokenService.FractionalFee[]",
          "name": "fractionalFees",
          "type": "tuple[]"
        },
        {
          "components": [
            {
              "internalType": "uint32",
              "name": "numerator",
              "type": "uint32"
            },
            {
              "internalType": "uint32",
              "name": "denominator",
              "type": "uint32"
            },
            {
              "internalType": "uint32",
              "name": "amount",
              "type": "uint32"
            },
            {
              "internalType": "address",
              "name": "tokenId",
              "type": "address"
            },
            {
              "internalType": "bool",
              "name": "useHbarsForPayment",
              "type": "bool"
            },
            {
              "internalType": "address",
              "name": "feeCollector",
              "type": "address"
            }
          ],
          "internalType": "struct IHederaTokenService.RoyaltyFee[]",
          "name": "royaltyFees",
          "type": "tuple[]"
        }
      ],
      "stateMutability": "nonpayable",
      "type": "function"
    },
    {
      "inputs": [
        {
          "internalType": "address",
          "name": "token",
          "type": "address"
        }
      ],
      "name": "getTokenDefaultFreezeStatusPublic",
      "outputs": [
        {
          "internalType": "int256",
          "name": "responseCode",
          "type": "int256"
        },
        {
          "internalType": "bool",
          "name": "defaultFreezeStatus",
          "type": "bool"
        }
      ],
      "stateMutability": "nonpayable",
      "type": "function"
    },
    {
      "inputs": [
        {
          "internalType": "address",
          "name": "token",
          "type": "address"
        }
      ],
      "name": "getTokenDefaultKycStatusPublic",
      "outputs": [
        {
          "internalType": "int256",
          "name": "responseCode",
          "type": "int256"
        },
        {
          "internalType": "bool",
          "name": "defaultKycStatus",
          "type": "bool"
        }
      ],
      "stateMutability": "nonpayable",
      "type": "function"
    },
    {
      "inputs": [
        {
          "internalType": "address",
          "name": "token",
          "type": "address"
        }
      ],
      "name": "getTokenExpiryInfo",
      "outputs": [
        {
          "internalType": "int256",
          "name": "responseCode",
          "type": "int256"
        },
        {
          "components": [
            {
              "internalType": "uint32",
              "name": "second",
              "type": "uint32"
            },
            {
              "internalType": "address",
              "name": "autoRenewAccount",
              "type": "address"
            },
            {
              "internalType": "uint32",
              "name": "autoRenewPeriod",
              "type": "uint32"
            }
          ],
          "internalType": "struct IHederaTokenService.Expiry",
          "name": "expiryInfo",
          "type": "tuple"
        }
      ],
      "stateMutability": "nonpayable",
      "type": "function"
    },
    {
      "inputs": [
        {
          "internalType": "address",
          "name": "token",
          "type": "address"
        }
      ],
      "name": "getTokenExpiryInfoPublic",
      "outputs": [
        {
          "internalType": "int256",
          "name": "responseCode",
          "type": "int256"
        },
        {
          "components": [
            {
              "internalType": "uint32",
              "name": "second",
              "type": "uint32"
            },
            {
              "internalType": "address",
              "name": "autoRenewAccount",
              "type": "address"
            },
            {
              "internalType": "uint32",
              "name": "autoRenewPeriod",
              "type": "uint32"
            }
          ],
          "internalType": "struct IHederaTokenService.Expiry",
          "name": "expiryInfo",
          "type": "tuple"
        }
      ],
      "stateMutability": "nonpayable",
      "type": "function"
    },
    {
      "inputs": [
        {
          "internalType": "address",
          "name": "token",
          "type": "address"
        }
      ],
      "name": "getTokenInfoPublic",
      "outputs": [
        {
          "internalType": "int256",
          "name": "responseCode",
          "type": "int256"
        },
        {
          "components": [
            {
              "components": [
                {
                  "internalType": "string",
                  "name": "name",
                  "type": "string"
                },
                {
                  "internalType": "string",
                  "name": "symbol",
                  "type": "string"
                },
                {
                  "internalType": "address",
                  "name": "treasury",
                  "type": "address"
                },
                {
                  "internalType": "string",
                  "name": "memo",
                  "type": "string"
                },
                {
                  "internalType": "bool",
                  "name": "tokenSupplyType",
                  "type": "bool"
                },
                {
                  "internalType": "uint32",
                  "name": "maxSupply",
                  "type": "uint32"
                },
                {
                  "internalType": "bool",
                  "name": "freezeDefault",
                  "type": "bool"
                },
                {
                  "components": [
                    {
                      "internalType": "uint256",
                      "name": "keyType",
                      "type": "uint256"
                    },
                    {
                      "components": [
                        {
                          "internalType": "bool",
                          "name": "inheritAccountKey",
                          "type": "bool"
                        },
                        {
                          "internalType": "address",
                          "name": "contractId",
                          "type": "address"
                        },
                        {
                          "internalType": "bytes",
                          "name": "ed25519",
                          "type": "bytes"
                        },
                        {
                          "internalType": "bytes",
                          "name": "ECDSA_secp256k1",
                          "type": "bytes"
                        },
                        {
                          "internalType": "address",
                          "name": "delegatableContractId",
                          "type": "address"
                        }
                      ],
                      "internalType": "struct IHederaTokenService.KeyValue",
                      "name": "key",
                      "type": "tuple"
                    }
                  ],
                  "internalType": "struct IHederaTokenService.TokenKey[]",
                  "name": "tokenKeys",
                  "type": "tuple[]"
                },
                {
                  "components": [
                    {
                      "internalType": "uint32",
                      "name": "second",
                      "type": "uint32"
                    },
                    {
                      "internalType": "address",
                      "name": "autoRenewAccount",
                      "type": "address"
                    },
                    {
                      "internalType": "uint32",
                      "name": "autoRenewPeriod",
                      "type": "uint32"
                    }
                  ],
                  "internalType": "struct IHederaTokenService.Expiry",
                  "name": "expiry",
                  "type": "tuple"
                }
              ],
              "internalType": "struct IHederaTokenService.HederaToken",
              "name": "token",
              "type": "tuple"
            },
            {
              "internalType": "uint64",
              "name": "totalSupply",
              "type": "uint64"
            },
            {
              "internalType": "bool",
              "name": "deleted",
              "type": "bool"
            },
            {
              "internalType": "bool",
              "name": "defaultKycStatus",
              "type": "bool"
            },
            {
              "internalType": "bool",
              "name": "pauseStatus",
              "type": "bool"
            },
            {
              "components": [
                {
                  "internalType": "uint32",
                  "name": "amount",
                  "type": "uint32"
                },
                {
                  "internalType": "address",
                  "name": "tokenId",
                  "type": "address"
                },
                {
                  "internalType": "bool",
                  "name": "useHbarsForPayment",
                  "type": "bool"
                },
                {
                  "internalType": "bool",
                  "name": "useCurrentTokenForPayment",
                  "type": "bool"
                },
                {
                  "internalType": "address",
                  "name": "feeCollector",
                  "type": "address"
                }
              ],
              "internalType": "struct IHederaTokenService.FixedFee[]",
              "name": "fixedFees",
              "type": "tuple[]"
            },
            {
              "components": [
                {
                  "internalType": "uint32",
                  "name": "numerator",
                  "type": "uint32"
                },
                {
                  "internalType": "uint32",
                  "name": "denominator",
                  "type": "uint32"
                },
                {
                  "internalType": "uint32",
                  "name": "minimumAmount",
                  "type": "uint32"
                },
                {
                  "internalType": "uint32",
                  "name": "maximumAmount",
                  "type": "uint32"
                },
                {
                  "internalType": "bool",
                  "name": "netOfTransfers",
                  "type": "bool"
                },
                {
                  "internalType": "address",
                  "name": "feeCollector",
                  "type": "address"
                }
              ],
              "internalType": "struct IHederaTokenService.FractionalFee[]",
              "name": "fractionalFees",
              "type": "tuple[]"
            },
            {
              "components": [
                {
                  "internalType": "uint32",
                  "name": "numerator",
                  "type": "uint32"
                },
                {
                  "internalType": "uint32",
                  "name": "denominator",
                  "type": "uint32"
                },
                {
                  "internalType": "uint32",
                  "name": "amount",
                  "type": "uint32"
                },
                {
                  "internalType": "address",
                  "name": "tokenId",
                  "type": "address"
                },
                {
                  "internalType": "bool",
                  "name": "useHbarsForPayment",
                  "type": "bool"
                },
                {
                  "internalType": "address",
                  "name": "feeCollector",
                  "type": "address"
                }
              ],
              "internalType": "struct IHederaTokenService.RoyaltyFee[]",
              "name": "royaltyFees",
              "type": "tuple[]"
            },
            {
              "internalType": "string",
              "name": "ledgerId",
              "type": "string"
            }
          ],
          "internalType": "struct IHederaTokenService.TokenInfo",
          "name": "tokenInfo",
          "type": "tuple"
        }
      ],
      "stateMutability": "nonpayable",
      "type": "function"
    },
    {
      "inputs": [
        {
          "internalType": "address",
          "name": "token",
          "type": "address"
        },
        {
          "internalType": "uint256",
          "name": "keyType",
          "type": "uint256"
        }
      ],
      "name": "getTokenKeyPublic",
      "outputs": [
        {
          "internalType": "int64",
          "name": "responseCode",
          "type": "int64"
        },
        {
          "components": [
            {
              "internalType": "bool",
              "name": "inheritAccountKey",
              "type": "bool"
            },
            {
              "internalType": "address",
              "name": "contractId",
              "type": "address"
            },
            {
              "internalType": "bytes",
              "name": "ed25519",
              "type": "bytes"
            },
            {
              "internalType": "bytes",
              "name": "ECDSA_secp256k1",
              "type": "bytes"
            },
            {
              "internalType": "address",
              "name": "delegatableContractId",
              "type": "address"
            }
          ],
          "internalType": "struct IHederaTokenService.KeyValue",
          "name": "key",
          "type": "tuple"
        }
      ],
      "stateMutability": "nonpayable",
      "type": "function"
    },
    {
      "inputs": [
        {
          "internalType": "address",
          "name": "token",
          "type": "address"
        },
        {
          "internalType": "address",
          "name": "account",
          "type": "address"
        }
      ],
      "name": "grantTokenKyc",
      "outputs": [
        {
          "internalType": "int64",
          "name": "responseCode",
          "type": "int64"
        }
      ],
      "stateMutability": "nonpayable",
      "type": "function"
    },
    {
      "inputs": [
        {
          "internalType": "address",
          "name": "token",
          "type": "address"
        },
        {
          "internalType": "address",
          "name": "account",
          "type": "address"
        }
      ],
      "name": "grantTokenKycPublic",
      "outputs": [
        {
          "internalType": "int64",
          "name": "responseCode",
          "type": "int64"
        }
      ],
      "stateMutability": "nonpayable",
      "type": "function"
    },
    {
      "inputs": [
        {
          "internalType": "address",
          "name": "token",
          "type": "address"
        },
        {
          "internalType": "address",
          "name": "owner",
          "type": "address"
        },
        {
          "internalType": "address",
          "name": "operator",
          "type": "address"
        }
      ],
      "name": "isApprovedForAllPublic",
      "outputs": [
        {
          "internalType": "int256",
          "name": "responseCode",
          "type": "int256"
        },
        {
          "internalType": "bool",
          "name": "approved",
          "type": "bool"
        }
      ],
      "stateMutability": "nonpayable",
      "type": "function"
    },
    {
      "inputs": [
        {
          "internalType": "address",
          "name": "token",
          "type": "address"
        },
        {
          "internalType": "address",
          "name": "account",
          "type": "address"
        }
      ],
      "name": "isFrozenPublic",
      "outputs": [
        {
          "internalType": "int256",
          "name": "responseCode",
          "type": "int256"
        },
        {
          "internalType": "bool",
          "name": "frozen",
          "type": "bool"
        }
      ],
      "stateMutability": "nonpayable",
      "type": "function"
    },
    {
      "inputs": [
        {
          "internalType": "address",
          "name": "token",
          "type": "address"
        },
        {
          "internalType": "address",
          "name": "account",
          "type": "address"
        }
      ],
      "name": "isKyc",
      "outputs": [
        {
          "internalType": "int64",
          "name": "responseCode",
          "type": "int64"
        },
        {
          "internalType": "bool",
          "name": "kycGranted",
          "type": "bool"
        }
      ],
      "stateMutability": "nonpayable",
      "type": "function"
    },
    {
      "inputs": [
        {
          "internalType": "address",
          "name": "token",
          "type": "address"
        },
        {
          "internalType": "address",
          "name": "account",
          "type": "address"
        }
      ],
      "name": "isKycPublic",
      "outputs": [
        {
          "internalType": "int64",
          "name": "responseCode",
          "type": "int64"
        },
        {
          "internalType": "bool",
          "name": "kycGranted",
          "type": "bool"
        }
      ],
      "stateMutability": "nonpayable",
      "type": "function"
    },
    {
      "inputs": [
        {
          "internalType": "address",
          "name": "token",
          "type": "address"
        },
        {
          "internalType": "uint64",
          "name": "amount",
          "type": "uint64"
        },
        {
          "internalType": "bytes[]",
          "name": "metadata",
          "type": "bytes[]"
        }
      ],
      "name": "mintTokenPublic",
      "outputs": [
        {
          "internalType": "int256",
          "name": "responseCode",
          "type": "int256"
        },
        {
          "internalType": "uint64",
          "name": "newTotalSupply",
          "type": "uint64"
        },
        {
          "internalType": "int64[]",
          "name": "serialNumbers",
          "type": "int64[]"
        }
      ],
      "stateMutability": "nonpayable",
      "type": "function"
    },
    {
      "inputs": [
        {
          "internalType": "address",
          "name": "token",
          "type": "address"
        }
      ],
      "name": "pauseToken",
      "outputs": [
        {
          "internalType": "int256",
          "name": "responseCode",
          "type": "int256"
        }
      ],
      "stateMutability": "nonpayable",
      "type": "function"
    },
    {
      "inputs": [
        {
          "internalType": "address",
          "name": "token",
          "type": "address"
        }
      ],
      "name": "pauseTokenPublic",
      "outputs": [
        {
          "internalType": "int256",
          "name": "responseCode",
          "type": "int256"
        }
      ],
      "stateMutability": "nonpayable",
      "type": "function"
    },
    {
      "inputs": [
        {
          "internalType": "address",
          "name": "token",
          "type": "address"
        },
        {
          "internalType": "address",
          "name": "account",
          "type": "address"
        }
      ],
      "name": "revokeTokenKyc",
      "outputs": [
        {
          "internalType": "int64",
          "name": "responseCode",
          "type": "int64"
        }
      ],
      "stateMutability": "nonpayable",
      "type": "function"
    },
    {
      "inputs": [
        {
          "internalType": "address",
          "name": "token",
          "type": "address"
        },
        {
          "internalType": "address",
          "name": "account",
          "type": "address"
        }
      ],
      "name": "revokeTokenKycPublic",
      "outputs": [
        {
          "internalType": "int64",
          "name": "responseCode",
          "type": "int64"
        }
      ],
      "stateMutability": "nonpayable",
      "type": "function"
    },
    {
      "inputs": [
        {
          "internalType": "address",
          "name": "token",
          "type": "address"
        },
        {
          "internalType": "address",
          "name": "operator",
          "type": "address"
        },
        {
          "internalType": "bool",
          "name": "approved",
          "type": "bool"
        }
      ],
      "name": "setApprovalForAllPublic",
      "outputs": [
        {
          "internalType": "int256",
          "name": "responseCode",
          "type": "int256"
        }
      ],
      "stateMutability": "nonpayable",
      "type": "function"
    },
    {
      "inputs": [
        {
          "internalType": "bool",
          "name": "newFreezeStatus",
          "type": "bool"
        }
      ],
      "name": "setFreezeDefaultStatus",
      "outputs": [],
      "stateMutability": "nonpayable",
      "type": "function"
    },
    {
      "inputs": [
        {
          "internalType": "address",
          "name": "token",
          "type": "address"
        },
        {
          "internalType": "address",
          "name": "sender",
          "type": "address"
        },
        {
          "internalType": "address",
          "name": "receiver",
          "type": "address"
        },
        {
          "internalType": "int64",
          "name": "serialNumber",
          "type": "int64"
        }
      ],
      "name": "transferNFTPublic",
      "outputs": [
        {
          "internalType": "int256",
          "name": "responseCode",
          "type": "int256"
        }
      ],
      "stateMutability": "nonpayable",
      "type": "function"
    },
    {
      "inputs": [
        {
          "internalType": "address",
          "name": "token",
          "type": "address"
        },
        {
          "internalType": "address",
          "name": "sender",
          "type": "address"
        },
        {
          "internalType": "address",
          "name": "receiver",
          "type": "address"
        },
        {
          "internalType": "int64",
          "name": "amount",
          "type": "int64"
        }
      ],
      "name": "transferTokenPublic",
      "outputs": [
        {
          "internalType": "int256",
          "name": "responseCode",
          "type": "int256"
        }
      ],
      "stateMutability": "nonpayable",
      "type": "function"
    },
    {
      "inputs": [
        {
          "internalType": "address",
          "name": "token",
          "type": "address"
        },
        {
          "internalType": "address",
          "name": "account",
          "type": "address"
        }
      ],
      "name": "unfreezeTokenPublic",
      "outputs": [
        {
          "internalType": "int256",
          "name": "responseCode",
          "type": "int256"
        }
      ],
      "stateMutability": "nonpayable",
      "type": "function"
    },
    {
      "inputs": [
        {
          "internalType": "address",
          "name": "token",
          "type": "address"
        }
      ],
      "name": "unpauseToken",
      "outputs": [
        {
          "internalType": "int256",
          "name": "responseCode",
          "type": "int256"
        }
      ],
      "stateMutability": "nonpayable",
      "type": "function"
    },
    {
      "inputs": [
        {
          "internalType": "address",
          "name": "token",
          "type": "address"
        }
      ],
      "name": "unpauseTokenPublic",
      "outputs": [
        {
          "internalType": "int256",
          "name": "responseCode",
          "type": "int256"
        }
      ],
      "stateMutability": "nonpayable",
      "type": "function"
    },
    {
      "inputs": [
        {
          "internalType": "address",
          "name": "token",
          "type": "address"
        },
        {
          "components": [
            {
              "internalType": "uint32",
              "name": "second",
              "type": "uint32"
            },
            {
              "internalType": "address",
              "name": "autoRenewAccount",
              "type": "address"
            },
            {
              "internalType": "uint32",
              "name": "autoRenewPeriod",
              "type": "uint32"
            }
          ],
          "internalType": "struct IHederaTokenService.Expiry",
          "name": "expiryInfo",
          "type": "tuple"
        }
      ],
      "name": "updateTokenExpiryInfo",
      "outputs": [
        {
          "internalType": "int256",
          "name": "responseCode",
          "type": "int256"
        }
      ],
      "stateMutability": "nonpayable",
      "type": "function"
    },
    {
      "inputs": [
        {
          "internalType": "address",
          "name": "token",
          "type": "address"
        },
        {
          "components": [
            {
              "internalType": "uint32",
              "name": "second",
              "type": "uint32"
            },
            {
              "internalType": "address",
              "name": "autoRenewAccount",
              "type": "address"
            },
            {
              "internalType": "uint32",
              "name": "autoRenewPeriod",
              "type": "uint32"
            }
          ],
          "internalType": "struct IHederaTokenService.Expiry",
          "name": "expiryInfo",
          "type": "tuple"
        }
      ],
      "name": "updateTokenExpiryInfoPublic",
      "outputs": [
        {
          "internalType": "int256",
          "name": "responseCode",
          "type": "int256"
        }
      ],
      "stateMutability": "nonpayable",
      "type": "function"
    },
    {
      "inputs": [
        {
          "internalType": "address",
          "name": "token",
          "type": "address"
        },
        {
          "components": [
            {
              "internalType": "uint256",
              "name": "keyType",
              "type": "uint256"
            },
            {
              "components": [
                {
                  "internalType": "bool",
                  "name": "inheritAccountKey",
                  "type": "bool"
                },
                {
                  "internalType": "address",
                  "name": "contractId",
                  "type": "address"
                },
                {
                  "internalType": "bytes",
                  "name": "ed25519",
                  "type": "bytes"
                },
                {
                  "internalType": "bytes",
                  "name": "ECDSA_secp256k1",
                  "type": "bytes"
                },
                {
                  "internalType": "address",
                  "name": "delegatableContractId",
                  "type": "address"
                }
              ],
              "internalType": "struct IHederaTokenService.KeyValue",
              "name": "key",
              "type": "tuple"
            }
          ],
          "internalType": "struct IHederaTokenService.TokenKey[]",
          "name": "keys",
          "type": "tuple[]"
        }
      ],
      "name": "updateTokenKeysPublic",
      "outputs": [
        {
          "internalType": "int64",
          "name": "responseCode",
          "type": "int64"
        }
      ],
      "stateMutability": "nonpayable",
      "type": "function"
    },
    {
      "inputs": [
        {
          "internalType": "address",
          "name": "token",
          "type": "address"
        },
        {
          "internalType": "address",
          "name": "account",
          "type": "address"
        },
        {
          "internalType": "int64[]",
          "name": "serialNumbers",
          "type": "int64[]"
        }
      ],
      "name": "wipeTokenAccountNFTPublic",
      "outputs": [
        {
          "internalType": "int256",
          "name": "responseCode",
          "type": "int256"
        }
      ],
      "stateMutability": "nonpayable",
      "type": "function"
    },
    {
      "inputs": [
        {
          "internalType": "address",
          "name": "token",
          "type": "address"
        },
        {
          "internalType": "address",
          "name": "account",
          "type": "address"
        },
        {
          "internalType": "uint32",
          "name": "amount",
          "type": "uint32"
        }
      ],
      "name": "wipeTokenAccountPublic",
      "outputs": [
        {
          "internalType": "int256",
          "name": "responseCode",
          "type": "int256"
        }
      ],
      "stateMutability": "nonpayable",
      "type": "function"
    }
  ],
  "bytecode": "0x60c06040526009608081905268746f6b656e4e616d6560b81b60a09081526200002c9160019190620000cb565b5060408051808201909152600b8082526a1d1bdad95b94de5b589bdb60aa1b60209092019182526200006191600291620000cb565b50604080518082019091526004808252636d656d6f60e01b60209092019182526200008f91600391620000cb565b506103e860048190556005805463ffffffff1916909117905560086006556007805460ff19169055348015620000c457600080fd5b50620001ae565b828054620000d99062000171565b90600052602060002090601f016020900481019282620000fd576000855562000148565b82601f106200011857805160ff191683800117855562000148565b8280016001018555821562000148579182015b82811115620001485782518255916020019190600101906200012b565b50620001569291506200015a565b5090565b5b808211156200015657600081556001016200015b565b600181811c908216806200018657607f821691505b60208210811415620001a857634e487b7160e01b600052602260045260246000fd5b50919050565b615c5180620001be6000396000f3fe60806040526004361061025c5760003560e01c80637d3e5da811610144578063d85f74c1116100b6578063f2f38a741161007a578063f2f38a74146107ba578063f4a01e5b146107e8578063f7be342514610808578063f848fec414610828578063f9e978bd14610848578063fdc8321e1461086857600080fd5b8063d85f74c114610727578063d92ac2481461073a578063eee55ac81461075a578063f25b12001461077a578063f2c31ff41461079a57600080fd5b80639604ca65116101085780639604ca651461063f578063a345f7bd1461065f578063a3ad5b551461067f578063af99c633146106b9578063c0b19b6d146106d9578063d614cdb81461070757600080fd5b80637d3e5da81461059d5780638070905f146105bd57806386f88d88146105ec5780638ba74da01461060c5780638f8d7f991461061f57600080fd5b80634ba67035116101dd5780635a5e6c31116101a15780635a5e6c31146104aa5780635b9076b7146104df57806369837dc21461050f5780636a4dde211461053d5780636da6b1f01461055d5780637c41ad2c1461057d57600080fd5b80634ba67035146103fc5780634cbdb37b1461041c5780634d8f27c91461044a57806356af84031461046a578063593d6e821461048a57600080fd5b80632d73bb2e116102245780632d73bb2e146103675780632eecbca3146103875780633b3bff0f146103a75780633eed2c39146103c75780634b5c6687146103e757600080fd5b80630fd2601e1461026157806313c05dd8146102995780631955de0b146102ce57806319db44b6146102fc5780632b256ec814610339575b600080fd5b34801561026d57600080fd5b5061028161027c366004614398565b610888565b60405160079190910b81526020015b60405180910390f35b3480156102a557600080fd5b506102b96102b43660046143d0565b610941565b60408051928352901515602083015201610290565b3480156102da57600080fd5b506102ee6102e936600461487f565b6109bf565b60405161029092919061573c565b34801561030857600080fd5b5061031c61031736600461487f565b610a4c565b604080519283526001600160a01b03909116602083015201610290565b34801561034557600080fd5b5061035961035436600461437c565b610ac5565b604051908152602001610290565b34801561037357600080fd5b50610359610382366004614398565b610bb1565b34801561039357600080fd5b506102816103a2366004614398565b610bf6565b3480156103b357600080fd5b506103596103c236600461437c565b610c1e565b3480156103d357600080fd5b506102b96103e236600461437c565b610cf8565b6103fa6103f536600461437c565b610d72565b005b34801561040857600080fd5b5061035961041736600461441a565b61116a565b34801561042857600080fd5b5061043c6104373660046147d7565b6111b6565b604051610290929190615695565b34801561045657600080fd5b50610281610465366004614634565b61122c565b34801561047657600080fd5b50610359610485366004614475565b611238565b34801561049657600080fd5b506103596104a5366004614804565b611282565b3480156104b657600080fd5b506104ca6104c53660046143d0565b61135f565b60408051928352602083019190915201610290565b3480156104eb57600080fd5b506104ff6104fa36600461437c565b6113d0565b60405161029094939291906156ef565b34801561051b57600080fd5b5061052f61052a36600461437c565b611462565b60405161029092919061567c565b34801561054957600080fd5b506102b9610558366004614398565b6114d7565b34801561056957600080fd5b5061035961057836600461441a565b61154e565b34801561058957600080fd5b5061035961059836600461437c565b61155c565b3480156105a957600080fd5b506103596105b8366004614398565b61158a565b3480156105c957600080fd5b506105dd6105d83660046148aa565b611596565b604051610290939291906156c7565b3480156105f857600080fd5b506102b961060736600461437c565b61161e565b6103fa61061a366004614398565b61168f565b34801561062b57600080fd5b5061028161063a366004614398565b611b4b565b34801561064b57600080fd5b5061035961065a366004614980565b611b77565b34801561066b57600080fd5b5061035961067a36600461437c565b611bac565b34801561068b57600080fd5b5061069f61069a366004614398565b611bf2565b6040805160079390930b8352901515602083015201610290565b3480156106c557600080fd5b506102816106d4366004614398565b611cda565b3480156106e557600080fd5b506106f96106f436600461437c565b611d06565b604051610290929190615668565b34801561071357600080fd5b506106f961072236600461437c565b611dfd565b6103fa61073536600461437c565b611f0c565b34801561074657600080fd5b506103596107553660046145f5565b6122ea565b34801561076657600080fd5b50610359610775366004614804565b6122f7565b34801561078657600080fd5b50610359610795366004614537565b612371565b3480156107a657600080fd5b5061069f6107b5366004614398565b61237e565b3480156107c657600080fd5b506107da6107d536600461437c565b612452565b6040516102909291906156ae565b3480156107f457600080fd5b50610359610803366004614398565b6124c7565b34801561081457600080fd5b5061035961082336600461437c565b6124d3565b34801561083457600080fd5b506103596108433660046145b5565b6125b6565b34801561085457600080fd5b506103fa6108633660046149ef565b6125c3565b34801561087457600080fd5b50610359610883366004614576565b612610565b604051638f8d7f9960e01b81526000903090638f8d7f99906108b0908690869060040161544b565b602060405180830381600087803b1580156108ca57600080fd5b505af11580156108de573d6000803e3d6000fd5b505050506040513d601f19601f820116820180604052508101906109029190614e58565b604051600782900b8152909150600080516020615bfc8339815191529060200160405180910390a1600781900b60161461093b57600080fd5b92915050565b60008061094f858585612811565b6040518281529193509150600080516020615bfc8339815191529060200160405180910390a16016821461098257600080fd5b60405181151581527e1c2e72360171244b3bb8cc8ddd767820edf37138ad6f129fb3574b407c307d906020015b60405180910390a1935093915050565b60006109c96139de565b6109d384846128f7565b604051600783900b81529193509150600080516020615bfc8339815191529060200160405180910390a1600782900b601614610a0e57600080fd5b7faed084fbdf29b6ba2242463299d7270f64e0f8ced16013cfff249856bd88715781604051610a3d9190615802565b60405180910390a19250929050565b600080610a5984846129cb565b6040518281529193509150600080516020615bfc8339815191529060200160405180910390a160168214610a8c57600080fd5b6040516001600160a01b03821681527fc2c78c7c31baf14949e75c51df12be56edb9af523cf82839c2869bbcf13b3ecb90602001610a3d565b604051631f106b4b60e21b81526001600160a01b03821660048201526000903090637c41ad2c90602401602060405180830381600087803b158015610b0957600080fd5b505af1158015610b1d573d6000803e3d6000fd5b505050506040513d601f19601f82011682018060405250810190610b419190614a0b565b9050600080516020615bfc83398151915281604051610b6291815260200190565b60405180910390a160168114610b7757600080fd5b604051600181527f0c9c765845f4d139956bb8fc8decb2eec6093c9c608b809641b16054b29f0e13906020015b60405180910390a1919050565b6000610bbd8383612a92565b60070b9050600080516020615bfc83398151915281604051610be191815260200190565b60405180910390a16016811461093b57600080fd5b60405163af99c63360e01b8152600090309063af99c633906108b0908690869060040161544b565b6040516001600160a01b03821660248201526000908190819061016790633b3bff0f60e01b906044015b60408051601f198184030181529181526020820180516001600160e01b03166001600160e01b0319909416939093179092529051610c86919061542f565b6000604051808303816000865af19150503d8060008114610cc3576040519150601f19603f3d011682016040523d82523d6000602084013e610cc8565b606091505b509150915081610cd9576015610ced565b80806020019051810190610ced9190614a4f565b60030b949350505050565b600080610d0483612abe565b6040518281529193509150600080516020615bfc8339815191529060200160405180910390a160168214610d3757600080fd5b60405181151581527f6b7f3306751292f85ab4161ee2b0ac16dfc8ded13e6446ce6bd859d0a2f4c78e906020015b60405180910390a1915091565b60408051600480825260a08201909252600091816020015b610d92613a21565b815260200190600190039081610d8a579050509050610dc560006006600160405180602001604052806000815250612ba2565b81600081518110610de657634e487b7160e01b600052603260045260246000fd5b6020026020010181905250610e0c60018060405180602001604052806000815250612bd9565b81600181518110610e2d57634e487b7160e01b600052603260045260246000fd5b6020026020010181905250610e546002600160405180602001604052806000815250612bd9565b81600281518110610e7557634e487b7160e01b600052603260045260246000fd5b6020026020010181905250610e9c6003600160405180602001604052806000815250612bd9565b81600381518110610ebd57634e487b7160e01b600052603260045260246000fd5b602002602001018190525060006040518060600160405280600063ffffffff168152602001846001600160a01b03168152602001627a120063ffffffff168152509050600060405180610120016040528060018054610f1b90615b1c565b80601f0160208091040260200160405190810160405280929190818152602001828054610f4790615b1c565b8015610f945780601f10610f6957610100808354040283529160200191610f94565b820191906000526020600020905b815481529060010190602001808311610f7757829003601f168201915b5050505050815260200160028054610fab90615b1c565b80601f0160208091040260200160405190810160405280929190818152602001828054610fd790615b1c565b80156110245780601f10610ff957610100808354040283529160200191611024565b820191906000526020600020905b81548152906001019060200180831161100757829003601f168201915b50505050508152602001856001600160a01b031681526020016003805461104a90615b1c565b80601f016020809104026020016040519081016040528092919081815260200182805461107690615b1c565b80156110c35780601f10611098576101008083540402835291602001916110c3565b820191906000526020600020905b8154815290600101906020018083116110a657829003601f168201915b50505091835250506001602082015260055463ffffffff16604082015260075460ff16151560608201526080810185905260a001839052600454600654919250600091829161111491859190612c0e565b90925090506016821461112657600080fd5b6040516001600160a01b03821681527f7bb17726df1f3adee8aa00ba8e8bc5d6f182af3bbf77604639cb7f008dd3b4ed9060200160405180910390a1505050505050565b600061117885858585612d3c565b9050600080516020615bfc8339815191528160405161119991815260200190565b60405180910390a1601681146111ae57600080fd5b949350505050565b60006111c0613a40565b6111ca8484612e33565b6040518281529193509150600080516020615bfc8339815191529060200160405180910390a1601682146111fd57600080fd5b7fa516f81c528634d0fc1e993bba1d227231b4bd6d1beb72d33b056a6199c0f98881604051610a3d9190615815565b60006109028383612f0d565b6000611245848484612f39565b9050600080516020615bfc8339815191528160405161126691815260200190565b60405180910390a16016811461127b57600080fd5b9392505050565b60008060006101676001600160a01b031663593d6e8260e01b86866040516024016112ae9291906154be565b60408051601f198184030181529181526020820180516001600160e01b03166001600160e01b03199094169390931790925290516112ec919061542f565b6000604051808303816000865af19150503d8060008114611329576040519150601f19603f3d011682016040523d82523d6000602084013e61132e565b606091505b50915091508161133f576015611353565b808060200190518101906113539190614a4f565b60030b95945050505050565b60008061136d858585613019565b6040518281529193509150600080516020615bfc8339815191529060200160405180910390a1601682146113a057600080fd5b6040518181527f25b6684a7e8fe1b676e9c39c8dd65034fbafea906d3bdfd97bf748b7b55e14c8906020016109af565b600060608060606113e0856130ec565b604051600785900b815293975091955093509150600080516020615bfc8339815191529060200160405180910390a1600784900b60161461142057600080fd5b7f2efc8334b040613a552197fe34283d6ca2909c8ffae393e128424931f20c69b38383836040516114539392919061555c565b60405180910390a19193509193565b600061146c613a7b565b611475836131d3565b6040518281529193509150600080516020615bfc8339815191529060200160405180910390a1601682146114a857600080fd5b7f476a9a9b28e2717d55288b2ae3c48a72aac52b11f8bd855017c9d41d9fc1896481604051610d659190615766565b6000806114e484846132a3565b60405160079290920b80835293509150600080516020615bfc8339815191529060200160405180910390a16016821461151c57600080fd5b60405181151581527f59800d968fcce138300a0019410b4b75041610d65b3cdc5f31656b03ed14912e90602001610a3d565b6000611178858585856132d0565b6040516001600160a01b03821660248201526000908190819061016790631f106b4b60e21b90604401610c48565b6000610bbd8383613318565b60008060606115a6868686613344565b6040518381529295509093509150600080516020615bfc8339815191529060200160405180910390a1601683146115dc57600080fd5b7feff23992f47b3c101679f8b4dc9d3e242c903909dba4a453f2b2341ad463b0e2828260405161160d92919061583b565b60405180910390a193509350939050565b60008061162a83613442565b6040518281529193509150600080516020615bfc8339815191529060200160405180910390a16016821461165d57600080fd5b60405181151581527f9ee19e13dfa1ba8db2502e15ff56dbecdeb0e0473323fb195473ce648030a2cd90602001610d65565b604080516001808252818301909252600091816020015b6116ae613a21565b8152602001906001900390816116a65790505090506116e0600080600160405180602001604052806000815250612ba2565b8160008151811061170157634e487b7160e01b600052603260045260246000fd5b602002602001018190525060006040518060600160405280600063ffffffff168152602001856001600160a01b03168152602001627a120063ffffffff16815250905060006040518061012001604052806001805461175f90615b1c565b80601f016020809104026020016040519081016040528092919081815260200182805461178b90615b1c565b80156117d85780601f106117ad576101008083540402835291602001916117d8565b820191906000526020600020905b8154815290600101906020018083116117bb57829003601f168201915b50505050508152602001600280546117ef90615b1c565b80601f016020809104026020016040519081016040528092919081815260200182805461181b90615b1c565b80156118685780601f1061183d57610100808354040283529160200191611868565b820191906000526020600020905b81548152906001019060200180831161184b57829003601f168201915b50505050508152602001866001600160a01b031681526020016003805461188e90615b1c565b80601f01602080910402602001604051908101604052809291908181526020018280546118ba90615b1c565b80156119075780601f106118dc57610100808354040283529160200191611907565b820191906000526020600020905b8154815290600101906020018083116118ea57829003601f168201915b505050918352505060016020820181905260055463ffffffff166040808401919091526000606084018190526080840188905260a09093018690528051828152808201909152929350909190816020015b6040805160a0810182526000808252602080830182905292820181905260608201819052608082015282526000199092019101816119585750506040805160a081018252600181526001600160a01b038881166020830152600092820183905260608201839052891660808201528251929350918391906119e957634e487b7160e01b600052603260045260246000fd5b6020908102919091010152604080516001808252818301909252600091816020015b6040805160c08101825260008082526020808301829052928201819052606082018190526080820181905260a08201528252600019909201910181611a0b5750506040805160c0810182526004815260056020820152600a91810191909152601e60608201526000608082018190526001600160a01b038a1660a083015282519293509091839190611aad57634e487b7160e01b600052603260045260246000fd5b6020026020010181905250600080611acc856004546006548787613472565b91509150600080516020615bfc83398151915282604051611aef91815260200190565b60405180910390a160168214611b0457600080fd5b6040516001600160a01b03821681527f7bb17726df1f3adee8aa00ba8e8bc5d6f182af3bbf77604639cb7f008dd3b4ed9060200160405180910390a1505050505050505050565b60008060006101676001600160a01b0316638f8d7f9960e01b86866040516024016112ae92919061544b565b6000611b8b611b868385615988565b6135a6565b9050600080516020615bfc83398151915281604051610be191815260200190565b6000611bb7826135d0565b9050600080516020615bfc83398151915281604051611bd891815260200190565b60405180910390a160168114611bed57600080fd5b919050565b604051633cb0c7fd60e21b81526000908190309063f2c31ff490611c1c908790879060040161544b565b6040805180830381600087803b158015611c3557600080fd5b505af1158015611c49573d6000803e3d6000fd5b505050506040513d601f19601f82011682018060405250810190611c6d9190614e74565b604051600783900b81529193509150600080516020615bfc8339815191529060200160405180910390a1600782900b601614611ca857600080fd5b60405181151581527fd24dda6928587354b65aa1a18c2eaf249bef7e5bafd2a71fac71d286f76f957f90602001610a3d565b60008060006101676001600160a01b031663af99c63360e01b86866040516024016112ae92919061544b565b60408051606081018252600080825260208201819052918101829052604051631ac299b760e31b81526001600160a01b0384166004820152309063d614cdb890602401608060405180830381600087803b158015611d6357600080fd5b505af1158015611d77573d6000803e3d6000fd5b505050506040513d601f19601f82011682018060405250810190611d9b9190614a23565b6040518281529193509150600080516020615bfc8339815191529060200160405180910390a160168214611dce57600080fd5b7fa0a16bf9db2c17796faeca5af5aaeef8523f9d4c350c512cb00062ad89604f8881604051610d659190615758565b604080516060810182526000808252602080830182905282840182905283516001600160a01b038616602480830191909152855180830390910181526044909101855290810180516001600160e01b0316631ac299b760e31b179052925190928391829161016791611e6f919061542f565b6000604051808303816000865af19150503d8060008114611eac576040519150601f19603f3d011682016040523d82523d6000602084013e611eb1565b606091505b5091509150611ed9604080516060810182526000808252602082018190529181019190915290565b82611ee657601581611efa565b81806020019051810190611efa9190614b53565b60039190910b97909650945050505050565b60408051600580825260c08201909252600091816020015b611f2c613a21565b815260200190600190039081611f24579050509050611f5f60006006600160405180602001604052806000815250612ba2565b81600081518110611f8057634e487b7160e01b600052603260045260246000fd5b6020026020010181905250611fa660018060405180602001604052806000815250612bd9565b81600181518110611fc757634e487b7160e01b600052603260045260246000fd5b6020026020010181905250611fee6002600160405180602001604052806000815250612bd9565b8160028151811061200f57634e487b7160e01b600052603260045260246000fd5b60200260200101819052506120366004600160405180602001604052806000815250612bd9565b8160038151811061205757634e487b7160e01b600052603260045260246000fd5b602002602001018190525061207e6003600160405180602001604052806000815250612bd9565b8160048151811061209f57634e487b7160e01b600052603260045260246000fd5b602002602001018190525060006040518060600160405280600063ffffffff168152602001846001600160a01b03168152602001627a120063ffffffff1681525090506000604051806101200160405280600180546120fd90615b1c565b80601f016020809104026020016040519081016040528092919081815260200182805461212990615b1c565b80156121765780601f1061214b57610100808354040283529160200191612176565b820191906000526020600020905b81548152906001019060200180831161215957829003601f168201915b505050505081526020016002805461218d90615b1c565b80601f01602080910402602001604051908101604052809291908181526020018280546121b990615b1c565b80156122065780601f106121db57610100808354040283529160200191612206565b820191906000526020600020905b8154815290600101906020018083116121e957829003601f168201915b50505050508152602001856001600160a01b031681526020016003805461222c90615b1c565b80601f016020809104026020016040519081016040528092919081815260200182805461225890615b1c565b80156122a55780601f1061227a576101008083540402835291602001916122a5565b820191906000526020600020905b81548152906001019060200180831161228857829003601f168201915b50505091835250506001602082015260055463ffffffff16604082015260075460ff16151560608201526080810185905260a0018390529050600080611114836135fe565b60006112458484846136e8565b604051632c9eb74160e11b8152600090309063593d6e829061231f90869086906004016154be565b602060405180830381600087803b15801561233957600080fd5b505af115801561234d573d6000803e3d6000fd5b505050506040513d601f19601f82011682018060405250810190611b8b9190614a0b565b600061124584848461372a565b6000806000806101676001600160a01b031663f2c31ff460e01b87876040516024016123ab92919061544b565b60408051601f198184030181529181526020820180516001600160e01b03166001600160e01b03199094169390931790925290516123e9919061542f565b6000604051808303816000865af19150503d8060008114612426576040519150601f19603f3d011682016040523d82523d6000602084013e61242b565b606091505b50915091508161243e5760156000611efa565b80806020019051810190611efa9190614b28565b600061245c613a9b565b61246583613768565b6040518281529193509150600080516020615bfc8339815191529060200160405180910390a16016821461249857600080fd5b7f528c7dcea75f0c9e110a038e50647cd6a70ac06d331399b77dd9a80f903ebc1681604051610d659190615828565b6000611b8b8383613838565b604051633b3bff0f60e01b81526001600160a01b03821660048201526000903090633b3bff0f90602401602060405180830381600087803b15801561251757600080fd5b505af115801561252b573d6000803e3d6000fd5b505050506040513d601f19601f8201168201806040525081019061254f9190614a0b565b9050600080516020615bfc8339815191528160405161257091815260200190565b60405180910390a16016811461258557600080fd5b604051600181527f319ab7084208e4afa38c6e6ff7aea9587439f2e4700746f4c7d425fea17426d290602001610ba4565b6000611245848484613864565b6007805460ff191682151590811790915560405160ff909116151581527f457c3a16a0ebdc38e3675609957ca3fcc4490e220bd15d85d34f58e2e145cb089060200160405180910390a150565b60408051600080825260208201909252819081612655565b60408051606081018252600080825260208083018290529282015282526000199092019101816126285790505b50905060006040518060400160405280336001600160a01b031681526020018561267e90615b57565b600790810b9091526040805180820182526001600160a01b038a1681529187900b602083015280516002808252606082019092529293509091600091816020015b60408051808201909152600080825260208201528152602001906001900390816126bf579050509050828160008151811061270a57634e487b7160e01b600052603260045260246000fd5b6020026020010181905250818160018151811061273757634e487b7160e01b600052603260045260246000fd5b602090810291909101810191909152604080516060810182526001600160a01b038a16815291820183905281810186905280516001808252818301909252600091816020015b6127aa604051806060016040528060006001600160a01b0316815260200160608152602001606081525090565b81526020019060019003908161277d57905050905081816000815181106127e157634e487b7160e01b600052603260045260246000fd5b60200260200101819052506127f5816135a6565b96506016871461280457600080fd5b5050505050509392505050565b604080516001600160a01b0385811660248301528481166044830152831660648083019190915282518083039091018152608490910182526020810180516001600160e01b031663f49f40db60e01b17905290516000918291829182916101679161287b9161542f565b6000604051808303816000865af19150503d80600081146128b8576040519150601f19603f3d011682016040523d82523d6000602084013e6128bd565b606091505b5091509150816128d057601560006128e4565b808060200190518101906128e49190614b28565b60039190910b9890975095505050505050565b60006129016139de565b604080516001600160a01b0386166024820152604480820186905282518083039091018152606490910182526020810180516001600160e01b0316631e26e99760e11b179052905160009182916101679161295b9161542f565b6000604051808303816000865af19150503d8060008114612998576040519150601f19603f3d011682016040523d82523d6000602084013e61299d565b606091505b50915091506129aa6139de565b826129b7576015816128e4565b818060200190518101906128e49190614c0e565b604080516001600160a01b0384166024820152604480820184905282518083039091018152606490910182526020810180516001600160e01b03166304c791b360e11b179052905160009182918291829161016791612a299161542f565b6000604051808303816000865af19150503d8060008114612a66576040519150601f19603f3d011682016040523d82523d6000602084013e612a6b565b606091505b509150915081612a7e5760156000611efa565b80806020019051810190611efa9190614a69565b60008060006101676001600160a01b03166352f9138760e01b86866040516024016112ae92919061544b565b6040516001600160a01b03821660248201526000908190819081906101679063a7daa18d60e01b906044015b60408051601f198184030181529181526020820180516001600160e01b03166001600160e01b0319909416939093179092529051612b28919061542f565b6000604051808303816000865af19150503d8060008114612b65576040519150601f19603f3d011682016040523d82523d6000602084013e612b6a565b606091505b509150915081612b7d5760156000612b91565b80806020019051810190612b919190614b28565b60039190910b969095509350505050565b612baa613a21565b6040518060400160405280612bbf87876138a1565b8152602001612bce85856138ba565b905295945050505050565b612be1613a21565b6040518060400160405280612bf58661394c565b8152602001612c0485856138ba565b9052949350505050565b600080848061010001516000015163ffffffff166000148015612c3e57506101008101516040015163ffffffff16155b15612c54576101008101516276a7006040909101525b6000806101676001600160a01b031634637812a04b60e01b8a8a8a604051602401612c819392919061578c565b60408051601f198184030181529181526020820180516001600160e01b03166001600160e01b0319909416939093179092529051612cbf919061542f565b60006040518083038185875af1925050503d8060008114612cfc576040519150601f19603f3d011682016040523d82523d6000602084013e612d01565b606091505b509150915081612d145760156000612d28565b80806020019051810190612d289190614a69565b60039190910b999098509650505050505050565b6040516001600160a01b038581166024830152848116604483015283166064820152600782900b6084820152600090819081906101679063eca3691760e01b9060a4015b60408051601f198184030181529181526020820180516001600160e01b03166001600160e01b0319909416939093179092529051612dbe919061542f565b6000604051808303816000865af19150503d8060008114612dfb576040519150601f19603f3d011682016040523d82523d6000602084013e612e00565b606091505b509150915081612e11576015612e25565b80806020019051810190612e259190614a4f565b60030b979650505050505050565b6000612e3d613a40565b604080516001600160a01b0386166024820152600785900b60448083019190915282518083039091018152606490910182526020810180516001600160e01b031663050fc3b560e31b1790529051600091829161016791612e9d9161542f565b6000604051808303816000865af19150503d8060008114612eda576040519150601f19603f3d011682016040523d82523d6000602084013e612edf565b606091505b5091509150612eec613a40565b82612ef9576015816128e4565b818060200190518101906128e49190614c59565b60008060006101676001600160a01b0316636fc3cbaf60e01b86866040516024016112ae92919061549a565b60008060006101676001600160a01b031663f7f38e2660e01b878787604051602401612f6793929190615465565b60408051601f198184030181529181526020820180516001600160e01b03166001600160e01b0319909416939093179092529051612fa5919061542f565b6000604051808303816000865af19150503d8060008114612fe2576040519150601f19603f3d011682016040523d82523d6000602084013e612fe7565b606091505b509150915081612ff857601561300c565b8080602001905181019061300c9190614a4f565b60030b9695505050505050565b604080516001600160a01b0385811660248301528481166044830152831660648083019190915282518083039091018152608490910182526020810180516001600160e01b031663927da10560e01b1790529051600091829182918291610167916130839161542f565b6000604051808303816000865af19150503d80600081146130c0576040519150601f19603f3d011682016040523d82523d6000602084013e6130c5565b606091505b5091509150816130d857601560006128e4565b808060200190518101906128e49190614d7c565b604080516001600160a01b03831660248083019190915282518083039091018152604490910182526020810180516001600160e01b0316630573b08d60e51b179052905160009160609182918291859182916101679161314b9161542f565b6000604051808303816000865af19150503d8060008114613188576040519150601f19603f3d011682016040523d82523d6000602084013e61318d565b606091505b50915091506060806060846131a65760158383836131ba565b838060200190518101906131ba9190614a94565b60039390930b9d919c509a509098509650505050505050565b60006131dd613a7b565b604080516001600160a01b03851660248083019190915282518083039091018152604490910182526020810180516001600160e01b0316633f28a19b60e01b17905290516000918291610167916132339161542f565b6000604051808303816000865af19150503d8060008114613270576040519150601f19603f3d011682016040523d82523d6000602084013e613275565b606091505b5091509150613282613a7b565b8261328f57601581611efa565b81806020019051810190611efa9190614b7d565b6000806000806101676001600160a01b03166346de0fb160e01b87876040516024016123ab92919061544b565b6040516001600160a01b038581166024830152848116604483015283166064820152600782900b60848201526000908190819061016790635cfc901160e01b9060a401612d80565b60008060006101676001600160a01b0316635b8f858460e01b86866040516024016112ae92919061544b565b60008060606000806101676001600160a01b031663278e0b8860e01b898989604051602401613375939291906154db565b60408051601f198184030181529181526020820180516001600160e01b03166001600160e01b03199094169390931790925290516133b3919061542f565b6000604051808303816000865af19150503d80600081146133f0576040519150601f19603f3d011682016040523d82523d6000602084013e6133f5565b606091505b50915091508161341857604080516000808252602082019092526015919061342c565b8080602001905181019061342c9190614da7565b60039290920b9a90995090975095505050505050565b6040516001600160a01b03821660248201526000908190819081906101679063335e04c160e01b90604401612aea565b600080868061010001516000015163ffffffff1660001480156134a257506101008101516040015163ffffffff16155b156134b8576101008101516276a7006040909101525b6000806101676001600160a01b031634634c381ae760e01b8c8c8c8c8c6040516024016134e99594939291906157b1565b60408051601f198184030181529181526020820180516001600160e01b03166001600160e01b0319909416939093179092529051613527919061542f565b60006040518083038185875af1925050503d8060008114613564576040519150601f19603f3d011682016040523d82523d6000602084013e613569565b606091505b50915091508161357c5760156000613590565b808060200190518101906135909190614a69565b60039190910b9b909a5098505050505050505050565b60008060006101676001600160a01b031663189a554c60e01b85604051602401610c489190615595565b6040516001600160a01b03821660248201526000908190819061016790637834fb8960e11b90604401610c48565b600080828061010001516000015163ffffffff16600014801561362e57506101008101516040015163ffffffff16155b15613644576101008101516276a7006040909101525b6000806101676001600160a01b031634639dc711e060e01b8860405160240161366d9190615779565b60408051601f198184030181529181526020820180516001600160e01b03166001600160e01b03199094169390931790925290516136ab919061542f565b60006040518083038185875af1925050503d8060008114612a66576040519150601f19603f3d011682016040523d82523d6000602084013e612a6b565b6040516001600160a01b0384811660248301528316604482015263ffffffff821660648201526000908190819061016790639790686d60e01b90608401612f67565b6040516001600160a01b0384811660248301528316604482015281151560648201526000908190819061016790631b3b02e560e11b90608401612f67565b6000613772613a9b565b604080516001600160a01b03851660248083019190915282518083039091018152604490910182526020810180516001600160e01b0316631f69565f60e01b17905290516000918291610167916137c89161542f565b6000604051808303816000865af19150503d8060008114613805576040519150601f19603f3d011682016040523d82523d6000602084013e61380a565b606091505b5091509150613817613a9b565b8261382457601581611efa565b81806020019051810190611efa9190614d3b565b60008060006101676001600160a01b03166349146bde60e01b86866040516024016112ae92919061544b565b6040516001600160a01b0384811660248301528316604482015260648101829052600090819081906101679063e1f21c6760e01b90608401612f67565b6000600160ff84161b9050600160ff83161b811761127b565b6138c26139de565b8260ff16600114156138d7576001815261093b565b8260ff16600214156138f9576000546001600160a01b0316602082015261093b565b8260ff1660031415613911576040810182905261093b565b8260ff1660041415613929576060810182905261093b565b8260ff166005141561093b576000546001600160a01b0316608082015292915050565b600060ff821661395e57506001919050565b8160ff166001141561397257506002919050565b8160ff166002141561398657506004919050565b8160ff166003141561399a57506008919050565b8160ff16600414156139ae57506010919050565b8160ff16600514156139c257506020919050565b8160ff16600614156139d657506040919050565b506000919050565b6040518060a0016040528060001515815260200160006001600160a01b03168152602001606081526020016060815260200160006001600160a01b031681525090565b604051806040016040528060008152602001613a3b6139de565b905290565b6040518060c00160405280613a53613a9b565b8152600060208201819052604082018190526060808301829052608083015260a09091015290565b6040518060400160405280613a8e613a9b565b8152600060209091015290565b604051806101200160405280613aaf613afc565b815260200160006001600160401b03168152602001600015158152602001600015158152602001600015158152602001606081526020016060815260200160608152602001606081525090565b604051806101200160405280606081526020016060815260200160006001600160a01b0316815260200160608152602001600015158152602001600063ffffffff16815260200160001515815260200160608152602001613a3b604080516060810182526000808252602082018190529181019190915290565b8035611bed81615b9f565b8051611bed81615b9f565b600082601f830112613b9c578081fd5b81516020613bb1613bac8361593e565b61590e565b8281528181019085830160a080860288018501891015613bcf578687fd5b865b86811015613c585781838b031215613be7578788fd5b613bef61585d565b8351613bfa81615bd4565b815283870151613c0981615b9f565b81880152604084810151613c1c81615bb7565b90820152606084810151613c2f81615bb7565b90820152608084810151613c4281615b9f565b9082015285529385019391810191600101613bd1565b509198975050505050505050565b600082601f830112613c76578081fd5b81516020613c86613bac8361593e565b8281528181019085830160c080860288018501891015613ca4578687fd5b865b86811015613c585781838b031215613cbc578788fd5b613cc4615885565b8351613ccf81615bd4565b815283870151613cde81615bd4565b81880152604084810151613cf181615bd4565b90820152606084810151613d0481615bd4565b90820152608084810151613d1781615bb7565b9082015260a084810151613d2a81615b9f565b9082015285529385019391810191600101613ca6565b600082601f830112613d50578081fd5b81356020613d60613bac8361593e565b82815281810190858301606080860288018501891015613d7e578687fd5b865b86811015613c585781838b031215613d96578788fd5b613d9e6158a7565b8335613da981615b9f565b815283870135613db881615b9f565b81880152604084810135613dcb81615bc5565b9082015285529385019391810191600101613d80565b600082601f830112613df1578081fd5b81516020613e01613bac8361593e565b8281528181019085830160c080860288018501891015613e1f578687fd5b865b86811015613c585781838b031215613e37578788fd5b613e3f615885565b8351613e4a81615bd4565b815283870151613e5981615bd4565b81880152604084810151613e6c81615bd4565b90820152606084810151613e7f81615b9f565b90820152608084810151613e9281615bb7565b9082015260a084810151613ea581615b9f565b9082015285529385019391810191600101613e21565b600082601f830112613ecb578081fd5b81516020613edb613bac8361593e565b80838252828201915082860187848660051b8901011115613efa578586fd5b855b85811015613f785781516001600160401b0380821115613f1a578889fd5b908901906040828c03601f1901811315613f3257898afd5b613f3a6158c9565b838901518152908301519082821115613f51578a8bfd5b613f5f8d8a8487010161419f565b818a015287525050509284019290840190600101613efc565b5090979650505050505050565b8051611bed81615bb7565b600082601f830112613fa0578081fd5b8135613fae613bac82615961565b818152846020838601011115613fc2578283fd5b816020850160208301379081016020019190915292915050565b600082601f830112613fec578081fd5b8151613ffa613bac82615961565b81815284602083860101111561400e578283fd5b6111ae826020830160208701615aec565b8051600381900b8114611bed57600080fd5b8051611bed81615bc5565b60006060828403121561404d578081fd5b6140556158a7565b9050815161406281615bd4565b8152602082015161407281615b9f565b6020820152604082015161408581615bd4565b604082015292915050565b600061016082840312156140a2578081fd5b6140aa6158eb565b905081516001600160401b03808211156140c357600080fd5b6140cf85838601613fdc565b835260208401519150808211156140e557600080fd5b6140f185838601613fdc565b602084015261410260408501613b81565b6040840152606084015191508082111561411b57600080fd5b61412785838601613fdc565b606084015261413860808501613f85565b608084015261414960a08501614366565b60a084015261415a60c08501613f85565b60c084015260e084015191508082111561417357600080fd5b5061418084828501613ebb565b60e0830152506101006141958482850161403c565b9082015292915050565b600060a082840312156141b0578081fd5b6141b861585d565b905081516141c581615bb7565b815260208201516141d581615b9f565b602082015260408201516001600160401b03808211156141f457600080fd5b61420085838601613fdc565b6040840152606084015191508082111561421957600080fd5b5061422684828501613fdc565b60608301525061423860808301613b81565b608082015292915050565b60006101208284031215614255578081fd5b61425d6158eb565b905081516001600160401b038082111561427657600080fd5b61428285838601614090565b835261429060208501614371565b60208401526142a160408501613f85565b60408401526142b260608501613f85565b60608401526142c360808501613f85565b608084015260a08401519150808211156142dc57600080fd5b6142e885838601613b8c565b60a084015260c084015191508082111561430157600080fd5b61430d85838601613c66565b60c084015260e084015191508082111561432657600080fd5b61433285838601613de1565b60e08401526101009150818401518181111561434d57600080fd5b61435986828701613fdc565b8385015250505092915050565b8051611bed81615bd4565b8051611bed81615be6565b60006020828403121561438d578081fd5b813561127b81615b9f565b600080604083850312156143aa578081fd5b82356143b581615b9f565b915060208301356143c581615b9f565b809150509250929050565b6000806000606084860312156143e4578081fd5b83356143ef81615b9f565b925060208401356143ff81615b9f565b9150604084013561440f81615b9f565b809150509250925092565b6000806000806080858703121561442f578182fd5b843561443a81615b9f565b9350602085013561444a81615b9f565b9250604085013561445a81615b9f565b9150606085013561446a81615bc5565b939692955090935050565b600080600060608486031215614489578081fd5b833561449481615b9f565b92506020848101356144a581615b9f565b925060408501356001600160401b038111156144bf578283fd5b8501601f810187136144cf578283fd5b80356144dd613bac8261593e565b8082825284820191508484018a868560051b87010111156144fc578687fd5b8694505b8385101561452757803561451381615bc5565b835260019490940193918501918501614500565b5080955050505050509250925092565b60008060006060848603121561454b578081fd5b833561455681615b9f565b9250602084013561456681615b9f565b9150604084013561440f81615bb7565b60008060006060848603121561458a578081fd5b833561459581615b9f565b925060208401356145a581615b9f565b9150604084013561440f81615bc5565b6000806000606084860312156145c9578081fd5b83356145d481615b9f565b925060208401356145e481615b9f565b929592945050506040919091013590565b600080600060608486031215614609578081fd5b833561461481615b9f565b9250602084013561462481615b9f565b9150604084013561440f81615bd4565b60008060408385031215614646578182fd5b6146508335615b9f565b823591506001600160401b03806020850135111561466c578182fd5b6020840135840185601f820112614681578283fd5b61468e613bac823561593e565b808235825260208201915060208301886020853560051b86010111156146b2578586fd5b855b84358110156147c85785823511156146ca578687fd5b81358501601f196040828d03820112156146e2578889fd5b6146ea6158c9565b60208301358152886040840135111561470157898afd5b60408301358301925060a082848f0301121561471b57898afd5b61472361585d565b91506147326020840135615bb7565b6020830135825261474560408401613b76565b6020830152886060840135111561475a57898afd5b61476d8d60206060860135860101613f90565b6040830152886080840135111561478257898afd5b6147958d60206080860135860101613f90565b60608301526147a660a08401613b76565b60808301526020818101929092528652948501949290920191506001016146b4565b50959890975095505050505050565b600080604083850312156147e9578182fd5b82356147f481615b9f565b915060208301356143c581615bc5565b6000808284036080811215614817578283fd5b833561482281615b9f565b92506060601f1982011215614835578182fd5b5061483e6158a7565b602084013561484c81615bd4565b8152604084013561485c81615b9f565b6020820152606084013561486f81615bd4565b6040820152919491935090915050565b60008060408385031215614891578182fd5b823561489c81615b9f565b946020939093013593505050565b6000806000606084860312156148be578081fd5b83356148c981615b9f565b92506020848101356148da81615be6565b925060408501356001600160401b03808211156148f5578384fd5b818701915087601f830112614908578384fd5b8135614916613bac8261593e565b8082825285820191508585018b878560051b8801011115614935578788fd5b875b8481101561496e5781358681111561494d57898afd5b61495b8e8a838b0101613f90565b8552509287019290870190600101614937565b50508096505050505050509250925092565b60008060208385031215614992578182fd5b82356001600160401b03808211156149a8578384fd5b818501915085601f8301126149bb578384fd5b8135818111156149c9578485fd5b8660208260051b85010111156149dd578485fd5b60209290920196919550909350505050565b600060208284031215614a00578081fd5b813561127b81615bb7565b600060208284031215614a1c578081fd5b5051919050565b60008060808385031215614a35578182fd5b82519150614a46846020850161403c565b90509250929050565b600060208284031215614a60578081fd5b61127b8261401f565b60008060408385031215614a7b578182fd5b614a848361401f565b915060208301516143c581615b9f565b60008060008060808587031215614aa9578182fd5b614ab28561401f565b935060208501516001600160401b0380821115614acd578384fd5b614ad988838901613b8c565b94506040870151915080821115614aee578384fd5b614afa88838901613c66565b93506060870151915080821115614b0f578283fd5b50614b1c87828801613de1565b91505092959194509250565b60008060408385031215614b3a578182fd5b614b438361401f565b915060208301516143c581615bb7565b60008060808385031215614b65578182fd5b614b6e8361401f565b9150614a46846020850161403c565b60008060408385031215614b8f578182fd5b614b988361401f565b915060208301516001600160401b0380821115614bb3578283fd5b9084019060408287031215614bc6578283fd5b614bce6158c9565b825182811115614bdc578485fd5b614be888828601614243565b82525060208301519250614bfb83615bd4565b8260208201528093505050509250929050565b60008060408385031215614c20578182fd5b614c298361401f565b915060208301516001600160401b03811115614c43578182fd5b614c4f8582860161419f565b9150509250929050565b60008060408385031215614c6b578182fd5b614c748361401f565b915060208301516001600160401b0380821115614c8f578283fd5b9084019060c08287031215614ca2578283fd5b614caa615885565b825182811115614cb8578485fd5b614cc488828601614243565b825250614cd360208401614031565b6020820152614ce460408401613b81565b6040820152614cf560608401614031565b6060820152608083015182811115614d0b578485fd5b614d1788828601613fdc565b608083015250614d2960a08401613b81565b60a08201528093505050509250929050565b60008060408385031215614d4d578182fd5b614d568361401f565b915060208301516001600160401b03811115614d70578182fd5b614c4f85828601614243565b60008060408385031215614d8e578182fd5b614d978361401f565b9150602083015190509250929050565b600080600060608486031215614dbb578081fd5b614dc48461401f565b9250602080850151614dd581615be6565b60408601519093506001600160401b03811115614df0578283fd5b8501601f81018713614e00578283fd5b8051614e0e613bac8261593e565b8082825284820191508484018a868560051b8701011115614e2d578687fd5b8694505b83851015614527578051614e4481615bc5565b835260019490940193918501918501614e31565b600060208284031215614e69578081fd5b815161127b81615bc5565b60008060408385031215614e86578182fd5b8251614e9181615bc5565b60208401519092506143c581615bb7565b6000815180845260208085019450808401835b83811015614ed457815160070b87529582019590820190600101614eb5565b509495945050505050565b6000815180845260208085019450808401835b83811015614ed4578151805163ffffffff168852838101516001600160a01b03908116858a01526040808301511515908a01526060808301511515908a0152608091820151169088015260a09096019590820190600101614ef2565b6000815180845260208085019450808401835b83811015614ed4578151805163ffffffff9081168952848201518116858a01526040808301518216908a01526060808301519091169089015260808082015115159089015260a0908101516001600160a01b03169088015260c09096019590820190600101614f61565b6000815180845260208085019450808401835b83811015614ed457815180516001600160a01b03908116895284820151168489015260409081015160070b9088015260609096019590820190600101614fde565b6000815180845260208085019450808401835b83811015614ed4578151805163ffffffff9081168952848201518116858a0152604080830151909116908901526060808201516001600160a01b03908116918a01919091526080808301511515908a015260a091820151169088015260c09096019590820190600101615032565b600081518084526020808501808196508360051b81019150828601855b858110156150fb57828403895281518051855285015160408686018190526150e78187018361526d565b9a87019a95505050908401906001016150bd565b5091979650505050505050565b60008151808452615120816020860160208601615aec565b601f01601f19169290920160200192915050565b805163ffffffff90811683526020808301516001600160a01b03169084015260409182015116910152565b6000815160408452615174604085018261534f565b60209384015163ffffffff16949093019390935250919050565b600061016082518185526151a482860182615108565b915050602083015184820360208601526151be8282615108565b91505060408301516151db60408601826001600160a01b03169052565b50606083015184820360608601526151f38282615108565b9150506080830151615209608086018215159052565b5060a083015161522160a086018263ffffffff169052565b5060c083015161523560c086018215159052565b5060e083015184820360e086015261524d82826150a0565b9150506101008084015161526382870182615134565b5090949350505050565b8051151582526000602082015160018060a01b0380821660208601526040840151915060a060408601526152a460a0860183615108565b9150606084015185830360608701526152bd8382615108565b925050806080850151166080860152508091505092915050565b6000815160c084526152ec60c085018261534f565b9050602083015160070b6020850152604083015160018060a01b038082166040870152606085015160070b60608701526080850151915085830360808701526153358383615108565b92508060a08601511660a087015250508091505092915050565b600061012082518185526153658286018261518e565b915050602083015161538260208601826001600160401b03169052565b506040830151615396604086018215159052565b5060608301516153aa606086018215159052565b5060808301516153be608086018215159052565b5060a083015184820360a08601526153d68282614edf565b91505060c083015184820360c08601526153f08282614f4e565b91505060e083015184820360e086015261540a828261501f565b91505061010080840151858303828701526154258382615108565b9695505050505050565b60008251615441818460208701615aec565b9190910192915050565b6001600160a01b0392831681529116602082015260400190565b6001600160a01b0384811682528316602082015260606040820181905260009061549190830184614ea2565b95945050505050565b6001600160a01b03831681526040602082018190526000906111ae908301846150a0565b6001600160a01b03831681526080810161127b6020830184615134565b60006060820160018060a01b038616835260206001600160401b038616818501526060604085015281855180845260808601915060808160051b8701019350828701855b8281101561554d57607f1988870301845261553b868351615108565b9550928401929084019060010161551f565b50939998505050505050505050565b60608152600061556f6060830186614edf565b82810360208401526155818186614f4e565b90508281036040840152615425818561501f565b60006020808301818452808551808352604092508286019150828160051b870101848801865b8381101561565a57888303603f19018552815180516001600160a01b0390811685528882015160608a870181905281519087018190526080870192918b0191908c905b8082101561562c5783518051841686528d015160070b8d860152938b0193928c0192600191909101906155fe565b505050509087015184820385890152906156468183614fcb565b9689019694505050908601906001016155bb565b509098975050505050505050565b8281526080810161127b6020830184615134565b8281526040602082015260006111ae604083018461515f565b8281526040602082015260006111ae60408301846152d7565b8281526040602082015260006111ae604083018461534f565b8381526001600160401b03831660208201526060604082015260006154916060830184614ea2565b8460070b815260806020820152600061570b6080830186614edf565b828103604084015261571d8186614f4e565b90508281036060840152615731818561501f565b979650505050505050565b8260070b81526040602082015260006111ae604083018461526d565b6060810161093b8284615134565b60208152600061127b602083018461515f565b60208152600061127b602083018461518e565b60608152600061579f606083018661518e565b60208301949094525060400152919050565b60a0815260006157c460a083018861518e565b86602084015285604084015282810360608401526157e28186614edf565b905082810360808401526157f68185614f4e565b98975050505050505050565b60208152600061127b602083018461526d565b60208152600061127b60208301846152d7565b60208152600061127b602083018461534f565b6001600160401b03831681526040602082015260006111ae6040830184614ea2565b60405160a081016001600160401b038111828210171561587f5761587f615b89565b60405290565b60405160c081016001600160401b038111828210171561587f5761587f615b89565b604051606081016001600160401b038111828210171561587f5761587f615b89565b604080519081016001600160401b038111828210171561587f5761587f615b89565b60405161012081016001600160401b038111828210171561587f5761587f615b89565b604051601f8201601f191681016001600160401b038111828210171561593657615936615b89565b604052919050565b60006001600160401b0382111561595757615957615b89565b5060051b60200190565b60006001600160401b0382111561597a5761597a615b89565b50601f01601f191660200190565b6000615996613bac8461593e565b808482526020808301925084368760051b870111156159b3578485fd5b845b87811015615ae05781356001600160401b03808211156159d3578788fd5b8189019150606082360312156159e7578788fd5b6159ef6158a7565b82356159fa81615b9f565b81528286013582811115615a0c57898afd5b830136601f820112615a1c57898afd5b8035615a2a613bac8261593e565b81815288810190838a0136600685901b86018c011115615a48578d8efd5b8d94505b83851015615a9d576040808236031215615a64578e8ffd5b615a6c6158c9565b8235615a7781615b9f565b8152828d0135615a8681615bc5565b818e0152845260019590950194928b019201615a4c565b50848a01525060409150508381013583811115615ab8578a8bfd5b615ac436828701613d40565b91830191909152508752505093820193908201906001016159b5565b50919695505050505050565b60005b83811015615b07578181015183820152602001615aef565b83811115615b16576000848401525b50505050565b600181811c90821680615b3057607f821691505b60208210811415615b5157634e487b7160e01b600052602260045260246000fd5b50919050565b60008160070b677fffffffffffffff19811415615b8257634e487b7160e01b82526011600452602482fd5b9003919050565b634e487b7160e01b600052604160045260246000fd5b6001600160a01b0381168114615bb457600080fd5b50565b8015158114615bb457600080fd5b8060070b8114615bb457600080fd5b63ffffffff81168114615bb457600080fd5b6001600160401b0381168114615bb457600080fdfe90a5cf4cffe88b4edbb041cfc7a8a812c48a5ec30b84640fb37690875168e3aaa26469706673582212204562a22da24d76b48c45c3ad5615511836b3a5d275e002522d0861446bde9e4164736f6c63430008040033",
  "linkReferences": {},
  "deployedLinkReferences": {}
}