{
  "_format": "hh-sol-artifact-1",
  "contractName": "BaseHTS",
  "sourceName": "contracts/BaseHTS.sol",
  "abi": [
    {
      "anonymous": false,
      "inputs": [
        {
          "indexed": false,
          "internalType": "uint256",
          "name": "amount",
          "type": "uint256"
        }
      ],
      "name": "AllowanceValue",
      "type": "event"
    },
    {
      "anonymous": false,
      "inputs": [
        {
          "indexed": false,
          "internalType": "bool",
          "name": "approved",
          "type": "bool"
        }
      ],
      "name": "Approved",
      "type": "event"
    },
    {
      "anonymous": false,
      "inputs": [
        {
          "indexed": false,
          "internalType": "address",
          "name": "approved",
          "type": "address"
        }
      ],
      "name": "ApprovedAddress",
      "type": "event"
    },
    {
      "anonymous": false,
      "inputs": [
        {
          "indexed": false,
          "internalType": "address",
          "name": "tokenAddress",
          "type": "address"
        }
      ],
      "name": "CreatedToken",
      "type": "event"
    },
    {
      "anonymous": false,
      "inputs": [
        {
          "components": [
            {
              "components": [
                {
                  "components": [
                    {
                      "internalType": "string",
                      "name": "name",
                      "type": "string"
                    },
                    {
                      "internalType": "string",
                      "name": "symbol",
                      "type": "string"
                    },
                    {
                      "internalType": "address",
                      "name": "treasury",
                      "type": "address"
                    },
                    {
                      "internalType": "string",
                      "name": "memo",
                      "type": "string"
                    },
                    {
                      "internalType": "bool",
                      "name": "tokenSupplyType",
                      "type": "bool"
                    },
                    {
                      "internalType": "uint32",
                      "name": "maxSupply",
                      "type": "uint32"
                    },
                    {
                      "internalType": "bool",
                      "name": "freezeDefault",
                      "type": "bool"
                    },
                    {
                      "components": [
                        {
                          "internalType": "uint256",
                          "name": "keyType",
                          "type": "uint256"
                        },
                        {
                          "components": [
                            {
                              "internalType": "bool",
                              "name": "inheritAccountKey",
                              "type": "bool"
                            },
                            {
                              "internalType": "address",
                              "name": "contractId",
                              "type": "address"
                            },
                            {
                              "internalType": "bytes",
                              "name": "ed25519",
                              "type": "bytes"
                            },
                            {
                              "internalType": "bytes",
                              "name": "ECDSA_secp256k1",
                              "type": "bytes"
                            },
                            {
                              "internalType": "address",
                              "name": "delegatableContractId",
                              "type": "address"
                            }
                          ],
                          "internalType": "struct IHederaTokenService.KeyValue",
                          "name": "key",
                          "type": "tuple"
                        }
                      ],
                      "internalType": "struct IHederaTokenService.TokenKey[]",
                      "name": "tokenKeys",
                      "type": "tuple[]"
                    },
                    {
                      "components": [
                        {
                          "internalType": "uint32",
                          "name": "second",
                          "type": "uint32"
                        },
                        {
                          "internalType": "address",
                          "name": "autoRenewAccount",
                          "type": "address"
                        },
                        {
                          "internalType": "uint32",
                          "name": "autoRenewPeriod",
                          "type": "uint32"
                        }
                      ],
                      "internalType": "struct IHederaTokenService.Expiry",
                      "name": "expiry",
                      "type": "tuple"
                    }
                  ],
                  "internalType": "struct IHederaTokenService.HederaToken",
                  "name": "token",
                  "type": "tuple"
                },
                {
                  "internalType": "uint64",
                  "name": "totalSupply",
                  "type": "uint64"
                },
                {
                  "internalType": "bool",
                  "name": "deleted",
                  "type": "bool"
                },
                {
                  "internalType": "bool",
                  "name": "defaultKycStatus",
                  "type": "bool"
                },
                {
                  "internalType": "bool",
                  "name": "pauseStatus",
                  "type": "bool"
                },
                {
                  "components": [
                    {
                      "internalType": "uint32",
                      "name": "amount",
                      "type": "uint32"
                    },
                    {
                      "internalType": "address",
                      "name": "tokenId",
                      "type": "address"
                    },
                    {
                      "internalType": "bool",
                      "name": "useHbarsForPayment",
                      "type": "bool"
                    },
                    {
                      "internalType": "bool",
                      "name": "useCurrentTokenForPayment",
                      "type": "bool"
                    },
                    {
                      "internalType": "address",
                      "name": "feeCollector",
                      "type": "address"
                    }
                  ],
                  "internalType": "struct IHederaTokenService.FixedFee[]",
                  "name": "fixedFees",
                  "type": "tuple[]"
                },
                {
                  "components": [
                    {
                      "internalType": "uint32",
                      "name": "numerator",
                      "type": "uint32"
                    },
                    {
                      "internalType": "uint32",
                      "name": "denominator",
                      "type": "uint32"
                    },
                    {
                      "internalType": "uint32",
                      "name": "minimumAmount",
                      "type": "uint32"
                    },
                    {
                      "internalType": "uint32",
                      "name": "maximumAmount",
                      "type": "uint32"
                    },
                    {
                      "internalType": "bool",
                      "name": "netOfTransfers",
                      "type": "bool"
                    },
                    {
                      "internalType": "address",
                      "name": "feeCollector",
                      "type": "address"
                    }
                  ],
                  "internalType": "struct IHederaTokenService.FractionalFee[]",
                  "name": "fractionalFees",
                  "type": "tuple[]"
                },
                {
                  "components": [
                    {
                      "internalType": "uint32",
                      "name": "numerator",
                      "type": "uint32"
                    },
                    {
                      "internalType": "uint32",
                      "name": "denominator",
                      "type": "uint32"
                    },
                    {
                      "internalType": "uint32",
                      "name": "amount",
                      "type": "uint32"
                    },
                    {
                      "internalType": "address",
                      "name": "tokenId",
                      "type": "address"
                    },
                    {
                      "internalType": "bool",
                      "name": "useHbarsForPayment",
                      "type": "bool"
                    },
                    {
                      "internalType": "address",
                      "name": "feeCollector",
                      "type": "address"
                    }
                  ],
                  "internalType": "struct IHederaTokenService.RoyaltyFee[]",
                  "name": "royaltyFees",
                  "type": "tuple[]"
                },
                {
                  "internalType": "string",
                  "name": "ledgerId",
                  "type": "string"
                }
              ],
              "internalType": "struct IHederaTokenService.TokenInfo",
              "name": "tokenInfo",
              "type": "tuple"
            },
            {
              "internalType": "uint32",
              "name": "decimals",
              "type": "uint32"
            }
          ],
          "indexed": false,
          "internalType": "struct IHederaTokenService.FungibleTokenInfo",
          "name": "tokenInfo",
          "type": "tuple"
        }
      ],
      "name": "FungibleTokenInfo",
      "type": "event"
    },
    {
      "anonymous": false,
      "inputs": [
        {
          "indexed": false,
          "internalType": "uint64",
          "name": "newTotalSupply",
          "type": "uint64"
        },
        {
          "indexed": false,
          "internalType": "int64[]",
          "name": "serialNumbers",
          "type": "int64[]"
        }
      ],
      "name": "MintedToken",
      "type": "event"
    },
    {
      "anonymous": false,
      "inputs": [
        {
          "components": [
            {
              "components": [
                {
                  "components": [
                    {
                      "internalType": "string",
                      "name": "name",
                      "type": "string"
                    },
                    {
                      "internalType": "string",
                      "name": "symbol",
                      "type": "string"
                    },
                    {
                      "internalType": "address",
                      "name": "treasury",
                      "type": "address"
                    },
                    {
                      "internalType": "string",
                      "name": "memo",
                      "type": "string"
                    },
                    {
                      "internalType": "bool",
                      "name": "tokenSupplyType",
                      "type": "bool"
                    },
                    {
                      "internalType": "uint32",
                      "name": "maxSupply",
                      "type": "uint32"
                    },
                    {
                      "internalType": "bool",
                      "name": "freezeDefault",
                      "type": "bool"
                    },
                    {
                      "components": [
                        {
                          "internalType": "uint256",
                          "name": "keyType",
                          "type": "uint256"
                        },
                        {
                          "components": [
                            {
                              "internalType": "bool",
                              "name": "inheritAccountKey",
                              "type": "bool"
                            },
                            {
                              "internalType": "address",
                              "name": "contractId",
                              "type": "address"
                            },
                            {
                              "internalType": "bytes",
                              "name": "ed25519",
                              "type": "bytes"
                            },
                            {
                              "internalType": "bytes",
                              "name": "ECDSA_secp256k1",
                              "type": "bytes"
                            },
                            {
                              "internalType": "address",
                              "name": "delegatableContractId",
                              "type": "address"
                            }
                          ],
                          "internalType": "struct IHederaTokenService.KeyValue",
                          "name": "key",
                          "type": "tuple"
                        }
                      ],
                      "internalType": "struct IHederaTokenService.TokenKey[]",
                      "name": "tokenKeys",
                      "type": "tuple[]"
                    },
                    {
                      "components": [
                        {
                          "internalType": "uint32",
                          "name": "second",
                          "type": "uint32"
                        },
                        {
                          "internalType": "address",
                          "name": "autoRenewAccount",
                          "type": "address"
                        },
                        {
                          "internalType": "uint32",
                          "name": "autoRenewPeriod",
                          "type": "uint32"
                        }
                      ],
                      "internalType": "struct IHederaTokenService.Expiry",
                      "name": "expiry",
                      "type": "tuple"
                    }
                  ],
                  "internalType": "struct IHederaTokenService.HederaToken",
                  "name": "token",
                  "type": "tuple"
                },
                {
                  "internalType": "uint64",
                  "name": "totalSupply",
                  "type": "uint64"
                },
                {
                  "internalType": "bool",
                  "name": "deleted",
                  "type": "bool"
                },
                {
                  "internalType": "bool",
                  "name": "defaultKycStatus",
                  "type": "bool"
                },
                {
                  "internalType": "bool",
                  "name": "pauseStatus",
                  "type": "bool"
                },
                {
                  "components": [
                    {
                      "internalType": "uint32",
                      "name": "amount",
                      "type": "uint32"
                    },
                    {
                      "internalType": "address",
                      "name": "tokenId",
                      "type": "address"
                    },
                    {
                      "internalType": "bool",
                      "name": "useHbarsForPayment",
                      "type": "bool"
                    },
                    {
                      "internalType": "bool",
                      "name": "useCurrentTokenForPayment",
                      "type": "bool"
                    },
                    {
                      "internalType": "address",
                      "name": "feeCollector",
                      "type": "address"
                    }
                  ],
                  "internalType": "struct IHederaTokenService.FixedFee[]",
                  "name": "fixedFees",
                  "type": "tuple[]"
                },
                {
                  "components": [
                    {
                      "internalType": "uint32",
                      "name": "numerator",
                      "type": "uint32"
                    },
                    {
                      "internalType": "uint32",
                      "name": "denominator",
                      "type": "uint32"
                    },
                    {
                      "internalType": "uint32",
                      "name": "minimumAmount",
                      "type": "uint32"
                    },
                    {
                      "internalType": "uint32",
                      "name": "maximumAmount",
                      "type": "uint32"
                    },
                    {
                      "internalType": "bool",
                      "name": "netOfTransfers",
                      "type": "bool"
                    },
                    {
                      "internalType": "address",
                      "name": "feeCollector",
                      "type": "address"
                    }
                  ],
                  "internalType": "struct IHederaTokenService.FractionalFee[]",
                  "name": "fractionalFees",
                  "type": "tuple[]"
                },
                {
                  "components": [
                    {
                      "internalType": "uint32",
                      "name": "numerator",
                      "type": "uint32"
                    },
                    {
                      "internalType": "uint32",
                      "name": "denominator",
                      "type": "uint32"
                    },
                    {
                      "internalType": "uint32",
                      "name": "amount",
                      "type": "uint32"
                    },
                    {
                      "internalType": "address",
                      "name": "tokenId",
                      "type": "address"
                    },
                    {
                      "internalType": "bool",
                      "name": "useHbarsForPayment",
                      "type": "bool"
                    },
                    {
                      "internalType": "address",
                      "name": "feeCollector",
                      "type": "address"
                    }
                  ],
                  "internalType": "struct IHederaTokenService.RoyaltyFee[]",
                  "name": "royaltyFees",
                  "type": "tuple[]"
                },
                {
                  "internalType": "string",
                  "name": "ledgerId",
                  "type": "string"
                }
              ],
              "internalType": "struct IHederaTokenService.TokenInfo",
              "name": "tokenInfo",
              "type": "tuple"
            },
            {
              "internalType": "int64",
              "name": "serialNumber",
              "type": "int64"
            },
            {
              "internalType": "address",
              "name": "ownerId",
              "type": "address"
            },
            {
              "internalType": "int64",
              "name": "creationTime",
              "type": "int64"
            },
            {
              "internalType": "bytes",
              "name": "metadata",
              "type": "bytes"
            },
            {
              "internalType": "address",
              "name": "spenderId",
              "type": "address"
            }
          ],
          "indexed": false,
          "internalType": "struct IHederaTokenService.NonFungibleTokenInfo",
          "name": "tokenInfo",
          "type": "tuple"
        }
      ],
      "name": "NonFungibleTokenInfo",
      "type": "event"
    },
    {
      "anonymous": false,
      "inputs": [
        {
          "indexed": false,
          "internalType": "bool",
          "name": "paused",
          "type": "bool"
        }
      ],
      "name": "PausedToken",
      "type": "event"
    },
    {
      "anonymous": false,
      "inputs": [
        {
          "indexed": false,
          "internalType": "int256",
          "name": "responseCode",
          "type": "int256"
        }
      ],
      "name": "ResponseCode",
      "type": "event"
    },
    {
      "anonymous": false,
      "inputs": [
        {
          "components": [
            {
              "components": [
                {
                  "internalType": "string",
                  "name": "name",
                  "type": "string"
                },
                {
                  "internalType": "string",
                  "name": "symbol",
                  "type": "string"
                },
                {
                  "internalType": "address",
                  "name": "treasury",
                  "type": "address"
                },
                {
                  "internalType": "string",
                  "name": "memo",
                  "type": "string"
                },
                {
                  "internalType": "bool",
                  "name": "tokenSupplyType",
                  "type": "bool"
                },
                {
                  "internalType": "uint32",
                  "name": "maxSupply",
                  "type": "uint32"
                },
                {
                  "internalType": "bool",
                  "name": "freezeDefault",
                  "type": "bool"
                },
                {
                  "components": [
                    {
                      "internalType": "uint256",
                      "name": "keyType",
                      "type": "uint256"
                    },
                    {
                      "components": [
                        {
                          "internalType": "bool",
                          "name": "inheritAccountKey",
                          "type": "bool"
                        },
                        {
                          "internalType": "address",
                          "name": "contractId",
                          "type": "address"
                        },
                        {
                          "internalType": "bytes",
                          "name": "ed25519",
                          "type": "bytes"
                        },
                        {
                          "internalType": "bytes",
                          "name": "ECDSA_secp256k1",
                          "type": "bytes"
                        },
                        {
                          "internalType": "address",
                          "name": "delegatableContractId",
                          "type": "address"
                        }
                      ],
                      "internalType": "struct IHederaTokenService.KeyValue",
                      "name": "key",
                      "type": "tuple"
                    }
                  ],
                  "internalType": "struct IHederaTokenService.TokenKey[]",
                  "name": "tokenKeys",
                  "type": "tuple[]"
                },
                {
                  "components": [
                    {
                      "internalType": "uint32",
                      "name": "second",
                      "type": "uint32"
                    },
                    {
                      "internalType": "address",
                      "name": "autoRenewAccount",
                      "type": "address"
                    },
                    {
                      "internalType": "uint32",
                      "name": "autoRenewPeriod",
                      "type": "uint32"
                    }
                  ],
                  "internalType": "struct IHederaTokenService.Expiry",
                  "name": "expiry",
                  "type": "tuple"
                }
              ],
              "internalType": "struct IHederaTokenService.HederaToken",
              "name": "token",
              "type": "tuple"
            },
            {
              "internalType": "uint64",
              "name": "totalSupply",
              "type": "uint64"
            },
            {
              "internalType": "bool",
              "name": "deleted",
              "type": "bool"
            },
            {
              "internalType": "bool",
              "name": "defaultKycStatus",
              "type": "bool"
            },
            {
              "internalType": "bool",
              "name": "pauseStatus",
              "type": "bool"
            },
            {
              "components": [
                {
                  "internalType": "uint32",
                  "name": "amount",
                  "type": "uint32"
                },
                {
                  "internalType": "address",
                  "name": "tokenId",
                  "type": "address"
                },
                {
                  "internalType": "bool",
                  "name": "useHbarsForPayment",
                  "type": "bool"
                },
                {
                  "internalType": "bool",
                  "name": "useCurrentTokenForPayment",
                  "type": "bool"
                },
                {
                  "internalType": "address",
                  "name": "feeCollector",
                  "type": "address"
                }
              ],
              "internalType": "struct IHederaTokenService.FixedFee[]",
              "name": "fixedFees",
              "type": "tuple[]"
            },
            {
              "components": [
                {
                  "internalType": "uint32",
                  "name": "numerator",
                  "type": "uint32"
                },
                {
                  "internalType": "uint32",
                  "name": "denominator",
                  "type": "uint32"
                },
                {
                  "internalType": "uint32",
                  "name": "minimumAmount",
                  "type": "uint32"
                },
                {
                  "internalType": "uint32",
                  "name": "maximumAmount",
                  "type": "uint32"
                },
                {
                  "internalType": "bool",
                  "name": "netOfTransfers",
                  "type": "bool"
                },
                {
                  "internalType": "address",
                  "name": "feeCollector",
                  "type": "address"
                }
              ],
              "internalType": "struct IHederaTokenService.FractionalFee[]",
              "name": "fractionalFees",
              "type": "tuple[]"
            },
            {
              "components": [
                {
                  "internalType": "uint32",
                  "name": "numerator",
                  "type": "uint32"
                },
                {
                  "internalType": "uint32",
                  "name": "denominator",
                  "type": "uint32"
                },
                {
                  "internalType": "uint32",
                  "name": "amount",
                  "type": "uint32"
                },
                {
                  "internalType": "address",
                  "name": "tokenId",
                  "type": "address"
                },
                {
                  "internalType": "bool",
                  "name": "useHbarsForPayment",
                  "type": "bool"
                },
                {
                  "internalType": "address",
                  "name": "feeCollector",
                  "type": "address"
                }
              ],
              "internalType": "struct IHederaTokenService.RoyaltyFee[]",
              "name": "royaltyFees",
              "type": "tuple[]"
            },
            {
              "internalType": "string",
              "name": "ledgerId",
              "type": "string"
            }
          ],
          "indexed": false,
          "internalType": "struct IHederaTokenService.TokenInfo",
          "name": "tokenInfo",
          "type": "tuple"
        }
      ],
      "name": "TokenInfo",
      "type": "event"
    },
    {
      "anonymous": false,
      "inputs": [
        {
          "indexed": false,
          "internalType": "bool",
          "name": "unpaused",
          "type": "bool"
        }
      ],
      "name": "UnpausedToken",
      "type": "event"
    },
    {
      "inputs": [
        {
          "internalType": "address",
          "name": "token",
          "type": "address"
        },
        {
          "internalType": "address",
          "name": "owner",
          "type": "address"
        },
        {
          "internalType": "address",
          "name": "spender",
          "type": "address"
        }
      ],
      "name": "allowancePublic",
      "outputs": [
        {
          "internalType": "int256",
          "name": "responseCode",
          "type": "int256"
        },
        {
          "internalType": "uint256",
          "name": "amount",
          "type": "uint256"
        }
      ],
      "stateMutability": "nonpayable",
      "type": "function"
    },
    {
      "inputs": [
        {
          "internalType": "address",
          "name": "token",
          "type": "address"
        },
        {
          "internalType": "address",
          "name": "spender",
          "type": "address"
        },
        {
          "internalType": "uint256",
          "name": "amount",
          "type": "uint256"
        }
      ],
      "name": "approvePublic",
      "outputs": [
        {
          "internalType": "int256",
          "name": "responseCode",
          "type": "int256"
        }
      ],
      "stateMutability": "nonpayable",
      "type": "function"
    },
    {
      "inputs": [
        {
          "internalType": "address",
          "name": "account",
          "type": "address"
        },
        {
          "internalType": "address",
          "name": "token",
          "type": "address"
        }
      ],
      "name": "associateTokenPublic",
      "outputs": [
        {
          "internalType": "int256",
          "name": "responseCode",
          "type": "int256"
        }
      ],
      "stateMutability": "nonpayable",
      "type": "function"
    },
    {
      "inputs": [
        {
          "internalType": "address",
          "name": "treasury",
          "type": "address"
        }
      ],
      "name": "createFungibleTokenPublic",
      "outputs": [],
      "stateMutability": "payable",
      "type": "function"
    },
    {
      "inputs": [
        {
          "internalType": "address",
          "name": "treasury",
          "type": "address"
        }
      ],
      "name": "createNonFungibleTokenPublic",
      "outputs": [],
      "stateMutability": "payable",
      "type": "function"
    },
    {
      "inputs": [
        {
          "internalType": "address",
          "name": "token",
          "type": "address"
        },
        {
          "internalType": "uint256",
          "name": "serialNumber",
          "type": "uint256"
        }
      ],
      "name": "getApprovedPublic",
      "outputs": [
        {
          "internalType": "int256",
          "name": "responseCode",
          "type": "int256"
        },
        {
          "internalType": "address",
          "name": "approved",
          "type": "address"
        }
      ],
      "stateMutability": "nonpayable",
      "type": "function"
    },
    {
      "inputs": [
        {
          "internalType": "address",
          "name": "token",
          "type": "address"
        }
      ],
      "name": "getFungibleTokenInfoPublic",
      "outputs": [
        {
          "internalType": "int256",
          "name": "responseCode",
          "type": "int256"
        },
        {
          "components": [
            {
              "components": [
                {
                  "components": [
                    {
                      "internalType": "string",
                      "name": "name",
                      "type": "string"
                    },
                    {
                      "internalType": "string",
                      "name": "symbol",
                      "type": "string"
                    },
                    {
                      "internalType": "address",
                      "name": "treasury",
                      "type": "address"
                    },
                    {
                      "internalType": "string",
                      "name": "memo",
                      "type": "string"
                    },
                    {
                      "internalType": "bool",
                      "name": "tokenSupplyType",
                      "type": "bool"
                    },
                    {
                      "internalType": "uint32",
                      "name": "maxSupply",
                      "type": "uint32"
                    },
                    {
                      "internalType": "bool",
                      "name": "freezeDefault",
                      "type": "bool"
                    },
                    {
                      "components": [
                        {
                          "internalType": "uint256",
                          "name": "keyType",
                          "type": "uint256"
                        },
                        {
                          "components": [
                            {
                              "internalType": "bool",
                              "name": "inheritAccountKey",
                              "type": "bool"
                            },
                            {
                              "internalType": "address",
                              "name": "contractId",
                              "type": "address"
                            },
                            {
                              "internalType": "bytes",
                              "name": "ed25519",
                              "type": "bytes"
                            },
                            {
                              "internalType": "bytes",
                              "name": "ECDSA_secp256k1",
                              "type": "bytes"
                            },
                            {
                              "internalType": "address",
                              "name": "delegatableContractId",
                              "type": "address"
                            }
                          ],
                          "internalType": "struct IHederaTokenService.KeyValue",
                          "name": "key",
                          "type": "tuple"
                        }
                      ],
                      "internalType": "struct IHederaTokenService.TokenKey[]",
                      "name": "tokenKeys",
                      "type": "tuple[]"
                    },
                    {
                      "components": [
                        {
                          "internalType": "uint32",
                          "name": "second",
                          "type": "uint32"
                        },
                        {
                          "internalType": "address",
                          "name": "autoRenewAccount",
                          "type": "address"
                        },
                        {
                          "internalType": "uint32",
                          "name": "autoRenewPeriod",
                          "type": "uint32"
                        }
                      ],
                      "internalType": "struct IHederaTokenService.Expiry",
                      "name": "expiry",
                      "type": "tuple"
                    }
                  ],
                  "internalType": "struct IHederaTokenService.HederaToken",
                  "name": "token",
                  "type": "tuple"
                },
                {
                  "internalType": "uint64",
                  "name": "totalSupply",
                  "type": "uint64"
                },
                {
                  "internalType": "bool",
                  "name": "deleted",
                  "type": "bool"
                },
                {
                  "internalType": "bool",
                  "name": "defaultKycStatus",
                  "type": "bool"
                },
                {
                  "internalType": "bool",
                  "name": "pauseStatus",
                  "type": "bool"
                },
                {
                  "components": [
                    {
                      "internalType": "uint32",
                      "name": "amount",
                      "type": "uint32"
                    },
                    {
                      "internalType": "address",
                      "name": "tokenId",
                      "type": "address"
                    },
                    {
                      "internalType": "bool",
                      "name": "useHbarsForPayment",
                      "type": "bool"
                    },
                    {
                      "internalType": "bool",
                      "name": "useCurrentTokenForPayment",
                      "type": "bool"
                    },
                    {
                      "internalType": "address",
                      "name": "feeCollector",
                      "type": "address"
                    }
                  ],
                  "internalType": "struct IHederaTokenService.FixedFee[]",
                  "name": "fixedFees",
                  "type": "tuple[]"
                },
                {
                  "components": [
                    {
                      "internalType": "uint32",
                      "name": "numerator",
                      "type": "uint32"
                    },
                    {
                      "internalType": "uint32",
                      "name": "denominator",
                      "type": "uint32"
                    },
                    {
                      "internalType": "uint32",
                      "name": "minimumAmount",
                      "type": "uint32"
                    },
                    {
                      "internalType": "uint32",
                      "name": "maximumAmount",
                      "type": "uint32"
                    },
                    {
                      "internalType": "bool",
                      "name": "netOfTransfers",
                      "type": "bool"
                    },
                    {
                      "internalType": "address",
                      "name": "feeCollector",
                      "type": "address"
                    }
                  ],
                  "internalType": "struct IHederaTokenService.FractionalFee[]",
                  "name": "fractionalFees",
                  "type": "tuple[]"
                },
                {
                  "components": [
                    {
                      "internalType": "uint32",
                      "name": "numerator",
                      "type": "uint32"
                    },
                    {
                      "internalType": "uint32",
                      "name": "denominator",
                      "type": "uint32"
                    },
                    {
                      "internalType": "uint32",
                      "name": "amount",
                      "type": "uint32"
                    },
                    {
                      "internalType": "address",
                      "name": "tokenId",
                      "type": "address"
                    },
                    {
                      "internalType": "bool",
                      "name": "useHbarsForPayment",
                      "type": "bool"
                    },
                    {
                      "internalType": "address",
                      "name": "feeCollector",
                      "type": "address"
                    }
                  ],
                  "internalType": "struct IHederaTokenService.RoyaltyFee[]",
                  "name": "royaltyFees",
                  "type": "tuple[]"
                },
                {
                  "internalType": "string",
                  "name": "ledgerId",
                  "type": "string"
                }
              ],
              "internalType": "struct IHederaTokenService.TokenInfo",
              "name": "tokenInfo",
              "type": "tuple"
            },
            {
              "internalType": "uint32",
              "name": "decimals",
              "type": "uint32"
            }
          ],
          "internalType": "struct IHederaTokenService.FungibleTokenInfo",
          "name": "tokenInfo",
          "type": "tuple"
        }
      ],
      "stateMutability": "nonpayable",
      "type": "function"
    },
    {
      "inputs": [
        {
          "internalType": "address",
          "name": "token",
          "type": "address"
        },
        {
          "internalType": "int64",
          "name": "serialNumber",
          "type": "int64"
        }
      ],
      "name": "getNonFungibleTokenInfoPublic",
      "outputs": [
        {
          "internalType": "int256",
          "name": "responseCode",
          "type": "int256"
        },
        {
          "components": [
            {
              "components": [
                {
                  "components": [
                    {
                      "internalType": "string",
                      "name": "name",
                      "type": "string"
                    },
                    {
                      "internalType": "string",
                      "name": "symbol",
                      "type": "string"
                    },
                    {
                      "internalType": "address",
                      "name": "treasury",
                      "type": "address"
                    },
                    {
                      "internalType": "string",
                      "name": "memo",
                      "type": "string"
                    },
                    {
                      "internalType": "bool",
                      "name": "tokenSupplyType",
                      "type": "bool"
                    },
                    {
                      "internalType": "uint32",
                      "name": "maxSupply",
                      "type": "uint32"
                    },
                    {
                      "internalType": "bool",
                      "name": "freezeDefault",
                      "type": "bool"
                    },
                    {
                      "components": [
                        {
                          "internalType": "uint256",
                          "name": "keyType",
                          "type": "uint256"
                        },
                        {
                          "components": [
                            {
                              "internalType": "bool",
                              "name": "inheritAccountKey",
                              "type": "bool"
                            },
                            {
                              "internalType": "address",
                              "name": "contractId",
                              "type": "address"
                            },
                            {
                              "internalType": "bytes",
                              "name": "ed25519",
                              "type": "bytes"
                            },
                            {
                              "internalType": "bytes",
                              "name": "ECDSA_secp256k1",
                              "type": "bytes"
                            },
                            {
                              "internalType": "address",
                              "name": "delegatableContractId",
                              "type": "address"
                            }
                          ],
                          "internalType": "struct IHederaTokenService.KeyValue",
                          "name": "key",
                          "type": "tuple"
                        }
                      ],
                      "internalType": "struct IHederaTokenService.TokenKey[]",
                      "name": "tokenKeys",
                      "type": "tuple[]"
                    },
                    {
                      "components": [
                        {
                          "internalType": "uint32",
                          "name": "second",
                          "type": "uint32"
                        },
                        {
                          "internalType": "address",
                          "name": "autoRenewAccount",
                          "type": "address"
                        },
                        {
                          "internalType": "uint32",
                          "name": "autoRenewPeriod",
                          "type": "uint32"
                        }
                      ],
                      "internalType": "struct IHederaTokenService.Expiry",
                      "name": "expiry",
                      "type": "tuple"
                    }
                  ],
                  "internalType": "struct IHederaTokenService.HederaToken",
                  "name": "token",
                  "type": "tuple"
                },
                {
                  "internalType": "uint64",
                  "name": "totalSupply",
                  "type": "uint64"
                },
                {
                  "internalType": "bool",
                  "name": "deleted",
                  "type": "bool"
                },
                {
                  "internalType": "bool",
                  "name": "defaultKycStatus",
                  "type": "bool"
                },
                {
                  "internalType": "bool",
                  "name": "pauseStatus",
                  "type": "bool"
                },
                {
                  "components": [
                    {
                      "internalType": "uint32",
                      "name": "amount",
                      "type": "uint32"
                    },
                    {
                      "internalType": "address",
                      "name": "tokenId",
                      "type": "address"
                    },
                    {
                      "internalType": "bool",
                      "name": "useHbarsForPayment",
                      "type": "bool"
                    },
                    {
                      "internalType": "bool",
                      "name": "useCurrentTokenForPayment",
                      "type": "bool"
                    },
                    {
                      "internalType": "address",
                      "name": "feeCollector",
                      "type": "address"
                    }
                  ],
                  "internalType": "struct IHederaTokenService.FixedFee[]",
                  "name": "fixedFees",
                  "type": "tuple[]"
                },
                {
                  "components": [
                    {
                      "internalType": "uint32",
                      "name": "numerator",
                      "type": "uint32"
                    },
                    {
                      "internalType": "uint32",
                      "name": "denominator",
                      "type": "uint32"
                    },
                    {
                      "internalType": "uint32",
                      "name": "minimumAmount",
                      "type": "uint32"
                    },
                    {
                      "internalType": "uint32",
                      "name": "maximumAmount",
                      "type": "uint32"
                    },
                    {
                      "internalType": "bool",
                      "name": "netOfTransfers",
                      "type": "bool"
                    },
                    {
                      "internalType": "address",
                      "name": "feeCollector",
                      "type": "address"
                    }
                  ],
                  "internalType": "struct IHederaTokenService.FractionalFee[]",
                  "name": "fractionalFees",
                  "type": "tuple[]"
                },
                {
                  "components": [
                    {
                      "internalType": "uint32",
                      "name": "numerator",
                      "type": "uint32"
                    },
                    {
                      "internalType": "uint32",
                      "name": "denominator",
                      "type": "uint32"
                    },
                    {
                      "internalType": "uint32",
                      "name": "amount",
                      "type": "uint32"
                    },
                    {
                      "internalType": "address",
                      "name": "tokenId",
                      "type": "address"
                    },
                    {
                      "internalType": "bool",
                      "name": "useHbarsForPayment",
                      "type": "bool"
                    },
                    {
                      "internalType": "address",
                      "name": "feeCollector",
                      "type": "address"
                    }
                  ],
                  "internalType": "struct IHederaTokenService.RoyaltyFee[]",
                  "name": "royaltyFees",
                  "type": "tuple[]"
                },
                {
                  "internalType": "string",
                  "name": "ledgerId",
                  "type": "string"
                }
              ],
              "internalType": "struct IHederaTokenService.TokenInfo",
              "name": "tokenInfo",
              "type": "tuple"
            },
            {
              "internalType": "int64",
              "name": "serialNumber",
              "type": "int64"
            },
            {
              "internalType": "address",
              "name": "ownerId",
              "type": "address"
            },
            {
              "internalType": "int64",
              "name": "creationTime",
              "type": "int64"
            },
            {
              "internalType": "bytes",
              "name": "metadata",
              "type": "bytes"
            },
            {
              "internalType": "address",
              "name": "spenderId",
              "type": "address"
            }
          ],
          "internalType": "struct IHederaTokenService.NonFungibleTokenInfo",
          "name": "tokenInfo",
          "type": "tuple"
        }
      ],
      "stateMutability": "nonpayable",
      "type": "function"
    },
    {
      "inputs": [
        {
          "internalType": "address",
          "name": "token",
          "type": "address"
        }
      ],
      "name": "getTokenInfoPublic",
      "outputs": [
        {
          "internalType": "int256",
          "name": "responseCode",
          "type": "int256"
        },
        {
          "components": [
            {
              "components": [
                {
                  "internalType": "string",
                  "name": "name",
                  "type": "string"
                },
                {
                  "internalType": "string",
                  "name": "symbol",
                  "type": "string"
                },
                {
                  "internalType": "address",
                  "name": "treasury",
                  "type": "address"
                },
                {
                  "internalType": "string",
                  "name": "memo",
                  "type": "string"
                },
                {
                  "internalType": "bool",
                  "name": "tokenSupplyType",
                  "type": "bool"
                },
                {
                  "internalType": "uint32",
                  "name": "maxSupply",
                  "type": "uint32"
                },
                {
                  "internalType": "bool",
                  "name": "freezeDefault",
                  "type": "bool"
                },
                {
                  "components": [
                    {
                      "internalType": "uint256",
                      "name": "keyType",
                      "type": "uint256"
                    },
                    {
                      "components": [
                        {
                          "internalType": "bool",
                          "name": "inheritAccountKey",
                          "type": "bool"
                        },
                        {
                          "internalType": "address",
                          "name": "contractId",
                          "type": "address"
                        },
                        {
                          "internalType": "bytes",
                          "name": "ed25519",
                          "type": "bytes"
                        },
                        {
                          "internalType": "bytes",
                          "name": "ECDSA_secp256k1",
                          "type": "bytes"
                        },
                        {
                          "internalType": "address",
                          "name": "delegatableContractId",
                          "type": "address"
                        }
                      ],
                      "internalType": "struct IHederaTokenService.KeyValue",
                      "name": "key",
                      "type": "tuple"
                    }
                  ],
                  "internalType": "struct IHederaTokenService.TokenKey[]",
                  "name": "tokenKeys",
                  "type": "tuple[]"
                },
                {
                  "components": [
                    {
                      "internalType": "uint32",
                      "name": "second",
                      "type": "uint32"
                    },
                    {
                      "internalType": "address",
                      "name": "autoRenewAccount",
                      "type": "address"
                    },
                    {
                      "internalType": "uint32",
                      "name": "autoRenewPeriod",
                      "type": "uint32"
                    }
                  ],
                  "internalType": "struct IHederaTokenService.Expiry",
                  "name": "expiry",
                  "type": "tuple"
                }
              ],
              "internalType": "struct IHederaTokenService.HederaToken",
              "name": "token",
              "type": "tuple"
            },
            {
              "internalType": "uint64",
              "name": "totalSupply",
              "type": "uint64"
            },
            {
              "internalType": "bool",
              "name": "deleted",
              "type": "bool"
            },
            {
              "internalType": "bool",
              "name": "defaultKycStatus",
              "type": "bool"
            },
            {
              "internalType": "bool",
              "name": "pauseStatus",
              "type": "bool"
            },
            {
              "components": [
                {
                  "internalType": "uint32",
                  "name": "amount",
                  "type": "uint32"
                },
                {
                  "internalType": "address",
                  "name": "tokenId",
                  "type": "address"
                },
                {
                  "internalType": "bool",
                  "name": "useHbarsForPayment",
                  "type": "bool"
                },
                {
                  "internalType": "bool",
                  "name": "useCurrentTokenForPayment",
                  "type": "bool"
                },
                {
                  "internalType": "address",
                  "name": "feeCollector",
                  "type": "address"
                }
              ],
              "internalType": "struct IHederaTokenService.FixedFee[]",
              "name": "fixedFees",
              "type": "tuple[]"
            },
            {
              "components": [
                {
                  "internalType": "uint32",
                  "name": "numerator",
                  "type": "uint32"
                },
                {
                  "internalType": "uint32",
                  "name": "denominator",
                  "type": "uint32"
                },
                {
                  "internalType": "uint32",
                  "name": "minimumAmount",
                  "type": "uint32"
                },
                {
                  "internalType": "uint32",
                  "name": "maximumAmount",
                  "type": "uint32"
                },
                {
                  "internalType": "bool",
                  "name": "netOfTransfers",
                  "type": "bool"
                },
                {
                  "internalType": "address",
                  "name": "feeCollector",
                  "type": "address"
                }
              ],
              "internalType": "struct IHederaTokenService.FractionalFee[]",
              "name": "fractionalFees",
              "type": "tuple[]"
            },
            {
              "components": [
                {
                  "internalType": "uint32",
                  "name": "numerator",
                  "type": "uint32"
                },
                {
                  "internalType": "uint32",
                  "name": "denominator",
                  "type": "uint32"
                },
                {
                  "internalType": "uint32",
                  "name": "amount",
                  "type": "uint32"
                },
                {
                  "internalType": "address",
                  "name": "tokenId",
                  "type": "address"
                },
                {
                  "internalType": "bool",
                  "name": "useHbarsForPayment",
                  "type": "bool"
                },
                {
                  "internalType": "address",
                  "name": "feeCollector",
                  "type": "address"
                }
              ],
              "internalType": "struct IHederaTokenService.RoyaltyFee[]",
              "name": "royaltyFees",
              "type": "tuple[]"
            },
            {
              "internalType": "string",
              "name": "ledgerId",
              "type": "string"
            }
          ],
          "internalType": "struct IHederaTokenService.TokenInfo",
          "name": "tokenInfo",
          "type": "tuple"
        }
      ],
      "stateMutability": "nonpayable",
      "type": "function"
    },
    {
      "inputs": [
        {
          "internalType": "address",
          "name": "token",
          "type": "address"
        },
        {
          "internalType": "address",
          "name": "owner",
          "type": "address"
        },
        {
          "internalType": "address",
          "name": "operator",
          "type": "address"
        }
      ],
      "name": "isApprovedForAllPublic",
      "outputs": [
        {
          "internalType": "int256",
          "name": "responseCode",
          "type": "int256"
        },
        {
          "internalType": "bool",
          "name": "approved",
          "type": "bool"
        }
      ],
      "stateMutability": "nonpayable",
      "type": "function"
    },
    {
      "inputs": [
        {
          "internalType": "address",
          "name": "token",
          "type": "address"
        },
        {
          "internalType": "uint64",
          "name": "amount",
          "type": "uint64"
        },
        {
          "internalType": "bytes[]",
          "name": "metadata",
          "type": "bytes[]"
        }
      ],
      "name": "mintTokenPublic",
      "outputs": [
        {
          "internalType": "int256",
          "name": "responseCode",
          "type": "int256"
        },
        {
          "internalType": "uint64",
          "name": "newTotalSupply",
          "type": "uint64"
        },
        {
          "internalType": "int64[]",
          "name": "serialNumbers",
          "type": "int64[]"
        }
      ],
      "stateMutability": "nonpayable",
      "type": "function"
    },
    {
      "inputs": [
        {
          "internalType": "address",
          "name": "token",
          "type": "address"
        }
      ],
      "name": "pauseToken",
      "outputs": [
        {
          "internalType": "int256",
          "name": "responseCode",
          "type": "int256"
        }
      ],
      "stateMutability": "nonpayable",
      "type": "function"
    },
    {
      "inputs": [
        {
          "internalType": "address",
          "name": "token",
          "type": "address"
        }
      ],
      "name": "pauseTokenPublic",
      "outputs": [
        {
          "internalType": "int256",
          "name": "responseCode",
          "type": "int256"
        }
      ],
      "stateMutability": "nonpayable",
      "type": "function"
    },
    {
      "inputs": [
        {
          "internalType": "address",
          "name": "token",
          "type": "address"
        },
        {
          "internalType": "address",
          "name": "operator",
          "type": "address"
        },
        {
          "internalType": "bool",
          "name": "approved",
          "type": "bool"
        }
      ],
      "name": "setApprovalForAllPublic",
      "outputs": [
        {
          "internalType": "int256",
          "name": "responseCode",
          "type": "int256"
        }
      ],
      "stateMutability": "nonpayable",
      "type": "function"
    },
    {
      "inputs": [
        {
          "internalType": "address",
          "name": "account",
          "type": "address"
        },
        {
          "internalType": "address",
          "name": "token",
          "type": "address"
        },
        {
          "internalType": "int64",
          "name": "amount",
          "type": "int64"
        }
      ],
      "name": "transferTokenPublic",
      "outputs": [
        {
          "internalType": "int256",
          "name": "responseCode",
          "type": "int256"
        }
      ],
      "stateMutability": "nonpayable",
      "type": "function"
    },
    {
      "inputs": [
        {
          "internalType": "address",
          "name": "token",
          "type": "address"
        }
      ],
      "name": "unpauseToken",
      "outputs": [
        {
          "internalType": "int256",
          "name": "responseCode",
          "type": "int256"
        }
      ],
      "stateMutability": "nonpayable",
      "type": "function"
    },
    {
      "inputs": [
        {
          "internalType": "address",
          "name": "token",
          "type": "address"
        }
      ],
      "name": "unpauseTokenPublic",
      "outputs": [
        {
          "internalType": "int256",
          "name": "responseCode",
          "type": "int256"
        }
      ],
      "stateMutability": "nonpayable",
      "type": "function"
    }
  ],
  "bytecode": "0x60c06040526009608081905268746f6b656e4e616d6560b81b60a09081526200002c9160019190620000c1565b5060408051808201909152600b8082526a1d1bdad95b94de5b589bdb60aa1b60209092019182526200006191600291620000c1565b50604080518082019091526004808252636d656d6f60e01b60209092019182526200008f91600391620000c1565b506103e860048190556005805463ffffffff191690911790556008600655348015620000ba57600080fd5b50620001a4565b828054620000cf9062000167565b90600052602060002090601f016020900481019282620000f357600085556200013e565b82601f106200010e57805160ff19168380011785556200013e565b828001600101855582156200013e579182015b828111156200013e57825182559160200191906001019062000121565b506200014c92915062000150565b5090565b5b808211156200014c576000815560010162000151565b600181811c908216806200017c57607f821691505b602082108114156200019e57634e487b7160e01b600052602260045260246000fd5b50919050565b6138b880620001b46000396000f3fe60806040526004361061010e5760003560e01c80637c41ad2c116100a5578063f25b120011610074578063f4a01e5b11610059578063f4a01e5b1461034e578063f7be34251461036e578063f848fec41461038e57600080fd5b8063f25b120014610300578063f2f38a741461032057600080fd5b80637c41ad2c1461027e5780638070905f1461029e578063d85f74c1146102cd578063ec855c31146102e057600080fd5b80634b5c6687116100e15780634b5c6687146101d85780634cbdb37b146101ed5780635a5e6c311461021b57806369837dc21461025057600080fd5b806313c05dd81461011357806319db44b61461014d5780632b256ec81461018a5780633b3bff0f146101b8575b600080fd5b34801561011f57600080fd5b5061013361012e3660046120f9565b6103ae565b604080519283529015156020830152015b60405180910390f35b34801561015957600080fd5b5061016d610168366004612144565b61042c565b604080519283526001600160a01b03909116602083015201610144565b34801561019657600080fd5b506101aa6101a5366004612170565b6104b0565b604051908152602001610144565b3480156101c457600080fd5b506101aa6101d3366004612170565b61059c565b6101eb6101e6366004612170565b610676565b005b3480156101f957600080fd5b5061020d61020836600461219c565b610985565b6040516101449291906126cd565b34801561022757600080fd5b5061023b6102363660046120f9565b6109fb565b60408051928352602083019190915201610144565b34801561025c57600080fd5b5061027061026b366004612170565b610a6c565b60405161014492919061271d565b34801561028a57600080fd5b506101aa610299366004612170565b610aee565b3480156102aa57600080fd5b506102be6102b9366004612872565b610b1c565b604051610144939291906129c0565b6101eb6102db366004612170565b610ba4565b3480156102ec57600080fd5b506101aa6102fb3660046129f2565b610e8c565b34801561030c57600080fd5b506101aa61031b366004612a40565b611063565b34801561032c57600080fd5b5061034061033b366004612170565b6110ad565b604051610144929190612a80565b34801561035a57600080fd5b506101aa610369366004612a99565b611122565b34801561037a57600080fd5b506101aa610389366004612170565b61116a565b34801561039a57600080fd5b506101aa6103a9366004612ac7565b61124d565b6000806103bc85858561125a565b60405182815291935091506000805160206138638339815191529060200160405180910390a1601682146103ef57600080fd5b60405181151581527e1c2e72360171244b3bb8cc8ddd767820edf37138ad6f129fb3574b407c307d906020015b60405180910390a1935093915050565b6000806104398484611359565b60405182815291935091506000805160206138638339815191529060200160405180910390a16016821461046c57600080fd5b6040516001600160a01b03821681527fc2c78c7c31baf14949e75c51df12be56edb9af523cf82839c2869bbcf13b3ecb906020015b60405180910390a19250929050565b604051631f106b4b60e21b81526001600160a01b03821660048201526000903090637c41ad2c90602401602060405180830381600087803b1580156104f457600080fd5b505af1158015610508573d6000803e3d6000fd5b505050506040513d601f19601f8201168201806040525081019061052c9190612b08565b90506000805160206138638339815191528160405161054d91815260200190565b60405180910390a16016811461056257600080fd5b604051600181527f0c9c765845f4d139956bb8fc8decb2eec6093c9c608b809641b16054b29f0e13906020015b60405180910390a1919050565b6040516001600160a01b03821660248201526000908190819061016790633b3bff0f60e01b906044015b60408051601f198184030181529181526020820180516001600160e01b03166001600160e01b03199094169390931790925290516106049190612b21565b6000604051808303816000865af19150503d8060008114610641576040519150601f19603f3d011682016040523d82523d6000602084013e610646565b606091505b50915091508161065757601561066b565b8080602001905181019061066b9190612b54565b60030b949350505050565b604080516001808252818301909252600091816020015b610695611f6b565b81526020019060019003908161068d5790505090506106c86000600660016040518060200160405280600081525061144b565b816000815181106106db576106db612b6f565b602002602001018190525060006040518060600160405280600063ffffffff168152602001846001600160a01b03168152602001627a120063ffffffff16815250905060006040518061012001604052806001805461073990612b85565b80601f016020809104026020016040519081016040528092919081815260200182805461076590612b85565b80156107b25780601f10610787576101008083540402835291602001916107b2565b820191906000526020600020905b81548152906001019060200180831161079557829003601f168201915b50505050508152602001600280546107c990612b85565b80601f01602080910402602001604051908101604052809291908181526020018280546107f590612b85565b80156108425780601f1061081757610100808354040283529160200191610842565b820191906000526020600020905b81548152906001019060200180831161082557829003601f168201915b50505050508152602001856001600160a01b031681526020016003805461086890612b85565b80601f016020809104026020016040519081016040528092919081815260200182805461089490612b85565b80156108e15780601f106108b6576101008083540402835291602001916108e1565b820191906000526020600020905b8154815290600101906020018083116108c457829003601f168201915b50505091835250506001602082015260055463ffffffff1660408201526000606082018190526080820186905260a09091018490526004546006549293509091829161092f91859190611482565b90925090506016821461094157600080fd5b6040516001600160a01b03821681527f7bb17726df1f3adee8aa00ba8e8bc5d6f182af3bbf77604639cb7f008dd3b4ed9060200160405180910390a1505050505050565b600061098f611fc8565b61099984846115b0565b60405182815291935091506000805160206138638339815191529060200160405180910390a1601682146109cc57600080fd5b7fa516f81c528634d0fc1e993bba1d227231b4bd6d1beb72d33b056a6199c0f988816040516104a19190612bc0565b600080610a098585856116a3565b60405182815291935091506000805160206138638339815191529060200160405180910390a160168214610a3c57600080fd5b6040518181527f25b6684a7e8fe1b676e9c39c8dd65034fbafea906d3bdfd97bf748b7b55e14c89060200161041c565b6000610a76612003565b610a7f8361178f565b60405182815291935091506000805160206138638339815191529060200160405180910390a160168214610ab257600080fd5b7f476a9a9b28e2717d55288b2ae3c48a72aac52b11f8bd855017c9d41d9fc1896481604051610ae19190612bd3565b60405180910390a1915091565b6040516001600160a01b03821660248201526000908190819061016790631f106b4b60e21b906044016105c6565b6000806060610b2c868686611878565b60405183815292955090935091506000805160206138638339815191529060200160405180910390a160168314610b6257600080fd5b7feff23992f47b3c101679f8b4dc9d3e242c903909dba4a453f2b2341ad463b0e28282604051610b93929190612be6565b60405180910390a193509350939050565b60408051600280825260608201909252600091816020015b610bc4611f6b565b815260200190600190039081610bbc579050509050610bf76000600660016040518060200160405280600081525061144b565b81600081518110610c0a57610c0a612b6f565b6020026020010181905250610c316004600160405180602001604052806000815250611976565b81600181518110610c4457610c44612b6f565b602002602001018190525060006040518060600160405280600063ffffffff168152602001846001600160a01b03168152602001627a120063ffffffff168152509050600060405180610120016040528060018054610ca290612b85565b80601f0160208091040260200160405190810160405280929190818152602001828054610cce90612b85565b8015610d1b5780601f10610cf057610100808354040283529160200191610d1b565b820191906000526020600020905b815481529060010190602001808311610cfe57829003601f168201915b5050505050815260200160028054610d3290612b85565b80601f0160208091040260200160405190810160405280929190818152602001828054610d5e90612b85565b8015610dab5780601f10610d8057610100808354040283529160200191610dab565b820191906000526020600020905b815481529060010190602001808311610d8e57829003601f168201915b50505050508152602001856001600160a01b0316815260200160038054610dd190612b85565b80601f0160208091040260200160405190810160405280929190818152602001828054610dfd90612b85565b8015610e4a5780601f10610e1f57610100808354040283529160200191610e4a565b820191906000526020600020905b815481529060010190602001808311610e2d57829003601f168201915b50505091835250506001602082015260055463ffffffff1660408201526000606082018190526080820186905260a09091018490529091508061092f836119ab565b60408051600080825260208201909252819081610ed1565b6040805160608101825260008082526020808301829052928201528252600019909201910181610ea45790505b50905060006040518060400160405280336001600160a01b0316815260200185610efa90612c09565b600790810b9091526040805180820182526001600160a01b038a1681529187900b602083015280516002808252606082019092529293509091600091816020015b6040805180820190915260008082526020820152815260200190600190039081610f3b5790505090508281600081518110610f7857610f78612b6f565b60200260200101819052508181600181518110610f9757610f97612b6f565b602090810291909101810191909152604080516060810182526001600160a01b038a16815291820183905281810186905280516001808252818301909252600091816020015b61100a604051806060016040528060006001600160a01b0316815260200160608152602001606081525090565b815260200190600190039081610fdd579050509050818160008151811061103357611033612b6f565b602002602001018190525061104781611a95565b96506016871461105657600080fd5b5050505050509392505050565b6000611070848484611abf565b90506000805160206138638339815191528160405161109191815260200190565b60405180910390a1601681146110a657600080fd5b9392505050565b60006110b7612023565b6110c083611bc4565b60405182815291935091506000805160206138638339815191529060200160405180910390a1601682146110f357600080fd5b7f528c7dcea75f0c9e110a038e50647cd6a70ac06d331399b77dd9a80f903ebc1681604051610ae19190612c3f565b600061112e8383611cad565b90506000805160206138638339815191528160405161114f91815260200190565b60405180910390a16016811461116457600080fd5b92915050565b604051633b3bff0f60e01b81526001600160a01b03821660048201526000903090633b3bff0f90602401602060405180830381600087803b1580156111ae57600080fd5b505af11580156111c2573d6000803e3d6000fd5b505050506040513d601f19601f820116820180604052508101906111e69190612b08565b90506000805160206138638339815191528160405161120791815260200190565b60405180910390a16016811461121c57600080fd5b604051600181527f319ab7084208e4afa38c6e6ff7aea9587439f2e4700746f4c7d425fea17426d29060200161058f565b6000611070848484611d9a565b604080516001600160a01b0385811660248301528481166044830152831660648083019190915282518083039091018152608490910182526020810180516001600160e01b03167ff49f40db000000000000000000000000000000000000000000000000000000001790529051600091829182918291610167916112dd91612b21565b6000604051808303816000865af19150503d806000811461131a576040519150601f19603f3d011682016040523d82523d6000602084013e61131f565b606091505b5091509150816113325760156000611346565b808060200190518101906113469190612c5d565b60039190910b9890975095505050505050565b604080516001600160a01b0384166024820152604480820184905282518083039091018152606490910182526020810180516001600160e01b03167f098f2366000000000000000000000000000000000000000000000000000000001790529051600091829182918291610167916113d091612b21565b6000604051808303816000865af19150503d806000811461140d576040519150601f19603f3d011682016040523d82523d6000602084013e611412565b606091505b5091509150816114255760156000611439565b808060200190518101906114399190612c89565b60039190910b97909650945050505050565b611453611f6b565b60405180604001604052806114688787611df0565b81526020016114778585611e09565b905295945050505050565b600080848061010001516000015163ffffffff1660001480156114b257506101008101516040015163ffffffff16155b156114c8576101008101516276a7006040909101525b6000806101676001600160a01b031634637812a04b60e01b8a8a8a6040516024016114f593929190612cb5565b60408051601f198184030181529181526020820180516001600160e01b03166001600160e01b03199094169390931790925290516115339190612b21565b60006040518083038185875af1925050503d8060008114611570576040519150601f19603f3d011682016040523d82523d6000602084013e611575565b606091505b509150915081611588576015600061159c565b8080602001905181019061159c9190612c89565b60039190910b999098509650505050505050565b60006115ba611fc8565b604080516001600160a01b0386166024820152600785900b60448083019190915282518083039091018152606490910182526020810180516001600160e01b03167f287e1da800000000000000000000000000000000000000000000000000000000179052905160009182916101679161163391612b21565b6000604051808303816000865af19150503d8060008114611670576040519150601f19603f3d011682016040523d82523d6000602084013e611675565b606091505b5091509150611682611fc8565b8261168f57601581611346565b8180602001905181019061134691906133d7565b604080516001600160a01b0385811660248301528481166044830152831660648083019190915282518083039091018152608490910182526020810180516001600160e01b03167f927da1050000000000000000000000000000000000000000000000000000000017905290516000918291829182916101679161172691612b21565b6000604051808303816000865af19150503d8060008114611763576040519150601f19603f3d011682016040523d82523d6000602084013e611768565b606091505b50915091508161177b5760156000611346565b8080602001905181019061134691906134bf565b6000611799612003565b604080516001600160a01b03851660248083019190915282518083039091018152604490910182526020810180516001600160e01b03167f3f28a19b00000000000000000000000000000000000000000000000000000000179052905160009182916101679161180891612b21565b6000604051808303816000865af19150503d8060008114611845576040519150601f19603f3d011682016040523d82523d6000602084013e61184a565b606091505b5091509150611857612003565b8261186457601581611439565b8180602001905181019061143991906134eb565b60008060606000806101676001600160a01b031663278e0b8860e01b8989896040516024016118a993929190613592565b60408051601f198184030181529181526020820180516001600160e01b03166001600160e01b03199094169390931790925290516118e79190612b21565b6000604051808303816000865af19150503d8060008114611924576040519150601f19603f3d011682016040523d82523d6000602084013e611929565b606091505b50915091508161194c576040805160008082526020820190925260159190611960565b808060200190518101906119609190613616565b60039290920b9a90995090975095505050505050565b61197e611f6b565b604051806040016040528061199286611ed9565b81526020016119a18585611e09565b9052949350505050565b600080828061010001516000015163ffffffff1660001480156119db57506101008101516040015163ffffffff16155b156119f1576101008101516276a7006040909101525b6000806101676001600160a01b031634639dc711e060e01b88604051602401611a1a91906136d6565b60408051601f198184030181529181526020820180516001600160e01b03166001600160e01b0319909416939093179092529051611a589190612b21565b60006040518083038185875af1925050503d806000811461140d576040519150601f19603f3d011682016040523d82523d6000602084013e611412565b60008060006101676001600160a01b031663189a554c60e01b856040516024016105c6919061373e565b6040516001600160a01b03848116602483015283166044820152811515606482015260009081908190610167907f367605ca00000000000000000000000000000000000000000000000000000000906084015b60408051601f198184030181529181526020820180516001600160e01b03166001600160e01b0319909416939093179092529051611b509190612b21565b6000604051808303816000865af19150503d8060008114611b8d576040519150601f19603f3d011682016040523d82523d6000602084013e611b92565b606091505b509150915081611ba3576015611bb7565b80806020019051810190611bb79190612b54565b60030b9695505050505050565b6000611bce612023565b604080516001600160a01b03851660248083019190915282518083039091018152604490910182526020810180516001600160e01b03167f1f69565f000000000000000000000000000000000000000000000000000000001790529051600091829161016791611c3d91612b21565b6000604051808303816000865af19150503d8060008114611c7a576040519150601f19603f3d011682016040523d82523d6000602084013e611c7f565b606091505b5091509150611c8c612023565b82611c9957601581611439565b818060200190518101906114399190613814565b604080516001600160a01b038481166024830152831660448083019190915282518083039091018152606490910182526020810180516001600160e01b03167f49146bde0000000000000000000000000000000000000000000000000000000017905290516000918291829161016791611d279190612b21565b6000604051808303816000865af19150503d8060008114611d64576040519150601f19603f3d011682016040523d82523d6000602084013e611d69565b606091505b509150915081611d7a576015611d8e565b80806020019051810190611d8e9190612b54565b60030b95945050505050565b6040516001600160a01b038481166024830152831660448201526064810182905260009081908190610167907fe1f21c670000000000000000000000000000000000000000000000000000000090608401611b12565b6000600160ff84161b9050600160ff83161b81176110a6565b611e4f6040518060a0016040528060001515815260200160006001600160a01b03168152602001606081526020016060815260200160006001600160a01b031681525090565b8260ff1660011415611e645760018152611164565b8260ff1660021415611e86576000546001600160a01b03166020820152611164565b8260ff1660031415611e9e5760408101829052611164565b8260ff1660041415611eb65760608101829052611164565b8260ff1660051415611164576000546001600160a01b0316608082015292915050565b600060ff8216611eeb57506001919050565b8160ff1660011415611eff57506002919050565b8160ff1660021415611f1357506004919050565b8160ff1660031415611f2757506008919050565b8160ff1660041415611f3b57506010919050565b8160ff1660051415611f4f57506020919050565b8160ff1660061415611f6357506040919050565b506000919050565b604051806040016040528060008152602001611fc36040518060a0016040528060001515815260200160006001600160a01b03168152602001606081526020016060815260200160006001600160a01b031681525090565b905290565b6040518060c00160405280611fdb612023565b8152600060208201819052604082018190526060808301829052608083015260a09091015290565b6040518060400160405280612016612023565b8152600060209091015290565b60408051610240810182526060610120820181815261014083018290526000610160840181905261018084018390526101a084018190526101c084018190526101e0840181905261020084018390528451928301855280835260208301819052938201939093526102208201529081908152602001600067ffffffffffffffff168152602001600015158152602001600015158152602001600015158152602001606081526020016060815260200160608152602001606081525090565b6001600160a01b03811681146120f657600080fd5b50565b60008060006060848603121561210e57600080fd5b8335612119816120e1565b92506020840135612129816120e1565b91506040840135612139816120e1565b809150509250925092565b6000806040838503121561215757600080fd5b8235612162816120e1565b946020939093013593505050565b60006020828403121561218257600080fd5b81356110a6816120e1565b8060070b81146120f657600080fd5b600080604083850312156121af57600080fd5b82356121ba816120e1565b915060208301356121ca8161218d565b809150509250929050565b60005b838110156121f05781810151838201526020016121d8565b838111156121ff576000848401525b50505050565b6000815180845261221d8160208601602086016121d5565b601f01601f19169290920160200192915050565b600081518084526020808501808196508360051b8101915082860160005b858110156122e85782840389528151604081518652868201519150808787015281511515818701528682015160606001600160a01b03808316828a015283850151935060a09250608083818b01526122aa60e08b0186612205565b928601518a8403603f1901858c01529294506122c68584612205565b9501511660c0989098019790975250509885019893509084019060010161224f565b5091979650505050505050565b6000610160825181855261230b82860182612205565b915050602083015184820360208601526123258282612205565b915050604083015161234260408601826001600160a01b03169052565b506060830151848203606086015261235a8282612205565b9150506080830151612370608086018215159052565b5060a083015161238860a086018263ffffffff169052565b5060c083015161239c60c086018215159052565b5060e083015184820360e08601526123b48282612231565b61010085810151805163ffffffff9081168984015260208201516001600160a01b03166101208a015260408201511661014089015291935091505090949350505050565b600081518084526020808501945080840160005b83811015612468578151805163ffffffff168852838101516001600160a01b03908116858a01526040808301511515908a01526060808301511515908a0152608091820151169088015260a0909601959082019060010161240c565b509495945050505050565b600081518084526020808501945080840160005b83811015612468578151805163ffffffff9081168952848201518116858a01526040808301518216908a01526060808301519091169089015260808082015115159089015260a0908101516001600160a01b03169088015260c09096019590820190600101612487565b600081518084526020808501945080840160005b83811015612468578151805163ffffffff9081168952848201518116858a0152604080830151909116908901526060808201516001600160a01b03908116918a01919091526080808301511515908a015260a091820151169088015260c09096019590820190600101612505565b60006101208251818552612589828601826122f5565b91505060208301516125a7602086018267ffffffffffffffff169052565b5060408301516125bb604086018215159052565b5060608301516125cf606086018215159052565b5060808301516125e3608086018215159052565b5060a083015184820360a08601526125fb82826123f8565b91505060c083015184820360c08601526126158282612473565b91505060e083015184820360e086015261262f82826124f1565b915050610100808401518583038287015261264a8382612205565b9695505050505050565b6000815160c0845261266960c0850182612573565b9050602083015160070b602085015260408301516001600160a01b038082166040870152606085015160070b60608701526080850151915085830360808701526126b38383612205565b92508060a08601511660a087015250508091505092915050565b8281526040602082015260006126e66040830184612654565b949350505050565b60008151604084526127036040850182612573565b60209384015163ffffffff16949093019390935250919050565b8281526040602082015260006126e660408301846126ee565b67ffffffffffffffff811681146120f657600080fd5b634e487b7160e01b600052604160045260246000fd5b6040805190810167ffffffffffffffff811182821017156127855761278561274c565b60405290565b60405160a0810167ffffffffffffffff811182821017156127855761278561274c565b604051610120810167ffffffffffffffff811182821017156127855761278561274c565b60405160c0810167ffffffffffffffff811182821017156127855761278561274c565b604051601f8201601f1916810167ffffffffffffffff8111828210171561281e5761281e61274c565b604052919050565b600067ffffffffffffffff8211156128405761284061274c565b5060051b60200190565b600067ffffffffffffffff8211156128645761286461274c565b50601f01601f191660200190565b60008060006060848603121561288757600080fd5b8335612892816120e1565b92506020848101356128a381612736565b925060408581013567ffffffffffffffff808211156128c157600080fd5b818801915088601f8301126128d557600080fd5b81356128e86128e382612826565b6127f5565b81815260059190911b8301850190858101908b83111561290757600080fd5b8685015b8381101561297b578035858111156129235760008081fd5b8601603f81018e136129355760008081fd5b888101356129456128e38261284a565b8181528f8a83850101111561295a5760008081fd5b818a84018c83013760009181018b019190915284525091870191870161290b565b50809750505050505050509250925092565b600081518084526020808501945080840160005b8381101561246857815160070b875295820195908201906001016129a1565b83815267ffffffffffffffff831660208201526060604082015260006129e9606083018461298d565b95945050505050565b600080600060608486031215612a0757600080fd5b8335612a12816120e1565b92506020840135612a22816120e1565b915060408401356121398161218d565b80151581146120f657600080fd5b600080600060608486031215612a5557600080fd5b8335612a60816120e1565b92506020840135612a70816120e1565b9150604084013561213981612a32565b8281526040602082015260006126e66040830184612573565b60008060408385031215612aac57600080fd5b8235612ab7816120e1565b915060208301356121ca816120e1565b600080600060608486031215612adc57600080fd5b8335612ae7816120e1565b92506020840135612af7816120e1565b929592945050506040919091013590565b600060208284031215612b1a57600080fd5b5051919050565b60008251612b338184602087016121d5565b9190910192915050565b8051600381900b8114612b4f57600080fd5b919050565b600060208284031215612b6657600080fd5b6110a682612b3d565b634e487b7160e01b600052603260045260246000fd5b600181811c90821680612b9957607f821691505b60208210811415612bba57634e487b7160e01b600052602260045260246000fd5b50919050565b6020815260006110a66020830184612654565b6020815260006110a660208301846126ee565b67ffffffffffffffff831681526040602082015260006126e6604083018461298d565b60008160070b677fffffffffffffff19811415612c3657634e487b7160e01b600052601160045260246000fd5b60000392915050565b6020815260006110a66020830184612573565b8051612b4f81612a32565b60008060408385031215612c7057600080fd5b612c7983612b3d565b915060208301516121ca81612a32565b60008060408385031215612c9c57600080fd5b612ca583612b3d565b915060208301516121ca816120e1565b606081526000612cc860608301866122f5565b60208301949094525060400152919050565b600082601f830112612ceb57600080fd5b8151612cf96128e38261284a565b818152846020838601011115612d0e57600080fd5b6126e68260208301602087016121d5565b8051612b4f816120e1565b805163ffffffff81168114612b4f57600080fd5b600082601f830112612d4f57600080fd5b81516020612d5f6128e383612826565b82815260059290921b84018101918181019086841115612d7e57600080fd5b8286015b84811015612e9457805167ffffffffffffffff80821115612da257600080fd5b908801906040601f19838c038101821315612dbc57600080fd5b612dc4612762565b8885015181528285015184811115612ddb57600080fd5b949094019360a0858e0383011215612df35760008081fd5b612dfb61278b565b915088850151612e0a81612a32565b825284830151612e19816120e1565b828a015260608581015185811115612e315760008081fd5b612e3f8f8c838a0101612cda565b8585015250608093508386015185811115612e5a5760008081fd5b612e688f8c838a0101612cda565b828501525050612e7a60a08601612d1f565b928201929092528188015285525050918301918301612d82565b509695505050505050565b600060608284031215612eb157600080fd5b6040516060810181811067ffffffffffffffff82111715612ed457612ed461274c565b604052905080612ee383612d2a565b81526020830151612ef3816120e1565b6020820152612f0460408401612d2a565b60408201525092915050565b60006101608284031215612f2357600080fd5b612f2b6127ae565b9050815167ffffffffffffffff80821115612f4557600080fd5b612f5185838601612cda565b83526020840151915080821115612f6757600080fd5b612f7385838601612cda565b6020840152612f8460408501612d1f565b60408401526060840151915080821115612f9d57600080fd5b612fa985838601612cda565b6060840152612fba60808501612c52565b6080840152612fcb60a08501612d2a565b60a0840152612fdc60c08501612c52565b60c084015260e0840151915080821115612ff557600080fd5b5061300284828501612d3e565b60e08301525061010061301784828501612e9f565b9082015292915050565b8051612b4f81612736565b600082601f83011261303d57600080fd5b8151602061304d6128e383612826565b82815260a0928302850182019282820191908785111561306c57600080fd5b8387015b858110156130f25781818a0312156130885760008081fd5b61309061278b565b61309982612d2a565b8152858201516130a8816120e1565b818701526040828101516130bb81612a32565b908201526060828101516130ce81612a32565b908201526080828101516130e1816120e1565b908201528452928401928101613070565b5090979650505050505050565b600082601f83011261311057600080fd5b815160206131206128e383612826565b82815260c0928302850182019282820191908785111561313f57600080fd5b8387015b858110156130f25781818a03121561315b5760008081fd5b6131636127d2565b61316c82612d2a565b8152613179868301612d2a565b86820152604061318a818401612d2a565b90820152606061319b838201612d2a565b908201526080828101516131ae81612a32565b9082015260a0828101516131c1816120e1565b908201528452928401928101613143565b600082601f8301126131e357600080fd5b815160206131f36128e383612826565b82815260c0928302850182019282820191908785111561321257600080fd5b8387015b858110156130f25781818a03121561322e5760008081fd5b6132366127d2565b61323f82612d2a565b815261324c868301612d2a565b86820152604061325d818401612d2a565b90820152606082810151613270816120e1565b9082015260808281015161328381612a32565b9082015260a082810151613296816120e1565b908201528452928401928101613216565b600061012082840312156132ba57600080fd5b6132c26127ae565b9050815167ffffffffffffffff808211156132dc57600080fd5b6132e885838601612f10565b83526132f660208501613021565b602084015261330760408501612c52565b604084015261331860608501612c52565b606084015261332960808501612c52565b608084015260a084015191508082111561334257600080fd5b61334e8583860161302c565b60a084015260c084015191508082111561336757600080fd5b613373858386016130ff565b60c084015260e084015191508082111561338c57600080fd5b613398858386016131d2565b60e0840152610100915081840151818111156133b357600080fd5b6133bf86828701612cda565b8385015250505092915050565b8051612b4f8161218d565b600080604083850312156133ea57600080fd5b6133f383612b3d565b9150602083015167ffffffffffffffff8082111561341057600080fd5b9084019060c0828703121561342457600080fd5b61342c6127d2565b82518281111561343b57600080fd5b613447888286016132a7565b825250613456602084016133cc565b602082015261346760408401612d1f565b6040820152613478606084016133cc565b606082015260808301518281111561348f57600080fd5b61349b88828601612cda565b6080830152506134ad60a08401612d1f565b60a08201528093505050509250929050565b600080604083850312156134d257600080fd5b6134db83612b3d565b9150602083015190509250929050565b600080604083850312156134fe57600080fd5b61350783612b3d565b9150602083015167ffffffffffffffff8082111561352457600080fd5b908401906040828703121561353857600080fd5b6040516040810181811083821117156135535761355361274c565b60405282518281111561356557600080fd5b613571888286016132a7565b82525061358060208401612d2a565b60208201528093505050509250929050565b6000606082016001600160a01b0386168352602067ffffffffffffffff8616818501526060604085015281855180845260808601915060808160051b870101935082870160005b8281101561360757607f198887030184526135f5868351612205565b955092840192908401906001016135d9565b50939998505050505050505050565b60008060006060848603121561362b57600080fd5b61363484612b3d565b925060208085015161364581612736565b604086015190935067ffffffffffffffff81111561366257600080fd5b8501601f8101871361367357600080fd5b80516136816128e382612826565b81815260059190911b820183019083810190898311156136a057600080fd5b928401925b828410156136c75783516136b88161218d565b825292840192908401906136a5565b80955050505050509250925092565b6020815260006110a660208301846122f5565b600081518084526020808501945080840160005b8381101561246857815180516001600160a01b03908116895284820151168489015260409081015160070b90880152606090960195908201906001016136fd565b60006020808301818452808551808352604092508286019150828160051b8701018488016000805b8481101561380557898403603f19018652825180516001600160a01b0390811686528982015160608b880181905281519088018190526080880192918c01919086905b808210156137d75783518051841686528e015160070b8e860152938c0193928d0192600191909101906137a9565b5050505090880151858203868a0152906137f181836136e9565b978a01979550505091870191600101613766565b50919998505050505050505050565b6000806040838503121561382757600080fd5b61383083612b3d565b9150602083015167ffffffffffffffff81111561384c57600080fd5b613858858286016132a7565b915050925092905056fe90a5cf4cffe88b4edbb041cfc7a8a812c48a5ec30b84640fb37690875168e3aaa26469706673582212201f10d2127e26787d3e4cd1f319675b89a51f3556a152282640a26bc647cbd8a264736f6c63430008090033",
  "linkReferences": {},
  "deployedLinkReferences": {}
}