{
  "_format": "hh-sol-artifact-1",
  "contractName": "BaseHTS",
  "sourceName": "contracts/BaseHTS.sol",
  "abi": [
    {
      "anonymous": false,
      "inputs": [
        {
          "indexed": false,
          "internalType": "uint256",
          "name": "amount",
          "type": "uint256"
        }
      ],
      "name": "AllowanceValue",
      "type": "event"
    },
    {
      "anonymous": false,
      "inputs": [
        {
          "indexed": false,
          "internalType": "bool",
          "name": "approved",
          "type": "bool"
        }
      ],
      "name": "Approved",
      "type": "event"
    },
    {
      "anonymous": false,
      "inputs": [
        {
          "indexed": false,
          "internalType": "address",
          "name": "approved",
          "type": "address"
        }
      ],
      "name": "ApprovedAddress",
      "type": "event"
    },
    {
      "anonymous": false,
      "inputs": [
        {
          "indexed": false,
          "internalType": "address",
          "name": "tokenAddress",
          "type": "address"
        }
      ],
      "name": "CreatedToken",
      "type": "event"
    },
    {
      "anonymous": false,
      "inputs": [
        {
          "indexed": false,
          "internalType": "bool",
          "name": "freezeStatus",
          "type": "bool"
        }
      ],
      "name": "DefaultFreezeStatusChanged",
      "type": "event"
    },
    {
      "anonymous": false,
      "inputs": [
        {
          "indexed": false,
          "internalType": "bool",
          "name": "frozen",
          "type": "bool"
        }
      ],
      "name": "Frozen",
      "type": "event"
    },
    {
      "anonymous": false,
      "inputs": [
        {
          "components": [
            {
              "components": [
                {
                  "components": [
                    {
                      "internalType": "string",
                      "name": "name",
                      "type": "string"
                    },
                    {
                      "internalType": "string",
                      "name": "symbol",
                      "type": "string"
                    },
                    {
                      "internalType": "address",
                      "name": "treasury",
                      "type": "address"
                    },
                    {
                      "internalType": "string",
                      "name": "memo",
                      "type": "string"
                    },
                    {
                      "internalType": "bool",
                      "name": "tokenSupplyType",
                      "type": "bool"
                    },
                    {
                      "internalType": "uint32",
                      "name": "maxSupply",
                      "type": "uint32"
                    },
                    {
                      "internalType": "bool",
                      "name": "freezeDefault",
                      "type": "bool"
                    },
                    {
                      "components": [
                        {
                          "internalType": "uint256",
                          "name": "keyType",
                          "type": "uint256"
                        },
                        {
                          "components": [
                            {
                              "internalType": "bool",
                              "name": "inheritAccountKey",
                              "type": "bool"
                            },
                            {
                              "internalType": "address",
                              "name": "contractId",
                              "type": "address"
                            },
                            {
                              "internalType": "bytes",
                              "name": "ed25519",
                              "type": "bytes"
                            },
                            {
                              "internalType": "bytes",
                              "name": "ECDSA_secp256k1",
                              "type": "bytes"
                            },
                            {
                              "internalType": "address",
                              "name": "delegatableContractId",
                              "type": "address"
                            }
                          ],
                          "internalType": "struct IHederaTokenService.KeyValue",
                          "name": "key",
                          "type": "tuple"
                        }
                      ],
                      "internalType": "struct IHederaTokenService.TokenKey[]",
                      "name": "tokenKeys",
                      "type": "tuple[]"
                    },
                    {
                      "components": [
                        {
                          "internalType": "uint32",
                          "name": "second",
                          "type": "uint32"
                        },
                        {
                          "internalType": "address",
                          "name": "autoRenewAccount",
                          "type": "address"
                        },
                        {
                          "internalType": "uint32",
                          "name": "autoRenewPeriod",
                          "type": "uint32"
                        }
                      ],
                      "internalType": "struct IHederaTokenService.Expiry",
                      "name": "expiry",
                      "type": "tuple"
                    }
                  ],
                  "internalType": "struct IHederaTokenService.HederaToken",
                  "name": "token",
                  "type": "tuple"
                },
                {
                  "internalType": "uint64",
                  "name": "totalSupply",
                  "type": "uint64"
                },
                {
                  "internalType": "bool",
                  "name": "deleted",
                  "type": "bool"
                },
                {
                  "internalType": "bool",
                  "name": "defaultKycStatus",
                  "type": "bool"
                },
                {
                  "internalType": "bool",
                  "name": "pauseStatus",
                  "type": "bool"
                },
                {
                  "components": [
                    {
                      "internalType": "uint32",
                      "name": "amount",
                      "type": "uint32"
                    },
                    {
                      "internalType": "address",
                      "name": "tokenId",
                      "type": "address"
                    },
                    {
                      "internalType": "bool",
                      "name": "useHbarsForPayment",
                      "type": "bool"
                    },
                    {
                      "internalType": "bool",
                      "name": "useCurrentTokenForPayment",
                      "type": "bool"
                    },
                    {
                      "internalType": "address",
                      "name": "feeCollector",
                      "type": "address"
                    }
                  ],
                  "internalType": "struct IHederaTokenService.FixedFee[]",
                  "name": "fixedFees",
                  "type": "tuple[]"
                },
                {
                  "components": [
                    {
                      "internalType": "uint32",
                      "name": "numerator",
                      "type": "uint32"
                    },
                    {
                      "internalType": "uint32",
                      "name": "denominator",
                      "type": "uint32"
                    },
                    {
                      "internalType": "uint32",
                      "name": "minimumAmount",
                      "type": "uint32"
                    },
                    {
                      "internalType": "uint32",
                      "name": "maximumAmount",
                      "type": "uint32"
                    },
                    {
                      "internalType": "bool",
                      "name": "netOfTransfers",
                      "type": "bool"
                    },
                    {
                      "internalType": "address",
                      "name": "feeCollector",
                      "type": "address"
                    }
                  ],
                  "internalType": "struct IHederaTokenService.FractionalFee[]",
                  "name": "fractionalFees",
                  "type": "tuple[]"
                },
                {
                  "components": [
                    {
                      "internalType": "uint32",
                      "name": "numerator",
                      "type": "uint32"
                    },
                    {
                      "internalType": "uint32",
                      "name": "denominator",
                      "type": "uint32"
                    },
                    {
                      "internalType": "uint32",
                      "name": "amount",
                      "type": "uint32"
                    },
                    {
                      "internalType": "address",
                      "name": "tokenId",
                      "type": "address"
                    },
                    {
                      "internalType": "bool",
                      "name": "useHbarsForPayment",
                      "type": "bool"
                    },
                    {
                      "internalType": "address",
                      "name": "feeCollector",
                      "type": "address"
                    }
                  ],
                  "internalType": "struct IHederaTokenService.RoyaltyFee[]",
                  "name": "royaltyFees",
                  "type": "tuple[]"
                },
                {
                  "internalType": "string",
                  "name": "ledgerId",
                  "type": "string"
                }
              ],
              "internalType": "struct IHederaTokenService.TokenInfo",
              "name": "tokenInfo",
              "type": "tuple"
            },
            {
              "internalType": "uint32",
              "name": "decimals",
              "type": "uint32"
            }
          ],
          "indexed": false,
          "internalType": "struct IHederaTokenService.FungibleTokenInfo",
          "name": "tokenInfo",
          "type": "tuple"
        }
      ],
      "name": "FungibleTokenInfo",
      "type": "event"
    },
    {
      "anonymous": false,
      "inputs": [
        {
          "indexed": false,
          "internalType": "uint64",
          "name": "newTotalSupply",
          "type": "uint64"
        },
        {
          "indexed": false,
          "internalType": "int64[]",
          "name": "serialNumbers",
          "type": "int64[]"
        }
      ],
      "name": "MintedToken",
      "type": "event"
    },
    {
      "anonymous": false,
      "inputs": [
        {
          "components": [
            {
              "components": [
                {
                  "components": [
                    {
                      "internalType": "string",
                      "name": "name",
                      "type": "string"
                    },
                    {
                      "internalType": "string",
                      "name": "symbol",
                      "type": "string"
                    },
                    {
                      "internalType": "address",
                      "name": "treasury",
                      "type": "address"
                    },
                    {
                      "internalType": "string",
                      "name": "memo",
                      "type": "string"
                    },
                    {
                      "internalType": "bool",
                      "name": "tokenSupplyType",
                      "type": "bool"
                    },
                    {
                      "internalType": "uint32",
                      "name": "maxSupply",
                      "type": "uint32"
                    },
                    {
                      "internalType": "bool",
                      "name": "freezeDefault",
                      "type": "bool"
                    },
                    {
                      "components": [
                        {
                          "internalType": "uint256",
                          "name": "keyType",
                          "type": "uint256"
                        },
                        {
                          "components": [
                            {
                              "internalType": "bool",
                              "name": "inheritAccountKey",
                              "type": "bool"
                            },
                            {
                              "internalType": "address",
                              "name": "contractId",
                              "type": "address"
                            },
                            {
                              "internalType": "bytes",
                              "name": "ed25519",
                              "type": "bytes"
                            },
                            {
                              "internalType": "bytes",
                              "name": "ECDSA_secp256k1",
                              "type": "bytes"
                            },
                            {
                              "internalType": "address",
                              "name": "delegatableContractId",
                              "type": "address"
                            }
                          ],
                          "internalType": "struct IHederaTokenService.KeyValue",
                          "name": "key",
                          "type": "tuple"
                        }
                      ],
                      "internalType": "struct IHederaTokenService.TokenKey[]",
                      "name": "tokenKeys",
                      "type": "tuple[]"
                    },
                    {
                      "components": [
                        {
                          "internalType": "uint32",
                          "name": "second",
                          "type": "uint32"
                        },
                        {
                          "internalType": "address",
                          "name": "autoRenewAccount",
                          "type": "address"
                        },
                        {
                          "internalType": "uint32",
                          "name": "autoRenewPeriod",
                          "type": "uint32"
                        }
                      ],
                      "internalType": "struct IHederaTokenService.Expiry",
                      "name": "expiry",
                      "type": "tuple"
                    }
                  ],
                  "internalType": "struct IHederaTokenService.HederaToken",
                  "name": "token",
                  "type": "tuple"
                },
                {
                  "internalType": "uint64",
                  "name": "totalSupply",
                  "type": "uint64"
                },
                {
                  "internalType": "bool",
                  "name": "deleted",
                  "type": "bool"
                },
                {
                  "internalType": "bool",
                  "name": "defaultKycStatus",
                  "type": "bool"
                },
                {
                  "internalType": "bool",
                  "name": "pauseStatus",
                  "type": "bool"
                },
                {
                  "components": [
                    {
                      "internalType": "uint32",
                      "name": "amount",
                      "type": "uint32"
                    },
                    {
                      "internalType": "address",
                      "name": "tokenId",
                      "type": "address"
                    },
                    {
                      "internalType": "bool",
                      "name": "useHbarsForPayment",
                      "type": "bool"
                    },
                    {
                      "internalType": "bool",
                      "name": "useCurrentTokenForPayment",
                      "type": "bool"
                    },
                    {
                      "internalType": "address",
                      "name": "feeCollector",
                      "type": "address"
                    }
                  ],
                  "internalType": "struct IHederaTokenService.FixedFee[]",
                  "name": "fixedFees",
                  "type": "tuple[]"
                },
                {
                  "components": [
                    {
                      "internalType": "uint32",
                      "name": "numerator",
                      "type": "uint32"
                    },
                    {
                      "internalType": "uint32",
                      "name": "denominator",
                      "type": "uint32"
                    },
                    {
                      "internalType": "uint32",
                      "name": "minimumAmount",
                      "type": "uint32"
                    },
                    {
                      "internalType": "uint32",
                      "name": "maximumAmount",
                      "type": "uint32"
                    },
                    {
                      "internalType": "bool",
                      "name": "netOfTransfers",
                      "type": "bool"
                    },
                    {
                      "internalType": "address",
                      "name": "feeCollector",
                      "type": "address"
                    }
                  ],
                  "internalType": "struct IHederaTokenService.FractionalFee[]",
                  "name": "fractionalFees",
                  "type": "tuple[]"
                },
                {
                  "components": [
                    {
                      "internalType": "uint32",
                      "name": "numerator",
                      "type": "uint32"
                    },
                    {
                      "internalType": "uint32",
                      "name": "denominator",
                      "type": "uint32"
                    },
                    {
                      "internalType": "uint32",
                      "name": "amount",
                      "type": "uint32"
                    },
                    {
                      "internalType": "address",
                      "name": "tokenId",
                      "type": "address"
                    },
                    {
                      "internalType": "bool",
                      "name": "useHbarsForPayment",
                      "type": "bool"
                    },
                    {
                      "internalType": "address",
                      "name": "feeCollector",
                      "type": "address"
                    }
                  ],
                  "internalType": "struct IHederaTokenService.RoyaltyFee[]",
                  "name": "royaltyFees",
                  "type": "tuple[]"
                },
                {
                  "internalType": "string",
                  "name": "ledgerId",
                  "type": "string"
                }
              ],
              "internalType": "struct IHederaTokenService.TokenInfo",
              "name": "tokenInfo",
              "type": "tuple"
            },
            {
              "internalType": "int64",
              "name": "serialNumber",
              "type": "int64"
            },
            {
              "internalType": "address",
              "name": "ownerId",
              "type": "address"
            },
            {
              "internalType": "int64",
              "name": "creationTime",
              "type": "int64"
            },
            {
              "internalType": "bytes",
              "name": "metadata",
              "type": "bytes"
            },
            {
              "internalType": "address",
              "name": "spenderId",
              "type": "address"
            }
          ],
          "indexed": false,
          "internalType": "struct IHederaTokenService.NonFungibleTokenInfo",
          "name": "tokenInfo",
          "type": "tuple"
        }
      ],
      "name": "NonFungibleTokenInfo",
      "type": "event"
    },
    {
      "anonymous": false,
      "inputs": [
        {
          "indexed": false,
          "internalType": "bool",
          "name": "paused",
          "type": "bool"
        }
      ],
      "name": "PausedToken",
      "type": "event"
    },
    {
      "anonymous": false,
      "inputs": [
        {
          "indexed": false,
          "internalType": "int256",
          "name": "responseCode",
          "type": "int256"
        }
      ],
      "name": "ResponseCode",
      "type": "event"
    },
    {
      "anonymous": false,
      "inputs": [
        {
          "components": [
            {
              "internalType": "uint32",
              "name": "amount",
              "type": "uint32"
            },
            {
              "internalType": "address",
              "name": "tokenId",
              "type": "address"
            },
            {
              "internalType": "bool",
              "name": "useHbarsForPayment",
              "type": "bool"
            },
            {
              "internalType": "bool",
              "name": "useCurrentTokenForPayment",
              "type": "bool"
            },
            {
              "internalType": "address",
              "name": "feeCollector",
              "type": "address"
            }
          ],
          "indexed": false,
          "internalType": "struct IHederaTokenService.FixedFee[]",
          "name": "fixedFees",
          "type": "tuple[]"
        },
        {
          "components": [
            {
              "internalType": "uint32",
              "name": "numerator",
              "type": "uint32"
            },
            {
              "internalType": "uint32",
              "name": "denominator",
              "type": "uint32"
            },
            {
              "internalType": "uint32",
              "name": "minimumAmount",
              "type": "uint32"
            },
            {
              "internalType": "uint32",
              "name": "maximumAmount",
              "type": "uint32"
            },
            {
              "internalType": "bool",
              "name": "netOfTransfers",
              "type": "bool"
            },
            {
              "internalType": "address",
              "name": "feeCollector",
              "type": "address"
            }
          ],
          "indexed": false,
          "internalType": "struct IHederaTokenService.FractionalFee[]",
          "name": "fractionalFees",
          "type": "tuple[]"
        },
        {
          "components": [
            {
              "internalType": "uint32",
              "name": "numerator",
              "type": "uint32"
            },
            {
              "internalType": "uint32",
              "name": "denominator",
              "type": "uint32"
            },
            {
              "internalType": "uint32",
              "name": "amount",
              "type": "uint32"
            },
            {
              "internalType": "address",
              "name": "tokenId",
              "type": "address"
            },
            {
              "internalType": "bool",
              "name": "useHbarsForPayment",
              "type": "bool"
            },
            {
              "internalType": "address",
              "name": "feeCollector",
              "type": "address"
            }
          ],
          "indexed": false,
          "internalType": "struct IHederaTokenService.RoyaltyFee[]",
          "name": "royaltyFees",
          "type": "tuple[]"
        }
      ],
      "name": "TokenCustomFees",
      "type": "event"
    },
    {
      "anonymous": false,
      "inputs": [
        {
          "indexed": false,
          "internalType": "bool",
          "name": "defaultFreezeStatus",
          "type": "bool"
        }
      ],
      "name": "TokenDefaultFreezeStatus",
      "type": "event"
    },
    {
      "anonymous": false,
      "inputs": [
        {
          "indexed": false,
          "internalType": "bool",
          "name": "defaultKycStatus",
          "type": "bool"
        }
      ],
      "name": "TokenDefaultKycStatus",
      "type": "event"
    },
    {
      "anonymous": false,
      "inputs": [
        {
          "components": [
            {
              "components": [
                {
                  "internalType": "string",
                  "name": "name",
                  "type": "string"
                },
                {
                  "internalType": "string",
                  "name": "symbol",
                  "type": "string"
                },
                {
                  "internalType": "address",
                  "name": "treasury",
                  "type": "address"
                },
                {
                  "internalType": "string",
                  "name": "memo",
                  "type": "string"
                },
                {
                  "internalType": "bool",
                  "name": "tokenSupplyType",
                  "type": "bool"
                },
                {
                  "internalType": "uint32",
                  "name": "maxSupply",
                  "type": "uint32"
                },
                {
                  "internalType": "bool",
                  "name": "freezeDefault",
                  "type": "bool"
                },
                {
                  "components": [
                    {
                      "internalType": "uint256",
                      "name": "keyType",
                      "type": "uint256"
                    },
                    {
                      "components": [
                        {
                          "internalType": "bool",
                          "name": "inheritAccountKey",
                          "type": "bool"
                        },
                        {
                          "internalType": "address",
                          "name": "contractId",
                          "type": "address"
                        },
                        {
                          "internalType": "bytes",
                          "name": "ed25519",
                          "type": "bytes"
                        },
                        {
                          "internalType": "bytes",
                          "name": "ECDSA_secp256k1",
                          "type": "bytes"
                        },
                        {
                          "internalType": "address",
                          "name": "delegatableContractId",
                          "type": "address"
                        }
                      ],
                      "internalType": "struct IHederaTokenService.KeyValue",
                      "name": "key",
                      "type": "tuple"
                    }
                  ],
                  "internalType": "struct IHederaTokenService.TokenKey[]",
                  "name": "tokenKeys",
                  "type": "tuple[]"
                },
                {
                  "components": [
                    {
                      "internalType": "uint32",
                      "name": "second",
                      "type": "uint32"
                    },
                    {
                      "internalType": "address",
                      "name": "autoRenewAccount",
                      "type": "address"
                    },
                    {
                      "internalType": "uint32",
                      "name": "autoRenewPeriod",
                      "type": "uint32"
                    }
                  ],
                  "internalType": "struct IHederaTokenService.Expiry",
                  "name": "expiry",
                  "type": "tuple"
                }
              ],
              "internalType": "struct IHederaTokenService.HederaToken",
              "name": "token",
              "type": "tuple"
            },
            {
              "internalType": "uint64",
              "name": "totalSupply",
              "type": "uint64"
            },
            {
              "internalType": "bool",
              "name": "deleted",
              "type": "bool"
            },
            {
              "internalType": "bool",
              "name": "defaultKycStatus",
              "type": "bool"
            },
            {
              "internalType": "bool",
              "name": "pauseStatus",
              "type": "bool"
            },
            {
              "components": [
                {
                  "internalType": "uint32",
                  "name": "amount",
                  "type": "uint32"
                },
                {
                  "internalType": "address",
                  "name": "tokenId",
                  "type": "address"
                },
                {
                  "internalType": "bool",
                  "name": "useHbarsForPayment",
                  "type": "bool"
                },
                {
                  "internalType": "bool",
                  "name": "useCurrentTokenForPayment",
                  "type": "bool"
                },
                {
                  "internalType": "address",
                  "name": "feeCollector",
                  "type": "address"
                }
              ],
              "internalType": "struct IHederaTokenService.FixedFee[]",
              "name": "fixedFees",
              "type": "tuple[]"
            },
            {
              "components": [
                {
                  "internalType": "uint32",
                  "name": "numerator",
                  "type": "uint32"
                },
                {
                  "internalType": "uint32",
                  "name": "denominator",
                  "type": "uint32"
                },
                {
                  "internalType": "uint32",
                  "name": "minimumAmount",
                  "type": "uint32"
                },
                {
                  "internalType": "uint32",
                  "name": "maximumAmount",
                  "type": "uint32"
                },
                {
                  "internalType": "bool",
                  "name": "netOfTransfers",
                  "type": "bool"
                },
                {
                  "internalType": "address",
                  "name": "feeCollector",
                  "type": "address"
                }
              ],
              "internalType": "struct IHederaTokenService.FractionalFee[]",
              "name": "fractionalFees",
              "type": "tuple[]"
            },
            {
              "components": [
                {
                  "internalType": "uint32",
                  "name": "numerator",
                  "type": "uint32"
                },
                {
                  "internalType": "uint32",
                  "name": "denominator",
                  "type": "uint32"
                },
                {
                  "internalType": "uint32",
                  "name": "amount",
                  "type": "uint32"
                },
                {
                  "internalType": "address",
                  "name": "tokenId",
                  "type": "address"
                },
                {
                  "internalType": "bool",
                  "name": "useHbarsForPayment",
                  "type": "bool"
                },
                {
                  "internalType": "address",
                  "name": "feeCollector",
                  "type": "address"
                }
              ],
              "internalType": "struct IHederaTokenService.RoyaltyFee[]",
              "name": "royaltyFees",
              "type": "tuple[]"
            },
            {
              "internalType": "string",
              "name": "ledgerId",
              "type": "string"
            }
          ],
          "indexed": false,
          "internalType": "struct IHederaTokenService.TokenInfo",
          "name": "tokenInfo",
          "type": "tuple"
        }
      ],
      "name": "TokenInfo",
      "type": "event"
    },
    {
      "anonymous": false,
      "inputs": [
        {
          "indexed": false,
          "internalType": "bool",
          "name": "unpaused",
          "type": "bool"
        }
      ],
      "name": "UnpausedToken",
      "type": "event"
    },
    {
      "inputs": [
        {
          "internalType": "address",
          "name": "token",
          "type": "address"
        },
        {
          "internalType": "address",
          "name": "owner",
          "type": "address"
        },
        {
          "internalType": "address",
          "name": "spender",
          "type": "address"
        }
      ],
      "name": "allowancePublic",
      "outputs": [
        {
          "internalType": "int256",
          "name": "responseCode",
          "type": "int256"
        },
        {
          "internalType": "uint256",
          "name": "amount",
          "type": "uint256"
        }
      ],
      "stateMutability": "nonpayable",
      "type": "function"
    },
    {
      "inputs": [
        {
          "internalType": "address",
          "name": "token",
          "type": "address"
        },
        {
          "internalType": "address",
          "name": "spender",
          "type": "address"
        },
        {
          "internalType": "uint256",
          "name": "amount",
          "type": "uint256"
        }
      ],
      "name": "approvePublic",
      "outputs": [
        {
          "internalType": "int256",
          "name": "responseCode",
          "type": "int256"
        }
      ],
      "stateMutability": "nonpayable",
      "type": "function"
    },
    {
      "inputs": [
        {
          "internalType": "address",
          "name": "account",
          "type": "address"
        },
        {
          "internalType": "address",
          "name": "token",
          "type": "address"
        }
      ],
      "name": "associateTokenPublic",
      "outputs": [
        {
          "internalType": "int256",
          "name": "responseCode",
          "type": "int256"
        }
      ],
      "stateMutability": "nonpayable",
      "type": "function"
    },
    {
      "inputs": [
        {
          "internalType": "address",
          "name": "treasury",
          "type": "address"
        }
      ],
      "name": "createFungibleTokenPublic",
      "outputs": [],
      "stateMutability": "payable",
      "type": "function"
    },
    {
      "inputs": [
        {
          "internalType": "address",
          "name": "treasury",
          "type": "address"
        },
        {
          "internalType": "address",
          "name": "fixedFeeTokenAddress",
          "type": "address"
        }
      ],
      "name": "createFungibleTokenWithCustomFeesPublic",
      "outputs": [],
      "stateMutability": "payable",
      "type": "function"
    },
    {
      "inputs": [
        {
          "internalType": "address",
          "name": "treasury",
          "type": "address"
        }
      ],
      "name": "createNonFungibleTokenPublic",
      "outputs": [],
      "stateMutability": "payable",
      "type": "function"
    },
    {
      "inputs": [
        {
          "internalType": "address",
          "name": "token",
          "type": "address"
        },
        {
          "internalType": "address",
          "name": "account",
          "type": "address"
        }
      ],
      "name": "freezeTokenPublic",
      "outputs": [
        {
          "internalType": "int256",
          "name": "responseCode",
          "type": "int256"
        }
      ],
      "stateMutability": "nonpayable",
      "type": "function"
    },
    {
      "inputs": [
        {
          "internalType": "address",
          "name": "token",
          "type": "address"
        },
        {
          "internalType": "uint256",
          "name": "serialNumber",
          "type": "uint256"
        }
      ],
      "name": "getApprovedPublic",
      "outputs": [
        {
          "internalType": "int256",
          "name": "responseCode",
          "type": "int256"
        },
        {
          "internalType": "address",
          "name": "approved",
          "type": "address"
        }
      ],
      "stateMutability": "nonpayable",
      "type": "function"
    },
    {
      "inputs": [
        {
          "internalType": "address",
          "name": "token",
          "type": "address"
        }
      ],
      "name": "getFungibleTokenInfoPublic",
      "outputs": [
        {
          "internalType": "int256",
          "name": "responseCode",
          "type": "int256"
        },
        {
          "components": [
            {
              "components": [
                {
                  "components": [
                    {
                      "internalType": "string",
                      "name": "name",
                      "type": "string"
                    },
                    {
                      "internalType": "string",
                      "name": "symbol",
                      "type": "string"
                    },
                    {
                      "internalType": "address",
                      "name": "treasury",
                      "type": "address"
                    },
                    {
                      "internalType": "string",
                      "name": "memo",
                      "type": "string"
                    },
                    {
                      "internalType": "bool",
                      "name": "tokenSupplyType",
                      "type": "bool"
                    },
                    {
                      "internalType": "uint32",
                      "name": "maxSupply",
                      "type": "uint32"
                    },
                    {
                      "internalType": "bool",
                      "name": "freezeDefault",
                      "type": "bool"
                    },
                    {
                      "components": [
                        {
                          "internalType": "uint256",
                          "name": "keyType",
                          "type": "uint256"
                        },
                        {
                          "components": [
                            {
                              "internalType": "bool",
                              "name": "inheritAccountKey",
                              "type": "bool"
                            },
                            {
                              "internalType": "address",
                              "name": "contractId",
                              "type": "address"
                            },
                            {
                              "internalType": "bytes",
                              "name": "ed25519",
                              "type": "bytes"
                            },
                            {
                              "internalType": "bytes",
                              "name": "ECDSA_secp256k1",
                              "type": "bytes"
                            },
                            {
                              "internalType": "address",
                              "name": "delegatableContractId",
                              "type": "address"
                            }
                          ],
                          "internalType": "struct IHederaTokenService.KeyValue",
                          "name": "key",
                          "type": "tuple"
                        }
                      ],
                      "internalType": "struct IHederaTokenService.TokenKey[]",
                      "name": "tokenKeys",
                      "type": "tuple[]"
                    },
                    {
                      "components": [
                        {
                          "internalType": "uint32",
                          "name": "second",
                          "type": "uint32"
                        },
                        {
                          "internalType": "address",
                          "name": "autoRenewAccount",
                          "type": "address"
                        },
                        {
                          "internalType": "uint32",
                          "name": "autoRenewPeriod",
                          "type": "uint32"
                        }
                      ],
                      "internalType": "struct IHederaTokenService.Expiry",
                      "name": "expiry",
                      "type": "tuple"
                    }
                  ],
                  "internalType": "struct IHederaTokenService.HederaToken",
                  "name": "token",
                  "type": "tuple"
                },
                {
                  "internalType": "uint64",
                  "name": "totalSupply",
                  "type": "uint64"
                },
                {
                  "internalType": "bool",
                  "name": "deleted",
                  "type": "bool"
                },
                {
                  "internalType": "bool",
                  "name": "defaultKycStatus",
                  "type": "bool"
                },
                {
                  "internalType": "bool",
                  "name": "pauseStatus",
                  "type": "bool"
                },
                {
                  "components": [
                    {
                      "internalType": "uint32",
                      "name": "amount",
                      "type": "uint32"
                    },
                    {
                      "internalType": "address",
                      "name": "tokenId",
                      "type": "address"
                    },
                    {
                      "internalType": "bool",
                      "name": "useHbarsForPayment",
                      "type": "bool"
                    },
                    {
                      "internalType": "bool",
                      "name": "useCurrentTokenForPayment",
                      "type": "bool"
                    },
                    {
                      "internalType": "address",
                      "name": "feeCollector",
                      "type": "address"
                    }
                  ],
                  "internalType": "struct IHederaTokenService.FixedFee[]",
                  "name": "fixedFees",
                  "type": "tuple[]"
                },
                {
                  "components": [
                    {
                      "internalType": "uint32",
                      "name": "numerator",
                      "type": "uint32"
                    },
                    {
                      "internalType": "uint32",
                      "name": "denominator",
                      "type": "uint32"
                    },
                    {
                      "internalType": "uint32",
                      "name": "minimumAmount",
                      "type": "uint32"
                    },
                    {
                      "internalType": "uint32",
                      "name": "maximumAmount",
                      "type": "uint32"
                    },
                    {
                      "internalType": "bool",
                      "name": "netOfTransfers",
                      "type": "bool"
                    },
                    {
                      "internalType": "address",
                      "name": "feeCollector",
                      "type": "address"
                    }
                  ],
                  "internalType": "struct IHederaTokenService.FractionalFee[]",
                  "name": "fractionalFees",
                  "type": "tuple[]"
                },
                {
                  "components": [
                    {
                      "internalType": "uint32",
                      "name": "numerator",
                      "type": "uint32"
                    },
                    {
                      "internalType": "uint32",
                      "name": "denominator",
                      "type": "uint32"
                    },
                    {
                      "internalType": "uint32",
                      "name": "amount",
                      "type": "uint32"
                    },
                    {
                      "internalType": "address",
                      "name": "tokenId",
                      "type": "address"
                    },
                    {
                      "internalType": "bool",
                      "name": "useHbarsForPayment",
                      "type": "bool"
                    },
                    {
                      "internalType": "address",
                      "name": "feeCollector",
                      "type": "address"
                    }
                  ],
                  "internalType": "struct IHederaTokenService.RoyaltyFee[]",
                  "name": "royaltyFees",
                  "type": "tuple[]"
                },
                {
                  "internalType": "string",
                  "name": "ledgerId",
                  "type": "string"
                }
              ],
              "internalType": "struct IHederaTokenService.TokenInfo",
              "name": "tokenInfo",
              "type": "tuple"
            },
            {
              "internalType": "uint32",
              "name": "decimals",
              "type": "uint32"
            }
          ],
          "internalType": "struct IHederaTokenService.FungibleTokenInfo",
          "name": "tokenInfo",
          "type": "tuple"
        }
      ],
      "stateMutability": "nonpayable",
      "type": "function"
    },
    {
      "inputs": [
        {
          "internalType": "address",
          "name": "token",
          "type": "address"
        },
        {
          "internalType": "int64",
          "name": "serialNumber",
          "type": "int64"
        }
      ],
      "name": "getNonFungibleTokenInfoPublic",
      "outputs": [
        {
          "internalType": "int256",
          "name": "responseCode",
          "type": "int256"
        },
        {
          "components": [
            {
              "components": [
                {
                  "components": [
                    {
                      "internalType": "string",
                      "name": "name",
                      "type": "string"
                    },
                    {
                      "internalType": "string",
                      "name": "symbol",
                      "type": "string"
                    },
                    {
                      "internalType": "address",
                      "name": "treasury",
                      "type": "address"
                    },
                    {
                      "internalType": "string",
                      "name": "memo",
                      "type": "string"
                    },
                    {
                      "internalType": "bool",
                      "name": "tokenSupplyType",
                      "type": "bool"
                    },
                    {
                      "internalType": "uint32",
                      "name": "maxSupply",
                      "type": "uint32"
                    },
                    {
                      "internalType": "bool",
                      "name": "freezeDefault",
                      "type": "bool"
                    },
                    {
                      "components": [
                        {
                          "internalType": "uint256",
                          "name": "keyType",
                          "type": "uint256"
                        },
                        {
                          "components": [
                            {
                              "internalType": "bool",
                              "name": "inheritAccountKey",
                              "type": "bool"
                            },
                            {
                              "internalType": "address",
                              "name": "contractId",
                              "type": "address"
                            },
                            {
                              "internalType": "bytes",
                              "name": "ed25519",
                              "type": "bytes"
                            },
                            {
                              "internalType": "bytes",
                              "name": "ECDSA_secp256k1",
                              "type": "bytes"
                            },
                            {
                              "internalType": "address",
                              "name": "delegatableContractId",
                              "type": "address"
                            }
                          ],
                          "internalType": "struct IHederaTokenService.KeyValue",
                          "name": "key",
                          "type": "tuple"
                        }
                      ],
                      "internalType": "struct IHederaTokenService.TokenKey[]",
                      "name": "tokenKeys",
                      "type": "tuple[]"
                    },
                    {
                      "components": [
                        {
                          "internalType": "uint32",
                          "name": "second",
                          "type": "uint32"
                        },
                        {
                          "internalType": "address",
                          "name": "autoRenewAccount",
                          "type": "address"
                        },
                        {
                          "internalType": "uint32",
                          "name": "autoRenewPeriod",
                          "type": "uint32"
                        }
                      ],
                      "internalType": "struct IHederaTokenService.Expiry",
                      "name": "expiry",
                      "type": "tuple"
                    }
                  ],
                  "internalType": "struct IHederaTokenService.HederaToken",
                  "name": "token",
                  "type": "tuple"
                },
                {
                  "internalType": "uint64",
                  "name": "totalSupply",
                  "type": "uint64"
                },
                {
                  "internalType": "bool",
                  "name": "deleted",
                  "type": "bool"
                },
                {
                  "internalType": "bool",
                  "name": "defaultKycStatus",
                  "type": "bool"
                },
                {
                  "internalType": "bool",
                  "name": "pauseStatus",
                  "type": "bool"
                },
                {
                  "components": [
                    {
                      "internalType": "uint32",
                      "name": "amount",
                      "type": "uint32"
                    },
                    {
                      "internalType": "address",
                      "name": "tokenId",
                      "type": "address"
                    },
                    {
                      "internalType": "bool",
                      "name": "useHbarsForPayment",
                      "type": "bool"
                    },
                    {
                      "internalType": "bool",
                      "name": "useCurrentTokenForPayment",
                      "type": "bool"
                    },
                    {
                      "internalType": "address",
                      "name": "feeCollector",
                      "type": "address"
                    }
                  ],
                  "internalType": "struct IHederaTokenService.FixedFee[]",
                  "name": "fixedFees",
                  "type": "tuple[]"
                },
                {
                  "components": [
                    {
                      "internalType": "uint32",
                      "name": "numerator",
                      "type": "uint32"
                    },
                    {
                      "internalType": "uint32",
                      "name": "denominator",
                      "type": "uint32"
                    },
                    {
                      "internalType": "uint32",
                      "name": "minimumAmount",
                      "type": "uint32"
                    },
                    {
                      "internalType": "uint32",
                      "name": "maximumAmount",
                      "type": "uint32"
                    },
                    {
                      "internalType": "bool",
                      "name": "netOfTransfers",
                      "type": "bool"
                    },
                    {
                      "internalType": "address",
                      "name": "feeCollector",
                      "type": "address"
                    }
                  ],
                  "internalType": "struct IHederaTokenService.FractionalFee[]",
                  "name": "fractionalFees",
                  "type": "tuple[]"
                },
                {
                  "components": [
                    {
                      "internalType": "uint32",
                      "name": "numerator",
                      "type": "uint32"
                    },
                    {
                      "internalType": "uint32",
                      "name": "denominator",
                      "type": "uint32"
                    },
                    {
                      "internalType": "uint32",
                      "name": "amount",
                      "type": "uint32"
                    },
                    {
                      "internalType": "address",
                      "name": "tokenId",
                      "type": "address"
                    },
                    {
                      "internalType": "bool",
                      "name": "useHbarsForPayment",
                      "type": "bool"
                    },
                    {
                      "internalType": "address",
                      "name": "feeCollector",
                      "type": "address"
                    }
                  ],
                  "internalType": "struct IHederaTokenService.RoyaltyFee[]",
                  "name": "royaltyFees",
                  "type": "tuple[]"
                },
                {
                  "internalType": "string",
                  "name": "ledgerId",
                  "type": "string"
                }
              ],
              "internalType": "struct IHederaTokenService.TokenInfo",
              "name": "tokenInfo",
              "type": "tuple"
            },
            {
              "internalType": "int64",
              "name": "serialNumber",
              "type": "int64"
            },
            {
              "internalType": "address",
              "name": "ownerId",
              "type": "address"
            },
            {
              "internalType": "int64",
              "name": "creationTime",
              "type": "int64"
            },
            {
              "internalType": "bytes",
              "name": "metadata",
              "type": "bytes"
            },
            {
              "internalType": "address",
              "name": "spenderId",
              "type": "address"
            }
          ],
          "internalType": "struct IHederaTokenService.NonFungibleTokenInfo",
          "name": "tokenInfo",
          "type": "tuple"
        }
      ],
      "stateMutability": "nonpayable",
      "type": "function"
    },
    {
      "inputs": [
        {
          "internalType": "address",
          "name": "token",
          "type": "address"
        }
      ],
      "name": "getTokenCustomFeesPublic",
      "outputs": [
        {
          "internalType": "int64",
          "name": "responseCode",
          "type": "int64"
        },
        {
          "components": [
            {
              "internalType": "uint32",
              "name": "amount",
              "type": "uint32"
            },
            {
              "internalType": "address",
              "name": "tokenId",
              "type": "address"
            },
            {
              "internalType": "bool",
              "name": "useHbarsForPayment",
              "type": "bool"
            },
            {
              "internalType": "bool",
              "name": "useCurrentTokenForPayment",
              "type": "bool"
            },
            {
              "internalType": "address",
              "name": "feeCollector",
              "type": "address"
            }
          ],
          "internalType": "struct IHederaTokenService.FixedFee[]",
          "name": "fixedFees",
          "type": "tuple[]"
        },
        {
          "components": [
            {
              "internalType": "uint32",
              "name": "numerator",
              "type": "uint32"
            },
            {
              "internalType": "uint32",
              "name": "denominator",
              "type": "uint32"
            },
            {
              "internalType": "uint32",
              "name": "minimumAmount",
              "type": "uint32"
            },
            {
              "internalType": "uint32",
              "name": "maximumAmount",
              "type": "uint32"
            },
            {
              "internalType": "bool",
              "name": "netOfTransfers",
              "type": "bool"
            },
            {
              "internalType": "address",
              "name": "feeCollector",
              "type": "address"
            }
          ],
          "internalType": "struct IHederaTokenService.FractionalFee[]",
          "name": "fractionalFees",
          "type": "tuple[]"
        },
        {
          "components": [
            {
              "internalType": "uint32",
              "name": "numerator",
              "type": "uint32"
            },
            {
              "internalType": "uint32",
              "name": "denominator",
              "type": "uint32"
            },
            {
              "internalType": "uint32",
              "name": "amount",
              "type": "uint32"
            },
            {
              "internalType": "address",
              "name": "tokenId",
              "type": "address"
            },
            {
              "internalType": "bool",
              "name": "useHbarsForPayment",
              "type": "bool"
            },
            {
              "internalType": "address",
              "name": "feeCollector",
              "type": "address"
            }
          ],
          "internalType": "struct IHederaTokenService.RoyaltyFee[]",
          "name": "royaltyFees",
          "type": "tuple[]"
        }
      ],
      "stateMutability": "nonpayable",
      "type": "function"
    },
    {
      "inputs": [
        {
          "internalType": "address",
          "name": "token",
          "type": "address"
        }
      ],
      "name": "getTokenDefaultFreezeStatusPublic",
      "outputs": [
        {
          "internalType": "int256",
          "name": "responseCode",
          "type": "int256"
        },
        {
          "internalType": "bool",
          "name": "defaultFreezeStatus",
          "type": "bool"
        }
      ],
      "stateMutability": "nonpayable",
      "type": "function"
    },
    {
      "inputs": [
        {
          "internalType": "address",
          "name": "token",
          "type": "address"
        }
      ],
      "name": "getTokenDefaultKycStatusPublic",
      "outputs": [
        {
          "internalType": "int256",
          "name": "responseCode",
          "type": "int256"
        },
        {
          "internalType": "bool",
          "name": "defaultKycStatus",
          "type": "bool"
        }
      ],
      "stateMutability": "nonpayable",
      "type": "function"
    },
    {
      "inputs": [
        {
          "internalType": "address",
          "name": "token",
          "type": "address"
        }
      ],
      "name": "getTokenInfoPublic",
      "outputs": [
        {
          "internalType": "int256",
          "name": "responseCode",
          "type": "int256"
        },
        {
          "components": [
            {
              "components": [
                {
                  "internalType": "string",
                  "name": "name",
                  "type": "string"
                },
                {
                  "internalType": "string",
                  "name": "symbol",
                  "type": "string"
                },
                {
                  "internalType": "address",
                  "name": "treasury",
                  "type": "address"
                },
                {
                  "internalType": "string",
                  "name": "memo",
                  "type": "string"
                },
                {
                  "internalType": "bool",
                  "name": "tokenSupplyType",
                  "type": "bool"
                },
                {
                  "internalType": "uint32",
                  "name": "maxSupply",
                  "type": "uint32"
                },
                {
                  "internalType": "bool",
                  "name": "freezeDefault",
                  "type": "bool"
                },
                {
                  "components": [
                    {
                      "internalType": "uint256",
                      "name": "keyType",
                      "type": "uint256"
                    },
                    {
                      "components": [
                        {
                          "internalType": "bool",
                          "name": "inheritAccountKey",
                          "type": "bool"
                        },
                        {
                          "internalType": "address",
                          "name": "contractId",
                          "type": "address"
                        },
                        {
                          "internalType": "bytes",
                          "name": "ed25519",
                          "type": "bytes"
                        },
                        {
                          "internalType": "bytes",
                          "name": "ECDSA_secp256k1",
                          "type": "bytes"
                        },
                        {
                          "internalType": "address",
                          "name": "delegatableContractId",
                          "type": "address"
                        }
                      ],
                      "internalType": "struct IHederaTokenService.KeyValue",
                      "name": "key",
                      "type": "tuple"
                    }
                  ],
                  "internalType": "struct IHederaTokenService.TokenKey[]",
                  "name": "tokenKeys",
                  "type": "tuple[]"
                },
                {
                  "components": [
                    {
                      "internalType": "uint32",
                      "name": "second",
                      "type": "uint32"
                    },
                    {
                      "internalType": "address",
                      "name": "autoRenewAccount",
                      "type": "address"
                    },
                    {
                      "internalType": "uint32",
                      "name": "autoRenewPeriod",
                      "type": "uint32"
                    }
                  ],
                  "internalType": "struct IHederaTokenService.Expiry",
                  "name": "expiry",
                  "type": "tuple"
                }
              ],
              "internalType": "struct IHederaTokenService.HederaToken",
              "name": "token",
              "type": "tuple"
            },
            {
              "internalType": "uint64",
              "name": "totalSupply",
              "type": "uint64"
            },
            {
              "internalType": "bool",
              "name": "deleted",
              "type": "bool"
            },
            {
              "internalType": "bool",
              "name": "defaultKycStatus",
              "type": "bool"
            },
            {
              "internalType": "bool",
              "name": "pauseStatus",
              "type": "bool"
            },
            {
              "components": [
                {
                  "internalType": "uint32",
                  "name": "amount",
                  "type": "uint32"
                },
                {
                  "internalType": "address",
                  "name": "tokenId",
                  "type": "address"
                },
                {
                  "internalType": "bool",
                  "name": "useHbarsForPayment",
                  "type": "bool"
                },
                {
                  "internalType": "bool",
                  "name": "useCurrentTokenForPayment",
                  "type": "bool"
                },
                {
                  "internalType": "address",
                  "name": "feeCollector",
                  "type": "address"
                }
              ],
              "internalType": "struct IHederaTokenService.FixedFee[]",
              "name": "fixedFees",
              "type": "tuple[]"
            },
            {
              "components": [
                {
                  "internalType": "uint32",
                  "name": "numerator",
                  "type": "uint32"
                },
                {
                  "internalType": "uint32",
                  "name": "denominator",
                  "type": "uint32"
                },
                {
                  "internalType": "uint32",
                  "name": "minimumAmount",
                  "type": "uint32"
                },
                {
                  "internalType": "uint32",
                  "name": "maximumAmount",
                  "type": "uint32"
                },
                {
                  "internalType": "bool",
                  "name": "netOfTransfers",
                  "type": "bool"
                },
                {
                  "internalType": "address",
                  "name": "feeCollector",
                  "type": "address"
                }
              ],
              "internalType": "struct IHederaTokenService.FractionalFee[]",
              "name": "fractionalFees",
              "type": "tuple[]"
            },
            {
              "components": [
                {
                  "internalType": "uint32",
                  "name": "numerator",
                  "type": "uint32"
                },
                {
                  "internalType": "uint32",
                  "name": "denominator",
                  "type": "uint32"
                },
                {
                  "internalType": "uint32",
                  "name": "amount",
                  "type": "uint32"
                },
                {
                  "internalType": "address",
                  "name": "tokenId",
                  "type": "address"
                },
                {
                  "internalType": "bool",
                  "name": "useHbarsForPayment",
                  "type": "bool"
                },
                {
                  "internalType": "address",
                  "name": "feeCollector",
                  "type": "address"
                }
              ],
              "internalType": "struct IHederaTokenService.RoyaltyFee[]",
              "name": "royaltyFees",
              "type": "tuple[]"
            },
            {
              "internalType": "string",
              "name": "ledgerId",
              "type": "string"
            }
          ],
          "internalType": "struct IHederaTokenService.TokenInfo",
          "name": "tokenInfo",
          "type": "tuple"
        }
      ],
      "stateMutability": "nonpayable",
      "type": "function"
    },
    {
      "inputs": [
        {
          "internalType": "address",
          "name": "token",
          "type": "address"
        },
        {
          "internalType": "address",
          "name": "owner",
          "type": "address"
        },
        {
          "internalType": "address",
          "name": "operator",
          "type": "address"
        }
      ],
      "name": "isApprovedForAllPublic",
      "outputs": [
        {
          "internalType": "int256",
          "name": "responseCode",
          "type": "int256"
        },
        {
          "internalType": "bool",
          "name": "approved",
          "type": "bool"
        }
      ],
      "stateMutability": "nonpayable",
      "type": "function"
    },
    {
      "inputs": [
        {
          "internalType": "address",
          "name": "token",
          "type": "address"
        },
        {
          "internalType": "address",
          "name": "account",
          "type": "address"
        }
      ],
      "name": "isFrozenPublic",
      "outputs": [
        {
          "internalType": "int256",
          "name": "responseCode",
          "type": "int256"
        },
        {
          "internalType": "bool",
          "name": "frozen",
          "type": "bool"
        }
      ],
      "stateMutability": "nonpayable",
      "type": "function"
    },
    {
      "inputs": [
        {
          "internalType": "address",
          "name": "token",
          "type": "address"
        },
        {
          "internalType": "uint64",
          "name": "amount",
          "type": "uint64"
        },
        {
          "internalType": "bytes[]",
          "name": "metadata",
          "type": "bytes[]"
        }
      ],
      "name": "mintTokenPublic",
      "outputs": [
        {
          "internalType": "int256",
          "name": "responseCode",
          "type": "int256"
        },
        {
          "internalType": "uint64",
          "name": "newTotalSupply",
          "type": "uint64"
        },
        {
          "internalType": "int64[]",
          "name": "serialNumbers",
          "type": "int64[]"
        }
      ],
      "stateMutability": "nonpayable",
      "type": "function"
    },
    {
      "inputs": [
        {
          "internalType": "address",
          "name": "token",
          "type": "address"
        }
      ],
      "name": "pauseToken",
      "outputs": [
        {
          "internalType": "int256",
          "name": "responseCode",
          "type": "int256"
        }
      ],
      "stateMutability": "nonpayable",
      "type": "function"
    },
    {
      "inputs": [
        {
          "internalType": "address",
          "name": "token",
          "type": "address"
        }
      ],
      "name": "pauseTokenPublic",
      "outputs": [
        {
          "internalType": "int256",
          "name": "responseCode",
          "type": "int256"
        }
      ],
      "stateMutability": "nonpayable",
      "type": "function"
    },
    {
      "inputs": [
        {
          "internalType": "address",
          "name": "token",
          "type": "address"
        },
        {
          "internalType": "address",
          "name": "operator",
          "type": "address"
        },
        {
          "internalType": "bool",
          "name": "approved",
          "type": "bool"
        }
      ],
      "name": "setApprovalForAllPublic",
      "outputs": [
        {
          "internalType": "int256",
          "name": "responseCode",
          "type": "int256"
        }
      ],
      "stateMutability": "nonpayable",
      "type": "function"
    },
    {
      "inputs": [
        {
          "internalType": "bool",
          "name": "newFreezeStatus",
          "type": "bool"
        }
      ],
      "name": "setFreezeDefaultStatus",
      "outputs": [],
      "stateMutability": "nonpayable",
      "type": "function"
    },
    {
      "inputs": [
        {
          "internalType": "address",
          "name": "token",
          "type": "address"
        },
        {
          "internalType": "address",
          "name": "sender",
          "type": "address"
        },
        {
          "internalType": "address",
          "name": "receiver",
          "type": "address"
        },
        {
          "internalType": "int64",
          "name": "serialNumber",
          "type": "int64"
        }
      ],
      "name": "transferNFTPublic",
      "outputs": [
        {
          "internalType": "int256",
          "name": "responseCode",
          "type": "int256"
        }
      ],
      "stateMutability": "nonpayable",
      "type": "function"
    },
    {
      "inputs": [
        {
          "internalType": "address",
          "name": "account",
          "type": "address"
        },
        {
          "internalType": "address",
          "name": "token",
          "type": "address"
        },
        {
          "internalType": "int64",
          "name": "amount",
          "type": "int64"
        }
      ],
      "name": "transferTokenPublic",
      "outputs": [
        {
          "internalType": "int256",
          "name": "responseCode",
          "type": "int256"
        }
      ],
      "stateMutability": "nonpayable",
      "type": "function"
    },
    {
      "inputs": [
        {
          "internalType": "address",
          "name": "token",
          "type": "address"
        },
        {
          "internalType": "address",
          "name": "account",
          "type": "address"
        }
      ],
      "name": "unfreezeTokenPublic",
      "outputs": [
        {
          "internalType": "int256",
          "name": "responseCode",
          "type": "int256"
        }
      ],
      "stateMutability": "nonpayable",
      "type": "function"
    },
    {
      "inputs": [
        {
          "internalType": "address",
          "name": "token",
          "type": "address"
        }
      ],
      "name": "unpauseToken",
      "outputs": [
        {
          "internalType": "int256",
          "name": "responseCode",
          "type": "int256"
        }
      ],
      "stateMutability": "nonpayable",
      "type": "function"
    },
    {
      "inputs": [
        {
          "internalType": "address",
          "name": "token",
          "type": "address"
        }
      ],
      "name": "unpauseTokenPublic",
      "outputs": [
        {
          "internalType": "int256",
          "name": "responseCode",
          "type": "int256"
        }
      ],
      "stateMutability": "nonpayable",
      "type": "function"
    },
    {
      "inputs": [
        {
          "internalType": "address",
          "name": "token",
          "type": "address"
        },
        {
          "internalType": "address",
          "name": "account",
          "type": "address"
        },
        {
          "internalType": "int64[]",
          "name": "serialNumbers",
          "type": "int64[]"
        }
      ],
      "name": "wipeTokenAccountNFTPublic",
      "outputs": [
        {
          "internalType": "int256",
          "name": "responseCode",
          "type": "int256"
        }
      ],
      "stateMutability": "nonpayable",
      "type": "function"
    },
    {
      "inputs": [
        {
          "internalType": "address",
          "name": "token",
          "type": "address"
        },
        {
          "internalType": "address",
          "name": "account",
          "type": "address"
        },
        {
          "internalType": "uint32",
          "name": "amount",
          "type": "uint32"
        }
      ],
      "name": "wipeTokenAccountPublic",
      "outputs": [
        {
          "internalType": "int256",
          "name": "responseCode",
          "type": "int256"
        }
      ],
      "stateMutability": "nonpayable",
      "type": "function"
    }
  ],
  "bytecode": "0x60c06040526009608081905268746f6b656e4e616d6560b81b60a09081526200002c9160019190620000cb565b5060408051808201909152600b8082526a1d1bdad95b94de5b589bdb60aa1b60209092019182526200006191600291620000cb565b50604080518082019091526004808252636d656d6f60e01b60209092019182526200008f91600391620000cb565b506103e860048190556005805463ffffffff1916909117905560086006556007805460ff19169055348015620000c457600080fd5b50620001ae565b828054620000d99062000171565b90600052602060002090601f016020900481019282620000fd576000855562000148565b82601f106200011857805160ff191683800117855562000148565b8280016001018555821562000148579182015b82811115620001485782518255916020019190600101906200012b565b50620001569291506200015a565b5090565b5b808211156200015657600081556001016200015b565b600181811c908216806200018657607f821691505b60208210811415620001a857634e487b7160e01b600052602260045260246000fd5b50919050565b614cce80620001be6000396000f3fe6080604052600436106101b75760003560e01c80637c41ad2c116100ec578063ec855c311161008a578063f4a01e5b11610064578063f4a01e5b1461053a578063f7be34251461055a578063f848fec41461057a578063f9e978bd1461059a57600080fd5b8063ec855c31146104cc578063f25b1200146104ec578063f2f38a741461050c57600080fd5b806386f88d88116100c657806386f88d88146104665780638ba74da014610486578063d85f74c114610499578063d92ac248146104ac57600080fd5b80637c41ad2c146103f75780637d3e5da8146104175780638070905f1461043757600080fd5b80634cbdb37b116101595780635b9076b7116101335780635b9076b71461035957806369837dc2146103895780636a4dde21146103b75780636da6b1f0146103d757600080fd5b80634cbdb37b146102d657806356af8403146103045780635a5e6c311461032457600080fd5b80632d73bb2e116101955780632d73bb2e146102615780633b3bff0f146102815780633eed2c39146102a15780634b5c6687146102c157600080fd5b806313c05dd8146101bc57806319db44b6146101f65780632b256ec814610233575b600080fd5b3480156101c857600080fd5b506101dc6101d73660046131f5565b6105ba565b604080519283529015156020830152015b60405180910390f35b34801561020257600080fd5b50610216610211366004613240565b610638565b604080519283526001600160a01b039091166020830152016101ed565b34801561023f57600080fd5b5061025361024e36600461326c565b6106bc565b6040519081526020016101ed565b34801561026d57600080fd5b5061025361027c366004613289565b6107a8565b34801561028d57600080fd5b5061025361029c36600461326c565b6107f3565b3480156102ad57600080fd5b506101dc6102bc36600461326c565b6108cd565b6102d46102cf36600461326c565b610947565b005b3480156102e257600080fd5b506102f66102f13660046132d1565b610cce565b6040516101ed9291906137fa565b34801561031057600080fd5b5061025361031f366004613911565b610d44565b34801561033057600080fd5b5061034461033f3660046131f5565b610d8e565b604080519283526020830191909152016101ed565b34801561036557600080fd5b5061037961037436600461326c565b610dff565b6040516101ed94939291906139d7565b34801561039557600080fd5b506103a96103a436600461326c565b610e91565b6040516101ed929190613a53565b3480156103c357600080fd5b506101dc6103d2366004613289565b610f06565b3480156103e357600080fd5b506102536103f2366004613a6c565b610f7d565b34801561040357600080fd5b5061025361041236600461326c565b610fc9565b34801561042357600080fd5b50610253610432366004613289565b610ff7565b34801561044357600080fd5b50610457610452366004613b06565b611003565b6040516101ed93929190613c4f565b34801561047257600080fd5b506101dc61048136600461326c565b61108b565b6102d4610494366004613289565b6110fc565b6102d46104a736600461326c565b61158e565b3480156104b857600080fd5b506102536104c7366004613c93565b6118ed565b3480156104d857600080fd5b506102536104e7366004613cd3565b6118fa565b3480156104f857600080fd5b50610253610507366004613d21565b611ad1565b34801561051857600080fd5b5061052c61052736600461326c565b611ade565b6040516101ed929190613d61565b34801561054657600080fd5b50610253610555366004613289565b611b53565b34801561056657600080fd5b5061025361057536600461326c565b611b80565b34801561058657600080fd5b50610253610595366004613d7a565b611c63565b3480156105a657600080fd5b506102d46105b5366004613dbb565b611c70565b6000806105c8858585611cbd565b6040518281529193509150600080516020614c798339815191529060200160405180910390a1601682146105fb57600080fd5b60405181151581527e1c2e72360171244b3bb8cc8ddd767820edf37138ad6f129fb3574b407c307d906020015b60405180910390a1935093915050565b6000806106458484611dbc565b6040518281529193509150600080516020614c798339815191529060200160405180910390a16016821461067857600080fd5b6040516001600160a01b03821681527fc2c78c7c31baf14949e75c51df12be56edb9af523cf82839c2869bbcf13b3ecb906020015b60405180910390a19250929050565b604051631f106b4b60e21b81526001600160a01b03821660048201526000903090637c41ad2c90602401602060405180830381600087803b15801561070057600080fd5b505af1158015610714573d6000803e3d6000fd5b505050506040513d601f19601f820116820180604052508101906107389190613dd8565b9050600080516020614c798339815191528160405161075991815260200190565b60405180910390a16016811461076e57600080fd5b604051600181527f0c9c765845f4d139956bb8fc8decb2eec6093c9c608b809641b16054b29f0e13906020015b60405180910390a1919050565b60006107b48383611eae565b60070b9050600080516020614c79833981519152816040516107d891815260200190565b60405180910390a1601681146107ed57600080fd5b92915050565b6040516001600160a01b03821660248201526000908190819061016790633b3bff0f60e01b906044015b60408051601f198184030181529181526020820180516001600160e01b03166001600160e01b031990941693909317909252905161085b9190613df1565b6000604051808303816000865af19150503d8060008114610898576040519150601f19603f3d011682016040523d82523d6000602084013e61089d565b606091505b5091509150816108ae5760156108c2565b808060200190518101906108c29190613e24565b60030b949350505050565b6000806108d983611faa565b6040518281529193509150600080516020614c798339815191529060200160405180910390a16016821461090c57600080fd5b60405181151581527f6b7f3306751292f85ab4161ee2b0ac16dfc8ded13e6446ce6bd859d0a2f4c78e906020015b60405180910390a1915091565b60408051600380825260808201909252600091816020015b610967613067565b81526020019060019003908161095f57905050905061099a600060066001604051806020016040528060008152506120a7565b816000815181106109ad576109ad613e3f565b60200260200101819052506109d460026001604051806020016040528060008152506120de565b816001815181106109e7576109e7613e3f565b6020026020010181905250610a0e60036001604051806020016040528060008152506120de565b81600281518110610a2157610a21613e3f565b602002602001018190525060006040518060600160405280600063ffffffff168152602001846001600160a01b03168152602001627a120063ffffffff168152509050600060405180610120016040528060018054610a7f90613e55565b80601f0160208091040260200160405190810160405280929190818152602001828054610aab90613e55565b8015610af85780601f10610acd57610100808354040283529160200191610af8565b820191906000526020600020905b815481529060010190602001808311610adb57829003601f168201915b5050505050815260200160028054610b0f90613e55565b80601f0160208091040260200160405190810160405280929190818152602001828054610b3b90613e55565b8015610b885780601f10610b5d57610100808354040283529160200191610b88565b820191906000526020600020905b815481529060010190602001808311610b6b57829003601f168201915b50505050508152602001856001600160a01b0316815260200160038054610bae90613e55565b80601f0160208091040260200160405190810160405280929190818152602001828054610bda90613e55565b8015610c275780601f10610bfc57610100808354040283529160200191610c27565b820191906000526020600020905b815481529060010190602001808311610c0a57829003601f168201915b50505091835250506001602082015260055463ffffffff16604082015260075460ff16151560608201526080810185905260a0018390526004546006549192506000918291610c7891859190612113565b909250905060168214610c8a57600080fd5b6040516001600160a01b03821681527f7bb17726df1f3adee8aa00ba8e8bc5d6f182af3bbf77604639cb7f008dd3b4ed9060200160405180910390a1505050505050565b6000610cd86130c4565b610ce28484612241565b6040518281529193509150600080516020614c798339815191529060200160405180910390a160168214610d1557600080fd5b7fa516f81c528634d0fc1e993bba1d227231b4bd6d1beb72d33b056a6199c0f988816040516106ad9190613e90565b6000610d51848484612334565b9050600080516020614c7983398151915281604051610d7291815260200190565b60405180910390a160168114610d8757600080fd5b9392505050565b600080610d9c858585612414565b6040518281529193509150600080516020614c798339815191529060200160405180910390a160168214610dcf57600080fd5b6040518181527f25b6684a7e8fe1b676e9c39c8dd65034fbafea906d3bdfd97bf748b7b55e14c890602001610628565b60006060806060610e0f85612500565b604051600785900b815293975091955093509150600080516020614c798339815191529060200160405180910390a1600784900b601614610e4f57600080fd5b7f2efc8334b040613a552197fe34283d6ca2909c8ffae393e128424931f20c69b3838383604051610e8293929190613ea3565b60405180910390a19193509193565b6000610e9b6130ff565b610ea483612600565b6040518281529193509150600080516020614c798339815191529060200160405180910390a160168214610ed757600080fd5b7f476a9a9b28e2717d55288b2ae3c48a72aac52b11f8bd855017c9d41d9fc189648160405161093a9190613edc565b600080610f1384846126e9565b60405160079290920b80835293509150600080516020614c798339815191529060200160405180910390a160168214610f4b57600080fd5b60405181151581527f59800d968fcce138300a0019410b4b75041610d65b3cdc5f31656b03ed14912e906020016106ad565b6000610f8b858585856127cd565b9050600080516020614c7983398151915281604051610fac91815260200190565b60405180910390a160168114610fc157600080fd5b949350505050565b6040516001600160a01b03821660248201526000908190819061016790631f106b4b60e21b9060440161081d565b60006107b483836128ce565b600080606061101386868661291d565b6040518381529295509093509150600080516020614c798339815191529060200160405180910390a16016831461104957600080fd5b7feff23992f47b3c101679f8b4dc9d3e242c903909dba4a453f2b2341ad463b0e2828260405161107a929190613eef565b60405180910390a193509350939050565b60008061109783612a1b565b6040518281529193509150600080516020614c798339815191529060200160405180910390a1601682146110ca57600080fd5b60405181151581527f9ee19e13dfa1ba8db2502e15ff56dbecdeb0e0473323fb195473ce648030a2cd9060200161093a565b604080516001808252818301909252600091816020015b61111b613067565b81526020019060019003908161111357905050905061114d6000806001604051806020016040528060008152506120a7565b8160008151811061116057611160613e3f565b602002602001018190525060006040518060600160405280600063ffffffff168152602001856001600160a01b03168152602001627a120063ffffffff1681525090506000604051806101200160405280600180546111be90613e55565b80601f01602080910402602001604051908101604052809291908181526020018280546111ea90613e55565b80156112375780601f1061120c57610100808354040283529160200191611237565b820191906000526020600020905b81548152906001019060200180831161121a57829003601f168201915b505050505081526020016002805461124e90613e55565b80601f016020809104026020016040519081016040528092919081815260200182805461127a90613e55565b80156112c75780601f1061129c576101008083540402835291602001916112c7565b820191906000526020600020905b8154815290600101906020018083116112aa57829003601f168201915b50505050508152602001866001600160a01b03168152602001600380546112ed90613e55565b80601f016020809104026020016040519081016040528092919081815260200182805461131990613e55565b80156113665780601f1061133b57610100808354040283529160200191611366565b820191906000526020600020905b81548152906001019060200180831161134957829003601f168201915b505050918352505060016020820181905260055463ffffffff166040808401919091526000606084018190526080840188905260a09093018690528051828152808201909152929350909190816020015b6040805160a0810182526000808252602080830182905292820181905260608201819052608082015282526000199092019101816113b75750506040805160a081018252600181526001600160a01b0388811660208301526000928201839052606082018390528916608082015282519293509183919061143a5761143a613e3f565b6020908102919091010152604080516001808252818301909252600091816020015b6040805160c08101825260008082526020808301829052928201819052606082018190526080820181905260a0820152825260001990920191018161145c5750506040805160c0810182526004815260056020820152600a91810191909152601e60608201526000608082018190526001600160a01b038a1660a0830152825192935090918391906114f0576114f0613e3f565b602002602001018190525060008061150f856004546006548787612a64565b91509150600080516020614c798339815191528260405161153291815260200190565b60405180910390a16016821461154757600080fd5b6040516001600160a01b03821681527f7bb17726df1f3adee8aa00ba8e8bc5d6f182af3bbf77604639cb7f008dd3b4ed9060200160405180910390a1505050505050505050565b60408051600480825260a08201909252600091816020015b6115ae613067565b8152602001906001900390816115a65790505090506115e1600060066001604051806020016040528060008152506120a7565b816000815181106115f4576115f4613e3f565b602002602001018190525061161b60046001604051806020016040528060008152506120de565b8160018151811061162e5761162e613e3f565b602002602001018190525061165560026001604051806020016040528060008152506120de565b8160028151811061166857611668613e3f565b602002602001018190525061168f60036001604051806020016040528060008152506120de565b816003815181106116a2576116a2613e3f565b602002602001018190525060006040518060600160405280600063ffffffff168152602001846001600160a01b03168152602001627a120063ffffffff16815250905060006040518061012001604052806001805461170090613e55565b80601f016020809104026020016040519081016040528092919081815260200182805461172c90613e55565b80156117795780601f1061174e57610100808354040283529160200191611779565b820191906000526020600020905b81548152906001019060200180831161175c57829003601f168201915b505050505081526020016002805461179090613e55565b80601f01602080910402602001604051908101604052809291908181526020018280546117bc90613e55565b80156118095780601f106117de57610100808354040283529160200191611809565b820191906000526020600020905b8154815290600101906020018083116117ec57829003601f168201915b50505050508152602001856001600160a01b031681526020016003805461182f90613e55565b80601f016020809104026020016040519081016040528092919081815260200182805461185b90613e55565b80156118a85780601f1061187d576101008083540402835291602001916118a8565b820191906000526020600020905b81548152906001019060200180831161188b57829003601f168201915b50505091835250506001602082015260055463ffffffff16604082015260075460ff16151560608201526080810185905260a0018390529050600080610c7883612b98565b6000610d51848484612c82565b6040805160008082526020820190925281908161193f565b60408051606081018252600080825260208083018290529282015282526000199092019101816119125790505b50905060006040518060400160405280336001600160a01b031681526020018561196890613f12565b600790810b9091526040805180820182526001600160a01b038a1681529187900b602083015280516002808252606082019092529293509091600091816020015b60408051808201909152600080825260208201528152602001906001900390816119a957905050905082816000815181106119e6576119e6613e3f565b60200260200101819052508181600181518110611a0557611a05613e3f565b602090810291909101810191909152604080516060810182526001600160a01b038a16815291820183905281810186905280516001808252818301909252600091816020015b611a78604051806060016040528060006001600160a01b0316815260200160608152602001606081525090565b815260200190600190039081611a4b5790505090508181600081518110611aa157611aa1613e3f565b6020026020010181905250611ab581612cdd565b965060168714611ac457600080fd5b5050505050509392505050565b6000610d51848484612d07565b6000611ae861311f565b611af183612d5e565b6040518281529193509150600080516020614c798339815191529060200160405180910390a160168214611b2457600080fd5b7f528c7dcea75f0c9e110a038e50647cd6a70ac06d331399b77dd9a80f903ebc168160405161093a9190613f48565b6000611b5f8383612e47565b9050600080516020614c79833981519152816040516107d891815260200190565b604051633b3bff0f60e01b81526001600160a01b03821660048201526000903090633b3bff0f90602401602060405180830381600087803b158015611bc457600080fd5b505af1158015611bd8573d6000803e3d6000fd5b505050506040513d601f19601f82011682018060405250810190611bfc9190613dd8565b9050600080516020614c7983398151915281604051611c1d91815260200190565b60405180910390a160168114611c3257600080fd5b604051600181527f319ab7084208e4afa38c6e6ff7aea9587439f2e4700746f4c7d425fea17426d29060200161079b565b6000610d51848484612e96565b6007805460ff191682151590811790915560405160ff909116151581527f457c3a16a0ebdc38e3675609957ca3fcc4490e220bd15d85d34f58e2e145cb089060200160405180910390a150565b604080516001600160a01b0385811660248301528481166044830152831660648083019190915282518083039091018152608490910182526020810180516001600160e01b03167ff49f40db00000000000000000000000000000000000000000000000000000000179052905160009182918291829161016791611d4091613df1565b6000604051808303816000865af19150503d8060008114611d7d576040519150601f19603f3d011682016040523d82523d6000602084013e611d82565b606091505b509150915081611d955760156000611da9565b80806020019051810190611da99190613f66565b60039190910b9890975095505050505050565b604080516001600160a01b0384166024820152604480820184905282518083039091018152606490910182526020810180516001600160e01b03167f098f236600000000000000000000000000000000000000000000000000000000179052905160009182918291829161016791611e3391613df1565b6000604051808303816000865af19150503d8060008114611e70576040519150601f19603f3d011682016040523d82523d6000602084013e611e75565b606091505b509150915081611e885760156000611e9c565b80806020019051810190611e9c9190613f92565b60039190910b97909650945050505050565b6040516001600160a01b0383811660248301528216604482015260009081908190610167907f52f9138700000000000000000000000000000000000000000000000000000000906064015b60408051601f198184030181529181526020820180516001600160e01b03166001600160e01b0319909416939093179092529051611f379190613df1565b6000604051808303816000865af19150503d8060008114611f74576040519150601f19603f3d011682016040523d82523d6000602084013e611f79565b606091505b509150915081611f8a576015611f9e565b80806020019051810190611f9e9190613e24565b60030b95945050505050565b6040516001600160a01b0382166024820152600090819081908190610167907fa7daa18d00000000000000000000000000000000000000000000000000000000906044015b60408051601f198184030181529181526020820180516001600160e01b03166001600160e01b031990941693909317909252905161202d9190613df1565b6000604051808303816000865af19150503d806000811461206a576040519150601f19603f3d011682016040523d82523d6000602084013e61206f565b606091505b5091509150816120825760156000612096565b808060200190518101906120969190613f66565b60039190910b969095509350505050565b6120af613067565b60405180604001604052806120c48787612eec565b81526020016120d38585612f05565b905295945050505050565b6120e6613067565b60405180604001604052806120fa86612fd5565b81526020016121098585612f05565b9052949350505050565b600080848061010001516000015163ffffffff16600014801561214357506101008101516040015163ffffffff16155b15612159576101008101516276a7006040909101525b6000806101676001600160a01b031634637812a04b60e01b8a8a8a60405160240161218693929190613fbe565b60408051601f198184030181529181526020820180516001600160e01b03166001600160e01b03199094169390931790925290516121c49190613df1565b60006040518083038185875af1925050503d8060008114612201576040519150601f19603f3d011682016040523d82523d6000602084013e612206565b606091505b509150915081612219576015600061222d565b8080602001905181019061222d9190613f92565b60039190910b999098509650505050505050565b600061224b6130c4565b604080516001600160a01b0386166024820152600785900b60448083019190915282518083039091018152606490910182526020810180516001600160e01b03167f287e1da80000000000000000000000000000000000000000000000000000000017905290516000918291610167916122c491613df1565b6000604051808303816000865af19150503d8060008114612301576040519150601f19603f3d011682016040523d82523d6000602084013e612306565b606091505b50915091506123136130c4565b8261232057601581611da9565b81806020019051810190611da991906146e1565b60008060006101676001600160a01b031663f7f38e2660e01b878787604051602401612362939291906147c9565b60408051601f198184030181529181526020820180516001600160e01b03166001600160e01b03199094169390931790925290516123a09190613df1565b6000604051808303816000865af19150503d80600081146123dd576040519150601f19603f3d011682016040523d82523d6000602084013e6123e2565b606091505b5091509150816123f3576015612407565b808060200190518101906124079190613e24565b60030b9695505050505050565b604080516001600160a01b0385811660248301528481166044830152831660648083019190915282518083039091018152608490910182526020810180516001600160e01b03167f927da1050000000000000000000000000000000000000000000000000000000017905290516000918291829182916101679161249791613df1565b6000604051808303816000865af19150503d80600081146124d4576040519150601f19603f3d011682016040523d82523d6000602084013e6124d9565b606091505b5091509150816124ec5760156000611da9565b80806020019051810190611da991906147f5565b604080516001600160a01b03831660248083019190915282518083039091018152604490910182526020810180516001600160e01b03167fae7611a000000000000000000000000000000000000000000000000000000000179052905160009160609182918291859182916101679161257891613df1565b6000604051808303816000865af19150503d80600081146125b5576040519150601f19603f3d011682016040523d82523d6000602084013e6125ba565b606091505b50915091506060806060846125d35760158383836125e7565b838060200190518101906125e79190614821565b60039390930b9d919c509a509098509650505050505050565b600061260a6130ff565b604080516001600160a01b03851660248083019190915282518083039091018152604490910182526020810180516001600160e01b03167f3f28a19b00000000000000000000000000000000000000000000000000000000179052905160009182916101679161267991613df1565b6000604051808303816000865af19150503d80600081146126b6576040519150601f19603f3d011682016040523d82523d6000602084013e6126bb565b606091505b50915091506126c86130ff565b826126d557601581611e9c565b81806020019051810190611e9c91906148ba565b604080516001600160a01b038481166024830152831660448083019190915282518083039091018152606490910182526020810180516001600160e01b03167f46de0fb10000000000000000000000000000000000000000000000000000000017905290516000918291829182916101679161276491613df1565b6000604051808303816000865af19150503d80600081146127a1576040519150601f19603f3d011682016040523d82523d6000602084013e6127a6565b606091505b5091509150816127b95760156000611e9c565b80806020019051810190611e9c9190613f66565b604080516001600160a01b038681166024830152858116604483015284166064820152600783900b6084808301919091528251808303909101815260a490910182526020810180516001600160e01b03167f5cfc901100000000000000000000000000000000000000000000000000000000179052905160009182918291610167916128599190613df1565b6000604051808303816000865af19150503d8060008114612896576040519150601f19603f3d011682016040523d82523d6000602084013e61289b565b606091505b5091509150816128ac5760156128c0565b808060200190518101906128c09190613e24565b60030b979650505050505050565b6040516001600160a01b0383811660248301528216604482015260009081908190610167907f5b8f85840000000000000000000000000000000000000000000000000000000090606401611ef9565b60008060606000806101676001600160a01b031663278e0b8860e01b89898960405160240161294e93929190614966565b60408051601f198184030181529181526020820180516001600160e01b03166001600160e01b031990941693909317909252905161298c9190613df1565b6000604051808303816000865af19150503d80600081146129c9576040519150601f19603f3d011682016040523d82523d6000602084013e6129ce565b606091505b5091509150816129f1576040805160008082526020820190925260159190612a05565b80806020019051810190612a0591906149ea565b60039290920b9a90995090975095505050505050565b6040516001600160a01b0382166024820152600090819081908190610167907f335e04c10000000000000000000000000000000000000000000000000000000090604401611fef565b600080868061010001516000015163ffffffff166000148015612a9457506101008101516040015163ffffffff16155b15612aaa576101008101516276a7006040909101525b6000806101676001600160a01b031634634c381ae760e01b8c8c8c8c8c604051602401612adb959493929190614a9b565b60408051601f198184030181529181526020820180516001600160e01b03166001600160e01b0319909416939093179092529051612b199190613df1565b60006040518083038185875af1925050503d8060008114612b56576040519150601f19603f3d011682016040523d82523d6000602084013e612b5b565b606091505b509150915081612b6e5760156000612b82565b80806020019051810190612b829190613f92565b60039190910b9b909a5098505050505050505050565b600080828061010001516000015163ffffffff166000148015612bc857506101008101516040015163ffffffff16155b15612bde576101008101516276a7006040909101525b6000806101676001600160a01b031634639dc711e060e01b88604051602401612c079190614aec565b60408051601f198184030181529181526020820180516001600160e01b03166001600160e01b0319909416939093179092529051612c459190613df1565b60006040518083038185875af1925050503d8060008114611e70576040519150601f19603f3d011682016040523d82523d6000602084013e611e75565b6040516001600160a01b0384811660248301528316604482015263ffffffff8216606482015260009081908190610167907f9790686d0000000000000000000000000000000000000000000000000000000090608401612362565b60008060006101676001600160a01b031663189a554c60e01b8560405160240161081d9190614b54565b6040516001600160a01b03848116602483015283166044820152811515606482015260009081908190610167907f367605ca0000000000000000000000000000000000000000000000000000000090608401612362565b6000612d6861311f565b604080516001600160a01b03851660248083019190915282518083039091018152604490910182526020810180516001600160e01b03167f1f69565f000000000000000000000000000000000000000000000000000000001790529051600091829161016791612dd791613df1565b6000604051808303816000865af19150503d8060008114612e14576040519150601f19603f3d011682016040523d82523d6000602084013e612e19565b606091505b5091509150612e2661311f565b82612e3357601581611e9c565b81806020019051810190611e9c9190614c2a565b6040516001600160a01b0383811660248301528216604482015260009081908190610167907f49146bde0000000000000000000000000000000000000000000000000000000090606401611ef9565b6040516001600160a01b038481166024830152831660448201526064810182905260009081908190610167907fe1f21c670000000000000000000000000000000000000000000000000000000090608401612362565b6000600160ff84161b9050600160ff83161b8117610d87565b612f4b6040518060a0016040528060001515815260200160006001600160a01b03168152602001606081526020016060815260200160006001600160a01b031681525090565b8260ff1660011415612f6057600181526107ed565b8260ff1660021415612f82576000546001600160a01b031660208201526107ed565b8260ff1660031415612f9a57604081018290526107ed565b8260ff1660041415612fb257606081018290526107ed565b8260ff16600514156107ed576000546001600160a01b0316608082015292915050565b600060ff8216612fe757506001919050565b8160ff1660011415612ffb57506002919050565b8160ff166002141561300f57506004919050565b8160ff166003141561302357506008919050565b8160ff166004141561303757506010919050565b8160ff166005141561304b57506020919050565b8160ff166006141561305f57506040919050565b506000919050565b6040518060400160405280600081526020016130bf6040518060a0016040528060001515815260200160006001600160a01b03168152602001606081526020016060815260200160006001600160a01b031681525090565b905290565b6040518060c001604052806130d761311f565b8152600060208201819052604082018190526060808301829052608083015260a09091015290565b604051806040016040528061311261311f565b8152600060209091015290565b60408051610240810182526060610120820181815261014083018290526000610160840181905261018084018390526101a084018190526101c084018190526101e0840181905261020084018390528451928301855280835260208301819052938201939093526102208201529081908152602001600067ffffffffffffffff168152602001600015158152602001600015158152602001600015158152602001606081526020016060815260200160608152602001606081525090565b6001600160a01b03811681146131f257600080fd5b50565b60008060006060848603121561320a57600080fd5b8335613215816131dd565b92506020840135613225816131dd565b91506040840135613235816131dd565b809150509250925092565b6000806040838503121561325357600080fd5b823561325e816131dd565b946020939093013593505050565b60006020828403121561327e57600080fd5b8135610d87816131dd565b6000806040838503121561329c57600080fd5b82356132a7816131dd565b915060208301356132b7816131dd565b809150509250929050565b8060070b81146131f257600080fd5b600080604083850312156132e457600080fd5b82356132ef816131dd565b915060208301356132b7816132c2565b60005b8381101561331a578181015183820152602001613302565b83811115613329576000848401525b50505050565b600081518084526133478160208601602086016132ff565b601f01601f19169290920160200192915050565b600082825180855260208086019550808260051b84010181860160005b8481101561341557601f198684030189528151604081518552858201519150808686015281511515818601528582015160606001600160a01b038083168289015283850151935060a09250608083818a01526133d760e08a018661332f565b92860151898403603f1901858b01529294506133f3858461332f565b9501511660c09790970196909652505098840198925090830190600101613378565b5090979650505050505050565b600061016082518185526134388286018261332f565b91505060208301518482036020860152613452828261332f565b915050604083015161346f60408601826001600160a01b03169052565b5060608301518482036060860152613487828261332f565b915050608083015161349d608086018215159052565b5060a08301516134b560a086018263ffffffff169052565b5060c08301516134c960c086018215159052565b5060e083015184820360e08601526134e1828261335b565b61010085810151805163ffffffff9081168984015260208201516001600160a01b03166101208a015260408201511661014089015291935091505090949350505050565b600081518084526020808501945080840160005b83811015613595578151805163ffffffff168852838101516001600160a01b03908116858a01526040808301511515908a01526060808301511515908a0152608091820151169088015260a09096019590820190600101613539565b509495945050505050565b600081518084526020808501945080840160005b83811015613595578151805163ffffffff9081168952848201518116858a01526040808301518216908a01526060808301519091169089015260808082015115159089015260a0908101516001600160a01b03169088015260c090960195908201906001016135b4565b600081518084526020808501945080840160005b83811015613595578151805163ffffffff9081168952848201518116858a0152604080830151909116908901526060808201516001600160a01b03908116918a01919091526080808301511515908a015260a091820151169088015260c09096019590820190600101613632565b600061012082518185526136b682860182613422565b91505060208301516136d4602086018267ffffffffffffffff169052565b5060408301516136e8604086018215159052565b5060608301516136fc606086018215159052565b506080830151613710608086018215159052565b5060a083015184820360a08601526137288282613525565b91505060c083015184820360c086015261374282826135a0565b91505060e083015184820360e086015261375c828261361e565b9150506101008084015185830382870152613777838261332f565b9695505050505050565b6000815160c0845261379660c08501826136a0565b9050602083015160070b602085015260408301516001600160a01b038082166040870152606085015160070b60608701526080850151915085830360808701526137e0838361332f565b92508060a08601511660a087015250508091505092915050565b828152604060208201526000610fc16040830184613781565b634e487b7160e01b600052604160045260246000fd5b6040805190810167ffffffffffffffff8111828210171561384c5761384c613813565b60405290565b60405160a0810167ffffffffffffffff8111828210171561384c5761384c613813565b604051610120810167ffffffffffffffff8111828210171561384c5761384c613813565b60405160c0810167ffffffffffffffff8111828210171561384c5761384c613813565b604051601f8201601f1916810167ffffffffffffffff811182821017156138e5576138e5613813565b604052919050565b600067ffffffffffffffff82111561390757613907613813565b5060051b60200190565b60008060006060848603121561392657600080fd5b8335613931816131dd565b9250602084810135613942816131dd565b9250604085013567ffffffffffffffff81111561395e57600080fd5b8501601f8101871361396f57600080fd5b803561398261397d826138ed565b6138bc565b81815260059190911b820183019083810190898311156139a157600080fd5b928401925b828410156139c85783356139b9816132c2565b825292840192908401906139a6565b80955050505050509250925092565b8460070b81526080602082015260006139f36080830186613525565b8281036040840152613a0581866135a0565b90508281036060840152613a19818561361e565b979650505050505050565b6000815160408452613a3960408501826136a0565b60209384015163ffffffff16949093019390935250919050565b828152604060208201526000610fc16040830184613a24565b60008060008060808587031215613a8257600080fd5b8435613a8d816131dd565b93506020850135613a9d816131dd565b92506040850135613aad816131dd565b91506060850135613abd816132c2565b939692955090935050565b67ffffffffffffffff811681146131f257600080fd5b600067ffffffffffffffff821115613af857613af8613813565b50601f01601f191660200190565b600080600060608486031215613b1b57600080fd5b8335613b26816131dd565b9250602084810135613b3781613ac8565b925060408581013567ffffffffffffffff80821115613b5557600080fd5b818801915088601f830112613b6957600080fd5b8135613b7761397d826138ed565b81815260059190911b8301850190858101908b831115613b9657600080fd5b8685015b83811015613c0a57803585811115613bb25760008081fd5b8601603f81018e13613bc45760008081fd5b88810135613bd461397d82613ade565b8181528f8a838501011115613be95760008081fd5b818a84018c83013760009181018b0191909152845250918701918701613b9a565b50809750505050505050509250925092565b600081518084526020808501945080840160005b8381101561359557815160070b87529582019590820190600101613c30565b83815267ffffffffffffffff83166020820152606060408201526000613c786060830184613c1c565b95945050505050565b63ffffffff811681146131f257600080fd5b600080600060608486031215613ca857600080fd5b8335613cb3816131dd565b92506020840135613cc3816131dd565b9150604084013561323581613c81565b600080600060608486031215613ce857600080fd5b8335613cf3816131dd565b92506020840135613d03816131dd565b91506040840135613235816132c2565b80151581146131f257600080fd5b600080600060608486031215613d3657600080fd5b8335613d41816131dd565b92506020840135613d51816131dd565b9150604084013561323581613d13565b828152604060208201526000610fc160408301846136a0565b600080600060608486031215613d8f57600080fd5b8335613d9a816131dd565b92506020840135613daa816131dd565b929592945050506040919091013590565b600060208284031215613dcd57600080fd5b8135610d8781613d13565b600060208284031215613dea57600080fd5b5051919050565b60008251613e038184602087016132ff565b9190910192915050565b8051600381900b8114613e1f57600080fd5b919050565b600060208284031215613e3657600080fd5b610d8782613e0d565b634e487b7160e01b600052603260045260246000fd5b600181811c90821680613e6957607f821691505b60208210811415613e8a57634e487b7160e01b600052602260045260246000fd5b50919050565b602081526000610d876020830184613781565b606081526000613eb66060830186613525565b8281036020840152613ec881866135a0565b90508281036040840152613777818561361e565b602081526000610d876020830184613a24565b67ffffffffffffffff83168152604060208201526000610fc16040830184613c1c565b60008160070b677fffffffffffffff19811415613f3f57634e487b7160e01b600052601160045260246000fd5b60000392915050565b602081526000610d8760208301846136a0565b8051613e1f81613d13565b60008060408385031215613f7957600080fd5b613f8283613e0d565b915060208301516132b781613d13565b60008060408385031215613fa557600080fd5b613fae83613e0d565b915060208301516132b7816131dd565b606081526000613fd16060830186613422565b60208301949094525060400152919050565b600082601f830112613ff457600080fd5b815161400261397d82613ade565b81815284602083860101111561401757600080fd5b610fc18260208301602087016132ff565b8051613e1f816131dd565b8051613e1f81613c81565b600082601f83011261404f57600080fd5b8151602061405f61397d836138ed565b82815260059290921b8401810191818101908684111561407e57600080fd5b8286015b8481101561419457805167ffffffffffffffff808211156140a257600080fd5b908801906040601f19838c0381018213156140bc57600080fd5b6140c4613829565b88850151815282850151848111156140db57600080fd5b949094019360a0858e03830112156140f35760008081fd5b6140fb613852565b91508885015161410a81613d13565b825284830151614119816131dd565b828a0152606085810151858111156141315760008081fd5b61413f8f8c838a0101613fe3565b858501525060809350838601518581111561415a5760008081fd5b6141688f8c838a0101613fe3565b82850152505061417a60a08601614028565b928201929092528188015285525050918301918301614082565b509695505050505050565b6000606082840312156141b157600080fd5b6040516060810181811067ffffffffffffffff821117156141d4576141d4613813565b806040525080915082516141e781613c81565b815260208301516141f7816131dd565b6020820152604083015161420a81613c81565b6040919091015292915050565b6000610160828403121561422a57600080fd5b614232613875565b9050815167ffffffffffffffff8082111561424c57600080fd5b61425885838601613fe3565b8352602084015191508082111561426e57600080fd5b61427a85838601613fe3565b602084015261428b60408501614028565b604084015260608401519150808211156142a457600080fd5b6142b085838601613fe3565b60608401526142c160808501613f5b565b60808401526142d260a08501614033565b60a08401526142e360c08501613f5b565b60c084015260e08401519150808211156142fc57600080fd5b506143098482850161403e565b60e08301525061010061431e8482850161419f565b9082015292915050565b8051613e1f81613ac8565b600082601f83011261434457600080fd5b8151602061435461397d836138ed565b82815260a0928302850182019282820191908785111561437357600080fd5b8387015b858110156134155781818a03121561438f5760008081fd5b614397613852565b81516143a281613c81565b8152818601516143b1816131dd565b818701526040828101516143c481613d13565b908201526060828101516143d781613d13565b908201526080828101516143ea816131dd565b908201528452928401928101614377565b600082601f83011261440c57600080fd5b8151602061441c61397d836138ed565b82815260c0928302850182019282820191908785111561443b57600080fd5b8387015b858110156134155781818a0312156144575760008081fd5b61445f613899565b815161446a81613c81565b81528186015161447981613c81565b8187015260408281015161448c81613c81565b9082015260608281015161449f81613c81565b908201526080828101516144b281613d13565b9082015260a0828101516144c5816131dd565b90820152845292840192810161443f565b600082601f8301126144e757600080fd5b815160206144f761397d836138ed565b82815260c0928302850182019282820191908785111561451657600080fd5b8387015b858110156134155781818a0312156145325760008081fd5b61453a613899565b815161454581613c81565b81528186015161455481613c81565b8187015260408281015161456781613c81565b9082015260608281015161457a816131dd565b9082015260808281015161458d81613d13565b9082015260a0828101516145a0816131dd565b90820152845292840192810161451a565b600061012082840312156145c457600080fd5b6145cc613875565b9050815167ffffffffffffffff808211156145e657600080fd5b6145f285838601614217565b835261460060208501614328565b602084015261461160408501613f5b565b604084015261462260608501613f5b565b606084015261463360808501613f5b565b608084015260a084015191508082111561464c57600080fd5b61465885838601614333565b60a084015260c084015191508082111561467157600080fd5b61467d858386016143fb565b60c084015260e084015191508082111561469657600080fd5b6146a2858386016144d6565b60e0840152610100915081840151818111156146bd57600080fd5b6146c986828701613fe3565b8385015250505092915050565b8051613e1f816132c2565b600080604083850312156146f457600080fd5b6146fd83613e0d565b9150602083015167ffffffffffffffff8082111561471a57600080fd5b9084019060c0828703121561472e57600080fd5b614736613899565b82518281111561474557600080fd5b614751888286016145b1565b825250614760602084016146d6565b602082015261477160408401614028565b6040820152614782606084016146d6565b606082015260808301518281111561479957600080fd5b6147a588828601613fe3565b6080830152506147b760a08401614028565b60a08201528093505050509250929050565b60006001600160a01b03808616835280851660208401525060606040830152613c786060830184613c1c565b6000806040838503121561480857600080fd5b61481183613e0d565b9150602083015190509250929050565b6000806000806080858703121561483757600080fd5b61484085613e0d565b9350602085015167ffffffffffffffff8082111561485d57600080fd5b61486988838901614333565b9450604087015191508082111561487f57600080fd5b61488b888389016143fb565b935060608701519150808211156148a157600080fd5b506148ae878288016144d6565b91505092959194509250565b600080604083850312156148cd57600080fd5b6148d683613e0d565b9150602083015167ffffffffffffffff808211156148f357600080fd5b908401906040828703121561490757600080fd5b60405160408101818110838211171561492257614922613813565b60405282518281111561493457600080fd5b614940888286016145b1565b8252506020830151925061495383613c81565b8260208201528093505050509250929050565b6000606082016001600160a01b0386168352602067ffffffffffffffff8616818501526060604085015281855180845260808601915060808160051b870101935082870160005b828110156149db57607f198887030184526149c986835161332f565b955092840192908401906001016149ad565b50939998505050505050505050565b6000806000606084860312156149ff57600080fd5b614a0884613e0d565b9250602080850151614a1981613ac8565b604086015190935067ffffffffffffffff811115614a3657600080fd5b8501601f81018713614a4757600080fd5b8051614a5561397d826138ed565b81815260059190911b82018301908381019089831115614a7457600080fd5b928401925b828410156139c8578351614a8c816132c2565b82529284019290840190614a79565b60a081526000614aae60a0830188613422565b8660208401528560408401528281036060840152614acc8186613525565b90508281036080840152614ae081856135a0565b98975050505050505050565b602081526000610d876020830184613422565b600081518084526020808501945080840160005b8381101561359557815180516001600160a01b03908116895284820151168489015260409081015160070b9088015260609096019590820190600101614b13565b60006020808301818452808551808352604092508286019150828160051b8701018488016000805b84811015614c1b57898403603f19018652825180516001600160a01b0390811686528982015160608b880181905281519088018190526080880192918c01919086905b80821015614bed5783518051841686528e015160070b8e860152938c0193928d019260019190910190614bbf565b5050505090880151858203868a015290614c078183614aff565b978a01979550505091870191600101614b7c565b50919998505050505050505050565b60008060408385031215614c3d57600080fd5b614c4683613e0d565b9150602083015167ffffffffffffffff811115614c6257600080fd5b614c6e858286016145b1565b915050925092905056fe90a5cf4cffe88b4edbb041cfc7a8a812c48a5ec30b84640fb37690875168e3aaa2646970667358221220cf7ad1efbe3638f6a798dbe78e07afcc3ef791bb4a58f55fb3c43f1167e63ffb64736f6c63430008090033",
  "linkReferences": {},
  "deployedLinkReferences": {}
}