{
  "_format": "hh-sol-artifact-1",
  "contractName": "BaseHTS",
  "sourceName": "contracts/BaseHTS.sol",
  "abi": [
    {
      "anonymous": false,
      "inputs": [
        {
          "indexed": false,
          "internalType": "uint256",
          "name": "amount",
          "type": "uint256"
        }
      ],
      "name": "AllowanceValue",
      "type": "event"
    },
    {
      "anonymous": false,
      "inputs": [
        {
          "indexed": false,
          "internalType": "bool",
          "name": "approved",
          "type": "bool"
        }
      ],
      "name": "Approved",
      "type": "event"
    },
    {
      "anonymous": false,
      "inputs": [
        {
          "indexed": false,
          "internalType": "address",
          "name": "approved",
          "type": "address"
        }
      ],
      "name": "ApprovedAddress",
      "type": "event"
    },
    {
      "anonymous": false,
      "inputs": [
        {
          "indexed": false,
          "internalType": "address",
          "name": "tokenAddress",
          "type": "address"
        }
      ],
      "name": "CreatedToken",
      "type": "event"
    },
    {
      "anonymous": false,
      "inputs": [
        {
          "indexed": false,
          "internalType": "bool",
          "name": "frozen",
          "type": "bool"
        }
      ],
      "name": "Frozen",
      "type": "event"
    },
    {
      "anonymous": false,
      "inputs": [
        {
          "components": [
            {
              "components": [
                {
                  "components": [
                    {
                      "internalType": "string",
                      "name": "name",
                      "type": "string"
                    },
                    {
                      "internalType": "string",
                      "name": "symbol",
                      "type": "string"
                    },
                    {
                      "internalType": "address",
                      "name": "treasury",
                      "type": "address"
                    },
                    {
                      "internalType": "string",
                      "name": "memo",
                      "type": "string"
                    },
                    {
                      "internalType": "bool",
                      "name": "tokenSupplyType",
                      "type": "bool"
                    },
                    {
                      "internalType": "uint32",
                      "name": "maxSupply",
                      "type": "uint32"
                    },
                    {
                      "internalType": "bool",
                      "name": "freezeDefault",
                      "type": "bool"
                    },
                    {
                      "components": [
                        {
                          "internalType": "uint256",
                          "name": "keyType",
                          "type": "uint256"
                        },
                        {
                          "components": [
                            {
                              "internalType": "bool",
                              "name": "inheritAccountKey",
                              "type": "bool"
                            },
                            {
                              "internalType": "address",
                              "name": "contractId",
                              "type": "address"
                            },
                            {
                              "internalType": "bytes",
                              "name": "ed25519",
                              "type": "bytes"
                            },
                            {
                              "internalType": "bytes",
                              "name": "ECDSA_secp256k1",
                              "type": "bytes"
                            },
                            {
                              "internalType": "address",
                              "name": "delegatableContractId",
                              "type": "address"
                            }
                          ],
                          "internalType": "struct IHederaTokenService.KeyValue",
                          "name": "key",
                          "type": "tuple"
                        }
                      ],
                      "internalType": "struct IHederaTokenService.TokenKey[]",
                      "name": "tokenKeys",
                      "type": "tuple[]"
                    },
                    {
                      "components": [
                        {
                          "internalType": "uint32",
                          "name": "second",
                          "type": "uint32"
                        },
                        {
                          "internalType": "address",
                          "name": "autoRenewAccount",
                          "type": "address"
                        },
                        {
                          "internalType": "uint32",
                          "name": "autoRenewPeriod",
                          "type": "uint32"
                        }
                      ],
                      "internalType": "struct IHederaTokenService.Expiry",
                      "name": "expiry",
                      "type": "tuple"
                    }
                  ],
                  "internalType": "struct IHederaTokenService.HederaToken",
                  "name": "token",
                  "type": "tuple"
                },
                {
                  "internalType": "uint64",
                  "name": "totalSupply",
                  "type": "uint64"
                },
                {
                  "internalType": "bool",
                  "name": "deleted",
                  "type": "bool"
                },
                {
                  "internalType": "bool",
                  "name": "defaultKycStatus",
                  "type": "bool"
                },
                {
                  "internalType": "bool",
                  "name": "pauseStatus",
                  "type": "bool"
                },
                {
                  "components": [
                    {
                      "internalType": "uint32",
                      "name": "amount",
                      "type": "uint32"
                    },
                    {
                      "internalType": "address",
                      "name": "tokenId",
                      "type": "address"
                    },
                    {
                      "internalType": "bool",
                      "name": "useHbarsForPayment",
                      "type": "bool"
                    },
                    {
                      "internalType": "bool",
                      "name": "useCurrentTokenForPayment",
                      "type": "bool"
                    },
                    {
                      "internalType": "address",
                      "name": "feeCollector",
                      "type": "address"
                    }
                  ],
                  "internalType": "struct IHederaTokenService.FixedFee[]",
                  "name": "fixedFees",
                  "type": "tuple[]"
                },
                {
                  "components": [
                    {
                      "internalType": "uint32",
                      "name": "numerator",
                      "type": "uint32"
                    },
                    {
                      "internalType": "uint32",
                      "name": "denominator",
                      "type": "uint32"
                    },
                    {
                      "internalType": "uint32",
                      "name": "minimumAmount",
                      "type": "uint32"
                    },
                    {
                      "internalType": "uint32",
                      "name": "maximumAmount",
                      "type": "uint32"
                    },
                    {
                      "internalType": "bool",
                      "name": "netOfTransfers",
                      "type": "bool"
                    },
                    {
                      "internalType": "address",
                      "name": "feeCollector",
                      "type": "address"
                    }
                  ],
                  "internalType": "struct IHederaTokenService.FractionalFee[]",
                  "name": "fractionalFees",
                  "type": "tuple[]"
                },
                {
                  "components": [
                    {
                      "internalType": "uint32",
                      "name": "numerator",
                      "type": "uint32"
                    },
                    {
                      "internalType": "uint32",
                      "name": "denominator",
                      "type": "uint32"
                    },
                    {
                      "internalType": "uint32",
                      "name": "amount",
                      "type": "uint32"
                    },
                    {
                      "internalType": "address",
                      "name": "tokenId",
                      "type": "address"
                    },
                    {
                      "internalType": "bool",
                      "name": "useHbarsForPayment",
                      "type": "bool"
                    },
                    {
                      "internalType": "address",
                      "name": "feeCollector",
                      "type": "address"
                    }
                  ],
                  "internalType": "struct IHederaTokenService.RoyaltyFee[]",
                  "name": "royaltyFees",
                  "type": "tuple[]"
                },
                {
                  "internalType": "string",
                  "name": "ledgerId",
                  "type": "string"
                }
              ],
              "internalType": "struct IHederaTokenService.TokenInfo",
              "name": "tokenInfo",
              "type": "tuple"
            },
            {
              "internalType": "uint32",
              "name": "decimals",
              "type": "uint32"
            }
          ],
          "indexed": false,
          "internalType": "struct IHederaTokenService.FungibleTokenInfo",
          "name": "tokenInfo",
          "type": "tuple"
        }
      ],
      "name": "FungibleTokenInfo",
      "type": "event"
    },
    {
      "anonymous": false,
      "inputs": [
        {
          "indexed": false,
          "internalType": "uint64",
          "name": "newTotalSupply",
          "type": "uint64"
        },
        {
          "indexed": false,
          "internalType": "int64[]",
          "name": "serialNumbers",
          "type": "int64[]"
        }
      ],
      "name": "MintedToken",
      "type": "event"
    },
    {
      "anonymous": false,
      "inputs": [
        {
          "components": [
            {
              "components": [
                {
                  "components": [
                    {
                      "internalType": "string",
                      "name": "name",
                      "type": "string"
                    },
                    {
                      "internalType": "string",
                      "name": "symbol",
                      "type": "string"
                    },
                    {
                      "internalType": "address",
                      "name": "treasury",
                      "type": "address"
                    },
                    {
                      "internalType": "string",
                      "name": "memo",
                      "type": "string"
                    },
                    {
                      "internalType": "bool",
                      "name": "tokenSupplyType",
                      "type": "bool"
                    },
                    {
                      "internalType": "uint32",
                      "name": "maxSupply",
                      "type": "uint32"
                    },
                    {
                      "internalType": "bool",
                      "name": "freezeDefault",
                      "type": "bool"
                    },
                    {
                      "components": [
                        {
                          "internalType": "uint256",
                          "name": "keyType",
                          "type": "uint256"
                        },
                        {
                          "components": [
                            {
                              "internalType": "bool",
                              "name": "inheritAccountKey",
                              "type": "bool"
                            },
                            {
                              "internalType": "address",
                              "name": "contractId",
                              "type": "address"
                            },
                            {
                              "internalType": "bytes",
                              "name": "ed25519",
                              "type": "bytes"
                            },
                            {
                              "internalType": "bytes",
                              "name": "ECDSA_secp256k1",
                              "type": "bytes"
                            },
                            {
                              "internalType": "address",
                              "name": "delegatableContractId",
                              "type": "address"
                            }
                          ],
                          "internalType": "struct IHederaTokenService.KeyValue",
                          "name": "key",
                          "type": "tuple"
                        }
                      ],
                      "internalType": "struct IHederaTokenService.TokenKey[]",
                      "name": "tokenKeys",
                      "type": "tuple[]"
                    },
                    {
                      "components": [
                        {
                          "internalType": "uint32",
                          "name": "second",
                          "type": "uint32"
                        },
                        {
                          "internalType": "address",
                          "name": "autoRenewAccount",
                          "type": "address"
                        },
                        {
                          "internalType": "uint32",
                          "name": "autoRenewPeriod",
                          "type": "uint32"
                        }
                      ],
                      "internalType": "struct IHederaTokenService.Expiry",
                      "name": "expiry",
                      "type": "tuple"
                    }
                  ],
                  "internalType": "struct IHederaTokenService.HederaToken",
                  "name": "token",
                  "type": "tuple"
                },
                {
                  "internalType": "uint64",
                  "name": "totalSupply",
                  "type": "uint64"
                },
                {
                  "internalType": "bool",
                  "name": "deleted",
                  "type": "bool"
                },
                {
                  "internalType": "bool",
                  "name": "defaultKycStatus",
                  "type": "bool"
                },
                {
                  "internalType": "bool",
                  "name": "pauseStatus",
                  "type": "bool"
                },
                {
                  "components": [
                    {
                      "internalType": "uint32",
                      "name": "amount",
                      "type": "uint32"
                    },
                    {
                      "internalType": "address",
                      "name": "tokenId",
                      "type": "address"
                    },
                    {
                      "internalType": "bool",
                      "name": "useHbarsForPayment",
                      "type": "bool"
                    },
                    {
                      "internalType": "bool",
                      "name": "useCurrentTokenForPayment",
                      "type": "bool"
                    },
                    {
                      "internalType": "address",
                      "name": "feeCollector",
                      "type": "address"
                    }
                  ],
                  "internalType": "struct IHederaTokenService.FixedFee[]",
                  "name": "fixedFees",
                  "type": "tuple[]"
                },
                {
                  "components": [
                    {
                      "internalType": "uint32",
                      "name": "numerator",
                      "type": "uint32"
                    },
                    {
                      "internalType": "uint32",
                      "name": "denominator",
                      "type": "uint32"
                    },
                    {
                      "internalType": "uint32",
                      "name": "minimumAmount",
                      "type": "uint32"
                    },
                    {
                      "internalType": "uint32",
                      "name": "maximumAmount",
                      "type": "uint32"
                    },
                    {
                      "internalType": "bool",
                      "name": "netOfTransfers",
                      "type": "bool"
                    },
                    {
                      "internalType": "address",
                      "name": "feeCollector",
                      "type": "address"
                    }
                  ],
                  "internalType": "struct IHederaTokenService.FractionalFee[]",
                  "name": "fractionalFees",
                  "type": "tuple[]"
                },
                {
                  "components": [
                    {
                      "internalType": "uint32",
                      "name": "numerator",
                      "type": "uint32"
                    },
                    {
                      "internalType": "uint32",
                      "name": "denominator",
                      "type": "uint32"
                    },
                    {
                      "internalType": "uint32",
                      "name": "amount",
                      "type": "uint32"
                    },
                    {
                      "internalType": "address",
                      "name": "tokenId",
                      "type": "address"
                    },
                    {
                      "internalType": "bool",
                      "name": "useHbarsForPayment",
                      "type": "bool"
                    },
                    {
                      "internalType": "address",
                      "name": "feeCollector",
                      "type": "address"
                    }
                  ],
                  "internalType": "struct IHederaTokenService.RoyaltyFee[]",
                  "name": "royaltyFees",
                  "type": "tuple[]"
                },
                {
                  "internalType": "string",
                  "name": "ledgerId",
                  "type": "string"
                }
              ],
              "internalType": "struct IHederaTokenService.TokenInfo",
              "name": "tokenInfo",
              "type": "tuple"
            },
            {
              "internalType": "int64",
              "name": "serialNumber",
              "type": "int64"
            },
            {
              "internalType": "address",
              "name": "ownerId",
              "type": "address"
            },
            {
              "internalType": "int64",
              "name": "creationTime",
              "type": "int64"
            },
            {
              "internalType": "bytes",
              "name": "metadata",
              "type": "bytes"
            },
            {
              "internalType": "address",
              "name": "spenderId",
              "type": "address"
            }
          ],
          "indexed": false,
          "internalType": "struct IHederaTokenService.NonFungibleTokenInfo",
          "name": "tokenInfo",
          "type": "tuple"
        }
      ],
      "name": "NonFungibleTokenInfo",
      "type": "event"
    },
    {
      "anonymous": false,
      "inputs": [
        {
          "indexed": false,
          "internalType": "bool",
          "name": "paused",
          "type": "bool"
        }
      ],
      "name": "PausedToken",
      "type": "event"
    },
    {
      "anonymous": false,
      "inputs": [
        {
          "indexed": false,
          "internalType": "int256",
          "name": "responseCode",
          "type": "int256"
        }
      ],
      "name": "ResponseCode",
      "type": "event"
    },
    {
      "anonymous": false,
      "inputs": [
        {
          "components": [
            {
              "components": [
                {
                  "internalType": "string",
                  "name": "name",
                  "type": "string"
                },
                {
                  "internalType": "string",
                  "name": "symbol",
                  "type": "string"
                },
                {
                  "internalType": "address",
                  "name": "treasury",
                  "type": "address"
                },
                {
                  "internalType": "string",
                  "name": "memo",
                  "type": "string"
                },
                {
                  "internalType": "bool",
                  "name": "tokenSupplyType",
                  "type": "bool"
                },
                {
                  "internalType": "uint32",
                  "name": "maxSupply",
                  "type": "uint32"
                },
                {
                  "internalType": "bool",
                  "name": "freezeDefault",
                  "type": "bool"
                },
                {
                  "components": [
                    {
                      "internalType": "uint256",
                      "name": "keyType",
                      "type": "uint256"
                    },
                    {
                      "components": [
                        {
                          "internalType": "bool",
                          "name": "inheritAccountKey",
                          "type": "bool"
                        },
                        {
                          "internalType": "address",
                          "name": "contractId",
                          "type": "address"
                        },
                        {
                          "internalType": "bytes",
                          "name": "ed25519",
                          "type": "bytes"
                        },
                        {
                          "internalType": "bytes",
                          "name": "ECDSA_secp256k1",
                          "type": "bytes"
                        },
                        {
                          "internalType": "address",
                          "name": "delegatableContractId",
                          "type": "address"
                        }
                      ],
                      "internalType": "struct IHederaTokenService.KeyValue",
                      "name": "key",
                      "type": "tuple"
                    }
                  ],
                  "internalType": "struct IHederaTokenService.TokenKey[]",
                  "name": "tokenKeys",
                  "type": "tuple[]"
                },
                {
                  "components": [
                    {
                      "internalType": "uint32",
                      "name": "second",
                      "type": "uint32"
                    },
                    {
                      "internalType": "address",
                      "name": "autoRenewAccount",
                      "type": "address"
                    },
                    {
                      "internalType": "uint32",
                      "name": "autoRenewPeriod",
                      "type": "uint32"
                    }
                  ],
                  "internalType": "struct IHederaTokenService.Expiry",
                  "name": "expiry",
                  "type": "tuple"
                }
              ],
              "internalType": "struct IHederaTokenService.HederaToken",
              "name": "token",
              "type": "tuple"
            },
            {
              "internalType": "uint64",
              "name": "totalSupply",
              "type": "uint64"
            },
            {
              "internalType": "bool",
              "name": "deleted",
              "type": "bool"
            },
            {
              "internalType": "bool",
              "name": "defaultKycStatus",
              "type": "bool"
            },
            {
              "internalType": "bool",
              "name": "pauseStatus",
              "type": "bool"
            },
            {
              "components": [
                {
                  "internalType": "uint32",
                  "name": "amount",
                  "type": "uint32"
                },
                {
                  "internalType": "address",
                  "name": "tokenId",
                  "type": "address"
                },
                {
                  "internalType": "bool",
                  "name": "useHbarsForPayment",
                  "type": "bool"
                },
                {
                  "internalType": "bool",
                  "name": "useCurrentTokenForPayment",
                  "type": "bool"
                },
                {
                  "internalType": "address",
                  "name": "feeCollector",
                  "type": "address"
                }
              ],
              "internalType": "struct IHederaTokenService.FixedFee[]",
              "name": "fixedFees",
              "type": "tuple[]"
            },
            {
              "components": [
                {
                  "internalType": "uint32",
                  "name": "numerator",
                  "type": "uint32"
                },
                {
                  "internalType": "uint32",
                  "name": "denominator",
                  "type": "uint32"
                },
                {
                  "internalType": "uint32",
                  "name": "minimumAmount",
                  "type": "uint32"
                },
                {
                  "internalType": "uint32",
                  "name": "maximumAmount",
                  "type": "uint32"
                },
                {
                  "internalType": "bool",
                  "name": "netOfTransfers",
                  "type": "bool"
                },
                {
                  "internalType": "address",
                  "name": "feeCollector",
                  "type": "address"
                }
              ],
              "internalType": "struct IHederaTokenService.FractionalFee[]",
              "name": "fractionalFees",
              "type": "tuple[]"
            },
            {
              "components": [
                {
                  "internalType": "uint32",
                  "name": "numerator",
                  "type": "uint32"
                },
                {
                  "internalType": "uint32",
                  "name": "denominator",
                  "type": "uint32"
                },
                {
                  "internalType": "uint32",
                  "name": "amount",
                  "type": "uint32"
                },
                {
                  "internalType": "address",
                  "name": "tokenId",
                  "type": "address"
                },
                {
                  "internalType": "bool",
                  "name": "useHbarsForPayment",
                  "type": "bool"
                },
                {
                  "internalType": "address",
                  "name": "feeCollector",
                  "type": "address"
                }
              ],
              "internalType": "struct IHederaTokenService.RoyaltyFee[]",
              "name": "royaltyFees",
              "type": "tuple[]"
            },
            {
              "internalType": "string",
              "name": "ledgerId",
              "type": "string"
            }
          ],
          "indexed": false,
          "internalType": "struct IHederaTokenService.TokenInfo",
          "name": "tokenInfo",
          "type": "tuple"
        }
      ],
      "name": "TokenInfo",
      "type": "event"
    },
    {
      "anonymous": false,
      "inputs": [
        {
          "indexed": false,
          "internalType": "bool",
          "name": "unpaused",
          "type": "bool"
        }
      ],
      "name": "UnpausedToken",
      "type": "event"
    },
    {
      "inputs": [
        {
          "internalType": "address",
          "name": "token",
          "type": "address"
        },
        {
          "internalType": "address",
          "name": "owner",
          "type": "address"
        },
        {
          "internalType": "address",
          "name": "spender",
          "type": "address"
        }
      ],
      "name": "allowancePublic",
      "outputs": [
        {
          "internalType": "int256",
          "name": "responseCode",
          "type": "int256"
        },
        {
          "internalType": "uint256",
          "name": "amount",
          "type": "uint256"
        }
      ],
      "stateMutability": "nonpayable",
      "type": "function"
    },
    {
      "inputs": [
        {
          "internalType": "address",
          "name": "token",
          "type": "address"
        },
        {
          "internalType": "address",
          "name": "spender",
          "type": "address"
        },
        {
          "internalType": "uint256",
          "name": "amount",
          "type": "uint256"
        }
      ],
      "name": "approvePublic",
      "outputs": [
        {
          "internalType": "int256",
          "name": "responseCode",
          "type": "int256"
        }
      ],
      "stateMutability": "nonpayable",
      "type": "function"
    },
    {
      "inputs": [
        {
          "internalType": "address",
          "name": "account",
          "type": "address"
        },
        {
          "internalType": "address",
          "name": "token",
          "type": "address"
        }
      ],
      "name": "associateTokenPublic",
      "outputs": [
        {
          "internalType": "int256",
          "name": "responseCode",
          "type": "int256"
        }
      ],
      "stateMutability": "nonpayable",
      "type": "function"
    },
    {
      "inputs": [
        {
          "internalType": "address",
          "name": "treasury",
          "type": "address"
        }
      ],
      "name": "createFungibleTokenPublic",
      "outputs": [],
      "stateMutability": "payable",
      "type": "function"
    },
    {
      "inputs": [
        {
          "internalType": "address",
          "name": "treasury",
          "type": "address"
        }
      ],
      "name": "createNonFungibleTokenPublic",
      "outputs": [],
      "stateMutability": "payable",
      "type": "function"
    },
    {
      "inputs": [
        {
          "internalType": "address",
          "name": "token",
          "type": "address"
        },
        {
          "internalType": "address",
          "name": "account",
          "type": "address"
        }
      ],
      "name": "freezeTokenPublic",
      "outputs": [
        {
          "internalType": "int256",
          "name": "responseCode",
          "type": "int256"
        }
      ],
      "stateMutability": "nonpayable",
      "type": "function"
    },
    {
      "inputs": [
        {
          "internalType": "address",
          "name": "token",
          "type": "address"
        },
        {
          "internalType": "uint256",
          "name": "serialNumber",
          "type": "uint256"
        }
      ],
      "name": "getApprovedPublic",
      "outputs": [
        {
          "internalType": "int256",
          "name": "responseCode",
          "type": "int256"
        },
        {
          "internalType": "address",
          "name": "approved",
          "type": "address"
        }
      ],
      "stateMutability": "nonpayable",
      "type": "function"
    },
    {
      "inputs": [
        {
          "internalType": "address",
          "name": "token",
          "type": "address"
        }
      ],
      "name": "getFungibleTokenInfoPublic",
      "outputs": [
        {
          "internalType": "int256",
          "name": "responseCode",
          "type": "int256"
        },
        {
          "components": [
            {
              "components": [
                {
                  "components": [
                    {
                      "internalType": "string",
                      "name": "name",
                      "type": "string"
                    },
                    {
                      "internalType": "string",
                      "name": "symbol",
                      "type": "string"
                    },
                    {
                      "internalType": "address",
                      "name": "treasury",
                      "type": "address"
                    },
                    {
                      "internalType": "string",
                      "name": "memo",
                      "type": "string"
                    },
                    {
                      "internalType": "bool",
                      "name": "tokenSupplyType",
                      "type": "bool"
                    },
                    {
                      "internalType": "uint32",
                      "name": "maxSupply",
                      "type": "uint32"
                    },
                    {
                      "internalType": "bool",
                      "name": "freezeDefault",
                      "type": "bool"
                    },
                    {
                      "components": [
                        {
                          "internalType": "uint256",
                          "name": "keyType",
                          "type": "uint256"
                        },
                        {
                          "components": [
                            {
                              "internalType": "bool",
                              "name": "inheritAccountKey",
                              "type": "bool"
                            },
                            {
                              "internalType": "address",
                              "name": "contractId",
                              "type": "address"
                            },
                            {
                              "internalType": "bytes",
                              "name": "ed25519",
                              "type": "bytes"
                            },
                            {
                              "internalType": "bytes",
                              "name": "ECDSA_secp256k1",
                              "type": "bytes"
                            },
                            {
                              "internalType": "address",
                              "name": "delegatableContractId",
                              "type": "address"
                            }
                          ],
                          "internalType": "struct IHederaTokenService.KeyValue",
                          "name": "key",
                          "type": "tuple"
                        }
                      ],
                      "internalType": "struct IHederaTokenService.TokenKey[]",
                      "name": "tokenKeys",
                      "type": "tuple[]"
                    },
                    {
                      "components": [
                        {
                          "internalType": "uint32",
                          "name": "second",
                          "type": "uint32"
                        },
                        {
                          "internalType": "address",
                          "name": "autoRenewAccount",
                          "type": "address"
                        },
                        {
                          "internalType": "uint32",
                          "name": "autoRenewPeriod",
                          "type": "uint32"
                        }
                      ],
                      "internalType": "struct IHederaTokenService.Expiry",
                      "name": "expiry",
                      "type": "tuple"
                    }
                  ],
                  "internalType": "struct IHederaTokenService.HederaToken",
                  "name": "token",
                  "type": "tuple"
                },
                {
                  "internalType": "uint64",
                  "name": "totalSupply",
                  "type": "uint64"
                },
                {
                  "internalType": "bool",
                  "name": "deleted",
                  "type": "bool"
                },
                {
                  "internalType": "bool",
                  "name": "defaultKycStatus",
                  "type": "bool"
                },
                {
                  "internalType": "bool",
                  "name": "pauseStatus",
                  "type": "bool"
                },
                {
                  "components": [
                    {
                      "internalType": "uint32",
                      "name": "amount",
                      "type": "uint32"
                    },
                    {
                      "internalType": "address",
                      "name": "tokenId",
                      "type": "address"
                    },
                    {
                      "internalType": "bool",
                      "name": "useHbarsForPayment",
                      "type": "bool"
                    },
                    {
                      "internalType": "bool",
                      "name": "useCurrentTokenForPayment",
                      "type": "bool"
                    },
                    {
                      "internalType": "address",
                      "name": "feeCollector",
                      "type": "address"
                    }
                  ],
                  "internalType": "struct IHederaTokenService.FixedFee[]",
                  "name": "fixedFees",
                  "type": "tuple[]"
                },
                {
                  "components": [
                    {
                      "internalType": "uint32",
                      "name": "numerator",
                      "type": "uint32"
                    },
                    {
                      "internalType": "uint32",
                      "name": "denominator",
                      "type": "uint32"
                    },
                    {
                      "internalType": "uint32",
                      "name": "minimumAmount",
                      "type": "uint32"
                    },
                    {
                      "internalType": "uint32",
                      "name": "maximumAmount",
                      "type": "uint32"
                    },
                    {
                      "internalType": "bool",
                      "name": "netOfTransfers",
                      "type": "bool"
                    },
                    {
                      "internalType": "address",
                      "name": "feeCollector",
                      "type": "address"
                    }
                  ],
                  "internalType": "struct IHederaTokenService.FractionalFee[]",
                  "name": "fractionalFees",
                  "type": "tuple[]"
                },
                {
                  "components": [
                    {
                      "internalType": "uint32",
                      "name": "numerator",
                      "type": "uint32"
                    },
                    {
                      "internalType": "uint32",
                      "name": "denominator",
                      "type": "uint32"
                    },
                    {
                      "internalType": "uint32",
                      "name": "amount",
                      "type": "uint32"
                    },
                    {
                      "internalType": "address",
                      "name": "tokenId",
                      "type": "address"
                    },
                    {
                      "internalType": "bool",
                      "name": "useHbarsForPayment",
                      "type": "bool"
                    },
                    {
                      "internalType": "address",
                      "name": "feeCollector",
                      "type": "address"
                    }
                  ],
                  "internalType": "struct IHederaTokenService.RoyaltyFee[]",
                  "name": "royaltyFees",
                  "type": "tuple[]"
                },
                {
                  "internalType": "string",
                  "name": "ledgerId",
                  "type": "string"
                }
              ],
              "internalType": "struct IHederaTokenService.TokenInfo",
              "name": "tokenInfo",
              "type": "tuple"
            },
            {
              "internalType": "uint32",
              "name": "decimals",
              "type": "uint32"
            }
          ],
          "internalType": "struct IHederaTokenService.FungibleTokenInfo",
          "name": "tokenInfo",
          "type": "tuple"
        }
      ],
      "stateMutability": "nonpayable",
      "type": "function"
    },
    {
      "inputs": [
        {
          "internalType": "address",
          "name": "token",
          "type": "address"
        },
        {
          "internalType": "int64",
          "name": "serialNumber",
          "type": "int64"
        }
      ],
      "name": "getNonFungibleTokenInfoPublic",
      "outputs": [
        {
          "internalType": "int256",
          "name": "responseCode",
          "type": "int256"
        },
        {
          "components": [
            {
              "components": [
                {
                  "components": [
                    {
                      "internalType": "string",
                      "name": "name",
                      "type": "string"
                    },
                    {
                      "internalType": "string",
                      "name": "symbol",
                      "type": "string"
                    },
                    {
                      "internalType": "address",
                      "name": "treasury",
                      "type": "address"
                    },
                    {
                      "internalType": "string",
                      "name": "memo",
                      "type": "string"
                    },
                    {
                      "internalType": "bool",
                      "name": "tokenSupplyType",
                      "type": "bool"
                    },
                    {
                      "internalType": "uint32",
                      "name": "maxSupply",
                      "type": "uint32"
                    },
                    {
                      "internalType": "bool",
                      "name": "freezeDefault",
                      "type": "bool"
                    },
                    {
                      "components": [
                        {
                          "internalType": "uint256",
                          "name": "keyType",
                          "type": "uint256"
                        },
                        {
                          "components": [
                            {
                              "internalType": "bool",
                              "name": "inheritAccountKey",
                              "type": "bool"
                            },
                            {
                              "internalType": "address",
                              "name": "contractId",
                              "type": "address"
                            },
                            {
                              "internalType": "bytes",
                              "name": "ed25519",
                              "type": "bytes"
                            },
                            {
                              "internalType": "bytes",
                              "name": "ECDSA_secp256k1",
                              "type": "bytes"
                            },
                            {
                              "internalType": "address",
                              "name": "delegatableContractId",
                              "type": "address"
                            }
                          ],
                          "internalType": "struct IHederaTokenService.KeyValue",
                          "name": "key",
                          "type": "tuple"
                        }
                      ],
                      "internalType": "struct IHederaTokenService.TokenKey[]",
                      "name": "tokenKeys",
                      "type": "tuple[]"
                    },
                    {
                      "components": [
                        {
                          "internalType": "uint32",
                          "name": "second",
                          "type": "uint32"
                        },
                        {
                          "internalType": "address",
                          "name": "autoRenewAccount",
                          "type": "address"
                        },
                        {
                          "internalType": "uint32",
                          "name": "autoRenewPeriod",
                          "type": "uint32"
                        }
                      ],
                      "internalType": "struct IHederaTokenService.Expiry",
                      "name": "expiry",
                      "type": "tuple"
                    }
                  ],
                  "internalType": "struct IHederaTokenService.HederaToken",
                  "name": "token",
                  "type": "tuple"
                },
                {
                  "internalType": "uint64",
                  "name": "totalSupply",
                  "type": "uint64"
                },
                {
                  "internalType": "bool",
                  "name": "deleted",
                  "type": "bool"
                },
                {
                  "internalType": "bool",
                  "name": "defaultKycStatus",
                  "type": "bool"
                },
                {
                  "internalType": "bool",
                  "name": "pauseStatus",
                  "type": "bool"
                },
                {
                  "components": [
                    {
                      "internalType": "uint32",
                      "name": "amount",
                      "type": "uint32"
                    },
                    {
                      "internalType": "address",
                      "name": "tokenId",
                      "type": "address"
                    },
                    {
                      "internalType": "bool",
                      "name": "useHbarsForPayment",
                      "type": "bool"
                    },
                    {
                      "internalType": "bool",
                      "name": "useCurrentTokenForPayment",
                      "type": "bool"
                    },
                    {
                      "internalType": "address",
                      "name": "feeCollector",
                      "type": "address"
                    }
                  ],
                  "internalType": "struct IHederaTokenService.FixedFee[]",
                  "name": "fixedFees",
                  "type": "tuple[]"
                },
                {
                  "components": [
                    {
                      "internalType": "uint32",
                      "name": "numerator",
                      "type": "uint32"
                    },
                    {
                      "internalType": "uint32",
                      "name": "denominator",
                      "type": "uint32"
                    },
                    {
                      "internalType": "uint32",
                      "name": "minimumAmount",
                      "type": "uint32"
                    },
                    {
                      "internalType": "uint32",
                      "name": "maximumAmount",
                      "type": "uint32"
                    },
                    {
                      "internalType": "bool",
                      "name": "netOfTransfers",
                      "type": "bool"
                    },
                    {
                      "internalType": "address",
                      "name": "feeCollector",
                      "type": "address"
                    }
                  ],
                  "internalType": "struct IHederaTokenService.FractionalFee[]",
                  "name": "fractionalFees",
                  "type": "tuple[]"
                },
                {
                  "components": [
                    {
                      "internalType": "uint32",
                      "name": "numerator",
                      "type": "uint32"
                    },
                    {
                      "internalType": "uint32",
                      "name": "denominator",
                      "type": "uint32"
                    },
                    {
                      "internalType": "uint32",
                      "name": "amount",
                      "type": "uint32"
                    },
                    {
                      "internalType": "address",
                      "name": "tokenId",
                      "type": "address"
                    },
                    {
                      "internalType": "bool",
                      "name": "useHbarsForPayment",
                      "type": "bool"
                    },
                    {
                      "internalType": "address",
                      "name": "feeCollector",
                      "type": "address"
                    }
                  ],
                  "internalType": "struct IHederaTokenService.RoyaltyFee[]",
                  "name": "royaltyFees",
                  "type": "tuple[]"
                },
                {
                  "internalType": "string",
                  "name": "ledgerId",
                  "type": "string"
                }
              ],
              "internalType": "struct IHederaTokenService.TokenInfo",
              "name": "tokenInfo",
              "type": "tuple"
            },
            {
              "internalType": "int64",
              "name": "serialNumber",
              "type": "int64"
            },
            {
              "internalType": "address",
              "name": "ownerId",
              "type": "address"
            },
            {
              "internalType": "int64",
              "name": "creationTime",
              "type": "int64"
            },
            {
              "internalType": "bytes",
              "name": "metadata",
              "type": "bytes"
            },
            {
              "internalType": "address",
              "name": "spenderId",
              "type": "address"
            }
          ],
          "internalType": "struct IHederaTokenService.NonFungibleTokenInfo",
          "name": "tokenInfo",
          "type": "tuple"
        }
      ],
      "stateMutability": "nonpayable",
      "type": "function"
    },
    {
      "inputs": [
        {
          "internalType": "address",
          "name": "token",
          "type": "address"
        }
      ],
      "name": "getTokenInfoPublic",
      "outputs": [
        {
          "internalType": "int256",
          "name": "responseCode",
          "type": "int256"
        },
        {
          "components": [
            {
              "components": [
                {
                  "internalType": "string",
                  "name": "name",
                  "type": "string"
                },
                {
                  "internalType": "string",
                  "name": "symbol",
                  "type": "string"
                },
                {
                  "internalType": "address",
                  "name": "treasury",
                  "type": "address"
                },
                {
                  "internalType": "string",
                  "name": "memo",
                  "type": "string"
                },
                {
                  "internalType": "bool",
                  "name": "tokenSupplyType",
                  "type": "bool"
                },
                {
                  "internalType": "uint32",
                  "name": "maxSupply",
                  "type": "uint32"
                },
                {
                  "internalType": "bool",
                  "name": "freezeDefault",
                  "type": "bool"
                },
                {
                  "components": [
                    {
                      "internalType": "uint256",
                      "name": "keyType",
                      "type": "uint256"
                    },
                    {
                      "components": [
                        {
                          "internalType": "bool",
                          "name": "inheritAccountKey",
                          "type": "bool"
                        },
                        {
                          "internalType": "address",
                          "name": "contractId",
                          "type": "address"
                        },
                        {
                          "internalType": "bytes",
                          "name": "ed25519",
                          "type": "bytes"
                        },
                        {
                          "internalType": "bytes",
                          "name": "ECDSA_secp256k1",
                          "type": "bytes"
                        },
                        {
                          "internalType": "address",
                          "name": "delegatableContractId",
                          "type": "address"
                        }
                      ],
                      "internalType": "struct IHederaTokenService.KeyValue",
                      "name": "key",
                      "type": "tuple"
                    }
                  ],
                  "internalType": "struct IHederaTokenService.TokenKey[]",
                  "name": "tokenKeys",
                  "type": "tuple[]"
                },
                {
                  "components": [
                    {
                      "internalType": "uint32",
                      "name": "second",
                      "type": "uint32"
                    },
                    {
                      "internalType": "address",
                      "name": "autoRenewAccount",
                      "type": "address"
                    },
                    {
                      "internalType": "uint32",
                      "name": "autoRenewPeriod",
                      "type": "uint32"
                    }
                  ],
                  "internalType": "struct IHederaTokenService.Expiry",
                  "name": "expiry",
                  "type": "tuple"
                }
              ],
              "internalType": "struct IHederaTokenService.HederaToken",
              "name": "token",
              "type": "tuple"
            },
            {
              "internalType": "uint64",
              "name": "totalSupply",
              "type": "uint64"
            },
            {
              "internalType": "bool",
              "name": "deleted",
              "type": "bool"
            },
            {
              "internalType": "bool",
              "name": "defaultKycStatus",
              "type": "bool"
            },
            {
              "internalType": "bool",
              "name": "pauseStatus",
              "type": "bool"
            },
            {
              "components": [
                {
                  "internalType": "uint32",
                  "name": "amount",
                  "type": "uint32"
                },
                {
                  "internalType": "address",
                  "name": "tokenId",
                  "type": "address"
                },
                {
                  "internalType": "bool",
                  "name": "useHbarsForPayment",
                  "type": "bool"
                },
                {
                  "internalType": "bool",
                  "name": "useCurrentTokenForPayment",
                  "type": "bool"
                },
                {
                  "internalType": "address",
                  "name": "feeCollector",
                  "type": "address"
                }
              ],
              "internalType": "struct IHederaTokenService.FixedFee[]",
              "name": "fixedFees",
              "type": "tuple[]"
            },
            {
              "components": [
                {
                  "internalType": "uint32",
                  "name": "numerator",
                  "type": "uint32"
                },
                {
                  "internalType": "uint32",
                  "name": "denominator",
                  "type": "uint32"
                },
                {
                  "internalType": "uint32",
                  "name": "minimumAmount",
                  "type": "uint32"
                },
                {
                  "internalType": "uint32",
                  "name": "maximumAmount",
                  "type": "uint32"
                },
                {
                  "internalType": "bool",
                  "name": "netOfTransfers",
                  "type": "bool"
                },
                {
                  "internalType": "address",
                  "name": "feeCollector",
                  "type": "address"
                }
              ],
              "internalType": "struct IHederaTokenService.FractionalFee[]",
              "name": "fractionalFees",
              "type": "tuple[]"
            },
            {
              "components": [
                {
                  "internalType": "uint32",
                  "name": "numerator",
                  "type": "uint32"
                },
                {
                  "internalType": "uint32",
                  "name": "denominator",
                  "type": "uint32"
                },
                {
                  "internalType": "uint32",
                  "name": "amount",
                  "type": "uint32"
                },
                {
                  "internalType": "address",
                  "name": "tokenId",
                  "type": "address"
                },
                {
                  "internalType": "bool",
                  "name": "useHbarsForPayment",
                  "type": "bool"
                },
                {
                  "internalType": "address",
                  "name": "feeCollector",
                  "type": "address"
                }
              ],
              "internalType": "struct IHederaTokenService.RoyaltyFee[]",
              "name": "royaltyFees",
              "type": "tuple[]"
            },
            {
              "internalType": "string",
              "name": "ledgerId",
              "type": "string"
            }
          ],
          "internalType": "struct IHederaTokenService.TokenInfo",
          "name": "tokenInfo",
          "type": "tuple"
        }
      ],
      "stateMutability": "nonpayable",
      "type": "function"
    },
    {
      "inputs": [
        {
          "internalType": "address",
          "name": "token",
          "type": "address"
        },
        {
          "internalType": "address",
          "name": "owner",
          "type": "address"
        },
        {
          "internalType": "address",
          "name": "operator",
          "type": "address"
        }
      ],
      "name": "isApprovedForAllPublic",
      "outputs": [
        {
          "internalType": "int256",
          "name": "responseCode",
          "type": "int256"
        },
        {
          "internalType": "bool",
          "name": "approved",
          "type": "bool"
        }
      ],
      "stateMutability": "nonpayable",
      "type": "function"
    },
    {
      "inputs": [
        {
          "internalType": "address",
          "name": "token",
          "type": "address"
        },
        {
          "internalType": "address",
          "name": "account",
          "type": "address"
        }
      ],
      "name": "isFrozenPublic",
      "outputs": [
        {
          "internalType": "int256",
          "name": "responseCode",
          "type": "int256"
        },
        {
          "internalType": "bool",
          "name": "frozen",
          "type": "bool"
        }
      ],
      "stateMutability": "nonpayable",
      "type": "function"
    },
    {
      "inputs": [
        {
          "internalType": "address",
          "name": "token",
          "type": "address"
        },
        {
          "internalType": "uint64",
          "name": "amount",
          "type": "uint64"
        },
        {
          "internalType": "bytes[]",
          "name": "metadata",
          "type": "bytes[]"
        }
      ],
      "name": "mintTokenPublic",
      "outputs": [
        {
          "internalType": "int256",
          "name": "responseCode",
          "type": "int256"
        },
        {
          "internalType": "uint64",
          "name": "newTotalSupply",
          "type": "uint64"
        },
        {
          "internalType": "int64[]",
          "name": "serialNumbers",
          "type": "int64[]"
        }
      ],
      "stateMutability": "nonpayable",
      "type": "function"
    },
    {
      "inputs": [
        {
          "internalType": "address",
          "name": "token",
          "type": "address"
        }
      ],
      "name": "pauseToken",
      "outputs": [
        {
          "internalType": "int256",
          "name": "responseCode",
          "type": "int256"
        }
      ],
      "stateMutability": "nonpayable",
      "type": "function"
    },
    {
      "inputs": [
        {
          "internalType": "address",
          "name": "token",
          "type": "address"
        }
      ],
      "name": "pauseTokenPublic",
      "outputs": [
        {
          "internalType": "int256",
          "name": "responseCode",
          "type": "int256"
        }
      ],
      "stateMutability": "nonpayable",
      "type": "function"
    },
    {
      "inputs": [
        {
          "internalType": "address",
          "name": "token",
          "type": "address"
        },
        {
          "internalType": "address",
          "name": "operator",
          "type": "address"
        },
        {
          "internalType": "bool",
          "name": "approved",
          "type": "bool"
        }
      ],
      "name": "setApprovalForAllPublic",
      "outputs": [
        {
          "internalType": "int256",
          "name": "responseCode",
          "type": "int256"
        }
      ],
      "stateMutability": "nonpayable",
      "type": "function"
    },
    {
      "inputs": [
        {
          "internalType": "address",
          "name": "token",
          "type": "address"
        },
        {
          "internalType": "address",
          "name": "sender",
          "type": "address"
        },
        {
          "internalType": "address",
          "name": "receiver",
          "type": "address"
        },
        {
          "internalType": "int64",
          "name": "serialNumber",
          "type": "int64"
        }
      ],
      "name": "transferNFTPublic",
      "outputs": [
        {
          "internalType": "int256",
          "name": "responseCode",
          "type": "int256"
        }
      ],
      "stateMutability": "nonpayable",
      "type": "function"
    },
    {
      "inputs": [
        {
          "internalType": "address",
          "name": "account",
          "type": "address"
        },
        {
          "internalType": "address",
          "name": "token",
          "type": "address"
        },
        {
          "internalType": "int64",
          "name": "amount",
          "type": "int64"
        }
      ],
      "name": "transferTokenPublic",
      "outputs": [
        {
          "internalType": "int256",
          "name": "responseCode",
          "type": "int256"
        }
      ],
      "stateMutability": "nonpayable",
      "type": "function"
    },
    {
      "inputs": [
        {
          "internalType": "address",
          "name": "token",
          "type": "address"
        },
        {
          "internalType": "address",
          "name": "account",
          "type": "address"
        }
      ],
      "name": "unfreezeTokenPublic",
      "outputs": [
        {
          "internalType": "int256",
          "name": "responseCode",
          "type": "int256"
        }
      ],
      "stateMutability": "nonpayable",
      "type": "function"
    },
    {
      "inputs": [
        {
          "internalType": "address",
          "name": "token",
          "type": "address"
        }
      ],
      "name": "unpauseToken",
      "outputs": [
        {
          "internalType": "int256",
          "name": "responseCode",
          "type": "int256"
        }
      ],
      "stateMutability": "nonpayable",
      "type": "function"
    },
    {
      "inputs": [
        {
          "internalType": "address",
          "name": "token",
          "type": "address"
        }
      ],
      "name": "unpauseTokenPublic",
      "outputs": [
        {
          "internalType": "int256",
          "name": "responseCode",
          "type": "int256"
        }
      ],
      "stateMutability": "nonpayable",
      "type": "function"
    },
    {
      "inputs": [
        {
          "internalType": "address",
          "name": "token",
          "type": "address"
        },
        {
          "internalType": "address",
          "name": "account",
          "type": "address"
        },
        {
          "internalType": "int64[]",
          "name": "serialNumbers",
          "type": "int64[]"
        }
      ],
      "name": "wipeTokenAccountNFTPublic",
      "outputs": [
        {
          "internalType": "int256",
          "name": "responseCode",
          "type": "int256"
        }
      ],
      "stateMutability": "nonpayable",
      "type": "function"
    },
    {
      "inputs": [
        {
          "internalType": "address",
          "name": "token",
          "type": "address"
        },
        {
          "internalType": "address",
          "name": "account",
          "type": "address"
        },
        {
          "internalType": "uint32",
          "name": "amount",
          "type": "uint32"
        }
      ],
      "name": "wipeTokenAccountPublic",
      "outputs": [
        {
          "internalType": "int256",
          "name": "responseCode",
          "type": "int256"
        }
      ],
      "stateMutability": "nonpayable",
      "type": "function"
    }
  ],
  "bytecode": "0x60c06040526009608081905268746f6b656e4e616d6560b81b60a09081526200002c9160019190620000c1565b5060408051808201909152600b8082526a1d1bdad95b94de5b589bdb60aa1b60209092019182526200006191600291620000c1565b50604080518082019091526004808252636d656d6f60e01b60209092019182526200008f91600391620000c1565b506103e860048190556005805463ffffffff191690911790556008600655348015620000ba57600080fd5b50620001a4565b828054620000cf9062000167565b90600052602060002090601f016020900481019282620000f357600085556200013e565b82601f106200010e57805160ff19168380011785556200013e565b828001600101855582156200013e579182015b828111156200013e57825182559160200191906001019062000121565b506200014c92915062000150565b5090565b5b808211156200014c576000815560010162000151565b600181811c908216806200017c57607f821691505b602082108114156200019e57634e487b7160e01b600052602260045260246000fd5b50919050565b613f8a80620001b46000396000f3fe6080604052600436106101405760003560e01c80636da6b1f0116100b6578063ec855c311161006f578063ec855c31146103d2578063f25b1200146103f2578063f2f38a7414610412578063f4a01e5b14610440578063f7be342514610460578063f848fec41461048057600080fd5b80636da6b1f0146103105780637c41ad2c146103305780637d3e5da8146103505780638070905f14610370578063d85f74c11461039f578063d92ac248146103b257600080fd5b80634b5c6687116101085780634b5c66871461022a5780634cbdb37b1461023f57806356af84031461026d5780635a5e6c311461028d57806369837dc2146102c25780636a4dde21146102f057600080fd5b806313c05dd81461014557806319db44b61461017f5780632b256ec8146101bc5780632d73bb2e146101ea5780633b3bff0f1461020a575b600080fd5b34801561015157600080fd5b50610165610160366004612dfa565b6104a0565b604080519283529015156020830152015b60405180910390f35b34801561018b57600080fd5b5061019f61019a36600461308b565b61051e565b604080519283526001600160a01b03909116602083015201610176565b3480156101c857600080fd5b506101dc6101d7366004612da6565b6105a2565b604051908152602001610176565b3480156101f657600080fd5b506101dc610205366004612dc2565b61068e565b34801561021657600080fd5b506101dc610225366004612da6565b6106d9565b61023d610238366004612da6565b6107b3565b005b34801561024b57600080fd5b5061025f61025a36600461305e565b610b61565b604051610176929190613c2f565b34801561027957600080fd5b506101dc610288366004612e9f565b610bd7565b34801561029957600080fd5b506102ad6102a8366004612dfa565b610c21565b60408051928352602083019190915201610176565b3480156102ce57600080fd5b506102e26102dd366004612da6565b610c92565b604051610176929190613c16565b3480156102fc57600080fd5b5061016561030b366004612dc2565b610d14565b34801561031c57600080fd5b506101dc61032b366004612e44565b610d8b565b34801561033c57600080fd5b506101dc61034b366004612da6565b610dd7565b34801561035c57600080fd5b506101dc61036b366004612dc2565b610e05565b34801561037c57600080fd5b5061039061038b3660046130b6565b610e11565b60405161017693929190613c61565b61023d6103ad366004612da6565b610e99565b3480156103be57600080fd5b506101dc6103cd36600461301f565b61122d565b3480156103de57600080fd5b506101dc6103ed366004612fa0565b61123a565b3480156103fe57600080fd5b506101dc61040d366004612f61565b61143b565b34801561041e57600080fd5b5061043261042d366004612da6565b611448565b604051610176929190613c48565b34801561044c57600080fd5b506101dc61045b366004612dc2565b6114bd565b34801561046c57600080fd5b506101dc61047b366004612da6565b6114ea565b34801561048c57600080fd5b506101dc61049b366004612fdf565b6115cd565b6000806104ae8585856115da565b6040518281529193509150600080516020613f358339815191529060200160405180910390a1601682146104e157600080fd5b60405181151581527e1c2e72360171244b3bb8cc8ddd767820edf37138ad6f129fb3574b407c307d906020015b60405180910390a1935093915050565b60008061052b84846116af565b6040518281529193509150600080516020613f358339815191529060200160405180910390a16016821461055e57600080fd5b6040516001600160a01b03821681527fc2c78c7c31baf14949e75c51df12be56edb9af523cf82839c2869bbcf13b3ecb906020015b60405180910390a19250929050565b604051631f106b4b60e21b81526001600160a01b03821660048201526000903090637c41ad2c90602401602060405180830381600087803b1580156105e657600080fd5b505af11580156105fa573d6000803e3d6000fd5b505050506040513d601f19601f8201168201806040525081019061061e91906131c3565b9050600080516020613f358339815191528160405161063f91815260200190565b60405180910390a16016811461065457600080fd5b604051600181527f0c9c765845f4d139956bb8fc8decb2eec6093c9c608b809641b16054b29f0e13906020015b60405180910390a1919050565b600061069a8383611777565b60070b9050600080516020613f35833981519152816040516106be91815260200190565b60405180910390a1601681146106d357600080fd5b92915050565b6040516001600160a01b03821660248201526000908190819061016790633b3bff0f60e01b906044015b60408051601f198184030181529181526020820180516001600160e01b03166001600160e01b03199094169390931790925290516107419190613a71565b6000604051808303816000865af19150503d806000811461077e576040519150601f19603f3d011682016040523d82523d6000602084013e610783565b606091505b5091509150816107945760156107a8565b808060200190518101906107a891906131db565b60030b949350505050565b60408051600380825260808201909252600091816020015b6107d361250d565b8152602001906001900390816107cb5790505090506108066000600660016040518060200160405280600081525061185a565b8160008151811061082757634e487b7160e01b600052603260045260246000fd5b602002602001018190525061084e6002600160405180602001604052806000815250611891565b8160018151811061086f57634e487b7160e01b600052603260045260246000fd5b60200260200101819052506108966003600160405180602001604052806000815250611891565b816002815181106108b757634e487b7160e01b600052603260045260246000fd5b602002602001018190525060006040518060600160405280600063ffffffff168152602001846001600160a01b03168152602001627a120063ffffffff16815250905060006040518061012001604052806001805461091590613e55565b80601f016020809104026020016040519081016040528092919081815260200182805461094190613e55565b801561098e5780601f106109635761010080835404028352916020019161098e565b820191906000526020600020905b81548152906001019060200180831161097157829003601f168201915b50505050508152602001600280546109a590613e55565b80601f01602080910402602001604051908101604052809291908181526020018280546109d190613e55565b8015610a1e5780601f106109f357610100808354040283529160200191610a1e565b820191906000526020600020905b815481529060010190602001808311610a0157829003601f168201915b50505050508152602001856001600160a01b0316815260200160038054610a4490613e55565b80601f0160208091040260200160405190810160405280929190818152602001828054610a7090613e55565b8015610abd5780601f10610a9257610100808354040283529160200191610abd565b820191906000526020600020905b815481529060010190602001808311610aa057829003601f168201915b50505091835250506001602082015260055463ffffffff1660408201526000606082018190526080820186905260a090910184905260045460065492935090918291610b0b918591906118c6565b909250905060168214610b1d57600080fd5b6040516001600160a01b03821681527f7bb17726df1f3adee8aa00ba8e8bc5d6f182af3bbf77604639cb7f008dd3b4ed9060200160405180910390a1505050505050565b6000610b6b61252c565b610b7584846119f4565b6040518281529193509150600080516020613f358339815191529060200160405180910390a160168214610ba857600080fd5b7fa516f81c528634d0fc1e993bba1d227231b4bd6d1beb72d33b056a6199c0f988816040516105939190613cd4565b6000610be4848484611ae1565b9050600080516020613f3583398151915281604051610c0591815260200190565b60405180910390a160168114610c1a57600080fd5b9392505050565b600080610c2f858585611bc1565b6040518281529193509150600080516020613f358339815191529060200160405180910390a160168214610c6257600080fd5b6040518181527f25b6684a7e8fe1b676e9c39c8dd65034fbafea906d3bdfd97bf748b7b55e14c89060200161050e565b6000610c9c612567565b610ca583611c94565b6040518281529193509150600080516020613f358339815191529060200160405180910390a160168214610cd857600080fd5b7f476a9a9b28e2717d55288b2ae3c48a72aac52b11f8bd855017c9d41d9fc1896481604051610d079190613c89565b60405180910390a1915091565b600080610d218484611d64565b60405160079290920b80835293509150600080516020613f358339815191529060200160405180910390a160168214610d5957600080fd5b60405181151581527f59800d968fcce138300a0019410b4b75041610d65b3cdc5f31656b03ed14912e90602001610593565b6000610d9985858585611e2f565b9050600080516020613f3583398151915281604051610dba91815260200190565b60405180910390a160168114610dcf57600080fd5b949350505050565b6040516001600160a01b03821660248201526000908190819061016790631f106b4b60e21b90604401610703565b600061069a8383611f17565b6000806060610e21868686611f4d565b6040518381529295509093509150600080516020613f358339815191529060200160405180910390a160168314610e5757600080fd5b7feff23992f47b3c101679f8b4dc9d3e242c903909dba4a453f2b2341ad463b0e28282604051610e88929190613cfa565b60405180910390a193509350939050565b60408051600480825260a08201909252600091816020015b610eb961250d565b815260200190600190039081610eb1579050509050610eec6000600660016040518060200160405280600081525061185a565b81600081518110610f0d57634e487b7160e01b600052603260045260246000fd5b6020026020010181905250610f346004600160405180602001604052806000815250611891565b81600181518110610f5557634e487b7160e01b600052603260045260246000fd5b6020026020010181905250610f7c6002600160405180602001604052806000815250611891565b81600281518110610f9d57634e487b7160e01b600052603260045260246000fd5b6020026020010181905250610fc46003600160405180602001604052806000815250611891565b81600381518110610fe557634e487b7160e01b600052603260045260246000fd5b602002602001018190525060006040518060600160405280600063ffffffff168152602001846001600160a01b03168152602001627a120063ffffffff16815250905060006040518061012001604052806001805461104390613e55565b80601f016020809104026020016040519081016040528092919081815260200182805461106f90613e55565b80156110bc5780601f10611091576101008083540402835291602001916110bc565b820191906000526020600020905b81548152906001019060200180831161109f57829003601f168201915b50505050508152602001600280546110d390613e55565b80601f01602080910402602001604051908101604052809291908181526020018280546110ff90613e55565b801561114c5780601f106111215761010080835404028352916020019161114c565b820191906000526020600020905b81548152906001019060200180831161112f57829003601f168201915b50505050508152602001856001600160a01b031681526020016003805461117290613e55565b80601f016020809104026020016040519081016040528092919081815260200182805461119e90613e55565b80156111eb5780601f106111c0576101008083540402835291602001916111eb565b820191906000526020600020905b8154815290600101906020018083116111ce57829003601f168201915b50505091835250506001602082015260055463ffffffff1660408201526000606082018190526080820186905260a090910184905290915080610b0b8361204b565b6000610be4848484612161565b6040805160008082526020820190925281908161127f565b60408051606081018252600080825260208083018290529282015282526000199092019101816112525790505b50905060006040518060400160405280336001600160a01b03168152602001856112a890613e90565b600790810b9091526040805180820182526001600160a01b038a1681529187900b602083015280516002808252606082019092529293509091600091816020015b60408051808201909152600080825260208201528152602001906001900390816112e9579050509050828160008151811061133457634e487b7160e01b600052603260045260246000fd5b6020026020010181905250818160018151811061136157634e487b7160e01b600052603260045260246000fd5b602090810291909101810191909152604080516060810182526001600160a01b038a16815291820183905281810186905280516001808252818301909252600091816020015b6113d4604051806060016040528060006001600160a01b0316815260200160608152602001606081525090565b8152602001906001900390816113a7579050509050818160008151811061140b57634e487b7160e01b600052603260045260246000fd5b602002602001018190525061141f816121a3565b96506016871461142e57600080fd5b5050505050509392505050565b6000610be48484846121cd565b6000611452612587565b61145b8361228d565b6040518281529193509150600080516020613f358339815191529060200160405180910390a16016821461148e57600080fd5b7f528c7dcea75f0c9e110a038e50647cd6a70ac06d331399b77dd9a80f903ebc1681604051610d079190613ce7565b60006114c9838361235d565b9050600080516020613f35833981519152816040516106be91815260200190565b604051633b3bff0f60e01b81526001600160a01b03821660048201526000903090633b3bff0f90602401602060405180830381600087803b15801561152e57600080fd5b505af1158015611542573d6000803e3d6000fd5b505050506040513d601f19601f8201168201806040525081019061156691906131c3565b9050600080516020613f358339815191528160405161158791815260200190565b60405180910390a16016811461159c57600080fd5b604051600181527f319ab7084208e4afa38c6e6ff7aea9587439f2e4700746f4c7d425fea17426d290602001610681565b6000610be4848484612393565b604080516001600160a01b0385811660248301528481166044830152831660648083019190915282518083039091018152608490910182526020810180516001600160e01b031663f49f40db60e01b179052905160009182918291610167916116439190613a71565b6000604051808303816000865af19150503d8060008114611680576040519150601f19603f3d011682016040523d82523d6000602084013e611685565b606091505b509150508080602001905181019061169d9190613220565b60039190910b97909650945050505050565b604080516001600160a01b0384166024820152604480820184905282518083039091018152606490910182526020810180516001600160e01b03166304c791b360e11b1790529051600091829182916101679161170c9190613a71565b6000604051808303816000865af19150503d8060008114611749576040519150601f19603f3d011682016040523d82523d6000602084013e61174e565b606091505b509150508080602001905181019061176691906131f5565b60039190910b969095509350505050565b6040516001600160a01b0383811660248301528216604482015260009081908190610167906352f9138760e01b906064015b60408051601f198184030181529181526020820180516001600160e01b03166001600160e01b03199094169390931790925290516117e79190613a71565b6000604051808303816000865af19150503d8060008114611824576040519150601f19603f3d011682016040523d82523d6000602084013e611829565b606091505b50915091508161183a57601561184e565b8080602001905181019061184e91906131db565b60030b95945050505050565b61186261250d565b604051806040016040528061187787876123d0565b815260200161188685856123e9565b905295945050505050565b61189961250d565b60405180604001604052806118ad8661247b565b81526020016118bc85856123e9565b9052949350505050565b600080848061010001516000015163ffffffff1660001480156118f657506101008101516040015163ffffffff16155b1561190c576101008101516276a7006040909101525b6000806101676001600160a01b031634637812a04b60e01b8a8a8a60405160240161193993929190613caf565b60408051601f198184030181529181526020820180516001600160e01b03166001600160e01b03199094169390931790925290516119779190613a71565b60006040518083038185875af1925050503d80600081146119b4576040519150601f19603f3d011682016040523d82523d6000602084013e6119b9565b606091505b5091509150816119cc57601560006119e0565b808060200190518101906119e091906131f5565b60039190910b999098509650505050505050565b60006119fe61252c565b604080516001600160a01b0386166024820152600785900b60448083019190915282518083039091018152606490910182526020810180516001600160e01b031663050fc3b560e31b1790529051600091829161016791611a5e91613a71565b6000604051808303816000865af19150503d8060008114611a9b576040519150601f19603f3d011682016040523d82523d6000602084013e611aa0565b606091505b5091509150611aad61252c565b82611aba57601581611ace565b81806020019051810190611ace91906132f2565b60039190910b9890975095505050505050565b60008060006101676001600160a01b031663f7f38e2660e01b878787604051602401611b0f93929190613a8d565b60408051601f198184030181529181526020820180516001600160e01b03166001600160e01b0319909416939093179092529051611b4d9190613a71565b6000604051808303816000865af19150503d8060008114611b8a576040519150601f19603f3d011682016040523d82523d6000602084013e611b8f565b606091505b509150915081611ba0576015611bb4565b80806020019051810190611bb491906131db565b60030b9695505050505050565b604080516001600160a01b0385811660248301528481166044830152831660648083019190915282518083039091018152608490910182526020810180516001600160e01b031663927da10560e01b179052905160009182918291829161016791611c2b91613a71565b6000604051808303816000865af19150503d8060008114611c68576040519150601f19603f3d011682016040523d82523d6000602084013e611c6d565b606091505b509150915081611c805760156000611ace565b80806020019051810190611ace919061341f565b6000611c9e612567565b604080516001600160a01b03851660248083019190915282518083039091018152604490910182526020810180516001600160e01b0316633f28a19b60e01b1790529051600091829161016791611cf491613a71565b6000604051808303816000865af19150503d8060008114611d31576040519150601f19603f3d011682016040523d82523d6000602084013e611d36565b606091505b5091509150611d43612567565b82611d505760158161169d565b8180602001905181019061169d919061324b565b604080516001600160a01b038481166024830152831660448083019190915282518083039091018152606490910182526020810180516001600160e01b03166346de0fb160e01b179052905160009182918291829161016791611dc691613a71565b6000604051808303816000865af19150503d8060008114611e03576040519150601f19603f3d011682016040523d82523d6000602084013e611e08565b606091505b509150915081611e1b576015600061169d565b8080602001905181019061169d9190613220565b604080516001600160a01b038681166024830152858116604483015284166064820152600783900b6084808301919091528251808303909101815260a490910182526020810180516001600160e01b0316635cfc901160e01b17905290516000918291829161016791611ea29190613a71565b6000604051808303816000865af19150503d8060008114611edf576040519150601f19603f3d011682016040523d82523d6000602084013e611ee4565b606091505b509150915081611ef5576015611f09565b80806020019051810190611f0991906131db565b60030b979650505050505050565b6040516001600160a01b0383811660248301528216604482015260009081908190610167906316e3e16160e21b906064016117a9565b60008060606000806101676001600160a01b031663278e0b8860e01b898989604051602401611f7e93929190613ac2565b60408051601f198184030181529181526020820180516001600160e01b03166001600160e01b0319909416939093179092529051611fbc9190613a71565b6000604051808303816000865af19150503d8060008114611ff9576040519150601f19603f3d011682016040523d82523d6000602084013e611ffe565b606091505b509150915081612021576040805160008082526020820190925260159190612035565b80806020019051810190612035919061344a565b60039290920b9a90995090975095505050505050565b600080828061010001516000015163ffffffff16600014801561207b57506101008101516040015163ffffffff16155b15612091576101008101516276a7006040909101525b6000806101676001600160a01b031634639dc711e060e01b886040516024016120ba9190613c9c565b60408051601f198184030181529181526020820180516001600160e01b03166001600160e01b03199094169390931790925290516120f89190613a71565b60006040518083038185875af1925050503d8060008114612135576040519150601f19603f3d011682016040523d82523d6000602084013e61213a565b606091505b50915091508161214d576015600061169d565b8080602001905181019061169d91906131f5565b6040516001600160a01b0384811660248301528316604482015263ffffffff821660648201526000908190819061016790639790686d60e01b90608401611b0f565b60008060006101676001600160a01b031663189a554c60e01b856040516024016107039190613b43565b604080516001600160a01b0385811660248301528416604482015282151560648083019190915282518083039091018152608490910182526020810180516001600160e01b0316631b3b02e560e11b179052905160009182916101679161223391613a71565b6000604051808303816000865af19150503d8060008114612270576040519150601f19603f3d011682016040523d82523d6000602084013e612275565b606091505b509150508080602001905181019061184e91906131db565b6000612297612587565b604080516001600160a01b03851660248083019190915282518083039091018152604490910182526020810180516001600160e01b0316631f69565f60e01b17905290516000918291610167916122ed91613a71565b6000604051808303816000865af19150503d806000811461232a576040519150601f19603f3d011682016040523d82523d6000602084013e61232f565b606091505b509150915061233c612587565b826123495760158161169d565b8180602001905181019061169d91906133d4565b6040516001600160a01b03838116602483015282166044820152600090819081906101679063248a35ef60e11b906064016117a9565b6040516001600160a01b0384811660248301528316604482015260648101829052600090819081906101679063e1f21c6760e01b90608401611b0f565b6000600160ff84161b9050600160ff83161b8117610c1a565b6123f1612644565b8260ff166001141561240657600181526106d3565b8260ff1660021415612428576000546001600160a01b031660208201526106d3565b8260ff166003141561244057604081018290526106d3565b8260ff166004141561245857606081018290526106d3565b8260ff16600514156106d3576000546001600160a01b0316608082015292915050565b600060ff821661248d57506001919050565b8160ff16600114156124a157506002919050565b8160ff16600214156124b557506004919050565b8160ff16600314156124c957506008919050565b8160ff16600414156124dd57506010919050565b8160ff16600514156124f157506020919050565b8160ff166006141561250557506040919050565b506000919050565b604051806040016040528060008152602001612527612644565b905290565b6040518060c0016040528061253f612587565b8152600060208201819052604082018190526060808301829052608083015260a09091015290565b604051806040016040528061257a612587565b8152600060209091015290565b60408051610240810182526060610120820181815261014083018290526000610160840181905261018084018390526101a084018190526101c084018190526101e084018190526102008401839052845192830185528083526020830181905293820193909352610220820152908190815260200160006001600160401b03168152602001600015158152602001600015158152602001600015158152602001606081526020016060815260200160608152602001606081525090565b6040518060a0016040528060001515815260200160006001600160a01b03168152602001606081526020016060815260200160006001600160a01b031681525090565b805161269281613ed8565b919050565b600082601f8301126126a7578081fd5b815160206126bc6126b783613ddb565b613dab565b8281528181019085830160a0808602880185018910156126da578687fd5b865b868110156127635781838b0312156126f2578788fd5b6126fa613d1c565b835161270581613f0d565b81528387015161271481613ed8565b8188015260408481015161272781613ef0565b9082015260608481015161273a81613ef0565b9082015260808481015161274d81613ed8565b90820152855293850193918101916001016126dc565b509198975050505050505050565b600082601f830112612781578081fd5b815160206127916126b783613ddb565b8281528181019085830160c0808602880185018910156127af578687fd5b865b868110156127635781838b0312156127c7578788fd5b6127cf613d44565b83516127da81613f0d565b8152838701516127e981613f0d565b818801526040848101516127fc81613f0d565b9082015260608481015161280f81613f0d565b9082015260808481015161282281613ef0565b9082015260a08481015161283581613ed8565b90820152855293850193918101916001016127b1565b600082601f83011261285b578081fd5b8151602061286b6126b783613ddb565b8281528181019085830160c080860288018501891015612889578687fd5b865b868110156127635781838b0312156128a1578788fd5b6128a9613d44565b83516128b481613f0d565b8152838701516128c381613f0d565b818801526040848101516128d681613f0d565b908201526060848101516128e981613ed8565b908201526080848101516128fc81613ef0565b9082015260a08481015161290f81613ed8565b908201528552938501939181019160010161288b565b600082601f830112612935578081fd5b815160206129456126b783613ddb565b80838252828201915082860187848660051b8901011115612964578586fd5b855b85811015612a705781516001600160401b0380821115612984578889fd5b90890190601f196040838d038201121561299c57898afd5b6129a4613d66565b8884015181526040840151838111156129bb578b8cfd5b939093019260a0848e03830112156129d1578a8bfd5b6129d9613d1c565b9150888401516129e881613ef0565b82526129f660408501612687565b89830152606084015183811115612a0b578b8cfd5b612a198e8b83880101612a88565b604084015250608084015183811115612a30578b8cfd5b612a3e8e8b83880101612a88565b606084015250612a5060a08501612687565b608083015280890191909152865250509284019290840190600101612966565b5090979650505050505050565b805161269281613ef0565b600082601f830112612a98578081fd5b8151612aa66126b782613dfe565b818152846020838601011115612aba578283fd5b610dcf826020830160208701613e25565b8051600381900b811461269257600080fd5b805161269281613efe565b600060608284031215612af9578081fd5b604051606081018181106001600160401b0382111715612b1b57612b1b613ec2565b80604052508091508251612b2e81613f0d565b81526020830151612b3e81613ed8565b60208201526040830151612b5181613f0d565b6040919091015292915050565b60006101608284031215612b70578081fd5b612b78613d88565b905081516001600160401b0380821115612b9157600080fd5b612b9d85838601612a88565b83526020840151915080821115612bb357600080fd5b612bbf85838601612a88565b6020840152612bd060408501612687565b60408401526060840151915080821115612be957600080fd5b612bf585838601612a88565b6060840152612c0660808501612a7d565b6080840152612c1760a08501612d90565b60a0840152612c2860c08501612a7d565b60c084015260e0840151915080821115612c4157600080fd5b50612c4e84828501612925565b60e083015250610100612c6384828501612ae8565b9082015292915050565b60006101208284031215612c7f578081fd5b612c87613d88565b905081516001600160401b0380821115612ca057600080fd5b612cac85838601612b5e565b8352612cba60208501612d9b565b6020840152612ccb60408501612a7d565b6040840152612cdc60608501612a7d565b6060840152612ced60808501612a7d565b608084015260a0840151915080821115612d0657600080fd5b612d1285838601612697565b60a084015260c0840151915080821115612d2b57600080fd5b612d3785838601612771565b60c084015260e0840151915080821115612d5057600080fd5b612d5c8583860161284b565b60e084015261010091508184015181811115612d7757600080fd5b612d8386828701612a88565b8385015250505092915050565b805161269281613f0d565b805161269281613f1f565b600060208284031215612db7578081fd5b8135610c1a81613ed8565b60008060408385031215612dd4578081fd5b8235612ddf81613ed8565b91506020830135612def81613ed8565b809150509250929050565b600080600060608486031215612e0e578081fd5b8335612e1981613ed8565b92506020840135612e2981613ed8565b91506040840135612e3981613ed8565b809150509250925092565b60008060008060808587031215612e59578182fd5b8435612e6481613ed8565b93506020850135612e7481613ed8565b92506040850135612e8481613ed8565b91506060850135612e9481613efe565b939692955090935050565b600080600060608486031215612eb3578081fd5b8335612ebe81613ed8565b9250602084810135612ecf81613ed8565b925060408501356001600160401b03811115612ee9578283fd5b8501601f81018713612ef9578283fd5b8035612f076126b782613ddb565b8082825284820191508484018a868560051b8701011115612f26578687fd5b8694505b83851015612f51578035612f3d81613efe565b835260019490940193918501918501612f2a565b5080955050505050509250925092565b600080600060608486031215612f75578081fd5b8335612f8081613ed8565b92506020840135612f9081613ed8565b91506040840135612e3981613ef0565b600080600060608486031215612fb4578081fd5b8335612fbf81613ed8565b92506020840135612fcf81613ed8565b91506040840135612e3981613efe565b600080600060608486031215612ff3578081fd5b8335612ffe81613ed8565b9250602084013561300e81613ed8565b929592945050506040919091013590565b600080600060608486031215613033578081fd5b833561303e81613ed8565b9250602084013561304e81613ed8565b91506040840135612e3981613f0d565b60008060408385031215613070578182fd5b823561307b81613ed8565b91506020830135612def81613efe565b6000806040838503121561309d578182fd5b82356130a881613ed8565b946020939093013593505050565b6000806000606084860312156130ca578081fd5b83356130d581613ed8565b92506020848101356130e681613f1f565b925060408501356001600160401b0380821115613101578384fd5b818701915087601f830112613114578384fd5b81356131226126b782613ddb565b8082825285820191508585018b878560051b8801011115613141578788fd5b875b848110156131b15781358681111561315957898afd5b8701603f81018e1361316957898afd5b888101356131796126b782613dfe565b8181528f604083850101111561318d578b8cfd5b81604084018c8301379081018a018b90528552509287019290870190600101613143565b50508096505050505050509250925092565b6000602082840312156131d4578081fd5b5051919050565b6000602082840312156131ec578081fd5b610c1a82612acb565b60008060408385031215613207578182fd5b61321083612acb565b91506020830151612def81613ed8565b60008060408385031215613232578182fd5b61323b83612acb565b91506020830151612def81613ef0565b6000806040838503121561325d578182fd5b61326683612acb565b915060208301516001600160401b0380821115613281578283fd5b9084019060408287031215613294578283fd5b6040516040810181811083821117156132af576132af613ec2565b6040528251828111156132c0578485fd5b6132cc88828601612c6d565b825250602083015192506132df83613f0d565b8260208201528093505050509250929050565b60008060408385031215613304578182fd5b61330d83612acb565b915060208301516001600160401b0380821115613328578283fd5b9084019060c0828703121561333b578283fd5b613343613d44565b825182811115613351578485fd5b61335d88828601612c6d565b82525061336c60208401612add565b602082015261337d60408401612687565b604082015261338e60608401612add565b60608201526080830151828111156133a4578485fd5b6133b088828601612a88565b6080830152506133c260a08401612687565b60a08201528093505050509250929050565b600080604083850312156133e6578182fd5b6133ef83612acb565b915060208301516001600160401b03811115613409578182fd5b61341585828601612c6d565b9150509250929050565b60008060408385031215613431578182fd5b61343a83612acb565b9150602083015190509250929050565b60008060006060848603121561345e578081fd5b61346784612acb565b925060208085015161347881613f1f565b60408601519093506001600160401b03811115613493578283fd5b8501601f810187136134a3578283fd5b80516134b16126b782613ddb565b8082825284820191508484018a868560051b87010111156134d0578687fd5b8694505b83851015612f515780516134e781613efe565b8352600194909401939185019185016134d4565b6000815180845260208085019450808401835b8381101561352d57815160070b8752958201959082019060010161350e565b509495945050505050565b6000815180845260208085019450808401835b8381101561352d578151805163ffffffff168852838101516001600160a01b03908116858a01526040808301511515908a01526060808301511515908a0152608091820151169088015260a0909601959082019060010161354b565b6000815180845260208085019450808401835b8381101561352d578151805163ffffffff9081168952848201518116858a01526040808301518216908a01526060808301519091169089015260808082015115159089015260a0908101516001600160a01b03169088015260c090960195908201906001016135ba565b6000815180845260208085019450808401835b8381101561352d57815180516001600160a01b03908116895284820151168489015260409081015160070b9088015260609096019590820190600101613637565b6000815180845260208085019450808401835b8381101561352d578151805163ffffffff9081168952848201518116858a0152604080830151909116908901526060808201516001600160a01b03908116918a01919091526080808301511515908a015260a091820151169088015260c0909601959082019060010161368b565b600081518084526020808501808196508360051b81019150828601855b858110156137ae57828403895281516040815186528682015191508087870152815115158187015286820151606060018060a01b03808316828a015283850151935060a09250608083818b015261377060e08b01866137bb565b928601518a8403603f1901858c015292945061378c85846137bb565b9501511660c09890980197909752505098850198935090840190600101613716565b5091979650505050505050565b600081518084526137d3816020860160208601613e25565b601f01601f19169290920160200192915050565b60008151604084526137fc6040850182613991565b60209384015163ffffffff16949093019390935250919050565b6000610160825181855261382c828601826137bb565b9150506020830151848203602086015261384682826137bb565b915050604083015161386360408601826001600160a01b03169052565b506060830151848203606086015261387b82826137bb565b9150506080830151613891608086018215159052565b5060a08301516138a960a086018263ffffffff169052565b5060c08301516138bd60c086018215159052565b5060e083015184820360e08601526138d582826136f9565b61010085810151805163ffffffff9081168984015260208201516001600160a01b03166101208a015260408201511661014089015291935091505090949350505050565b6000815160c0845261392e60c0850182613991565b9050602083015160070b6020850152604083015160018060a01b038082166040870152606085015160070b606087015260808501519150858303608087015261397783836137bb565b92508060a08601511660a087015250508091505092915050565b600061012082518185526139a782860182613816565b91505060208301516139c460208601826001600160401b03169052565b5060408301516139d8604086018215159052565b5060608301516139ec606086018215159052565b506080830151613a00608086018215159052565b5060a083015184820360a0860152613a188282613538565b91505060c083015184820360c0860152613a3282826135a7565b91505060e083015184820360e0860152613a4c8282613678565b9150506101008084015185830382870152613a6783826137bb565b9695505050505050565b60008251613a83818460208701613e25565b9190910192915050565b6001600160a01b03848116825283166020820152606060408201819052600090613ab9908301846134fb565b95945050505050565b60006060820160018060a01b038616835260206001600160401b038616818501526060604085015281855180845260808601915060808160051b8701019350828701855b82811015613b3457607f19888703018452613b228683516137bb565b95509284019290840190600101613b06565b50939998505050505050505050565b60006020808301818452808551808352604092508286019150828160051b870101848801865b83811015613c0857888303603f19018552815180516001600160a01b0390811685528882015160608a870181905281519087018190526080870192918b0191908c905b80821015613bda5783518051841686528d015160070b8d860152938b0193928c019260019190910190613bac565b50505050908701518482038589015290613bf48183613624565b968901969450505090860190600101613b69565b509098975050505050505050565b828152604060208201526000610dcf60408301846137e7565b828152604060208201526000610dcf6040830184613919565b828152604060208201526000610dcf6040830184613991565b8381526001600160401b0383166020820152606060408201526000613ab960608301846134fb565b602081526000610c1a60208301846137e7565b602081526000610c1a6020830184613816565b606081526000613cc26060830186613816565b60208301949094525060400152919050565b602081526000610c1a6020830184613919565b602081526000610c1a6020830184613991565b6001600160401b0383168152604060208201526000610dcf60408301846134fb565b60405160a081016001600160401b0381118282101715613d3e57613d3e613ec2565b60405290565b60405160c081016001600160401b0381118282101715613d3e57613d3e613ec2565b604080519081016001600160401b0381118282101715613d3e57613d3e613ec2565b60405161012081016001600160401b0381118282101715613d3e57613d3e613ec2565b604051601f8201601f191681016001600160401b0381118282101715613dd357613dd3613ec2565b604052919050565b60006001600160401b03821115613df457613df4613ec2565b5060051b60200190565b60006001600160401b03821115613e1757613e17613ec2565b50601f01601f191660200190565b60005b83811015613e40578181015183820152602001613e28565b83811115613e4f576000848401525b50505050565b600181811c90821680613e6957607f821691505b60208210811415613e8a57634e487b7160e01b600052602260045260246000fd5b50919050565b60008160070b677fffffffffffffff19811415613ebb57634e487b7160e01b82526011600452602482fd5b9003919050565b634e487b7160e01b600052604160045260246000fd5b6001600160a01b0381168114613eed57600080fd5b50565b8015158114613eed57600080fd5b8060070b8114613eed57600080fd5b63ffffffff81168114613eed57600080fd5b6001600160401b0381168114613eed57600080fdfe90a5cf4cffe88b4edbb041cfc7a8a812c48a5ec30b84640fb37690875168e3aaa2646970667358221220c9fdd6179c90de244dca0759bae9ab0ec6564be16ebeaefcedc7815dc671540a64736f6c63430008040033",
  "linkReferences": {},
  "deployedLinkReferences": {}
}