{
  "_format": "hh-sol-artifact-1",
  "contractName": "BaseHTS",
  "sourceName": "contracts/BaseHTS.sol",
  "abi": [
    {
      "anonymous": false,
      "inputs": [
        {
          "indexed": false,
          "internalType": "uint256",
          "name": "amount",
          "type": "uint256"
        }
      ],
      "name": "AllowanceValue",
      "type": "event"
    },
    {
      "anonymous": false,
      "inputs": [
        {
          "indexed": false,
          "internalType": "bool",
          "name": "approved",
          "type": "bool"
        }
      ],
      "name": "Approved",
      "type": "event"
    },
    {
      "anonymous": false,
      "inputs": [
        {
          "indexed": false,
          "internalType": "address",
          "name": "approved",
          "type": "address"
        }
      ],
      "name": "ApprovedAddress",
      "type": "event"
    },
    {
      "anonymous": false,
      "inputs": [
        {
          "indexed": false,
          "internalType": "address",
          "name": "tokenAddress",
          "type": "address"
        }
      ],
      "name": "CreatedToken",
      "type": "event"
    },
    {
      "anonymous": false,
      "inputs": [
        {
          "indexed": false,
          "internalType": "bool",
          "name": "freezeStatus",
          "type": "bool"
        }
      ],
      "name": "DefaultFreezeStatusChanged",
      "type": "event"
    },
    {
      "anonymous": false,
      "inputs": [
        {
          "indexed": false,
          "internalType": "bool",
          "name": "frozen",
          "type": "bool"
        }
      ],
      "name": "Frozen",
      "type": "event"
    },
    {
      "anonymous": false,
      "inputs": [
        {
          "components": [
            {
              "components": [
                {
                  "components": [
                    {
                      "internalType": "string",
                      "name": "name",
                      "type": "string"
                    },
                    {
                      "internalType": "string",
                      "name": "symbol",
                      "type": "string"
                    },
                    {
                      "internalType": "address",
                      "name": "treasury",
                      "type": "address"
                    },
                    {
                      "internalType": "string",
                      "name": "memo",
                      "type": "string"
                    },
                    {
                      "internalType": "bool",
                      "name": "tokenSupplyType",
                      "type": "bool"
                    },
                    {
                      "internalType": "int64",
                      "name": "maxSupply",
                      "type": "int64"
                    },
                    {
                      "internalType": "bool",
                      "name": "freezeDefault",
                      "type": "bool"
                    },
                    {
                      "components": [
                        {
                          "internalType": "uint256",
                          "name": "keyType",
                          "type": "uint256"
                        },
                        {
                          "components": [
                            {
                              "internalType": "bool",
                              "name": "inheritAccountKey",
                              "type": "bool"
                            },
                            {
                              "internalType": "address",
                              "name": "contractId",
                              "type": "address"
                            },
                            {
                              "internalType": "bytes",
                              "name": "ed25519",
                              "type": "bytes"
                            },
                            {
                              "internalType": "bytes",
                              "name": "ECDSA_secp256k1",
                              "type": "bytes"
                            },
                            {
                              "internalType": "address",
                              "name": "delegatableContractId",
                              "type": "address"
                            }
                          ],
                          "internalType": "struct IHederaTokenService.KeyValue",
                          "name": "key",
                          "type": "tuple"
                        }
                      ],
                      "internalType": "struct IHederaTokenService.TokenKey[]",
                      "name": "tokenKeys",
                      "type": "tuple[]"
                    },
                    {
                      "components": [
                        {
                          "internalType": "uint32",
                          "name": "second",
                          "type": "uint32"
                        },
                        {
                          "internalType": "address",
                          "name": "autoRenewAccount",
                          "type": "address"
                        },
                        {
                          "internalType": "uint32",
                          "name": "autoRenewPeriod",
                          "type": "uint32"
                        }
                      ],
                      "internalType": "struct IHederaTokenService.Expiry",
                      "name": "expiry",
                      "type": "tuple"
                    }
                  ],
                  "internalType": "struct IHederaTokenService.HederaToken",
                  "name": "token",
                  "type": "tuple"
                },
                {
                  "internalType": "uint64",
                  "name": "totalSupply",
                  "type": "uint64"
                },
                {
                  "internalType": "bool",
                  "name": "deleted",
                  "type": "bool"
                },
                {
                  "internalType": "bool",
                  "name": "defaultKycStatus",
                  "type": "bool"
                },
                {
                  "internalType": "bool",
                  "name": "pauseStatus",
                  "type": "bool"
                },
                {
                  "components": [
                    {
                      "internalType": "uint32",
                      "name": "amount",
                      "type": "uint32"
                    },
                    {
                      "internalType": "address",
                      "name": "tokenId",
                      "type": "address"
                    },
                    {
                      "internalType": "bool",
                      "name": "useHbarsForPayment",
                      "type": "bool"
                    },
                    {
                      "internalType": "bool",
                      "name": "useCurrentTokenForPayment",
                      "type": "bool"
                    },
                    {
                      "internalType": "address",
                      "name": "feeCollector",
                      "type": "address"
                    }
                  ],
                  "internalType": "struct IHederaTokenService.FixedFee[]",
                  "name": "fixedFees",
                  "type": "tuple[]"
                },
                {
                  "components": [
                    {
                      "internalType": "uint32",
                      "name": "numerator",
                      "type": "uint32"
                    },
                    {
                      "internalType": "uint32",
                      "name": "denominator",
                      "type": "uint32"
                    },
                    {
                      "internalType": "uint32",
                      "name": "minimumAmount",
                      "type": "uint32"
                    },
                    {
                      "internalType": "uint32",
                      "name": "maximumAmount",
                      "type": "uint32"
                    },
                    {
                      "internalType": "bool",
                      "name": "netOfTransfers",
                      "type": "bool"
                    },
                    {
                      "internalType": "address",
                      "name": "feeCollector",
                      "type": "address"
                    }
                  ],
                  "internalType": "struct IHederaTokenService.FractionalFee[]",
                  "name": "fractionalFees",
                  "type": "tuple[]"
                },
                {
                  "components": [
                    {
                      "internalType": "uint32",
                      "name": "numerator",
                      "type": "uint32"
                    },
                    {
                      "internalType": "uint32",
                      "name": "denominator",
                      "type": "uint32"
                    },
                    {
                      "internalType": "uint32",
                      "name": "amount",
                      "type": "uint32"
                    },
                    {
                      "internalType": "address",
                      "name": "tokenId",
                      "type": "address"
                    },
                    {
                      "internalType": "bool",
                      "name": "useHbarsForPayment",
                      "type": "bool"
                    },
                    {
                      "internalType": "address",
                      "name": "feeCollector",
                      "type": "address"
                    }
                  ],
                  "internalType": "struct IHederaTokenService.RoyaltyFee[]",
                  "name": "royaltyFees",
                  "type": "tuple[]"
                },
                {
                  "internalType": "string",
                  "name": "ledgerId",
                  "type": "string"
                }
              ],
              "internalType": "struct IHederaTokenService.TokenInfo",
              "name": "tokenInfo",
              "type": "tuple"
            },
            {
              "internalType": "uint32",
              "name": "decimals",
              "type": "uint32"
            }
          ],
          "indexed": false,
          "internalType": "struct IHederaTokenService.FungibleTokenInfo",
          "name": "tokenInfo",
          "type": "tuple"
        }
      ],
      "name": "FungibleTokenInfo",
      "type": "event"
    },
    {
      "anonymous": false,
      "inputs": [
        {
          "indexed": false,
          "internalType": "bool",
          "name": "isToken",
          "type": "bool"
        }
      ],
      "name": "IsToken",
      "type": "event"
    },
    {
      "anonymous": false,
      "inputs": [
        {
          "indexed": false,
          "internalType": "bool",
          "name": "kycGranted",
          "type": "bool"
        }
      ],
      "name": "KycGranted",
      "type": "event"
    },
    {
      "anonymous": false,
      "inputs": [
        {
          "indexed": false,
          "internalType": "uint64",
          "name": "newTotalSupply",
          "type": "uint64"
        },
        {
          "indexed": false,
          "internalType": "int64[]",
          "name": "serialNumbers",
          "type": "int64[]"
        }
      ],
      "name": "MintedToken",
      "type": "event"
    },
    {
      "anonymous": false,
      "inputs": [
        {
          "components": [
            {
              "components": [
                {
                  "components": [
                    {
                      "internalType": "string",
                      "name": "name",
                      "type": "string"
                    },
                    {
                      "internalType": "string",
                      "name": "symbol",
                      "type": "string"
                    },
                    {
                      "internalType": "address",
                      "name": "treasury",
                      "type": "address"
                    },
                    {
                      "internalType": "string",
                      "name": "memo",
                      "type": "string"
                    },
                    {
                      "internalType": "bool",
                      "name": "tokenSupplyType",
                      "type": "bool"
                    },
                    {
                      "internalType": "int64",
                      "name": "maxSupply",
                      "type": "int64"
                    },
                    {
                      "internalType": "bool",
                      "name": "freezeDefault",
                      "type": "bool"
                    },
                    {
                      "components": [
                        {
                          "internalType": "uint256",
                          "name": "keyType",
                          "type": "uint256"
                        },
                        {
                          "components": [
                            {
                              "internalType": "bool",
                              "name": "inheritAccountKey",
                              "type": "bool"
                            },
                            {
                              "internalType": "address",
                              "name": "contractId",
                              "type": "address"
                            },
                            {
                              "internalType": "bytes",
                              "name": "ed25519",
                              "type": "bytes"
                            },
                            {
                              "internalType": "bytes",
                              "name": "ECDSA_secp256k1",
                              "type": "bytes"
                            },
                            {
                              "internalType": "address",
                              "name": "delegatableContractId",
                              "type": "address"
                            }
                          ],
                          "internalType": "struct IHederaTokenService.KeyValue",
                          "name": "key",
                          "type": "tuple"
                        }
                      ],
                      "internalType": "struct IHederaTokenService.TokenKey[]",
                      "name": "tokenKeys",
                      "type": "tuple[]"
                    },
                    {
                      "components": [
                        {
                          "internalType": "uint32",
                          "name": "second",
                          "type": "uint32"
                        },
                        {
                          "internalType": "address",
                          "name": "autoRenewAccount",
                          "type": "address"
                        },
                        {
                          "internalType": "uint32",
                          "name": "autoRenewPeriod",
                          "type": "uint32"
                        }
                      ],
                      "internalType": "struct IHederaTokenService.Expiry",
                      "name": "expiry",
                      "type": "tuple"
                    }
                  ],
                  "internalType": "struct IHederaTokenService.HederaToken",
                  "name": "token",
                  "type": "tuple"
                },
                {
                  "internalType": "uint64",
                  "name": "totalSupply",
                  "type": "uint64"
                },
                {
                  "internalType": "bool",
                  "name": "deleted",
                  "type": "bool"
                },
                {
                  "internalType": "bool",
                  "name": "defaultKycStatus",
                  "type": "bool"
                },
                {
                  "internalType": "bool",
                  "name": "pauseStatus",
                  "type": "bool"
                },
                {
                  "components": [
                    {
                      "internalType": "uint32",
                      "name": "amount",
                      "type": "uint32"
                    },
                    {
                      "internalType": "address",
                      "name": "tokenId",
                      "type": "address"
                    },
                    {
                      "internalType": "bool",
                      "name": "useHbarsForPayment",
                      "type": "bool"
                    },
                    {
                      "internalType": "bool",
                      "name": "useCurrentTokenForPayment",
                      "type": "bool"
                    },
                    {
                      "internalType": "address",
                      "name": "feeCollector",
                      "type": "address"
                    }
                  ],
                  "internalType": "struct IHederaTokenService.FixedFee[]",
                  "name": "fixedFees",
                  "type": "tuple[]"
                },
                {
                  "components": [
                    {
                      "internalType": "uint32",
                      "name": "numerator",
                      "type": "uint32"
                    },
                    {
                      "internalType": "uint32",
                      "name": "denominator",
                      "type": "uint32"
                    },
                    {
                      "internalType": "uint32",
                      "name": "minimumAmount",
                      "type": "uint32"
                    },
                    {
                      "internalType": "uint32",
                      "name": "maximumAmount",
                      "type": "uint32"
                    },
                    {
                      "internalType": "bool",
                      "name": "netOfTransfers",
                      "type": "bool"
                    },
                    {
                      "internalType": "address",
                      "name": "feeCollector",
                      "type": "address"
                    }
                  ],
                  "internalType": "struct IHederaTokenService.FractionalFee[]",
                  "name": "fractionalFees",
                  "type": "tuple[]"
                },
                {
                  "components": [
                    {
                      "internalType": "uint32",
                      "name": "numerator",
                      "type": "uint32"
                    },
                    {
                      "internalType": "uint32",
                      "name": "denominator",
                      "type": "uint32"
                    },
                    {
                      "internalType": "uint32",
                      "name": "amount",
                      "type": "uint32"
                    },
                    {
                      "internalType": "address",
                      "name": "tokenId",
                      "type": "address"
                    },
                    {
                      "internalType": "bool",
                      "name": "useHbarsForPayment",
                      "type": "bool"
                    },
                    {
                      "internalType": "address",
                      "name": "feeCollector",
                      "type": "address"
                    }
                  ],
                  "internalType": "struct IHederaTokenService.RoyaltyFee[]",
                  "name": "royaltyFees",
                  "type": "tuple[]"
                },
                {
                  "internalType": "string",
                  "name": "ledgerId",
                  "type": "string"
                }
              ],
              "internalType": "struct IHederaTokenService.TokenInfo",
              "name": "tokenInfo",
              "type": "tuple"
            },
            {
              "internalType": "int64",
              "name": "serialNumber",
              "type": "int64"
            },
            {
              "internalType": "address",
              "name": "ownerId",
              "type": "address"
            },
            {
              "internalType": "int64",
              "name": "creationTime",
              "type": "int64"
            },
            {
              "internalType": "bytes",
              "name": "metadata",
              "type": "bytes"
            },
            {
              "internalType": "address",
              "name": "spenderId",
              "type": "address"
            }
          ],
          "indexed": false,
          "internalType": "struct IHederaTokenService.NonFungibleTokenInfo",
          "name": "tokenInfo",
          "type": "tuple"
        }
      ],
      "name": "NonFungibleTokenInfo",
      "type": "event"
    },
    {
      "anonymous": false,
      "inputs": [
        {
          "indexed": false,
          "internalType": "bool",
          "name": "paused",
          "type": "bool"
        }
      ],
      "name": "PausedToken",
      "type": "event"
    },
    {
      "anonymous": false,
      "inputs": [
        {
          "indexed": false,
          "internalType": "int256",
          "name": "responseCode",
          "type": "int256"
        }
      ],
      "name": "ResponseCode",
      "type": "event"
    },
    {
      "anonymous": false,
      "inputs": [
        {
          "components": [
            {
              "internalType": "uint32",
              "name": "amount",
              "type": "uint32"
            },
            {
              "internalType": "address",
              "name": "tokenId",
              "type": "address"
            },
            {
              "internalType": "bool",
              "name": "useHbarsForPayment",
              "type": "bool"
            },
            {
              "internalType": "bool",
              "name": "useCurrentTokenForPayment",
              "type": "bool"
            },
            {
              "internalType": "address",
              "name": "feeCollector",
              "type": "address"
            }
          ],
          "indexed": false,
          "internalType": "struct IHederaTokenService.FixedFee[]",
          "name": "fixedFees",
          "type": "tuple[]"
        },
        {
          "components": [
            {
              "internalType": "uint32",
              "name": "numerator",
              "type": "uint32"
            },
            {
              "internalType": "uint32",
              "name": "denominator",
              "type": "uint32"
            },
            {
              "internalType": "uint32",
              "name": "minimumAmount",
              "type": "uint32"
            },
            {
              "internalType": "uint32",
              "name": "maximumAmount",
              "type": "uint32"
            },
            {
              "internalType": "bool",
              "name": "netOfTransfers",
              "type": "bool"
            },
            {
              "internalType": "address",
              "name": "feeCollector",
              "type": "address"
            }
          ],
          "indexed": false,
          "internalType": "struct IHederaTokenService.FractionalFee[]",
          "name": "fractionalFees",
          "type": "tuple[]"
        },
        {
          "components": [
            {
              "internalType": "uint32",
              "name": "numerator",
              "type": "uint32"
            },
            {
              "internalType": "uint32",
              "name": "denominator",
              "type": "uint32"
            },
            {
              "internalType": "uint32",
              "name": "amount",
              "type": "uint32"
            },
            {
              "internalType": "address",
              "name": "tokenId",
              "type": "address"
            },
            {
              "internalType": "bool",
              "name": "useHbarsForPayment",
              "type": "bool"
            },
            {
              "internalType": "address",
              "name": "feeCollector",
              "type": "address"
            }
          ],
          "indexed": false,
          "internalType": "struct IHederaTokenService.RoyaltyFee[]",
          "name": "royaltyFees",
          "type": "tuple[]"
        }
      ],
      "name": "TokenCustomFees",
      "type": "event"
    },
    {
      "anonymous": false,
      "inputs": [
        {
          "indexed": false,
          "internalType": "bool",
          "name": "defaultFreezeStatus",
          "type": "bool"
        }
      ],
      "name": "TokenDefaultFreezeStatus",
      "type": "event"
    },
    {
      "anonymous": false,
      "inputs": [
        {
          "indexed": false,
          "internalType": "bool",
          "name": "defaultKycStatus",
          "type": "bool"
        }
      ],
      "name": "TokenDefaultKycStatus",
      "type": "event"
    },
    {
      "anonymous": false,
      "inputs": [
        {
          "components": [
            {
              "internalType": "uint32",
              "name": "second",
              "type": "uint32"
            },
            {
              "internalType": "address",
              "name": "autoRenewAccount",
              "type": "address"
            },
            {
              "internalType": "uint32",
              "name": "autoRenewPeriod",
              "type": "uint32"
            }
          ],
          "indexed": false,
          "internalType": "struct IHederaTokenService.Expiry",
          "name": "expiryInfo",
          "type": "tuple"
        }
      ],
      "name": "TokenExpiryInfo",
      "type": "event"
    },
    {
      "anonymous": false,
      "inputs": [
        {
          "components": [
            {
              "components": [
                {
                  "internalType": "string",
                  "name": "name",
                  "type": "string"
                },
                {
                  "internalType": "string",
                  "name": "symbol",
                  "type": "string"
                },
                {
                  "internalType": "address",
                  "name": "treasury",
                  "type": "address"
                },
                {
                  "internalType": "string",
                  "name": "memo",
                  "type": "string"
                },
                {
                  "internalType": "bool",
                  "name": "tokenSupplyType",
                  "type": "bool"
                },
                {
                  "internalType": "int64",
                  "name": "maxSupply",
                  "type": "int64"
                },
                {
                  "internalType": "bool",
                  "name": "freezeDefault",
                  "type": "bool"
                },
                {
                  "components": [
                    {
                      "internalType": "uint256",
                      "name": "keyType",
                      "type": "uint256"
                    },
                    {
                      "components": [
                        {
                          "internalType": "bool",
                          "name": "inheritAccountKey",
                          "type": "bool"
                        },
                        {
                          "internalType": "address",
                          "name": "contractId",
                          "type": "address"
                        },
                        {
                          "internalType": "bytes",
                          "name": "ed25519",
                          "type": "bytes"
                        },
                        {
                          "internalType": "bytes",
                          "name": "ECDSA_secp256k1",
                          "type": "bytes"
                        },
                        {
                          "internalType": "address",
                          "name": "delegatableContractId",
                          "type": "address"
                        }
                      ],
                      "internalType": "struct IHederaTokenService.KeyValue",
                      "name": "key",
                      "type": "tuple"
                    }
                  ],
                  "internalType": "struct IHederaTokenService.TokenKey[]",
                  "name": "tokenKeys",
                  "type": "tuple[]"
                },
                {
                  "components": [
                    {
                      "internalType": "uint32",
                      "name": "second",
                      "type": "uint32"
                    },
                    {
                      "internalType": "address",
                      "name": "autoRenewAccount",
                      "type": "address"
                    },
                    {
                      "internalType": "uint32",
                      "name": "autoRenewPeriod",
                      "type": "uint32"
                    }
                  ],
                  "internalType": "struct IHederaTokenService.Expiry",
                  "name": "expiry",
                  "type": "tuple"
                }
              ],
              "internalType": "struct IHederaTokenService.HederaToken",
              "name": "token",
              "type": "tuple"
            },
            {
              "internalType": "uint64",
              "name": "totalSupply",
              "type": "uint64"
            },
            {
              "internalType": "bool",
              "name": "deleted",
              "type": "bool"
            },
            {
              "internalType": "bool",
              "name": "defaultKycStatus",
              "type": "bool"
            },
            {
              "internalType": "bool",
              "name": "pauseStatus",
              "type": "bool"
            },
            {
              "components": [
                {
                  "internalType": "uint32",
                  "name": "amount",
                  "type": "uint32"
                },
                {
                  "internalType": "address",
                  "name": "tokenId",
                  "type": "address"
                },
                {
                  "internalType": "bool",
                  "name": "useHbarsForPayment",
                  "type": "bool"
                },
                {
                  "internalType": "bool",
                  "name": "useCurrentTokenForPayment",
                  "type": "bool"
                },
                {
                  "internalType": "address",
                  "name": "feeCollector",
                  "type": "address"
                }
              ],
              "internalType": "struct IHederaTokenService.FixedFee[]",
              "name": "fixedFees",
              "type": "tuple[]"
            },
            {
              "components": [
                {
                  "internalType": "uint32",
                  "name": "numerator",
                  "type": "uint32"
                },
                {
                  "internalType": "uint32",
                  "name": "denominator",
                  "type": "uint32"
                },
                {
                  "internalType": "uint32",
                  "name": "minimumAmount",
                  "type": "uint32"
                },
                {
                  "internalType": "uint32",
                  "name": "maximumAmount",
                  "type": "uint32"
                },
                {
                  "internalType": "bool",
                  "name": "netOfTransfers",
                  "type": "bool"
                },
                {
                  "internalType": "address",
                  "name": "feeCollector",
                  "type": "address"
                }
              ],
              "internalType": "struct IHederaTokenService.FractionalFee[]",
              "name": "fractionalFees",
              "type": "tuple[]"
            },
            {
              "components": [
                {
                  "internalType": "uint32",
                  "name": "numerator",
                  "type": "uint32"
                },
                {
                  "internalType": "uint32",
                  "name": "denominator",
                  "type": "uint32"
                },
                {
                  "internalType": "uint32",
                  "name": "amount",
                  "type": "uint32"
                },
                {
                  "internalType": "address",
                  "name": "tokenId",
                  "type": "address"
                },
                {
                  "internalType": "bool",
                  "name": "useHbarsForPayment",
                  "type": "bool"
                },
                {
                  "internalType": "address",
                  "name": "feeCollector",
                  "type": "address"
                }
              ],
              "internalType": "struct IHederaTokenService.RoyaltyFee[]",
              "name": "royaltyFees",
              "type": "tuple[]"
            },
            {
              "internalType": "string",
              "name": "ledgerId",
              "type": "string"
            }
          ],
          "indexed": false,
          "internalType": "struct IHederaTokenService.TokenInfo",
          "name": "tokenInfo",
          "type": "tuple"
        }
      ],
      "name": "TokenInfo",
      "type": "event"
    },
    {
      "anonymous": false,
      "inputs": [
        {
          "indexed": false,
          "internalType": "int32",
          "name": "tokenType",
          "type": "int32"
        }
      ],
      "name": "TokenType",
      "type": "event"
    },
    {
      "anonymous": false,
      "inputs": [
        {
          "indexed": false,
          "internalType": "bool",
          "name": "unpaused",
          "type": "bool"
        }
      ],
      "name": "UnpausedToken",
      "type": "event"
    },
    {
      "inputs": [
        {
          "internalType": "address",
          "name": "token",
          "type": "address"
        },
        {
          "internalType": "address",
          "name": "owner",
          "type": "address"
        },
        {
          "internalType": "address",
          "name": "spender",
          "type": "address"
        }
      ],
      "name": "allowancePublic",
      "outputs": [
        {
          "internalType": "int256",
          "name": "responseCode",
          "type": "int256"
        },
        {
          "internalType": "uint256",
          "name": "amount",
          "type": "uint256"
        }
      ],
      "stateMutability": "nonpayable",
      "type": "function"
    },
    {
      "inputs": [
        {
          "internalType": "address",
          "name": "token",
          "type": "address"
        },
        {
          "internalType": "address",
          "name": "spender",
          "type": "address"
        },
        {
          "internalType": "uint256",
          "name": "amount",
          "type": "uint256"
        }
      ],
      "name": "approvePublic",
      "outputs": [
        {
          "internalType": "int256",
          "name": "responseCode",
          "type": "int256"
        }
      ],
      "stateMutability": "nonpayable",
      "type": "function"
    },
    {
      "inputs": [
        {
          "internalType": "address",
          "name": "account",
          "type": "address"
        },
        {
          "internalType": "address",
          "name": "token",
          "type": "address"
        }
      ],
      "name": "associateTokenPublic",
      "outputs": [
        {
          "internalType": "int256",
          "name": "responseCode",
          "type": "int256"
        }
      ],
      "stateMutability": "nonpayable",
      "type": "function"
    },
    {
      "inputs": [
        {
          "internalType": "address",
          "name": "treasury",
          "type": "address"
        }
      ],
      "name": "createFungibleTokenPublic",
      "outputs": [],
      "stateMutability": "payable",
      "type": "function"
    },
    {
      "inputs": [
        {
          "internalType": "address",
          "name": "treasury",
          "type": "address"
        },
        {
          "internalType": "address",
          "name": "fixedFeeTokenAddress",
          "type": "address"
        }
      ],
      "name": "createFungibleTokenWithCustomFeesPublic",
      "outputs": [],
      "stateMutability": "payable",
      "type": "function"
    },
    {
      "inputs": [
        {
          "internalType": "address",
          "name": "treasury",
          "type": "address"
        }
      ],
      "name": "createNonFungibleTokenPublic",
      "outputs": [],
      "stateMutability": "payable",
      "type": "function"
    },
    {
      "inputs": [
        {
          "components": [
            {
              "internalType": "address",
              "name": "token",
              "type": "address"
            },
            {
              "components": [
                {
                  "internalType": "address",
                  "name": "accountID",
                  "type": "address"
                },
                {
                  "internalType": "int64",
                  "name": "amount",
                  "type": "int64"
                }
              ],
              "internalType": "struct IHederaTokenService.AccountAmount[]",
              "name": "transfers",
              "type": "tuple[]"
            },
            {
              "components": [
                {
                  "internalType": "address",
                  "name": "senderAccountID",
                  "type": "address"
                },
                {
                  "internalType": "address",
                  "name": "receiverAccountID",
                  "type": "address"
                },
                {
                  "internalType": "int64",
                  "name": "serialNumber",
                  "type": "int64"
                }
              ],
              "internalType": "struct IHederaTokenService.NftTransfer[]",
              "name": "nftTransfers",
              "type": "tuple[]"
            }
          ],
          "internalType": "struct IHederaTokenService.TokenTransferList[]",
          "name": "tokenTransferList",
          "type": "tuple[]"
        }
      ],
      "name": "cryptoTransferPublic",
      "outputs": [
        {
          "internalType": "int256",
          "name": "responseCode",
          "type": "int256"
        }
      ],
      "stateMutability": "nonpayable",
      "type": "function"
    },
    {
      "inputs": [
        {
          "internalType": "address",
          "name": "account",
          "type": "address"
        },
        {
          "internalType": "address",
          "name": "token",
          "type": "address"
        },
        {
          "internalType": "int64",
          "name": "amount",
          "type": "int64"
        }
      ],
      "name": "cryptoTransferTokenPublic",
      "outputs": [
        {
          "internalType": "int256",
          "name": "responseCode",
          "type": "int256"
        }
      ],
      "stateMutability": "nonpayable",
      "type": "function"
    },
    {
      "inputs": [
        {
          "internalType": "address",
          "name": "token",
          "type": "address"
        }
      ],
      "name": "deleteTokenPublic",
      "outputs": [
        {
          "internalType": "int256",
          "name": "responseCode",
          "type": "int256"
        }
      ],
      "stateMutability": "nonpayable",
      "type": "function"
    },
    {
      "inputs": [
        {
          "internalType": "address",
          "name": "token",
          "type": "address"
        },
        {
          "internalType": "address",
          "name": "account",
          "type": "address"
        }
      ],
      "name": "freezeTokenPublic",
      "outputs": [
        {
          "internalType": "int256",
          "name": "responseCode",
          "type": "int256"
        }
      ],
      "stateMutability": "nonpayable",
      "type": "function"
    },
    {
      "inputs": [
        {
          "internalType": "address",
          "name": "token",
          "type": "address"
        },
        {
          "internalType": "uint256",
          "name": "serialNumber",
          "type": "uint256"
        }
      ],
      "name": "getApprovedPublic",
      "outputs": [
        {
          "internalType": "int256",
          "name": "responseCode",
          "type": "int256"
        },
        {
          "internalType": "address",
          "name": "approved",
          "type": "address"
        }
      ],
      "stateMutability": "nonpayable",
      "type": "function"
    },
    {
      "inputs": [
        {
          "internalType": "address",
          "name": "token",
          "type": "address"
        }
      ],
      "name": "getFungibleTokenInfoPublic",
      "outputs": [
        {
          "internalType": "int256",
          "name": "responseCode",
          "type": "int256"
        },
        {
          "components": [
            {
              "components": [
                {
                  "components": [
                    {
                      "internalType": "string",
                      "name": "name",
                      "type": "string"
                    },
                    {
                      "internalType": "string",
                      "name": "symbol",
                      "type": "string"
                    },
                    {
                      "internalType": "address",
                      "name": "treasury",
                      "type": "address"
                    },
                    {
                      "internalType": "string",
                      "name": "memo",
                      "type": "string"
                    },
                    {
                      "internalType": "bool",
                      "name": "tokenSupplyType",
                      "type": "bool"
                    },
                    {
                      "internalType": "int64",
                      "name": "maxSupply",
                      "type": "int64"
                    },
                    {
                      "internalType": "bool",
                      "name": "freezeDefault",
                      "type": "bool"
                    },
                    {
                      "components": [
                        {
                          "internalType": "uint256",
                          "name": "keyType",
                          "type": "uint256"
                        },
                        {
                          "components": [
                            {
                              "internalType": "bool",
                              "name": "inheritAccountKey",
                              "type": "bool"
                            },
                            {
                              "internalType": "address",
                              "name": "contractId",
                              "type": "address"
                            },
                            {
                              "internalType": "bytes",
                              "name": "ed25519",
                              "type": "bytes"
                            },
                            {
                              "internalType": "bytes",
                              "name": "ECDSA_secp256k1",
                              "type": "bytes"
                            },
                            {
                              "internalType": "address",
                              "name": "delegatableContractId",
                              "type": "address"
                            }
                          ],
                          "internalType": "struct IHederaTokenService.KeyValue",
                          "name": "key",
                          "type": "tuple"
                        }
                      ],
                      "internalType": "struct IHederaTokenService.TokenKey[]",
                      "name": "tokenKeys",
                      "type": "tuple[]"
                    },
                    {
                      "components": [
                        {
                          "internalType": "uint32",
                          "name": "second",
                          "type": "uint32"
                        },
                        {
                          "internalType": "address",
                          "name": "autoRenewAccount",
                          "type": "address"
                        },
                        {
                          "internalType": "uint32",
                          "name": "autoRenewPeriod",
                          "type": "uint32"
                        }
                      ],
                      "internalType": "struct IHederaTokenService.Expiry",
                      "name": "expiry",
                      "type": "tuple"
                    }
                  ],
                  "internalType": "struct IHederaTokenService.HederaToken",
                  "name": "token",
                  "type": "tuple"
                },
                {
                  "internalType": "uint64",
                  "name": "totalSupply",
                  "type": "uint64"
                },
                {
                  "internalType": "bool",
                  "name": "deleted",
                  "type": "bool"
                },
                {
                  "internalType": "bool",
                  "name": "defaultKycStatus",
                  "type": "bool"
                },
                {
                  "internalType": "bool",
                  "name": "pauseStatus",
                  "type": "bool"
                },
                {
                  "components": [
                    {
                      "internalType": "uint32",
                      "name": "amount",
                      "type": "uint32"
                    },
                    {
                      "internalType": "address",
                      "name": "tokenId",
                      "type": "address"
                    },
                    {
                      "internalType": "bool",
                      "name": "useHbarsForPayment",
                      "type": "bool"
                    },
                    {
                      "internalType": "bool",
                      "name": "useCurrentTokenForPayment",
                      "type": "bool"
                    },
                    {
                      "internalType": "address",
                      "name": "feeCollector",
                      "type": "address"
                    }
                  ],
                  "internalType": "struct IHederaTokenService.FixedFee[]",
                  "name": "fixedFees",
                  "type": "tuple[]"
                },
                {
                  "components": [
                    {
                      "internalType": "uint32",
                      "name": "numerator",
                      "type": "uint32"
                    },
                    {
                      "internalType": "uint32",
                      "name": "denominator",
                      "type": "uint32"
                    },
                    {
                      "internalType": "uint32",
                      "name": "minimumAmount",
                      "type": "uint32"
                    },
                    {
                      "internalType": "uint32",
                      "name": "maximumAmount",
                      "type": "uint32"
                    },
                    {
                      "internalType": "bool",
                      "name": "netOfTransfers",
                      "type": "bool"
                    },
                    {
                      "internalType": "address",
                      "name": "feeCollector",
                      "type": "address"
                    }
                  ],
                  "internalType": "struct IHederaTokenService.FractionalFee[]",
                  "name": "fractionalFees",
                  "type": "tuple[]"
                },
                {
                  "components": [
                    {
                      "internalType": "uint32",
                      "name": "numerator",
                      "type": "uint32"
                    },
                    {
                      "internalType": "uint32",
                      "name": "denominator",
                      "type": "uint32"
                    },
                    {
                      "internalType": "uint32",
                      "name": "amount",
                      "type": "uint32"
                    },
                    {
                      "internalType": "address",
                      "name": "tokenId",
                      "type": "address"
                    },
                    {
                      "internalType": "bool",
                      "name": "useHbarsForPayment",
                      "type": "bool"
                    },
                    {
                      "internalType": "address",
                      "name": "feeCollector",
                      "type": "address"
                    }
                  ],
                  "internalType": "struct IHederaTokenService.RoyaltyFee[]",
                  "name": "royaltyFees",
                  "type": "tuple[]"
                },
                {
                  "internalType": "string",
                  "name": "ledgerId",
                  "type": "string"
                }
              ],
              "internalType": "struct IHederaTokenService.TokenInfo",
              "name": "tokenInfo",
              "type": "tuple"
            },
            {
              "internalType": "uint32",
              "name": "decimals",
              "type": "uint32"
            }
          ],
          "internalType": "struct IHederaTokenService.FungibleTokenInfo",
          "name": "tokenInfo",
          "type": "tuple"
        }
      ],
      "stateMutability": "nonpayable",
      "type": "function"
    },
    {
      "inputs": [
        {
          "internalType": "address",
          "name": "token",
          "type": "address"
        },
        {
          "internalType": "int64",
          "name": "serialNumber",
          "type": "int64"
        }
      ],
      "name": "getNonFungibleTokenInfoPublic",
      "outputs": [
        {
          "internalType": "int256",
          "name": "responseCode",
          "type": "int256"
        },
        {
          "components": [
            {
              "components": [
                {
                  "components": [
                    {
                      "internalType": "string",
                      "name": "name",
                      "type": "string"
                    },
                    {
                      "internalType": "string",
                      "name": "symbol",
                      "type": "string"
                    },
                    {
                      "internalType": "address",
                      "name": "treasury",
                      "type": "address"
                    },
                    {
                      "internalType": "string",
                      "name": "memo",
                      "type": "string"
                    },
                    {
                      "internalType": "bool",
                      "name": "tokenSupplyType",
                      "type": "bool"
                    },
                    {
                      "internalType": "int64",
                      "name": "maxSupply",
                      "type": "int64"
                    },
                    {
                      "internalType": "bool",
                      "name": "freezeDefault",
                      "type": "bool"
                    },
                    {
                      "components": [
                        {
                          "internalType": "uint256",
                          "name": "keyType",
                          "type": "uint256"
                        },
                        {
                          "components": [
                            {
                              "internalType": "bool",
                              "name": "inheritAccountKey",
                              "type": "bool"
                            },
                            {
                              "internalType": "address",
                              "name": "contractId",
                              "type": "address"
                            },
                            {
                              "internalType": "bytes",
                              "name": "ed25519",
                              "type": "bytes"
                            },
                            {
                              "internalType": "bytes",
                              "name": "ECDSA_secp256k1",
                              "type": "bytes"
                            },
                            {
                              "internalType": "address",
                              "name": "delegatableContractId",
                              "type": "address"
                            }
                          ],
                          "internalType": "struct IHederaTokenService.KeyValue",
                          "name": "key",
                          "type": "tuple"
                        }
                      ],
                      "internalType": "struct IHederaTokenService.TokenKey[]",
                      "name": "tokenKeys",
                      "type": "tuple[]"
                    },
                    {
                      "components": [
                        {
                          "internalType": "uint32",
                          "name": "second",
                          "type": "uint32"
                        },
                        {
                          "internalType": "address",
                          "name": "autoRenewAccount",
                          "type": "address"
                        },
                        {
                          "internalType": "uint32",
                          "name": "autoRenewPeriod",
                          "type": "uint32"
                        }
                      ],
                      "internalType": "struct IHederaTokenService.Expiry",
                      "name": "expiry",
                      "type": "tuple"
                    }
                  ],
                  "internalType": "struct IHederaTokenService.HederaToken",
                  "name": "token",
                  "type": "tuple"
                },
                {
                  "internalType": "uint64",
                  "name": "totalSupply",
                  "type": "uint64"
                },
                {
                  "internalType": "bool",
                  "name": "deleted",
                  "type": "bool"
                },
                {
                  "internalType": "bool",
                  "name": "defaultKycStatus",
                  "type": "bool"
                },
                {
                  "internalType": "bool",
                  "name": "pauseStatus",
                  "type": "bool"
                },
                {
                  "components": [
                    {
                      "internalType": "uint32",
                      "name": "amount",
                      "type": "uint32"
                    },
                    {
                      "internalType": "address",
                      "name": "tokenId",
                      "type": "address"
                    },
                    {
                      "internalType": "bool",
                      "name": "useHbarsForPayment",
                      "type": "bool"
                    },
                    {
                      "internalType": "bool",
                      "name": "useCurrentTokenForPayment",
                      "type": "bool"
                    },
                    {
                      "internalType": "address",
                      "name": "feeCollector",
                      "type": "address"
                    }
                  ],
                  "internalType": "struct IHederaTokenService.FixedFee[]",
                  "name": "fixedFees",
                  "type": "tuple[]"
                },
                {
                  "components": [
                    {
                      "internalType": "uint32",
                      "name": "numerator",
                      "type": "uint32"
                    },
                    {
                      "internalType": "uint32",
                      "name": "denominator",
                      "type": "uint32"
                    },
                    {
                      "internalType": "uint32",
                      "name": "minimumAmount",
                      "type": "uint32"
                    },
                    {
                      "internalType": "uint32",
                      "name": "maximumAmount",
                      "type": "uint32"
                    },
                    {
                      "internalType": "bool",
                      "name": "netOfTransfers",
                      "type": "bool"
                    },
                    {
                      "internalType": "address",
                      "name": "feeCollector",
                      "type": "address"
                    }
                  ],
                  "internalType": "struct IHederaTokenService.FractionalFee[]",
                  "name": "fractionalFees",
                  "type": "tuple[]"
                },
                {
                  "components": [
                    {
                      "internalType": "uint32",
                      "name": "numerator",
                      "type": "uint32"
                    },
                    {
                      "internalType": "uint32",
                      "name": "denominator",
                      "type": "uint32"
                    },
                    {
                      "internalType": "uint32",
                      "name": "amount",
                      "type": "uint32"
                    },
                    {
                      "internalType": "address",
                      "name": "tokenId",
                      "type": "address"
                    },
                    {
                      "internalType": "bool",
                      "name": "useHbarsForPayment",
                      "type": "bool"
                    },
                    {
                      "internalType": "address",
                      "name": "feeCollector",
                      "type": "address"
                    }
                  ],
                  "internalType": "struct IHederaTokenService.RoyaltyFee[]",
                  "name": "royaltyFees",
                  "type": "tuple[]"
                },
                {
                  "internalType": "string",
                  "name": "ledgerId",
                  "type": "string"
                }
              ],
              "internalType": "struct IHederaTokenService.TokenInfo",
              "name": "tokenInfo",
              "type": "tuple"
            },
            {
              "internalType": "int64",
              "name": "serialNumber",
              "type": "int64"
            },
            {
              "internalType": "address",
              "name": "ownerId",
              "type": "address"
            },
            {
              "internalType": "int64",
              "name": "creationTime",
              "type": "int64"
            },
            {
              "internalType": "bytes",
              "name": "metadata",
              "type": "bytes"
            },
            {
              "internalType": "address",
              "name": "spenderId",
              "type": "address"
            }
          ],
          "internalType": "struct IHederaTokenService.NonFungibleTokenInfo",
          "name": "tokenInfo",
          "type": "tuple"
        }
      ],
      "stateMutability": "nonpayable",
      "type": "function"
    },
    {
      "inputs": [
        {
          "internalType": "address",
          "name": "token",
          "type": "address"
        }
      ],
      "name": "getTokenCustomFeesPublic",
      "outputs": [
        {
          "internalType": "int64",
          "name": "responseCode",
          "type": "int64"
        },
        {
          "components": [
            {
              "internalType": "uint32",
              "name": "amount",
              "type": "uint32"
            },
            {
              "internalType": "address",
              "name": "tokenId",
              "type": "address"
            },
            {
              "internalType": "bool",
              "name": "useHbarsForPayment",
              "type": "bool"
            },
            {
              "internalType": "bool",
              "name": "useCurrentTokenForPayment",
              "type": "bool"
            },
            {
              "internalType": "address",
              "name": "feeCollector",
              "type": "address"
            }
          ],
          "internalType": "struct IHederaTokenService.FixedFee[]",
          "name": "fixedFees",
          "type": "tuple[]"
        },
        {
          "components": [
            {
              "internalType": "uint32",
              "name": "numerator",
              "type": "uint32"
            },
            {
              "internalType": "uint32",
              "name": "denominator",
              "type": "uint32"
            },
            {
              "internalType": "uint32",
              "name": "minimumAmount",
              "type": "uint32"
            },
            {
              "internalType": "uint32",
              "name": "maximumAmount",
              "type": "uint32"
            },
            {
              "internalType": "bool",
              "name": "netOfTransfers",
              "type": "bool"
            },
            {
              "internalType": "address",
              "name": "feeCollector",
              "type": "address"
            }
          ],
          "internalType": "struct IHederaTokenService.FractionalFee[]",
          "name": "fractionalFees",
          "type": "tuple[]"
        },
        {
          "components": [
            {
              "internalType": "uint32",
              "name": "numerator",
              "type": "uint32"
            },
            {
              "internalType": "uint32",
              "name": "denominator",
              "type": "uint32"
            },
            {
              "internalType": "uint32",
              "name": "amount",
              "type": "uint32"
            },
            {
              "internalType": "address",
              "name": "tokenId",
              "type": "address"
            },
            {
              "internalType": "bool",
              "name": "useHbarsForPayment",
              "type": "bool"
            },
            {
              "internalType": "address",
              "name": "feeCollector",
              "type": "address"
            }
          ],
          "internalType": "struct IHederaTokenService.RoyaltyFee[]",
          "name": "royaltyFees",
          "type": "tuple[]"
        }
      ],
      "stateMutability": "nonpayable",
      "type": "function"
    },
    {
      "inputs": [
        {
          "internalType": "address",
          "name": "token",
          "type": "address"
        }
      ],
      "name": "getTokenDefaultFreezeStatusPublic",
      "outputs": [
        {
          "internalType": "int256",
          "name": "responseCode",
          "type": "int256"
        },
        {
          "internalType": "bool",
          "name": "defaultFreezeStatus",
          "type": "bool"
        }
      ],
      "stateMutability": "nonpayable",
      "type": "function"
    },
    {
      "inputs": [
        {
          "internalType": "address",
          "name": "token",
          "type": "address"
        }
      ],
      "name": "getTokenDefaultKycStatusPublic",
      "outputs": [
        {
          "internalType": "int256",
          "name": "responseCode",
          "type": "int256"
        },
        {
          "internalType": "bool",
          "name": "defaultKycStatus",
          "type": "bool"
        }
      ],
      "stateMutability": "nonpayable",
      "type": "function"
    },
    {
      "inputs": [
        {
          "internalType": "address",
          "name": "token",
          "type": "address"
        }
      ],
      "name": "getTokenExpiryInfo",
      "outputs": [
        {
          "internalType": "int256",
          "name": "responseCode",
          "type": "int256"
        },
        {
          "components": [
            {
              "internalType": "uint32",
              "name": "second",
              "type": "uint32"
            },
            {
              "internalType": "address",
              "name": "autoRenewAccount",
              "type": "address"
            },
            {
              "internalType": "uint32",
              "name": "autoRenewPeriod",
              "type": "uint32"
            }
          ],
          "internalType": "struct IHederaTokenService.Expiry",
          "name": "expiryInfo",
          "type": "tuple"
        }
      ],
      "stateMutability": "nonpayable",
      "type": "function"
    },
    {
      "inputs": [
        {
          "internalType": "address",
          "name": "token",
          "type": "address"
        }
      ],
      "name": "getTokenExpiryInfoPublic",
      "outputs": [
        {
          "internalType": "int256",
          "name": "responseCode",
          "type": "int256"
        },
        {
          "components": [
            {
              "internalType": "uint32",
              "name": "second",
              "type": "uint32"
            },
            {
              "internalType": "address",
              "name": "autoRenewAccount",
              "type": "address"
            },
            {
              "internalType": "uint32",
              "name": "autoRenewPeriod",
              "type": "uint32"
            }
          ],
          "internalType": "struct IHederaTokenService.Expiry",
          "name": "expiryInfo",
          "type": "tuple"
        }
      ],
      "stateMutability": "nonpayable",
      "type": "function"
    },
    {
      "inputs": [
        {
          "internalType": "address",
          "name": "token",
          "type": "address"
        }
      ],
      "name": "getTokenInfoPublic",
      "outputs": [
        {
          "internalType": "int256",
          "name": "responseCode",
          "type": "int256"
        },
        {
          "components": [
            {
              "components": [
                {
                  "internalType": "string",
                  "name": "name",
                  "type": "string"
                },
                {
                  "internalType": "string",
                  "name": "symbol",
                  "type": "string"
                },
                {
                  "internalType": "address",
                  "name": "treasury",
                  "type": "address"
                },
                {
                  "internalType": "string",
                  "name": "memo",
                  "type": "string"
                },
                {
                  "internalType": "bool",
                  "name": "tokenSupplyType",
                  "type": "bool"
                },
                {
                  "internalType": "int64",
                  "name": "maxSupply",
                  "type": "int64"
                },
                {
                  "internalType": "bool",
                  "name": "freezeDefault",
                  "type": "bool"
                },
                {
                  "components": [
                    {
                      "internalType": "uint256",
                      "name": "keyType",
                      "type": "uint256"
                    },
                    {
                      "components": [
                        {
                          "internalType": "bool",
                          "name": "inheritAccountKey",
                          "type": "bool"
                        },
                        {
                          "internalType": "address",
                          "name": "contractId",
                          "type": "address"
                        },
                        {
                          "internalType": "bytes",
                          "name": "ed25519",
                          "type": "bytes"
                        },
                        {
                          "internalType": "bytes",
                          "name": "ECDSA_secp256k1",
                          "type": "bytes"
                        },
                        {
                          "internalType": "address",
                          "name": "delegatableContractId",
                          "type": "address"
                        }
                      ],
                      "internalType": "struct IHederaTokenService.KeyValue",
                      "name": "key",
                      "type": "tuple"
                    }
                  ],
                  "internalType": "struct IHederaTokenService.TokenKey[]",
                  "name": "tokenKeys",
                  "type": "tuple[]"
                },
                {
                  "components": [
                    {
                      "internalType": "uint32",
                      "name": "second",
                      "type": "uint32"
                    },
                    {
                      "internalType": "address",
                      "name": "autoRenewAccount",
                      "type": "address"
                    },
                    {
                      "internalType": "uint32",
                      "name": "autoRenewPeriod",
                      "type": "uint32"
                    }
                  ],
                  "internalType": "struct IHederaTokenService.Expiry",
                  "name": "expiry",
                  "type": "tuple"
                }
              ],
              "internalType": "struct IHederaTokenService.HederaToken",
              "name": "token",
              "type": "tuple"
            },
            {
              "internalType": "uint64",
              "name": "totalSupply",
              "type": "uint64"
            },
            {
              "internalType": "bool",
              "name": "deleted",
              "type": "bool"
            },
            {
              "internalType": "bool",
              "name": "defaultKycStatus",
              "type": "bool"
            },
            {
              "internalType": "bool",
              "name": "pauseStatus",
              "type": "bool"
            },
            {
              "components": [
                {
                  "internalType": "uint32",
                  "name": "amount",
                  "type": "uint32"
                },
                {
                  "internalType": "address",
                  "name": "tokenId",
                  "type": "address"
                },
                {
                  "internalType": "bool",
                  "name": "useHbarsForPayment",
                  "type": "bool"
                },
                {
                  "internalType": "bool",
                  "name": "useCurrentTokenForPayment",
                  "type": "bool"
                },
                {
                  "internalType": "address",
                  "name": "feeCollector",
                  "type": "address"
                }
              ],
              "internalType": "struct IHederaTokenService.FixedFee[]",
              "name": "fixedFees",
              "type": "tuple[]"
            },
            {
              "components": [
                {
                  "internalType": "uint32",
                  "name": "numerator",
                  "type": "uint32"
                },
                {
                  "internalType": "uint32",
                  "name": "denominator",
                  "type": "uint32"
                },
                {
                  "internalType": "uint32",
                  "name": "minimumAmount",
                  "type": "uint32"
                },
                {
                  "internalType": "uint32",
                  "name": "maximumAmount",
                  "type": "uint32"
                },
                {
                  "internalType": "bool",
                  "name": "netOfTransfers",
                  "type": "bool"
                },
                {
                  "internalType": "address",
                  "name": "feeCollector",
                  "type": "address"
                }
              ],
              "internalType": "struct IHederaTokenService.FractionalFee[]",
              "name": "fractionalFees",
              "type": "tuple[]"
            },
            {
              "components": [
                {
                  "internalType": "uint32",
                  "name": "numerator",
                  "type": "uint32"
                },
                {
                  "internalType": "uint32",
                  "name": "denominator",
                  "type": "uint32"
                },
                {
                  "internalType": "uint32",
                  "name": "amount",
                  "type": "uint32"
                },
                {
                  "internalType": "address",
                  "name": "tokenId",
                  "type": "address"
                },
                {
                  "internalType": "bool",
                  "name": "useHbarsForPayment",
                  "type": "bool"
                },
                {
                  "internalType": "address",
                  "name": "feeCollector",
                  "type": "address"
                }
              ],
              "internalType": "struct IHederaTokenService.RoyaltyFee[]",
              "name": "royaltyFees",
              "type": "tuple[]"
            },
            {
              "internalType": "string",
              "name": "ledgerId",
              "type": "string"
            }
          ],
          "internalType": "struct IHederaTokenService.TokenInfo",
          "name": "tokenInfo",
          "type": "tuple"
        }
      ],
      "stateMutability": "nonpayable",
      "type": "function"
    },
    {
      "inputs": [
        {
          "internalType": "address",
          "name": "token",
          "type": "address"
        }
      ],
      "name": "getTokenTypePublic",
      "outputs": [
        {
          "internalType": "int64",
          "name": "responseCode",
          "type": "int64"
        },
        {
          "internalType": "int32",
          "name": "tokenType",
          "type": "int32"
        }
      ],
      "stateMutability": "nonpayable",
      "type": "function"
    },
    {
      "inputs": [
        {
          "internalType": "address",
          "name": "token",
          "type": "address"
        },
        {
          "internalType": "address",
          "name": "account",
          "type": "address"
        }
      ],
      "name": "grantTokenKyc",
      "outputs": [
        {
          "internalType": "int64",
          "name": "responseCode",
          "type": "int64"
        }
      ],
      "stateMutability": "nonpayable",
      "type": "function"
    },
    {
      "inputs": [
        {
          "internalType": "address",
          "name": "token",
          "type": "address"
        },
        {
          "internalType": "address",
          "name": "account",
          "type": "address"
        }
      ],
      "name": "grantTokenKycPublic",
      "outputs": [
        {
          "internalType": "int64",
          "name": "responseCode",
          "type": "int64"
        }
      ],
      "stateMutability": "nonpayable",
      "type": "function"
    },
    {
      "inputs": [
        {
          "internalType": "address",
          "name": "token",
          "type": "address"
        },
        {
          "internalType": "address",
          "name": "owner",
          "type": "address"
        },
        {
          "internalType": "address",
          "name": "operator",
          "type": "address"
        }
      ],
      "name": "isApprovedForAllPublic",
      "outputs": [
        {
          "internalType": "int256",
          "name": "responseCode",
          "type": "int256"
        },
        {
          "internalType": "bool",
          "name": "approved",
          "type": "bool"
        }
      ],
      "stateMutability": "nonpayable",
      "type": "function"
    },
    {
      "inputs": [
        {
          "internalType": "address",
          "name": "token",
          "type": "address"
        },
        {
          "internalType": "address",
          "name": "account",
          "type": "address"
        }
      ],
      "name": "isFrozenPublic",
      "outputs": [
        {
          "internalType": "int256",
          "name": "responseCode",
          "type": "int256"
        },
        {
          "internalType": "bool",
          "name": "frozen",
          "type": "bool"
        }
      ],
      "stateMutability": "nonpayable",
      "type": "function"
    },
    {
      "inputs": [
        {
          "internalType": "address",
          "name": "token",
          "type": "address"
        },
        {
          "internalType": "address",
          "name": "account",
          "type": "address"
        }
      ],
      "name": "isKyc",
      "outputs": [
        {
          "internalType": "int64",
          "name": "responseCode",
          "type": "int64"
        },
        {
          "internalType": "bool",
          "name": "kycGranted",
          "type": "bool"
        }
      ],
      "stateMutability": "nonpayable",
      "type": "function"
    },
    {
      "inputs": [
        {
          "internalType": "address",
          "name": "token",
          "type": "address"
        },
        {
          "internalType": "address",
          "name": "account",
          "type": "address"
        }
      ],
      "name": "isKycPublic",
      "outputs": [
        {
          "internalType": "int64",
          "name": "responseCode",
          "type": "int64"
        },
        {
          "internalType": "bool",
          "name": "kycGranted",
          "type": "bool"
        }
      ],
      "stateMutability": "nonpayable",
      "type": "function"
    },
    {
      "inputs": [
        {
          "internalType": "address",
          "name": "token",
          "type": "address"
        }
      ],
      "name": "isTokenPublic",
      "outputs": [
        {
          "internalType": "int64",
          "name": "responseCode",
          "type": "int64"
        },
        {
          "internalType": "bool",
          "name": "isTokenFlag",
          "type": "bool"
        }
      ],
      "stateMutability": "nonpayable",
      "type": "function"
    },
    {
      "inputs": [
        {
          "internalType": "address",
          "name": "token",
          "type": "address"
        },
        {
          "internalType": "uint64",
          "name": "amount",
          "type": "uint64"
        },
        {
          "internalType": "bytes[]",
          "name": "metadata",
          "type": "bytes[]"
        }
      ],
      "name": "mintTokenPublic",
      "outputs": [
        {
          "internalType": "int256",
          "name": "responseCode",
          "type": "int256"
        },
        {
          "internalType": "uint64",
          "name": "newTotalSupply",
          "type": "uint64"
        },
        {
          "internalType": "int64[]",
          "name": "serialNumbers",
          "type": "int64[]"
        }
      ],
      "stateMutability": "nonpayable",
      "type": "function"
    },
    {
      "inputs": [
        {
          "internalType": "address",
          "name": "token",
          "type": "address"
        }
      ],
      "name": "pauseToken",
      "outputs": [
        {
          "internalType": "int256",
          "name": "responseCode",
          "type": "int256"
        }
      ],
      "stateMutability": "nonpayable",
      "type": "function"
    },
    {
      "inputs": [
        {
          "internalType": "address",
          "name": "token",
          "type": "address"
        }
      ],
      "name": "pauseTokenPublic",
      "outputs": [
        {
          "internalType": "int256",
          "name": "responseCode",
          "type": "int256"
        }
      ],
      "stateMutability": "nonpayable",
      "type": "function"
    },
    {
      "inputs": [
        {
          "internalType": "address",
          "name": "token",
          "type": "address"
        },
        {
          "internalType": "address",
          "name": "account",
          "type": "address"
        }
      ],
      "name": "revokeTokenKyc",
      "outputs": [
        {
          "internalType": "int64",
          "name": "responseCode",
          "type": "int64"
        }
      ],
      "stateMutability": "nonpayable",
      "type": "function"
    },
    {
      "inputs": [
        {
          "internalType": "address",
          "name": "token",
          "type": "address"
        },
        {
          "internalType": "address",
          "name": "account",
          "type": "address"
        }
      ],
      "name": "revokeTokenKycPublic",
      "outputs": [
        {
          "internalType": "int64",
          "name": "responseCode",
          "type": "int64"
        }
      ],
      "stateMutability": "nonpayable",
      "type": "function"
    },
    {
      "inputs": [
        {
          "internalType": "address",
          "name": "token",
          "type": "address"
        },
        {
          "internalType": "address",
          "name": "operator",
          "type": "address"
        },
        {
          "internalType": "bool",
          "name": "approved",
          "type": "bool"
        }
      ],
      "name": "setApprovalForAllPublic",
      "outputs": [
        {
          "internalType": "int256",
          "name": "responseCode",
          "type": "int256"
        }
      ],
      "stateMutability": "nonpayable",
      "type": "function"
    },
    {
      "inputs": [
        {
          "internalType": "bool",
          "name": "newFreezeStatus",
          "type": "bool"
        }
      ],
      "name": "setFreezeDefaultStatus",
      "outputs": [],
      "stateMutability": "nonpayable",
      "type": "function"
    },
    {
      "inputs": [
        {
          "internalType": "address",
          "name": "token",
          "type": "address"
        },
        {
          "internalType": "address",
          "name": "sender",
          "type": "address"
        },
        {
          "internalType": "address",
          "name": "receiver",
          "type": "address"
        },
        {
          "internalType": "int64",
          "name": "serialNumber",
          "type": "int64"
        }
      ],
      "name": "transferNFTPublic",
      "outputs": [
        {
          "internalType": "int256",
          "name": "responseCode",
          "type": "int256"
        }
      ],
      "stateMutability": "nonpayable",
      "type": "function"
    },
    {
      "inputs": [
        {
          "internalType": "address",
          "name": "token",
          "type": "address"
        },
        {
          "internalType": "address",
          "name": "sender",
          "type": "address"
        },
        {
          "internalType": "address",
          "name": "receiver",
          "type": "address"
        },
        {
          "internalType": "int64",
          "name": "amount",
          "type": "int64"
        }
      ],
      "name": "transferTokenPublic",
      "outputs": [
        {
          "internalType": "int256",
          "name": "responseCode",
          "type": "int256"
        }
      ],
      "stateMutability": "nonpayable",
      "type": "function"
    },
    {
      "inputs": [
        {
          "internalType": "address",
          "name": "token",
          "type": "address"
        },
        {
          "internalType": "address",
          "name": "account",
          "type": "address"
        }
      ],
      "name": "unfreezeTokenPublic",
      "outputs": [
        {
          "internalType": "int256",
          "name": "responseCode",
          "type": "int256"
        }
      ],
      "stateMutability": "nonpayable",
      "type": "function"
    },
    {
      "inputs": [
        {
          "internalType": "address",
          "name": "token",
          "type": "address"
        }
      ],
      "name": "unpauseToken",
      "outputs": [
        {
          "internalType": "int256",
          "name": "responseCode",
          "type": "int256"
        }
      ],
      "stateMutability": "nonpayable",
      "type": "function"
    },
    {
      "inputs": [
        {
          "internalType": "address",
          "name": "token",
          "type": "address"
        }
      ],
      "name": "unpauseTokenPublic",
      "outputs": [
        {
          "internalType": "int256",
          "name": "responseCode",
          "type": "int256"
        }
      ],
      "stateMutability": "nonpayable",
      "type": "function"
    },
    {
      "inputs": [
        {
          "internalType": "address",
          "name": "token",
          "type": "address"
        },
        {
          "components": [
            {
              "internalType": "uint32",
              "name": "second",
              "type": "uint32"
            },
            {
              "internalType": "address",
              "name": "autoRenewAccount",
              "type": "address"
            },
            {
              "internalType": "uint32",
              "name": "autoRenewPeriod",
              "type": "uint32"
            }
          ],
          "internalType": "struct IHederaTokenService.Expiry",
          "name": "expiryInfo",
          "type": "tuple"
        }
      ],
      "name": "updateTokenExpiryInfo",
      "outputs": [
        {
          "internalType": "int256",
          "name": "responseCode",
          "type": "int256"
        }
      ],
      "stateMutability": "nonpayable",
      "type": "function"
    },
    {
      "inputs": [
        {
          "internalType": "address",
          "name": "token",
          "type": "address"
        },
        {
          "components": [
            {
              "internalType": "uint32",
              "name": "second",
              "type": "uint32"
            },
            {
              "internalType": "address",
              "name": "autoRenewAccount",
              "type": "address"
            },
            {
              "internalType": "uint32",
              "name": "autoRenewPeriod",
              "type": "uint32"
            }
          ],
          "internalType": "struct IHederaTokenService.Expiry",
          "name": "expiryInfo",
          "type": "tuple"
        }
      ],
      "name": "updateTokenExpiryInfoPublic",
      "outputs": [
        {
          "internalType": "int256",
          "name": "responseCode",
          "type": "int256"
        }
      ],
      "stateMutability": "nonpayable",
      "type": "function"
    },
    {
      "inputs": [
        {
          "internalType": "address",
          "name": "token",
          "type": "address"
        },
        {
          "internalType": "address",
          "name": "account",
          "type": "address"
        },
        {
          "internalType": "int64[]",
          "name": "serialNumbers",
          "type": "int64[]"
        }
      ],
      "name": "wipeTokenAccountNFTPublic",
      "outputs": [
        {
          "internalType": "int256",
          "name": "responseCode",
          "type": "int256"
        }
      ],
      "stateMutability": "nonpayable",
      "type": "function"
    },
    {
      "inputs": [
        {
          "internalType": "address",
          "name": "token",
          "type": "address"
        },
        {
          "internalType": "address",
          "name": "account",
          "type": "address"
        },
        {
          "internalType": "uint32",
          "name": "amount",
          "type": "uint32"
        }
      ],
      "name": "wipeTokenAccountPublic",
      "outputs": [
        {
          "internalType": "int256",
          "name": "responseCode",
          "type": "int256"
        }
      ],
      "stateMutability": "nonpayable",
      "type": "function"
    }
  ],
  "bytecode": "0x60c06040526009608081905268746f6b656e4e616d6560b81b60a09081526200002c9160019190620000cb565b5060408051808201909152600b8082526a1d1bdad95b94de5b589bdb60aa1b60209092019182526200006191600291620000cb565b50604080518082019091526004808252636d656d6f60e01b60209092019182526200008f91600391620000cb565b506103e860048190556005805463ffffffff1916909117905560086006556007805460ff19169055348015620000c457600080fd5b50620001ae565b828054620000d99062000171565b90600052602060002090601f016020900481019282620000fd576000855562000148565b82601f106200011857805160ff191683800117855562000148565b8280016001018555821562000148579182015b82811115620001485782518255916020019190600101906200012b565b50620001569291506200015a565b5090565b5b808211156200015657600081556001016200015b565b600181811c908216806200018657607f821691505b60208210811415620001a857634e487b7160e01b600052602260045260246000fd5b50919050565b615dfe80620001be6000396000f3fe6080604052600436106102dc5760003560e01c80638070905f11610184578063d85f74c1116100d6578063f2f38a741161008a578063f848fec411610064578063f848fec4146108b7578063f9e978bd146108d7578063fdc8321e146108f757600080fd5b8063f2f38a7414610849578063f4a01e5b14610877578063f7be34251461089757600080fd5b8063eee55ac8116100bb578063eee55ac8146107e9578063f25b120014610809578063f2c31ff41461082957600080fd5b8063d85f74c1146107b6578063d92ac248146107c957600080fd5b80639604ca6511610138578063af99c63311610112578063af99c63314610748578063c0b19b6d14610768578063d614cdb81461079657600080fd5b80639604ca65146106e8578063a345f7bd14610708578063a3ad5b551461072857600080fd5b80638ba74da0116101695780638ba74da01461067b5780638c99ef5d1461068e5780638f8d7f99146106c857600080fd5b80638070905f1461062c57806386f88d881461065b57600080fd5b80634cbdb37b1161023d5780635d2c5bad116101f15780636da6b1f0116101cb5780636da6b1f0146105cc5780637c41ad2c146105ec5780637d3e5da81461060c57600080fd5b80635d2c5bad1461054157806369837dc21461057e5780636a4dde21146105ac57600080fd5b8063593d6e8211610222578063593d6e82146104bc5780635a5e6c31146104dc5780635b9076b71461051157600080fd5b80634cbdb37b1461046e57806356af84031461049c57600080fd5b80632eecbca3116102945780633eed2c39116102795780633eed2c39146104195780634b5c6687146104395780634ba670351461044e57600080fd5b80632eecbca3146103d95780633b3bff0f146103f957600080fd5b806319db44b6116102c557806319db44b61461034e5780632b256ec81461038b5780632d73bb2e146103b957600080fd5b80630fd2601e146102e157806313c05dd814610319575b600080fd5b3480156102ed57600080fd5b506103016102fc3660046146bc565b610917565b60405160079190910b81526020015b60405180910390f35b34801561032557600080fd5b506103396103343660046146f4565b6109db565b60408051928352901515602083015201610310565b34801561035a57600080fd5b5061036e610369366004614a01565b610a59565b604080519283526001600160a01b03909116602083015201610310565b34801561039757600080fd5b506103ab6103a63660046146a0565b610add565b604051908152602001610310565b3480156103c557600080fd5b506103ab6103d43660046146bc565b610bc9565b3480156103e557600080fd5b506103016103f43660046146bc565b610c0e565b34801561040557600080fd5b506103ab6104143660046146a0565b610c45565b34801561042557600080fd5b506103396104343660046146a0565b610d1f565b61044c6104473660046146a0565b610d99565b005b34801561045a57600080fd5b506103ab61046936600461473e565b611191565b34801561047a57600080fd5b5061048e610489366004614959565b6111dd565b60405161031092919061583f565b3480156104a857600080fd5b506103ab6104b7366004614799565b611253565b3480156104c857600080fd5b506103ab6104d7366004614986565b61129d565b3480156104e857600080fd5b506104fc6104f73660046146f4565b61137a565b60408051928352602083019190915201610310565b34801561051d57600080fd5b5061053161052c3660046146a0565b6113eb565b604051610310949392919061589a565b34801561054d57600080fd5b5061056161055c3660046146a0565b61147d565b6040805160079390930b835260039190910b602083015201610310565b34801561058a57600080fd5b5061059e6105993660046146a0565b6114f8565b604051610310929190615826565b3480156105b857600080fd5b506103396105c73660046146bc565b61156d565b3480156105d857600080fd5b506103ab6105e736600461473e565b6115e4565b3480156105f857600080fd5b506103ab6106073660046146a0565b6115f2565b34801561061857600080fd5b506103ab6106273660046146bc565b611620565b34801561063857600080fd5b5061064c610647366004614a2c565b61162c565b60405161031093929190615871565b34801561066757600080fd5b506103396106763660046146a0565b6116b4565b61044c6106893660046146bc565b611725565b34801561069a57600080fd5b506106ae6106a93660046146a0565b611be1565b6040805160079390930b8352901515602083015201610310565b3480156106d457600080fd5b506103016106e33660046146bc565b611c5a565b3480156106f457600080fd5b506103ab610703366004614b3a565b611c90565b34801561071457600080fd5b506103ab6107233660046146a0565b611cc5565b34801561073457600080fd5b506106ae6107433660046146bc565b611d0b565b34801561075457600080fd5b506103016107633660046146bc565b611dfd565b34801561077457600080fd5b506107886107833660046146a0565b611e33565b6040516103109291906157ec565b3480156107a257600080fd5b506107886107b13660046146a0565b611f2a565b61044c6107c43660046146a0565b612034565b3480156107d557600080fd5b506103ab6107e436600461491a565b612412565b3480156107f557600080fd5b506103ab610804366004614986565b61241f565b34801561081557600080fd5b506103ab61082436600461485c565b6124b2565b34801561083557600080fd5b506106ae6108443660046146bc565b6124bf565b34801561085557600080fd5b506108696108643660046146a0565b61259a565b604051610310929190615858565b34801561088357600080fd5b506103ab6108923660046146bc565b61260f565b3480156108a357600080fd5b506103ab6108b23660046146a0565b61261b565b3480156108c357600080fd5b506103ab6108d23660046148da565b6126fe565b3480156108e357600080fd5b5061044c6108f2366004614baa565b61270b565b34801561090357600080fd5b506103ab61091236600461489b565b612758565b604051638f8d7f9960e01b81526001600160a01b038084166004830152821660248201526000903090638f8d7f99906044015b602060405180830381600087803b15801561096457600080fd5b505af1158015610978573d6000803e3d6000fd5b505050506040513d601f19601f8201168201806040525081019061099c9190615016565b604051600782900b8152909150600080516020615da98339815191529060200160405180910390a1600781900b6016146109d557600080fd5b92915050565b6000806109e9858585612959565b6040518281529193509150600080516020615da98339815191529060200160405180910390a160168214610a1c57600080fd5b60405181151581527e1c2e72360171244b3bb8cc8ddd767820edf37138ad6f129fb3574b407c307d906020015b60405180910390a1935093915050565b600080610a668484612a58565b6040518281529193509150600080516020615da98339815191529060200160405180910390a160168214610a9957600080fd5b6040516001600160a01b03821681527fc2c78c7c31baf14949e75c51df12be56edb9af523cf82839c2869bbcf13b3ecb906020015b60405180910390a19250929050565b604051631f106b4b60e21b81526001600160a01b03821660048201526000903090637c41ad2c90602401602060405180830381600087803b158015610b2157600080fd5b505af1158015610b35573d6000803e3d6000fd5b505050506040513d601f19601f82011682018060405250810190610b599190614bc6565b9050600080516020615da983398151915281604051610b7a91815260200190565b60405180910390a160168114610b8f57600080fd5b604051600181527f0c9c765845f4d139956bb8fc8decb2eec6093c9c608b809641b16054b29f0e13906020015b60405180910390a1919050565b6000610bd58383612b38565b60070b9050600080516020615da983398151915281604051610bf991815260200190565b60405180910390a1601681146109d557600080fd5b60405163af99c63360e01b81526001600160a01b03808416600483015282166024820152600090309063af99c6339060440161094a565b6040516001600160a01b03821660248201526000908190819061016790633b3bff0f60e01b906044015b60408051601f198184030181529181526020820180516001600160e01b03166001600160e01b0319909416939093179092529051610cad91906155c9565b6000604051808303816000865af19150503d8060008114610cea576040519150601f19603f3d011682016040523d82523d6000602084013e610cef565b606091505b509150915081610d00576015610d14565b80806020019051810190610d149190614c0a565b60030b949350505050565b600080610d2b83612b87565b6040518281529193509150600080516020615da98339815191529060200160405180910390a160168214610d5e57600080fd5b60405181151581527f6b7f3306751292f85ab4161ee2b0ac16dfc8ded13e6446ce6bd859d0a2f4c78e906020015b60405180910390a1915091565b60408051600480825260a08201909252600091816020015b610db9613d8e565b815260200190600190039081610db1579050509050610dec60006006600160405180602001604052806000815250612c84565b81600081518110610e0d57634e487b7160e01b600052603260045260246000fd5b6020026020010181905250610e3360018060405180602001604052806000815250612cbb565b81600181518110610e5457634e487b7160e01b600052603260045260246000fd5b6020026020010181905250610e7b6002600160405180602001604052806000815250612cbb565b81600281518110610e9c57634e487b7160e01b600052603260045260246000fd5b6020026020010181905250610ec36003600160405180602001604052806000815250612cbb565b81600381518110610ee457634e487b7160e01b600052603260045260246000fd5b602002602001018190525060006040518060600160405280600063ffffffff168152602001846001600160a01b03168152602001627a120063ffffffff168152509050600060405180610120016040528060018054610f4290615cc8565b80601f0160208091040260200160405190810160405280929190818152602001828054610f6e90615cc8565b8015610fbb5780601f10610f9057610100808354040283529160200191610fbb565b820191906000526020600020905b815481529060010190602001808311610f9e57829003601f168201915b5050505050815260200160028054610fd290615cc8565b80601f0160208091040260200160405190810160405280929190818152602001828054610ffe90615cc8565b801561104b5780601f106110205761010080835404028352916020019161104b565b820191906000526020600020905b81548152906001019060200180831161102e57829003601f168201915b50505050508152602001856001600160a01b031681526020016003805461107190615cc8565b80601f016020809104026020016040519081016040528092919081815260200182805461109d90615cc8565b80156110ea5780601f106110bf576101008083540402835291602001916110ea565b820191906000526020600020905b8154815290600101906020018083116110cd57829003601f168201915b50505091835250506001602082015260055463ffffffff16604082015260075460ff16151560608201526080810185905260a001839052600454600654919250600091829161113b91859190612cf0565b90925090506016821461114d57600080fd5b6040516001600160a01b03821681527f7bb17726df1f3adee8aa00ba8e8bc5d6f182af3bbf77604639cb7f008dd3b4ed9060200160405180910390a1505050505050565b600061119f85858585612e1e565b9050600080516020615da9833981519152816040516111c091815260200190565b60405180910390a1601681146111d557600080fd5b949350505050565b60006111e7613deb565b6111f18484612f2e565b6040518281529193509150600080516020615da98339815191529060200160405180910390a16016821461122457600080fd5b7fa516f81c528634d0fc1e993bba1d227231b4bd6d1beb72d33b056a6199c0f98881604051610ace91906159b7565b6000611260848484613021565b9050600080516020615da98339815191528160405161128191815260200190565b60405180910390a16016811461129657600080fd5b9392505050565b60008060006101676001600160a01b031663593d6e8260e01b86866040516024016112c992919061561a565b60408051601f198184030181529181526020820180516001600160e01b03166001600160e01b031990941693909317909252905161130791906155c9565b6000604051808303816000865af19150503d8060008114611344576040519150601f19603f3d011682016040523d82523d6000602084013e611349565b606091505b50915091508161135a57601561136e565b8080602001905181019061136e9190614c0a565b60030b95945050505050565b600080611388858585613101565b6040518281529193509150600080516020615da98339815191529060200160405180910390a1601682146113bb57600080fd5b6040518181527f25b6684a7e8fe1b676e9c39c8dd65034fbafea906d3bdfd97bf748b7b55e14c890602001610a49565b600060608060606113fb856131ed565b604051600785900b815293975091955093509150600080516020615da98339815191529060200160405180910390a1600784900b60161461143b57600080fd5b7f2efc8334b040613a552197fe34283d6ca2909c8ffae393e128424931f20c69b383838360405161146e939291906156e0565b60405180910390a19193509193565b600080611489836132ed565b604051600783900b81529193509150600080516020615da98339815191529060200160405180910390a1600782900b6016146114c457600080fd5b604051600382900b81527f182137409609594f2b12128230091c673507ea4cab315d59415d5e3f8c301ad590602001610d8c565b6000611502613e26565b61150b836133ca565b6040518281529193509150600080516020615da98339815191529060200160405180910390a16016821461153e57600080fd5b7f476a9a9b28e2717d55288b2ae3c48a72aac52b11f8bd855017c9d41d9fc1896481604051610d8c919061591b565b60008061157a84846134b3565b60405160079290920b80835293509150600080516020615da98339815191529060200160405180910390a1601682146115b257600080fd5b60405181151581527f59800d968fcce138300a0019410b4b75041610d65b3cdc5f31656b03ed14912e90602001610ace565b600061119f85858585613504565b6040516001600160a01b03821660248201526000908190819061016790631f106b4b60e21b90604401610c6f565b6000610bd58383613565565b600080606061163c8686866135b4565b6040518381529295509093509150600080516020615da98339815191529060200160405180910390a16016831461167257600080fd5b7feff23992f47b3c101679f8b4dc9d3e242c903909dba4a453f2b2341ad463b0e282826040516116a39291906159dd565b60405180910390a193509350939050565b6000806116c0836136b2565b6040518281529193509150600080516020615da98339815191529060200160405180910390a1601682146116f357600080fd5b60405181151581527f9ee19e13dfa1ba8db2502e15ff56dbecdeb0e0473323fb195473ce648030a2cd90602001610d8c565b604080516001808252818301909252600091816020015b611744613d8e565b81526020019060019003908161173c579050509050611776600080600160405180602001604052806000815250612c84565b8160008151811061179757634e487b7160e01b600052603260045260246000fd5b602002602001018190525060006040518060600160405280600063ffffffff168152602001856001600160a01b03168152602001627a120063ffffffff1681525090506000604051806101200160405280600180546117f590615cc8565b80601f016020809104026020016040519081016040528092919081815260200182805461182190615cc8565b801561186e5780601f106118435761010080835404028352916020019161186e565b820191906000526020600020905b81548152906001019060200180831161185157829003601f168201915b505050505081526020016002805461188590615cc8565b80601f01602080910402602001604051908101604052809291908181526020018280546118b190615cc8565b80156118fe5780601f106118d3576101008083540402835291602001916118fe565b820191906000526020600020905b8154815290600101906020018083116118e157829003601f168201915b50505050508152602001866001600160a01b031681526020016003805461192490615cc8565b80601f016020809104026020016040519081016040528092919081815260200182805461195090615cc8565b801561199d5780601f106119725761010080835404028352916020019161199d565b820191906000526020600020905b81548152906001019060200180831161198057829003601f168201915b505050918352505060016020820181905260055463ffffffff166040808401919091526000606084018190526080840188905260a09093018690528051828152808201909152929350909190816020015b6040805160a0810182526000808252602080830182905292820181905260608201819052608082015282526000199092019101816119ee5750506040805160a081018252600181526001600160a01b03888116602083015260009282018390526060820183905289166080820152825192935091839190611a7f57634e487b7160e01b600052603260045260246000fd5b6020908102919091010152604080516001808252818301909252600091816020015b6040805160c08101825260008082526020808301829052928201819052606082018190526080820181905260a08201528252600019909201910181611aa15750506040805160c0810182526004815260056020820152600a91810191909152601e60608201526000608082018190526001600160a01b038a1660a083015282519293509091839190611b4357634e487b7160e01b600052603260045260246000fd5b6020026020010181905250600080611b628560045460065487876136fb565b91509150600080516020615da983398151915282604051611b8591815260200190565b60405180910390a160168214611b9a57600080fd5b6040516001600160a01b03821681527f7bb17726df1f3adee8aa00ba8e8bc5d6f182af3bbf77604639cb7f008dd3b4ed9060200160405180910390a1505050505050505050565b600080611bed8361382f565b604051600783900b81529193509150600080516020615da98339815191529060200160405180910390a1600782900b601614611c2857600080fd5b60405181151581527f5080c42cc33acbcea410fa6eaa925bd878674825501981184fdd53749f8478a890602001610d8c565b6040516001600160a01b038381166024830152821660448201526000908190819061016790638f8d7f9960e01b906064016112c9565b6000611ca4611c9f8385615b33565b613878565b9050600080516020615da983398151915281604051610bf991815260200190565b6000611cd0826138a2565b9050600080516020615da983398151915281604051611cf191815260200190565b60405180910390a160168114611d0657600080fd5b919050565b604051633cb0c7fd60e21b81526001600160a01b038084166004830152821660248201526000908190309063f2c31ff4906044016040805180830381600087803b158015611d5857600080fd5b505af1158015611d6c573d6000803e3d6000fd5b505050506040513d601f19601f82011682018060405250810190611d909190615032565b604051600783900b81529193509150600080516020615da98339815191529060200160405180910390a1600782900b601614611dcb57600080fd5b60405181151581527fd24dda6928587354b65aa1a18c2eaf249bef7e5bafd2a71fac71d286f76f957f90602001610ace565b6040516001600160a01b03838116602483015282166044820152600090819081906101679063af99c63360e01b906064016112c9565b60408051606081018252600080825260208201819052918101829052604051631ac299b760e31b81526001600160a01b0384166004820152309063d614cdb890602401608060405180830381600087803b158015611e9057600080fd5b505af1158015611ea4573d6000803e3d6000fd5b505050506040513d601f19601f82011682018060405250810190611ec89190614bde565b6040518281529193509150600080516020615da98339815191529060200160405180910390a160168214611efb57600080fd5b7fa0a16bf9db2c17796faeca5af5aaeef8523f9d4c350c512cb00062ad89604f8881604051610d8c91906158e7565b604080516060810182526000808252602080830182905282840182905283516001600160a01b038616602480830191909152855180830390910181526044909101855290810180516001600160e01b0316631ac299b760e31b179052925190928391829161016791611f9c91906155c9565b6000604051808303816000865af19150503d8060008114611fd9576040519150601f19603f3d011682016040523d82523d6000602084013e611fde565b606091505b50604080516060810182526000808252602082018190529181019190915291935091508261200e57601581612022565b818060200190518101906120229190614d38565b60039190910b97909650945050505050565b60408051600580825260c08201909252600091816020015b612054613d8e565b81526020019060019003908161204c57905050905061208760006006600160405180602001604052806000815250612c84565b816000815181106120a857634e487b7160e01b600052603260045260246000fd5b60200260200101819052506120ce60018060405180602001604052806000815250612cbb565b816001815181106120ef57634e487b7160e01b600052603260045260246000fd5b60200260200101819052506121166002600160405180602001604052806000815250612cbb565b8160028151811061213757634e487b7160e01b600052603260045260246000fd5b602002602001018190525061215e6004600160405180602001604052806000815250612cbb565b8160038151811061217f57634e487b7160e01b600052603260045260246000fd5b60200260200101819052506121a66003600160405180602001604052806000815250612cbb565b816004815181106121c757634e487b7160e01b600052603260045260246000fd5b602002602001018190525060006040518060600160405280600063ffffffff168152602001846001600160a01b03168152602001627a120063ffffffff16815250905060006040518061012001604052806001805461222590615cc8565b80601f016020809104026020016040519081016040528092919081815260200182805461225190615cc8565b801561229e5780601f106122735761010080835404028352916020019161229e565b820191906000526020600020905b81548152906001019060200180831161228157829003601f168201915b50505050508152602001600280546122b590615cc8565b80601f01602080910402602001604051908101604052809291908181526020018280546122e190615cc8565b801561232e5780601f106123035761010080835404028352916020019161232e565b820191906000526020600020905b81548152906001019060200180831161231157829003601f168201915b50505050508152602001856001600160a01b031681526020016003805461235490615cc8565b80601f016020809104026020016040519081016040528092919081815260200182805461238090615cc8565b80156123cd5780601f106123a2576101008083540402835291602001916123cd565b820191906000526020600020905b8154815290600101906020018083116123b057829003601f168201915b50505091835250506001602082015260055463ffffffff16604082015260075460ff16151560608201526080810185905260a001839052905060008061113b836138e9565b60006112608484846139d3565b6040517f593d6e82000000000000000000000000000000000000000000000000000000008152600090309063593d6e8290612460908690869060040161561a565b602060405180830381600087803b15801561247a57600080fd5b505af115801561248e573d6000803e3d6000fd5b505050506040513d601f19601f82011682018060405250810190611ca49190614bc6565b6000611260848484613a2e565b6040516001600160a01b0383811660248301528216604482015260009081908190819061016790633cb0c7fd60e21b906064015b60408051601f198184030181529181526020820180516001600160e01b03166001600160e01b031990941693909317909252905161253191906155c9565b6000604051808303816000865af19150503d806000811461256e576040519150601f19603f3d011682016040523d82523d6000602084013e612573565b606091505b5091509150816125865760156000612022565b808060200190518101906120229190614ce4565b60006125a4613e46565b6125ad83613a85565b6040518281529193509150600080516020615da98339815191529060200160405180910390a1601682146125e057600080fd5b7f528c7dcea75f0c9e110a038e50647cd6a70ac06d331399b77dd9a80f903ebc1681604051610d8c91906159ca565b6000611ca48383613b6e565b604051633b3bff0f60e01b81526001600160a01b03821660048201526000903090633b3bff0f90602401602060405180830381600087803b15801561265f57600080fd5b505af1158015612673573d6000803e3d6000fd5b505050506040513d601f19601f820116820180604052508101906126979190614bc6565b9050600080516020615da9833981519152816040516126b891815260200190565b60405180910390a1601681146126cd57600080fd5b604051600181527f319ab7084208e4afa38c6e6ff7aea9587439f2e4700746f4c7d425fea17426d290602001610bbc565b6000611260848484613bbd565b6007805460ff191682151590811790915560405160ff909116151581527f457c3a16a0ebdc38e3675609957ca3fcc4490e220bd15d85d34f58e2e145cb089060200160405180910390a150565b6040805160008082526020820190925281908161279d565b60408051606081018252600080825260208083018290529282015282526000199092019101816127705790505b50905060006040518060400160405280336001600160a01b03168152602001856127c690615d03565b600790810b9091526040805180820182526001600160a01b038a1681529187900b602083015280516002808252606082019092529293509091600091816020015b6040805180820190915260008082526020820152815260200190600190039081612807579050509050828160008151811061285257634e487b7160e01b600052603260045260246000fd5b6020026020010181905250818160018151811061287f57634e487b7160e01b600052603260045260246000fd5b602090810291909101810191909152604080516060810182526001600160a01b038a16815291820183905281810186905280516001808252818301909252600091816020015b6128f2604051806060016040528060006001600160a01b0316815260200160608152602001606081525090565b8152602001906001900390816128c5579050509050818160008151811061292957634e487b7160e01b600052603260045260246000fd5b602002602001018190525061293d81613878565b96506016871461294c57600080fd5b5050505050509392505050565b604080516001600160a01b0385811660248301528481166044830152831660648083019190915282518083039091018152608490910182526020810180516001600160e01b03167ff49f40db000000000000000000000000000000000000000000000000000000001790529051600091829182918291610167916129dc916155c9565b6000604051808303816000865af19150503d8060008114612a19576040519150601f19603f3d011682016040523d82523d6000602084013e612a1e565b606091505b509150915081612a315760156000612a45565b80806020019051810190612a459190614ce4565b60039190910b9890975095505050505050565b604080516001600160a01b0384166024820152604480820184905282518083039091018152606490910182526020810180516001600160e01b03167f098f236600000000000000000000000000000000000000000000000000000000179052905160009182918291829161016791612acf916155c9565b6000604051808303816000865af19150503d8060008114612b0c576040519150601f19603f3d011682016040523d82523d6000602084013e612b11565b606091505b509150915081612b245760156000612022565b808060200190518101906120229190614c24565b6040516001600160a01b0383811660248301528216604482015260009081908190610167907f52f9138700000000000000000000000000000000000000000000000000000000906064016112c9565b6040516001600160a01b0382166024820152600090819081908190610167907fa7daa18d00000000000000000000000000000000000000000000000000000000906044015b60408051601f198184030181529181526020820180516001600160e01b03166001600160e01b0319909416939093179092529051612c0a91906155c9565b6000604051808303816000865af19150503d8060008114612c47576040519150601f19603f3d011682016040523d82523d6000602084013e612c4c565b606091505b509150915081612c5f5760156000612c73565b80806020019051810190612c739190614ce4565b60039190910b969095509350505050565b612c8c613d8e565b6040518060400160405280612ca18787613c13565b8152602001612cb08585613c2c565b905295945050505050565b612cc3613d8e565b6040518060400160405280612cd786613cfc565b8152602001612ce68585613c2c565b9052949350505050565b600080848061010001516000015163ffffffff166000148015612d2057506101008101516040015163ffffffff16155b15612d36576101008101516276a7006040909101525b6000806101676001600160a01b031634637812a04b60e01b8a8a8a604051602401612d6393929190615941565b60408051601f198184030181529181526020820180516001600160e01b03166001600160e01b0319909416939093179092529051612da191906155c9565b60006040518083038185875af1925050503d8060008114612dde576040519150601f19603f3d011682016040523d82523d6000602084013e612de3565b606091505b509150915081612df65760156000612e0a565b80806020019051810190612e0a9190614c24565b60039190910b999098509650505050505050565b6040516001600160a01b038581166024830152848116604483015283166064820152600782900b608482015260009081908190610167907feca36917000000000000000000000000000000000000000000000000000000009060a4015b60408051601f198184030181529181526020820180516001600160e01b03166001600160e01b0319909416939093179092529051612eb991906155c9565b6000604051808303816000865af19150503d8060008114612ef6576040519150601f19603f3d011682016040523d82523d6000602084013e612efb565b606091505b509150915081612f0c576015612f20565b80806020019051810190612f209190614c0a565b60030b979650505050505050565b6000612f38613deb565b604080516001600160a01b0386166024820152600785900b60448083019190915282518083039091018152606490910182526020810180516001600160e01b03167f287e1da8000000000000000000000000000000000000000000000000000000001790529051600091829161016791612fb1916155c9565b6000604051808303816000865af19150503d8060008114612fee576040519150601f19603f3d011682016040523d82523d6000602084013e612ff3565b606091505b5091509150613000613deb565b8261300d57601581612a45565b81806020019051810190612a459190614e0a565b60008060006101676001600160a01b031663f7f38e2660e01b87878760405160240161304f939291906155e5565b60408051601f198184030181529181526020820180516001600160e01b03166001600160e01b031990941693909317909252905161308d91906155c9565b6000604051808303816000865af19150503d80600081146130ca576040519150601f19603f3d011682016040523d82523d6000602084013e6130cf565b606091505b5091509150816130e05760156130f4565b808060200190518101906130f49190614c0a565b60030b9695505050505050565b604080516001600160a01b0385811660248301528481166044830152831660648083019190915282518083039091018152608490910182526020810180516001600160e01b03167f927da10500000000000000000000000000000000000000000000000000000000179052905160009182918291829161016791613184916155c9565b6000604051808303816000865af19150503d80600081146131c1576040519150601f19603f3d011682016040523d82523d6000602084013e6131c6565b606091505b5091509150816131d95760156000612a45565b80806020019051810190612a459190614f39565b604080516001600160a01b03831660248083019190915282518083039091018152604490910182526020810180516001600160e01b03167fae7611a0000000000000000000000000000000000000000000000000000000001790529051600091606091829182918591829161016791613265916155c9565b6000604051808303816000865af19150503d80600081146132a2576040519150601f19603f3d011682016040523d82523d6000602084013e6132a7565b606091505b50915091506060806060846132c05760158383836132d4565b838060200190518101906132d49190614c4f565b60039390930b9d919c509a509098509650505050505050565b604080516001600160a01b03831660248083019190915282518083039091018152604490910182526020810180516001600160e01b03167f93272baf00000000000000000000000000000000000000000000000000000000179052905160009182918291829161016791613360916155c9565b6000604051808303816000865af19150503d806000811461339d576040519150601f19603f3d011682016040523d82523d6000602084013e6133a2565b606091505b5091509150816133b6576015600019612c73565b80806020019051810190612c739190614d0f565b60006133d4613e26565b604080516001600160a01b03851660248083019190915282518083039091018152604490910182526020810180516001600160e01b03167f3f28a19b000000000000000000000000000000000000000000000000000000001790529051600091829161016791613443916155c9565b6000604051808303816000865af19150503d8060008114613480576040519150601f19603f3d011682016040523d82523d6000602084013e613485565b606091505b5091509150613492613e26565b8261349f57601581612022565b818060200190518101906120229190614d62565b6040516001600160a01b03838116602483015282166044820152600090819081908190610167907f46de0fb100000000000000000000000000000000000000000000000000000000906064016124f3565b6040516001600160a01b038581166024830152848116604483015283166064820152600782900b608482015260009081908190610167907f5cfc9011000000000000000000000000000000000000000000000000000000009060a401612e7b565b6040516001600160a01b0383811660248301528216604482015260009081908190610167907f5b8f858400000000000000000000000000000000000000000000000000000000906064016112c9565b60008060606000806101676001600160a01b031663278e0b8860e01b8989896040516024016135e59392919061565d565b60408051601f198184030181529181526020820180516001600160e01b03166001600160e01b031990941693909317909252905161362391906155c9565b6000604051808303816000865af19150503d8060008114613660576040519150601f19603f3d011682016040523d82523d6000602084013e613665565b606091505b50915091508161368857604080516000808252602082019092526015919061369c565b8080602001905181019061369c9190614f64565b60039290920b9a90995090975095505050505050565b6040516001600160a01b0382166024820152600090819081908190610167907f335e04c10000000000000000000000000000000000000000000000000000000090604401612bcc565b600080868061010001516000015163ffffffff16600014801561372b57506101008101516040015163ffffffff16155b15613741576101008101516276a7006040909101525b6000806101676001600160a01b031634634c381ae760e01b8c8c8c8c8c604051602401613772959493929190615966565b60408051601f198184030181529181526020820180516001600160e01b03166001600160e01b03199094169390931790925290516137b091906155c9565b60006040518083038185875af1925050503d80600081146137ed576040519150601f19603f3d011682016040523d82523d6000602084013e6137f2565b606091505b5091509150816138055760156000613819565b808060200190518101906138199190614c24565b60039190910b9b909a5098505050505050505050565b6040516001600160a01b0382166024820152600090819081908190610167907f19f373610000000000000000000000000000000000000000000000000000000090604401612bcc565b60008060006101676001600160a01b031663189a554c60e01b85604051602401610c6f9190615719565b6040516001600160a01b038216602482015260009081908190610167907ff069f7120000000000000000000000000000000000000000000000000000000090604401610c6f565b600080828061010001516000015163ffffffff16600014801561391957506101008101516040015163ffffffff16155b1561392f576101008101516276a7006040909101525b6000806101676001600160a01b031634639dc711e060e01b88604051602401613958919061592e565b60408051601f198184030181529181526020820180516001600160e01b03166001600160e01b031990941693909317909252905161399691906155c9565b60006040518083038185875af1925050503d8060008114612b0c576040519150601f19603f3d011682016040523d82523d6000602084013e612b11565b6040516001600160a01b0384811660248301528316604482015263ffffffff8216606482015260009081908190610167907f9790686d000000000000000000000000000000000000000000000000000000009060840161304f565b6040516001600160a01b03848116602483015283166044820152811515606482015260009081908190610167907f367605ca000000000000000000000000000000000000000000000000000000009060840161304f565b6000613a8f613e46565b604080516001600160a01b03851660248083019190915282518083039091018152604490910182526020810180516001600160e01b03167f1f69565f000000000000000000000000000000000000000000000000000000001790529051600091829161016791613afe916155c9565b6000604051808303816000865af19150503d8060008114613b3b576040519150601f19603f3d011682016040523d82523d6000602084013e613b40565b606091505b5091509150613b4d613e46565b82613b5a57601581612022565b818060200190518101906120229190614eed565b6040516001600160a01b0383811660248301528216604482015260009081908190610167907f49146bde00000000000000000000000000000000000000000000000000000000906064016112c9565b6040516001600160a01b038481166024830152831660448201526064810182905260009081908190610167907fe1f21c67000000000000000000000000000000000000000000000000000000009060840161304f565b6000600160ff84161b9050600160ff83161b8117611296565b613c726040518060a0016040528060001515815260200160006001600160a01b03168152602001606081526020016060815260200160006001600160a01b031681525090565b8260ff1660011415613c8757600181526109d5565b8260ff1660021415613ca9576000546001600160a01b031660208201526109d5565b8260ff1660031415613cc157604081018290526109d5565b8260ff1660041415613cd957606081018290526109d5565b8260ff16600514156109d5576000546001600160a01b0316608082015292915050565b600060ff8216613d0e57506001919050565b8160ff1660011415613d2257506002919050565b8160ff1660021415613d3657506004919050565b8160ff1660031415613d4a57506008919050565b8160ff1660041415613d5e57506010919050565b8160ff1660051415613d7257506020919050565b8160ff1660061415613d8657506040919050565b506000919050565b604051806040016040528060008152602001613de66040518060a0016040528060001515815260200160006001600160a01b03168152602001606081526020016060815260200160006001600160a01b031681525090565b905290565b6040518060c00160405280613dfe613e46565b8152600060208201819052604082018190526060808301829052608083015260a09091015290565b6040518060400160405280613e39613e46565b8152600060209091015290565b60408051610240810182526060610120820181815261014083018290526000610160840181905261018084018390526101a084018190526101c084018190526101e0840181905261020084018390528451928301855280835260208301819052938201939093526102208201529081908152602001600067ffffffffffffffff168152602001600015158152602001600015158152602001600015158152602001606081526020016060815260200160608152602001606081525090565b8051611d0681615d4b565b600082601f830112613f1f578081fd5b81516020613f34613f2f83615ae7565b615ab6565b8281528181019085830160a080860288018501891015613f52578687fd5b865b86811015613fdb5781838b031215613f6a578788fd5b613f72615a00565b8351613f7d81615d80565b815283870151613f8c81615d4b565b81880152604084810151613f9f81615d63565b90820152606084810151613fb281615d63565b90820152608084810151613fc581615d4b565b9082015285529385019391810191600101613f54565b509198975050505050505050565b600082601f830112613ff9578081fd5b81516020614009613f2f83615ae7565b8281528181019085830160c080860288018501891015614027578687fd5b865b86811015613fdb5781838b03121561403f578788fd5b614047615a29565b835161405281615d80565b81528387015161406181615d80565b8188015260408481015161407481615d80565b9082015260608481015161408781615d80565b9082015260808481015161409a81615d63565b9082015260a0848101516140ad81615d4b565b9082015285529385019391810191600101614029565b600082601f8301126140d3578081fd5b813560206140e3613f2f83615ae7565b82815281810190858301606080860288018501891015614101578687fd5b865b86811015613fdb5781838b031215614119578788fd5b614121615a4c565b833561412c81615d4b565b81528387013561413b81615d4b565b8188015260408481013561414e81615d71565b9082015285529385019391810191600101614103565b600082601f830112614174578081fd5b81516020614184613f2f83615ae7565b8281528181019085830160c0808602880185018910156141a2578687fd5b865b86811015613fdb5781838b0312156141ba578788fd5b6141c2615a29565b83516141cd81615d80565b8152838701516141dc81615d80565b818801526040848101516141ef81615d80565b9082015260608481015161420281615d4b565b9082015260808481015161421581615d63565b9082015260a08481015161422881615d4b565b90820152855293850193918101916001016141a4565b600082601f83011261424e578081fd5b8151602061425e613f2f83615ae7565b80838252828201915082860187848660051b890101111561427d578586fd5b855b8581101561438a57815167ffffffffffffffff8082111561429e578889fd5b90890190601f196040838d03820112156142b657898afd5b6142be615a6f565b8884015181526040840151838111156142d5578b8cfd5b939093019260a0848e03830112156142eb578a8bfd5b6142f3615a00565b91508884015161430281615d63565b825261431060408501613f04565b89830152606084015183811115614325578b8cfd5b6143338e8b838801016143a2565b60408401525060808401518381111561434a578b8cfd5b6143588e8b838801016143a2565b60608401525061436a60a08501613f04565b60808301528089019190915286525050928401929084019060010161427f565b5090979650505050505050565b8051611d0681615d63565b600082601f8301126143b2578081fd5b81516143c0613f2f82615b0b565b8181528460208386010111156143d4578283fd5b6111d5826020830160208701615c98565b8051600381900b8114611d0657600080fd5b8051611d0681615d71565b600060608284031215614413578081fd5b61441b615a4c565b9050815161442881615d80565b8152602082015161443881615d4b565b6020820152604082015161444b81615d80565b604082015292915050565b60006101608284031215614468578081fd5b614470615a92565b9050815167ffffffffffffffff8082111561448a57600080fd5b614496858386016143a2565b835260208401519150808211156144ac57600080fd5b6144b8858386016143a2565b60208401526144c960408501613f04565b604084015260608401519150808211156144e257600080fd5b6144ee858386016143a2565b60608401526144ff60808501614397565b608084015261451060a0850161468a565b60a084015261452160c08501614397565b60c084015260e084015191508082111561453a57600080fd5b506145478482850161423e565b60e08301525061010061455c84828501614402565b9082015292915050565b60006101208284031215614578578081fd5b614580615a92565b9050815167ffffffffffffffff8082111561459a57600080fd5b6145a685838601614456565b83526145b460208501614695565b60208401526145c560408501614397565b60408401526145d660608501614397565b60608401526145e760808501614397565b608084015260a084015191508082111561460057600080fd5b61460c85838601613f0f565b60a084015260c084015191508082111561462557600080fd5b61463185838601613fe9565b60c084015260e084015191508082111561464a57600080fd5b61465685838601614164565b60e08401526101009150818401518181111561467157600080fd5b61467d868287016143a2565b8385015250505092915050565b8051611d0681615d80565b8051611d0681615d92565b6000602082840312156146b1578081fd5b813561129681615d4b565b600080604083850312156146ce578081fd5b82356146d981615d4b565b915060208301356146e981615d4b565b809150509250929050565b600080600060608486031215614708578081fd5b833561471381615d4b565b9250602084013561472381615d4b565b9150604084013561473381615d4b565b809150509250925092565b60008060008060808587031215614753578182fd5b843561475e81615d4b565b9350602085013561476e81615d4b565b9250604085013561477e81615d4b565b9150606085013561478e81615d71565b939692955090935050565b6000806000606084860312156147ad578081fd5b83356147b881615d4b565b92506020848101356147c981615d4b565b9250604085013567ffffffffffffffff8111156147e4578283fd5b8501601f810187136147f4578283fd5b8035614802613f2f82615ae7565b8082825284820191508484018a868560051b8701011115614821578687fd5b8694505b8385101561484c57803561483881615d71565b835260019490940193918501918501614825565b5080955050505050509250925092565b600080600060608486031215614870578081fd5b833561487b81615d4b565b9250602084013561488b81615d4b565b9150604084013561473381615d63565b6000806000606084860312156148af578081fd5b83356148ba81615d4b565b925060208401356148ca81615d4b565b9150604084013561473381615d71565b6000806000606084860312156148ee578081fd5b83356148f981615d4b565b9250602084013561490981615d4b565b929592945050506040919091013590565b60008060006060848603121561492e578081fd5b833561493981615d4b565b9250602084013561494981615d4b565b9150604084013561473381615d80565b6000806040838503121561496b578182fd5b823561497681615d4b565b915060208301356146e981615d71565b6000808284036080811215614999578283fd5b83356149a481615d4b565b92506060601f19820112156149b7578182fd5b506149c0615a4c565b60208401356149ce81615d80565b815260408401356149de81615d4b565b602082015260608401356149f181615d80565b6040820152919491935090915050565b60008060408385031215614a13578182fd5b8235614a1e81615d4b565b946020939093013593505050565b600080600060608486031215614a40578081fd5b8335614a4b81615d4b565b9250602084810135614a5c81615d92565b9250604085013567ffffffffffffffff80821115614a78578384fd5b818701915087601f830112614a8b578384fd5b8135614a99613f2f82615ae7565b8082825285820191508585018b878560051b8801011115614ab8578788fd5b875b84811015614b2857813586811115614ad057898afd5b8701603f81018e13614ae057898afd5b88810135614af0613f2f82615b0b565b8181528f6040838501011115614b04578b8cfd5b81604084018c8301379081018a018b90528552509287019290870190600101614aba565b50508096505050505050509250925092565b60008060208385031215614b4c578182fd5b823567ffffffffffffffff80821115614b63578384fd5b818501915085601f830112614b76578384fd5b813581811115614b84578485fd5b8660208260051b8501011115614b98578485fd5b60209290920196919550909350505050565b600060208284031215614bbb578081fd5b813561129681615d63565b600060208284031215614bd7578081fd5b5051919050565b60008060808385031215614bf0578182fd5b82519150614c018460208501614402565b90509250929050565b600060208284031215614c1b578081fd5b611296826143e5565b60008060408385031215614c36578182fd5b614c3f836143e5565b915060208301516146e981615d4b565b60008060008060808587031215614c64578182fd5b614c6d856143e5565b9350602085015167ffffffffffffffff80821115614c89578384fd5b614c9588838901613f0f565b94506040870151915080821115614caa578384fd5b614cb688838901613fe9565b93506060870151915080821115614ccb578283fd5b50614cd887828801614164565b91505092959194509250565b60008060408385031215614cf6578182fd5b614cff836143e5565b915060208301516146e981615d63565b60008060408385031215614d21578182fd5b614d2a836143e5565b9150614c01602084016143e5565b60008060808385031215614d4a578182fd5b614d53836143e5565b9150614c018460208501614402565b60008060408385031215614d74578182fd5b614d7d836143e5565b9150602083015167ffffffffffffffff80821115614d99578283fd5b9084019060408287031215614dac578283fd5b604051604081018181108382111715614dc757614dc7615d35565b604052825182811115614dd8578485fd5b614de488828601614566565b82525060208301519250614df783615d80565b8260208201528093505050509250929050565b60008060408385031215614e1c578182fd5b614e25836143e5565b9150602083015167ffffffffffffffff80821115614e41578283fd5b9084019060c08287031215614e54578283fd5b614e5c615a29565b825182811115614e6a578485fd5b614e7688828601614566565b825250614e85602084016143f7565b6020820152614e9660408401613f04565b6040820152614ea7606084016143f7565b6060820152608083015182811115614ebd578485fd5b614ec9888286016143a2565b608083015250614edb60a08401613f04565b60a08201528093505050509250929050565b60008060408385031215614eff578182fd5b614f08836143e5565b9150602083015167ffffffffffffffff811115614f23578182fd5b614f2f85828601614566565b9150509250929050565b60008060408385031215614f4b578182fd5b614f54836143e5565b9150602083015190509250929050565b600080600060608486031215614f78578081fd5b614f81846143e5565b9250602080850151614f9281615d92565b604086015190935067ffffffffffffffff811115614fae578283fd5b8501601f81018713614fbe578283fd5b8051614fcc613f2f82615ae7565b8082825284820191508484018a868560051b8701011115614feb578687fd5b8694505b8385101561484c57805161500281615d71565b835260019490940193918501918501614fef565b600060208284031215615027578081fd5b815161129681615d71565b60008060408385031215615044578182fd5b825161504f81615d71565b60208401519092506146e981615d63565b6000815180845260208085019450808401835b8381101561509257815160070b87529582019590820190600101615073565b509495945050505050565b6000815180845260208085019450808401835b83811015615092578151805163ffffffff168852838101516001600160a01b03908116858a01526040808301511515908a01526060808301511515908a0152608091820151169088015260a090960195908201906001016150b0565b6000815180845260208085019450808401835b83811015615092578151805163ffffffff9081168952848201518116858a01526040808301518216908a01526060808301519091169089015260808082015115159089015260a0908101516001600160a01b03169088015260c0909601959082019060010161511f565b6000815180845260208085019450808401835b8381101561509257815180516001600160a01b03908116895284820151168489015260409081015160070b908801526060909601959082019060010161519c565b6000815180845260208085019450808401835b83811015615092578151805163ffffffff9081168952848201518116858a0152604080830151909116908901526060808201516001600160a01b03908116918a01919091526080808301511515908a015260a091820151169088015260c090960195908201906001016151f0565b6000815180845260208085019450848260051b8601828601855b8581101561438a5783830389528151604081518552868201519150808786015281511515818601528682015160606001600160a01b038083168289015283850151935060a09250608083818a01526152d360e08a0186615311565b92860151898403603f1901858b01529294506152ef8584615311565b9501511660c09790970196909652505098850198925090840190600101615278565b60008151808452615329816020860160208601615c98565b601f01601f19169290920160200192915050565b600081516040845261535260408501826154e8565b60209384015163ffffffff16949093019390935250919050565b6000610160825181855261538282860182615311565b9150506020830151848203602086015261539c8282615311565b91505060408301516153b960408601826001600160a01b03169052565b50606083015184820360608601526153d18282615311565b91505060808301516153e7608086018215159052565b5060a08301516153ff60a086018263ffffffff169052565b5060c083015161541360c086018215159052565b5060e083015184820360e086015261542b828261525e565b61010085810151805163ffffffff9081168984015260208201516001600160a01b03166101208a015260408201511661014089015291935091505090949350505050565b6000815160c0845261548460c08501826154e8565b9050602083015160070b602085015260408301516001600160a01b038082166040870152606085015160070b60608701526080850151915085830360808701526154ce8383615311565b92508060a08601511660a087015250508091505092915050565b600061012082518185526154fe8286018261536c565b915050602083015161551c602086018267ffffffffffffffff169052565b506040830151615530604086018215159052565b506060830151615544606086018215159052565b506080830151615558608086018215159052565b5060a083015184820360a0860152615570828261509d565b91505060c083015184820360c086015261558a828261510c565b91505060e083015184820360e08601526155a482826151dd565b91505061010080840151858303828701526155bf8382615311565b9695505050505050565b600082516155db818460208701615c98565b9190910192915050565b60006001600160a01b038086168352808516602084015250606060408301526156116060830184615060565b95945050505050565b6001600160a01b0383168152608081016112966020830184805163ffffffff90811683526020808301516001600160a01b03169084015260409182015116910152565b6000606082016001600160a01b0386168352602067ffffffffffffffff8616818501526060604085015281855180845260808601915060808160051b8701019350828701855b828110156156d157607f198887030184526156bf868351615311565b955092840192908401906001016156a3565b50939998505050505050505050565b6060815260006156f3606083018661509d565b8281036020840152615705818661510c565b905082810360408401526155bf81856151dd565b60006020808301818452808551808352604092508286019150828160051b870101848801865b838110156157de57888303603f19018552815180516001600160a01b0390811685528882015160608a870181905281519087018190526080870192918b0191908c905b808210156157b05783518051841686528d015160070b8d860152938b0193928c019260019190910190615782565b505050509087015184820385890152906157ca8183615189565b96890196945050509086019060010161573f565b509098975050505050505050565b828152608081016112966020830184805163ffffffff90811683526020808301516001600160a01b03169084015260409182015116910152565b8281526040602082015260006111d5604083018461533d565b8281526040602082015260006111d5604083018461546f565b8281526040602082015260006111d560408301846154e8565b83815267ffffffffffffffff831660208201526060604082015260006156116060830184615060565b8460070b81526080602082015260006158b6608083018661509d565b82810360408401526158c8818661510c565b905082810360608401526158dc81856151dd565b979650505050505050565b606081016109d58284805163ffffffff90811683526020808301516001600160a01b03169084015260409182015116910152565b602081526000611296602083018461533d565b602081526000611296602083018461536c565b606081526000615954606083018661536c565b60208301949094525060400152919050565b60a08152600061597960a083018861536c565b8660208401528560408401528281036060840152615997818661509d565b905082810360808401526159ab818561510c565b98975050505050505050565b602081526000611296602083018461546f565b60208152600061129660208301846154e8565b67ffffffffffffffff831681526040602082015260006111d56040830184615060565b60405160a0810167ffffffffffffffff81118282101715615a2357615a23615d35565b60405290565b60405160c0810167ffffffffffffffff81118282101715615a2357615a23615d35565b6040516060810167ffffffffffffffff81118282101715615a2357615a23615d35565b6040805190810167ffffffffffffffff81118282101715615a2357615a23615d35565b604051610120810167ffffffffffffffff81118282101715615a2357615a23615d35565b604051601f8201601f1916810167ffffffffffffffff81118282101715615adf57615adf615d35565b604052919050565b600067ffffffffffffffff821115615b0157615b01615d35565b5060051b60200190565b600067ffffffffffffffff821115615b2557615b25615d35565b50601f01601f191660200190565b6000615b41613f2f84615ae7565b808482526020808301925084368760051b87011115615b5e578485fd5b845b87811015615c8c57813567ffffffffffffffff80821115615b7f578788fd5b818901915060608236031215615b93578788fd5b615b9b615a4c565b8235615ba681615d4b565b81528286013582811115615bb857898afd5b830136601f820112615bc857898afd5b8035615bd6613f2f82615ae7565b81815288810190838a0136600685901b86018c011115615bf4578d8efd5b8d94505b83851015615c49576040808236031215615c10578e8ffd5b615c18615a6f565b8235615c2381615d4b565b8152828d0135615c3281615d71565b818e0152845260019590950194928b019201615bf8565b50848a01525060409150508381013583811115615c64578a8bfd5b615c70368287016140c3565b9183019190915250875250509382019390820190600101615b60565b50919695505050505050565b60005b83811015615cb3578181015183820152602001615c9b565b83811115615cc2576000848401525b50505050565b600181811c90821680615cdc57607f821691505b60208210811415615cfd57634e487b7160e01b600052602260045260246000fd5b50919050565b60008160070b677fffffffffffffff19811415615d2e57634e487b7160e01b82526011600452602482fd5b9003919050565b634e487b7160e01b600052604160045260246000fd5b6001600160a01b0381168114615d6057600080fd5b50565b8015158114615d6057600080fd5b8060070b8114615d6057600080fd5b63ffffffff81168114615d6057600080fd5b67ffffffffffffffff81168114615d6057600080fdfe90a5cf4cffe88b4edbb041cfc7a8a812c48a5ec30b84640fb37690875168e3aaa2646970667358221220add164a69fb3649d7787cd01cf3367f3be73142d2ec952baba16ed091764156d64736f6c63430008040033",
  "linkReferences": {},
  "deployedLinkReferences": {}
}