{
  "_format": "hh-sol-artifact-1",
  "contractName": "BaseHTS",
  "sourceName": "contracts/BaseHTS.sol",
  "abi": [
    {
      "anonymous": false,
      "inputs": [
        {
          "indexed": false,
          "internalType": "uint256",
          "name": "amount",
          "type": "uint256"
        }
      ],
      "name": "AllowanceValue",
      "type": "event"
    },
    {
      "anonymous": false,
      "inputs": [
        {
          "indexed": false,
          "internalType": "bool",
          "name": "approved",
          "type": "bool"
        }
      ],
      "name": "Approved",
      "type": "event"
    },
    {
      "anonymous": false,
      "inputs": [
        {
          "indexed": false,
          "internalType": "address",
          "name": "approved",
          "type": "address"
        }
      ],
      "name": "ApprovedAddress",
      "type": "event"
    },
    {
      "anonymous": false,
      "inputs": [
        {
          "indexed": false,
          "internalType": "address",
          "name": "tokenAddress",
          "type": "address"
        }
      ],
      "name": "CreatedToken",
      "type": "event"
    },
    {
      "anonymous": false,
      "inputs": [],
      "name": "FixedFee",
      "type": "event"
    },
    {
      "anonymous": false,
      "inputs": [],
      "name": "FractionalFee",
      "type": "event"
    },
    {
      "anonymous": false,
      "inputs": [
        {
          "indexed": false,
          "internalType": "uint64",
          "name": "newTotalSupply",
          "type": "uint64"
        },
        {
          "indexed": false,
          "internalType": "int64[]",
          "name": "serialNumbers",
          "type": "int64[]"
        }
      ],
      "name": "MintedToken",
      "type": "event"
    },
    {
      "anonymous": false,
      "inputs": [
        {
          "indexed": false,
          "internalType": "int256",
          "name": "responseCode",
          "type": "int256"
        }
      ],
      "name": "ResponseCode",
      "type": "event"
    },
    {
      "anonymous": false,
      "inputs": [],
      "name": "RoyaltyFee",
      "type": "event"
    },
    {
      "inputs": [
        {
          "internalType": "address",
          "name": "token",
          "type": "address"
        },
        {
          "internalType": "address",
          "name": "owner",
          "type": "address"
        },
        {
          "internalType": "address",
          "name": "spender",
          "type": "address"
        }
      ],
      "name": "allowancePublic",
      "outputs": [
        {
          "internalType": "int256",
          "name": "responseCode",
          "type": "int256"
        },
        {
          "internalType": "uint256",
          "name": "amount",
          "type": "uint256"
        }
      ],
      "stateMutability": "nonpayable",
      "type": "function"
    },
    {
      "inputs": [
        {
          "internalType": "address",
          "name": "token",
          "type": "address"
        },
        {
          "internalType": "address",
          "name": "spender",
          "type": "address"
        },
        {
          "internalType": "uint256",
          "name": "amount",
          "type": "uint256"
        }
      ],
      "name": "approvePublic",
      "outputs": [
        {
          "internalType": "int256",
          "name": "responseCode",
          "type": "int256"
        }
      ],
      "stateMutability": "nonpayable",
      "type": "function"
    },
    {
      "inputs": [
        {
          "internalType": "address",
          "name": "account",
          "type": "address"
        },
        {
          "internalType": "address",
          "name": "token",
          "type": "address"
        }
      ],
      "name": "associateTokenPublic",
      "outputs": [
        {
          "internalType": "int256",
          "name": "responseCode",
          "type": "int256"
        }
      ],
      "stateMutability": "nonpayable",
      "type": "function"
    },
    {
      "inputs": [
        {
          "internalType": "address",
          "name": "treasury",
          "type": "address"
        }
      ],
      "name": "createFungibleTokenPublic",
      "outputs": [],
      "stateMutability": "payable",
      "type": "function"
    },
    {
      "inputs": [
        {
          "internalType": "address",
          "name": "treasury",
          "type": "address"
        }
      ],
      "name": "createNonFungibleTokenPublic",
      "outputs": [],
      "stateMutability": "payable",
      "type": "function"
    },
    {
      "inputs": [
        {
          "internalType": "address",
          "name": "token",
          "type": "address"
        },
        {
          "internalType": "uint256",
          "name": "serialNumber",
          "type": "uint256"
        }
      ],
      "name": "getApprovedPublic",
      "outputs": [
        {
          "internalType": "int256",
          "name": "responseCode",
          "type": "int256"
        },
        {
          "internalType": "address",
          "name": "approved",
          "type": "address"
        }
      ],
      "stateMutability": "nonpayable",
      "type": "function"
    },
    {
      "inputs": [
        {
          "internalType": "address",
          "name": "token",
          "type": "address"
        }
      ],
      "name": "getTokenCustomFeesPublic",
      "outputs": [
        {
          "internalType": "int64",
          "name": "responseCode",
          "type": "int64"
        },
        {
          "components": [
            {
              "internalType": "uint32",
              "name": "amount",
              "type": "uint32"
            },
            {
              "internalType": "address",
              "name": "tokenId",
              "type": "address"
            },
            {
              "internalType": "bool",
              "name": "useHbarsForPayment",
              "type": "bool"
            },
            {
              "internalType": "bool",
              "name": "useCurrentTokenForPayment",
              "type": "bool"
            },
            {
              "internalType": "address",
              "name": "feeCollector",
              "type": "address"
            }
          ],
          "internalType": "struct IHederaTokenService.FixedFee[]",
          "name": "fixedFees",
          "type": "tuple[]"
        },
        {
          "components": [
            {
              "internalType": "uint32",
              "name": "numerator",
              "type": "uint32"
            },
            {
              "internalType": "uint32",
              "name": "denominator",
              "type": "uint32"
            },
            {
              "internalType": "uint32",
              "name": "minimumAmount",
              "type": "uint32"
            },
            {
              "internalType": "uint32",
              "name": "maximumAmount",
              "type": "uint32"
            },
            {
              "internalType": "bool",
              "name": "netOfTransfers",
              "type": "bool"
            },
            {
              "internalType": "address",
              "name": "feeCollector",
              "type": "address"
            }
          ],
          "internalType": "struct IHederaTokenService.FractionalFee[]",
          "name": "fractionalFees",
          "type": "tuple[]"
        },
        {
          "components": [
            {
              "internalType": "uint32",
              "name": "numerator",
              "type": "uint32"
            },
            {
              "internalType": "uint32",
              "name": "denominator",
              "type": "uint32"
            },
            {
              "internalType": "uint32",
              "name": "amount",
              "type": "uint32"
            },
            {
              "internalType": "address",
              "name": "tokenId",
              "type": "address"
            },
            {
              "internalType": "bool",
              "name": "useHbarsForPayment",
              "type": "bool"
            },
            {
              "internalType": "address",
              "name": "feeCollector",
              "type": "address"
            }
          ],
          "internalType": "struct IHederaTokenService.RoyaltyFee[]",
          "name": "royaltyFees",
          "type": "tuple[]"
        }
      ],
      "stateMutability": "nonpayable",
      "type": "function"
    },
    {
      "inputs": [
        {
          "internalType": "address",
          "name": "token",
          "type": "address"
        },
        {
          "internalType": "address",
          "name": "owner",
          "type": "address"
        },
        {
          "internalType": "address",
          "name": "operator",
          "type": "address"
        }
      ],
      "name": "isApprovedForAllPublic",
      "outputs": [
        {
          "internalType": "int256",
          "name": "responseCode",
          "type": "int256"
        },
        {
          "internalType": "bool",
          "name": "approved",
          "type": "bool"
        }
      ],
      "stateMutability": "nonpayable",
      "type": "function"
    },
    {
      "inputs": [
        {
          "internalType": "address",
          "name": "token",
          "type": "address"
        },
        {
          "internalType": "uint64",
          "name": "amount",
          "type": "uint64"
        },
        {
          "internalType": "bytes[]",
          "name": "metadata",
          "type": "bytes[]"
        }
      ],
      "name": "mintTokenPublic",
      "outputs": [
        {
          "internalType": "int256",
          "name": "responseCode",
          "type": "int256"
        },
        {
          "internalType": "uint64",
          "name": "newTotalSupply",
          "type": "uint64"
        },
        {
          "internalType": "int64[]",
          "name": "serialNumbers",
          "type": "int64[]"
        }
      ],
      "stateMutability": "nonpayable",
      "type": "function"
    },
    {
      "inputs": [
        {
          "internalType": "address",
          "name": "token",
          "type": "address"
        }
      ],
      "name": "pauseToken",
      "outputs": [
        {
          "internalType": "int256",
          "name": "responseCode",
          "type": "int256"
        }
      ],
      "stateMutability": "nonpayable",
      "type": "function"
    },
    {
      "inputs": [
        {
          "internalType": "address",
          "name": "token",
          "type": "address"
        },
        {
          "internalType": "address",
          "name": "operator",
          "type": "address"
        },
        {
          "internalType": "bool",
          "name": "approved",
          "type": "bool"
        }
      ],
      "name": "setApprovalForAllPublic",
      "outputs": [
        {
          "internalType": "int256",
          "name": "responseCode",
          "type": "int256"
        }
      ],
      "stateMutability": "nonpayable",
      "type": "function"
    },
    {
      "inputs": [
        {
          "internalType": "address",
          "name": "account",
          "type": "address"
        },
        {
          "internalType": "address",
          "name": "token",
          "type": "address"
        },
        {
          "internalType": "int64",
          "name": "amount",
          "type": "int64"
        }
      ],
      "name": "transferTokenPublic",
      "outputs": [
        {
          "internalType": "int256",
          "name": "responseCode",
          "type": "int256"
        }
      ],
      "stateMutability": "nonpayable",
      "type": "function"
    },
    {
      "inputs": [
        {
          "internalType": "address",
          "name": "token",
          "type": "address"
        }
      ],
      "name": "unpauseToken",
      "outputs": [
        {
          "internalType": "int256",
          "name": "responseCode",
          "type": "int256"
        }
      ],
      "stateMutability": "nonpayable",
      "type": "function"
    }
  ],
  "bytecode": "0x60c06040526009608081905268746f6b656e4e616d6560b81b60a09081526200002c9160019190620000c1565b5060408051808201909152600b8082526a1d1bdad95b94de5b589bdb60aa1b60209092019182526200006191600291620000c1565b50604080518082019091526004808252636d656d6f60e01b60209092019182526200008f91600391620000c1565b506103e860048190556005805463ffffffff191690911790556008600655348015620000ba57600080fd5b50620001a4565b828054620000cf9062000167565b90600052602060002090601f016020900481019282620000f357600085556200013e565b82601f106200010e57805160ff19168380011785556200013e565b828001600101855582156200013e579182015b828111156200013e57825182559160200191906001019062000121565b506200014c92915062000150565b5090565b5b808211156200014c576000815560010162000151565b600181811c908216806200017c57607f821691505b602082108114156200019e57634e487b7160e01b600052602260045260246000fd5b50919050565b6129a880620001b46000396000f3fe6080604052600436106100c25760003560e01c80637c41ad2c1161007f578063ec855c3111610059578063ec855c3114610248578063f25b120014610268578063f4a01e5b14610288578063f848fec4146102a857600080fd5b80637c41ad2c146101e65780638070905f14610206578063d85f74c11461023557600080fd5b806313c05dd8146100c757806319db44b6146101015780633b3bff0f1461013e5780634b5c66871461016c5780635a5e6c31146101815780635b9076b7146101b6575b600080fd5b3480156100d357600080fd5b506100e76100e2366004611c66565b6102c8565b604080519283529015156020830152015b60405180910390f35b34801561010d57600080fd5b5061012161011c366004611d6e565b610346565b604080519283526001600160a01b039091166020830152016100f8565b34801561014a57600080fd5b5061015e610159366004611c12565b6103c9565b6040519081526020016100f8565b61017f61017a366004611c12565b6104a3565b005b34801561018d57600080fd5b506101a161019c366004611c66565b6107bf565b604080519283526020830191909152016100f8565b3480156101c257600080fd5b506101d66101d1366004611c12565b610830565b6040516100f89493929190612699565b3480156101f257600080fd5b5061015e610201366004611c12565b610887565b34801561021257600080fd5b50610226610221366004611d99565b6108b5565b6040516100f893929190612667565b61017f610243366004611c12565b61093d565b34801561025457600080fd5b5061015e610263366004611cef565b610c40565b34801561027457600080fd5b5061015e610283366004611cb0565b610e41565b34801561029457600080fd5b5061015e6102a3366004611c2e565b610e8b565b3480156102b457600080fd5b5061015e6102c3366004611d2e565b610ed3565b6000806102d6858585610ee0565b60405182815291935091506000805160206129538339815191529060200160405180910390a16016821461030957600080fd5b60405181151581527e1c2e72360171244b3bb8cc8ddd767820edf37138ad6f129fb3574b407c307d906020015b60405180910390a1935093915050565b6000806103538484610fb5565b60405182815291935091506000805160206129538339815191529060200160405180910390a16016821461038657600080fd5b6040516001600160a01b03821681527fc2c78c7c31baf14949e75c51df12be56edb9af523cf82839c2869bbcf13b3ecb9060200160405180910390a19250929050565b6040516001600160a01b03821660248201526000908190819061016790633b3bff0f60e01b906044015b60408051601f198184030181529181526020820180516001600160e01b03166001600160e01b031990941693909317909252905161043191906124f6565b6000604051808303816000865af19150503d806000811461046e576040519150601f19603f3d011682016040523d82523d6000602084013e610473565b606091505b509150915081610484576015610498565b808060200190518101906104989190611ebd565b60030b949350505050565b604080516001808252818301909252600091816020015b6104c26119cc565b8152602001906001900390816104ba5790505090506104f460008060016040518060200160405280600081525061107d565b8160008151811061051557634e487b7160e01b600052603260045260246000fd5b602002602001018190525060006040518060600160405280600063ffffffff168152602001846001600160a01b03168152602001627a120063ffffffff16815250905060006040518061012001604052806001805461057390612884565b80601f016020809104026020016040519081016040528092919081815260200182805461059f90612884565b80156105ec5780601f106105c1576101008083540402835291602001916105ec565b820191906000526020600020905b8154815290600101906020018083116105cf57829003601f168201915b505050505081526020016002805461060390612884565b80601f016020809104026020016040519081016040528092919081815260200182805461062f90612884565b801561067c5780601f106106515761010080835404028352916020019161067c565b820191906000526020600020905b81548152906001019060200180831161065f57829003601f168201915b50505050508152602001856001600160a01b03168152602001600380546106a290612884565b80601f01602080910402602001604051908101604052809291908181526020018280546106ce90612884565b801561071b5780601f106106f05761010080835404028352916020019161071b565b820191906000526020600020905b8154815290600101906020018083116106fe57829003601f168201915b50505091835250506001602082015260055463ffffffff1660408201526000606082018190526080820186905260a090910184905260045460065492935090918291610769918591906110b4565b90925090506016821461077b57600080fd5b6040516001600160a01b03821681527f7bb17726df1f3adee8aa00ba8e8bc5d6f182af3bbf77604639cb7f008dd3b4ed9060200160405180910390a1505050505050565b6000806107cd8585856111e2565b60405182815291935091506000805160206129538339815191529060200160405180910390a16016821461080057600080fd5b6040518181527f25b6684a7e8fe1b676e9c39c8dd65034fbafea906d3bdfd97bf748b7b55e14c890602001610336565b60006060806060610840856112c8565b604051600785900b8152939750919550935091506000805160206129538339815191529060200160405180910390a1600784900b60161461088057600080fd5b9193509193565b6040516001600160a01b03821660248201526000908190819061016790631f106b4b60e21b906044016103f3565b60008060606108c58686866113af565b60405183815292955090935091506000805160206129538339815191529060200160405180910390a1601683146108fb57600080fd5b7feff23992f47b3c101679f8b4dc9d3e242c903909dba4a453f2b2341ad463b0e2828260405161092c929190612788565b60405180910390a193509350939050565b60408051600280825260608201909252600091816020015b61095d6119cc565b81526020019060019003908161095557905050905061098f60008060016040518060200160405280600081525061107d565b816000815181106109b057634e487b7160e01b600052603260045260246000fd5b60200260200101819052506109d760046001604051806020016040528060008152506114ad565b816001815181106109f857634e487b7160e01b600052603260045260246000fd5b602002602001018190525060006040518060600160405280600063ffffffff168152602001846001600160a01b03168152602001627a120063ffffffff168152509050600060405180610120016040528060018054610a5690612884565b80601f0160208091040260200160405190810160405280929190818152602001828054610a8290612884565b8015610acf5780601f10610aa457610100808354040283529160200191610acf565b820191906000526020600020905b815481529060010190602001808311610ab257829003601f168201915b5050505050815260200160028054610ae690612884565b80601f0160208091040260200160405190810160405280929190818152602001828054610b1290612884565b8015610b5f5780601f10610b3457610100808354040283529160200191610b5f565b820191906000526020600020905b815481529060010190602001808311610b4257829003601f168201915b50505050508152602001856001600160a01b0316815260200160038054610b8590612884565b80601f0160208091040260200160405190810160405280929190818152602001828054610bb190612884565b8015610bfe5780601f10610bd357610100808354040283529160200191610bfe565b820191906000526020600020905b815481529060010190602001808311610be157829003601f168201915b50505091835250506001602082015260055463ffffffff1660408201526000606082018190526080820186905260a090910184905290915080610769836114e2565b60408051600080825260208201909252819081610c85565b6040805160608101825260008082526020808301829052928201528252600019909201910181610c585790505b50905060006040518060400160405280336001600160a01b0316815260200185610cae906128bf565b600790810b9091526040805180820182526001600160a01b038a1681529187900b602083015280516002808252606082019092529293509091600091816020015b6040805180820190915260008082526020820152815260200190600190039081610cef5790505090508281600081518110610d3a57634e487b7160e01b600052603260045260246000fd5b60200260200101819052508181600181518110610d6757634e487b7160e01b600052603260045260246000fd5b602090810291909101810191909152604080516060810182526001600160a01b038a16815291820183905281810186905280516001808252818301909252600091816020015b610dda604051806060016040528060006001600160a01b0316815260200160608152602001606081525090565b815260200190600190039081610dad5790505090508181600081518110610e1157634e487b7160e01b600052603260045260246000fd5b6020026020010181905250610e25816115f8565b965060168714610e3457600080fd5b5050505050509392505050565b6000610e4e848484611622565b905060008051602061295383398151915281604051610e6f91815260200190565b60405180910390a160168114610e8457600080fd5b9392505050565b6000610e9783836116ee565b905060008051602061295383398151915281604051610eb891815260200190565b60405180910390a160168114610ecd57600080fd5b92915050565b6000610e4e8484846117b6565b604080516001600160a01b0385811660248301528481166044830152831660648083019190915282518083039091018152608490910182526020810180516001600160e01b031663f49f40db60e01b17905290516000918291829161016791610f4991906124f6565b6000604051808303816000865af19150503d8060008114610f86576040519150601f19603f3d011682016040523d82523d6000602084013e610f8b565b606091505b5091505080806020019051810190610fa3919061205e565b60039190910b97909650945050505050565b604080516001600160a01b0384166024820152604480820184905282518083039091018152606490910182526020810180516001600160e01b03166304c791b360e11b1790529051600091829182916101679161101291906124f6565b6000604051808303816000865af19150503d806000811461104f576040519150601f19603f3d011682016040523d82523d6000602084013e611054565b606091505b509150508080602001905181019061106c9190611ed7565b60039190910b969095509350505050565b6110856119cc565b604051806040016040528061109a878761188f565b81526020016110a985856118a8565b905295945050505050565b600080848061010001516000015163ffffffff1660001480156110e457506101008101516040015163ffffffff16155b156110fa576101008101516276a7006040909101525b6000806101676001600160a01b031634637812a04b60e01b8a8a8a60405160240161112793929190612763565b60408051601f198184030181529181526020820180516001600160e01b03166001600160e01b031990941693909317909252905161116591906124f6565b60006040518083038185875af1925050503d80600081146111a2576040519150601f19603f3d011682016040523d82523d6000602084013e6111a7565b606091505b5091509150816111ba57601560006111ce565b808060200190518101906111ce9190611ed7565b60039190910b999098509650505050505050565b604080516001600160a01b0385811660248301528481166044830152831660648083019190915282518083039091018152608490910182526020810180516001600160e01b031663927da10560e01b17905290516000918291829182916101679161124c916124f6565b6000604051808303816000865af19150503d8060008114611289576040519150601f19603f3d011682016040523d82523d6000602084013e61128e565b606091505b5091509150816112a157601560006112b5565b808060200190518101906112b59190612089565b60039190910b9890975095505050505050565b604080516001600160a01b03831660248083019190915282518083039091018152604490910182526020810180516001600160e01b0316630573b08d60e51b1790529051600091606091829182918591829161016791611327916124f6565b6000604051808303816000865af19150503d8060008114611364576040519150601f19603f3d011682016040523d82523d6000602084013e611369565b606091505b5091509150606080606084611382576015838383611396565b838060200190518101906113969190611f02565b60039390930b9d919c509a509098509650505050505050565b60008060606000806101676001600160a01b031663278e0b8860e01b8989896040516024016113e093929190612512565b60408051601f198184030181529181526020820180516001600160e01b03166001600160e01b031990941693909317909252905161141e91906124f6565b6000604051808303816000865af19150503d806000811461145b576040519150601f19603f3d011682016040523d82523d6000602084013e611460565b606091505b509150915081611483576040805160008082526020820190925260159190611497565b8080602001905181019061149791906120b4565b60039290920b9a90995090975095505050505050565b6114b56119cc565b60405180604001604052806114c98661193a565b81526020016114d885856118a8565b9052949350505050565b600080828061010001516000015163ffffffff16600014801561151257506101008101516040015163ffffffff16155b15611528576101008101516276a7006040909101525b6000806101676001600160a01b031634639dc711e060e01b886040516024016115519190612750565b60408051601f198184030181529181526020820180516001600160e01b03166001600160e01b031990941693909317909252905161158f91906124f6565b60006040518083038185875af1925050503d80600081146115cc576040519150601f19603f3d011682016040523d82523d6000602084013e6115d1565b606091505b5091509150816115e45760156000610fa3565b80806020019051810190610fa39190611ed7565b60008060006101676001600160a01b031663189a554c60e01b856040516024016103f39190612594565b604080516001600160a01b0385811660248301528416604482015282151560648083019190915282518083039091018152608490910182526020810180516001600160e01b0316631b3b02e560e11b1790529051600091829161016791611688916124f6565b6000604051808303816000865af19150503d80600081146116c5576040519150601f19603f3d011682016040523d82523d6000602084013e6116ca565b606091505b50915050808060200190518101906116e29190611ebd565b60030b95945050505050565b604080516001600160a01b038481166024830152831660448083019190915282518083039091018152606490910182526020810180516001600160e01b031663248a35ef60e11b1790529051600091829182916101679161174f91906124f6565b6000604051808303816000865af19150503d806000811461178c576040519150601f19603f3d011682016040523d82523d6000602084013e611791565b606091505b5091509150816117a25760156116e2565b808060200190518101906116e29190611ebd565b604080516001600160a01b03858116602483015284166044820152606480820184905282518083039091018152608490910182526020810180516001600160e01b031663e1f21c6760e01b1790529051600091829182916101679161181b91906124f6565b6000604051808303816000865af19150503d8060008114611858576040519150601f19603f3d011682016040523d82523d6000602084013e61185d565b606091505b50915091508161186e576015611882565b808060200190518101906118829190611ebd565b60030b9695505050505050565b6000600160ff84161b9050600160ff83161b8117610e84565b6118b06119eb565b8260ff16600114156118c55760018152610ecd565b8260ff16600214156118e7576000546001600160a01b03166020820152610ecd565b8260ff16600314156118ff5760408101829052610ecd565b8260ff16600414156119175760608101829052610ecd565b8260ff1660051415610ecd576000546001600160a01b0316608082015292915050565b600060ff821661194c57506001919050565b8160ff166001141561196057506002919050565b8160ff166002141561197457506004919050565b8160ff166003141561198857506008919050565b8160ff166004141561199c57506010919050565b8160ff16600514156119b057506020919050565b8160ff16600614156119c457506040919050565b506000919050565b6040518060400160405280600081526020016119e66119eb565b905290565b6040518060a0016040528060001515815260200160006001600160a01b03168152602001606081526020016060815260200160006001600160a01b031681525090565b600082601f830112611a3e578081fd5b81516020611a53611a4e83612830565b6127ff565b8281528181019085830160c080860288018501891015611a71578687fd5b865b86811015611b055781838b031215611a89578788fd5b611a916127b3565b611a9a84611bfe565b8152611aa7878501611bfe565b878201526040611ab8818601611bfe565b908201526060611ac9858201611bfe565b90820152608084810151611adc8161291f565b9082015260a084810151611aef81612907565b9082015285529385019391810191600101611a73565b509198975050505050505050565b600082601f830112611b23578081fd5b81516020611b33611a4e83612830565b8281528181019085830160c080860288018501891015611b51578687fd5b865b86811015611b055781838b031215611b69578788fd5b611b716127b3565b611b7a84611bfe565b8152611b87878501611bfe565b878201526040611b98818601611bfe565b90820152606084810151611bab81612907565b90820152608084810151611bbe8161291f565b9082015260a084810151611bd181612907565b9082015285529385019391810191600101611b53565b8051600381900b8114611bf957600080fd5b919050565b805163ffffffff81168114611bf957600080fd5b600060208284031215611c23578081fd5b8135610e8481612907565b60008060408385031215611c40578081fd5b8235611c4b81612907565b91506020830135611c5b81612907565b809150509250929050565b600080600060608486031215611c7a578081fd5b8335611c8581612907565b92506020840135611c9581612907565b91506040840135611ca581612907565b809150509250925092565b600080600060608486031215611cc4578081fd5b8335611ccf81612907565b92506020840135611cdf81612907565b91506040840135611ca58161291f565b600080600060608486031215611d03578081fd5b8335611d0e81612907565b92506020840135611d1e81612907565b91506040840135611ca58161292d565b600080600060608486031215611d42578081fd5b8335611d4d81612907565b92506020840135611d5d81612907565b929592945050506040919091013590565b60008060408385031215611d80578182fd5b8235611d8b81612907565b946020939093013593505050565b600080600060608486031215611dad578081fd5b8335611db881612907565b9250602084810135611dc98161293c565b9250604085013567ffffffffffffffff80821115611de5578384fd5b818701915087601f830112611df8578384fd5b8135611e06611a4e82612830565b8082825285820191508585018b878560051b8801011115611e25578788fd5b875b84811015611eab57813586811115611e3d57898afd5b8701603f81018e13611e4d57898afd5b8881013587811115611e6157611e616128f1565b611e73601f8201601f19168b016127ff565b8181528f6040838501011115611e87578b8cfd5b81604084018c8301379081018a018b90528552509287019290870190600101611e27565b50508096505050505050509250925092565b600060208284031215611ece578081fd5b610e8482611be7565b60008060408385031215611ee9578182fd5b611ef283611be7565b91506020830151611c5b81612907565b60008060008060808587031215611f17578182fd5b611f2085611be7565b935060208086015167ffffffffffffffff80821115611f3d578485fd5b818801915088601f830112611f50578485fd5b8151611f5e611a4e82612830565b8181528481019084860160a0808502870188018e1015611f7c57898afd5b8996505b848710156120095780828f031215611f9657898afd5b611f9e6127dc565b611fa783611bfe565b815288830151611fb681612907565b818a01526040830151611fc88161291f565b60408201526060830151611fdb8161291f565b60608201526080830151611fee81612907565b60808201528452600196909601959287019290810190611f80565b505060408b01519098509450505080831115612023578485fd5b61202f89848a01611a2e565b94506060880151925080831115612044578384fd5b505061205287828801611b13565b91505092959194509250565b60008060408385031215612070578182fd5b61207983611be7565b91506020830151611c5b8161291f565b6000806040838503121561209b578182fd5b6120a483611be7565b9150602083015190509250929050565b6000806000606084860312156120c8578081fd5b6120d184611be7565b92506020808501516120e28161293c565b604086015190935067ffffffffffffffff8111156120fe578283fd5b8501601f8101871361210e578283fd5b805161211c611a4e82612830565b8082825284820191508484018a868560051b870101111561213b578687fd5b8694505b838510156121665780516121528161292d565b83526001949094019391850191850161213f565b5080955050505050509250925092565b6000815180845260208085019450808401835b838110156121a857815160070b87529582019590820190600101612189565b509495945050505050565b6000815180845260208085019450808401835b838110156121a8578151805163ffffffff9081168952848201518116858a01526040808301518216908a01526060808301519091169089015260808082015115159089015260a0908101516001600160a01b03169088015260c090960195908201906001016121c6565b6000815180845260208085019450808401835b838110156121a857815180516001600160a01b03908116895284820151168489015260409081015160070b9088015260609096019590820190600101612243565b6000815180845260208085019450808401835b838110156121a8578151805163ffffffff9081168952848201518116858a0152604080830151909116908901526060808201516001600160a01b03908116918a01919091526080808301511515908a015260a091820151169088015260c09096019590820190600101612297565b600081518084526020808501808196508360051b81019150828601855b858110156123ba57828403895281516040815186528682015191508087870152815115158187015286820151606060018060a01b03808316828a015283850151935060a09250608083818b015261237c60e08b01866123c7565b928601518a8403603f1901858c015292945061239885846123c7565b9501511660c09890980197909752505098850198935090840190600101612322565b5091979650505050505050565b600081518084526123df816020860160208601612854565b601f01601f19169290920160200192915050565b60006101608251818552612409828601826123c7565b9150506020830151848203602086015261242382826123c7565b915050604083015161244060408601826001600160a01b03169052565b506060830151848203606086015261245882826123c7565b915050608083015161246e608086018215159052565b5060a083015161248660a086018263ffffffff169052565b5060c083015161249a60c086018215159052565b5060e083015184820360e08601526124b28282612305565b61010085810151805163ffffffff9081168984015260208201516001600160a01b03166101208a015260408201511661014089015291935091505090949350505050565b60008251612508818460208701612854565b9190910192915050565b60006060820160018060a01b0386168352602067ffffffffffffffff8616818501526060604085015281855180845260808601915060808160051b8701019350828701855b8281101561258557607f198887030184526125738683516123c7565b95509284019290840190600101612557565b50939998505050505050505050565b60006020808301818452808551808352604092508286019150828160051b870101848801865b8381101561265957888303603f19018552815180516001600160a01b0390811685528882015160608a870181905281519087018190526080870192918b0191908c905b8082101561262b5783518051841686528d015160070b8d860152938b0193928c0192600191909101906125fd565b505050509087015184820385890152906126458183612230565b9689019694505050908601906001016125ba565b509098975050505050505050565b83815267ffffffffffffffff831660208201526060604082015260006126906060830184612176565b95945050505050565b600060808083018760070b84526020828186015281885180845260a093508387019150828a01865b82811015612719578151805163ffffffff168552858101516001600160a01b039081168787015260408083015115159087015260608083015115159087015290880151168785015292850192908401906001016126c1565b505050858103604087015261272e81896121b3565b935050505082810360608401526127458185612284565b979650505050505050565b602081526000610e8460208301846123f3565b60608152600061277660608301866123f3565b60208301949094525060400152919050565b67ffffffffffffffff831681526040602082015260006127ab6040830184612176565b949350505050565b60405160c0810167ffffffffffffffff811182821017156127d6576127d66128f1565b60405290565b60405160a0810167ffffffffffffffff811182821017156127d6576127d66128f1565b604051601f8201601f1916810167ffffffffffffffff81118282101715612828576128286128f1565b604052919050565b600067ffffffffffffffff82111561284a5761284a6128f1565b5060051b60200190565b60005b8381101561286f578181015183820152602001612857565b8381111561287e576000848401525b50505050565b600181811c9082168061289857607f821691505b602082108114156128b957634e487b7160e01b600052602260045260246000fd5b50919050565b60008160070b677fffffffffffffff198114156128ea57634e487b7160e01b82526011600452602482fd5b9003919050565b634e487b7160e01b600052604160045260246000fd5b6001600160a01b038116811461291c57600080fd5b50565b801515811461291c57600080fd5b8060070b811461291c57600080fd5b67ffffffffffffffff8116811461291c57600080fdfe90a5cf4cffe88b4edbb041cfc7a8a812c48a5ec30b84640fb37690875168e3aaa2646970667358221220e20eee1c8dbcd10bee1875f2f229d58dc8ab6da6ed580379e35f537254ea6e8764736f6c63430008040033",
  "linkReferences": {},
  "deployedLinkReferences": {}
}