{
  "_format": "hh-sol-artifact-1",
  "contractName": "BaseHTS",
  "sourceName": "contracts/BaseHTS.sol",
  "abi": [
    {
      "anonymous": false,
      "inputs": [
        {
          "indexed": false,
          "internalType": "uint256",
          "name": "amount",
          "type": "uint256"
        }
      ],
      "name": "AllowanceValue",
      "type": "event"
    },
    {
      "anonymous": false,
      "inputs": [
        {
          "indexed": false,
          "internalType": "bool",
          "name": "approved",
          "type": "bool"
        }
      ],
      "name": "Approved",
      "type": "event"
    },
    {
      "anonymous": false,
      "inputs": [
        {
          "indexed": false,
          "internalType": "address",
          "name": "approved",
          "type": "address"
        }
      ],
      "name": "ApprovedAddress",
      "type": "event"
    },
    {
      "anonymous": false,
      "inputs": [
        {
          "indexed": false,
          "internalType": "address",
          "name": "tokenAddress",
          "type": "address"
        }
      ],
      "name": "CreatedToken",
      "type": "event"
    },
    {
      "anonymous": false,
      "inputs": [
        {
          "indexed": false,
          "internalType": "bool",
          "name": "freezeStatus",
          "type": "bool"
        }
      ],
      "name": "DefaultFreezeStatusChanged",
      "type": "event"
    },
    {
      "anonymous": false,
      "inputs": [
        {
          "indexed": false,
          "internalType": "bool",
          "name": "frozen",
          "type": "bool"
        }
      ],
      "name": "Frozen",
      "type": "event"
    },
    {
      "anonymous": false,
      "inputs": [
        {
          "components": [
            {
              "components": [
                {
                  "components": [
                    {
                      "internalType": "string",
                      "name": "name",
                      "type": "string"
                    },
                    {
                      "internalType": "string",
                      "name": "symbol",
                      "type": "string"
                    },
                    {
                      "internalType": "address",
                      "name": "treasury",
                      "type": "address"
                    },
                    {
                      "internalType": "string",
                      "name": "memo",
                      "type": "string"
                    },
                    {
                      "internalType": "bool",
                      "name": "tokenSupplyType",
                      "type": "bool"
                    },
                    {
                      "internalType": "uint32",
                      "name": "maxSupply",
                      "type": "uint32"
                    },
                    {
                      "internalType": "bool",
                      "name": "freezeDefault",
                      "type": "bool"
                    },
                    {
                      "components": [
                        {
                          "internalType": "uint256",
                          "name": "keyType",
                          "type": "uint256"
                        },
                        {
                          "components": [
                            {
                              "internalType": "bool",
                              "name": "inheritAccountKey",
                              "type": "bool"
                            },
                            {
                              "internalType": "address",
                              "name": "contractId",
                              "type": "address"
                            },
                            {
                              "internalType": "bytes",
                              "name": "ed25519",
                              "type": "bytes"
                            },
                            {
                              "internalType": "bytes",
                              "name": "ECDSA_secp256k1",
                              "type": "bytes"
                            },
                            {
                              "internalType": "address",
                              "name": "delegatableContractId",
                              "type": "address"
                            }
                          ],
                          "internalType": "struct IHederaTokenService.KeyValue",
                          "name": "key",
                          "type": "tuple"
                        }
                      ],
                      "internalType": "struct IHederaTokenService.TokenKey[]",
                      "name": "tokenKeys",
                      "type": "tuple[]"
                    },
                    {
                      "components": [
                        {
                          "internalType": "uint32",
                          "name": "second",
                          "type": "uint32"
                        },
                        {
                          "internalType": "address",
                          "name": "autoRenewAccount",
                          "type": "address"
                        },
                        {
                          "internalType": "uint32",
                          "name": "autoRenewPeriod",
                          "type": "uint32"
                        }
                      ],
                      "internalType": "struct IHederaTokenService.Expiry",
                      "name": "expiry",
                      "type": "tuple"
                    }
                  ],
                  "internalType": "struct IHederaTokenService.HederaToken",
                  "name": "token",
                  "type": "tuple"
                },
                {
                  "internalType": "uint64",
                  "name": "totalSupply",
                  "type": "uint64"
                },
                {
                  "internalType": "bool",
                  "name": "deleted",
                  "type": "bool"
                },
                {
                  "internalType": "bool",
                  "name": "defaultKycStatus",
                  "type": "bool"
                },
                {
                  "internalType": "bool",
                  "name": "pauseStatus",
                  "type": "bool"
                },
                {
                  "components": [
                    {
                      "internalType": "uint32",
                      "name": "amount",
                      "type": "uint32"
                    },
                    {
                      "internalType": "address",
                      "name": "tokenId",
                      "type": "address"
                    },
                    {
                      "internalType": "bool",
                      "name": "useHbarsForPayment",
                      "type": "bool"
                    },
                    {
                      "internalType": "bool",
                      "name": "useCurrentTokenForPayment",
                      "type": "bool"
                    },
                    {
                      "internalType": "address",
                      "name": "feeCollector",
                      "type": "address"
                    }
                  ],
                  "internalType": "struct IHederaTokenService.FixedFee[]",
                  "name": "fixedFees",
                  "type": "tuple[]"
                },
                {
                  "components": [
                    {
                      "internalType": "uint32",
                      "name": "numerator",
                      "type": "uint32"
                    },
                    {
                      "internalType": "uint32",
                      "name": "denominator",
                      "type": "uint32"
                    },
                    {
                      "internalType": "uint32",
                      "name": "minimumAmount",
                      "type": "uint32"
                    },
                    {
                      "internalType": "uint32",
                      "name": "maximumAmount",
                      "type": "uint32"
                    },
                    {
                      "internalType": "bool",
                      "name": "netOfTransfers",
                      "type": "bool"
                    },
                    {
                      "internalType": "address",
                      "name": "feeCollector",
                      "type": "address"
                    }
                  ],
                  "internalType": "struct IHederaTokenService.FractionalFee[]",
                  "name": "fractionalFees",
                  "type": "tuple[]"
                },
                {
                  "components": [
                    {
                      "internalType": "uint32",
                      "name": "numerator",
                      "type": "uint32"
                    },
                    {
                      "internalType": "uint32",
                      "name": "denominator",
                      "type": "uint32"
                    },
                    {
                      "internalType": "uint32",
                      "name": "amount",
                      "type": "uint32"
                    },
                    {
                      "internalType": "address",
                      "name": "tokenId",
                      "type": "address"
                    },
                    {
                      "internalType": "bool",
                      "name": "useHbarsForPayment",
                      "type": "bool"
                    },
                    {
                      "internalType": "address",
                      "name": "feeCollector",
                      "type": "address"
                    }
                  ],
                  "internalType": "struct IHederaTokenService.RoyaltyFee[]",
                  "name": "royaltyFees",
                  "type": "tuple[]"
                },
                {
                  "internalType": "string",
                  "name": "ledgerId",
                  "type": "string"
                }
              ],
              "internalType": "struct IHederaTokenService.TokenInfo",
              "name": "tokenInfo",
              "type": "tuple"
            },
            {
              "internalType": "uint32",
              "name": "decimals",
              "type": "uint32"
            }
          ],
          "indexed": false,
          "internalType": "struct IHederaTokenService.FungibleTokenInfo",
          "name": "tokenInfo",
          "type": "tuple"
        }
      ],
      "name": "FungibleTokenInfo",
      "type": "event"
    },
    {
      "anonymous": false,
      "inputs": [
        {
          "indexed": false,
          "internalType": "bool",
          "name": "kycGranted",
          "type": "bool"
        }
      ],
      "name": "KycGranted",
      "type": "event"
    },
    {
      "anonymous": false,
      "inputs": [
        {
          "indexed": false,
          "internalType": "uint64",
          "name": "newTotalSupply",
          "type": "uint64"
        },
        {
          "indexed": false,
          "internalType": "int64[]",
          "name": "serialNumbers",
          "type": "int64[]"
        }
      ],
      "name": "MintedToken",
      "type": "event"
    },
    {
      "anonymous": false,
      "inputs": [
        {
          "components": [
            {
              "components": [
                {
                  "components": [
                    {
                      "internalType": "string",
                      "name": "name",
                      "type": "string"
                    },
                    {
                      "internalType": "string",
                      "name": "symbol",
                      "type": "string"
                    },
                    {
                      "internalType": "address",
                      "name": "treasury",
                      "type": "address"
                    },
                    {
                      "internalType": "string",
                      "name": "memo",
                      "type": "string"
                    },
                    {
                      "internalType": "bool",
                      "name": "tokenSupplyType",
                      "type": "bool"
                    },
                    {
                      "internalType": "uint32",
                      "name": "maxSupply",
                      "type": "uint32"
                    },
                    {
                      "internalType": "bool",
                      "name": "freezeDefault",
                      "type": "bool"
                    },
                    {
                      "components": [
                        {
                          "internalType": "uint256",
                          "name": "keyType",
                          "type": "uint256"
                        },
                        {
                          "components": [
                            {
                              "internalType": "bool",
                              "name": "inheritAccountKey",
                              "type": "bool"
                            },
                            {
                              "internalType": "address",
                              "name": "contractId",
                              "type": "address"
                            },
                            {
                              "internalType": "bytes",
                              "name": "ed25519",
                              "type": "bytes"
                            },
                            {
                              "internalType": "bytes",
                              "name": "ECDSA_secp256k1",
                              "type": "bytes"
                            },
                            {
                              "internalType": "address",
                              "name": "delegatableContractId",
                              "type": "address"
                            }
                          ],
                          "internalType": "struct IHederaTokenService.KeyValue",
                          "name": "key",
                          "type": "tuple"
                        }
                      ],
                      "internalType": "struct IHederaTokenService.TokenKey[]",
                      "name": "tokenKeys",
                      "type": "tuple[]"
                    },
                    {
                      "components": [
                        {
                          "internalType": "uint32",
                          "name": "second",
                          "type": "uint32"
                        },
                        {
                          "internalType": "address",
                          "name": "autoRenewAccount",
                          "type": "address"
                        },
                        {
                          "internalType": "uint32",
                          "name": "autoRenewPeriod",
                          "type": "uint32"
                        }
                      ],
                      "internalType": "struct IHederaTokenService.Expiry",
                      "name": "expiry",
                      "type": "tuple"
                    }
                  ],
                  "internalType": "struct IHederaTokenService.HederaToken",
                  "name": "token",
                  "type": "tuple"
                },
                {
                  "internalType": "uint64",
                  "name": "totalSupply",
                  "type": "uint64"
                },
                {
                  "internalType": "bool",
                  "name": "deleted",
                  "type": "bool"
                },
                {
                  "internalType": "bool",
                  "name": "defaultKycStatus",
                  "type": "bool"
                },
                {
                  "internalType": "bool",
                  "name": "pauseStatus",
                  "type": "bool"
                },
                {
                  "components": [
                    {
                      "internalType": "uint32",
                      "name": "amount",
                      "type": "uint32"
                    },
                    {
                      "internalType": "address",
                      "name": "tokenId",
                      "type": "address"
                    },
                    {
                      "internalType": "bool",
                      "name": "useHbarsForPayment",
                      "type": "bool"
                    },
                    {
                      "internalType": "bool",
                      "name": "useCurrentTokenForPayment",
                      "type": "bool"
                    },
                    {
                      "internalType": "address",
                      "name": "feeCollector",
                      "type": "address"
                    }
                  ],
                  "internalType": "struct IHederaTokenService.FixedFee[]",
                  "name": "fixedFees",
                  "type": "tuple[]"
                },
                {
                  "components": [
                    {
                      "internalType": "uint32",
                      "name": "numerator",
                      "type": "uint32"
                    },
                    {
                      "internalType": "uint32",
                      "name": "denominator",
                      "type": "uint32"
                    },
                    {
                      "internalType": "uint32",
                      "name": "minimumAmount",
                      "type": "uint32"
                    },
                    {
                      "internalType": "uint32",
                      "name": "maximumAmount",
                      "type": "uint32"
                    },
                    {
                      "internalType": "bool",
                      "name": "netOfTransfers",
                      "type": "bool"
                    },
                    {
                      "internalType": "address",
                      "name": "feeCollector",
                      "type": "address"
                    }
                  ],
                  "internalType": "struct IHederaTokenService.FractionalFee[]",
                  "name": "fractionalFees",
                  "type": "tuple[]"
                },
                {
                  "components": [
                    {
                      "internalType": "uint32",
                      "name": "numerator",
                      "type": "uint32"
                    },
                    {
                      "internalType": "uint32",
                      "name": "denominator",
                      "type": "uint32"
                    },
                    {
                      "internalType": "uint32",
                      "name": "amount",
                      "type": "uint32"
                    },
                    {
                      "internalType": "address",
                      "name": "tokenId",
                      "type": "address"
                    },
                    {
                      "internalType": "bool",
                      "name": "useHbarsForPayment",
                      "type": "bool"
                    },
                    {
                      "internalType": "address",
                      "name": "feeCollector",
                      "type": "address"
                    }
                  ],
                  "internalType": "struct IHederaTokenService.RoyaltyFee[]",
                  "name": "royaltyFees",
                  "type": "tuple[]"
                },
                {
                  "internalType": "string",
                  "name": "ledgerId",
                  "type": "string"
                }
              ],
              "internalType": "struct IHederaTokenService.TokenInfo",
              "name": "tokenInfo",
              "type": "tuple"
            },
            {
              "internalType": "int64",
              "name": "serialNumber",
              "type": "int64"
            },
            {
              "internalType": "address",
              "name": "ownerId",
              "type": "address"
            },
            {
              "internalType": "int64",
              "name": "creationTime",
              "type": "int64"
            },
            {
              "internalType": "bytes",
              "name": "metadata",
              "type": "bytes"
            },
            {
              "internalType": "address",
              "name": "spenderId",
              "type": "address"
            }
          ],
          "indexed": false,
          "internalType": "struct IHederaTokenService.NonFungibleTokenInfo",
          "name": "tokenInfo",
          "type": "tuple"
        }
      ],
      "name": "NonFungibleTokenInfo",
      "type": "event"
    },
    {
      "anonymous": false,
      "inputs": [
        {
          "indexed": false,
          "internalType": "bool",
          "name": "paused",
          "type": "bool"
        }
      ],
      "name": "PausedToken",
      "type": "event"
    },
    {
      "anonymous": false,
      "inputs": [
        {
          "indexed": false,
          "internalType": "int256",
          "name": "responseCode",
          "type": "int256"
        }
      ],
      "name": "ResponseCode",
      "type": "event"
    },
    {
      "anonymous": false,
      "inputs": [
        {
          "components": [
            {
              "internalType": "uint32",
              "name": "amount",
              "type": "uint32"
            },
            {
              "internalType": "address",
              "name": "tokenId",
              "type": "address"
            },
            {
              "internalType": "bool",
              "name": "useHbarsForPayment",
              "type": "bool"
            },
            {
              "internalType": "bool",
              "name": "useCurrentTokenForPayment",
              "type": "bool"
            },
            {
              "internalType": "address",
              "name": "feeCollector",
              "type": "address"
            }
          ],
          "indexed": false,
          "internalType": "struct IHederaTokenService.FixedFee[]",
          "name": "fixedFees",
          "type": "tuple[]"
        },
        {
          "components": [
            {
              "internalType": "uint32",
              "name": "numerator",
              "type": "uint32"
            },
            {
              "internalType": "uint32",
              "name": "denominator",
              "type": "uint32"
            },
            {
              "internalType": "uint32",
              "name": "minimumAmount",
              "type": "uint32"
            },
            {
              "internalType": "uint32",
              "name": "maximumAmount",
              "type": "uint32"
            },
            {
              "internalType": "bool",
              "name": "netOfTransfers",
              "type": "bool"
            },
            {
              "internalType": "address",
              "name": "feeCollector",
              "type": "address"
            }
          ],
          "indexed": false,
          "internalType": "struct IHederaTokenService.FractionalFee[]",
          "name": "fractionalFees",
          "type": "tuple[]"
        },
        {
          "components": [
            {
              "internalType": "uint32",
              "name": "numerator",
              "type": "uint32"
            },
            {
              "internalType": "uint32",
              "name": "denominator",
              "type": "uint32"
            },
            {
              "internalType": "uint32",
              "name": "amount",
              "type": "uint32"
            },
            {
              "internalType": "address",
              "name": "tokenId",
              "type": "address"
            },
            {
              "internalType": "bool",
              "name": "useHbarsForPayment",
              "type": "bool"
            },
            {
              "internalType": "address",
              "name": "feeCollector",
              "type": "address"
            }
          ],
          "indexed": false,
          "internalType": "struct IHederaTokenService.RoyaltyFee[]",
          "name": "royaltyFees",
          "type": "tuple[]"
        }
      ],
      "name": "TokenCustomFees",
      "type": "event"
    },
    {
      "anonymous": false,
      "inputs": [
        {
          "indexed": false,
          "internalType": "bool",
          "name": "defaultFreezeStatus",
          "type": "bool"
        }
      ],
      "name": "TokenDefaultFreezeStatus",
      "type": "event"
    },
    {
      "anonymous": false,
      "inputs": [
        {
          "indexed": false,
          "internalType": "bool",
          "name": "defaultKycStatus",
          "type": "bool"
        }
      ],
      "name": "TokenDefaultKycStatus",
      "type": "event"
    },
    {
      "anonymous": false,
      "inputs": [
        {
          "components": [
            {
              "components": [
                {
                  "internalType": "string",
                  "name": "name",
                  "type": "string"
                },
                {
                  "internalType": "string",
                  "name": "symbol",
                  "type": "string"
                },
                {
                  "internalType": "address",
                  "name": "treasury",
                  "type": "address"
                },
                {
                  "internalType": "string",
                  "name": "memo",
                  "type": "string"
                },
                {
                  "internalType": "bool",
                  "name": "tokenSupplyType",
                  "type": "bool"
                },
                {
                  "internalType": "uint32",
                  "name": "maxSupply",
                  "type": "uint32"
                },
                {
                  "internalType": "bool",
                  "name": "freezeDefault",
                  "type": "bool"
                },
                {
                  "components": [
                    {
                      "internalType": "uint256",
                      "name": "keyType",
                      "type": "uint256"
                    },
                    {
                      "components": [
                        {
                          "internalType": "bool",
                          "name": "inheritAccountKey",
                          "type": "bool"
                        },
                        {
                          "internalType": "address",
                          "name": "contractId",
                          "type": "address"
                        },
                        {
                          "internalType": "bytes",
                          "name": "ed25519",
                          "type": "bytes"
                        },
                        {
                          "internalType": "bytes",
                          "name": "ECDSA_secp256k1",
                          "type": "bytes"
                        },
                        {
                          "internalType": "address",
                          "name": "delegatableContractId",
                          "type": "address"
                        }
                      ],
                      "internalType": "struct IHederaTokenService.KeyValue",
                      "name": "key",
                      "type": "tuple"
                    }
                  ],
                  "internalType": "struct IHederaTokenService.TokenKey[]",
                  "name": "tokenKeys",
                  "type": "tuple[]"
                },
                {
                  "components": [
                    {
                      "internalType": "uint32",
                      "name": "second",
                      "type": "uint32"
                    },
                    {
                      "internalType": "address",
                      "name": "autoRenewAccount",
                      "type": "address"
                    },
                    {
                      "internalType": "uint32",
                      "name": "autoRenewPeriod",
                      "type": "uint32"
                    }
                  ],
                  "internalType": "struct IHederaTokenService.Expiry",
                  "name": "expiry",
                  "type": "tuple"
                }
              ],
              "internalType": "struct IHederaTokenService.HederaToken",
              "name": "token",
              "type": "tuple"
            },
            {
              "internalType": "uint64",
              "name": "totalSupply",
              "type": "uint64"
            },
            {
              "internalType": "bool",
              "name": "deleted",
              "type": "bool"
            },
            {
              "internalType": "bool",
              "name": "defaultKycStatus",
              "type": "bool"
            },
            {
              "internalType": "bool",
              "name": "pauseStatus",
              "type": "bool"
            },
            {
              "components": [
                {
                  "internalType": "uint32",
                  "name": "amount",
                  "type": "uint32"
                },
                {
                  "internalType": "address",
                  "name": "tokenId",
                  "type": "address"
                },
                {
                  "internalType": "bool",
                  "name": "useHbarsForPayment",
                  "type": "bool"
                },
                {
                  "internalType": "bool",
                  "name": "useCurrentTokenForPayment",
                  "type": "bool"
                },
                {
                  "internalType": "address",
                  "name": "feeCollector",
                  "type": "address"
                }
              ],
              "internalType": "struct IHederaTokenService.FixedFee[]",
              "name": "fixedFees",
              "type": "tuple[]"
            },
            {
              "components": [
                {
                  "internalType": "uint32",
                  "name": "numerator",
                  "type": "uint32"
                },
                {
                  "internalType": "uint32",
                  "name": "denominator",
                  "type": "uint32"
                },
                {
                  "internalType": "uint32",
                  "name": "minimumAmount",
                  "type": "uint32"
                },
                {
                  "internalType": "uint32",
                  "name": "maximumAmount",
                  "type": "uint32"
                },
                {
                  "internalType": "bool",
                  "name": "netOfTransfers",
                  "type": "bool"
                },
                {
                  "internalType": "address",
                  "name": "feeCollector",
                  "type": "address"
                }
              ],
              "internalType": "struct IHederaTokenService.FractionalFee[]",
              "name": "fractionalFees",
              "type": "tuple[]"
            },
            {
              "components": [
                {
                  "internalType": "uint32",
                  "name": "numerator",
                  "type": "uint32"
                },
                {
                  "internalType": "uint32",
                  "name": "denominator",
                  "type": "uint32"
                },
                {
                  "internalType": "uint32",
                  "name": "amount",
                  "type": "uint32"
                },
                {
                  "internalType": "address",
                  "name": "tokenId",
                  "type": "address"
                },
                {
                  "internalType": "bool",
                  "name": "useHbarsForPayment",
                  "type": "bool"
                },
                {
                  "internalType": "address",
                  "name": "feeCollector",
                  "type": "address"
                }
              ],
              "internalType": "struct IHederaTokenService.RoyaltyFee[]",
              "name": "royaltyFees",
              "type": "tuple[]"
            },
            {
              "internalType": "string",
              "name": "ledgerId",
              "type": "string"
            }
          ],
          "indexed": false,
          "internalType": "struct IHederaTokenService.TokenInfo",
          "name": "tokenInfo",
          "type": "tuple"
        }
      ],
      "name": "TokenInfo",
      "type": "event"
    },
    {
      "anonymous": false,
      "inputs": [
        {
          "indexed": false,
          "internalType": "bool",
          "name": "unpaused",
          "type": "bool"
        }
      ],
      "name": "UnpausedToken",
      "type": "event"
    },
    {
      "inputs": [
        {
          "internalType": "address",
          "name": "token",
          "type": "address"
        },
        {
          "internalType": "address",
          "name": "owner",
          "type": "address"
        },
        {
          "internalType": "address",
          "name": "spender",
          "type": "address"
        }
      ],
      "name": "allowancePublic",
      "outputs": [
        {
          "internalType": "int256",
          "name": "responseCode",
          "type": "int256"
        },
        {
          "internalType": "uint256",
          "name": "amount",
          "type": "uint256"
        }
      ],
      "stateMutability": "nonpayable",
      "type": "function"
    },
    {
      "inputs": [
        {
          "internalType": "address",
          "name": "token",
          "type": "address"
        },
        {
          "internalType": "address",
          "name": "spender",
          "type": "address"
        },
        {
          "internalType": "uint256",
          "name": "amount",
          "type": "uint256"
        }
      ],
      "name": "approvePublic",
      "outputs": [
        {
          "internalType": "int256",
          "name": "responseCode",
          "type": "int256"
        }
      ],
      "stateMutability": "nonpayable",
      "type": "function"
    },
    {
      "inputs": [
        {
          "internalType": "address",
          "name": "account",
          "type": "address"
        },
        {
          "internalType": "address",
          "name": "token",
          "type": "address"
        }
      ],
      "name": "associateTokenPublic",
      "outputs": [
        {
          "internalType": "int256",
          "name": "responseCode",
          "type": "int256"
        }
      ],
      "stateMutability": "nonpayable",
      "type": "function"
    },
    {
      "inputs": [
        {
          "internalType": "address",
          "name": "treasury",
          "type": "address"
        }
      ],
      "name": "createFungibleTokenPublic",
      "outputs": [],
      "stateMutability": "payable",
      "type": "function"
    },
    {
      "inputs": [
        {
          "internalType": "address",
          "name": "treasury",
          "type": "address"
        },
        {
          "internalType": "address",
          "name": "fixedFeeTokenAddress",
          "type": "address"
        }
      ],
      "name": "createFungibleTokenWithCustomFeesPublic",
      "outputs": [],
      "stateMutability": "payable",
      "type": "function"
    },
    {
      "inputs": [
        {
          "internalType": "address",
          "name": "treasury",
          "type": "address"
        }
      ],
      "name": "createNonFungibleTokenPublic",
      "outputs": [],
      "stateMutability": "payable",
      "type": "function"
    },
    {
      "inputs": [
        {
          "components": [
            {
              "internalType": "address",
              "name": "token",
              "type": "address"
            },
            {
              "components": [
                {
                  "internalType": "address",
                  "name": "accountID",
                  "type": "address"
                },
                {
                  "internalType": "int64",
                  "name": "amount",
                  "type": "int64"
                }
              ],
              "internalType": "struct IHederaTokenService.AccountAmount[]",
              "name": "transfers",
              "type": "tuple[]"
            },
            {
              "components": [
                {
                  "internalType": "address",
                  "name": "senderAccountID",
                  "type": "address"
                },
                {
                  "internalType": "address",
                  "name": "receiverAccountID",
                  "type": "address"
                },
                {
                  "internalType": "int64",
                  "name": "serialNumber",
                  "type": "int64"
                }
              ],
              "internalType": "struct IHederaTokenService.NftTransfer[]",
              "name": "nftTransfers",
              "type": "tuple[]"
            }
          ],
          "internalType": "struct IHederaTokenService.TokenTransferList[]",
          "name": "tokenTransferList",
          "type": "tuple[]"
        }
      ],
      "name": "cryptoTransferPublic",
      "outputs": [
        {
          "internalType": "int256",
          "name": "responseCode",
          "type": "int256"
        }
      ],
      "stateMutability": "nonpayable",
      "type": "function"
    },
    {
      "inputs": [
        {
          "internalType": "address",
          "name": "token",
          "type": "address"
        }
      ],
      "name": "deleteTokenPublic",
      "outputs": [
        {
          "internalType": "int256",
          "name": "responseCode",
          "type": "int256"
        }
      ],
      "stateMutability": "nonpayable",
      "type": "function"
    },
    {
      "inputs": [
        {
          "internalType": "address",
          "name": "token",
          "type": "address"
        },
        {
          "internalType": "address",
          "name": "account",
          "type": "address"
        }
      ],
      "name": "freezeTokenPublic",
      "outputs": [
        {
          "internalType": "int256",
          "name": "responseCode",
          "type": "int256"
        }
      ],
      "stateMutability": "nonpayable",
      "type": "function"
    },
    {
      "inputs": [
        {
          "internalType": "address",
          "name": "token",
          "type": "address"
        },
        {
          "internalType": "uint256",
          "name": "serialNumber",
          "type": "uint256"
        }
      ],
      "name": "getApprovedPublic",
      "outputs": [
        {
          "internalType": "int256",
          "name": "responseCode",
          "type": "int256"
        },
        {
          "internalType": "address",
          "name": "approved",
          "type": "address"
        }
      ],
      "stateMutability": "nonpayable",
      "type": "function"
    },
    {
      "inputs": [
        {
          "internalType": "address",
          "name": "token",
          "type": "address"
        }
      ],
      "name": "getFungibleTokenInfoPublic",
      "outputs": [
        {
          "internalType": "int256",
          "name": "responseCode",
          "type": "int256"
        },
        {
          "components": [
            {
              "components": [
                {
                  "components": [
                    {
                      "internalType": "string",
                      "name": "name",
                      "type": "string"
                    },
                    {
                      "internalType": "string",
                      "name": "symbol",
                      "type": "string"
                    },
                    {
                      "internalType": "address",
                      "name": "treasury",
                      "type": "address"
                    },
                    {
                      "internalType": "string",
                      "name": "memo",
                      "type": "string"
                    },
                    {
                      "internalType": "bool",
                      "name": "tokenSupplyType",
                      "type": "bool"
                    },
                    {
                      "internalType": "uint32",
                      "name": "maxSupply",
                      "type": "uint32"
                    },
                    {
                      "internalType": "bool",
                      "name": "freezeDefault",
                      "type": "bool"
                    },
                    {
                      "components": [
                        {
                          "internalType": "uint256",
                          "name": "keyType",
                          "type": "uint256"
                        },
                        {
                          "components": [
                            {
                              "internalType": "bool",
                              "name": "inheritAccountKey",
                              "type": "bool"
                            },
                            {
                              "internalType": "address",
                              "name": "contractId",
                              "type": "address"
                            },
                            {
                              "internalType": "bytes",
                              "name": "ed25519",
                              "type": "bytes"
                            },
                            {
                              "internalType": "bytes",
                              "name": "ECDSA_secp256k1",
                              "type": "bytes"
                            },
                            {
                              "internalType": "address",
                              "name": "delegatableContractId",
                              "type": "address"
                            }
                          ],
                          "internalType": "struct IHederaTokenService.KeyValue",
                          "name": "key",
                          "type": "tuple"
                        }
                      ],
                      "internalType": "struct IHederaTokenService.TokenKey[]",
                      "name": "tokenKeys",
                      "type": "tuple[]"
                    },
                    {
                      "components": [
                        {
                          "internalType": "uint32",
                          "name": "second",
                          "type": "uint32"
                        },
                        {
                          "internalType": "address",
                          "name": "autoRenewAccount",
                          "type": "address"
                        },
                        {
                          "internalType": "uint32",
                          "name": "autoRenewPeriod",
                          "type": "uint32"
                        }
                      ],
                      "internalType": "struct IHederaTokenService.Expiry",
                      "name": "expiry",
                      "type": "tuple"
                    }
                  ],
                  "internalType": "struct IHederaTokenService.HederaToken",
                  "name": "token",
                  "type": "tuple"
                },
                {
                  "internalType": "uint64",
                  "name": "totalSupply",
                  "type": "uint64"
                },
                {
                  "internalType": "bool",
                  "name": "deleted",
                  "type": "bool"
                },
                {
                  "internalType": "bool",
                  "name": "defaultKycStatus",
                  "type": "bool"
                },
                {
                  "internalType": "bool",
                  "name": "pauseStatus",
                  "type": "bool"
                },
                {
                  "components": [
                    {
                      "internalType": "uint32",
                      "name": "amount",
                      "type": "uint32"
                    },
                    {
                      "internalType": "address",
                      "name": "tokenId",
                      "type": "address"
                    },
                    {
                      "internalType": "bool",
                      "name": "useHbarsForPayment",
                      "type": "bool"
                    },
                    {
                      "internalType": "bool",
                      "name": "useCurrentTokenForPayment",
                      "type": "bool"
                    },
                    {
                      "internalType": "address",
                      "name": "feeCollector",
                      "type": "address"
                    }
                  ],
                  "internalType": "struct IHederaTokenService.FixedFee[]",
                  "name": "fixedFees",
                  "type": "tuple[]"
                },
                {
                  "components": [
                    {
                      "internalType": "uint32",
                      "name": "numerator",
                      "type": "uint32"
                    },
                    {
                      "internalType": "uint32",
                      "name": "denominator",
                      "type": "uint32"
                    },
                    {
                      "internalType": "uint32",
                      "name": "minimumAmount",
                      "type": "uint32"
                    },
                    {
                      "internalType": "uint32",
                      "name": "maximumAmount",
                      "type": "uint32"
                    },
                    {
                      "internalType": "bool",
                      "name": "netOfTransfers",
                      "type": "bool"
                    },
                    {
                      "internalType": "address",
                      "name": "feeCollector",
                      "type": "address"
                    }
                  ],
                  "internalType": "struct IHederaTokenService.FractionalFee[]",
                  "name": "fractionalFees",
                  "type": "tuple[]"
                },
                {
                  "components": [
                    {
                      "internalType": "uint32",
                      "name": "numerator",
                      "type": "uint32"
                    },
                    {
                      "internalType": "uint32",
                      "name": "denominator",
                      "type": "uint32"
                    },
                    {
                      "internalType": "uint32",
                      "name": "amount",
                      "type": "uint32"
                    },
                    {
                      "internalType": "address",
                      "name": "tokenId",
                      "type": "address"
                    },
                    {
                      "internalType": "bool",
                      "name": "useHbarsForPayment",
                      "type": "bool"
                    },
                    {
                      "internalType": "address",
                      "name": "feeCollector",
                      "type": "address"
                    }
                  ],
                  "internalType": "struct IHederaTokenService.RoyaltyFee[]",
                  "name": "royaltyFees",
                  "type": "tuple[]"
                },
                {
                  "internalType": "string",
                  "name": "ledgerId",
                  "type": "string"
                }
              ],
              "internalType": "struct IHederaTokenService.TokenInfo",
              "name": "tokenInfo",
              "type": "tuple"
            },
            {
              "internalType": "uint32",
              "name": "decimals",
              "type": "uint32"
            }
          ],
          "internalType": "struct IHederaTokenService.FungibleTokenInfo",
          "name": "tokenInfo",
          "type": "tuple"
        }
      ],
      "stateMutability": "nonpayable",
      "type": "function"
    },
    {
      "inputs": [
        {
          "internalType": "address",
          "name": "token",
          "type": "address"
        },
        {
          "internalType": "int64",
          "name": "serialNumber",
          "type": "int64"
        }
      ],
      "name": "getNonFungibleTokenInfoPublic",
      "outputs": [
        {
          "internalType": "int256",
          "name": "responseCode",
          "type": "int256"
        },
        {
          "components": [
            {
              "components": [
                {
                  "components": [
                    {
                      "internalType": "string",
                      "name": "name",
                      "type": "string"
                    },
                    {
                      "internalType": "string",
                      "name": "symbol",
                      "type": "string"
                    },
                    {
                      "internalType": "address",
                      "name": "treasury",
                      "type": "address"
                    },
                    {
                      "internalType": "string",
                      "name": "memo",
                      "type": "string"
                    },
                    {
                      "internalType": "bool",
                      "name": "tokenSupplyType",
                      "type": "bool"
                    },
                    {
                      "internalType": "uint32",
                      "name": "maxSupply",
                      "type": "uint32"
                    },
                    {
                      "internalType": "bool",
                      "name": "freezeDefault",
                      "type": "bool"
                    },
                    {
                      "components": [
                        {
                          "internalType": "uint256",
                          "name": "keyType",
                          "type": "uint256"
                        },
                        {
                          "components": [
                            {
                              "internalType": "bool",
                              "name": "inheritAccountKey",
                              "type": "bool"
                            },
                            {
                              "internalType": "address",
                              "name": "contractId",
                              "type": "address"
                            },
                            {
                              "internalType": "bytes",
                              "name": "ed25519",
                              "type": "bytes"
                            },
                            {
                              "internalType": "bytes",
                              "name": "ECDSA_secp256k1",
                              "type": "bytes"
                            },
                            {
                              "internalType": "address",
                              "name": "delegatableContractId",
                              "type": "address"
                            }
                          ],
                          "internalType": "struct IHederaTokenService.KeyValue",
                          "name": "key",
                          "type": "tuple"
                        }
                      ],
                      "internalType": "struct IHederaTokenService.TokenKey[]",
                      "name": "tokenKeys",
                      "type": "tuple[]"
                    },
                    {
                      "components": [
                        {
                          "internalType": "uint32",
                          "name": "second",
                          "type": "uint32"
                        },
                        {
                          "internalType": "address",
                          "name": "autoRenewAccount",
                          "type": "address"
                        },
                        {
                          "internalType": "uint32",
                          "name": "autoRenewPeriod",
                          "type": "uint32"
                        }
                      ],
                      "internalType": "struct IHederaTokenService.Expiry",
                      "name": "expiry",
                      "type": "tuple"
                    }
                  ],
                  "internalType": "struct IHederaTokenService.HederaToken",
                  "name": "token",
                  "type": "tuple"
                },
                {
                  "internalType": "uint64",
                  "name": "totalSupply",
                  "type": "uint64"
                },
                {
                  "internalType": "bool",
                  "name": "deleted",
                  "type": "bool"
                },
                {
                  "internalType": "bool",
                  "name": "defaultKycStatus",
                  "type": "bool"
                },
                {
                  "internalType": "bool",
                  "name": "pauseStatus",
                  "type": "bool"
                },
                {
                  "components": [
                    {
                      "internalType": "uint32",
                      "name": "amount",
                      "type": "uint32"
                    },
                    {
                      "internalType": "address",
                      "name": "tokenId",
                      "type": "address"
                    },
                    {
                      "internalType": "bool",
                      "name": "useHbarsForPayment",
                      "type": "bool"
                    },
                    {
                      "internalType": "bool",
                      "name": "useCurrentTokenForPayment",
                      "type": "bool"
                    },
                    {
                      "internalType": "address",
                      "name": "feeCollector",
                      "type": "address"
                    }
                  ],
                  "internalType": "struct IHederaTokenService.FixedFee[]",
                  "name": "fixedFees",
                  "type": "tuple[]"
                },
                {
                  "components": [
                    {
                      "internalType": "uint32",
                      "name": "numerator",
                      "type": "uint32"
                    },
                    {
                      "internalType": "uint32",
                      "name": "denominator",
                      "type": "uint32"
                    },
                    {
                      "internalType": "uint32",
                      "name": "minimumAmount",
                      "type": "uint32"
                    },
                    {
                      "internalType": "uint32",
                      "name": "maximumAmount",
                      "type": "uint32"
                    },
                    {
                      "internalType": "bool",
                      "name": "netOfTransfers",
                      "type": "bool"
                    },
                    {
                      "internalType": "address",
                      "name": "feeCollector",
                      "type": "address"
                    }
                  ],
                  "internalType": "struct IHederaTokenService.FractionalFee[]",
                  "name": "fractionalFees",
                  "type": "tuple[]"
                },
                {
                  "components": [
                    {
                      "internalType": "uint32",
                      "name": "numerator",
                      "type": "uint32"
                    },
                    {
                      "internalType": "uint32",
                      "name": "denominator",
                      "type": "uint32"
                    },
                    {
                      "internalType": "uint32",
                      "name": "amount",
                      "type": "uint32"
                    },
                    {
                      "internalType": "address",
                      "name": "tokenId",
                      "type": "address"
                    },
                    {
                      "internalType": "bool",
                      "name": "useHbarsForPayment",
                      "type": "bool"
                    },
                    {
                      "internalType": "address",
                      "name": "feeCollector",
                      "type": "address"
                    }
                  ],
                  "internalType": "struct IHederaTokenService.RoyaltyFee[]",
                  "name": "royaltyFees",
                  "type": "tuple[]"
                },
                {
                  "internalType": "string",
                  "name": "ledgerId",
                  "type": "string"
                }
              ],
              "internalType": "struct IHederaTokenService.TokenInfo",
              "name": "tokenInfo",
              "type": "tuple"
            },
            {
              "internalType": "int64",
              "name": "serialNumber",
              "type": "int64"
            },
            {
              "internalType": "address",
              "name": "ownerId",
              "type": "address"
            },
            {
              "internalType": "int64",
              "name": "creationTime",
              "type": "int64"
            },
            {
              "internalType": "bytes",
              "name": "metadata",
              "type": "bytes"
            },
            {
              "internalType": "address",
              "name": "spenderId",
              "type": "address"
            }
          ],
          "internalType": "struct IHederaTokenService.NonFungibleTokenInfo",
          "name": "tokenInfo",
          "type": "tuple"
        }
      ],
      "stateMutability": "nonpayable",
      "type": "function"
    },
    {
      "inputs": [
        {
          "internalType": "address",
          "name": "token",
          "type": "address"
        }
      ],
      "name": "getTokenCustomFeesPublic",
      "outputs": [
        {
          "internalType": "int64",
          "name": "responseCode",
          "type": "int64"
        },
        {
          "components": [
            {
              "internalType": "uint32",
              "name": "amount",
              "type": "uint32"
            },
            {
              "internalType": "address",
              "name": "tokenId",
              "type": "address"
            },
            {
              "internalType": "bool",
              "name": "useHbarsForPayment",
              "type": "bool"
            },
            {
              "internalType": "bool",
              "name": "useCurrentTokenForPayment",
              "type": "bool"
            },
            {
              "internalType": "address",
              "name": "feeCollector",
              "type": "address"
            }
          ],
          "internalType": "struct IHederaTokenService.FixedFee[]",
          "name": "fixedFees",
          "type": "tuple[]"
        },
        {
          "components": [
            {
              "internalType": "uint32",
              "name": "numerator",
              "type": "uint32"
            },
            {
              "internalType": "uint32",
              "name": "denominator",
              "type": "uint32"
            },
            {
              "internalType": "uint32",
              "name": "minimumAmount",
              "type": "uint32"
            },
            {
              "internalType": "uint32",
              "name": "maximumAmount",
              "type": "uint32"
            },
            {
              "internalType": "bool",
              "name": "netOfTransfers",
              "type": "bool"
            },
            {
              "internalType": "address",
              "name": "feeCollector",
              "type": "address"
            }
          ],
          "internalType": "struct IHederaTokenService.FractionalFee[]",
          "name": "fractionalFees",
          "type": "tuple[]"
        },
        {
          "components": [
            {
              "internalType": "uint32",
              "name": "numerator",
              "type": "uint32"
            },
            {
              "internalType": "uint32",
              "name": "denominator",
              "type": "uint32"
            },
            {
              "internalType": "uint32",
              "name": "amount",
              "type": "uint32"
            },
            {
              "internalType": "address",
              "name": "tokenId",
              "type": "address"
            },
            {
              "internalType": "bool",
              "name": "useHbarsForPayment",
              "type": "bool"
            },
            {
              "internalType": "address",
              "name": "feeCollector",
              "type": "address"
            }
          ],
          "internalType": "struct IHederaTokenService.RoyaltyFee[]",
          "name": "royaltyFees",
          "type": "tuple[]"
        }
      ],
      "stateMutability": "nonpayable",
      "type": "function"
    },
    {
      "inputs": [
        {
          "internalType": "address",
          "name": "token",
          "type": "address"
        }
      ],
      "name": "getTokenDefaultFreezeStatusPublic",
      "outputs": [
        {
          "internalType": "int256",
          "name": "responseCode",
          "type": "int256"
        },
        {
          "internalType": "bool",
          "name": "defaultFreezeStatus",
          "type": "bool"
        }
      ],
      "stateMutability": "nonpayable",
      "type": "function"
    },
    {
      "inputs": [
        {
          "internalType": "address",
          "name": "token",
          "type": "address"
        }
      ],
      "name": "getTokenDefaultKycStatusPublic",
      "outputs": [
        {
          "internalType": "int256",
          "name": "responseCode",
          "type": "int256"
        },
        {
          "internalType": "bool",
          "name": "defaultKycStatus",
          "type": "bool"
        }
      ],
      "stateMutability": "nonpayable",
      "type": "function"
    },
    {
      "inputs": [
        {
          "internalType": "address",
          "name": "token",
          "type": "address"
        }
      ],
      "name": "getTokenInfoPublic",
      "outputs": [
        {
          "internalType": "int256",
          "name": "responseCode",
          "type": "int256"
        },
        {
          "components": [
            {
              "components": [
                {
                  "internalType": "string",
                  "name": "name",
                  "type": "string"
                },
                {
                  "internalType": "string",
                  "name": "symbol",
                  "type": "string"
                },
                {
                  "internalType": "address",
                  "name": "treasury",
                  "type": "address"
                },
                {
                  "internalType": "string",
                  "name": "memo",
                  "type": "string"
                },
                {
                  "internalType": "bool",
                  "name": "tokenSupplyType",
                  "type": "bool"
                },
                {
                  "internalType": "uint32",
                  "name": "maxSupply",
                  "type": "uint32"
                },
                {
                  "internalType": "bool",
                  "name": "freezeDefault",
                  "type": "bool"
                },
                {
                  "components": [
                    {
                      "internalType": "uint256",
                      "name": "keyType",
                      "type": "uint256"
                    },
                    {
                      "components": [
                        {
                          "internalType": "bool",
                          "name": "inheritAccountKey",
                          "type": "bool"
                        },
                        {
                          "internalType": "address",
                          "name": "contractId",
                          "type": "address"
                        },
                        {
                          "internalType": "bytes",
                          "name": "ed25519",
                          "type": "bytes"
                        },
                        {
                          "internalType": "bytes",
                          "name": "ECDSA_secp256k1",
                          "type": "bytes"
                        },
                        {
                          "internalType": "address",
                          "name": "delegatableContractId",
                          "type": "address"
                        }
                      ],
                      "internalType": "struct IHederaTokenService.KeyValue",
                      "name": "key",
                      "type": "tuple"
                    }
                  ],
                  "internalType": "struct IHederaTokenService.TokenKey[]",
                  "name": "tokenKeys",
                  "type": "tuple[]"
                },
                {
                  "components": [
                    {
                      "internalType": "uint32",
                      "name": "second",
                      "type": "uint32"
                    },
                    {
                      "internalType": "address",
                      "name": "autoRenewAccount",
                      "type": "address"
                    },
                    {
                      "internalType": "uint32",
                      "name": "autoRenewPeriod",
                      "type": "uint32"
                    }
                  ],
                  "internalType": "struct IHederaTokenService.Expiry",
                  "name": "expiry",
                  "type": "tuple"
                }
              ],
              "internalType": "struct IHederaTokenService.HederaToken",
              "name": "token",
              "type": "tuple"
            },
            {
              "internalType": "uint64",
              "name": "totalSupply",
              "type": "uint64"
            },
            {
              "internalType": "bool",
              "name": "deleted",
              "type": "bool"
            },
            {
              "internalType": "bool",
              "name": "defaultKycStatus",
              "type": "bool"
            },
            {
              "internalType": "bool",
              "name": "pauseStatus",
              "type": "bool"
            },
            {
              "components": [
                {
                  "internalType": "uint32",
                  "name": "amount",
                  "type": "uint32"
                },
                {
                  "internalType": "address",
                  "name": "tokenId",
                  "type": "address"
                },
                {
                  "internalType": "bool",
                  "name": "useHbarsForPayment",
                  "type": "bool"
                },
                {
                  "internalType": "bool",
                  "name": "useCurrentTokenForPayment",
                  "type": "bool"
                },
                {
                  "internalType": "address",
                  "name": "feeCollector",
                  "type": "address"
                }
              ],
              "internalType": "struct IHederaTokenService.FixedFee[]",
              "name": "fixedFees",
              "type": "tuple[]"
            },
            {
              "components": [
                {
                  "internalType": "uint32",
                  "name": "numerator",
                  "type": "uint32"
                },
                {
                  "internalType": "uint32",
                  "name": "denominator",
                  "type": "uint32"
                },
                {
                  "internalType": "uint32",
                  "name": "minimumAmount",
                  "type": "uint32"
                },
                {
                  "internalType": "uint32",
                  "name": "maximumAmount",
                  "type": "uint32"
                },
                {
                  "internalType": "bool",
                  "name": "netOfTransfers",
                  "type": "bool"
                },
                {
                  "internalType": "address",
                  "name": "feeCollector",
                  "type": "address"
                }
              ],
              "internalType": "struct IHederaTokenService.FractionalFee[]",
              "name": "fractionalFees",
              "type": "tuple[]"
            },
            {
              "components": [
                {
                  "internalType": "uint32",
                  "name": "numerator",
                  "type": "uint32"
                },
                {
                  "internalType": "uint32",
                  "name": "denominator",
                  "type": "uint32"
                },
                {
                  "internalType": "uint32",
                  "name": "amount",
                  "type": "uint32"
                },
                {
                  "internalType": "address",
                  "name": "tokenId",
                  "type": "address"
                },
                {
                  "internalType": "bool",
                  "name": "useHbarsForPayment",
                  "type": "bool"
                },
                {
                  "internalType": "address",
                  "name": "feeCollector",
                  "type": "address"
                }
              ],
              "internalType": "struct IHederaTokenService.RoyaltyFee[]",
              "name": "royaltyFees",
              "type": "tuple[]"
            },
            {
              "internalType": "string",
              "name": "ledgerId",
              "type": "string"
            }
          ],
          "internalType": "struct IHederaTokenService.TokenInfo",
          "name": "tokenInfo",
          "type": "tuple"
        }
      ],
      "stateMutability": "nonpayable",
      "type": "function"
    },
    {
      "inputs": [
        {
          "internalType": "address",
          "name": "token",
          "type": "address"
        },
        {
          "internalType": "address",
          "name": "account",
          "type": "address"
        }
      ],
      "name": "grantTokenKyc",
      "outputs": [
        {
          "internalType": "int64",
          "name": "responseCode",
          "type": "int64"
        }
      ],
      "stateMutability": "nonpayable",
      "type": "function"
    },
    {
      "inputs": [
        {
          "internalType": "address",
          "name": "token",
          "type": "address"
        },
        {
          "internalType": "address",
          "name": "account",
          "type": "address"
        }
      ],
      "name": "grantTokenKycPublic",
      "outputs": [
        {
          "internalType": "int64",
          "name": "responseCode",
          "type": "int64"
        }
      ],
      "stateMutability": "nonpayable",
      "type": "function"
    },
    {
      "inputs": [
        {
          "internalType": "address",
          "name": "token",
          "type": "address"
        },
        {
          "internalType": "address",
          "name": "owner",
          "type": "address"
        },
        {
          "internalType": "address",
          "name": "operator",
          "type": "address"
        }
      ],
      "name": "isApprovedForAllPublic",
      "outputs": [
        {
          "internalType": "int256",
          "name": "responseCode",
          "type": "int256"
        },
        {
          "internalType": "bool",
          "name": "approved",
          "type": "bool"
        }
      ],
      "stateMutability": "nonpayable",
      "type": "function"
    },
    {
      "inputs": [
        {
          "internalType": "address",
          "name": "token",
          "type": "address"
        },
        {
          "internalType": "address",
          "name": "account",
          "type": "address"
        }
      ],
      "name": "isFrozenPublic",
      "outputs": [
        {
          "internalType": "int256",
          "name": "responseCode",
          "type": "int256"
        },
        {
          "internalType": "bool",
          "name": "frozen",
          "type": "bool"
        }
      ],
      "stateMutability": "nonpayable",
      "type": "function"
    },
    {
      "inputs": [
        {
          "internalType": "address",
          "name": "token",
          "type": "address"
        },
        {
          "internalType": "address",
          "name": "account",
          "type": "address"
        }
      ],
      "name": "isKyc",
      "outputs": [
        {
          "internalType": "int64",
          "name": "responseCode",
          "type": "int64"
        },
        {
          "internalType": "bool",
          "name": "kycGranted",
          "type": "bool"
        }
      ],
      "stateMutability": "nonpayable",
      "type": "function"
    },
    {
      "inputs": [
        {
          "internalType": "address",
          "name": "token",
          "type": "address"
        },
        {
          "internalType": "address",
          "name": "account",
          "type": "address"
        }
      ],
      "name": "isKycPublic",
      "outputs": [
        {
          "internalType": "int64",
          "name": "responseCode",
          "type": "int64"
        },
        {
          "internalType": "bool",
          "name": "kycGranted",
          "type": "bool"
        }
      ],
      "stateMutability": "nonpayable",
      "type": "function"
    },
    {
      "inputs": [
        {
          "internalType": "address",
          "name": "token",
          "type": "address"
        },
        {
          "internalType": "uint64",
          "name": "amount",
          "type": "uint64"
        },
        {
          "internalType": "bytes[]",
          "name": "metadata",
          "type": "bytes[]"
        }
      ],
      "name": "mintTokenPublic",
      "outputs": [
        {
          "internalType": "int256",
          "name": "responseCode",
          "type": "int256"
        },
        {
          "internalType": "uint64",
          "name": "newTotalSupply",
          "type": "uint64"
        },
        {
          "internalType": "int64[]",
          "name": "serialNumbers",
          "type": "int64[]"
        }
      ],
      "stateMutability": "nonpayable",
      "type": "function"
    },
    {
      "inputs": [
        {
          "internalType": "address",
          "name": "token",
          "type": "address"
        }
      ],
      "name": "pauseToken",
      "outputs": [
        {
          "internalType": "int256",
          "name": "responseCode",
          "type": "int256"
        }
      ],
      "stateMutability": "nonpayable",
      "type": "function"
    },
    {
      "inputs": [
        {
          "internalType": "address",
          "name": "token",
          "type": "address"
        }
      ],
      "name": "pauseTokenPublic",
      "outputs": [
        {
          "internalType": "int256",
          "name": "responseCode",
          "type": "int256"
        }
      ],
      "stateMutability": "nonpayable",
      "type": "function"
    },
    {
      "inputs": [
        {
          "internalType": "address",
          "name": "token",
          "type": "address"
        },
        {
          "internalType": "address",
          "name": "account",
          "type": "address"
        }
      ],
      "name": "revokeTokenKyc",
      "outputs": [
        {
          "internalType": "int64",
          "name": "responseCode",
          "type": "int64"
        }
      ],
      "stateMutability": "nonpayable",
      "type": "function"
    },
    {
      "inputs": [
        {
          "internalType": "address",
          "name": "token",
          "type": "address"
        },
        {
          "internalType": "address",
          "name": "account",
          "type": "address"
        }
      ],
      "name": "revokeTokenKycPublic",
      "outputs": [
        {
          "internalType": "int64",
          "name": "responseCode",
          "type": "int64"
        }
      ],
      "stateMutability": "nonpayable",
      "type": "function"
    },
    {
      "inputs": [
        {
          "internalType": "address",
          "name": "token",
          "type": "address"
        },
        {
          "internalType": "address",
          "name": "operator",
          "type": "address"
        },
        {
          "internalType": "bool",
          "name": "approved",
          "type": "bool"
        }
      ],
      "name": "setApprovalForAllPublic",
      "outputs": [
        {
          "internalType": "int256",
          "name": "responseCode",
          "type": "int256"
        }
      ],
      "stateMutability": "nonpayable",
      "type": "function"
    },
    {
      "inputs": [
        {
          "internalType": "bool",
          "name": "newFreezeStatus",
          "type": "bool"
        }
      ],
      "name": "setFreezeDefaultStatus",
      "outputs": [],
      "stateMutability": "nonpayable",
      "type": "function"
    },
    {
      "inputs": [
        {
          "internalType": "address",
          "name": "token",
          "type": "address"
        },
        {
          "internalType": "address",
          "name": "sender",
          "type": "address"
        },
        {
          "internalType": "address",
          "name": "receiver",
          "type": "address"
        },
        {
          "internalType": "int64",
          "name": "serialNumber",
          "type": "int64"
        }
      ],
      "name": "transferNFTPublic",
      "outputs": [
        {
          "internalType": "int256",
          "name": "responseCode",
          "type": "int256"
        }
      ],
      "stateMutability": "nonpayable",
      "type": "function"
    },
    {
      "inputs": [
        {
          "internalType": "address",
          "name": "account",
          "type": "address"
        },
        {
          "internalType": "address",
          "name": "token",
          "type": "address"
        },
        {
          "internalType": "int64",
          "name": "amount",
          "type": "int64"
        }
      ],
      "name": "transferTokenPublic",
      "outputs": [
        {
          "internalType": "int256",
          "name": "responseCode",
          "type": "int256"
        }
      ],
      "stateMutability": "nonpayable",
      "type": "function"
    },
    {
      "inputs": [
        {
          "internalType": "address",
          "name": "token",
          "type": "address"
        },
        {
          "internalType": "address",
          "name": "account",
          "type": "address"
        }
      ],
      "name": "unfreezeTokenPublic",
      "outputs": [
        {
          "internalType": "int256",
          "name": "responseCode",
          "type": "int256"
        }
      ],
      "stateMutability": "nonpayable",
      "type": "function"
    },
    {
      "inputs": [
        {
          "internalType": "address",
          "name": "token",
          "type": "address"
        }
      ],
      "name": "unpauseToken",
      "outputs": [
        {
          "internalType": "int256",
          "name": "responseCode",
          "type": "int256"
        }
      ],
      "stateMutability": "nonpayable",
      "type": "function"
    },
    {
      "inputs": [
        {
          "internalType": "address",
          "name": "token",
          "type": "address"
        }
      ],
      "name": "unpauseTokenPublic",
      "outputs": [
        {
          "internalType": "int256",
          "name": "responseCode",
          "type": "int256"
        }
      ],
      "stateMutability": "nonpayable",
      "type": "function"
    },
    {
      "inputs": [
        {
          "internalType": "address",
          "name": "token",
          "type": "address"
        },
        {
          "internalType": "address",
          "name": "account",
          "type": "address"
        },
        {
          "internalType": "int64[]",
          "name": "serialNumbers",
          "type": "int64[]"
        }
      ],
      "name": "wipeTokenAccountNFTPublic",
      "outputs": [
        {
          "internalType": "int256",
          "name": "responseCode",
          "type": "int256"
        }
      ],
      "stateMutability": "nonpayable",
      "type": "function"
    },
    {
      "inputs": [
        {
          "internalType": "address",
          "name": "token",
          "type": "address"
        },
        {
          "internalType": "address",
          "name": "account",
          "type": "address"
        },
        {
          "internalType": "uint32",
          "name": "amount",
          "type": "uint32"
        }
      ],
      "name": "wipeTokenAccountPublic",
      "outputs": [
        {
          "internalType": "int256",
          "name": "responseCode",
          "type": "int256"
        }
      ],
      "stateMutability": "nonpayable",
      "type": "function"
    }
  ],
  "bytecode": "0x60c06040526009608081905268746f6b656e4e616d6560b81b60a09081526200002c9160019190620000cb565b5060408051808201909152600b8082526a1d1bdad95b94de5b589bdb60aa1b60209092019182526200006191600291620000cb565b50604080518082019091526004808252636d656d6f60e01b60209092019182526200008f91600391620000cb565b506103e860048190556005805463ffffffff1916909117905560086006556007805460ff19169055348015620000c457600080fd5b50620001ae565b828054620000d99062000171565b90600052602060002090601f016020900481019282620000fd576000855562000148565b82601f106200011857805160ff191683800117855562000148565b8280016001018555821562000148579182015b82811115620001485782518255916020019190600101906200012b565b50620001569291506200015a565b5090565b5b808211156200015657600081556001016200015b565b600181811c908216806200018657607f821691505b60208210811415620001a857634e487b7160e01b600052602260045260246000fd5b50919050565b61551680620001be6000396000f3fe60806040526004361061024f5760003560e01c80638070905f11610138578063d92ac248116100b0578063f2f38a741161007f578063f7be342511610064578063f7be34251461071f578063f848fec41461073f578063f9e978bd1461075f57600080fd5b8063f2f38a74146106d1578063f4a01e5b146106ff57600080fd5b8063d92ac24814610651578063ec855c3114610671578063f25b120014610691578063f2c31ff4146106b157600080fd5b80639604ca6511610107578063a3ad5b55116100ec578063a3ad5b55146105e4578063af99c6331461061e578063d85f74c11461063e57600080fd5b80639604ca65146105a4578063a345f7bd146105c457600080fd5b80638070905f1461052257806386f88d88146105515780638ba74da0146105715780638f8d7f991461058457600080fd5b80634cbdb37b116101cb57806369837dc21161019a5780636da6b1f01161017f5780636da6b1f0146104c25780637c41ad2c146104e25780637d3e5da81461050257600080fd5b806369837dc2146104745780636a4dde21146104a257600080fd5b80634cbdb37b146103c157806356af8403146103ef5780635a5e6c311461040f5780635b9076b71461044457600080fd5b80632d73bb2e116102225780633b3bff0f116102075780633b3bff0f1461036c5780633eed2c391461038c5780634b5c6687146103ac57600080fd5b80632d73bb2e1461032c5780632eecbca31461034c57600080fd5b80630fd2601e1461025457806313c05dd81461028c57806319db44b6146102c15780632b256ec8146102fe575b600080fd5b34801561026057600080fd5b5061027461026f366004613768565b61077f565b60405160079190910b81526020015b60405180910390f35b34801561029857600080fd5b506102ac6102a73660046137a1565b610843565b60408051928352901515602083015201610283565b3480156102cd57600080fd5b506102e16102dc3660046137ec565b6108c1565b604080519283526001600160a01b03909116602083015201610283565b34801561030a57600080fd5b5061031e610319366004613818565b610945565b604051908152602001610283565b34801561033857600080fd5b5061031e610347366004613768565b610a31565b34801561035857600080fd5b50610274610367366004613768565b610a76565b34801561037857600080fd5b5061031e610387366004613818565b610aad565b34801561039857600080fd5b506102ac6103a7366004613818565b610b87565b6103bf6103ba366004613818565b610c01565b005b3480156103cd57600080fd5b506103e16103dc366004613844565b610fc1565b604051610283929190613d6a565b3480156103fb57600080fd5b5061031e61040a366004613ea4565b611037565b34801561041b57600080fd5b5061042f61042a3660046137a1565b611081565b60408051928352602083019190915201610283565b34801561045057600080fd5b5061046461045f366004613818565b6110f2565b6040516102839493929190613f6a565b34801561048057600080fd5b5061049461048f366004613818565b611184565b604051610283929190613fe6565b3480156104ae57600080fd5b506102ac6104bd366004613768565b6111f9565b3480156104ce57600080fd5b5061031e6104dd366004613fff565b611270565b3480156104ee57600080fd5b5061031e6104fd366004613818565b6112bc565b34801561050e57600080fd5b5061031e61051d366004613768565b6112ea565b34801561052e57600080fd5b5061054261053d366004614099565b6112f6565b604051610283939291906141e2565b34801561055d57600080fd5b506102ac61056c366004613818565b61137e565b6103bf61057f366004613768565b6113ef565b34801561059057600080fd5b5061027461059f366004613768565b611881565b3480156105b057600080fd5b5061031e6105bf366004614214565b611964565b3480156105d057600080fd5b5061031e6105df366004613818565b611999565b3480156105f057600080fd5b506106046105ff366004613768565b6119df565b6040805160079390930b8352901515602083015201610283565b34801561062a57600080fd5b50610274610639366004613768565b611ad1565b6103bf61064c366004613818565b611b07565b34801561065d57600080fd5b5061031e61066c36600461429b565b611e9f565b34801561067d57600080fd5b5061031e61068c3660046142db565b611eac565b34801561069d57600080fd5b5061031e6106ac366004614329565b612083565b3480156106bd57600080fd5b506106046106cc366004613768565b612090565b3480156106dd57600080fd5b506106f16106ec366004613818565b61217d565b604051610283929190614369565b34801561070b57600080fd5b5061031e61071a366004613768565b6121f2565b34801561072b57600080fd5b5061031e61073a366004613818565b6121fe565b34801561074b57600080fd5b5061031e61075a366004614382565b6122e1565b34801561076b57600080fd5b506103bf61077a3660046143c3565b6122ee565b604051638f8d7f9960e01b81526001600160a01b038084166004830152821660248201526000903090638f8d7f99906044015b602060405180830381600087803b1580156107cc57600080fd5b505af11580156107e0573d6000803e3d6000fd5b505050506040513d601f19601f8201168201806040525081019061080491906143eb565b604051600782900b81529091506000805160206154c18339815191529060200160405180910390a1600781900b60161461083d57600080fd5b92915050565b60008061085185858561233b565b60405182815291935091506000805160206154c18339815191529060200160405180910390a16016821461088457600080fd5b60405181151581527e1c2e72360171244b3bb8cc8ddd767820edf37138ad6f129fb3574b407c307d906020015b60405180910390a1935093915050565b6000806108ce848461243a565b60405182815291935091506000805160206154c18339815191529060200160405180910390a16016821461090157600080fd5b6040516001600160a01b03821681527fc2c78c7c31baf14949e75c51df12be56edb9af523cf82839c2869bbcf13b3ecb906020015b60405180910390a19250929050565b604051631f106b4b60e21b81526001600160a01b03821660048201526000903090637c41ad2c90602401602060405180830381600087803b15801561098957600080fd5b505af115801561099d573d6000803e3d6000fd5b505050506040513d601f19601f820116820180604052508101906109c19190614408565b90506000805160206154c1833981519152816040516109e291815260200190565b60405180910390a1601681146109f757600080fd5b604051600181527f0c9c765845f4d139956bb8fc8decb2eec6093c9c608b809641b16054b29f0e13906020015b60405180910390a1919050565b6000610a3d838361251a565b60070b90506000805160206154c183398151915281604051610a6191815260200190565b60405180910390a16016811461083d57600080fd5b60405163af99c63360e01b81526001600160a01b03808416600483015282166024820152600090309063af99c633906044016107b2565b6040516001600160a01b03821660248201526000908190819061016790633b3bff0f60e01b906044015b60408051601f198184030181529181526020820180516001600160e01b03166001600160e01b0319909416939093179092529051610b159190614421565b6000604051808303816000865af19150503d8060008114610b52576040519150601f19603f3d011682016040523d82523d6000602084013e610b57565b606091505b509150915081610b68576015610b7c565b80806020019051810190610b7c919061444f565b60030b949350505050565b600080610b9383612569565b60405182815291935091506000805160206154c18339815191529060200160405180910390a160168214610bc657600080fd5b60405181151581527f6b7f3306751292f85ab4161ee2b0ac16dfc8ded13e6446ce6bd859d0a2f4c78e906020015b60405180910390a1915091565b60408051600480825260a08201909252600091816020015b610c216135da565b815260200190600190039081610c19579050509050610c5460006006600160405180602001604052806000815250612666565b81600081518110610c6757610c6761446a565b6020026020010181905250610c8d6001806040518060200160405280600081525061269d565b81600181518110610ca057610ca061446a565b6020026020010181905250610cc7600260016040518060200160405280600081525061269d565b81600281518110610cda57610cda61446a565b6020026020010181905250610d01600360016040518060200160405280600081525061269d565b81600381518110610d1457610d1461446a565b602002602001018190525060006040518060600160405280600063ffffffff168152602001846001600160a01b03168152602001627a120063ffffffff168152509050600060405180610120016040528060018054610d7290614480565b80601f0160208091040260200160405190810160405280929190818152602001828054610d9e90614480565b8015610deb5780601f10610dc057610100808354040283529160200191610deb565b820191906000526020600020905b815481529060010190602001808311610dce57829003601f168201915b5050505050815260200160028054610e0290614480565b80601f0160208091040260200160405190810160405280929190818152602001828054610e2e90614480565b8015610e7b5780601f10610e5057610100808354040283529160200191610e7b565b820191906000526020600020905b815481529060010190602001808311610e5e57829003601f168201915b50505050508152602001856001600160a01b0316815260200160038054610ea190614480565b80601f0160208091040260200160405190810160405280929190818152602001828054610ecd90614480565b8015610f1a5780601f10610eef57610100808354040283529160200191610f1a565b820191906000526020600020905b815481529060010190602001808311610efd57829003601f168201915b50505091835250506001602082015260055463ffffffff16604082015260075460ff16151560608201526080810185905260a0018390526004546006549192506000918291610f6b918591906126d2565b909250905060168214610f7d57600080fd5b6040516001600160a01b03821681527f7bb17726df1f3adee8aa00ba8e8bc5d6f182af3bbf77604639cb7f008dd3b4ed9060200160405180910390a1505050505050565b6000610fcb613637565b610fd58484612800565b60405182815291935091506000805160206154c18339815191529060200160405180910390a16016821461100857600080fd5b7fa516f81c528634d0fc1e993bba1d227231b4bd6d1beb72d33b056a6199c0f9888160405161093691906144bb565b60006110448484846128f3565b90506000805160206154c18339815191528160405161106591815260200190565b60405180910390a16016811461107a57600080fd5b9392505050565b60008061108f8585856129d3565b60405182815291935091506000805160206154c18339815191529060200160405180910390a1601682146110c257600080fd5b6040518181527f25b6684a7e8fe1b676e9c39c8dd65034fbafea906d3bdfd97bf748b7b55e14c8906020016108b1565b6000606080606061110285612abf565b604051600785900b8152939750919550935091506000805160206154c18339815191529060200160405180910390a1600784900b60161461114257600080fd5b7f2efc8334b040613a552197fe34283d6ca2909c8ffae393e128424931f20c69b3838383604051611175939291906144ce565b60405180910390a19193509193565b600061118e613672565b61119783612bbf565b60405182815291935091506000805160206154c18339815191529060200160405180910390a1601682146111ca57600080fd5b7f476a9a9b28e2717d55288b2ae3c48a72aac52b11f8bd855017c9d41d9fc1896481604051610bf49190614507565b6000806112068484612ca8565b60405160079290920b808352935091506000805160206154c18339815191529060200160405180910390a16016821461123e57600080fd5b60405181151581527f59800d968fcce138300a0019410b4b75041610d65b3cdc5f31656b03ed14912e90602001610936565b600061127e85858585612cf9565b90506000805160206154c18339815191528160405161129f91815260200190565b60405180910390a1601681146112b457600080fd5b949350505050565b6040516001600160a01b03821660248201526000908190819061016790631f106b4b60e21b90604401610ad7565b6000610a3d8383612dfa565b6000806060611306868686612e49565b60405183815292955090935091506000805160206154c18339815191529060200160405180910390a16016831461133c57600080fd5b7feff23992f47b3c101679f8b4dc9d3e242c903909dba4a453f2b2341ad463b0e2828260405161136d92919061451a565b60405180910390a193509350939050565b60008061138a83612f47565b60405182815291935091506000805160206154c18339815191529060200160405180910390a1601682146113bd57600080fd5b60405181151581527f9ee19e13dfa1ba8db2502e15ff56dbecdeb0e0473323fb195473ce648030a2cd90602001610bf4565b604080516001808252818301909252600091816020015b61140e6135da565b815260200190600190039081611406579050509050611440600080600160405180602001604052806000815250612666565b816000815181106114535761145361446a565b602002602001018190525060006040518060600160405280600063ffffffff168152602001856001600160a01b03168152602001627a120063ffffffff1681525090506000604051806101200160405280600180546114b190614480565b80601f01602080910402602001604051908101604052809291908181526020018280546114dd90614480565b801561152a5780601f106114ff5761010080835404028352916020019161152a565b820191906000526020600020905b81548152906001019060200180831161150d57829003601f168201915b505050505081526020016002805461154190614480565b80601f016020809104026020016040519081016040528092919081815260200182805461156d90614480565b80156115ba5780601f1061158f576101008083540402835291602001916115ba565b820191906000526020600020905b81548152906001019060200180831161159d57829003601f168201915b50505050508152602001866001600160a01b03168152602001600380546115e090614480565b80601f016020809104026020016040519081016040528092919081815260200182805461160c90614480565b80156116595780601f1061162e57610100808354040283529160200191611659565b820191906000526020600020905b81548152906001019060200180831161163c57829003601f168201915b505050918352505060016020820181905260055463ffffffff166040808401919091526000606084018190526080840188905260a09093018690528051828152808201909152929350909190816020015b6040805160a0810182526000808252602080830182905292820181905260608201819052608082015282526000199092019101816116aa5750506040805160a081018252600181526001600160a01b0388811660208301526000928201839052606082018390528916608082015282519293509183919061172d5761172d61446a565b6020908102919091010152604080516001808252818301909252600091816020015b6040805160c08101825260008082526020808301829052928201819052606082018190526080820181905260a0820152825260001990920191018161174f5750506040805160c0810182526004815260056020820152600a91810191909152601e60608201526000608082018190526001600160a01b038a1660a0830152825192935090918391906117e3576117e361446a565b6020026020010181905250600080611802856004546006548787612f90565b915091506000805160206154c18339815191528260405161182591815260200190565b60405180910390a16016821461183a57600080fd5b6040516001600160a01b03821681527f7bb17726df1f3adee8aa00ba8e8bc5d6f182af3bbf77604639cb7f008dd3b4ed9060200160405180910390a1505050505050505050565b6040516001600160a01b038381166024830152821660448201526000908190819061016790638f8d7f9960e01b906064015b60408051601f198184030181529181526020820180516001600160e01b03166001600160e01b03199094169390931790925290516118f19190614421565b6000604051808303816000865af19150503d806000811461192e576040519150601f19603f3d011682016040523d82523d6000602084013e611933565b606091505b509150915081611944576015611958565b80806020019051810190611958919061444f565b60030b95945050505050565b600061197861197383856145ec565b6130c4565b90506000805160206154c183398151915281604051610a6191815260200190565b60006119a4826130ee565b90506000805160206154c1833981519152816040516119c591815260200190565b60405180910390a1601681146119da57600080fd5b919050565b604051633cb0c7fd60e21b81526001600160a01b038084166004830152821660248201526000908190309063f2c31ff4906044016040805180830381600087803b158015611a2c57600080fd5b505af1158015611a40573d6000803e3d6000fd5b505050506040513d601f19601f82011682018060405250810190611a649190614764565b604051600783900b815291935091506000805160206154c18339815191529060200160405180910390a1600782900b601614611a9f57600080fd5b60405181151581527fd24dda6928587354b65aa1a18c2eaf249bef7e5bafd2a71fac71d286f76f957f90602001610936565b6040516001600160a01b03838116602483015282166044820152600090819081906101679063af99c63360e01b906064016118b3565b60408051600580825260c08201909252600091816020015b611b276135da565b815260200190600190039081611b1f579050509050611b5a60006006600160405180602001604052806000815250612666565b81600081518110611b6d57611b6d61446a565b6020026020010181905250611b936001806040518060200160405280600081525061269d565b81600181518110611ba657611ba661446a565b6020026020010181905250611bcd600260016040518060200160405280600081525061269d565b81600281518110611be057611be061446a565b6020026020010181905250611c07600460016040518060200160405280600081525061269d565b81600381518110611c1a57611c1a61446a565b6020026020010181905250611c41600360016040518060200160405280600081525061269d565b81600481518110611c5457611c5461446a565b602002602001018190525060006040518060600160405280600063ffffffff168152602001846001600160a01b03168152602001627a120063ffffffff168152509050600060405180610120016040528060018054611cb290614480565b80601f0160208091040260200160405190810160405280929190818152602001828054611cde90614480565b8015611d2b5780601f10611d0057610100808354040283529160200191611d2b565b820191906000526020600020905b815481529060010190602001808311611d0e57829003601f168201915b5050505050815260200160028054611d4290614480565b80601f0160208091040260200160405190810160405280929190818152602001828054611d6e90614480565b8015611dbb5780601f10611d9057610100808354040283529160200191611dbb565b820191906000526020600020905b815481529060010190602001808311611d9e57829003601f168201915b50505050508152602001856001600160a01b0316815260200160038054611de190614480565b80601f0160208091040260200160405190810160405280929190818152602001828054611e0d90614480565b8015611e5a5780601f10611e2f57610100808354040283529160200191611e5a565b820191906000526020600020905b815481529060010190602001808311611e3d57829003601f168201915b50505091835250506001602082015260055463ffffffff16604082015260075460ff16151560608201526080810185905260a0018390529050600080610f6b83613135565b600061104484848461321f565b60408051600080825260208201909252819081611ef1565b6040805160608101825260008082526020808301829052928201528252600019909201910181611ec45790505b50905060006040518060400160405280336001600160a01b0316815260200185611f1a90614793565b600790810b9091526040805180820182526001600160a01b038a1681529187900b602083015280516002808252606082019092529293509091600091816020015b6040805180820190915260008082526020820152815260200190600190039081611f5b5790505090508281600081518110611f9857611f9861446a565b60200260200101819052508181600181518110611fb757611fb761446a565b602090810291909101810191909152604080516060810182526001600160a01b038a16815291820183905281810186905280516001808252818301909252600091816020015b61202a604051806060016040528060006001600160a01b0316815260200160608152602001606081525090565b815260200190600190039081611ffd57905050905081816000815181106120535761205361446a565b6020026020010181905250612067816130c4565b96506016871461207657600080fd5b5050505050509392505050565b600061104484848461327a565b6040516001600160a01b0383811660248301528216604482015260009081908190819061016790633cb0c7fd60e21b906064015b60408051601f198184030181529181526020820180516001600160e01b03166001600160e01b03199094169390931790925290516121029190614421565b6000604051808303816000865af19150503d806000811461213f576040519150601f19603f3d011682016040523d82523d6000602084013e612144565b606091505b509150915081612157576015600061216b565b8080602001905181019061216b91906147c9565b60039190910b97909650945050505050565b6000612187613692565b612190836132d1565b60405182815291935091506000805160206154c18339815191529060200160405180910390a1601682146121c357600080fd5b7f528c7dcea75f0c9e110a038e50647cd6a70ac06d331399b77dd9a80f903ebc1681604051610bf491906147f5565b600061197883836133ba565b604051633b3bff0f60e01b81526001600160a01b03821660048201526000903090633b3bff0f90602401602060405180830381600087803b15801561224257600080fd5b505af1158015612256573d6000803e3d6000fd5b505050506040513d601f19601f8201168201806040525081019061227a9190614408565b90506000805160206154c18339815191528160405161229b91815260200190565b60405180910390a1601681146122b057600080fd5b604051600181527f319ab7084208e4afa38c6e6ff7aea9587439f2e4700746f4c7d425fea17426d290602001610a24565b6000611044848484613409565b6007805460ff191682151590811790915560405160ff909116151581527f457c3a16a0ebdc38e3675609957ca3fcc4490e220bd15d85d34f58e2e145cb089060200160405180910390a150565b604080516001600160a01b0385811660248301528481166044830152831660648083019190915282518083039091018152608490910182526020810180516001600160e01b03167ff49f40db000000000000000000000000000000000000000000000000000000001790529051600091829182918291610167916123be91614421565b6000604051808303816000865af19150503d80600081146123fb576040519150601f19603f3d011682016040523d82523d6000602084013e612400565b606091505b5091509150816124135760156000612427565b8080602001905181019061242791906147c9565b60039190910b9890975095505050505050565b604080516001600160a01b0384166024820152604480820184905282518083039091018152606490910182526020810180516001600160e01b03167f098f2366000000000000000000000000000000000000000000000000000000001790529051600091829182918291610167916124b191614421565b6000604051808303816000865af19150503d80600081146124ee576040519150601f19603f3d011682016040523d82523d6000602084013e6124f3565b606091505b509150915081612506576015600061216b565b8080602001905181019061216b9190614808565b6040516001600160a01b0383811660248301528216604482015260009081908190610167907f52f9138700000000000000000000000000000000000000000000000000000000906064016118b3565b6040516001600160a01b0382166024820152600090819081908190610167907fa7daa18d00000000000000000000000000000000000000000000000000000000906044015b60408051601f198184030181529181526020820180516001600160e01b03166001600160e01b03199094169390931790925290516125ec9190614421565b6000604051808303816000865af19150503d8060008114612629576040519150601f19603f3d011682016040523d82523d6000602084013e61262e565b606091505b5091509150816126415760156000612655565b8080602001905181019061265591906147c9565b60039190910b969095509350505050565b61266e6135da565b6040518060400160405280612683878761345f565b81526020016126928585613478565b905295945050505050565b6126a56135da565b60405180604001604052806126b986613548565b81526020016126c88585613478565b9052949350505050565b600080848061010001516000015163ffffffff16600014801561270257506101008101516040015163ffffffff16155b15612718576101008101516276a7006040909101525b6000806101676001600160a01b031634637812a04b60e01b8a8a8a60405160240161274593929190614834565b60408051601f198184030181529181526020820180516001600160e01b03166001600160e01b03199094169390931790925290516127839190614421565b60006040518083038185875af1925050503d80600081146127c0576040519150601f19603f3d011682016040523d82523d6000602084013e6127c5565b606091505b5091509150816127d857601560006127ec565b808060200190518101906127ec9190614808565b60039190910b999098509650505050505050565b600061280a613637565b604080516001600160a01b0386166024820152600785900b60448083019190915282518083039091018152606490910182526020810180516001600160e01b03167f287e1da800000000000000000000000000000000000000000000000000000000179052905160009182916101679161288391614421565b6000604051808303816000865af19150503d80600081146128c0576040519150601f19603f3d011682016040523d82523d6000602084013e6128c5565b606091505b50915091506128d2613637565b826128df57601581612427565b818060200190518101906124279190614f29565b60008060006101676001600160a01b031663f7f38e2660e01b87878760405160240161292193929190615011565b60408051601f198184030181529181526020820180516001600160e01b03166001600160e01b031990941693909317909252905161295f9190614421565b6000604051808303816000865af19150503d806000811461299c576040519150601f19603f3d011682016040523d82523d6000602084013e6129a1565b606091505b5091509150816129b25760156129c6565b808060200190518101906129c6919061444f565b60030b9695505050505050565b604080516001600160a01b0385811660248301528481166044830152831660648083019190915282518083039091018152608490910182526020810180516001600160e01b03167f927da10500000000000000000000000000000000000000000000000000000000179052905160009182918291829161016791612a5691614421565b6000604051808303816000865af19150503d8060008114612a93576040519150601f19603f3d011682016040523d82523d6000602084013e612a98565b606091505b509150915081612aab5760156000612427565b80806020019051810190612427919061503d565b604080516001600160a01b03831660248083019190915282518083039091018152604490910182526020810180516001600160e01b03167fae7611a0000000000000000000000000000000000000000000000000000000001790529051600091606091829182918591829161016791612b3791614421565b6000604051808303816000865af19150503d8060008114612b74576040519150601f19603f3d011682016040523d82523d6000602084013e612b79565b606091505b5091509150606080606084612b92576015838383612ba6565b83806020019051810190612ba69190615069565b60039390930b9d919c509a509098509650505050505050565b6000612bc9613672565b604080516001600160a01b03851660248083019190915282518083039091018152604490910182526020810180516001600160e01b03167f3f28a19b000000000000000000000000000000000000000000000000000000001790529051600091829161016791612c3891614421565b6000604051808303816000865af19150503d8060008114612c75576040519150601f19603f3d011682016040523d82523d6000602084013e612c7a565b606091505b5091509150612c87613672565b82612c945760158161216b565b8180602001905181019061216b9190615102565b6040516001600160a01b03838116602483015282166044820152600090819081908190610167907f46de0fb100000000000000000000000000000000000000000000000000000000906064016120c4565b604080516001600160a01b038681166024830152858116604483015284166064820152600783900b6084808301919091528251808303909101815260a490910182526020810180516001600160e01b03167f5cfc90110000000000000000000000000000000000000000000000000000000017905290516000918291829161016791612d859190614421565b6000604051808303816000865af19150503d8060008114612dc2576040519150601f19603f3d011682016040523d82523d6000602084013e612dc7565b606091505b509150915081612dd8576015612dec565b80806020019051810190612dec919061444f565b60030b979650505050505050565b6040516001600160a01b0383811660248301528216604482015260009081908190610167907f5b8f858400000000000000000000000000000000000000000000000000000000906064016118b3565b60008060606000806101676001600160a01b031663278e0b8860e01b898989604051602401612e7a939291906151ae565b60408051601f198184030181529181526020820180516001600160e01b03166001600160e01b0319909416939093179092529051612eb89190614421565b6000604051808303816000865af19150503d8060008114612ef5576040519150601f19603f3d011682016040523d82523d6000602084013e612efa565b606091505b509150915081612f1d576040805160008082526020820190925260159190612f31565b80806020019051810190612f319190615232565b60039290920b9a90995090975095505050505050565b6040516001600160a01b0382166024820152600090819081908190610167907f335e04c100000000000000000000000000000000000000000000000000000000906044016125ae565b600080868061010001516000015163ffffffff166000148015612fc057506101008101516040015163ffffffff16155b15612fd6576101008101516276a7006040909101525b6000806101676001600160a01b031634634c381ae760e01b8c8c8c8c8c6040516024016130079594939291906152e3565b60408051601f198184030181529181526020820180516001600160e01b03166001600160e01b03199094169390931790925290516130459190614421565b60006040518083038185875af1925050503d8060008114613082576040519150601f19603f3d011682016040523d82523d6000602084013e613087565b606091505b50915091508161309a57601560006130ae565b808060200190518101906130ae9190614808565b60039190910b9b909a5098505050505050505050565b60008060006101676001600160a01b031663189a554c60e01b85604051602401610ad79190615389565b6040516001600160a01b038216602482015260009081908190610167907ff069f7120000000000000000000000000000000000000000000000000000000090604401610ad7565b600080828061010001516000015163ffffffff16600014801561316557506101008101516040015163ffffffff16155b1561317b576101008101516276a7006040909101525b6000806101676001600160a01b031634639dc711e060e01b886040516024016131a4919061545f565b60408051601f198184030181529181526020820180516001600160e01b03166001600160e01b03199094169390931790925290516131e29190614421565b60006040518083038185875af1925050503d80600081146124ee576040519150601f19603f3d011682016040523d82523d6000602084013e6124f3565b6040516001600160a01b0384811660248301528316604482015263ffffffff8216606482015260009081908190610167907f9790686d0000000000000000000000000000000000000000000000000000000090608401612921565b6040516001600160a01b03848116602483015283166044820152811515606482015260009081908190610167907f367605ca0000000000000000000000000000000000000000000000000000000090608401612921565b60006132db613692565b604080516001600160a01b03851660248083019190915282518083039091018152604490910182526020810180516001600160e01b03167f1f69565f00000000000000000000000000000000000000000000000000000000179052905160009182916101679161334a91614421565b6000604051808303816000865af19150503d8060008114613387576040519150601f19603f3d011682016040523d82523d6000602084013e61338c565b606091505b5091509150613399613692565b826133a65760158161216b565b8180602001905181019061216b9190615472565b6040516001600160a01b0383811660248301528216604482015260009081908190610167907f49146bde00000000000000000000000000000000000000000000000000000000906064016118b3565b6040516001600160a01b038481166024830152831660448201526064810182905260009081908190610167907fe1f21c670000000000000000000000000000000000000000000000000000000090608401612921565b6000600160ff84161b9050600160ff83161b811761107a565b6134be6040518060a0016040528060001515815260200160006001600160a01b03168152602001606081526020016060815260200160006001600160a01b031681525090565b8260ff16600114156134d3576001815261083d565b8260ff16600214156134f5576000546001600160a01b0316602082015261083d565b8260ff166003141561350d576040810182905261083d565b8260ff1660041415613525576060810182905261083d565b8260ff166005141561083d576000546001600160a01b0316608082015292915050565b600060ff821661355a57506001919050565b8160ff166001141561356e57506002919050565b8160ff166002141561358257506004919050565b8160ff166003141561359657506008919050565b8160ff16600414156135aa57506010919050565b8160ff16600514156135be57506020919050565b8160ff16600614156135d257506040919050565b506000919050565b6040518060400160405280600081526020016136326040518060a0016040528060001515815260200160006001600160a01b03168152602001606081526020016060815260200160006001600160a01b031681525090565b905290565b6040518060c0016040528061364a613692565b8152600060208201819052604082018190526060808301829052608083015260a09091015290565b6040518060400160405280613685613692565b8152600060209091015290565b60408051610240810182526060610120820181815261014083018290526000610160840181905261018084018390526101a084018190526101c084018190526101e0840181905261020084018390528451928301855280835260208301819052938201939093526102208201529081908152602001600067ffffffffffffffff168152602001600015158152602001600015158152602001600015158152602001606081526020016060815260200160608152602001606081525090565b6001600160a01b038116811461376557600080fd5b50565b6000806040838503121561377b57600080fd5b823561378681613750565b9150602083013561379681613750565b809150509250929050565b6000806000606084860312156137b657600080fd5b83356137c181613750565b925060208401356137d181613750565b915060408401356137e181613750565b809150509250925092565b600080604083850312156137ff57600080fd5b823561380a81613750565b946020939093013593505050565b60006020828403121561382a57600080fd5b813561107a81613750565b8060070b811461376557600080fd5b6000806040838503121561385757600080fd5b823561386281613750565b9150602083013561379681613835565b60005b8381101561388d578181015183820152602001613875565b8381111561389c576000848401525b50505050565b600081518084526138ba816020860160208601613872565b601f01601f19169290920160200192915050565b600081518084526020808501808196508360051b8101915082860160005b858110156139855782840389528151604081518652868201519150808787015281511515818701528682015160606001600160a01b03808316828a015283850151935060a09250608083818b015261394760e08b01866138a2565b928601518a8403603f1901858c015292945061396385846138a2565b9501511660c098909801979097525050988501989350908401906001016138ec565b5091979650505050505050565b600061016082518185526139a8828601826138a2565b915050602083015184820360208601526139c282826138a2565b91505060408301516139df60408601826001600160a01b03169052565b50606083015184820360608601526139f782826138a2565b9150506080830151613a0d608086018215159052565b5060a0830151613a2560a086018263ffffffff169052565b5060c0830151613a3960c086018215159052565b5060e083015184820360e0860152613a5182826138ce565b61010085810151805163ffffffff9081168984015260208201516001600160a01b03166101208a015260408201511661014089015291935091505090949350505050565b600081518084526020808501945080840160005b83811015613b05578151805163ffffffff168852838101516001600160a01b03908116858a01526040808301511515908a01526060808301511515908a0152608091820151169088015260a09096019590820190600101613aa9565b509495945050505050565b600081518084526020808501945080840160005b83811015613b05578151805163ffffffff9081168952848201518116858a01526040808301518216908a01526060808301519091169089015260808082015115159089015260a0908101516001600160a01b03169088015260c09096019590820190600101613b24565b600081518084526020808501945080840160005b83811015613b05578151805163ffffffff9081168952848201518116858a0152604080830151909116908901526060808201516001600160a01b03908116918a01919091526080808301511515908a015260a091820151169088015260c09096019590820190600101613ba2565b60006101208251818552613c2682860182613992565b9150506020830151613c44602086018267ffffffffffffffff169052565b506040830151613c58604086018215159052565b506060830151613c6c606086018215159052565b506080830151613c80608086018215159052565b5060a083015184820360a0860152613c988282613a95565b91505060c083015184820360c0860152613cb28282613b10565b91505060e083015184820360e0860152613ccc8282613b8e565b9150506101008084015185830382870152613ce783826138a2565b9695505050505050565b6000815160c08452613d0660c0850182613c10565b9050602083015160070b602085015260408301516001600160a01b038082166040870152606085015160070b6060870152608085015191508583036080870152613d5083836138a2565b92508060a08601511660a087015250508091505092915050565b8281526040602082015260006112b46040830184613cf1565b634e487b7160e01b600052604160045260246000fd5b6040516060810167ffffffffffffffff81118282101715613dbc57613dbc613d83565b60405290565b6040805190810167ffffffffffffffff81118282101715613dbc57613dbc613d83565b60405160a0810167ffffffffffffffff81118282101715613dbc57613dbc613d83565b604051610120810167ffffffffffffffff81118282101715613dbc57613dbc613d83565b60405160c0810167ffffffffffffffff81118282101715613dbc57613dbc613d83565b604051601f8201601f1916810167ffffffffffffffff81118282101715613e7857613e78613d83565b604052919050565b600067ffffffffffffffff821115613e9a57613e9a613d83565b5060051b60200190565b600080600060608486031215613eb957600080fd5b8335613ec481613750565b9250602084810135613ed581613750565b9250604085013567ffffffffffffffff811115613ef157600080fd5b8501601f81018713613f0257600080fd5b8035613f15613f1082613e80565b613e4f565b81815260059190911b82018301908381019089831115613f3457600080fd5b928401925b82841015613f5b578335613f4c81613835565b82529284019290840190613f39565b80955050505050509250925092565b8460070b8152608060208201526000613f866080830186613a95565b8281036040840152613f988186613b10565b90508281036060840152613fac8185613b8e565b979650505050505050565b6000815160408452613fcc6040850182613c10565b60209384015163ffffffff16949093019390935250919050565b8281526040602082015260006112b46040830184613fb7565b6000806000806080858703121561401557600080fd5b843561402081613750565b9350602085013561403081613750565b9250604085013561404081613750565b9150606085013561405081613835565b939692955090935050565b67ffffffffffffffff8116811461376557600080fd5b600067ffffffffffffffff82111561408b5761408b613d83565b50601f01601f191660200190565b6000806000606084860312156140ae57600080fd5b83356140b981613750565b92506020848101356140ca8161405b565b925060408581013567ffffffffffffffff808211156140e857600080fd5b818801915088601f8301126140fc57600080fd5b813561410a613f1082613e80565b81815260059190911b8301850190858101908b83111561412957600080fd5b8685015b8381101561419d578035858111156141455760008081fd5b8601603f81018e136141575760008081fd5b88810135614167613f1082614071565b8181528f8a83850101111561417c5760008081fd5b818a84018c83013760009181018b019190915284525091870191870161412d565b50809750505050505050509250925092565b600081518084526020808501945080840160005b83811015613b0557815160070b875295820195908201906001016141c3565b83815267ffffffffffffffff8316602082015260606040820152600061420b60608301846141af565b95945050505050565b6000806020838503121561422757600080fd5b823567ffffffffffffffff8082111561423f57600080fd5b818501915085601f83011261425357600080fd5b81358181111561426257600080fd5b8660208260051b850101111561427757600080fd5b60209290920196919550909350505050565b63ffffffff8116811461376557600080fd5b6000806000606084860312156142b057600080fd5b83356142bb81613750565b925060208401356142cb81613750565b915060408401356137e181614289565b6000806000606084860312156142f057600080fd5b83356142fb81613750565b9250602084013561430b81613750565b915060408401356137e181613835565b801515811461376557600080fd5b60008060006060848603121561433e57600080fd5b833561434981613750565b9250602084013561435981613750565b915060408401356137e18161431b565b8281526040602082015260006112b46040830184613c10565b60008060006060848603121561439757600080fd5b83356143a281613750565b925060208401356143b281613750565b929592945050506040919091013590565b6000602082840312156143d557600080fd5b813561107a8161431b565b80516119da81613835565b6000602082840312156143fd57600080fd5b815161107a81613835565b60006020828403121561441a57600080fd5b5051919050565b60008251614433818460208701613872565b9190910192915050565b8051600381900b81146119da57600080fd5b60006020828403121561446157600080fd5b61107a8261443d565b634e487b7160e01b600052603260045260246000fd5b600181811c9082168061449457607f821691505b602082108114156144b557634e487b7160e01b600052602260045260246000fd5b50919050565b60208152600061107a6020830184613cf1565b6060815260006144e16060830186613a95565b82810360208401526144f38186613b10565b90508281036040840152613ce78185613b8e565b60208152600061107a6020830184613fb7565b67ffffffffffffffff831681526040602082015260006112b460408301846141af565b600082601f83011261454e57600080fd5b8135602061455e613f1083613e80565b8281526060928302850182019282820191908785111561457d57600080fd5b8387015b858110156145df5781818a0312156145995760008081fd5b6145a1613d99565b81356145ac81613750565b8152818601356145bb81613750565b818701526040828101356145ce81613835565b908201528452928401928101614581565b5090979650505050505050565b60006145fa613f1084613e80565b80848252602080830192508560051b85013681111561461857600080fd5b855b8181101561474d57803567ffffffffffffffff8082111561463b5760008081fd5b8189019150606082360312156146515760008081fd5b614659613d99565b823561466481613750565b815282860135828111156146785760008081fd5b830136601f82011261468a5760008081fd5b8035614698613f1082613e80565b81815260069190911b820188019088810190368311156146b85760008081fd5b928901925b8284101561470e57604084360312156146d65760008081fd5b6146de613dc2565b84356146e981613750565b8152848b01356146f881613835565b818c0152825260409390930192908901906146bd565b848a0152506040915050838101358381111561472a5760008081fd5b6147363682870161453d565b91830191909152508752505093820193820161461a565b50919695505050505050565b80516119da8161431b565b6000806040838503121561477757600080fd5b825161478281613835565b60208401519092506137968161431b565b60008160070b677fffffffffffffff198114156147c057634e487b7160e01b600052601160045260246000fd5b60000392915050565b600080604083850312156147dc57600080fd5b6147e58361443d565b915060208301516137968161431b565b60208152600061107a6020830184613c10565b6000806040838503121561481b57600080fd5b6148248361443d565b9150602083015161379681613750565b6060815260006148476060830186613992565b60208301949094525060400152919050565b600082601f83011261486a57600080fd5b8151614878613f1082614071565b81815284602083860101111561488d57600080fd5b6112b4826020830160208701613872565b80516119da81613750565b80516119da81614289565b600082601f8301126148c557600080fd5b815160206148d5613f1083613e80565b82815260059290921b840181019181810190868411156148f457600080fd5b8286015b84811015614a0a57805167ffffffffffffffff8082111561491857600080fd5b908801906040601f19838c03810182131561493257600080fd5b61493a613dc2565b888501518152828501518481111561495157600080fd5b949094019360a0858e03830112156149695760008081fd5b614971613de5565b9150888501516149808161431b565b82528483015161498f81613750565b828a0152606085810151858111156149a75760008081fd5b6149b58f8c838a0101614859565b85850152506080935083860151858111156149d05760008081fd5b6149de8f8c838a0101614859565b8285015250506149f060a0860161489e565b9282019290925281880152855250509183019183016148f8565b509695505050505050565b600060608284031215614a2757600080fd5b614a2f613d99565b90508151614a3c81614289565b81526020820151614a4c81613750565b60208201526040820151614a5f81614289565b604082015292915050565b60006101608284031215614a7d57600080fd5b614a85613e08565b9050815167ffffffffffffffff80821115614a9f57600080fd5b614aab85838601614859565b83526020840151915080821115614ac157600080fd5b614acd85838601614859565b6020840152614ade6040850161489e565b60408401526060840151915080821115614af757600080fd5b614b0385838601614859565b6060840152614b1460808501614759565b6080840152614b2560a085016148a9565b60a0840152614b3660c08501614759565b60c084015260e0840151915080821115614b4f57600080fd5b50614b5c848285016148b4565b60e083015250610100614b7184828501614a15565b9082015292915050565b80516119da8161405b565b600082601f830112614b9757600080fd5b81516020614ba7613f1083613e80565b82815260a09283028501820192828201919087851115614bc657600080fd5b8387015b858110156145df5781818a031215614be25760008081fd5b614bea613de5565b8151614bf581614289565b815281860151614c0481613750565b81870152604082810151614c178161431b565b90820152606082810151614c2a8161431b565b90820152608082810151614c3d81613750565b908201528452928401928101614bca565b600082601f830112614c5f57600080fd5b81516020614c6f613f1083613e80565b82815260c09283028501820192828201919087851115614c8e57600080fd5b8387015b858110156145df5781818a031215614caa5760008081fd5b614cb2613e2c565b8151614cbd81614289565b815281860151614ccc81614289565b81870152604082810151614cdf81614289565b90820152606082810151614cf281614289565b90820152608082810151614d058161431b565b9082015260a082810151614d1881613750565b908201528452928401928101614c92565b600082601f830112614d3a57600080fd5b81516020614d4a613f1083613e80565b82815260c09283028501820192828201919087851115614d6957600080fd5b8387015b858110156145df5781818a031215614d855760008081fd5b614d8d613e2c565b8151614d9881614289565b815281860151614da781614289565b81870152604082810151614dba81614289565b90820152606082810151614dcd81613750565b90820152608082810151614de08161431b565b9082015260a082810151614df381613750565b908201528452928401928101614d6d565b60006101208284031215614e1757600080fd5b614e1f613e08565b9050815167ffffffffffffffff80821115614e3957600080fd5b614e4585838601614a6a565b8352614e5360208501614b7b565b6020840152614e6460408501614759565b6040840152614e7560608501614759565b6060840152614e8660808501614759565b608084015260a0840151915080821115614e9f57600080fd5b614eab85838601614b86565b60a084015260c0840151915080821115614ec457600080fd5b614ed085838601614c4e565b60c084015260e0840151915080821115614ee957600080fd5b614ef585838601614d29565b60e084015261010091508184015181811115614f1057600080fd5b614f1c86828701614859565b8385015250505092915050565b60008060408385031215614f3c57600080fd5b614f458361443d565b9150602083015167ffffffffffffffff80821115614f6257600080fd5b9084019060c08287031215614f7657600080fd5b614f7e613e2c565b825182811115614f8d57600080fd5b614f9988828601614e04565b825250614fa8602084016143e0565b6020820152614fb96040840161489e565b6040820152614fca606084016143e0565b6060820152608083015182811115614fe157600080fd5b614fed88828601614859565b608083015250614fff60a0840161489e565b60a08201528093505050509250929050565b60006001600160a01b0380861683528085166020840152506060604083015261420b60608301846141af565b6000806040838503121561505057600080fd5b6150598361443d565b9150602083015190509250929050565b6000806000806080858703121561507f57600080fd5b6150888561443d565b9350602085015167ffffffffffffffff808211156150a557600080fd5b6150b188838901614b86565b945060408701519150808211156150c757600080fd5b6150d388838901614c4e565b935060608701519150808211156150e957600080fd5b506150f687828801614d29565b91505092959194509250565b6000806040838503121561511557600080fd5b61511e8361443d565b9150602083015167ffffffffffffffff8082111561513b57600080fd5b908401906040828703121561514f57600080fd5b60405160408101818110838211171561516a5761516a613d83565b60405282518281111561517c57600080fd5b61518888828601614e04565b8252506020830151925061519b83614289565b8260208201528093505050509250929050565b6000606082016001600160a01b0386168352602067ffffffffffffffff8616818501526060604085015281855180845260808601915060808160051b870101935082870160005b8281101561522357607f198887030184526152118683516138a2565b955092840192908401906001016151f5565b50939998505050505050505050565b60008060006060848603121561524757600080fd5b6152508461443d565b92506020808501516152618161405b565b604086015190935067ffffffffffffffff81111561527e57600080fd5b8501601f8101871361528f57600080fd5b805161529d613f1082613e80565b81815260059190911b820183019083810190898311156152bc57600080fd5b928401925b82841015613f5b5783516152d481613835565b825292840192908401906152c1565b60a0815260006152f660a0830188613992565b86602084015285604084015282810360608401526153148186613a95565b905082810360808401526153288185613b10565b98975050505050505050565b600081518084526020808501945080840160005b83811015613b0557815180516001600160a01b03908116895284820151168489015260409081015160070b9088015260609096019590820190600101615348565b60006020808301818452808551808352604092508286019150828160051b8701018488016000805b8481101561545057898403603f19018652825180516001600160a01b0390811686528982015160608b880181905281519088018190526080880192918c01919086905b808210156154225783518051841686528e015160070b8e860152938c0193928d0192600191909101906153f4565b5050505090880151858203868a01529061543c8183615334565b978a019795505050918701916001016153b1565b50919998505050505050505050565b60208152600061107a6020830184613992565b6000806040838503121561548557600080fd5b61548e8361443d565b9150602083015167ffffffffffffffff8111156154aa57600080fd5b6154b685828601614e04565b915050925092905056fe90a5cf4cffe88b4edbb041cfc7a8a812c48a5ec30b84640fb37690875168e3aaa2646970667358221220e380351a6b5f0665f33b093847710b429644bb73cdd579e97f6a582fa9c8d4fd64736f6c63430008090033",
  "linkReferences": {},
  "deployedLinkReferences": {}
}