{
  "_format": "hh-sol-artifact-1",
  "contractName": "BaseHTS",
  "sourceName": "contracts/BaseHTS.sol",
  "abi": [
    {
      "anonymous": false,
      "inputs": [
        {
          "indexed": false,
          "internalType": "uint256",
          "name": "amount",
          "type": "uint256"
        }
      ],
      "name": "AllowanceValue",
      "type": "event"
    },
    {
      "anonymous": false,
      "inputs": [
        {
          "indexed": false,
          "internalType": "bool",
          "name": "approved",
          "type": "bool"
        }
      ],
      "name": "Approved",
      "type": "event"
    },
    {
      "anonymous": false,
      "inputs": [
        {
          "indexed": false,
          "internalType": "address",
          "name": "approved",
          "type": "address"
        }
      ],
      "name": "ApprovedAddress",
      "type": "event"
    },
    {
      "anonymous": false,
      "inputs": [
        {
          "indexed": false,
          "internalType": "address",
          "name": "tokenAddress",
          "type": "address"
        }
      ],
      "name": "CreatedToken",
      "type": "event"
    },
    {
      "anonymous": false,
      "inputs": [
        {
          "indexed": false,
          "internalType": "bool",
          "name": "freezeStatus",
          "type": "bool"
        }
      ],
      "name": "DefaultFreezeStatusChanged",
      "type": "event"
    },
    {
      "anonymous": false,
      "inputs": [
        {
          "indexed": false,
          "internalType": "bool",
          "name": "frozen",
          "type": "bool"
        }
      ],
      "name": "Frozen",
      "type": "event"
    },
    {
      "anonymous": false,
      "inputs": [
        {
          "components": [
            {
              "components": [
                {
                  "components": [
                    {
                      "internalType": "string",
                      "name": "name",
                      "type": "string"
                    },
                    {
                      "internalType": "string",
                      "name": "symbol",
                      "type": "string"
                    },
                    {
                      "internalType": "address",
                      "name": "treasury",
                      "type": "address"
                    },
                    {
                      "internalType": "string",
                      "name": "memo",
                      "type": "string"
                    },
                    {
                      "internalType": "bool",
                      "name": "tokenSupplyType",
                      "type": "bool"
                    },
                    {
                      "internalType": "int64",
                      "name": "maxSupply",
                      "type": "int64"
                    },
                    {
                      "internalType": "bool",
                      "name": "freezeDefault",
                      "type": "bool"
                    },
                    {
                      "components": [
                        {
                          "internalType": "uint256",
                          "name": "keyType",
                          "type": "uint256"
                        },
                        {
                          "components": [
                            {
                              "internalType": "bool",
                              "name": "inheritAccountKey",
                              "type": "bool"
                            },
                            {
                              "internalType": "address",
                              "name": "contractId",
                              "type": "address"
                            },
                            {
                              "internalType": "bytes",
                              "name": "ed25519",
                              "type": "bytes"
                            },
                            {
                              "internalType": "bytes",
                              "name": "ECDSA_secp256k1",
                              "type": "bytes"
                            },
                            {
                              "internalType": "address",
                              "name": "delegatableContractId",
                              "type": "address"
                            }
                          ],
                          "internalType": "struct IHederaTokenService.KeyValue",
                          "name": "key",
                          "type": "tuple"
                        }
                      ],
                      "internalType": "struct IHederaTokenService.TokenKey[]",
                      "name": "tokenKeys",
                      "type": "tuple[]"
                    },
                    {
                      "components": [
                        {
                          "internalType": "uint32",
                          "name": "second",
                          "type": "uint32"
                        },
                        {
                          "internalType": "address",
                          "name": "autoRenewAccount",
                          "type": "address"
                        },
                        {
                          "internalType": "uint32",
                          "name": "autoRenewPeriod",
                          "type": "uint32"
                        }
                      ],
                      "internalType": "struct IHederaTokenService.Expiry",
                      "name": "expiry",
                      "type": "tuple"
                    }
                  ],
                  "internalType": "struct IHederaTokenService.HederaToken",
                  "name": "token",
                  "type": "tuple"
                },
                {
                  "internalType": "uint64",
                  "name": "totalSupply",
                  "type": "uint64"
                },
                {
                  "internalType": "bool",
                  "name": "deleted",
                  "type": "bool"
                },
                {
                  "internalType": "bool",
                  "name": "defaultKycStatus",
                  "type": "bool"
                },
                {
                  "internalType": "bool",
                  "name": "pauseStatus",
                  "type": "bool"
                },
                {
                  "components": [
                    {
                      "internalType": "uint32",
                      "name": "amount",
                      "type": "uint32"
                    },
                    {
                      "internalType": "address",
                      "name": "tokenId",
                      "type": "address"
                    },
                    {
                      "internalType": "bool",
                      "name": "useHbarsForPayment",
                      "type": "bool"
                    },
                    {
                      "internalType": "bool",
                      "name": "useCurrentTokenForPayment",
                      "type": "bool"
                    },
                    {
                      "internalType": "address",
                      "name": "feeCollector",
                      "type": "address"
                    }
                  ],
                  "internalType": "struct IHederaTokenService.FixedFee[]",
                  "name": "fixedFees",
                  "type": "tuple[]"
                },
                {
                  "components": [
                    {
                      "internalType": "uint32",
                      "name": "numerator",
                      "type": "uint32"
                    },
                    {
                      "internalType": "uint32",
                      "name": "denominator",
                      "type": "uint32"
                    },
                    {
                      "internalType": "uint32",
                      "name": "minimumAmount",
                      "type": "uint32"
                    },
                    {
                      "internalType": "uint32",
                      "name": "maximumAmount",
                      "type": "uint32"
                    },
                    {
                      "internalType": "bool",
                      "name": "netOfTransfers",
                      "type": "bool"
                    },
                    {
                      "internalType": "address",
                      "name": "feeCollector",
                      "type": "address"
                    }
                  ],
                  "internalType": "struct IHederaTokenService.FractionalFee[]",
                  "name": "fractionalFees",
                  "type": "tuple[]"
                },
                {
                  "components": [
                    {
                      "internalType": "uint32",
                      "name": "numerator",
                      "type": "uint32"
                    },
                    {
                      "internalType": "uint32",
                      "name": "denominator",
                      "type": "uint32"
                    },
                    {
                      "internalType": "uint32",
                      "name": "amount",
                      "type": "uint32"
                    },
                    {
                      "internalType": "address",
                      "name": "tokenId",
                      "type": "address"
                    },
                    {
                      "internalType": "bool",
                      "name": "useHbarsForPayment",
                      "type": "bool"
                    },
                    {
                      "internalType": "address",
                      "name": "feeCollector",
                      "type": "address"
                    }
                  ],
                  "internalType": "struct IHederaTokenService.RoyaltyFee[]",
                  "name": "royaltyFees",
                  "type": "tuple[]"
                },
                {
                  "internalType": "string",
                  "name": "ledgerId",
                  "type": "string"
                }
              ],
              "internalType": "struct IHederaTokenService.TokenInfo",
              "name": "tokenInfo",
              "type": "tuple"
            },
            {
              "internalType": "uint32",
              "name": "decimals",
              "type": "uint32"
            }
          ],
          "indexed": false,
          "internalType": "struct IHederaTokenService.FungibleTokenInfo",
          "name": "tokenInfo",
          "type": "tuple"
        }
      ],
      "name": "FungibleTokenInfo",
      "type": "event"
    },
    {
      "anonymous": false,
      "inputs": [
        {
          "indexed": false,
          "internalType": "bool",
          "name": "isToken",
          "type": "bool"
        }
      ],
      "name": "IsToken",
      "type": "event"
    },
    {
      "anonymous": false,
      "inputs": [
        {
          "indexed": false,
          "internalType": "bool",
          "name": "kycGranted",
          "type": "bool"
        }
      ],
      "name": "KycGranted",
      "type": "event"
    },
    {
      "anonymous": false,
      "inputs": [
        {
          "indexed": false,
          "internalType": "uint64",
          "name": "newTotalSupply",
          "type": "uint64"
        },
        {
          "indexed": false,
          "internalType": "int64[]",
          "name": "serialNumbers",
          "type": "int64[]"
        }
      ],
      "name": "MintedToken",
      "type": "event"
    },
    {
      "anonymous": false,
      "inputs": [
        {
          "components": [
            {
              "components": [
                {
                  "components": [
                    {
                      "internalType": "string",
                      "name": "name",
                      "type": "string"
                    },
                    {
                      "internalType": "string",
                      "name": "symbol",
                      "type": "string"
                    },
                    {
                      "internalType": "address",
                      "name": "treasury",
                      "type": "address"
                    },
                    {
                      "internalType": "string",
                      "name": "memo",
                      "type": "string"
                    },
                    {
                      "internalType": "bool",
                      "name": "tokenSupplyType",
                      "type": "bool"
                    },
                    {
                      "internalType": "int64",
                      "name": "maxSupply",
                      "type": "int64"
                    },
                    {
                      "internalType": "bool",
                      "name": "freezeDefault",
                      "type": "bool"
                    },
                    {
                      "components": [
                        {
                          "internalType": "uint256",
                          "name": "keyType",
                          "type": "uint256"
                        },
                        {
                          "components": [
                            {
                              "internalType": "bool",
                              "name": "inheritAccountKey",
                              "type": "bool"
                            },
                            {
                              "internalType": "address",
                              "name": "contractId",
                              "type": "address"
                            },
                            {
                              "internalType": "bytes",
                              "name": "ed25519",
                              "type": "bytes"
                            },
                            {
                              "internalType": "bytes",
                              "name": "ECDSA_secp256k1",
                              "type": "bytes"
                            },
                            {
                              "internalType": "address",
                              "name": "delegatableContractId",
                              "type": "address"
                            }
                          ],
                          "internalType": "struct IHederaTokenService.KeyValue",
                          "name": "key",
                          "type": "tuple"
                        }
                      ],
                      "internalType": "struct IHederaTokenService.TokenKey[]",
                      "name": "tokenKeys",
                      "type": "tuple[]"
                    },
                    {
                      "components": [
                        {
                          "internalType": "uint32",
                          "name": "second",
                          "type": "uint32"
                        },
                        {
                          "internalType": "address",
                          "name": "autoRenewAccount",
                          "type": "address"
                        },
                        {
                          "internalType": "uint32",
                          "name": "autoRenewPeriod",
                          "type": "uint32"
                        }
                      ],
                      "internalType": "struct IHederaTokenService.Expiry",
                      "name": "expiry",
                      "type": "tuple"
                    }
                  ],
                  "internalType": "struct IHederaTokenService.HederaToken",
                  "name": "token",
                  "type": "tuple"
                },
                {
                  "internalType": "uint64",
                  "name": "totalSupply",
                  "type": "uint64"
                },
                {
                  "internalType": "bool",
                  "name": "deleted",
                  "type": "bool"
                },
                {
                  "internalType": "bool",
                  "name": "defaultKycStatus",
                  "type": "bool"
                },
                {
                  "internalType": "bool",
                  "name": "pauseStatus",
                  "type": "bool"
                },
                {
                  "components": [
                    {
                      "internalType": "uint32",
                      "name": "amount",
                      "type": "uint32"
                    },
                    {
                      "internalType": "address",
                      "name": "tokenId",
                      "type": "address"
                    },
                    {
                      "internalType": "bool",
                      "name": "useHbarsForPayment",
                      "type": "bool"
                    },
                    {
                      "internalType": "bool",
                      "name": "useCurrentTokenForPayment",
                      "type": "bool"
                    },
                    {
                      "internalType": "address",
                      "name": "feeCollector",
                      "type": "address"
                    }
                  ],
                  "internalType": "struct IHederaTokenService.FixedFee[]",
                  "name": "fixedFees",
                  "type": "tuple[]"
                },
                {
                  "components": [
                    {
                      "internalType": "uint32",
                      "name": "numerator",
                      "type": "uint32"
                    },
                    {
                      "internalType": "uint32",
                      "name": "denominator",
                      "type": "uint32"
                    },
                    {
                      "internalType": "uint32",
                      "name": "minimumAmount",
                      "type": "uint32"
                    },
                    {
                      "internalType": "uint32",
                      "name": "maximumAmount",
                      "type": "uint32"
                    },
                    {
                      "internalType": "bool",
                      "name": "netOfTransfers",
                      "type": "bool"
                    },
                    {
                      "internalType": "address",
                      "name": "feeCollector",
                      "type": "address"
                    }
                  ],
                  "internalType": "struct IHederaTokenService.FractionalFee[]",
                  "name": "fractionalFees",
                  "type": "tuple[]"
                },
                {
                  "components": [
                    {
                      "internalType": "uint32",
                      "name": "numerator",
                      "type": "uint32"
                    },
                    {
                      "internalType": "uint32",
                      "name": "denominator",
                      "type": "uint32"
                    },
                    {
                      "internalType": "uint32",
                      "name": "amount",
                      "type": "uint32"
                    },
                    {
                      "internalType": "address",
                      "name": "tokenId",
                      "type": "address"
                    },
                    {
                      "internalType": "bool",
                      "name": "useHbarsForPayment",
                      "type": "bool"
                    },
                    {
                      "internalType": "address",
                      "name": "feeCollector",
                      "type": "address"
                    }
                  ],
                  "internalType": "struct IHederaTokenService.RoyaltyFee[]",
                  "name": "royaltyFees",
                  "type": "tuple[]"
                },
                {
                  "internalType": "string",
                  "name": "ledgerId",
                  "type": "string"
                }
              ],
              "internalType": "struct IHederaTokenService.TokenInfo",
              "name": "tokenInfo",
              "type": "tuple"
            },
            {
              "internalType": "int64",
              "name": "serialNumber",
              "type": "int64"
            },
            {
              "internalType": "address",
              "name": "ownerId",
              "type": "address"
            },
            {
              "internalType": "int64",
              "name": "creationTime",
              "type": "int64"
            },
            {
              "internalType": "bytes",
              "name": "metadata",
              "type": "bytes"
            },
            {
              "internalType": "address",
              "name": "spenderId",
              "type": "address"
            }
          ],
          "indexed": false,
          "internalType": "struct IHederaTokenService.NonFungibleTokenInfo",
          "name": "tokenInfo",
          "type": "tuple"
        }
      ],
      "name": "NonFungibleTokenInfo",
      "type": "event"
    },
    {
      "anonymous": false,
      "inputs": [
        {
          "indexed": false,
          "internalType": "bool",
          "name": "paused",
          "type": "bool"
        }
      ],
      "name": "PausedToken",
      "type": "event"
    },
    {
      "anonymous": false,
      "inputs": [
        {
          "indexed": false,
          "internalType": "int256",
          "name": "responseCode",
          "type": "int256"
        }
      ],
      "name": "ResponseCode",
      "type": "event"
    },
    {
      "anonymous": false,
      "inputs": [
        {
          "components": [
            {
              "internalType": "uint32",
              "name": "amount",
              "type": "uint32"
            },
            {
              "internalType": "address",
              "name": "tokenId",
              "type": "address"
            },
            {
              "internalType": "bool",
              "name": "useHbarsForPayment",
              "type": "bool"
            },
            {
              "internalType": "bool",
              "name": "useCurrentTokenForPayment",
              "type": "bool"
            },
            {
              "internalType": "address",
              "name": "feeCollector",
              "type": "address"
            }
          ],
          "indexed": false,
          "internalType": "struct IHederaTokenService.FixedFee[]",
          "name": "fixedFees",
          "type": "tuple[]"
        },
        {
          "components": [
            {
              "internalType": "uint32",
              "name": "numerator",
              "type": "uint32"
            },
            {
              "internalType": "uint32",
              "name": "denominator",
              "type": "uint32"
            },
            {
              "internalType": "uint32",
              "name": "minimumAmount",
              "type": "uint32"
            },
            {
              "internalType": "uint32",
              "name": "maximumAmount",
              "type": "uint32"
            },
            {
              "internalType": "bool",
              "name": "netOfTransfers",
              "type": "bool"
            },
            {
              "internalType": "address",
              "name": "feeCollector",
              "type": "address"
            }
          ],
          "indexed": false,
          "internalType": "struct IHederaTokenService.FractionalFee[]",
          "name": "fractionalFees",
          "type": "tuple[]"
        },
        {
          "components": [
            {
              "internalType": "uint32",
              "name": "numerator",
              "type": "uint32"
            },
            {
              "internalType": "uint32",
              "name": "denominator",
              "type": "uint32"
            },
            {
              "internalType": "uint32",
              "name": "amount",
              "type": "uint32"
            },
            {
              "internalType": "address",
              "name": "tokenId",
              "type": "address"
            },
            {
              "internalType": "bool",
              "name": "useHbarsForPayment",
              "type": "bool"
            },
            {
              "internalType": "address",
              "name": "feeCollector",
              "type": "address"
            }
          ],
          "indexed": false,
          "internalType": "struct IHederaTokenService.RoyaltyFee[]",
          "name": "royaltyFees",
          "type": "tuple[]"
        }
      ],
      "name": "TokenCustomFees",
      "type": "event"
    },
    {
      "anonymous": false,
      "inputs": [
        {
          "indexed": false,
          "internalType": "bool",
          "name": "defaultFreezeStatus",
          "type": "bool"
        }
      ],
      "name": "TokenDefaultFreezeStatus",
      "type": "event"
    },
    {
      "anonymous": false,
      "inputs": [
        {
          "indexed": false,
          "internalType": "bool",
          "name": "defaultKycStatus",
          "type": "bool"
        }
      ],
      "name": "TokenDefaultKycStatus",
      "type": "event"
    },
    {
      "anonymous": false,
      "inputs": [
        {
          "components": [
            {
              "internalType": "uint32",
              "name": "second",
              "type": "uint32"
            },
            {
              "internalType": "address",
              "name": "autoRenewAccount",
              "type": "address"
            },
            {
              "internalType": "uint32",
              "name": "autoRenewPeriod",
              "type": "uint32"
            }
          ],
          "indexed": false,
          "internalType": "struct IHederaTokenService.Expiry",
          "name": "expiryInfo",
          "type": "tuple"
        }
      ],
      "name": "TokenExpiryInfo",
      "type": "event"
    },
    {
      "anonymous": false,
      "inputs": [
        {
          "components": [
            {
              "components": [
                {
                  "internalType": "string",
                  "name": "name",
                  "type": "string"
                },
                {
                  "internalType": "string",
                  "name": "symbol",
                  "type": "string"
                },
                {
                  "internalType": "address",
                  "name": "treasury",
                  "type": "address"
                },
                {
                  "internalType": "string",
                  "name": "memo",
                  "type": "string"
                },
                {
                  "internalType": "bool",
                  "name": "tokenSupplyType",
                  "type": "bool"
                },
                {
                  "internalType": "int64",
                  "name": "maxSupply",
                  "type": "int64"
                },
                {
                  "internalType": "bool",
                  "name": "freezeDefault",
                  "type": "bool"
                },
                {
                  "components": [
                    {
                      "internalType": "uint256",
                      "name": "keyType",
                      "type": "uint256"
                    },
                    {
                      "components": [
                        {
                          "internalType": "bool",
                          "name": "inheritAccountKey",
                          "type": "bool"
                        },
                        {
                          "internalType": "address",
                          "name": "contractId",
                          "type": "address"
                        },
                        {
                          "internalType": "bytes",
                          "name": "ed25519",
                          "type": "bytes"
                        },
                        {
                          "internalType": "bytes",
                          "name": "ECDSA_secp256k1",
                          "type": "bytes"
                        },
                        {
                          "internalType": "address",
                          "name": "delegatableContractId",
                          "type": "address"
                        }
                      ],
                      "internalType": "struct IHederaTokenService.KeyValue",
                      "name": "key",
                      "type": "tuple"
                    }
                  ],
                  "internalType": "struct IHederaTokenService.TokenKey[]",
                  "name": "tokenKeys",
                  "type": "tuple[]"
                },
                {
                  "components": [
                    {
                      "internalType": "uint32",
                      "name": "second",
                      "type": "uint32"
                    },
                    {
                      "internalType": "address",
                      "name": "autoRenewAccount",
                      "type": "address"
                    },
                    {
                      "internalType": "uint32",
                      "name": "autoRenewPeriod",
                      "type": "uint32"
                    }
                  ],
                  "internalType": "struct IHederaTokenService.Expiry",
                  "name": "expiry",
                  "type": "tuple"
                }
              ],
              "internalType": "struct IHederaTokenService.HederaToken",
              "name": "token",
              "type": "tuple"
            },
            {
              "internalType": "uint64",
              "name": "totalSupply",
              "type": "uint64"
            },
            {
              "internalType": "bool",
              "name": "deleted",
              "type": "bool"
            },
            {
              "internalType": "bool",
              "name": "defaultKycStatus",
              "type": "bool"
            },
            {
              "internalType": "bool",
              "name": "pauseStatus",
              "type": "bool"
            },
            {
              "components": [
                {
                  "internalType": "uint32",
                  "name": "amount",
                  "type": "uint32"
                },
                {
                  "internalType": "address",
                  "name": "tokenId",
                  "type": "address"
                },
                {
                  "internalType": "bool",
                  "name": "useHbarsForPayment",
                  "type": "bool"
                },
                {
                  "internalType": "bool",
                  "name": "useCurrentTokenForPayment",
                  "type": "bool"
                },
                {
                  "internalType": "address",
                  "name": "feeCollector",
                  "type": "address"
                }
              ],
              "internalType": "struct IHederaTokenService.FixedFee[]",
              "name": "fixedFees",
              "type": "tuple[]"
            },
            {
              "components": [
                {
                  "internalType": "uint32",
                  "name": "numerator",
                  "type": "uint32"
                },
                {
                  "internalType": "uint32",
                  "name": "denominator",
                  "type": "uint32"
                },
                {
                  "internalType": "uint32",
                  "name": "minimumAmount",
                  "type": "uint32"
                },
                {
                  "internalType": "uint32",
                  "name": "maximumAmount",
                  "type": "uint32"
                },
                {
                  "internalType": "bool",
                  "name": "netOfTransfers",
                  "type": "bool"
                },
                {
                  "internalType": "address",
                  "name": "feeCollector",
                  "type": "address"
                }
              ],
              "internalType": "struct IHederaTokenService.FractionalFee[]",
              "name": "fractionalFees",
              "type": "tuple[]"
            },
            {
              "components": [
                {
                  "internalType": "uint32",
                  "name": "numerator",
                  "type": "uint32"
                },
                {
                  "internalType": "uint32",
                  "name": "denominator",
                  "type": "uint32"
                },
                {
                  "internalType": "uint32",
                  "name": "amount",
                  "type": "uint32"
                },
                {
                  "internalType": "address",
                  "name": "tokenId",
                  "type": "address"
                },
                {
                  "internalType": "bool",
                  "name": "useHbarsForPayment",
                  "type": "bool"
                },
                {
                  "internalType": "address",
                  "name": "feeCollector",
                  "type": "address"
                }
              ],
              "internalType": "struct IHederaTokenService.RoyaltyFee[]",
              "name": "royaltyFees",
              "type": "tuple[]"
            },
            {
              "internalType": "string",
              "name": "ledgerId",
              "type": "string"
            }
          ],
          "indexed": false,
          "internalType": "struct IHederaTokenService.TokenInfo",
          "name": "tokenInfo",
          "type": "tuple"
        }
      ],
      "name": "TokenInfo",
      "type": "event"
    },
    {
      "anonymous": false,
      "inputs": [
        {
          "indexed": false,
          "internalType": "int32",
          "name": "tokenType",
          "type": "int32"
        }
      ],
      "name": "TokenType",
      "type": "event"
    },
    {
      "anonymous": false,
      "inputs": [
        {
          "indexed": false,
          "internalType": "bool",
          "name": "unpaused",
          "type": "bool"
        }
      ],
      "name": "UnpausedToken",
      "type": "event"
    },
    {
      "inputs": [
        {
          "internalType": "address",
          "name": "token",
          "type": "address"
        },
        {
          "internalType": "address",
          "name": "owner",
          "type": "address"
        },
        {
          "internalType": "address",
          "name": "spender",
          "type": "address"
        }
      ],
      "name": "allowancePublic",
      "outputs": [
        {
          "internalType": "int256",
          "name": "responseCode",
          "type": "int256"
        },
        {
          "internalType": "uint256",
          "name": "amount",
          "type": "uint256"
        }
      ],
      "stateMutability": "nonpayable",
      "type": "function"
    },
    {
      "inputs": [
        {
          "internalType": "address",
          "name": "token",
          "type": "address"
        },
        {
          "internalType": "address",
          "name": "approved",
          "type": "address"
        },
        {
          "internalType": "uint256",
          "name": "serialNumber",
          "type": "uint256"
        }
      ],
      "name": "approveNFTPublic",
      "outputs": [
        {
          "internalType": "int256",
          "name": "responseCode",
          "type": "int256"
        }
      ],
      "stateMutability": "nonpayable",
      "type": "function"
    },
    {
      "inputs": [
        {
          "internalType": "address",
          "name": "token",
          "type": "address"
        },
        {
          "internalType": "address",
          "name": "spender",
          "type": "address"
        },
        {
          "internalType": "uint256",
          "name": "amount",
          "type": "uint256"
        }
      ],
      "name": "approvePublic",
      "outputs": [
        {
          "internalType": "int256",
          "name": "responseCode",
          "type": "int256"
        }
      ],
      "stateMutability": "nonpayable",
      "type": "function"
    },
    {
      "inputs": [
        {
          "internalType": "address",
          "name": "account",
          "type": "address"
        },
        {
          "internalType": "address",
          "name": "token",
          "type": "address"
        }
      ],
      "name": "associateTokenPublic",
      "outputs": [
        {
          "internalType": "int256",
          "name": "responseCode",
          "type": "int256"
        }
      ],
      "stateMutability": "nonpayable",
      "type": "function"
    },
    {
      "inputs": [
        {
          "internalType": "address",
          "name": "treasury",
          "type": "address"
        }
      ],
      "name": "createFungibleTokenPublic",
      "outputs": [],
      "stateMutability": "payable",
      "type": "function"
    },
    {
      "inputs": [
        {
          "internalType": "address",
          "name": "treasury",
          "type": "address"
        },
        {
          "internalType": "address",
          "name": "fixedFeeTokenAddress",
          "type": "address"
        }
      ],
      "name": "createFungibleTokenWithCustomFeesPublic",
      "outputs": [],
      "stateMutability": "payable",
      "type": "function"
    },
    {
      "inputs": [
        {
          "internalType": "address",
          "name": "treasury",
          "type": "address"
        }
      ],
      "name": "createNonFungibleTokenPublic",
      "outputs": [],
      "stateMutability": "payable",
      "type": "function"
    },
    {
      "inputs": [
        {
          "components": [
            {
              "internalType": "address",
              "name": "token",
              "type": "address"
            },
            {
              "components": [
                {
                  "internalType": "address",
                  "name": "accountID",
                  "type": "address"
                },
                {
                  "internalType": "int64",
                  "name": "amount",
                  "type": "int64"
                }
              ],
              "internalType": "struct IHederaTokenService.AccountAmount[]",
              "name": "transfers",
              "type": "tuple[]"
            },
            {
              "components": [
                {
                  "internalType": "address",
                  "name": "senderAccountID",
                  "type": "address"
                },
                {
                  "internalType": "address",
                  "name": "receiverAccountID",
                  "type": "address"
                },
                {
                  "internalType": "int64",
                  "name": "serialNumber",
                  "type": "int64"
                }
              ],
              "internalType": "struct IHederaTokenService.NftTransfer[]",
              "name": "nftTransfers",
              "type": "tuple[]"
            }
          ],
          "internalType": "struct IHederaTokenService.TokenTransferList[]",
          "name": "tokenTransferList",
          "type": "tuple[]"
        }
      ],
      "name": "cryptoTransferPublic",
      "outputs": [
        {
          "internalType": "int256",
          "name": "responseCode",
          "type": "int256"
        }
      ],
      "stateMutability": "nonpayable",
      "type": "function"
    },
    {
      "inputs": [
        {
          "internalType": "address",
          "name": "account",
          "type": "address"
        },
        {
          "internalType": "address",
          "name": "token",
          "type": "address"
        },
        {
          "internalType": "int64",
          "name": "amount",
          "type": "int64"
        }
      ],
      "name": "cryptoTransferTokenPublic",
      "outputs": [
        {
          "internalType": "int256",
          "name": "responseCode",
          "type": "int256"
        }
      ],
      "stateMutability": "nonpayable",
      "type": "function"
    },
    {
      "inputs": [
        {
          "internalType": "address",
          "name": "token",
          "type": "address"
        }
      ],
      "name": "deleteTokenPublic",
      "outputs": [
        {
          "internalType": "int256",
          "name": "responseCode",
          "type": "int256"
        }
      ],
      "stateMutability": "nonpayable",
      "type": "function"
    },
    {
      "inputs": [
        {
          "internalType": "address",
          "name": "token",
          "type": "address"
        },
        {
          "internalType": "address",
          "name": "account",
          "type": "address"
        }
      ],
      "name": "freezeTokenPublic",
      "outputs": [
        {
          "internalType": "int256",
          "name": "responseCode",
          "type": "int256"
        }
      ],
      "stateMutability": "nonpayable",
      "type": "function"
    },
    {
      "inputs": [
        {
          "internalType": "address",
          "name": "token",
          "type": "address"
        },
        {
          "internalType": "uint256",
          "name": "serialNumber",
          "type": "uint256"
        }
      ],
      "name": "getApprovedPublic",
      "outputs": [
        {
          "internalType": "int256",
          "name": "responseCode",
          "type": "int256"
        },
        {
          "internalType": "address",
          "name": "approved",
          "type": "address"
        }
      ],
      "stateMutability": "nonpayable",
      "type": "function"
    },
    {
      "inputs": [
        {
          "internalType": "address",
          "name": "token",
          "type": "address"
        }
      ],
      "name": "getFungibleTokenInfoPublic",
      "outputs": [
        {
          "internalType": "int256",
          "name": "responseCode",
          "type": "int256"
        },
        {
          "components": [
            {
              "components": [
                {
                  "components": [
                    {
                      "internalType": "string",
                      "name": "name",
                      "type": "string"
                    },
                    {
                      "internalType": "string",
                      "name": "symbol",
                      "type": "string"
                    },
                    {
                      "internalType": "address",
                      "name": "treasury",
                      "type": "address"
                    },
                    {
                      "internalType": "string",
                      "name": "memo",
                      "type": "string"
                    },
                    {
                      "internalType": "bool",
                      "name": "tokenSupplyType",
                      "type": "bool"
                    },
                    {
                      "internalType": "int64",
                      "name": "maxSupply",
                      "type": "int64"
                    },
                    {
                      "internalType": "bool",
                      "name": "freezeDefault",
                      "type": "bool"
                    },
                    {
                      "components": [
                        {
                          "internalType": "uint256",
                          "name": "keyType",
                          "type": "uint256"
                        },
                        {
                          "components": [
                            {
                              "internalType": "bool",
                              "name": "inheritAccountKey",
                              "type": "bool"
                            },
                            {
                              "internalType": "address",
                              "name": "contractId",
                              "type": "address"
                            },
                            {
                              "internalType": "bytes",
                              "name": "ed25519",
                              "type": "bytes"
                            },
                            {
                              "internalType": "bytes",
                              "name": "ECDSA_secp256k1",
                              "type": "bytes"
                            },
                            {
                              "internalType": "address",
                              "name": "delegatableContractId",
                              "type": "address"
                            }
                          ],
                          "internalType": "struct IHederaTokenService.KeyValue",
                          "name": "key",
                          "type": "tuple"
                        }
                      ],
                      "internalType": "struct IHederaTokenService.TokenKey[]",
                      "name": "tokenKeys",
                      "type": "tuple[]"
                    },
                    {
                      "components": [
                        {
                          "internalType": "uint32",
                          "name": "second",
                          "type": "uint32"
                        },
                        {
                          "internalType": "address",
                          "name": "autoRenewAccount",
                          "type": "address"
                        },
                        {
                          "internalType": "uint32",
                          "name": "autoRenewPeriod",
                          "type": "uint32"
                        }
                      ],
                      "internalType": "struct IHederaTokenService.Expiry",
                      "name": "expiry",
                      "type": "tuple"
                    }
                  ],
                  "internalType": "struct IHederaTokenService.HederaToken",
                  "name": "token",
                  "type": "tuple"
                },
                {
                  "internalType": "uint64",
                  "name": "totalSupply",
                  "type": "uint64"
                },
                {
                  "internalType": "bool",
                  "name": "deleted",
                  "type": "bool"
                },
                {
                  "internalType": "bool",
                  "name": "defaultKycStatus",
                  "type": "bool"
                },
                {
                  "internalType": "bool",
                  "name": "pauseStatus",
                  "type": "bool"
                },
                {
                  "components": [
                    {
                      "internalType": "uint32",
                      "name": "amount",
                      "type": "uint32"
                    },
                    {
                      "internalType": "address",
                      "name": "tokenId",
                      "type": "address"
                    },
                    {
                      "internalType": "bool",
                      "name": "useHbarsForPayment",
                      "type": "bool"
                    },
                    {
                      "internalType": "bool",
                      "name": "useCurrentTokenForPayment",
                      "type": "bool"
                    },
                    {
                      "internalType": "address",
                      "name": "feeCollector",
                      "type": "address"
                    }
                  ],
                  "internalType": "struct IHederaTokenService.FixedFee[]",
                  "name": "fixedFees",
                  "type": "tuple[]"
                },
                {
                  "components": [
                    {
                      "internalType": "uint32",
                      "name": "numerator",
                      "type": "uint32"
                    },
                    {
                      "internalType": "uint32",
                      "name": "denominator",
                      "type": "uint32"
                    },
                    {
                      "internalType": "uint32",
                      "name": "minimumAmount",
                      "type": "uint32"
                    },
                    {
                      "internalType": "uint32",
                      "name": "maximumAmount",
                      "type": "uint32"
                    },
                    {
                      "internalType": "bool",
                      "name": "netOfTransfers",
                      "type": "bool"
                    },
                    {
                      "internalType": "address",
                      "name": "feeCollector",
                      "type": "address"
                    }
                  ],
                  "internalType": "struct IHederaTokenService.FractionalFee[]",
                  "name": "fractionalFees",
                  "type": "tuple[]"
                },
                {
                  "components": [
                    {
                      "internalType": "uint32",
                      "name": "numerator",
                      "type": "uint32"
                    },
                    {
                      "internalType": "uint32",
                      "name": "denominator",
                      "type": "uint32"
                    },
                    {
                      "internalType": "uint32",
                      "name": "amount",
                      "type": "uint32"
                    },
                    {
                      "internalType": "address",
                      "name": "tokenId",
                      "type": "address"
                    },
                    {
                      "internalType": "bool",
                      "name": "useHbarsForPayment",
                      "type": "bool"
                    },
                    {
                      "internalType": "address",
                      "name": "feeCollector",
                      "type": "address"
                    }
                  ],
                  "internalType": "struct IHederaTokenService.RoyaltyFee[]",
                  "name": "royaltyFees",
                  "type": "tuple[]"
                },
                {
                  "internalType": "string",
                  "name": "ledgerId",
                  "type": "string"
                }
              ],
              "internalType": "struct IHederaTokenService.TokenInfo",
              "name": "tokenInfo",
              "type": "tuple"
            },
            {
              "internalType": "uint32",
              "name": "decimals",
              "type": "uint32"
            }
          ],
          "internalType": "struct IHederaTokenService.FungibleTokenInfo",
          "name": "tokenInfo",
          "type": "tuple"
        }
      ],
      "stateMutability": "nonpayable",
      "type": "function"
    },
    {
      "inputs": [
        {
          "internalType": "address",
          "name": "token",
          "type": "address"
        },
        {
          "internalType": "int64",
          "name": "serialNumber",
          "type": "int64"
        }
      ],
      "name": "getNonFungibleTokenInfoPublic",
      "outputs": [
        {
          "internalType": "int256",
          "name": "responseCode",
          "type": "int256"
        },
        {
          "components": [
            {
              "components": [
                {
                  "components": [
                    {
                      "internalType": "string",
                      "name": "name",
                      "type": "string"
                    },
                    {
                      "internalType": "string",
                      "name": "symbol",
                      "type": "string"
                    },
                    {
                      "internalType": "address",
                      "name": "treasury",
                      "type": "address"
                    },
                    {
                      "internalType": "string",
                      "name": "memo",
                      "type": "string"
                    },
                    {
                      "internalType": "bool",
                      "name": "tokenSupplyType",
                      "type": "bool"
                    },
                    {
                      "internalType": "int64",
                      "name": "maxSupply",
                      "type": "int64"
                    },
                    {
                      "internalType": "bool",
                      "name": "freezeDefault",
                      "type": "bool"
                    },
                    {
                      "components": [
                        {
                          "internalType": "uint256",
                          "name": "keyType",
                          "type": "uint256"
                        },
                        {
                          "components": [
                            {
                              "internalType": "bool",
                              "name": "inheritAccountKey",
                              "type": "bool"
                            },
                            {
                              "internalType": "address",
                              "name": "contractId",
                              "type": "address"
                            },
                            {
                              "internalType": "bytes",
                              "name": "ed25519",
                              "type": "bytes"
                            },
                            {
                              "internalType": "bytes",
                              "name": "ECDSA_secp256k1",
                              "type": "bytes"
                            },
                            {
                              "internalType": "address",
                              "name": "delegatableContractId",
                              "type": "address"
                            }
                          ],
                          "internalType": "struct IHederaTokenService.KeyValue",
                          "name": "key",
                          "type": "tuple"
                        }
                      ],
                      "internalType": "struct IHederaTokenService.TokenKey[]",
                      "name": "tokenKeys",
                      "type": "tuple[]"
                    },
                    {
                      "components": [
                        {
                          "internalType": "uint32",
                          "name": "second",
                          "type": "uint32"
                        },
                        {
                          "internalType": "address",
                          "name": "autoRenewAccount",
                          "type": "address"
                        },
                        {
                          "internalType": "uint32",
                          "name": "autoRenewPeriod",
                          "type": "uint32"
                        }
                      ],
                      "internalType": "struct IHederaTokenService.Expiry",
                      "name": "expiry",
                      "type": "tuple"
                    }
                  ],
                  "internalType": "struct IHederaTokenService.HederaToken",
                  "name": "token",
                  "type": "tuple"
                },
                {
                  "internalType": "uint64",
                  "name": "totalSupply",
                  "type": "uint64"
                },
                {
                  "internalType": "bool",
                  "name": "deleted",
                  "type": "bool"
                },
                {
                  "internalType": "bool",
                  "name": "defaultKycStatus",
                  "type": "bool"
                },
                {
                  "internalType": "bool",
                  "name": "pauseStatus",
                  "type": "bool"
                },
                {
                  "components": [
                    {
                      "internalType": "uint32",
                      "name": "amount",
                      "type": "uint32"
                    },
                    {
                      "internalType": "address",
                      "name": "tokenId",
                      "type": "address"
                    },
                    {
                      "internalType": "bool",
                      "name": "useHbarsForPayment",
                      "type": "bool"
                    },
                    {
                      "internalType": "bool",
                      "name": "useCurrentTokenForPayment",
                      "type": "bool"
                    },
                    {
                      "internalType": "address",
                      "name": "feeCollector",
                      "type": "address"
                    }
                  ],
                  "internalType": "struct IHederaTokenService.FixedFee[]",
                  "name": "fixedFees",
                  "type": "tuple[]"
                },
                {
                  "components": [
                    {
                      "internalType": "uint32",
                      "name": "numerator",
                      "type": "uint32"
                    },
                    {
                      "internalType": "uint32",
                      "name": "denominator",
                      "type": "uint32"
                    },
                    {
                      "internalType": "uint32",
                      "name": "minimumAmount",
                      "type": "uint32"
                    },
                    {
                      "internalType": "uint32",
                      "name": "maximumAmount",
                      "type": "uint32"
                    },
                    {
                      "internalType": "bool",
                      "name": "netOfTransfers",
                      "type": "bool"
                    },
                    {
                      "internalType": "address",
                      "name": "feeCollector",
                      "type": "address"
                    }
                  ],
                  "internalType": "struct IHederaTokenService.FractionalFee[]",
                  "name": "fractionalFees",
                  "type": "tuple[]"
                },
                {
                  "components": [
                    {
                      "internalType": "uint32",
                      "name": "numerator",
                      "type": "uint32"
                    },
                    {
                      "internalType": "uint32",
                      "name": "denominator",
                      "type": "uint32"
                    },
                    {
                      "internalType": "uint32",
                      "name": "amount",
                      "type": "uint32"
                    },
                    {
                      "internalType": "address",
                      "name": "tokenId",
                      "type": "address"
                    },
                    {
                      "internalType": "bool",
                      "name": "useHbarsForPayment",
                      "type": "bool"
                    },
                    {
                      "internalType": "address",
                      "name": "feeCollector",
                      "type": "address"
                    }
                  ],
                  "internalType": "struct IHederaTokenService.RoyaltyFee[]",
                  "name": "royaltyFees",
                  "type": "tuple[]"
                },
                {
                  "internalType": "string",
                  "name": "ledgerId",
                  "type": "string"
                }
              ],
              "internalType": "struct IHederaTokenService.TokenInfo",
              "name": "tokenInfo",
              "type": "tuple"
            },
            {
              "internalType": "int64",
              "name": "serialNumber",
              "type": "int64"
            },
            {
              "internalType": "address",
              "name": "ownerId",
              "type": "address"
            },
            {
              "internalType": "int64",
              "name": "creationTime",
              "type": "int64"
            },
            {
              "internalType": "bytes",
              "name": "metadata",
              "type": "bytes"
            },
            {
              "internalType": "address",
              "name": "spenderId",
              "type": "address"
            }
          ],
          "internalType": "struct IHederaTokenService.NonFungibleTokenInfo",
          "name": "tokenInfo",
          "type": "tuple"
        }
      ],
      "stateMutability": "nonpayable",
      "type": "function"
    },
    {
      "inputs": [
        {
          "internalType": "address",
          "name": "token",
          "type": "address"
        }
      ],
      "name": "getTokenCustomFeesPublic",
      "outputs": [
        {
          "internalType": "int64",
          "name": "responseCode",
          "type": "int64"
        },
        {
          "components": [
            {
              "internalType": "uint32",
              "name": "amount",
              "type": "uint32"
            },
            {
              "internalType": "address",
              "name": "tokenId",
              "type": "address"
            },
            {
              "internalType": "bool",
              "name": "useHbarsForPayment",
              "type": "bool"
            },
            {
              "internalType": "bool",
              "name": "useCurrentTokenForPayment",
              "type": "bool"
            },
            {
              "internalType": "address",
              "name": "feeCollector",
              "type": "address"
            }
          ],
          "internalType": "struct IHederaTokenService.FixedFee[]",
          "name": "fixedFees",
          "type": "tuple[]"
        },
        {
          "components": [
            {
              "internalType": "uint32",
              "name": "numerator",
              "type": "uint32"
            },
            {
              "internalType": "uint32",
              "name": "denominator",
              "type": "uint32"
            },
            {
              "internalType": "uint32",
              "name": "minimumAmount",
              "type": "uint32"
            },
            {
              "internalType": "uint32",
              "name": "maximumAmount",
              "type": "uint32"
            },
            {
              "internalType": "bool",
              "name": "netOfTransfers",
              "type": "bool"
            },
            {
              "internalType": "address",
              "name": "feeCollector",
              "type": "address"
            }
          ],
          "internalType": "struct IHederaTokenService.FractionalFee[]",
          "name": "fractionalFees",
          "type": "tuple[]"
        },
        {
          "components": [
            {
              "internalType": "uint32",
              "name": "numerator",
              "type": "uint32"
            },
            {
              "internalType": "uint32",
              "name": "denominator",
              "type": "uint32"
            },
            {
              "internalType": "uint32",
              "name": "amount",
              "type": "uint32"
            },
            {
              "internalType": "address",
              "name": "tokenId",
              "type": "address"
            },
            {
              "internalType": "bool",
              "name": "useHbarsForPayment",
              "type": "bool"
            },
            {
              "internalType": "address",
              "name": "feeCollector",
              "type": "address"
            }
          ],
          "internalType": "struct IHederaTokenService.RoyaltyFee[]",
          "name": "royaltyFees",
          "type": "tuple[]"
        }
      ],
      "stateMutability": "nonpayable",
      "type": "function"
    },
    {
      "inputs": [
        {
          "internalType": "address",
          "name": "token",
          "type": "address"
        }
      ],
      "name": "getTokenDefaultFreezeStatusPublic",
      "outputs": [
        {
          "internalType": "int256",
          "name": "responseCode",
          "type": "int256"
        },
        {
          "internalType": "bool",
          "name": "defaultFreezeStatus",
          "type": "bool"
        }
      ],
      "stateMutability": "nonpayable",
      "type": "function"
    },
    {
      "inputs": [
        {
          "internalType": "address",
          "name": "token",
          "type": "address"
        }
      ],
      "name": "getTokenDefaultKycStatusPublic",
      "outputs": [
        {
          "internalType": "int256",
          "name": "responseCode",
          "type": "int256"
        },
        {
          "internalType": "bool",
          "name": "defaultKycStatus",
          "type": "bool"
        }
      ],
      "stateMutability": "nonpayable",
      "type": "function"
    },
    {
      "inputs": [
        {
          "internalType": "address",
          "name": "token",
          "type": "address"
        }
      ],
      "name": "getTokenExpiryInfo",
      "outputs": [
        {
          "internalType": "int256",
          "name": "responseCode",
          "type": "int256"
        },
        {
          "components": [
            {
              "internalType": "uint32",
              "name": "second",
              "type": "uint32"
            },
            {
              "internalType": "address",
              "name": "autoRenewAccount",
              "type": "address"
            },
            {
              "internalType": "uint32",
              "name": "autoRenewPeriod",
              "type": "uint32"
            }
          ],
          "internalType": "struct IHederaTokenService.Expiry",
          "name": "expiryInfo",
          "type": "tuple"
        }
      ],
      "stateMutability": "nonpayable",
      "type": "function"
    },
    {
      "inputs": [
        {
          "internalType": "address",
          "name": "token",
          "type": "address"
        }
      ],
      "name": "getTokenExpiryInfoPublic",
      "outputs": [
        {
          "internalType": "int256",
          "name": "responseCode",
          "type": "int256"
        },
        {
          "components": [
            {
              "internalType": "uint32",
              "name": "second",
              "type": "uint32"
            },
            {
              "internalType": "address",
              "name": "autoRenewAccount",
              "type": "address"
            },
            {
              "internalType": "uint32",
              "name": "autoRenewPeriod",
              "type": "uint32"
            }
          ],
          "internalType": "struct IHederaTokenService.Expiry",
          "name": "expiryInfo",
          "type": "tuple"
        }
      ],
      "stateMutability": "nonpayable",
      "type": "function"
    },
    {
      "inputs": [
        {
          "internalType": "address",
          "name": "token",
          "type": "address"
        }
      ],
      "name": "getTokenInfoPublic",
      "outputs": [
        {
          "internalType": "int256",
          "name": "responseCode",
          "type": "int256"
        },
        {
          "components": [
            {
              "components": [
                {
                  "internalType": "string",
                  "name": "name",
                  "type": "string"
                },
                {
                  "internalType": "string",
                  "name": "symbol",
                  "type": "string"
                },
                {
                  "internalType": "address",
                  "name": "treasury",
                  "type": "address"
                },
                {
                  "internalType": "string",
                  "name": "memo",
                  "type": "string"
                },
                {
                  "internalType": "bool",
                  "name": "tokenSupplyType",
                  "type": "bool"
                },
                {
                  "internalType": "int64",
                  "name": "maxSupply",
                  "type": "int64"
                },
                {
                  "internalType": "bool",
                  "name": "freezeDefault",
                  "type": "bool"
                },
                {
                  "components": [
                    {
                      "internalType": "uint256",
                      "name": "keyType",
                      "type": "uint256"
                    },
                    {
                      "components": [
                        {
                          "internalType": "bool",
                          "name": "inheritAccountKey",
                          "type": "bool"
                        },
                        {
                          "internalType": "address",
                          "name": "contractId",
                          "type": "address"
                        },
                        {
                          "internalType": "bytes",
                          "name": "ed25519",
                          "type": "bytes"
                        },
                        {
                          "internalType": "bytes",
                          "name": "ECDSA_secp256k1",
                          "type": "bytes"
                        },
                        {
                          "internalType": "address",
                          "name": "delegatableContractId",
                          "type": "address"
                        }
                      ],
                      "internalType": "struct IHederaTokenService.KeyValue",
                      "name": "key",
                      "type": "tuple"
                    }
                  ],
                  "internalType": "struct IHederaTokenService.TokenKey[]",
                  "name": "tokenKeys",
                  "type": "tuple[]"
                },
                {
                  "components": [
                    {
                      "internalType": "uint32",
                      "name": "second",
                      "type": "uint32"
                    },
                    {
                      "internalType": "address",
                      "name": "autoRenewAccount",
                      "type": "address"
                    },
                    {
                      "internalType": "uint32",
                      "name": "autoRenewPeriod",
                      "type": "uint32"
                    }
                  ],
                  "internalType": "struct IHederaTokenService.Expiry",
                  "name": "expiry",
                  "type": "tuple"
                }
              ],
              "internalType": "struct IHederaTokenService.HederaToken",
              "name": "token",
              "type": "tuple"
            },
            {
              "internalType": "uint64",
              "name": "totalSupply",
              "type": "uint64"
            },
            {
              "internalType": "bool",
              "name": "deleted",
              "type": "bool"
            },
            {
              "internalType": "bool",
              "name": "defaultKycStatus",
              "type": "bool"
            },
            {
              "internalType": "bool",
              "name": "pauseStatus",
              "type": "bool"
            },
            {
              "components": [
                {
                  "internalType": "uint32",
                  "name": "amount",
                  "type": "uint32"
                },
                {
                  "internalType": "address",
                  "name": "tokenId",
                  "type": "address"
                },
                {
                  "internalType": "bool",
                  "name": "useHbarsForPayment",
                  "type": "bool"
                },
                {
                  "internalType": "bool",
                  "name": "useCurrentTokenForPayment",
                  "type": "bool"
                },
                {
                  "internalType": "address",
                  "name": "feeCollector",
                  "type": "address"
                }
              ],
              "internalType": "struct IHederaTokenService.FixedFee[]",
              "name": "fixedFees",
              "type": "tuple[]"
            },
            {
              "components": [
                {
                  "internalType": "uint32",
                  "name": "numerator",
                  "type": "uint32"
                },
                {
                  "internalType": "uint32",
                  "name": "denominator",
                  "type": "uint32"
                },
                {
                  "internalType": "uint32",
                  "name": "minimumAmount",
                  "type": "uint32"
                },
                {
                  "internalType": "uint32",
                  "name": "maximumAmount",
                  "type": "uint32"
                },
                {
                  "internalType": "bool",
                  "name": "netOfTransfers",
                  "type": "bool"
                },
                {
                  "internalType": "address",
                  "name": "feeCollector",
                  "type": "address"
                }
              ],
              "internalType": "struct IHederaTokenService.FractionalFee[]",
              "name": "fractionalFees",
              "type": "tuple[]"
            },
            {
              "components": [
                {
                  "internalType": "uint32",
                  "name": "numerator",
                  "type": "uint32"
                },
                {
                  "internalType": "uint32",
                  "name": "denominator",
                  "type": "uint32"
                },
                {
                  "internalType": "uint32",
                  "name": "amount",
                  "type": "uint32"
                },
                {
                  "internalType": "address",
                  "name": "tokenId",
                  "type": "address"
                },
                {
                  "internalType": "bool",
                  "name": "useHbarsForPayment",
                  "type": "bool"
                },
                {
                  "internalType": "address",
                  "name": "feeCollector",
                  "type": "address"
                }
              ],
              "internalType": "struct IHederaTokenService.RoyaltyFee[]",
              "name": "royaltyFees",
              "type": "tuple[]"
            },
            {
              "internalType": "string",
              "name": "ledgerId",
              "type": "string"
            }
          ],
          "internalType": "struct IHederaTokenService.TokenInfo",
          "name": "tokenInfo",
          "type": "tuple"
        }
      ],
      "stateMutability": "nonpayable",
      "type": "function"
    },
    {
      "inputs": [
        {
          "internalType": "address",
          "name": "token",
          "type": "address"
        }
      ],
      "name": "getTokenTypePublic",
      "outputs": [
        {
          "internalType": "int64",
          "name": "responseCode",
          "type": "int64"
        },
        {
          "internalType": "int32",
          "name": "tokenType",
          "type": "int32"
        }
      ],
      "stateMutability": "nonpayable",
      "type": "function"
    },
    {
      "inputs": [
        {
          "internalType": "address",
          "name": "token",
          "type": "address"
        },
        {
          "internalType": "address",
          "name": "account",
          "type": "address"
        }
      ],
      "name": "grantTokenKyc",
      "outputs": [
        {
          "internalType": "int64",
          "name": "responseCode",
          "type": "int64"
        }
      ],
      "stateMutability": "nonpayable",
      "type": "function"
    },
    {
      "inputs": [
        {
          "internalType": "address",
          "name": "token",
          "type": "address"
        },
        {
          "internalType": "address",
          "name": "account",
          "type": "address"
        }
      ],
      "name": "grantTokenKycPublic",
      "outputs": [
        {
          "internalType": "int64",
          "name": "responseCode",
          "type": "int64"
        }
      ],
      "stateMutability": "nonpayable",
      "type": "function"
    },
    {
      "inputs": [
        {
          "internalType": "address",
          "name": "token",
          "type": "address"
        },
        {
          "internalType": "address",
          "name": "owner",
          "type": "address"
        },
        {
          "internalType": "address",
          "name": "operator",
          "type": "address"
        }
      ],
      "name": "isApprovedForAllPublic",
      "outputs": [
        {
          "internalType": "int256",
          "name": "responseCode",
          "type": "int256"
        },
        {
          "internalType": "bool",
          "name": "approved",
          "type": "bool"
        }
      ],
      "stateMutability": "nonpayable",
      "type": "function"
    },
    {
      "inputs": [
        {
          "internalType": "address",
          "name": "token",
          "type": "address"
        },
        {
          "internalType": "address",
          "name": "account",
          "type": "address"
        }
      ],
      "name": "isFrozenPublic",
      "outputs": [
        {
          "internalType": "int256",
          "name": "responseCode",
          "type": "int256"
        },
        {
          "internalType": "bool",
          "name": "frozen",
          "type": "bool"
        }
      ],
      "stateMutability": "nonpayable",
      "type": "function"
    },
    {
      "inputs": [
        {
          "internalType": "address",
          "name": "token",
          "type": "address"
        },
        {
          "internalType": "address",
          "name": "account",
          "type": "address"
        }
      ],
      "name": "isKyc",
      "outputs": [
        {
          "internalType": "int64",
          "name": "responseCode",
          "type": "int64"
        },
        {
          "internalType": "bool",
          "name": "kycGranted",
          "type": "bool"
        }
      ],
      "stateMutability": "nonpayable",
      "type": "function"
    },
    {
      "inputs": [
        {
          "internalType": "address",
          "name": "token",
          "type": "address"
        },
        {
          "internalType": "address",
          "name": "account",
          "type": "address"
        }
      ],
      "name": "isKycPublic",
      "outputs": [
        {
          "internalType": "int64",
          "name": "responseCode",
          "type": "int64"
        },
        {
          "internalType": "bool",
          "name": "kycGranted",
          "type": "bool"
        }
      ],
      "stateMutability": "nonpayable",
      "type": "function"
    },
    {
      "inputs": [
        {
          "internalType": "address",
          "name": "token",
          "type": "address"
        }
      ],
      "name": "isTokenPublic",
      "outputs": [
        {
          "internalType": "int64",
          "name": "responseCode",
          "type": "int64"
        },
        {
          "internalType": "bool",
          "name": "isTokenFlag",
          "type": "bool"
        }
      ],
      "stateMutability": "nonpayable",
      "type": "function"
    },
    {
      "inputs": [
        {
          "internalType": "address",
          "name": "token",
          "type": "address"
        },
        {
          "internalType": "uint64",
          "name": "amount",
          "type": "uint64"
        },
        {
          "internalType": "bytes[]",
          "name": "metadata",
          "type": "bytes[]"
        }
      ],
      "name": "mintTokenPublic",
      "outputs": [
        {
          "internalType": "int256",
          "name": "responseCode",
          "type": "int256"
        },
        {
          "internalType": "uint64",
          "name": "newTotalSupply",
          "type": "uint64"
        },
        {
          "internalType": "int64[]",
          "name": "serialNumbers",
          "type": "int64[]"
        }
      ],
      "stateMutability": "nonpayable",
      "type": "function"
    },
    {
      "inputs": [
        {
          "internalType": "address",
          "name": "token",
          "type": "address"
        }
      ],
      "name": "pauseToken",
      "outputs": [
        {
          "internalType": "int256",
          "name": "responseCode",
          "type": "int256"
        }
      ],
      "stateMutability": "nonpayable",
      "type": "function"
    },
    {
      "inputs": [
        {
          "internalType": "address",
          "name": "token",
          "type": "address"
        }
      ],
      "name": "pauseTokenPublic",
      "outputs": [
        {
          "internalType": "int256",
          "name": "responseCode",
          "type": "int256"
        }
      ],
      "stateMutability": "nonpayable",
      "type": "function"
    },
    {
      "inputs": [
        {
          "internalType": "address",
          "name": "token",
          "type": "address"
        },
        {
          "internalType": "address",
          "name": "account",
          "type": "address"
        }
      ],
      "name": "revokeTokenKyc",
      "outputs": [
        {
          "internalType": "int64",
          "name": "responseCode",
          "type": "int64"
        }
      ],
      "stateMutability": "nonpayable",
      "type": "function"
    },
    {
      "inputs": [
        {
          "internalType": "address",
          "name": "token",
          "type": "address"
        },
        {
          "internalType": "address",
          "name": "account",
          "type": "address"
        }
      ],
      "name": "revokeTokenKycPublic",
      "outputs": [
        {
          "internalType": "int64",
          "name": "responseCode",
          "type": "int64"
        }
      ],
      "stateMutability": "nonpayable",
      "type": "function"
    },
    {
      "inputs": [
        {
          "internalType": "address",
          "name": "token",
          "type": "address"
        },
        {
          "internalType": "address",
          "name": "operator",
          "type": "address"
        },
        {
          "internalType": "bool",
          "name": "approved",
          "type": "bool"
        }
      ],
      "name": "setApprovalForAllPublic",
      "outputs": [
        {
          "internalType": "int256",
          "name": "responseCode",
          "type": "int256"
        }
      ],
      "stateMutability": "nonpayable",
      "type": "function"
    },
    {
      "inputs": [
        {
          "internalType": "bool",
          "name": "newFreezeStatus",
          "type": "bool"
        }
      ],
      "name": "setFreezeDefaultStatus",
      "outputs": [],
      "stateMutability": "nonpayable",
      "type": "function"
    },
    {
      "inputs": [
        {
          "internalType": "address",
          "name": "token",
          "type": "address"
        },
        {
          "internalType": "address",
          "name": "sender",
          "type": "address"
        },
        {
          "internalType": "address",
          "name": "receiver",
          "type": "address"
        },
        {
          "internalType": "int64",
          "name": "serialNumber",
          "type": "int64"
        }
      ],
      "name": "transferNFTPublic",
      "outputs": [
        {
          "internalType": "int256",
          "name": "responseCode",
          "type": "int256"
        }
      ],
      "stateMutability": "nonpayable",
      "type": "function"
    },
    {
      "inputs": [
        {
          "internalType": "address",
          "name": "token",
          "type": "address"
        },
        {
          "internalType": "address",
          "name": "sender",
          "type": "address"
        },
        {
          "internalType": "address",
          "name": "receiver",
          "type": "address"
        },
        {
          "internalType": "int64",
          "name": "amount",
          "type": "int64"
        }
      ],
      "name": "transferTokenPublic",
      "outputs": [
        {
          "internalType": "int256",
          "name": "responseCode",
          "type": "int256"
        }
      ],
      "stateMutability": "nonpayable",
      "type": "function"
    },
    {
      "inputs": [
        {
          "internalType": "address",
          "name": "token",
          "type": "address"
        },
        {
          "internalType": "address",
          "name": "account",
          "type": "address"
        }
      ],
      "name": "unfreezeTokenPublic",
      "outputs": [
        {
          "internalType": "int256",
          "name": "responseCode",
          "type": "int256"
        }
      ],
      "stateMutability": "nonpayable",
      "type": "function"
    },
    {
      "inputs": [
        {
          "internalType": "address",
          "name": "token",
          "type": "address"
        }
      ],
      "name": "unpauseToken",
      "outputs": [
        {
          "internalType": "int256",
          "name": "responseCode",
          "type": "int256"
        }
      ],
      "stateMutability": "nonpayable",
      "type": "function"
    },
    {
      "inputs": [
        {
          "internalType": "address",
          "name": "token",
          "type": "address"
        }
      ],
      "name": "unpauseTokenPublic",
      "outputs": [
        {
          "internalType": "int256",
          "name": "responseCode",
          "type": "int256"
        }
      ],
      "stateMutability": "nonpayable",
      "type": "function"
    },
    {
      "inputs": [
        {
          "internalType": "address",
          "name": "token",
          "type": "address"
        },
        {
          "components": [
            {
              "internalType": "uint32",
              "name": "second",
              "type": "uint32"
            },
            {
              "internalType": "address",
              "name": "autoRenewAccount",
              "type": "address"
            },
            {
              "internalType": "uint32",
              "name": "autoRenewPeriod",
              "type": "uint32"
            }
          ],
          "internalType": "struct IHederaTokenService.Expiry",
          "name": "expiryInfo",
          "type": "tuple"
        }
      ],
      "name": "updateTokenExpiryInfo",
      "outputs": [
        {
          "internalType": "int256",
          "name": "responseCode",
          "type": "int256"
        }
      ],
      "stateMutability": "nonpayable",
      "type": "function"
    },
    {
      "inputs": [
        {
          "internalType": "address",
          "name": "token",
          "type": "address"
        },
        {
          "components": [
            {
              "internalType": "uint32",
              "name": "second",
              "type": "uint32"
            },
            {
              "internalType": "address",
              "name": "autoRenewAccount",
              "type": "address"
            },
            {
              "internalType": "uint32",
              "name": "autoRenewPeriod",
              "type": "uint32"
            }
          ],
          "internalType": "struct IHederaTokenService.Expiry",
          "name": "expiryInfo",
          "type": "tuple"
        }
      ],
      "name": "updateTokenExpiryInfoPublic",
      "outputs": [
        {
          "internalType": "int256",
          "name": "responseCode",
          "type": "int256"
        }
      ],
      "stateMutability": "nonpayable",
      "type": "function"
    },
    {
      "inputs": [
        {
          "internalType": "address",
          "name": "token",
          "type": "address"
        },
        {
          "components": [
            {
              "internalType": "string",
              "name": "name",
              "type": "string"
            },
            {
              "internalType": "string",
              "name": "symbol",
              "type": "string"
            },
            {
              "internalType": "address",
              "name": "treasury",
              "type": "address"
            },
            {
              "internalType": "string",
              "name": "memo",
              "type": "string"
            },
            {
              "internalType": "bool",
              "name": "tokenSupplyType",
              "type": "bool"
            },
            {
              "internalType": "int64",
              "name": "maxSupply",
              "type": "int64"
            },
            {
              "internalType": "bool",
              "name": "freezeDefault",
              "type": "bool"
            },
            {
              "components": [
                {
                  "internalType": "uint256",
                  "name": "keyType",
                  "type": "uint256"
                },
                {
                  "components": [
                    {
                      "internalType": "bool",
                      "name": "inheritAccountKey",
                      "type": "bool"
                    },
                    {
                      "internalType": "address",
                      "name": "contractId",
                      "type": "address"
                    },
                    {
                      "internalType": "bytes",
                      "name": "ed25519",
                      "type": "bytes"
                    },
                    {
                      "internalType": "bytes",
                      "name": "ECDSA_secp256k1",
                      "type": "bytes"
                    },
                    {
                      "internalType": "address",
                      "name": "delegatableContractId",
                      "type": "address"
                    }
                  ],
                  "internalType": "struct IHederaTokenService.KeyValue",
                  "name": "key",
                  "type": "tuple"
                }
              ],
              "internalType": "struct IHederaTokenService.TokenKey[]",
              "name": "tokenKeys",
              "type": "tuple[]"
            },
            {
              "components": [
                {
                  "internalType": "uint32",
                  "name": "second",
                  "type": "uint32"
                },
                {
                  "internalType": "address",
                  "name": "autoRenewAccount",
                  "type": "address"
                },
                {
                  "internalType": "uint32",
                  "name": "autoRenewPeriod",
                  "type": "uint32"
                }
              ],
              "internalType": "struct IHederaTokenService.Expiry",
              "name": "expiry",
              "type": "tuple"
            }
          ],
          "internalType": "struct IHederaTokenService.HederaToken",
          "name": "tokenInfo",
          "type": "tuple"
        }
      ],
      "name": "updateTokenInfo",
      "outputs": [
        {
          "internalType": "int256",
          "name": "responseCode",
          "type": "int256"
        }
      ],
      "stateMutability": "nonpayable",
      "type": "function"
    },
    {
      "inputs": [
        {
          "internalType": "address",
          "name": "token",
          "type": "address"
        },
        {
          "components": [
            {
              "internalType": "string",
              "name": "name",
              "type": "string"
            },
            {
              "internalType": "string",
              "name": "symbol",
              "type": "string"
            },
            {
              "internalType": "address",
              "name": "treasury",
              "type": "address"
            },
            {
              "internalType": "string",
              "name": "memo",
              "type": "string"
            },
            {
              "internalType": "bool",
              "name": "tokenSupplyType",
              "type": "bool"
            },
            {
              "internalType": "int64",
              "name": "maxSupply",
              "type": "int64"
            },
            {
              "internalType": "bool",
              "name": "freezeDefault",
              "type": "bool"
            },
            {
              "components": [
                {
                  "internalType": "uint256",
                  "name": "keyType",
                  "type": "uint256"
                },
                {
                  "components": [
                    {
                      "internalType": "bool",
                      "name": "inheritAccountKey",
                      "type": "bool"
                    },
                    {
                      "internalType": "address",
                      "name": "contractId",
                      "type": "address"
                    },
                    {
                      "internalType": "bytes",
                      "name": "ed25519",
                      "type": "bytes"
                    },
                    {
                      "internalType": "bytes",
                      "name": "ECDSA_secp256k1",
                      "type": "bytes"
                    },
                    {
                      "internalType": "address",
                      "name": "delegatableContractId",
                      "type": "address"
                    }
                  ],
                  "internalType": "struct IHederaTokenService.KeyValue",
                  "name": "key",
                  "type": "tuple"
                }
              ],
              "internalType": "struct IHederaTokenService.TokenKey[]",
              "name": "tokenKeys",
              "type": "tuple[]"
            },
            {
              "components": [
                {
                  "internalType": "uint32",
                  "name": "second",
                  "type": "uint32"
                },
                {
                  "internalType": "address",
                  "name": "autoRenewAccount",
                  "type": "address"
                },
                {
                  "internalType": "uint32",
                  "name": "autoRenewPeriod",
                  "type": "uint32"
                }
              ],
              "internalType": "struct IHederaTokenService.Expiry",
              "name": "expiry",
              "type": "tuple"
            }
          ],
          "internalType": "struct IHederaTokenService.HederaToken",
          "name": "tokenInfo",
          "type": "tuple"
        }
      ],
      "name": "updateTokenInfoPublic",
      "outputs": [
        {
          "internalType": "int256",
          "name": "responseCode",
          "type": "int256"
        }
      ],
      "stateMutability": "nonpayable",
      "type": "function"
    },
    {
      "inputs": [
        {
          "internalType": "address",
          "name": "token",
          "type": "address"
        },
        {
          "internalType": "address",
          "name": "account",
          "type": "address"
        },
        {
          "internalType": "int64[]",
          "name": "serialNumbers",
          "type": "int64[]"
        }
      ],
      "name": "wipeTokenAccountNFTPublic",
      "outputs": [
        {
          "internalType": "int256",
          "name": "responseCode",
          "type": "int256"
        }
      ],
      "stateMutability": "nonpayable",
      "type": "function"
    },
    {
      "inputs": [
        {
          "internalType": "address",
          "name": "token",
          "type": "address"
        },
        {
          "internalType": "address",
          "name": "account",
          "type": "address"
        },
        {
          "internalType": "uint32",
          "name": "amount",
          "type": "uint32"
        }
      ],
      "name": "wipeTokenAccountPublic",
      "outputs": [
        {
          "internalType": "int256",
          "name": "responseCode",
          "type": "int256"
        }
      ],
      "stateMutability": "nonpayable",
      "type": "function"
    }
  ],
  "bytecode": "0x60c06040526009608081905268746f6b656e4e616d6560b81b60a09081526200002c9160019190620000c7565b5060408051808201909152600b8082526a1d1bdad95b94de5b589bdb60aa1b60209092019182526200006191600291620000c7565b50604080518082019091526004808252636d656d6f60e01b60209092019182526200008f91600391620000c7565b50600480546001600160a81b031916700800000000000003e800000000000003e8179055348015620000c057600080fd5b50620001aa565b828054620000d5906200016d565b90600052602060002090601f016020900481019282620000f9576000855562000144565b82601f106200011457805160ff191683800117855562000144565b8280016001018555821562000144579182015b828111156200014457825182559160200191906001019062000127565b506200015292915062000156565b5090565b5b8082111562000152576000815560010162000157565b600181811c908216806200018257607f821691505b60208210811415620001a457634e487b7160e01b600052602260045260246000fd5b50919050565b615eaa80620001ba6000396000f3fe60806040526004361061027d5760003560e01c80638070905f1161014f578063d85f74c1116100c1578063f2f38a741161007a578063f2f38a741461084a578063f4a01e5b14610878578063f7be342514610898578063f848fec4146108b8578063f9e978bd146108d8578063fdc8321e146108f857600080fd5b8063d85f74c114610797578063d92ac248146107aa578063df6c06f5146107ca578063eee55ac8146107ea578063f25b12001461080a578063f2c31ff41461082a57600080fd5b80639604ca65116101135780639604ca65146106c9578063a345f7bd146106e9578063a3ad5b5514610709578063af99c63314610729578063c0b19b6d14610749578063d614cdb81461077757600080fd5b80638070905f1461060d57806386f88d881461063c5780638ba74da01461065c5780638c99ef5d1461066f5780638f8d7f99146106a957600080fd5b80634ba67035116101f35780635d2c5bad116101ac5780635d2c5bad1461052257806369837dc21461055f5780636a4dde211461058d5780636da6b1f0146105ad5780637c41ad2c146105cd5780637d3e5da8146105ed57600080fd5b80634ba670351461042f5780634cbdb37b1461044f57806356af84031461047d578063593d6e821461049d5780635a5e6c31146104bd5780635b9076b7146104f257600080fd5b80632d73bb2e116102455780632d73bb2e1461037a5780632eecbca31461039a5780632f13d66b146103ba5780633b3bff0f146103da5780633eed2c39146103fa5780634b5c66871461041a57600080fd5b80630fd2601e1461028257806313c05dd8146102ba57806318370d34146102ef57806319db44b61461031d5780632b256ec81461035a575b600080fd5b34801561028e57600080fd5b506102a261029d366004613c3a565b610918565b60405160079190910b81526020015b60405180910390f35b3480156102c657600080fd5b506102da6102d5366004613c73565b6109d1565b604080519283529015156020830152016102b1565b3480156102fb57600080fd5b5061030f61030a36600461404f565b610a4f565b6040519081526020016102b1565b34801561032957600080fd5b5061033d610338366004614196565b610b2c565b604080519283526001600160a01b039091166020830152016102b1565b34801561036657600080fd5b5061030f6103753660046141c2565b610baa565b34801561038657600080fd5b5061030f610395366004613c3a565b610c92565b3480156103a657600080fd5b506102a26103b5366004613c3a565b610cd7565b3480156103c657600080fd5b5061030f6103d536600461404f565b610cff565b3480156103e657600080fd5b5061030f6103f53660046141c2565b610d9a565b34801561040657600080fd5b506102da6104153660046141c2565b610e74565b61042d6104283660046141c2565b610eee565b005b34801561043b57600080fd5b5061030f61044a3660046141df565b6112c4565b34801561045b57600080fd5b5061046f61046a36600461423b565b611310565b6040516102b1929190614762565b34801561048957600080fd5b5061030f61049836600461477b565b611386565b3480156104a957600080fd5b5061030f6104b836600461483b565b6113d0565b3480156104c957600080fd5b506104dd6104d8366004613c73565b6113fc565b604080519283526020830191909152016102b1565b3480156104fe57600080fd5b5061051261050d3660046141c2565b61146d565b6040516102b19493929190614871565b34801561052e57600080fd5b5061054261053d3660046141c2565b6114ff565b6040805160079390930b835260039190910b6020830152016102b1565b34801561056b57600080fd5b5061057f61057a3660046141c2565b61157a565b6040516102b19291906148ed565b34801561059957600080fd5b506102da6105a8366004613c3a565b6115ef565b3480156105b957600080fd5b5061030f6105c83660046141df565b611666565b3480156105d957600080fd5b5061030f6105e83660046141c2565b611674565b3480156105f957600080fd5b5061030f610608366004613c3a565b61169e565b34801561061957600080fd5b5061062d61062836600461491b565b6116aa565b6040516102b193929190614a25565b34801561064857600080fd5b506102da6106573660046141c2565b611732565b61042d61066a366004613c3a565b6117a3565b34801561067b57600080fd5b5061068f61068a3660046141c2565b611c4d565b6040805160079390930b83529015156020830152016102b1565b3480156106b557600080fd5b506102a26106c4366004613c3a565b611cc6565b3480156106d557600080fd5b5061030f6106e4366004614a56565b611cf2565b3480156106f557600080fd5b5061030f6107043660046141c2565b611d06565b34801561071557600080fd5b5061068f610724366004613c3a565b611d4c565b34801561073557600080fd5b506102a2610744366004613c3a565b611e34565b34801561075557600080fd5b506107696107643660046141c2565b611e60565b6040516102b1929190614aca565b34801561078357600080fd5b506107696107923660046141c2565b611f41565b61042d6107a53660046141c2565b612033565b3480156107b657600080fd5b5061030f6107c5366004614ade565b6123d3565b3480156107d657600080fd5b5061030f6107e5366004614b1e565b6123e0565b3480156107f657600080fd5b5061030f61080536600461483b565b6123ed565b34801561081657600080fd5b5061030f610825366004614b5f565b612415565b34801561083657600080fd5b5061068f610845366004613c3a565b612422565b34801561085657600080fd5b5061086a6108653660046141c2565b6124f6565b6040516102b1929190614b9f565b34801561088457600080fd5b5061030f610893366004613c3a565b61256b565b3480156108a457600080fd5b5061030f6108b33660046141c2565b612577565b3480156108c457600080fd5b5061030f6108d3366004614b1e565b612656565b3480156108e457600080fd5b5061042d6108f3366004614bb8565b612663565b34801561090457600080fd5b5061030f610913366004614bd5565b6126be565b604051638f8d7f9960e01b81526000903090638f8d7f99906109409086908690600401614c15565b602060405180830381600087803b15801561095a57600080fd5b505af115801561096e573d6000803e3d6000fd5b505050506040513d601f19601f820116820180604052508101906109929190614c3a565b604051600782900b8152909150600080516020615e558339815191529060200160405180910390a1600781900b6016146109cb57600080fd5b92915050565b6000806109df858585612895565b6040518281529193509150600080516020615e558339815191529060200160405180910390a160168214610a1257600080fd5b60405181151581527e1c2e72360171244b3bb8cc8ddd767820edf37138ad6f129fb3574b407c307d906020015b60405180910390a1935093915050565b60008060006101676001600160a01b03166318370d3460e01b8686604051602401610a7b929190614c57565b60408051601f198184030181529181526020820180516001600160e01b03166001600160e01b0319909416939093179092529051610ab99190614c7b565b6000604051808303816000865af19150503d8060008114610af6576040519150601f19603f3d011682016040523d82523d6000602084013e610afb565b606091505b509150915081610b0c576015610b20565b80806020019051810190610b209190614ca9565b60030b95945050505050565b600080610b39848461297e565b6040518281529193509150600080516020615e558339815191529060200160405180910390a160168214610b6c57600080fd5b7fc2c78c7c31baf14949e75c51df12be56edb9af523cf82839c2869bbcf13b3ecb81604051610b9b9190614cc4565b60405180910390a19250929050565b604051631f106b4b60e21b81526000903090637c41ad2c90610bd0908590600401614cc4565b602060405180830381600087803b158015610bea57600080fd5b505af1158015610bfe573d6000803e3d6000fd5b505050506040513d601f19601f82011682018060405250810190610c229190614cd8565b9050600080516020615e5583398151915281604051610c4391815260200190565b60405180910390a160168114610c5857600080fd5b604051600181527f0c9c765845f4d139956bb8fc8decb2eec6093c9c608b809641b16054b29f0e13906020015b60405180910390a1919050565b6000610c9e8383612a45565b60070b9050600080516020615e5583398151915281604051610cc291815260200190565b60405180910390a1601681146109cb57600080fd5b60405163af99c63360e01b8152600090309063af99c633906109409086908690600401614c15565b60405163060dc34d60e21b815260009030906318370d3490610d279086908690600401614c57565b602060405180830381600087803b158015610d4157600080fd5b505af1158015610d55573d6000803e3d6000fd5b505050506040513d601f19601f82011682018060405250810190610d799190614cd8565b9050600080516020615e5583398151915281604051610cc291815260200190565b60008060006101676001600160a01b0316633b3bff0f60e01b85604051602401610dc49190614cc4565b60408051601f198184030181529181526020820180516001600160e01b03166001600160e01b0319909416939093179092529051610e029190614c7b565b6000604051808303816000865af19150503d8060008114610e3f576040519150601f19603f3d011682016040523d82523d6000602084013e610e44565b606091505b509150915081610e55576015610e69565b80806020019051810190610e699190614ca9565b60030b949350505050565b600080610e8083612a71565b6040518281529193509150600080516020615e558339815191529060200160405180910390a160168214610eb357600080fd5b60405181151581527f6b7f3306751292f85ab4161ee2b0ac16dfc8ded13e6446ce6bd859d0a2f4c78e906020015b60405180910390a1915091565b60408051600480825260a08201909252600091816020015b610f0e613a7d565b815260200190600190039081610f06579050509050610f4160006006600160405180602001604052806000815250612b54565b81600081518110610f5457610f54614cf1565b6020026020010181905250610f7a60018060405180602001604052806000815250612b8b565b81600181518110610f8d57610f8d614cf1565b6020026020010181905250610fb46002600160405180602001604052806000815250612b8b565b81600281518110610fc757610fc7614cf1565b6020026020010181905250610fee6003600160405180602001604052806000815250612b8b565b8160038151811061100157611001614cf1565b602002602001018190525060006040518060600160405280600063ffffffff168152602001846001600160a01b03168152602001627a120063ffffffff16815250905060006040518061012001604052806001805461105f90614d07565b80601f016020809104026020016040519081016040528092919081815260200182805461108b90614d07565b80156110d85780601f106110ad576101008083540402835291602001916110d8565b820191906000526020600020905b8154815290600101906020018083116110bb57829003601f168201915b50505050508152602001600280546110ef90614d07565b80601f016020809104026020016040519081016040528092919081815260200182805461111b90614d07565b80156111685780601f1061113d57610100808354040283529160200191611168565b820191906000526020600020905b81548152906001019060200180831161114b57829003601f168201915b50505050508152602001856001600160a01b031681526020016003805461118e90614d07565b80601f01602080910402602001604051908101604052809291908181526020018280546111ba90614d07565b80156112075780601f106111dc57610100808354040283529160200191611207565b820191906000526020600020905b8154815290600101906020018083116111ea57829003601f168201915b505050918352505060016020820152600454600160401b810460070b6040830152600160a01b810460ff16151560608301526080820186905260a090910184905290915060009081906112739084906001600160401b03811690600160801b900463ffffffff16612bc0565b90925090506016821461128557600080fd5b7f7bb17726df1f3adee8aa00ba8e8bc5d6f182af3bbf77604639cb7f008dd3b4ed816040516112b49190614cc4565b60405180910390a1505050505050565b60006112d285858585612cee565b9050600080516020615e55833981519152816040516112f391815260200190565b60405180910390a16016811461130857600080fd5b949350505050565b600061131a613a9c565b6113248484612dd1565b6040518281529193509150600080516020615e558339815191529060200160405180910390a16016821461135757600080fd5b7fd010ef68d3ac3e07c14bed496400730a484fd17c48a4d373cbc4722a56540def81604051610b9b9190614d42565b6000611393848484612eab565b9050600080516020615e55833981519152816040516113b491815260200190565b60405180910390a1601681146113c957600080fd5b9392505050565b60008060006101676001600160a01b031663593d6e8260e01b8686604051602401610a7b929190614d55565b60008061140a858585612f8b565b6040518281529193509150600080516020615e558339815191529060200160405180910390a16016821461143d57600080fd5b6040518181527f25b6684a7e8fe1b676e9c39c8dd65034fbafea906d3bdfd97bf748b7b55e14c890602001610a3f565b6000606080606061147d85613061565b604051600785900b815293975091955093509150600080516020615e558339815191529060200160405180910390a1600784900b6016146114bd57600080fd5b7f2efc8334b040613a552197fe34283d6ca2909c8ffae393e128424931f20c69b38383836040516114f093929190614d72565b60405180910390a19193509193565b60008061150b83613156565b604051600783900b81529193509150600080516020615e558339815191529060200160405180910390a1600782900b60161461154657600080fd5b604051600382900b81527f182137409609594f2b12128230091c673507ea4cab315d59415d5e3f8c301ad590602001610ee1565b6000611584613ad7565b61158d83613229565b6040518281529193509150600080516020615e558339815191529060200160405180910390a1601682146115c057600080fd5b7fea9419ffbaa766adf982c4c9864330eee1d848eff36c79e510e7e589c8bb265f81604051610ee19190614dab565b6000806115fc8484613309565b60405160079290920b80835293509150600080516020615e558339815191529060200160405180910390a16016821461163457600080fd5b60405181151581527f59800d968fcce138300a0019410b4b75041610d65b3cdc5f31656b03ed14912e90602001610b9b565b60006112d285858585613336565b60008060006101676001600160a01b0316637c41ad2c60e01b85604051602401610dc49190614cc4565b6000610c9e8383613366565b60008060606116ba868686613392565b6040518381529295509093509150600080516020615e558339815191529060200160405180910390a1601683146116f057600080fd5b7feff23992f47b3c101679f8b4dc9d3e242c903909dba4a453f2b2341ad463b0e28282604051611721929190614dbe565b60405180910390a193509350939050565b60008061173e83613490565b6040518281529193509150600080516020615e558339815191529060200160405180910390a16016821461177157600080fd5b60405181151581527f9ee19e13dfa1ba8db2502e15ff56dbecdeb0e0473323fb195473ce648030a2cd90602001610ee1565b604080516001808252818301909252600091816020015b6117c2613a7d565b8152602001906001900390816117ba5790505090506117f4600080600160405180602001604052806000815250612b54565b8160008151811061180757611807614cf1565b602002602001018190525060006040518060600160405280600063ffffffff168152602001856001600160a01b03168152602001627a120063ffffffff16815250905060006040518061012001604052806001805461186590614d07565b80601f016020809104026020016040519081016040528092919081815260200182805461189190614d07565b80156118de5780601f106118b3576101008083540402835291602001916118de565b820191906000526020600020905b8154815290600101906020018083116118c157829003601f168201915b50505050508152602001600280546118f590614d07565b80601f016020809104026020016040519081016040528092919081815260200182805461192190614d07565b801561196e5780601f106119435761010080835404028352916020019161196e565b820191906000526020600020905b81548152906001019060200180831161195157829003601f168201915b50505050508152602001866001600160a01b031681526020016003805461199490614d07565b80601f01602080910402602001604051908101604052809291908181526020018280546119c090614d07565b8015611a0d5780601f106119e257610100808354040283529160200191611a0d565b820191906000526020600020905b8154815290600101906020018083116119f057829003601f168201915b5050509183525050600160208201819052600454600160401b900460070b6040808401919091526000606084018190526080840188905260a09093018690528051828152808201909152929350909190816020015b6040805160a081018252600080825260208083018290529282018190526060820181905260808201528252600019909201910181611a625750506040805160a081018252600181526001600160a01b03888116602083015260009282018390526060820183905289166080820152825192935091839190611ae557611ae5614cf1565b6020908102919091010152604080516001808252818301909252600091816020015b6040805160c08101825260008082526020808301829052928201819052606082018190526080820181905260a08201528252600019909201910181611b075750506040805160c0810182526004815260056020820152600a91810191909152601e60608201526000608082018190526001600160a01b038a1660a083015282519293509091839190611b9b57611b9b614cf1565b60209081029190910101526004546000908190611bd39086906001600160401b03811690600160801b900463ffffffff1687876134bb565b91509150600080516020615e5583398151915282604051611bf691815260200190565b60405180910390a160168214611c0b57600080fd5b7f7bb17726df1f3adee8aa00ba8e8bc5d6f182af3bbf77604639cb7f008dd3b4ed81604051611c3a9190614cc4565b60405180910390a1505050505050505050565b600080611c59836135ef565b604051600783900b81529193509150600080516020615e558339815191529060200160405180910390a1600782900b601614611c9457600080fd5b60405181151581527f5080c42cc33acbcea410fa6eaa925bd878674825501981184fdd53749f8478a890602001610ee1565b60008060006101676001600160a01b0316638f8d7f9960e01b8686604051602401610a7b929190614c15565b6000610d79611d018385614e8f565b61361a565b6000611d1182613644565b9050600080516020615e5583398151915281604051611d3291815260200190565b60405180910390a160168114611d4757600080fd5b919050565b604051633cb0c7fd60e21b81526000908190309063f2c31ff490611d769087908790600401614c15565b6040805180830381600087803b158015611d8f57600080fd5b505af1158015611da3573d6000803e3d6000fd5b505050506040513d601f19601f82011682018060405250810190611dc79190615006565b604051600783900b81529193509150600080516020615e558339815191529060200160405180910390a1600782900b601614611e0257600080fd5b60405181151581527fd24dda6928587354b65aa1a18c2eaf249bef7e5bafd2a71fac71d286f76f957f90602001610b9b565b60008060006101676001600160a01b031663af99c63360e01b8686604051602401610a7b929190614c15565b6000611e6a613af7565b604051631ac299b760e31b8152309063d614cdb890611e8d908690600401614cc4565b608060405180830381600087803b158015611ea757600080fd5b505af1158015611ebb573d6000803e3d6000fd5b505050506040513d601f19601f82011682018060405250810190611edf919061508a565b6040518281529193509150600080516020615e558339815191529060200160405180910390a160168214611f1257600080fd5b7fa0a16bf9db2c17796faeca5af5aaeef8523f9d4c350c512cb00062ad89604f8881604051610ee191906150ae565b6000611f4b613af7565b6000806101676001600160a01b031663d614cdb860e01b86604051602401611f739190614cc4565b60408051601f198184030181529181526020820180516001600160e01b03166001600160e01b0319909416939093179092529051611fb19190614c7b565b6000604051808303816000865af19150503d8060008114611fee576040519150601f19603f3d011682016040523d82523d6000602084013e611ff3565b606091505b5091509150612000613af7565b8261200d57601581612021565b8180602001905181019061202191906150bc565b60039190910b97909650945050505050565b60408051600580825260c08201909252600091816020015b612053613a7d565b81526020019060019003908161204b57905050905061208660006006600160405180602001604052806000815250612b54565b8160008151811061209957612099614cf1565b60200260200101819052506120bf60018060405180602001604052806000815250612b8b565b816001815181106120d2576120d2614cf1565b60200260200101819052506120f96002600160405180602001604052806000815250612b8b565b8160028151811061210c5761210c614cf1565b60200260200101819052506121336004600160405180602001604052806000815250612b8b565b8160038151811061214657612146614cf1565b602002602001018190525061216d6003600160405180602001604052806000815250612b8b565b8160048151811061218057612180614cf1565b602002602001018190525060006040518060600160405280600063ffffffff168152602001846001600160a01b03168152602001627a120063ffffffff1681525090506000604051806101200160405280600180546121de90614d07565b80601f016020809104026020016040519081016040528092919081815260200182805461220a90614d07565b80156122575780601f1061222c57610100808354040283529160200191612257565b820191906000526020600020905b81548152906001019060200180831161223a57829003601f168201915b505050505081526020016002805461226e90614d07565b80601f016020809104026020016040519081016040528092919081815260200182805461229a90614d07565b80156122e75780601f106122bc576101008083540402835291602001916122e7565b820191906000526020600020905b8154815290600101906020018083116122ca57829003601f168201915b50505050508152602001856001600160a01b031681526020016003805461230d90614d07565b80601f016020809104026020016040519081016040528092919081815260200182805461233990614d07565b80156123865780601f1061235b57610100808354040283529160200191612386565b820191906000526020600020905b81548152906001019060200180831161236957829003601f168201915b505050918352505060016020820152600454600160401b810460070b6040830152600160a01b900460ff16151560608201526080810185905260a00183905290506000806112738361366e565b6000611393848484613758565b600061139384848461379a565b604051632c9eb74160e11b8152600090309063593d6e8290610d279086908690600401614d55565b60006113938484846137c8565b6000806000806101676001600160a01b031663f2c31ff460e01b878760405160240161244f929190614c15565b60408051601f198184030181529181526020820180516001600160e01b03166001600160e01b031990941693909317909252905161248d9190614c7b565b6000604051808303816000865af19150503d80600081146124ca576040519150601f19603f3d011682016040523d82523d6000602084013e6124cf565b606091505b5091509150816124e25760156000612021565b8080602001905181019061202191906150e7565b6000612500613b17565b61250983613806565b6040518281529193509150600080516020615e558339815191529060200160405180910390a16016821461253c57600080fd5b7fbdb65f8c2a2e9a3a37ea49e903836883766a922e4ce9b21f684035e304962d4181604051610ee19190615113565b6000610d7983836138e6565b604051633b3bff0f60e01b81526000903090633b3bff0f9061259d908590600401614cc4565b602060405180830381600087803b1580156125b757600080fd5b505af11580156125cb573d6000803e3d6000fd5b505050506040513d601f19601f820116820180604052508101906125ef9190614cd8565b9050600080516020615e558339815191528160405161261091815260200190565b60405180910390a16016811461262557600080fd5b604051600181527f319ab7084208e4afa38c6e6ff7aea9587439f2e4700746f4c7d425fea17426d290602001610c85565b6000611393848484613912565b6004805460ff60a01b1916600160a01b8315158102919091179182905560405160ff9190920416151581527f457c3a16a0ebdc38e3675609957ca3fcc4490e220bd15d85d34f58e2e145cb089060200160405180910390a150565b60408051600080825260208201909252819081612703565b60408051606081018252600080825260208083018290529282015282526000199092019101816126d65790505b50905060006040518060400160405280336001600160a01b031681526020018561272c90615126565b600790810b9091526040805180820182526001600160a01b038a1681529187900b602083015280516002808252606082019092529293509091600091816020015b604080518082019091526000808252602082015281526020019060019003908161276d57905050905082816000815181106127aa576127aa614cf1565b602002602001018190525081816001815181106127c9576127c9614cf1565b602090810291909101810191909152604080516060810182526001600160a01b038a16815291820183905281810186905280516001808252818301909252600091816020015b61283c604051806060016040528060006001600160a01b0316815260200160608152602001606081525090565b81526020019060019003908161280f579050509050818160008151811061286557612865614cf1565b60200260200101819052506128798161361a565b96506016871461288857600080fd5b5050505050509392505050565b6000806000806101676001600160a01b031663f49f40db60e01b8888886040516024016128c49392919061515c565b60408051601f198184030181529181526020820180516001600160e01b03166001600160e01b03199094169390931790925290516129029190614c7b565b6000604051808303816000865af19150503d806000811461293f576040519150601f19603f3d011682016040523d82523d6000602084013e612944565b606091505b509150915081612957576015600061296b565b8080602001905181019061296b91906150e7565b60039190910b9890975095505050505050565b604080516001600160a01b0384166024820152604480820184905282518083039091018152606490910182526020810180516001600160e01b03166304c791b360e11b1790529051600091829182918291610167916129dc91614c7b565b6000604051808303816000865af19150503d8060008114612a19576040519150601f19603f3d011682016040523d82523d6000602084013e612a1e565b606091505b509150915081612a315760156000612021565b80806020019051810190612021919061517f565b60008060006101676001600160a01b03166352f9138760e01b8686604051602401610a7b929190614c15565b6000806000806101676001600160a01b031663a7daa18d60e01b86604051602401612a9c9190614cc4565b60408051601f198184030181529181526020820180516001600160e01b03166001600160e01b0319909416939093179092529051612ada9190614c7b565b6000604051808303816000865af19150503d8060008114612b17576040519150601f19603f3d011682016040523d82523d6000602084013e612b1c565b606091505b509150915081612b2f5760156000612b43565b80806020019051810190612b4391906150e7565b60039190910b969095509350505050565b612b5c613a7d565b6040518060400160405280612b718787613940565b8152602001612b808585613959565b905295945050505050565b612b93613a7d565b6040518060400160405280612ba7866139eb565b8152602001612bb68585613959565b9052949350505050565b600080848061010001516000015163ffffffff166000148015612bf057506101008101516040015163ffffffff16155b15612c06576101008101516276a7006040909101525b6000806101676001600160a01b03163463c23baeb660e01b8a8a8a604051602401612c33939291906151ab565b60408051601f198184030181529181526020820180516001600160e01b03166001600160e01b0319909416939093179092529051612c719190614c7b565b60006040518083038185875af1925050503d8060008114612cae576040519150601f19603f3d011682016040523d82523d6000602084013e612cb3565b606091505b509150915081612cc65760156000612cda565b80806020019051810190612cda919061517f565b60039190910b999098509650505050505050565b60008060006101676001600160a01b031663eca3691760e01b88888888604051602401612d1e94939291906151e3565b60408051601f198184030181529181526020820180516001600160e01b03166001600160e01b0319909416939093179092529051612d5c9190614c7b565b6000604051808303816000865af19150503d8060008114612d99576040519150601f19603f3d011682016040523d82523d6000602084013e612d9e565b606091505b509150915081612daf576015612dc3565b80806020019051810190612dc39190614ca9565b60030b979650505050505050565b6000612ddb613a9c565b604080516001600160a01b0386166024820152600785900b60448083019190915282518083039091018152606490910182526020810180516001600160e01b031663050fc3b560e31b1790529051600091829161016791612e3b91614c7b565b6000604051808303816000865af19150503d8060008114612e78576040519150601f19603f3d011682016040523d82523d6000602084013e612e7d565b606091505b5091509150612e8a613a9c565b82612e975760158161296b565b8180602001905181019061296b9190615867565b60008060006101676001600160a01b031663f7f38e2660e01b878787604051602401612ed99392919061594e565b60408051601f198184030181529181526020820180516001600160e01b03166001600160e01b0319909416939093179092529051612f179190614c7b565b6000604051808303816000865af19150503d8060008114612f54576040519150601f19603f3d011682016040523d82523d6000602084013e612f59565b606091505b509150915081612f6a576015612f7e565b80806020019051810190612f7e9190614ca9565b60030b9695505050505050565b6000806000806101676001600160a01b031663927da10560e01b888888604051602401612fba9392919061515c565b60408051601f198184030181529181526020820180516001600160e01b03166001600160e01b0319909416939093179092529051612ff89190614c7b565b6000604051808303816000865af19150503d8060008114613035576040519150601f19603f3d011682016040523d82523d6000602084013e61303a565b606091505b50915091508161304d576015600061296b565b8080602001905181019061296b919061597a565b600060608060606000806101676001600160a01b031663ae7611a060e01b886040516024016130909190614cc4565b60408051601f198184030181529181526020820180516001600160e01b03166001600160e01b03199094169390931790925290516130ce9190614c7b565b6000604051808303816000865af19150503d806000811461310b576040519150601f19603f3d011682016040523d82523d6000602084013e613110565b606091505b509150915060608060608461312957601583838361313d565b8380602001905181019061313d91906159a6565b60039390930b9d919c509a509098509650505050505050565b6000806000806101676001600160a01b03166393272baf60e01b866040516024016131819190614cc4565b60408051601f198184030181529181526020820180516001600160e01b03166001600160e01b03199094169390931790925290516131bf9190614c7b565b6000604051808303816000865af19150503d80600081146131fc576040519150601f19603f3d011682016040523d82523d6000602084013e613201565b606091505b509150915081613215576015600019612b43565b80806020019051810190612b439190615a3e565b6000613233613ad7565b6000806101676001600160a01b0316633f28a19b60e01b8660405160240161325b9190614cc4565b60408051601f198184030181529181526020820180516001600160e01b03166001600160e01b03199094169390931790925290516132999190614c7b565b6000604051808303816000865af19150503d80600081146132d6576040519150601f19603f3d011682016040523d82523d6000602084013e6132db565b606091505b50915091506132e8613ad7565b826132f557601581612021565b818060200190518101906120219190615a68565b6000806000806101676001600160a01b03166346de0fb160e01b878760405160240161244f929190614c15565b60008060006101676001600160a01b0316635cfc901160e01b88888888604051602401612d1e94939291906151e3565b60008060006101676001600160a01b0316635b8f858460e01b8686604051602401610a7b929190614c15565b60008060606000806101676001600160a01b031663278e0b8860e01b8989896040516024016133c393929190615b13565b60408051601f198184030181529181526020820180516001600160e01b03166001600160e01b03199094169390931790925290516134019190614c7b565b6000604051808303816000865af19150503d806000811461343e576040519150601f19603f3d011682016040523d82523d6000602084013e613443565b606091505b50915091508161346657604080516000808252602082019092526015919061347a565b8080602001905181019061347a9190615b95565b60039290920b9a90995090975095505050505050565b6000806000806101676001600160a01b031663335e04c160e01b86604051602401612a9c9190614cc4565b600080868061010001516000015163ffffffff1660001480156134eb57506101008101516040015163ffffffff16155b15613501576101008101516276a7006040909101525b6000806101676001600160a01b03163463b937581a60e01b8c8c8c8c8c604051602401613532959493929190615c45565b60408051601f198184030181529181526020820180516001600160e01b03166001600160e01b03199094169390931790925290516135709190614c7b565b60006040518083038185875af1925050503d80600081146135ad576040519150601f19603f3d011682016040523d82523d6000602084013e6135b2565b606091505b5091509150816135c557601560006135d9565b808060200190518101906135d9919061517f565b60039190910b9b909a5098505050505050505050565b6000806000806101676001600160a01b03166319f3736160e01b86604051602401612a9c9190614cc4565b60008060006101676001600160a01b031663189a554c60e01b85604051602401610dc49190615cfa565b60008060006101676001600160a01b031663f069f71260e01b85604051602401610dc49190614cc4565b600080828061010001516000015163ffffffff16600014801561369e57506101008101516040015163ffffffff16155b156136b4576101008101516276a7006040909101525b6000806101676001600160a01b031634639c89bb3560e01b886040516024016136dd9190615dd0565b60408051601f198184030181529181526020820180516001600160e01b03166001600160e01b031990941693909317909252905161371b9190614c7b565b60006040518083038185875af1925050503d8060008114612a19576040519150601f19603f3d011682016040523d82523d6000602084013e612a1e565b6040516001600160a01b0384811660248301528316604482015263ffffffff821660648201526000908190819061016790639790686d60e01b90608401612ed9565b60008060006101676001600160a01b0316637336aaf060e01b878787604051602401612ed993929190615de3565b6040516001600160a01b0384811660248301528316604482015281151560648201526000908190819061016790631b3b02e560e11b90608401612ed9565b6000613810613b17565b6000806101676001600160a01b0316631f69565f60e01b866040516024016138389190614cc4565b60408051601f198184030181529181526020820180516001600160e01b03166001600160e01b03199094169390931790925290516138769190614c7b565b6000604051808303816000865af19150503d80600081146138b3576040519150601f19603f3d011682016040523d82523d6000602084013e6138b8565b606091505b50915091506138c5613b17565b826138d257601581612021565b818060200190518101906120219190615e07565b60008060006101676001600160a01b03166349146bde60e01b8686604051602401610a7b929190614c15565b60008060006101676001600160a01b031663e1f21c6760e01b878787604051602401612ed993929190615de3565b6000600160ff84161b9050600160ff83161b81176113c9565b613961613b78565b8260ff166001141561397657600181526109cb565b8260ff1660021415613998576000546001600160a01b031660208201526109cb565b8260ff16600314156139b057604081018290526109cb565b8260ff16600414156139c857606081018290526109cb565b8260ff16600514156109cb576000546001600160a01b0316608082015292915050565b600060ff82166139fd57506001919050565b8160ff1660011415613a1157506002919050565b8160ff1660021415613a2557506004919050565b8160ff1660031415613a3957506008919050565b8160ff1660041415613a4d57506010919050565b8160ff1660051415613a6157506020919050565b8160ff1660061415613a7557506040919050565b506000919050565b604051806040016040528060008152602001613a97613b78565b905290565b6040518060c00160405280613aaf613b17565b8152600060208201819052604082018190526060808301829052608083015260a09091015290565b6040518060400160405280613aea613b17565b8152600060209091015290565b604080516060810182526000808252602082018190529181019190915290565b604051806101200160405280613b2b613bbb565b815260200160006001600160401b03168152602001600015158152602001600015158152602001600015158152602001606081526020016060815260200160608152602001606081525090565b6040518060a0016040528060001515815260200160006001600160a01b03168152602001606081526020016060815260200160006001600160a01b031681525090565b604051806101200160405280606081526020016060815260200160006001600160a01b0316815260200160608152602001600015158152602001600060070b815260200160001515815260200160608152602001613a97613af7565b6001600160a01b0381168114613c2c57600080fd5b50565b8035611d4781613c17565b60008060408385031215613c4d57600080fd5b8235613c5881613c17565b91506020830135613c6881613c17565b809150509250929050565b600080600060608486031215613c8857600080fd5b8335613c9381613c17565b92506020840135613ca381613c17565b91506040840135613cb381613c17565b809150509250925092565b634e487b7160e01b600052604160045260246000fd5b604080519081016001600160401b0381118282101715613cf657613cf6613cbe565b60405290565b60405160a081016001600160401b0381118282101715613cf657613cf6613cbe565b604051606081016001600160401b0381118282101715613cf657613cf6613cbe565b60405161012081016001600160401b0381118282101715613cf657613cf6613cbe565b60405160c081016001600160401b0381118282101715613cf657613cf6613cbe565b604051601f8201601f191681016001600160401b0381118282101715613dad57613dad613cbe565b604052919050565b60006001600160401b03821115613dce57613dce613cbe565b50601f01601f191660200190565b600082601f830112613ded57600080fd5b8135613e00613dfb82613db5565b613d85565b818152846020838601011115613e1557600080fd5b816020850160208301376000918101602001919091529392505050565b8015158114613c2c57600080fd5b8035611d4781613e32565b8060070b8114613c2c57600080fd5b8035611d4781613e4b565b60006001600160401b03821115613e7e57613e7e613cbe565b5060051b60200190565b600082601f830112613e9957600080fd5b81356020613ea9613dfb83613e65565b82815260059290921b84018101918181019086841115613ec857600080fd5b8286015b84811015613fdd5780356001600160401b0380821115613eeb57600080fd5b908801906040601f19838c038101821315613f0557600080fd5b613f0d613cd4565b8885013581528285013584811115613f2457600080fd5b949094019360a0858e0383011215613f3c5760008081fd5b613f44613cfc565b915088850135613f5381613e32565b825284830135613f6281613c17565b828a015260608581013585811115613f7a5760008081fd5b613f888f8c838a0101613ddc565b8585015250608093508386013585811115613fa35760008081fd5b613fb18f8c838a0101613ddc565b828501525050613fc360a08601613c2f565b928201929092528188015285525050918301918301613ecc565b509695505050505050565b63ffffffff81168114613c2c57600080fd5b60006060828403121561400c57600080fd5b614014613d1e565b9050813561402181613fe8565b8152602082013561403181613c17565b6020820152604082013561404481613fe8565b604082015292915050565b6000806040838503121561406257600080fd5b823561406d81613c17565b915060208301356001600160401b038082111561408957600080fd5b90840190610160828703121561409e57600080fd5b6140a6613d40565b8235828111156140b557600080fd5b6140c188828601613ddc565b8252506020830135828111156140d657600080fd5b6140e288828601613ddc565b6020830152506140f460408401613c2f565b604082015260608301358281111561410b57600080fd5b61411788828601613ddc565b60608301525061412960808401613e40565b608082015261413a60a08401613e5a565b60a082015261414b60c08401613e40565b60c082015260e08301358281111561416257600080fd5b61416e88828601613e88565b60e083015250610100915061418587838501613ffa565b828201528093505050509250929050565b600080604083850312156141a957600080fd5b82356141b481613c17565b946020939093013593505050565b6000602082840312156141d457600080fd5b81356113c981613c17565b600080600080608085870312156141f557600080fd5b843561420081613c17565b9350602085013561421081613c17565b9250604085013561422081613c17565b9150606085013561423081613e4b565b939692955090935050565b6000806040838503121561424e57600080fd5b823561425981613c17565b91506020830135613c6881613e4b565b60005b8381101561428457818101518382015260200161426c565b83811115614293576000848401525b50505050565b600081518084526142b1816020860160208601614269565b601f01601f19169290920160200192915050565b600081518084526020808501808196508360051b8101915082860160005b8581101561437b57828403895281516040815186528682015191508087870152815115158187015286820151606060018060a01b03808316828a015283850151935060a09250608083818b015261433d60e08b0186614299565b928601518a8403603f1901858c01529294506143598584614299565b9501511660c098909801979097525050988501989350908401906001016142e3565b5091979650505050505050565b805163ffffffff90811683526020808301516001600160a01b03169084015260409182015116910152565b600061016082518185526143c982860182614299565b915050602083015184820360208601526143e38282614299565b915050604083015161440060408601826001600160a01b03169052565b50606083015184820360608601526144188282614299565b915050608083015161442e608086018215159052565b5060a083015161444360a086018260070b9052565b5060c083015161445760c086018215159052565b5060e083015184820360e086015261446f82826142c5565b9150506101008084015161448582870182614388565b5090949350505050565b600081518084526020808501945080840160005b838110156144ff578151805163ffffffff168852838101516001600160a01b03908116858a01526040808301511515908a01526060808301511515908a0152608091820151169088015260a090960195908201906001016144a3565b509495945050505050565b600081518084526020808501945080840160005b838110156144ff578151805163ffffffff9081168952848201518116858a01526040808301518216908a01526060808301519091169089015260808082015115159089015260a0908101516001600160a01b03169088015260c0909601959082019060010161451e565b600081518084526020808501945080840160005b838110156144ff578151805163ffffffff9081168952848201518116858a0152604080830151909116908901526060808201516001600160a01b03908116918a01919091526080808301511515908a015260a091820151169088015260c0909601959082019060010161459c565b60006101208251818552614620828601826143b3565b915050602083015161463d60208601826001600160401b03169052565b506040830151614651604086018215159052565b506060830151614665606086018215159052565b506080830151614679608086018215159052565b5060a083015184820360a0860152614691828261448f565b91505060c083015184820360c08601526146ab828261450a565b91505060e083015184820360e08601526146c58282614588565b91505061010080840151858303828701526146e08382614299565b9695505050505050565b6000815160c084526146ff60c085018261460a565b9050602083015160070b6020850152604083015160018060a01b038082166040870152606085015160070b60608701526080850151915085830360808701526147488383614299565b92508060a08601511660a087015250508091505092915050565b82815260406020820152600061130860408301846146ea565b60008060006060848603121561479057600080fd5b833561479b81613c17565b92506020848101356147ac81613c17565b925060408501356001600160401b038111156147c757600080fd5b8501601f810187136147d857600080fd5b80356147e6613dfb82613e65565b81815260059190911b8201830190838101908983111561480557600080fd5b928401925b8284101561482c57833561481d81613e4b565b8252928401929084019061480a565b80955050505050509250925092565b6000806080838503121561484e57600080fd5b823561485981613c17565b91506148688460208501613ffa565b90509250929050565b8460070b815260806020820152600061488d608083018661448f565b828103604084015261489f818661450a565b905082810360608401526148b38185614588565b979650505050505050565b60008151604084526148d3604085018261460a565b60209384015163ffffffff16949093019390935250919050565b82815260406020820152600061130860408301846148be565b6001600160401b0381168114613c2c57600080fd5b60008060006060848603121561493057600080fd5b833561493b81613c17565b925060208481013561494c81614906565b925060408501356001600160401b038082111561496857600080fd5b818701915087601f83011261497c57600080fd5b813561498a613dfb82613e65565b81815260059190911b8301840190848101908a8311156149a957600080fd5b8585015b838110156149e1578035858111156149c55760008081fd5b6149d38d89838a0101613ddc565b8452509186019186016149ad565b508096505050505050509250925092565b600081518084526020808501945080840160005b838110156144ff57815160070b87529582019590820190600101614a06565b8381526001600160401b0383166020820152606060408201526000614a4d60608301846149f2565b95945050505050565b60008060208385031215614a6957600080fd5b82356001600160401b0380821115614a8057600080fd5b818501915085601f830112614a9457600080fd5b813581811115614aa357600080fd5b8660208260051b8501011115614ab857600080fd5b60209290920196919550909350505050565b828152608081016113c96020830184614388565b600080600060608486031215614af357600080fd5b8335614afe81613c17565b92506020840135614b0e81613c17565b91506040840135613cb381613fe8565b600080600060608486031215614b3357600080fd5b8335614b3e81613c17565b92506020840135614b4e81613c17565b929592945050506040919091013590565b600080600060608486031215614b7457600080fd5b8335614b7f81613c17565b92506020840135614b8f81613c17565b91506040840135613cb381613e32565b828152604060208201526000611308604083018461460a565b600060208284031215614bca57600080fd5b81356113c981613e32565b600080600060608486031215614bea57600080fd5b8335614bf581613c17565b92506020840135614c0581613c17565b91506040840135613cb381613e4b565b6001600160a01b0392831681529116602082015260400190565b8051611d4781613e4b565b600060208284031215614c4c57600080fd5b81516113c981613e4b565b6001600160a01b0383168152604060208201819052600090611308908301846143b3565b60008251614c8d818460208701614269565b9190910192915050565b8051600381900b8114611d4757600080fd5b600060208284031215614cbb57600080fd5b6113c982614c97565b6001600160a01b0391909116815260200190565b600060208284031215614cea57600080fd5b5051919050565b634e487b7160e01b600052603260045260246000fd5b600181811c90821680614d1b57607f821691505b60208210811415614d3c57634e487b7160e01b600052602260045260246000fd5b50919050565b6020815260006113c960208301846146ea565b6001600160a01b0383168152608081016113c96020830184614388565b606081526000614d85606083018661448f565b8281036020840152614d97818661450a565b905082810360408401526146e08185614588565b6020815260006113c960208301846148be565b6001600160401b038316815260406020820152600061130860408301846149f2565b600082601f830112614df157600080fd5b81356020614e01613dfb83613e65565b82815260609283028501820192828201919087851115614e2057600080fd5b8387015b85811015614e825781818a031215614e3c5760008081fd5b614e44613d1e565b8135614e4f81613c17565b815281860135614e5e81613c17565b81870152604082810135614e7181613e4b565b908201528452928401928101614e24565b5090979650505050505050565b6000614e9d613dfb84613e65565b80848252602080830192508560051b850136811115614ebb57600080fd5b855b81811015614fef5780356001600160401b0380821115614edd5760008081fd5b818901915060608236031215614ef35760008081fd5b614efb613d1e565b8235614f0681613c17565b81528286013582811115614f1a5760008081fd5b830136601f820112614f2c5760008081fd5b8035614f3a613dfb82613e65565b81815260069190911b82018801908881019036831115614f5a5760008081fd5b928901925b82841015614fb05760408436031215614f785760008081fd5b614f80613cd4565b8435614f8b81613c17565b8152848b0135614f9a81613e4b565b818c015282526040939093019290890190614f5f565b848a01525060409150508381013583811115614fcc5760008081fd5b614fd836828701614de0565b918301919091525087525050938201938201614ebd565b50919695505050505050565b8051611d4781613e32565b6000806040838503121561501957600080fd5b825161502481613e4b565b6020840151909250613c6881613e32565b8051611d4781613c17565b60006060828403121561505257600080fd5b61505a613d1e565b9050815161506781613fe8565b8152602082015161507781613c17565b6020820152604082015161404481613fe8565b6000806080838503121561509d57600080fd5b825191506148688460208501615040565b606081016109cb8284614388565b600080608083850312156150cf57600080fd5b6150d883614c97565b91506148688460208501615040565b600080604083850312156150fa57600080fd5b61510383614c97565b91506020830151613c6881613e32565b6020815260006113c9602083018461460a565b60008160070b677fffffffffffffff1981141561515357634e487b7160e01b600052601160045260246000fd5b60000392915050565b6001600160a01b0393841681529183166020830152909116604082015260600190565b6000806040838503121561519257600080fd5b61519b83614c97565b91506020830151613c6881613c17565b6060815260006151be60608301866143b3565b90506001600160401b038416602083015263ffffffff83166040830152949350505050565b6001600160a01b03948516815292841660208401529216604082015260079190910b606082015260800190565b600082601f83011261522157600080fd5b815161522f613dfb82613db5565b81815284602083860101111561524457600080fd5b611308826020830160208701614269565b600082601f83011261526657600080fd5b81516020615276613dfb83613e65565b82815260059290921b8401810191818101908684111561529557600080fd5b8286015b84811015613fdd5780516001600160401b03808211156152b857600080fd5b908801906040601f19838c0381018213156152d257600080fd5b6152da613cd4565b88850151815282850151848111156152f157600080fd5b949094019360a0858e03830112156153095760008081fd5b615311613cfc565b91508885015161532081613e32565b82528483015161532f81613c17565b828a0152606085810151858111156153475760008081fd5b6153558f8c838a0101615210565b85850152506080935083860151858111156153705760008081fd5b61537e8f8c838a0101615210565b82850152505061539060a08601615035565b928201929092528188015285525050918301918301615299565b600061016082840312156153bd57600080fd5b6153c5613d40565b905081516001600160401b03808211156153de57600080fd5b6153ea85838601615210565b8352602084015191508082111561540057600080fd5b61540c85838601615210565b602084015261541d60408501615035565b6040840152606084015191508082111561543657600080fd5b61544285838601615210565b606084015261545360808501614ffb565b608084015261546460a08501614c2f565b60a084015261547560c08501614ffb565b60c084015260e084015191508082111561548e57600080fd5b5061549b84828501615255565b60e0830152506101006154b084828501615040565b9082015292915050565b8051611d4781614906565b600082601f8301126154d657600080fd5b815160206154e6613dfb83613e65565b82815260a0928302850182019282820191908785111561550557600080fd5b8387015b85811015614e825781818a0312156155215760008081fd5b615529613cfc565b815161553481613fe8565b81528186015161554381613c17565b8187015260408281015161555681613e32565b9082015260608281015161556981613e32565b9082015260808281015161557c81613c17565b908201528452928401928101615509565b600082601f83011261559e57600080fd5b815160206155ae613dfb83613e65565b82815260c092830285018201928282019190878511156155cd57600080fd5b8387015b85811015614e825781818a0312156155e95760008081fd5b6155f1613d63565b81516155fc81613fe8565b81528186015161560b81613fe8565b8187015260408281015161561e81613fe8565b9082015260608281015161563181613fe8565b9082015260808281015161564481613e32565b9082015260a08281015161565781613c17565b9082015284529284019281016155d1565b600082601f83011261567957600080fd5b81516020615689613dfb83613e65565b82815260c092830285018201928282019190878511156156a857600080fd5b8387015b85811015614e825781818a0312156156c45760008081fd5b6156cc613d63565b81516156d781613fe8565b8152818601516156e681613fe8565b818701526040828101516156f981613fe8565b9082015260608281015161570c81613c17565b9082015260808281015161571f81613e32565b9082015260a08281015161573281613c17565b9082015284529284019281016156ac565b6000610120828403121561575657600080fd5b61575e613d40565b905081516001600160401b038082111561577757600080fd5b615783858386016153aa565b8352615791602085016154ba565b60208401526157a260408501614ffb565b60408401526157b360608501614ffb565b60608401526157c460808501614ffb565b608084015260a08401519150808211156157dd57600080fd5b6157e9858386016154c5565b60a084015260c084015191508082111561580257600080fd5b61580e8583860161558d565b60c084015260e084015191508082111561582757600080fd5b61583385838601615668565b60e08401526101009150818401518181111561584e57600080fd5b61585a86828701615210565b8385015250505092915050565b6000806040838503121561587a57600080fd5b61588383614c97565b915060208301516001600160401b038082111561589f57600080fd5b9084019060c082870312156158b357600080fd5b6158bb613d63565b8251828111156158ca57600080fd5b6158d688828601615743565b8252506158e560208401614c2f565b60208201526158f660408401615035565b604082015261590760608401614c2f565b606082015260808301518281111561591e57600080fd5b61592a88828601615210565b60808301525061593c60a08401615035565b60a08201528093505050509250929050565b6001600160a01b03848116825283166020820152606060408201819052600090614a4d908301846149f2565b6000806040838503121561598d57600080fd5b61599683614c97565b9150602083015190509250929050565b600080600080608085870312156159bc57600080fd5b6159c585614c97565b935060208501516001600160401b03808211156159e157600080fd5b6159ed888389016154c5565b94506040870151915080821115615a0357600080fd5b615a0f8883890161558d565b93506060870151915080821115615a2557600080fd5b50615a3287828801615668565b91505092959194509250565b60008060408385031215615a5157600080fd5b615a5a83614c97565b915061486860208401614c97565b60008060408385031215615a7b57600080fd5b615a8483614c97565b915060208301516001600160401b0380821115615aa057600080fd5b9084019060408287031215615ab457600080fd5b604051604081018181108382111715615acf57615acf613cbe565b604052825182811115615ae157600080fd5b615aed88828601615743565b82525060208301519250615b0083613fe8565b8260208201528093505050509250929050565b60006060820160018060a01b038616835260206001600160401b038616818501526060604085015281855180845260808601915060808160051b870101935082870160005b82811015615b8657607f19888703018452615b74868351614299565b95509284019290840190600101615b58565b50939998505050505050505050565b600080600060608486031215615baa57600080fd5b615bb384614c97565b9250602080850151615bc481614906565b60408601519093506001600160401b03811115615be057600080fd5b8501601f81018713615bf157600080fd5b8051615bff613dfb82613e65565b81815260059190911b82018301908381019089831115615c1e57600080fd5b928401925b8284101561482c578351615c3681613e4b565b82529284019290840190615c23565b60a081526000615c5860a08301886143b3565b6001600160401b038716602084015263ffffffff861660408401528281036060840152615c85818661448f565b90508281036080840152615c99818561450a565b98975050505050505050565b600081518084526020808501945080840160005b838110156144ff57815180516001600160a01b03908116895284820151168489015260409081015160070b9088015260609096019590820190600101615cb9565b60006020808301818452808551808352604092508286019150828160051b8701018488016000805b84811015615dc157898403603f19018652825180516001600160a01b0390811686528982015160608b880181905281519088018190526080880192918c01919086905b80821015615d935783518051841686528e015160070b8e860152938c0193928d019260019190910190615d65565b5050505090880151858203868a015290615dad8183615ca5565b978a01979550505091870191600101615d22565b50919998505050505050505050565b6020815260006113c960208301846143b3565b6001600160a01b039384168152919092166020820152604081019190915260600190565b60008060408385031215615e1a57600080fd5b615e2383614c97565b915060208301516001600160401b03811115615e3e57600080fd5b615e4a85828601615743565b915050925092905056fe90a5cf4cffe88b4edbb041cfc7a8a812c48a5ec30b84640fb37690875168e3aaa26469706673582212202e5b453079cf4523d78c9e148568e6aba2d917bbee4e369714138f9535947a2864736f6c63430008090033",
  "linkReferences": {},
  "deployedLinkReferences": {}
}