{
  "_format": "hh-sol-artifact-1",
  "contractName": "BaseHTS",
  "sourceName": "contracts/BaseHTS.sol",
  "abi": [
    {
      "anonymous": false,
      "inputs": [
        {
          "indexed": false,
          "internalType": "uint256",
          "name": "amount",
          "type": "uint256"
        }
      ],
      "name": "AllowanceValue",
      "type": "event"
    },
    {
      "anonymous": false,
      "inputs": [
        {
          "indexed": false,
          "internalType": "bool",
          "name": "approved",
          "type": "bool"
        }
      ],
      "name": "Approved",
      "type": "event"
    },
    {
      "anonymous": false,
      "inputs": [
        {
          "indexed": false,
          "internalType": "address",
          "name": "approved",
          "type": "address"
        }
      ],
      "name": "ApprovedAddress",
      "type": "event"
    },
    {
      "anonymous": false,
      "inputs": [
        {
          "indexed": false,
          "internalType": "address",
          "name": "tokenAddress",
          "type": "address"
        }
      ],
      "name": "CreatedToken",
      "type": "event"
    },
    {
      "anonymous": false,
      "inputs": [
        {
          "indexed": false,
          "internalType": "uint64",
          "name": "newTotalSupply",
          "type": "uint64"
        },
        {
          "indexed": false,
          "internalType": "int64[]",
          "name": "serialNumbers",
          "type": "int64[]"
        }
      ],
      "name": "MintedToken",
      "type": "event"
    },
    {
      "anonymous": false,
      "inputs": [
        {
          "indexed": false,
          "internalType": "int256",
          "name": "responseCode",
          "type": "int256"
        }
      ],
      "name": "ResponseCode",
      "type": "event"
    },
    {
      "anonymous": false,
      "inputs": [
        {
          "components": [
            {
              "internalType": "uint32",
              "name": "amount",
              "type": "uint32"
            },
            {
              "internalType": "address",
              "name": "tokenId",
              "type": "address"
            },
            {
              "internalType": "bool",
              "name": "useHbarsForPayment",
              "type": "bool"
            },
            {
              "internalType": "bool",
              "name": "useCurrentTokenForPayment",
              "type": "bool"
            },
            {
              "internalType": "address",
              "name": "feeCollector",
              "type": "address"
            }
          ],
          "indexed": false,
          "internalType": "struct IHederaTokenService.FixedFee[]",
          "name": "fixedFees",
          "type": "tuple[]"
        },
        {
          "components": [
            {
              "internalType": "uint32",
              "name": "numerator",
              "type": "uint32"
            },
            {
              "internalType": "uint32",
              "name": "denominator",
              "type": "uint32"
            },
            {
              "internalType": "uint32",
              "name": "minimumAmount",
              "type": "uint32"
            },
            {
              "internalType": "uint32",
              "name": "maximumAmount",
              "type": "uint32"
            },
            {
              "internalType": "bool",
              "name": "netOfTransfers",
              "type": "bool"
            },
            {
              "internalType": "address",
              "name": "feeCollector",
              "type": "address"
            }
          ],
          "indexed": false,
          "internalType": "struct IHederaTokenService.FractionalFee[]",
          "name": "fractionalFees",
          "type": "tuple[]"
        },
        {
          "components": [
            {
              "internalType": "uint32",
              "name": "numerator",
              "type": "uint32"
            },
            {
              "internalType": "uint32",
              "name": "denominator",
              "type": "uint32"
            },
            {
              "internalType": "uint32",
              "name": "amount",
              "type": "uint32"
            },
            {
              "internalType": "address",
              "name": "tokenId",
              "type": "address"
            },
            {
              "internalType": "bool",
              "name": "useHbarsForPayment",
              "type": "bool"
            },
            {
              "internalType": "address",
              "name": "feeCollector",
              "type": "address"
            }
          ],
          "indexed": false,
          "internalType": "struct IHederaTokenService.RoyaltyFee[]",
          "name": "royaltyFees",
          "type": "tuple[]"
        }
      ],
      "name": "TokenCustomFees",
      "type": "event"
    },
    {
      "inputs": [
        {
          "internalType": "address",
          "name": "token",
          "type": "address"
        },
        {
          "internalType": "address",
          "name": "owner",
          "type": "address"
        },
        {
          "internalType": "address",
          "name": "spender",
          "type": "address"
        }
      ],
      "name": "allowancePublic",
      "outputs": [
        {
          "internalType": "int256",
          "name": "responseCode",
          "type": "int256"
        },
        {
          "internalType": "uint256",
          "name": "amount",
          "type": "uint256"
        }
      ],
      "stateMutability": "nonpayable",
      "type": "function"
    },
    {
      "inputs": [
        {
          "internalType": "address",
          "name": "token",
          "type": "address"
        },
        {
          "internalType": "address",
          "name": "spender",
          "type": "address"
        },
        {
          "internalType": "uint256",
          "name": "amount",
          "type": "uint256"
        }
      ],
      "name": "approvePublic",
      "outputs": [
        {
          "internalType": "int256",
          "name": "responseCode",
          "type": "int256"
        }
      ],
      "stateMutability": "nonpayable",
      "type": "function"
    },
    {
      "inputs": [
        {
          "internalType": "address",
          "name": "account",
          "type": "address"
        },
        {
          "internalType": "address",
          "name": "token",
          "type": "address"
        }
      ],
      "name": "associateTokenPublic",
      "outputs": [
        {
          "internalType": "int256",
          "name": "responseCode",
          "type": "int256"
        }
      ],
      "stateMutability": "nonpayable",
      "type": "function"
    },
    {
      "inputs": [
        {
          "internalType": "address",
          "name": "treasury",
          "type": "address"
        }
      ],
      "name": "createFungibleTokenPublic",
      "outputs": [],
      "stateMutability": "payable",
      "type": "function"
    },
    {
      "inputs": [
        {
          "internalType": "address",
          "name": "treasury",
          "type": "address"
        },
        {
          "internalType": "address",
          "name": "fixedFeeTokenAddress",
          "type": "address"
        }
      ],
      "name": "createFungibleTokenWithCustomFeesPublic",
      "outputs": [],
      "stateMutability": "payable",
      "type": "function"
    },
    {
      "inputs": [
        {
          "internalType": "address",
          "name": "treasury",
          "type": "address"
        }
      ],
      "name": "createNonFungibleTokenPublic",
      "outputs": [],
      "stateMutability": "payable",
      "type": "function"
    },
    {
      "inputs": [
        {
          "internalType": "address",
          "name": "token",
          "type": "address"
        },
        {
          "internalType": "uint256",
          "name": "serialNumber",
          "type": "uint256"
        }
      ],
      "name": "getApprovedPublic",
      "outputs": [
        {
          "internalType": "int256",
          "name": "responseCode",
          "type": "int256"
        },
        {
          "internalType": "address",
          "name": "approved",
          "type": "address"
        }
      ],
      "stateMutability": "nonpayable",
      "type": "function"
    },
    {
      "inputs": [
        {
          "internalType": "address",
          "name": "token",
          "type": "address"
        }
      ],
      "name": "getTokenCustomFeesPublic",
      "outputs": [
        {
          "internalType": "int64",
          "name": "responseCode",
          "type": "int64"
        },
        {
          "components": [
            {
              "internalType": "uint32",
              "name": "amount",
              "type": "uint32"
            },
            {
              "internalType": "address",
              "name": "tokenId",
              "type": "address"
            },
            {
              "internalType": "bool",
              "name": "useHbarsForPayment",
              "type": "bool"
            },
            {
              "internalType": "bool",
              "name": "useCurrentTokenForPayment",
              "type": "bool"
            },
            {
              "internalType": "address",
              "name": "feeCollector",
              "type": "address"
            }
          ],
          "internalType": "struct IHederaTokenService.FixedFee[]",
          "name": "fixedFees",
          "type": "tuple[]"
        },
        {
          "components": [
            {
              "internalType": "uint32",
              "name": "numerator",
              "type": "uint32"
            },
            {
              "internalType": "uint32",
              "name": "denominator",
              "type": "uint32"
            },
            {
              "internalType": "uint32",
              "name": "minimumAmount",
              "type": "uint32"
            },
            {
              "internalType": "uint32",
              "name": "maximumAmount",
              "type": "uint32"
            },
            {
              "internalType": "bool",
              "name": "netOfTransfers",
              "type": "bool"
            },
            {
              "internalType": "address",
              "name": "feeCollector",
              "type": "address"
            }
          ],
          "internalType": "struct IHederaTokenService.FractionalFee[]",
          "name": "fractionalFees",
          "type": "tuple[]"
        },
        {
          "components": [
            {
              "internalType": "uint32",
              "name": "numerator",
              "type": "uint32"
            },
            {
              "internalType": "uint32",
              "name": "denominator",
              "type": "uint32"
            },
            {
              "internalType": "uint32",
              "name": "amount",
              "type": "uint32"
            },
            {
              "internalType": "address",
              "name": "tokenId",
              "type": "address"
            },
            {
              "internalType": "bool",
              "name": "useHbarsForPayment",
              "type": "bool"
            },
            {
              "internalType": "address",
              "name": "feeCollector",
              "type": "address"
            }
          ],
          "internalType": "struct IHederaTokenService.RoyaltyFee[]",
          "name": "royaltyFees",
          "type": "tuple[]"
        }
      ],
      "stateMutability": "nonpayable",
      "type": "function"
    },
    {
      "inputs": [
        {
          "internalType": "address",
          "name": "token",
          "type": "address"
        },
        {
          "internalType": "address",
          "name": "owner",
          "type": "address"
        },
        {
          "internalType": "address",
          "name": "operator",
          "type": "address"
        }
      ],
      "name": "isApprovedForAllPublic",
      "outputs": [
        {
          "internalType": "int256",
          "name": "responseCode",
          "type": "int256"
        },
        {
          "internalType": "bool",
          "name": "approved",
          "type": "bool"
        }
      ],
      "stateMutability": "nonpayable",
      "type": "function"
    },
    {
      "inputs": [
        {
          "internalType": "address",
          "name": "token",
          "type": "address"
        },
        {
          "internalType": "uint64",
          "name": "amount",
          "type": "uint64"
        },
        {
          "internalType": "bytes[]",
          "name": "metadata",
          "type": "bytes[]"
        }
      ],
      "name": "mintTokenPublic",
      "outputs": [
        {
          "internalType": "int256",
          "name": "responseCode",
          "type": "int256"
        },
        {
          "internalType": "uint64",
          "name": "newTotalSupply",
          "type": "uint64"
        },
        {
          "internalType": "int64[]",
          "name": "serialNumbers",
          "type": "int64[]"
        }
      ],
      "stateMutability": "nonpayable",
      "type": "function"
    },
    {
      "inputs": [
        {
          "internalType": "address",
          "name": "token",
          "type": "address"
        }
      ],
      "name": "pauseToken",
      "outputs": [
        {
          "internalType": "int256",
          "name": "responseCode",
          "type": "int256"
        }
      ],
      "stateMutability": "nonpayable",
      "type": "function"
    },
    {
      "inputs": [
        {
          "internalType": "address",
          "name": "token",
          "type": "address"
        },
        {
          "internalType": "address",
          "name": "operator",
          "type": "address"
        },
        {
          "internalType": "bool",
          "name": "approved",
          "type": "bool"
        }
      ],
      "name": "setApprovalForAllPublic",
      "outputs": [
        {
          "internalType": "int256",
          "name": "responseCode",
          "type": "int256"
        }
      ],
      "stateMutability": "nonpayable",
      "type": "function"
    },
    {
      "inputs": [
        {
          "internalType": "address",
          "name": "account",
          "type": "address"
        },
        {
          "internalType": "address",
          "name": "token",
          "type": "address"
        },
        {
          "internalType": "int64",
          "name": "amount",
          "type": "int64"
        }
      ],
      "name": "transferTokenPublic",
      "outputs": [
        {
          "internalType": "int256",
          "name": "responseCode",
          "type": "int256"
        }
      ],
      "stateMutability": "nonpayable",
      "type": "function"
    },
    {
      "inputs": [
        {
          "internalType": "address",
          "name": "token",
          "type": "address"
        }
      ],
      "name": "unpauseToken",
      "outputs": [
        {
          "internalType": "int256",
          "name": "responseCode",
          "type": "int256"
        }
      ],
      "stateMutability": "nonpayable",
      "type": "function"
    }
  ],
  "bytecode": "0x60c06040526009608081905268746f6b656e4e616d6560b81b60a09081526200002c9160019190620000c1565b5060408051808201909152600b8082526a1d1bdad95b94de5b589bdb60aa1b60209092019182526200006191600291620000c1565b50604080518082019091526004808252636d656d6f60e01b60209092019182526200008f91600391620000c1565b506103e860048190556005805463ffffffff191690911790556008600655348015620000ba57600080fd5b50620001a4565b828054620000cf9062000167565b90600052602060002090601f016020900481019282620000f357600085556200013e565b82601f106200010e57805160ff19168380011785556200013e565b828001600101855582156200013e579182015b828111156200013e57825182559160200191906001019062000121565b506200014c92915062000150565b5090565b5b808211156200014c576000815560010162000151565b600181811c908216806200017c57607f821691505b602082108114156200019e57634e487b7160e01b600052602260045260246000fd5b50919050565b61322680620001b46000396000f3fe6080604052600436106100dd5760003560e01c80638070905f1161007f578063ec855c3111610059578063ec855c3114610276578063f25b120014610296578063f4a01e5b146102b6578063f848fec4146102d657600080fd5b80638070905f146102215780638ba74da014610250578063d85f74c11461026357600080fd5b80634b5c6687116100bb5780634b5c6687146101875780635a5e6c311461019c5780635b9076b7146101d15780637c41ad2c1461020157600080fd5b806313c05dd8146100e257806319db44b61461011c5780633b3bff0f14610159575b600080fd5b3480156100ee57600080fd5b506101026100fd366004612469565b6102f6565b604080519283529015156020830152015b60405180910390f35b34801561012857600080fd5b5061013c610137366004612571565b610386565b604080519283526001600160a01b03909116602083015201610113565b34801561016557600080fd5b50610179610174366004612415565b61041b565b604051908152602001610113565b61019a610195366004612415565b61050e565b005b3480156101a857600080fd5b506101bc6101b7366004612469565b61082a565b60408051928352602083019190915201610113565b3480156101dd57600080fd5b506101f16101ec366004612415565b6108ad565b6040516101139493929190612f50565b34801561020d57600080fd5b5061017961021c366004612415565b610951565b34801561022d57600080fd5b5061024161023c36600461259c565b610998565b60405161011393929190612f1e565b61019a61025e366004612431565b610a32565b61019a610271366004612415565b610f00565b34801561028257600080fd5b506101796102913660046124f2565b611203565b3480156102a257600080fd5b506101796102b13660046124b3565b611404565b3480156102c257600080fd5b506101796102d1366004612431565b611460565b3480156102e257600080fd5b506101796102f1366004612531565b6114ba565b6000806103048585856114c7565b60405182815291935091507f90a5cf4cffe88b4edbb041cfc7a8a812c48a5ec30b84640fb37690875168e3aa9060200160405180910390a16016821461034957600080fd5b60405181151581527e1c2e72360171244b3bb8cc8ddd767820edf37138ad6f129fb3574b407c307d906020015b60405180910390a1935093915050565b60008061039384846115b5565b60405182815291935091507f90a5cf4cffe88b4edbb041cfc7a8a812c48a5ec30b84640fb37690875168e3aa9060200160405180910390a1601682146103d857600080fd5b6040516001600160a01b03821681527fc2c78c7c31baf14949e75c51df12be56edb9af523cf82839c2869bbcf13b3ecb9060200160405180910390a19250929050565b6040516001600160a01b038216602482015260009081908190610167907f3b3bff0f00000000000000000000000000000000000000000000000000000000906044015b60408051601f198184030181529181526020820180516001600160e01b03166001600160e01b031990941693909317909252905161049c9190612d69565b6000604051808303816000865af19150503d80600081146104d9576040519150601f19603f3d011682016040523d82523d6000602084013e6104de565b606091505b5091509150816104ef576015610503565b8080602001905181019061050391906126c0565b60030b949350505050565b604080516001808252818301909252600091816020015b61052d6121d4565b81526020019060019003908161052557905050905061055f600080600160405180602001604052806000815250611696565b8160008151811061058057634e487b7160e01b600052603260045260246000fd5b602002602001018190525060006040518060600160405280600063ffffffff168152602001846001600160a01b03168152602001627a120063ffffffff1681525090506000604051806101200160405280600180546105de90613122565b80601f016020809104026020016040519081016040528092919081815260200182805461060a90613122565b80156106575780601f1061062c57610100808354040283529160200191610657565b820191906000526020600020905b81548152906001019060200180831161063a57829003601f168201915b505050505081526020016002805461066e90613122565b80601f016020809104026020016040519081016040528092919081815260200182805461069a90613122565b80156106e75780601f106106bc576101008083540402835291602001916106e7565b820191906000526020600020905b8154815290600101906020018083116106ca57829003601f168201915b50505050508152602001856001600160a01b031681526020016003805461070d90613122565b80601f016020809104026020016040519081016040528092919081815260200182805461073990613122565b80156107865780601f1061075b57610100808354040283529160200191610786565b820191906000526020600020905b81548152906001019060200180831161076957829003601f168201915b50505091835250506001602082015260055463ffffffff1660408201526000606082018190526080820186905260a0909101849052600454600654929350909182916107d4918591906116cd565b9092509050601682146107e657600080fd5b6040516001600160a01b03821681527f7bb17726df1f3adee8aa00ba8e8bc5d6f182af3bbf77604639cb7f008dd3b4ed9060200160405180910390a1505050505050565b6000806108388585856117fb565b60405182815291935091507f90a5cf4cffe88b4edbb041cfc7a8a812c48a5ec30b84640fb37690875168e3aa9060200160405180910390a16016821461087d57600080fd5b6040518181527f25b6684a7e8fe1b676e9c39c8dd65034fbafea906d3bdfd97bf748b7b55e14c890602001610376565b600060608060606108bd856118fa565b604051600785900b8152939750919550935091507f90a5cf4cffe88b4edbb041cfc7a8a812c48a5ec30b84640fb37690875168e3aa9060200160405180910390a1600784900b60161461090f57600080fd5b7f2efc8334b040613a552197fe34283d6ca2909c8ffae393e128424931f20c69b383838360405161094293929190612e08565b60405180910390a19193509193565b6040516001600160a01b038216602482015260009081908190610167907f7c41ad2c000000000000000000000000000000000000000000000000000000009060440161045e565b60008060606109a88686866119fa565b60405183815292955090935091507f90a5cf4cffe88b4edbb041cfc7a8a812c48a5ec30b84640fb37690875168e3aa9060200160405180910390a1601683146109f057600080fd5b7feff23992f47b3c101679f8b4dc9d3e242c903909dba4a453f2b2341ad463b0e28282604051610a21929190613026565b60405180910390a193509350939050565b604080516001808252818301909252600091816020015b610a516121d4565b815260200190600190039081610a49579050509050610a83600080600160405180602001604052806000815250611696565b81600081518110610aa457634e487b7160e01b600052603260045260246000fd5b602002602001018190525060006040518060600160405280600063ffffffff168152602001856001600160a01b03168152602001627a120063ffffffff168152509050600060405180610120016040528060018054610b0290613122565b80601f0160208091040260200160405190810160405280929190818152602001828054610b2e90613122565b8015610b7b5780601f10610b5057610100808354040283529160200191610b7b565b820191906000526020600020905b815481529060010190602001808311610b5e57829003601f168201915b5050505050815260200160028054610b9290613122565b80601f0160208091040260200160405190810160405280929190818152602001828054610bbe90613122565b8015610c0b5780601f10610be057610100808354040283529160200191610c0b565b820191906000526020600020905b815481529060010190602001808311610bee57829003601f168201915b50505050508152602001866001600160a01b0316815260200160038054610c3190613122565b80601f0160208091040260200160405190810160405280929190818152602001828054610c5d90613122565b8015610caa5780601f10610c7f57610100808354040283529160200191610caa565b820191906000526020600020905b815481529060010190602001808311610c8d57829003601f168201915b505050918352505060016020820181905260055463ffffffff166040808401919091526000606084018190526080840188905260a09093018690528051828152808201909152929350909190816020015b6040805160a081018252600080825260208083018290529282018190526060820181905260808201528252600019909201910181610cfb5750506040805160a081018252600181526001600160a01b03888116602083015260009282018390526060820183905289166080820152825192935091839190610d8c57634e487b7160e01b600052603260045260246000fd5b6020908102919091010152604080516001808252818301909252600091816020015b6040805160c08101825260008082526020808301829052928201819052606082018190526080820181905260a08201528252600019909201910181610dae5750506040805160c0810182526004815260056020820152600a91810191909152601e60608201526000608082018190526001600160a01b038a1660a083015282519293509091839190610e5057634e487b7160e01b600052603260045260246000fd5b6020026020010181905250600080610e6f856004546006548787611af8565b915091507f90a5cf4cffe88b4edbb041cfc7a8a812c48a5ec30b84640fb37690875168e3aa82604051610ea491815260200190565b60405180910390a160168214610eb957600080fd5b6040516001600160a01b03821681527f7bb17726df1f3adee8aa00ba8e8bc5d6f182af3bbf77604639cb7f008dd3b4ed9060200160405180910390a1505050505050505050565b60408051600280825260608201909252600091816020015b610f206121d4565b815260200190600190039081610f18579050509050610f52600080600160405180602001604052806000815250611696565b81600081518110610f7357634e487b7160e01b600052603260045260246000fd5b6020026020010181905250610f9a6004600160405180602001604052806000815250611c2c565b81600181518110610fbb57634e487b7160e01b600052603260045260246000fd5b602002602001018190525060006040518060600160405280600063ffffffff168152602001846001600160a01b03168152602001627a120063ffffffff16815250905060006040518061012001604052806001805461101990613122565b80601f016020809104026020016040519081016040528092919081815260200182805461104590613122565b80156110925780601f1061106757610100808354040283529160200191611092565b820191906000526020600020905b81548152906001019060200180831161107557829003601f168201915b50505050508152602001600280546110a990613122565b80601f01602080910402602001604051908101604052809291908181526020018280546110d590613122565b80156111225780601f106110f757610100808354040283529160200191611122565b820191906000526020600020905b81548152906001019060200180831161110557829003601f168201915b50505050508152602001856001600160a01b031681526020016003805461114890613122565b80601f016020809104026020016040519081016040528092919081815260200182805461117490613122565b80156111c15780601f10611196576101008083540402835291602001916111c1565b820191906000526020600020905b8154815290600101906020018083116111a457829003601f168201915b50505091835250506001602082015260055463ffffffff1660408201526000606082018190526080820186905260a0909101849052909150806107d483611c61565b60408051600080825260208201909252819081611248565b604080516060810182526000808252602080830182905292820152825260001990920191018161121b5790505b50905060006040518060400160405280336001600160a01b03168152602001856112719061315d565b600790810b9091526040805180820182526001600160a01b038a1681529187900b602083015280516002808252606082019092529293509091600091816020015b60408051808201909152600080825260208201528152602001906001900390816112b257905050905082816000815181106112fd57634e487b7160e01b600052603260045260246000fd5b6020026020010181905250818160018151811061132a57634e487b7160e01b600052603260045260246000fd5b602090810291909101810191909152604080516060810182526001600160a01b038a16815291820183905281810186905280516001808252818301909252600091816020015b61139d604051806060016040528060006001600160a01b0316815260200160608152602001606081525090565b81526020019060019003908161137057905050905081816000815181106113d457634e487b7160e01b600052603260045260246000fd5b60200260200101819052506113e881611d77565b9650601687146113f757600080fd5b5050505050509392505050565b6000611411848484611da1565b90507f90a5cf4cffe88b4edbb041cfc7a8a812c48a5ec30b84640fb37690875168e3aa8160405161144491815260200190565b60405180910390a16016811461145957600080fd5b9392505050565b600061146c8383611e86565b90507f90a5cf4cffe88b4edbb041cfc7a8a812c48a5ec30b84640fb37690875168e3aa8160405161149f91815260200190565b60405180910390a1601681146114b457600080fd5b92915050565b6000611411848484611f67565b604080516001600160a01b0385811660248301528481166044830152831660648083019190915282518083039091018152608490910182526020810180516001600160e01b03167ff49f40db00000000000000000000000000000000000000000000000000000000179052905160009182918291610167916115499190612d69565b6000604051808303816000865af19150503d8060008114611586576040519150601f19603f3d011682016040523d82523d6000602084013e61158b565b606091505b50915050808060200190518101906115a39190612861565b60039190910b97909650945050505050565b604080516001600160a01b0384166024820152604480820184905282518083039091018152606490910182526020810180516001600160e01b03167f098f2366000000000000000000000000000000000000000000000000000000001790529051600091829182916101679161162b9190612d69565b6000604051808303816000865af19150503d8060008114611668576040519150601f19603f3d011682016040523d82523d6000602084013e61166d565b606091505b509150508080602001905181019061168591906126da565b60039190910b969095509350505050565b61169e6121d4565b60405180604001604052806116b38787612059565b81526020016116c28585612072565b905295945050505050565b600080848061010001516000015163ffffffff1660001480156116fd57506101008101516040015163ffffffff16155b15611713576101008101516276a7006040909101525b6000806101676001600160a01b031634637812a04b60e01b8a8a8a60405160240161174093929190612fb0565b60408051601f198184030181529181526020820180516001600160e01b03166001600160e01b031990941693909317909252905161177e9190612d69565b60006040518083038185875af1925050503d80600081146117bb576040519150601f19603f3d011682016040523d82523d6000602084013e6117c0565b606091505b5091509150816117d357601560006117e7565b808060200190518101906117e791906126da565b60039190910b999098509650505050505050565b604080516001600160a01b0385811660248301528481166044830152831660648083019190915282518083039091018152608490910182526020810180516001600160e01b03167f927da1050000000000000000000000000000000000000000000000000000000017905290516000918291829182916101679161187e91612d69565b6000604051808303816000865af19150503d80600081146118bb576040519150601f19603f3d011682016040523d82523d6000602084013e6118c0565b606091505b5091509150816118d357601560006118e7565b808060200190518101906118e7919061288c565b60039190910b9890975095505050505050565b604080516001600160a01b03831660248083019190915282518083039091018152604490910182526020810180516001600160e01b03167fae7611a000000000000000000000000000000000000000000000000000000000179052905160009160609182918291859182916101679161197291612d69565b6000604051808303816000865af19150503d80600081146119af576040519150601f19603f3d011682016040523d82523d6000602084013e6119b4565b606091505b50915091506060806060846119cd5760158383836119e1565b838060200190518101906119e19190612705565b60039390930b9d919c509a509098509650505050505050565b60008060606000806101676001600160a01b031663278e0b8860e01b898989604051602401611a2b93929190612d85565b60408051601f198184030181529181526020820180516001600160e01b03166001600160e01b0319909416939093179092529051611a699190612d69565b6000604051808303816000865af19150503d8060008114611aa6576040519150601f19603f3d011682016040523d82523d6000602084013e611aab565b606091505b509150915081611ace576040805160008082526020820190925260159190611ae2565b80806020019051810190611ae291906128b7565b60039290920b9a90995090975095505050505050565b600080868061010001516000015163ffffffff166000148015611b2857506101008101516040015163ffffffff16155b15611b3e576101008101516276a7006040909101525b6000806101676001600160a01b031634634c381ae760e01b8c8c8c8c8c604051602401611b6f959493929190612fd5565b60408051601f198184030181529181526020820180516001600160e01b03166001600160e01b0319909416939093179092529051611bad9190612d69565b60006040518083038185875af1925050503d8060008114611bea576040519150601f19603f3d011682016040523d82523d6000602084013e611bef565b606091505b509150915081611c025760156000611c16565b80806020019051810190611c1691906126da565b60039190910b9b909a5098505050505050505050565b611c346121d4565b6040518060400160405280611c4886612142565b8152602001611c578585612072565b9052949350505050565b600080828061010001516000015163ffffffff166000148015611c9157506101008101516040015163ffffffff16155b15611ca7576101008101516276a7006040909101525b6000806101676001600160a01b031634639dc711e060e01b88604051602401611cd09190612f9d565b60408051601f198184030181529181526020820180516001600160e01b03166001600160e01b0319909416939093179092529051611d0e9190612d69565b60006040518083038185875af1925050503d8060008114611d4b576040519150601f19603f3d011682016040523d82523d6000602084013e611d50565b606091505b509150915081611d6357601560006115a3565b808060200190518101906115a391906126da565b60008060006101676001600160a01b031663189a554c60e01b8560405160240161045e9190612e4b565b604080516001600160a01b0385811660248301528416604482015282151560648083019190915282518083039091018152608490910182526020810180516001600160e01b03167f367605ca000000000000000000000000000000000000000000000000000000001790529051600091829161016791611e2091612d69565b6000604051808303816000865af19150503d8060008114611e5d576040519150601f19603f3d011682016040523d82523d6000602084013e611e62565b606091505b5091505080806020019051810190611e7a91906126c0565b60030b95945050505050565b604080516001600160a01b038481166024830152831660448083019190915282518083039091018152606490910182526020810180516001600160e01b03167f49146bde0000000000000000000000000000000000000000000000000000000017905290516000918291829161016791611f009190612d69565b6000604051808303816000865af19150503d8060008114611f3d576040519150601f19603f3d011682016040523d82523d6000602084013e611f42565b606091505b509150915081611f53576015611e7a565b80806020019051810190611e7a91906126c0565b604080516001600160a01b03858116602483015284166044820152606480820184905282518083039091018152608490910182526020810180516001600160e01b03167fe1f21c670000000000000000000000000000000000000000000000000000000017905290516000918291829161016791611fe59190612d69565b6000604051808303816000865af19150503d8060008114612022576040519150601f19603f3d011682016040523d82523d6000602084013e612027565b606091505b50915091508161203857601561204c565b8080602001905181019061204c91906126c0565b60030b9695505050505050565b6000600160ff84161b9050600160ff83161b8117611459565b6120b86040518060a0016040528060001515815260200160006001600160a01b03168152602001606081526020016060815260200160006001600160a01b031681525090565b8260ff16600114156120cd57600181526114b4565b8260ff16600214156120ef576000546001600160a01b031660208201526114b4565b8260ff166003141561210757604081018290526114b4565b8260ff166004141561211f57606081018290526114b4565b8260ff16600514156114b4576000546001600160a01b0316608082015292915050565b600060ff821661215457506001919050565b8160ff166001141561216857506002919050565b8160ff166002141561217c57506004919050565b8160ff166003141561219057506008919050565b8160ff16600414156121a457506010919050565b8160ff16600514156121b857506020919050565b8160ff16600614156121cc57506040919050565b506000919050565b60405180604001604052806000815260200161222c6040518060a0016040528060001515815260200160006001600160a01b03168152602001606081526020016060815260200160006001600160a01b031681525090565b905290565b600082601f830112612241578081fd5b81516020612256612251836130ce565b61309d565b8281528181019085830160c080860288018501891015612274578687fd5b865b868110156123085781838b03121561228c578788fd5b612294613051565b61229d84612401565b81526122aa878501612401565b8782015260406122bb818601612401565b9082015260606122cc858201612401565b908201526080848101516122df816131bd565b9082015260a0848101516122f2816131a5565b9082015285529385019391810191600101612276565b509198975050505050505050565b600082601f830112612326578081fd5b81516020612336612251836130ce565b8281528181019085830160c080860288018501891015612354578687fd5b865b868110156123085781838b03121561236c578788fd5b612374613051565b61237d84612401565b815261238a878501612401565b87820152604061239b818601612401565b908201526060848101516123ae816131a5565b908201526080848101516123c1816131bd565b9082015260a0848101516123d4816131a5565b9082015285529385019391810191600101612356565b8051600381900b81146123fc57600080fd5b919050565b805163ffffffff811681146123fc57600080fd5b600060208284031215612426578081fd5b8135611459816131a5565b60008060408385031215612443578081fd5b823561244e816131a5565b9150602083013561245e816131a5565b809150509250929050565b60008060006060848603121561247d578081fd5b8335612488816131a5565b92506020840135612498816131a5565b915060408401356124a8816131a5565b809150509250925092565b6000806000606084860312156124c7578081fd5b83356124d2816131a5565b925060208401356124e2816131a5565b915060408401356124a8816131bd565b600080600060608486031215612506578081fd5b8335612511816131a5565b92506020840135612521816131a5565b915060408401356124a8816131cb565b600080600060608486031215612545578081fd5b8335612550816131a5565b92506020840135612560816131a5565b929592945050506040919091013590565b60008060408385031215612583578182fd5b823561258e816131a5565b946020939093013593505050565b6000806000606084860312156125b0578081fd5b83356125bb816131a5565b92506020848101356125cc816131da565b9250604085013567ffffffffffffffff808211156125e8578384fd5b818701915087601f8301126125fb578384fd5b8135612609612251826130ce565b8082825285820191508585018b878560051b8801011115612628578788fd5b875b848110156126ae5781358681111561264057898afd5b8701603f81018e1361265057898afd5b88810135878111156126645761266461318f565b612676601f8201601f19168b0161309d565b8181528f604083850101111561268a578b8cfd5b81604084018c8301379081018a018b9052855250928701929087019060010161262a565b50508096505050505050509250925092565b6000602082840312156126d1578081fd5b611459826123ea565b600080604083850312156126ec578182fd5b6126f5836123ea565b9150602083015161245e816131a5565b6000806000806080858703121561271a578182fd5b612723856123ea565b935060208086015167ffffffffffffffff80821115612740578485fd5b818801915088601f830112612753578485fd5b8151612761612251826130ce565b8181528481019084860160a0808502870188018e101561277f57898afd5b8996505b8487101561280c5780828f03121561279957898afd5b6127a161307a565b6127aa83612401565b8152888301516127b9816131a5565b818a015260408301516127cb816131bd565b604082015260608301516127de816131bd565b606082015260808301516127f1816131a5565b60808201528452600196909601959287019290810190612783565b505060408b01519098509450505080831115612826578485fd5b61283289848a01612231565b94506060880151925080831115612847578384fd5b505061285587828801612316565b91505092959194509250565b60008060408385031215612873578182fd5b61287c836123ea565b9150602083015161245e816131bd565b6000806040838503121561289e578182fd5b6128a7836123ea565b9150602083015190509250929050565b6000806000606084860312156128cb578081fd5b6128d4846123ea565b92506020808501516128e5816131da565b604086015190935067ffffffffffffffff811115612901578283fd5b8501601f81018713612911578283fd5b805161291f612251826130ce565b8082825284820191508484018a868560051b870101111561293e578687fd5b8694505b83851015612969578051612955816131cb565b835260019490940193918501918501612942565b5080955050505050509250925092565b6000815180845260208085019450808401835b838110156129ab57815160070b8752958201959082019060010161298c565b509495945050505050565b6000815180845260208085019450808401835b838110156129ab578151805163ffffffff168852838101516001600160a01b03908116858a01526040808301511515908a01526060808301511515908a0152608091820151169088015260a090960195908201906001016129c9565b6000815180845260208085019450808401835b838110156129ab578151805163ffffffff9081168952848201518116858a01526040808301518216908a01526060808301519091169089015260808082015115159089015260a0908101516001600160a01b03169088015260c09096019590820190600101612a38565b6000815180845260208085019450808401835b838110156129ab57815180516001600160a01b03908116895284820151168489015260409081015160070b9088015260609096019590820190600101612ab5565b6000815180845260208085019450808401835b838110156129ab578151805163ffffffff9081168952848201518116858a0152604080830151909116908901526060808201516001600160a01b03908116918a01919091526080808301511515908a015260a091820151169088015260c09096019590820190600101612b09565b600081518084526020808501808196508360051b81019150828601855b85811015612c2d5782840389528151604081518652868201519150808787015281511515818701528682015160606001600160a01b03808316828a015283850151935060a09250608083818b0152612bef60e08b0186612c3a565b928601518a8403603f1901858c0152929450612c0b8584612c3a565b9501511660c09890980197909752505098850198935090840190600101612b94565b5091979650505050505050565b60008151808452612c528160208601602086016130f2565b601f01601f19169290920160200192915050565b60006101608251818552612c7c82860182612c3a565b91505060208301518482036020860152612c968282612c3a565b9150506040830151612cb360408601826001600160a01b03169052565b5060608301518482036060860152612ccb8282612c3a565b9150506080830151612ce1608086018215159052565b5060a0830151612cf960a086018263ffffffff169052565b5060c0830151612d0d60c086018215159052565b5060e083015184820360e0860152612d258282612b77565b61010085810151805163ffffffff9081168984015260208201516001600160a01b03166101208a015260408201511661014089015291935091505090949350505050565b60008251612d7b8184602087016130f2565b9190910192915050565b6000606082016001600160a01b0386168352602067ffffffffffffffff8616818501526060604085015281855180845260808601915060808160051b8701019350828701855b82811015612df957607f19888703018452612de7868351612c3a565b95509284019290840190600101612dcb565b50939998505050505050505050565b606081526000612e1b60608301866129b6565b8281036020840152612e2d8186612a25565b90508281036040840152612e418185612af6565b9695505050505050565b60006020808301818452808551808352604092508286019150828160051b870101848801865b83811015612f1057888303603f19018552815180516001600160a01b0390811685528882015160608a870181905281519087018190526080870192918b0191908c905b80821015612ee25783518051841686528d015160070b8d860152938b0193928c019260019190910190612eb4565b50505050908701518482038589015290612efc8183612aa2565b968901969450505090860190600101612e71565b509098975050505050505050565b83815267ffffffffffffffff83166020820152606060408201526000612f476060830184612979565b95945050505050565b8460070b8152608060208201526000612f6c60808301866129b6565b8281036040840152612f7e8186612a25565b90508281036060840152612f928185612af6565b979650505050505050565b6020815260006114596020830184612c66565b606081526000612fc36060830186612c66565b60208301949094525060400152919050565b60a081526000612fe860a0830188612c66565b866020840152856040840152828103606084015261300681866129b6565b9050828103608084015261301a8185612a25565b98975050505050505050565b67ffffffffffffffff831681526040602082015260006130496040830184612979565b949350505050565b60405160c0810167ffffffffffffffff811182821017156130745761307461318f565b60405290565b60405160a0810167ffffffffffffffff811182821017156130745761307461318f565b604051601f8201601f1916810167ffffffffffffffff811182821017156130c6576130c661318f565b604052919050565b600067ffffffffffffffff8211156130e8576130e861318f565b5060051b60200190565b60005b8381101561310d5781810151838201526020016130f5565b8381111561311c576000848401525b50505050565b600181811c9082168061313657607f821691505b6020821081141561315757634e487b7160e01b600052602260045260246000fd5b50919050565b60008160070b677fffffffffffffff1981141561318857634e487b7160e01b82526011600452602482fd5b9003919050565b634e487b7160e01b600052604160045260246000fd5b6001600160a01b03811681146131ba57600080fd5b50565b80151581146131ba57600080fd5b8060070b81146131ba57600080fd5b67ffffffffffffffff811681146131ba57600080fdfea26469706673582212209797a305eed78cd7075edfb3a3b64f1e58b0837671ab8e171b0bb3f1ec797bcc64736f6c63430008040033",
  "linkReferences": {},
  "deployedLinkReferences": {}
}