{
  "_format": "hh-sol-artifact-1",
  "contractName": "BaseHTS",
  "sourceName": "contracts/BaseHTS.sol",
  "abi": [
    {
      "anonymous": false,
      "inputs": [
        {
          "indexed": false,
          "internalType": "uint256",
          "name": "amount",
          "type": "uint256"
        }
      ],
      "name": "AllowanceValue",
      "type": "event"
    },
    {
      "anonymous": false,
      "inputs": [
        {
          "indexed": false,
          "internalType": "bool",
          "name": "approved",
          "type": "bool"
        }
      ],
      "name": "Approved",
      "type": "event"
    },
    {
      "anonymous": false,
      "inputs": [
        {
          "indexed": false,
          "internalType": "address",
          "name": "approved",
          "type": "address"
        }
      ],
      "name": "ApprovedAddress",
      "type": "event"
    },
    {
      "anonymous": false,
      "inputs": [
        {
          "indexed": false,
          "internalType": "address",
          "name": "tokenAddress",
          "type": "address"
        }
      ],
      "name": "CreatedToken",
      "type": "event"
    },
    {
      "anonymous": false,
      "inputs": [
        {
          "indexed": false,
          "internalType": "bool",
          "name": "freezeStatus",
          "type": "bool"
        }
      ],
      "name": "DefaultFreezeStatusChanged",
      "type": "event"
    },
    {
      "anonymous": false,
      "inputs": [
        {
          "indexed": false,
          "internalType": "bool",
          "name": "frozen",
          "type": "bool"
        }
      ],
      "name": "Frozen",
      "type": "event"
    },
    {
      "anonymous": false,
      "inputs": [
        {
          "components": [
            {
              "components": [
                {
                  "components": [
                    {
                      "internalType": "string",
                      "name": "name",
                      "type": "string"
                    },
                    {
                      "internalType": "string",
                      "name": "symbol",
                      "type": "string"
                    },
                    {
                      "internalType": "address",
                      "name": "treasury",
                      "type": "address"
                    },
                    {
                      "internalType": "string",
                      "name": "memo",
                      "type": "string"
                    },
                    {
                      "internalType": "bool",
                      "name": "tokenSupplyType",
                      "type": "bool"
                    },
                    {
                      "internalType": "uint32",
                      "name": "maxSupply",
                      "type": "uint32"
                    },
                    {
                      "internalType": "bool",
                      "name": "freezeDefault",
                      "type": "bool"
                    },
                    {
                      "components": [
                        {
                          "internalType": "uint256",
                          "name": "keyType",
                          "type": "uint256"
                        },
                        {
                          "components": [
                            {
                              "internalType": "bool",
                              "name": "inheritAccountKey",
                              "type": "bool"
                            },
                            {
                              "internalType": "address",
                              "name": "contractId",
                              "type": "address"
                            },
                            {
                              "internalType": "bytes",
                              "name": "ed25519",
                              "type": "bytes"
                            },
                            {
                              "internalType": "bytes",
                              "name": "ECDSA_secp256k1",
                              "type": "bytes"
                            },
                            {
                              "internalType": "address",
                              "name": "delegatableContractId",
                              "type": "address"
                            }
                          ],
                          "internalType": "struct IHederaTokenService.KeyValue",
                          "name": "key",
                          "type": "tuple"
                        }
                      ],
                      "internalType": "struct IHederaTokenService.TokenKey[]",
                      "name": "tokenKeys",
                      "type": "tuple[]"
                    },
                    {
                      "components": [
                        {
                          "internalType": "uint32",
                          "name": "second",
                          "type": "uint32"
                        },
                        {
                          "internalType": "address",
                          "name": "autoRenewAccount",
                          "type": "address"
                        },
                        {
                          "internalType": "uint32",
                          "name": "autoRenewPeriod",
                          "type": "uint32"
                        }
                      ],
                      "internalType": "struct IHederaTokenService.Expiry",
                      "name": "expiry",
                      "type": "tuple"
                    }
                  ],
                  "internalType": "struct IHederaTokenService.HederaToken",
                  "name": "token",
                  "type": "tuple"
                },
                {
                  "internalType": "uint64",
                  "name": "totalSupply",
                  "type": "uint64"
                },
                {
                  "internalType": "bool",
                  "name": "deleted",
                  "type": "bool"
                },
                {
                  "internalType": "bool",
                  "name": "defaultKycStatus",
                  "type": "bool"
                },
                {
                  "internalType": "bool",
                  "name": "pauseStatus",
                  "type": "bool"
                },
                {
                  "components": [
                    {
                      "internalType": "uint32",
                      "name": "amount",
                      "type": "uint32"
                    },
                    {
                      "internalType": "address",
                      "name": "tokenId",
                      "type": "address"
                    },
                    {
                      "internalType": "bool",
                      "name": "useHbarsForPayment",
                      "type": "bool"
                    },
                    {
                      "internalType": "bool",
                      "name": "useCurrentTokenForPayment",
                      "type": "bool"
                    },
                    {
                      "internalType": "address",
                      "name": "feeCollector",
                      "type": "address"
                    }
                  ],
                  "internalType": "struct IHederaTokenService.FixedFee[]",
                  "name": "fixedFees",
                  "type": "tuple[]"
                },
                {
                  "components": [
                    {
                      "internalType": "uint32",
                      "name": "numerator",
                      "type": "uint32"
                    },
                    {
                      "internalType": "uint32",
                      "name": "denominator",
                      "type": "uint32"
                    },
                    {
                      "internalType": "uint32",
                      "name": "minimumAmount",
                      "type": "uint32"
                    },
                    {
                      "internalType": "uint32",
                      "name": "maximumAmount",
                      "type": "uint32"
                    },
                    {
                      "internalType": "bool",
                      "name": "netOfTransfers",
                      "type": "bool"
                    },
                    {
                      "internalType": "address",
                      "name": "feeCollector",
                      "type": "address"
                    }
                  ],
                  "internalType": "struct IHederaTokenService.FractionalFee[]",
                  "name": "fractionalFees",
                  "type": "tuple[]"
                },
                {
                  "components": [
                    {
                      "internalType": "uint32",
                      "name": "numerator",
                      "type": "uint32"
                    },
                    {
                      "internalType": "uint32",
                      "name": "denominator",
                      "type": "uint32"
                    },
                    {
                      "internalType": "uint32",
                      "name": "amount",
                      "type": "uint32"
                    },
                    {
                      "internalType": "address",
                      "name": "tokenId",
                      "type": "address"
                    },
                    {
                      "internalType": "bool",
                      "name": "useHbarsForPayment",
                      "type": "bool"
                    },
                    {
                      "internalType": "address",
                      "name": "feeCollector",
                      "type": "address"
                    }
                  ],
                  "internalType": "struct IHederaTokenService.RoyaltyFee[]",
                  "name": "royaltyFees",
                  "type": "tuple[]"
                },
                {
                  "internalType": "string",
                  "name": "ledgerId",
                  "type": "string"
                }
              ],
              "internalType": "struct IHederaTokenService.TokenInfo",
              "name": "tokenInfo",
              "type": "tuple"
            },
            {
              "internalType": "uint32",
              "name": "decimals",
              "type": "uint32"
            }
          ],
          "indexed": false,
          "internalType": "struct IHederaTokenService.FungibleTokenInfo",
          "name": "tokenInfo",
          "type": "tuple"
        }
      ],
      "name": "FungibleTokenInfo",
      "type": "event"
    },
    {
      "anonymous": false,
      "inputs": [
        {
          "indexed": false,
          "internalType": "bool",
          "name": "kycGranted",
          "type": "bool"
        }
      ],
      "name": "KycGranted",
      "type": "event"
    },
    {
      "anonymous": false,
      "inputs": [
        {
          "indexed": false,
          "internalType": "uint64",
          "name": "newTotalSupply",
          "type": "uint64"
        },
        {
          "indexed": false,
          "internalType": "int64[]",
          "name": "serialNumbers",
          "type": "int64[]"
        }
      ],
      "name": "MintedToken",
      "type": "event"
    },
    {
      "anonymous": false,
      "inputs": [
        {
          "components": [
            {
              "components": [
                {
                  "components": [
                    {
                      "internalType": "string",
                      "name": "name",
                      "type": "string"
                    },
                    {
                      "internalType": "string",
                      "name": "symbol",
                      "type": "string"
                    },
                    {
                      "internalType": "address",
                      "name": "treasury",
                      "type": "address"
                    },
                    {
                      "internalType": "string",
                      "name": "memo",
                      "type": "string"
                    },
                    {
                      "internalType": "bool",
                      "name": "tokenSupplyType",
                      "type": "bool"
                    },
                    {
                      "internalType": "uint32",
                      "name": "maxSupply",
                      "type": "uint32"
                    },
                    {
                      "internalType": "bool",
                      "name": "freezeDefault",
                      "type": "bool"
                    },
                    {
                      "components": [
                        {
                          "internalType": "uint256",
                          "name": "keyType",
                          "type": "uint256"
                        },
                        {
                          "components": [
                            {
                              "internalType": "bool",
                              "name": "inheritAccountKey",
                              "type": "bool"
                            },
                            {
                              "internalType": "address",
                              "name": "contractId",
                              "type": "address"
                            },
                            {
                              "internalType": "bytes",
                              "name": "ed25519",
                              "type": "bytes"
                            },
                            {
                              "internalType": "bytes",
                              "name": "ECDSA_secp256k1",
                              "type": "bytes"
                            },
                            {
                              "internalType": "address",
                              "name": "delegatableContractId",
                              "type": "address"
                            }
                          ],
                          "internalType": "struct IHederaTokenService.KeyValue",
                          "name": "key",
                          "type": "tuple"
                        }
                      ],
                      "internalType": "struct IHederaTokenService.TokenKey[]",
                      "name": "tokenKeys",
                      "type": "tuple[]"
                    },
                    {
                      "components": [
                        {
                          "internalType": "uint32",
                          "name": "second",
                          "type": "uint32"
                        },
                        {
                          "internalType": "address",
                          "name": "autoRenewAccount",
                          "type": "address"
                        },
                        {
                          "internalType": "uint32",
                          "name": "autoRenewPeriod",
                          "type": "uint32"
                        }
                      ],
                      "internalType": "struct IHederaTokenService.Expiry",
                      "name": "expiry",
                      "type": "tuple"
                    }
                  ],
                  "internalType": "struct IHederaTokenService.HederaToken",
                  "name": "token",
                  "type": "tuple"
                },
                {
                  "internalType": "uint64",
                  "name": "totalSupply",
                  "type": "uint64"
                },
                {
                  "internalType": "bool",
                  "name": "deleted",
                  "type": "bool"
                },
                {
                  "internalType": "bool",
                  "name": "defaultKycStatus",
                  "type": "bool"
                },
                {
                  "internalType": "bool",
                  "name": "pauseStatus",
                  "type": "bool"
                },
                {
                  "components": [
                    {
                      "internalType": "uint32",
                      "name": "amount",
                      "type": "uint32"
                    },
                    {
                      "internalType": "address",
                      "name": "tokenId",
                      "type": "address"
                    },
                    {
                      "internalType": "bool",
                      "name": "useHbarsForPayment",
                      "type": "bool"
                    },
                    {
                      "internalType": "bool",
                      "name": "useCurrentTokenForPayment",
                      "type": "bool"
                    },
                    {
                      "internalType": "address",
                      "name": "feeCollector",
                      "type": "address"
                    }
                  ],
                  "internalType": "struct IHederaTokenService.FixedFee[]",
                  "name": "fixedFees",
                  "type": "tuple[]"
                },
                {
                  "components": [
                    {
                      "internalType": "uint32",
                      "name": "numerator",
                      "type": "uint32"
                    },
                    {
                      "internalType": "uint32",
                      "name": "denominator",
                      "type": "uint32"
                    },
                    {
                      "internalType": "uint32",
                      "name": "minimumAmount",
                      "type": "uint32"
                    },
                    {
                      "internalType": "uint32",
                      "name": "maximumAmount",
                      "type": "uint32"
                    },
                    {
                      "internalType": "bool",
                      "name": "netOfTransfers",
                      "type": "bool"
                    },
                    {
                      "internalType": "address",
                      "name": "feeCollector",
                      "type": "address"
                    }
                  ],
                  "internalType": "struct IHederaTokenService.FractionalFee[]",
                  "name": "fractionalFees",
                  "type": "tuple[]"
                },
                {
                  "components": [
                    {
                      "internalType": "uint32",
                      "name": "numerator",
                      "type": "uint32"
                    },
                    {
                      "internalType": "uint32",
                      "name": "denominator",
                      "type": "uint32"
                    },
                    {
                      "internalType": "uint32",
                      "name": "amount",
                      "type": "uint32"
                    },
                    {
                      "internalType": "address",
                      "name": "tokenId",
                      "type": "address"
                    },
                    {
                      "internalType": "bool",
                      "name": "useHbarsForPayment",
                      "type": "bool"
                    },
                    {
                      "internalType": "address",
                      "name": "feeCollector",
                      "type": "address"
                    }
                  ],
                  "internalType": "struct IHederaTokenService.RoyaltyFee[]",
                  "name": "royaltyFees",
                  "type": "tuple[]"
                },
                {
                  "internalType": "string",
                  "name": "ledgerId",
                  "type": "string"
                }
              ],
              "internalType": "struct IHederaTokenService.TokenInfo",
              "name": "tokenInfo",
              "type": "tuple"
            },
            {
              "internalType": "int64",
              "name": "serialNumber",
              "type": "int64"
            },
            {
              "internalType": "address",
              "name": "ownerId",
              "type": "address"
            },
            {
              "internalType": "int64",
              "name": "creationTime",
              "type": "int64"
            },
            {
              "internalType": "bytes",
              "name": "metadata",
              "type": "bytes"
            },
            {
              "internalType": "address",
              "name": "spenderId",
              "type": "address"
            }
          ],
          "indexed": false,
          "internalType": "struct IHederaTokenService.NonFungibleTokenInfo",
          "name": "tokenInfo",
          "type": "tuple"
        }
      ],
      "name": "NonFungibleTokenInfo",
      "type": "event"
    },
    {
      "anonymous": false,
      "inputs": [
        {
          "indexed": false,
          "internalType": "bool",
          "name": "paused",
          "type": "bool"
        }
      ],
      "name": "PausedToken",
      "type": "event"
    },
    {
      "anonymous": false,
      "inputs": [
        {
          "indexed": false,
          "internalType": "int256",
          "name": "responseCode",
          "type": "int256"
        }
      ],
      "name": "ResponseCode",
      "type": "event"
    },
    {
      "anonymous": false,
      "inputs": [
        {
          "components": [
            {
              "internalType": "uint32",
              "name": "amount",
              "type": "uint32"
            },
            {
              "internalType": "address",
              "name": "tokenId",
              "type": "address"
            },
            {
              "internalType": "bool",
              "name": "useHbarsForPayment",
              "type": "bool"
            },
            {
              "internalType": "bool",
              "name": "useCurrentTokenForPayment",
              "type": "bool"
            },
            {
              "internalType": "address",
              "name": "feeCollector",
              "type": "address"
            }
          ],
          "indexed": false,
          "internalType": "struct IHederaTokenService.FixedFee[]",
          "name": "fixedFees",
          "type": "tuple[]"
        },
        {
          "components": [
            {
              "internalType": "uint32",
              "name": "numerator",
              "type": "uint32"
            },
            {
              "internalType": "uint32",
              "name": "denominator",
              "type": "uint32"
            },
            {
              "internalType": "uint32",
              "name": "minimumAmount",
              "type": "uint32"
            },
            {
              "internalType": "uint32",
              "name": "maximumAmount",
              "type": "uint32"
            },
            {
              "internalType": "bool",
              "name": "netOfTransfers",
              "type": "bool"
            },
            {
              "internalType": "address",
              "name": "feeCollector",
              "type": "address"
            }
          ],
          "indexed": false,
          "internalType": "struct IHederaTokenService.FractionalFee[]",
          "name": "fractionalFees",
          "type": "tuple[]"
        },
        {
          "components": [
            {
              "internalType": "uint32",
              "name": "numerator",
              "type": "uint32"
            },
            {
              "internalType": "uint32",
              "name": "denominator",
              "type": "uint32"
            },
            {
              "internalType": "uint32",
              "name": "amount",
              "type": "uint32"
            },
            {
              "internalType": "address",
              "name": "tokenId",
              "type": "address"
            },
            {
              "internalType": "bool",
              "name": "useHbarsForPayment",
              "type": "bool"
            },
            {
              "internalType": "address",
              "name": "feeCollector",
              "type": "address"
            }
          ],
          "indexed": false,
          "internalType": "struct IHederaTokenService.RoyaltyFee[]",
          "name": "royaltyFees",
          "type": "tuple[]"
        }
      ],
      "name": "TokenCustomFees",
      "type": "event"
    },
    {
      "anonymous": false,
      "inputs": [
        {
          "indexed": false,
          "internalType": "bool",
          "name": "defaultFreezeStatus",
          "type": "bool"
        }
      ],
      "name": "TokenDefaultFreezeStatus",
      "type": "event"
    },
    {
      "anonymous": false,
      "inputs": [
        {
          "indexed": false,
          "internalType": "bool",
          "name": "defaultKycStatus",
          "type": "bool"
        }
      ],
      "name": "TokenDefaultKycStatus",
      "type": "event"
    },
    {
      "anonymous": false,
      "inputs": [
        {
          "components": [
            {
              "internalType": "uint32",
              "name": "second",
              "type": "uint32"
            },
            {
              "internalType": "address",
              "name": "autoRenewAccount",
              "type": "address"
            },
            {
              "internalType": "uint32",
              "name": "autoRenewPeriod",
              "type": "uint32"
            }
          ],
          "indexed": false,
          "internalType": "struct IHederaTokenService.Expiry",
          "name": "expiryInfo",
          "type": "tuple"
        }
      ],
      "name": "TokenExpiryInfo",
      "type": "event"
    },
    {
      "anonymous": false,
      "inputs": [
        {
          "components": [
            {
              "components": [
                {
                  "internalType": "string",
                  "name": "name",
                  "type": "string"
                },
                {
                  "internalType": "string",
                  "name": "symbol",
                  "type": "string"
                },
                {
                  "internalType": "address",
                  "name": "treasury",
                  "type": "address"
                },
                {
                  "internalType": "string",
                  "name": "memo",
                  "type": "string"
                },
                {
                  "internalType": "bool",
                  "name": "tokenSupplyType",
                  "type": "bool"
                },
                {
                  "internalType": "uint32",
                  "name": "maxSupply",
                  "type": "uint32"
                },
                {
                  "internalType": "bool",
                  "name": "freezeDefault",
                  "type": "bool"
                },
                {
                  "components": [
                    {
                      "internalType": "uint256",
                      "name": "keyType",
                      "type": "uint256"
                    },
                    {
                      "components": [
                        {
                          "internalType": "bool",
                          "name": "inheritAccountKey",
                          "type": "bool"
                        },
                        {
                          "internalType": "address",
                          "name": "contractId",
                          "type": "address"
                        },
                        {
                          "internalType": "bytes",
                          "name": "ed25519",
                          "type": "bytes"
                        },
                        {
                          "internalType": "bytes",
                          "name": "ECDSA_secp256k1",
                          "type": "bytes"
                        },
                        {
                          "internalType": "address",
                          "name": "delegatableContractId",
                          "type": "address"
                        }
                      ],
                      "internalType": "struct IHederaTokenService.KeyValue",
                      "name": "key",
                      "type": "tuple"
                    }
                  ],
                  "internalType": "struct IHederaTokenService.TokenKey[]",
                  "name": "tokenKeys",
                  "type": "tuple[]"
                },
                {
                  "components": [
                    {
                      "internalType": "uint32",
                      "name": "second",
                      "type": "uint32"
                    },
                    {
                      "internalType": "address",
                      "name": "autoRenewAccount",
                      "type": "address"
                    },
                    {
                      "internalType": "uint32",
                      "name": "autoRenewPeriod",
                      "type": "uint32"
                    }
                  ],
                  "internalType": "struct IHederaTokenService.Expiry",
                  "name": "expiry",
                  "type": "tuple"
                }
              ],
              "internalType": "struct IHederaTokenService.HederaToken",
              "name": "token",
              "type": "tuple"
            },
            {
              "internalType": "uint64",
              "name": "totalSupply",
              "type": "uint64"
            },
            {
              "internalType": "bool",
              "name": "deleted",
              "type": "bool"
            },
            {
              "internalType": "bool",
              "name": "defaultKycStatus",
              "type": "bool"
            },
            {
              "internalType": "bool",
              "name": "pauseStatus",
              "type": "bool"
            },
            {
              "components": [
                {
                  "internalType": "uint32",
                  "name": "amount",
                  "type": "uint32"
                },
                {
                  "internalType": "address",
                  "name": "tokenId",
                  "type": "address"
                },
                {
                  "internalType": "bool",
                  "name": "useHbarsForPayment",
                  "type": "bool"
                },
                {
                  "internalType": "bool",
                  "name": "useCurrentTokenForPayment",
                  "type": "bool"
                },
                {
                  "internalType": "address",
                  "name": "feeCollector",
                  "type": "address"
                }
              ],
              "internalType": "struct IHederaTokenService.FixedFee[]",
              "name": "fixedFees",
              "type": "tuple[]"
            },
            {
              "components": [
                {
                  "internalType": "uint32",
                  "name": "numerator",
                  "type": "uint32"
                },
                {
                  "internalType": "uint32",
                  "name": "denominator",
                  "type": "uint32"
                },
                {
                  "internalType": "uint32",
                  "name": "minimumAmount",
                  "type": "uint32"
                },
                {
                  "internalType": "uint32",
                  "name": "maximumAmount",
                  "type": "uint32"
                },
                {
                  "internalType": "bool",
                  "name": "netOfTransfers",
                  "type": "bool"
                },
                {
                  "internalType": "address",
                  "name": "feeCollector",
                  "type": "address"
                }
              ],
              "internalType": "struct IHederaTokenService.FractionalFee[]",
              "name": "fractionalFees",
              "type": "tuple[]"
            },
            {
              "components": [
                {
                  "internalType": "uint32",
                  "name": "numerator",
                  "type": "uint32"
                },
                {
                  "internalType": "uint32",
                  "name": "denominator",
                  "type": "uint32"
                },
                {
                  "internalType": "uint32",
                  "name": "amount",
                  "type": "uint32"
                },
                {
                  "internalType": "address",
                  "name": "tokenId",
                  "type": "address"
                },
                {
                  "internalType": "bool",
                  "name": "useHbarsForPayment",
                  "type": "bool"
                },
                {
                  "internalType": "address",
                  "name": "feeCollector",
                  "type": "address"
                }
              ],
              "internalType": "struct IHederaTokenService.RoyaltyFee[]",
              "name": "royaltyFees",
              "type": "tuple[]"
            },
            {
              "internalType": "string",
              "name": "ledgerId",
              "type": "string"
            }
          ],
          "indexed": false,
          "internalType": "struct IHederaTokenService.TokenInfo",
          "name": "tokenInfo",
          "type": "tuple"
        }
      ],
      "name": "TokenInfo",
      "type": "event"
    },
    {
      "anonymous": false,
      "inputs": [
        {
          "components": [
            {
              "internalType": "bool",
              "name": "inheritAccountKey",
              "type": "bool"
            },
            {
              "internalType": "address",
              "name": "contractId",
              "type": "address"
            },
            {
              "internalType": "bytes",
              "name": "ed25519",
              "type": "bytes"
            },
            {
              "internalType": "bytes",
              "name": "ECDSA_secp256k1",
              "type": "bytes"
            },
            {
              "internalType": "address",
              "name": "delegatableContractId",
              "type": "address"
            }
          ],
          "indexed": false,
          "internalType": "struct IHederaTokenService.KeyValue",
          "name": "key",
          "type": "tuple"
        }
      ],
      "name": "TokenKey",
      "type": "event"
    },
    {
      "anonymous": false,
      "inputs": [
        {
          "indexed": false,
          "internalType": "bool",
          "name": "unpaused",
          "type": "bool"
        }
      ],
      "name": "UnpausedToken",
      "type": "event"
    },
    {
      "inputs": [
        {
          "internalType": "address",
          "name": "token",
          "type": "address"
        },
        {
          "internalType": "address",
          "name": "owner",
          "type": "address"
        },
        {
          "internalType": "address",
          "name": "spender",
          "type": "address"
        }
      ],
      "name": "allowancePublic",
      "outputs": [
        {
          "internalType": "int256",
          "name": "responseCode",
          "type": "int256"
        },
        {
          "internalType": "uint256",
          "name": "amount",
          "type": "uint256"
        }
      ],
      "stateMutability": "nonpayable",
      "type": "function"
    },
    {
      "inputs": [
        {
          "internalType": "address",
          "name": "token",
          "type": "address"
        },
        {
          "internalType": "address",
          "name": "spender",
          "type": "address"
        },
        {
          "internalType": "uint256",
          "name": "amount",
          "type": "uint256"
        }
      ],
      "name": "approvePublic",
      "outputs": [
        {
          "internalType": "int256",
          "name": "responseCode",
          "type": "int256"
        }
      ],
      "stateMutability": "nonpayable",
      "type": "function"
    },
    {
      "inputs": [
        {
          "internalType": "address",
          "name": "account",
          "type": "address"
        },
        {
          "internalType": "address",
          "name": "token",
          "type": "address"
        }
      ],
      "name": "associateTokenPublic",
      "outputs": [
        {
          "internalType": "int256",
          "name": "responseCode",
          "type": "int256"
        }
      ],
      "stateMutability": "nonpayable",
      "type": "function"
    },
    {
      "inputs": [
        {
          "internalType": "address",
          "name": "treasury",
          "type": "address"
        }
      ],
      "name": "createFungibleTokenPublic",
      "outputs": [],
      "stateMutability": "payable",
      "type": "function"
    },
    {
      "inputs": [
        {
          "internalType": "address",
          "name": "treasury",
          "type": "address"
        },
        {
          "internalType": "address",
          "name": "fixedFeeTokenAddress",
          "type": "address"
        }
      ],
      "name": "createFungibleTokenWithCustomFeesPublic",
      "outputs": [],
      "stateMutability": "payable",
      "type": "function"
    },
    {
      "inputs": [
        {
          "internalType": "address",
          "name": "treasury",
          "type": "address"
        }
      ],
      "name": "createNonFungibleTokenPublic",
      "outputs": [],
      "stateMutability": "payable",
      "type": "function"
    },
    {
      "inputs": [
        {
          "components": [
            {
              "internalType": "address",
              "name": "token",
              "type": "address"
            },
            {
              "components": [
                {
                  "internalType": "address",
                  "name": "accountID",
                  "type": "address"
                },
                {
                  "internalType": "int64",
                  "name": "amount",
                  "type": "int64"
                }
              ],
              "internalType": "struct IHederaTokenService.AccountAmount[]",
              "name": "transfers",
              "type": "tuple[]"
            },
            {
              "components": [
                {
                  "internalType": "address",
                  "name": "senderAccountID",
                  "type": "address"
                },
                {
                  "internalType": "address",
                  "name": "receiverAccountID",
                  "type": "address"
                },
                {
                  "internalType": "int64",
                  "name": "serialNumber",
                  "type": "int64"
                }
              ],
              "internalType": "struct IHederaTokenService.NftTransfer[]",
              "name": "nftTransfers",
              "type": "tuple[]"
            }
          ],
          "internalType": "struct IHederaTokenService.TokenTransferList[]",
          "name": "tokenTransferList",
          "type": "tuple[]"
        }
      ],
      "name": "cryptoTransferPublic",
      "outputs": [
        {
          "internalType": "int256",
          "name": "responseCode",
          "type": "int256"
        }
      ],
      "stateMutability": "nonpayable",
      "type": "function"
    },
    {
      "inputs": [
        {
          "internalType": "address",
          "name": "account",
          "type": "address"
        },
        {
          "internalType": "address",
          "name": "token",
          "type": "address"
        },
        {
          "internalType": "int64",
          "name": "amount",
          "type": "int64"
        }
      ],
      "name": "cryptoTransferTokenPublic",
      "outputs": [
        {
          "internalType": "int256",
          "name": "responseCode",
          "type": "int256"
        }
      ],
      "stateMutability": "nonpayable",
      "type": "function"
    },
    {
      "inputs": [
        {
          "internalType": "address",
          "name": "token",
          "type": "address"
        }
      ],
      "name": "deleteTokenPublic",
      "outputs": [
        {
          "internalType": "int256",
          "name": "responseCode",
          "type": "int256"
        }
      ],
      "stateMutability": "nonpayable",
      "type": "function"
    },
    {
      "inputs": [
        {
          "internalType": "address",
          "name": "token",
          "type": "address"
        },
        {
          "internalType": "address",
          "name": "account",
          "type": "address"
        }
      ],
      "name": "freezeTokenPublic",
      "outputs": [
        {
          "internalType": "int256",
          "name": "responseCode",
          "type": "int256"
        }
      ],
      "stateMutability": "nonpayable",
      "type": "function"
    },
    {
      "inputs": [
        {
          "internalType": "address",
          "name": "token",
          "type": "address"
        },
        {
          "internalType": "uint256",
          "name": "serialNumber",
          "type": "uint256"
        }
      ],
      "name": "getApprovedPublic",
      "outputs": [
        {
          "internalType": "int256",
          "name": "responseCode",
          "type": "int256"
        },
        {
          "internalType": "address",
          "name": "approved",
          "type": "address"
        }
      ],
      "stateMutability": "nonpayable",
      "type": "function"
    },
    {
      "inputs": [
        {
          "internalType": "address",
          "name": "token",
          "type": "address"
        }
      ],
      "name": "getFungibleTokenInfoPublic",
      "outputs": [
        {
          "internalType": "int256",
          "name": "responseCode",
          "type": "int256"
        },
        {
          "components": [
            {
              "components": [
                {
                  "components": [
                    {
                      "internalType": "string",
                      "name": "name",
                      "type": "string"
                    },
                    {
                      "internalType": "string",
                      "name": "symbol",
                      "type": "string"
                    },
                    {
                      "internalType": "address",
                      "name": "treasury",
                      "type": "address"
                    },
                    {
                      "internalType": "string",
                      "name": "memo",
                      "type": "string"
                    },
                    {
                      "internalType": "bool",
                      "name": "tokenSupplyType",
                      "type": "bool"
                    },
                    {
                      "internalType": "uint32",
                      "name": "maxSupply",
                      "type": "uint32"
                    },
                    {
                      "internalType": "bool",
                      "name": "freezeDefault",
                      "type": "bool"
                    },
                    {
                      "components": [
                        {
                          "internalType": "uint256",
                          "name": "keyType",
                          "type": "uint256"
                        },
                        {
                          "components": [
                            {
                              "internalType": "bool",
                              "name": "inheritAccountKey",
                              "type": "bool"
                            },
                            {
                              "internalType": "address",
                              "name": "contractId",
                              "type": "address"
                            },
                            {
                              "internalType": "bytes",
                              "name": "ed25519",
                              "type": "bytes"
                            },
                            {
                              "internalType": "bytes",
                              "name": "ECDSA_secp256k1",
                              "type": "bytes"
                            },
                            {
                              "internalType": "address",
                              "name": "delegatableContractId",
                              "type": "address"
                            }
                          ],
                          "internalType": "struct IHederaTokenService.KeyValue",
                          "name": "key",
                          "type": "tuple"
                        }
                      ],
                      "internalType": "struct IHederaTokenService.TokenKey[]",
                      "name": "tokenKeys",
                      "type": "tuple[]"
                    },
                    {
                      "components": [
                        {
                          "internalType": "uint32",
                          "name": "second",
                          "type": "uint32"
                        },
                        {
                          "internalType": "address",
                          "name": "autoRenewAccount",
                          "type": "address"
                        },
                        {
                          "internalType": "uint32",
                          "name": "autoRenewPeriod",
                          "type": "uint32"
                        }
                      ],
                      "internalType": "struct IHederaTokenService.Expiry",
                      "name": "expiry",
                      "type": "tuple"
                    }
                  ],
                  "internalType": "struct IHederaTokenService.HederaToken",
                  "name": "token",
                  "type": "tuple"
                },
                {
                  "internalType": "uint64",
                  "name": "totalSupply",
                  "type": "uint64"
                },
                {
                  "internalType": "bool",
                  "name": "deleted",
                  "type": "bool"
                },
                {
                  "internalType": "bool",
                  "name": "defaultKycStatus",
                  "type": "bool"
                },
                {
                  "internalType": "bool",
                  "name": "pauseStatus",
                  "type": "bool"
                },
                {
                  "components": [
                    {
                      "internalType": "uint32",
                      "name": "amount",
                      "type": "uint32"
                    },
                    {
                      "internalType": "address",
                      "name": "tokenId",
                      "type": "address"
                    },
                    {
                      "internalType": "bool",
                      "name": "useHbarsForPayment",
                      "type": "bool"
                    },
                    {
                      "internalType": "bool",
                      "name": "useCurrentTokenForPayment",
                      "type": "bool"
                    },
                    {
                      "internalType": "address",
                      "name": "feeCollector",
                      "type": "address"
                    }
                  ],
                  "internalType": "struct IHederaTokenService.FixedFee[]",
                  "name": "fixedFees",
                  "type": "tuple[]"
                },
                {
                  "components": [
                    {
                      "internalType": "uint32",
                      "name": "numerator",
                      "type": "uint32"
                    },
                    {
                      "internalType": "uint32",
                      "name": "denominator",
                      "type": "uint32"
                    },
                    {
                      "internalType": "uint32",
                      "name": "minimumAmount",
                      "type": "uint32"
                    },
                    {
                      "internalType": "uint32",
                      "name": "maximumAmount",
                      "type": "uint32"
                    },
                    {
                      "internalType": "bool",
                      "name": "netOfTransfers",
                      "type": "bool"
                    },
                    {
                      "internalType": "address",
                      "name": "feeCollector",
                      "type": "address"
                    }
                  ],
                  "internalType": "struct IHederaTokenService.FractionalFee[]",
                  "name": "fractionalFees",
                  "type": "tuple[]"
                },
                {
                  "components": [
                    {
                      "internalType": "uint32",
                      "name": "numerator",
                      "type": "uint32"
                    },
                    {
                      "internalType": "uint32",
                      "name": "denominator",
                      "type": "uint32"
                    },
                    {
                      "internalType": "uint32",
                      "name": "amount",
                      "type": "uint32"
                    },
                    {
                      "internalType": "address",
                      "name": "tokenId",
                      "type": "address"
                    },
                    {
                      "internalType": "bool",
                      "name": "useHbarsForPayment",
                      "type": "bool"
                    },
                    {
                      "internalType": "address",
                      "name": "feeCollector",
                      "type": "address"
                    }
                  ],
                  "internalType": "struct IHederaTokenService.RoyaltyFee[]",
                  "name": "royaltyFees",
                  "type": "tuple[]"
                },
                {
                  "internalType": "string",
                  "name": "ledgerId",
                  "type": "string"
                }
              ],
              "internalType": "struct IHederaTokenService.TokenInfo",
              "name": "tokenInfo",
              "type": "tuple"
            },
            {
              "internalType": "uint32",
              "name": "decimals",
              "type": "uint32"
            }
          ],
          "internalType": "struct IHederaTokenService.FungibleTokenInfo",
          "name": "tokenInfo",
          "type": "tuple"
        }
      ],
      "stateMutability": "nonpayable",
      "type": "function"
    },
    {
      "inputs": [
        {
          "internalType": "address",
          "name": "token",
          "type": "address"
        },
        {
          "internalType": "int64",
          "name": "serialNumber",
          "type": "int64"
        }
      ],
      "name": "getNonFungibleTokenInfoPublic",
      "outputs": [
        {
          "internalType": "int256",
          "name": "responseCode",
          "type": "int256"
        },
        {
          "components": [
            {
              "components": [
                {
                  "components": [
                    {
                      "internalType": "string",
                      "name": "name",
                      "type": "string"
                    },
                    {
                      "internalType": "string",
                      "name": "symbol",
                      "type": "string"
                    },
                    {
                      "internalType": "address",
                      "name": "treasury",
                      "type": "address"
                    },
                    {
                      "internalType": "string",
                      "name": "memo",
                      "type": "string"
                    },
                    {
                      "internalType": "bool",
                      "name": "tokenSupplyType",
                      "type": "bool"
                    },
                    {
                      "internalType": "uint32",
                      "name": "maxSupply",
                      "type": "uint32"
                    },
                    {
                      "internalType": "bool",
                      "name": "freezeDefault",
                      "type": "bool"
                    },
                    {
                      "components": [
                        {
                          "internalType": "uint256",
                          "name": "keyType",
                          "type": "uint256"
                        },
                        {
                          "components": [
                            {
                              "internalType": "bool",
                              "name": "inheritAccountKey",
                              "type": "bool"
                            },
                            {
                              "internalType": "address",
                              "name": "contractId",
                              "type": "address"
                            },
                            {
                              "internalType": "bytes",
                              "name": "ed25519",
                              "type": "bytes"
                            },
                            {
                              "internalType": "bytes",
                              "name": "ECDSA_secp256k1",
                              "type": "bytes"
                            },
                            {
                              "internalType": "address",
                              "name": "delegatableContractId",
                              "type": "address"
                            }
                          ],
                          "internalType": "struct IHederaTokenService.KeyValue",
                          "name": "key",
                          "type": "tuple"
                        }
                      ],
                      "internalType": "struct IHederaTokenService.TokenKey[]",
                      "name": "tokenKeys",
                      "type": "tuple[]"
                    },
                    {
                      "components": [
                        {
                          "internalType": "uint32",
                          "name": "second",
                          "type": "uint32"
                        },
                        {
                          "internalType": "address",
                          "name": "autoRenewAccount",
                          "type": "address"
                        },
                        {
                          "internalType": "uint32",
                          "name": "autoRenewPeriod",
                          "type": "uint32"
                        }
                      ],
                      "internalType": "struct IHederaTokenService.Expiry",
                      "name": "expiry",
                      "type": "tuple"
                    }
                  ],
                  "internalType": "struct IHederaTokenService.HederaToken",
                  "name": "token",
                  "type": "tuple"
                },
                {
                  "internalType": "uint64",
                  "name": "totalSupply",
                  "type": "uint64"
                },
                {
                  "internalType": "bool",
                  "name": "deleted",
                  "type": "bool"
                },
                {
                  "internalType": "bool",
                  "name": "defaultKycStatus",
                  "type": "bool"
                },
                {
                  "internalType": "bool",
                  "name": "pauseStatus",
                  "type": "bool"
                },
                {
                  "components": [
                    {
                      "internalType": "uint32",
                      "name": "amount",
                      "type": "uint32"
                    },
                    {
                      "internalType": "address",
                      "name": "tokenId",
                      "type": "address"
                    },
                    {
                      "internalType": "bool",
                      "name": "useHbarsForPayment",
                      "type": "bool"
                    },
                    {
                      "internalType": "bool",
                      "name": "useCurrentTokenForPayment",
                      "type": "bool"
                    },
                    {
                      "internalType": "address",
                      "name": "feeCollector",
                      "type": "address"
                    }
                  ],
                  "internalType": "struct IHederaTokenService.FixedFee[]",
                  "name": "fixedFees",
                  "type": "tuple[]"
                },
                {
                  "components": [
                    {
                      "internalType": "uint32",
                      "name": "numerator",
                      "type": "uint32"
                    },
                    {
                      "internalType": "uint32",
                      "name": "denominator",
                      "type": "uint32"
                    },
                    {
                      "internalType": "uint32",
                      "name": "minimumAmount",
                      "type": "uint32"
                    },
                    {
                      "internalType": "uint32",
                      "name": "maximumAmount",
                      "type": "uint32"
                    },
                    {
                      "internalType": "bool",
                      "name": "netOfTransfers",
                      "type": "bool"
                    },
                    {
                      "internalType": "address",
                      "name": "feeCollector",
                      "type": "address"
                    }
                  ],
                  "internalType": "struct IHederaTokenService.FractionalFee[]",
                  "name": "fractionalFees",
                  "type": "tuple[]"
                },
                {
                  "components": [
                    {
                      "internalType": "uint32",
                      "name": "numerator",
                      "type": "uint32"
                    },
                    {
                      "internalType": "uint32",
                      "name": "denominator",
                      "type": "uint32"
                    },
                    {
                      "internalType": "uint32",
                      "name": "amount",
                      "type": "uint32"
                    },
                    {
                      "internalType": "address",
                      "name": "tokenId",
                      "type": "address"
                    },
                    {
                      "internalType": "bool",
                      "name": "useHbarsForPayment",
                      "type": "bool"
                    },
                    {
                      "internalType": "address",
                      "name": "feeCollector",
                      "type": "address"
                    }
                  ],
                  "internalType": "struct IHederaTokenService.RoyaltyFee[]",
                  "name": "royaltyFees",
                  "type": "tuple[]"
                },
                {
                  "internalType": "string",
                  "name": "ledgerId",
                  "type": "string"
                }
              ],
              "internalType": "struct IHederaTokenService.TokenInfo",
              "name": "tokenInfo",
              "type": "tuple"
            },
            {
              "internalType": "int64",
              "name": "serialNumber",
              "type": "int64"
            },
            {
              "internalType": "address",
              "name": "ownerId",
              "type": "address"
            },
            {
              "internalType": "int64",
              "name": "creationTime",
              "type": "int64"
            },
            {
              "internalType": "bytes",
              "name": "metadata",
              "type": "bytes"
            },
            {
              "internalType": "address",
              "name": "spenderId",
              "type": "address"
            }
          ],
          "internalType": "struct IHederaTokenService.NonFungibleTokenInfo",
          "name": "tokenInfo",
          "type": "tuple"
        }
      ],
      "stateMutability": "nonpayable",
      "type": "function"
    },
    {
      "inputs": [
        {
          "internalType": "address",
          "name": "token",
          "type": "address"
        }
      ],
      "name": "getTokenCustomFeesPublic",
      "outputs": [
        {
          "internalType": "int64",
          "name": "responseCode",
          "type": "int64"
        },
        {
          "components": [
            {
              "internalType": "uint32",
              "name": "amount",
              "type": "uint32"
            },
            {
              "internalType": "address",
              "name": "tokenId",
              "type": "address"
            },
            {
              "internalType": "bool",
              "name": "useHbarsForPayment",
              "type": "bool"
            },
            {
              "internalType": "bool",
              "name": "useCurrentTokenForPayment",
              "type": "bool"
            },
            {
              "internalType": "address",
              "name": "feeCollector",
              "type": "address"
            }
          ],
          "internalType": "struct IHederaTokenService.FixedFee[]",
          "name": "fixedFees",
          "type": "tuple[]"
        },
        {
          "components": [
            {
              "internalType": "uint32",
              "name": "numerator",
              "type": "uint32"
            },
            {
              "internalType": "uint32",
              "name": "denominator",
              "type": "uint32"
            },
            {
              "internalType": "uint32",
              "name": "minimumAmount",
              "type": "uint32"
            },
            {
              "internalType": "uint32",
              "name": "maximumAmount",
              "type": "uint32"
            },
            {
              "internalType": "bool",
              "name": "netOfTransfers",
              "type": "bool"
            },
            {
              "internalType": "address",
              "name": "feeCollector",
              "type": "address"
            }
          ],
          "internalType": "struct IHederaTokenService.FractionalFee[]",
          "name": "fractionalFees",
          "type": "tuple[]"
        },
        {
          "components": [
            {
              "internalType": "uint32",
              "name": "numerator",
              "type": "uint32"
            },
            {
              "internalType": "uint32",
              "name": "denominator",
              "type": "uint32"
            },
            {
              "internalType": "uint32",
              "name": "amount",
              "type": "uint32"
            },
            {
              "internalType": "address",
              "name": "tokenId",
              "type": "address"
            },
            {
              "internalType": "bool",
              "name": "useHbarsForPayment",
              "type": "bool"
            },
            {
              "internalType": "address",
              "name": "feeCollector",
              "type": "address"
            }
          ],
          "internalType": "struct IHederaTokenService.RoyaltyFee[]",
          "name": "royaltyFees",
          "type": "tuple[]"
        }
      ],
      "stateMutability": "nonpayable",
      "type": "function"
    },
    {
      "inputs": [
        {
          "internalType": "address",
          "name": "token",
          "type": "address"
        }
      ],
      "name": "getTokenDefaultFreezeStatusPublic",
      "outputs": [
        {
          "internalType": "int256",
          "name": "responseCode",
          "type": "int256"
        },
        {
          "internalType": "bool",
          "name": "defaultFreezeStatus",
          "type": "bool"
        }
      ],
      "stateMutability": "nonpayable",
      "type": "function"
    },
    {
      "inputs": [
        {
          "internalType": "address",
          "name": "token",
          "type": "address"
        }
      ],
      "name": "getTokenDefaultKycStatusPublic",
      "outputs": [
        {
          "internalType": "int256",
          "name": "responseCode",
          "type": "int256"
        },
        {
          "internalType": "bool",
          "name": "defaultKycStatus",
          "type": "bool"
        }
      ],
      "stateMutability": "nonpayable",
      "type": "function"
    },
    {
      "inputs": [
        {
          "internalType": "address",
          "name": "token",
          "type": "address"
        }
      ],
      "name": "getTokenExpiryInfo",
      "outputs": [
        {
          "internalType": "int256",
          "name": "responseCode",
          "type": "int256"
        },
        {
          "components": [
            {
              "internalType": "uint32",
              "name": "second",
              "type": "uint32"
            },
            {
              "internalType": "address",
              "name": "autoRenewAccount",
              "type": "address"
            },
            {
              "internalType": "uint32",
              "name": "autoRenewPeriod",
              "type": "uint32"
            }
          ],
          "internalType": "struct IHederaTokenService.Expiry",
          "name": "expiryInfo",
          "type": "tuple"
        }
      ],
      "stateMutability": "nonpayable",
      "type": "function"
    },
    {
      "inputs": [
        {
          "internalType": "address",
          "name": "token",
          "type": "address"
        }
      ],
      "name": "getTokenExpiryInfoPublic",
      "outputs": [
        {
          "internalType": "int256",
          "name": "responseCode",
          "type": "int256"
        },
        {
          "components": [
            {
              "internalType": "uint32",
              "name": "second",
              "type": "uint32"
            },
            {
              "internalType": "address",
              "name": "autoRenewAccount",
              "type": "address"
            },
            {
              "internalType": "uint32",
              "name": "autoRenewPeriod",
              "type": "uint32"
            }
          ],
          "internalType": "struct IHederaTokenService.Expiry",
          "name": "expiryInfo",
          "type": "tuple"
        }
      ],
      "stateMutability": "nonpayable",
      "type": "function"
    },
    {
      "inputs": [
        {
          "internalType": "address",
          "name": "token",
          "type": "address"
        }
      ],
      "name": "getTokenInfoPublic",
      "outputs": [
        {
          "internalType": "int256",
          "name": "responseCode",
          "type": "int256"
        },
        {
          "components": [
            {
              "components": [
                {
                  "internalType": "string",
                  "name": "name",
                  "type": "string"
                },
                {
                  "internalType": "string",
                  "name": "symbol",
                  "type": "string"
                },
                {
                  "internalType": "address",
                  "name": "treasury",
                  "type": "address"
                },
                {
                  "internalType": "string",
                  "name": "memo",
                  "type": "string"
                },
                {
                  "internalType": "bool",
                  "name": "tokenSupplyType",
                  "type": "bool"
                },
                {
                  "internalType": "uint32",
                  "name": "maxSupply",
                  "type": "uint32"
                },
                {
                  "internalType": "bool",
                  "name": "freezeDefault",
                  "type": "bool"
                },
                {
                  "components": [
                    {
                      "internalType": "uint256",
                      "name": "keyType",
                      "type": "uint256"
                    },
                    {
                      "components": [
                        {
                          "internalType": "bool",
                          "name": "inheritAccountKey",
                          "type": "bool"
                        },
                        {
                          "internalType": "address",
                          "name": "contractId",
                          "type": "address"
                        },
                        {
                          "internalType": "bytes",
                          "name": "ed25519",
                          "type": "bytes"
                        },
                        {
                          "internalType": "bytes",
                          "name": "ECDSA_secp256k1",
                          "type": "bytes"
                        },
                        {
                          "internalType": "address",
                          "name": "delegatableContractId",
                          "type": "address"
                        }
                      ],
                      "internalType": "struct IHederaTokenService.KeyValue",
                      "name": "key",
                      "type": "tuple"
                    }
                  ],
                  "internalType": "struct IHederaTokenService.TokenKey[]",
                  "name": "tokenKeys",
                  "type": "tuple[]"
                },
                {
                  "components": [
                    {
                      "internalType": "uint32",
                      "name": "second",
                      "type": "uint32"
                    },
                    {
                      "internalType": "address",
                      "name": "autoRenewAccount",
                      "type": "address"
                    },
                    {
                      "internalType": "uint32",
                      "name": "autoRenewPeriod",
                      "type": "uint32"
                    }
                  ],
                  "internalType": "struct IHederaTokenService.Expiry",
                  "name": "expiry",
                  "type": "tuple"
                }
              ],
              "internalType": "struct IHederaTokenService.HederaToken",
              "name": "token",
              "type": "tuple"
            },
            {
              "internalType": "uint64",
              "name": "totalSupply",
              "type": "uint64"
            },
            {
              "internalType": "bool",
              "name": "deleted",
              "type": "bool"
            },
            {
              "internalType": "bool",
              "name": "defaultKycStatus",
              "type": "bool"
            },
            {
              "internalType": "bool",
              "name": "pauseStatus",
              "type": "bool"
            },
            {
              "components": [
                {
                  "internalType": "uint32",
                  "name": "amount",
                  "type": "uint32"
                },
                {
                  "internalType": "address",
                  "name": "tokenId",
                  "type": "address"
                },
                {
                  "internalType": "bool",
                  "name": "useHbarsForPayment",
                  "type": "bool"
                },
                {
                  "internalType": "bool",
                  "name": "useCurrentTokenForPayment",
                  "type": "bool"
                },
                {
                  "internalType": "address",
                  "name": "feeCollector",
                  "type": "address"
                }
              ],
              "internalType": "struct IHederaTokenService.FixedFee[]",
              "name": "fixedFees",
              "type": "tuple[]"
            },
            {
              "components": [
                {
                  "internalType": "uint32",
                  "name": "numerator",
                  "type": "uint32"
                },
                {
                  "internalType": "uint32",
                  "name": "denominator",
                  "type": "uint32"
                },
                {
                  "internalType": "uint32",
                  "name": "minimumAmount",
                  "type": "uint32"
                },
                {
                  "internalType": "uint32",
                  "name": "maximumAmount",
                  "type": "uint32"
                },
                {
                  "internalType": "bool",
                  "name": "netOfTransfers",
                  "type": "bool"
                },
                {
                  "internalType": "address",
                  "name": "feeCollector",
                  "type": "address"
                }
              ],
              "internalType": "struct IHederaTokenService.FractionalFee[]",
              "name": "fractionalFees",
              "type": "tuple[]"
            },
            {
              "components": [
                {
                  "internalType": "uint32",
                  "name": "numerator",
                  "type": "uint32"
                },
                {
                  "internalType": "uint32",
                  "name": "denominator",
                  "type": "uint32"
                },
                {
                  "internalType": "uint32",
                  "name": "amount",
                  "type": "uint32"
                },
                {
                  "internalType": "address",
                  "name": "tokenId",
                  "type": "address"
                },
                {
                  "internalType": "bool",
                  "name": "useHbarsForPayment",
                  "type": "bool"
                },
                {
                  "internalType": "address",
                  "name": "feeCollector",
                  "type": "address"
                }
              ],
              "internalType": "struct IHederaTokenService.RoyaltyFee[]",
              "name": "royaltyFees",
              "type": "tuple[]"
            },
            {
              "internalType": "string",
              "name": "ledgerId",
              "type": "string"
            }
          ],
          "internalType": "struct IHederaTokenService.TokenInfo",
          "name": "tokenInfo",
          "type": "tuple"
        }
      ],
      "stateMutability": "nonpayable",
      "type": "function"
    },
    {
      "inputs": [
        {
          "internalType": "address",
          "name": "token",
          "type": "address"
        },
        {
          "internalType": "uint256",
          "name": "keyType",
          "type": "uint256"
        }
      ],
      "name": "getTokenKeyPublic",
      "outputs": [
        {
          "internalType": "int64",
          "name": "responseCode",
          "type": "int64"
        },
        {
          "components": [
            {
              "internalType": "bool",
              "name": "inheritAccountKey",
              "type": "bool"
            },
            {
              "internalType": "address",
              "name": "contractId",
              "type": "address"
            },
            {
              "internalType": "bytes",
              "name": "ed25519",
              "type": "bytes"
            },
            {
              "internalType": "bytes",
              "name": "ECDSA_secp256k1",
              "type": "bytes"
            },
            {
              "internalType": "address",
              "name": "delegatableContractId",
              "type": "address"
            }
          ],
          "internalType": "struct IHederaTokenService.KeyValue",
          "name": "key",
          "type": "tuple"
        }
      ],
      "stateMutability": "nonpayable",
      "type": "function"
    },
    {
      "inputs": [
        {
          "internalType": "address",
          "name": "token",
          "type": "address"
        },
        {
          "internalType": "address",
          "name": "account",
          "type": "address"
        }
      ],
      "name": "grantTokenKyc",
      "outputs": [
        {
          "internalType": "int64",
          "name": "responseCode",
          "type": "int64"
        }
      ],
      "stateMutability": "nonpayable",
      "type": "function"
    },
    {
      "inputs": [
        {
          "internalType": "address",
          "name": "token",
          "type": "address"
        },
        {
          "internalType": "address",
          "name": "account",
          "type": "address"
        }
      ],
      "name": "grantTokenKycPublic",
      "outputs": [
        {
          "internalType": "int64",
          "name": "responseCode",
          "type": "int64"
        }
      ],
      "stateMutability": "nonpayable",
      "type": "function"
    },
    {
      "inputs": [
        {
          "internalType": "address",
          "name": "token",
          "type": "address"
        },
        {
          "internalType": "address",
          "name": "owner",
          "type": "address"
        },
        {
          "internalType": "address",
          "name": "operator",
          "type": "address"
        }
      ],
      "name": "isApprovedForAllPublic",
      "outputs": [
        {
          "internalType": "int256",
          "name": "responseCode",
          "type": "int256"
        },
        {
          "internalType": "bool",
          "name": "approved",
          "type": "bool"
        }
      ],
      "stateMutability": "nonpayable",
      "type": "function"
    },
    {
      "inputs": [
        {
          "internalType": "address",
          "name": "token",
          "type": "address"
        },
        {
          "internalType": "address",
          "name": "account",
          "type": "address"
        }
      ],
      "name": "isFrozenPublic",
      "outputs": [
        {
          "internalType": "int256",
          "name": "responseCode",
          "type": "int256"
        },
        {
          "internalType": "bool",
          "name": "frozen",
          "type": "bool"
        }
      ],
      "stateMutability": "nonpayable",
      "type": "function"
    },
    {
      "inputs": [
        {
          "internalType": "address",
          "name": "token",
          "type": "address"
        },
        {
          "internalType": "address",
          "name": "account",
          "type": "address"
        }
      ],
      "name": "isKyc",
      "outputs": [
        {
          "internalType": "int64",
          "name": "responseCode",
          "type": "int64"
        },
        {
          "internalType": "bool",
          "name": "kycGranted",
          "type": "bool"
        }
      ],
      "stateMutability": "nonpayable",
      "type": "function"
    },
    {
      "inputs": [
        {
          "internalType": "address",
          "name": "token",
          "type": "address"
        },
        {
          "internalType": "address",
          "name": "account",
          "type": "address"
        }
      ],
      "name": "isKycPublic",
      "outputs": [
        {
          "internalType": "int64",
          "name": "responseCode",
          "type": "int64"
        },
        {
          "internalType": "bool",
          "name": "kycGranted",
          "type": "bool"
        }
      ],
      "stateMutability": "nonpayable",
      "type": "function"
    },
    {
      "inputs": [
        {
          "internalType": "address",
          "name": "token",
          "type": "address"
        },
        {
          "internalType": "uint64",
          "name": "amount",
          "type": "uint64"
        },
        {
          "internalType": "bytes[]",
          "name": "metadata",
          "type": "bytes[]"
        }
      ],
      "name": "mintTokenPublic",
      "outputs": [
        {
          "internalType": "int256",
          "name": "responseCode",
          "type": "int256"
        },
        {
          "internalType": "uint64",
          "name": "newTotalSupply",
          "type": "uint64"
        },
        {
          "internalType": "int64[]",
          "name": "serialNumbers",
          "type": "int64[]"
        }
      ],
      "stateMutability": "nonpayable",
      "type": "function"
    },
    {
      "inputs": [
        {
          "internalType": "address",
          "name": "token",
          "type": "address"
        }
      ],
      "name": "pauseToken",
      "outputs": [
        {
          "internalType": "int256",
          "name": "responseCode",
          "type": "int256"
        }
      ],
      "stateMutability": "nonpayable",
      "type": "function"
    },
    {
      "inputs": [
        {
          "internalType": "address",
          "name": "token",
          "type": "address"
        }
      ],
      "name": "pauseTokenPublic",
      "outputs": [
        {
          "internalType": "int256",
          "name": "responseCode",
          "type": "int256"
        }
      ],
      "stateMutability": "nonpayable",
      "type": "function"
    },
    {
      "inputs": [
        {
          "internalType": "address",
          "name": "token",
          "type": "address"
        },
        {
          "internalType": "address",
          "name": "account",
          "type": "address"
        }
      ],
      "name": "revokeTokenKyc",
      "outputs": [
        {
          "internalType": "int64",
          "name": "responseCode",
          "type": "int64"
        }
      ],
      "stateMutability": "nonpayable",
      "type": "function"
    },
    {
      "inputs": [
        {
          "internalType": "address",
          "name": "token",
          "type": "address"
        },
        {
          "internalType": "address",
          "name": "account",
          "type": "address"
        }
      ],
      "name": "revokeTokenKycPublic",
      "outputs": [
        {
          "internalType": "int64",
          "name": "responseCode",
          "type": "int64"
        }
      ],
      "stateMutability": "nonpayable",
      "type": "function"
    },
    {
      "inputs": [
        {
          "internalType": "address",
          "name": "token",
          "type": "address"
        },
        {
          "internalType": "address",
          "name": "operator",
          "type": "address"
        },
        {
          "internalType": "bool",
          "name": "approved",
          "type": "bool"
        }
      ],
      "name": "setApprovalForAllPublic",
      "outputs": [
        {
          "internalType": "int256",
          "name": "responseCode",
          "type": "int256"
        }
      ],
      "stateMutability": "nonpayable",
      "type": "function"
    },
    {
      "inputs": [
        {
          "internalType": "bool",
          "name": "newFreezeStatus",
          "type": "bool"
        }
      ],
      "name": "setFreezeDefaultStatus",
      "outputs": [],
      "stateMutability": "nonpayable",
      "type": "function"
    },
    {
      "inputs": [
        {
          "internalType": "address",
          "name": "token",
          "type": "address"
        },
        {
          "internalType": "address",
          "name": "sender",
          "type": "address"
        },
        {
          "internalType": "address",
          "name": "receiver",
          "type": "address"
        },
        {
          "internalType": "int64",
          "name": "serialNumber",
          "type": "int64"
        }
      ],
      "name": "transferNFTPublic",
      "outputs": [
        {
          "internalType": "int256",
          "name": "responseCode",
          "type": "int256"
        }
      ],
      "stateMutability": "nonpayable",
      "type": "function"
    },
    {
      "inputs": [
        {
          "internalType": "address",
          "name": "token",
          "type": "address"
        },
        {
          "internalType": "address",
          "name": "sender",
          "type": "address"
        },
        {
          "internalType": "address",
          "name": "receiver",
          "type": "address"
        },
        {
          "internalType": "int64",
          "name": "amount",
          "type": "int64"
        }
      ],
      "name": "transferTokenPublic",
      "outputs": [
        {
          "internalType": "int256",
          "name": "responseCode",
          "type": "int256"
        }
      ],
      "stateMutability": "nonpayable",
      "type": "function"
    },
    {
      "inputs": [
        {
          "internalType": "address",
          "name": "token",
          "type": "address"
        },
        {
          "internalType": "address",
          "name": "account",
          "type": "address"
        }
      ],
      "name": "unfreezeTokenPublic",
      "outputs": [
        {
          "internalType": "int256",
          "name": "responseCode",
          "type": "int256"
        }
      ],
      "stateMutability": "nonpayable",
      "type": "function"
    },
    {
      "inputs": [
        {
          "internalType": "address",
          "name": "token",
          "type": "address"
        }
      ],
      "name": "unpauseToken",
      "outputs": [
        {
          "internalType": "int256",
          "name": "responseCode",
          "type": "int256"
        }
      ],
      "stateMutability": "nonpayable",
      "type": "function"
    },
    {
      "inputs": [
        {
          "internalType": "address",
          "name": "token",
          "type": "address"
        }
      ],
      "name": "unpauseTokenPublic",
      "outputs": [
        {
          "internalType": "int256",
          "name": "responseCode",
          "type": "int256"
        }
      ],
      "stateMutability": "nonpayable",
      "type": "function"
    },
    {
      "inputs": [
        {
          "internalType": "address",
          "name": "token",
          "type": "address"
        },
        {
          "components": [
            {
              "internalType": "uint32",
              "name": "second",
              "type": "uint32"
            },
            {
              "internalType": "address",
              "name": "autoRenewAccount",
              "type": "address"
            },
            {
              "internalType": "uint32",
              "name": "autoRenewPeriod",
              "type": "uint32"
            }
          ],
          "internalType": "struct IHederaTokenService.Expiry",
          "name": "expiryInfo",
          "type": "tuple"
        }
      ],
      "name": "updateTokenExpiryInfo",
      "outputs": [
        {
          "internalType": "int256",
          "name": "responseCode",
          "type": "int256"
        }
      ],
      "stateMutability": "nonpayable",
      "type": "function"
    },
    {
      "inputs": [
        {
          "internalType": "address",
          "name": "token",
          "type": "address"
        },
        {
          "components": [
            {
              "internalType": "uint32",
              "name": "second",
              "type": "uint32"
            },
            {
              "internalType": "address",
              "name": "autoRenewAccount",
              "type": "address"
            },
            {
              "internalType": "uint32",
              "name": "autoRenewPeriod",
              "type": "uint32"
            }
          ],
          "internalType": "struct IHederaTokenService.Expiry",
          "name": "expiryInfo",
          "type": "tuple"
        }
      ],
      "name": "updateTokenExpiryInfoPublic",
      "outputs": [
        {
          "internalType": "int256",
          "name": "responseCode",
          "type": "int256"
        }
      ],
      "stateMutability": "nonpayable",
      "type": "function"
    },
    {
      "inputs": [
        {
          "internalType": "address",
          "name": "token",
          "type": "address"
        },
        {
          "components": [
            {
              "internalType": "uint256",
              "name": "keyType",
              "type": "uint256"
            },
            {
              "components": [
                {
                  "internalType": "bool",
                  "name": "inheritAccountKey",
                  "type": "bool"
                },
                {
                  "internalType": "address",
                  "name": "contractId",
                  "type": "address"
                },
                {
                  "internalType": "bytes",
                  "name": "ed25519",
                  "type": "bytes"
                },
                {
                  "internalType": "bytes",
                  "name": "ECDSA_secp256k1",
                  "type": "bytes"
                },
                {
                  "internalType": "address",
                  "name": "delegatableContractId",
                  "type": "address"
                }
              ],
              "internalType": "struct IHederaTokenService.KeyValue",
              "name": "key",
              "type": "tuple"
            }
          ],
          "internalType": "struct IHederaTokenService.TokenKey[]",
          "name": "keys",
          "type": "tuple[]"
        }
      ],
      "name": "updateTokenKeysPublic",
      "outputs": [
        {
          "internalType": "int64",
          "name": "responseCode",
          "type": "int64"
        }
      ],
      "stateMutability": "nonpayable",
      "type": "function"
    },
    {
      "inputs": [
        {
          "internalType": "address",
          "name": "token",
          "type": "address"
        },
        {
          "internalType": "address",
          "name": "account",
          "type": "address"
        },
        {
          "internalType": "int64[]",
          "name": "serialNumbers",
          "type": "int64[]"
        }
      ],
      "name": "wipeTokenAccountNFTPublic",
      "outputs": [
        {
          "internalType": "int256",
          "name": "responseCode",
          "type": "int256"
        }
      ],
      "stateMutability": "nonpayable",
      "type": "function"
    },
    {
      "inputs": [
        {
          "internalType": "address",
          "name": "token",
          "type": "address"
        },
        {
          "internalType": "address",
          "name": "account",
          "type": "address"
        },
        {
          "internalType": "uint32",
          "name": "amount",
          "type": "uint32"
        }
      ],
      "name": "wipeTokenAccountPublic",
      "outputs": [
        {
          "internalType": "int256",
          "name": "responseCode",
          "type": "int256"
        }
      ],
      "stateMutability": "nonpayable",
      "type": "function"
    }
  ],
  "bytecode": "0x60c06040526009608081905268746f6b656e4e616d6560b81b60a09081526200002c9160019190620000c3565b5060408051808201909152600b8082526a1d1bdad95b94de5b589bdb60aa1b60209092019182526200006191600291620000c3565b50604080518082019091526004808252636d656d6f60e01b60209092019182526200008f91600391620000c3565b50600480546001600160881b0319166c08000003e800000000000003e8179055348015620000bc57600080fd5b50620001a6565b828054620000d19062000169565b90600052602060002090601f016020900481019282620000f5576000855562000140565b82601f106200011057805160ff191683800117855562000140565b8280016001018555821562000140579182015b828111156200014057825182559160200191906001019062000123565b506200014e92915062000152565b5090565b5b808211156200014e576000815560010162000153565b600181811c908216806200017e57607f821691505b60208210811415620001a057634e487b7160e01b600052602260045260246000fd5b50919050565b615ca380620001b66000396000f3fe60806040526004361061025c5760003560e01c80637d3e5da811610144578063d85f74c1116100b6578063f2f38a741161007a578063f2f38a74146107ba578063f4a01e5b146107e8578063f7be342514610808578063f848fec414610828578063f9e978bd14610848578063fdc8321e1461086857600080fd5b8063d85f74c114610727578063d92ac2481461073a578063eee55ac81461075a578063f25b12001461077a578063f2c31ff41461079a57600080fd5b80639604ca65116101085780639604ca651461063f578063a345f7bd1461065f578063a3ad5b551461067f578063af99c633146106b9578063c0b19b6d146106d9578063d614cdb81461070757600080fd5b80637d3e5da81461059d5780638070905f146105bd57806386f88d88146105ec5780638ba74da01461060c5780638f8d7f991461061f57600080fd5b80634ba67035116101dd5780635a5e6c31116101a15780635a5e6c31146104aa5780635b9076b7146104df57806369837dc21461050f5780636a4dde211461053d5780636da6b1f01461055d5780637c41ad2c1461057d57600080fd5b80634ba67035146103fc5780634cbdb37b1461041c5780634d8f27c91461044a57806356af84031461046a578063593d6e821461048a57600080fd5b80632d73bb2e116102245780632d73bb2e146103675780632eecbca3146103875780633b3bff0f146103a75780633eed2c39146103c75780634b5c6687146103e757600080fd5b80630fd2601e1461026157806313c05dd8146102995780631955de0b146102ce57806319db44b6146102fc5780632b256ec814610339575b600080fd5b34801561026d57600080fd5b5061028161027c3660046143ea565b610888565b60405160079190910b81526020015b60405180910390f35b3480156102a557600080fd5b506102b96102b4366004614422565b610941565b60408051928352901515602083015201610290565b3480156102da57600080fd5b506102ee6102e93660046148d1565b6109bf565b60405161029092919061578e565b34801561030857600080fd5b5061031c6103173660046148d1565b610a4c565b604080519283526001600160a01b03909116602083015201610290565b34801561034557600080fd5b506103596103543660046143ce565b610ac5565b604051908152602001610290565b34801561037357600080fd5b506103596103823660046143ea565b610bb1565b34801561039357600080fd5b506102816103a23660046143ea565b610bf6565b3480156103b357600080fd5b506103596103c23660046143ce565b610c1e565b3480156103d357600080fd5b506102b96103e23660046143ce565b610cf8565b6103fa6103f53660046143ce565b610d72565b005b34801561040857600080fd5b5061035961041736600461446c565b611184565b34801561042857600080fd5b5061043c610437366004614829565b6111d0565b6040516102909291906156e7565b34801561045657600080fd5b50610281610465366004614686565b611246565b34801561047657600080fd5b506103596104853660046144c7565b611252565b34801561049657600080fd5b506103596104a5366004614856565b61129c565b3480156104b657600080fd5b506104ca6104c5366004614422565b611379565b60408051928352602083019190915201610290565b3480156104eb57600080fd5b506104ff6104fa3660046143ce565b6113ea565b6040516102909493929190615741565b34801561051b57600080fd5b5061052f61052a3660046143ce565b61147c565b6040516102909291906156ce565b34801561054957600080fd5b506102b96105583660046143ea565b6114f1565b34801561056957600080fd5b5061035961057836600461446c565b611568565b34801561058957600080fd5b506103596105983660046143ce565b611576565b3480156105a957600080fd5b506103596105b83660046143ea565b6115a4565b3480156105c957600080fd5b506105dd6105d83660046148fc565b6115b0565b60405161029093929190615719565b3480156105f857600080fd5b506102b96106073660046143ce565b611638565b6103fa61061a3660046143ea565b6116a9565b34801561062b57600080fd5b5061028161063a3660046143ea565b611b84565b34801561064b57600080fd5b5061035961065a3660046149d2565b611bb0565b34801561066b57600080fd5b5061035961067a3660046143ce565b611be5565b34801561068b57600080fd5b5061069f61069a3660046143ea565b611c2b565b6040805160079390930b8352901515602083015201610290565b3480156106c557600080fd5b506102816106d43660046143ea565b611d13565b3480156106e557600080fd5b506106f96106f43660046143ce565b611d3f565b6040516102909291906156ba565b34801561071357600080fd5b506106f96107223660046143ce565b611e36565b6103fa6107353660046143ce565b611f45565b34801561074657600080fd5b50610359610755366004614647565b61232e565b34801561076657600080fd5b50610359610775366004614856565b61233b565b34801561078657600080fd5b50610359610795366004614589565b6123b5565b3480156107a657600080fd5b5061069f6107b53660046143ea565b6123c2565b3480156107c657600080fd5b506107da6107d53660046143ce565b612496565b604051610290929190615700565b3480156107f457600080fd5b506103596108033660046143ea565b61250b565b34801561081457600080fd5b506103596108233660046143ce565b612517565b34801561083457600080fd5b50610359610843366004614607565b6125fa565b34801561085457600080fd5b506103fa610863366004614a41565b612607565b34801561087457600080fd5b506103596108833660046145c8565b612662565b604051638f8d7f9960e01b81526000903090638f8d7f99906108b0908690869060040161549d565b602060405180830381600087803b1580156108ca57600080fd5b505af11580156108de573d6000803e3d6000fd5b505050506040513d601f19601f820116820180604052508101906109029190614eaa565b604051600782900b8152909150600080516020615c4e8339815191529060200160405180910390a1600781900b60161461093b57600080fd5b92915050565b60008061094f858585612863565b6040518281529193509150600080516020615c4e8339815191529060200160405180910390a16016821461098257600080fd5b60405181151581527e1c2e72360171244b3bb8cc8ddd767820edf37138ad6f129fb3574b407c307d906020015b60405180910390a1935093915050565b60006109c9613a30565b6109d38484612949565b604051600783900b81529193509150600080516020615c4e8339815191529060200160405180910390a1600782900b601614610a0e57600080fd5b7faed084fbdf29b6ba2242463299d7270f64e0f8ced16013cfff249856bd88715781604051610a3d9190615854565b60405180910390a19250929050565b600080610a598484612a1d565b6040518281529193509150600080516020615c4e8339815191529060200160405180910390a160168214610a8c57600080fd5b6040516001600160a01b03821681527fc2c78c7c31baf14949e75c51df12be56edb9af523cf82839c2869bbcf13b3ecb90602001610a3d565b604051631f106b4b60e21b81526001600160a01b03821660048201526000903090637c41ad2c90602401602060405180830381600087803b158015610b0957600080fd5b505af1158015610b1d573d6000803e3d6000fd5b505050506040513d601f19601f82011682018060405250810190610b419190614a5d565b9050600080516020615c4e83398151915281604051610b6291815260200190565b60405180910390a160168114610b7757600080fd5b604051600181527f0c9c765845f4d139956bb8fc8decb2eec6093c9c608b809641b16054b29f0e13906020015b60405180910390a1919050565b6000610bbd8383612ae4565b60070b9050600080516020615c4e83398151915281604051610be191815260200190565b60405180910390a16016811461093b57600080fd5b60405163af99c63360e01b8152600090309063af99c633906108b0908690869060040161549d565b6040516001600160a01b03821660248201526000908190819061016790633b3bff0f60e01b906044015b60408051601f198184030181529181526020820180516001600160e01b03166001600160e01b0319909416939093179092529051610c869190615481565b6000604051808303816000865af19150503d8060008114610cc3576040519150601f19603f3d011682016040523d82523d6000602084013e610cc8565b606091505b509150915081610cd9576015610ced565b80806020019051810190610ced9190614aa1565b60030b949350505050565b600080610d0483612b10565b6040518281529193509150600080516020615c4e8339815191529060200160405180910390a160168214610d3757600080fd5b60405181151581527f6b7f3306751292f85ab4161ee2b0ac16dfc8ded13e6446ce6bd859d0a2f4c78e906020015b60405180910390a1915091565b60408051600480825260a08201909252600091816020015b610d92613a73565b815260200190600190039081610d8a579050509050610dc560006006600160405180602001604052806000815250612bf4565b81600081518110610de657634e487b7160e01b600052603260045260246000fd5b6020026020010181905250610e0c60018060405180602001604052806000815250612c2b565b81600181518110610e2d57634e487b7160e01b600052603260045260246000fd5b6020026020010181905250610e546002600160405180602001604052806000815250612c2b565b81600281518110610e7557634e487b7160e01b600052603260045260246000fd5b6020026020010181905250610e9c6003600160405180602001604052806000815250612c2b565b81600381518110610ebd57634e487b7160e01b600052603260045260246000fd5b602002602001018190525060006040518060600160405280600063ffffffff168152602001846001600160a01b03168152602001627a120063ffffffff168152509050600060405180610120016040528060018054610f1b90615b6e565b80601f0160208091040260200160405190810160405280929190818152602001828054610f4790615b6e565b8015610f945780601f10610f6957610100808354040283529160200191610f94565b820191906000526020600020905b815481529060010190602001808311610f7757829003601f168201915b5050505050815260200160028054610fab90615b6e565b80601f0160208091040260200160405190810160405280929190818152602001828054610fd790615b6e565b80156110245780601f10610ff957610100808354040283529160200191611024565b820191906000526020600020905b81548152906001019060200180831161100757829003601f168201915b50505050508152602001856001600160a01b031681526020016003805461104a90615b6e565b80601f016020809104026020016040519081016040528092919081815260200182805461107690615b6e565b80156110c35780601f10611098576101008083540402835291602001916110c3565b820191906000526020600020905b8154815290600101906020018083116110a657829003601f168201915b50505091835250506001602082015260045463ffffffff600160401b82048116604084015260ff600160801b830416151560608401526080830187905260a0909201859052919250600091829161112e9185916001600160401b03821691600160601b900416612c60565b90925090506016821461114057600080fd5b6040516001600160a01b03821681527f7bb17726df1f3adee8aa00ba8e8bc5d6f182af3bbf77604639cb7f008dd3b4ed9060200160405180910390a1505050505050565b600061119285858585612d8e565b9050600080516020615c4e833981519152816040516111b391815260200190565b60405180910390a1601681146111c857600080fd5b949350505050565b60006111da613a92565b6111e48484612e85565b6040518281529193509150600080516020615c4e8339815191529060200160405180910390a16016821461121757600080fd5b7fa516f81c528634d0fc1e993bba1d227231b4bd6d1beb72d33b056a6199c0f98881604051610a3d9190615867565b60006109028383612f5f565b600061125f848484612f8b565b9050600080516020615c4e8339815191528160405161128091815260200190565b60405180910390a16016811461129557600080fd5b9392505050565b60008060006101676001600160a01b031663593d6e8260e01b86866040516024016112c8929190615510565b60408051601f198184030181529181526020820180516001600160e01b03166001600160e01b03199094169390931790925290516113069190615481565b6000604051808303816000865af19150503d8060008114611343576040519150601f19603f3d011682016040523d82523d6000602084013e611348565b606091505b50915091508161135957601561136d565b8080602001905181019061136d9190614aa1565b60030b95945050505050565b60008061138785858561306b565b6040518281529193509150600080516020615c4e8339815191529060200160405180910390a1601682146113ba57600080fd5b6040518181527f25b6684a7e8fe1b676e9c39c8dd65034fbafea906d3bdfd97bf748b7b55e14c8906020016109af565b600060608060606113fa8561313e565b604051600785900b815293975091955093509150600080516020615c4e8339815191529060200160405180910390a1600784900b60161461143a57600080fd5b7f2efc8334b040613a552197fe34283d6ca2909c8ffae393e128424931f20c69b383838360405161146d939291906155ae565b60405180910390a19193509193565b6000611486613acd565b61148f83613225565b6040518281529193509150600080516020615c4e8339815191529060200160405180910390a1601682146114c257600080fd5b7f476a9a9b28e2717d55288b2ae3c48a72aac52b11f8bd855017c9d41d9fc1896481604051610d6591906157b8565b6000806114fe84846132f5565b60405160079290920b80835293509150600080516020615c4e8339815191529060200160405180910390a16016821461153657600080fd5b60405181151581527f59800d968fcce138300a0019410b4b75041610d65b3cdc5f31656b03ed14912e90602001610a3d565b600061119285858585613322565b6040516001600160a01b03821660248201526000908190819061016790631f106b4b60e21b90604401610c48565b6000610bbd838361336a565b60008060606115c0868686613396565b6040518381529295509093509150600080516020615c4e8339815191529060200160405180910390a1601683146115f657600080fd5b7feff23992f47b3c101679f8b4dc9d3e242c903909dba4a453f2b2341ad463b0e2828260405161162792919061588d565b60405180910390a193509350939050565b60008061164483613494565b6040518281529193509150600080516020615c4e8339815191529060200160405180910390a16016821461167757600080fd5b60405181151581527f9ee19e13dfa1ba8db2502e15ff56dbecdeb0e0473323fb195473ce648030a2cd90602001610d65565b604080516001808252818301909252600091816020015b6116c8613a73565b8152602001906001900390816116c05790505090506116fa600080600160405180602001604052806000815250612bf4565b8160008151811061171b57634e487b7160e01b600052603260045260246000fd5b602002602001018190525060006040518060600160405280600063ffffffff168152602001856001600160a01b03168152602001627a120063ffffffff16815250905060006040518061012001604052806001805461177990615b6e565b80601f01602080910402602001604051908101604052809291908181526020018280546117a590615b6e565b80156117f25780601f106117c7576101008083540402835291602001916117f2565b820191906000526020600020905b8154815290600101906020018083116117d557829003601f168201915b505050505081526020016002805461180990615b6e565b80601f016020809104026020016040519081016040528092919081815260200182805461183590615b6e565b80156118825780601f1061185757610100808354040283529160200191611882565b820191906000526020600020905b81548152906001019060200180831161186557829003601f168201915b50505050508152602001866001600160a01b03168152602001600380546118a890615b6e565b80601f01602080910402602001604051908101604052809291908181526020018280546118d490615b6e565b80156119215780601f106118f657610100808354040283529160200191611921565b820191906000526020600020905b81548152906001019060200180831161190457829003601f168201915b505050918352505060016020808301829052600454600160401b900463ffffffff166040808501919091526000606085018190526080850189905260a0909401879052805183815280820190915293945091929182015b6040805160a0810182526000808252602080830182905292820181905260608201819052608082015282526000199092019101816119785750506040805160a081018252600181526001600160a01b03888116602083015260009282018390526060820183905289166080820152825192935091839190611a0957634e487b7160e01b600052603260045260246000fd5b6020908102919091010152604080516001808252818301909252600091816020015b6040805160c08101825260008082526020808301829052928201819052606082018190526080820181905260a08201528252600019909201910181611a2b5750506040805160c0810182526004815260056020820152600a91810191909152601e60608201526000608082018190526001600160a01b038a1660a083015282519293509091839190611acd57634e487b7160e01b600052603260045260246000fd5b60209081029190910101526004546000908190611b059086906001600160401b03811690600160601b900463ffffffff1687876134c4565b91509150600080516020615c4e83398151915282604051611b2891815260200190565b60405180910390a160168214611b3d57600080fd5b6040516001600160a01b03821681527f7bb17726df1f3adee8aa00ba8e8bc5d6f182af3bbf77604639cb7f008dd3b4ed9060200160405180910390a1505050505050505050565b60008060006101676001600160a01b0316638f8d7f9960e01b86866040516024016112c892919061549d565b6000611bc4611bbf83856159da565b6135f8565b9050600080516020615c4e83398151915281604051610be191815260200190565b6000611bf082613622565b9050600080516020615c4e83398151915281604051611c1191815260200190565b60405180910390a160168114611c2657600080fd5b919050565b604051633cb0c7fd60e21b81526000908190309063f2c31ff490611c55908790879060040161549d565b6040805180830381600087803b158015611c6e57600080fd5b505af1158015611c82573d6000803e3d6000fd5b505050506040513d601f19601f82011682018060405250810190611ca69190614ec6565b604051600783900b81529193509150600080516020615c4e8339815191529060200160405180910390a1600782900b601614611ce157600080fd5b60405181151581527fd24dda6928587354b65aa1a18c2eaf249bef7e5bafd2a71fac71d286f76f957f90602001610a3d565b60008060006101676001600160a01b031663af99c63360e01b86866040516024016112c892919061549d565b60408051606081018252600080825260208201819052918101829052604051631ac299b760e31b81526001600160a01b0384166004820152309063d614cdb890602401608060405180830381600087803b158015611d9c57600080fd5b505af1158015611db0573d6000803e3d6000fd5b505050506040513d601f19601f82011682018060405250810190611dd49190614a75565b6040518281529193509150600080516020615c4e8339815191529060200160405180910390a160168214611e0757600080fd5b7fa0a16bf9db2c17796faeca5af5aaeef8523f9d4c350c512cb00062ad89604f8881604051610d6591906157aa565b604080516060810182526000808252602080830182905282840182905283516001600160a01b038616602480830191909152855180830390910181526044909101855290810180516001600160e01b0316631ac299b760e31b179052925190928391829161016791611ea89190615481565b6000604051808303816000865af19150503d8060008114611ee5576040519150601f19603f3d011682016040523d82523d6000602084013e611eea565b606091505b5091509150611f12604080516060810182526000808252602082018190529181019190915290565b82611f1f57601581611f33565b81806020019051810190611f339190614ba5565b60039190910b97909650945050505050565b60408051600580825260c08201909252600091816020015b611f65613a73565b815260200190600190039081611f5d579050509050611f9860006006600160405180602001604052806000815250612bf4565b81600081518110611fb957634e487b7160e01b600052603260045260246000fd5b6020026020010181905250611fdf60018060405180602001604052806000815250612c2b565b8160018151811061200057634e487b7160e01b600052603260045260246000fd5b60200260200101819052506120276002600160405180602001604052806000815250612c2b565b8160028151811061204857634e487b7160e01b600052603260045260246000fd5b602002602001018190525061206f6004600160405180602001604052806000815250612c2b565b8160038151811061209057634e487b7160e01b600052603260045260246000fd5b60200260200101819052506120b76003600160405180602001604052806000815250612c2b565b816004815181106120d857634e487b7160e01b600052603260045260246000fd5b602002602001018190525060006040518060600160405280600063ffffffff168152602001846001600160a01b03168152602001627a120063ffffffff16815250905060006040518061012001604052806001805461213690615b6e565b80601f016020809104026020016040519081016040528092919081815260200182805461216290615b6e565b80156121af5780601f10612184576101008083540402835291602001916121af565b820191906000526020600020905b81548152906001019060200180831161219257829003601f168201915b50505050508152602001600280546121c690615b6e565b80601f01602080910402602001604051908101604052809291908181526020018280546121f290615b6e565b801561223f5780601f106122145761010080835404028352916020019161223f565b820191906000526020600020905b81548152906001019060200180831161222257829003601f168201915b50505050508152602001856001600160a01b031681526020016003805461226590615b6e565b80601f016020809104026020016040519081016040528092919081815260200182805461229190615b6e565b80156122de5780601f106122b3576101008083540402835291602001916122de565b820191906000526020600020905b8154815290600101906020018083116122c157829003601f168201915b505050918352505060016020820152600454600160401b810463ffffffff166040830152600160801b900460ff16151560608201526080810185905260a001839052905060008061112e83613650565b600061125f84848461373a565b604051632c9eb74160e11b8152600090309063593d6e82906123639086908690600401615510565b602060405180830381600087803b15801561237d57600080fd5b505af1158015612391573d6000803e3d6000fd5b505050506040513d601f19601f82011682018060405250810190611bc49190614a5d565b600061125f84848461377c565b6000806000806101676001600160a01b031663f2c31ff460e01b87876040516024016123ef92919061549d565b60408051601f198184030181529181526020820180516001600160e01b03166001600160e01b031990941693909317909252905161242d9190615481565b6000604051808303816000865af19150503d806000811461246a576040519150601f19603f3d011682016040523d82523d6000602084013e61246f565b606091505b5091509150816124825760156000611f33565b80806020019051810190611f339190614b7a565b60006124a0613aed565b6124a9836137ba565b6040518281529193509150600080516020615c4e8339815191529060200160405180910390a1601682146124dc57600080fd5b7f528c7dcea75f0c9e110a038e50647cd6a70ac06d331399b77dd9a80f903ebc1681604051610d65919061587a565b6000611bc4838361388a565b604051633b3bff0f60e01b81526001600160a01b03821660048201526000903090633b3bff0f90602401602060405180830381600087803b15801561255b57600080fd5b505af115801561256f573d6000803e3d6000fd5b505050506040513d601f19601f820116820180604052508101906125939190614a5d565b9050600080516020615c4e833981519152816040516125b491815260200190565b60405180910390a1601681146125c957600080fd5b604051600181527f319ab7084208e4afa38c6e6ff7aea9587439f2e4700746f4c7d425fea17426d290602001610ba4565b600061125f8484846138b6565b6004805460ff60801b1916600160801b8315158102919091179182905560405160ff9190920416151581527f457c3a16a0ebdc38e3675609957ca3fcc4490e220bd15d85d34f58e2e145cb089060200160405180910390a150565b604080516000808252602082019092528190816126a7565b604080516060810182526000808252602080830182905292820152825260001990920191018161267a5790505b50905060006040518060400160405280336001600160a01b03168152602001856126d090615ba9565b600790810b9091526040805180820182526001600160a01b038a1681529187900b602083015280516002808252606082019092529293509091600091816020015b6040805180820190915260008082526020820152815260200190600190039081612711579050509050828160008151811061275c57634e487b7160e01b600052603260045260246000fd5b6020026020010181905250818160018151811061278957634e487b7160e01b600052603260045260246000fd5b602090810291909101810191909152604080516060810182526001600160a01b038a16815291820183905281810186905280516001808252818301909252600091816020015b6127fc604051806060016040528060006001600160a01b0316815260200160608152602001606081525090565b8152602001906001900390816127cf579050509050818160008151811061283357634e487b7160e01b600052603260045260246000fd5b6020026020010181905250612847816135f8565b96506016871461285657600080fd5b5050505050509392505050565b604080516001600160a01b0385811660248301528481166044830152831660648083019190915282518083039091018152608490910182526020810180516001600160e01b031663f49f40db60e01b1790529051600091829182918291610167916128cd91615481565b6000604051808303816000865af19150503d806000811461290a576040519150601f19603f3d011682016040523d82523d6000602084013e61290f565b606091505b5091509150816129225760156000612936565b808060200190518101906129369190614b7a565b60039190910b9890975095505050505050565b6000612953613a30565b604080516001600160a01b0386166024820152604480820186905282518083039091018152606490910182526020810180516001600160e01b0316631e26e99760e11b17905290516000918291610167916129ad91615481565b6000604051808303816000865af19150503d80600081146129ea576040519150601f19603f3d011682016040523d82523d6000602084013e6129ef565b606091505b50915091506129fc613a30565b82612a0957601581612936565b818060200190518101906129369190614c60565b604080516001600160a01b0384166024820152604480820184905282518083039091018152606490910182526020810180516001600160e01b03166304c791b360e11b179052905160009182918291829161016791612a7b91615481565b6000604051808303816000865af19150503d8060008114612ab8576040519150601f19603f3d011682016040523d82523d6000602084013e612abd565b606091505b509150915081612ad05760156000611f33565b80806020019051810190611f339190614abb565b60008060006101676001600160a01b03166352f9138760e01b86866040516024016112c892919061549d565b6040516001600160a01b03821660248201526000908190819081906101679063a7daa18d60e01b906044015b60408051601f198184030181529181526020820180516001600160e01b03166001600160e01b0319909416939093179092529051612b7a9190615481565b6000604051808303816000865af19150503d8060008114612bb7576040519150601f19603f3d011682016040523d82523d6000602084013e612bbc565b606091505b509150915081612bcf5760156000612be3565b80806020019051810190612be39190614b7a565b60039190910b969095509350505050565b612bfc613a73565b6040518060400160405280612c1187876138f3565b8152602001612c20858561390c565b905295945050505050565b612c33613a73565b6040518060400160405280612c478661399e565b8152602001612c56858561390c565b9052949350505050565b600080848061010001516000015163ffffffff166000148015612c9057506101008101516040015163ffffffff16155b15612ca6576101008101516276a7006040909101525b6000806101676001600160a01b031634637812a04b60e01b8a8a8a604051602401612cd3939291906157de565b60408051601f198184030181529181526020820180516001600160e01b03166001600160e01b0319909416939093179092529051612d119190615481565b60006040518083038185875af1925050503d8060008114612d4e576040519150601f19603f3d011682016040523d82523d6000602084013e612d53565b606091505b509150915081612d665760156000612d7a565b80806020019051810190612d7a9190614abb565b60039190910b999098509650505050505050565b6040516001600160a01b038581166024830152848116604483015283166064820152600782900b6084820152600090819081906101679063eca3691760e01b9060a4015b60408051601f198184030181529181526020820180516001600160e01b03166001600160e01b0319909416939093179092529051612e109190615481565b6000604051808303816000865af19150503d8060008114612e4d576040519150601f19603f3d011682016040523d82523d6000602084013e612e52565b606091505b509150915081612e63576015612e77565b80806020019051810190612e779190614aa1565b60030b979650505050505050565b6000612e8f613a92565b604080516001600160a01b0386166024820152600785900b60448083019190915282518083039091018152606490910182526020810180516001600160e01b031663050fc3b560e31b1790529051600091829161016791612eef91615481565b6000604051808303816000865af19150503d8060008114612f2c576040519150601f19603f3d011682016040523d82523d6000602084013e612f31565b606091505b5091509150612f3e613a92565b82612f4b57601581612936565b818060200190518101906129369190614cab565b60008060006101676001600160a01b0316636fc3cbaf60e01b86866040516024016112c89291906154ec565b60008060006101676001600160a01b031663f7f38e2660e01b878787604051602401612fb9939291906154b7565b60408051601f198184030181529181526020820180516001600160e01b03166001600160e01b0319909416939093179092529051612ff79190615481565b6000604051808303816000865af19150503d8060008114613034576040519150601f19603f3d011682016040523d82523d6000602084013e613039565b606091505b50915091508161304a57601561305e565b8080602001905181019061305e9190614aa1565b60030b9695505050505050565b604080516001600160a01b0385811660248301528481166044830152831660648083019190915282518083039091018152608490910182526020810180516001600160e01b031663927da10560e01b1790529051600091829182918291610167916130d591615481565b6000604051808303816000865af19150503d8060008114613112576040519150601f19603f3d011682016040523d82523d6000602084013e613117565b606091505b50915091508161312a5760156000612936565b808060200190518101906129369190614dce565b604080516001600160a01b03831660248083019190915282518083039091018152604490910182526020810180516001600160e01b0316630573b08d60e51b179052905160009160609182918291859182916101679161319d91615481565b6000604051808303816000865af19150503d80600081146131da576040519150601f19603f3d011682016040523d82523d6000602084013e6131df565b606091505b50915091506060806060846131f857601583838361320c565b8380602001905181019061320c9190614ae6565b60039390930b9d919c509a509098509650505050505050565b600061322f613acd565b604080516001600160a01b03851660248083019190915282518083039091018152604490910182526020810180516001600160e01b0316633f28a19b60e01b179052905160009182916101679161328591615481565b6000604051808303816000865af19150503d80600081146132c2576040519150601f19603f3d011682016040523d82523d6000602084013e6132c7565b606091505b50915091506132d4613acd565b826132e157601581611f33565b81806020019051810190611f339190614bcf565b6000806000806101676001600160a01b03166346de0fb160e01b87876040516024016123ef92919061549d565b6040516001600160a01b038581166024830152848116604483015283166064820152600782900b60848201526000908190819061016790635cfc901160e01b9060a401612dd2565b60008060006101676001600160a01b0316635b8f858460e01b86866040516024016112c892919061549d565b60008060606000806101676001600160a01b031663278e0b8860e01b8989896040516024016133c79392919061552d565b60408051601f198184030181529181526020820180516001600160e01b03166001600160e01b03199094169390931790925290516134059190615481565b6000604051808303816000865af19150503d8060008114613442576040519150601f19603f3d011682016040523d82523d6000602084013e613447565b606091505b50915091508161346a57604080516000808252602082019092526015919061347e565b8080602001905181019061347e9190614df9565b60039290920b9a90995090975095505050505050565b6040516001600160a01b03821660248201526000908190819081906101679063335e04c160e01b90604401612b3c565b600080868061010001516000015163ffffffff1660001480156134f457506101008101516040015163ffffffff16155b1561350a576101008101516276a7006040909101525b6000806101676001600160a01b031634634c381ae760e01b8c8c8c8c8c60405160240161353b959493929190615803565b60408051601f198184030181529181526020820180516001600160e01b03166001600160e01b03199094169390931790925290516135799190615481565b60006040518083038185875af1925050503d80600081146135b6576040519150601f19603f3d011682016040523d82523d6000602084013e6135bb565b606091505b5091509150816135ce57601560006135e2565b808060200190518101906135e29190614abb565b60039190910b9b909a5098505050505050505050565b60008060006101676001600160a01b031663189a554c60e01b85604051602401610c4891906155e7565b6040516001600160a01b03821660248201526000908190819061016790637834fb8960e11b90604401610c48565b600080828061010001516000015163ffffffff16600014801561368057506101008101516040015163ffffffff16155b15613696576101008101516276a7006040909101525b6000806101676001600160a01b031634639dc711e060e01b886040516024016136bf91906157cb565b60408051601f198184030181529181526020820180516001600160e01b03166001600160e01b03199094169390931790925290516136fd9190615481565b60006040518083038185875af1925050503d8060008114612ab8576040519150601f19603f3d011682016040523d82523d6000602084013e612abd565b6040516001600160a01b0384811660248301528316604482015263ffffffff821660648201526000908190819061016790639790686d60e01b90608401612fb9565b6040516001600160a01b0384811660248301528316604482015281151560648201526000908190819061016790631b3b02e560e11b90608401612fb9565b60006137c4613aed565b604080516001600160a01b03851660248083019190915282518083039091018152604490910182526020810180516001600160e01b0316631f69565f60e01b179052905160009182916101679161381a91615481565b6000604051808303816000865af19150503d8060008114613857576040519150601f19603f3d011682016040523d82523d6000602084013e61385c565b606091505b5091509150613869613aed565b8261387657601581611f33565b81806020019051810190611f339190614d8d565b60008060006101676001600160a01b03166349146bde60e01b86866040516024016112c892919061549d565b6040516001600160a01b0384811660248301528316604482015260648101829052600090819081906101679063e1f21c6760e01b90608401612fb9565b6000600160ff84161b9050600160ff83161b8117611295565b613914613a30565b8260ff1660011415613929576001815261093b565b8260ff166002141561394b576000546001600160a01b0316602082015261093b565b8260ff1660031415613963576040810182905261093b565b8260ff166004141561397b576060810182905261093b565b8260ff166005141561093b576000546001600160a01b0316608082015292915050565b600060ff82166139b057506001919050565b8160ff16600114156139c457506002919050565b8160ff16600214156139d857506004919050565b8160ff16600314156139ec57506008919050565b8160ff1660041415613a0057506010919050565b8160ff1660051415613a1457506020919050565b8160ff1660061415613a2857506040919050565b506000919050565b6040518060a0016040528060001515815260200160006001600160a01b03168152602001606081526020016060815260200160006001600160a01b031681525090565b604051806040016040528060008152602001613a8d613a30565b905290565b6040518060c00160405280613aa5613aed565b8152600060208201819052604082018190526060808301829052608083015260a09091015290565b6040518060400160405280613ae0613aed565b8152600060209091015290565b604051806101200160405280613b01613b4e565b815260200160006001600160401b03168152602001600015158152602001600015158152602001600015158152602001606081526020016060815260200160608152602001606081525090565b604051806101200160405280606081526020016060815260200160006001600160a01b0316815260200160608152602001600015158152602001600063ffffffff16815260200160001515815260200160608152602001613a8d604080516060810182526000808252602082018190529181019190915290565b8035611c2681615bf1565b8051611c2681615bf1565b600082601f830112613bee578081fd5b81516020613c03613bfe83615990565b615960565b8281528181019085830160a080860288018501891015613c21578687fd5b865b86811015613caa5781838b031215613c39578788fd5b613c416158af565b8351613c4c81615c26565b815283870151613c5b81615bf1565b81880152604084810151613c6e81615c09565b90820152606084810151613c8181615c09565b90820152608084810151613c9481615bf1565b9082015285529385019391810191600101613c23565b509198975050505050505050565b600082601f830112613cc8578081fd5b81516020613cd8613bfe83615990565b8281528181019085830160c080860288018501891015613cf6578687fd5b865b86811015613caa5781838b031215613d0e578788fd5b613d166158d7565b8351613d2181615c26565b815283870151613d3081615c26565b81880152604084810151613d4381615c26565b90820152606084810151613d5681615c26565b90820152608084810151613d6981615c09565b9082015260a084810151613d7c81615bf1565b9082015285529385019391810191600101613cf8565b600082601f830112613da2578081fd5b81356020613db2613bfe83615990565b82815281810190858301606080860288018501891015613dd0578687fd5b865b86811015613caa5781838b031215613de8578788fd5b613df06158f9565b8335613dfb81615bf1565b815283870135613e0a81615bf1565b81880152604084810135613e1d81615c17565b9082015285529385019391810191600101613dd2565b600082601f830112613e43578081fd5b81516020613e53613bfe83615990565b8281528181019085830160c080860288018501891015613e71578687fd5b865b86811015613caa5781838b031215613e89578788fd5b613e916158d7565b8351613e9c81615c26565b815283870151613eab81615c26565b81880152604084810151613ebe81615c26565b90820152606084810151613ed181615bf1565b90820152608084810151613ee481615c09565b9082015260a084810151613ef781615bf1565b9082015285529385019391810191600101613e73565b600082601f830112613f1d578081fd5b81516020613f2d613bfe83615990565b80838252828201915082860187848660051b8901011115613f4c578586fd5b855b85811015613fca5781516001600160401b0380821115613f6c578889fd5b908901906040828c03601f1901811315613f8457898afd5b613f8c61591b565b838901518152908301519082821115613fa3578a8bfd5b613fb18d8a848701016141f1565b818a015287525050509284019290840190600101613f4e565b5090979650505050505050565b8051611c2681615c09565b600082601f830112613ff2578081fd5b8135614000613bfe826159b3565b818152846020838601011115614014578283fd5b816020850160208301379081016020019190915292915050565b600082601f83011261403e578081fd5b815161404c613bfe826159b3565b818152846020838601011115614060578283fd5b6111c8826020830160208701615b3e565b8051600381900b8114611c2657600080fd5b8051611c2681615c17565b60006060828403121561409f578081fd5b6140a76158f9565b905081516140b481615c26565b815260208201516140c481615bf1565b602082015260408201516140d781615c26565b604082015292915050565b600061016082840312156140f4578081fd5b6140fc61593d565b905081516001600160401b038082111561411557600080fd5b6141218583860161402e565b8352602084015191508082111561413757600080fd5b6141438583860161402e565b602084015261415460408501613bd3565b6040840152606084015191508082111561416d57600080fd5b6141798583860161402e565b606084015261418a60808501613fd7565b608084015261419b60a085016143b8565b60a08401526141ac60c08501613fd7565b60c084015260e08401519150808211156141c557600080fd5b506141d284828501613f0d565b60e0830152506101006141e78482850161408e565b9082015292915050565b600060a08284031215614202578081fd5b61420a6158af565b9050815161421781615c09565b8152602082015161422781615bf1565b602082015260408201516001600160401b038082111561424657600080fd5b6142528583860161402e565b6040840152606084015191508082111561426b57600080fd5b506142788482850161402e565b60608301525061428a60808301613bd3565b608082015292915050565b600061012082840312156142a7578081fd5b6142af61593d565b905081516001600160401b03808211156142c857600080fd5b6142d4858386016140e2565b83526142e2602085016143c3565b60208401526142f360408501613fd7565b604084015261430460608501613fd7565b606084015261431560808501613fd7565b608084015260a084015191508082111561432e57600080fd5b61433a85838601613bde565b60a084015260c084015191508082111561435357600080fd5b61435f85838601613cb8565b60c084015260e084015191508082111561437857600080fd5b61438485838601613e33565b60e08401526101009150818401518181111561439f57600080fd5b6143ab8682870161402e565b8385015250505092915050565b8051611c2681615c26565b8051611c2681615c38565b6000602082840312156143df578081fd5b813561129581615bf1565b600080604083850312156143fc578081fd5b823561440781615bf1565b9150602083013561441781615bf1565b809150509250929050565b600080600060608486031215614436578081fd5b833561444181615bf1565b9250602084013561445181615bf1565b9150604084013561446181615bf1565b809150509250925092565b60008060008060808587031215614481578182fd5b843561448c81615bf1565b9350602085013561449c81615bf1565b925060408501356144ac81615bf1565b915060608501356144bc81615c17565b939692955090935050565b6000806000606084860312156144db578081fd5b83356144e681615bf1565b92506020848101356144f781615bf1565b925060408501356001600160401b03811115614511578283fd5b8501601f81018713614521578283fd5b803561452f613bfe82615990565b8082825284820191508484018a868560051b870101111561454e578687fd5b8694505b8385101561457957803561456581615c17565b835260019490940193918501918501614552565b5080955050505050509250925092565b60008060006060848603121561459d578081fd5b83356145a881615bf1565b925060208401356145b881615bf1565b9150604084013561446181615c09565b6000806000606084860312156145dc578081fd5b83356145e781615bf1565b925060208401356145f781615bf1565b9150604084013561446181615c17565b60008060006060848603121561461b578081fd5b833561462681615bf1565b9250602084013561463681615bf1565b929592945050506040919091013590565b60008060006060848603121561465b578081fd5b833561466681615bf1565b9250602084013561467681615bf1565b9150604084013561446181615c26565b60008060408385031215614698578182fd5b6146a28335615bf1565b823591506001600160401b0380602085013511156146be578182fd5b6020840135840185601f8201126146d3578283fd5b6146e0613bfe8235615990565b808235825260208201915060208301886020853560051b8601011115614704578586fd5b855b843581101561481a57858235111561471c578687fd5b81358501601f196040828d0382011215614734578889fd5b61473c61591b565b60208301358152886040840135111561475357898afd5b60408301358301925060a082848f0301121561476d57898afd5b6147756158af565b91506147846020840135615c09565b6020830135825261479760408401613bc8565b602083015288606084013511156147ac57898afd5b6147bf8d60206060860135860101613fe2565b604083015288608084013511156147d457898afd5b6147e78d60206080860135860101613fe2565b60608301526147f860a08401613bc8565b6080830152602081810192909252865294850194929092019150600101614706565b50959890975095505050505050565b6000806040838503121561483b578182fd5b823561484681615bf1565b9150602083013561441781615c17565b6000808284036080811215614869578283fd5b833561487481615bf1565b92506060601f1982011215614887578182fd5b506148906158f9565b602084013561489e81615c26565b815260408401356148ae81615bf1565b602082015260608401356148c181615c26565b6040820152919491935090915050565b600080604083850312156148e3578182fd5b82356148ee81615bf1565b946020939093013593505050565b600080600060608486031215614910578081fd5b833561491b81615bf1565b925060208481013561492c81615c38565b925060408501356001600160401b0380821115614947578384fd5b818701915087601f83011261495a578384fd5b8135614968613bfe82615990565b8082825285820191508585018b878560051b8801011115614987578788fd5b875b848110156149c05781358681111561499f57898afd5b6149ad8e8a838b0101613fe2565b8552509287019290870190600101614989565b50508096505050505050509250925092565b600080602083850312156149e4578182fd5b82356001600160401b03808211156149fa578384fd5b818501915085601f830112614a0d578384fd5b813581811115614a1b578485fd5b8660208260051b8501011115614a2f578485fd5b60209290920196919550909350505050565b600060208284031215614a52578081fd5b813561129581615c09565b600060208284031215614a6e578081fd5b5051919050565b60008060808385031215614a87578182fd5b82519150614a98846020850161408e565b90509250929050565b600060208284031215614ab2578081fd5b61129582614071565b60008060408385031215614acd578182fd5b614ad683614071565b9150602083015161441781615bf1565b60008060008060808587031215614afb578182fd5b614b0485614071565b935060208501516001600160401b0380821115614b1f578384fd5b614b2b88838901613bde565b94506040870151915080821115614b40578384fd5b614b4c88838901613cb8565b93506060870151915080821115614b61578283fd5b50614b6e87828801613e33565b91505092959194509250565b60008060408385031215614b8c578182fd5b614b9583614071565b9150602083015161441781615c09565b60008060808385031215614bb7578182fd5b614bc083614071565b9150614a98846020850161408e565b60008060408385031215614be1578182fd5b614bea83614071565b915060208301516001600160401b0380821115614c05578283fd5b9084019060408287031215614c18578283fd5b614c2061591b565b825182811115614c2e578485fd5b614c3a88828601614295565b82525060208301519250614c4d83615c26565b8260208201528093505050509250929050565b60008060408385031215614c72578182fd5b614c7b83614071565b915060208301516001600160401b03811115614c95578182fd5b614ca1858286016141f1565b9150509250929050565b60008060408385031215614cbd578182fd5b614cc683614071565b915060208301516001600160401b0380821115614ce1578283fd5b9084019060c08287031215614cf4578283fd5b614cfc6158d7565b825182811115614d0a578485fd5b614d1688828601614295565b825250614d2560208401614083565b6020820152614d3660408401613bd3565b6040820152614d4760608401614083565b6060820152608083015182811115614d5d578485fd5b614d698882860161402e565b608083015250614d7b60a08401613bd3565b60a08201528093505050509250929050565b60008060408385031215614d9f578182fd5b614da883614071565b915060208301516001600160401b03811115614dc2578182fd5b614ca185828601614295565b60008060408385031215614de0578182fd5b614de983614071565b9150602083015190509250929050565b600080600060608486031215614e0d578081fd5b614e1684614071565b9250602080850151614e2781615c38565b60408601519093506001600160401b03811115614e42578283fd5b8501601f81018713614e52578283fd5b8051614e60613bfe82615990565b8082825284820191508484018a868560051b8701011115614e7f578687fd5b8694505b83851015614579578051614e9681615c17565b835260019490940193918501918501614e83565b600060208284031215614ebb578081fd5b815161129581615c17565b60008060408385031215614ed8578182fd5b8251614ee381615c17565b602084015190925061441781615c09565b6000815180845260208085019450808401835b83811015614f2657815160070b87529582019590820190600101614f07565b509495945050505050565b6000815180845260208085019450808401835b83811015614f26578151805163ffffffff168852838101516001600160a01b03908116858a01526040808301511515908a01526060808301511515908a0152608091820151169088015260a09096019590820190600101614f44565b6000815180845260208085019450808401835b83811015614f26578151805163ffffffff9081168952848201518116858a01526040808301518216908a01526060808301519091169089015260808082015115159089015260a0908101516001600160a01b03169088015260c09096019590820190600101614fb3565b6000815180845260208085019450808401835b83811015614f2657815180516001600160a01b03908116895284820151168489015260409081015160070b9088015260609096019590820190600101615030565b6000815180845260208085019450808401835b83811015614f26578151805163ffffffff9081168952848201518116858a0152604080830151909116908901526060808201516001600160a01b03908116918a01919091526080808301511515908a015260a091820151169088015260c09096019590820190600101615084565b600081518084526020808501808196508360051b81019150828601855b8581101561514d5782840389528151805185528501516040868601819052615139818701836152bf565b9a87019a955050509084019060010161510f565b5091979650505050505050565b60008151808452615172816020860160208601615b3e565b601f01601f19169290920160200192915050565b805163ffffffff90811683526020808301516001600160a01b03169084015260409182015116910152565b60008151604084526151c660408501826153a1565b60209384015163ffffffff16949093019390935250919050565b600061016082518185526151f68286018261515a565b91505060208301518482036020860152615210828261515a565b915050604083015161522d60408601826001600160a01b03169052565b5060608301518482036060860152615245828261515a565b915050608083015161525b608086018215159052565b5060a083015161527360a086018263ffffffff169052565b5060c083015161528760c086018215159052565b5060e083015184820360e086015261529f82826150f2565b915050610100808401516152b582870182615186565b5090949350505050565b8051151582526000602082015160018060a01b0380821660208601526040840151915060a060408601526152f660a086018361515a565b91506060840151858303606087015261530f838261515a565b925050806080850151166080860152508091505092915050565b6000815160c0845261533e60c08501826153a1565b9050602083015160070b6020850152604083015160018060a01b038082166040870152606085015160070b6060870152608085015191508583036080870152615387838361515a565b92508060a08601511660a087015250508091505092915050565b600061012082518185526153b7828601826151e0565b91505060208301516153d460208601826001600160401b03169052565b5060408301516153e8604086018215159052565b5060608301516153fc606086018215159052565b506080830151615410608086018215159052565b5060a083015184820360a08601526154288282614f31565b91505060c083015184820360c08601526154428282614fa0565b91505060e083015184820360e086015261545c8282615071565b9150506101008084015185830382870152615477838261515a565b9695505050505050565b60008251615493818460208701615b3e565b9190910192915050565b6001600160a01b0392831681529116602082015260400190565b6001600160a01b038481168252831660208201526060604082018190526000906154e390830184614ef4565b95945050505050565b6001600160a01b03831681526040602082018190526000906111c8908301846150f2565b6001600160a01b0383168152608081016112956020830184615186565b60006060820160018060a01b038616835260206001600160401b038616818501526060604085015281855180845260808601915060808160051b8701019350828701855b8281101561559f57607f1988870301845261558d86835161515a565b95509284019290840190600101615571565b50939998505050505050505050565b6060815260006155c16060830186614f31565b82810360208401526155d38186614fa0565b905082810360408401526154778185615071565b60006020808301818452808551808352604092508286019150828160051b870101848801865b838110156156ac57888303603f19018552815180516001600160a01b0390811685528882015160608a870181905281519087018190526080870192918b0191908c905b8082101561567e5783518051841686528d015160070b8d860152938b0193928c019260019190910190615650565b50505050908701518482038589015290615698818361501d565b96890196945050509086019060010161560d565b509098975050505050505050565b828152608081016112956020830184615186565b8281526040602082015260006111c860408301846151b1565b8281526040602082015260006111c86040830184615329565b8281526040602082015260006111c860408301846153a1565b8381526001600160401b03831660208201526060604082015260006154e36060830184614ef4565b8460070b815260806020820152600061575d6080830186614f31565b828103604084015261576f8186614fa0565b905082810360608401526157838185615071565b979650505050505050565b8260070b81526040602082015260006111c860408301846152bf565b6060810161093b8284615186565b60208152600061129560208301846151b1565b60208152600061129560208301846151e0565b6060815260006157f160608301866151e0565b60208301949094525060400152919050565b60a08152600061581660a08301886151e0565b86602084015285604084015282810360608401526158348186614f31565b905082810360808401526158488185614fa0565b98975050505050505050565b60208152600061129560208301846152bf565b6020815260006112956020830184615329565b60208152600061129560208301846153a1565b6001600160401b03831681526040602082015260006111c86040830184614ef4565b60405160a081016001600160401b03811182821017156158d1576158d1615bdb565b60405290565b60405160c081016001600160401b03811182821017156158d1576158d1615bdb565b604051606081016001600160401b03811182821017156158d1576158d1615bdb565b604080519081016001600160401b03811182821017156158d1576158d1615bdb565b60405161012081016001600160401b03811182821017156158d1576158d1615bdb565b604051601f8201601f191681016001600160401b038111828210171561598857615988615bdb565b604052919050565b60006001600160401b038211156159a9576159a9615bdb565b5060051b60200190565b60006001600160401b038211156159cc576159cc615bdb565b50601f01601f191660200190565b60006159e8613bfe84615990565b808482526020808301925084368760051b87011115615a05578485fd5b845b87811015615b325781356001600160401b0380821115615a25578788fd5b818901915060608236031215615a39578788fd5b615a416158f9565b8235615a4c81615bf1565b81528286013582811115615a5e57898afd5b830136601f820112615a6e57898afd5b8035615a7c613bfe82615990565b81815288810190838a0136600685901b86018c011115615a9a578d8efd5b8d94505b83851015615aef576040808236031215615ab6578e8ffd5b615abe61591b565b8235615ac981615bf1565b8152828d0135615ad881615c17565b818e0152845260019590950194928b019201615a9e565b50848a01525060409150508381013583811115615b0a578a8bfd5b615b1636828701613d92565b9183019190915250875250509382019390820190600101615a07565b50919695505050505050565b60005b83811015615b59578181015183820152602001615b41565b83811115615b68576000848401525b50505050565b600181811c90821680615b8257607f821691505b60208210811415615ba357634e487b7160e01b600052602260045260246000fd5b50919050565b60008160070b677fffffffffffffff19811415615bd457634e487b7160e01b82526011600452602482fd5b9003919050565b634e487b7160e01b600052604160045260246000fd5b6001600160a01b0381168114615c0657600080fd5b50565b8015158114615c0657600080fd5b8060070b8114615c0657600080fd5b63ffffffff81168114615c0657600080fd5b6001600160401b0381168114615c0657600080fdfe90a5cf4cffe88b4edbb041cfc7a8a812c48a5ec30b84640fb37690875168e3aaa2646970667358221220fdc2d1b2bc947996df5f70ac801e82212126683833e98c44b7b1d432bed47a4364736f6c63430008040033",
  "linkReferences": {},
  "deployedLinkReferences": {}
}