{
  "_format": "hh-sol-artifact-1",
  "contractName": "BaseHTS",
  "sourceName": "contracts/BaseHTS.sol",
  "abi": [
    {
      "anonymous": false,
      "inputs": [
        {
          "indexed": false,
          "internalType": "uint256",
          "name": "amount",
          "type": "uint256"
        }
      ],
      "name": "AllowanceValue",
      "type": "event"
    },
    {
      "anonymous": false,
      "inputs": [
        {
          "indexed": false,
          "internalType": "bool",
          "name": "approved",
          "type": "bool"
        }
      ],
      "name": "Approved",
      "type": "event"
    },
    {
      "anonymous": false,
      "inputs": [
        {
          "indexed": false,
          "internalType": "address",
          "name": "approved",
          "type": "address"
        }
      ],
      "name": "ApprovedAddress",
      "type": "event"
    },
    {
      "anonymous": false,
      "inputs": [
        {
          "indexed": false,
          "internalType": "address",
          "name": "tokenAddress",
          "type": "address"
        }
      ],
      "name": "CreatedToken",
      "type": "event"
    },
    {
      "anonymous": false,
      "inputs": [
        {
          "indexed": false,
          "internalType": "bool",
          "name": "frozen",
          "type": "bool"
        }
      ],
      "name": "Frozen",
      "type": "event"
    },
    {
      "anonymous": false,
      "inputs": [
        {
          "components": [
            {
              "components": [
                {
                  "components": [
                    {
                      "internalType": "string",
                      "name": "name",
                      "type": "string"
                    },
                    {
                      "internalType": "string",
                      "name": "symbol",
                      "type": "string"
                    },
                    {
                      "internalType": "address",
                      "name": "treasury",
                      "type": "address"
                    },
                    {
                      "internalType": "string",
                      "name": "memo",
                      "type": "string"
                    },
                    {
                      "internalType": "bool",
                      "name": "tokenSupplyType",
                      "type": "bool"
                    },
                    {
                      "internalType": "uint32",
                      "name": "maxSupply",
                      "type": "uint32"
                    },
                    {
                      "internalType": "bool",
                      "name": "freezeDefault",
                      "type": "bool"
                    },
                    {
                      "components": [
                        {
                          "internalType": "uint256",
                          "name": "keyType",
                          "type": "uint256"
                        },
                        {
                          "components": [
                            {
                              "internalType": "bool",
                              "name": "inheritAccountKey",
                              "type": "bool"
                            },
                            {
                              "internalType": "address",
                              "name": "contractId",
                              "type": "address"
                            },
                            {
                              "internalType": "bytes",
                              "name": "ed25519",
                              "type": "bytes"
                            },
                            {
                              "internalType": "bytes",
                              "name": "ECDSA_secp256k1",
                              "type": "bytes"
                            },
                            {
                              "internalType": "address",
                              "name": "delegatableContractId",
                              "type": "address"
                            }
                          ],
                          "internalType": "struct IHederaTokenService.KeyValue",
                          "name": "key",
                          "type": "tuple"
                        }
                      ],
                      "internalType": "struct IHederaTokenService.TokenKey[]",
                      "name": "tokenKeys",
                      "type": "tuple[]"
                    },
                    {
                      "components": [
                        {
                          "internalType": "uint32",
                          "name": "second",
                          "type": "uint32"
                        },
                        {
                          "internalType": "address",
                          "name": "autoRenewAccount",
                          "type": "address"
                        },
                        {
                          "internalType": "uint32",
                          "name": "autoRenewPeriod",
                          "type": "uint32"
                        }
                      ],
                      "internalType": "struct IHederaTokenService.Expiry",
                      "name": "expiry",
                      "type": "tuple"
                    }
                  ],
                  "internalType": "struct IHederaTokenService.HederaToken",
                  "name": "token",
                  "type": "tuple"
                },
                {
                  "internalType": "uint64",
                  "name": "totalSupply",
                  "type": "uint64"
                },
                {
                  "internalType": "bool",
                  "name": "deleted",
                  "type": "bool"
                },
                {
                  "internalType": "bool",
                  "name": "defaultKycStatus",
                  "type": "bool"
                },
                {
                  "internalType": "bool",
                  "name": "pauseStatus",
                  "type": "bool"
                },
                {
                  "components": [
                    {
                      "internalType": "uint32",
                      "name": "amount",
                      "type": "uint32"
                    },
                    {
                      "internalType": "address",
                      "name": "tokenId",
                      "type": "address"
                    },
                    {
                      "internalType": "bool",
                      "name": "useHbarsForPayment",
                      "type": "bool"
                    },
                    {
                      "internalType": "bool",
                      "name": "useCurrentTokenForPayment",
                      "type": "bool"
                    },
                    {
                      "internalType": "address",
                      "name": "feeCollector",
                      "type": "address"
                    }
                  ],
                  "internalType": "struct IHederaTokenService.FixedFee[]",
                  "name": "fixedFees",
                  "type": "tuple[]"
                },
                {
                  "components": [
                    {
                      "internalType": "uint32",
                      "name": "numerator",
                      "type": "uint32"
                    },
                    {
                      "internalType": "uint32",
                      "name": "denominator",
                      "type": "uint32"
                    },
                    {
                      "internalType": "uint32",
                      "name": "minimumAmount",
                      "type": "uint32"
                    },
                    {
                      "internalType": "uint32",
                      "name": "maximumAmount",
                      "type": "uint32"
                    },
                    {
                      "internalType": "bool",
                      "name": "netOfTransfers",
                      "type": "bool"
                    },
                    {
                      "internalType": "address",
                      "name": "feeCollector",
                      "type": "address"
                    }
                  ],
                  "internalType": "struct IHederaTokenService.FractionalFee[]",
                  "name": "fractionalFees",
                  "type": "tuple[]"
                },
                {
                  "components": [
                    {
                      "internalType": "uint32",
                      "name": "numerator",
                      "type": "uint32"
                    },
                    {
                      "internalType": "uint32",
                      "name": "denominator",
                      "type": "uint32"
                    },
                    {
                      "internalType": "uint32",
                      "name": "amount",
                      "type": "uint32"
                    },
                    {
                      "internalType": "address",
                      "name": "tokenId",
                      "type": "address"
                    },
                    {
                      "internalType": "bool",
                      "name": "useHbarsForPayment",
                      "type": "bool"
                    },
                    {
                      "internalType": "address",
                      "name": "feeCollector",
                      "type": "address"
                    }
                  ],
                  "internalType": "struct IHederaTokenService.RoyaltyFee[]",
                  "name": "royaltyFees",
                  "type": "tuple[]"
                },
                {
                  "internalType": "string",
                  "name": "ledgerId",
                  "type": "string"
                }
              ],
              "internalType": "struct IHederaTokenService.TokenInfo",
              "name": "tokenInfo",
              "type": "tuple"
            },
            {
              "internalType": "uint32",
              "name": "decimals",
              "type": "uint32"
            }
          ],
          "indexed": false,
          "internalType": "struct IHederaTokenService.FungibleTokenInfo",
          "name": "tokenInfo",
          "type": "tuple"
        }
      ],
      "name": "FungibleTokenInfo",
      "type": "event"
    },
    {
      "anonymous": false,
      "inputs": [
        {
          "indexed": false,
          "internalType": "uint64",
          "name": "newTotalSupply",
          "type": "uint64"
        },
        {
          "indexed": false,
          "internalType": "int64[]",
          "name": "serialNumbers",
          "type": "int64[]"
        }
      ],
      "name": "MintedToken",
      "type": "event"
    },
    {
      "anonymous": false,
      "inputs": [
        {
          "components": [
            {
              "components": [
                {
                  "components": [
                    {
                      "internalType": "string",
                      "name": "name",
                      "type": "string"
                    },
                    {
                      "internalType": "string",
                      "name": "symbol",
                      "type": "string"
                    },
                    {
                      "internalType": "address",
                      "name": "treasury",
                      "type": "address"
                    },
                    {
                      "internalType": "string",
                      "name": "memo",
                      "type": "string"
                    },
                    {
                      "internalType": "bool",
                      "name": "tokenSupplyType",
                      "type": "bool"
                    },
                    {
                      "internalType": "uint32",
                      "name": "maxSupply",
                      "type": "uint32"
                    },
                    {
                      "internalType": "bool",
                      "name": "freezeDefault",
                      "type": "bool"
                    },
                    {
                      "components": [
                        {
                          "internalType": "uint256",
                          "name": "keyType",
                          "type": "uint256"
                        },
                        {
                          "components": [
                            {
                              "internalType": "bool",
                              "name": "inheritAccountKey",
                              "type": "bool"
                            },
                            {
                              "internalType": "address",
                              "name": "contractId",
                              "type": "address"
                            },
                            {
                              "internalType": "bytes",
                              "name": "ed25519",
                              "type": "bytes"
                            },
                            {
                              "internalType": "bytes",
                              "name": "ECDSA_secp256k1",
                              "type": "bytes"
                            },
                            {
                              "internalType": "address",
                              "name": "delegatableContractId",
                              "type": "address"
                            }
                          ],
                          "internalType": "struct IHederaTokenService.KeyValue",
                          "name": "key",
                          "type": "tuple"
                        }
                      ],
                      "internalType": "struct IHederaTokenService.TokenKey[]",
                      "name": "tokenKeys",
                      "type": "tuple[]"
                    },
                    {
                      "components": [
                        {
                          "internalType": "uint32",
                          "name": "second",
                          "type": "uint32"
                        },
                        {
                          "internalType": "address",
                          "name": "autoRenewAccount",
                          "type": "address"
                        },
                        {
                          "internalType": "uint32",
                          "name": "autoRenewPeriod",
                          "type": "uint32"
                        }
                      ],
                      "internalType": "struct IHederaTokenService.Expiry",
                      "name": "expiry",
                      "type": "tuple"
                    }
                  ],
                  "internalType": "struct IHederaTokenService.HederaToken",
                  "name": "token",
                  "type": "tuple"
                },
                {
                  "internalType": "uint64",
                  "name": "totalSupply",
                  "type": "uint64"
                },
                {
                  "internalType": "bool",
                  "name": "deleted",
                  "type": "bool"
                },
                {
                  "internalType": "bool",
                  "name": "defaultKycStatus",
                  "type": "bool"
                },
                {
                  "internalType": "bool",
                  "name": "pauseStatus",
                  "type": "bool"
                },
                {
                  "components": [
                    {
                      "internalType": "uint32",
                      "name": "amount",
                      "type": "uint32"
                    },
                    {
                      "internalType": "address",
                      "name": "tokenId",
                      "type": "address"
                    },
                    {
                      "internalType": "bool",
                      "name": "useHbarsForPayment",
                      "type": "bool"
                    },
                    {
                      "internalType": "bool",
                      "name": "useCurrentTokenForPayment",
                      "type": "bool"
                    },
                    {
                      "internalType": "address",
                      "name": "feeCollector",
                      "type": "address"
                    }
                  ],
                  "internalType": "struct IHederaTokenService.FixedFee[]",
                  "name": "fixedFees",
                  "type": "tuple[]"
                },
                {
                  "components": [
                    {
                      "internalType": "uint32",
                      "name": "numerator",
                      "type": "uint32"
                    },
                    {
                      "internalType": "uint32",
                      "name": "denominator",
                      "type": "uint32"
                    },
                    {
                      "internalType": "uint32",
                      "name": "minimumAmount",
                      "type": "uint32"
                    },
                    {
                      "internalType": "uint32",
                      "name": "maximumAmount",
                      "type": "uint32"
                    },
                    {
                      "internalType": "bool",
                      "name": "netOfTransfers",
                      "type": "bool"
                    },
                    {
                      "internalType": "address",
                      "name": "feeCollector",
                      "type": "address"
                    }
                  ],
                  "internalType": "struct IHederaTokenService.FractionalFee[]",
                  "name": "fractionalFees",
                  "type": "tuple[]"
                },
                {
                  "components": [
                    {
                      "internalType": "uint32",
                      "name": "numerator",
                      "type": "uint32"
                    },
                    {
                      "internalType": "uint32",
                      "name": "denominator",
                      "type": "uint32"
                    },
                    {
                      "internalType": "uint32",
                      "name": "amount",
                      "type": "uint32"
                    },
                    {
                      "internalType": "address",
                      "name": "tokenId",
                      "type": "address"
                    },
                    {
                      "internalType": "bool",
                      "name": "useHbarsForPayment",
                      "type": "bool"
                    },
                    {
                      "internalType": "address",
                      "name": "feeCollector",
                      "type": "address"
                    }
                  ],
                  "internalType": "struct IHederaTokenService.RoyaltyFee[]",
                  "name": "royaltyFees",
                  "type": "tuple[]"
                },
                {
                  "internalType": "string",
                  "name": "ledgerId",
                  "type": "string"
                }
              ],
              "internalType": "struct IHederaTokenService.TokenInfo",
              "name": "tokenInfo",
              "type": "tuple"
            },
            {
              "internalType": "int64",
              "name": "serialNumber",
              "type": "int64"
            },
            {
              "internalType": "address",
              "name": "ownerId",
              "type": "address"
            },
            {
              "internalType": "int64",
              "name": "creationTime",
              "type": "int64"
            },
            {
              "internalType": "bytes",
              "name": "metadata",
              "type": "bytes"
            },
            {
              "internalType": "address",
              "name": "spenderId",
              "type": "address"
            }
          ],
          "indexed": false,
          "internalType": "struct IHederaTokenService.NonFungibleTokenInfo",
          "name": "tokenInfo",
          "type": "tuple"
        }
      ],
      "name": "NonFungibleTokenInfo",
      "type": "event"
    },
    {
      "anonymous": false,
      "inputs": [
        {
          "indexed": false,
          "internalType": "int256",
          "name": "responseCode",
          "type": "int256"
        }
      ],
      "name": "ResponseCode",
      "type": "event"
    },
    {
      "anonymous": false,
      "inputs": [
        {
          "components": [
            {
              "components": [
                {
                  "internalType": "string",
                  "name": "name",
                  "type": "string"
                },
                {
                  "internalType": "string",
                  "name": "symbol",
                  "type": "string"
                },
                {
                  "internalType": "address",
                  "name": "treasury",
                  "type": "address"
                },
                {
                  "internalType": "string",
                  "name": "memo",
                  "type": "string"
                },
                {
                  "internalType": "bool",
                  "name": "tokenSupplyType",
                  "type": "bool"
                },
                {
                  "internalType": "uint32",
                  "name": "maxSupply",
                  "type": "uint32"
                },
                {
                  "internalType": "bool",
                  "name": "freezeDefault",
                  "type": "bool"
                },
                {
                  "components": [
                    {
                      "internalType": "uint256",
                      "name": "keyType",
                      "type": "uint256"
                    },
                    {
                      "components": [
                        {
                          "internalType": "bool",
                          "name": "inheritAccountKey",
                          "type": "bool"
                        },
                        {
                          "internalType": "address",
                          "name": "contractId",
                          "type": "address"
                        },
                        {
                          "internalType": "bytes",
                          "name": "ed25519",
                          "type": "bytes"
                        },
                        {
                          "internalType": "bytes",
                          "name": "ECDSA_secp256k1",
                          "type": "bytes"
                        },
                        {
                          "internalType": "address",
                          "name": "delegatableContractId",
                          "type": "address"
                        }
                      ],
                      "internalType": "struct IHederaTokenService.KeyValue",
                      "name": "key",
                      "type": "tuple"
                    }
                  ],
                  "internalType": "struct IHederaTokenService.TokenKey[]",
                  "name": "tokenKeys",
                  "type": "tuple[]"
                },
                {
                  "components": [
                    {
                      "internalType": "uint32",
                      "name": "second",
                      "type": "uint32"
                    },
                    {
                      "internalType": "address",
                      "name": "autoRenewAccount",
                      "type": "address"
                    },
                    {
                      "internalType": "uint32",
                      "name": "autoRenewPeriod",
                      "type": "uint32"
                    }
                  ],
                  "internalType": "struct IHederaTokenService.Expiry",
                  "name": "expiry",
                  "type": "tuple"
                }
              ],
              "internalType": "struct IHederaTokenService.HederaToken",
              "name": "token",
              "type": "tuple"
            },
            {
              "internalType": "uint64",
              "name": "totalSupply",
              "type": "uint64"
            },
            {
              "internalType": "bool",
              "name": "deleted",
              "type": "bool"
            },
            {
              "internalType": "bool",
              "name": "defaultKycStatus",
              "type": "bool"
            },
            {
              "internalType": "bool",
              "name": "pauseStatus",
              "type": "bool"
            },
            {
              "components": [
                {
                  "internalType": "uint32",
                  "name": "amount",
                  "type": "uint32"
                },
                {
                  "internalType": "address",
                  "name": "tokenId",
                  "type": "address"
                },
                {
                  "internalType": "bool",
                  "name": "useHbarsForPayment",
                  "type": "bool"
                },
                {
                  "internalType": "bool",
                  "name": "useCurrentTokenForPayment",
                  "type": "bool"
                },
                {
                  "internalType": "address",
                  "name": "feeCollector",
                  "type": "address"
                }
              ],
              "internalType": "struct IHederaTokenService.FixedFee[]",
              "name": "fixedFees",
              "type": "tuple[]"
            },
            {
              "components": [
                {
                  "internalType": "uint32",
                  "name": "numerator",
                  "type": "uint32"
                },
                {
                  "internalType": "uint32",
                  "name": "denominator",
                  "type": "uint32"
                },
                {
                  "internalType": "uint32",
                  "name": "minimumAmount",
                  "type": "uint32"
                },
                {
                  "internalType": "uint32",
                  "name": "maximumAmount",
                  "type": "uint32"
                },
                {
                  "internalType": "bool",
                  "name": "netOfTransfers",
                  "type": "bool"
                },
                {
                  "internalType": "address",
                  "name": "feeCollector",
                  "type": "address"
                }
              ],
              "internalType": "struct IHederaTokenService.FractionalFee[]",
              "name": "fractionalFees",
              "type": "tuple[]"
            },
            {
              "components": [
                {
                  "internalType": "uint32",
                  "name": "numerator",
                  "type": "uint32"
                },
                {
                  "internalType": "uint32",
                  "name": "denominator",
                  "type": "uint32"
                },
                {
                  "internalType": "uint32",
                  "name": "amount",
                  "type": "uint32"
                },
                {
                  "internalType": "address",
                  "name": "tokenId",
                  "type": "address"
                },
                {
                  "internalType": "bool",
                  "name": "useHbarsForPayment",
                  "type": "bool"
                },
                {
                  "internalType": "address",
                  "name": "feeCollector",
                  "type": "address"
                }
              ],
              "internalType": "struct IHederaTokenService.RoyaltyFee[]",
              "name": "royaltyFees",
              "type": "tuple[]"
            },
            {
              "internalType": "string",
              "name": "ledgerId",
              "type": "string"
            }
          ],
          "indexed": false,
          "internalType": "struct IHederaTokenService.TokenInfo",
          "name": "tokenInfo",
          "type": "tuple"
        }
      ],
      "name": "TokenInfo",
      "type": "event"
    },
    {
      "inputs": [
        {
          "internalType": "address",
          "name": "token",
          "type": "address"
        },
        {
          "internalType": "address",
          "name": "owner",
          "type": "address"
        },
        {
          "internalType": "address",
          "name": "spender",
          "type": "address"
        }
      ],
      "name": "allowancePublic",
      "outputs": [
        {
          "internalType": "int256",
          "name": "responseCode",
          "type": "int256"
        },
        {
          "internalType": "uint256",
          "name": "amount",
          "type": "uint256"
        }
      ],
      "stateMutability": "nonpayable",
      "type": "function"
    },
    {
      "inputs": [
        {
          "internalType": "address",
          "name": "token",
          "type": "address"
        },
        {
          "internalType": "address",
          "name": "spender",
          "type": "address"
        },
        {
          "internalType": "uint256",
          "name": "amount",
          "type": "uint256"
        }
      ],
      "name": "approvePublic",
      "outputs": [
        {
          "internalType": "int256",
          "name": "responseCode",
          "type": "int256"
        }
      ],
      "stateMutability": "nonpayable",
      "type": "function"
    },
    {
      "inputs": [
        {
          "internalType": "address",
          "name": "account",
          "type": "address"
        },
        {
          "internalType": "address",
          "name": "token",
          "type": "address"
        }
      ],
      "name": "associateTokenPublic",
      "outputs": [
        {
          "internalType": "int256",
          "name": "responseCode",
          "type": "int256"
        }
      ],
      "stateMutability": "nonpayable",
      "type": "function"
    },
    {
      "inputs": [
        {
          "internalType": "address",
          "name": "treasury",
          "type": "address"
        }
      ],
      "name": "createFungibleTokenPublic",
      "outputs": [],
      "stateMutability": "payable",
      "type": "function"
    },
    {
      "inputs": [
        {
          "internalType": "address",
          "name": "treasury",
          "type": "address"
        }
      ],
      "name": "createNonFungibleTokenPublic",
      "outputs": [],
      "stateMutability": "payable",
      "type": "function"
    },
    {
      "inputs": [
        {
          "internalType": "address",
          "name": "token",
          "type": "address"
        },
        {
          "internalType": "address",
          "name": "account",
          "type": "address"
        }
      ],
      "name": "freezeTokenPublic",
      "outputs": [
        {
          "internalType": "int256",
          "name": "responseCode",
          "type": "int256"
        }
      ],
      "stateMutability": "nonpayable",
      "type": "function"
    },
    {
      "inputs": [
        {
          "internalType": "address",
          "name": "token",
          "type": "address"
        },
        {
          "internalType": "uint256",
          "name": "serialNumber",
          "type": "uint256"
        }
      ],
      "name": "getApprovedPublic",
      "outputs": [
        {
          "internalType": "int256",
          "name": "responseCode",
          "type": "int256"
        },
        {
          "internalType": "address",
          "name": "approved",
          "type": "address"
        }
      ],
      "stateMutability": "nonpayable",
      "type": "function"
    },
    {
      "inputs": [
        {
          "internalType": "address",
          "name": "token",
          "type": "address"
        }
      ],
      "name": "getFungibleTokenInfoPublic",
      "outputs": [
        {
          "internalType": "int256",
          "name": "responseCode",
          "type": "int256"
        },
        {
          "components": [
            {
              "components": [
                {
                  "components": [
                    {
                      "internalType": "string",
                      "name": "name",
                      "type": "string"
                    },
                    {
                      "internalType": "string",
                      "name": "symbol",
                      "type": "string"
                    },
                    {
                      "internalType": "address",
                      "name": "treasury",
                      "type": "address"
                    },
                    {
                      "internalType": "string",
                      "name": "memo",
                      "type": "string"
                    },
                    {
                      "internalType": "bool",
                      "name": "tokenSupplyType",
                      "type": "bool"
                    },
                    {
                      "internalType": "uint32",
                      "name": "maxSupply",
                      "type": "uint32"
                    },
                    {
                      "internalType": "bool",
                      "name": "freezeDefault",
                      "type": "bool"
                    },
                    {
                      "components": [
                        {
                          "internalType": "uint256",
                          "name": "keyType",
                          "type": "uint256"
                        },
                        {
                          "components": [
                            {
                              "internalType": "bool",
                              "name": "inheritAccountKey",
                              "type": "bool"
                            },
                            {
                              "internalType": "address",
                              "name": "contractId",
                              "type": "address"
                            },
                            {
                              "internalType": "bytes",
                              "name": "ed25519",
                              "type": "bytes"
                            },
                            {
                              "internalType": "bytes",
                              "name": "ECDSA_secp256k1",
                              "type": "bytes"
                            },
                            {
                              "internalType": "address",
                              "name": "delegatableContractId",
                              "type": "address"
                            }
                          ],
                          "internalType": "struct IHederaTokenService.KeyValue",
                          "name": "key",
                          "type": "tuple"
                        }
                      ],
                      "internalType": "struct IHederaTokenService.TokenKey[]",
                      "name": "tokenKeys",
                      "type": "tuple[]"
                    },
                    {
                      "components": [
                        {
                          "internalType": "uint32",
                          "name": "second",
                          "type": "uint32"
                        },
                        {
                          "internalType": "address",
                          "name": "autoRenewAccount",
                          "type": "address"
                        },
                        {
                          "internalType": "uint32",
                          "name": "autoRenewPeriod",
                          "type": "uint32"
                        }
                      ],
                      "internalType": "struct IHederaTokenService.Expiry",
                      "name": "expiry",
                      "type": "tuple"
                    }
                  ],
                  "internalType": "struct IHederaTokenService.HederaToken",
                  "name": "token",
                  "type": "tuple"
                },
                {
                  "internalType": "uint64",
                  "name": "totalSupply",
                  "type": "uint64"
                },
                {
                  "internalType": "bool",
                  "name": "deleted",
                  "type": "bool"
                },
                {
                  "internalType": "bool",
                  "name": "defaultKycStatus",
                  "type": "bool"
                },
                {
                  "internalType": "bool",
                  "name": "pauseStatus",
                  "type": "bool"
                },
                {
                  "components": [
                    {
                      "internalType": "uint32",
                      "name": "amount",
                      "type": "uint32"
                    },
                    {
                      "internalType": "address",
                      "name": "tokenId",
                      "type": "address"
                    },
                    {
                      "internalType": "bool",
                      "name": "useHbarsForPayment",
                      "type": "bool"
                    },
                    {
                      "internalType": "bool",
                      "name": "useCurrentTokenForPayment",
                      "type": "bool"
                    },
                    {
                      "internalType": "address",
                      "name": "feeCollector",
                      "type": "address"
                    }
                  ],
                  "internalType": "struct IHederaTokenService.FixedFee[]",
                  "name": "fixedFees",
                  "type": "tuple[]"
                },
                {
                  "components": [
                    {
                      "internalType": "uint32",
                      "name": "numerator",
                      "type": "uint32"
                    },
                    {
                      "internalType": "uint32",
                      "name": "denominator",
                      "type": "uint32"
                    },
                    {
                      "internalType": "uint32",
                      "name": "minimumAmount",
                      "type": "uint32"
                    },
                    {
                      "internalType": "uint32",
                      "name": "maximumAmount",
                      "type": "uint32"
                    },
                    {
                      "internalType": "bool",
                      "name": "netOfTransfers",
                      "type": "bool"
                    },
                    {
                      "internalType": "address",
                      "name": "feeCollector",
                      "type": "address"
                    }
                  ],
                  "internalType": "struct IHederaTokenService.FractionalFee[]",
                  "name": "fractionalFees",
                  "type": "tuple[]"
                },
                {
                  "components": [
                    {
                      "internalType": "uint32",
                      "name": "numerator",
                      "type": "uint32"
                    },
                    {
                      "internalType": "uint32",
                      "name": "denominator",
                      "type": "uint32"
                    },
                    {
                      "internalType": "uint32",
                      "name": "amount",
                      "type": "uint32"
                    },
                    {
                      "internalType": "address",
                      "name": "tokenId",
                      "type": "address"
                    },
                    {
                      "internalType": "bool",
                      "name": "useHbarsForPayment",
                      "type": "bool"
                    },
                    {
                      "internalType": "address",
                      "name": "feeCollector",
                      "type": "address"
                    }
                  ],
                  "internalType": "struct IHederaTokenService.RoyaltyFee[]",
                  "name": "royaltyFees",
                  "type": "tuple[]"
                },
                {
                  "internalType": "string",
                  "name": "ledgerId",
                  "type": "string"
                }
              ],
              "internalType": "struct IHederaTokenService.TokenInfo",
              "name": "tokenInfo",
              "type": "tuple"
            },
            {
              "internalType": "uint32",
              "name": "decimals",
              "type": "uint32"
            }
          ],
          "internalType": "struct IHederaTokenService.FungibleTokenInfo",
          "name": "tokenInfo",
          "type": "tuple"
        }
      ],
      "stateMutability": "nonpayable",
      "type": "function"
    },
    {
      "inputs": [
        {
          "internalType": "address",
          "name": "token",
          "type": "address"
        },
        {
          "internalType": "int64",
          "name": "serialNumber",
          "type": "int64"
        }
      ],
      "name": "getNonFungibleTokenInfoPublic",
      "outputs": [
        {
          "internalType": "int256",
          "name": "responseCode",
          "type": "int256"
        },
        {
          "components": [
            {
              "components": [
                {
                  "components": [
                    {
                      "internalType": "string",
                      "name": "name",
                      "type": "string"
                    },
                    {
                      "internalType": "string",
                      "name": "symbol",
                      "type": "string"
                    },
                    {
                      "internalType": "address",
                      "name": "treasury",
                      "type": "address"
                    },
                    {
                      "internalType": "string",
                      "name": "memo",
                      "type": "string"
                    },
                    {
                      "internalType": "bool",
                      "name": "tokenSupplyType",
                      "type": "bool"
                    },
                    {
                      "internalType": "uint32",
                      "name": "maxSupply",
                      "type": "uint32"
                    },
                    {
                      "internalType": "bool",
                      "name": "freezeDefault",
                      "type": "bool"
                    },
                    {
                      "components": [
                        {
                          "internalType": "uint256",
                          "name": "keyType",
                          "type": "uint256"
                        },
                        {
                          "components": [
                            {
                              "internalType": "bool",
                              "name": "inheritAccountKey",
                              "type": "bool"
                            },
                            {
                              "internalType": "address",
                              "name": "contractId",
                              "type": "address"
                            },
                            {
                              "internalType": "bytes",
                              "name": "ed25519",
                              "type": "bytes"
                            },
                            {
                              "internalType": "bytes",
                              "name": "ECDSA_secp256k1",
                              "type": "bytes"
                            },
                            {
                              "internalType": "address",
                              "name": "delegatableContractId",
                              "type": "address"
                            }
                          ],
                          "internalType": "struct IHederaTokenService.KeyValue",
                          "name": "key",
                          "type": "tuple"
                        }
                      ],
                      "internalType": "struct IHederaTokenService.TokenKey[]",
                      "name": "tokenKeys",
                      "type": "tuple[]"
                    },
                    {
                      "components": [
                        {
                          "internalType": "uint32",
                          "name": "second",
                          "type": "uint32"
                        },
                        {
                          "internalType": "address",
                          "name": "autoRenewAccount",
                          "type": "address"
                        },
                        {
                          "internalType": "uint32",
                          "name": "autoRenewPeriod",
                          "type": "uint32"
                        }
                      ],
                      "internalType": "struct IHederaTokenService.Expiry",
                      "name": "expiry",
                      "type": "tuple"
                    }
                  ],
                  "internalType": "struct IHederaTokenService.HederaToken",
                  "name": "token",
                  "type": "tuple"
                },
                {
                  "internalType": "uint64",
                  "name": "totalSupply",
                  "type": "uint64"
                },
                {
                  "internalType": "bool",
                  "name": "deleted",
                  "type": "bool"
                },
                {
                  "internalType": "bool",
                  "name": "defaultKycStatus",
                  "type": "bool"
                },
                {
                  "internalType": "bool",
                  "name": "pauseStatus",
                  "type": "bool"
                },
                {
                  "components": [
                    {
                      "internalType": "uint32",
                      "name": "amount",
                      "type": "uint32"
                    },
                    {
                      "internalType": "address",
                      "name": "tokenId",
                      "type": "address"
                    },
                    {
                      "internalType": "bool",
                      "name": "useHbarsForPayment",
                      "type": "bool"
                    },
                    {
                      "internalType": "bool",
                      "name": "useCurrentTokenForPayment",
                      "type": "bool"
                    },
                    {
                      "internalType": "address",
                      "name": "feeCollector",
                      "type": "address"
                    }
                  ],
                  "internalType": "struct IHederaTokenService.FixedFee[]",
                  "name": "fixedFees",
                  "type": "tuple[]"
                },
                {
                  "components": [
                    {
                      "internalType": "uint32",
                      "name": "numerator",
                      "type": "uint32"
                    },
                    {
                      "internalType": "uint32",
                      "name": "denominator",
                      "type": "uint32"
                    },
                    {
                      "internalType": "uint32",
                      "name": "minimumAmount",
                      "type": "uint32"
                    },
                    {
                      "internalType": "uint32",
                      "name": "maximumAmount",
                      "type": "uint32"
                    },
                    {
                      "internalType": "bool",
                      "name": "netOfTransfers",
                      "type": "bool"
                    },
                    {
                      "internalType": "address",
                      "name": "feeCollector",
                      "type": "address"
                    }
                  ],
                  "internalType": "struct IHederaTokenService.FractionalFee[]",
                  "name": "fractionalFees",
                  "type": "tuple[]"
                },
                {
                  "components": [
                    {
                      "internalType": "uint32",
                      "name": "numerator",
                      "type": "uint32"
                    },
                    {
                      "internalType": "uint32",
                      "name": "denominator",
                      "type": "uint32"
                    },
                    {
                      "internalType": "uint32",
                      "name": "amount",
                      "type": "uint32"
                    },
                    {
                      "internalType": "address",
                      "name": "tokenId",
                      "type": "address"
                    },
                    {
                      "internalType": "bool",
                      "name": "useHbarsForPayment",
                      "type": "bool"
                    },
                    {
                      "internalType": "address",
                      "name": "feeCollector",
                      "type": "address"
                    }
                  ],
                  "internalType": "struct IHederaTokenService.RoyaltyFee[]",
                  "name": "royaltyFees",
                  "type": "tuple[]"
                },
                {
                  "internalType": "string",
                  "name": "ledgerId",
                  "type": "string"
                }
              ],
              "internalType": "struct IHederaTokenService.TokenInfo",
              "name": "tokenInfo",
              "type": "tuple"
            },
            {
              "internalType": "int64",
              "name": "serialNumber",
              "type": "int64"
            },
            {
              "internalType": "address",
              "name": "ownerId",
              "type": "address"
            },
            {
              "internalType": "int64",
              "name": "creationTime",
              "type": "int64"
            },
            {
              "internalType": "bytes",
              "name": "metadata",
              "type": "bytes"
            },
            {
              "internalType": "address",
              "name": "spenderId",
              "type": "address"
            }
          ],
          "internalType": "struct IHederaTokenService.NonFungibleTokenInfo",
          "name": "tokenInfo",
          "type": "tuple"
        }
      ],
      "stateMutability": "nonpayable",
      "type": "function"
    },
    {
      "inputs": [
        {
          "internalType": "address",
          "name": "token",
          "type": "address"
        }
      ],
      "name": "getTokenInfoPublic",
      "outputs": [
        {
          "internalType": "int256",
          "name": "responseCode",
          "type": "int256"
        },
        {
          "components": [
            {
              "components": [
                {
                  "internalType": "string",
                  "name": "name",
                  "type": "string"
                },
                {
                  "internalType": "string",
                  "name": "symbol",
                  "type": "string"
                },
                {
                  "internalType": "address",
                  "name": "treasury",
                  "type": "address"
                },
                {
                  "internalType": "string",
                  "name": "memo",
                  "type": "string"
                },
                {
                  "internalType": "bool",
                  "name": "tokenSupplyType",
                  "type": "bool"
                },
                {
                  "internalType": "uint32",
                  "name": "maxSupply",
                  "type": "uint32"
                },
                {
                  "internalType": "bool",
                  "name": "freezeDefault",
                  "type": "bool"
                },
                {
                  "components": [
                    {
                      "internalType": "uint256",
                      "name": "keyType",
                      "type": "uint256"
                    },
                    {
                      "components": [
                        {
                          "internalType": "bool",
                          "name": "inheritAccountKey",
                          "type": "bool"
                        },
                        {
                          "internalType": "address",
                          "name": "contractId",
                          "type": "address"
                        },
                        {
                          "internalType": "bytes",
                          "name": "ed25519",
                          "type": "bytes"
                        },
                        {
                          "internalType": "bytes",
                          "name": "ECDSA_secp256k1",
                          "type": "bytes"
                        },
                        {
                          "internalType": "address",
                          "name": "delegatableContractId",
                          "type": "address"
                        }
                      ],
                      "internalType": "struct IHederaTokenService.KeyValue",
                      "name": "key",
                      "type": "tuple"
                    }
                  ],
                  "internalType": "struct IHederaTokenService.TokenKey[]",
                  "name": "tokenKeys",
                  "type": "tuple[]"
                },
                {
                  "components": [
                    {
                      "internalType": "uint32",
                      "name": "second",
                      "type": "uint32"
                    },
                    {
                      "internalType": "address",
                      "name": "autoRenewAccount",
                      "type": "address"
                    },
                    {
                      "internalType": "uint32",
                      "name": "autoRenewPeriod",
                      "type": "uint32"
                    }
                  ],
                  "internalType": "struct IHederaTokenService.Expiry",
                  "name": "expiry",
                  "type": "tuple"
                }
              ],
              "internalType": "struct IHederaTokenService.HederaToken",
              "name": "token",
              "type": "tuple"
            },
            {
              "internalType": "uint64",
              "name": "totalSupply",
              "type": "uint64"
            },
            {
              "internalType": "bool",
              "name": "deleted",
              "type": "bool"
            },
            {
              "internalType": "bool",
              "name": "defaultKycStatus",
              "type": "bool"
            },
            {
              "internalType": "bool",
              "name": "pauseStatus",
              "type": "bool"
            },
            {
              "components": [
                {
                  "internalType": "uint32",
                  "name": "amount",
                  "type": "uint32"
                },
                {
                  "internalType": "address",
                  "name": "tokenId",
                  "type": "address"
                },
                {
                  "internalType": "bool",
                  "name": "useHbarsForPayment",
                  "type": "bool"
                },
                {
                  "internalType": "bool",
                  "name": "useCurrentTokenForPayment",
                  "type": "bool"
                },
                {
                  "internalType": "address",
                  "name": "feeCollector",
                  "type": "address"
                }
              ],
              "internalType": "struct IHederaTokenService.FixedFee[]",
              "name": "fixedFees",
              "type": "tuple[]"
            },
            {
              "components": [
                {
                  "internalType": "uint32",
                  "name": "numerator",
                  "type": "uint32"
                },
                {
                  "internalType": "uint32",
                  "name": "denominator",
                  "type": "uint32"
                },
                {
                  "internalType": "uint32",
                  "name": "minimumAmount",
                  "type": "uint32"
                },
                {
                  "internalType": "uint32",
                  "name": "maximumAmount",
                  "type": "uint32"
                },
                {
                  "internalType": "bool",
                  "name": "netOfTransfers",
                  "type": "bool"
                },
                {
                  "internalType": "address",
                  "name": "feeCollector",
                  "type": "address"
                }
              ],
              "internalType": "struct IHederaTokenService.FractionalFee[]",
              "name": "fractionalFees",
              "type": "tuple[]"
            },
            {
              "components": [
                {
                  "internalType": "uint32",
                  "name": "numerator",
                  "type": "uint32"
                },
                {
                  "internalType": "uint32",
                  "name": "denominator",
                  "type": "uint32"
                },
                {
                  "internalType": "uint32",
                  "name": "amount",
                  "type": "uint32"
                },
                {
                  "internalType": "address",
                  "name": "tokenId",
                  "type": "address"
                },
                {
                  "internalType": "bool",
                  "name": "useHbarsForPayment",
                  "type": "bool"
                },
                {
                  "internalType": "address",
                  "name": "feeCollector",
                  "type": "address"
                }
              ],
              "internalType": "struct IHederaTokenService.RoyaltyFee[]",
              "name": "royaltyFees",
              "type": "tuple[]"
            },
            {
              "internalType": "string",
              "name": "ledgerId",
              "type": "string"
            }
          ],
          "internalType": "struct IHederaTokenService.TokenInfo",
          "name": "tokenInfo",
          "type": "tuple"
        }
      ],
      "stateMutability": "nonpayable",
      "type": "function"
    },
    {
      "inputs": [
        {
          "internalType": "address",
          "name": "token",
          "type": "address"
        },
        {
          "internalType": "address",
          "name": "owner",
          "type": "address"
        },
        {
          "internalType": "address",
          "name": "operator",
          "type": "address"
        }
      ],
      "name": "isApprovedForAllPublic",
      "outputs": [
        {
          "internalType": "int256",
          "name": "responseCode",
          "type": "int256"
        },
        {
          "internalType": "bool",
          "name": "approved",
          "type": "bool"
        }
      ],
      "stateMutability": "nonpayable",
      "type": "function"
    },
    {
      "inputs": [
        {
          "internalType": "address",
          "name": "token",
          "type": "address"
        },
        {
          "internalType": "address",
          "name": "account",
          "type": "address"
        }
      ],
      "name": "isFrozenPublic",
      "outputs": [
        {
          "internalType": "int256",
          "name": "responseCode",
          "type": "int256"
        },
        {
          "internalType": "bool",
          "name": "frozen",
          "type": "bool"
        }
      ],
      "stateMutability": "nonpayable",
      "type": "function"
    },
    {
      "inputs": [
        {
          "internalType": "address",
          "name": "token",
          "type": "address"
        },
        {
          "internalType": "uint64",
          "name": "amount",
          "type": "uint64"
        },
        {
          "internalType": "bytes[]",
          "name": "metadata",
          "type": "bytes[]"
        }
      ],
      "name": "mintTokenPublic",
      "outputs": [
        {
          "internalType": "int256",
          "name": "responseCode",
          "type": "int256"
        },
        {
          "internalType": "uint64",
          "name": "newTotalSupply",
          "type": "uint64"
        },
        {
          "internalType": "int64[]",
          "name": "serialNumbers",
          "type": "int64[]"
        }
      ],
      "stateMutability": "nonpayable",
      "type": "function"
    },
    {
      "inputs": [
        {
          "internalType": "address",
          "name": "token",
          "type": "address"
        }
      ],
      "name": "pauseToken",
      "outputs": [
        {
          "internalType": "int256",
          "name": "responseCode",
          "type": "int256"
        }
      ],
      "stateMutability": "nonpayable",
      "type": "function"
    },
    {
      "inputs": [
        {
          "internalType": "address",
          "name": "token",
          "type": "address"
        },
        {
          "internalType": "address",
          "name": "operator",
          "type": "address"
        },
        {
          "internalType": "bool",
          "name": "approved",
          "type": "bool"
        }
      ],
      "name": "setApprovalForAllPublic",
      "outputs": [
        {
          "internalType": "int256",
          "name": "responseCode",
          "type": "int256"
        }
      ],
      "stateMutability": "nonpayable",
      "type": "function"
    },
    {
      "inputs": [
        {
          "internalType": "address",
          "name": "account",
          "type": "address"
        },
        {
          "internalType": "address",
          "name": "token",
          "type": "address"
        },
        {
          "internalType": "int64",
          "name": "amount",
          "type": "int64"
        }
      ],
      "name": "transferTokenPublic",
      "outputs": [
        {
          "internalType": "int256",
          "name": "responseCode",
          "type": "int256"
        }
      ],
      "stateMutability": "nonpayable",
      "type": "function"
    },
    {
      "inputs": [
        {
          "internalType": "address",
          "name": "token",
          "type": "address"
        },
        {
          "internalType": "address",
          "name": "account",
          "type": "address"
        }
      ],
      "name": "unfreezeTokenPublic",
      "outputs": [
        {
          "internalType": "int256",
          "name": "responseCode",
          "type": "int256"
        }
      ],
      "stateMutability": "nonpayable",
      "type": "function"
    },
    {
      "inputs": [
        {
          "internalType": "address",
          "name": "token",
          "type": "address"
        }
      ],
      "name": "unpauseToken",
      "outputs": [
        {
          "internalType": "int256",
          "name": "responseCode",
          "type": "int256"
        }
      ],
      "stateMutability": "nonpayable",
      "type": "function"
    }
  ],
  "bytecode": "0x60806040526040518060400160405280600981526020017f746f6b656e4e616d650000000000000000000000000000000000000000000000815250600190805190602001906200005192919062000130565b506040518060400160405280600b81526020017f746f6b656e53796d626f6c000000000000000000000000000000000000000000815250600290805190602001906200009f92919062000130565b506040518060400160405280600481526020017f6d656d6f0000000000000000000000000000000000000000000000000000000081525060039080519060200190620000ed92919062000130565b506103e86004556103e8600560006101000a81548163ffffffff021916908363ffffffff16021790555060086006553480156200012957600080fd5b5062000245565b8280546200013e906200020f565b90600052602060002090601f016020900481019282620001625760008555620001ae565b82601f106200017d57805160ff1916838001178555620001ae565b82800160010185558215620001ae579182015b82811115620001ad57825182559160200191906001019062000190565b5b509050620001bd9190620001c1565b5090565b5b80821115620001dc576000816000905550600101620001c2565b5090565b7f4e487b7100000000000000000000000000000000000000000000000000000000600052602260045260246000fd5b600060028204905060018216806200022857607f821691505b602082108114156200023f576200023e620001e0565b5b50919050565b615afd80620002556000396000f3fe6080604052600436106101095760003560e01c80637c41ad2c11610095578063ec855c3111610064578063ec855c31146103ed578063f25b12001461042a578063f2f38a7414610467578063f4a01e5b146104a5578063f848fec4146104e257610109565b80637c41ad2c146103185780637d3e5da8146103555780638070905f14610392578063d85f74c1146103d157610109565b80634b5c6687116100dc5780634b5c6687146102045780634cbdb37b146102205780635a5e6c311461025e57806369837dc21461029c5780636a4dde21146102da57610109565b806313c05dd81461010e57806319db44b61461014c5780632d73bb2e1461018a5780633b3bff0f146101c7575b600080fd5b34801561011a57600080fd5b5061013560048036038101906101309190613032565b61051f565b6040516101439291906130b9565b60405180910390f35b34801561015857600080fd5b50610173600480360381019061016e9190613118565b6105ba565b604051610181929190613167565b60405180910390f35b34801561019657600080fd5b506101b160048036038101906101ac9190613190565b610654565b6040516101be91906131d0565b60405180910390f35b3480156101d357600080fd5b506101ee60048036038101906101e991906131eb565b6106b2565b6040516101fb91906131d0565b60405180910390f35b61021e600480360381019061021991906131eb565b6107c7565b005b34801561022c57600080fd5b5061024760048036038101906102429190613251565b610b1d565b604051610255929190613b71565b60405180910390f35b34801561026a57600080fd5b5061028560048036038101906102809190613032565b610bbe565b604051610293929190613bb0565b60405180910390f35b3480156102a857600080fd5b506102c360048036038101906102be91906131eb565b610c5a565b6040516102d1929190613c16565b60405180910390f35b3480156102e657600080fd5b5061030160048036038101906102fc9190613190565b610cf8565b60405161030f9291906130b9565b60405180910390f35b34801561032457600080fd5b5061033f600480360381019061033a91906131eb565b610d98565b60405161034c91906131d0565b60405180910390f35b34801561036157600080fd5b5061037c60048036038101906103779190613190565b610ead565b60405161038991906131d0565b60405180910390f35b34801561039e57600080fd5b506103b960048036038101906103b49190613e8d565b610f0b565b6040516103c893929190613fba565b60405180910390f35b6103eb60048036038101906103e691906131eb565b610fb0565b005b3480156103f957600080fd5b50610414600480360381019061040f9190613ff8565b61133b565b60405161042191906131d0565b60405180910390f35b34801561043657600080fd5b50610451600480360381019061044c9190614077565b611571565b60405161045e91906131d0565b60405180910390f35b34801561047357600080fd5b5061048e600480360381019061048991906131eb565b6115ce565b60405161049c9291906141ab565b60405180910390f35b3480156104b157600080fd5b506104cc60048036038101906104c79190613190565b61166c565b6040516104d991906131d0565b60405180910390f35b3480156104ee57600080fd5b50610509600480360381019061050491906141db565b6116c7565b60405161051691906131d0565b60405180910390f35b60008061052d858585611724565b80925081935050507f90a5cf4cffe88b4edbb041cfc7a8a812c48a5ec30b84640fb37690875168e3aa8260405161056491906131d0565b60405180910390a1601660030b821461057c57600080fd5b7e1c2e72360171244b3bb8cc8ddd767820edf37138ad6f129fb3574b407c307d816040516105aa919061422e565b60405180910390a1935093915050565b6000806105c7848461184c565b80925081935050507f90a5cf4cffe88b4edbb041cfc7a8a812c48a5ec30b84640fb37690875168e3aa826040516105fe91906131d0565b60405180910390a1601660030b821461061657600080fd5b7fc2c78c7c31baf14949e75c51df12be56edb9af523cf82839c2869bbcf13b3ecb816040516106459190614249565b60405180910390a19250929050565b60006106608383611971565b60070b90507f90a5cf4cffe88b4edbb041cfc7a8a812c48a5ec30b84640fb37690875168e3aa8160405161069491906131d0565b60405180910390a1601660030b81146106ac57600080fd5b92915050565b600080600061016773ffffffffffffffffffffffffffffffffffffffff16633b3bff0f60e01b856040516024016106e99190614249565b604051602081830303815290604052907bffffffffffffffffffffffffffffffffffffffffffffffffffffffff19166020820180517bffffffffffffffffffffffffffffffffffffffffffffffffffffffff838183161783525050505060405161075391906142a0565b6000604051808303816000865af19150503d8060008114610790576040519150601f19603f3d011682016040523d82523d6000602084013e610795565b606091505b5091509150816107a65760156107bb565b808060200190518101906107ba91906142f0565b5b60030b92505050919050565b6000600167ffffffffffffffff8111156107e4576107e3613c77565b5b60405190808252806020026020018201604052801561081d57816020015b61080a612cde565b8152602001906001900390816108025790505b50905061083e60006002600160405180602001604052806000815250611a89565b816000815181106108525761085161431d565b5b602002602001018190525060006040518060600160405280600063ffffffff1681526020018473ffffffffffffffffffffffffffffffffffffffff168152602001627a120063ffffffff1681525090506000604051806101200160405280600180546108bd9061437b565b80601f01602080910402602001604051908101604052809291908181526020018280546108e99061437b565b80156109365780601f1061090b57610100808354040283529160200191610936565b820191906000526020600020905b81548152906001019060200180831161091957829003601f168201915b505050505081526020016002805461094d9061437b565b80601f01602080910402602001604051908101604052809291908181526020018280546109799061437b565b80156109c65780601f1061099b576101008083540402835291602001916109c6565b820191906000526020600020905b8154815290600101906020018083116109a957829003601f168201915b505050505081526020018573ffffffffffffffffffffffffffffffffffffffff168152602001600380546109f99061437b565b80601f0160208091040260200160405190810160405280929190818152602001828054610a259061437b565b8015610a725780601f10610a4757610100808354040283529160200191610a72565b820191906000526020600020905b815481529060010190602001808311610a5557829003601f168201915b50505050508152602001600115158152602001600560009054906101000a900463ffffffff1663ffffffff168152602001600015158152602001848152602001838152509050600080610aca83600454600654611ac2565b91509150601660030b8214610ade57600080fd5b7f7bb17726df1f3adee8aa00ba8e8bc5d6f182af3bbf77604639cb7f008dd3b4ed81604051610b0d9190614249565b60405180910390a1505050505050565b6000610b27612cfe565b610b318484611c41565b80925081935050507f90a5cf4cffe88b4edbb041cfc7a8a812c48a5ec30b84640fb37690875168e3aa82604051610b6891906131d0565b60405180910390a1601660030b8214610b8057600080fd5b7fa516f81c528634d0fc1e993bba1d227231b4bd6d1beb72d33b056a6199c0f98881604051610baf91906143ad565b60405180910390a19250929050565b600080610bcc858585611d75565b80925081935050507f90a5cf4cffe88b4edbb041cfc7a8a812c48a5ec30b84640fb37690875168e3aa82604051610c0391906131d0565b60405180910390a1601660030b8214610c1b57600080fd5b7f25b6684a7e8fe1b676e9c39c8dd65034fbafea906d3bdfd97bf748b7b55e14c881604051610c4a91906143cf565b60405180910390a1935093915050565b6000610c64612d6c565b610c6d83611e9d565b80925081935050507f90a5cf4cffe88b4edbb041cfc7a8a812c48a5ec30b84640fb37690875168e3aa82604051610ca491906131d0565b60405180910390a1601660030b8214610cbc57600080fd5b7f476a9a9b28e2717d55288b2ae3c48a72aac52b11f8bd855017c9d41d9fc1896481604051610ceb91906143ea565b60405180910390a1915091565b600080610d058484611fcd565b8160070b915080925081935050507f90a5cf4cffe88b4edbb041cfc7a8a812c48a5ec30b84640fb37690875168e3aa82604051610d4291906131d0565b60405180910390a1601660030b8214610d5a57600080fd5b7f59800d968fcce138300a0019410b4b75041610d65b3cdc5f31656b03ed14912e81604051610d89919061422e565b60405180910390a19250929050565b600080600061016773ffffffffffffffffffffffffffffffffffffffff16637c41ad2c60e01b85604051602401610dcf9190614249565b604051602081830303815290604052907bffffffffffffffffffffffffffffffffffffffffffffffffffffffff19166020820180517bffffffffffffffffffffffffffffffffffffffffffffffffffffffff8381831617835250505050604051610e3991906142a0565b6000604051808303816000865af19150503d8060008114610e76576040519150601f19603f3d011682016040523d82523d6000602084013e610e7b565b606091505b509150915081610e8c576015610ea1565b80806020019051810190610ea091906142f0565b5b60030b92505050919050565b6000610eb983836120f2565b60070b90507f90a5cf4cffe88b4edbb041cfc7a8a812c48a5ec30b84640fb37690875168e3aa81604051610eed91906131d0565b60405180910390a1601660030b8114610f0557600080fd5b92915050565b6000806060610f1b86868661220a565b8093508194508295505050507f90a5cf4cffe88b4edbb041cfc7a8a812c48a5ec30b84640fb37690875168e3aa83604051610f5691906131d0565b60405180910390a1601660030b8314610f6e57600080fd5b7feff23992f47b3c101679f8b4dc9d3e242c903909dba4a453f2b2341ad463b0e28282604051610f9f92919061440c565b60405180910390a193509350939050565b6000600267ffffffffffffffff811115610fcd57610fcc613c77565b5b60405190808252806020026020018201604052801561100657816020015b610ff3612cde565b815260200190600190039081610feb5790505b50905061102760006002600160405180602001604052806000815250611a89565b8160008151811061103b5761103a61431d565b5b60200260200101819052506110626004600160405180602001604052806000815250612382565b816001815181106110765761107561431d565b5b602002602001018190525060006040518060600160405280600063ffffffff1681526020018473ffffffffffffffffffffffffffffffffffffffff168152602001627a120063ffffffff1681525090506000604051806101200160405280600180546110e19061437b565b80601f016020809104026020016040519081016040528092919081815260200182805461110d9061437b565b801561115a5780601f1061112f5761010080835404028352916020019161115a565b820191906000526020600020905b81548152906001019060200180831161113d57829003601f168201915b50505050508152602001600280546111719061437b565b80601f016020809104026020016040519081016040528092919081815260200182805461119d9061437b565b80156111ea5780601f106111bf576101008083540402835291602001916111ea565b820191906000526020600020905b8154815290600101906020018083116111cd57829003601f168201915b505050505081526020018573ffffffffffffffffffffffffffffffffffffffff1681526020016003805461121d9061437b565b80601f01602080910402602001604051908101604052809291908181526020018280546112499061437b565b80156112965780601f1061126b57610100808354040283529160200191611296565b820191906000526020600020905b81548152906001019060200180831161127957829003601f168201915b50505050508152602001600115158152602001600560009054906101000a900463ffffffff1663ffffffff1681526020016000151581526020018481526020018381525090506000806112e8836123b9565b91509150601660030b82146112fc57600080fd5b7f7bb17726df1f3adee8aa00ba8e8bc5d6f182af3bbf77604639cb7f008dd3b4ed8160405161132b9190614249565b60405180910390a1505050505050565b600080600067ffffffffffffffff81111561135957611358613c77565b5b60405190808252806020026020018201604052801561139257816020015b61137f612d92565b8152602001906001900390816113775790505b509050600060405180604001604052803373ffffffffffffffffffffffffffffffffffffffff168152602001856113c89061446b565b60070b8152509050600060405180604001604052808873ffffffffffffffffffffffffffffffffffffffff1681526020018660070b81525090506000600267ffffffffffffffff81111561141f5761141e613c77565b5b60405190808252806020026020018201604052801561145857816020015b611445612de2565b81526020019060019003908161143d5790505b50905082816000815181106114705761146f61431d565b5b602002602001018190525081816001815181106114905761148f61431d565b5b6020026020010181905250600060405180606001604052808973ffffffffffffffffffffffffffffffffffffffff1681526020018381526020018681525090506000600167ffffffffffffffff8111156114ed576114ec613c77565b5b60405190808252806020026020018201604052801561152657816020015b611513612e15565b81526020019060019003908161150b5790505b509050818160008151811061153e5761153d61431d565b5b602002602001018190525061155281612531565b9650601660030b871461156457600080fd5b5050505050509392505050565b600061157e848484612646565b90507f90a5cf4cffe88b4edbb041cfc7a8a812c48a5ec30b84640fb37690875168e3aa816040516115af91906131d0565b60405180910390a1601660030b81146115c757600080fd5b9392505050565b60006115d8612e4c565b6115e183612761565b80925081935050507f90a5cf4cffe88b4edbb041cfc7a8a812c48a5ec30b84640fb37690875168e3aa8260405161161891906131d0565b60405180910390a1601660030b821461163057600080fd5b7f528c7dcea75f0c9e110a038e50647cd6a70ac06d331399b77dd9a80f903ebc168160405161165f91906144b4565b60405180910390a1915091565b60006116788383612891565b90507f90a5cf4cffe88b4edbb041cfc7a8a812c48a5ec30b84640fb37690875168e3aa816040516116a991906131d0565b60405180910390a1601660030b81146116c157600080fd5b92915050565b60006116d48484846129a9565b90507f90a5cf4cffe88b4edbb041cfc7a8a812c48a5ec30b84640fb37690875168e3aa8160405161170591906131d0565b60405180910390a1601660030b811461171d57600080fd5b9392505050565b60008060008061016773ffffffffffffffffffffffffffffffffffffffff1663f49f40db60e01b888888604051602401611760939291906144d6565b604051602081830303815290604052907bffffffffffffffffffffffffffffffffffffffffffffffffffffffff19166020820180517bffffffffffffffffffffffffffffffffffffffffffffffffffffffff83818316178352505050506040516117ca91906142a0565b6000604051808303816000865af19150503d8060008114611807576040519150601f19603f3d011682016040523d82523d6000602084013e61180c565b606091505b50915091508161181f5760156000611834565b808060200190518101906118339190614522565b5b8160030b915080945081955050505050935093915050565b60008060008061016773ffffffffffffffffffffffffffffffffffffffff1663098f236660e01b8787604051602401611886929190614562565b604051602081830303815290604052907bffffffffffffffffffffffffffffffffffffffffffffffffffffffff19166020820180517bffffffffffffffffffffffffffffffffffffffffffffffffffffffff83818316178352505050506040516118f091906142a0565b6000604051808303816000865af19150503d806000811461192d576040519150601f19603f3d011682016040523d82523d6000602084013e611932565b606091505b509150915081611945576015600061195a565b8080602001905181019061195991906145c9565b5b8160030b9150809450819550505050509250929050565b600080600061016773ffffffffffffffffffffffffffffffffffffffff166352f9138760e01b86866040516024016119aa929190614609565b604051602081830303815290604052907bffffffffffffffffffffffffffffffffffffffffffffffffffffffff19166020820180517bffffffffffffffffffffffffffffffffffffffffffffffffffffffff8381831617835250505050604051611a1491906142a0565b6000604051808303816000865af19150503d8060008114611a51576040519150601f19603f3d011682016040523d82523d6000602084013e611a56565b606091505b509150915081611a67576015611a7c565b80806020019051810190611a7b91906142f0565b5b60030b9250505092915050565b611a91612cde565b6040518060400160405280611aa68787612ac4565b8152602001611ab58585612af6565b8152509050949350505050565b6000808460008161010001516000015163ffffffff16148015611af4575060008161010001516040015163ffffffff16145b15611b1a576276a7008161010001516040019063ffffffff16908163ffffffff16815250505b60008061016773ffffffffffffffffffffffffffffffffffffffff1634637812a04b60e01b8a8a8a604051602401611b549392919061470c565b604051602081830303815290604052907bffffffffffffffffffffffffffffffffffffffffffffffffffffffff19166020820180517bffffffffffffffffffffffffffffffffffffffffffffffffffffffff8381831617835250505050604051611bbe91906142a0565b60006040518083038185875af1925050503d8060008114611bfb576040519150601f19603f3d011682016040523d82523d6000602084013e611c00565b606091505b509150915081611c135760156000611c28565b80806020019051810190611c2791906145c9565b5b8160030b91508095508196505050505050935093915050565b6000611c4b612cfe565b60008061016773ffffffffffffffffffffffffffffffffffffffff1663287e1da860e01b8787604051602401611c82929190614759565b604051602081830303815290604052907bffffffffffffffffffffffffffffffffffffffffffffffffffffffff19166020820180517bffffffffffffffffffffffffffffffffffffffffffffffffffffffff8381831617835250505050604051611cec91906142a0565b6000604051808303816000865af19150503d8060008114611d29576040519150601f19603f3d011682016040523d82523d6000602084013e611d2e565b606091505b5091509150611d3b612cfe565b82611d4857601581611d5d565b81806020019051810190611d5c919061533b565b5b8160030b915080955081965050505050509250929050565b60008060008061016773ffffffffffffffffffffffffffffffffffffffff1663927da10560e01b888888604051602401611db1939291906144d6565b604051602081830303815290604052907bffffffffffffffffffffffffffffffffffffffffffffffffffffffff19166020820180517bffffffffffffffffffffffffffffffffffffffffffffffffffffffff8381831617835250505050604051611e1b91906142a0565b6000604051808303816000865af19150503d8060008114611e58576040519150601f19603f3d011682016040523d82523d6000602084013e611e5d565b606091505b509150915081611e705760156000611e85565b80806020019051810190611e849190615397565b5b8160030b915080945081955050505050935093915050565b6000611ea7612d6c565b60008061016773ffffffffffffffffffffffffffffffffffffffff16633f28a19b60e01b86604051602401611edc9190614249565b604051602081830303815290604052907bffffffffffffffffffffffffffffffffffffffffffffffffffffffff19166020820180517bffffffffffffffffffffffffffffffffffffffffffffffffffffffff8381831617835250505050604051611f4691906142a0565b6000604051808303816000865af19150503d8060008114611f83576040519150601f19603f3d011682016040523d82523d6000602084013e611f88565b606091505b5091509150611f95612d6c565b82611fa257601581611fb7565b81806020019051810190611fb69190615443565b5b8160030b91508095508196505050505050915091565b60008060008061016773ffffffffffffffffffffffffffffffffffffffff166346de0fb160e01b8787604051602401612007929190614609565b604051602081830303815290604052907bffffffffffffffffffffffffffffffffffffffffffffffffffffffff19166020820180517bffffffffffffffffffffffffffffffffffffffffffffffffffffffff838183161783525050505060405161207191906142a0565b6000604051808303816000865af19150503d80600081146120ae576040519150601f19603f3d011682016040523d82523d6000602084013e6120b3565b606091505b5091509150816120c657601560006120db565b808060200190518101906120da9190614522565b5b8160030b9150809450819550505050509250929050565b600080600061016773ffffffffffffffffffffffffffffffffffffffff16635b8f858460e01b868660405160240161212b929190614609565b604051602081830303815290604052907bffffffffffffffffffffffffffffffffffffffffffffffffffffffff19166020820180517bffffffffffffffffffffffffffffffffffffffffffffffffffffffff838183161783525050505060405161219591906142a0565b6000604051808303816000865af19150503d80600081146121d2576040519150601f19603f3d011682016040523d82523d6000602084013e6121d7565b606091505b5091509150816121e85760156121fd565b808060200190518101906121fc91906142f0565b5b60030b9250505092915050565b600080606060008061016773ffffffffffffffffffffffffffffffffffffffff1663278e0b8860e01b89898960405160240161224893929190615561565b604051602081830303815290604052907bffffffffffffffffffffffffffffffffffffffffffffffffffffffff19166020820180517bffffffffffffffffffffffffffffffffffffffffffffffffffffffff83818316178352505050506040516122b291906142a0565b6000604051808303816000865af19150503d80600081146122ef576040519150601f19603f3d011682016040523d82523d6000602084013e6122f4565b606091505b50915091508161235057601560008067ffffffffffffffff81111561231c5761231b613c77565b5b60405190808252806020026020018201604052801561234a5781602001602082028036833780820191505090505b50612365565b808060200190518101906123649190615662565b5b8260030b9250809550819650829750505050505093509350939050565b61238a612cde565b604051806040016040528061239e86612c2c565b81526020016123ad8585612af6565b81525090509392505050565b6000808260008161010001516000015163ffffffff161480156123eb575060008161010001516040015163ffffffff16145b15612411576276a7008161010001516040019063ffffffff16908163ffffffff16815250505b60008061016773ffffffffffffffffffffffffffffffffffffffff1634639dc711e060e01b8860405160240161244791906156d1565b604051602081830303815290604052907bffffffffffffffffffffffffffffffffffffffffffffffffffffffff19166020820180517bffffffffffffffffffffffffffffffffffffffffffffffffffffffff83818316178352505050506040516124b191906142a0565b60006040518083038185875af1925050503d80600081146124ee576040519150601f19603f3d011682016040523d82523d6000602084013e6124f3565b606091505b509150915081612506576015600061251b565b8080602001905181019061251a91906145c9565b5b8160030b91508095508196505050505050915091565b600080600061016773ffffffffffffffffffffffffffffffffffffffff1663189a554c60e01b8560405160240161256891906159db565b604051602081830303815290604052907bffffffffffffffffffffffffffffffffffffffffffffffffffffffff19166020820180517bffffffffffffffffffffffffffffffffffffffffffffffffffffffff83818316178352505050506040516125d291906142a0565b6000604051808303816000865af19150503d806000811461260f576040519150601f19603f3d011682016040523d82523d6000602084013e612614565b606091505b50915091508161262557601561263a565b8080602001905181019061263991906142f0565b5b60030b92505050919050565b600080600061016773ffffffffffffffffffffffffffffffffffffffff1663367605ca60e01b878787604051602401612681939291906159fd565b604051602081830303815290604052907bffffffffffffffffffffffffffffffffffffffffffffffffffffffff19166020820180517bffffffffffffffffffffffffffffffffffffffffffffffffffffffff83818316178352505050506040516126eb91906142a0565b6000604051808303816000865af19150503d8060008114612728576040519150601f19603f3d011682016040523d82523d6000602084013e61272d565b606091505b50915091508161273e576015612753565b8080602001905181019061275291906142f0565b5b60030b925050509392505050565b600061276b612e4c565b60008061016773ffffffffffffffffffffffffffffffffffffffff16631f69565f60e01b866040516024016127a09190614249565b604051602081830303815290604052907bffffffffffffffffffffffffffffffffffffffffffffffffffffffff19166020820180517bffffffffffffffffffffffffffffffffffffffffffffffffffffffff838183161783525050505060405161280a91906142a0565b6000604051808303816000865af19150503d8060008114612847576040519150601f19603f3d011682016040523d82523d6000602084013e61284c565b606091505b5091509150612859612e4c565b826128665760158161287b565b8180602001905181019061287a9190615a34565b5b8160030b91508095508196505050505050915091565b600080600061016773ffffffffffffffffffffffffffffffffffffffff166349146bde60e01b86866040516024016128ca929190614609565b604051602081830303815290604052907bffffffffffffffffffffffffffffffffffffffffffffffffffffffff19166020820180517bffffffffffffffffffffffffffffffffffffffffffffffffffffffff838183161783525050505060405161293491906142a0565b6000604051808303816000865af19150503d8060008114612971576040519150601f19603f3d011682016040523d82523d6000602084013e612976565b606091505b50915091508161298757601561299c565b8080602001905181019061299b91906142f0565b5b60030b9250505092915050565b600080600061016773ffffffffffffffffffffffffffffffffffffffff1663e1f21c6760e01b8787876040516024016129e493929190615a90565b604051602081830303815290604052907bffffffffffffffffffffffffffffffffffffffffffffffffffffffff19166020820180517bffffffffffffffffffffffffffffffffffffffffffffffffffffffff8381831617835250505050604051612a4e91906142a0565b6000604051808303816000865af19150503d8060008114612a8b576040519150601f19603f3d011682016040523d82523d6000602084013e612a90565b606091505b509150915081612aa1576015612ab6565b80806020019051810190612ab591906142f0565b5b60030b925050509392505050565b6000612ad98382612cca90919063ffffffff16565b9050612aee8282612cca90919063ffffffff16565b905092915050565b612afe612eae565b60018360ff161415612b20576001816000019015159081151581525050612c26565b60028360ff161415612b895760008054906101000a900473ffffffffffffffffffffffffffffffffffffffff16816020019073ffffffffffffffffffffffffffffffffffffffff16908173ffffffffffffffffffffffffffffffffffffffff1681525050612c25565b60038360ff161415612ba357818160400181905250612c24565b60048360ff161415612bbd57818160600181905250612c23565b60058360ff161415612c225760008054906101000a900473ffffffffffffffffffffffffffffffffffffffff16816080019073ffffffffffffffffffffffffffffffffffffffff16908173ffffffffffffffffffffffffffffffffffffffff16815250505b5b5b5b5b92915050565b6000808260ff161415612c425760019050612cc5565b60018260ff161415612c575760029050612cc5565b60028260ff161415612c6c5760049050612cc5565b60038260ff161415612c815760089050612cc5565b60048260ff161415612c965760109050612cc5565b60058260ff161415612cab5760209050612cc5565b60068260ff161415612cc05760409050612cc5565b600090505b919050565b60008160ff166001901b8317905092915050565b604051806040016040528060008152602001612cf8612eae565b81525090565b6040518060c00160405280612d11612e4c565b8152602001600060070b8152602001600073ffffffffffffffffffffffffffffffffffffffff168152602001600060070b815260200160608152602001600073ffffffffffffffffffffffffffffffffffffffff1681525090565b6040518060400160405280612d7f612e4c565b8152602001600063ffffffff1681525090565b6040518060600160405280600073ffffffffffffffffffffffffffffffffffffffff168152602001600073ffffffffffffffffffffffffffffffffffffffff168152602001600060070b81525090565b6040518060400160405280600073ffffffffffffffffffffffffffffffffffffffff168152602001600060070b81525090565b6040518060600160405280600073ffffffffffffffffffffffffffffffffffffffff16815260200160608152602001606081525090565b604051806101200160405280612e60612f0b565b8152602001600067ffffffffffffffff168152602001600015158152602001600015158152602001600015158152602001606081526020016060815260200160608152602001606081525090565b6040518060a00160405280600015158152602001600073ffffffffffffffffffffffffffffffffffffffff1681526020016060815260200160608152602001600073ffffffffffffffffffffffffffffffffffffffff1681525090565b6040518061012001604052806060815260200160608152602001600073ffffffffffffffffffffffffffffffffffffffff16815260200160608152602001600015158152602001600063ffffffff16815260200160001515815260200160608152602001612f77612f7d565b81525090565b6040518060600160405280600063ffffffff168152602001600073ffffffffffffffffffffffffffffffffffffffff168152602001600063ffffffff1681525090565b6000604051905090565b600080fd5b600080fd5b600073ffffffffffffffffffffffffffffffffffffffff82169050919050565b6000612fff82612fd4565b9050919050565b61300f81612ff4565b811461301a57600080fd5b50565b60008135905061302c81613006565b92915050565b60008060006060848603121561304b5761304a612fca565b5b60006130598682870161301d565b935050602061306a8682870161301d565b925050604061307b8682870161301d565b9150509250925092565b6000819050919050565b61309881613085565b82525050565b60008115159050919050565b6130b38161309e565b82525050565b60006040820190506130ce600083018561308f565b6130db60208301846130aa565b9392505050565b6000819050919050565b6130f5816130e2565b811461310057600080fd5b50565b600081359050613112816130ec565b92915050565b6000806040838503121561312f5761312e612fca565b5b600061313d8582860161301d565b925050602061314e85828601613103565b9150509250929050565b61316181612ff4565b82525050565b600060408201905061317c600083018561308f565b6131896020830184613158565b9392505050565b600080604083850312156131a7576131a6612fca565b5b60006131b58582860161301d565b92505060206131c68582860161301d565b9150509250929050565b60006020820190506131e5600083018461308f565b92915050565b60006020828403121561320157613200612fca565b5b600061320f8482850161301d565b91505092915050565b60008160070b9050919050565b61322e81613218565b811461323957600080fd5b50565b60008135905061324b81613225565b92915050565b6000806040838503121561326857613267612fca565b5b60006132768582860161301d565b92505060206132878582860161323c565b9150509250929050565b600081519050919050565b600082825260208201905092915050565b60005b838110156132cb5780820151818401526020810190506132b0565b838111156132da576000848401525b50505050565b6000601f19601f8301169050919050565b60006132fc82613291565b613306818561329c565b93506133168185602086016132ad565b61331f816132e0565b840191505092915050565b61333381612ff4565b82525050565b6133428161309e565b82525050565b600063ffffffff82169050919050565b61336181613348565b82525050565b600081519050919050565b600082825260208201905092915050565b6000819050602082019050919050565b61339c816130e2565b82525050565b600081519050919050565b600082825260208201905092915050565b60006133c9826133a2565b6133d381856133ad565b93506133e38185602086016132ad565b6133ec816132e0565b840191505092915050565b600060a08301600083015161340f6000860182613339565b506020830151613422602086018261332a565b506040830151848203604086015261343a82826133be565b9150506060830151848203606086015261345482826133be565b9150506080830151613469608086018261332a565b508091505092915050565b600060408301600083015161348c6000860182613393565b50602083015184820360208601526134a482826133f7565b9150508091505092915050565b60006134bd8383613474565b905092915050565b6000602082019050919050565b60006134dd82613367565b6134e78185613372565b9350836020820285016134f985613383565b8060005b85811015613535578484038952815161351685826134b1565b9450613521836134c5565b925060208a019950506001810190506134fd565b50829750879550505050505092915050565b60608201600082015161355d6000850182613358565b506020820151613570602085018261332a565b5060408201516135836040850182613358565b50505050565b60006101608301600083015184820360008601526135a782826132f1565b915050602083015184820360208601526135c182826132f1565b91505060408301516135d6604086018261332a565b50606083015184820360608601526135ee82826132f1565b91505060808301516136036080860182613339565b5060a083015161361660a0860182613358565b5060c083015161362960c0860182613339565b5060e083015184820360e086015261364182826134d2565b915050610100830151613658610100860182613547565b508091505092915050565b600067ffffffffffffffff82169050919050565b61368081613663565b82525050565b600081519050919050565b600082825260208201905092915050565b6000819050602082019050919050565b60a0820160008201516136c86000850182613358565b5060208201516136db602085018261332a565b5060408201516136ee6040850182613339565b5060608201516137016060850182613339565b506080820151613714608085018261332a565b50505050565b600061372683836136b2565b60a08301905092915050565b6000602082019050919050565b600061374a82613686565b6137548185613691565b935061375f836136a2565b8060005b83811015613790578151613777888261371a565b975061378283613732565b925050600181019050613763565b5085935050505092915050565b600081519050919050565b600082825260208201905092915050565b6000819050602082019050919050565b60c0820160008201516137df6000850182613358565b5060208201516137f26020850182613358565b5060408201516138056040850182613358565b5060608201516138186060850182613358565b50608082015161382b6080850182613339565b5060a082015161383e60a085018261332a565b50505050565b600061385083836137c9565b60c08301905092915050565b6000602082019050919050565b60006138748261379d565b61387e81856137a8565b9350613889836137b9565b8060005b838110156138ba5781516138a18882613844565b97506138ac8361385c565b92505060018101905061388d565b5085935050505092915050565b600081519050919050565b600082825260208201905092915050565b6000819050602082019050919050565b60c0820160008201516139096000850182613358565b50602082015161391c6020850182613358565b50604082015161392f6040850182613358565b506060820151613942606085018261332a565b5060808201516139556080850182613339565b5060a082015161396860a085018261332a565b50505050565b600061397a83836138f3565b60c08301905092915050565b6000602082019050919050565b600061399e826138c7565b6139a881856138d2565b93506139b3836138e3565b8060005b838110156139e45781516139cb888261396e565b97506139d683613986565b9250506001810190506139b7565b5085935050505092915050565b6000610120830160008301518482036000860152613a0f8282613589565b9150506020830151613a246020860182613677565b506040830151613a376040860182613339565b506060830151613a4a6060860182613339565b506080830151613a5d6080860182613339565b5060a083015184820360a0860152613a75828261373f565b91505060c083015184820360c0860152613a8f8282613869565b91505060e083015184820360e0860152613aa98282613993565b915050610100830151848203610100860152613ac582826132f1565b9150508091505092915050565b613adb81613218565b82525050565b600060c0830160008301518482036000860152613afe82826139f1565b9150506020830151613b136020860182613ad2565b506040830151613b26604086018261332a565b506060830151613b396060860182613ad2565b5060808301518482036080860152613b5182826133be565b91505060a0830151613b6660a086018261332a565b508091505092915050565b6000604082019050613b86600083018561308f565b8181036020830152613b988184613ae1565b90509392505050565b613baa816130e2565b82525050565b6000604082019050613bc5600083018561308f565b613bd26020830184613ba1565b9392505050565b60006040830160008301518482036000860152613bf682826139f1565b9150506020830151613c0b6020860182613358565b508091505092915050565b6000604082019050613c2b600083018561308f565b8181036020830152613c3d8184613bd9565b90509392505050565b613c4f81613663565b8114613c5a57600080fd5b50565b600081359050613c6c81613c46565b92915050565b600080fd5b7f4e487b7100000000000000000000000000000000000000000000000000000000600052604160045260246000fd5b613caf826132e0565b810181811067ffffffffffffffff82111715613cce57613ccd613c77565b5b80604052505050565b6000613ce1612fc0565b9050613ced8282613ca6565b919050565b600067ffffffffffffffff821115613d0d57613d0c613c77565b5b602082029050602081019050919050565b600080fd5b600080fd5b600067ffffffffffffffff821115613d4357613d42613c77565b5b613d4c826132e0565b9050602081019050919050565b82818337600083830152505050565b6000613d7b613d7684613d28565b613cd7565b905082815260208101848484011115613d9757613d96613d23565b5b613da2848285613d59565b509392505050565b600082601f830112613dbf57613dbe613c72565b5b8135613dcf848260208601613d68565b91505092915050565b6000613deb613de684613cf2565b613cd7565b90508083825260208201905060208402830185811115613e0e57613e0d613d1e565b5b835b81811015613e5557803567ffffffffffffffff811115613e3357613e32613c72565b5b808601613e408982613daa565b85526020850194505050602081019050613e10565b5050509392505050565b600082601f830112613e7457613e73613c72565b5b8135613e84848260208601613dd8565b91505092915050565b600080600060608486031215613ea657613ea5612fca565b5b6000613eb48682870161301d565b9350506020613ec586828701613c5d565b925050604084013567ffffffffffffffff811115613ee657613ee5612fcf565b5b613ef286828701613e5f565b9150509250925092565b613f0581613663565b82525050565b600081519050919050565b600082825260208201905092915050565b6000819050602082019050919050565b6000613f438383613ad2565b60208301905092915050565b6000602082019050919050565b6000613f6782613f0b565b613f718185613f16565b9350613f7c83613f27565b8060005b83811015613fad578151613f948882613f37565b9750613f9f83613f4f565b925050600181019050613f80565b5085935050505092915050565b6000606082019050613fcf600083018661308f565b613fdc6020830185613efc565b8181036040830152613fee8184613f5c565b9050949350505050565b60008060006060848603121561401157614010612fca565b5b600061401f8682870161301d565b93505060206140308682870161301d565b92505060406140418682870161323c565b9150509250925092565b6140548161309e565b811461405f57600080fd5b50565b6000813590506140718161404b565b92915050565b6000806000606084860312156140905761408f612fca565b5b600061409e8682870161301d565b93505060206140af8682870161301d565b92505060406140c086828701614062565b9150509250925092565b60006101208301600083015184820360008601526140e88282613589565b91505060208301516140fd6020860182613677565b5060408301516141106040860182613339565b5060608301516141236060860182613339565b5060808301516141366080860182613339565b5060a083015184820360a086015261414e828261373f565b91505060c083015184820360c08601526141688282613869565b91505060e083015184820360e08601526141828282613993565b91505061010083015184820361010086015261419e82826132f1565b9150508091505092915050565b60006040820190506141c0600083018561308f565b81810360208301526141d281846140ca565b90509392505050565b6000806000606084860312156141f4576141f3612fca565b5b60006142028682870161301d565b93505060206142138682870161301d565b925050604061422486828701613103565b9150509250925092565b600060208201905061424360008301846130aa565b92915050565b600060208201905061425e6000830184613158565b92915050565b600081905092915050565b600061427a826133a2565b6142848185614264565b93506142948185602086016132ad565b80840191505092915050565b60006142ac828461426f565b915081905092915050565b60008160030b9050919050565b6142cd816142b7565b81146142d857600080fd5b50565b6000815190506142ea816142c4565b92915050565b60006020828403121561430657614305612fca565b5b6000614314848285016142db565b91505092915050565b7f4e487b7100000000000000000000000000000000000000000000000000000000600052603260045260246000fd5b7f4e487b7100000000000000000000000000000000000000000000000000000000600052602260045260246000fd5b6000600282049050600182168061439357607f821691505b602082108114156143a7576143a661434c565b5b50919050565b600060208201905081810360008301526143c78184613ae1565b905092915050565b60006020820190506143e46000830184613ba1565b92915050565b600060208201905081810360008301526144048184613bd9565b905092915050565b60006040820190506144216000830185613efc565b81810360208301526144338184613f5c565b90509392505050565b7f4e487b7100000000000000000000000000000000000000000000000000000000600052601160045260246000fd5b600061447682613218565b91507fffffffffffffffffffffffffffffffffffffffffffffffff80000000000000008214156144a9576144a861443c565b5b816000039050919050565b600060208201905081810360008301526144ce81846140ca565b905092915050565b60006060820190506144eb6000830186613158565b6144f86020830185613158565b6145056040830184613158565b949350505050565b60008151905061451c8161404b565b92915050565b6000806040838503121561453957614538612fca565b5b6000614547858286016142db565b92505060206145588582860161450d565b9150509250929050565b60006040820190506145776000830185613158565b6145846020830184613ba1565b9392505050565b600061459682612fd4565b9050919050565b6145a68161458b565b81146145b157600080fd5b50565b6000815190506145c38161459d565b92915050565b600080604083850312156145e0576145df612fca565b5b60006145ee858286016142db565b92505060206145ff858286016145b4565b9150509250929050565b600060408201905061461e6000830185613158565b61462b6020830184613158565b9392505050565b600061016083016000830151848203600086015261465082826132f1565b9150506020830151848203602086015261466a82826132f1565b915050604083015161467f604086018261332a565b506060830151848203606086015261469782826132f1565b91505060808301516146ac6080860182613339565b5060a08301516146bf60a0860182613358565b5060c08301516146d260c0860182613339565b5060e083015184820360e08601526146ea82826134d2565b915050610100830151614701610100860182613547565b508091505092915050565b600060608201905081810360008301526147268186614632565b90506147356020830185613ba1565b6147426040830184613ba1565b949350505050565b61475381613218565b82525050565b600060408201905061476e6000830185613158565b61477b602083018461474a565b9392505050565b600080fd5b600080fd5b600067ffffffffffffffff8211156147a7576147a6613c77565b5b6147b0826132e0565b9050602081019050919050565b60006147d06147cb8461478c565b613cd7565b9050828152602081018484840111156147ec576147eb613d23565b5b6147f78482856132ad565b509392505050565b600082601f83011261481457614813613c72565b5b81516148248482602086016147bd565b91505092915050565b60008151905061483c81613006565b92915050565b61484b81613348565b811461485657600080fd5b50565b60008151905061486881614842565b92915050565b600067ffffffffffffffff82111561488957614888613c77565b5b602082029050602081019050919050565b6000815190506148a9816130ec565b92915050565b60006148c26148bd84613d28565b613cd7565b9050828152602081018484840111156148de576148dd613d23565b5b6148e98482856132ad565b509392505050565b600082601f83011261490657614905613c72565b5b81516149168482602086016148af565b91505092915050565b600060a0828403121561493557614934614782565b5b61493f60a0613cd7565b9050600061494f8482850161450d565b60008301525060206149638482850161482d565b602083015250604082015167ffffffffffffffff81111561498757614986614787565b5b614993848285016148f1565b604083015250606082015167ffffffffffffffff8111156149b7576149b6614787565b5b6149c3848285016148f1565b60608301525060806149d78482850161482d565b60808301525092915050565b6000604082840312156149f9576149f8614782565b5b614a036040613cd7565b90506000614a138482850161489a565b600083015250602082015167ffffffffffffffff811115614a3757614a36614787565b5b614a438482850161491f565b60208301525092915050565b6000614a62614a5d8461486e565b613cd7565b90508083825260208201905060208402830185811115614a8557614a84613d1e565b5b835b81811015614acc57805167ffffffffffffffff811115614aaa57614aa9613c72565b5b808601614ab789826149e3565b85526020850194505050602081019050614a87565b5050509392505050565b600082601f830112614aeb57614aea613c72565b5b8151614afb848260208601614a4f565b91505092915050565b600060608284031215614b1a57614b19614782565b5b614b246060613cd7565b90506000614b3484828501614859565b6000830152506020614b488482850161482d565b6020830152506040614b5c84828501614859565b60408301525092915050565b60006101608284031215614b7f57614b7e614782565b5b614b8a610120613cd7565b9050600082015167ffffffffffffffff811115614baa57614ba9614787565b5b614bb6848285016147ff565b600083015250602082015167ffffffffffffffff811115614bda57614bd9614787565b5b614be6848285016147ff565b6020830152506040614bfa8482850161482d565b604083015250606082015167ffffffffffffffff811115614c1e57614c1d614787565b5b614c2a848285016147ff565b6060830152506080614c3e8482850161450d565b60808301525060a0614c5284828501614859565b60a08301525060c0614c668482850161450d565b60c08301525060e082015167ffffffffffffffff811115614c8a57614c89614787565b5b614c9684828501614ad6565b60e083015250610100614cab84828501614b04565b6101008301525092915050565b600081519050614cc781613c46565b92915050565b600067ffffffffffffffff821115614ce857614ce7613c77565b5b602082029050602081019050919050565b600060a08284031215614d0f57614d0e614782565b5b614d1960a0613cd7565b90506000614d2984828501614859565b6000830152506020614d3d8482850161482d565b6020830152506040614d518482850161450d565b6040830152506060614d658482850161450d565b6060830152506080614d798482850161482d565b60808301525092915050565b6000614d98614d9384614ccd565b613cd7565b90508083825260208201905060a08402830185811115614dbb57614dba613d1e565b5b835b81811015614de45780614dd08882614cf9565b84526020840193505060a081019050614dbd565b5050509392505050565b600082601f830112614e0357614e02613c72565b5b8151614e13848260208601614d85565b91505092915050565b600067ffffffffffffffff821115614e3757614e36613c77565b5b602082029050602081019050919050565b600060c08284031215614e5e57614e5d614782565b5b614e6860c0613cd7565b90506000614e7884828501614859565b6000830152506020614e8c84828501614859565b6020830152506040614ea084828501614859565b6040830152506060614eb484828501614859565b6060830152506080614ec88482850161450d565b60808301525060a0614edc8482850161482d565b60a08301525092915050565b6000614efb614ef684614e1c565b613cd7565b90508083825260208201905060c08402830185811115614f1e57614f1d613d1e565b5b835b81811015614f475780614f338882614e48565b84526020840193505060c081019050614f20565b5050509392505050565b600082601f830112614f6657614f65613c72565b5b8151614f76848260208601614ee8565b91505092915050565b600067ffffffffffffffff821115614f9a57614f99613c77565b5b602082029050602081019050919050565b600060c08284031215614fc157614fc0614782565b5b614fcb60c0613cd7565b90506000614fdb84828501614859565b6000830152506020614fef84828501614859565b602083015250604061500384828501614859565b60408301525060606150178482850161482d565b606083015250608061502b8482850161450d565b60808301525060a061503f8482850161482d565b60a08301525092915050565b600061505e61505984614f7f565b613cd7565b90508083825260208201905060c0840283018581111561508157615080613d1e565b5b835b818110156150aa57806150968882614fab565b84526020840193505060c081019050615083565b5050509392505050565b600082601f8301126150c9576150c8613c72565b5b81516150d984826020860161504b565b91505092915050565b600061012082840312156150f9576150f8614782565b5b615104610120613cd7565b9050600082015167ffffffffffffffff81111561512457615123614787565b5b61513084828501614b68565b600083015250602061514484828501614cb8565b60208301525060406151588482850161450d565b604083015250606061516c8482850161450d565b60608301525060806151808482850161450d565b60808301525060a082015167ffffffffffffffff8111156151a4576151a3614787565b5b6151b084828501614dee565b60a08301525060c082015167ffffffffffffffff8111156151d4576151d3614787565b5b6151e084828501614f51565b60c08301525060e082015167ffffffffffffffff81111561520457615203614787565b5b615210848285016150b4565b60e08301525061010082015167ffffffffffffffff81111561523557615234614787565b5b615241848285016147ff565b6101008301525092915050565b60008151905061525d81613225565b92915050565b600060c0828403121561527957615278614782565b5b61528360c0613cd7565b9050600082015167ffffffffffffffff8111156152a3576152a2614787565b5b6152af848285016150e2565b60008301525060206152c38482850161524e565b60208301525060406152d78482850161482d565b60408301525060606152eb8482850161524e565b606083015250608082015167ffffffffffffffff81111561530f5761530e614787565b5b61531b848285016148f1565b60808301525060a061532f8482850161482d565b60a08301525092915050565b6000806040838503121561535257615351612fca565b5b6000615360858286016142db565b925050602083015167ffffffffffffffff81111561538157615380612fcf565b5b61538d85828601615263565b9150509250929050565b600080604083850312156153ae576153ad612fca565b5b60006153bc858286016142db565b92505060206153cd8582860161489a565b9150509250929050565b6000604082840312156153ed576153ec614782565b5b6153f76040613cd7565b9050600082015167ffffffffffffffff81111561541757615416614787565b5b615423848285016150e2565b600083015250602061543784828501614859565b60208301525092915050565b6000806040838503121561545a57615459612fca565b5b6000615468858286016142db565b925050602083015167ffffffffffffffff81111561548957615488612fcf565b5b615495858286016153d7565b9150509250929050565b600081519050919050565b600082825260208201905092915050565b6000819050602082019050919050565b60006154d783836133be565b905092915050565b6000602082019050919050565b60006154f78261549f565b61550181856154aa565b935083602082028501615513856154bb565b8060005b8581101561554f578484038952815161553085826154cb565b945061553b836154df565b925060208a01995050600181019050615517565b50829750879550505050505092915050565b60006060820190506155766000830186613158565b6155836020830185613efc565b818103604083015261559581846154ec565b9050949350505050565b600067ffffffffffffffff8211156155ba576155b9613c77565b5b602082029050602081019050919050565b60006155de6155d98461559f565b613cd7565b9050808382526020820190506020840283018581111561560157615600613d1e565b5b835b8181101561562a5780615616888261524e565b845260208401935050602081019050615603565b5050509392505050565b600082601f83011261564957615648613c72565b5b81516156598482602086016155cb565b91505092915050565b60008060006060848603121561567b5761567a612fca565b5b6000615689868287016142db565b935050602061569a86828701614cb8565b925050604084015167ffffffffffffffff8111156156bb576156ba612fcf565b5b6156c786828701615634565b9150509250925092565b600060208201905081810360008301526156eb8184614632565b905092915050565b600081519050919050565b600082825260208201905092915050565b6000819050602082019050919050565b600081519050919050565b600082825260208201905092915050565b6000819050602082019050919050565b604082016000820151615761600085018261332a565b5060208201516157746020850182613ad2565b50505050565b6000615786838361574b565b60408301905092915050565b6000602082019050919050565b60006157aa8261571f565b6157b4818561572a565b93506157bf8361573b565b8060005b838110156157f05781516157d7888261577a565b97506157e283615792565b9250506001810190506157c3565b5085935050505092915050565b600081519050919050565b600082825260208201905092915050565b6000819050602082019050919050565b60608201600082015161583f600085018261332a565b506020820151615852602085018261332a565b5060408201516158656040850182613ad2565b50505050565b60006158778383615829565b60608301905092915050565b6000602082019050919050565b600061589b826157fd565b6158a58185615808565b93506158b083615819565b8060005b838110156158e15781516158c8888261586b565b97506158d383615883565b9250506001810190506158b4565b5085935050505092915050565b6000606083016000830151615906600086018261332a565b506020830151848203602086015261591e828261579f565b915050604083015184820360408601526159388282615890565b9150508091505092915050565b600061595183836158ee565b905092915050565b6000602082019050919050565b6000615971826156f3565b61597b81856156fe565b93508360208202850161598d8561570f565b8060005b858110156159c957848403895281516159aa8582615945565b94506159b583615959565b925060208a01995050600181019050615991565b50829750879550505050505092915050565b600060208201905081810360008301526159f58184615966565b905092915050565b6000606082019050615a126000830186613158565b615a1f6020830185613158565b615a2c60408301846130aa565b949350505050565b60008060408385031215615a4b57615a4a612fca565b5b6000615a59858286016142db565b925050602083015167ffffffffffffffff811115615a7a57615a79612fcf565b5b615a86858286016150e2565b9150509250929050565b6000606082019050615aa56000830186613158565b615ab26020830185613158565b615abf6040830184613ba1565b94935050505056fea26469706673582212201368d28be8d0ff166c6c95c28207fc585ad58b9120ba58c71bf684fd0693ab3f64736f6c63430008090033",
  "linkReferences": {},
  "deployedLinkReferences": {}
}