{
  "_format": "hh-sol-artifact-1",
  "contractName": "BaseHTS",
  "sourceName": "contracts/BaseHTS.sol",
  "abi": [
    {
      "anonymous": false,
      "inputs": [
        {
          "indexed": false,
          "internalType": "uint256",
          "name": "amount",
          "type": "uint256"
        }
      ],
      "name": "AllowanceValue",
      "type": "event"
    },
    {
      "anonymous": false,
      "inputs": [
        {
          "indexed": false,
          "internalType": "bool",
          "name": "approved",
          "type": "bool"
        }
      ],
      "name": "Approved",
      "type": "event"
    },
    {
      "anonymous": false,
      "inputs": [
        {
          "indexed": false,
          "internalType": "address",
          "name": "approved",
          "type": "address"
        }
      ],
      "name": "ApprovedAddress",
      "type": "event"
    },
    {
      "anonymous": false,
      "inputs": [
        {
          "indexed": false,
          "internalType": "address",
          "name": "tokenAddress",
          "type": "address"
        }
      ],
      "name": "CreatedToken",
      "type": "event"
    },
    {
      "anonymous": false,
      "inputs": [
        {
          "indexed": false,
          "internalType": "bool",
          "name": "freezeStatus",
          "type": "bool"
        }
      ],
      "name": "DefaultFreezeStatusChanged",
      "type": "event"
    },
    {
      "anonymous": false,
      "inputs": [
        {
          "indexed": false,
          "internalType": "bool",
          "name": "frozen",
          "type": "bool"
        }
      ],
      "name": "Frozen",
      "type": "event"
    },
    {
      "anonymous": false,
      "inputs": [
        {
          "components": [
            {
              "components": [
                {
                  "components": [
                    {
                      "internalType": "string",
                      "name": "name",
                      "type": "string"
                    },
                    {
                      "internalType": "string",
                      "name": "symbol",
                      "type": "string"
                    },
                    {
                      "internalType": "address",
                      "name": "treasury",
                      "type": "address"
                    },
                    {
                      "internalType": "string",
                      "name": "memo",
                      "type": "string"
                    },
                    {
                      "internalType": "bool",
                      "name": "tokenSupplyType",
                      "type": "bool"
                    },
                    {
                      "internalType": "uint32",
                      "name": "maxSupply",
                      "type": "uint32"
                    },
                    {
                      "internalType": "bool",
                      "name": "freezeDefault",
                      "type": "bool"
                    },
                    {
                      "components": [
                        {
                          "internalType": "uint256",
                          "name": "keyType",
                          "type": "uint256"
                        },
                        {
                          "components": [
                            {
                              "internalType": "bool",
                              "name": "inheritAccountKey",
                              "type": "bool"
                            },
                            {
                              "internalType": "address",
                              "name": "contractId",
                              "type": "address"
                            },
                            {
                              "internalType": "bytes",
                              "name": "ed25519",
                              "type": "bytes"
                            },
                            {
                              "internalType": "bytes",
                              "name": "ECDSA_secp256k1",
                              "type": "bytes"
                            },
                            {
                              "internalType": "address",
                              "name": "delegatableContractId",
                              "type": "address"
                            }
                          ],
                          "internalType": "struct IHederaTokenService.KeyValue",
                          "name": "key",
                          "type": "tuple"
                        }
                      ],
                      "internalType": "struct IHederaTokenService.TokenKey[]",
                      "name": "tokenKeys",
                      "type": "tuple[]"
                    },
                    {
                      "components": [
                        {
                          "internalType": "uint32",
                          "name": "second",
                          "type": "uint32"
                        },
                        {
                          "internalType": "address",
                          "name": "autoRenewAccount",
                          "type": "address"
                        },
                        {
                          "internalType": "uint32",
                          "name": "autoRenewPeriod",
                          "type": "uint32"
                        }
                      ],
                      "internalType": "struct IHederaTokenService.Expiry",
                      "name": "expiry",
                      "type": "tuple"
                    }
                  ],
                  "internalType": "struct IHederaTokenService.HederaToken",
                  "name": "token",
                  "type": "tuple"
                },
                {
                  "internalType": "uint64",
                  "name": "totalSupply",
                  "type": "uint64"
                },
                {
                  "internalType": "bool",
                  "name": "deleted",
                  "type": "bool"
                },
                {
                  "internalType": "bool",
                  "name": "defaultKycStatus",
                  "type": "bool"
                },
                {
                  "internalType": "bool",
                  "name": "pauseStatus",
                  "type": "bool"
                },
                {
                  "components": [
                    {
                      "internalType": "uint32",
                      "name": "amount",
                      "type": "uint32"
                    },
                    {
                      "internalType": "address",
                      "name": "tokenId",
                      "type": "address"
                    },
                    {
                      "internalType": "bool",
                      "name": "useHbarsForPayment",
                      "type": "bool"
                    },
                    {
                      "internalType": "bool",
                      "name": "useCurrentTokenForPayment",
                      "type": "bool"
                    },
                    {
                      "internalType": "address",
                      "name": "feeCollector",
                      "type": "address"
                    }
                  ],
                  "internalType": "struct IHederaTokenService.FixedFee[]",
                  "name": "fixedFees",
                  "type": "tuple[]"
                },
                {
                  "components": [
                    {
                      "internalType": "uint32",
                      "name": "numerator",
                      "type": "uint32"
                    },
                    {
                      "internalType": "uint32",
                      "name": "denominator",
                      "type": "uint32"
                    },
                    {
                      "internalType": "uint32",
                      "name": "minimumAmount",
                      "type": "uint32"
                    },
                    {
                      "internalType": "uint32",
                      "name": "maximumAmount",
                      "type": "uint32"
                    },
                    {
                      "internalType": "bool",
                      "name": "netOfTransfers",
                      "type": "bool"
                    },
                    {
                      "internalType": "address",
                      "name": "feeCollector",
                      "type": "address"
                    }
                  ],
                  "internalType": "struct IHederaTokenService.FractionalFee[]",
                  "name": "fractionalFees",
                  "type": "tuple[]"
                },
                {
                  "components": [
                    {
                      "internalType": "uint32",
                      "name": "numerator",
                      "type": "uint32"
                    },
                    {
                      "internalType": "uint32",
                      "name": "denominator",
                      "type": "uint32"
                    },
                    {
                      "internalType": "uint32",
                      "name": "amount",
                      "type": "uint32"
                    },
                    {
                      "internalType": "address",
                      "name": "tokenId",
                      "type": "address"
                    },
                    {
                      "internalType": "bool",
                      "name": "useHbarsForPayment",
                      "type": "bool"
                    },
                    {
                      "internalType": "address",
                      "name": "feeCollector",
                      "type": "address"
                    }
                  ],
                  "internalType": "struct IHederaTokenService.RoyaltyFee[]",
                  "name": "royaltyFees",
                  "type": "tuple[]"
                },
                {
                  "internalType": "string",
                  "name": "ledgerId",
                  "type": "string"
                }
              ],
              "internalType": "struct IHederaTokenService.TokenInfo",
              "name": "tokenInfo",
              "type": "tuple"
            },
            {
              "internalType": "uint32",
              "name": "decimals",
              "type": "uint32"
            }
          ],
          "indexed": false,
          "internalType": "struct IHederaTokenService.FungibleTokenInfo",
          "name": "tokenInfo",
          "type": "tuple"
        }
      ],
      "name": "FungibleTokenInfo",
      "type": "event"
    },
    {
      "anonymous": false,
      "inputs": [
        {
          "indexed": false,
          "internalType": "uint64",
          "name": "newTotalSupply",
          "type": "uint64"
        },
        {
          "indexed": false,
          "internalType": "int64[]",
          "name": "serialNumbers",
          "type": "int64[]"
        }
      ],
      "name": "MintedToken",
      "type": "event"
    },
    {
      "anonymous": false,
      "inputs": [
        {
          "components": [
            {
              "components": [
                {
                  "components": [
                    {
                      "internalType": "string",
                      "name": "name",
                      "type": "string"
                    },
                    {
                      "internalType": "string",
                      "name": "symbol",
                      "type": "string"
                    },
                    {
                      "internalType": "address",
                      "name": "treasury",
                      "type": "address"
                    },
                    {
                      "internalType": "string",
                      "name": "memo",
                      "type": "string"
                    },
                    {
                      "internalType": "bool",
                      "name": "tokenSupplyType",
                      "type": "bool"
                    },
                    {
                      "internalType": "uint32",
                      "name": "maxSupply",
                      "type": "uint32"
                    },
                    {
                      "internalType": "bool",
                      "name": "freezeDefault",
                      "type": "bool"
                    },
                    {
                      "components": [
                        {
                          "internalType": "uint256",
                          "name": "keyType",
                          "type": "uint256"
                        },
                        {
                          "components": [
                            {
                              "internalType": "bool",
                              "name": "inheritAccountKey",
                              "type": "bool"
                            },
                            {
                              "internalType": "address",
                              "name": "contractId",
                              "type": "address"
                            },
                            {
                              "internalType": "bytes",
                              "name": "ed25519",
                              "type": "bytes"
                            },
                            {
                              "internalType": "bytes",
                              "name": "ECDSA_secp256k1",
                              "type": "bytes"
                            },
                            {
                              "internalType": "address",
                              "name": "delegatableContractId",
                              "type": "address"
                            }
                          ],
                          "internalType": "struct IHederaTokenService.KeyValue",
                          "name": "key",
                          "type": "tuple"
                        }
                      ],
                      "internalType": "struct IHederaTokenService.TokenKey[]",
                      "name": "tokenKeys",
                      "type": "tuple[]"
                    },
                    {
                      "components": [
                        {
                          "internalType": "uint32",
                          "name": "second",
                          "type": "uint32"
                        },
                        {
                          "internalType": "address",
                          "name": "autoRenewAccount",
                          "type": "address"
                        },
                        {
                          "internalType": "uint32",
                          "name": "autoRenewPeriod",
                          "type": "uint32"
                        }
                      ],
                      "internalType": "struct IHederaTokenService.Expiry",
                      "name": "expiry",
                      "type": "tuple"
                    }
                  ],
                  "internalType": "struct IHederaTokenService.HederaToken",
                  "name": "token",
                  "type": "tuple"
                },
                {
                  "internalType": "uint64",
                  "name": "totalSupply",
                  "type": "uint64"
                },
                {
                  "internalType": "bool",
                  "name": "deleted",
                  "type": "bool"
                },
                {
                  "internalType": "bool",
                  "name": "defaultKycStatus",
                  "type": "bool"
                },
                {
                  "internalType": "bool",
                  "name": "pauseStatus",
                  "type": "bool"
                },
                {
                  "components": [
                    {
                      "internalType": "uint32",
                      "name": "amount",
                      "type": "uint32"
                    },
                    {
                      "internalType": "address",
                      "name": "tokenId",
                      "type": "address"
                    },
                    {
                      "internalType": "bool",
                      "name": "useHbarsForPayment",
                      "type": "bool"
                    },
                    {
                      "internalType": "bool",
                      "name": "useCurrentTokenForPayment",
                      "type": "bool"
                    },
                    {
                      "internalType": "address",
                      "name": "feeCollector",
                      "type": "address"
                    }
                  ],
                  "internalType": "struct IHederaTokenService.FixedFee[]",
                  "name": "fixedFees",
                  "type": "tuple[]"
                },
                {
                  "components": [
                    {
                      "internalType": "uint32",
                      "name": "numerator",
                      "type": "uint32"
                    },
                    {
                      "internalType": "uint32",
                      "name": "denominator",
                      "type": "uint32"
                    },
                    {
                      "internalType": "uint32",
                      "name": "minimumAmount",
                      "type": "uint32"
                    },
                    {
                      "internalType": "uint32",
                      "name": "maximumAmount",
                      "type": "uint32"
                    },
                    {
                      "internalType": "bool",
                      "name": "netOfTransfers",
                      "type": "bool"
                    },
                    {
                      "internalType": "address",
                      "name": "feeCollector",
                      "type": "address"
                    }
                  ],
                  "internalType": "struct IHederaTokenService.FractionalFee[]",
                  "name": "fractionalFees",
                  "type": "tuple[]"
                },
                {
                  "components": [
                    {
                      "internalType": "uint32",
                      "name": "numerator",
                      "type": "uint32"
                    },
                    {
                      "internalType": "uint32",
                      "name": "denominator",
                      "type": "uint32"
                    },
                    {
                      "internalType": "uint32",
                      "name": "amount",
                      "type": "uint32"
                    },
                    {
                      "internalType": "address",
                      "name": "tokenId",
                      "type": "address"
                    },
                    {
                      "internalType": "bool",
                      "name": "useHbarsForPayment",
                      "type": "bool"
                    },
                    {
                      "internalType": "address",
                      "name": "feeCollector",
                      "type": "address"
                    }
                  ],
                  "internalType": "struct IHederaTokenService.RoyaltyFee[]",
                  "name": "royaltyFees",
                  "type": "tuple[]"
                },
                {
                  "internalType": "string",
                  "name": "ledgerId",
                  "type": "string"
                }
              ],
              "internalType": "struct IHederaTokenService.TokenInfo",
              "name": "tokenInfo",
              "type": "tuple"
            },
            {
              "internalType": "int64",
              "name": "serialNumber",
              "type": "int64"
            },
            {
              "internalType": "address",
              "name": "ownerId",
              "type": "address"
            },
            {
              "internalType": "int64",
              "name": "creationTime",
              "type": "int64"
            },
            {
              "internalType": "bytes",
              "name": "metadata",
              "type": "bytes"
            },
            {
              "internalType": "address",
              "name": "spenderId",
              "type": "address"
            }
          ],
          "indexed": false,
          "internalType": "struct IHederaTokenService.NonFungibleTokenInfo",
          "name": "tokenInfo",
          "type": "tuple"
        }
      ],
      "name": "NonFungibleTokenInfo",
      "type": "event"
    },
    {
      "anonymous": false,
      "inputs": [
        {
          "indexed": false,
          "internalType": "bool",
          "name": "paused",
          "type": "bool"
        }
      ],
      "name": "PausedToken",
      "type": "event"
    },
    {
      "anonymous": false,
      "inputs": [
        {
          "indexed": false,
          "internalType": "int256",
          "name": "responseCode",
          "type": "int256"
        }
      ],
      "name": "ResponseCode",
      "type": "event"
    },
    {
      "anonymous": false,
      "inputs": [
        {
          "components": [
            {
              "internalType": "uint32",
              "name": "amount",
              "type": "uint32"
            },
            {
              "internalType": "address",
              "name": "tokenId",
              "type": "address"
            },
            {
              "internalType": "bool",
              "name": "useHbarsForPayment",
              "type": "bool"
            },
            {
              "internalType": "bool",
              "name": "useCurrentTokenForPayment",
              "type": "bool"
            },
            {
              "internalType": "address",
              "name": "feeCollector",
              "type": "address"
            }
          ],
          "indexed": false,
          "internalType": "struct IHederaTokenService.FixedFee[]",
          "name": "fixedFees",
          "type": "tuple[]"
        },
        {
          "components": [
            {
              "internalType": "uint32",
              "name": "numerator",
              "type": "uint32"
            },
            {
              "internalType": "uint32",
              "name": "denominator",
              "type": "uint32"
            },
            {
              "internalType": "uint32",
              "name": "minimumAmount",
              "type": "uint32"
            },
            {
              "internalType": "uint32",
              "name": "maximumAmount",
              "type": "uint32"
            },
            {
              "internalType": "bool",
              "name": "netOfTransfers",
              "type": "bool"
            },
            {
              "internalType": "address",
              "name": "feeCollector",
              "type": "address"
            }
          ],
          "indexed": false,
          "internalType": "struct IHederaTokenService.FractionalFee[]",
          "name": "fractionalFees",
          "type": "tuple[]"
        },
        {
          "components": [
            {
              "internalType": "uint32",
              "name": "numerator",
              "type": "uint32"
            },
            {
              "internalType": "uint32",
              "name": "denominator",
              "type": "uint32"
            },
            {
              "internalType": "uint32",
              "name": "amount",
              "type": "uint32"
            },
            {
              "internalType": "address",
              "name": "tokenId",
              "type": "address"
            },
            {
              "internalType": "bool",
              "name": "useHbarsForPayment",
              "type": "bool"
            },
            {
              "internalType": "address",
              "name": "feeCollector",
              "type": "address"
            }
          ],
          "indexed": false,
          "internalType": "struct IHederaTokenService.RoyaltyFee[]",
          "name": "royaltyFees",
          "type": "tuple[]"
        }
      ],
      "name": "TokenCustomFees",
      "type": "event"
    },
    {
      "anonymous": false,
      "inputs": [
        {
          "indexed": false,
          "internalType": "bool",
          "name": "defaultFreezeStatus",
          "type": "bool"
        }
      ],
      "name": "TokenDefaultFreezeStatus",
      "type": "event"
    },
    {
      "anonymous": false,
      "inputs": [
        {
          "indexed": false,
          "internalType": "bool",
          "name": "defaultKycStatus",
          "type": "bool"
        }
      ],
      "name": "TokenDefaultKycStatus",
      "type": "event"
    },
    {
      "anonymous": false,
      "inputs": [
        {
          "components": [
            {
              "components": [
                {
                  "internalType": "string",
                  "name": "name",
                  "type": "string"
                },
                {
                  "internalType": "string",
                  "name": "symbol",
                  "type": "string"
                },
                {
                  "internalType": "address",
                  "name": "treasury",
                  "type": "address"
                },
                {
                  "internalType": "string",
                  "name": "memo",
                  "type": "string"
                },
                {
                  "internalType": "bool",
                  "name": "tokenSupplyType",
                  "type": "bool"
                },
                {
                  "internalType": "uint32",
                  "name": "maxSupply",
                  "type": "uint32"
                },
                {
                  "internalType": "bool",
                  "name": "freezeDefault",
                  "type": "bool"
                },
                {
                  "components": [
                    {
                      "internalType": "uint256",
                      "name": "keyType",
                      "type": "uint256"
                    },
                    {
                      "components": [
                        {
                          "internalType": "bool",
                          "name": "inheritAccountKey",
                          "type": "bool"
                        },
                        {
                          "internalType": "address",
                          "name": "contractId",
                          "type": "address"
                        },
                        {
                          "internalType": "bytes",
                          "name": "ed25519",
                          "type": "bytes"
                        },
                        {
                          "internalType": "bytes",
                          "name": "ECDSA_secp256k1",
                          "type": "bytes"
                        },
                        {
                          "internalType": "address",
                          "name": "delegatableContractId",
                          "type": "address"
                        }
                      ],
                      "internalType": "struct IHederaTokenService.KeyValue",
                      "name": "key",
                      "type": "tuple"
                    }
                  ],
                  "internalType": "struct IHederaTokenService.TokenKey[]",
                  "name": "tokenKeys",
                  "type": "tuple[]"
                },
                {
                  "components": [
                    {
                      "internalType": "uint32",
                      "name": "second",
                      "type": "uint32"
                    },
                    {
                      "internalType": "address",
                      "name": "autoRenewAccount",
                      "type": "address"
                    },
                    {
                      "internalType": "uint32",
                      "name": "autoRenewPeriod",
                      "type": "uint32"
                    }
                  ],
                  "internalType": "struct IHederaTokenService.Expiry",
                  "name": "expiry",
                  "type": "tuple"
                }
              ],
              "internalType": "struct IHederaTokenService.HederaToken",
              "name": "token",
              "type": "tuple"
            },
            {
              "internalType": "uint64",
              "name": "totalSupply",
              "type": "uint64"
            },
            {
              "internalType": "bool",
              "name": "deleted",
              "type": "bool"
            },
            {
              "internalType": "bool",
              "name": "defaultKycStatus",
              "type": "bool"
            },
            {
              "internalType": "bool",
              "name": "pauseStatus",
              "type": "bool"
            },
            {
              "components": [
                {
                  "internalType": "uint32",
                  "name": "amount",
                  "type": "uint32"
                },
                {
                  "internalType": "address",
                  "name": "tokenId",
                  "type": "address"
                },
                {
                  "internalType": "bool",
                  "name": "useHbarsForPayment",
                  "type": "bool"
                },
                {
                  "internalType": "bool",
                  "name": "useCurrentTokenForPayment",
                  "type": "bool"
                },
                {
                  "internalType": "address",
                  "name": "feeCollector",
                  "type": "address"
                }
              ],
              "internalType": "struct IHederaTokenService.FixedFee[]",
              "name": "fixedFees",
              "type": "tuple[]"
            },
            {
              "components": [
                {
                  "internalType": "uint32",
                  "name": "numerator",
                  "type": "uint32"
                },
                {
                  "internalType": "uint32",
                  "name": "denominator",
                  "type": "uint32"
                },
                {
                  "internalType": "uint32",
                  "name": "minimumAmount",
                  "type": "uint32"
                },
                {
                  "internalType": "uint32",
                  "name": "maximumAmount",
                  "type": "uint32"
                },
                {
                  "internalType": "bool",
                  "name": "netOfTransfers",
                  "type": "bool"
                },
                {
                  "internalType": "address",
                  "name": "feeCollector",
                  "type": "address"
                }
              ],
              "internalType": "struct IHederaTokenService.FractionalFee[]",
              "name": "fractionalFees",
              "type": "tuple[]"
            },
            {
              "components": [
                {
                  "internalType": "uint32",
                  "name": "numerator",
                  "type": "uint32"
                },
                {
                  "internalType": "uint32",
                  "name": "denominator",
                  "type": "uint32"
                },
                {
                  "internalType": "uint32",
                  "name": "amount",
                  "type": "uint32"
                },
                {
                  "internalType": "address",
                  "name": "tokenId",
                  "type": "address"
                },
                {
                  "internalType": "bool",
                  "name": "useHbarsForPayment",
                  "type": "bool"
                },
                {
                  "internalType": "address",
                  "name": "feeCollector",
                  "type": "address"
                }
              ],
              "internalType": "struct IHederaTokenService.RoyaltyFee[]",
              "name": "royaltyFees",
              "type": "tuple[]"
            },
            {
              "internalType": "string",
              "name": "ledgerId",
              "type": "string"
            }
          ],
          "indexed": false,
          "internalType": "struct IHederaTokenService.TokenInfo",
          "name": "tokenInfo",
          "type": "tuple"
        }
      ],
      "name": "TokenInfo",
      "type": "event"
    },
    {
      "anonymous": false,
      "inputs": [
        {
          "indexed": false,
          "internalType": "bool",
          "name": "unpaused",
          "type": "bool"
        }
      ],
      "name": "UnpausedToken",
      "type": "event"
    },
    {
      "inputs": [
        {
          "internalType": "address",
          "name": "token",
          "type": "address"
        },
        {
          "internalType": "address",
          "name": "owner",
          "type": "address"
        },
        {
          "internalType": "address",
          "name": "spender",
          "type": "address"
        }
      ],
      "name": "allowancePublic",
      "outputs": [
        {
          "internalType": "int256",
          "name": "responseCode",
          "type": "int256"
        },
        {
          "internalType": "uint256",
          "name": "amount",
          "type": "uint256"
        }
      ],
      "stateMutability": "nonpayable",
      "type": "function"
    },
    {
      "inputs": [
        {
          "internalType": "address",
          "name": "token",
          "type": "address"
        },
        {
          "internalType": "address",
          "name": "spender",
          "type": "address"
        },
        {
          "internalType": "uint256",
          "name": "amount",
          "type": "uint256"
        }
      ],
      "name": "approvePublic",
      "outputs": [
        {
          "internalType": "int256",
          "name": "responseCode",
          "type": "int256"
        }
      ],
      "stateMutability": "nonpayable",
      "type": "function"
    },
    {
      "inputs": [
        {
          "internalType": "address",
          "name": "account",
          "type": "address"
        },
        {
          "internalType": "address",
          "name": "token",
          "type": "address"
        }
      ],
      "name": "associateTokenPublic",
      "outputs": [
        {
          "internalType": "int256",
          "name": "responseCode",
          "type": "int256"
        }
      ],
      "stateMutability": "nonpayable",
      "type": "function"
    },
    {
      "inputs": [
        {
          "internalType": "address",
          "name": "treasury",
          "type": "address"
        }
      ],
      "name": "createFungibleTokenPublic",
      "outputs": [],
      "stateMutability": "payable",
      "type": "function"
    },
    {
      "inputs": [
        {
          "internalType": "address",
          "name": "treasury",
          "type": "address"
        },
        {
          "internalType": "address",
          "name": "fixedFeeTokenAddress",
          "type": "address"
        }
      ],
      "name": "createFungibleTokenWithCustomFeesPublic",
      "outputs": [],
      "stateMutability": "payable",
      "type": "function"
    },
    {
      "inputs": [
        {
          "internalType": "address",
          "name": "treasury",
          "type": "address"
        }
      ],
      "name": "createNonFungibleTokenPublic",
      "outputs": [],
      "stateMutability": "payable",
      "type": "function"
    },
    {
      "inputs": [
        {
          "internalType": "address",
          "name": "token",
          "type": "address"
        }
      ],
      "name": "deleteTokenPublic",
      "outputs": [
        {
          "internalType": "int256",
          "name": "responseCode",
          "type": "int256"
        }
      ],
      "stateMutability": "nonpayable",
      "type": "function"
    },
    {
      "inputs": [
        {
          "internalType": "address",
          "name": "token",
          "type": "address"
        },
        {
          "internalType": "address",
          "name": "account",
          "type": "address"
        }
      ],
      "name": "freezeTokenPublic",
      "outputs": [
        {
          "internalType": "int256",
          "name": "responseCode",
          "type": "int256"
        }
      ],
      "stateMutability": "nonpayable",
      "type": "function"
    },
    {
      "inputs": [
        {
          "internalType": "address",
          "name": "token",
          "type": "address"
        },
        {
          "internalType": "uint256",
          "name": "serialNumber",
          "type": "uint256"
        }
      ],
      "name": "getApprovedPublic",
      "outputs": [
        {
          "internalType": "int256",
          "name": "responseCode",
          "type": "int256"
        },
        {
          "internalType": "address",
          "name": "approved",
          "type": "address"
        }
      ],
      "stateMutability": "nonpayable",
      "type": "function"
    },
    {
      "inputs": [
        {
          "internalType": "address",
          "name": "token",
          "type": "address"
        }
      ],
      "name": "getFungibleTokenInfoPublic",
      "outputs": [
        {
          "internalType": "int256",
          "name": "responseCode",
          "type": "int256"
        },
        {
          "components": [
            {
              "components": [
                {
                  "components": [
                    {
                      "internalType": "string",
                      "name": "name",
                      "type": "string"
                    },
                    {
                      "internalType": "string",
                      "name": "symbol",
                      "type": "string"
                    },
                    {
                      "internalType": "address",
                      "name": "treasury",
                      "type": "address"
                    },
                    {
                      "internalType": "string",
                      "name": "memo",
                      "type": "string"
                    },
                    {
                      "internalType": "bool",
                      "name": "tokenSupplyType",
                      "type": "bool"
                    },
                    {
                      "internalType": "uint32",
                      "name": "maxSupply",
                      "type": "uint32"
                    },
                    {
                      "internalType": "bool",
                      "name": "freezeDefault",
                      "type": "bool"
                    },
                    {
                      "components": [
                        {
                          "internalType": "uint256",
                          "name": "keyType",
                          "type": "uint256"
                        },
                        {
                          "components": [
                            {
                              "internalType": "bool",
                              "name": "inheritAccountKey",
                              "type": "bool"
                            },
                            {
                              "internalType": "address",
                              "name": "contractId",
                              "type": "address"
                            },
                            {
                              "internalType": "bytes",
                              "name": "ed25519",
                              "type": "bytes"
                            },
                            {
                              "internalType": "bytes",
                              "name": "ECDSA_secp256k1",
                              "type": "bytes"
                            },
                            {
                              "internalType": "address",
                              "name": "delegatableContractId",
                              "type": "address"
                            }
                          ],
                          "internalType": "struct IHederaTokenService.KeyValue",
                          "name": "key",
                          "type": "tuple"
                        }
                      ],
                      "internalType": "struct IHederaTokenService.TokenKey[]",
                      "name": "tokenKeys",
                      "type": "tuple[]"
                    },
                    {
                      "components": [
                        {
                          "internalType": "uint32",
                          "name": "second",
                          "type": "uint32"
                        },
                        {
                          "internalType": "address",
                          "name": "autoRenewAccount",
                          "type": "address"
                        },
                        {
                          "internalType": "uint32",
                          "name": "autoRenewPeriod",
                          "type": "uint32"
                        }
                      ],
                      "internalType": "struct IHederaTokenService.Expiry",
                      "name": "expiry",
                      "type": "tuple"
                    }
                  ],
                  "internalType": "struct IHederaTokenService.HederaToken",
                  "name": "token",
                  "type": "tuple"
                },
                {
                  "internalType": "uint64",
                  "name": "totalSupply",
                  "type": "uint64"
                },
                {
                  "internalType": "bool",
                  "name": "deleted",
                  "type": "bool"
                },
                {
                  "internalType": "bool",
                  "name": "defaultKycStatus",
                  "type": "bool"
                },
                {
                  "internalType": "bool",
                  "name": "pauseStatus",
                  "type": "bool"
                },
                {
                  "components": [
                    {
                      "internalType": "uint32",
                      "name": "amount",
                      "type": "uint32"
                    },
                    {
                      "internalType": "address",
                      "name": "tokenId",
                      "type": "address"
                    },
                    {
                      "internalType": "bool",
                      "name": "useHbarsForPayment",
                      "type": "bool"
                    },
                    {
                      "internalType": "bool",
                      "name": "useCurrentTokenForPayment",
                      "type": "bool"
                    },
                    {
                      "internalType": "address",
                      "name": "feeCollector",
                      "type": "address"
                    }
                  ],
                  "internalType": "struct IHederaTokenService.FixedFee[]",
                  "name": "fixedFees",
                  "type": "tuple[]"
                },
                {
                  "components": [
                    {
                      "internalType": "uint32",
                      "name": "numerator",
                      "type": "uint32"
                    },
                    {
                      "internalType": "uint32",
                      "name": "denominator",
                      "type": "uint32"
                    },
                    {
                      "internalType": "uint32",
                      "name": "minimumAmount",
                      "type": "uint32"
                    },
                    {
                      "internalType": "uint32",
                      "name": "maximumAmount",
                      "type": "uint32"
                    },
                    {
                      "internalType": "bool",
                      "name": "netOfTransfers",
                      "type": "bool"
                    },
                    {
                      "internalType": "address",
                      "name": "feeCollector",
                      "type": "address"
                    }
                  ],
                  "internalType": "struct IHederaTokenService.FractionalFee[]",
                  "name": "fractionalFees",
                  "type": "tuple[]"
                },
                {
                  "components": [
                    {
                      "internalType": "uint32",
                      "name": "numerator",
                      "type": "uint32"
                    },
                    {
                      "internalType": "uint32",
                      "name": "denominator",
                      "type": "uint32"
                    },
                    {
                      "internalType": "uint32",
                      "name": "amount",
                      "type": "uint32"
                    },
                    {
                      "internalType": "address",
                      "name": "tokenId",
                      "type": "address"
                    },
                    {
                      "internalType": "bool",
                      "name": "useHbarsForPayment",
                      "type": "bool"
                    },
                    {
                      "internalType": "address",
                      "name": "feeCollector",
                      "type": "address"
                    }
                  ],
                  "internalType": "struct IHederaTokenService.RoyaltyFee[]",
                  "name": "royaltyFees",
                  "type": "tuple[]"
                },
                {
                  "internalType": "string",
                  "name": "ledgerId",
                  "type": "string"
                }
              ],
              "internalType": "struct IHederaTokenService.TokenInfo",
              "name": "tokenInfo",
              "type": "tuple"
            },
            {
              "internalType": "uint32",
              "name": "decimals",
              "type": "uint32"
            }
          ],
          "internalType": "struct IHederaTokenService.FungibleTokenInfo",
          "name": "tokenInfo",
          "type": "tuple"
        }
      ],
      "stateMutability": "nonpayable",
      "type": "function"
    },
    {
      "inputs": [
        {
          "internalType": "address",
          "name": "token",
          "type": "address"
        },
        {
          "internalType": "int64",
          "name": "serialNumber",
          "type": "int64"
        }
      ],
      "name": "getNonFungibleTokenInfoPublic",
      "outputs": [
        {
          "internalType": "int256",
          "name": "responseCode",
          "type": "int256"
        },
        {
          "components": [
            {
              "components": [
                {
                  "components": [
                    {
                      "internalType": "string",
                      "name": "name",
                      "type": "string"
                    },
                    {
                      "internalType": "string",
                      "name": "symbol",
                      "type": "string"
                    },
                    {
                      "internalType": "address",
                      "name": "treasury",
                      "type": "address"
                    },
                    {
                      "internalType": "string",
                      "name": "memo",
                      "type": "string"
                    },
                    {
                      "internalType": "bool",
                      "name": "tokenSupplyType",
                      "type": "bool"
                    },
                    {
                      "internalType": "uint32",
                      "name": "maxSupply",
                      "type": "uint32"
                    },
                    {
                      "internalType": "bool",
                      "name": "freezeDefault",
                      "type": "bool"
                    },
                    {
                      "components": [
                        {
                          "internalType": "uint256",
                          "name": "keyType",
                          "type": "uint256"
                        },
                        {
                          "components": [
                            {
                              "internalType": "bool",
                              "name": "inheritAccountKey",
                              "type": "bool"
                            },
                            {
                              "internalType": "address",
                              "name": "contractId",
                              "type": "address"
                            },
                            {
                              "internalType": "bytes",
                              "name": "ed25519",
                              "type": "bytes"
                            },
                            {
                              "internalType": "bytes",
                              "name": "ECDSA_secp256k1",
                              "type": "bytes"
                            },
                            {
                              "internalType": "address",
                              "name": "delegatableContractId",
                              "type": "address"
                            }
                          ],
                          "internalType": "struct IHederaTokenService.KeyValue",
                          "name": "key",
                          "type": "tuple"
                        }
                      ],
                      "internalType": "struct IHederaTokenService.TokenKey[]",
                      "name": "tokenKeys",
                      "type": "tuple[]"
                    },
                    {
                      "components": [
                        {
                          "internalType": "uint32",
                          "name": "second",
                          "type": "uint32"
                        },
                        {
                          "internalType": "address",
                          "name": "autoRenewAccount",
                          "type": "address"
                        },
                        {
                          "internalType": "uint32",
                          "name": "autoRenewPeriod",
                          "type": "uint32"
                        }
                      ],
                      "internalType": "struct IHederaTokenService.Expiry",
                      "name": "expiry",
                      "type": "tuple"
                    }
                  ],
                  "internalType": "struct IHederaTokenService.HederaToken",
                  "name": "token",
                  "type": "tuple"
                },
                {
                  "internalType": "uint64",
                  "name": "totalSupply",
                  "type": "uint64"
                },
                {
                  "internalType": "bool",
                  "name": "deleted",
                  "type": "bool"
                },
                {
                  "internalType": "bool",
                  "name": "defaultKycStatus",
                  "type": "bool"
                },
                {
                  "internalType": "bool",
                  "name": "pauseStatus",
                  "type": "bool"
                },
                {
                  "components": [
                    {
                      "internalType": "uint32",
                      "name": "amount",
                      "type": "uint32"
                    },
                    {
                      "internalType": "address",
                      "name": "tokenId",
                      "type": "address"
                    },
                    {
                      "internalType": "bool",
                      "name": "useHbarsForPayment",
                      "type": "bool"
                    },
                    {
                      "internalType": "bool",
                      "name": "useCurrentTokenForPayment",
                      "type": "bool"
                    },
                    {
                      "internalType": "address",
                      "name": "feeCollector",
                      "type": "address"
                    }
                  ],
                  "internalType": "struct IHederaTokenService.FixedFee[]",
                  "name": "fixedFees",
                  "type": "tuple[]"
                },
                {
                  "components": [
                    {
                      "internalType": "uint32",
                      "name": "numerator",
                      "type": "uint32"
                    },
                    {
                      "internalType": "uint32",
                      "name": "denominator",
                      "type": "uint32"
                    },
                    {
                      "internalType": "uint32",
                      "name": "minimumAmount",
                      "type": "uint32"
                    },
                    {
                      "internalType": "uint32",
                      "name": "maximumAmount",
                      "type": "uint32"
                    },
                    {
                      "internalType": "bool",
                      "name": "netOfTransfers",
                      "type": "bool"
                    },
                    {
                      "internalType": "address",
                      "name": "feeCollector",
                      "type": "address"
                    }
                  ],
                  "internalType": "struct IHederaTokenService.FractionalFee[]",
                  "name": "fractionalFees",
                  "type": "tuple[]"
                },
                {
                  "components": [
                    {
                      "internalType": "uint32",
                      "name": "numerator",
                      "type": "uint32"
                    },
                    {
                      "internalType": "uint32",
                      "name": "denominator",
                      "type": "uint32"
                    },
                    {
                      "internalType": "uint32",
                      "name": "amount",
                      "type": "uint32"
                    },
                    {
                      "internalType": "address",
                      "name": "tokenId",
                      "type": "address"
                    },
                    {
                      "internalType": "bool",
                      "name": "useHbarsForPayment",
                      "type": "bool"
                    },
                    {
                      "internalType": "address",
                      "name": "feeCollector",
                      "type": "address"
                    }
                  ],
                  "internalType": "struct IHederaTokenService.RoyaltyFee[]",
                  "name": "royaltyFees",
                  "type": "tuple[]"
                },
                {
                  "internalType": "string",
                  "name": "ledgerId",
                  "type": "string"
                }
              ],
              "internalType": "struct IHederaTokenService.TokenInfo",
              "name": "tokenInfo",
              "type": "tuple"
            },
            {
              "internalType": "int64",
              "name": "serialNumber",
              "type": "int64"
            },
            {
              "internalType": "address",
              "name": "ownerId",
              "type": "address"
            },
            {
              "internalType": "int64",
              "name": "creationTime",
              "type": "int64"
            },
            {
              "internalType": "bytes",
              "name": "metadata",
              "type": "bytes"
            },
            {
              "internalType": "address",
              "name": "spenderId",
              "type": "address"
            }
          ],
          "internalType": "struct IHederaTokenService.NonFungibleTokenInfo",
          "name": "tokenInfo",
          "type": "tuple"
        }
      ],
      "stateMutability": "nonpayable",
      "type": "function"
    },
    {
      "inputs": [
        {
          "internalType": "address",
          "name": "token",
          "type": "address"
        }
      ],
      "name": "getTokenCustomFeesPublic",
      "outputs": [
        {
          "internalType": "int64",
          "name": "responseCode",
          "type": "int64"
        },
        {
          "components": [
            {
              "internalType": "uint32",
              "name": "amount",
              "type": "uint32"
            },
            {
              "internalType": "address",
              "name": "tokenId",
              "type": "address"
            },
            {
              "internalType": "bool",
              "name": "useHbarsForPayment",
              "type": "bool"
            },
            {
              "internalType": "bool",
              "name": "useCurrentTokenForPayment",
              "type": "bool"
            },
            {
              "internalType": "address",
              "name": "feeCollector",
              "type": "address"
            }
          ],
          "internalType": "struct IHederaTokenService.FixedFee[]",
          "name": "fixedFees",
          "type": "tuple[]"
        },
        {
          "components": [
            {
              "internalType": "uint32",
              "name": "numerator",
              "type": "uint32"
            },
            {
              "internalType": "uint32",
              "name": "denominator",
              "type": "uint32"
            },
            {
              "internalType": "uint32",
              "name": "minimumAmount",
              "type": "uint32"
            },
            {
              "internalType": "uint32",
              "name": "maximumAmount",
              "type": "uint32"
            },
            {
              "internalType": "bool",
              "name": "netOfTransfers",
              "type": "bool"
            },
            {
              "internalType": "address",
              "name": "feeCollector",
              "type": "address"
            }
          ],
          "internalType": "struct IHederaTokenService.FractionalFee[]",
          "name": "fractionalFees",
          "type": "tuple[]"
        },
        {
          "components": [
            {
              "internalType": "uint32",
              "name": "numerator",
              "type": "uint32"
            },
            {
              "internalType": "uint32",
              "name": "denominator",
              "type": "uint32"
            },
            {
              "internalType": "uint32",
              "name": "amount",
              "type": "uint32"
            },
            {
              "internalType": "address",
              "name": "tokenId",
              "type": "address"
            },
            {
              "internalType": "bool",
              "name": "useHbarsForPayment",
              "type": "bool"
            },
            {
              "internalType": "address",
              "name": "feeCollector",
              "type": "address"
            }
          ],
          "internalType": "struct IHederaTokenService.RoyaltyFee[]",
          "name": "royaltyFees",
          "type": "tuple[]"
        }
      ],
      "stateMutability": "nonpayable",
      "type": "function"
    },
    {
      "inputs": [
        {
          "internalType": "address",
          "name": "token",
          "type": "address"
        }
      ],
      "name": "getTokenDefaultFreezeStatusPublic",
      "outputs": [
        {
          "internalType": "int256",
          "name": "responseCode",
          "type": "int256"
        },
        {
          "internalType": "bool",
          "name": "defaultFreezeStatus",
          "type": "bool"
        }
      ],
      "stateMutability": "nonpayable",
      "type": "function"
    },
    {
      "inputs": [
        {
          "internalType": "address",
          "name": "token",
          "type": "address"
        }
      ],
      "name": "getTokenDefaultKycStatusPublic",
      "outputs": [
        {
          "internalType": "int256",
          "name": "responseCode",
          "type": "int256"
        },
        {
          "internalType": "bool",
          "name": "defaultKycStatus",
          "type": "bool"
        }
      ],
      "stateMutability": "nonpayable",
      "type": "function"
    },
    {
      "inputs": [
        {
          "internalType": "address",
          "name": "token",
          "type": "address"
        }
      ],
      "name": "getTokenInfoPublic",
      "outputs": [
        {
          "internalType": "int256",
          "name": "responseCode",
          "type": "int256"
        },
        {
          "components": [
            {
              "components": [
                {
                  "internalType": "string",
                  "name": "name",
                  "type": "string"
                },
                {
                  "internalType": "string",
                  "name": "symbol",
                  "type": "string"
                },
                {
                  "internalType": "address",
                  "name": "treasury",
                  "type": "address"
                },
                {
                  "internalType": "string",
                  "name": "memo",
                  "type": "string"
                },
                {
                  "internalType": "bool",
                  "name": "tokenSupplyType",
                  "type": "bool"
                },
                {
                  "internalType": "uint32",
                  "name": "maxSupply",
                  "type": "uint32"
                },
                {
                  "internalType": "bool",
                  "name": "freezeDefault",
                  "type": "bool"
                },
                {
                  "components": [
                    {
                      "internalType": "uint256",
                      "name": "keyType",
                      "type": "uint256"
                    },
                    {
                      "components": [
                        {
                          "internalType": "bool",
                          "name": "inheritAccountKey",
                          "type": "bool"
                        },
                        {
                          "internalType": "address",
                          "name": "contractId",
                          "type": "address"
                        },
                        {
                          "internalType": "bytes",
                          "name": "ed25519",
                          "type": "bytes"
                        },
                        {
                          "internalType": "bytes",
                          "name": "ECDSA_secp256k1",
                          "type": "bytes"
                        },
                        {
                          "internalType": "address",
                          "name": "delegatableContractId",
                          "type": "address"
                        }
                      ],
                      "internalType": "struct IHederaTokenService.KeyValue",
                      "name": "key",
                      "type": "tuple"
                    }
                  ],
                  "internalType": "struct IHederaTokenService.TokenKey[]",
                  "name": "tokenKeys",
                  "type": "tuple[]"
                },
                {
                  "components": [
                    {
                      "internalType": "uint32",
                      "name": "second",
                      "type": "uint32"
                    },
                    {
                      "internalType": "address",
                      "name": "autoRenewAccount",
                      "type": "address"
                    },
                    {
                      "internalType": "uint32",
                      "name": "autoRenewPeriod",
                      "type": "uint32"
                    }
                  ],
                  "internalType": "struct IHederaTokenService.Expiry",
                  "name": "expiry",
                  "type": "tuple"
                }
              ],
              "internalType": "struct IHederaTokenService.HederaToken",
              "name": "token",
              "type": "tuple"
            },
            {
              "internalType": "uint64",
              "name": "totalSupply",
              "type": "uint64"
            },
            {
              "internalType": "bool",
              "name": "deleted",
              "type": "bool"
            },
            {
              "internalType": "bool",
              "name": "defaultKycStatus",
              "type": "bool"
            },
            {
              "internalType": "bool",
              "name": "pauseStatus",
              "type": "bool"
            },
            {
              "components": [
                {
                  "internalType": "uint32",
                  "name": "amount",
                  "type": "uint32"
                },
                {
                  "internalType": "address",
                  "name": "tokenId",
                  "type": "address"
                },
                {
                  "internalType": "bool",
                  "name": "useHbarsForPayment",
                  "type": "bool"
                },
                {
                  "internalType": "bool",
                  "name": "useCurrentTokenForPayment",
                  "type": "bool"
                },
                {
                  "internalType": "address",
                  "name": "feeCollector",
                  "type": "address"
                }
              ],
              "internalType": "struct IHederaTokenService.FixedFee[]",
              "name": "fixedFees",
              "type": "tuple[]"
            },
            {
              "components": [
                {
                  "internalType": "uint32",
                  "name": "numerator",
                  "type": "uint32"
                },
                {
                  "internalType": "uint32",
                  "name": "denominator",
                  "type": "uint32"
                },
                {
                  "internalType": "uint32",
                  "name": "minimumAmount",
                  "type": "uint32"
                },
                {
                  "internalType": "uint32",
                  "name": "maximumAmount",
                  "type": "uint32"
                },
                {
                  "internalType": "bool",
                  "name": "netOfTransfers",
                  "type": "bool"
                },
                {
                  "internalType": "address",
                  "name": "feeCollector",
                  "type": "address"
                }
              ],
              "internalType": "struct IHederaTokenService.FractionalFee[]",
              "name": "fractionalFees",
              "type": "tuple[]"
            },
            {
              "components": [
                {
                  "internalType": "uint32",
                  "name": "numerator",
                  "type": "uint32"
                },
                {
                  "internalType": "uint32",
                  "name": "denominator",
                  "type": "uint32"
                },
                {
                  "internalType": "uint32",
                  "name": "amount",
                  "type": "uint32"
                },
                {
                  "internalType": "address",
                  "name": "tokenId",
                  "type": "address"
                },
                {
                  "internalType": "bool",
                  "name": "useHbarsForPayment",
                  "type": "bool"
                },
                {
                  "internalType": "address",
                  "name": "feeCollector",
                  "type": "address"
                }
              ],
              "internalType": "struct IHederaTokenService.RoyaltyFee[]",
              "name": "royaltyFees",
              "type": "tuple[]"
            },
            {
              "internalType": "string",
              "name": "ledgerId",
              "type": "string"
            }
          ],
          "internalType": "struct IHederaTokenService.TokenInfo",
          "name": "tokenInfo",
          "type": "tuple"
        }
      ],
      "stateMutability": "nonpayable",
      "type": "function"
    },
    {
      "inputs": [
        {
          "internalType": "address",
          "name": "token",
          "type": "address"
        },
        {
          "internalType": "address",
          "name": "owner",
          "type": "address"
        },
        {
          "internalType": "address",
          "name": "operator",
          "type": "address"
        }
      ],
      "name": "isApprovedForAllPublic",
      "outputs": [
        {
          "internalType": "int256",
          "name": "responseCode",
          "type": "int256"
        },
        {
          "internalType": "bool",
          "name": "approved",
          "type": "bool"
        }
      ],
      "stateMutability": "nonpayable",
      "type": "function"
    },
    {
      "inputs": [
        {
          "internalType": "address",
          "name": "token",
          "type": "address"
        },
        {
          "internalType": "address",
          "name": "account",
          "type": "address"
        }
      ],
      "name": "isFrozenPublic",
      "outputs": [
        {
          "internalType": "int256",
          "name": "responseCode",
          "type": "int256"
        },
        {
          "internalType": "bool",
          "name": "frozen",
          "type": "bool"
        }
      ],
      "stateMutability": "nonpayable",
      "type": "function"
    },
    {
      "inputs": [
        {
          "internalType": "address",
          "name": "token",
          "type": "address"
        },
        {
          "internalType": "uint64",
          "name": "amount",
          "type": "uint64"
        },
        {
          "internalType": "bytes[]",
          "name": "metadata",
          "type": "bytes[]"
        }
      ],
      "name": "mintTokenPublic",
      "outputs": [
        {
          "internalType": "int256",
          "name": "responseCode",
          "type": "int256"
        },
        {
          "internalType": "uint64",
          "name": "newTotalSupply",
          "type": "uint64"
        },
        {
          "internalType": "int64[]",
          "name": "serialNumbers",
          "type": "int64[]"
        }
      ],
      "stateMutability": "nonpayable",
      "type": "function"
    },
    {
      "inputs": [
        {
          "internalType": "address",
          "name": "token",
          "type": "address"
        }
      ],
      "name": "pauseToken",
      "outputs": [
        {
          "internalType": "int256",
          "name": "responseCode",
          "type": "int256"
        }
      ],
      "stateMutability": "nonpayable",
      "type": "function"
    },
    {
      "inputs": [
        {
          "internalType": "address",
          "name": "token",
          "type": "address"
        }
      ],
      "name": "pauseTokenPublic",
      "outputs": [
        {
          "internalType": "int256",
          "name": "responseCode",
          "type": "int256"
        }
      ],
      "stateMutability": "nonpayable",
      "type": "function"
    },
    {
      "inputs": [
        {
          "internalType": "address",
          "name": "token",
          "type": "address"
        },
        {
          "internalType": "address",
          "name": "operator",
          "type": "address"
        },
        {
          "internalType": "bool",
          "name": "approved",
          "type": "bool"
        }
      ],
      "name": "setApprovalForAllPublic",
      "outputs": [
        {
          "internalType": "int256",
          "name": "responseCode",
          "type": "int256"
        }
      ],
      "stateMutability": "nonpayable",
      "type": "function"
    },
    {
      "inputs": [
        {
          "internalType": "bool",
          "name": "newFreezeStatus",
          "type": "bool"
        }
      ],
      "name": "setFreezeDefaultStatus",
      "outputs": [],
      "stateMutability": "nonpayable",
      "type": "function"
    },
    {
      "inputs": [
        {
          "internalType": "address",
          "name": "token",
          "type": "address"
        },
        {
          "internalType": "address",
          "name": "sender",
          "type": "address"
        },
        {
          "internalType": "address",
          "name": "receiver",
          "type": "address"
        },
        {
          "internalType": "int64",
          "name": "serialNumber",
          "type": "int64"
        }
      ],
      "name": "transferNFTPublic",
      "outputs": [
        {
          "internalType": "int256",
          "name": "responseCode",
          "type": "int256"
        }
      ],
      "stateMutability": "nonpayable",
      "type": "function"
    },
    {
      "inputs": [
        {
          "internalType": "address",
          "name": "account",
          "type": "address"
        },
        {
          "internalType": "address",
          "name": "token",
          "type": "address"
        },
        {
          "internalType": "int64",
          "name": "amount",
          "type": "int64"
        }
      ],
      "name": "transferTokenPublic",
      "outputs": [
        {
          "internalType": "int256",
          "name": "responseCode",
          "type": "int256"
        }
      ],
      "stateMutability": "nonpayable",
      "type": "function"
    },
    {
      "inputs": [
        {
          "internalType": "address",
          "name": "token",
          "type": "address"
        },
        {
          "internalType": "address",
          "name": "account",
          "type": "address"
        }
      ],
      "name": "unfreezeTokenPublic",
      "outputs": [
        {
          "internalType": "int256",
          "name": "responseCode",
          "type": "int256"
        }
      ],
      "stateMutability": "nonpayable",
      "type": "function"
    },
    {
      "inputs": [
        {
          "internalType": "address",
          "name": "token",
          "type": "address"
        }
      ],
      "name": "unpauseToken",
      "outputs": [
        {
          "internalType": "int256",
          "name": "responseCode",
          "type": "int256"
        }
      ],
      "stateMutability": "nonpayable",
      "type": "function"
    },
    {
      "inputs": [
        {
          "internalType": "address",
          "name": "token",
          "type": "address"
        }
      ],
      "name": "unpauseTokenPublic",
      "outputs": [
        {
          "internalType": "int256",
          "name": "responseCode",
          "type": "int256"
        }
      ],
      "stateMutability": "nonpayable",
      "type": "function"
    },
    {
      "inputs": [
        {
          "internalType": "address",
          "name": "token",
          "type": "address"
        },
        {
          "internalType": "address",
          "name": "account",
          "type": "address"
        },
        {
          "internalType": "int64[]",
          "name": "serialNumbers",
          "type": "int64[]"
        }
      ],
      "name": "wipeTokenAccountNFTPublic",
      "outputs": [
        {
          "internalType": "int256",
          "name": "responseCode",
          "type": "int256"
        }
      ],
      "stateMutability": "nonpayable",
      "type": "function"
    },
    {
      "inputs": [
        {
          "internalType": "address",
          "name": "token",
          "type": "address"
        },
        {
          "internalType": "address",
          "name": "account",
          "type": "address"
        },
        {
          "internalType": "uint32",
          "name": "amount",
          "type": "uint32"
        }
      ],
      "name": "wipeTokenAccountPublic",
      "outputs": [
        {
          "internalType": "int256",
          "name": "responseCode",
          "type": "int256"
        }
      ],
      "stateMutability": "nonpayable",
      "type": "function"
    }
  ],
  "bytecode": "0x60c06040526009608081905268746f6b656e4e616d6560b81b60a09081526200002c9160019190620000cb565b5060408051808201909152600b8082526a1d1bdad95b94de5b589bdb60aa1b60209092019182526200006191600291620000cb565b50604080518082019091526004808252636d656d6f60e01b60209092019182526200008f91600391620000cb565b506103e860048190556005805463ffffffff1916909117905560086006556007805460ff19169055348015620000c457600080fd5b50620001ae565b828054620000d99062000171565b90600052602060002090601f016020900481019282620000fd576000855562000148565b82601f106200011857805160ff191683800117855562000148565b8280016001018555821562000148579182015b82811115620001485782518255916020019190600101906200012b565b50620001569291506200015a565b5090565b5b808211156200015657600081556001016200015b565b600181811c908216806200018657607f821691505b60208210811415620001a857634e487b7160e01b600052602260045260246000fd5b50919050565b614dea80620001be6000396000f3fe6080604052600436106101c25760003560e01c80637c41ad2c116100f7578063d92ac24811610095578063f4a01e5b11610064578063f4a01e5b14610565578063f7be342514610585578063f848fec4146105a5578063f9e978bd146105c557600080fd5b8063d92ac248146104d7578063ec855c31146104f7578063f25b120014610517578063f2f38a741461053757600080fd5b806386f88d88116100d157806386f88d88146104715780638ba74da014610491578063a345f7bd146104a4578063d85f74c1146104c457600080fd5b80637c41ad2c146104025780637d3e5da8146104225780638070905f1461044257600080fd5b80634cbdb37b116101645780635b9076b71161013e5780635b9076b71461036457806369837dc2146103945780636a4dde21146103c25780636da6b1f0146103e257600080fd5b80634cbdb37b146102e157806356af84031461030f5780635a5e6c311461032f57600080fd5b80632d73bb2e116101a05780632d73bb2e1461026c5780633b3bff0f1461028c5780633eed2c39146102ac5780634b5c6687146102cc57600080fd5b806313c05dd8146101c757806319db44b6146102015780632b256ec81461023e575b600080fd5b3480156101d357600080fd5b506101e76101e2366004613abd565b6105e5565b604080519283529015156020830152015b60405180910390f35b34801561020d57600080fd5b5061022161021c366004613d4f565b610663565b604080519283526001600160a01b039091166020830152016101f8565b34801561024a57600080fd5b5061025e610259366004613a69565b6106e7565b6040519081526020016101f8565b34801561027857600080fd5b5061025e610287366004613a85565b6107d3565b34801561029857600080fd5b5061025e6102a7366004613a69565b61081e565b3480156102b857600080fd5b506101e76102c7366004613a69565b6108f8565b6102df6102da366004613a69565b610972565b005b3480156102ed57600080fd5b506103016102fc366004613d22565b610d23565b6040516101f89291906149e7565b34801561031b57600080fd5b5061025e61032a366004613b62565b610d99565b34801561033b57600080fd5b5061034f61034a366004613abd565b610de3565b604080519283526020830191909152016101f8565b34801561037057600080fd5b5061038461037f366004613a69565b610e54565b6040516101f89493929190614a42565b3480156103a057600080fd5b506103b46103af366004613a69565b610ee6565b6040516101f89291906149ce565b3480156103ce57600080fd5b506101e76103dd366004613a85565b610f5b565b3480156103ee57600080fd5b5061025e6103fd366004613b07565b610fd2565b34801561040e57600080fd5b5061025e61041d366004613a69565b61101e565b34801561042e57600080fd5b5061025e61043d366004613a85565b61104c565b34801561044e57600080fd5b5061046261045d366004613d7a565b611058565b6040516101f893929190614a19565b34801561047d57600080fd5b506101e761048c366004613a69565b6110e0565b6102df61049f366004613a85565b611151565b3480156104b057600080fd5b5061025e6104bf366004613a69565b61160d565b6102df6104d2366004613a69565b611653565b3480156104e357600080fd5b5061025e6104f2366004613ce3565b6119ea565b34801561050357600080fd5b5061025e610512366004613c64565b6119f7565b34801561052357600080fd5b5061025e610532366004613c25565b611bf8565b34801561054357600080fd5b50610557610552366004613a69565b611c05565b6040516101f8929190614a00565b34801561057157600080fd5b5061025e610580366004613a85565b611c7a565b34801561059157600080fd5b5061025e6105a0366004613a69565b611ca7565b3480156105b157600080fd5b5061025e6105c0366004613ca3565b611d8a565b3480156105d157600080fd5b506102df6105e0366004613e88565b611d97565b6000806105f3858585611de4565b6040518281529193509150600080516020614d958339815191529060200160405180910390a16016821461062657600080fd5b60405181151581527e1c2e72360171244b3bb8cc8ddd767820edf37138ad6f129fb3574b407c307d906020015b60405180910390a1935093915050565b6000806106708484611ee3565b6040518281529193509150600080516020614d958339815191529060200160405180910390a1601682146106a357600080fd5b6040516001600160a01b03821681527fc2c78c7c31baf14949e75c51df12be56edb9af523cf82839c2869bbcf13b3ecb906020015b60405180910390a19250929050565b604051631f106b4b60e21b81526001600160a01b03821660048201526000903090637c41ad2c90602401602060405180830381600087803b15801561072b57600080fd5b505af115801561073f573d6000803e3d6000fd5b505050506040513d601f19601f820116820180604052508101906107639190613ea4565b9050600080516020614d958339815191528160405161078491815260200190565b60405180910390a16016811461079957600080fd5b604051600181527f0c9c765845f4d139956bb8fc8decb2eec6093c9c608b809641b16054b29f0e13906020015b60405180910390a1919050565b60006107df8383611fd5565b60070b9050600080516020614d958339815191528160405161080391815260200190565b60405180910390a16016811461081857600080fd5b92915050565b6040516001600160a01b03821660248201526000908190819061016790633b3bff0f60e01b906044015b60408051601f198184030181529181526020820180516001600160e01b03166001600160e01b031990941693909317909252905161088691906147ee565b6000604051808303816000865af19150503d80600081146108c3576040519150601f19603f3d011682016040523d82523d6000602084013e6108c8565b606091505b5091509150816108d95760156108ed565b808060200190518101906108ed9190613ebc565b60030b949350505050565b600080610904836120d1565b6040518281529193509150600080516020614d958339815191529060200160405180910390a16016821461093757600080fd5b60405181151581527f6b7f3306751292f85ab4161ee2b0ac16dfc8ded13e6446ce6bd859d0a2f4c78e906020015b60405180910390a1915091565b60408051600380825260808201909252600091816020015b6109926131d5565b81526020019060019003908161098a5790505090506109c5600060066001604051806020016040528060008152506121ce565b816000815181106109e657634e487b7160e01b600052603260045260246000fd5b6020026020010181905250610a0d6002600160405180602001604052806000815250612205565b81600181518110610a2e57634e487b7160e01b600052603260045260246000fd5b6020026020010181905250610a556003600160405180602001604052806000815250612205565b81600281518110610a7657634e487b7160e01b600052603260045260246000fd5b602002602001018190525060006040518060600160405280600063ffffffff168152602001846001600160a01b03168152602001627a120063ffffffff168152509050600060405180610120016040528060018054610ad490614cb4565b80601f0160208091040260200160405190810160405280929190818152602001828054610b0090614cb4565b8015610b4d5780601f10610b2257610100808354040283529160200191610b4d565b820191906000526020600020905b815481529060010190602001808311610b3057829003601f168201915b5050505050815260200160028054610b6490614cb4565b80601f0160208091040260200160405190810160405280929190818152602001828054610b9090614cb4565b8015610bdd5780601f10610bb257610100808354040283529160200191610bdd565b820191906000526020600020905b815481529060010190602001808311610bc057829003601f168201915b50505050508152602001856001600160a01b0316815260200160038054610c0390614cb4565b80601f0160208091040260200160405190810160405280929190818152602001828054610c2f90614cb4565b8015610c7c5780601f10610c5157610100808354040283529160200191610c7c565b820191906000526020600020905b815481529060010190602001808311610c5f57829003601f168201915b50505091835250506001602082015260055463ffffffff16604082015260075460ff16151560608201526080810185905260a0018390526004546006549192506000918291610ccd9185919061223a565b909250905060168214610cdf57600080fd5b6040516001600160a01b03821681527f7bb17726df1f3adee8aa00ba8e8bc5d6f182af3bbf77604639cb7f008dd3b4ed9060200160405180910390a1505050505050565b6000610d2d613232565b610d378484612368565b6040518281529193509150600080516020614d958339815191529060200160405180910390a160168214610d6a57600080fd5b7fa516f81c528634d0fc1e993bba1d227231b4bd6d1beb72d33b056a6199c0f988816040516106d89190614b2b565b6000610da684848461245b565b9050600080516020614d9583398151915281604051610dc791815260200190565b60405180910390a160168114610ddc57600080fd5b9392505050565b600080610df185858561253b565b6040518281529193509150600080516020614d958339815191529060200160405180910390a160168214610e2457600080fd5b6040518181527f25b6684a7e8fe1b676e9c39c8dd65034fbafea906d3bdfd97bf748b7b55e14c890602001610653565b60006060806060610e6485612627565b604051600785900b815293975091955093509150600080516020614d958339815191529060200160405180910390a1600784900b601614610ea457600080fd5b7f2efc8334b040613a552197fe34283d6ca2909c8ffae393e128424931f20c69b3838383604051610ed7939291906148c2565b60405180910390a19193509193565b6000610ef061326d565b610ef983612727565b6040518281529193509150600080516020614d958339815191529060200160405180910390a160168214610f2c57600080fd5b7f476a9a9b28e2717d55288b2ae3c48a72aac52b11f8bd855017c9d41d9fc18964816040516109659190614a8f565b600080610f688484612810565b60405160079290920b80835293509150600080516020614d958339815191529060200160405180910390a160168214610fa057600080fd5b60405181151581527f59800d968fcce138300a0019410b4b75041610d65b3cdc5f31656b03ed14912e906020016106d8565b6000610fe0858585856128f4565b9050600080516020614d958339815191528160405161100191815260200190565b60405180910390a16016811461101657600080fd5b949350505050565b6040516001600160a01b03821660248201526000908190819061016790631f106b4b60e21b90604401610848565b60006107df83836129f5565b6000806060611068868686612a44565b6040518381529295509093509150600080516020614d958339815191529060200160405180910390a16016831461109e57600080fd5b7feff23992f47b3c101679f8b4dc9d3e242c903909dba4a453f2b2341ad463b0e282826040516110cf929190614b51565b60405180910390a193509350939050565b6000806110ec83612b42565b6040518281529193509150600080516020614d958339815191529060200160405180910390a16016821461111f57600080fd5b60405181151581527f9ee19e13dfa1ba8db2502e15ff56dbecdeb0e0473323fb195473ce648030a2cd90602001610965565b604080516001808252818301909252600091816020015b6111706131d5565b8152602001906001900390816111685790505090506111a26000806001604051806020016040528060008152506121ce565b816000815181106111c357634e487b7160e01b600052603260045260246000fd5b602002602001018190525060006040518060600160405280600063ffffffff168152602001856001600160a01b03168152602001627a120063ffffffff16815250905060006040518061012001604052806001805461122190614cb4565b80601f016020809104026020016040519081016040528092919081815260200182805461124d90614cb4565b801561129a5780601f1061126f5761010080835404028352916020019161129a565b820191906000526020600020905b81548152906001019060200180831161127d57829003601f168201915b50505050508152602001600280546112b190614cb4565b80601f01602080910402602001604051908101604052809291908181526020018280546112dd90614cb4565b801561132a5780601f106112ff5761010080835404028352916020019161132a565b820191906000526020600020905b81548152906001019060200180831161130d57829003601f168201915b50505050508152602001866001600160a01b031681526020016003805461135090614cb4565b80601f016020809104026020016040519081016040528092919081815260200182805461137c90614cb4565b80156113c95780601f1061139e576101008083540402835291602001916113c9565b820191906000526020600020905b8154815290600101906020018083116113ac57829003601f168201915b505050918352505060016020820181905260055463ffffffff166040808401919091526000606084018190526080840188905260a09093018690528051828152808201909152929350909190816020015b6040805160a08101825260008082526020808301829052928201819052606082018190526080820152825260001990920191018161141a5750506040805160a081018252600181526001600160a01b038881166020830152600092820183905260608201839052891660808201528251929350918391906114ab57634e487b7160e01b600052603260045260246000fd5b6020908102919091010152604080516001808252818301909252600091816020015b6040805160c08101825260008082526020808301829052928201819052606082018190526080820181905260a082015282526000199092019101816114cd5750506040805160c0810182526004815260056020820152600a91810191909152601e60608201526000608082018190526001600160a01b038a1660a08301528251929350909183919061156f57634e487b7160e01b600052603260045260246000fd5b602002602001018190525060008061158e856004546006548787612b8b565b91509150600080516020614d95833981519152826040516115b191815260200190565b60405180910390a1601682146115c657600080fd5b6040516001600160a01b03821681527f7bb17726df1f3adee8aa00ba8e8bc5d6f182af3bbf77604639cb7f008dd3b4ed9060200160405180910390a1505050505050505050565b600061161882612cbf565b9050600080516020614d958339815191528160405161163991815260200190565b60405180910390a16016811461164e57600080fd5b919050565b60408051600480825260a08201909252600091816020015b6116736131d5565b81526020019060019003908161166b5790505090506116a6600060066001604051806020016040528060008152506121ce565b816000815181106116c757634e487b7160e01b600052603260045260246000fd5b60200260200101819052506116ee6004600160405180602001604052806000815250612205565b8160018151811061170f57634e487b7160e01b600052603260045260246000fd5b60200260200101819052506117366002600160405180602001604052806000815250612205565b8160028151811061175757634e487b7160e01b600052603260045260246000fd5b602002602001018190525061177e6003600160405180602001604052806000815250612205565b8160038151811061179f57634e487b7160e01b600052603260045260246000fd5b602002602001018190525060006040518060600160405280600063ffffffff168152602001846001600160a01b03168152602001627a120063ffffffff1681525090506000604051806101200160405280600180546117fd90614cb4565b80601f016020809104026020016040519081016040528092919081815260200182805461182990614cb4565b80156118765780601f1061184b57610100808354040283529160200191611876565b820191906000526020600020905b81548152906001019060200180831161185957829003601f168201915b505050505081526020016002805461188d90614cb4565b80601f01602080910402602001604051908101604052809291908181526020018280546118b990614cb4565b80156119065780601f106118db57610100808354040283529160200191611906565b820191906000526020600020905b8154815290600101906020018083116118e957829003601f168201915b50505050508152602001856001600160a01b031681526020016003805461192c90614cb4565b80601f016020809104026020016040519081016040528092919081815260200182805461195890614cb4565b80156119a55780601f1061197a576101008083540402835291602001916119a5565b820191906000526020600020905b81548152906001019060200180831161198857829003601f168201915b50505091835250506001602082015260055463ffffffff16604082015260075460ff16151560608201526080810185905260a0018390529050600080610ccd83612d06565b6000610da6848484612df0565b60408051600080825260208201909252819081611a3c565b6040805160608101825260008082526020808301829052928201528252600019909201910181611a0f5790505b50905060006040518060400160405280336001600160a01b0316815260200185611a6590614cef565b600790810b9091526040805180820182526001600160a01b038a1681529187900b602083015280516002808252606082019092529293509091600091816020015b6040805180820190915260008082526020820152815260200190600190039081611aa65790505090508281600081518110611af157634e487b7160e01b600052603260045260246000fd5b60200260200101819052508181600181518110611b1e57634e487b7160e01b600052603260045260246000fd5b602090810291909101810191909152604080516060810182526001600160a01b038a16815291820183905281810186905280516001808252818301909252600091816020015b611b91604051806060016040528060006001600160a01b0316815260200160608152602001606081525090565b815260200190600190039081611b645790505090508181600081518110611bc857634e487b7160e01b600052603260045260246000fd5b6020026020010181905250611bdc81612e4b565b965060168714611beb57600080fd5b5050505050509392505050565b6000610da6848484612e75565b6000611c0f61328d565b611c1883612ecc565b6040518281529193509150600080516020614d958339815191529060200160405180910390a160168214611c4b57600080fd5b7f528c7dcea75f0c9e110a038e50647cd6a70ac06d331399b77dd9a80f903ebc16816040516109659190614b3e565b6000611c868383612fb5565b9050600080516020614d958339815191528160405161080391815260200190565b604051633b3bff0f60e01b81526001600160a01b03821660048201526000903090633b3bff0f90602401602060405180830381600087803b158015611ceb57600080fd5b505af1158015611cff573d6000803e3d6000fd5b505050506040513d601f19601f82011682018060405250810190611d239190613ea4565b9050600080516020614d9583398151915281604051611d4491815260200190565b60405180910390a160168114611d5957600080fd5b604051600181527f319ab7084208e4afa38c6e6ff7aea9587439f2e4700746f4c7d425fea17426d2906020016107c6565b6000610da6848484613004565b6007805460ff191682151590811790915560405160ff909116151581527f457c3a16a0ebdc38e3675609957ca3fcc4490e220bd15d85d34f58e2e145cb089060200160405180910390a150565b604080516001600160a01b0385811660248301528481166044830152831660648083019190915282518083039091018152608490910182526020810180516001600160e01b03167ff49f40db00000000000000000000000000000000000000000000000000000000179052905160009182918291829161016791611e67916147ee565b6000604051808303816000865af19150503d8060008114611ea4576040519150601f19603f3d011682016040523d82523d6000602084013e611ea9565b606091505b509150915081611ebc5760156000611ed0565b80806020019051810190611ed09190613f96565b60039190910b9890975095505050505050565b604080516001600160a01b0384166024820152604480820184905282518083039091018152606490910182526020810180516001600160e01b03167f098f236600000000000000000000000000000000000000000000000000000000179052905160009182918291829161016791611f5a916147ee565b6000604051808303816000865af19150503d8060008114611f97576040519150601f19603f3d011682016040523d82523d6000602084013e611f9c565b606091505b509150915081611faf5760156000611fc3565b80806020019051810190611fc39190613ed6565b60039190910b97909650945050505050565b6040516001600160a01b0383811660248301528216604482015260009081908190610167907f52f9138700000000000000000000000000000000000000000000000000000000906064015b60408051601f198184030181529181526020820180516001600160e01b03166001600160e01b031990941693909317909252905161205e91906147ee565b6000604051808303816000865af19150503d806000811461209b576040519150601f19603f3d011682016040523d82523d6000602084013e6120a0565b606091505b5091509150816120b15760156120c5565b808060200190518101906120c59190613ebc565b60030b95945050505050565b6040516001600160a01b0382166024820152600090819081908190610167907fa7daa18d00000000000000000000000000000000000000000000000000000000906044015b60408051601f198184030181529181526020820180516001600160e01b03166001600160e01b031990941693909317909252905161215491906147ee565b6000604051808303816000865af19150503d8060008114612191576040519150601f19603f3d011682016040523d82523d6000602084013e612196565b606091505b5091509150816121a957601560006121bd565b808060200190518101906121bd9190613f96565b60039190910b969095509350505050565b6121d66131d5565b60405180604001604052806121eb878761305a565b81526020016121fa8585613073565b905295945050505050565b61220d6131d5565b604051806040016040528061222186613143565b81526020016122308585613073565b9052949350505050565b600080848061010001516000015163ffffffff16600014801561226a57506101008101516040015163ffffffff16155b15612280576101008101516276a7006040909101525b6000806101676001600160a01b031634637812a04b60e01b8a8a8a6040516024016122ad93929190614ab5565b60408051601f198184030181529181526020820180516001600160e01b03166001600160e01b03199094169390931790925290516122eb91906147ee565b60006040518083038185875af1925050503d8060008114612328576040519150601f19603f3d011682016040523d82523d6000602084013e61232d565b606091505b5091509150816123405760156000612354565b808060200190518101906123549190613ed6565b60039190910b999098509650505050505050565b6000612372613232565b604080516001600160a01b0386166024820152600785900b60448083019190915282518083039091018152606490910182526020810180516001600160e01b03167f287e1da80000000000000000000000000000000000000000000000000000000017905290516000918291610167916123eb916147ee565b6000604051808303816000865af19150503d8060008114612428576040519150601f19603f3d011682016040523d82523d6000602084013e61242d565b606091505b509150915061243a613232565b8261244757601581611ed0565b81806020019051810190611ed09190614069565b60008060006101676001600160a01b031663f7f38e2660e01b8787876040516024016124899392919061480a565b60408051601f198184030181529181526020820180516001600160e01b03166001600160e01b03199094169390931790925290516124c791906147ee565b6000604051808303816000865af19150503d8060008114612504576040519150601f19603f3d011682016040523d82523d6000602084013e612509565b606091505b50915091508161251a57601561252e565b8080602001905181019061252e9190613ebc565b60030b9695505050505050565b604080516001600160a01b0385811660248301528481166044830152831660648083019190915282518083039091018152608490910182526020810180516001600160e01b03167f927da105000000000000000000000000000000000000000000000000000000001790529051600091829182918291610167916125be916147ee565b6000604051808303816000865af19150503d80600081146125fb576040519150601f19603f3d011682016040523d82523d6000602084013e612600565b606091505b5091509150816126135760156000611ed0565b80806020019051810190611ed09190614198565b604080516001600160a01b03831660248083019190915282518083039091018152604490910182526020810180516001600160e01b03167fae7611a000000000000000000000000000000000000000000000000000000000179052905160009160609182918291859182916101679161269f916147ee565b6000604051808303816000865af19150503d80600081146126dc576040519150601f19603f3d011682016040523d82523d6000602084013e6126e1565b606091505b50915091506060806060846126fa57601583838361270e565b8380602001905181019061270e9190613f01565b60039390930b9d919c509a509098509650505050505050565b600061273161326d565b604080516001600160a01b03851660248083019190915282518083039091018152604490910182526020810180516001600160e01b03167f3f28a19b0000000000000000000000000000000000000000000000000000000017905290516000918291610167916127a0916147ee565b6000604051808303816000865af19150503d80600081146127dd576040519150601f19603f3d011682016040523d82523d6000602084013e6127e2565b606091505b50915091506127ef61326d565b826127fc57601581611fc3565b81806020019051810190611fc39190613fc1565b604080516001600160a01b038481166024830152831660448083019190915282518083039091018152606490910182526020810180516001600160e01b03167f46de0fb10000000000000000000000000000000000000000000000000000000017905290516000918291829182916101679161288b916147ee565b6000604051808303816000865af19150503d80600081146128c8576040519150601f19603f3d011682016040523d82523d6000602084013e6128cd565b606091505b5091509150816128e05760156000611fc3565b80806020019051810190611fc39190613f96565b604080516001600160a01b038681166024830152858116604483015284166064820152600783900b6084808301919091528251808303909101815260a490910182526020810180516001600160e01b03167f5cfc9011000000000000000000000000000000000000000000000000000000001790529051600091829182916101679161298091906147ee565b6000604051808303816000865af19150503d80600081146129bd576040519150601f19603f3d011682016040523d82523d6000602084013e6129c2565b606091505b5091509150816129d35760156129e7565b808060200190518101906129e79190613ebc565b60030b979650505050505050565b6040516001600160a01b0383811660248301528216604482015260009081908190610167907f5b8f85840000000000000000000000000000000000000000000000000000000090606401612020565b60008060606000806101676001600160a01b031663278e0b8860e01b898989604051602401612a759392919061483f565b60408051601f198184030181529181526020820180516001600160e01b03166001600160e01b0319909416939093179092529051612ab391906147ee565b6000604051808303816000865af19150503d8060008114612af0576040519150601f19603f3d011682016040523d82523d6000602084013e612af5565b606091505b509150915081612b18576040805160008082526020820190925260159190612b2c565b80806020019051810190612b2c91906141c3565b60039290920b9a90995090975095505050505050565b6040516001600160a01b0382166024820152600090819081908190610167907f335e04c10000000000000000000000000000000000000000000000000000000090604401612116565b600080868061010001516000015163ffffffff166000148015612bbb57506101008101516040015163ffffffff16155b15612bd1576101008101516276a7006040909101525b6000806101676001600160a01b031634634c381ae760e01b8c8c8c8c8c604051602401612c02959493929190614ada565b60408051601f198184030181529181526020820180516001600160e01b03166001600160e01b0319909416939093179092529051612c4091906147ee565b60006040518083038185875af1925050503d8060008114612c7d576040519150601f19603f3d011682016040523d82523d6000602084013e612c82565b606091505b509150915081612c955760156000612ca9565b80806020019051810190612ca99190613ed6565b60039190910b9b909a5098505050505050505050565b6040516001600160a01b038216602482015260009081908190610167907ff069f7120000000000000000000000000000000000000000000000000000000090604401610848565b600080828061010001516000015163ffffffff166000148015612d3657506101008101516040015163ffffffff16155b15612d4c576101008101516276a7006040909101525b6000806101676001600160a01b031634639dc711e060e01b88604051602401612d759190614aa2565b60408051601f198184030181529181526020820180516001600160e01b03166001600160e01b0319909416939093179092529051612db391906147ee565b60006040518083038185875af1925050503d8060008114611f97576040519150601f19603f3d011682016040523d82523d6000602084013e611f9c565b6040516001600160a01b0384811660248301528316604482015263ffffffff8216606482015260009081908190610167907f9790686d0000000000000000000000000000000000000000000000000000000090608401612489565b60008060006101676001600160a01b031663189a554c60e01b8560405160240161084891906148fb565b6040516001600160a01b03848116602483015283166044820152811515606482015260009081908190610167907f367605ca0000000000000000000000000000000000000000000000000000000090608401612489565b6000612ed661328d565b604080516001600160a01b03851660248083019190915282518083039091018152604490910182526020810180516001600160e01b03167f1f69565f000000000000000000000000000000000000000000000000000000001790529051600091829161016791612f45916147ee565b6000604051808303816000865af19150503d8060008114612f82576040519150601f19603f3d011682016040523d82523d6000602084013e612f87565b606091505b5091509150612f9461328d565b82612fa157601581611fc3565b81806020019051810190611fc3919061414c565b6040516001600160a01b0383811660248301528216604482015260009081908190610167907f49146bde0000000000000000000000000000000000000000000000000000000090606401612020565b6040516001600160a01b038481166024830152831660448201526064810182905260009081908190610167907fe1f21c670000000000000000000000000000000000000000000000000000000090608401612489565b6000600160ff84161b9050600160ff83161b8117610ddc565b6130b96040518060a0016040528060001515815260200160006001600160a01b03168152602001606081526020016060815260200160006001600160a01b031681525090565b8260ff16600114156130ce5760018152610818565b8260ff16600214156130f0576000546001600160a01b03166020820152610818565b8260ff16600314156131085760408101829052610818565b8260ff16600414156131205760608101829052610818565b8260ff1660051415610818576000546001600160a01b0316608082015292915050565b600060ff821661315557506001919050565b8160ff166001141561316957506002919050565b8160ff166002141561317d57506004919050565b8160ff166003141561319157506008919050565b8160ff16600414156131a557506010919050565b8160ff16600514156131b957506020919050565b8160ff16600614156131cd57506040919050565b506000919050565b60405180604001604052806000815260200161322d6040518060a0016040528060001515815260200160006001600160a01b03168152602001606081526020016060815260200160006001600160a01b031681525090565b905290565b6040518060c0016040528061324561328d565b8152600060208201819052604082018190526060808301829052608083015260a09091015290565b604051806040016040528061328061328d565b8152600060209091015290565b60408051610240810182526060610120820181815261014083018290526000610160840181905261018084018390526101a084018190526101c084018190526101e0840181905261020084018390528451928301855280835260208301819052938201939093526102208201529081908152602001600067ffffffffffffffff168152602001600015158152602001600015158152602001600015158152602001606081526020016060815260200160608152602001606081525090565b805161164e81614d37565b600082601f830112613366578081fd5b8151602061337b61337683614c38565b614c07565b8281528181019085830160a080860288018501891015613399578687fd5b865b868110156134225781838b0312156133b1578788fd5b6133b9614b74565b83516133c481614d6c565b8152838701516133d381614d37565b818801526040848101516133e681614d4f565b908201526060848101516133f981614d4f565b9082015260808481015161340c81614d37565b908201528552938501939181019160010161339b565b509198975050505050505050565b600082601f830112613440578081fd5b8151602061345061337683614c38565b8281528181019085830160c08086028801850189101561346e578687fd5b865b868110156134225781838b031215613486578788fd5b61348e614b9d565b835161349981614d6c565b8152838701516134a881614d6c565b818801526040848101516134bb81614d6c565b908201526060848101516134ce81614d6c565b908201526080848101516134e181614d4f565b9082015260a0848101516134f481614d37565b9082015285529385019391810191600101613470565b600082601f83011261351a578081fd5b8151602061352a61337683614c38565b8281528181019085830160c080860288018501891015613548578687fd5b865b868110156134225781838b031215613560578788fd5b613568614b9d565b835161357381614d6c565b81528387015161358281614d6c565b8188015260408481015161359581614d6c565b908201526060848101516135a881614d37565b908201526080848101516135bb81614d4f565b9082015260a0848101516135ce81614d37565b908201528552938501939181019160010161354a565b600082601f8301126135f4578081fd5b8151602061360461337683614c38565b80838252828201915082860187848660051b8901011115613623578586fd5b855b8581101561373057815167ffffffffffffffff80821115613644578889fd5b90890190601f196040838d038201121561365c57898afd5b613664614bc0565b88840151815260408401518381111561367b578b8cfd5b939093019260a0848e0383011215613691578a8bfd5b613699614b74565b9150888401516136a881614d4f565b82526136b66040850161334b565b898301526060840151838111156136cb578b8cfd5b6136d98e8b83880101613748565b6040840152506080840151838111156136f0578b8cfd5b6136fe8e8b83880101613748565b60608401525061371060a0850161334b565b608083015280890191909152865250509284019290840190600101613625565b5090979650505050505050565b805161164e81614d4f565b600082601f830112613758578081fd5b815161376661337682614c5c565b81815284602083860101111561377a578283fd5b611016826020830160208701614c84565b8051600381900b811461164e57600080fd5b805161164e81614d5d565b6000606082840312156137b9578081fd5b6040516060810181811067ffffffffffffffff821117156137dc576137dc614d21565b806040525080915082516137ef81614d6c565b815260208301516137ff81614d37565b6020820152604083015161381281614d6c565b6040919091015292915050565b60006101608284031215613831578081fd5b613839614be3565b9050815167ffffffffffffffff8082111561385357600080fd5b61385f85838601613748565b8352602084015191508082111561387557600080fd5b61388185838601613748565b60208401526138926040850161334b565b604084015260608401519150808211156138ab57600080fd5b6138b785838601613748565b60608401526138c86080850161373d565b60808401526138d960a08501613a53565b60a08401526138ea60c0850161373d565b60c084015260e084015191508082111561390357600080fd5b50613910848285016135e4565b60e083015250610100613925848285016137a8565b9082015292915050565b60006101208284031215613941578081fd5b613949614be3565b9050815167ffffffffffffffff8082111561396357600080fd5b61396f8583860161381f565b835261397d60208501613a5e565b602084015261398e6040850161373d565b604084015261399f6060850161373d565b60608401526139b06080850161373d565b608084015260a08401519150808211156139c957600080fd5b6139d585838601613356565b60a084015260c08401519150808211156139ee57600080fd5b6139fa85838601613430565b60c084015260e0840151915080821115613a1357600080fd5b613a1f8583860161350a565b60e084015261010091508184015181811115613a3a57600080fd5b613a4686828701613748565b8385015250505092915050565b805161164e81614d6c565b805161164e81614d7e565b600060208284031215613a7a578081fd5b8135610ddc81614d37565b60008060408385031215613a97578081fd5b8235613aa281614d37565b91506020830135613ab281614d37565b809150509250929050565b600080600060608486031215613ad1578081fd5b8335613adc81614d37565b92506020840135613aec81614d37565b91506040840135613afc81614d37565b809150509250925092565b60008060008060808587031215613b1c578182fd5b8435613b2781614d37565b93506020850135613b3781614d37565b92506040850135613b4781614d37565b91506060850135613b5781614d5d565b939692955090935050565b600080600060608486031215613b76578081fd5b8335613b8181614d37565b9250602084810135613b9281614d37565b9250604085013567ffffffffffffffff811115613bad578283fd5b8501601f81018713613bbd578283fd5b8035613bcb61337682614c38565b8082825284820191508484018a868560051b8701011115613bea578687fd5b8694505b83851015613c15578035613c0181614d5d565b835260019490940193918501918501613bee565b5080955050505050509250925092565b600080600060608486031215613c39578081fd5b8335613c4481614d37565b92506020840135613c5481614d37565b91506040840135613afc81614d4f565b600080600060608486031215613c78578081fd5b8335613c8381614d37565b92506020840135613c9381614d37565b91506040840135613afc81614d5d565b600080600060608486031215613cb7578081fd5b8335613cc281614d37565b92506020840135613cd281614d37565b929592945050506040919091013590565b600080600060608486031215613cf7578081fd5b8335613d0281614d37565b92506020840135613d1281614d37565b91506040840135613afc81614d6c565b60008060408385031215613d34578182fd5b8235613d3f81614d37565b91506020830135613ab281614d5d565b60008060408385031215613d61578182fd5b8235613d6c81614d37565b946020939093013593505050565b600080600060608486031215613d8e578081fd5b8335613d9981614d37565b9250602084810135613daa81614d7e565b9250604085013567ffffffffffffffff80821115613dc6578384fd5b818701915087601f830112613dd9578384fd5b8135613de761337682614c38565b8082825285820191508585018b878560051b8801011115613e06578788fd5b875b84811015613e7657813586811115613e1e57898afd5b8701603f81018e13613e2e57898afd5b88810135613e3e61337682614c5c565b8181528f6040838501011115613e52578b8cfd5b81604084018c8301379081018a018b90528552509287019290870190600101613e08565b50508096505050505050509250925092565b600060208284031215613e99578081fd5b8135610ddc81614d4f565b600060208284031215613eb5578081fd5b5051919050565b600060208284031215613ecd578081fd5b610ddc8261378b565b60008060408385031215613ee8578182fd5b613ef18361378b565b91506020830151613ab281614d37565b60008060008060808587031215613f16578182fd5b613f1f8561378b565b9350602085015167ffffffffffffffff80821115613f3b578384fd5b613f4788838901613356565b94506040870151915080821115613f5c578384fd5b613f6888838901613430565b93506060870151915080821115613f7d578283fd5b50613f8a8782880161350a565b91505092959194509250565b60008060408385031215613fa8578182fd5b613fb18361378b565b91506020830151613ab281614d4f565b60008060408385031215613fd3578182fd5b613fdc8361378b565b9150602083015167ffffffffffffffff80821115613ff8578283fd5b908401906040828703121561400b578283fd5b60405160408101818110838211171561402657614026614d21565b604052825182811115614037578485fd5b6140438882860161392f565b8252506020830151925061405683614d6c565b8260208201528093505050509250929050565b6000806040838503121561407b578182fd5b6140848361378b565b9150602083015167ffffffffffffffff808211156140a0578283fd5b9084019060c082870312156140b3578283fd5b6140bb614b9d565b8251828111156140c9578485fd5b6140d58882860161392f565b8252506140e46020840161379d565b60208201526140f56040840161334b565b60408201526141066060840161379d565b606082015260808301518281111561411c578485fd5b61412888828601613748565b60808301525061413a60a0840161334b565b60a08201528093505050509250929050565b6000806040838503121561415e578182fd5b6141678361378b565b9150602083015167ffffffffffffffff811115614182578182fd5b61418e8582860161392f565b9150509250929050565b600080604083850312156141aa578182fd5b6141b38361378b565b9150602083015190509250929050565b6000806000606084860312156141d7578081fd5b6141e08461378b565b92506020808501516141f181614d7e565b604086015190935067ffffffffffffffff81111561420d578283fd5b8501601f8101871361421d578283fd5b805161422b61337682614c38565b8082825284820191508484018a868560051b870101111561424a578687fd5b8694505b83851015613c1557805161426181614d5d565b83526001949094019391850191850161424e565b6000815180845260208085019450808401835b838110156142a757815160070b87529582019590820190600101614288565b509495945050505050565b6000815180845260208085019450808401835b838110156142a7578151805163ffffffff168852838101516001600160a01b03908116858a01526040808301511515908a01526060808301511515908a0152608091820151169088015260a090960195908201906001016142c5565b6000815180845260208085019450808401835b838110156142a7578151805163ffffffff9081168952848201518116858a01526040808301518216908a01526060808301519091169089015260808082015115159089015260a0908101516001600160a01b03169088015260c09096019590820190600101614334565b6000815180845260208085019450808401835b838110156142a757815180516001600160a01b03908116895284820151168489015260409081015160070b90880152606090960195908201906001016143b1565b6000815180845260208085019450808401835b838110156142a7578151805163ffffffff9081168952848201518116858a0152604080830151909116908901526060808201516001600160a01b03908116918a01919091526080808301511515908a015260a091820151169088015260c09096019590820190600101614405565b600081518084526020808501808196508360051b81019150828601855b858110156145295782840389528151604081518652868201519150808787015281511515818701528682015160606001600160a01b03808316828a015283850151935060a09250608083818b01526144eb60e08b0186614536565b928601518a8403603f1901858c01529294506145078584614536565b9501511660c09890980197909752505098850198935090840190600101614490565b5091979650505050505050565b6000815180845261454e816020860160208601614c84565b601f01601f19169290920160200192915050565b6000815160408452614577604085018261470d565b60209384015163ffffffff16949093019390935250919050565b600061016082518185526145a782860182614536565b915050602083015184820360208601526145c18282614536565b91505060408301516145de60408601826001600160a01b03169052565b50606083015184820360608601526145f68282614536565b915050608083015161460c608086018215159052565b5060a083015161462460a086018263ffffffff169052565b5060c083015161463860c086018215159052565b5060e083015184820360e08601526146508282614473565b61010085810151805163ffffffff9081168984015260208201516001600160a01b03166101208a015260408201511661014089015291935091505090949350505050565b6000815160c084526146a960c085018261470d565b9050602083015160070b602085015260408301516001600160a01b038082166040870152606085015160070b60608701526080850151915085830360808701526146f38383614536565b92508060a08601511660a087015250508091505092915050565b6000610120825181855261472382860182614591565b9150506020830151614741602086018267ffffffffffffffff169052565b506040830151614755604086018215159052565b506060830151614769606086018215159052565b50608083015161477d608086018215159052565b5060a083015184820360a086015261479582826142b2565b91505060c083015184820360c08601526147af8282614321565b91505060e083015184820360e08601526147c982826143f2565b91505061010080840151858303828701526147e48382614536565b9695505050505050565b60008251614800818460208701614c84565b9190910192915050565b60006001600160a01b038086168352808516602084015250606060408301526148366060830184614275565b95945050505050565b6000606082016001600160a01b0386168352602067ffffffffffffffff8616818501526060604085015281855180845260808601915060808160051b8701019350828701855b828110156148b357607f198887030184526148a1868351614536565b95509284019290840190600101614885565b50939998505050505050505050565b6060815260006148d560608301866142b2565b82810360208401526148e78186614321565b905082810360408401526147e481856143f2565b60006020808301818452808551808352604092508286019150828160051b870101848801865b838110156149c057888303603f19018552815180516001600160a01b0390811685528882015160608a870181905281519087018190526080870192918b0191908c905b808210156149925783518051841686528d015160070b8d860152938b0193928c019260019190910190614964565b505050509087015184820385890152906149ac818361439e565b968901969450505090860190600101614921565b509098975050505050505050565b8281526040602082015260006110166040830184614562565b8281526040602082015260006110166040830184614694565b828152604060208201526000611016604083018461470d565b83815267ffffffffffffffff831660208201526060604082015260006148366060830184614275565b8460070b8152608060208201526000614a5e60808301866142b2565b8281036040840152614a708186614321565b90508281036060840152614a8481856143f2565b979650505050505050565b602081526000610ddc6020830184614562565b602081526000610ddc6020830184614591565b606081526000614ac86060830186614591565b60208301949094525060400152919050565b60a081526000614aed60a0830188614591565b8660208401528560408401528281036060840152614b0b81866142b2565b90508281036080840152614b1f8185614321565b98975050505050505050565b602081526000610ddc6020830184614694565b602081526000610ddc602083018461470d565b67ffffffffffffffff831681526040602082015260006110166040830184614275565b60405160a0810167ffffffffffffffff81118282101715614b9757614b97614d21565b60405290565b60405160c0810167ffffffffffffffff81118282101715614b9757614b97614d21565b6040805190810167ffffffffffffffff81118282101715614b9757614b97614d21565b604051610120810167ffffffffffffffff81118282101715614b9757614b97614d21565b604051601f8201601f1916810167ffffffffffffffff81118282101715614c3057614c30614d21565b604052919050565b600067ffffffffffffffff821115614c5257614c52614d21565b5060051b60200190565b600067ffffffffffffffff821115614c7657614c76614d21565b50601f01601f191660200190565b60005b83811015614c9f578181015183820152602001614c87565b83811115614cae576000848401525b50505050565b600181811c90821680614cc857607f821691505b60208210811415614ce957634e487b7160e01b600052602260045260246000fd5b50919050565b60008160070b677fffffffffffffff19811415614d1a57634e487b7160e01b82526011600452602482fd5b9003919050565b634e487b7160e01b600052604160045260246000fd5b6001600160a01b0381168114614d4c57600080fd5b50565b8015158114614d4c57600080fd5b8060070b8114614d4c57600080fd5b63ffffffff81168114614d4c57600080fd5b67ffffffffffffffff81168114614d4c57600080fdfe90a5cf4cffe88b4edbb041cfc7a8a812c48a5ec30b84640fb37690875168e3aaa26469706673582212206966c235821a53c9bbe4179aafcc61d7cc6a4002357a4cf43c269a793690a03964736f6c63430008040033",
  "linkReferences": {},
  "deployedLinkReferences": {}
}