{
  "_format": "hh-sol-artifact-1",
  "contractName": "BaseHTS",
  "sourceName": "contracts/BaseHTS.sol",
  "abi": [
    {
      "anonymous": false,
      "inputs": [
        {
          "indexed": false,
          "internalType": "uint256",
          "name": "amount",
          "type": "uint256"
        }
      ],
      "name": "AllowanceValue",
      "type": "event"
    },
    {
      "anonymous": false,
      "inputs": [
        {
          "indexed": false,
          "internalType": "bool",
          "name": "approved",
          "type": "bool"
        }
      ],
      "name": "Approved",
      "type": "event"
    },
    {
      "anonymous": false,
      "inputs": [
        {
          "indexed": false,
          "internalType": "address",
          "name": "approved",
          "type": "address"
        }
      ],
      "name": "ApprovedAddress",
      "type": "event"
    },
    {
      "anonymous": false,
      "inputs": [
        {
          "indexed": false,
          "internalType": "address",
          "name": "tokenAddress",
          "type": "address"
        }
      ],
      "name": "CreatedToken",
      "type": "event"
    },
    {
      "anonymous": false,
      "inputs": [
        {
          "indexed": false,
          "internalType": "bool",
          "name": "freezeStatus",
          "type": "bool"
        }
      ],
      "name": "DefaultFreezeStatusChanged",
      "type": "event"
    },
    {
      "anonymous": false,
      "inputs": [
        {
          "indexed": false,
          "internalType": "bool",
          "name": "frozen",
          "type": "bool"
        }
      ],
      "name": "Frozen",
      "type": "event"
    },
    {
      "anonymous": false,
      "inputs": [
        {
          "components": [
            {
              "components": [
                {
                  "components": [
                    {
                      "internalType": "string",
                      "name": "name",
                      "type": "string"
                    },
                    {
                      "internalType": "string",
                      "name": "symbol",
                      "type": "string"
                    },
                    {
                      "internalType": "address",
                      "name": "treasury",
                      "type": "address"
                    },
                    {
                      "internalType": "string",
                      "name": "memo",
                      "type": "string"
                    },
                    {
                      "internalType": "bool",
                      "name": "tokenSupplyType",
                      "type": "bool"
                    },
                    {
                      "internalType": "uint32",
                      "name": "maxSupply",
                      "type": "uint32"
                    },
                    {
                      "internalType": "bool",
                      "name": "freezeDefault",
                      "type": "bool"
                    },
                    {
                      "components": [
                        {
                          "internalType": "uint256",
                          "name": "keyType",
                          "type": "uint256"
                        },
                        {
                          "components": [
                            {
                              "internalType": "bool",
                              "name": "inheritAccountKey",
                              "type": "bool"
                            },
                            {
                              "internalType": "address",
                              "name": "contractId",
                              "type": "address"
                            },
                            {
                              "internalType": "bytes",
                              "name": "ed25519",
                              "type": "bytes"
                            },
                            {
                              "internalType": "bytes",
                              "name": "ECDSA_secp256k1",
                              "type": "bytes"
                            },
                            {
                              "internalType": "address",
                              "name": "delegatableContractId",
                              "type": "address"
                            }
                          ],
                          "internalType": "struct IHederaTokenService.KeyValue",
                          "name": "key",
                          "type": "tuple"
                        }
                      ],
                      "internalType": "struct IHederaTokenService.TokenKey[]",
                      "name": "tokenKeys",
                      "type": "tuple[]"
                    },
                    {
                      "components": [
                        {
                          "internalType": "uint32",
                          "name": "second",
                          "type": "uint32"
                        },
                        {
                          "internalType": "address",
                          "name": "autoRenewAccount",
                          "type": "address"
                        },
                        {
                          "internalType": "uint32",
                          "name": "autoRenewPeriod",
                          "type": "uint32"
                        }
                      ],
                      "internalType": "struct IHederaTokenService.Expiry",
                      "name": "expiry",
                      "type": "tuple"
                    }
                  ],
                  "internalType": "struct IHederaTokenService.HederaToken",
                  "name": "token",
                  "type": "tuple"
                },
                {
                  "internalType": "uint64",
                  "name": "totalSupply",
                  "type": "uint64"
                },
                {
                  "internalType": "bool",
                  "name": "deleted",
                  "type": "bool"
                },
                {
                  "internalType": "bool",
                  "name": "defaultKycStatus",
                  "type": "bool"
                },
                {
                  "internalType": "bool",
                  "name": "pauseStatus",
                  "type": "bool"
                },
                {
                  "components": [
                    {
                      "internalType": "uint32",
                      "name": "amount",
                      "type": "uint32"
                    },
                    {
                      "internalType": "address",
                      "name": "tokenId",
                      "type": "address"
                    },
                    {
                      "internalType": "bool",
                      "name": "useHbarsForPayment",
                      "type": "bool"
                    },
                    {
                      "internalType": "bool",
                      "name": "useCurrentTokenForPayment",
                      "type": "bool"
                    },
                    {
                      "internalType": "address",
                      "name": "feeCollector",
                      "type": "address"
                    }
                  ],
                  "internalType": "struct IHederaTokenService.FixedFee[]",
                  "name": "fixedFees",
                  "type": "tuple[]"
                },
                {
                  "components": [
                    {
                      "internalType": "uint32",
                      "name": "numerator",
                      "type": "uint32"
                    },
                    {
                      "internalType": "uint32",
                      "name": "denominator",
                      "type": "uint32"
                    },
                    {
                      "internalType": "uint32",
                      "name": "minimumAmount",
                      "type": "uint32"
                    },
                    {
                      "internalType": "uint32",
                      "name": "maximumAmount",
                      "type": "uint32"
                    },
                    {
                      "internalType": "bool",
                      "name": "netOfTransfers",
                      "type": "bool"
                    },
                    {
                      "internalType": "address",
                      "name": "feeCollector",
                      "type": "address"
                    }
                  ],
                  "internalType": "struct IHederaTokenService.FractionalFee[]",
                  "name": "fractionalFees",
                  "type": "tuple[]"
                },
                {
                  "components": [
                    {
                      "internalType": "uint32",
                      "name": "numerator",
                      "type": "uint32"
                    },
                    {
                      "internalType": "uint32",
                      "name": "denominator",
                      "type": "uint32"
                    },
                    {
                      "internalType": "uint32",
                      "name": "amount",
                      "type": "uint32"
                    },
                    {
                      "internalType": "address",
                      "name": "tokenId",
                      "type": "address"
                    },
                    {
                      "internalType": "bool",
                      "name": "useHbarsForPayment",
                      "type": "bool"
                    },
                    {
                      "internalType": "address",
                      "name": "feeCollector",
                      "type": "address"
                    }
                  ],
                  "internalType": "struct IHederaTokenService.RoyaltyFee[]",
                  "name": "royaltyFees",
                  "type": "tuple[]"
                },
                {
                  "internalType": "string",
                  "name": "ledgerId",
                  "type": "string"
                }
              ],
              "internalType": "struct IHederaTokenService.TokenInfo",
              "name": "tokenInfo",
              "type": "tuple"
            },
            {
              "internalType": "uint32",
              "name": "decimals",
              "type": "uint32"
            }
          ],
          "indexed": false,
          "internalType": "struct IHederaTokenService.FungibleTokenInfo",
          "name": "tokenInfo",
          "type": "tuple"
        }
      ],
      "name": "FungibleTokenInfo",
      "type": "event"
    },
    {
      "anonymous": false,
      "inputs": [
        {
          "indexed": false,
          "internalType": "bool",
          "name": "kycGranted",
          "type": "bool"
        }
      ],
      "name": "KycGranted",
      "type": "event"
    },
    {
      "anonymous": false,
      "inputs": [
        {
          "indexed": false,
          "internalType": "uint64",
          "name": "newTotalSupply",
          "type": "uint64"
        },
        {
          "indexed": false,
          "internalType": "int64[]",
          "name": "serialNumbers",
          "type": "int64[]"
        }
      ],
      "name": "MintedToken",
      "type": "event"
    },
    {
      "anonymous": false,
      "inputs": [
        {
          "components": [
            {
              "components": [
                {
                  "components": [
                    {
                      "internalType": "string",
                      "name": "name",
                      "type": "string"
                    },
                    {
                      "internalType": "string",
                      "name": "symbol",
                      "type": "string"
                    },
                    {
                      "internalType": "address",
                      "name": "treasury",
                      "type": "address"
                    },
                    {
                      "internalType": "string",
                      "name": "memo",
                      "type": "string"
                    },
                    {
                      "internalType": "bool",
                      "name": "tokenSupplyType",
                      "type": "bool"
                    },
                    {
                      "internalType": "uint32",
                      "name": "maxSupply",
                      "type": "uint32"
                    },
                    {
                      "internalType": "bool",
                      "name": "freezeDefault",
                      "type": "bool"
                    },
                    {
                      "components": [
                        {
                          "internalType": "uint256",
                          "name": "keyType",
                          "type": "uint256"
                        },
                        {
                          "components": [
                            {
                              "internalType": "bool",
                              "name": "inheritAccountKey",
                              "type": "bool"
                            },
                            {
                              "internalType": "address",
                              "name": "contractId",
                              "type": "address"
                            },
                            {
                              "internalType": "bytes",
                              "name": "ed25519",
                              "type": "bytes"
                            },
                            {
                              "internalType": "bytes",
                              "name": "ECDSA_secp256k1",
                              "type": "bytes"
                            },
                            {
                              "internalType": "address",
                              "name": "delegatableContractId",
                              "type": "address"
                            }
                          ],
                          "internalType": "struct IHederaTokenService.KeyValue",
                          "name": "key",
                          "type": "tuple"
                        }
                      ],
                      "internalType": "struct IHederaTokenService.TokenKey[]",
                      "name": "tokenKeys",
                      "type": "tuple[]"
                    },
                    {
                      "components": [
                        {
                          "internalType": "uint32",
                          "name": "second",
                          "type": "uint32"
                        },
                        {
                          "internalType": "address",
                          "name": "autoRenewAccount",
                          "type": "address"
                        },
                        {
                          "internalType": "uint32",
                          "name": "autoRenewPeriod",
                          "type": "uint32"
                        }
                      ],
                      "internalType": "struct IHederaTokenService.Expiry",
                      "name": "expiry",
                      "type": "tuple"
                    }
                  ],
                  "internalType": "struct IHederaTokenService.HederaToken",
                  "name": "token",
                  "type": "tuple"
                },
                {
                  "internalType": "uint64",
                  "name": "totalSupply",
                  "type": "uint64"
                },
                {
                  "internalType": "bool",
                  "name": "deleted",
                  "type": "bool"
                },
                {
                  "internalType": "bool",
                  "name": "defaultKycStatus",
                  "type": "bool"
                },
                {
                  "internalType": "bool",
                  "name": "pauseStatus",
                  "type": "bool"
                },
                {
                  "components": [
                    {
                      "internalType": "uint32",
                      "name": "amount",
                      "type": "uint32"
                    },
                    {
                      "internalType": "address",
                      "name": "tokenId",
                      "type": "address"
                    },
                    {
                      "internalType": "bool",
                      "name": "useHbarsForPayment",
                      "type": "bool"
                    },
                    {
                      "internalType": "bool",
                      "name": "useCurrentTokenForPayment",
                      "type": "bool"
                    },
                    {
                      "internalType": "address",
                      "name": "feeCollector",
                      "type": "address"
                    }
                  ],
                  "internalType": "struct IHederaTokenService.FixedFee[]",
                  "name": "fixedFees",
                  "type": "tuple[]"
                },
                {
                  "components": [
                    {
                      "internalType": "uint32",
                      "name": "numerator",
                      "type": "uint32"
                    },
                    {
                      "internalType": "uint32",
                      "name": "denominator",
                      "type": "uint32"
                    },
                    {
                      "internalType": "uint32",
                      "name": "minimumAmount",
                      "type": "uint32"
                    },
                    {
                      "internalType": "uint32",
                      "name": "maximumAmount",
                      "type": "uint32"
                    },
                    {
                      "internalType": "bool",
                      "name": "netOfTransfers",
                      "type": "bool"
                    },
                    {
                      "internalType": "address",
                      "name": "feeCollector",
                      "type": "address"
                    }
                  ],
                  "internalType": "struct IHederaTokenService.FractionalFee[]",
                  "name": "fractionalFees",
                  "type": "tuple[]"
                },
                {
                  "components": [
                    {
                      "internalType": "uint32",
                      "name": "numerator",
                      "type": "uint32"
                    },
                    {
                      "internalType": "uint32",
                      "name": "denominator",
                      "type": "uint32"
                    },
                    {
                      "internalType": "uint32",
                      "name": "amount",
                      "type": "uint32"
                    },
                    {
                      "internalType": "address",
                      "name": "tokenId",
                      "type": "address"
                    },
                    {
                      "internalType": "bool",
                      "name": "useHbarsForPayment",
                      "type": "bool"
                    },
                    {
                      "internalType": "address",
                      "name": "feeCollector",
                      "type": "address"
                    }
                  ],
                  "internalType": "struct IHederaTokenService.RoyaltyFee[]",
                  "name": "royaltyFees",
                  "type": "tuple[]"
                },
                {
                  "internalType": "string",
                  "name": "ledgerId",
                  "type": "string"
                }
              ],
              "internalType": "struct IHederaTokenService.TokenInfo",
              "name": "tokenInfo",
              "type": "tuple"
            },
            {
              "internalType": "int64",
              "name": "serialNumber",
              "type": "int64"
            },
            {
              "internalType": "address",
              "name": "ownerId",
              "type": "address"
            },
            {
              "internalType": "int64",
              "name": "creationTime",
              "type": "int64"
            },
            {
              "internalType": "bytes",
              "name": "metadata",
              "type": "bytes"
            },
            {
              "internalType": "address",
              "name": "spenderId",
              "type": "address"
            }
          ],
          "indexed": false,
          "internalType": "struct IHederaTokenService.NonFungibleTokenInfo",
          "name": "tokenInfo",
          "type": "tuple"
        }
      ],
      "name": "NonFungibleTokenInfo",
      "type": "event"
    },
    {
      "anonymous": false,
      "inputs": [
        {
          "indexed": false,
          "internalType": "bool",
          "name": "paused",
          "type": "bool"
        }
      ],
      "name": "PausedToken",
      "type": "event"
    },
    {
      "anonymous": false,
      "inputs": [
        {
          "indexed": false,
          "internalType": "int256",
          "name": "responseCode",
          "type": "int256"
        }
      ],
      "name": "ResponseCode",
      "type": "event"
    },
    {
      "anonymous": false,
      "inputs": [
        {
          "components": [
            {
              "internalType": "uint32",
              "name": "amount",
              "type": "uint32"
            },
            {
              "internalType": "address",
              "name": "tokenId",
              "type": "address"
            },
            {
              "internalType": "bool",
              "name": "useHbarsForPayment",
              "type": "bool"
            },
            {
              "internalType": "bool",
              "name": "useCurrentTokenForPayment",
              "type": "bool"
            },
            {
              "internalType": "address",
              "name": "feeCollector",
              "type": "address"
            }
          ],
          "indexed": false,
          "internalType": "struct IHederaTokenService.FixedFee[]",
          "name": "fixedFees",
          "type": "tuple[]"
        },
        {
          "components": [
            {
              "internalType": "uint32",
              "name": "numerator",
              "type": "uint32"
            },
            {
              "internalType": "uint32",
              "name": "denominator",
              "type": "uint32"
            },
            {
              "internalType": "uint32",
              "name": "minimumAmount",
              "type": "uint32"
            },
            {
              "internalType": "uint32",
              "name": "maximumAmount",
              "type": "uint32"
            },
            {
              "internalType": "bool",
              "name": "netOfTransfers",
              "type": "bool"
            },
            {
              "internalType": "address",
              "name": "feeCollector",
              "type": "address"
            }
          ],
          "indexed": false,
          "internalType": "struct IHederaTokenService.FractionalFee[]",
          "name": "fractionalFees",
          "type": "tuple[]"
        },
        {
          "components": [
            {
              "internalType": "uint32",
              "name": "numerator",
              "type": "uint32"
            },
            {
              "internalType": "uint32",
              "name": "denominator",
              "type": "uint32"
            },
            {
              "internalType": "uint32",
              "name": "amount",
              "type": "uint32"
            },
            {
              "internalType": "address",
              "name": "tokenId",
              "type": "address"
            },
            {
              "internalType": "bool",
              "name": "useHbarsForPayment",
              "type": "bool"
            },
            {
              "internalType": "address",
              "name": "feeCollector",
              "type": "address"
            }
          ],
          "indexed": false,
          "internalType": "struct IHederaTokenService.RoyaltyFee[]",
          "name": "royaltyFees",
          "type": "tuple[]"
        }
      ],
      "name": "TokenCustomFees",
      "type": "event"
    },
    {
      "anonymous": false,
      "inputs": [
        {
          "indexed": false,
          "internalType": "bool",
          "name": "defaultFreezeStatus",
          "type": "bool"
        }
      ],
      "name": "TokenDefaultFreezeStatus",
      "type": "event"
    },
    {
      "anonymous": false,
      "inputs": [
        {
          "indexed": false,
          "internalType": "bool",
          "name": "defaultKycStatus",
          "type": "bool"
        }
      ],
      "name": "TokenDefaultKycStatus",
      "type": "event"
    },
    {
      "anonymous": false,
      "inputs": [
        {
          "components": [
            {
              "components": [
                {
                  "internalType": "string",
                  "name": "name",
                  "type": "string"
                },
                {
                  "internalType": "string",
                  "name": "symbol",
                  "type": "string"
                },
                {
                  "internalType": "address",
                  "name": "treasury",
                  "type": "address"
                },
                {
                  "internalType": "string",
                  "name": "memo",
                  "type": "string"
                },
                {
                  "internalType": "bool",
                  "name": "tokenSupplyType",
                  "type": "bool"
                },
                {
                  "internalType": "uint32",
                  "name": "maxSupply",
                  "type": "uint32"
                },
                {
                  "internalType": "bool",
                  "name": "freezeDefault",
                  "type": "bool"
                },
                {
                  "components": [
                    {
                      "internalType": "uint256",
                      "name": "keyType",
                      "type": "uint256"
                    },
                    {
                      "components": [
                        {
                          "internalType": "bool",
                          "name": "inheritAccountKey",
                          "type": "bool"
                        },
                        {
                          "internalType": "address",
                          "name": "contractId",
                          "type": "address"
                        },
                        {
                          "internalType": "bytes",
                          "name": "ed25519",
                          "type": "bytes"
                        },
                        {
                          "internalType": "bytes",
                          "name": "ECDSA_secp256k1",
                          "type": "bytes"
                        },
                        {
                          "internalType": "address",
                          "name": "delegatableContractId",
                          "type": "address"
                        }
                      ],
                      "internalType": "struct IHederaTokenService.KeyValue",
                      "name": "key",
                      "type": "tuple"
                    }
                  ],
                  "internalType": "struct IHederaTokenService.TokenKey[]",
                  "name": "tokenKeys",
                  "type": "tuple[]"
                },
                {
                  "components": [
                    {
                      "internalType": "uint32",
                      "name": "second",
                      "type": "uint32"
                    },
                    {
                      "internalType": "address",
                      "name": "autoRenewAccount",
                      "type": "address"
                    },
                    {
                      "internalType": "uint32",
                      "name": "autoRenewPeriod",
                      "type": "uint32"
                    }
                  ],
                  "internalType": "struct IHederaTokenService.Expiry",
                  "name": "expiry",
                  "type": "tuple"
                }
              ],
              "internalType": "struct IHederaTokenService.HederaToken",
              "name": "token",
              "type": "tuple"
            },
            {
              "internalType": "uint64",
              "name": "totalSupply",
              "type": "uint64"
            },
            {
              "internalType": "bool",
              "name": "deleted",
              "type": "bool"
            },
            {
              "internalType": "bool",
              "name": "defaultKycStatus",
              "type": "bool"
            },
            {
              "internalType": "bool",
              "name": "pauseStatus",
              "type": "bool"
            },
            {
              "components": [
                {
                  "internalType": "uint32",
                  "name": "amount",
                  "type": "uint32"
                },
                {
                  "internalType": "address",
                  "name": "tokenId",
                  "type": "address"
                },
                {
                  "internalType": "bool",
                  "name": "useHbarsForPayment",
                  "type": "bool"
                },
                {
                  "internalType": "bool",
                  "name": "useCurrentTokenForPayment",
                  "type": "bool"
                },
                {
                  "internalType": "address",
                  "name": "feeCollector",
                  "type": "address"
                }
              ],
              "internalType": "struct IHederaTokenService.FixedFee[]",
              "name": "fixedFees",
              "type": "tuple[]"
            },
            {
              "components": [
                {
                  "internalType": "uint32",
                  "name": "numerator",
                  "type": "uint32"
                },
                {
                  "internalType": "uint32",
                  "name": "denominator",
                  "type": "uint32"
                },
                {
                  "internalType": "uint32",
                  "name": "minimumAmount",
                  "type": "uint32"
                },
                {
                  "internalType": "uint32",
                  "name": "maximumAmount",
                  "type": "uint32"
                },
                {
                  "internalType": "bool",
                  "name": "netOfTransfers",
                  "type": "bool"
                },
                {
                  "internalType": "address",
                  "name": "feeCollector",
                  "type": "address"
                }
              ],
              "internalType": "struct IHederaTokenService.FractionalFee[]",
              "name": "fractionalFees",
              "type": "tuple[]"
            },
            {
              "components": [
                {
                  "internalType": "uint32",
                  "name": "numerator",
                  "type": "uint32"
                },
                {
                  "internalType": "uint32",
                  "name": "denominator",
                  "type": "uint32"
                },
                {
                  "internalType": "uint32",
                  "name": "amount",
                  "type": "uint32"
                },
                {
                  "internalType": "address",
                  "name": "tokenId",
                  "type": "address"
                },
                {
                  "internalType": "bool",
                  "name": "useHbarsForPayment",
                  "type": "bool"
                },
                {
                  "internalType": "address",
                  "name": "feeCollector",
                  "type": "address"
                }
              ],
              "internalType": "struct IHederaTokenService.RoyaltyFee[]",
              "name": "royaltyFees",
              "type": "tuple[]"
            },
            {
              "internalType": "string",
              "name": "ledgerId",
              "type": "string"
            }
          ],
          "indexed": false,
          "internalType": "struct IHederaTokenService.TokenInfo",
          "name": "tokenInfo",
          "type": "tuple"
        }
      ],
      "name": "TokenInfo",
      "type": "event"
    },
    {
      "anonymous": false,
      "inputs": [
        {
          "indexed": false,
          "internalType": "bool",
          "name": "unpaused",
          "type": "bool"
        }
      ],
      "name": "UnpausedToken",
      "type": "event"
    },
    {
      "inputs": [
        {
          "internalType": "address",
          "name": "token",
          "type": "address"
        },
        {
          "internalType": "address",
          "name": "owner",
          "type": "address"
        },
        {
          "internalType": "address",
          "name": "spender",
          "type": "address"
        }
      ],
      "name": "allowancePublic",
      "outputs": [
        {
          "internalType": "int256",
          "name": "responseCode",
          "type": "int256"
        },
        {
          "internalType": "uint256",
          "name": "amount",
          "type": "uint256"
        }
      ],
      "stateMutability": "nonpayable",
      "type": "function"
    },
    {
      "inputs": [
        {
          "internalType": "address",
          "name": "token",
          "type": "address"
        },
        {
          "internalType": "address",
          "name": "spender",
          "type": "address"
        },
        {
          "internalType": "uint256",
          "name": "amount",
          "type": "uint256"
        }
      ],
      "name": "approvePublic",
      "outputs": [
        {
          "internalType": "int256",
          "name": "responseCode",
          "type": "int256"
        }
      ],
      "stateMutability": "nonpayable",
      "type": "function"
    },
    {
      "inputs": [
        {
          "internalType": "address",
          "name": "account",
          "type": "address"
        },
        {
          "internalType": "address",
          "name": "token",
          "type": "address"
        }
      ],
      "name": "associateTokenPublic",
      "outputs": [
        {
          "internalType": "int256",
          "name": "responseCode",
          "type": "int256"
        }
      ],
      "stateMutability": "nonpayable",
      "type": "function"
    },
    {
      "inputs": [
        {
          "internalType": "address",
          "name": "treasury",
          "type": "address"
        }
      ],
      "name": "createFungibleTokenPublic",
      "outputs": [],
      "stateMutability": "payable",
      "type": "function"
    },
    {
      "inputs": [
        {
          "internalType": "address",
          "name": "treasury",
          "type": "address"
        },
        {
          "internalType": "address",
          "name": "fixedFeeTokenAddress",
          "type": "address"
        }
      ],
      "name": "createFungibleTokenWithCustomFeesPublic",
      "outputs": [],
      "stateMutability": "payable",
      "type": "function"
    },
    {
      "inputs": [
        {
          "internalType": "address",
          "name": "treasury",
          "type": "address"
        }
      ],
      "name": "createNonFungibleTokenPublic",
      "outputs": [],
      "stateMutability": "payable",
      "type": "function"
    },
    {
      "inputs": [
        {
          "components": [
            {
              "internalType": "address",
              "name": "token",
              "type": "address"
            },
            {
              "components": [
                {
                  "internalType": "address",
                  "name": "accountID",
                  "type": "address"
                },
                {
                  "internalType": "int64",
                  "name": "amount",
                  "type": "int64"
                }
              ],
              "internalType": "struct IHederaTokenService.AccountAmount[]",
              "name": "transfers",
              "type": "tuple[]"
            },
            {
              "components": [
                {
                  "internalType": "address",
                  "name": "senderAccountID",
                  "type": "address"
                },
                {
                  "internalType": "address",
                  "name": "receiverAccountID",
                  "type": "address"
                },
                {
                  "internalType": "int64",
                  "name": "serialNumber",
                  "type": "int64"
                }
              ],
              "internalType": "struct IHederaTokenService.NftTransfer[]",
              "name": "nftTransfers",
              "type": "tuple[]"
            }
          ],
          "internalType": "struct IHederaTokenService.TokenTransferList[]",
          "name": "tokenTransferList",
          "type": "tuple[]"
        }
      ],
      "name": "cryptoTransferPublic",
      "outputs": [
        {
          "internalType": "int256",
          "name": "responseCode",
          "type": "int256"
        }
      ],
      "stateMutability": "nonpayable",
      "type": "function"
    },
    {
      "inputs": [
        {
          "internalType": "address",
          "name": "token",
          "type": "address"
        }
      ],
      "name": "deleteTokenPublic",
      "outputs": [
        {
          "internalType": "int256",
          "name": "responseCode",
          "type": "int256"
        }
      ],
      "stateMutability": "nonpayable",
      "type": "function"
    },
    {
      "inputs": [
        {
          "internalType": "address",
          "name": "token",
          "type": "address"
        },
        {
          "internalType": "address",
          "name": "account",
          "type": "address"
        }
      ],
      "name": "freezeTokenPublic",
      "outputs": [
        {
          "internalType": "int256",
          "name": "responseCode",
          "type": "int256"
        }
      ],
      "stateMutability": "nonpayable",
      "type": "function"
    },
    {
      "inputs": [
        {
          "internalType": "address",
          "name": "token",
          "type": "address"
        },
        {
          "internalType": "uint256",
          "name": "serialNumber",
          "type": "uint256"
        }
      ],
      "name": "getApprovedPublic",
      "outputs": [
        {
          "internalType": "int256",
          "name": "responseCode",
          "type": "int256"
        },
        {
          "internalType": "address",
          "name": "approved",
          "type": "address"
        }
      ],
      "stateMutability": "nonpayable",
      "type": "function"
    },
    {
      "inputs": [
        {
          "internalType": "address",
          "name": "token",
          "type": "address"
        }
      ],
      "name": "getFungibleTokenInfoPublic",
      "outputs": [
        {
          "internalType": "int256",
          "name": "responseCode",
          "type": "int256"
        },
        {
          "components": [
            {
              "components": [
                {
                  "components": [
                    {
                      "internalType": "string",
                      "name": "name",
                      "type": "string"
                    },
                    {
                      "internalType": "string",
                      "name": "symbol",
                      "type": "string"
                    },
                    {
                      "internalType": "address",
                      "name": "treasury",
                      "type": "address"
                    },
                    {
                      "internalType": "string",
                      "name": "memo",
                      "type": "string"
                    },
                    {
                      "internalType": "bool",
                      "name": "tokenSupplyType",
                      "type": "bool"
                    },
                    {
                      "internalType": "uint32",
                      "name": "maxSupply",
                      "type": "uint32"
                    },
                    {
                      "internalType": "bool",
                      "name": "freezeDefault",
                      "type": "bool"
                    },
                    {
                      "components": [
                        {
                          "internalType": "uint256",
                          "name": "keyType",
                          "type": "uint256"
                        },
                        {
                          "components": [
                            {
                              "internalType": "bool",
                              "name": "inheritAccountKey",
                              "type": "bool"
                            },
                            {
                              "internalType": "address",
                              "name": "contractId",
                              "type": "address"
                            },
                            {
                              "internalType": "bytes",
                              "name": "ed25519",
                              "type": "bytes"
                            },
                            {
                              "internalType": "bytes",
                              "name": "ECDSA_secp256k1",
                              "type": "bytes"
                            },
                            {
                              "internalType": "address",
                              "name": "delegatableContractId",
                              "type": "address"
                            }
                          ],
                          "internalType": "struct IHederaTokenService.KeyValue",
                          "name": "key",
                          "type": "tuple"
                        }
                      ],
                      "internalType": "struct IHederaTokenService.TokenKey[]",
                      "name": "tokenKeys",
                      "type": "tuple[]"
                    },
                    {
                      "components": [
                        {
                          "internalType": "uint32",
                          "name": "second",
                          "type": "uint32"
                        },
                        {
                          "internalType": "address",
                          "name": "autoRenewAccount",
                          "type": "address"
                        },
                        {
                          "internalType": "uint32",
                          "name": "autoRenewPeriod",
                          "type": "uint32"
                        }
                      ],
                      "internalType": "struct IHederaTokenService.Expiry",
                      "name": "expiry",
                      "type": "tuple"
                    }
                  ],
                  "internalType": "struct IHederaTokenService.HederaToken",
                  "name": "token",
                  "type": "tuple"
                },
                {
                  "internalType": "uint64",
                  "name": "totalSupply",
                  "type": "uint64"
                },
                {
                  "internalType": "bool",
                  "name": "deleted",
                  "type": "bool"
                },
                {
                  "internalType": "bool",
                  "name": "defaultKycStatus",
                  "type": "bool"
                },
                {
                  "internalType": "bool",
                  "name": "pauseStatus",
                  "type": "bool"
                },
                {
                  "components": [
                    {
                      "internalType": "uint32",
                      "name": "amount",
                      "type": "uint32"
                    },
                    {
                      "internalType": "address",
                      "name": "tokenId",
                      "type": "address"
                    },
                    {
                      "internalType": "bool",
                      "name": "useHbarsForPayment",
                      "type": "bool"
                    },
                    {
                      "internalType": "bool",
                      "name": "useCurrentTokenForPayment",
                      "type": "bool"
                    },
                    {
                      "internalType": "address",
                      "name": "feeCollector",
                      "type": "address"
                    }
                  ],
                  "internalType": "struct IHederaTokenService.FixedFee[]",
                  "name": "fixedFees",
                  "type": "tuple[]"
                },
                {
                  "components": [
                    {
                      "internalType": "uint32",
                      "name": "numerator",
                      "type": "uint32"
                    },
                    {
                      "internalType": "uint32",
                      "name": "denominator",
                      "type": "uint32"
                    },
                    {
                      "internalType": "uint32",
                      "name": "minimumAmount",
                      "type": "uint32"
                    },
                    {
                      "internalType": "uint32",
                      "name": "maximumAmount",
                      "type": "uint32"
                    },
                    {
                      "internalType": "bool",
                      "name": "netOfTransfers",
                      "type": "bool"
                    },
                    {
                      "internalType": "address",
                      "name": "feeCollector",
                      "type": "address"
                    }
                  ],
                  "internalType": "struct IHederaTokenService.FractionalFee[]",
                  "name": "fractionalFees",
                  "type": "tuple[]"
                },
                {
                  "components": [
                    {
                      "internalType": "uint32",
                      "name": "numerator",
                      "type": "uint32"
                    },
                    {
                      "internalType": "uint32",
                      "name": "denominator",
                      "type": "uint32"
                    },
                    {
                      "internalType": "uint32",
                      "name": "amount",
                      "type": "uint32"
                    },
                    {
                      "internalType": "address",
                      "name": "tokenId",
                      "type": "address"
                    },
                    {
                      "internalType": "bool",
                      "name": "useHbarsForPayment",
                      "type": "bool"
                    },
                    {
                      "internalType": "address",
                      "name": "feeCollector",
                      "type": "address"
                    }
                  ],
                  "internalType": "struct IHederaTokenService.RoyaltyFee[]",
                  "name": "royaltyFees",
                  "type": "tuple[]"
                },
                {
                  "internalType": "string",
                  "name": "ledgerId",
                  "type": "string"
                }
              ],
              "internalType": "struct IHederaTokenService.TokenInfo",
              "name": "tokenInfo",
              "type": "tuple"
            },
            {
              "internalType": "uint32",
              "name": "decimals",
              "type": "uint32"
            }
          ],
          "internalType": "struct IHederaTokenService.FungibleTokenInfo",
          "name": "tokenInfo",
          "type": "tuple"
        }
      ],
      "stateMutability": "nonpayable",
      "type": "function"
    },
    {
      "inputs": [
        {
          "internalType": "address",
          "name": "token",
          "type": "address"
        },
        {
          "internalType": "int64",
          "name": "serialNumber",
          "type": "int64"
        }
      ],
      "name": "getNonFungibleTokenInfoPublic",
      "outputs": [
        {
          "internalType": "int256",
          "name": "responseCode",
          "type": "int256"
        },
        {
          "components": [
            {
              "components": [
                {
                  "components": [
                    {
                      "internalType": "string",
                      "name": "name",
                      "type": "string"
                    },
                    {
                      "internalType": "string",
                      "name": "symbol",
                      "type": "string"
                    },
                    {
                      "internalType": "address",
                      "name": "treasury",
                      "type": "address"
                    },
                    {
                      "internalType": "string",
                      "name": "memo",
                      "type": "string"
                    },
                    {
                      "internalType": "bool",
                      "name": "tokenSupplyType",
                      "type": "bool"
                    },
                    {
                      "internalType": "uint32",
                      "name": "maxSupply",
                      "type": "uint32"
                    },
                    {
                      "internalType": "bool",
                      "name": "freezeDefault",
                      "type": "bool"
                    },
                    {
                      "components": [
                        {
                          "internalType": "uint256",
                          "name": "keyType",
                          "type": "uint256"
                        },
                        {
                          "components": [
                            {
                              "internalType": "bool",
                              "name": "inheritAccountKey",
                              "type": "bool"
                            },
                            {
                              "internalType": "address",
                              "name": "contractId",
                              "type": "address"
                            },
                            {
                              "internalType": "bytes",
                              "name": "ed25519",
                              "type": "bytes"
                            },
                            {
                              "internalType": "bytes",
                              "name": "ECDSA_secp256k1",
                              "type": "bytes"
                            },
                            {
                              "internalType": "address",
                              "name": "delegatableContractId",
                              "type": "address"
                            }
                          ],
                          "internalType": "struct IHederaTokenService.KeyValue",
                          "name": "key",
                          "type": "tuple"
                        }
                      ],
                      "internalType": "struct IHederaTokenService.TokenKey[]",
                      "name": "tokenKeys",
                      "type": "tuple[]"
                    },
                    {
                      "components": [
                        {
                          "internalType": "uint32",
                          "name": "second",
                          "type": "uint32"
                        },
                        {
                          "internalType": "address",
                          "name": "autoRenewAccount",
                          "type": "address"
                        },
                        {
                          "internalType": "uint32",
                          "name": "autoRenewPeriod",
                          "type": "uint32"
                        }
                      ],
                      "internalType": "struct IHederaTokenService.Expiry",
                      "name": "expiry",
                      "type": "tuple"
                    }
                  ],
                  "internalType": "struct IHederaTokenService.HederaToken",
                  "name": "token",
                  "type": "tuple"
                },
                {
                  "internalType": "uint64",
                  "name": "totalSupply",
                  "type": "uint64"
                },
                {
                  "internalType": "bool",
                  "name": "deleted",
                  "type": "bool"
                },
                {
                  "internalType": "bool",
                  "name": "defaultKycStatus",
                  "type": "bool"
                },
                {
                  "internalType": "bool",
                  "name": "pauseStatus",
                  "type": "bool"
                },
                {
                  "components": [
                    {
                      "internalType": "uint32",
                      "name": "amount",
                      "type": "uint32"
                    },
                    {
                      "internalType": "address",
                      "name": "tokenId",
                      "type": "address"
                    },
                    {
                      "internalType": "bool",
                      "name": "useHbarsForPayment",
                      "type": "bool"
                    },
                    {
                      "internalType": "bool",
                      "name": "useCurrentTokenForPayment",
                      "type": "bool"
                    },
                    {
                      "internalType": "address",
                      "name": "feeCollector",
                      "type": "address"
                    }
                  ],
                  "internalType": "struct IHederaTokenService.FixedFee[]",
                  "name": "fixedFees",
                  "type": "tuple[]"
                },
                {
                  "components": [
                    {
                      "internalType": "uint32",
                      "name": "numerator",
                      "type": "uint32"
                    },
                    {
                      "internalType": "uint32",
                      "name": "denominator",
                      "type": "uint32"
                    },
                    {
                      "internalType": "uint32",
                      "name": "minimumAmount",
                      "type": "uint32"
                    },
                    {
                      "internalType": "uint32",
                      "name": "maximumAmount",
                      "type": "uint32"
                    },
                    {
                      "internalType": "bool",
                      "name": "netOfTransfers",
                      "type": "bool"
                    },
                    {
                      "internalType": "address",
                      "name": "feeCollector",
                      "type": "address"
                    }
                  ],
                  "internalType": "struct IHederaTokenService.FractionalFee[]",
                  "name": "fractionalFees",
                  "type": "tuple[]"
                },
                {
                  "components": [
                    {
                      "internalType": "uint32",
                      "name": "numerator",
                      "type": "uint32"
                    },
                    {
                      "internalType": "uint32",
                      "name": "denominator",
                      "type": "uint32"
                    },
                    {
                      "internalType": "uint32",
                      "name": "amount",
                      "type": "uint32"
                    },
                    {
                      "internalType": "address",
                      "name": "tokenId",
                      "type": "address"
                    },
                    {
                      "internalType": "bool",
                      "name": "useHbarsForPayment",
                      "type": "bool"
                    },
                    {
                      "internalType": "address",
                      "name": "feeCollector",
                      "type": "address"
                    }
                  ],
                  "internalType": "struct IHederaTokenService.RoyaltyFee[]",
                  "name": "royaltyFees",
                  "type": "tuple[]"
                },
                {
                  "internalType": "string",
                  "name": "ledgerId",
                  "type": "string"
                }
              ],
              "internalType": "struct IHederaTokenService.TokenInfo",
              "name": "tokenInfo",
              "type": "tuple"
            },
            {
              "internalType": "int64",
              "name": "serialNumber",
              "type": "int64"
            },
            {
              "internalType": "address",
              "name": "ownerId",
              "type": "address"
            },
            {
              "internalType": "int64",
              "name": "creationTime",
              "type": "int64"
            },
            {
              "internalType": "bytes",
              "name": "metadata",
              "type": "bytes"
            },
            {
              "internalType": "address",
              "name": "spenderId",
              "type": "address"
            }
          ],
          "internalType": "struct IHederaTokenService.NonFungibleTokenInfo",
          "name": "tokenInfo",
          "type": "tuple"
        }
      ],
      "stateMutability": "nonpayable",
      "type": "function"
    },
    {
      "inputs": [
        {
          "internalType": "address",
          "name": "token",
          "type": "address"
        }
      ],
      "name": "getTokenCustomFeesPublic",
      "outputs": [
        {
          "internalType": "int64",
          "name": "responseCode",
          "type": "int64"
        },
        {
          "components": [
            {
              "internalType": "uint32",
              "name": "amount",
              "type": "uint32"
            },
            {
              "internalType": "address",
              "name": "tokenId",
              "type": "address"
            },
            {
              "internalType": "bool",
              "name": "useHbarsForPayment",
              "type": "bool"
            },
            {
              "internalType": "bool",
              "name": "useCurrentTokenForPayment",
              "type": "bool"
            },
            {
              "internalType": "address",
              "name": "feeCollector",
              "type": "address"
            }
          ],
          "internalType": "struct IHederaTokenService.FixedFee[]",
          "name": "fixedFees",
          "type": "tuple[]"
        },
        {
          "components": [
            {
              "internalType": "uint32",
              "name": "numerator",
              "type": "uint32"
            },
            {
              "internalType": "uint32",
              "name": "denominator",
              "type": "uint32"
            },
            {
              "internalType": "uint32",
              "name": "minimumAmount",
              "type": "uint32"
            },
            {
              "internalType": "uint32",
              "name": "maximumAmount",
              "type": "uint32"
            },
            {
              "internalType": "bool",
              "name": "netOfTransfers",
              "type": "bool"
            },
            {
              "internalType": "address",
              "name": "feeCollector",
              "type": "address"
            }
          ],
          "internalType": "struct IHederaTokenService.FractionalFee[]",
          "name": "fractionalFees",
          "type": "tuple[]"
        },
        {
          "components": [
            {
              "internalType": "uint32",
              "name": "numerator",
              "type": "uint32"
            },
            {
              "internalType": "uint32",
              "name": "denominator",
              "type": "uint32"
            },
            {
              "internalType": "uint32",
              "name": "amount",
              "type": "uint32"
            },
            {
              "internalType": "address",
              "name": "tokenId",
              "type": "address"
            },
            {
              "internalType": "bool",
              "name": "useHbarsForPayment",
              "type": "bool"
            },
            {
              "internalType": "address",
              "name": "feeCollector",
              "type": "address"
            }
          ],
          "internalType": "struct IHederaTokenService.RoyaltyFee[]",
          "name": "royaltyFees",
          "type": "tuple[]"
        }
      ],
      "stateMutability": "nonpayable",
      "type": "function"
    },
    {
      "inputs": [
        {
          "internalType": "address",
          "name": "token",
          "type": "address"
        }
      ],
      "name": "getTokenDefaultFreezeStatusPublic",
      "outputs": [
        {
          "internalType": "int256",
          "name": "responseCode",
          "type": "int256"
        },
        {
          "internalType": "bool",
          "name": "defaultFreezeStatus",
          "type": "bool"
        }
      ],
      "stateMutability": "nonpayable",
      "type": "function"
    },
    {
      "inputs": [
        {
          "internalType": "address",
          "name": "token",
          "type": "address"
        }
      ],
      "name": "getTokenDefaultKycStatusPublic",
      "outputs": [
        {
          "internalType": "int256",
          "name": "responseCode",
          "type": "int256"
        },
        {
          "internalType": "bool",
          "name": "defaultKycStatus",
          "type": "bool"
        }
      ],
      "stateMutability": "nonpayable",
      "type": "function"
    },
    {
      "inputs": [
        {
          "internalType": "address",
          "name": "token",
          "type": "address"
        }
      ],
      "name": "getTokenInfoPublic",
      "outputs": [
        {
          "internalType": "int256",
          "name": "responseCode",
          "type": "int256"
        },
        {
          "components": [
            {
              "components": [
                {
                  "internalType": "string",
                  "name": "name",
                  "type": "string"
                },
                {
                  "internalType": "string",
                  "name": "symbol",
                  "type": "string"
                },
                {
                  "internalType": "address",
                  "name": "treasury",
                  "type": "address"
                },
                {
                  "internalType": "string",
                  "name": "memo",
                  "type": "string"
                },
                {
                  "internalType": "bool",
                  "name": "tokenSupplyType",
                  "type": "bool"
                },
                {
                  "internalType": "uint32",
                  "name": "maxSupply",
                  "type": "uint32"
                },
                {
                  "internalType": "bool",
                  "name": "freezeDefault",
                  "type": "bool"
                },
                {
                  "components": [
                    {
                      "internalType": "uint256",
                      "name": "keyType",
                      "type": "uint256"
                    },
                    {
                      "components": [
                        {
                          "internalType": "bool",
                          "name": "inheritAccountKey",
                          "type": "bool"
                        },
                        {
                          "internalType": "address",
                          "name": "contractId",
                          "type": "address"
                        },
                        {
                          "internalType": "bytes",
                          "name": "ed25519",
                          "type": "bytes"
                        },
                        {
                          "internalType": "bytes",
                          "name": "ECDSA_secp256k1",
                          "type": "bytes"
                        },
                        {
                          "internalType": "address",
                          "name": "delegatableContractId",
                          "type": "address"
                        }
                      ],
                      "internalType": "struct IHederaTokenService.KeyValue",
                      "name": "key",
                      "type": "tuple"
                    }
                  ],
                  "internalType": "struct IHederaTokenService.TokenKey[]",
                  "name": "tokenKeys",
                  "type": "tuple[]"
                },
                {
                  "components": [
                    {
                      "internalType": "uint32",
                      "name": "second",
                      "type": "uint32"
                    },
                    {
                      "internalType": "address",
                      "name": "autoRenewAccount",
                      "type": "address"
                    },
                    {
                      "internalType": "uint32",
                      "name": "autoRenewPeriod",
                      "type": "uint32"
                    }
                  ],
                  "internalType": "struct IHederaTokenService.Expiry",
                  "name": "expiry",
                  "type": "tuple"
                }
              ],
              "internalType": "struct IHederaTokenService.HederaToken",
              "name": "token",
              "type": "tuple"
            },
            {
              "internalType": "uint64",
              "name": "totalSupply",
              "type": "uint64"
            },
            {
              "internalType": "bool",
              "name": "deleted",
              "type": "bool"
            },
            {
              "internalType": "bool",
              "name": "defaultKycStatus",
              "type": "bool"
            },
            {
              "internalType": "bool",
              "name": "pauseStatus",
              "type": "bool"
            },
            {
              "components": [
                {
                  "internalType": "uint32",
                  "name": "amount",
                  "type": "uint32"
                },
                {
                  "internalType": "address",
                  "name": "tokenId",
                  "type": "address"
                },
                {
                  "internalType": "bool",
                  "name": "useHbarsForPayment",
                  "type": "bool"
                },
                {
                  "internalType": "bool",
                  "name": "useCurrentTokenForPayment",
                  "type": "bool"
                },
                {
                  "internalType": "address",
                  "name": "feeCollector",
                  "type": "address"
                }
              ],
              "internalType": "struct IHederaTokenService.FixedFee[]",
              "name": "fixedFees",
              "type": "tuple[]"
            },
            {
              "components": [
                {
                  "internalType": "uint32",
                  "name": "numerator",
                  "type": "uint32"
                },
                {
                  "internalType": "uint32",
                  "name": "denominator",
                  "type": "uint32"
                },
                {
                  "internalType": "uint32",
                  "name": "minimumAmount",
                  "type": "uint32"
                },
                {
                  "internalType": "uint32",
                  "name": "maximumAmount",
                  "type": "uint32"
                },
                {
                  "internalType": "bool",
                  "name": "netOfTransfers",
                  "type": "bool"
                },
                {
                  "internalType": "address",
                  "name": "feeCollector",
                  "type": "address"
                }
              ],
              "internalType": "struct IHederaTokenService.FractionalFee[]",
              "name": "fractionalFees",
              "type": "tuple[]"
            },
            {
              "components": [
                {
                  "internalType": "uint32",
                  "name": "numerator",
                  "type": "uint32"
                },
                {
                  "internalType": "uint32",
                  "name": "denominator",
                  "type": "uint32"
                },
                {
                  "internalType": "uint32",
                  "name": "amount",
                  "type": "uint32"
                },
                {
                  "internalType": "address",
                  "name": "tokenId",
                  "type": "address"
                },
                {
                  "internalType": "bool",
                  "name": "useHbarsForPayment",
                  "type": "bool"
                },
                {
                  "internalType": "address",
                  "name": "feeCollector",
                  "type": "address"
                }
              ],
              "internalType": "struct IHederaTokenService.RoyaltyFee[]",
              "name": "royaltyFees",
              "type": "tuple[]"
            },
            {
              "internalType": "string",
              "name": "ledgerId",
              "type": "string"
            }
          ],
          "internalType": "struct IHederaTokenService.TokenInfo",
          "name": "tokenInfo",
          "type": "tuple"
        }
      ],
      "stateMutability": "nonpayable",
      "type": "function"
    },
    {
      "inputs": [
        {
          "internalType": "address",
          "name": "token",
          "type": "address"
        },
        {
          "internalType": "address",
          "name": "account",
          "type": "address"
        }
      ],
      "name": "grantTokenKyc",
      "outputs": [
        {
          "internalType": "int64",
          "name": "responseCode",
          "type": "int64"
        }
      ],
      "stateMutability": "nonpayable",
      "type": "function"
    },
    {
      "inputs": [
        {
          "internalType": "address",
          "name": "token",
          "type": "address"
        },
        {
          "internalType": "address",
          "name": "account",
          "type": "address"
        }
      ],
      "name": "grantTokenKycPublic",
      "outputs": [
        {
          "internalType": "int64",
          "name": "responseCode",
          "type": "int64"
        }
      ],
      "stateMutability": "nonpayable",
      "type": "function"
    },
    {
      "inputs": [
        {
          "internalType": "address",
          "name": "token",
          "type": "address"
        },
        {
          "internalType": "address",
          "name": "owner",
          "type": "address"
        },
        {
          "internalType": "address",
          "name": "operator",
          "type": "address"
        }
      ],
      "name": "isApprovedForAllPublic",
      "outputs": [
        {
          "internalType": "int256",
          "name": "responseCode",
          "type": "int256"
        },
        {
          "internalType": "bool",
          "name": "approved",
          "type": "bool"
        }
      ],
      "stateMutability": "nonpayable",
      "type": "function"
    },
    {
      "inputs": [
        {
          "internalType": "address",
          "name": "token",
          "type": "address"
        },
        {
          "internalType": "address",
          "name": "account",
          "type": "address"
        }
      ],
      "name": "isFrozenPublic",
      "outputs": [
        {
          "internalType": "int256",
          "name": "responseCode",
          "type": "int256"
        },
        {
          "internalType": "bool",
          "name": "frozen",
          "type": "bool"
        }
      ],
      "stateMutability": "nonpayable",
      "type": "function"
    },
    {
      "inputs": [
        {
          "internalType": "address",
          "name": "token",
          "type": "address"
        },
        {
          "internalType": "address",
          "name": "account",
          "type": "address"
        }
      ],
      "name": "isKyc",
      "outputs": [
        {
          "internalType": "int64",
          "name": "responseCode",
          "type": "int64"
        },
        {
          "internalType": "bool",
          "name": "kycGranted",
          "type": "bool"
        }
      ],
      "stateMutability": "nonpayable",
      "type": "function"
    },
    {
      "inputs": [
        {
          "internalType": "address",
          "name": "token",
          "type": "address"
        },
        {
          "internalType": "address",
          "name": "account",
          "type": "address"
        }
      ],
      "name": "isKycPublic",
      "outputs": [
        {
          "internalType": "int64",
          "name": "responseCode",
          "type": "int64"
        },
        {
          "internalType": "bool",
          "name": "kycGranted",
          "type": "bool"
        }
      ],
      "stateMutability": "nonpayable",
      "type": "function"
    },
    {
      "inputs": [
        {
          "internalType": "address",
          "name": "token",
          "type": "address"
        },
        {
          "internalType": "uint64",
          "name": "amount",
          "type": "uint64"
        },
        {
          "internalType": "bytes[]",
          "name": "metadata",
          "type": "bytes[]"
        }
      ],
      "name": "mintTokenPublic",
      "outputs": [
        {
          "internalType": "int256",
          "name": "responseCode",
          "type": "int256"
        },
        {
          "internalType": "uint64",
          "name": "newTotalSupply",
          "type": "uint64"
        },
        {
          "internalType": "int64[]",
          "name": "serialNumbers",
          "type": "int64[]"
        }
      ],
      "stateMutability": "nonpayable",
      "type": "function"
    },
    {
      "inputs": [
        {
          "internalType": "address",
          "name": "token",
          "type": "address"
        }
      ],
      "name": "pauseToken",
      "outputs": [
        {
          "internalType": "int256",
          "name": "responseCode",
          "type": "int256"
        }
      ],
      "stateMutability": "nonpayable",
      "type": "function"
    },
    {
      "inputs": [
        {
          "internalType": "address",
          "name": "token",
          "type": "address"
        }
      ],
      "name": "pauseTokenPublic",
      "outputs": [
        {
          "internalType": "int256",
          "name": "responseCode",
          "type": "int256"
        }
      ],
      "stateMutability": "nonpayable",
      "type": "function"
    },
    {
      "inputs": [
        {
          "internalType": "address",
          "name": "token",
          "type": "address"
        },
        {
          "internalType": "address",
          "name": "sender",
          "type": "address"
        },
        {
          "internalType": "address",
          "name": "receiver",
          "type": "address"
        },
        {
          "internalType": "int64",
          "name": "amount",
          "type": "int64"
        }
      ],
      "name": "realTransferTokenPublic",
      "outputs": [
        {
          "internalType": "int256",
          "name": "responseCode",
          "type": "int256"
        }
      ],
      "stateMutability": "nonpayable",
      "type": "function"
    },
    {
      "inputs": [
        {
          "internalType": "address",
          "name": "token",
          "type": "address"
        },
        {
          "internalType": "address",
          "name": "account",
          "type": "address"
        }
      ],
      "name": "revokeTokenKyc",
      "outputs": [
        {
          "internalType": "int64",
          "name": "responseCode",
          "type": "int64"
        }
      ],
      "stateMutability": "nonpayable",
      "type": "function"
    },
    {
      "inputs": [
        {
          "internalType": "address",
          "name": "token",
          "type": "address"
        },
        {
          "internalType": "address",
          "name": "account",
          "type": "address"
        }
      ],
      "name": "revokeTokenKycPublic",
      "outputs": [
        {
          "internalType": "int64",
          "name": "responseCode",
          "type": "int64"
        }
      ],
      "stateMutability": "nonpayable",
      "type": "function"
    },
    {
      "inputs": [
        {
          "internalType": "address",
          "name": "token",
          "type": "address"
        },
        {
          "internalType": "address",
          "name": "operator",
          "type": "address"
        },
        {
          "internalType": "bool",
          "name": "approved",
          "type": "bool"
        }
      ],
      "name": "setApprovalForAllPublic",
      "outputs": [
        {
          "internalType": "int256",
          "name": "responseCode",
          "type": "int256"
        }
      ],
      "stateMutability": "nonpayable",
      "type": "function"
    },
    {
      "inputs": [
        {
          "internalType": "bool",
          "name": "newFreezeStatus",
          "type": "bool"
        }
      ],
      "name": "setFreezeDefaultStatus",
      "outputs": [],
      "stateMutability": "nonpayable",
      "type": "function"
    },
    {
      "inputs": [
        {
          "internalType": "address",
          "name": "token",
          "type": "address"
        },
        {
          "internalType": "address",
          "name": "sender",
          "type": "address"
        },
        {
          "internalType": "address",
          "name": "receiver",
          "type": "address"
        },
        {
          "internalType": "int64",
          "name": "serialNumber",
          "type": "int64"
        }
      ],
      "name": "transferNFTPublic",
      "outputs": [
        {
          "internalType": "int256",
          "name": "responseCode",
          "type": "int256"
        }
      ],
      "stateMutability": "nonpayable",
      "type": "function"
    },
    {
      "inputs": [
        {
          "internalType": "address",
          "name": "account",
          "type": "address"
        },
        {
          "internalType": "address",
          "name": "token",
          "type": "address"
        },
        {
          "internalType": "int64",
          "name": "amount",
          "type": "int64"
        }
      ],
      "name": "transferTokenPublic",
      "outputs": [
        {
          "internalType": "int256",
          "name": "responseCode",
          "type": "int256"
        }
      ],
      "stateMutability": "nonpayable",
      "type": "function"
    },
    {
      "inputs": [
        {
          "internalType": "address",
          "name": "token",
          "type": "address"
        },
        {
          "internalType": "address",
          "name": "account",
          "type": "address"
        }
      ],
      "name": "unfreezeTokenPublic",
      "outputs": [
        {
          "internalType": "int256",
          "name": "responseCode",
          "type": "int256"
        }
      ],
      "stateMutability": "nonpayable",
      "type": "function"
    },
    {
      "inputs": [
        {
          "internalType": "address",
          "name": "token",
          "type": "address"
        }
      ],
      "name": "unpauseToken",
      "outputs": [
        {
          "internalType": "int256",
          "name": "responseCode",
          "type": "int256"
        }
      ],
      "stateMutability": "nonpayable",
      "type": "function"
    },
    {
      "inputs": [
        {
          "internalType": "address",
          "name": "token",
          "type": "address"
        }
      ],
      "name": "unpauseTokenPublic",
      "outputs": [
        {
          "internalType": "int256",
          "name": "responseCode",
          "type": "int256"
        }
      ],
      "stateMutability": "nonpayable",
      "type": "function"
    },
    {
      "inputs": [
        {
          "internalType": "address",
          "name": "token",
          "type": "address"
        },
        {
          "internalType": "address",
          "name": "account",
          "type": "address"
        },
        {
          "internalType": "int64[]",
          "name": "serialNumbers",
          "type": "int64[]"
        }
      ],
      "name": "wipeTokenAccountNFTPublic",
      "outputs": [
        {
          "internalType": "int256",
          "name": "responseCode",
          "type": "int256"
        }
      ],
      "stateMutability": "nonpayable",
      "type": "function"
    },
    {
      "inputs": [
        {
          "internalType": "address",
          "name": "token",
          "type": "address"
        },
        {
          "internalType": "address",
          "name": "account",
          "type": "address"
        },
        {
          "internalType": "uint32",
          "name": "amount",
          "type": "uint32"
        }
      ],
      "name": "wipeTokenAccountPublic",
      "outputs": [
        {
          "internalType": "int256",
          "name": "responseCode",
          "type": "int256"
        }
      ],
      "stateMutability": "nonpayable",
      "type": "function"
    }
  ],
  "bytecode": "0x60c06040526009608081905268746f6b656e4e616d6560b81b60a09081526200002c9160019190620000cb565b5060408051808201909152600b8082526a1d1bdad95b94de5b589bdb60aa1b60209092019182526200006191600291620000cb565b50604080518082019091526004808252636d656d6f60e01b60209092019182526200008f91600391620000cb565b506103e860048190556005805463ffffffff1916909117905560086006556007805460ff19169055348015620000c457600080fd5b50620001ae565b828054620000d99062000171565b90600052602060002090601f016020900481019282620000fd576000855562000148565b82601f106200011857805160ff191683800117855562000148565b8280016001018555821562000148579182015b82811115620001485782518255916020019190600101906200012b565b50620001569291506200015a565b5090565b5b808211156200015657600081556001016200015b565b600181811c908216806200018657607f821691505b60208210811415620001a857634e487b7160e01b600052602260045260246000fd5b50919050565b6155cf80620001be6000396000f3fe60806040526004361061026a5760003560e01c80637d3e5da811610153578063d85f74c1116100cb578063f2f38a741161007f578063f7be342511610064578063f7be34251461075a578063f848fec41461077a578063f9e978bd1461079a57600080fd5b8063f2f38a741461070c578063f4a01e5b1461073a57600080fd5b8063ec855c31116100b0578063ec855c31146106ac578063f25b1200146106cc578063f2c31ff4146106ec57600080fd5b8063d85f74c114610679578063d92ac2481461068c57600080fd5b80638f8d7f9911610122578063a345f7bd11610107578063a345f7bd146105ff578063a3ad5b551461061f578063af99c6331461065957600080fd5b80638f8d7f99146105bf5780639604ca65146105df57600080fd5b80637d3e5da81461053d5780638070905f1461055d57806386f88d881461058c5780638ba74da0146105ac57600080fd5b80634b5c6687116101e65780635b9076b7116101b55780636a4dde211161019a5780636a4dde21146104dd5780636da6b1f0146104fd5780637c41ad2c1461051d57600080fd5b80635b9076b71461047f57806369837dc2146104af57600080fd5b80634b5c6687146103e75780634cbdb37b146103fc57806356af84031461042a5780635a5e6c311461044a57600080fd5b80632b256ec81161023d5780632eecbca3116102225780632eecbca3146103875780633b3bff0f146103a75780633eed2c39146103c757600080fd5b80632b256ec8146103475780632d73bb2e1461036757600080fd5b80630fd2601e1461026f57806313c05dd8146102a757806319db44b6146102dc5780631e7772be14610319575b600080fd5b34801561027b57600080fd5b5061028f61028a366004613821565b6107ba565b60405160079190910b81526020015b60405180910390f35b3480156102b357600080fd5b506102c76102c236600461385a565b61087e565b6040805192835290151560208301520161029e565b3480156102e857600080fd5b506102fc6102f73660046138a5565b6108fc565b604080519283526001600160a01b0390911660208301520161029e565b34801561032557600080fd5b506103396103343660046138e0565b610980565b60405190815260200161029e565b34801561035357600080fd5b5061033961036236600461393c565b6109cc565b34801561037357600080fd5b50610339610382366004613821565b610ab8565b34801561039357600080fd5b5061028f6103a2366004613821565b610afd565b3480156103b357600080fd5b506103396103c236600461393c565b610b34565b3480156103d357600080fd5b506102c76103e236600461393c565b610c0e565b6103fa6103f536600461393c565b610c88565b005b34801561040857600080fd5b5061041c610417366004613959565b611048565b60405161029e929190613e7f565b34801561043657600080fd5b50610339610445366004613fb9565b6110be565b34801561045657600080fd5b5061046a61046536600461385a565b611108565b6040805192835260208301919091520161029e565b34801561048b57600080fd5b5061049f61049a36600461393c565b611179565b60405161029e949392919061407f565b3480156104bb57600080fd5b506104cf6104ca36600461393c565b61120b565b60405161029e9291906140fb565b3480156104e957600080fd5b506102c76104f8366004613821565b611280565b34801561050957600080fd5b506103396105183660046138e0565b6112f7565b34801561052957600080fd5b5061033961053836600461393c565b611305565b34801561054957600080fd5b50610339610558366004613821565b611333565b34801561056957600080fd5b5061057d610578366004614152565b61133f565b60405161029e9392919061429b565b34801561059857600080fd5b506102c76105a736600461393c565b6113c7565b6103fa6105ba366004613821565b611438565b3480156105cb57600080fd5b5061028f6105da366004613821565b6118ca565b3480156105eb57600080fd5b506103396105fa3660046142cd565b6119ad565b34801561060b57600080fd5b5061033961061a36600461393c565b6119e2565b34801561062b57600080fd5b5061063f61063a366004613821565b611a28565b6040805160079390930b835290151560208301520161029e565b34801561066557600080fd5b5061028f610674366004613821565b611b1a565b6103fa61068736600461393c565b611b50565b34801561069857600080fd5b506103396106a7366004614354565b611ee8565b3480156106b857600080fd5b506103396106c7366004614394565b611ef5565b3480156106d857600080fd5b506103396106e73660046143e2565b6120cc565b3480156106f857600080fd5b5061063f610707366004613821565b6120d9565b34801561071857600080fd5b5061072c61072736600461393c565b6121c6565b60405161029e929190614422565b34801561074657600080fd5b50610339610755366004613821565b61223b565b34801561076657600080fd5b5061033961077536600461393c565b612247565b34801561078657600080fd5b5061033961079536600461443b565b61232a565b3480156107a657600080fd5b506103fa6107b536600461447c565b612337565b604051638f8d7f9960e01b81526001600160a01b038084166004830152821660248201526000903090638f8d7f99906044015b602060405180830381600087803b15801561080757600080fd5b505af115801561081b573d6000803e3d6000fd5b505050506040513d601f19601f8201168201806040525081019061083f91906144a4565b604051600782900b815290915060008051602061557a8339815191529060200160405180910390a1600781900b60161461087857600080fd5b92915050565b60008061088c858585612384565b604051828152919350915060008051602061557a8339815191529060200160405180910390a1601682146108bf57600080fd5b60405181151581527e1c2e72360171244b3bb8cc8ddd767820edf37138ad6f129fb3574b407c307d906020015b60405180910390a1935093915050565b6000806109098484612483565b604051828152919350915060008051602061557a8339815191529060200160405180910390a16016821461093c57600080fd5b6040516001600160a01b03821681527fc2c78c7c31baf14949e75c51df12be56edb9af523cf82839c2869bbcf13b3ecb906020015b60405180910390a19250929050565b600061098e85858585612563565b905060008051602061557a833981519152816040516109af91815260200190565b60405180910390a1601681146109c457600080fd5b949350505050565b604051631f106b4b60e21b81526001600160a01b03821660048201526000903090637c41ad2c90602401602060405180830381600087803b158015610a1057600080fd5b505af1158015610a24573d6000803e3d6000fd5b505050506040513d601f19601f82011682018060405250810190610a4891906144c1565b905060008051602061557a83398151915281604051610a6991815260200190565b60405180910390a160168114610a7e57600080fd5b604051600181527f0c9c765845f4d139956bb8fc8decb2eec6093c9c608b809641b16054b29f0e13906020015b60405180910390a1919050565b6000610ac48383612673565b60070b905060008051602061557a83398151915281604051610ae891815260200190565b60405180910390a16016811461087857600080fd5b60405163af99c63360e01b81526001600160a01b03808416600483015282166024820152600090309063af99c633906044016107ed565b6040516001600160a01b03821660248201526000908190819061016790633b3bff0f60e01b906044015b60408051601f198184030181529181526020820180516001600160e01b03166001600160e01b0319909416939093179092529051610b9c91906144da565b6000604051808303816000865af19150503d8060008114610bd9576040519150601f19603f3d011682016040523d82523d6000602084013e610bde565b606091505b509150915081610bef576015610c03565b80806020019051810190610c039190614508565b60030b949350505050565b600080610c1a836126c2565b604051828152919350915060008051602061557a8339815191529060200160405180910390a160168214610c4d57600080fd5b60405181151581527f6b7f3306751292f85ab4161ee2b0ac16dfc8ded13e6446ce6bd859d0a2f4c78e906020015b60405180910390a1915091565b60408051600480825260a08201909252600091816020015b610ca8613693565b815260200190600190039081610ca0579050509050610cdb600060066001604051806020016040528060008152506127bf565b81600081518110610cee57610cee614523565b6020026020010181905250610d14600180604051806020016040528060008152506127f6565b81600181518110610d2757610d27614523565b6020026020010181905250610d4e60026001604051806020016040528060008152506127f6565b81600281518110610d6157610d61614523565b6020026020010181905250610d8860036001604051806020016040528060008152506127f6565b81600381518110610d9b57610d9b614523565b602002602001018190525060006040518060600160405280600063ffffffff168152602001846001600160a01b03168152602001627a120063ffffffff168152509050600060405180610120016040528060018054610df990614539565b80601f0160208091040260200160405190810160405280929190818152602001828054610e2590614539565b8015610e725780601f10610e4757610100808354040283529160200191610e72565b820191906000526020600020905b815481529060010190602001808311610e5557829003601f168201915b5050505050815260200160028054610e8990614539565b80601f0160208091040260200160405190810160405280929190818152602001828054610eb590614539565b8015610f025780601f10610ed757610100808354040283529160200191610f02565b820191906000526020600020905b815481529060010190602001808311610ee557829003601f168201915b50505050508152602001856001600160a01b0316815260200160038054610f2890614539565b80601f0160208091040260200160405190810160405280929190818152602001828054610f5490614539565b8015610fa15780601f10610f7657610100808354040283529160200191610fa1565b820191906000526020600020905b815481529060010190602001808311610f8457829003601f168201915b50505091835250506001602082015260055463ffffffff16604082015260075460ff16151560608201526080810185905260a0018390526004546006549192506000918291610ff29185919061282b565b90925090506016821461100457600080fd5b6040516001600160a01b03821681527f7bb17726df1f3adee8aa00ba8e8bc5d6f182af3bbf77604639cb7f008dd3b4ed9060200160405180910390a1505050505050565b60006110526136f0565b61105c8484612959565b604051828152919350915060008051602061557a8339815191529060200160405180910390a16016821461108f57600080fd5b7fa516f81c528634d0fc1e993bba1d227231b4bd6d1beb72d33b056a6199c0f988816040516109719190614574565b60006110cb848484612a4c565b905060008051602061557a833981519152816040516110ec91815260200190565b60405180910390a16016811461110157600080fd5b9392505050565b600080611116858585612b2c565b604051828152919350915060008051602061557a8339815191529060200160405180910390a16016821461114957600080fd5b6040518181527f25b6684a7e8fe1b676e9c39c8dd65034fbafea906d3bdfd97bf748b7b55e14c8906020016108ec565b6000606080606061118985612c18565b604051600785900b81529397509195509350915060008051602061557a8339815191529060200160405180910390a1600784900b6016146111c957600080fd5b7f2efc8334b040613a552197fe34283d6ca2909c8ffae393e128424931f20c69b38383836040516111fc93929190614587565b60405180910390a19193509193565b600061121561372b565b61121e83612d18565b604051828152919350915060008051602061557a8339815191529060200160405180910390a16016821461125157600080fd5b7f476a9a9b28e2717d55288b2ae3c48a72aac52b11f8bd855017c9d41d9fc1896481604051610c7b91906145c0565b60008061128d8484612e01565b60405160079290920b8083529350915060008051602061557a8339815191529060200160405180910390a1601682146112c557600080fd5b60405181151581527f59800d968fcce138300a0019410b4b75041610d65b3cdc5f31656b03ed14912e90602001610971565b600061098e85858585612e52565b6040516001600160a01b03821660248201526000908190819061016790631f106b4b60e21b90604401610b5e565b6000610ac48383612eb3565b600080606061134f868686612f02565b604051838152929550909350915060008051602061557a8339815191529060200160405180910390a16016831461138557600080fd5b7feff23992f47b3c101679f8b4dc9d3e242c903909dba4a453f2b2341ad463b0e282826040516113b69291906145d3565b60405180910390a193509350939050565b6000806113d383613000565b604051828152919350915060008051602061557a8339815191529060200160405180910390a16016821461140657600080fd5b60405181151581527f9ee19e13dfa1ba8db2502e15ff56dbecdeb0e0473323fb195473ce648030a2cd90602001610c7b565b604080516001808252818301909252600091816020015b611457613693565b81526020019060019003908161144f5790505090506114896000806001604051806020016040528060008152506127bf565b8160008151811061149c5761149c614523565b602002602001018190525060006040518060600160405280600063ffffffff168152602001856001600160a01b03168152602001627a120063ffffffff1681525090506000604051806101200160405280600180546114fa90614539565b80601f016020809104026020016040519081016040528092919081815260200182805461152690614539565b80156115735780601f1061154857610100808354040283529160200191611573565b820191906000526020600020905b81548152906001019060200180831161155657829003601f168201915b505050505081526020016002805461158a90614539565b80601f01602080910402602001604051908101604052809291908181526020018280546115b690614539565b80156116035780601f106115d857610100808354040283529160200191611603565b820191906000526020600020905b8154815290600101906020018083116115e657829003601f168201915b50505050508152602001866001600160a01b031681526020016003805461162990614539565b80601f016020809104026020016040519081016040528092919081815260200182805461165590614539565b80156116a25780601f10611677576101008083540402835291602001916116a2565b820191906000526020600020905b81548152906001019060200180831161168557829003601f168201915b505050918352505060016020820181905260055463ffffffff166040808401919091526000606084018190526080840188905260a09093018690528051828152808201909152929350909190816020015b6040805160a0810182526000808252602080830182905292820181905260608201819052608082015282526000199092019101816116f35750506040805160a081018252600181526001600160a01b0388811660208301526000928201839052606082018390528916608082015282519293509183919061177657611776614523565b6020908102919091010152604080516001808252818301909252600091816020015b6040805160c08101825260008082526020808301829052928201819052606082018190526080820181905260a082015282526000199092019101816117985750506040805160c0810182526004815260056020820152600a91810191909152601e60608201526000608082018190526001600160a01b038a1660a08301528251929350909183919061182c5761182c614523565b602002602001018190525060008061184b856004546006548787613049565b9150915060008051602061557a8339815191528260405161186e91815260200190565b60405180910390a16016821461188357600080fd5b6040516001600160a01b03821681527f7bb17726df1f3adee8aa00ba8e8bc5d6f182af3bbf77604639cb7f008dd3b4ed9060200160405180910390a1505050505050505050565b6040516001600160a01b038381166024830152821660448201526000908190819061016790638f8d7f9960e01b906064015b60408051601f198184030181529181526020820180516001600160e01b03166001600160e01b031990941693909317909252905161193a91906144da565b6000604051808303816000865af19150503d8060008114611977576040519150601f19603f3d011682016040523d82523d6000602084013e61197c565b606091505b50915091508161198d5760156119a1565b808060200190518101906119a19190614508565b60030b95945050505050565b60006119c16119bc83856146a5565b61317d565b905060008051602061557a83398151915281604051610ae891815260200190565b60006119ed826131a7565b905060008051602061557a83398151915281604051611a0e91815260200190565b60405180910390a160168114611a2357600080fd5b919050565b604051633cb0c7fd60e21b81526001600160a01b038084166004830152821660248201526000908190309063f2c31ff4906044016040805180830381600087803b158015611a7557600080fd5b505af1158015611a89573d6000803e3d6000fd5b505050506040513d601f19601f82011682018060405250810190611aad919061481d565b604051600783900b8152919350915060008051602061557a8339815191529060200160405180910390a1600782900b601614611ae857600080fd5b60405181151581527fd24dda6928587354b65aa1a18c2eaf249bef7e5bafd2a71fac71d286f76f957f90602001610971565b6040516001600160a01b03838116602483015282166044820152600090819081906101679063af99c63360e01b906064016118fc565b60408051600580825260c08201909252600091816020015b611b70613693565b815260200190600190039081611b68579050509050611ba3600060066001604051806020016040528060008152506127bf565b81600081518110611bb657611bb6614523565b6020026020010181905250611bdc600180604051806020016040528060008152506127f6565b81600181518110611bef57611bef614523565b6020026020010181905250611c1660026001604051806020016040528060008152506127f6565b81600281518110611c2957611c29614523565b6020026020010181905250611c5060046001604051806020016040528060008152506127f6565b81600381518110611c6357611c63614523565b6020026020010181905250611c8a60036001604051806020016040528060008152506127f6565b81600481518110611c9d57611c9d614523565b602002602001018190525060006040518060600160405280600063ffffffff168152602001846001600160a01b03168152602001627a120063ffffffff168152509050600060405180610120016040528060018054611cfb90614539565b80601f0160208091040260200160405190810160405280929190818152602001828054611d2790614539565b8015611d745780601f10611d4957610100808354040283529160200191611d74565b820191906000526020600020905b815481529060010190602001808311611d5757829003601f168201915b5050505050815260200160028054611d8b90614539565b80601f0160208091040260200160405190810160405280929190818152602001828054611db790614539565b8015611e045780601f10611dd957610100808354040283529160200191611e04565b820191906000526020600020905b815481529060010190602001808311611de757829003601f168201915b50505050508152602001856001600160a01b0316815260200160038054611e2a90614539565b80601f0160208091040260200160405190810160405280929190818152602001828054611e5690614539565b8015611ea35780601f10611e7857610100808354040283529160200191611ea3565b820191906000526020600020905b815481529060010190602001808311611e8657829003601f168201915b50505091835250506001602082015260055463ffffffff16604082015260075460ff16151560608201526080810185905260a0018390529050600080610ff2836131ee565b60006110cb8484846132d8565b60408051600080825260208201909252819081611f3a565b6040805160608101825260008082526020808301829052928201528252600019909201910181611f0d5790505b50905060006040518060400160405280336001600160a01b0316815260200185611f639061484c565b600790810b9091526040805180820182526001600160a01b038a1681529187900b602083015280516002808252606082019092529293509091600091816020015b6040805180820190915260008082526020820152815260200190600190039081611fa45790505090508281600081518110611fe157611fe1614523565b6020026020010181905250818160018151811061200057612000614523565b602090810291909101810191909152604080516060810182526001600160a01b038a16815291820183905281810186905280516001808252818301909252600091816020015b612073604051806060016040528060006001600160a01b0316815260200160608152602001606081525090565b815260200190600190039081612046579050509050818160008151811061209c5761209c614523565b60200260200101819052506120b08161317d565b9650601687146120bf57600080fd5b5050505050509392505050565b60006110cb848484613333565b6040516001600160a01b0383811660248301528216604482015260009081908190819061016790633cb0c7fd60e21b906064015b60408051601f198184030181529181526020820180516001600160e01b03166001600160e01b031990941693909317909252905161214b91906144da565b6000604051808303816000865af19150503d8060008114612188576040519150601f19603f3d011682016040523d82523d6000602084013e61218d565b606091505b5091509150816121a057601560006121b4565b808060200190518101906121b49190614882565b60039190910b97909650945050505050565b60006121d061374b565b6121d98361338a565b604051828152919350915060008051602061557a8339815191529060200160405180910390a16016821461220c57600080fd5b7f528c7dcea75f0c9e110a038e50647cd6a70ac06d331399b77dd9a80f903ebc1681604051610c7b91906148ae565b60006119c18383613473565b604051633b3bff0f60e01b81526001600160a01b03821660048201526000903090633b3bff0f90602401602060405180830381600087803b15801561228b57600080fd5b505af115801561229f573d6000803e3d6000fd5b505050506040513d601f19601f820116820180604052508101906122c391906144c1565b905060008051602061557a833981519152816040516122e491815260200190565b60405180910390a1601681146122f957600080fd5b604051600181527f319ab7084208e4afa38c6e6ff7aea9587439f2e4700746f4c7d425fea17426d290602001610aab565b60006110cb8484846134c2565b6007805460ff191682151590811790915560405160ff909116151581527f457c3a16a0ebdc38e3675609957ca3fcc4490e220bd15d85d34f58e2e145cb089060200160405180910390a150565b604080516001600160a01b0385811660248301528481166044830152831660648083019190915282518083039091018152608490910182526020810180516001600160e01b03167ff49f40db00000000000000000000000000000000000000000000000000000000179052905160009182918291829161016791612407916144da565b6000604051808303816000865af19150503d8060008114612444576040519150601f19603f3d011682016040523d82523d6000602084013e612449565b606091505b50915091508161245c5760156000612470565b808060200190518101906124709190614882565b60039190910b9890975095505050505050565b604080516001600160a01b0384166024820152604480820184905282518083039091018152606490910182526020810180516001600160e01b03167f098f2366000000000000000000000000000000000000000000000000000000001790529051600091829182918291610167916124fa916144da565b6000604051808303816000865af19150503d8060008114612537576040519150601f19603f3d011682016040523d82523d6000602084013e61253c565b606091505b50915091508161254f57601560006121b4565b808060200190518101906121b491906148c1565b6040516001600160a01b038581166024830152848116604483015283166064820152600782900b608482015260009081908190610167907feca36917000000000000000000000000000000000000000000000000000000009060a4015b60408051601f198184030181529181526020820180516001600160e01b03166001600160e01b03199094169390931790925290516125fe91906144da565b6000604051808303816000865af19150503d806000811461263b576040519150601f19603f3d011682016040523d82523d6000602084013e612640565b606091505b509150915081612651576015612665565b808060200190518101906126659190614508565b60030b979650505050505050565b6040516001600160a01b0383811660248301528216604482015260009081908190610167907f52f9138700000000000000000000000000000000000000000000000000000000906064016118fc565b6040516001600160a01b0382166024820152600090819081908190610167907fa7daa18d00000000000000000000000000000000000000000000000000000000906044015b60408051601f198184030181529181526020820180516001600160e01b03166001600160e01b031990941693909317909252905161274591906144da565b6000604051808303816000865af19150503d8060008114612782576040519150601f19603f3d011682016040523d82523d6000602084013e612787565b606091505b50915091508161279a57601560006127ae565b808060200190518101906127ae9190614882565b60039190910b969095509350505050565b6127c7613693565b60405180604001604052806127dc8787613518565b81526020016127eb8585613531565b905295945050505050565b6127fe613693565b604051806040016040528061281286613601565b81526020016128218585613531565b9052949350505050565b600080848061010001516000015163ffffffff16600014801561285b57506101008101516040015163ffffffff16155b15612871576101008101516276a7006040909101525b6000806101676001600160a01b031634637812a04b60e01b8a8a8a60405160240161289e939291906148ed565b60408051601f198184030181529181526020820180516001600160e01b03166001600160e01b03199094169390931790925290516128dc91906144da565b60006040518083038185875af1925050503d8060008114612919576040519150601f19603f3d011682016040523d82523d6000602084013e61291e565b606091505b5091509150816129315760156000612945565b8080602001905181019061294591906148c1565b60039190910b999098509650505050505050565b60006129636136f0565b604080516001600160a01b0386166024820152600785900b60448083019190915282518083039091018152606490910182526020810180516001600160e01b03167f287e1da80000000000000000000000000000000000000000000000000000000017905290516000918291610167916129dc916144da565b6000604051808303816000865af19150503d8060008114612a19576040519150601f19603f3d011682016040523d82523d6000602084013e612a1e565b606091505b5091509150612a2b6136f0565b82612a3857601581612470565b818060200190518101906124709190614fe2565b60008060006101676001600160a01b031663f7f38e2660e01b878787604051602401612a7a939291906150ca565b60408051601f198184030181529181526020820180516001600160e01b03166001600160e01b0319909416939093179092529051612ab891906144da565b6000604051808303816000865af19150503d8060008114612af5576040519150601f19603f3d011682016040523d82523d6000602084013e612afa565b606091505b509150915081612b0b576015612b1f565b80806020019051810190612b1f9190614508565b60030b9695505050505050565b604080516001600160a01b0385811660248301528481166044830152831660648083019190915282518083039091018152608490910182526020810180516001600160e01b03167f927da10500000000000000000000000000000000000000000000000000000000179052905160009182918291829161016791612baf916144da565b6000604051808303816000865af19150503d8060008114612bec576040519150601f19603f3d011682016040523d82523d6000602084013e612bf1565b606091505b509150915081612c045760156000612470565b8080602001905181019061247091906150f6565b604080516001600160a01b03831660248083019190915282518083039091018152604490910182526020810180516001600160e01b03167fae7611a0000000000000000000000000000000000000000000000000000000001790529051600091606091829182918591829161016791612c90916144da565b6000604051808303816000865af19150503d8060008114612ccd576040519150601f19603f3d011682016040523d82523d6000602084013e612cd2565b606091505b5091509150606080606084612ceb576015838383612cff565b83806020019051810190612cff9190615122565b60039390930b9d919c509a509098509650505050505050565b6000612d2261372b565b604080516001600160a01b03851660248083019190915282518083039091018152604490910182526020810180516001600160e01b03167f3f28a19b000000000000000000000000000000000000000000000000000000001790529051600091829161016791612d91916144da565b6000604051808303816000865af19150503d8060008114612dce576040519150601f19603f3d011682016040523d82523d6000602084013e612dd3565b606091505b5091509150612de061372b565b82612ded576015816121b4565b818060200190518101906121b491906151bb565b6040516001600160a01b03838116602483015282166044820152600090819081908190610167907f46de0fb1000000000000000000000000000000000000000000000000000000009060640161210d565b6040516001600160a01b038581166024830152848116604483015283166064820152600782900b608482015260009081908190610167907f5cfc9011000000000000000000000000000000000000000000000000000000009060a4016125c0565b6040516001600160a01b0383811660248301528216604482015260009081908190610167907f5b8f858400000000000000000000000000000000000000000000000000000000906064016118fc565b60008060606000806101676001600160a01b031663278e0b8860e01b898989604051602401612f3393929190615267565b60408051601f198184030181529181526020820180516001600160e01b03166001600160e01b0319909416939093179092529051612f7191906144da565b6000604051808303816000865af19150503d8060008114612fae576040519150601f19603f3d011682016040523d82523d6000602084013e612fb3565b606091505b509150915081612fd6576040805160008082526020820190925260159190612fea565b80806020019051810190612fea91906152eb565b60039290920b9a90995090975095505050505050565b6040516001600160a01b0382166024820152600090819081908190610167907f335e04c10000000000000000000000000000000000000000000000000000000090604401612707565b600080868061010001516000015163ffffffff16600014801561307957506101008101516040015163ffffffff16155b1561308f576101008101516276a7006040909101525b6000806101676001600160a01b031634634c381ae760e01b8c8c8c8c8c6040516024016130c095949392919061539c565b60408051601f198184030181529181526020820180516001600160e01b03166001600160e01b03199094169390931790925290516130fe91906144da565b60006040518083038185875af1925050503d806000811461313b576040519150601f19603f3d011682016040523d82523d6000602084013e613140565b606091505b5091509150816131535760156000613167565b8080602001905181019061316791906148c1565b60039190910b9b909a5098505050505050505050565b60008060006101676001600160a01b031663189a554c60e01b85604051602401610b5e9190615442565b6040516001600160a01b038216602482015260009081908190610167907ff069f7120000000000000000000000000000000000000000000000000000000090604401610b5e565b600080828061010001516000015163ffffffff16600014801561321e57506101008101516040015163ffffffff16155b15613234576101008101516276a7006040909101525b6000806101676001600160a01b031634639dc711e060e01b8860405160240161325d9190615518565b60408051601f198184030181529181526020820180516001600160e01b03166001600160e01b031990941693909317909252905161329b91906144da565b60006040518083038185875af1925050503d8060008114612537576040519150601f19603f3d011682016040523d82523d6000602084013e61253c565b6040516001600160a01b0384811660248301528316604482015263ffffffff8216606482015260009081908190610167907f9790686d0000000000000000000000000000000000000000000000000000000090608401612a7a565b6040516001600160a01b03848116602483015283166044820152811515606482015260009081908190610167907f367605ca0000000000000000000000000000000000000000000000000000000090608401612a7a565b600061339461374b565b604080516001600160a01b03851660248083019190915282518083039091018152604490910182526020810180516001600160e01b03167f1f69565f000000000000000000000000000000000000000000000000000000001790529051600091829161016791613403916144da565b6000604051808303816000865af19150503d8060008114613440576040519150601f19603f3d011682016040523d82523d6000602084013e613445565b606091505b509150915061345261374b565b8261345f576015816121b4565b818060200190518101906121b4919061552b565b6040516001600160a01b0383811660248301528216604482015260009081908190610167907f49146bde00000000000000000000000000000000000000000000000000000000906064016118fc565b6040516001600160a01b038481166024830152831660448201526064810182905260009081908190610167907fe1f21c670000000000000000000000000000000000000000000000000000000090608401612a7a565b6000600160ff84161b9050600160ff83161b8117611101565b6135776040518060a0016040528060001515815260200160006001600160a01b03168152602001606081526020016060815260200160006001600160a01b031681525090565b8260ff166001141561358c5760018152610878565b8260ff16600214156135ae576000546001600160a01b03166020820152610878565b8260ff16600314156135c65760408101829052610878565b8260ff16600414156135de5760608101829052610878565b8260ff1660051415610878576000546001600160a01b0316608082015292915050565b600060ff821661361357506001919050565b8160ff166001141561362757506002919050565b8160ff166002141561363b57506004919050565b8160ff166003141561364f57506008919050565b8160ff166004141561366357506010919050565b8160ff166005141561367757506020919050565b8160ff166006141561368b57506040919050565b506000919050565b6040518060400160405280600081526020016136eb6040518060a0016040528060001515815260200160006001600160a01b03168152602001606081526020016060815260200160006001600160a01b031681525090565b905290565b6040518060c0016040528061370361374b565b8152600060208201819052604082018190526060808301829052608083015260a09091015290565b604051806040016040528061373e61374b565b8152600060209091015290565b60408051610240810182526060610120820181815261014083018290526000610160840181905261018084018390526101a084018190526101c084018190526101e0840181905261020084018390528451928301855280835260208301819052938201939093526102208201529081908152602001600067ffffffffffffffff168152602001600015158152602001600015158152602001600015158152602001606081526020016060815260200160608152602001606081525090565b6001600160a01b038116811461381e57600080fd5b50565b6000806040838503121561383457600080fd5b823561383f81613809565b9150602083013561384f81613809565b809150509250929050565b60008060006060848603121561386f57600080fd5b833561387a81613809565b9250602084013561388a81613809565b9150604084013561389a81613809565b809150509250925092565b600080604083850312156138b857600080fd5b82356138c381613809565b946020939093013593505050565b8060070b811461381e57600080fd5b600080600080608085870312156138f657600080fd5b843561390181613809565b9350602085013561391181613809565b9250604085013561392181613809565b91506060850135613931816138d1565b939692955090935050565b60006020828403121561394e57600080fd5b813561110181613809565b6000806040838503121561396c57600080fd5b823561397781613809565b9150602083013561384f816138d1565b60005b838110156139a257818101518382015260200161398a565b838111156139b1576000848401525b50505050565b600081518084526139cf816020860160208601613987565b601f01601f19169290920160200192915050565b600081518084526020808501808196508360051b8101915082860160005b85811015613a9a5782840389528151604081518652868201519150808787015281511515818701528682015160606001600160a01b03808316828a015283850151935060a09250608083818b0152613a5c60e08b01866139b7565b928601518a8403603f1901858c0152929450613a7885846139b7565b9501511660c09890980197909752505098850198935090840190600101613a01565b5091979650505050505050565b60006101608251818552613abd828601826139b7565b91505060208301518482036020860152613ad782826139b7565b9150506040830151613af460408601826001600160a01b03169052565b5060608301518482036060860152613b0c82826139b7565b9150506080830151613b22608086018215159052565b5060a0830151613b3a60a086018263ffffffff169052565b5060c0830151613b4e60c086018215159052565b5060e083015184820360e0860152613b6682826139e3565b61010085810151805163ffffffff9081168984015260208201516001600160a01b03166101208a015260408201511661014089015291935091505090949350505050565b600081518084526020808501945080840160005b83811015613c1a578151805163ffffffff168852838101516001600160a01b03908116858a01526040808301511515908a01526060808301511515908a0152608091820151169088015260a09096019590820190600101613bbe565b509495945050505050565b600081518084526020808501945080840160005b83811015613c1a578151805163ffffffff9081168952848201518116858a01526040808301518216908a01526060808301519091169089015260808082015115159089015260a0908101516001600160a01b03169088015260c09096019590820190600101613c39565b600081518084526020808501945080840160005b83811015613c1a578151805163ffffffff9081168952848201518116858a0152604080830151909116908901526060808201516001600160a01b03908116918a01919091526080808301511515908a015260a091820151169088015260c09096019590820190600101613cb7565b60006101208251818552613d3b82860182613aa7565b9150506020830151613d59602086018267ffffffffffffffff169052565b506040830151613d6d604086018215159052565b506060830151613d81606086018215159052565b506080830151613d95608086018215159052565b5060a083015184820360a0860152613dad8282613baa565b91505060c083015184820360c0860152613dc78282613c25565b91505060e083015184820360e0860152613de18282613ca3565b9150506101008084015185830382870152613dfc83826139b7565b9695505050505050565b6000815160c08452613e1b60c0850182613d25565b9050602083015160070b602085015260408301516001600160a01b038082166040870152606085015160070b6060870152608085015191508583036080870152613e6583836139b7565b92508060a08601511660a087015250508091505092915050565b8281526040602082015260006109c46040830184613e06565b634e487b7160e01b600052604160045260246000fd5b6040516060810167ffffffffffffffff81118282101715613ed157613ed1613e98565b60405290565b6040805190810167ffffffffffffffff81118282101715613ed157613ed1613e98565b60405160a0810167ffffffffffffffff81118282101715613ed157613ed1613e98565b604051610120810167ffffffffffffffff81118282101715613ed157613ed1613e98565b60405160c0810167ffffffffffffffff81118282101715613ed157613ed1613e98565b604051601f8201601f1916810167ffffffffffffffff81118282101715613f8d57613f8d613e98565b604052919050565b600067ffffffffffffffff821115613faf57613faf613e98565b5060051b60200190565b600080600060608486031215613fce57600080fd5b8335613fd981613809565b9250602084810135613fea81613809565b9250604085013567ffffffffffffffff81111561400657600080fd5b8501601f8101871361401757600080fd5b803561402a61402582613f95565b613f64565b81815260059190911b8201830190838101908983111561404957600080fd5b928401925b82841015614070578335614061816138d1565b8252928401929084019061404e565b80955050505050509250925092565b8460070b815260806020820152600061409b6080830186613baa565b82810360408401526140ad8186613c25565b905082810360608401526140c18185613ca3565b979650505050505050565b60008151604084526140e16040850182613d25565b60209384015163ffffffff16949093019390935250919050565b8281526040602082015260006109c460408301846140cc565b67ffffffffffffffff8116811461381e57600080fd5b600067ffffffffffffffff82111561414457614144613e98565b50601f01601f191660200190565b60008060006060848603121561416757600080fd5b833561417281613809565b925060208481013561418381614114565b925060408581013567ffffffffffffffff808211156141a157600080fd5b818801915088601f8301126141b557600080fd5b81356141c361402582613f95565b81815260059190911b8301850190858101908b8311156141e257600080fd5b8685015b83811015614256578035858111156141fe5760008081fd5b8601603f81018e136142105760008081fd5b888101356142206140258261412a565b8181528f8a8385010111156142355760008081fd5b818a84018c83013760009181018b01919091528452509187019187016141e6565b50809750505050505050509250925092565b600081518084526020808501945080840160005b83811015613c1a57815160070b8752958201959082019060010161427c565b83815267ffffffffffffffff831660208201526060604082015260006142c46060830184614268565b95945050505050565b600080602083850312156142e057600080fd5b823567ffffffffffffffff808211156142f857600080fd5b818501915085601f83011261430c57600080fd5b81358181111561431b57600080fd5b8660208260051b850101111561433057600080fd5b60209290920196919550909350505050565b63ffffffff8116811461381e57600080fd5b60008060006060848603121561436957600080fd5b833561437481613809565b9250602084013561438481613809565b9150604084013561389a81614342565b6000806000606084860312156143a957600080fd5b83356143b481613809565b925060208401356143c481613809565b9150604084013561389a816138d1565b801515811461381e57600080fd5b6000806000606084860312156143f757600080fd5b833561440281613809565b9250602084013561441281613809565b9150604084013561389a816143d4565b8281526040602082015260006109c46040830184613d25565b60008060006060848603121561445057600080fd5b833561445b81613809565b9250602084013561446b81613809565b929592945050506040919091013590565b60006020828403121561448e57600080fd5b8135611101816143d4565b8051611a23816138d1565b6000602082840312156144b657600080fd5b8151611101816138d1565b6000602082840312156144d357600080fd5b5051919050565b600082516144ec818460208701613987565b9190910192915050565b8051600381900b8114611a2357600080fd5b60006020828403121561451a57600080fd5b611101826144f6565b634e487b7160e01b600052603260045260246000fd5b600181811c9082168061454d57607f821691505b6020821081141561456e57634e487b7160e01b600052602260045260246000fd5b50919050565b6020815260006111016020830184613e06565b60608152600061459a6060830186613baa565b82810360208401526145ac8186613c25565b90508281036040840152613dfc8185613ca3565b60208152600061110160208301846140cc565b67ffffffffffffffff831681526040602082015260006109c46040830184614268565b600082601f83011261460757600080fd5b8135602061461761402583613f95565b8281526060928302850182019282820191908785111561463657600080fd5b8387015b858110156146985781818a0312156146525760008081fd5b61465a613eae565b813561466581613809565b81528186013561467481613809565b81870152604082810135614687816138d1565b90820152845292840192810161463a565b5090979650505050505050565b60006146b361402584613f95565b80848252602080830192508560051b8501368111156146d157600080fd5b855b8181101561480657803567ffffffffffffffff808211156146f45760008081fd5b81890191506060823603121561470a5760008081fd5b614712613eae565b823561471d81613809565b815282860135828111156147315760008081fd5b830136601f8201126147435760008081fd5b803561475161402582613f95565b81815260069190911b820188019088810190368311156147715760008081fd5b928901925b828410156147c7576040843603121561478f5760008081fd5b614797613ed7565b84356147a281613809565b8152848b01356147b1816138d1565b818c015282526040939093019290890190614776565b848a015250604091505083810135838111156147e35760008081fd5b6147ef368287016145f6565b9183019190915250875250509382019382016146d3565b50919695505050505050565b8051611a23816143d4565b6000806040838503121561483057600080fd5b825161483b816138d1565b602084015190925061384f816143d4565b60008160070b677fffffffffffffff1981141561487957634e487b7160e01b600052601160045260246000fd5b60000392915050565b6000806040838503121561489557600080fd5b61489e836144f6565b9150602083015161384f816143d4565b6020815260006111016020830184613d25565b600080604083850312156148d457600080fd5b6148dd836144f6565b9150602083015161384f81613809565b6060815260006149006060830186613aa7565b60208301949094525060400152919050565b600082601f83011261492357600080fd5b81516149316140258261412a565b81815284602083860101111561494657600080fd5b6109c4826020830160208701613987565b8051611a2381613809565b8051611a2381614342565b600082601f83011261497e57600080fd5b8151602061498e61402583613f95565b82815260059290921b840181019181810190868411156149ad57600080fd5b8286015b84811015614ac357805167ffffffffffffffff808211156149d157600080fd5b908801906040601f19838c0381018213156149eb57600080fd5b6149f3613ed7565b8885015181528285015184811115614a0a57600080fd5b949094019360a0858e0383011215614a225760008081fd5b614a2a613efa565b915088850151614a39816143d4565b825284830151614a4881613809565b828a015260608581015185811115614a605760008081fd5b614a6e8f8c838a0101614912565b8585015250608093508386015185811115614a895760008081fd5b614a978f8c838a0101614912565b828501525050614aa960a08601614957565b9282019290925281880152855250509183019183016149b1565b509695505050505050565b600060608284031215614ae057600080fd5b614ae8613eae565b90508151614af581614342565b81526020820151614b0581613809565b60208201526040820151614b1881614342565b604082015292915050565b60006101608284031215614b3657600080fd5b614b3e613f1d565b9050815167ffffffffffffffff80821115614b5857600080fd5b614b6485838601614912565b83526020840151915080821115614b7a57600080fd5b614b8685838601614912565b6020840152614b9760408501614957565b60408401526060840151915080821115614bb057600080fd5b614bbc85838601614912565b6060840152614bcd60808501614812565b6080840152614bde60a08501614962565b60a0840152614bef60c08501614812565b60c084015260e0840151915080821115614c0857600080fd5b50614c158482850161496d565b60e083015250610100614c2a84828501614ace565b9082015292915050565b8051611a2381614114565b600082601f830112614c5057600080fd5b81516020614c6061402583613f95565b82815260a09283028501820192828201919087851115614c7f57600080fd5b8387015b858110156146985781818a031215614c9b5760008081fd5b614ca3613efa565b8151614cae81614342565b815281860151614cbd81613809565b81870152604082810151614cd0816143d4565b90820152606082810151614ce3816143d4565b90820152608082810151614cf681613809565b908201528452928401928101614c83565b600082601f830112614d1857600080fd5b81516020614d2861402583613f95565b82815260c09283028501820192828201919087851115614d4757600080fd5b8387015b858110156146985781818a031215614d635760008081fd5b614d6b613f41565b8151614d7681614342565b815281860151614d8581614342565b81870152604082810151614d9881614342565b90820152606082810151614dab81614342565b90820152608082810151614dbe816143d4565b9082015260a082810151614dd181613809565b908201528452928401928101614d4b565b600082601f830112614df357600080fd5b81516020614e0361402583613f95565b82815260c09283028501820192828201919087851115614e2257600080fd5b8387015b858110156146985781818a031215614e3e5760008081fd5b614e46613f41565b8151614e5181614342565b815281860151614e6081614342565b81870152604082810151614e7381614342565b90820152606082810151614e8681613809565b90820152608082810151614e99816143d4565b9082015260a082810151614eac81613809565b908201528452928401928101614e26565b60006101208284031215614ed057600080fd5b614ed8613f1d565b9050815167ffffffffffffffff80821115614ef257600080fd5b614efe85838601614b23565b8352614f0c60208501614c34565b6020840152614f1d60408501614812565b6040840152614f2e60608501614812565b6060840152614f3f60808501614812565b608084015260a0840151915080821115614f5857600080fd5b614f6485838601614c3f565b60a084015260c0840151915080821115614f7d57600080fd5b614f8985838601614d07565b60c084015260e0840151915080821115614fa257600080fd5b614fae85838601614de2565b60e084015261010091508184015181811115614fc957600080fd5b614fd586828701614912565b8385015250505092915050565b60008060408385031215614ff557600080fd5b614ffe836144f6565b9150602083015167ffffffffffffffff8082111561501b57600080fd5b9084019060c0828703121561502f57600080fd5b615037613f41565b82518281111561504657600080fd5b61505288828601614ebd565b82525061506160208401614499565b602082015261507260408401614957565b604082015261508360608401614499565b606082015260808301518281111561509a57600080fd5b6150a688828601614912565b6080830152506150b860a08401614957565b60a08201528093505050509250929050565b60006001600160a01b038086168352808516602084015250606060408301526142c46060830184614268565b6000806040838503121561510957600080fd5b615112836144f6565b9150602083015190509250929050565b6000806000806080858703121561513857600080fd5b615141856144f6565b9350602085015167ffffffffffffffff8082111561515e57600080fd5b61516a88838901614c3f565b9450604087015191508082111561518057600080fd5b61518c88838901614d07565b935060608701519150808211156151a257600080fd5b506151af87828801614de2565b91505092959194509250565b600080604083850312156151ce57600080fd5b6151d7836144f6565b9150602083015167ffffffffffffffff808211156151f457600080fd5b908401906040828703121561520857600080fd5b60405160408101818110838211171561522357615223613e98565b60405282518281111561523557600080fd5b61524188828601614ebd565b8252506020830151925061525483614342565b8260208201528093505050509250929050565b6000606082016001600160a01b0386168352602067ffffffffffffffff8616818501526060604085015281855180845260808601915060808160051b870101935082870160005b828110156152dc57607f198887030184526152ca8683516139b7565b955092840192908401906001016152ae565b50939998505050505050505050565b60008060006060848603121561530057600080fd5b615309846144f6565b925060208085015161531a81614114565b604086015190935067ffffffffffffffff81111561533757600080fd5b8501601f8101871361534857600080fd5b805161535661402582613f95565b81815260059190911b8201830190838101908983111561537557600080fd5b928401925b8284101561407057835161538d816138d1565b8252928401929084019061537a565b60a0815260006153af60a0830188613aa7565b86602084015285604084015282810360608401526153cd8186613baa565b905082810360808401526153e18185613c25565b98975050505050505050565b600081518084526020808501945080840160005b83811015613c1a57815180516001600160a01b03908116895284820151168489015260409081015160070b9088015260609096019590820190600101615401565b60006020808301818452808551808352604092508286019150828160051b8701018488016000805b8481101561550957898403603f19018652825180516001600160a01b0390811686528982015160608b880181905281519088018190526080880192918c01919086905b808210156154db5783518051841686528e015160070b8e860152938c0193928d0192600191909101906154ad565b5050505090880151858203868a0152906154f581836153ed565b978a0197955050509187019160010161546a565b50919998505050505050505050565b6020815260006111016020830184613aa7565b6000806040838503121561553e57600080fd5b615547836144f6565b9150602083015167ffffffffffffffff81111561556357600080fd5b61556f85828601614ebd565b915050925092905056fe90a5cf4cffe88b4edbb041cfc7a8a812c48a5ec30b84640fb37690875168e3aaa2646970667358221220b3c573243e1928c790c611c11174b80b27049b3548f86c96a7fb9bf27604fc9e64736f6c63430008090033",
  "linkReferences": {},
  "deployedLinkReferences": {}
}