{
  "_format": "hh-sol-artifact-1",
  "contractName": "BaseHTS",
  "sourceName": "contracts/BaseHTS.sol",
  "abi": [
    {
      "anonymous": false,
      "inputs": [
        {
          "indexed": false,
          "internalType": "uint256",
          "name": "amount",
          "type": "uint256"
        }
      ],
      "name": "AllowanceValue",
      "type": "event"
    },
    {
      "anonymous": false,
      "inputs": [
        {
          "indexed": false,
          "internalType": "bool",
          "name": "approved",
          "type": "bool"
        }
      ],
      "name": "Approved",
      "type": "event"
    },
    {
      "anonymous": false,
      "inputs": [
        {
          "indexed": false,
          "internalType": "address",
          "name": "approved",
          "type": "address"
        }
      ],
      "name": "ApprovedAddress",
      "type": "event"
    },
    {
      "anonymous": false,
      "inputs": [
        {
          "indexed": false,
          "internalType": "address",
          "name": "tokenAddress",
          "type": "address"
        }
      ],
      "name": "CreatedToken",
      "type": "event"
    },
    {
      "anonymous": false,
      "inputs": [
        {
          "indexed": false,
          "internalType": "bool",
          "name": "freezeStatus",
          "type": "bool"
        }
      ],
      "name": "DefaultFreezeStatusChanged",
      "type": "event"
    },
    {
      "anonymous": false,
      "inputs": [
        {
          "indexed": false,
          "internalType": "bool",
          "name": "frozen",
          "type": "bool"
        }
      ],
      "name": "Frozen",
      "type": "event"
    },
    {
      "anonymous": false,
      "inputs": [
        {
          "components": [
            {
              "components": [
                {
                  "components": [
                    {
                      "internalType": "string",
                      "name": "name",
                      "type": "string"
                    },
                    {
                      "internalType": "string",
                      "name": "symbol",
                      "type": "string"
                    },
                    {
                      "internalType": "address",
                      "name": "treasury",
                      "type": "address"
                    },
                    {
                      "internalType": "string",
                      "name": "memo",
                      "type": "string"
                    },
                    {
                      "internalType": "bool",
                      "name": "tokenSupplyType",
                      "type": "bool"
                    },
                    {
                      "internalType": "int64",
                      "name": "maxSupply",
                      "type": "int64"
                    },
                    {
                      "internalType": "bool",
                      "name": "freezeDefault",
                      "type": "bool"
                    },
                    {
                      "components": [
                        {
                          "internalType": "uint256",
                          "name": "keyType",
                          "type": "uint256"
                        },
                        {
                          "components": [
                            {
                              "internalType": "bool",
                              "name": "inheritAccountKey",
                              "type": "bool"
                            },
                            {
                              "internalType": "address",
                              "name": "contractId",
                              "type": "address"
                            },
                            {
                              "internalType": "bytes",
                              "name": "ed25519",
                              "type": "bytes"
                            },
                            {
                              "internalType": "bytes",
                              "name": "ECDSA_secp256k1",
                              "type": "bytes"
                            },
                            {
                              "internalType": "address",
                              "name": "delegatableContractId",
                              "type": "address"
                            }
                          ],
                          "internalType": "struct IHederaTokenService.KeyValue",
                          "name": "key",
                          "type": "tuple"
                        }
                      ],
                      "internalType": "struct IHederaTokenService.TokenKey[]",
                      "name": "tokenKeys",
                      "type": "tuple[]"
                    },
                    {
                      "components": [
                        {
                          "internalType": "uint32",
                          "name": "second",
                          "type": "uint32"
                        },
                        {
                          "internalType": "address",
                          "name": "autoRenewAccount",
                          "type": "address"
                        },
                        {
                          "internalType": "uint32",
                          "name": "autoRenewPeriod",
                          "type": "uint32"
                        }
                      ],
                      "internalType": "struct IHederaTokenService.Expiry",
                      "name": "expiry",
                      "type": "tuple"
                    }
                  ],
                  "internalType": "struct IHederaTokenService.HederaToken",
                  "name": "token",
                  "type": "tuple"
                },
                {
                  "internalType": "uint64",
                  "name": "totalSupply",
                  "type": "uint64"
                },
                {
                  "internalType": "bool",
                  "name": "deleted",
                  "type": "bool"
                },
                {
                  "internalType": "bool",
                  "name": "defaultKycStatus",
                  "type": "bool"
                },
                {
                  "internalType": "bool",
                  "name": "pauseStatus",
                  "type": "bool"
                },
                {
                  "components": [
                    {
                      "internalType": "uint32",
                      "name": "amount",
                      "type": "uint32"
                    },
                    {
                      "internalType": "address",
                      "name": "tokenId",
                      "type": "address"
                    },
                    {
                      "internalType": "bool",
                      "name": "useHbarsForPayment",
                      "type": "bool"
                    },
                    {
                      "internalType": "bool",
                      "name": "useCurrentTokenForPayment",
                      "type": "bool"
                    },
                    {
                      "internalType": "address",
                      "name": "feeCollector",
                      "type": "address"
                    }
                  ],
                  "internalType": "struct IHederaTokenService.FixedFee[]",
                  "name": "fixedFees",
                  "type": "tuple[]"
                },
                {
                  "components": [
                    {
                      "internalType": "uint32",
                      "name": "numerator",
                      "type": "uint32"
                    },
                    {
                      "internalType": "uint32",
                      "name": "denominator",
                      "type": "uint32"
                    },
                    {
                      "internalType": "uint32",
                      "name": "minimumAmount",
                      "type": "uint32"
                    },
                    {
                      "internalType": "uint32",
                      "name": "maximumAmount",
                      "type": "uint32"
                    },
                    {
                      "internalType": "bool",
                      "name": "netOfTransfers",
                      "type": "bool"
                    },
                    {
                      "internalType": "address",
                      "name": "feeCollector",
                      "type": "address"
                    }
                  ],
                  "internalType": "struct IHederaTokenService.FractionalFee[]",
                  "name": "fractionalFees",
                  "type": "tuple[]"
                },
                {
                  "components": [
                    {
                      "internalType": "uint32",
                      "name": "numerator",
                      "type": "uint32"
                    },
                    {
                      "internalType": "uint32",
                      "name": "denominator",
                      "type": "uint32"
                    },
                    {
                      "internalType": "uint32",
                      "name": "amount",
                      "type": "uint32"
                    },
                    {
                      "internalType": "address",
                      "name": "tokenId",
                      "type": "address"
                    },
                    {
                      "internalType": "bool",
                      "name": "useHbarsForPayment",
                      "type": "bool"
                    },
                    {
                      "internalType": "address",
                      "name": "feeCollector",
                      "type": "address"
                    }
                  ],
                  "internalType": "struct IHederaTokenService.RoyaltyFee[]",
                  "name": "royaltyFees",
                  "type": "tuple[]"
                },
                {
                  "internalType": "string",
                  "name": "ledgerId",
                  "type": "string"
                }
              ],
              "internalType": "struct IHederaTokenService.TokenInfo",
              "name": "tokenInfo",
              "type": "tuple"
            },
            {
              "internalType": "uint32",
              "name": "decimals",
              "type": "uint32"
            }
          ],
          "indexed": false,
          "internalType": "struct IHederaTokenService.FungibleTokenInfo",
          "name": "tokenInfo",
          "type": "tuple"
        }
      ],
      "name": "FungibleTokenInfo",
      "type": "event"
    },
    {
      "anonymous": false,
      "inputs": [
        {
          "indexed": false,
          "internalType": "bool",
          "name": "isToken",
          "type": "bool"
        }
      ],
      "name": "IsToken",
      "type": "event"
    },
    {
      "anonymous": false,
      "inputs": [
        {
          "indexed": false,
          "internalType": "bool",
          "name": "kycGranted",
          "type": "bool"
        }
      ],
      "name": "KycGranted",
      "type": "event"
    },
    {
      "anonymous": false,
      "inputs": [
        {
          "indexed": false,
          "internalType": "uint64",
          "name": "newTotalSupply",
          "type": "uint64"
        },
        {
          "indexed": false,
          "internalType": "int64[]",
          "name": "serialNumbers",
          "type": "int64[]"
        }
      ],
      "name": "MintedToken",
      "type": "event"
    },
    {
      "anonymous": false,
      "inputs": [
        {
          "components": [
            {
              "components": [
                {
                  "components": [
                    {
                      "internalType": "string",
                      "name": "name",
                      "type": "string"
                    },
                    {
                      "internalType": "string",
                      "name": "symbol",
                      "type": "string"
                    },
                    {
                      "internalType": "address",
                      "name": "treasury",
                      "type": "address"
                    },
                    {
                      "internalType": "string",
                      "name": "memo",
                      "type": "string"
                    },
                    {
                      "internalType": "bool",
                      "name": "tokenSupplyType",
                      "type": "bool"
                    },
                    {
                      "internalType": "int64",
                      "name": "maxSupply",
                      "type": "int64"
                    },
                    {
                      "internalType": "bool",
                      "name": "freezeDefault",
                      "type": "bool"
                    },
                    {
                      "components": [
                        {
                          "internalType": "uint256",
                          "name": "keyType",
                          "type": "uint256"
                        },
                        {
                          "components": [
                            {
                              "internalType": "bool",
                              "name": "inheritAccountKey",
                              "type": "bool"
                            },
                            {
                              "internalType": "address",
                              "name": "contractId",
                              "type": "address"
                            },
                            {
                              "internalType": "bytes",
                              "name": "ed25519",
                              "type": "bytes"
                            },
                            {
                              "internalType": "bytes",
                              "name": "ECDSA_secp256k1",
                              "type": "bytes"
                            },
                            {
                              "internalType": "address",
                              "name": "delegatableContractId",
                              "type": "address"
                            }
                          ],
                          "internalType": "struct IHederaTokenService.KeyValue",
                          "name": "key",
                          "type": "tuple"
                        }
                      ],
                      "internalType": "struct IHederaTokenService.TokenKey[]",
                      "name": "tokenKeys",
                      "type": "tuple[]"
                    },
                    {
                      "components": [
                        {
                          "internalType": "uint32",
                          "name": "second",
                          "type": "uint32"
                        },
                        {
                          "internalType": "address",
                          "name": "autoRenewAccount",
                          "type": "address"
                        },
                        {
                          "internalType": "uint32",
                          "name": "autoRenewPeriod",
                          "type": "uint32"
                        }
                      ],
                      "internalType": "struct IHederaTokenService.Expiry",
                      "name": "expiry",
                      "type": "tuple"
                    }
                  ],
                  "internalType": "struct IHederaTokenService.HederaToken",
                  "name": "token",
                  "type": "tuple"
                },
                {
                  "internalType": "uint64",
                  "name": "totalSupply",
                  "type": "uint64"
                },
                {
                  "internalType": "bool",
                  "name": "deleted",
                  "type": "bool"
                },
                {
                  "internalType": "bool",
                  "name": "defaultKycStatus",
                  "type": "bool"
                },
                {
                  "internalType": "bool",
                  "name": "pauseStatus",
                  "type": "bool"
                },
                {
                  "components": [
                    {
                      "internalType": "uint32",
                      "name": "amount",
                      "type": "uint32"
                    },
                    {
                      "internalType": "address",
                      "name": "tokenId",
                      "type": "address"
                    },
                    {
                      "internalType": "bool",
                      "name": "useHbarsForPayment",
                      "type": "bool"
                    },
                    {
                      "internalType": "bool",
                      "name": "useCurrentTokenForPayment",
                      "type": "bool"
                    },
                    {
                      "internalType": "address",
                      "name": "feeCollector",
                      "type": "address"
                    }
                  ],
                  "internalType": "struct IHederaTokenService.FixedFee[]",
                  "name": "fixedFees",
                  "type": "tuple[]"
                },
                {
                  "components": [
                    {
                      "internalType": "uint32",
                      "name": "numerator",
                      "type": "uint32"
                    },
                    {
                      "internalType": "uint32",
                      "name": "denominator",
                      "type": "uint32"
                    },
                    {
                      "internalType": "uint32",
                      "name": "minimumAmount",
                      "type": "uint32"
                    },
                    {
                      "internalType": "uint32",
                      "name": "maximumAmount",
                      "type": "uint32"
                    },
                    {
                      "internalType": "bool",
                      "name": "netOfTransfers",
                      "type": "bool"
                    },
                    {
                      "internalType": "address",
                      "name": "feeCollector",
                      "type": "address"
                    }
                  ],
                  "internalType": "struct IHederaTokenService.FractionalFee[]",
                  "name": "fractionalFees",
                  "type": "tuple[]"
                },
                {
                  "components": [
                    {
                      "internalType": "uint32",
                      "name": "numerator",
                      "type": "uint32"
                    },
                    {
                      "internalType": "uint32",
                      "name": "denominator",
                      "type": "uint32"
                    },
                    {
                      "internalType": "uint32",
                      "name": "amount",
                      "type": "uint32"
                    },
                    {
                      "internalType": "address",
                      "name": "tokenId",
                      "type": "address"
                    },
                    {
                      "internalType": "bool",
                      "name": "useHbarsForPayment",
                      "type": "bool"
                    },
                    {
                      "internalType": "address",
                      "name": "feeCollector",
                      "type": "address"
                    }
                  ],
                  "internalType": "struct IHederaTokenService.RoyaltyFee[]",
                  "name": "royaltyFees",
                  "type": "tuple[]"
                },
                {
                  "internalType": "string",
                  "name": "ledgerId",
                  "type": "string"
                }
              ],
              "internalType": "struct IHederaTokenService.TokenInfo",
              "name": "tokenInfo",
              "type": "tuple"
            },
            {
              "internalType": "int64",
              "name": "serialNumber",
              "type": "int64"
            },
            {
              "internalType": "address",
              "name": "ownerId",
              "type": "address"
            },
            {
              "internalType": "int64",
              "name": "creationTime",
              "type": "int64"
            },
            {
              "internalType": "bytes",
              "name": "metadata",
              "type": "bytes"
            },
            {
              "internalType": "address",
              "name": "spenderId",
              "type": "address"
            }
          ],
          "indexed": false,
          "internalType": "struct IHederaTokenService.NonFungibleTokenInfo",
          "name": "tokenInfo",
          "type": "tuple"
        }
      ],
      "name": "NonFungibleTokenInfo",
      "type": "event"
    },
    {
      "anonymous": false,
      "inputs": [
        {
          "indexed": false,
          "internalType": "bool",
          "name": "paused",
          "type": "bool"
        }
      ],
      "name": "PausedToken",
      "type": "event"
    },
    {
      "anonymous": false,
      "inputs": [
        {
          "indexed": false,
          "internalType": "int256",
          "name": "responseCode",
          "type": "int256"
        }
      ],
      "name": "ResponseCode",
      "type": "event"
    },
    {
      "anonymous": false,
      "inputs": [
        {
          "components": [
            {
              "internalType": "uint32",
              "name": "amount",
              "type": "uint32"
            },
            {
              "internalType": "address",
              "name": "tokenId",
              "type": "address"
            },
            {
              "internalType": "bool",
              "name": "useHbarsForPayment",
              "type": "bool"
            },
            {
              "internalType": "bool",
              "name": "useCurrentTokenForPayment",
              "type": "bool"
            },
            {
              "internalType": "address",
              "name": "feeCollector",
              "type": "address"
            }
          ],
          "indexed": false,
          "internalType": "struct IHederaTokenService.FixedFee[]",
          "name": "fixedFees",
          "type": "tuple[]"
        },
        {
          "components": [
            {
              "internalType": "uint32",
              "name": "numerator",
              "type": "uint32"
            },
            {
              "internalType": "uint32",
              "name": "denominator",
              "type": "uint32"
            },
            {
              "internalType": "uint32",
              "name": "minimumAmount",
              "type": "uint32"
            },
            {
              "internalType": "uint32",
              "name": "maximumAmount",
              "type": "uint32"
            },
            {
              "internalType": "bool",
              "name": "netOfTransfers",
              "type": "bool"
            },
            {
              "internalType": "address",
              "name": "feeCollector",
              "type": "address"
            }
          ],
          "indexed": false,
          "internalType": "struct IHederaTokenService.FractionalFee[]",
          "name": "fractionalFees",
          "type": "tuple[]"
        },
        {
          "components": [
            {
              "internalType": "uint32",
              "name": "numerator",
              "type": "uint32"
            },
            {
              "internalType": "uint32",
              "name": "denominator",
              "type": "uint32"
            },
            {
              "internalType": "uint32",
              "name": "amount",
              "type": "uint32"
            },
            {
              "internalType": "address",
              "name": "tokenId",
              "type": "address"
            },
            {
              "internalType": "bool",
              "name": "useHbarsForPayment",
              "type": "bool"
            },
            {
              "internalType": "address",
              "name": "feeCollector",
              "type": "address"
            }
          ],
          "indexed": false,
          "internalType": "struct IHederaTokenService.RoyaltyFee[]",
          "name": "royaltyFees",
          "type": "tuple[]"
        }
      ],
      "name": "TokenCustomFees",
      "type": "event"
    },
    {
      "anonymous": false,
      "inputs": [
        {
          "indexed": false,
          "internalType": "bool",
          "name": "defaultFreezeStatus",
          "type": "bool"
        }
      ],
      "name": "TokenDefaultFreezeStatus",
      "type": "event"
    },
    {
      "anonymous": false,
      "inputs": [
        {
          "indexed": false,
          "internalType": "bool",
          "name": "defaultKycStatus",
          "type": "bool"
        }
      ],
      "name": "TokenDefaultKycStatus",
      "type": "event"
    },
    {
      "anonymous": false,
      "inputs": [
        {
          "components": [
            {
              "internalType": "uint32",
              "name": "second",
              "type": "uint32"
            },
            {
              "internalType": "address",
              "name": "autoRenewAccount",
              "type": "address"
            },
            {
              "internalType": "uint32",
              "name": "autoRenewPeriod",
              "type": "uint32"
            }
          ],
          "indexed": false,
          "internalType": "struct IHederaTokenService.Expiry",
          "name": "expiryInfo",
          "type": "tuple"
        }
      ],
      "name": "TokenExpiryInfo",
      "type": "event"
    },
    {
      "anonymous": false,
      "inputs": [
        {
          "components": [
            {
              "components": [
                {
                  "internalType": "string",
                  "name": "name",
                  "type": "string"
                },
                {
                  "internalType": "string",
                  "name": "symbol",
                  "type": "string"
                },
                {
                  "internalType": "address",
                  "name": "treasury",
                  "type": "address"
                },
                {
                  "internalType": "string",
                  "name": "memo",
                  "type": "string"
                },
                {
                  "internalType": "bool",
                  "name": "tokenSupplyType",
                  "type": "bool"
                },
                {
                  "internalType": "int64",
                  "name": "maxSupply",
                  "type": "int64"
                },
                {
                  "internalType": "bool",
                  "name": "freezeDefault",
                  "type": "bool"
                },
                {
                  "components": [
                    {
                      "internalType": "uint256",
                      "name": "keyType",
                      "type": "uint256"
                    },
                    {
                      "components": [
                        {
                          "internalType": "bool",
                          "name": "inheritAccountKey",
                          "type": "bool"
                        },
                        {
                          "internalType": "address",
                          "name": "contractId",
                          "type": "address"
                        },
                        {
                          "internalType": "bytes",
                          "name": "ed25519",
                          "type": "bytes"
                        },
                        {
                          "internalType": "bytes",
                          "name": "ECDSA_secp256k1",
                          "type": "bytes"
                        },
                        {
                          "internalType": "address",
                          "name": "delegatableContractId",
                          "type": "address"
                        }
                      ],
                      "internalType": "struct IHederaTokenService.KeyValue",
                      "name": "key",
                      "type": "tuple"
                    }
                  ],
                  "internalType": "struct IHederaTokenService.TokenKey[]",
                  "name": "tokenKeys",
                  "type": "tuple[]"
                },
                {
                  "components": [
                    {
                      "internalType": "uint32",
                      "name": "second",
                      "type": "uint32"
                    },
                    {
                      "internalType": "address",
                      "name": "autoRenewAccount",
                      "type": "address"
                    },
                    {
                      "internalType": "uint32",
                      "name": "autoRenewPeriod",
                      "type": "uint32"
                    }
                  ],
                  "internalType": "struct IHederaTokenService.Expiry",
                  "name": "expiry",
                  "type": "tuple"
                }
              ],
              "internalType": "struct IHederaTokenService.HederaToken",
              "name": "token",
              "type": "tuple"
            },
            {
              "internalType": "uint64",
              "name": "totalSupply",
              "type": "uint64"
            },
            {
              "internalType": "bool",
              "name": "deleted",
              "type": "bool"
            },
            {
              "internalType": "bool",
              "name": "defaultKycStatus",
              "type": "bool"
            },
            {
              "internalType": "bool",
              "name": "pauseStatus",
              "type": "bool"
            },
            {
              "components": [
                {
                  "internalType": "uint32",
                  "name": "amount",
                  "type": "uint32"
                },
                {
                  "internalType": "address",
                  "name": "tokenId",
                  "type": "address"
                },
                {
                  "internalType": "bool",
                  "name": "useHbarsForPayment",
                  "type": "bool"
                },
                {
                  "internalType": "bool",
                  "name": "useCurrentTokenForPayment",
                  "type": "bool"
                },
                {
                  "internalType": "address",
                  "name": "feeCollector",
                  "type": "address"
                }
              ],
              "internalType": "struct IHederaTokenService.FixedFee[]",
              "name": "fixedFees",
              "type": "tuple[]"
            },
            {
              "components": [
                {
                  "internalType": "uint32",
                  "name": "numerator",
                  "type": "uint32"
                },
                {
                  "internalType": "uint32",
                  "name": "denominator",
                  "type": "uint32"
                },
                {
                  "internalType": "uint32",
                  "name": "minimumAmount",
                  "type": "uint32"
                },
                {
                  "internalType": "uint32",
                  "name": "maximumAmount",
                  "type": "uint32"
                },
                {
                  "internalType": "bool",
                  "name": "netOfTransfers",
                  "type": "bool"
                },
                {
                  "internalType": "address",
                  "name": "feeCollector",
                  "type": "address"
                }
              ],
              "internalType": "struct IHederaTokenService.FractionalFee[]",
              "name": "fractionalFees",
              "type": "tuple[]"
            },
            {
              "components": [
                {
                  "internalType": "uint32",
                  "name": "numerator",
                  "type": "uint32"
                },
                {
                  "internalType": "uint32",
                  "name": "denominator",
                  "type": "uint32"
                },
                {
                  "internalType": "uint32",
                  "name": "amount",
                  "type": "uint32"
                },
                {
                  "internalType": "address",
                  "name": "tokenId",
                  "type": "address"
                },
                {
                  "internalType": "bool",
                  "name": "useHbarsForPayment",
                  "type": "bool"
                },
                {
                  "internalType": "address",
                  "name": "feeCollector",
                  "type": "address"
                }
              ],
              "internalType": "struct IHederaTokenService.RoyaltyFee[]",
              "name": "royaltyFees",
              "type": "tuple[]"
            },
            {
              "internalType": "string",
              "name": "ledgerId",
              "type": "string"
            }
          ],
          "indexed": false,
          "internalType": "struct IHederaTokenService.TokenInfo",
          "name": "tokenInfo",
          "type": "tuple"
        }
      ],
      "name": "TokenInfo",
      "type": "event"
    },
    {
      "anonymous": false,
      "inputs": [
        {
          "components": [
            {
              "internalType": "bool",
              "name": "inheritAccountKey",
              "type": "bool"
            },
            {
              "internalType": "address",
              "name": "contractId",
              "type": "address"
            },
            {
              "internalType": "bytes",
              "name": "ed25519",
              "type": "bytes"
            },
            {
              "internalType": "bytes",
              "name": "ECDSA_secp256k1",
              "type": "bytes"
            },
            {
              "internalType": "address",
              "name": "delegatableContractId",
              "type": "address"
            }
          ],
          "indexed": false,
          "internalType": "struct IHederaTokenService.KeyValue",
          "name": "key",
          "type": "tuple"
        }
      ],
      "name": "TokenKey",
      "type": "event"
    },
    {
      "anonymous": false,
      "inputs": [
        {
          "indexed": false,
          "internalType": "int32",
          "name": "tokenType",
          "type": "int32"
        }
      ],
      "name": "TokenType",
      "type": "event"
    },
    {
      "anonymous": false,
      "inputs": [
        {
          "indexed": false,
          "internalType": "bool",
          "name": "unpaused",
          "type": "bool"
        }
      ],
      "name": "UnpausedToken",
      "type": "event"
    },
    {
      "inputs": [
        {
          "internalType": "address",
          "name": "token",
          "type": "address"
        },
        {
          "internalType": "address",
          "name": "owner",
          "type": "address"
        },
        {
          "internalType": "address",
          "name": "spender",
          "type": "address"
        }
      ],
      "name": "allowancePublic",
      "outputs": [
        {
          "internalType": "int256",
          "name": "responseCode",
          "type": "int256"
        },
        {
          "internalType": "uint256",
          "name": "amount",
          "type": "uint256"
        }
      ],
      "stateMutability": "nonpayable",
      "type": "function"
    },
    {
      "inputs": [
        {
          "internalType": "address",
          "name": "token",
          "type": "address"
        },
        {
          "internalType": "address",
          "name": "approved",
          "type": "address"
        },
        {
          "internalType": "uint256",
          "name": "serialNumber",
          "type": "uint256"
        }
      ],
      "name": "approveNFTPublic",
      "outputs": [
        {
          "internalType": "int256",
          "name": "responseCode",
          "type": "int256"
        }
      ],
      "stateMutability": "nonpayable",
      "type": "function"
    },
    {
      "inputs": [
        {
          "internalType": "address",
          "name": "token",
          "type": "address"
        },
        {
          "internalType": "address",
          "name": "spender",
          "type": "address"
        },
        {
          "internalType": "uint256",
          "name": "amount",
          "type": "uint256"
        }
      ],
      "name": "approvePublic",
      "outputs": [
        {
          "internalType": "int256",
          "name": "responseCode",
          "type": "int256"
        }
      ],
      "stateMutability": "nonpayable",
      "type": "function"
    },
    {
      "inputs": [
        {
          "internalType": "address",
          "name": "account",
          "type": "address"
        },
        {
          "internalType": "address",
          "name": "token",
          "type": "address"
        }
      ],
      "name": "associateTokenPublic",
      "outputs": [
        {
          "internalType": "int256",
          "name": "responseCode",
          "type": "int256"
        }
      ],
      "stateMutability": "nonpayable",
      "type": "function"
    },
    {
      "inputs": [
        {
          "internalType": "address",
          "name": "treasury",
          "type": "address"
        }
      ],
      "name": "createFungibleTokenPublic",
      "outputs": [],
      "stateMutability": "payable",
      "type": "function"
    },
    {
      "inputs": [
        {
          "internalType": "address",
          "name": "treasury",
          "type": "address"
        },
        {
          "internalType": "address",
          "name": "fixedFeeTokenAddress",
          "type": "address"
        }
      ],
      "name": "createFungibleTokenWithCustomFeesPublic",
      "outputs": [],
      "stateMutability": "payable",
      "type": "function"
    },
    {
      "inputs": [
        {
          "internalType": "address",
          "name": "treasury",
          "type": "address"
        }
      ],
      "name": "createNonFungibleTokenPublic",
      "outputs": [],
      "stateMutability": "payable",
      "type": "function"
    },
    {
      "inputs": [
        {
          "components": [
            {
              "internalType": "address",
              "name": "token",
              "type": "address"
            },
            {
              "components": [
                {
                  "internalType": "address",
                  "name": "accountID",
                  "type": "address"
                },
                {
                  "internalType": "int64",
                  "name": "amount",
                  "type": "int64"
                }
              ],
              "internalType": "struct IHederaTokenService.AccountAmount[]",
              "name": "transfers",
              "type": "tuple[]"
            },
            {
              "components": [
                {
                  "internalType": "address",
                  "name": "senderAccountID",
                  "type": "address"
                },
                {
                  "internalType": "address",
                  "name": "receiverAccountID",
                  "type": "address"
                },
                {
                  "internalType": "int64",
                  "name": "serialNumber",
                  "type": "int64"
                }
              ],
              "internalType": "struct IHederaTokenService.NftTransfer[]",
              "name": "nftTransfers",
              "type": "tuple[]"
            }
          ],
          "internalType": "struct IHederaTokenService.TokenTransferList[]",
          "name": "tokenTransferList",
          "type": "tuple[]"
        }
      ],
      "name": "cryptoTransferPublic",
      "outputs": [
        {
          "internalType": "int256",
          "name": "responseCode",
          "type": "int256"
        }
      ],
      "stateMutability": "nonpayable",
      "type": "function"
    },
    {
      "inputs": [
        {
          "internalType": "address",
          "name": "account",
          "type": "address"
        },
        {
          "internalType": "address",
          "name": "token",
          "type": "address"
        },
        {
          "internalType": "int64",
          "name": "amount",
          "type": "int64"
        }
      ],
      "name": "cryptoTransferTokenPublic",
      "outputs": [
        {
          "internalType": "int256",
          "name": "responseCode",
          "type": "int256"
        }
      ],
      "stateMutability": "nonpayable",
      "type": "function"
    },
    {
      "inputs": [
        {
          "internalType": "address",
          "name": "token",
          "type": "address"
        }
      ],
      "name": "deleteTokenPublic",
      "outputs": [
        {
          "internalType": "int256",
          "name": "responseCode",
          "type": "int256"
        }
      ],
      "stateMutability": "nonpayable",
      "type": "function"
    },
    {
      "inputs": [
        {
          "internalType": "address",
          "name": "token",
          "type": "address"
        },
        {
          "internalType": "address",
          "name": "account",
          "type": "address"
        }
      ],
      "name": "freezeTokenPublic",
      "outputs": [
        {
          "internalType": "int256",
          "name": "responseCode",
          "type": "int256"
        }
      ],
      "stateMutability": "nonpayable",
      "type": "function"
    },
    {
      "inputs": [
        {
          "internalType": "address",
          "name": "token",
          "type": "address"
        },
        {
          "internalType": "uint256",
          "name": "serialNumber",
          "type": "uint256"
        }
      ],
      "name": "getApprovedPublic",
      "outputs": [
        {
          "internalType": "int256",
          "name": "responseCode",
          "type": "int256"
        },
        {
          "internalType": "address",
          "name": "approved",
          "type": "address"
        }
      ],
      "stateMutability": "nonpayable",
      "type": "function"
    },
    {
      "inputs": [
        {
          "internalType": "address",
          "name": "token",
          "type": "address"
        }
      ],
      "name": "getFungibleTokenInfoPublic",
      "outputs": [
        {
          "internalType": "int256",
          "name": "responseCode",
          "type": "int256"
        },
        {
          "components": [
            {
              "components": [
                {
                  "components": [
                    {
                      "internalType": "string",
                      "name": "name",
                      "type": "string"
                    },
                    {
                      "internalType": "string",
                      "name": "symbol",
                      "type": "string"
                    },
                    {
                      "internalType": "address",
                      "name": "treasury",
                      "type": "address"
                    },
                    {
                      "internalType": "string",
                      "name": "memo",
                      "type": "string"
                    },
                    {
                      "internalType": "bool",
                      "name": "tokenSupplyType",
                      "type": "bool"
                    },
                    {
                      "internalType": "int64",
                      "name": "maxSupply",
                      "type": "int64"
                    },
                    {
                      "internalType": "bool",
                      "name": "freezeDefault",
                      "type": "bool"
                    },
                    {
                      "components": [
                        {
                          "internalType": "uint256",
                          "name": "keyType",
                          "type": "uint256"
                        },
                        {
                          "components": [
                            {
                              "internalType": "bool",
                              "name": "inheritAccountKey",
                              "type": "bool"
                            },
                            {
                              "internalType": "address",
                              "name": "contractId",
                              "type": "address"
                            },
                            {
                              "internalType": "bytes",
                              "name": "ed25519",
                              "type": "bytes"
                            },
                            {
                              "internalType": "bytes",
                              "name": "ECDSA_secp256k1",
                              "type": "bytes"
                            },
                            {
                              "internalType": "address",
                              "name": "delegatableContractId",
                              "type": "address"
                            }
                          ],
                          "internalType": "struct IHederaTokenService.KeyValue",
                          "name": "key",
                          "type": "tuple"
                        }
                      ],
                      "internalType": "struct IHederaTokenService.TokenKey[]",
                      "name": "tokenKeys",
                      "type": "tuple[]"
                    },
                    {
                      "components": [
                        {
                          "internalType": "uint32",
                          "name": "second",
                          "type": "uint32"
                        },
                        {
                          "internalType": "address",
                          "name": "autoRenewAccount",
                          "type": "address"
                        },
                        {
                          "internalType": "uint32",
                          "name": "autoRenewPeriod",
                          "type": "uint32"
                        }
                      ],
                      "internalType": "struct IHederaTokenService.Expiry",
                      "name": "expiry",
                      "type": "tuple"
                    }
                  ],
                  "internalType": "struct IHederaTokenService.HederaToken",
                  "name": "token",
                  "type": "tuple"
                },
                {
                  "internalType": "uint64",
                  "name": "totalSupply",
                  "type": "uint64"
                },
                {
                  "internalType": "bool",
                  "name": "deleted",
                  "type": "bool"
                },
                {
                  "internalType": "bool",
                  "name": "defaultKycStatus",
                  "type": "bool"
                },
                {
                  "internalType": "bool",
                  "name": "pauseStatus",
                  "type": "bool"
                },
                {
                  "components": [
                    {
                      "internalType": "uint32",
                      "name": "amount",
                      "type": "uint32"
                    },
                    {
                      "internalType": "address",
                      "name": "tokenId",
                      "type": "address"
                    },
                    {
                      "internalType": "bool",
                      "name": "useHbarsForPayment",
                      "type": "bool"
                    },
                    {
                      "internalType": "bool",
                      "name": "useCurrentTokenForPayment",
                      "type": "bool"
                    },
                    {
                      "internalType": "address",
                      "name": "feeCollector",
                      "type": "address"
                    }
                  ],
                  "internalType": "struct IHederaTokenService.FixedFee[]",
                  "name": "fixedFees",
                  "type": "tuple[]"
                },
                {
                  "components": [
                    {
                      "internalType": "uint32",
                      "name": "numerator",
                      "type": "uint32"
                    },
                    {
                      "internalType": "uint32",
                      "name": "denominator",
                      "type": "uint32"
                    },
                    {
                      "internalType": "uint32",
                      "name": "minimumAmount",
                      "type": "uint32"
                    },
                    {
                      "internalType": "uint32",
                      "name": "maximumAmount",
                      "type": "uint32"
                    },
                    {
                      "internalType": "bool",
                      "name": "netOfTransfers",
                      "type": "bool"
                    },
                    {
                      "internalType": "address",
                      "name": "feeCollector",
                      "type": "address"
                    }
                  ],
                  "internalType": "struct IHederaTokenService.FractionalFee[]",
                  "name": "fractionalFees",
                  "type": "tuple[]"
                },
                {
                  "components": [
                    {
                      "internalType": "uint32",
                      "name": "numerator",
                      "type": "uint32"
                    },
                    {
                      "internalType": "uint32",
                      "name": "denominator",
                      "type": "uint32"
                    },
                    {
                      "internalType": "uint32",
                      "name": "amount",
                      "type": "uint32"
                    },
                    {
                      "internalType": "address",
                      "name": "tokenId",
                      "type": "address"
                    },
                    {
                      "internalType": "bool",
                      "name": "useHbarsForPayment",
                      "type": "bool"
                    },
                    {
                      "internalType": "address",
                      "name": "feeCollector",
                      "type": "address"
                    }
                  ],
                  "internalType": "struct IHederaTokenService.RoyaltyFee[]",
                  "name": "royaltyFees",
                  "type": "tuple[]"
                },
                {
                  "internalType": "string",
                  "name": "ledgerId",
                  "type": "string"
                }
              ],
              "internalType": "struct IHederaTokenService.TokenInfo",
              "name": "tokenInfo",
              "type": "tuple"
            },
            {
              "internalType": "uint32",
              "name": "decimals",
              "type": "uint32"
            }
          ],
          "internalType": "struct IHederaTokenService.FungibleTokenInfo",
          "name": "tokenInfo",
          "type": "tuple"
        }
      ],
      "stateMutability": "nonpayable",
      "type": "function"
    },
    {
      "inputs": [
        {
          "internalType": "address",
          "name": "token",
          "type": "address"
        },
        {
          "internalType": "int64",
          "name": "serialNumber",
          "type": "int64"
        }
      ],
      "name": "getNonFungibleTokenInfoPublic",
      "outputs": [
        {
          "internalType": "int256",
          "name": "responseCode",
          "type": "int256"
        },
        {
          "components": [
            {
              "components": [
                {
                  "components": [
                    {
                      "internalType": "string",
                      "name": "name",
                      "type": "string"
                    },
                    {
                      "internalType": "string",
                      "name": "symbol",
                      "type": "string"
                    },
                    {
                      "internalType": "address",
                      "name": "treasury",
                      "type": "address"
                    },
                    {
                      "internalType": "string",
                      "name": "memo",
                      "type": "string"
                    },
                    {
                      "internalType": "bool",
                      "name": "tokenSupplyType",
                      "type": "bool"
                    },
                    {
                      "internalType": "int64",
                      "name": "maxSupply",
                      "type": "int64"
                    },
                    {
                      "internalType": "bool",
                      "name": "freezeDefault",
                      "type": "bool"
                    },
                    {
                      "components": [
                        {
                          "internalType": "uint256",
                          "name": "keyType",
                          "type": "uint256"
                        },
                        {
                          "components": [
                            {
                              "internalType": "bool",
                              "name": "inheritAccountKey",
                              "type": "bool"
                            },
                            {
                              "internalType": "address",
                              "name": "contractId",
                              "type": "address"
                            },
                            {
                              "internalType": "bytes",
                              "name": "ed25519",
                              "type": "bytes"
                            },
                            {
                              "internalType": "bytes",
                              "name": "ECDSA_secp256k1",
                              "type": "bytes"
                            },
                            {
                              "internalType": "address",
                              "name": "delegatableContractId",
                              "type": "address"
                            }
                          ],
                          "internalType": "struct IHederaTokenService.KeyValue",
                          "name": "key",
                          "type": "tuple"
                        }
                      ],
                      "internalType": "struct IHederaTokenService.TokenKey[]",
                      "name": "tokenKeys",
                      "type": "tuple[]"
                    },
                    {
                      "components": [
                        {
                          "internalType": "uint32",
                          "name": "second",
                          "type": "uint32"
                        },
                        {
                          "internalType": "address",
                          "name": "autoRenewAccount",
                          "type": "address"
                        },
                        {
                          "internalType": "uint32",
                          "name": "autoRenewPeriod",
                          "type": "uint32"
                        }
                      ],
                      "internalType": "struct IHederaTokenService.Expiry",
                      "name": "expiry",
                      "type": "tuple"
                    }
                  ],
                  "internalType": "struct IHederaTokenService.HederaToken",
                  "name": "token",
                  "type": "tuple"
                },
                {
                  "internalType": "uint64",
                  "name": "totalSupply",
                  "type": "uint64"
                },
                {
                  "internalType": "bool",
                  "name": "deleted",
                  "type": "bool"
                },
                {
                  "internalType": "bool",
                  "name": "defaultKycStatus",
                  "type": "bool"
                },
                {
                  "internalType": "bool",
                  "name": "pauseStatus",
                  "type": "bool"
                },
                {
                  "components": [
                    {
                      "internalType": "uint32",
                      "name": "amount",
                      "type": "uint32"
                    },
                    {
                      "internalType": "address",
                      "name": "tokenId",
                      "type": "address"
                    },
                    {
                      "internalType": "bool",
                      "name": "useHbarsForPayment",
                      "type": "bool"
                    },
                    {
                      "internalType": "bool",
                      "name": "useCurrentTokenForPayment",
                      "type": "bool"
                    },
                    {
                      "internalType": "address",
                      "name": "feeCollector",
                      "type": "address"
                    }
                  ],
                  "internalType": "struct IHederaTokenService.FixedFee[]",
                  "name": "fixedFees",
                  "type": "tuple[]"
                },
                {
                  "components": [
                    {
                      "internalType": "uint32",
                      "name": "numerator",
                      "type": "uint32"
                    },
                    {
                      "internalType": "uint32",
                      "name": "denominator",
                      "type": "uint32"
                    },
                    {
                      "internalType": "uint32",
                      "name": "minimumAmount",
                      "type": "uint32"
                    },
                    {
                      "internalType": "uint32",
                      "name": "maximumAmount",
                      "type": "uint32"
                    },
                    {
                      "internalType": "bool",
                      "name": "netOfTransfers",
                      "type": "bool"
                    },
                    {
                      "internalType": "address",
                      "name": "feeCollector",
                      "type": "address"
                    }
                  ],
                  "internalType": "struct IHederaTokenService.FractionalFee[]",
                  "name": "fractionalFees",
                  "type": "tuple[]"
                },
                {
                  "components": [
                    {
                      "internalType": "uint32",
                      "name": "numerator",
                      "type": "uint32"
                    },
                    {
                      "internalType": "uint32",
                      "name": "denominator",
                      "type": "uint32"
                    },
                    {
                      "internalType": "uint32",
                      "name": "amount",
                      "type": "uint32"
                    },
                    {
                      "internalType": "address",
                      "name": "tokenId",
                      "type": "address"
                    },
                    {
                      "internalType": "bool",
                      "name": "useHbarsForPayment",
                      "type": "bool"
                    },
                    {
                      "internalType": "address",
                      "name": "feeCollector",
                      "type": "address"
                    }
                  ],
                  "internalType": "struct IHederaTokenService.RoyaltyFee[]",
                  "name": "royaltyFees",
                  "type": "tuple[]"
                },
                {
                  "internalType": "string",
                  "name": "ledgerId",
                  "type": "string"
                }
              ],
              "internalType": "struct IHederaTokenService.TokenInfo",
              "name": "tokenInfo",
              "type": "tuple"
            },
            {
              "internalType": "int64",
              "name": "serialNumber",
              "type": "int64"
            },
            {
              "internalType": "address",
              "name": "ownerId",
              "type": "address"
            },
            {
              "internalType": "int64",
              "name": "creationTime",
              "type": "int64"
            },
            {
              "internalType": "bytes",
              "name": "metadata",
              "type": "bytes"
            },
            {
              "internalType": "address",
              "name": "spenderId",
              "type": "address"
            }
          ],
          "internalType": "struct IHederaTokenService.NonFungibleTokenInfo",
          "name": "tokenInfo",
          "type": "tuple"
        }
      ],
      "stateMutability": "nonpayable",
      "type": "function"
    },
    {
      "inputs": [
        {
          "internalType": "address",
          "name": "token",
          "type": "address"
        }
      ],
      "name": "getTokenCustomFeesPublic",
      "outputs": [
        {
          "internalType": "int64",
          "name": "responseCode",
          "type": "int64"
        },
        {
          "components": [
            {
              "internalType": "uint32",
              "name": "amount",
              "type": "uint32"
            },
            {
              "internalType": "address",
              "name": "tokenId",
              "type": "address"
            },
            {
              "internalType": "bool",
              "name": "useHbarsForPayment",
              "type": "bool"
            },
            {
              "internalType": "bool",
              "name": "useCurrentTokenForPayment",
              "type": "bool"
            },
            {
              "internalType": "address",
              "name": "feeCollector",
              "type": "address"
            }
          ],
          "internalType": "struct IHederaTokenService.FixedFee[]",
          "name": "fixedFees",
          "type": "tuple[]"
        },
        {
          "components": [
            {
              "internalType": "uint32",
              "name": "numerator",
              "type": "uint32"
            },
            {
              "internalType": "uint32",
              "name": "denominator",
              "type": "uint32"
            },
            {
              "internalType": "uint32",
              "name": "minimumAmount",
              "type": "uint32"
            },
            {
              "internalType": "uint32",
              "name": "maximumAmount",
              "type": "uint32"
            },
            {
              "internalType": "bool",
              "name": "netOfTransfers",
              "type": "bool"
            },
            {
              "internalType": "address",
              "name": "feeCollector",
              "type": "address"
            }
          ],
          "internalType": "struct IHederaTokenService.FractionalFee[]",
          "name": "fractionalFees",
          "type": "tuple[]"
        },
        {
          "components": [
            {
              "internalType": "uint32",
              "name": "numerator",
              "type": "uint32"
            },
            {
              "internalType": "uint32",
              "name": "denominator",
              "type": "uint32"
            },
            {
              "internalType": "uint32",
              "name": "amount",
              "type": "uint32"
            },
            {
              "internalType": "address",
              "name": "tokenId",
              "type": "address"
            },
            {
              "internalType": "bool",
              "name": "useHbarsForPayment",
              "type": "bool"
            },
            {
              "internalType": "address",
              "name": "feeCollector",
              "type": "address"
            }
          ],
          "internalType": "struct IHederaTokenService.RoyaltyFee[]",
          "name": "royaltyFees",
          "type": "tuple[]"
        }
      ],
      "stateMutability": "nonpayable",
      "type": "function"
    },
    {
      "inputs": [
        {
          "internalType": "address",
          "name": "token",
          "type": "address"
        }
      ],
      "name": "getTokenDefaultFreezeStatusPublic",
      "outputs": [
        {
          "internalType": "int256",
          "name": "responseCode",
          "type": "int256"
        },
        {
          "internalType": "bool",
          "name": "defaultFreezeStatus",
          "type": "bool"
        }
      ],
      "stateMutability": "nonpayable",
      "type": "function"
    },
    {
      "inputs": [
        {
          "internalType": "address",
          "name": "token",
          "type": "address"
        }
      ],
      "name": "getTokenDefaultKycStatusPublic",
      "outputs": [
        {
          "internalType": "int256",
          "name": "responseCode",
          "type": "int256"
        },
        {
          "internalType": "bool",
          "name": "defaultKycStatus",
          "type": "bool"
        }
      ],
      "stateMutability": "nonpayable",
      "type": "function"
    },
    {
      "inputs": [
        {
          "internalType": "address",
          "name": "token",
          "type": "address"
        }
      ],
      "name": "getTokenExpiryInfo",
      "outputs": [
        {
          "internalType": "int256",
          "name": "responseCode",
          "type": "int256"
        },
        {
          "components": [
            {
              "internalType": "uint32",
              "name": "second",
              "type": "uint32"
            },
            {
              "internalType": "address",
              "name": "autoRenewAccount",
              "type": "address"
            },
            {
              "internalType": "uint32",
              "name": "autoRenewPeriod",
              "type": "uint32"
            }
          ],
          "internalType": "struct IHederaTokenService.Expiry",
          "name": "expiryInfo",
          "type": "tuple"
        }
      ],
      "stateMutability": "nonpayable",
      "type": "function"
    },
    {
      "inputs": [
        {
          "internalType": "address",
          "name": "token",
          "type": "address"
        }
      ],
      "name": "getTokenExpiryInfoPublic",
      "outputs": [
        {
          "internalType": "int256",
          "name": "responseCode",
          "type": "int256"
        },
        {
          "components": [
            {
              "internalType": "uint32",
              "name": "second",
              "type": "uint32"
            },
            {
              "internalType": "address",
              "name": "autoRenewAccount",
              "type": "address"
            },
            {
              "internalType": "uint32",
              "name": "autoRenewPeriod",
              "type": "uint32"
            }
          ],
          "internalType": "struct IHederaTokenService.Expiry",
          "name": "expiryInfo",
          "type": "tuple"
        }
      ],
      "stateMutability": "nonpayable",
      "type": "function"
    },
    {
      "inputs": [
        {
          "internalType": "address",
          "name": "token",
          "type": "address"
        }
      ],
      "name": "getTokenInfoPublic",
      "outputs": [
        {
          "internalType": "int256",
          "name": "responseCode",
          "type": "int256"
        },
        {
          "components": [
            {
              "components": [
                {
                  "internalType": "string",
                  "name": "name",
                  "type": "string"
                },
                {
                  "internalType": "string",
                  "name": "symbol",
                  "type": "string"
                },
                {
                  "internalType": "address",
                  "name": "treasury",
                  "type": "address"
                },
                {
                  "internalType": "string",
                  "name": "memo",
                  "type": "string"
                },
                {
                  "internalType": "bool",
                  "name": "tokenSupplyType",
                  "type": "bool"
                },
                {
                  "internalType": "int64",
                  "name": "maxSupply",
                  "type": "int64"
                },
                {
                  "internalType": "bool",
                  "name": "freezeDefault",
                  "type": "bool"
                },
                {
                  "components": [
                    {
                      "internalType": "uint256",
                      "name": "keyType",
                      "type": "uint256"
                    },
                    {
                      "components": [
                        {
                          "internalType": "bool",
                          "name": "inheritAccountKey",
                          "type": "bool"
                        },
                        {
                          "internalType": "address",
                          "name": "contractId",
                          "type": "address"
                        },
                        {
                          "internalType": "bytes",
                          "name": "ed25519",
                          "type": "bytes"
                        },
                        {
                          "internalType": "bytes",
                          "name": "ECDSA_secp256k1",
                          "type": "bytes"
                        },
                        {
                          "internalType": "address",
                          "name": "delegatableContractId",
                          "type": "address"
                        }
                      ],
                      "internalType": "struct IHederaTokenService.KeyValue",
                      "name": "key",
                      "type": "tuple"
                    }
                  ],
                  "internalType": "struct IHederaTokenService.TokenKey[]",
                  "name": "tokenKeys",
                  "type": "tuple[]"
                },
                {
                  "components": [
                    {
                      "internalType": "uint32",
                      "name": "second",
                      "type": "uint32"
                    },
                    {
                      "internalType": "address",
                      "name": "autoRenewAccount",
                      "type": "address"
                    },
                    {
                      "internalType": "uint32",
                      "name": "autoRenewPeriod",
                      "type": "uint32"
                    }
                  ],
                  "internalType": "struct IHederaTokenService.Expiry",
                  "name": "expiry",
                  "type": "tuple"
                }
              ],
              "internalType": "struct IHederaTokenService.HederaToken",
              "name": "token",
              "type": "tuple"
            },
            {
              "internalType": "uint64",
              "name": "totalSupply",
              "type": "uint64"
            },
            {
              "internalType": "bool",
              "name": "deleted",
              "type": "bool"
            },
            {
              "internalType": "bool",
              "name": "defaultKycStatus",
              "type": "bool"
            },
            {
              "internalType": "bool",
              "name": "pauseStatus",
              "type": "bool"
            },
            {
              "components": [
                {
                  "internalType": "uint32",
                  "name": "amount",
                  "type": "uint32"
                },
                {
                  "internalType": "address",
                  "name": "tokenId",
                  "type": "address"
                },
                {
                  "internalType": "bool",
                  "name": "useHbarsForPayment",
                  "type": "bool"
                },
                {
                  "internalType": "bool",
                  "name": "useCurrentTokenForPayment",
                  "type": "bool"
                },
                {
                  "internalType": "address",
                  "name": "feeCollector",
                  "type": "address"
                }
              ],
              "internalType": "struct IHederaTokenService.FixedFee[]",
              "name": "fixedFees",
              "type": "tuple[]"
            },
            {
              "components": [
                {
                  "internalType": "uint32",
                  "name": "numerator",
                  "type": "uint32"
                },
                {
                  "internalType": "uint32",
                  "name": "denominator",
                  "type": "uint32"
                },
                {
                  "internalType": "uint32",
                  "name": "minimumAmount",
                  "type": "uint32"
                },
                {
                  "internalType": "uint32",
                  "name": "maximumAmount",
                  "type": "uint32"
                },
                {
                  "internalType": "bool",
                  "name": "netOfTransfers",
                  "type": "bool"
                },
                {
                  "internalType": "address",
                  "name": "feeCollector",
                  "type": "address"
                }
              ],
              "internalType": "struct IHederaTokenService.FractionalFee[]",
              "name": "fractionalFees",
              "type": "tuple[]"
            },
            {
              "components": [
                {
                  "internalType": "uint32",
                  "name": "numerator",
                  "type": "uint32"
                },
                {
                  "internalType": "uint32",
                  "name": "denominator",
                  "type": "uint32"
                },
                {
                  "internalType": "uint32",
                  "name": "amount",
                  "type": "uint32"
                },
                {
                  "internalType": "address",
                  "name": "tokenId",
                  "type": "address"
                },
                {
                  "internalType": "bool",
                  "name": "useHbarsForPayment",
                  "type": "bool"
                },
                {
                  "internalType": "address",
                  "name": "feeCollector",
                  "type": "address"
                }
              ],
              "internalType": "struct IHederaTokenService.RoyaltyFee[]",
              "name": "royaltyFees",
              "type": "tuple[]"
            },
            {
              "internalType": "string",
              "name": "ledgerId",
              "type": "string"
            }
          ],
          "internalType": "struct IHederaTokenService.TokenInfo",
          "name": "tokenInfo",
          "type": "tuple"
        }
      ],
      "stateMutability": "nonpayable",
      "type": "function"
    },
    {
      "inputs": [
        {
          "internalType": "address",
          "name": "token",
          "type": "address"
        },
        {
          "internalType": "uint256",
          "name": "keyType",
          "type": "uint256"
        }
      ],
      "name": "getTokenKeyPublic",
      "outputs": [
        {
          "internalType": "int64",
          "name": "responseCode",
          "type": "int64"
        },
        {
          "components": [
            {
              "internalType": "bool",
              "name": "inheritAccountKey",
              "type": "bool"
            },
            {
              "internalType": "address",
              "name": "contractId",
              "type": "address"
            },
            {
              "internalType": "bytes",
              "name": "ed25519",
              "type": "bytes"
            },
            {
              "internalType": "bytes",
              "name": "ECDSA_secp256k1",
              "type": "bytes"
            },
            {
              "internalType": "address",
              "name": "delegatableContractId",
              "type": "address"
            }
          ],
          "internalType": "struct IHederaTokenService.KeyValue",
          "name": "key",
          "type": "tuple"
        }
      ],
      "stateMutability": "nonpayable",
      "type": "function"
    },
    {
      "inputs": [
        {
          "internalType": "address",
          "name": "token",
          "type": "address"
        }
      ],
      "name": "getTokenTypePublic",
      "outputs": [
        {
          "internalType": "int64",
          "name": "responseCode",
          "type": "int64"
        },
        {
          "internalType": "int32",
          "name": "tokenType",
          "type": "int32"
        }
      ],
      "stateMutability": "nonpayable",
      "type": "function"
    },
    {
      "inputs": [
        {
          "internalType": "address",
          "name": "token",
          "type": "address"
        },
        {
          "internalType": "address",
          "name": "account",
          "type": "address"
        }
      ],
      "name": "grantTokenKyc",
      "outputs": [
        {
          "internalType": "int64",
          "name": "responseCode",
          "type": "int64"
        }
      ],
      "stateMutability": "nonpayable",
      "type": "function"
    },
    {
      "inputs": [
        {
          "internalType": "address",
          "name": "token",
          "type": "address"
        },
        {
          "internalType": "address",
          "name": "account",
          "type": "address"
        }
      ],
      "name": "grantTokenKycPublic",
      "outputs": [
        {
          "internalType": "int64",
          "name": "responseCode",
          "type": "int64"
        }
      ],
      "stateMutability": "nonpayable",
      "type": "function"
    },
    {
      "inputs": [
        {
          "internalType": "address",
          "name": "token",
          "type": "address"
        },
        {
          "internalType": "address",
          "name": "owner",
          "type": "address"
        },
        {
          "internalType": "address",
          "name": "operator",
          "type": "address"
        }
      ],
      "name": "isApprovedForAllPublic",
      "outputs": [
        {
          "internalType": "int256",
          "name": "responseCode",
          "type": "int256"
        },
        {
          "internalType": "bool",
          "name": "approved",
          "type": "bool"
        }
      ],
      "stateMutability": "nonpayable",
      "type": "function"
    },
    {
      "inputs": [
        {
          "internalType": "address",
          "name": "token",
          "type": "address"
        },
        {
          "internalType": "address",
          "name": "account",
          "type": "address"
        }
      ],
      "name": "isFrozenPublic",
      "outputs": [
        {
          "internalType": "int256",
          "name": "responseCode",
          "type": "int256"
        },
        {
          "internalType": "bool",
          "name": "frozen",
          "type": "bool"
        }
      ],
      "stateMutability": "nonpayable",
      "type": "function"
    },
    {
      "inputs": [
        {
          "internalType": "address",
          "name": "token",
          "type": "address"
        },
        {
          "internalType": "address",
          "name": "account",
          "type": "address"
        }
      ],
      "name": "isKyc",
      "outputs": [
        {
          "internalType": "int64",
          "name": "responseCode",
          "type": "int64"
        },
        {
          "internalType": "bool",
          "name": "kycGranted",
          "type": "bool"
        }
      ],
      "stateMutability": "nonpayable",
      "type": "function"
    },
    {
      "inputs": [
        {
          "internalType": "address",
          "name": "token",
          "type": "address"
        },
        {
          "internalType": "address",
          "name": "account",
          "type": "address"
        }
      ],
      "name": "isKycPublic",
      "outputs": [
        {
          "internalType": "int64",
          "name": "responseCode",
          "type": "int64"
        },
        {
          "internalType": "bool",
          "name": "kycGranted",
          "type": "bool"
        }
      ],
      "stateMutability": "nonpayable",
      "type": "function"
    },
    {
      "inputs": [
        {
          "internalType": "address",
          "name": "token",
          "type": "address"
        }
      ],
      "name": "isTokenPublic",
      "outputs": [
        {
          "internalType": "int64",
          "name": "responseCode",
          "type": "int64"
        },
        {
          "internalType": "bool",
          "name": "isTokenFlag",
          "type": "bool"
        }
      ],
      "stateMutability": "nonpayable",
      "type": "function"
    },
    {
      "inputs": [
        {
          "internalType": "address",
          "name": "token",
          "type": "address"
        },
        {
          "internalType": "uint64",
          "name": "amount",
          "type": "uint64"
        },
        {
          "internalType": "bytes[]",
          "name": "metadata",
          "type": "bytes[]"
        }
      ],
      "name": "mintTokenPublic",
      "outputs": [
        {
          "internalType": "int256",
          "name": "responseCode",
          "type": "int256"
        },
        {
          "internalType": "uint64",
          "name": "newTotalSupply",
          "type": "uint64"
        },
        {
          "internalType": "int64[]",
          "name": "serialNumbers",
          "type": "int64[]"
        }
      ],
      "stateMutability": "nonpayable",
      "type": "function"
    },
    {
      "inputs": [
        {
          "internalType": "address",
          "name": "token",
          "type": "address"
        }
      ],
      "name": "pauseToken",
      "outputs": [
        {
          "internalType": "int256",
          "name": "responseCode",
          "type": "int256"
        }
      ],
      "stateMutability": "nonpayable",
      "type": "function"
    },
    {
      "inputs": [
        {
          "internalType": "address",
          "name": "token",
          "type": "address"
        }
      ],
      "name": "pauseTokenPublic",
      "outputs": [
        {
          "internalType": "int256",
          "name": "responseCode",
          "type": "int256"
        }
      ],
      "stateMutability": "nonpayable",
      "type": "function"
    },
    {
      "inputs": [
        {
          "internalType": "address",
          "name": "token",
          "type": "address"
        },
        {
          "internalType": "address",
          "name": "account",
          "type": "address"
        }
      ],
      "name": "revokeTokenKyc",
      "outputs": [
        {
          "internalType": "int64",
          "name": "responseCode",
          "type": "int64"
        }
      ],
      "stateMutability": "nonpayable",
      "type": "function"
    },
    {
      "inputs": [
        {
          "internalType": "address",
          "name": "token",
          "type": "address"
        },
        {
          "internalType": "address",
          "name": "account",
          "type": "address"
        }
      ],
      "name": "revokeTokenKycPublic",
      "outputs": [
        {
          "internalType": "int64",
          "name": "responseCode",
          "type": "int64"
        }
      ],
      "stateMutability": "nonpayable",
      "type": "function"
    },
    {
      "inputs": [
        {
          "internalType": "address",
          "name": "token",
          "type": "address"
        },
        {
          "internalType": "address",
          "name": "operator",
          "type": "address"
        },
        {
          "internalType": "bool",
          "name": "approved",
          "type": "bool"
        }
      ],
      "name": "setApprovalForAllPublic",
      "outputs": [
        {
          "internalType": "int256",
          "name": "responseCode",
          "type": "int256"
        }
      ],
      "stateMutability": "nonpayable",
      "type": "function"
    },
    {
      "inputs": [
        {
          "internalType": "bool",
          "name": "newFreezeStatus",
          "type": "bool"
        }
      ],
      "name": "setFreezeDefaultStatus",
      "outputs": [],
      "stateMutability": "nonpayable",
      "type": "function"
    },
    {
      "inputs": [
        {
          "internalType": "address",
          "name": "token",
          "type": "address"
        },
        {
          "internalType": "address",
          "name": "sender",
          "type": "address"
        },
        {
          "internalType": "address",
          "name": "receiver",
          "type": "address"
        },
        {
          "internalType": "int64",
          "name": "serialNumber",
          "type": "int64"
        }
      ],
      "name": "transferNFTPublic",
      "outputs": [
        {
          "internalType": "int256",
          "name": "responseCode",
          "type": "int256"
        }
      ],
      "stateMutability": "nonpayable",
      "type": "function"
    },
    {
      "inputs": [
        {
          "internalType": "address",
          "name": "token",
          "type": "address"
        },
        {
          "internalType": "address",
          "name": "sender",
          "type": "address"
        },
        {
          "internalType": "address",
          "name": "receiver",
          "type": "address"
        },
        {
          "internalType": "int64",
          "name": "amount",
          "type": "int64"
        }
      ],
      "name": "transferTokenPublic",
      "outputs": [
        {
          "internalType": "int256",
          "name": "responseCode",
          "type": "int256"
        }
      ],
      "stateMutability": "nonpayable",
      "type": "function"
    },
    {
      "inputs": [
        {
          "internalType": "address",
          "name": "token",
          "type": "address"
        },
        {
          "internalType": "address",
          "name": "account",
          "type": "address"
        }
      ],
      "name": "unfreezeTokenPublic",
      "outputs": [
        {
          "internalType": "int256",
          "name": "responseCode",
          "type": "int256"
        }
      ],
      "stateMutability": "nonpayable",
      "type": "function"
    },
    {
      "inputs": [
        {
          "internalType": "address",
          "name": "token",
          "type": "address"
        }
      ],
      "name": "unpauseToken",
      "outputs": [
        {
          "internalType": "int256",
          "name": "responseCode",
          "type": "int256"
        }
      ],
      "stateMutability": "nonpayable",
      "type": "function"
    },
    {
      "inputs": [
        {
          "internalType": "address",
          "name": "token",
          "type": "address"
        }
      ],
      "name": "unpauseTokenPublic",
      "outputs": [
        {
          "internalType": "int256",
          "name": "responseCode",
          "type": "int256"
        }
      ],
      "stateMutability": "nonpayable",
      "type": "function"
    },
    {
      "inputs": [
        {
          "internalType": "address",
          "name": "token",
          "type": "address"
        },
        {
          "components": [
            {
              "internalType": "uint32",
              "name": "second",
              "type": "uint32"
            },
            {
              "internalType": "address",
              "name": "autoRenewAccount",
              "type": "address"
            },
            {
              "internalType": "uint32",
              "name": "autoRenewPeriod",
              "type": "uint32"
            }
          ],
          "internalType": "struct IHederaTokenService.Expiry",
          "name": "expiryInfo",
          "type": "tuple"
        }
      ],
      "name": "updateTokenExpiryInfo",
      "outputs": [
        {
          "internalType": "int256",
          "name": "responseCode",
          "type": "int256"
        }
      ],
      "stateMutability": "nonpayable",
      "type": "function"
    },
    {
      "inputs": [
        {
          "internalType": "address",
          "name": "token",
          "type": "address"
        },
        {
          "components": [
            {
              "internalType": "uint32",
              "name": "second",
              "type": "uint32"
            },
            {
              "internalType": "address",
              "name": "autoRenewAccount",
              "type": "address"
            },
            {
              "internalType": "uint32",
              "name": "autoRenewPeriod",
              "type": "uint32"
            }
          ],
          "internalType": "struct IHederaTokenService.Expiry",
          "name": "expiryInfo",
          "type": "tuple"
        }
      ],
      "name": "updateTokenExpiryInfoPublic",
      "outputs": [
        {
          "internalType": "int256",
          "name": "responseCode",
          "type": "int256"
        }
      ],
      "stateMutability": "nonpayable",
      "type": "function"
    },
    {
      "inputs": [
        {
          "internalType": "address",
          "name": "token",
          "type": "address"
        },
        {
          "components": [
            {
              "internalType": "string",
              "name": "name",
              "type": "string"
            },
            {
              "internalType": "string",
              "name": "symbol",
              "type": "string"
            },
            {
              "internalType": "address",
              "name": "treasury",
              "type": "address"
            },
            {
              "internalType": "string",
              "name": "memo",
              "type": "string"
            },
            {
              "internalType": "bool",
              "name": "tokenSupplyType",
              "type": "bool"
            },
            {
              "internalType": "int64",
              "name": "maxSupply",
              "type": "int64"
            },
            {
              "internalType": "bool",
              "name": "freezeDefault",
              "type": "bool"
            },
            {
              "components": [
                {
                  "internalType": "uint256",
                  "name": "keyType",
                  "type": "uint256"
                },
                {
                  "components": [
                    {
                      "internalType": "bool",
                      "name": "inheritAccountKey",
                      "type": "bool"
                    },
                    {
                      "internalType": "address",
                      "name": "contractId",
                      "type": "address"
                    },
                    {
                      "internalType": "bytes",
                      "name": "ed25519",
                      "type": "bytes"
                    },
                    {
                      "internalType": "bytes",
                      "name": "ECDSA_secp256k1",
                      "type": "bytes"
                    },
                    {
                      "internalType": "address",
                      "name": "delegatableContractId",
                      "type": "address"
                    }
                  ],
                  "internalType": "struct IHederaTokenService.KeyValue",
                  "name": "key",
                  "type": "tuple"
                }
              ],
              "internalType": "struct IHederaTokenService.TokenKey[]",
              "name": "tokenKeys",
              "type": "tuple[]"
            },
            {
              "components": [
                {
                  "internalType": "uint32",
                  "name": "second",
                  "type": "uint32"
                },
                {
                  "internalType": "address",
                  "name": "autoRenewAccount",
                  "type": "address"
                },
                {
                  "internalType": "uint32",
                  "name": "autoRenewPeriod",
                  "type": "uint32"
                }
              ],
              "internalType": "struct IHederaTokenService.Expiry",
              "name": "expiry",
              "type": "tuple"
            }
          ],
          "internalType": "struct IHederaTokenService.HederaToken",
          "name": "tokenInfo",
          "type": "tuple"
        }
      ],
      "name": "updateTokenInfo",
      "outputs": [
        {
          "internalType": "int256",
          "name": "responseCode",
          "type": "int256"
        }
      ],
      "stateMutability": "nonpayable",
      "type": "function"
    },
    {
      "inputs": [
        {
          "internalType": "address",
          "name": "token",
          "type": "address"
        },
        {
          "components": [
            {
              "internalType": "string",
              "name": "name",
              "type": "string"
            },
            {
              "internalType": "string",
              "name": "symbol",
              "type": "string"
            },
            {
              "internalType": "address",
              "name": "treasury",
              "type": "address"
            },
            {
              "internalType": "string",
              "name": "memo",
              "type": "string"
            },
            {
              "internalType": "bool",
              "name": "tokenSupplyType",
              "type": "bool"
            },
            {
              "internalType": "int64",
              "name": "maxSupply",
              "type": "int64"
            },
            {
              "internalType": "bool",
              "name": "freezeDefault",
              "type": "bool"
            },
            {
              "components": [
                {
                  "internalType": "uint256",
                  "name": "keyType",
                  "type": "uint256"
                },
                {
                  "components": [
                    {
                      "internalType": "bool",
                      "name": "inheritAccountKey",
                      "type": "bool"
                    },
                    {
                      "internalType": "address",
                      "name": "contractId",
                      "type": "address"
                    },
                    {
                      "internalType": "bytes",
                      "name": "ed25519",
                      "type": "bytes"
                    },
                    {
                      "internalType": "bytes",
                      "name": "ECDSA_secp256k1",
                      "type": "bytes"
                    },
                    {
                      "internalType": "address",
                      "name": "delegatableContractId",
                      "type": "address"
                    }
                  ],
                  "internalType": "struct IHederaTokenService.KeyValue",
                  "name": "key",
                  "type": "tuple"
                }
              ],
              "internalType": "struct IHederaTokenService.TokenKey[]",
              "name": "tokenKeys",
              "type": "tuple[]"
            },
            {
              "components": [
                {
                  "internalType": "uint32",
                  "name": "second",
                  "type": "uint32"
                },
                {
                  "internalType": "address",
                  "name": "autoRenewAccount",
                  "type": "address"
                },
                {
                  "internalType": "uint32",
                  "name": "autoRenewPeriod",
                  "type": "uint32"
                }
              ],
              "internalType": "struct IHederaTokenService.Expiry",
              "name": "expiry",
              "type": "tuple"
            }
          ],
          "internalType": "struct IHederaTokenService.HederaToken",
          "name": "tokenInfo",
          "type": "tuple"
        }
      ],
      "name": "updateTokenInfoPublic",
      "outputs": [
        {
          "internalType": "int256",
          "name": "responseCode",
          "type": "int256"
        }
      ],
      "stateMutability": "nonpayable",
      "type": "function"
    },
    {
      "inputs": [
        {
          "internalType": "address",
          "name": "token",
          "type": "address"
        },
        {
          "components": [
            {
              "internalType": "uint256",
              "name": "keyType",
              "type": "uint256"
            },
            {
              "components": [
                {
                  "internalType": "bool",
                  "name": "inheritAccountKey",
                  "type": "bool"
                },
                {
                  "internalType": "address",
                  "name": "contractId",
                  "type": "address"
                },
                {
                  "internalType": "bytes",
                  "name": "ed25519",
                  "type": "bytes"
                },
                {
                  "internalType": "bytes",
                  "name": "ECDSA_secp256k1",
                  "type": "bytes"
                },
                {
                  "internalType": "address",
                  "name": "delegatableContractId",
                  "type": "address"
                }
              ],
              "internalType": "struct IHederaTokenService.KeyValue",
              "name": "key",
              "type": "tuple"
            }
          ],
          "internalType": "struct IHederaTokenService.TokenKey[]",
          "name": "keys",
          "type": "tuple[]"
        }
      ],
      "name": "updateTokenKeysPublic",
      "outputs": [
        {
          "internalType": "int64",
          "name": "responseCode",
          "type": "int64"
        }
      ],
      "stateMutability": "nonpayable",
      "type": "function"
    },
    {
      "inputs": [
        {
          "internalType": "address",
          "name": "token",
          "type": "address"
        },
        {
          "internalType": "address",
          "name": "account",
          "type": "address"
        },
        {
          "internalType": "int64[]",
          "name": "serialNumbers",
          "type": "int64[]"
        }
      ],
      "name": "wipeTokenAccountNFTPublic",
      "outputs": [
        {
          "internalType": "int256",
          "name": "responseCode",
          "type": "int256"
        }
      ],
      "stateMutability": "nonpayable",
      "type": "function"
    },
    {
      "inputs": [
        {
          "internalType": "address",
          "name": "token",
          "type": "address"
        },
        {
          "internalType": "address",
          "name": "account",
          "type": "address"
        },
        {
          "internalType": "uint32",
          "name": "amount",
          "type": "uint32"
        }
      ],
      "name": "wipeTokenAccountPublic",
      "outputs": [
        {
          "internalType": "int256",
          "name": "responseCode",
          "type": "int256"
        }
      ],
      "stateMutability": "nonpayable",
      "type": "function"
    }
  ],
  "bytecode": "0x60c06040526009608081905268746f6b656e4e616d6560b81b60a09081526200002c9160019190620000c7565b5060408051808201909152600b8082526a1d1bdad95b94de5b589bdb60aa1b60209092019182526200006191600291620000c7565b50604080518082019091526004808252636d656d6f60e01b60209092019182526200008f91600391620000c7565b50600480546001600160a81b031916700800000000000003e800000000000003e8179055348015620000c057600080fd5b50620001aa565b828054620000d5906200016d565b90600052602060002090601f016020900481019282620000f9576000855562000144565b82601f106200011457805160ff191683800117855562000144565b8280016001018555821562000144579182015b828111156200014457825182559160200191906001019062000127565b506200015292915062000156565b5090565b5b8082111562000152576000815560010162000157565b600181811c908216806200018257607f821691505b60208210811415620001a457634e487b7160e01b600052602260045260246000fd5b50919050565b6161d480620001ba6000396000f3fe6080604052600436106102935760003560e01c80637d3e5da81161015a578063d85f74c1116100c1578063f2f38a741161007a578063f2f38a74146108ae578063f4a01e5b146108dc578063f7be3425146108fc578063f848fec41461091c578063f9e978bd1461093c578063fdc8321e1461095c57600080fd5b8063d85f74c1146107fb578063d92ac2481461080e578063df6c06f51461082e578063eee55ac81461084e578063f25b12001461086e578063f2c31ff41461088e57600080fd5b80639604ca65116101135780639604ca651461072d578063a345f7bd1461074d578063a3ad5b551461076d578063af99c6331461078d578063c0b19b6d146107ad578063d614cdb8146107db57600080fd5b80637d3e5da8146106515780638070905f1461067157806386f88d88146106a05780638ba74da0146106c05780638c99ef5d146106d35780638f8d7f991461070d57600080fd5b80634ba67035116101fe5780635b9076b7116101b75780635b9076b7146105565780635d2c5bad1461058657806369837dc2146105c35780636a4dde21146105f15780636da6b1f0146106115780637c41ad2c1461063157600080fd5b80634ba67035146104735780634cbdb37b146104935780634d8f27c9146104c157806356af8403146104e1578063593d6e82146105015780635a5e6c311461052157600080fd5b80632d73bb2e116102505780632d73bb2e146103be5780632eecbca3146103de5780632f13d66b146103fe5780633b3bff0f1461041e5780633eed2c391461043e5780634b5c66871461045e57600080fd5b80630fd2601e1461029857806313c05dd8146102d057806318370d34146103055780631955de0b1461033357806319db44b6146103615780632b256ec81461039e575b600080fd5b3480156102a457600080fd5b506102b86102b3366004614908565b61097c565b60405160079190910b81526020015b60405180910390f35b3480156102dc57600080fd5b506102f06102eb366004614940565b610a35565b604080519283529015156020830152016102c7565b34801561031157600080fd5b50610325610320366004614c53565b610ab3565b6040519081526020016102c7565b34801561033f57600080fd5b5061035361034e366004614d93565b610b90565b6040516102c7929190615c9d565b34801561036d57600080fd5b5061038161037c366004614d93565b610c1d565b604080519283526001600160a01b039091166020830152016102c7565b3480156103aa57600080fd5b506103256103b93660046148ec565b610c96565b3480156103ca57600080fd5b506103256103d9366004614908565b610d82565b3480156103ea57600080fd5b506102b86103f9366004614908565b610dc7565b34801561040a57600080fd5b50610325610419366004614c53565b610def565b34801561042a57600080fd5b506103256104393660046148ec565b610e8a565b34801561044a57600080fd5b506102f06104593660046148ec565b610f64565b61047161046c3660046148ec565b610fde565b005b34801561047f57600080fd5b5061032561048e36600461498a565b6113f5565b34801561049f57600080fd5b506104b36104ae366004614bf1565b611441565b6040516102c7929190615bf6565b3480156104cd57600080fd5b506102b86104dc366004614ba4565b6114b7565b3480156104ed57600080fd5b506103256104fc3660046149e5565b6114c3565b34801561050d57600080fd5b5061032561051c366004614c1e565b61150d565b34801561052d57600080fd5b5061054161053c366004614940565b611539565b604080519283526020830191909152016102c7565b34801561056257600080fd5b506105766105713660046148ec565b6115aa565b6040516102c79493929190615c50565b34801561059257600080fd5b506105a66105a13660046148ec565b61163c565b6040805160079390930b835260039190910b6020830152016102c7565b3480156105cf57600080fd5b506105e36105de3660046148ec565b6116b7565b6040516102c7929190615bdd565b3480156105fd57600080fd5b506102f061060c366004614908565b61172c565b34801561061d57600080fd5b5061032561062c36600461498a565b6117a3565b34801561063d57600080fd5b5061032561064c3660046148ec565b6117b1565b34801561065d57600080fd5b5061032561066c366004614908565b6117df565b34801561067d57600080fd5b5061069161068c366004614dbe565b6117eb565b6040516102c793929190615c28565b3480156106ac57600080fd5b506102f06106bb3660046148ec565b611873565b6104716106ce366004614908565b6118e4565b3480156106df57600080fd5b506106f36106ee3660046148ec565b611dc1565b6040805160079390930b83529015156020830152016102c7565b34801561071957600080fd5b506102b8610728366004614908565b611e3a565b34801561073957600080fd5b50610325610748366004614e94565b611e66565b34801561075957600080fd5b506103256107683660046148ec565b611e7a565b34801561077957600080fd5b506106f3610788366004614908565b611ec0565b34801561079957600080fd5b506102b86107a8366004614908565b611fa8565b3480156107b957600080fd5b506107cd6107c83660046148ec565b611fd4565b6040516102c7929190615bc9565b3480156107e757600080fd5b506107cd6107f63660046148ec565b6120cb565b6104716108093660046148ec565b6121da565b34801561081a57600080fd5b50610325610829366004614b65565b6125c4565b34801561083a57600080fd5b50610325610849366004614b25565b6125d1565b34801561085a57600080fd5b50610325610869366004614c1e565b6125de565b34801561087a57600080fd5b50610325610889366004614aa7565b612606565b34801561089a57600080fd5b506106f36108a9366004614908565b612613565b3480156108ba57600080fd5b506108ce6108c93660046148ec565b6126e7565b6040516102c7929190615c0f565b3480156108e857600080fd5b506103256108f7366004614908565b61275c565b34801561090857600080fd5b506103256109173660046148ec565b612768565b34801561092857600080fd5b50610325610937366004614b25565b61284b565b34801561094857600080fd5b50610471610957366004614f03565b612858565b34801561096857600080fd5b50610325610977366004614ae6565b6128b3565b604051638f8d7f9960e01b81526000903090638f8d7f99906109a49086908690600401615988565b602060405180830381600087803b1580156109be57600080fd5b505af11580156109d2573d6000803e3d6000fd5b505050506040513d601f19601f820116820180604052508101906109f69190615398565b604051600782900b815290915060008051602061617f8339815191529060200160405180910390a1600781900b601614610a2f57600080fd5b92915050565b600080610a43858585612ab4565b604051828152919350915060008051602061617f8339815191529060200160405180910390a160168214610a7657600080fd5b60405181151581527e1c2e72360171244b3bb8cc8ddd767820edf37138ad6f129fb3574b407c307d906020015b60405180910390a1935093915050565b60008060006101676001600160a01b03166318370d3460e01b8686604051602401610adf929190615a18565b60408051601f198184030181529181526020820180516001600160e01b03166001600160e01b0319909416939093179092529051610b1d919061596c565b6000604051808303816000865af19150503d8060008114610b5a576040519150601f19603f3d011682016040523d82523d6000602084013e610b5f565b606091505b509150915081610b70576015610b84565b80806020019051810190610b849190614f5a565b60030b95945050505050565b6000610b9a613db2565b610ba48484612b9a565b604051600783900b8152919350915060008051602061617f8339815191529060200160405180910390a1600782900b601614610bdf57600080fd5b7faed084fbdf29b6ba2242463299d7270f64e0f8ced16013cfff249856bd88715781604051610c0e9190615d85565b60405180910390a19250929050565b600080610c2a8484612c6e565b604051828152919350915060008051602061617f8339815191529060200160405180910390a160168214610c5d57600080fd5b6040516001600160a01b03821681527fc2c78c7c31baf14949e75c51df12be56edb9af523cf82839c2869bbcf13b3ecb90602001610c0e565b604051631f106b4b60e21b81526001600160a01b03821660048201526000903090637c41ad2c90602401602060405180830381600087803b158015610cda57600080fd5b505af1158015610cee573d6000803e3d6000fd5b505050506040513d601f19601f82011682018060405250810190610d129190614f1f565b905060008051602061617f83398151915281604051610d3391815260200190565b60405180910390a160168114610d4857600080fd5b604051600181527f0c9c765845f4d139956bb8fc8decb2eec6093c9c608b809641b16054b29f0e13906020015b60405180910390a1919050565b6000610d8e8383612d35565b60070b905060008051602061617f83398151915281604051610db291815260200190565b60405180910390a160168114610a2f57600080fd5b60405163af99c63360e01b8152600090309063af99c633906109a49086908690600401615988565b60405163060dc34d60e21b815260009030906318370d3490610e179086908690600401615a18565b602060405180830381600087803b158015610e3157600080fd5b505af1158015610e45573d6000803e3d6000fd5b505050506040513d601f19601f82011682018060405250810190610e699190614f1f565b905060008051602061617f83398151915281604051610db291815260200190565b6040516001600160a01b03821660248201526000908190819061016790633b3bff0f60e01b906044015b60408051601f198184030181529181526020820180516001600160e01b03166001600160e01b0319909416939093179092529051610ef2919061596c565b6000604051808303816000865af19150503d8060008114610f2f576040519150601f19603f3d011682016040523d82523d6000602084013e610f34565b606091505b509150915081610f45576015610f59565b80806020019051810190610f599190614f5a565b60030b949350505050565b600080610f7083612d61565b604051828152919350915060008051602061617f8339815191529060200160405180910390a160168214610fa357600080fd5b60405181151581527f6b7f3306751292f85ab4161ee2b0ac16dfc8ded13e6446ce6bd859d0a2f4c78e906020015b60405180910390a1915091565b60408051600480825260a08201909252600091816020015b610ffe613df5565b815260200190600190039081610ff657905050905061103160006006600160405180602001604052806000815250612e45565b8160008151811061105257634e487b7160e01b600052603260045260246000fd5b602002602001018190525061107860018060405180602001604052806000815250612e7c565b8160018151811061109957634e487b7160e01b600052603260045260246000fd5b60200260200101819052506110c06002600160405180602001604052806000815250612e7c565b816002815181106110e157634e487b7160e01b600052603260045260246000fd5b60200260200101819052506111086003600160405180602001604052806000815250612e7c565b8160038151811061112957634e487b7160e01b600052603260045260246000fd5b602002602001018190525060006040518060600160405280600063ffffffff168152602001846001600160a01b03168152602001627a120063ffffffff1681525090506000604051806101200160405280600180546111879061609f565b80601f01602080910402602001604051908101604052809291908181526020018280546111b39061609f565b80156112005780601f106111d557610100808354040283529160200191611200565b820191906000526020600020905b8154815290600101906020018083116111e357829003601f168201915b50505050508152602001600280546112179061609f565b80601f01602080910402602001604051908101604052809291908181526020018280546112439061609f565b80156112905780601f1061126557610100808354040283529160200191611290565b820191906000526020600020905b81548152906001019060200180831161127357829003601f168201915b50505050508152602001856001600160a01b03168152602001600380546112b69061609f565b80601f01602080910402602001604051908101604052809291908181526020018280546112e29061609f565b801561132f5780601f106113045761010080835404028352916020019161132f565b820191906000526020600020905b81548152906001019060200180831161131257829003601f168201915b505050918352505060016020820152600454600160401b8104600790810b900b6040830152600160a01b810460ff16151560608301526080820186905260a0909101849052909150600090819061139f9084906001600160401b03811690600160801b900463ffffffff16612eb1565b9092509050601682146113b157600080fd5b6040516001600160a01b03821681527f7bb17726df1f3adee8aa00ba8e8bc5d6f182af3bbf77604639cb7f008dd3b4ed9060200160405180910390a1505050505050565b600061140385858585612fdf565b905060008051602061617f8339815191528160405161142491815260200190565b60405180910390a16016811461143957600080fd5b949350505050565b600061144b613e14565b61145584846130d6565b604051828152919350915060008051602061617f8339815191529060200160405180910390a16016821461148857600080fd5b7fd010ef68d3ac3e07c14bed496400730a484fd17c48a4d373cbc4722a56540def81604051610c0e9190615d98565b60006109f683836131b0565b60006114d08484846131dc565b905060008051602061617f833981519152816040516114f191815260200190565b60405180910390a16016811461150657600080fd5b9392505050565b60008060006101676001600160a01b031663593d6e8260e01b8686604051602401610adf9291906159fb565b6000806115478585856132bc565b604051828152919350915060008051602061617f8339815191529060200160405180910390a16016821461157a57600080fd5b6040518181527f25b6684a7e8fe1b676e9c39c8dd65034fbafea906d3bdfd97bf748b7b55e14c890602001610aa3565b600060608060606115ba8561338f565b604051600785900b81529397509195509350915060008051602061617f8339815191529060200160405180910390a1600784900b6016146115fa57600080fd5b7f2efc8334b040613a552197fe34283d6ca2909c8ffae393e128424931f20c69b383838360405161162d93929190615abd565b60405180910390a19193509193565b60008061164883613476565b604051600783900b8152919350915060008051602061617f8339815191529060200160405180910390a1600782900b60161461168357600080fd5b604051600382900b81527f182137409609594f2b12128230091c673507ea4cab315d59415d5e3f8c301ad590602001610fd1565b60006116c1613e4f565b6116ca8361353a565b604051828152919350915060008051602061617f8339815191529060200160405180910390a1601682146116fd57600080fd5b7fea9419ffbaa766adf982c4c9864330eee1d848eff36c79e510e7e589c8bb265f81604051610fd19190615cc7565b600080611739848461360a565b60405160079290920b8083529350915060008051602061617f8339815191529060200160405180910390a16016821461177157600080fd5b60405181151581527f59800d968fcce138300a0019410b4b75041610d65b3cdc5f31656b03ed14912e90602001610c0e565b600061140385858585613637565b6040516001600160a01b03821660248201526000908190819061016790631f106b4b60e21b90604401610eb4565b6000610d8e838361367f565b60008060606117fb8686866136ab565b604051838152929550909350915060008051602061617f8339815191529060200160405180910390a16016831461183157600080fd5b7feff23992f47b3c101679f8b4dc9d3e242c903909dba4a453f2b2341ad463b0e28282604051611862929190615dbe565b60405180910390a193509350939050565b60008061187f836137a9565b604051828152919350915060008051602061617f8339815191529060200160405180910390a1601682146118b257600080fd5b60405181151581527f9ee19e13dfa1ba8db2502e15ff56dbecdeb0e0473323fb195473ce648030a2cd90602001610fd1565b604080516001808252818301909252600091816020015b611903613df5565b8152602001906001900390816118fb579050509050611935600080600160405180602001604052806000815250612e45565b8160008151811061195657634e487b7160e01b600052603260045260246000fd5b602002602001018190525060006040518060600160405280600063ffffffff168152602001856001600160a01b03168152602001627a120063ffffffff1681525090506000604051806101200160405280600180546119b49061609f565b80601f01602080910402602001604051908101604052809291908181526020018280546119e09061609f565b8015611a2d5780601f10611a0257610100808354040283529160200191611a2d565b820191906000526020600020905b815481529060010190602001808311611a1057829003601f168201915b5050505050815260200160028054611a449061609f565b80601f0160208091040260200160405190810160405280929190818152602001828054611a709061609f565b8015611abd5780601f10611a9257610100808354040283529160200191611abd565b820191906000526020600020905b815481529060010190602001808311611aa057829003601f168201915b50505050508152602001866001600160a01b0316815260200160038054611ae39061609f565b80601f0160208091040260200160405190810160405280929190818152602001828054611b0f9061609f565b8015611b5c5780601f10611b3157610100808354040283529160200191611b5c565b820191906000526020600020905b815481529060010190602001808311611b3f57829003601f168201915b5050509183525050600160208201819052600454600160401b9004600790810b900b6040808401919091526000606084018190526080840188905260a09093018690528051828152808201909152929350909190816020015b6040805160a081018252600080825260208083018290529282018190526060820181905260808201528252600019909201910181611bb55750506040805160a081018252600181526001600160a01b03888116602083015260009282018390526060820183905289166080820152825192935091839190611c4657634e487b7160e01b600052603260045260246000fd5b6020908102919091010152604080516001808252818301909252600091816020015b6040805160c08101825260008082526020808301829052928201819052606082018190526080820181905260a08201528252600019909201910181611c685750506040805160c0810182526004815260056020820152600a91810191909152601e60608201526000608082018190526001600160a01b038a1660a083015282519293509091839190611d0a57634e487b7160e01b600052603260045260246000fd5b60209081029190910101526004546000908190611d429086906001600160401b03811690600160801b900463ffffffff1687876137d9565b9150915060008051602061617f83398151915282604051611d6591815260200190565b60405180910390a160168214611d7a57600080fd5b6040516001600160a01b03821681527f7bb17726df1f3adee8aa00ba8e8bc5d6f182af3bbf77604639cb7f008dd3b4ed9060200160405180910390a1505050505050505050565b600080611dcd8361390d565b604051600783900b8152919350915060008051602061617f8339815191529060200160405180910390a1600782900b601614611e0857600080fd5b60405181151581527f5080c42cc33acbcea410fa6eaa925bd878674825501981184fdd53749f8478a890602001610fd1565b60008060006101676001600160a01b0316638f8d7f9960e01b8686604051602401610adf929190615988565b6000610e69611e758385615f0b565b61393d565b6000611e8582613967565b905060008051602061617f83398151915281604051611ea691815260200190565b60405180910390a160168114611ebb57600080fd5b919050565b604051633cb0c7fd60e21b81526000908190309063f2c31ff490611eea9087908790600401615988565b6040805180830381600087803b158015611f0357600080fd5b505af1158015611f17573d6000803e3d6000fd5b505050506040513d601f19601f82011682018060405250810190611f3b91906153b4565b604051600783900b8152919350915060008051602061617f8339815191529060200160405180910390a1600782900b601614611f7657600080fd5b60405181151581527fd24dda6928587354b65aa1a18c2eaf249bef7e5bafd2a71fac71d286f76f957f90602001610c0e565b60008060006101676001600160a01b031663af99c63360e01b8686604051602401610adf929190615988565b60408051606081018252600080825260208201819052918101829052604051631ac299b760e31b81526001600160a01b0384166004820152309063d614cdb890602401608060405180830381600087803b15801561203157600080fd5b505af1158015612045573d6000803e3d6000fd5b505050506040513d601f19601f820116820180604052508101906120699190614f37565b604051828152919350915060008051602061617f8339815191529060200160405180910390a16016821461209c57600080fd5b7fa0a16bf9db2c17796faeca5af5aaeef8523f9d4c350c512cb00062ad89604f8881604051610fd19190615cb9565b604080516060810182526000808252602080830182905282840182905283516001600160a01b038616602480830191909152855180830390910181526044909101855290810180516001600160e01b0316631ac299b760e31b17905292519092839182916101679161213d919061596c565b6000604051808303816000865af19150503d806000811461217a576040519150601f19603f3d011682016040523d82523d6000602084013e61217f565b606091505b50915091506121a7604080516060810182526000808252602082018190529181019190915290565b826121b4576015816121c8565b818060200190518101906121c89190615087565b60039190910b97909650945050505050565b60408051600580825260c08201909252600091816020015b6121fa613df5565b8152602001906001900390816121f257905050905061222d60006006600160405180602001604052806000815250612e45565b8160008151811061224e57634e487b7160e01b600052603260045260246000fd5b602002602001018190525061227460018060405180602001604052806000815250612e7c565b8160018151811061229557634e487b7160e01b600052603260045260246000fd5b60200260200101819052506122bc6002600160405180602001604052806000815250612e7c565b816002815181106122dd57634e487b7160e01b600052603260045260246000fd5b60200260200101819052506123046004600160405180602001604052806000815250612e7c565b8160038151811061232557634e487b7160e01b600052603260045260246000fd5b602002602001018190525061234c6003600160405180602001604052806000815250612e7c565b8160048151811061236d57634e487b7160e01b600052603260045260246000fd5b602002602001018190525060006040518060600160405280600063ffffffff168152602001846001600160a01b03168152602001627a120063ffffffff1681525090506000604051806101200160405280600180546123cb9061609f565b80601f01602080910402602001604051908101604052809291908181526020018280546123f79061609f565b80156124445780601f1061241957610100808354040283529160200191612444565b820191906000526020600020905b81548152906001019060200180831161242757829003601f168201915b505050505081526020016002805461245b9061609f565b80601f01602080910402602001604051908101604052809291908181526020018280546124879061609f565b80156124d45780601f106124a9576101008083540402835291602001916124d4565b820191906000526020600020905b8154815290600101906020018083116124b757829003601f168201915b50505050508152602001856001600160a01b03168152602001600380546124fa9061609f565b80601f01602080910402602001604051908101604052809291908181526020018280546125269061609f565b80156125735780601f1061254857610100808354040283529160200191612573565b820191906000526020600020905b81548152906001019060200180831161255657829003601f168201915b505050918352505060016020820152600454600160401b8104600790810b900b6040830152600160a01b900460ff16151560608201526080810185905260a001839052905060008061139f83613995565b60006114d0848484613a7f565b60006114d0848484613ac1565b604051632c9eb74160e11b8152600090309063593d6e8290610e1790869086906004016159fb565b60006114d0848484613afe565b6000806000806101676001600160a01b031663f2c31ff460e01b8787604051602401612640929190615988565b60408051601f198184030181529181526020820180516001600160e01b03166001600160e01b031990941693909317909252905161267e919061596c565b6000604051808303816000865af19150503d80600081146126bb576040519150601f19603f3d011682016040523d82523d6000602084013e6126c0565b606091505b5091509150816126d357601560006121c8565b808060200190518101906121c89190615033565b60006126f1613e6f565b6126fa83613b3c565b604051828152919350915060008051602061617f8339815191529060200160405180910390a16016821461272d57600080fd5b7fbdb65f8c2a2e9a3a37ea49e903836883766a922e4ce9b21f684035e304962d4181604051610fd19190615dab565b6000610e698383613c0c565b604051633b3bff0f60e01b81526001600160a01b03821660048201526000903090633b3bff0f90602401602060405180830381600087803b1580156127ac57600080fd5b505af11580156127c0573d6000803e3d6000fd5b505050506040513d601f19601f820116820180604052508101906127e49190614f1f565b905060008051602061617f8339815191528160405161280591815260200190565b60405180910390a16016811461281a57600080fd5b604051600181527f319ab7084208e4afa38c6e6ff7aea9587439f2e4700746f4c7d425fea17426d290602001610d75565b60006114d0848484613c38565b6004805460ff60a01b1916600160a01b8315158102919091179182905560405160ff9190920416151581527f457c3a16a0ebdc38e3675609957ca3fcc4490e220bd15d85d34f58e2e145cb089060200160405180910390a150565b604080516000808252602082019092528190816128f8565b60408051606081018252600080825260208083018290529282015282526000199092019101816128cb5790505b50905060006040518060400160405280336001600160a01b0316815260200185612921906160da565b600790810b9091526040805180820182526001600160a01b038a1681529187900b602083015280516002808252606082019092529293509091600091816020015b604080518082019091526000808252602082015281526020019060019003908161296257905050905082816000815181106129ad57634e487b7160e01b600052603260045260246000fd5b602002602001018190525081816001815181106129da57634e487b7160e01b600052603260045260246000fd5b602090810291909101810191909152604080516060810182526001600160a01b038a16815291820183905281810186905280516001808252818301909252600091816020015b612a4d604051806060016040528060006001600160a01b0316815260200160608152602001606081525090565b815260200190600190039081612a205790505090508181600081518110612a8457634e487b7160e01b600052603260045260246000fd5b6020026020010181905250612a988161393d565b965060168714612aa757600080fd5b5050505050509392505050565b604080516001600160a01b0385811660248301528481166044830152831660648083019190915282518083039091018152608490910182526020810180516001600160e01b031663f49f40db60e01b179052905160009182918291829161016791612b1e9161596c565b6000604051808303816000865af19150503d8060008114612b5b576040519150601f19603f3d011682016040523d82523d6000602084013e612b60565b606091505b509150915081612b735760156000612b87565b80806020019051810190612b879190615033565b60039190910b9890975095505050505050565b6000612ba4613db2565b604080516001600160a01b0386166024820152604480820186905282518083039091018152606490910182526020810180516001600160e01b0316631e26e99760e11b1790529051600091829161016791612bfe9161596c565b6000604051808303816000865af19150503d8060008114612c3b576040519150601f19603f3d011682016040523d82523d6000602084013e612c40565b606091505b5091509150612c4d613db2565b82612c5a57601581612b87565b81806020019051810190612b879190615158565b604080516001600160a01b0384166024820152604480820184905282518083039091018152606490910182526020810180516001600160e01b03166304c791b360e11b179052905160009182918291829161016791612ccc9161596c565b6000604051808303816000865af19150503d8060008114612d09576040519150601f19603f3d011682016040523d82523d6000602084013e612d0e565b606091505b509150915081612d2157601560006121c8565b808060200190518101906121c89190614f74565b60008060006101676001600160a01b03166352f9138760e01b8686604051602401610adf929190615988565b6040516001600160a01b03821660248201526000908190819081906101679063a7daa18d60e01b906044015b60408051601f198184030181529181526020820180516001600160e01b03166001600160e01b0319909416939093179092529051612dcb919061596c565b6000604051808303816000865af19150503d8060008114612e08576040519150601f19603f3d011682016040523d82523d6000602084013e612e0d565b606091505b509150915081612e205760156000612e34565b80806020019051810190612e349190615033565b60039190910b969095509350505050565b612e4d613df5565b6040518060400160405280612e628787613c75565b8152602001612e718585613c8e565b905295945050505050565b612e84613df5565b6040518060400160405280612e9886613d20565b8152602001612ea78585613c8e565b9052949350505050565b600080848061010001516000015163ffffffff166000148015612ee157506101008101516040015163ffffffff16155b15612ef7576101008101516276a7006040909101525b6000806101676001600160a01b03163463c23baeb660e01b8a8a8a604051602401612f2493929190615ced565b60408051601f198184030181529181526020820180516001600160e01b03166001600160e01b0319909416939093179092529051612f62919061596c565b60006040518083038185875af1925050503d8060008114612f9f576040519150601f19603f3d011682016040523d82523d6000602084013e612fa4565b606091505b509150915081612fb75760156000612fcb565b80806020019051810190612fcb9190614f74565b60039190910b999098509650505050505050565b6040516001600160a01b038581166024830152848116604483015283166064820152600782900b6084820152600090819081906101679063eca3691760e01b9060a4015b60408051601f198184030181529181526020820180516001600160e01b03166001600160e01b0319909416939093179092529051613061919061596c565b6000604051808303816000865af19150503d806000811461309e576040519150601f19603f3d011682016040523d82523d6000602084013e6130a3565b606091505b5091509150816130b45760156130c8565b808060200190518101906130c89190614f5a565b60030b979650505050505050565b60006130e0613e14565b604080516001600160a01b0386166024820152600785900b60448083019190915282518083039091018152606490910182526020810180516001600160e01b031663050fc3b560e31b17905290516000918291610167916131409161596c565b6000604051808303816000865af19150503d806000811461317d576040519150601f19603f3d011682016040523d82523d6000602084013e613182565b606091505b509150915061318f613e14565b8261319c57601581612b87565b81806020019051810190612b879190615199565b60008060006101676001600160a01b0316636fc3cbaf60e01b8686604051602401610adf9291906159d7565b60008060006101676001600160a01b031663f7f38e2660e01b87878760405160240161320a939291906159a2565b60408051601f198184030181529181526020820180516001600160e01b03166001600160e01b0319909416939093179092529051613248919061596c565b6000604051808303816000865af19150503d8060008114613285576040519150601f19603f3d011682016040523d82523d6000602084013e61328a565b606091505b50915091508161329b5760156132af565b808060200190518101906132af9190614f5a565b60030b9695505050505050565b604080516001600160a01b0385811660248301528481166044830152831660648083019190915282518083039091018152608490910182526020810180516001600160e01b031663927da10560e01b1790529051600091829182918291610167916133269161596c565b6000604051808303816000865af19150503d8060008114613363576040519150601f19603f3d011682016040523d82523d6000602084013e613368565b606091505b50915091508161337b5760156000612b87565b80806020019051810190612b8791906152bc565b604080516001600160a01b03831660248083019190915282518083039091018152604490910182526020810180516001600160e01b0316630573b08d60e51b17905290516000916060918291829185918291610167916133ee9161596c565b6000604051808303816000865af19150503d806000811461342b576040519150601f19603f3d011682016040523d82523d6000602084013e613430565b606091505b509150915060608060608461344957601583838361345d565b8380602001905181019061345d9190614f9f565b60039390930b9d919c509a509098509650505050505050565b604080516001600160a01b03831660248083019190915282518083039091018152604490910182526020810180516001600160e01b03166393272baf60e01b1790529051600091829182918291610167916134d09161596c565b6000604051808303816000865af19150503d806000811461350d576040519150601f19603f3d011682016040523d82523d6000602084013e613512565b606091505b509150915081613526576015600019612e34565b80806020019051810190612e34919061505e565b6000613544613e4f565b604080516001600160a01b03851660248083019190915282518083039091018152604490910182526020810180516001600160e01b0316633f28a19b60e01b179052905160009182916101679161359a9161596c565b6000604051808303816000865af19150503d80600081146135d7576040519150601f19603f3d011682016040523d82523d6000602084013e6135dc565b606091505b50915091506135e9613e4f565b826135f6576015816121c8565b818060200190518101906121c891906150b1565b6000806000806101676001600160a01b03166346de0fb160e01b8787604051602401612640929190615988565b6040516001600160a01b038581166024830152848116604483015283166064820152600782900b60848201526000908190819061016790635cfc901160e01b9060a401613023565b60008060006101676001600160a01b0316635b8f858460e01b8686604051602401610adf929190615988565b60008060606000806101676001600160a01b031663278e0b8860e01b8989896040516024016136dc93929190615a3c565b60408051601f198184030181529181526020820180516001600160e01b03166001600160e01b031990941693909317909252905161371a919061596c565b6000604051808303816000865af19150503d8060008114613757576040519150601f19603f3d011682016040523d82523d6000602084013e61375c565b606091505b50915091508161377f576040805160008082526020820190925260159190613793565b8080602001905181019061379391906152e7565b60039290920b9a90995090975095505050505050565b6040516001600160a01b03821660248201526000908190819081906101679063335e04c160e01b90604401612d8d565b600080868061010001516000015163ffffffff16600014801561380957506101008101516040015163ffffffff16155b1561381f576101008101516276a7006040909101525b6000806101676001600160a01b03163463b937581a60e01b8c8c8c8c8c604051602401613850959493929190615d25565b60408051601f198184030181529181526020820180516001600160e01b03166001600160e01b031990941693909317909252905161388e919061596c565b60006040518083038185875af1925050503d80600081146138cb576040519150601f19603f3d011682016040523d82523d6000602084013e6138d0565b606091505b5091509150816138e357601560006138f7565b808060200190518101906138f79190614f74565b60039190910b9b909a5098505050505050505050565b6040516001600160a01b0382166024820152600090819081908190610167906319f3736160e01b90604401612d8d565b60008060006101676001600160a01b031663189a554c60e01b85604051602401610eb49190615af6565b6040516001600160a01b03821660248201526000908190819061016790637834fb8960e11b90604401610eb4565b600080828061010001516000015163ffffffff1660001480156139c557506101008101516040015163ffffffff16155b156139db576101008101516276a7006040909101525b6000806101676001600160a01b031634639c89bb3560e01b88604051602401613a049190615cda565b60408051601f198184030181529181526020820180516001600160e01b03166001600160e01b0319909416939093179092529051613a42919061596c565b60006040518083038185875af1925050503d8060008114612d09576040519150601f19603f3d011682016040523d82523d6000602084013e612d0e565b6040516001600160a01b0384811660248301528316604482015263ffffffff821660648201526000908190819061016790639790686d60e01b9060840161320a565b6040516001600160a01b038481166024830152831660448201526064810182905260009081908190610167906307336aaf60e41b9060840161320a565b6040516001600160a01b0384811660248301528316604482015281151560648201526000908190819061016790631b3b02e560e11b9060840161320a565b6000613b46613e6f565b604080516001600160a01b03851660248083019190915282518083039091018152604490910182526020810180516001600160e01b0316631f69565f60e01b1790529051600091829161016791613b9c9161596c565b6000604051808303816000865af19150503d8060008114613bd9576040519150601f19603f3d011682016040523d82523d6000602084013e613bde565b606091505b5091509150613beb613e6f565b82613bf8576015816121c8565b818060200190518101906121c8919061527b565b60008060006101676001600160a01b03166349146bde60e01b8686604051602401610adf929190615988565b6040516001600160a01b0384811660248301528316604482015260648101829052600090819081906101679063e1f21c6760e01b9060840161320a565b6000600160ff84161b9050600160ff83161b8117611506565b613c96613db2565b8260ff1660011415613cab5760018152610a2f565b8260ff1660021415613ccd576000546001600160a01b03166020820152610a2f565b8260ff1660031415613ce55760408101829052610a2f565b8260ff1660041415613cfd5760608101829052610a2f565b8260ff1660051415610a2f576000546001600160a01b0316608082015292915050565b600060ff8216613d3257506001919050565b8160ff1660011415613d4657506002919050565b8160ff1660021415613d5a57506004919050565b8160ff1660031415613d6e57506008919050565b8160ff1660041415613d8257506010919050565b8160ff1660051415613d9657506020919050565b8160ff1660061415613daa57506040919050565b506000919050565b6040518060a0016040528060001515815260200160006001600160a01b03168152602001606081526020016060815260200160006001600160a01b031681525090565b604051806040016040528060008152602001613e0f613db2565b905290565b6040518060c00160405280613e27613e6f565b8152600060208201819052604082018190526060808301829052608083015260a09091015290565b6040518060400160405280613e62613e6f565b8152600060209091015290565b604051806101200160405280613e83613ed0565b815260200160006001600160401b03168152602001600015158152602001600015158152602001600015158152602001606081526020016060815260200160608152602001606081525090565b604051806101200160405280606081526020016060815260200160006001600160a01b0316815260200160608152602001600015158152602001600060070b815260200160001515815260200160608152602001613e0f604080516060810182526000808252602082018190529181019190915290565b8035611ebb81616122565b8051611ebb81616122565b600082601f830112613f6d578081fd5b81516020613f82613f7d83615ec1565b615e91565b8281528181019085830160a080860288018501891015613fa0578687fd5b865b868110156140295781838b031215613fb8578788fd5b613fc0615de0565b8351613fcb81616157565b815283870151613fda81616122565b81880152604084810151613fed8161613a565b908201526060848101516140008161613a565b9082015260808481015161401381616122565b9082015285529385019391810191600101613fa2565b509198975050505050505050565b600082601f830112614047578081fd5b81516020614057613f7d83615ec1565b8281528181019085830160c080860288018501891015614075578687fd5b865b868110156140295781838b03121561408d578788fd5b614095615e08565b83516140a081616157565b8152838701516140af81616157565b818801526040848101516140c281616157565b908201526060848101516140d581616157565b908201526080848101516140e88161613a565b9082015260a0848101516140fb81616122565b9082015285529385019391810191600101614077565b600082601f830112614121578081fd5b81356020614131613f7d83615ec1565b8281528181019085830160608086028801850189101561414f578687fd5b865b868110156140295781838b031215614167578788fd5b61416f615e2a565b833561417a81616122565b81528387013561418981616122565b8188015260408481013561419c81616148565b9082015285529385019391810191600101614151565b600082601f8301126141c2578081fd5b815160206141d2613f7d83615ec1565b8281528181019085830160c0808602880185018910156141f0578687fd5b865b868110156140295781838b031215614208578788fd5b614210615e08565b835161421b81616157565b81528387015161422a81616157565b8188015260408481015161423d81616157565b9082015260608481015161425081616122565b908201526080848101516142638161613a565b9082015260a08481015161427681616122565b90820152855293850193918101916001016141f2565b600082601f83011261429c578081fd5b813560206142ac613f7d83615ec1565b80838252828201915082860187848660051b89010111156142cb578586fd5b855b858110156143d75781356001600160401b03808211156142eb578889fd5b90890190601f196040838d038201121561430357898afd5b61430b615e4c565b888401358152604084013583811115614322578b8cfd5b939093019260a0848e0383011215614338578a8bfd5b614340615de0565b91508884013561434f8161613a565b825261435d60408501613f47565b89830152606084013583811115614372578b8cfd5b6143808e8b838801016144b7565b604084015250608084013583811115614397578b8cfd5b6143a58e8b838801016144b7565b6060840152506143b760a08501613f47565b6080830152808901919091528652505092840192908401906001016142cd565b5090979650505050505050565b600082601f8301126143f4578081fd5b81516020614404613f7d83615ec1565b80838252828201915082860187848660051b8901011115614423578586fd5b855b858110156143d75781516001600160401b0380821115614443578889fd5b908901906040828c03601f190181131561445b57898afd5b614463615e4c565b83890151815290830151908282111561447a578a8bfd5b6144888d8a8487010161471a565b818a015287525050509284019290840190600101614425565b8035611ebb8161613a565b8051611ebb8161613a565b600082601f8301126144c7578081fd5b81356144d5613f7d82615ee4565b8181528460208386010111156144e9578283fd5b816020850160208301379081016020019190915292915050565b600082601f830112614513578081fd5b8151614521613f7d82615ee4565b818152846020838601011115614535578283fd5b61143982602083016020870161606f565b8051600381900b8114611ebb57600080fd5b8035611ebb81616148565b8051611ebb81616148565b60006060828403121561457f578081fd5b614587615e2a565b9050813561459481616157565b815260208201356145a481616122565b602082015260408201356145b781616157565b604082015292915050565b6000606082840312156145d3578081fd5b6145db615e2a565b905081516145e881616157565b815260208201516145f881616122565b602082015260408201516145b781616157565b6000610160828403121561461d578081fd5b614625615e6e565b905081516001600160401b038082111561463e57600080fd5b61464a85838601614503565b8352602084015191508082111561466057600080fd5b61466c85838601614503565b602084015261467d60408501613f52565b6040840152606084015191508082111561469657600080fd5b6146a285838601614503565b60608401526146b3608085016144ac565b60808401526146c460a08501614563565b60a08401526146d560c085016144ac565b60c084015260e08401519150808211156146ee57600080fd5b506146fb848285016143e4565b60e083015250610100614710848285016145c2565b9082015292915050565b600060a0828403121561472b578081fd5b614733615de0565b905081516147408161613a565b8152602082015161475081616122565b602082015260408201516001600160401b038082111561476f57600080fd5b61477b85838601614503565b6040840152606084015191508082111561479457600080fd5b506147a184828501614503565b6060830152506147b360808301613f52565b608082015292915050565b600061012082840312156147d0578081fd5b6147d8615e6e565b905081516001600160401b03808211156147f157600080fd5b6147fd8583860161460b565b835261480b602085016148e1565b602084015261481c604085016144ac565b604084015261482d606085016144ac565b606084015261483e608085016144ac565b608084015260a084015191508082111561485757600080fd5b61486385838601613f5d565b60a084015260c084015191508082111561487c57600080fd5b61488885838601614037565b60c084015260e08401519150808211156148a157600080fd5b6148ad858386016141b2565b60e0840152610100915081840151818111156148c857600080fd5b6148d486828701614503565b8385015250505092915050565b8051611ebb81616169565b6000602082840312156148fd578081fd5b813561150681616122565b6000806040838503121561491a578081fd5b823561492581616122565b9150602083013561493581616122565b809150509250929050565b600080600060608486031215614954578081fd5b833561495f81616122565b9250602084013561496f81616122565b9150604084013561497f81616122565b809150509250925092565b6000806000806080858703121561499f578182fd5b84356149aa81616122565b935060208501356149ba81616122565b925060408501356149ca81616122565b915060608501356149da81616148565b939692955090935050565b6000806000606084860312156149f9578081fd5b8335614a0481616122565b9250602084810135614a1581616122565b925060408501356001600160401b03811115614a2f578283fd5b8501601f81018713614a3f578283fd5b8035614a4d613f7d82615ec1565b8082825284820191508484018a868560051b8701011115614a6c578687fd5b8694505b83851015614a97578035614a8381616148565b835260019490940193918501918501614a70565b5080955050505050509250925092565b600080600060608486031215614abb578081fd5b8335614ac681616122565b92506020840135614ad681616122565b9150604084013561497f8161613a565b600080600060608486031215614afa578081fd5b8335614b0581616122565b92506020840135614b1581616122565b9150604084013561497f81616148565b600080600060608486031215614b39578081fd5b8335614b4481616122565b92506020840135614b5481616122565b929592945050506040919091013590565b600080600060608486031215614b79578081fd5b8335614b8481616122565b92506020840135614b9481616122565b9150604084013561497f81616157565b60008060408385031215614bb6578182fd5b8235614bc181616122565b915060208301356001600160401b03811115614bdb578182fd5b614be78582860161428c565b9150509250929050565b60008060408385031215614c03578182fd5b8235614c0e81616122565b9150602083013561493581616148565b60008060808385031215614c30578182fd5b8235614c3b81616122565b9150614c4a846020850161456e565b90509250929050565b60008060408385031215614c65578182fd5b8235614c7081616122565b915060208301356001600160401b0380821115614c8b578283fd5b908401906101608287031215614c9f578283fd5b614ca7615e6e565b823582811115614cb5578485fd5b614cc1888286016144b7565b825250602083013582811115614cd5578485fd5b614ce1888286016144b7565b602083015250614cf360408401613f47565b6040820152606083013582811115614d09578485fd5b614d15888286016144b7565b606083015250614d27608084016144a1565b6080820152614d3860a08401614558565b60a0820152614d4960c084016144a1565b60c082015260e083013582811115614d5f578485fd5b614d6b8882860161428c565b60e0830152506101009150614d828783850161456e565b828201528093505050509250929050565b60008060408385031215614da5578182fd5b8235614db081616122565b946020939093013593505050565b600080600060608486031215614dd2578081fd5b8335614ddd81616122565b9250602084810135614dee81616169565b925060408501356001600160401b0380821115614e09578384fd5b818701915087601f830112614e1c578384fd5b8135614e2a613f7d82615ec1565b8082825285820191508585018b878560051b8801011115614e49578788fd5b875b84811015614e8257813586811115614e6157898afd5b614e6f8e8a838b01016144b7565b8552509287019290870190600101614e4b565b50508096505050505050509250925092565b60008060208385031215614ea6578182fd5b82356001600160401b0380821115614ebc578384fd5b818501915085601f830112614ecf578384fd5b813581811115614edd578485fd5b8660208260051b8501011115614ef1578485fd5b60209290920196919550909350505050565b600060208284031215614f14578081fd5b81356115068161613a565b600060208284031215614f30578081fd5b5051919050565b60008060808385031215614f49578182fd5b82519150614c4a84602085016145c2565b600060208284031215614f6b578081fd5b61150682614546565b60008060408385031215614f86578182fd5b614f8f83614546565b9150602083015161493581616122565b60008060008060808587031215614fb4578182fd5b614fbd85614546565b935060208501516001600160401b0380821115614fd8578384fd5b614fe488838901613f5d565b94506040870151915080821115614ff9578384fd5b61500588838901614037565b9350606087015191508082111561501a578283fd5b50615027878288016141b2565b91505092959194509250565b60008060408385031215615045578182fd5b61504e83614546565b915060208301516149358161613a565b60008060408385031215615070578182fd5b61507983614546565b9150614c4a60208401614546565b60008060808385031215615099578182fd5b6150a283614546565b9150614c4a84602085016145c2565b600080604083850312156150c3578182fd5b6150cc83614546565b915060208301516001600160401b03808211156150e7578283fd5b90840190604082870312156150fa578283fd5b6040516040810181811083821117156151155761511561610c565b604052825182811115615126578485fd5b615132888286016147be565b8252506020830151925061514583616157565b8260208201528093505050509250929050565b6000806040838503121561516a578182fd5b61517383614546565b915060208301516001600160401b0381111561518d578182fd5b614be78582860161471a565b600080604083850312156151ab578182fd5b6151b483614546565b915060208301516001600160401b03808211156151cf578283fd5b9084019060c082870312156151e2578283fd5b6151ea615e08565b8251828111156151f8578485fd5b615204888286016147be565b82525061521360208401614563565b602082015261522460408401613f52565b604082015261523560608401614563565b606082015260808301518281111561524b578485fd5b61525788828601614503565b60808301525061526960a08401613f52565b60a08201528093505050509250929050565b6000806040838503121561528d578182fd5b61529683614546565b915060208301516001600160401b038111156152b0578182fd5b614be7858286016147be565b600080604083850312156152ce578182fd5b6152d783614546565b9150602083015190509250929050565b6000806000606084860312156152fb578081fd5b61530484614546565b925060208085015161531581616169565b60408601519093506001600160401b03811115615330578283fd5b8501601f81018713615340578283fd5b805161534e613f7d82615ec1565b8082825284820191508484018a868560051b870101111561536d578687fd5b8694505b83851015614a9757805161538481616148565b835260019490940193918501918501615371565b6000602082840312156153a9578081fd5b815161150681616148565b600080604083850312156153c6578182fd5b82516153d181616148565b60208401519092506149358161613a565b6000815180845260208085019450808401835b8381101561541457815160070b875295820195908201906001016153f5565b509495945050505050565b6000815180845260208085019450808401835b83811015615414578151805163ffffffff168852838101516001600160a01b03908116858a01526040808301511515908a01526060808301511515908a0152608091820151169088015260a09096019590820190600101615432565b6000815180845260208085019450808401835b83811015615414578151805163ffffffff9081168952848201518116858a01526040808301518216908a01526060808301519091169089015260808082015115159089015260a0908101516001600160a01b03169088015260c090960195908201906001016154a1565b6000815180845260208085019450808401835b8381101561541457815180516001600160a01b03908116895284820151168489015260409081015160070b908801526060909601959082019060010161551e565b6000815180845260208085019450808401835b83811015615414578151805163ffffffff9081168952848201518116858a0152604080830151909116908901526060808201516001600160a01b03908116918a01919091526080808301511515908a015260a091820151169088015260c09096019590820190600101615572565b600081518084526020808501808196508360051b81019150828601855b8581101561563b5782840389528151805185528501516040868601819052615627818701836157aa565b9a87019a95505050908401906001016155fd565b5091979650505050505050565b6000815180845261566081602086016020860161606f565b601f01601f19169290920160200192915050565b805163ffffffff90811683526020808301516001600160a01b03169084015260409182015116910152565b60008151604084526156b4604085018261588c565b60209384015163ffffffff16949093019390935250919050565b600061016082518185526156e482860182615648565b915050602083015184820360208601526156fe8282615648565b915050604083015161571b60408601826001600160a01b03169052565b50606083015184820360608601526157338282615648565b9150506080830151615749608086018215159052565b5060a083015161575e60a086018260070b9052565b5060c083015161577260c086018215159052565b5060e083015184820360e086015261578a82826155e0565b915050610100808401516157a082870182615674565b5090949350505050565b8051151582526000602082015160018060a01b0380821660208601526040840151915060a060408601526157e160a0860183615648565b9150606084015185830360608701526157fa8382615648565b925050806080850151166080860152508091505092915050565b6000815160c0845261582960c085018261588c565b9050602083015160070b6020850152604083015160018060a01b038082166040870152606085015160070b60608701526080850151915085830360808701526158728383615648565b92508060a08601511660a087015250508091505092915050565b600061012082518185526158a2828601826156ce565b91505060208301516158bf60208601826001600160401b03169052565b5060408301516158d3604086018215159052565b5060608301516158e7606086018215159052565b5060808301516158fb608086018215159052565b5060a083015184820360a0860152615913828261541f565b91505060c083015184820360c086015261592d828261548e565b91505060e083015184820360e0860152615947828261555f565b91505061010080840151858303828701526159628382615648565b9695505050505050565b6000825161597e81846020870161606f565b9190910192915050565b6001600160a01b0392831681529116602082015260400190565b6001600160a01b038481168252831660208201526060604082018190526000906159ce908301846153e2565b95945050505050565b6001600160a01b0383168152604060208201819052600090611439908301846155e0565b6001600160a01b0383168152608081016115066020830184615674565b6001600160a01b0383168152604060208201819052600090611439908301846156ce565b60006060820160018060a01b038616835260206001600160401b038616818501526060604085015281855180845260808601915060808160051b8701019350828701855b82811015615aae57607f19888703018452615a9c868351615648565b95509284019290840190600101615a80565b50939998505050505050505050565b606081526000615ad0606083018661541f565b8281036020840152615ae2818661548e565b90508281036040840152615962818561555f565b60006020808301818452808551808352604092508286019150828160051b870101848801865b83811015615bbb57888303603f19018552815180516001600160a01b0390811685528882015160608a870181905281519087018190526080870192918b0191908c905b80821015615b8d5783518051841686528d015160070b8d860152938b0193928c019260019190910190615b5f565b50505050908701518482038589015290615ba7818361550b565b968901969450505090860190600101615b1c565b509098975050505050505050565b828152608081016115066020830184615674565b828152604060208201526000611439604083018461569f565b8281526040602082015260006114396040830184615814565b828152604060208201526000611439604083018461588c565b8381526001600160401b03831660208201526060604082015260006159ce60608301846153e2565b8460070b8152608060208201526000615c6c608083018661541f565b8281036040840152615c7e818661548e565b90508281036060840152615c92818561555f565b979650505050505050565b8260070b815260406020820152600061143960408301846157aa565b60608101610a2f8284615674565b602081526000611506602083018461569f565b60208152600061150660208301846156ce565b606081526000615d0060608301866156ce565b90506001600160401b038416602083015263ffffffff83166040830152949350505050565b60a081526000615d3860a08301886156ce565b6001600160401b038716602084015263ffffffff861660408401528281036060840152615d65818661541f565b90508281036080840152615d79818561548e565b98975050505050505050565b60208152600061150660208301846157aa565b6020815260006115066020830184615814565b602081526000611506602083018461588c565b6001600160401b038316815260406020820152600061143960408301846153e2565b60405160a081016001600160401b0381118282101715615e0257615e0261610c565b60405290565b60405160c081016001600160401b0381118282101715615e0257615e0261610c565b604051606081016001600160401b0381118282101715615e0257615e0261610c565b604080519081016001600160401b0381118282101715615e0257615e0261610c565b60405161012081016001600160401b0381118282101715615e0257615e0261610c565b604051601f8201601f191681016001600160401b0381118282101715615eb957615eb961610c565b604052919050565b60006001600160401b03821115615eda57615eda61610c565b5060051b60200190565b60006001600160401b03821115615efd57615efd61610c565b50601f01601f191660200190565b6000615f19613f7d84615ec1565b808482526020808301925084368760051b87011115615f36578485fd5b845b878110156160635781356001600160401b0380821115615f56578788fd5b818901915060608236031215615f6a578788fd5b615f72615e2a565b8235615f7d81616122565b81528286013582811115615f8f57898afd5b830136601f820112615f9f57898afd5b8035615fad613f7d82615ec1565b81815288810190838a0136600685901b86018c011115615fcb578d8efd5b8d94505b83851015616020576040808236031215615fe7578e8ffd5b615fef615e4c565b8235615ffa81616122565b8152828d013561600981616148565b818e0152845260019590950194928b019201615fcf565b50848a0152506040915050838101358381111561603b578a8bfd5b61604736828701614111565b9183019190915250875250509382019390820190600101615f38565b50919695505050505050565b60005b8381101561608a578181015183820152602001616072565b83811115616099576000848401525b50505050565b600181811c908216806160b357607f821691505b602082108114156160d457634e487b7160e01b600052602260045260246000fd5b50919050565b60008160070b677fffffffffffffff1981141561610557634e487b7160e01b82526011600452602482fd5b9003919050565b634e487b7160e01b600052604160045260246000fd5b6001600160a01b038116811461613757600080fd5b50565b801515811461613757600080fd5b8060070b811461613757600080fd5b63ffffffff8116811461613757600080fd5b6001600160401b038116811461613757600080fdfe90a5cf4cffe88b4edbb041cfc7a8a812c48a5ec30b84640fb37690875168e3aaa26469706673582212207699892e980a550ba790166f97e5c5d6952c6206e8abf1a6251f37bec608cb1f64736f6c63430008040033",
  "linkReferences": {},
  "deployedLinkReferences": {}
}