{
  "_format": "hh-sol-artifact-1",
  "contractName": "Basic",
  "sourceName": "contracts/Basic.sol",
  "abi": [
    {
      "inputs": [],
      "stateMutability": "nonpayable",
      "type": "constructor"
    },
    {
      "inputs": [],
      "name": "ping",
      "outputs": [
        {
          "internalType": "int256",
          "name": "",
          "type": "int256"
        }
      ],
      "stateMutability": "pure",
      "type": "function"
    }
  ],
  "bytecode": "0x608060405234801561001057600080fd5b5060b68061001f6000396000f3fe6080604052348015600f57600080fd5b506004361060285760003560e01c80635c36b18614602d575b600080fd5b60336047565b604051603e9190605d565b60405180910390f35b60006001905090565b6057816076565b82525050565b6000602082019050607060008301846050565b92915050565b600081905091905056fea26469706673582212206ad62fc0dbb8a1f3b6389e460d953f0f7fb0ce2eb71250d4057992f62dfc56d264736f6c63430008040033",
  "linkReferences": {},
  "deployedLinkReferences": {}
}