{
  "_format": "hh-sol-artifact-1",
  "contractName": "Basic",
  "sourceName": "contracts/Basic.sol",
  "abi": [
    {
      "inputs": [],
      "stateMutability": "nonpayable",
      "type": "constructor"
    },
    {
      "inputs": [],
      "name": "destroy",
      "outputs": [],
      "stateMutability": "nonpayable",
      "type": "function"
    },
    {
      "inputs": [],
      "name": "ping",
      "outputs": [
        {
          "internalType": "int256",
          "name": "",
          "type": "int256"
        }
      ],
      "stateMutability": "pure",
      "type": "function"
    },
    {
      "stateMutability": "payable",
      "type": "receive"
    }
  ],
  "bytecode": "0x6080604052348015600f57600080fd5b50609e8061001e6000396000f3fe608060405260043610602a5760003560e01c80635c36b18614603557806383197ef014605557600080fd5b36603057005b600080fd5b348015604057600080fd5b50600160405190815260200160405180910390f35b348015606057600080fd5b50606633ff5b00fea2646970667358221220886a6d6d6c88bcfc0063129ca2391a3d98aee75ad7fe3e870ec6679215456a3964736f6c63430008090033",
  "linkReferences": {},
  "deployedLinkReferences": {}
}