{
  "_format": "hh-sol-artifact-1",
  "contractName": "Basic",
  "sourceName": "contracts/Basic.sol",
  "abi": [
    {
      "inputs": [],
      "stateMutability": "nonpayable",
      "type": "constructor"
    },
    {
      "anonymous": false,
      "inputs": [
        {
          "indexed": false,
          "internalType": "address",
          "name": "account",
          "type": "address"
        },
        {
          "indexed": false,
          "internalType": "uint256",
          "name": "amount",
          "type": "uint256"
        }
      ],
      "name": "CreditReceived",
      "type": "event"
    },
    {
      "inputs": [],
      "name": "ping",
      "outputs": [
        {
          "internalType": "int256",
          "name": "",
          "type": "int256"
        }
      ],
      "stateMutability": "pure",
      "type": "function"
    },
    {
      "stateMutability": "payable",
      "type": "receive"
    }
  ],
  "bytecode": "0x608060405234801561001057600080fd5b50610188806100206000396000f3fe6080604052600436106100225760003560e01c80635c36b1861461006757610062565b36610062577f35f881e0d25586ef03012e3f2e16f403b3fef0e765e228839252a3bfc4900f8833346040516100589291906100f5565b60405180910390a1005b600080fd5b34801561007357600080fd5b5061007c610092565b6040516100899190610137565b60405180910390f35b60006001905090565b600073ffffffffffffffffffffffffffffffffffffffff82169050919050565b60006100c68261009b565b9050919050565b6100d6816100bb565b82525050565b6000819050919050565b6100ef816100dc565b82525050565b600060408201905061010a60008301856100cd565b61011760208301846100e6565b9392505050565b6000819050919050565b6101318161011e565b82525050565b600060208201905061014c6000830184610128565b9291505056fea2646970667358221220cee11762a94203a13e33cce0a92c1c7865170981d3a1e19e833df5fcbfc89a1e64736f6c63430008090033",
  "linkReferences": {},
  "deployedLinkReferences": {}
}