{
  "_format": "hh-sol-artifact-1",
  "contractName": "Caller",
  "sourceName": "contracts/Caller.sol",
  "abi": [
    {
      "inputs": [],
      "stateMutability": "nonpayable",
      "type": "constructor"
    },
    {
      "inputs": [
        {
          "internalType": "address",
          "name": "addr",
          "type": "address"
        }
      ],
      "name": "addressBalance",
      "outputs": [
        {
          "internalType": "uint256",
          "name": "",
          "type": "uint256"
        }
      ],
      "stateMutability": "view",
      "type": "function"
    },
    {
      "inputs": [],
      "name": "msgSender",
      "outputs": [
        {
          "internalType": "address",
          "name": "",
          "type": "address"
        }
      ],
      "stateMutability": "view",
      "type": "function"
    },
    {
      "inputs": [],
      "name": "msgSig",
      "outputs": [
        {
          "internalType": "bytes4",
          "name": "",
          "type": "bytes4"
        }
      ],
      "stateMutability": "view",
      "type": "function"
    },
    {
      "inputs": [],
      "name": "pureMultiply",
      "outputs": [
        {
          "internalType": "int256",
          "name": "",
          "type": "int256"
        }
      ],
      "stateMutability": "pure",
      "type": "function"
    },
    {
      "inputs": [],
      "name": "txOrigin",
      "outputs": [
        {
          "internalType": "address",
          "name": "",
          "type": "address"
        }
      ],
      "stateMutability": "view",
      "type": "function"
    }
  ],
  "bytecode": "0x608060405234801561001057600080fd5b50610317806100206000396000f3fe608060405234801561001057600080fd5b50600436106100575760003560e01c80630ec1551d1461005c5780633ec4de351461007a578063d737d0c7146100aa578063ec3e88cf146100c8578063f96757d1146100e6575b600080fd5b610064610104565b6040516100719190610182565b60405180910390f35b610094600480360381019061008f9190610200565b61010d565b6040516100a19190610246565b60405180910390f35b6100b261012e565b6040516100bf9190610270565b60405180910390f35b6100d0610136565b6040516100dd91906102c6565b60405180910390f35b6100ee610161565b6040516100fb9190610270565b60405180910390f35b60006004905090565b60008173ffffffffffffffffffffffffffffffffffffffff16319050919050565b600033905090565b600080357fffffffff0000000000000000000000000000000000000000000000000000000016905090565b600032905090565b6000819050919050565b61017c81610169565b82525050565b60006020820190506101976000830184610173565b92915050565b600080fd5b600073ffffffffffffffffffffffffffffffffffffffff82169050919050565b60006101cd826101a2565b9050919050565b6101dd816101c2565b81146101e857600080fd5b50565b6000813590506101fa816101d4565b92915050565b6000602082840312156102165761021561019d565b5b6000610224848285016101eb565b91505092915050565b6000819050919050565b6102408161022d565b82525050565b600060208201905061025b6000830184610237565b92915050565b61026a816101c2565b82525050565b60006020820190506102856000830184610261565b92915050565b60007fffffffff0000000000000000000000000000000000000000000000000000000082169050919050565b6102c08161028b565b82525050565b60006020820190506102db60008301846102b7565b9291505056fea264697066735822122079588650bbda1b7751ea62d1d38488e49f8eb4a0d1a8c6e76ca803d45b0f333164736f6c63430008110033",
  "linkReferences": {},
  "deployedLinkReferences": {}
}