{
  "_format": "hh-sol-artifact-1",
  "contractName": "Caller",
  "sourceName": "contracts/Caller.sol",
  "abi": [
    {
      "inputs": [],
      "stateMutability": "nonpayable",
      "type": "constructor"
    },
    {
      "inputs": [
        {
          "internalType": "address",
          "name": "addr",
          "type": "address"
        }
      ],
      "name": "addressBalance",
      "outputs": [
        {
          "internalType": "uint256",
          "name": "",
          "type": "uint256"
        }
      ],
      "stateMutability": "view",
      "type": "function"
    },
    {
      "inputs": [],
      "name": "msgSender",
      "outputs": [
        {
          "internalType": "address",
          "name": "",
          "type": "address"
        }
      ],
      "stateMutability": "view",
      "type": "function"
    },
    {
      "inputs": [],
      "name": "msgSig",
      "outputs": [
        {
          "internalType": "bytes4",
          "name": "",
          "type": "bytes4"
        }
      ],
      "stateMutability": "pure",
      "type": "function"
    },
    {
      "inputs": [],
      "name": "msgValue",
      "outputs": [
        {
          "internalType": "uint256",
          "name": "",
          "type": "uint256"
        }
      ],
      "stateMutability": "payable",
      "type": "function"
    },
    {
      "inputs": [],
      "name": "pureMultiply",
      "outputs": [
        {
          "internalType": "int256",
          "name": "",
          "type": "int256"
        }
      ],
      "stateMutability": "pure",
      "type": "function"
    },
    {
      "inputs": [],
      "name": "txOrigin",
      "outputs": [
        {
          "internalType": "address",
          "name": "",
          "type": "address"
        }
      ],
      "stateMutability": "view",
      "type": "function"
    }
  ],
  "bytecode": "0x608060405234801561001057600080fd5b5061037c806100206000396000f3fe6080604052600436106100555760003560e01c80630ec1551d1461005a5780633ec4de3514610085578063d737d0c7146100c2578063ddf363d7146100ed578063ec3e88cf1461010b578063f96757d114610136575b600080fd5b34801561006657600080fd5b5061006f610161565b60405161007c91906101e7565b60405180910390f35b34801561009157600080fd5b506100ac60048036038101906100a79190610265565b61016a565b6040516100b991906102ab565b60405180910390f35b3480156100ce57600080fd5b506100d761018b565b6040516100e491906102d5565b60405180910390f35b6100f5610193565b60405161010291906102ab565b60405180910390f35b34801561011757600080fd5b5061012061019b565b60405161012d919061032b565b60405180910390f35b34801561014257600080fd5b5061014b6101c6565b60405161015891906102d5565b60405180910390f35b60006004905090565b60008173ffffffffffffffffffffffffffffffffffffffff16319050919050565b600033905090565b600034905090565b600080357fffffffff0000000000000000000000000000000000000000000000000000000016905090565b600032905090565b6000819050919050565b6101e1816101ce565b82525050565b60006020820190506101fc60008301846101d8565b92915050565b600080fd5b600073ffffffffffffffffffffffffffffffffffffffff82169050919050565b600061023282610207565b9050919050565b61024281610227565b811461024d57600080fd5b50565b60008135905061025f81610239565b92915050565b60006020828403121561027b5761027a610202565b5b600061028984828501610250565b91505092915050565b6000819050919050565b6102a581610292565b82525050565b60006020820190506102c0600083018461029c565b92915050565b6102cf81610227565b82525050565b60006020820190506102ea60008301846102c6565b92915050565b60007fffffffff0000000000000000000000000000000000000000000000000000000082169050919050565b610325816102f0565b82525050565b6000602082019050610340600083018461031c565b9291505056fea264697066735822122065ec5c395db1dff37f89d217dde572d6524f69c8e8a2d96ed71c35cd6ef4eb7e64736f6c63430008110033",
  "linkReferences": {},
  "deployedLinkReferences": {}
}