{
  "_format": "hh-sol-artifact-1",
  "contractName": "EquivalenceContract",
  "sourceName": "contracts/EquivalenceContract.sol",
  "abi": [
    {
      "inputs": [
        {
          "internalType": "address",
          "name": "_addr",
          "type": "address"
        },
        {
          "internalType": "bytes",
          "name": "_customData",
          "type": "bytes"
        }
      ],
      "name": "callCodeToContractWithAmount",
      "outputs": [
        {
          "internalType": "bytes32",
          "name": "returnData",
          "type": "bytes32"
        }
      ],
      "stateMutability": "payable",
      "type": "function"
    },
    {
      "inputs": [
        {
          "internalType": "address",
          "name": "_addr",
          "type": "address"
        },
        {
          "internalType": "bytes",
          "name": "_customData",
          "type": "bytes"
        }
      ],
      "name": "callCodeToContractWithoutAmount",
      "outputs": [
        {
          "internalType": "bytes32",
          "name": "returnData",
          "type": "bytes32"
        }
      ],
      "stateMutability": "nonpayable",
      "type": "function"
    },
    {
      "inputs": [
        {
          "internalType": "address",
          "name": "_address",
          "type": "address"
        }
      ],
      "name": "copyCode",
      "outputs": [
        {
          "internalType": "bytes",
          "name": "",
          "type": "bytes"
        }
      ],
      "stateMutability": "view",
      "type": "function"
    },
    {
      "inputs": [
        {
          "internalType": "uint256",
          "name": "tinycents",
          "type": "uint256"
        }
      ],
      "name": "exchangeRateWithAmount",
      "outputs": [
        {
          "internalType": "uint256",
          "name": "tinybars",
          "type": "uint256"
        }
      ],
      "stateMutability": "payable",
      "type": "function"
    },
    {
      "inputs": [
        {
          "internalType": "uint256",
          "name": "tinycents",
          "type": "uint256"
        }
      ],
      "name": "exchangeRateWithoutAmount",
      "outputs": [
        {
          "internalType": "uint256",
          "name": "tinybars",
          "type": "uint256"
        }
      ],
      "stateMutability": "nonpayable",
      "type": "function"
    },
    {
      "inputs": [
        {
          "internalType": "address",
          "name": "_address",
          "type": "address"
        }
      ],
      "name": "getBalance",
      "outputs": [
        {
          "internalType": "uint256",
          "name": "",
          "type": "uint256"
        }
      ],
      "stateMutability": "view",
      "type": "function"
    },
    {
      "inputs": [
        {
          "internalType": "address",
          "name": "_address",
          "type": "address"
        }
      ],
      "name": "getCodeHash",
      "outputs": [
        {
          "internalType": "bytes32",
          "name": "",
          "type": "bytes32"
        }
      ],
      "stateMutability": "view",
      "type": "function"
    },
    {
      "inputs": [
        {
          "internalType": "address",
          "name": "_address",
          "type": "address"
        }
      ],
      "name": "getCodeSize",
      "outputs": [
        {
          "internalType": "uint256",
          "name": "",
          "type": "uint256"
        }
      ],
      "stateMutability": "view",
      "type": "function"
    },
    {
      "inputs": [],
      "name": "getCurrentAddress",
      "outputs": [
        {
          "internalType": "address",
          "name": "",
          "type": "address"
        }
      ],
      "stateMutability": "nonpayable",
      "type": "function"
    },
    {
      "inputs": [],
      "name": "getPseudorandomSeed",
      "outputs": [
        {
          "internalType": "bytes32",
          "name": "randomBytes",
          "type": "bytes32"
        }
      ],
      "stateMutability": "nonpayable",
      "type": "function"
    },
    {
      "inputs": [],
      "name": "getPseudorandomSeedDelegateCall",
      "outputs": [
        {
          "internalType": "bytes32",
          "name": "randomBytes",
          "type": "bytes32"
        }
      ],
      "stateMutability": "nonpayable",
      "type": "function"
    },
    {
      "inputs": [],
      "name": "getPseudorandomSeedStaticCall",
      "outputs": [
        {
          "internalType": "bytes32",
          "name": "randomBytes",
          "type": "bytes32"
        }
      ],
      "stateMutability": "nonpayable",
      "type": "function"
    },
    {
      "inputs": [],
      "name": "getPseudorandomSeedWithAmount",
      "outputs": [
        {
          "internalType": "bytes32",
          "name": "randomBytes",
          "type": "bytes32"
        }
      ],
      "stateMutability": "payable",
      "type": "function"
    },
    {
      "inputs": [
        {
          "internalType": "address",
          "name": "token",
          "type": "address"
        }
      ],
      "name": "htsCallWithAmount",
      "outputs": [
        {
          "internalType": "bool",
          "name": "success",
          "type": "bool"
        },
        {
          "internalType": "bool",
          "name": "isToken",
          "type": "bool"
        }
      ],
      "stateMutability": "payable",
      "type": "function"
    },
    {
      "inputs": [
        {
          "internalType": "address",
          "name": "token",
          "type": "address"
        }
      ],
      "name": "htsCallWithoutAmount",
      "outputs": [
        {
          "internalType": "bool",
          "name": "success",
          "type": "bool"
        },
        {
          "internalType": "bool",
          "name": "isToken",
          "type": "bool"
        }
      ],
      "stateMutability": "nonpayable",
      "type": "function"
    },
    {
      "inputs": [
        {
          "internalType": "address",
          "name": "token",
          "type": "address"
        }
      ],
      "name": "htsDelegateCall",
      "outputs": [
        {
          "internalType": "bool",
          "name": "success",
          "type": "bool"
        },
        {
          "internalType": "bool",
          "name": "isToken",
          "type": "bool"
        }
      ],
      "stateMutability": "nonpayable",
      "type": "function"
    },
    {
      "inputs": [
        {
          "internalType": "address",
          "name": "token",
          "type": "address"
        }
      ],
      "name": "htsStaticCall",
      "outputs": [
        {
          "internalType": "bool",
          "name": "success",
          "type": "bool"
        },
        {
          "internalType": "bool",
          "name": "isToken",
          "type": "bool"
        }
      ],
      "stateMutability": "nonpayable",
      "type": "function"
    },
    {
      "inputs": [
        {
          "internalType": "address",
          "name": "_to",
          "type": "address"
        },
        {
          "internalType": "bytes",
          "name": "_data",
          "type": "bytes"
        }
      ],
      "name": "makeCallWithAmount",
      "outputs": [
        {
          "internalType": "bool",
          "name": "success",
          "type": "bool"
        },
        {
          "internalType": "bytes",
          "name": "returnData",
          "type": "bytes"
        }
      ],
      "stateMutability": "payable",
      "type": "function"
    },
    {
      "inputs": [],
      "name": "makeCallWithAmountToIdentityPrecompile",
      "outputs": [
        {
          "internalType": "bool",
          "name": "success",
          "type": "bool"
        },
        {
          "internalType": "bytes",
          "name": "returnData",
          "type": "bytes"
        }
      ],
      "stateMutability": "payable",
      "type": "function"
    },
    {
      "inputs": [
        {
          "internalType": "address",
          "name": "_to",
          "type": "address"
        },
        {
          "internalType": "bytes",
          "name": "_data",
          "type": "bytes"
        }
      ],
      "name": "makeCallWithoutAmount",
      "outputs": [
        {
          "internalType": "bool",
          "name": "success",
          "type": "bool"
        },
        {
          "internalType": "bytes",
          "name": "returnData",
          "type": "bytes"
        }
      ],
      "stateMutability": "nonpayable",
      "type": "function"
    },
    {
      "inputs": [],
      "name": "makeCallWithoutAmountToIdentityPrecompile",
      "outputs": [
        {
          "internalType": "bool",
          "name": "success",
          "type": "bool"
        },
        {
          "internalType": "bytes",
          "name": "returnData",
          "type": "bytes"
        }
      ],
      "stateMutability": "nonpayable",
      "type": "function"
    },
    {
      "inputs": [
        {
          "internalType": "address",
          "name": "_to",
          "type": "address"
        },
        {
          "internalType": "bytes",
          "name": "_data",
          "type": "bytes"
        }
      ],
      "name": "makeDelegateCall",
      "outputs": [
        {
          "internalType": "bool",
          "name": "success",
          "type": "bool"
        },
        {
          "internalType": "bytes",
          "name": "returnData",
          "type": "bytes"
        }
      ],
      "stateMutability": "nonpayable",
      "type": "function"
    },
    {
      "inputs": [],
      "name": "makeDelegateCallToIdentityPrecompile",
      "outputs": [
        {
          "internalType": "bool",
          "name": "success",
          "type": "bool"
        },
        {
          "internalType": "bytes",
          "name": "returnData",
          "type": "bytes"
        }
      ],
      "stateMutability": "nonpayable",
      "type": "function"
    },
    {
      "inputs": [
        {
          "internalType": "address",
          "name": "_to",
          "type": "address"
        },
        {
          "internalType": "bytes",
          "name": "_data",
          "type": "bytes"
        }
      ],
      "name": "makeStaticCall",
      "outputs": [
        {
          "internalType": "bool",
          "name": "success",
          "type": "bool"
        },
        {
          "internalType": "bytes",
          "name": "returnData",
          "type": "bytes"
        }
      ],
      "stateMutability": "nonpayable",
      "type": "function"
    },
    {
      "inputs": [],
      "name": "makeStaticCallToIdentityPrecompile",
      "outputs": [
        {
          "internalType": "bool",
          "name": "success",
          "type": "bool"
        },
        {
          "internalType": "bytes",
          "name": "returnData",
          "type": "bytes"
        }
      ],
      "stateMutability": "nonpayable",
      "type": "function"
    }
  ],
  "bytecode": "0x608060405234801561001057600080fd5b50611f76806100206000396000f3fe6080604052600436106101665760003560e01c8063845b27cd116100d1578063b2a07c3e1161008a578063d83bf9a111610064578063d83bf9a1146105b9578063e34c93b8146105e4578063e717ea6114610614578063f8b2cb4f1461063f57610166565b8063b2a07c3e14610520578063b51c4f9614610550578063d558bd8e1461058d57610166565b8063845b27cd146103e65780638771074f1461042457806388b0764a146104625780639154822814610481578063b0d869b1146104b2578063b2539b2e146104ef57610166565b80636144ef6d116101235780636144ef6d146102b757806367edbd6d146102d55780636f68a38e1461030157806375ce65191461033f5780637e38d3a31461036b57806381ea4408146103a957610166565b806315ed14111461016b57806319f88c7d146101a95780631d620e2a146101e657806343b82d46146102245780634c3ff83a1461024f5780634e7315831461027a575b600080fd5b34801561017757600080fd5b50610192600480360381019061018d91906119e7565b61067c565b6040516101a0929190611add565b60405180910390f35b3480156101b557600080fd5b506101d060048036038101906101cb9190611b6d565b6106f5565b6040516101dd9190611be6565b60405180910390f35b3480156101f257600080fd5b5061020d60048036038101906102089190611c01565b610729565b60405161021b929190611c2e565b60405180910390f35b34801561023057600080fd5b5061023961086b565b6040516102469190611be6565b60405180910390f35b34801561025b57600080fd5b50610264610983565b6040516102719190611be6565b60405180910390f35b34801561028657600080fd5b506102a1600480360381019061029c9190611c01565b610a9b565b6040516102ae9190611c57565b60405180910390f35b6102bf610b07565b6040516102cc9190611be6565b60405180910390f35b3480156102e157600080fd5b506102ea610c22565b6040516102f8929190611add565b60405180910390f35b34801561030d57600080fd5b5061032860048036038101906103239190611c01565b610cde565b604051610336929190611c2e565b60405180910390f35b34801561034b57600080fd5b50610354610e20565b604051610362929190611add565b60405180910390f35b34801561037757600080fd5b50610392600480360381019061038d91906119e7565b610eda565b6040516103a0929190611add565b60405180910390f35b3480156103b557600080fd5b506103d060048036038101906103cb9190611c01565b610f55565b6040516103dd9190611be6565b60405180910390f35b3480156103f257600080fd5b5061040d60048036038101906104089190611c01565b610f65565b60405161041b929190611c2e565b60405180910390f35b34801561043057600080fd5b5061044b600480360381019061044691906119e7565b6110a9565b604051610459929190611add565b60405180910390f35b61046a611122565b604051610478929190611add565b60405180910390f35b61049b600480360381019061049691906119e7565b6111df565b6040516104a9929190611add565b60405180910390f35b3480156104be57600080fd5b506104d960048036038101906104d49190611caf565b61125b565b6040516104e69190611ceb565b60405180910390f35b61050960048036038101906105049190611c01565b611382565b604051610517929190611c2e565b60405180910390f35b61053a60048036038101906105359190611caf565b6114c7565b6040516105479190611ceb565b60405180910390f35b34801561055c57600080fd5b5061057760048036038101906105729190611c01565b6115ef565b6040516105849190611ceb565b60405180910390f35b34801561059957600080fd5b506105a26115ff565b6040516105b0929190611add565b60405180910390f35b3480156105c557600080fd5b506105ce6116b9565b6040516105db9190611be6565b60405180910390f35b6105fe60048036038101906105f99190611b6d565b6117d3565b60405161060b9190611be6565b60405180910390f35b34801561062057600080fd5b50610629611806565b6040516106369190611d15565b60405180910390f35b34801561064b57600080fd5b5061066660048036038101906106619190611c01565b61180e565b6040516106739190611ceb565b60405180910390f35b600060608373ffffffffffffffffffffffffffffffffffffffff16836040516106a59190611d6c565b600060405180830381855afa9150503d80600081146106e0576040519150601f19603f3d011682016040523d82523d6000602084013e6106e5565b606091505b5080925081935050509250929050565b60006040513681016040523684823760405160208101604052602081368460008a620dbba0f2815193505050509392505050565b60008060008061016773ffffffffffffffffffffffffffffffffffffffff16856040516024016107599190611d15565b6040516020818303038152906040527f19f37361000000000000000000000000000000000000000000000000000000007bffffffffffffffffffffffffffffffffffffffffffffffffffffffff19166020820180517bffffffffffffffffffffffffffffffffffffffffffffffffffffffff83818316178352505050506040516107e39190611d6c565b600060405180830381855afa9150503d806000811461081e576040519150601f19603f3d011682016040523d82523d6000602084013e610823565b606091505b5091509150811561086457600080828060200190518101906108459190611de8565b915060030b915060168260070b14955085801561085f5750805b945050505b5050915091565b600080600061016973ffffffffffffffffffffffffffffffffffffffff166040516024016040516020818303038152906040527fd83bf9a1000000000000000000000000000000000000000000000000000000007bffffffffffffffffffffffffffffffffffffffffffffffffffffffff19166020820180517bffffffffffffffffffffffffffffffffffffffffffffffffffffffff83818316178352505050506040516109199190611d6c565b600060405180830381855af49150503d8060008114610954576040519150601f19603f3d011682016040523d82523d6000602084013e610959565b606091505b50915091508161096857600080fd5b8080602001905181019061097c9190611e54565b9250505090565b600080600061016973ffffffffffffffffffffffffffffffffffffffff166040516024016040516020818303038152906040527fd83bf9a1000000000000000000000000000000000000000000000000000000007bffffffffffffffffffffffffffffffffffffffffffffffffffffffff19166020820180517bffffffffffffffffffffffffffffffffffffffffffffffffffffffff8381831617835250505050604051610a319190611d6c565b600060405180830381855afa9150503d8060008114610a6c576040519150601f19603f3d011682016040523d82523d6000602084013e610a71565b606091505b509150915081610a8057600080fd5b80806020019051810190610a949190611e54565b9250505090565b60606000823b905060008167ffffffffffffffff811115610abf57610abe6118bc565b5b6040519080825280601f01601f191660200182016040528015610af15781602001600182028036833780820191505090505b50905081600060208301863c8092505050919050565b600080600061016973ffffffffffffffffffffffffffffffffffffffff16346040516024016040516020818303038152906040527fd83bf9a1000000000000000000000000000000000000000000000000000000007bffffffffffffffffffffffffffffffffffffffffffffffffffffffff19166020820180517bffffffffffffffffffffffffffffffffffffffffffffffffffffffff8381831617835250505050604051610bb69190611d6c565b60006040518083038185875af1925050503d8060008114610bf3576040519150601f19603f3d011682016040523d82523d6000602084013e610bf8565b606091505b509150915081610c0757600080fd5b80806020019051810190610c1b9190611e54565b9250505090565b600060606000604051602001610c3790611ede565b6040516020818303038152906040529050600080600473ffffffffffffffffffffffffffffffffffffffff1683604051602001610c749190611c57565b604051602081830303815290604052604051610c909190611d6c565b6000604051808303816000865af19150503d8060008114610ccd576040519150601f19603f3d011682016040523d82523d6000602084013e610cd2565b606091505b50915091505050509091565b60008060008061016773ffffffffffffffffffffffffffffffffffffffff1685604051602401610d0e9190611d15565b6040516020818303038152906040527f19f37361000000000000000000000000000000000000000000000000000000007bffffffffffffffffffffffffffffffffffffffffffffffffffffffff19166020820180517bffffffffffffffffffffffffffffffffffffffffffffffffffffffff8381831617835250505050604051610d989190611d6c565b600060405180830381855af49150503d8060008114610dd3576040519150601f19603f3d011682016040523d82523d6000602084013e610dd8565b606091505b50915091508115610e195760008082806020019051810190610dfa9190611de8565b915060030b915060168260070b149550858015610e145750805b945050505b5050915091565b600060606000604051602001610e3590611ede565b6040516020818303038152906040529050600080600473ffffffffffffffffffffffffffffffffffffffff1683604051602001610e729190611c57565b604051602081830303815290604052604051610e8e9190611d6c565b600060405180830381855af49150503d8060008114610ec9576040519150601f19603f3d011682016040523d82523d6000602084013e610ece565b606091505b50915091505050509091565b600060608373ffffffffffffffffffffffffffffffffffffffff1683604051610f039190611d6c565b6000604051808303816000865af19150503d8060008114610f40576040519150601f19603f3d011682016040523d82523d6000602084013e610f45565b606091505b5080925081935050509250929050565b600080823f905080915050919050565b60008060008061016773ffffffffffffffffffffffffffffffffffffffff1685604051602401610f959190611d15565b6040516020818303038152906040527f19f37361000000000000000000000000000000000000000000000000000000007bffffffffffffffffffffffffffffffffffffffffffffffffffffffff19166020820180517bffffffffffffffffffffffffffffffffffffffffffffffffffffffff838183161783525050505060405161101f9190611d6c565b6000604051808303816000865af19150503d806000811461105c576040519150601f19603f3d011682016040523d82523d6000602084013e611061565b606091505b509150915081156110a257600080828060200190518101906110839190611de8565b915060030b915060168260070b14955085801561109d5750805b945050505b5050915091565b600060608373ffffffffffffffffffffffffffffffffffffffff16836040516110d29190611d6c565b600060405180830381855af49150503d806000811461110d576040519150601f19603f3d011682016040523d82523d6000602084013e611112565b606091505b5080925081935050509250929050565b60006060600060405160200161113790611ede565b6040516020818303038152906040529050600080600473ffffffffffffffffffffffffffffffffffffffff1634846040516020016111759190611c57565b6040516020818303038152906040526040516111919190611d6c565b60006040518083038185875af1925050503d80600081146111ce576040519150601f19603f3d011682016040523d82523d6000602084013e6111d3565b606091505b50915091505050509091565b600060608373ffffffffffffffffffffffffffffffffffffffff1634846040516112099190611d6c565b60006040518083038185875af1925050503d8060008114611246576040519150601f19603f3d011682016040523d82523d6000602084013e61124b565b606091505b5080925081935050509250929050565b600080600061016873ffffffffffffffffffffffffffffffffffffffff168460405160240161128a9190611ceb565b6040516020818303038152906040527f2e3cff6a000000000000000000000000000000000000000000000000000000007bffffffffffffffffffffffffffffffffffffffffffffffffffffffff19166020820180517bffffffffffffffffffffffffffffffffffffffffffffffffffffffff83818316178352505050506040516113149190611d6c565b6000604051808303816000865af19150503d8060008114611351576040519150601f19603f3d011682016040523d82523d6000602084013e611356565b606091505b50915091508161136557600080fd5b808060200190518101906113799190611f13565b92505050919050565b60008060008061016773ffffffffffffffffffffffffffffffffffffffff1634866040516024016113b39190611d15565b6040516020818303038152906040527f19f37361000000000000000000000000000000000000000000000000000000007bffffffffffffffffffffffffffffffffffffffffffffffffffffffff19166020820180517bffffffffffffffffffffffffffffffffffffffffffffffffffffffff838183161783525050505060405161143d9190611d6c565b60006040518083038185875af1925050503d806000811461147a576040519150601f19603f3d011682016040523d82523d6000602084013e61147f565b606091505b509150915081156114c057600080828060200190518101906114a19190611de8565b915060030b915060168260070b1495508580156114bb5750805b945050505b5050915091565b600080600061016873ffffffffffffffffffffffffffffffffffffffff1634856040516024016114f79190611ceb565b6040516020818303038152906040527f2e3cff6a000000000000000000000000000000000000000000000000000000007bffffffffffffffffffffffffffffffffffffffffffffffffffffffff19166020820180517bffffffffffffffffffffffffffffffffffffffffffffffffffffffff83818316178352505050506040516115819190611d6c565b60006040518083038185875af1925050503d80600081146115be576040519150601f19603f3d011682016040523d82523d6000602084013e6115c3565b606091505b5091509150816115d257600080fd5b808060200190518101906115e69190611f13565b92505050919050565b600080823b905080915050919050565b60006060600060405160200161161490611ede565b6040516020818303038152906040529050600080600473ffffffffffffffffffffffffffffffffffffffff16836040516020016116519190611c57565b60405160208183030381529060405260405161166d9190611d6c565b600060405180830381855afa9150503d80600081146116a8576040519150601f19603f3d011682016040523d82523d6000602084013e6116ad565b606091505b50915091505050509091565b600080600061016973ffffffffffffffffffffffffffffffffffffffff166040516024016040516020818303038152906040527fd83bf9a1000000000000000000000000000000000000000000000000000000007bffffffffffffffffffffffffffffffffffffffffffffffffffffffff19166020820180517bffffffffffffffffffffffffffffffffffffffffffffffffffffffff83818316178352505050506040516117679190611d6c565b6000604051808303816000865af19150503d80600081146117a4576040519150601f19603f3d011682016040523d82523d6000602084013e6117a9565b606091505b5091509150816117b857600080fd5b808060200190518101906117cc9190611e54565b9250505090565b600060405136810160405236848237604051602081016040526020813684348a620dbba0f2815193505050509392505050565b600030905090565b60008173ffffffffffffffffffffffffffffffffffffffff16319050919050565b6000604051905090565b600080fd5b600080fd5b600073ffffffffffffffffffffffffffffffffffffffff82169050919050565b600061186e82611843565b9050919050565b61187e81611863565b811461188957600080fd5b50565b60008135905061189b81611875565b92915050565b600080fd5b600080fd5b6000601f19601f8301169050919050565b7f4e487b7100000000000000000000000000000000000000000000000000000000600052604160045260246000fd5b6118f4826118ab565b810181811067ffffffffffffffff82111715611913576119126118bc565b5b80604052505050565b600061192661182f565b905061193282826118eb565b919050565b600067ffffffffffffffff821115611952576119516118bc565b5b61195b826118ab565b9050602081019050919050565b82818337600083830152505050565b600061198a61198584611937565b61191c565b9050828152602081018484840111156119a6576119a56118a6565b5b6119b1848285611968565b509392505050565b600082601f8301126119ce576119cd6118a1565b5b81356119de848260208601611977565b91505092915050565b600080604083850312156119fe576119fd611839565b5b6000611a0c8582860161188c565b925050602083013567ffffffffffffffff811115611a2d57611a2c61183e565b5b611a39858286016119b9565b9150509250929050565b60008115159050919050565b611a5881611a43565b82525050565b600081519050919050565b600082825260208201905092915050565b60005b83811015611a98578082015181840152602081019050611a7d565b60008484015250505050565b6000611aaf82611a5e565b611ab98185611a69565b9350611ac9818560208601611a7a565b611ad2816118ab565b840191505092915050565b6000604082019050611af26000830185611a4f565b8181036020830152611b048184611aa4565b90509392505050565b600080fd5b600080fd5b60008083601f840112611b2d57611b2c6118a1565b5b8235905067ffffffffffffffff811115611b4a57611b49611b0d565b5b602083019150836001820283011115611b6657611b65611b12565b5b9250929050565b600080600060408486031215611b8657611b85611839565b5b6000611b948682870161188c565b935050602084013567ffffffffffffffff811115611bb557611bb461183e565b5b611bc186828701611b17565b92509250509250925092565b6000819050919050565b611be081611bcd565b82525050565b6000602082019050611bfb6000830184611bd7565b92915050565b600060208284031215611c1757611c16611839565b5b6000611c258482850161188c565b91505092915050565b6000604082019050611c436000830185611a4f565b611c506020830184611a4f565b9392505050565b60006020820190508181036000830152611c718184611aa4565b905092915050565b6000819050919050565b611c8c81611c79565b8114611c9757600080fd5b50565b600081359050611ca981611c83565b92915050565b600060208284031215611cc557611cc4611839565b5b6000611cd384828501611c9a565b91505092915050565b611ce581611c79565b82525050565b6000602082019050611d006000830184611cdc565b92915050565b611d0f81611863565b82525050565b6000602082019050611d2a6000830184611d06565b92915050565b600081905092915050565b6000611d4682611a5e565b611d508185611d30565b9350611d60818560208601611a7a565b80840191505092915050565b6000611d788284611d3b565b915081905092915050565b60008160030b9050919050565b611d9981611d83565b8114611da457600080fd5b50565b600081519050611db681611d90565b92915050565b611dc581611a43565b8114611dd057600080fd5b50565b600081519050611de281611dbc565b92915050565b60008060408385031215611dff57611dfe611839565b5b6000611e0d85828601611da7565b9250506020611e1e85828601611dd3565b9150509250929050565b611e3181611bcd565b8114611e3c57600080fd5b50565b600081519050611e4e81611e28565b92915050565b600060208284031215611e6a57611e69611839565b5b6000611e7884828501611e3f565b91505092915050565b600082825260208201905092915050565b7f48656c6c6f2c20576f726c640000000000000000000000000000000000000000600082015250565b6000611ec8600c83611e81565b9150611ed382611e92565b602082019050919050565b60006020820190508181036000830152611ef781611ebb565b9050919050565b600081519050611f0d81611c83565b92915050565b600060208284031215611f2957611f28611839565b5b6000611f3784828501611efe565b9150509291505056fea26469706673582212206bda6fdee0213387de2ad256148f515e0616c170d9d76630f24a35e4833729b364736f6c63430008130033",
  "linkReferences": {},
  "deployedLinkReferences": {}
}