{
  "_format": "hh-sol-artifact-1",
  "contractName": "EquivalenceContract",
  "sourceName": "contracts/EquivalenceContract.sol",
  "abi": [
    {
      "inputs": [
        {
          "internalType": "address",
          "name": "_addr",
          "type": "address"
        },
        {
          "internalType": "bytes",
          "name": "_customData",
          "type": "bytes"
        }
      ],
      "name": "callCodeToContractWithAmount",
      "outputs": [
        {
          "internalType": "bytes32",
          "name": "returnData",
          "type": "bytes32"
        }
      ],
      "stateMutability": "payable",
      "type": "function"
    },
    {
      "inputs": [
        {
          "internalType": "address",
          "name": "_addr",
          "type": "address"
        },
        {
          "internalType": "bytes",
          "name": "_customData",
          "type": "bytes"
        }
      ],
      "name": "callCodeToContractWithoutAmount",
      "outputs": [
        {
          "internalType": "bytes32",
          "name": "returnData",
          "type": "bytes32"
        }
      ],
      "stateMutability": "nonpayable",
      "type": "function"
    },
    {
      "inputs": [
        {
          "internalType": "address",
          "name": "_address",
          "type": "address"
        }
      ],
      "name": "copyCode",
      "outputs": [
        {
          "internalType": "bytes",
          "name": "",
          "type": "bytes"
        }
      ],
      "stateMutability": "view",
      "type": "function"
    },
    {
      "inputs": [
        {
          "internalType": "uint256",
          "name": "tinycents",
          "type": "uint256"
        }
      ],
      "name": "exchangeRateDelegateCall",
      "outputs": [
        {
          "internalType": "uint256",
          "name": "tinybars",
          "type": "uint256"
        }
      ],
      "stateMutability": "nonpayable",
      "type": "function"
    },
    {
      "inputs": [
        {
          "internalType": "uint256",
          "name": "tinycents",
          "type": "uint256"
        }
      ],
      "name": "exchangeRateStaticCall",
      "outputs": [
        {
          "internalType": "uint256",
          "name": "tinybars",
          "type": "uint256"
        }
      ],
      "stateMutability": "view",
      "type": "function"
    },
    {
      "inputs": [
        {
          "internalType": "uint256",
          "name": "tinycents",
          "type": "uint256"
        }
      ],
      "name": "exchangeRateWithAmount",
      "outputs": [
        {
          "internalType": "uint256",
          "name": "tinybars",
          "type": "uint256"
        }
      ],
      "stateMutability": "payable",
      "type": "function"
    },
    {
      "inputs": [
        {
          "internalType": "uint256",
          "name": "tinycents",
          "type": "uint256"
        }
      ],
      "name": "exchangeRateWithoutAmount",
      "outputs": [
        {
          "internalType": "uint256",
          "name": "tinybars",
          "type": "uint256"
        }
      ],
      "stateMutability": "nonpayable",
      "type": "function"
    },
    {
      "inputs": [
        {
          "internalType": "address",
          "name": "_address",
          "type": "address"
        }
      ],
      "name": "getBalance",
      "outputs": [
        {
          "internalType": "uint256",
          "name": "",
          "type": "uint256"
        }
      ],
      "stateMutability": "view",
      "type": "function"
    },
    {
      "inputs": [
        {
          "internalType": "address",
          "name": "_address",
          "type": "address"
        }
      ],
      "name": "getCodeHash",
      "outputs": [
        {
          "internalType": "bytes32",
          "name": "",
          "type": "bytes32"
        }
      ],
      "stateMutability": "view",
      "type": "function"
    },
    {
      "inputs": [
        {
          "internalType": "address",
          "name": "_address",
          "type": "address"
        }
      ],
      "name": "getCodeSize",
      "outputs": [
        {
          "internalType": "uint256",
          "name": "",
          "type": "uint256"
        }
      ],
      "stateMutability": "view",
      "type": "function"
    },
    {
      "inputs": [],
      "name": "getCurrentAddress",
      "outputs": [
        {
          "internalType": "address",
          "name": "",
          "type": "address"
        }
      ],
      "stateMutability": "nonpayable",
      "type": "function"
    },
    {
      "inputs": [],
      "name": "getPseudorandomSeed",
      "outputs": [
        {
          "internalType": "bytes32",
          "name": "randomBytes",
          "type": "bytes32"
        }
      ],
      "stateMutability": "nonpayable",
      "type": "function"
    },
    {
      "inputs": [],
      "name": "getPseudorandomSeedDelegateCall",
      "outputs": [
        {
          "internalType": "bytes32",
          "name": "randomBytes",
          "type": "bytes32"
        }
      ],
      "stateMutability": "nonpayable",
      "type": "function"
    },
    {
      "inputs": [],
      "name": "getPseudorandomSeedStaticCall",
      "outputs": [
        {
          "internalType": "bytes32",
          "name": "randomBytes",
          "type": "bytes32"
        }
      ],
      "stateMutability": "nonpayable",
      "type": "function"
    },
    {
      "inputs": [],
      "name": "getPseudorandomSeedWithAmount",
      "outputs": [
        {
          "internalType": "bytes32",
          "name": "randomBytes",
          "type": "bytes32"
        }
      ],
      "stateMutability": "payable",
      "type": "function"
    },
    {
      "inputs": [
        {
          "internalType": "address",
          "name": "token",
          "type": "address"
        }
      ],
      "name": "htsCallWithAmount",
      "outputs": [
        {
          "internalType": "bool",
          "name": "success",
          "type": "bool"
        },
        {
          "internalType": "bool",
          "name": "isToken",
          "type": "bool"
        }
      ],
      "stateMutability": "payable",
      "type": "function"
    },
    {
      "inputs": [
        {
          "internalType": "address",
          "name": "token",
          "type": "address"
        }
      ],
      "name": "htsCallWithoutAmount",
      "outputs": [
        {
          "internalType": "bool",
          "name": "success",
          "type": "bool"
        },
        {
          "internalType": "bool",
          "name": "isToken",
          "type": "bool"
        }
      ],
      "stateMutability": "nonpayable",
      "type": "function"
    },
    {
      "inputs": [
        {
          "internalType": "address",
          "name": "token",
          "type": "address"
        }
      ],
      "name": "htsDelegateCall",
      "outputs": [
        {
          "internalType": "bool",
          "name": "success",
          "type": "bool"
        },
        {
          "internalType": "bool",
          "name": "isToken",
          "type": "bool"
        }
      ],
      "stateMutability": "nonpayable",
      "type": "function"
    },
    {
      "inputs": [
        {
          "internalType": "address",
          "name": "token",
          "type": "address"
        }
      ],
      "name": "htsStaticCall",
      "outputs": [
        {
          "internalType": "bool",
          "name": "success",
          "type": "bool"
        },
        {
          "internalType": "bool",
          "name": "isToken",
          "type": "bool"
        }
      ],
      "stateMutability": "nonpayable",
      "type": "function"
    },
    {
      "inputs": [
        {
          "internalType": "address",
          "name": "_to",
          "type": "address"
        },
        {
          "internalType": "bytes",
          "name": "_data",
          "type": "bytes"
        }
      ],
      "name": "makeCallWithAmount",
      "outputs": [
        {
          "internalType": "bool",
          "name": "success",
          "type": "bool"
        },
        {
          "internalType": "bytes",
          "name": "returnData",
          "type": "bytes"
        }
      ],
      "stateMutability": "payable",
      "type": "function"
    },
    {
      "inputs": [],
      "name": "makeCallWithAmountToIdentityPrecompile",
      "outputs": [
        {
          "internalType": "bool",
          "name": "success",
          "type": "bool"
        },
        {
          "internalType": "bytes",
          "name": "returnData",
          "type": "bytes"
        }
      ],
      "stateMutability": "payable",
      "type": "function"
    },
    {
      "inputs": [
        {
          "internalType": "address",
          "name": "_to",
          "type": "address"
        },
        {
          "internalType": "bytes",
          "name": "_data",
          "type": "bytes"
        }
      ],
      "name": "makeCallWithoutAmount",
      "outputs": [
        {
          "internalType": "bool",
          "name": "success",
          "type": "bool"
        },
        {
          "internalType": "bytes",
          "name": "returnData",
          "type": "bytes"
        }
      ],
      "stateMutability": "nonpayable",
      "type": "function"
    },
    {
      "inputs": [],
      "name": "makeCallWithoutAmountToIdentityPrecompile",
      "outputs": [
        {
          "internalType": "bool",
          "name": "success",
          "type": "bool"
        },
        {
          "internalType": "bytes",
          "name": "returnData",
          "type": "bytes"
        }
      ],
      "stateMutability": "nonpayable",
      "type": "function"
    },
    {
      "inputs": [
        {
          "internalType": "address",
          "name": "_to",
          "type": "address"
        },
        {
          "internalType": "bytes",
          "name": "_data",
          "type": "bytes"
        }
      ],
      "name": "makeDelegateCall",
      "outputs": [
        {
          "internalType": "bool",
          "name": "success",
          "type": "bool"
        },
        {
          "internalType": "bytes",
          "name": "returnData",
          "type": "bytes"
        }
      ],
      "stateMutability": "nonpayable",
      "type": "function"
    },
    {
      "inputs": [],
      "name": "makeDelegateCallToIdentityPrecompile",
      "outputs": [
        {
          "internalType": "bool",
          "name": "success",
          "type": "bool"
        },
        {
          "internalType": "bytes",
          "name": "returnData",
          "type": "bytes"
        }
      ],
      "stateMutability": "nonpayable",
      "type": "function"
    },
    {
      "inputs": [
        {
          "internalType": "address",
          "name": "_to",
          "type": "address"
        },
        {
          "internalType": "bytes",
          "name": "_data",
          "type": "bytes"
        }
      ],
      "name": "makeStaticCall",
      "outputs": [
        {
          "internalType": "bool",
          "name": "success",
          "type": "bool"
        },
        {
          "internalType": "bytes",
          "name": "returnData",
          "type": "bytes"
        }
      ],
      "stateMutability": "nonpayable",
      "type": "function"
    },
    {
      "inputs": [],
      "name": "makeStaticCallToIdentityPrecompile",
      "outputs": [
        {
          "internalType": "bool",
          "name": "success",
          "type": "bool"
        },
        {
          "internalType": "bytes",
          "name": "returnData",
          "type": "bytes"
        }
      ],
      "stateMutability": "nonpayable",
      "type": "function"
    }
  ],
  "bytecode": "0x608060405234801561001057600080fd5b5061140e806100206000396000f3fe6080604052600436106101ac5760003560e01c806381ea4408116100ec578063b2a07c3e1161008a578063d83bf9a111610064578063d83bf9a11461044a578063e34c93b81461045f578063e717ea6114610472578063f8b2cb4f1461048d57600080fd5b8063b2a07c3e14610403578063b51c4f9614610416578063d558bd8e1461043557600080fd5b806388b0764a116100c657806388b0764a146103b557806391548228146103bd578063b0d869b1146103d0578063b2539b2e146103f057600080fd5b806381ea440814610356578063845b27cd146103755780638771074f1461039557600080fd5b80634e7315831161015957806367edbd6d1161013357806367edbd6d146102ec5780636f68a38e1461030157806375ce6519146103215780637e38d3a31461033657600080fd5b80634e73158314610297578063525c1362146102c45780636144ef6d146102e457600080fd5b8063310664501161018a578063310664501461024d57806343b82d461461026d5780634c3ff83a1461028257600080fd5b806315ed1411146101b157806319f88c7d146101e85780631d620e2a14610216575b600080fd5b3480156101bd57600080fd5b506101d16101cc366004611154565b6104b5565b6040516101df929190611272565b60405180910390f35b3480156101f457600080fd5b5061020861020336600461128d565b61051d565b6040519081526020016101df565b34801561022257600080fd5b50610236610231366004611310565b61054e565b6040805192151583529015156020830152016101df565b34801561025957600080fd5b50610208610268366004611332565b61062d565b34801561027957600080fd5b506102086106f1565b34801561028e57600080fd5b5061020861079a565b3480156102a357600080fd5b506102b76102b2366004611310565b610814565b6040516101df919061134b565b3480156102d057600080fd5b506102086102df366004611332565b610870565b610208610904565b3480156102f857600080fd5b506101d1610981565b34801561030d57600080fd5b5061023661031c366004611310565b610a4f565b34801561032d57600080fd5b506101d1610ae1565b34801561034257600080fd5b506101d1610351366004611154565b610b9c565b34801561036257600080fd5b50610208610371366004611310565b3f90565b34801561038157600080fd5b50610236610390366004611310565b610bf5565b3480156103a157600080fd5b506101d16103b0366004611154565b610c89565b6101d1610ce0565b6101d16103cb366004611154565b610d9e565b3480156103dc57600080fd5b506102086103eb366004611332565b610df8565b6102366103fe366004611310565b610e8e565b610208610411366004611332565b610f24565b34801561042257600080fd5b50610208610431366004611310565b3b90565b34801561044157600080fd5b506101d1610fbb565b34801561045657600080fd5b50610208611076565b61020861046d36600461128d565b6110f2565b34801561047e57600080fd5b506040513081526020016101df565b34801561049957600080fd5b506102086104a8366004611310565b6001600160a01b03163190565b60006060836001600160a01b0316836040516104d1919061135e565b600060405180830381855afa9150503d806000811461050c576040519150601f19603f3d011682016040523d82523d6000602084013e610511565b606091505b50909590945092505050565b60006040513681016040523684823760405160208101604052602081368460008a620dbba0f2505195945050505050565b6040516001600160a01b03821660248201526000908190819081906101679060440160408051601f198184030181529181526020820180516001600160e01b03166319f3736160e01b179052516105a5919061135e565b600060405180830381855afa9150503d80600081146105e0576040519150601f19603f3d011682016040523d82523d6000602084013e6105e5565b606091505b509150915081156106265760008082806020019051810190610607919061137a565b915060030b91508160070b60161495508580156106215750805b945050505b5050915091565b60008060006101686001600160a01b03168460405160240161065191815260200190565b60408051601f198184030181529181526020820180516001600160e01b031663171e7fb560e11b17905251610686919061135e565b600060405180830381855af49150503d80600081146106c1576040519150601f19603f3d011682016040523d82523d6000602084013e6106c6565b606091505b5091509150816106d557600080fd5b808060200190518101906106e991906113bf565b949350505050565b60408051600481526024810182526020810180516001600160e01b031663d83bf9a160e01b17905290516000918291829161016991610730919061135e565b600060405180830381855af49150503d806000811461076b576040519150601f19603f3d011682016040523d82523d6000602084013e610770565b606091505b50915091508161077f57600080fd5b8080602001905181019061079391906113bf565b9250505090565b60408051600481526024810182526020810180516001600160e01b031663d83bf9a160e01b179052905160009182918291610169916107d9919061135e565b600060405180830381855afa9150503d806000811461076b576040519150601f19603f3d011682016040523d82523d6000602084013e610770565b6060813b60008167ffffffffffffffff8111156108335761083361113e565b6040519080825280601f01601f19166020018201604052801561085d576020820181803683370190505b50905081600060208301863c9392505050565b60008060006101686001600160a01b03168460405160240161089491815260200190565b60408051601f198184030181529181526020820180516001600160e01b031663171e7fb560e11b179052516108c9919061135e565b600060405180830381855afa9150503d80600081146106c1576040519150601f19603f3d011682016040523d82523d6000602084013e6106c6565b60408051600481526024810182526020810180516001600160e01b031663d83bf9a160e01b1790529051600091829182916101699134916109449161135e565b60006040518083038185875af1925050503d806000811461076b576040519150601f19603f3d011682016040523d82523d6000602084013e610770565b6000606060006040516020016109b7906020808252600c908201526b12195b1b1bcb0815dbdc9b1960a21b604082015260600190565b604051602081830303815290604052905060008060046001600160a01b0316836040516020016109e7919061134b565b60408051601f1981840301815290829052610a019161135e565b6000604051808303816000865af19150503d8060008114610a3e576040519150601f19603f3d011682016040523d82523d6000602084013e610a43565b606091505b50915091505050509091565b6040516001600160a01b03821660248201526000908190819081906101679060440160408051601f198184030181529181526020820180516001600160e01b03166319f3736160e01b17905251610aa6919061135e565b600060405180830381855af49150503d80600081146105e0576040519150601f19603f3d011682016040523d82523d6000602084013e6105e5565b600060606000604051602001610b17906020808252600c908201526b12195b1b1bcb0815dbdc9b1960a21b604082015260600190565b604051602081830303815290604052905060008060046001600160a01b031683604051602001610b47919061134b565b60408051601f1981840301815290829052610b619161135e565b600060405180830381855af49150503d8060008114610a3e576040519150601f19603f3d011682016040523d82523d6000602084013e610a43565b60006060836001600160a01b031683604051610bb8919061135e565b6000604051808303816000865af19150503d806000811461050c576040519150601f19603f3d011682016040523d82523d6000602084013e610511565b6040516001600160a01b03821660248201526000908190819081906101679060440160408051601f198184030181529181526020820180516001600160e01b03166319f3736160e01b17905251610c4c919061135e565b6000604051808303816000865af19150503d80600081146105e0576040519150601f19603f3d011682016040523d82523d6000602084013e6105e5565b60006060836001600160a01b031683604051610ca5919061135e565b600060405180830381855af49150503d806000811461050c576040519150601f19603f3d011682016040523d82523d6000602084013e610511565b600060606000604051602001610d16906020808252600c908201526b12195b1b1bcb0815dbdc9b1960a21b604082015260600190565b604051602081830303815290604052905060008060046001600160a01b03163484604051602001610d47919061134b565b60408051601f1981840301815290829052610d619161135e565b60006040518083038185875af1925050503d8060008114610a3e576040519150601f19603f3d011682016040523d82523d6000602084013e610a43565b60006060836001600160a01b03163484604051610dbb919061135e565b60006040518083038185875af1925050503d806000811461050c576040519150601f19603f3d011682016040523d82523d6000602084013e610511565b60008060006101686001600160a01b031684604051602401610e1c91815260200190565b60408051601f198184030181529181526020820180516001600160e01b031663171e7fb560e11b17905251610e51919061135e565b6000604051808303816000865af19150503d80600081146106c1576040519150601f19603f3d011682016040523d82523d6000602084013e6106c6565b6040516001600160a01b038216602482015260009081908190819061016790349060440160408051601f198184030181529181526020820180516001600160e01b03166319f3736160e01b17905251610ee7919061135e565b60006040518083038185875af1925050503d80600081146105e0576040519150601f19603f3d011682016040523d82523d6000602084013e6105e5565b60008060006101686001600160a01b03163485604051602401610f4991815260200190565b60408051601f198184030181529181526020820180516001600160e01b031663171e7fb560e11b17905251610f7e919061135e565b60006040518083038185875af1925050503d80600081146106c1576040519150601f19603f3d011682016040523d82523d6000602084013e6106c6565b600060606000604051602001610ff1906020808252600c908201526b12195b1b1bcb0815dbdc9b1960a21b604082015260600190565b604051602081830303815290604052905060008060046001600160a01b031683604051602001611021919061134b565b60408051601f198184030181529082905261103b9161135e565b600060405180830381855afa9150503d8060008114610a3e576040519150601f19603f3d011682016040523d82523d6000602084013e610a43565b60408051600481526024810182526020810180516001600160e01b031663d83bf9a160e01b179052905160009182918291610169916110b5919061135e565b6000604051808303816000865af19150503d806000811461076b576040519150601f19603f3d011682016040523d82523d6000602084013e610770565b600060405136810160405236848237604051602081016040526020813684348a620dbba0f2505195945050505050565b80356001600160a01b038116811461113957600080fd5b919050565b634e487b7160e01b600052604160045260246000fd5b6000806040838503121561116757600080fd5b61117083611122565b9150602083013567ffffffffffffffff8082111561118d57600080fd5b818501915085601f8301126111a157600080fd5b8135818111156111b3576111b361113e565b604051601f8201601f19908116603f011681019083821181831017156111db576111db61113e565b816040528281528860208487010111156111f457600080fd5b8260208601602083013760006020848301015280955050505050509250929050565b60005b83811015611231578181015183820152602001611219565b83811115611240576000848401525b50505050565b6000815180845261125e816020860160208601611216565b601f01601f19169290920160200192915050565b82151581526040602082015260006106e96040830184611246565b6000806000604084860312156112a257600080fd5b6112ab84611122565b9250602084013567ffffffffffffffff808211156112c857600080fd5b818601915086601f8301126112dc57600080fd5b8135818111156112eb57600080fd5b8760208285010111156112fd57600080fd5b6020830194508093505050509250925092565b60006020828403121561132257600080fd5b61132b82611122565b9392505050565b60006020828403121561134457600080fd5b5035919050565b60208152600061132b6020830184611246565b60008251611370818460208701611216565b9190910192915050565b6000806040838503121561138d57600080fd5b82518060030b811461139e57600080fd5b602084015190925080151581146113b457600080fd5b809150509250929050565b6000602082840312156113d157600080fd5b505191905056fea2646970667358221220598be3cfa75797a8cbff2f91407ad6b3da1c4d876789a695d25fafcc3f2a7db764736f6c63430008090033",
  "linkReferences": {},
  "deployedLinkReferences": {}
}