{
  "_format": "hh-sol-artifact-1",
  "contractName": "ERC721Mock",
  "sourceName": "contracts/ERC721Mock.sol",
  "abi": [
    {
      "inputs": [
        {
          "internalType": "string",
          "name": "name",
          "type": "string"
        },
        {
          "internalType": "string",
          "name": "symbol",
          "type": "string"
        }
      ],
      "stateMutability": "nonpayable",
      "type": "constructor"
    },
    {
      "anonymous": false,
      "inputs": [
        {
          "indexed": true,
          "internalType": "address",
          "name": "owner",
          "type": "address"
        },
        {
          "indexed": true,
          "internalType": "address",
          "name": "approved",
          "type": "address"
        },
        {
          "indexed": true,
          "internalType": "uint256",
          "name": "tokenId",
          "type": "uint256"
        }
      ],
      "name": "Approval",
      "type": "event"
    },
    {
      "anonymous": false,
      "inputs": [
        {
          "indexed": true,
          "internalType": "address",
          "name": "owner",
          "type": "address"
        },
        {
          "indexed": true,
          "internalType": "address",
          "name": "operator",
          "type": "address"
        },
        {
          "indexed": false,
          "internalType": "bool",
          "name": "approved",
          "type": "bool"
        }
      ],
      "name": "ApprovalForAll",
      "type": "event"
    },
    {
      "anonymous": false,
      "inputs": [
        {
          "indexed": true,
          "internalType": "address",
          "name": "from",
          "type": "address"
        },
        {
          "indexed": true,
          "internalType": "address",
          "name": "to",
          "type": "address"
        },
        {
          "indexed": true,
          "internalType": "uint256",
          "name": "tokenId",
          "type": "uint256"
        }
      ],
      "name": "Transfer",
      "type": "event"
    },
    {
      "inputs": [
        {
          "internalType": "address",
          "name": "to",
          "type": "address"
        },
        {
          "internalType": "uint256",
          "name": "tokenId",
          "type": "uint256"
        }
      ],
      "name": "approve",
      "outputs": [],
      "stateMutability": "nonpayable",
      "type": "function"
    },
    {
      "inputs": [
        {
          "internalType": "address",
          "name": "owner",
          "type": "address"
        }
      ],
      "name": "balanceOf",
      "outputs": [
        {
          "internalType": "uint256",
          "name": "",
          "type": "uint256"
        }
      ],
      "stateMutability": "view",
      "type": "function"
    },
    {
      "inputs": [],
      "name": "baseURI",
      "outputs": [
        {
          "internalType": "string",
          "name": "",
          "type": "string"
        }
      ],
      "stateMutability": "view",
      "type": "function"
    },
    {
      "inputs": [
        {
          "internalType": "uint256",
          "name": "tokenId",
          "type": "uint256"
        }
      ],
      "name": "burn",
      "outputs": [],
      "stateMutability": "nonpayable",
      "type": "function"
    },
    {
      "inputs": [
        {
          "internalType": "uint256",
          "name": "tokenId",
          "type": "uint256"
        }
      ],
      "name": "exists",
      "outputs": [
        {
          "internalType": "bool",
          "name": "",
          "type": "bool"
        }
      ],
      "stateMutability": "view",
      "type": "function"
    },
    {
      "inputs": [
        {
          "internalType": "uint256",
          "name": "tokenId",
          "type": "uint256"
        }
      ],
      "name": "getApproved",
      "outputs": [
        {
          "internalType": "address",
          "name": "",
          "type": "address"
        }
      ],
      "stateMutability": "view",
      "type": "function"
    },
    {
      "inputs": [
        {
          "internalType": "address",
          "name": "owner",
          "type": "address"
        },
        {
          "internalType": "address",
          "name": "operator",
          "type": "address"
        }
      ],
      "name": "isApprovedForAll",
      "outputs": [
        {
          "internalType": "bool",
          "name": "",
          "type": "bool"
        }
      ],
      "stateMutability": "view",
      "type": "function"
    },
    {
      "inputs": [
        {
          "internalType": "address",
          "name": "to",
          "type": "address"
        },
        {
          "internalType": "uint256",
          "name": "tokenId",
          "type": "uint256"
        }
      ],
      "name": "mint",
      "outputs": [],
      "stateMutability": "nonpayable",
      "type": "function"
    },
    {
      "inputs": [],
      "name": "name",
      "outputs": [
        {
          "internalType": "string",
          "name": "",
          "type": "string"
        }
      ],
      "stateMutability": "view",
      "type": "function"
    },
    {
      "inputs": [
        {
          "internalType": "uint256",
          "name": "tokenId",
          "type": "uint256"
        }
      ],
      "name": "ownerOf",
      "outputs": [
        {
          "internalType": "address",
          "name": "",
          "type": "address"
        }
      ],
      "stateMutability": "view",
      "type": "function"
    },
    {
      "inputs": [
        {
          "internalType": "address",
          "name": "to",
          "type": "address"
        },
        {
          "internalType": "uint256",
          "name": "tokenId",
          "type": "uint256"
        },
        {
          "internalType": "bytes",
          "name": "_data",
          "type": "bytes"
        }
      ],
      "name": "safeMint",
      "outputs": [],
      "stateMutability": "nonpayable",
      "type": "function"
    },
    {
      "inputs": [
        {
          "internalType": "address",
          "name": "to",
          "type": "address"
        },
        {
          "internalType": "uint256",
          "name": "tokenId",
          "type": "uint256"
        }
      ],
      "name": "safeMint",
      "outputs": [],
      "stateMutability": "nonpayable",
      "type": "function"
    },
    {
      "inputs": [
        {
          "internalType": "address",
          "name": "from",
          "type": "address"
        },
        {
          "internalType": "address",
          "name": "to",
          "type": "address"
        },
        {
          "internalType": "uint256",
          "name": "tokenId",
          "type": "uint256"
        }
      ],
      "name": "safeTransferFrom",
      "outputs": [],
      "stateMutability": "nonpayable",
      "type": "function"
    },
    {
      "inputs": [
        {
          "internalType": "address",
          "name": "from",
          "type": "address"
        },
        {
          "internalType": "address",
          "name": "to",
          "type": "address"
        },
        {
          "internalType": "uint256",
          "name": "tokenId",
          "type": "uint256"
        },
        {
          "internalType": "bytes",
          "name": "data",
          "type": "bytes"
        }
      ],
      "name": "safeTransferFrom",
      "outputs": [],
      "stateMutability": "nonpayable",
      "type": "function"
    },
    {
      "inputs": [
        {
          "internalType": "address",
          "name": "operator",
          "type": "address"
        },
        {
          "internalType": "bool",
          "name": "approved",
          "type": "bool"
        }
      ],
      "name": "setApprovalForAll",
      "outputs": [],
      "stateMutability": "nonpayable",
      "type": "function"
    },
    {
      "inputs": [
        {
          "internalType": "bytes4",
          "name": "interfaceId",
          "type": "bytes4"
        }
      ],
      "name": "supportsInterface",
      "outputs": [
        {
          "internalType": "bool",
          "name": "",
          "type": "bool"
        }
      ],
      "stateMutability": "view",
      "type": "function"
    },
    {
      "inputs": [],
      "name": "symbol",
      "outputs": [
        {
          "internalType": "string",
          "name": "",
          "type": "string"
        }
      ],
      "stateMutability": "view",
      "type": "function"
    },
    {
      "inputs": [
        {
          "internalType": "uint256",
          "name": "tokenId",
          "type": "uint256"
        }
      ],
      "name": "tokenURI",
      "outputs": [
        {
          "internalType": "string",
          "name": "",
          "type": "string"
        }
      ],
      "stateMutability": "view",
      "type": "function"
    },
    {
      "inputs": [
        {
          "internalType": "address",
          "name": "from",
          "type": "address"
        },
        {
          "internalType": "address",
          "name": "to",
          "type": "address"
        },
        {
          "internalType": "uint256",
          "name": "tokenId",
          "type": "uint256"
        }
      ],
      "name": "transferFrom",
      "outputs": [],
      "stateMutability": "nonpayable",
      "type": "function"
    }
  ],
  "bytecode": "0x60806040523480156200001157600080fd5b50604051620019cd380380620019cd8339810160408190526200003491620001e1565b8151829082906200004d9060009060208501906200006e565b508051620000639060019060208401906200006e565b505050505062000288565b8280546200007c906200024b565b90600052602060002090601f016020900481019282620000a05760008555620000eb565b82601f10620000bb57805160ff1916838001178555620000eb565b82800160010185558215620000eb579182015b82811115620000eb578251825591602001919060010190620000ce565b50620000f9929150620000fd565b5090565b5b80821115620000f95760008155600101620000fe565b634e487b7160e01b600052604160045260246000fd5b600082601f8301126200013c57600080fd5b81516001600160401b038082111562000159576200015962000114565b604051601f8301601f19908116603f0116810190828211818310171562000184576200018462000114565b81604052838152602092508683858801011115620001a157600080fd5b600091505b83821015620001c55785820183015181830184015290820190620001a6565b83821115620001d75760008385830101525b9695505050505050565b60008060408385031215620001f557600080fd5b82516001600160401b03808211156200020d57600080fd5b6200021b868387016200012a565b935060208501519150808211156200023257600080fd5b5062000241858286016200012a565b9150509250929050565b600181811c908216806200026057607f821691505b602082108114156200028257634e487b7160e01b600052602260045260246000fd5b50919050565b61173580620002986000396000f3fe608060405234801561001057600080fd5b50600436106101515760003560e01c80636352211e116100cd578063a144819411610081578063b88d4fde11610066578063b88d4fde146102af578063c87b56dd146102c2578063e985e9c5146102d557600080fd5b8063a144819414610289578063a22cb4651461029c57600080fd5b806370a08231116100b257806370a082311461024d5780638832e6e31461026e57806395d89b411461028157600080fd5b80636352211e146102325780636c0360eb1461024557600080fd5b806323b872dd1161012457806342842e0e1161010957806342842e0e146101f957806342966c681461020c5780634f558e791461021f57600080fd5b806323b872dd146101d357806340c10f19146101e657600080fd5b806301ffc9a71461015657806306fdde031461017e578063081812fc14610193578063095ea7b3146101be575b600080fd5b610169610164366004611279565b610311565b60405190151581526020015b60405180910390f35b6101866103ae565b60405161017591906112ee565b6101a66101a1366004611301565b610440565b6040516001600160a01b039091168152602001610175565b6101d16101cc366004611336565b610467565b005b6101d16101e1366004611360565b61059e565b6101d16101f4366004611336565b610625565b6101d1610207366004611360565b610633565b6101d161021a366004611301565b61064e565b61016961022d366004611301565b61065a565b6101a6610240366004611301565b610679565b6101866106de565b61026061025b36600461139c565b6106fa565b604051908152602001610175565b6101d161027c36600461145a565b610794565b61018661079f565b6101d1610297366004611336565b6107ae565b6101d16102aa3660046114b1565b6107b8565b6101d16102bd3660046114ed565b6107c3565b6101866102d0366004611301565b610851565b6101696102e3366004611555565b6001600160a01b03918216600090815260056020908152604080832093909416825291909152205460ff1690565b60006001600160e01b031982167f80ac58cd00000000000000000000000000000000000000000000000000000000148061037457506001600160e01b031982167f5b5e139f00000000000000000000000000000000000000000000000000000000145b806103a857507f01ffc9a7000000000000000000000000000000000000000000000000000000006001600160e01b03198316145b92915050565b6060600080546103bd90611588565b80601f01602080910402602001604051908101604052809291908181526020018280546103e990611588565b80156104365780601f1061040b57610100808354040283529160200191610436565b820191906000526020600020905b81548152906001019060200180831161041957829003601f168201915b5050505050905090565b600061044b826108c5565b506000908152600460205260409020546001600160a01b031690565b600061047282610679565b9050806001600160a01b0316836001600160a01b031614156105015760405162461bcd60e51b815260206004820152602160248201527f4552433732313a20617070726f76616c20746f2063757272656e74206f776e6560448201527f720000000000000000000000000000000000000000000000000000000000000060648201526084015b60405180910390fd5b336001600160a01b038216148061051d575061051d81336102e3565b61058f5760405162461bcd60e51b815260206004820152603e60248201527f4552433732313a20617070726f76652063616c6c6572206973206e6f7420746f60448201527f6b656e206f776e6572206e6f7220617070726f76656420666f7220616c6c000060648201526084016104f8565b6105998383610929565b505050565b6105a833826109a4565b61061a5760405162461bcd60e51b815260206004820152602e60248201527f4552433732313a2063616c6c6572206973206e6f7420746f6b656e206f776e6560448201527f72206e6f7220617070726f76656400000000000000000000000000000000000060648201526084016104f8565b610599838383610a23565b61062f8282610bfd565b5050565b610599838383604051806020016040528060008152506107c3565b61065781610d4c565b50565b6000818152600260205260408120546001600160a01b031615156103a8565b6000818152600260205260408120546001600160a01b0316806103a85760405162461bcd60e51b815260206004820152601860248201527f4552433732313a20696e76616c696420746f6b656e204944000000000000000060448201526064016104f8565b60606106f560408051602081019091526000815290565b905090565b60006001600160a01b0382166107785760405162461bcd60e51b815260206004820152602960248201527f4552433732313a2061646472657373207a65726f206973206e6f74206120766160448201527f6c6964206f776e6572000000000000000000000000000000000000000000000060648201526084016104f8565b506001600160a01b031660009081526003602052604090205490565b610599838383610df4565b6060600180546103bd90611588565b61062f8282610e72565b61062f338383610e8c565b6107cd33836109a4565b61083f5760405162461bcd60e51b815260206004820152602e60248201527f4552433732313a2063616c6c6572206973206e6f7420746f6b656e206f776e6560448201527f72206e6f7220617070726f76656400000000000000000000000000000000000060648201526084016104f8565b61084b84848484610f5b565b50505050565b606061085c826108c5565b600061087360408051602081019091526000815290565b9050600081511161089357604051806020016040528060008152506108be565b8061089d84610fd9565b6040516020016108ae9291906115c3565b6040516020818303038152906040525b9392505050565b6000818152600260205260409020546001600160a01b03166106575760405162461bcd60e51b815260206004820152601860248201527f4552433732313a20696e76616c696420746f6b656e204944000000000000000060448201526064016104f8565b6000818152600460205260409020805473ffffffffffffffffffffffffffffffffffffffff19166001600160a01b038416908117909155819061096b82610679565b6001600160a01b03167f8c5be1e5ebec7d5bd14f71427d1e84f3dd0314c0f7b2291e5b200ac8c7c3b92560405160405180910390a45050565b6000806109b083610679565b9050806001600160a01b0316846001600160a01b031614806109f757506001600160a01b0380821660009081526005602090815260408083209388168352929052205460ff165b80610a1b5750836001600160a01b0316610a1084610440565b6001600160a01b0316145b949350505050565b826001600160a01b0316610a3682610679565b6001600160a01b031614610ab25760405162461bcd60e51b815260206004820152602560248201527f4552433732313a207472616e736665722066726f6d20696e636f72726563742060448201527f6f776e657200000000000000000000000000000000000000000000000000000060648201526084016104f8565b6001600160a01b038216610b2d5760405162461bcd60e51b8152602060048201526024808201527f4552433732313a207472616e7366657220746f20746865207a65726f2061646460448201527f726573730000000000000000000000000000000000000000000000000000000060648201526084016104f8565b610b38600082610929565b6001600160a01b0383166000908152600360205260408120805460019290610b61908490611608565b90915550506001600160a01b0382166000908152600360205260408120805460019290610b8f90849061161f565b9091555050600081815260026020526040808220805473ffffffffffffffffffffffffffffffffffffffff19166001600160a01b0386811691821790925591518493918716917fddf252ad1be2c89b69c2b068fc378daa952ba7f163c4a11628f55a4df523b3ef91a4505050565b6001600160a01b038216610c535760405162461bcd60e51b815260206004820181905260248201527f4552433732313a206d696e7420746f20746865207a65726f206164647265737360448201526064016104f8565b6000818152600260205260409020546001600160a01b031615610cb85760405162461bcd60e51b815260206004820152601c60248201527f4552433732313a20746f6b656e20616c7265616479206d696e7465640000000060448201526064016104f8565b6001600160a01b0382166000908152600360205260408120805460019290610ce190849061161f565b9091555050600081815260026020526040808220805473ffffffffffffffffffffffffffffffffffffffff19166001600160a01b03861690811790915590518392907fddf252ad1be2c89b69c2b068fc378daa952ba7f163c4a11628f55a4df523b3ef908290a45050565b6000610d5782610679565b9050610d64600083610929565b6001600160a01b0381166000908152600360205260408120805460019290610d8d908490611608565b9091555050600082815260026020526040808220805473ffffffffffffffffffffffffffffffffffffffff19169055518391906001600160a01b038416907fddf252ad1be2c89b69c2b068fc378daa952ba7f163c4a11628f55a4df523b3ef908390a45050565b610dfe8383610bfd565b610e0b600084848461110b565b6105995760405162461bcd60e51b815260206004820152603260248201527f4552433732313a207472616e7366657220746f206e6f6e20455243373231526560448201527131b2b4bb32b91034b6b83632b6b2b73a32b960711b60648201526084016104f8565b61062f828260405180602001604052806000815250610df4565b816001600160a01b0316836001600160a01b03161415610eee5760405162461bcd60e51b815260206004820152601960248201527f4552433732313a20617070726f766520746f2063616c6c65720000000000000060448201526064016104f8565b6001600160a01b03838116600081815260056020908152604080832094871680845294825291829020805460ff191686151590811790915591519182527f17307eab39ab6107e8899845ad3d59bd9653f200f220920489ca2b5937696c31910160405180910390a3505050565b610f66848484610a23565b610f728484848461110b565b61084b5760405162461bcd60e51b815260206004820152603260248201527f4552433732313a207472616e7366657220746f206e6f6e20455243373231526560448201527131b2b4bb32b91034b6b83632b6b2b73a32b960711b60648201526084016104f8565b60608161101957505060408051808201909152600181527f3000000000000000000000000000000000000000000000000000000000000000602082015290565b8160005b8115611043578061102d81611637565b915061103c9050600a83611668565b915061101d565b60008167ffffffffffffffff81111561105e5761105e6113b7565b6040519080825280601f01601f191660200182016040528015611088576020820181803683370190505b5090505b8415610a1b5761109d600183611608565b91506110aa600a8661167c565b6110b590603061161f565b60f81b8183815181106110ca576110ca611690565b60200101907effffffffffffffffffffffffffffffffffffffffffffffffffffffffffffff1916908160001a905350611104600a86611668565b945061108c565b60006001600160a01b0384163b1561125857604051630a85bd0160e11b81526001600160a01b0385169063150b7a029061114f9033908990889088906004016116a6565b602060405180830381600087803b15801561116957600080fd5b505af1925050508015611199575060408051601f3d908101601f19168201909252611196918101906116e2565b60015b61123e573d8080156111c7576040519150601f19603f3d011682016040523d82523d6000602084013e6111cc565b606091505b5080516112365760405162461bcd60e51b815260206004820152603260248201527f4552433732313a207472616e7366657220746f206e6f6e20455243373231526560448201527131b2b4bb32b91034b6b83632b6b2b73a32b960711b60648201526084016104f8565b805181602001fd5b6001600160e01b031916630a85bd0160e11b149050610a1b565b506001949350505050565b6001600160e01b03198116811461065757600080fd5b60006020828403121561128b57600080fd5b81356108be81611263565b60005b838110156112b1578181015183820152602001611299565b8381111561084b5750506000910152565b600081518084526112da816020860160208601611296565b601f01601f19169290920160200192915050565b6020815260006108be60208301846112c2565b60006020828403121561131357600080fd5b5035919050565b80356001600160a01b038116811461133157600080fd5b919050565b6000806040838503121561134957600080fd5b6113528361131a565b946020939093013593505050565b60008060006060848603121561137557600080fd5b61137e8461131a565b925061138c6020850161131a565b9150604084013590509250925092565b6000602082840312156113ae57600080fd5b6108be8261131a565b634e487b7160e01b600052604160045260246000fd5b600082601f8301126113de57600080fd5b813567ffffffffffffffff808211156113f9576113f96113b7565b604051601f8301601f19908116603f01168101908282118183101715611421576114216113b7565b8160405283815286602085880101111561143a57600080fd5b836020870160208301376000602085830101528094505050505092915050565b60008060006060848603121561146f57600080fd5b6114788461131a565b925060208401359150604084013567ffffffffffffffff81111561149b57600080fd5b6114a7868287016113cd565b9150509250925092565b600080604083850312156114c457600080fd5b6114cd8361131a565b9150602083013580151581146114e257600080fd5b809150509250929050565b6000806000806080858703121561150357600080fd5b61150c8561131a565b935061151a6020860161131a565b925060408501359150606085013567ffffffffffffffff81111561153d57600080fd5b611549878288016113cd565b91505092959194509250565b6000806040838503121561156857600080fd5b6115718361131a565b915061157f6020840161131a565b90509250929050565b600181811c9082168061159c57607f821691505b602082108114156115bd57634e487b7160e01b600052602260045260246000fd5b50919050565b600083516115d5818460208801611296565b8351908301906115e9818360208801611296565b01949350505050565b634e487b7160e01b600052601160045260246000fd5b60008282101561161a5761161a6115f2565b500390565b60008219821115611632576116326115f2565b500190565b600060001982141561164b5761164b6115f2565b5060010190565b634e487b7160e01b600052601260045260246000fd5b60008261167757611677611652565b500490565b60008261168b5761168b611652565b500690565b634e487b7160e01b600052603260045260246000fd5b60006001600160a01b038087168352808616602084015250836040830152608060608301526116d860808301846112c2565b9695505050505050565b6000602082840312156116f457600080fd5b81516108be8161126356fea26469706673582212204e1c1396bae409cb049021fe8fa8a0e1dc6c0e013502c1f261f96d7a0f45942864736f6c63430008090033",
  "linkReferences": {},
  "deployedLinkReferences": {}
}