{
  "_format": "hh-sol-artifact-1",
  "contractName": "EstimateGasContract",
  "sourceName": "contracts/EstimateGasContract.sol",
  "abi": [
    {
      "inputs": [],
      "stateMutability": "nonpayable",
      "type": "constructor"
    },
    {
      "inputs": [
        {
          "internalType": "address",
          "name": "addr",
          "type": "address"
        }
      ],
      "name": "addressBalance",
      "outputs": [
        {
          "internalType": "uint256",
          "name": "",
          "type": "uint256"
        }
      ],
      "stateMutability": "view",
      "type": "function"
    },
    {
      "inputs": [],
      "name": "callCodeToContract",
      "outputs": [
        {
          "internalType": "address",
          "name": "",
          "type": "address"
        }
      ],
      "stateMutability": "nonpayable",
      "type": "function"
    },
    {
      "inputs": [
        {
          "internalType": "address",
          "name": "_invalidContract",
          "type": "address"
        }
      ],
      "name": "callCodeToInvalidContract",
      "outputs": [],
      "stateMutability": "nonpayable",
      "type": "function"
    },
    {
      "inputs": [
        {
          "internalType": "uint256",
          "name": "_n",
          "type": "uint256"
        },
        {
          "internalType": "address",
          "name": "_contractAddress",
          "type": "address"
        }
      ],
      "name": "callExternalFunctionNTimes",
      "outputs": [],
      "stateMutability": "nonpayable",
      "type": "function"
    },
    {
      "inputs": [
        {
          "internalType": "uint256",
          "name": "_n",
          "type": "uint256"
        },
        {
          "internalType": "address",
          "name": "_contractAddress",
          "type": "address"
        }
      ],
      "name": "callExternalViewFunctionNTimes",
      "outputs": [],
      "stateMutability": "nonpayable",
      "type": "function"
    },
    {
      "inputs": [
        {
          "internalType": "address",
          "name": "_invalidContract",
          "type": "address"
        }
      ],
      "name": "callToInvalidContract",
      "outputs": [],
      "stateMutability": "nonpayable",
      "type": "function"
    },
    {
      "inputs": [],
      "name": "counter",
      "outputs": [
        {
          "internalType": "uint256",
          "name": "",
          "type": "uint256"
        }
      ],
      "stateMutability": "view",
      "type": "function"
    },
    {
      "inputs": [],
      "name": "delegateCallToContract",
      "outputs": [
        {
          "internalType": "address",
          "name": "",
          "type": "address"
        }
      ],
      "stateMutability": "nonpayable",
      "type": "function"
    },
    {
      "inputs": [
        {
          "internalType": "address",
          "name": "_invalidContract",
          "type": "address"
        }
      ],
      "name": "delegateCallToInvalidContract",
      "outputs": [],
      "stateMutability": "nonpayable",
      "type": "function"
    },
    {
      "inputs": [
        {
          "internalType": "uint256",
          "name": "_n",
          "type": "uint256"
        },
        {
          "internalType": "address",
          "name": "_contractAddress",
          "type": "address"
        }
      ],
      "name": "delegatecallExternalFunctionNTimes",
      "outputs": [],
      "stateMutability": "nonpayable",
      "type": "function"
    },
    {
      "inputs": [
        {
          "internalType": "uint256",
          "name": "_n",
          "type": "uint256"
        },
        {
          "internalType": "address",
          "name": "_contractAddress",
          "type": "address"
        }
      ],
      "name": "delegatecallExternalViewFunctionNTimes",
      "outputs": [],
      "stateMutability": "nonpayable",
      "type": "function"
    },
    {
      "inputs": [],
      "name": "deployViaCreate",
      "outputs": [
        {
          "internalType": "address",
          "name": "",
          "type": "address"
        }
      ],
      "stateMutability": "nonpayable",
      "type": "function"
    },
    {
      "inputs": [],
      "name": "deployViaCreate2",
      "outputs": [
        {
          "internalType": "address",
          "name": "",
          "type": "address"
        }
      ],
      "stateMutability": "nonpayable",
      "type": "function"
    },
    {
      "inputs": [],
      "name": "destroy",
      "outputs": [],
      "stateMutability": "nonpayable",
      "type": "function"
    },
    {
      "inputs": [],
      "name": "getGasLeft",
      "outputs": [
        {
          "internalType": "uint256",
          "name": "",
          "type": "uint256"
        }
      ],
      "stateMutability": "view",
      "type": "function"
    },
    {
      "inputs": [],
      "name": "logs",
      "outputs": [],
      "stateMutability": "nonpayable",
      "type": "function"
    },
    {
      "inputs": [],
      "name": "msgSender",
      "outputs": [
        {
          "internalType": "address",
          "name": "",
          "type": "address"
        }
      ],
      "stateMutability": "view",
      "type": "function"
    },
    {
      "inputs": [],
      "name": "msgSig",
      "outputs": [
        {
          "internalType": "bytes4",
          "name": "",
          "type": "bytes4"
        }
      ],
      "stateMutability": "pure",
      "type": "function"
    },
    {
      "inputs": [],
      "name": "msgValue",
      "outputs": [
        {
          "internalType": "uint256",
          "name": "",
          "type": "uint256"
        }
      ],
      "stateMutability": "payable",
      "type": "function"
    },
    {
      "inputs": [
        {
          "internalType": "uint256",
          "name": "_it",
          "type": "uint256"
        },
        {
          "internalType": "uint256",
          "name": "_n",
          "type": "uint256"
        },
        {
          "internalType": "address",
          "name": "_contractAddress",
          "type": "address"
        }
      ],
      "name": "nestedCalls",
      "outputs": [
        {
          "internalType": "uint256",
          "name": "",
          "type": "uint256"
        }
      ],
      "stateMutability": "nonpayable",
      "type": "function"
    },
    {
      "inputs": [],
      "name": "pureMultiply",
      "outputs": [
        {
          "internalType": "int256",
          "name": "",
          "type": "int256"
        }
      ],
      "stateMutability": "pure",
      "type": "function"
    },
    {
      "inputs": [
        {
          "internalType": "address",
          "name": "_to",
          "type": "address"
        },
        {
          "internalType": "uint256",
          "name": "_amount",
          "type": "uint256"
        }
      ],
      "name": "reentrancyWithCall",
      "outputs": [],
      "stateMutability": "nonpayable",
      "type": "function"
    },
    {
      "inputs": [
        {
          "internalType": "address",
          "name": "_to",
          "type": "address"
        },
        {
          "internalType": "uint256",
          "name": "_amount",
          "type": "uint256"
        }
      ],
      "name": "reentrancyWithTransfer",
      "outputs": [],
      "stateMutability": "nonpayable",
      "type": "function"
    },
    {
      "inputs": [],
      "name": "staticCallToContract",
      "outputs": [
        {
          "internalType": "address",
          "name": "",
          "type": "address"
        }
      ],
      "stateMutability": "view",
      "type": "function"
    },
    {
      "inputs": [
        {
          "internalType": "address",
          "name": "_invalidContract",
          "type": "address"
        }
      ],
      "name": "staticCallToInvalidContract",
      "outputs": [],
      "stateMutability": "view",
      "type": "function"
    },
    {
      "inputs": [],
      "name": "txOrigin",
      "outputs": [
        {
          "internalType": "address",
          "name": "",
          "type": "address"
        }
      ],
      "stateMutability": "view",
      "type": "function"
    },
    {
      "inputs": [
        {
          "internalType": "uint256",
          "name": "_counter",
          "type": "uint256"
        }
      ],
      "name": "updateCounter",
      "outputs": [],
      "stateMutability": "nonpayable",
      "type": "function"
    },
    {
      "inputs": [
        {
          "internalType": "uint256",
          "name": "_n",
          "type": "uint256"
        }
      ],
      "name": "updateStateNTimes",
      "outputs": [],
      "stateMutability": "nonpayable",
      "type": "function"
    },
    {
      "stateMutability": "payable",
      "type": "receive"
    }
  ],
  "bytecode": "0x6080604052600160005534801561001557600080fd5b5060405161002290610064565b604051809103906000f08015801561003e573d6000803e3d6000fd5b50600180546001600160a01b0319166001600160a01b0392909216919091179055610070565b60938061105583390190565b610fd68061007f6000396000f3fe6080604052600436106101bb5760003560e01c806380f009b6116100ec578063ddf363d71161008a578063ec3e88cf11610064578063ec3e88cf14610461578063f96757d1146104a0578063fa5e414e146104b3578063ffaf0890146104d357600080fd5b8063ddf363d71461041b578063e080b4aa14610421578063e7df080e1461044157600080fd5b8063bbbfb986116100c6578063bbbfb986146103be578063c648049d146103d3578063d737d0c7146103f3578063dbb6f04a1461040657600080fd5b806380f009b61461036b57806383197ef01461038b578063bb376a961461039e57600080fd5b80635256b99d116101595780636e6662b9116101335780636e6662b914610301578063700799631461031657806374259795146103365780637df6ee271461034b57600080fd5b80635256b99d146102b65780635c929889146102d657806361bc221a146102eb57600080fd5b80633ec4de35116101955780633ec4de351461023957806341f32f0c146102615780634929af371461028157806351be4eaa146102a157600080fd5b80630c772ca5146101c75780630ec1551d146101f957806319a6e3d51461021757600080fd5b366101c257005b600080fd5b3480156101d357600080fd5b506101dc6104f3565b6040516001600160a01b0390911681526020015b60405180910390f35b34801561020557600080fd5b5060045b6040519081526020016101f0565b34801561022357600080fd5b50610237610232366004610d7a565b610565565b005b34801561024557600080fd5b50610209610254366004610daa565b6001600160a01b03163190565b34801561026d57600080fd5b5061023761027c366004610daa565b610609565b34801561028d57600080fd5b5061023761029c366004610d7a565b61068d565b3480156102ad57600080fd5b50610209610742565b3480156102c257600080fd5b506102376102d1366004610dc7565b61074a565b3480156102e257600080fd5b506101dc610770565b3480156102f757600080fd5b5061020960005481565b34801561030d57600080fd5b506101dc6107d8565b34801561032257600080fd5b50610237610331366004610daa565b61080a565b34801561034257600080fd5b50610237610885565b34801561035757600080fd5b50610237610366366004610daa565b610939565b34801561037757600080fd5b50610237610386366004610d7a565b6109b2565b34801561039757600080fd5b5061023733ff5b3480156103aa57600080fd5b506102096103b9366004610de0565b610a65565b3480156103ca57600080fd5b506101dc610b42565b3480156103df57600080fd5b506102376103ee366004610dc7565b600055565b3480156103ff57600080fd5b50336101dc565b34801561041257600080fd5b506101dc610baa565b34610209565b34801561042d57600080fd5b5061023761043c366004610daa565b610bdf565b34801561044d57600080fd5b5061023761045c366004610e19565b610c2a565b34801561046d57600080fd5b506040517fffffffff000000000000000000000000000000000000000000000000000000006000351681526020016101f0565b3480156104ac57600080fd5b50326101dc565b3480156104bf57600080fd5b506102376104ce366004610d7a565b610c7f565b3480156104df57600080fd5b506102376104ee366004610e19565b610d20565b6001546040517f38cc48316aea9070a6b9a07b3cefc3f4db049e914955401a9d60fc9eb4c698d180825260009260609284926001600160a01b039092169190602081600481878761c350f2602082810160405282875290945061055c9186018101908601610e45565b94505050505090565b60005b828110156106045760408051600481526024810182526020810180516001600160e01b03166338cc483160e01b17905290516001600160a01b038416916105ae91610e62565b600060405180830381855af49150503d80600081146105e9576040519150601f19603f3d011682016040523d82523d6000602084013e6105ee565b606091505b50505080806105fc90610eb3565b915050610568565b505050565b60408051600481526024810182526020810180516001600160e01b0316632d3c86dd60e11b17905290516001600160a01b0383169161064791610e62565b600060405180830381855afa9150503d8060008114610682576040519150601f19603f3d011682016040523d82523d6000602084013e610687565b606091505b50505050565b60005b8281101561060457816001600160a01b0316816040516024016106b591815260200190565b60408051601f198184030181529181526020820180516001600160e01b031663c648049d60e01b179052516106ea9190610e62565b6000604051808303816000865af19150503d8060008114610727576040519150601f19603f3d011682016040523d82523d6000602084013e61072c565b606091505b505050808061073a90610eb3565b915050610690565b60005a905090565b60005b8181101561076c5760008190558061076481610eb3565b91505061074d565b5050565b6001546040517f38cc48316aea9070a6b9a07b3cefc3f4db049e914955401a9d60fc9eb4c698d180825260009260609284926001600160a01b0390921691906020816004818661c350f4602082810160405282875290945061055c9186018101908601610e45565b6000806040516107e790610d56565b604051809103906000f080158015610803573d6000803e3d6000fd5b5092915050565b60408051600481526024810182526020810180516001600160e01b0316632d3c86dd60e11b17905290516001600160a01b0383169161084891610e62565b6000604051808303816000865af19150503d8060008114610682576040519150601f19603f3d011682016040523d82523d6000602084013e610687565b608061160c8152602081a07fac3e966f295f2d5312f973dc6d42f30a6dc1c1f76ab8ee91cc8ca5dad1fa60fd80602083a17fae85c7887d510d629d8eb59ca412c0bf604c72c550fb0eec2734b12c76f2760b8082602085a261055160a0527ff4cd3854cb47c6b2f68a3a796635d026b9b412a93dfb80dd411c544cbc3c1817808284604087a37fe32ef46652011110f84325a4871007ee80018c1b6728ee04ffae74eb557e3fbf818385604088a450505050565b60408051600481526024810182526020810180516001600160e01b0316632d3c86dd60e11b17905290516001600160a01b0383169161097791610e62565b600060405180830381855af49150503d8060008114610682576040519150601f19603f3d011682016040523d82523d6000602084013e610687565b60005b8281101561060457816001600160a01b0316816040516024016109da91815260200190565b60408051601f198184030181529181526020820180516001600160e01b031663c648049d60e01b17905251610a0f9190610e62565b600060405180830381855af49150503d8060008114610a4a576040519150601f19603f3d011682016040523d82523d6000602084013e610a4f565b606091505b5050508080610a5d90610eb3565b9150506109b5565b600082841015610b385760006001600160a01b038316610a86866001610ece565b6040516024810191909152604481018690526001600160a01b038516606482015260840160408051601f198184030181529181526020820180516001600160e01b0316635d9bb54b60e11b17905251610adf9190610e62565b6000604051808303816000865af19150503d8060008114610b1c576040519150601f19603f3d011682016040523d82523d6000602084013e610b21565b606091505b5091505080610b2f90610ee6565b9150610b3b9050565b50825b9392505050565b6001546040517f38cc48316aea9070a6b9a07b3cefc3f4db049e914955401a9d60fc9eb4c698d180825260009260609284926001600160a01b0390921691906020816004818661c350fa602082810160405282875290945061055c9186018101908601610e45565b60008060005460001b604051610bbf90610d56565b8190604051809103906000f5905080158015610803573d6000803e3d6000fd5b60606000807f5a790dba3c23b59f4183a2d8e5d0ceae10b15e337a4dcaeae2d5897a5f68a3d4905060405181815260208160048360008961c350f25060208101604052909252505050565b6040516001600160a01b038316908290600081818185875af1925050503d8060008114610c73576040519150601f19603f3d011682016040523d82523d6000602084013e610c78565b606091505b5050505050565b60005b828110156106045760408051600481526024810182526020810180516001600160e01b03166338cc483160e01b17905290516001600160a01b03841691610cc891610e62565b6000604051808303816000865af19150503d8060008114610d05576040519150601f19603f3d011682016040523d82523d6000602084013e610d0a565b606091505b5050508080610d1890610eb3565b915050610c82565b6040516001600160a01b0383169082156108fc029083906000818181858888f19350505050158015610604573d6000803e3d6000fd5b609380610f0e83390190565b6001600160a01b0381168114610d7757600080fd5b50565b60008060408385031215610d8d57600080fd5b823591506020830135610d9f81610d62565b809150509250929050565b600060208284031215610dbc57600080fd5b8135610b3b81610d62565b600060208284031215610dd957600080fd5b5035919050565b600080600060608486031215610df557600080fd5b83359250602084013591506040840135610e0e81610d62565b809150509250925092565b60008060408385031215610e2c57600080fd5b8235610e3781610d62565b946020939093013593505050565b600060208284031215610e5757600080fd5b8151610b3b81610d62565b6000825160005b81811015610e835760208186018101518583015201610e69565b81811115610e92576000828501525b509190910192915050565b634e487b7160e01b600052601160045260246000fd5b6000600019821415610ec757610ec7610e9d565b5060010190565b60008219821115610ee157610ee1610e9d565b500190565b80516020808301519190811015610f07576000198160200360031b1b821691505b5091905056fe6080604052348015600f57600080fd5b50607680601d6000396000f3fe6080604052348015600f57600080fd5b506004361060285760003560e01c806338cc483114602d575b600080fd5b6040805130815290519081900360200190f3fea26469706673582212206581057925cb8c91b475dfd65cb1bc362e8198d1260dee32cec18103302c548464736f6c63430008090033a264697066735822122095333591d755aa725f8a8b489c8c528213ca55abc2d8981f073d5242f3b989f164736f6c634300080900336080604052348015600f57600080fd5b50607680601d6000396000f3fe6080604052348015600f57600080fd5b506004361060285760003560e01c806338cc483114602d575b600080fd5b6040805130815290519081900360200190f3fea26469706673582212206581057925cb8c91b475dfd65cb1bc362e8198d1260dee32cec18103302c548464736f6c63430008090033",
  "linkReferences": {},
  "deployedLinkReferences": {}
}