{
  "_format": "hh-sol-artifact-1",
  "contractName": "EstimateGasContract",
  "sourceName": "contracts/EstimateGasContract.sol",
  "abi": [
    {
      "inputs": [],
      "stateMutability": "nonpayable",
      "type": "constructor"
    },
    {
      "inputs": [
        {
          "internalType": "address",
          "name": "addr",
          "type": "address"
        }
      ],
      "name": "addressBalance",
      "outputs": [
        {
          "internalType": "uint256",
          "name": "",
          "type": "uint256"
        }
      ],
      "stateMutability": "view",
      "type": "function"
    },
    {
      "inputs": [],
      "name": "callCodeToContract",
      "outputs": [
        {
          "internalType": "address",
          "name": "",
          "type": "address"
        }
      ],
      "stateMutability": "nonpayable",
      "type": "function"
    },
    {
      "inputs": [
        {
          "internalType": "address",
          "name": "invalidContract",
          "type": "address"
        }
      ],
      "name": "callCodeToInvalidContract",
      "outputs": [],
      "stateMutability": "nonpayable",
      "type": "function"
    },
    {
      "inputs": [
        {
          "internalType": "address",
          "name": "invalidContract",
          "type": "address"
        }
      ],
      "name": "callToInvalidContract",
      "outputs": [],
      "stateMutability": "nonpayable",
      "type": "function"
    },
    {
      "inputs": [],
      "name": "counter",
      "outputs": [
        {
          "internalType": "uint256",
          "name": "",
          "type": "uint256"
        }
      ],
      "stateMutability": "view",
      "type": "function"
    },
    {
      "inputs": [],
      "name": "delegateCallToContract",
      "outputs": [
        {
          "internalType": "address",
          "name": "",
          "type": "address"
        }
      ],
      "stateMutability": "nonpayable",
      "type": "function"
    },
    {
      "inputs": [
        {
          "internalType": "address",
          "name": "invalidContract",
          "type": "address"
        }
      ],
      "name": "delegateCallToInvalidContract",
      "outputs": [],
      "stateMutability": "nonpayable",
      "type": "function"
    },
    {
      "inputs": [],
      "name": "deployViaCreate",
      "outputs": [
        {
          "internalType": "address",
          "name": "",
          "type": "address"
        }
      ],
      "stateMutability": "nonpayable",
      "type": "function"
    },
    {
      "inputs": [],
      "name": "deployViaCreate2",
      "outputs": [
        {
          "internalType": "address",
          "name": "",
          "type": "address"
        }
      ],
      "stateMutability": "nonpayable",
      "type": "function"
    },
    {
      "inputs": [],
      "name": "destroy",
      "outputs": [],
      "stateMutability": "nonpayable",
      "type": "function"
    },
    {
      "inputs": [],
      "name": "logs",
      "outputs": [],
      "stateMutability": "nonpayable",
      "type": "function"
    },
    {
      "inputs": [],
      "name": "msgSender",
      "outputs": [
        {
          "internalType": "address",
          "name": "",
          "type": "address"
        }
      ],
      "stateMutability": "view",
      "type": "function"
    },
    {
      "inputs": [],
      "name": "msgSig",
      "outputs": [
        {
          "internalType": "bytes4",
          "name": "",
          "type": "bytes4"
        }
      ],
      "stateMutability": "pure",
      "type": "function"
    },
    {
      "inputs": [],
      "name": "msgValue",
      "outputs": [
        {
          "internalType": "uint256",
          "name": "",
          "type": "uint256"
        }
      ],
      "stateMutability": "payable",
      "type": "function"
    },
    {
      "inputs": [],
      "name": "pureMultiply",
      "outputs": [
        {
          "internalType": "int256",
          "name": "",
          "type": "int256"
        }
      ],
      "stateMutability": "pure",
      "type": "function"
    },
    {
      "inputs": [],
      "name": "staticCallToContract",
      "outputs": [
        {
          "internalType": "address",
          "name": "",
          "type": "address"
        }
      ],
      "stateMutability": "view",
      "type": "function"
    },
    {
      "inputs": [
        {
          "internalType": "address",
          "name": "invalidContract",
          "type": "address"
        }
      ],
      "name": "staticCallToInvalidContract",
      "outputs": [],
      "stateMutability": "view",
      "type": "function"
    },
    {
      "inputs": [],
      "name": "txOrigin",
      "outputs": [
        {
          "internalType": "address",
          "name": "",
          "type": "address"
        }
      ],
      "stateMutability": "view",
      "type": "function"
    },
    {
      "inputs": [
        {
          "internalType": "uint256",
          "name": "_counter",
          "type": "uint256"
        }
      ],
      "name": "updateCounter",
      "outputs": [],
      "stateMutability": "nonpayable",
      "type": "function"
    },
    {
      "stateMutability": "payable",
      "type": "receive"
    }
  ],
  "bytecode": "0x6080604052600160005534801561001557600080fd5b5060405161002290610064565b604051809103906000f08015801561003e573d6000803e3d6000fd5b50600180546001600160a01b0319166001600160a01b0392909216919091179055610070565b60938061095c83390190565b6108dd8061007f6000396000f3fe6080604052600436106101185760003560e01c80637df6ee27116100a0578063dbb6f04a11610064578063dbb6f04a146102ae578063ddf363d7146102c3578063e080b4aa146102c9578063ec3e88cf146102e9578063f96757d11461032857600080fd5b80637df6ee271461023357806383197ef014610253578063bbbfb98614610266578063c648049d1461027b578063d737d0c71461029b57600080fd5b80635c929889116100e75780635c929889146101be57806361bc221a146101d35780636e6662b9146101e957806370079963146101fe578063742597951461021e57600080fd5b80630c772ca5146101245780630ec1551d146101565780633ec4de351461017457806341f32f0c1461019c57600080fd5b3661011f57005b600080fd5b34801561013057600080fd5b5061013961033b565b6040516001600160a01b0390911681526020015b60405180910390f35b34801561016257600080fd5b5060045b60405190815260200161014d565b34801561018057600080fd5b5061016661018f36600461077f565b6001600160a01b03163190565b3480156101a857600080fd5b506101bc6101b736600461077f565b6103ad565b005b3480156101ca57600080fd5b50610139610431565b3480156101df57600080fd5b5061016660005481565b3480156101f557600080fd5b50610139610499565b34801561020a57600080fd5b506101bc61021936600461077f565b6104cb565b34801561022a57600080fd5b506101bc610546565b34801561023f57600080fd5b506101bc61024e36600461077f565b6105fa565b34801561025f57600080fd5b506101bc33ff5b34801561027257600080fd5b50610139610673565b34801561028757600080fd5b506101bc6102963660046107a3565b600055565b3480156102a757600080fd5b5033610139565b3480156102ba57600080fd5b506101396106db565b34610166565b3480156102d557600080fd5b506101bc6102e436600461077f565b610710565b3480156102f557600080fd5b506040517fffffffff0000000000000000000000000000000000000000000000000000000060003516815260200161014d565b34801561033457600080fd5b5032610139565b6001546040517f38cc48316aea9070a6b9a07b3cefc3f4db049e914955401a9d60fc9eb4c698d180825260009260609284926001600160a01b039092169190602081600481878761c350f260208281016040528287529094506103a491860181019086016107bc565b94505050505090565b60408051600481526024810182526020810180516001600160e01b0316632d3c86dd60e11b17905290516001600160a01b038316916103eb916107d9565b600060405180830381855afa9150503d8060008114610426576040519150601f19603f3d011682016040523d82523d6000602084013e61042b565b606091505b50505050565b6001546040517f38cc48316aea9070a6b9a07b3cefc3f4db049e914955401a9d60fc9eb4c698d180825260009260609284926001600160a01b0390921691906020816004818661c350f460208281016040528287529094506103a491860181019086016107bc565b6000806040516104a89061075b565b604051809103906000f0801580156104c4573d6000803e3d6000fd5b5092915050565b60408051600481526024810182526020810180516001600160e01b0316632d3c86dd60e11b17905290516001600160a01b03831691610509916107d9565b6000604051808303816000865af19150503d8060008114610426576040519150601f19603f3d011682016040523d82523d6000602084013e61042b565b608061160c8152602081a07fac3e966f295f2d5312f973dc6d42f30a6dc1c1f76ab8ee91cc8ca5dad1fa60fd80602083a17fae85c7887d510d629d8eb59ca412c0bf604c72c550fb0eec2734b12c76f2760b8082602085a261055160a0527ff4cd3854cb47c6b2f68a3a796635d026b9b412a93dfb80dd411c544cbc3c1817808284604087a37fe32ef46652011110f84325a4871007ee80018c1b6728ee04ffae74eb557e3fbf818385604088a450505050565b60408051600481526024810182526020810180516001600160e01b0316632d3c86dd60e11b17905290516001600160a01b03831691610638916107d9565b600060405180830381855af49150503d8060008114610426576040519150601f19603f3d011682016040523d82523d6000602084013e61042b565b6001546040517f38cc48316aea9070a6b9a07b3cefc3f4db049e914955401a9d60fc9eb4c698d180825260009260609284926001600160a01b0390921691906020816004818661c350fa60208281016040528287529094506103a491860181019086016107bc565b60008060005460001b6040516106f09061075b565b8190604051809103906000f59050801580156104c4573d6000803e3d6000fd5b60606000807f5a790dba3c23b59f4183a2d8e5d0ceae10b15e337a4dcaeae2d5897a5f68a3d4905060405181815260208160048360008961c350f25060208101604052909252505050565b60938061081583390190565b6001600160a01b038116811461077c57600080fd5b50565b60006020828403121561079157600080fd5b813561079c81610767565b9392505050565b6000602082840312156107b557600080fd5b5035919050565b6000602082840312156107ce57600080fd5b815161079c81610767565b6000825160005b818110156107fa57602081860181015185830152016107e0565b81811115610809576000828501525b50919091019291505056fe6080604052348015600f57600080fd5b50607680601d6000396000f3fe6080604052348015600f57600080fd5b506004361060285760003560e01c806338cc483114602d575b600080fd5b6040805130815290519081900360200190f3fea264697066735822122040f508a064ae6c4ee459aaade49ae7d0e3d8c9acbad493c5ad7fb5d6d968c86664736f6c63430008090033a264697066735822122086b469cf92b177e20acff5a14e6dd1761301e285b30cfc26c0e9bcc182f768a164736f6c634300080900336080604052348015600f57600080fd5b50607680601d6000396000f3fe6080604052348015600f57600080fd5b506004361060285760003560e01c806338cc483114602d575b600080fd5b6040805130815290519081900360200190f3fea264697066735822122040f508a064ae6c4ee459aaade49ae7d0e3d8c9acbad493c5ad7fb5d6d968c86664736f6c63430008090033",
  "linkReferences": {},
  "deployedLinkReferences": {}
}