{
  "_format": "hh-sol-artifact-1",
  "contractName": "EstimatePrecompileContract",
  "sourceName": "contracts/hts-precompile/EstimatePrecompileContract.sol",
  "abi": [
    {
      "anonymous": false,
      "inputs": [
        {
          "indexed": false,
          "internalType": "bool",
          "name": "",
          "type": "bool"
        },
        {
          "indexed": false,
          "internalType": "bytes",
          "name": "",
          "type": "bytes"
        }
      ],
      "name": "CallResponseEvent",
      "type": "event"
    },
    {
      "anonymous": false,
      "inputs": [
        {
          "indexed": false,
          "internalType": "address",
          "name": "",
          "type": "address"
        }
      ],
      "name": "CreatedToken",
      "type": "event"
    },
    {
      "anonymous": false,
      "inputs": [
        {
          "indexed": false,
          "internalType": "int64[]",
          "name": "",
          "type": "int64[]"
        }
      ],
      "name": "MintedToken",
      "type": "event"
    },
    {
      "anonymous": false,
      "inputs": [
        {
          "indexed": false,
          "internalType": "int256",
          "name": "",
          "type": "int256"
        }
      ],
      "name": "ResponseCode",
      "type": "event"
    },
    {
      "inputs": [
        {
          "internalType": "address",
          "name": "token",
          "type": "address"
        },
        {
          "internalType": "address",
          "name": "owner",
          "type": "address"
        },
        {
          "internalType": "address",
          "name": "spender",
          "type": "address"
        }
      ],
      "name": "allowanceExternal",
      "outputs": [
        {
          "internalType": "uint256",
          "name": "",
          "type": "uint256"
        }
      ],
      "stateMutability": "nonpayable",
      "type": "function"
    },
    {
      "inputs": [
        {
          "internalType": "address",
          "name": "token",
          "type": "address"
        },
        {
          "internalType": "address",
          "name": "spender",
          "type": "address"
        },
        {
          "internalType": "uint256",
          "name": "amount",
          "type": "uint256"
        }
      ],
      "name": "approveExternal",
      "outputs": [],
      "stateMutability": "nonpayable",
      "type": "function"
    },
    {
      "inputs": [
        {
          "internalType": "address",
          "name": "token",
          "type": "address"
        },
        {
          "internalType": "address",
          "name": "approved",
          "type": "address"
        },
        {
          "internalType": "uint256",
          "name": "serialNumber",
          "type": "uint256"
        }
      ],
      "name": "approveNFTExternal",
      "outputs": [],
      "stateMutability": "nonpayable",
      "type": "function"
    },
    {
      "inputs": [
        {
          "internalType": "address",
          "name": "account",
          "type": "address"
        },
        {
          "internalType": "address",
          "name": "token",
          "type": "address"
        }
      ],
      "name": "associateTokenExternal",
      "outputs": [],
      "stateMutability": "nonpayable",
      "type": "function"
    },
    {
      "inputs": [
        {
          "internalType": "address",
          "name": "account",
          "type": "address"
        },
        {
          "internalType": "address[]",
          "name": "tokens",
          "type": "address[]"
        }
      ],
      "name": "associateTokensExternal",
      "outputs": [],
      "stateMutability": "nonpayable",
      "type": "function"
    },
    {
      "inputs": [
        {
          "internalType": "address",
          "name": "token",
          "type": "address"
        },
        {
          "internalType": "int64",
          "name": "amount",
          "type": "int64"
        },
        {
          "internalType": "int64[]",
          "name": "serialNumbers",
          "type": "int64[]"
        }
      ],
      "name": "burnTokenExternal",
      "outputs": [
        {
          "internalType": "int64",
          "name": "newTotalSupply",
          "type": "int64"
        }
      ],
      "stateMutability": "nonpayable",
      "type": "function"
    },
    {
      "inputs": [
        {
          "internalType": "address",
          "name": "treasury",
          "type": "address"
        }
      ],
      "name": "createFungibleTokenPublic",
      "outputs": [
        {
          "internalType": "address",
          "name": "",
          "type": "address"
        }
      ],
      "stateMutability": "payable",
      "type": "function"
    },
    {
      "inputs": [
        {
          "internalType": "address",
          "name": "treasury",
          "type": "address"
        },
        {
          "internalType": "address",
          "name": "fixedFeeTokenAddress",
          "type": "address"
        }
      ],
      "name": "createFungibleTokenWithCustomFeesPublic",
      "outputs": [
        {
          "internalType": "address",
          "name": "",
          "type": "address"
        }
      ],
      "stateMutability": "payable",
      "type": "function"
    },
    {
      "inputs": [
        {
          "internalType": "address",
          "name": "treasury",
          "type": "address"
        }
      ],
      "name": "createNonFungibleTokenPublic",
      "outputs": [
        {
          "internalType": "address",
          "name": "",
          "type": "address"
        }
      ],
      "stateMutability": "payable",
      "type": "function"
    },
    {
      "inputs": [
        {
          "internalType": "address",
          "name": "treasury",
          "type": "address"
        },
        {
          "internalType": "address",
          "name": "fixedFeeTokenAddress",
          "type": "address"
        }
      ],
      "name": "createNonFungibleTokenWithCustomFeesPublic",
      "outputs": [
        {
          "internalType": "address",
          "name": "",
          "type": "address"
        }
      ],
      "stateMutability": "payable",
      "type": "function"
    },
    {
      "inputs": [
        {
          "components": [
            {
              "components": [
                {
                  "internalType": "address",
                  "name": "accountID",
                  "type": "address"
                },
                {
                  "internalType": "int64",
                  "name": "amount",
                  "type": "int64"
                },
                {
                  "internalType": "bool",
                  "name": "isApproval",
                  "type": "bool"
                }
              ],
              "internalType": "struct IHederaTokenService.AccountAmount[]",
              "name": "transfers",
              "type": "tuple[]"
            }
          ],
          "internalType": "struct IHederaTokenService.TransferList",
          "name": "transferList",
          "type": "tuple"
        },
        {
          "components": [
            {
              "internalType": "address",
              "name": "token",
              "type": "address"
            },
            {
              "components": [
                {
                  "internalType": "address",
                  "name": "accountID",
                  "type": "address"
                },
                {
                  "internalType": "int64",
                  "name": "amount",
                  "type": "int64"
                },
                {
                  "internalType": "bool",
                  "name": "isApproval",
                  "type": "bool"
                }
              ],
              "internalType": "struct IHederaTokenService.AccountAmount[]",
              "name": "transfers",
              "type": "tuple[]"
            },
            {
              "components": [
                {
                  "internalType": "address",
                  "name": "senderAccountID",
                  "type": "address"
                },
                {
                  "internalType": "address",
                  "name": "receiverAccountID",
                  "type": "address"
                },
                {
                  "internalType": "int64",
                  "name": "serialNumber",
                  "type": "int64"
                },
                {
                  "internalType": "bool",
                  "name": "isApproval",
                  "type": "bool"
                }
              ],
              "internalType": "struct IHederaTokenService.NftTransfer[]",
              "name": "nftTransfers",
              "type": "tuple[]"
            }
          ],
          "internalType": "struct IHederaTokenService.TokenTransferList[]",
          "name": "tokenTransfers",
          "type": "tuple[]"
        }
      ],
      "name": "cryptoTransferExternal",
      "outputs": [],
      "stateMutability": "nonpayable",
      "type": "function"
    },
    {
      "inputs": [
        {
          "internalType": "address",
          "name": "token",
          "type": "address"
        }
      ],
      "name": "deleteTokenExternal",
      "outputs": [],
      "stateMutability": "nonpayable",
      "type": "function"
    },
    {
      "inputs": [
        {
          "internalType": "address",
          "name": "account",
          "type": "address"
        },
        {
          "internalType": "address",
          "name": "token",
          "type": "address"
        }
      ],
      "name": "dissociateAndAssociateTokenExternal",
      "outputs": [],
      "stateMutability": "nonpayable",
      "type": "function"
    },
    {
      "inputs": [
        {
          "internalType": "address",
          "name": "account",
          "type": "address"
        },
        {
          "internalType": "address",
          "name": "token",
          "type": "address"
        }
      ],
      "name": "dissociateTokenExternal",
      "outputs": [],
      "stateMutability": "nonpayable",
      "type": "function"
    },
    {
      "inputs": [
        {
          "internalType": "address",
          "name": "account",
          "type": "address"
        },
        {
          "internalType": "address[]",
          "name": "tokens",
          "type": "address[]"
        }
      ],
      "name": "dissociateTokensExternal",
      "outputs": [],
      "stateMutability": "nonpayable",
      "type": "function"
    },
    {
      "inputs": [
        {
          "internalType": "address",
          "name": "token",
          "type": "address"
        },
        {
          "internalType": "address",
          "name": "account",
          "type": "address"
        }
      ],
      "name": "freezeTokenExternal",
      "outputs": [],
      "stateMutability": "nonpayable",
      "type": "function"
    },
    {
      "inputs": [
        {
          "internalType": "address",
          "name": "token",
          "type": "address"
        },
        {
          "internalType": "uint256",
          "name": "serialNumber",
          "type": "uint256"
        }
      ],
      "name": "getApprovedExternal",
      "outputs": [
        {
          "internalType": "address",
          "name": "",
          "type": "address"
        }
      ],
      "stateMutability": "nonpayable",
      "type": "function"
    },
    {
      "inputs": [
        {
          "internalType": "uint32",
          "name": "lo",
          "type": "uint32"
        },
        {
          "internalType": "uint32",
          "name": "hi",
          "type": "uint32"
        }
      ],
      "name": "getPseudorandomNumber",
      "outputs": [
        {
          "internalType": "uint32",
          "name": "",
          "type": "uint32"
        }
      ],
      "stateMutability": "nonpayable",
      "type": "function"
    },
    {
      "inputs": [],
      "name": "getPseudorandomSeed",
      "outputs": [
        {
          "internalType": "bytes32",
          "name": "randomBytes",
          "type": "bytes32"
        }
      ],
      "stateMutability": "nonpayable",
      "type": "function"
    },
    {
      "inputs": [
        {
          "internalType": "address",
          "name": "token",
          "type": "address"
        }
      ],
      "name": "getTokenExpiryInfoExternal",
      "outputs": [
        {
          "internalType": "int64",
          "name": "",
          "type": "int64"
        },
        {
          "internalType": "address",
          "name": "",
          "type": "address"
        },
        {
          "internalType": "int64",
          "name": "",
          "type": "int64"
        }
      ],
      "stateMutability": "nonpayable",
      "type": "function"
    },
    {
      "inputs": [
        {
          "internalType": "address",
          "name": "token",
          "type": "address"
        },
        {
          "internalType": "uint256",
          "name": "keyType",
          "type": "uint256"
        }
      ],
      "name": "getTokenKeyExternal",
      "outputs": [
        {
          "internalType": "bool",
          "name": "",
          "type": "bool"
        },
        {
          "internalType": "address",
          "name": "",
          "type": "address"
        },
        {
          "internalType": "bytes",
          "name": "",
          "type": "bytes"
        },
        {
          "internalType": "bytes",
          "name": "",
          "type": "bytes"
        },
        {
          "internalType": "address",
          "name": "",
          "type": "address"
        }
      ],
      "stateMutability": "nonpayable",
      "type": "function"
    },
    {
      "inputs": [
        {
          "internalType": "address",
          "name": "token",
          "type": "address"
        },
        {
          "internalType": "address",
          "name": "account",
          "type": "address"
        }
      ],
      "name": "grantTokenKycExternal",
      "outputs": [],
      "stateMutability": "nonpayable",
      "type": "function"
    },
    {
      "inputs": [
        {
          "internalType": "address",
          "name": "token",
          "type": "address"
        },
        {
          "internalType": "address",
          "name": "owner",
          "type": "address"
        },
        {
          "internalType": "address",
          "name": "operator",
          "type": "address"
        }
      ],
      "name": "isApprovedForAllExternal",
      "outputs": [
        {
          "internalType": "bool",
          "name": "",
          "type": "bool"
        }
      ],
      "stateMutability": "nonpayable",
      "type": "function"
    },
    {
      "inputs": [
        {
          "internalType": "address",
          "name": "token",
          "type": "address"
        }
      ],
      "name": "isTokenExternal",
      "outputs": [
        {
          "internalType": "bool",
          "name": "",
          "type": "bool"
        }
      ],
      "stateMutability": "nonpayable",
      "type": "function"
    },
    {
      "inputs": [
        {
          "internalType": "address",
          "name": "token",
          "type": "address"
        },
        {
          "internalType": "int64",
          "name": "amount",
          "type": "int64"
        },
        {
          "internalType": "bytes[]",
          "name": "metadata",
          "type": "bytes[]"
        }
      ],
      "name": "mintTokenExternal",
      "outputs": [
        {
          "internalType": "int64",
          "name": "newTotalSupply",
          "type": "int64"
        },
        {
          "internalType": "int64[]",
          "name": "serialNumbers",
          "type": "int64[]"
        }
      ],
      "stateMutability": "nonpayable",
      "type": "function"
    },
    {
      "inputs": [
        {
          "internalType": "address",
          "name": "account",
          "type": "address"
        },
        {
          "internalType": "address",
          "name": "token",
          "type": "address"
        }
      ],
      "name": "nestedAssociateTokenExternal",
      "outputs": [],
      "stateMutability": "nonpayable",
      "type": "function"
    },
    {
      "inputs": [
        {
          "internalType": "address",
          "name": "token",
          "type": "address"
        },
        {
          "internalType": "address",
          "name": "account",
          "type": "address"
        }
      ],
      "name": "nestedFreezeUnfreezeTokenExternal",
      "outputs": [],
      "stateMutability": "nonpayable",
      "type": "function"
    },
    {
      "inputs": [
        {
          "internalType": "address",
          "name": "token",
          "type": "address"
        },
        {
          "internalType": "address",
          "name": "account",
          "type": "address"
        }
      ],
      "name": "nestedGrantAndRevokeTokenKYCExternal",
      "outputs": [],
      "stateMutability": "nonpayable",
      "type": "function"
    },
    {
      "inputs": [
        {
          "internalType": "address",
          "name": "token",
          "type": "address"
        }
      ],
      "name": "nestedPauseUnpauseTokenExternal",
      "outputs": [],
      "stateMutability": "nonpayable",
      "type": "function"
    },
    {
      "inputs": [
        {
          "internalType": "address",
          "name": "token",
          "type": "address"
        }
      ],
      "name": "pauseTokenExternal",
      "outputs": [],
      "stateMutability": "nonpayable",
      "type": "function"
    },
    {
      "inputs": [
        {
          "internalType": "address",
          "name": "token",
          "type": "address"
        },
        {
          "internalType": "bytes",
          "name": "encodedFunctionSelector",
          "type": "bytes"
        }
      ],
      "name": "redirectForToken",
      "outputs": [
        {
          "internalType": "int256",
          "name": "responseCode",
          "type": "int256"
        },
        {
          "internalType": "bytes",
          "name": "response",
          "type": "bytes"
        }
      ],
      "stateMutability": "nonpayable",
      "type": "function"
    },
    {
      "inputs": [
        {
          "internalType": "address",
          "name": "token",
          "type": "address"
        },
        {
          "internalType": "address",
          "name": "account",
          "type": "address"
        }
      ],
      "name": "revokeTokenKycExternal",
      "outputs": [],
      "stateMutability": "nonpayable",
      "type": "function"
    },
    {
      "inputs": [
        {
          "internalType": "address",
          "name": "token",
          "type": "address"
        },
        {
          "internalType": "address",
          "name": "account",
          "type": "address"
        },
        {
          "internalType": "bool",
          "name": "approved",
          "type": "bool"
        }
      ],
      "name": "setApprovalForAllExternal",
      "outputs": [],
      "stateMutability": "nonpayable",
      "type": "function"
    },
    {
      "inputs": [
        {
          "internalType": "uint256",
          "name": "tinybars",
          "type": "uint256"
        }
      ],
      "name": "tinybarsToTinycents",
      "outputs": [
        {
          "internalType": "uint256",
          "name": "tinycents",
          "type": "uint256"
        }
      ],
      "stateMutability": "nonpayable",
      "type": "function"
    },
    {
      "inputs": [
        {
          "internalType": "uint256",
          "name": "tinycents",
          "type": "uint256"
        }
      ],
      "name": "tinycentsToTinybars",
      "outputs": [
        {
          "internalType": "uint256",
          "name": "tinybars",
          "type": "uint256"
        }
      ],
      "stateMutability": "nonpayable",
      "type": "function"
    },
    {
      "inputs": [
        {
          "internalType": "address",
          "name": "token",
          "type": "address"
        },
        {
          "internalType": "address",
          "name": "from",
          "type": "address"
        },
        {
          "internalType": "address",
          "name": "to",
          "type": "address"
        },
        {
          "internalType": "uint256",
          "name": "amount",
          "type": "uint256"
        }
      ],
      "name": "transferFrom",
      "outputs": [
        {
          "internalType": "int64",
          "name": "responseCode",
          "type": "int64"
        }
      ],
      "stateMutability": "nonpayable",
      "type": "function"
    },
    {
      "inputs": [
        {
          "internalType": "address",
          "name": "token",
          "type": "address"
        },
        {
          "internalType": "address",
          "name": "from",
          "type": "address"
        },
        {
          "internalType": "address",
          "name": "to",
          "type": "address"
        },
        {
          "internalType": "uint256",
          "name": "amount",
          "type": "uint256"
        }
      ],
      "name": "transferFromExternal",
      "outputs": [],
      "stateMutability": "nonpayable",
      "type": "function"
    },
    {
      "inputs": [
        {
          "internalType": "address",
          "name": "token",
          "type": "address"
        },
        {
          "internalType": "address",
          "name": "from",
          "type": "address"
        },
        {
          "internalType": "address",
          "name": "to",
          "type": "address"
        },
        {
          "internalType": "uint256",
          "name": "serialNumber",
          "type": "uint256"
        }
      ],
      "name": "transferFromNFT",
      "outputs": [
        {
          "internalType": "int64",
          "name": "responseCode",
          "type": "int64"
        }
      ],
      "stateMutability": "nonpayable",
      "type": "function"
    },
    {
      "inputs": [
        {
          "internalType": "address",
          "name": "token",
          "type": "address"
        },
        {
          "internalType": "address",
          "name": "from",
          "type": "address"
        },
        {
          "internalType": "address",
          "name": "to",
          "type": "address"
        },
        {
          "internalType": "uint256",
          "name": "serialNumber",
          "type": "uint256"
        }
      ],
      "name": "transferFromNFTExternal",
      "outputs": [],
      "stateMutability": "nonpayable",
      "type": "function"
    },
    {
      "inputs": [
        {
          "internalType": "address",
          "name": "token",
          "type": "address"
        },
        {
          "internalType": "address",
          "name": "sender",
          "type": "address"
        },
        {
          "internalType": "address",
          "name": "receiver",
          "type": "address"
        },
        {
          "internalType": "int64",
          "name": "serialNumber",
          "type": "int64"
        }
      ],
      "name": "transferNFTExternal",
      "outputs": [],
      "stateMutability": "nonpayable",
      "type": "function"
    },
    {
      "inputs": [
        {
          "internalType": "address",
          "name": "token",
          "type": "address"
        },
        {
          "internalType": "address[]",
          "name": "sender",
          "type": "address[]"
        },
        {
          "internalType": "address[]",
          "name": "receiver",
          "type": "address[]"
        },
        {
          "internalType": "int64[]",
          "name": "serialNumber",
          "type": "int64[]"
        }
      ],
      "name": "transferNFTsExternal",
      "outputs": [],
      "stateMutability": "nonpayable",
      "type": "function"
    },
    {
      "inputs": [
        {
          "internalType": "address",
          "name": "token",
          "type": "address"
        },
        {
          "internalType": "address",
          "name": "sender",
          "type": "address"
        },
        {
          "internalType": "address",
          "name": "receiver",
          "type": "address"
        },
        {
          "internalType": "int64",
          "name": "amount",
          "type": "int64"
        }
      ],
      "name": "transferTokenExternal",
      "outputs": [],
      "stateMutability": "nonpayable",
      "type": "function"
    },
    {
      "inputs": [
        {
          "internalType": "address",
          "name": "token",
          "type": "address"
        },
        {
          "internalType": "address[]",
          "name": "accountIds",
          "type": "address[]"
        },
        {
          "internalType": "int64[]",
          "name": "amounts",
          "type": "int64[]"
        }
      ],
      "name": "transferTokensExternal",
      "outputs": [],
      "stateMutability": "nonpayable",
      "type": "function"
    },
    {
      "inputs": [
        {
          "internalType": "address",
          "name": "token",
          "type": "address"
        },
        {
          "internalType": "address",
          "name": "account",
          "type": "address"
        }
      ],
      "name": "unfreezeTokenExternal",
      "outputs": [],
      "stateMutability": "nonpayable",
      "type": "function"
    },
    {
      "inputs": [
        {
          "internalType": "address",
          "name": "token",
          "type": "address"
        }
      ],
      "name": "unpauseTokenExternal",
      "outputs": [],
      "stateMutability": "nonpayable",
      "type": "function"
    },
    {
      "inputs": [
        {
          "internalType": "address",
          "name": "token",
          "type": "address"
        },
        {
          "internalType": "address",
          "name": "treasury",
          "type": "address"
        }
      ],
      "name": "updateTokenExpiryInfoExternal",
      "outputs": [],
      "stateMutability": "nonpayable",
      "type": "function"
    },
    {
      "inputs": [
        {
          "internalType": "address",
          "name": "token",
          "type": "address"
        },
        {
          "internalType": "address",
          "name": "treasury",
          "type": "address"
        }
      ],
      "name": "updateTokenInfoExternal",
      "outputs": [],
      "stateMutability": "nonpayable",
      "type": "function"
    },
    {
      "inputs": [
        {
          "internalType": "address",
          "name": "token",
          "type": "address"
        }
      ],
      "name": "updateTokenKeysExternal",
      "outputs": [],
      "stateMutability": "nonpayable",
      "type": "function"
    },
    {
      "inputs": [
        {
          "internalType": "address",
          "name": "token",
          "type": "address"
        },
        {
          "internalType": "address",
          "name": "account",
          "type": "address"
        },
        {
          "internalType": "int64",
          "name": "amount",
          "type": "int64"
        }
      ],
      "name": "wipeTokenAccountExternal",
      "outputs": [],
      "stateMutability": "nonpayable",
      "type": "function"
    },
    {
      "inputs": [
        {
          "internalType": "address",
          "name": "token",
          "type": "address"
        },
        {
          "internalType": "address",
          "name": "account",
          "type": "address"
        },
        {
          "internalType": "int64[]",
          "name": "serialNumbers",
          "type": "int64[]"
        }
      ],
      "name": "wipeTokenAccountNFTExternal",
      "outputs": [],
      "stateMutability": "nonpayable",
      "type": "function"
    }
  ],
  "bytecode": "0x60c06040526009608090815268746f6b656e4e616d6560b81b60a0526002906200002a908262000261565b5060408051808201909152600380825262544b5960e81b60208301529062000053908262000261565b50604080518082019091526004808252636d656d6f60e01b6020830152906200007d908262000261565b50600580546001600160a81b031916700800000000000003e800000000000003e8179055348015620000ae57600080fd5b50600160208181527fa6eef7e35abe7026729641147f7915573c7e97b47efa546f5f6e3230263bcb499190915560027fcc69885fda6bcc1a4ace058b4a62bf5e179ea78fd58a1ccd71c22cc9b688792f5560047fd9d16d34ffb15ba3a3d852f0d403e2ce1d691fb54de27ac87cd2f993f3ec330f5560087f7dfe757ecd65cbd7922a9c0161e935dd7fdbcc0e999689c7d31633896b1fc60b5560107fedc95719e9a3b28dd8e80877cb5880a9be7de1a13fc8b05e7999683b6b567643557fe2689cd4a84e23ad2f564004f1c9013e9589d260bde6380aba3ca7e09e4df40c55600660005260407f8f331abe73332f95a25873e8b430885974c0409691f89d643119a11623a7924a556200032d565b634e487b7160e01b600052604160045260246000fd5b600181811c90821680620001e757607f821691505b6020821081036200020857634e487b7160e01b600052602260045260246000fd5b50919050565b601f8211156200025c57600081815260208120601f850160051c81016020861015620002375750805b601f850160051c820191505b81811015620002585782815560010162000243565b5050505b505050565b81516001600160401b038111156200027d576200027d620001bc565b62000295816200028e8454620001d2565b846200020e565b602080601f831160018114620002cd5760008415620002b45750858301515b600019600386901b1c1916600185901b17855562000258565b600085815260208120601f198616915b82811015620002fe57888601518255948401946001909101908401620002dd565b50858210156200031d5787850151600019600388901b60f8161c191681555b5050505050600190811b01905550565b615740806200033d6000396000f3fe6080604052600436106103295760003560e01c806375a85472116101a5578063b97beda9116100ec578063d91cfc9511610095578063ec4ca6391161006f578063ec4ca6391461096d578063ed129c3f1461098d578063f1938266146109ad578063fb2b6cef146109cd57600080fd5b8063d91cfc951461090d578063e31b839c1461092d578063e95a71e51461094d57600080fd5b8063ceda64c4116100c6578063ceda64c4146108c5578063d83bf9a1146108e5578063d85f74c1146108fa57600080fd5b8063b97beda914610850578063bafa6a9114610870578063bc7718e31461089057600080fd5b80639333700b1161014e5780639c219247116101285780639c219247146107f0578063a621881014610810578063aa835c631461083057600080fd5b80639333700b146107905780639b23d3d9146107b05780639bc4d354146107d057600080fd5b806384d232f51161017f57806384d232f51461073d5780638ba74da01461075d578063901fe3d01461077057600080fd5b806375a85472146106b15780637adc26b8146106d15780637cea29a3146106f157600080fd5b806330a8f293116102745780634fd6ce0a1161021d578063618dc65e116101f7578063618dc65e14610623578063632da116146106515780636f3e867814610671578063714c42c01461069157600080fd5b80634fd6ce0a146105c357806352205b33146105e35780635ac4fef81461060357600080fd5b806343a882291161024e57806343a88229146105705780634b5c6687146105905780634c09c804146105a357600080fd5b806330a8f293146105005780633150810714610520578063437dffd51461055057600080fd5b806315dacbea116102d65780632390c1fa116102b05780632390c1fa146104a05780632e3cff6a146104c05780632fc358f7146104e057600080fd5b806315dacbea1461042d578063165aae66146104605780631ba978fc1461048057600080fd5b80630c0295d4116103075780630c0295d4146103ae5780630c0a198c146103dc578063144b06ff146103fc57600080fd5b80630435d8401461032e5780630488c9391461036157806306a1a5d31461038c575b600080fd5b34801561033a57600080fd5b5061034e610349366004613e46565b6109ed565b6040519081526020015b60405180910390f35b61037461036f366004613e91565b610a15565b6040516001600160a01b039091168152602001610358565b34801561039857600080fd5b506103ac6103a7366004613e91565b610f4e565b005b3480156103ba57600080fd5b506103ce6103c9366004614054565b610f78565b60405161035892919061416a565b3480156103e857600080fd5b506103ac6103f7366004614186565b610fdf565b34801561040857600080fd5b5061041c6104173660046141a3565b610ff9565b60405161035895949392919061421f565b34801561043957600080fd5b5061044d610448366004614272565b611048565b60405160079190910b8152602001610358565b34801561046c57600080fd5b506103ac61047b366004614186565b61113c565b34801561048c57600080fd5b506103ac61049b366004614396565b611147565b3480156104ac57600080fd5b506103ac6104bb366004614431565b611167565b3480156104cc57600080fd5b5061034e6104db366004614481565b61117e565b3480156104ec57600080fd5b506103ac6104fb366004614431565b611244565b34801561050c57600080fd5b506103ac61051b366004614186565b611250565b34801561052c57600080fd5b5061054061053b366004613e46565b61125b565b6040519015158152602001610358565b34801561055c57600080fd5b506103ac61056b366004613e91565b61126b565b34801561057c57600080fd5b5061034e61058b366004614481565b611282565b61037461059e366004614186565b6112db565b3480156105af57600080fd5b506103ac6105be36600461449a565b6116e3565b3480156105cf57600080fd5b506103ac6105de3660046144fc565b611701565b3480156105ef57600080fd5b506103ac6105fe366004613e91565b61170f565b34801561060f57600080fd5b506103ac61061e366004614558565b61171b565b34801561062f57600080fd5b5061064361063e366004614598565b611728565b6040516103589291906145de565b34801561065d57600080fd5b5061044d61066c3660046145f7565b611856565b34801561067d57600080fd5b5061054061068c366004614186565b611866565b34801561069d57600080fd5b506103ac6106ac366004614186565b611884565b3480156106bd57600080fd5b506103ac6106cc366004614272565b611a60565b3480156106dd57600080fd5b506103ac6106ec366004613e91565b611af3565b3480156106fd57600080fd5b5061071161070c366004614186565b611b26565b60408051600794850b81526001600160a01b039093166020840152920b91810191909152606001610358565b34801561074957600080fd5b506103ac610758366004614627565b611b5e565b61037461076b366004613e91565b611b6b565b34801561077c57600080fd5b506103ac61078b366004613e91565b611f90565b34801561079c57600080fd5b506103ac6107ab366004613e91565b611fa7565b3480156107bc57600080fd5b5061044d6107cb366004614272565b611fb3565b3480156107dc57600080fd5b506103ac6107eb366004614272565b611ff8565b3480156107fc57600080fd5b506103ac61080b366004613e91565b61203e565b34801561081c57600080fd5b506103ac61082b366004614725565b61208d565b34801561083c57600080fd5b506103ac61084b366004614970565b612099565b34801561085c57600080fd5b5061037461086b3660046141a3565b6120a6565b34801561087c57600080fd5b506103ac61088b3660046144fc565b6120c2565b34801561089c57600080fd5b506108b06108ab3660046149f5565b6120d0565b60405163ffffffff9091168152602001610358565b3480156108d157600080fd5b506103ac6108e0366004614627565b61218d565b3480156108f157600080fd5b5061034e61219a565b610374610908366004614186565b612245565b34801561091957600080fd5b506103ac610928366004613e91565b6125e3565b34801561093957600080fd5b506103ac610948366004614a28565b6125ef565b34801561095957600080fd5b506103ac610968366004613e91565b6125fc565b34801561097957600080fd5b506103ac610988366004613e91565b612608565b34801561099957600080fd5b506103ac6109a8366004614186565b612614565b3480156109b957600080fd5b506103ac6109c8366004613e91565b612629565b3480156109d957600080fd5b506103ac6109e8366004613e91565b612633565b60008060006109fd8686866129e0565b91509150610a0a82612ac6565b9150505b9392505050565b60408051600580825260c08201909252600091829190816020015b610a38613dd4565b815260200190600190039081610a30579050509050610a6b60006006600060405180602001604052806000815250612ad6565b81600081518110610a7e57610a7e614a68565b6020026020010181905250610aa56001600060405180602001604052806000815250612b0d565b81600181518110610ab857610ab8614a68565b6020026020010181905250610adf6002600060405180602001604052806000815250612b0d565b81600281518110610af257610af2614a68565b6020026020010181905250610b196004600060405180602001604052806000815250612b0d565b81600381518110610b2c57610b2c614a68565b6020026020010181905250610b536003600060405180602001604052806000815250612b0d565b81600481518110610b6657610b66614a68565b602002602001018190525060006040518060600160405280600060070b8152602001866001600160a01b03168152602001627a120060070b8152509050600060405180610120016040528060028054610bbe90614a7e565b80601f0160208091040260200160405190810160405280929190818152602001828054610bea90614a7e565b8015610c375780601f10610c0c57610100808354040283529160200191610c37565b820191906000526020600020905b815481529060010190602001808311610c1a57829003601f168201915b5050505050815260200160038054610c4e90614a7e565b80601f0160208091040260200160405190810160405280929190818152602001828054610c7a90614a7e565b8015610cc75780601f10610c9c57610100808354040283529160200191610cc7565b820191906000526020600020905b815481529060010190602001808311610caa57829003601f168201915b50505050508152602001876001600160a01b0316815260200160048054610ced90614a7e565b80601f0160208091040260200160405190810160405280929190818152602001828054610d1990614a7e565b8015610d665780601f10610d3b57610100808354040283529160200191610d66565b820191906000526020600020905b815481529060010190602001808311610d4957829003601f168201915b5050509183525050600160208201819052600554600160401b810460070b6040840152600160a01b900460ff16151560608301526080820186905260a0909101849052909150600090604051908082528060200260200182016040528015610e0857816020015b6040805160a081018252600080825260208083018290529282018190526060820181905260808201528252600019909201910181610dcd5790505b506040805160a081018252600181526001600160a01b03808a1660208301526000928201839052606082018390528a166080820152825192935091839190610e5257610e52614a68565b6020908102919091010152604080516001808252818301909252600091816020015b6040805160c08101825260008082526020808301829052928201819052606082018190526080820181905260a08201528252600019909201910181610e745790505090506040518060c00160405280600460070b8152602001600560070b8152602001600a60070b8152602001886001600160a01b03168152602001600015158152602001896001600160a01b031681525081600081518110610f1957610f19614a68565b6020026020010181905250600080610f32858585612b42565b91509150610f3f82612ac6565b96505050505050505b92915050565b610f588282612c6a565b506000610f658383612d4d565b60070b9050610f7381612ac6565b505050565b600060606000806000610f8c888888612d83565b925092509250610f9b83612ac6565b7f696938633d0c2efd9a515bbd9f587fc551d821f11c68f9f230c2f95a36b2eda381604051610fca9190614ab8565b60405180910390a19097909650945050505050565b6000610fea82612e81565b9050610ff581612ac6565b5050565b600080606080600080600061100e8989612f5b565b915060070b915061101e82612ac6565b8051602082015160408301516060840151608090940151929c919b50995091975095509350505050565b6040516001600160a01b038581166024830152848116604483015283166064820152608481018290526000908190819061016790630aed65f560e11b9060a4015b60408051601f198184030181529181526020820180516001600160e01b03166001600160e01b03199094169390931790925290516110c79190614acb565b6000604051808303816000865af19150503d8060008114611104576040519150601f19603f3d011682016040523d82523d6000602084013e611109565b606091505b50915091508161111a57601561112e565b8080602001905181019061112e9190614af9565b60030b979650505050505050565b6000610fea8261308c565b6000611155858585856130ba565b905061116081612ac6565b5050505050565b600061117383836130ea565b9050610f7381612ac6565b60008060006101686001600160a01b0316846040516024016111a291815260200190565b60408051601f198184030181529181526020820180516001600160e01b031663171e7fb560e11b179052516111d79190614acb565b6000604051808303816000865af19150503d8060008114611214576040519150601f19603f3d011682016040523d82523d6000602084013e611219565b606091505b50915091508161122857600080fd5b8080602001905181019061123c9190614b14565b949350505050565b60006111738383613116565b6000610fea82613142565b60008060006109fd868686613170565b6112758282613243565b5060006111738383613243565b60008060006101686001600160a01b0316846040516024016112a691815260200190565b60408051601f198184030181529181526020820180516001600160e01b03166343a8822960e01b179052516111d79190614acb565b60408051600580825260c08201909252600091829190816020015b6112fe613dd4565b8152602001906001900390816112f657905050905061133160006006600060405180602001604052806000815250612ad6565b8160008151811061134457611344614a68565b602002602001018190525061136b6001600060405180602001604052806000815250612b0d565b8160018151811061137e5761137e614a68565b60200260200101819052506113a56002600060405180602001604052806000815250612b0d565b816002815181106113b8576113b8614a68565b60200260200101819052506113df6003600060405180602001604052806000815250612b0d565b816003815181106113f2576113f2614a68565b60200260200101819052506114196004600060405180602001604052806000815250612b0d565b8160048151811061142c5761142c614a68565b602002602001018190525060006040518060600160405280600060070b8152602001856001600160a01b03168152602001627a120060070b815250905060006040518061012001604052806002805461148490614a7e565b80601f01602080910402602001604051908101604052809291908181526020018280546114b090614a7e565b80156114fd5780601f106114d2576101008083540402835291602001916114fd565b820191906000526020600020905b8154815290600101906020018083116114e057829003601f168201915b505050505081526020016003805461151490614a7e565b80601f016020809104026020016040519081016040528092919081815260200182805461154090614a7e565b801561158d5780601f106115625761010080835404028352916020019161158d565b820191906000526020600020905b81548152906001019060200180831161157057829003601f168201915b50505050508152602001866001600160a01b03168152602001600480546115b390614a7e565b80601f01602080910402602001604051908101604052809291908181526020018280546115df90614a7e565b801561162c5780601f106116015761010080835404028352916020019161162c565b820191906000526020600020905b81548152906001019060200180831161160f57829003601f168201915b505050918352505060016020820152600554600160401b8104600790810b604084015260ff600160a01b830416151560608401526080830187905260a0909201859052919250600091829161169091859181900b90600160801b900460030b613279565b9150915061169d82612ac6565b6040516001600160a01b03821681527f7bb17726df1f3adee8aa00ba8e8bc5d6f182af3bbf77604639cb7f008dd3b4ed9060200160405180910390a19695505050505050565b60006116f08484846132e6565b90506116fb81612ac6565b50505050565b6000611155858585856133c6565b6000610f658383612d4d565b60006116f084848461340e565b600060606000806101676001600160a01b031663618dc65e60e01b8787604051602401611756929190614b2d565b60408051601f198184030181529181526020820180516001600160e01b03166001600160e01b03199094169390931790925290516117949190614acb565b6000604051808303816000865af19150503d80600081146117d1576040519150601f19603f3d011682016040523d82523d6000602084013e6117d6565b606091505b50915091507f4af4780e06fe8cb9df64b0794fa6f01399af979175bb988e35e0e57e594567bc828260405161180c929190614b4f565b60405180910390a18161183057601560405180602001604052806000815250611844565b808060200190518101906118449190614baf565b60039190910b97909650945050505050565b60008060006109fd86868661344e565b600080600061187484613524565b915060070b9150610a0e82612ac6565b60408051600480825260a08201909252600091816020015b6118a4613dd4565b81526020019060019003908161189c579050509050611911600160036040516020016118fd907f02e35698a0273a8c6509ae4716c26a52eebca73e5de2c6677b189ef40f6fcd1f815260ed60f81b602082015260210190565b604051602081830303815290604052612b0d565b8160008151811061192457611924614a68565b6020026020010181905250611973600260036040516020016118fd907f02e35698a0273a8c6509ae4716c26a52eebca73e5de2c6677b189ef40f6fcd1f815260ed60f81b602082015260210190565b8160018151811061198657611986614a68565b60200260200101819052506119d5600460036040516020016118fd907f02e35698a0273a8c6509ae4716c26a52eebca73e5de2c6677b189ef40f6fcd1f815260ed60f81b602082015260210190565b816002815181106119e8576119e8614a68565b6020026020010181905250611a366003806040516020016118fd907f02e35698a0273a8c6509ae4716c26a52eebca73e5de2c6677b189ef40f6fcd1f815260ed60f81b602082015260210190565b81600381518110611a4957611a49614a68565b60200260200101819052506000610f6583836135f8565b604051630aed65f560e11b81526001600160a01b0380861660048301528085166024830152831660448201526064810182905260009030906315dacbea906084015b6020604051808303816000875af1158015611ac1573d6000803e3d6000fd5b505050506040513d601f19601f82011682018060405250810190611ae59190614bf3565b60070b905061116081612ac6565b6040805160608101825260008082526001600160a01b038416602083015261232892820192909252906116f08483613624565b6000806000806000611b3786613650565b91509150611b4482612ac6565b805160208201516040909201519097919650945092505050565b60006116f0848484613748565b604080516001808252818301909252600091829190816020015b611b8d613dd4565b815260200190600190039081611b85579050509050611bbf600080600060405180602001604052806000815250612ad6565b81600081518110611bd257611bd2614a68565b602002602001018190525060006040518060600160405280600060070b8152602001866001600160a01b03168152602001627a120060070b8152509050600060405180610120016040528060028054611c2a90614a7e565b80601f0160208091040260200160405190810160405280929190818152602001828054611c5690614a7e565b8015611ca35780601f10611c7857610100808354040283529160200191611ca3565b820191906000526020600020905b815481529060010190602001808311611c8657829003601f168201915b5050505050815260200160038054611cba90614a7e565b80601f0160208091040260200160405190810160405280929190818152602001828054611ce690614a7e565b8015611d335780601f10611d0857610100808354040283529160200191611d33565b820191906000526020600020905b815481529060010190602001808311611d1657829003601f168201915b50505050508152602001876001600160a01b0316815260200160048054611d5990614a7e565b80601f0160208091040260200160405190810160405280929190818152602001828054611d8590614a7e565b8015611dd25780601f10611da757610100808354040283529160200191611dd2565b820191906000526020600020905b815481529060010190602001808311611db557829003601f168201915b5050509183525050600160208201819052600554600160401b900460070b6040808401919091526000606084018190526080840188905260a09093018690528051828152808201909152929350909190816020015b6040805160a081018252600080825260208083018290529282018190526060820181905260808201528252600019909201910181611e275750506040805160a081018252600181526001600160a01b0389811660208301526000928201839052606082018390528a166080820152825192935091839190611eaa57611eaa614a68565b6020908102919091010152604080516001808252818301909252600091816020015b6040805160c08101825260008082526020808301829052928201819052606082018190526080820181905260a08201528252600019909201910181611ecc5750506040805160c0810182526004815260056020820152600a91810191909152601e60608201526000608082018190526001600160a01b038b1660a083015282519293509091839190611f6057611f60614a68565b60209081029190910101526005546000908190610f32908690600781900b90600160801b900460030b8787613785565b611f9a82826138b3565b506000610f6583836138e9565b6000610f6583836138b3565b6040516001600160a01b038581166024830152848116604483015283166064820152608481018290526000908190819061016790639b23d3d960e01b9060a401611089565b604051639b23d3d960e01b81526001600160a01b038086166004830152808516602483015283166044820152606481018290526000903090639b23d3d990608401611aa2565b600061204a838361391f565b905061205581612ac6565b6040518181527f90a5cf4cffe88b4edbb041cfc7a8a812c48a5ec30b84640fb37690875168e3aa9060200160405180910390a1505050565b60006111738383613955565b60006116f0848484613981565b60008060006120b585856139af565b9150915061123c82612ac6565b600061115585858585613a76565b60408051600481526024810182526020810180516001600160e01b031663d83bf9a160e01b1790529051600091829182916101699161210f9190614acb565b6000604051808303816000865af19150503d806000811461214c576040519150601f19603f3d011682016040523d82523d6000602084013e612151565b606091505b50915091508161216057600080fd5b602081015161216f8686614c26565b6121799082614c4a565b6121839087614c7b565b9695505050505050565b60006116f0848484613abe565b60408051600481526024810182526020810180516001600160e01b031663d83bf9a160e01b179052905160009182918291610169916121d99190614acb565b6000604051808303816000865af19150503d8060008114612216576040519150601f19603f3d011682016040523d82523d6000602084013e61221b565b606091505b50915091508161222a57600080fd5b8080602001905181019061223e9190614b14565b9250505090565b60408051600580825260c08201909252600091829190816020015b612268613dd4565b81526020019060019003908161226057905050905061229b60006006600060405180602001604052806000815250612ad6565b816000815181106122ae576122ae614a68565b60200260200101819052506122d56001600060405180602001604052806000815250612b0d565b816001815181106122e8576122e8614a68565b602002602001018190525061230f6002600060405180602001604052806000815250612b0d565b8160028151811061232257612322614a68565b60200260200101819052506123496004600060405180602001604052806000815250612b0d565b8160038151811061235c5761235c614a68565b60200260200101819052506123836003600060405180602001604052806000815250612b0d565b8160048151811061239657612396614a68565b602002602001018190525060006040518060600160405280600060070b8152602001856001600160a01b03168152602001627a120060070b81525090506000604051806101200160405280600280546123ee90614a7e565b80601f016020809104026020016040519081016040528092919081815260200182805461241a90614a7e565b80156124675780601f1061243c57610100808354040283529160200191612467565b820191906000526020600020905b81548152906001019060200180831161244a57829003601f168201915b505050505081526020016003805461247e90614a7e565b80601f01602080910402602001604051908101604052809291908181526020018280546124aa90614a7e565b80156124f75780601f106124cc576101008083540402835291602001916124f7565b820191906000526020600020905b8154815290600101906020018083116124da57829003601f168201915b50505050508152602001866001600160a01b031681526020016004805461251d90614a7e565b80601f016020809104026020016040519081016040528092919081815260200182805461254990614a7e565b80156125965780601f1061256b57610100808354040283529160200191612596565b820191906000526020600020905b81548152906001019060200180831161257957829003601f168201915b505050918352505060016020820152600554600160401b810460070b6040830152600160a01b900460ff16151560608201526080810185905260a001839052905060008061169083613afb565b600061204a8383613243565b60006116f0848484613bdf565b6000610f6583836138e9565b6000610f658383612c6a565b61261d81613142565b506000610fea8261308c565b611275828261391f565b60408051600580825260c08201909252600091816020015b612653613dd4565b81526020019060019003908161264b57905050905061268660006006600060405180602001604052806000815250612ad6565b8160008151811061269957612699614a68565b60200260200101819052506126c06001600060405180602001604052806000815250612b0d565b816001815181106126d3576126d3614a68565b60200260200101819052506126fa6002600060405180602001604052806000815250612b0d565b8160028151811061270d5761270d614a68565b60200260200101819052506127346004600060405180602001604052806000815250612b0d565b8160038151811061274757612747614a68565b602002602001018190525061276e6003600060405180602001604052806000815250612b0d565b8160048151811061278157612781614a68565b602002602001018190525060006040518060600160405280600060070b8152602001846001600160a01b0316815260200161232860070b81525090506000604051806101200160405280600280546127d890614a7e565b80601f016020809104026020016040519081016040528092919081815260200182805461280490614a7e565b80156128515780601f1061282657610100808354040283529160200191612851565b820191906000526020600020905b81548152906001019060200180831161283457829003601f168201915b505050505081526020016003805461286890614a7e565b80601f016020809104026020016040519081016040528092919081815260200182805461289490614a7e565b80156128e15780601f106128b6576101008083540402835291602001916128e1565b820191906000526020600020905b8154815290600101906020018083116128c457829003601f168201915b50505050508152602001856001600160a01b031681526020016004805461290790614a7e565b80601f016020809104026020016040519081016040528092919081815260200182805461293390614a7e565b80156129805780601f1061295557610100808354040283529160200191612980565b820191906000526020600020905b81548152906001019060200180831161296357829003601f168201915b505050918352505060016020820152600554600160401b810460070b6040830152600160a01b900460ff16151560608201526080810185905260a001839052905060006129cd8683613c1d565b90506129d881612ac6565b505050505050565b604080516001600160a01b0385811660248301528481166044830152831660648083019190915282518083039091018152608490910182526020810180516001600160e01b031663927da10560e01b179052905160009182918291829161016791612a4a91614acb565b6000604051808303816000865af19150503d8060008114612a87576040519150601f19603f3d011682016040523d82523d6000602084013e612a8c565b606091505b509150915081612a9f5760156000612ab3565b80806020019051810190612ab39190614c98565b60039190910b9890975095505050505050565b60168114612ad357600080fd5b50565b612ade613dd4565b6040518060400160405280612af38787613c49565b8152602001612b028585613c84565b905295945050505050565b612b15613dd4565b6040518060400160405280612b2986613d95565b8152602001612b388585613c84565b9052949350505050565b600080848061010001516000015160070b6000148015612b6c57506101008101516040015160070b155b15612b82576101008101516276a7006040909101525b6000806101676001600160a01b03163463abb54eb560e01b8a8a8a604051602401612baf93929190614ef7565b60408051601f198184030181529181526020820180516001600160e01b03166001600160e01b0319909416939093179092529051612bed9190614acb565b60006040518083038185875af1925050503d8060008114612c2a576040519150601f19603f3d011682016040523d82523d6000602084013e612c2f565b606091505b509150915081612c425760156000612c56565b80806020019051810190612c569190614fae565b60039190910b999098509650505050505050565b6040516001600160a01b038381166024830152821660448201526000908190819061016790638f8d7f9960e01b906064015b60408051601f198184030181529181526020820180516001600160e01b03166001600160e01b0319909416939093179092529051612cda9190614acb565b6000604051808303816000865af19150503d8060008114612d17576040519150601f19603f3d011682016040523d82523d6000602084013e612d1c565b606091505b509150915081612d2d576015612d41565b80806020019051810190612d419190614af9565b60030b95945050505050565b6040516001600160a01b03838116602483015282166044820152600090819081906101679063af99c63360e01b90606401612c9c565b60008060606000806101676001600160a01b031663e0f4059a60e01b898989604051602401612db493929190614fda565b60408051601f198184030181529181526020820180516001600160e01b03166001600160e01b0319909416939093179092529051612df29190614acb565b6000604051808303816000865af19150503d8060008114612e2f576040519150601f19603f3d011682016040523d82523d6000602084013e612e34565b606091505b509150915081612e57576040805160008082526020820190925260159190612e6b565b80806020019051810190612e6b9190615057565b60039290920b9a90995090975095505050505050565b6040516001600160a01b03821660248201526000908190819061016790637834fb8960e11b906044015b60408051601f198184030181529181526020820180516001600160e01b03166001600160e01b0319909416939093179092529051612ee99190614acb565b6000604051808303816000865af19150503d8060008114612f26576040519150601f19603f3d011682016040523d82523d6000602084013e612f2b565b606091505b509150915081612f3c576015612f50565b80806020019051810190612f509190614af9565b60030b949350505050565b6040805160a081018252600080825260208083018290526060838501819052808401526080830182905283516001600160a01b03871660248201526044808201879052855180830390910181526064909101855290810180516001600160e01b0316631e26e99760e11b179052925190928391829161016791612fde9190614acb565b6000604051808303816000865af19150503d806000811461301b576040519150601f19603f3d011682016040523d82523d6000602084013e613020565b606091505b509150915061306b6040518060a0016040528060001515815260200160006001600160a01b03168152602001606081526020016060815260200160006001600160a01b031681525090565b8261307857601581612ab3565b81806020019051810190612ab39190615122565b6040516001600160a01b03821660248201526000908190819061016790633b3bff0f60e01b90604401612eab565b60008060006101676001600160a01b0316632c4ba19160e01b888888886040516024016110899493929190615236565b60008060006101676001600160a01b03166378b6391860e01b8686604051602401612c9c929190615289565b60008060006101676001600160a01b0316632e63879b60e01b8686604051602401612c9c929190615289565b6040516001600160a01b03821660248201526000908190819061016790631f106b4b60e21b90604401612eab565b604080516001600160a01b0385811660248301528481166044830152831660648083019190915282518083039091018152608490910182526020810180516001600160e01b031663f49f40db60e01b1790529051600091829182918291610167916131da91614acb565b6000604051808303816000865af19150503d8060008114613217576040519150601f19603f3d011682016040523d82523d6000602084013e61321c565b606091505b50915091508161322f5760156000612ab3565b80806020019051810190612ab391906152ab565b6040516001600160a01b03838116602483015282166044820152600090819081906101679063248a35ef60e11b90606401612c9c565b600080848061010001516000015160070b60001480156132a357506101008101516040015160070b155b156132b9576101008101516276a7006040909101525b6000806101676001600160a01b031634630fb65bf360e01b8a8a8a604051602401612baf939291906152d7565b60008060006101676001600160a01b031663f7f38e2660e01b87878760405160240161331493929190615306565b60408051601f198184030181529181526020820180516001600160e01b03166001600160e01b03199094169390931790925290516133529190614acb565b6000604051808303816000865af19150503d806000811461338f576040519150601f19603f3d011682016040523d82523d6000602084013e613394565b606091505b5091509150816133a55760156133b9565b808060200190518101906133b99190614af9565b60030b9695505050505050565b6040516001600160a01b038581166024830152848116604483015283166064820152600782900b6084820152600090819081906101679063eca3691760e01b9060a401611089565b6040516001600160a01b03848116602483015283166044820152600782900b6064820152600090819081906101679063efef57f960e01b90608401613314565b6000806000806101676001600160a01b031663d6910d0660e01b88888860405160240161347d9392919061533b565b60408051601f198184030181529181526020820180516001600160e01b03166001600160e01b03199094169390931790925290516134bb9190614acb565b6000604051808303816000865af19150503d80600081146134f8576040519150601f19603f3d011682016040523d82523d6000602084013e6134fd565b606091505b5091509150816135105760156000612ab3565b80806020019051810190612ab39190615366565b604080516001600160a01b03831660248083019190915282518083039091018152604490910182526020810180516001600160e01b03166319f3736160e01b17905290516000918291829182916101679161357e91614acb565b6000604051808303816000865af19150503d80600081146135bb576040519150601f19603f3d011682016040523d82523d6000602084013e6135c0565b606091505b5091509150816135d357601560006135e7565b808060200190518101906135e791906152ab565b60039190910b969095509350505050565b60008060006101676001600160a01b0316636fc3cbaf60e01b8686604051602401612c9c929190615392565b60008060006101676001600160a01b031663d27be6cd60e01b8686604051602401612c9c9291906153b4565b604080516060810182526000808252602080830182905282840182905283516001600160a01b038616602480830191909152855180830390910181526044909101855290810180516001600160e01b0316631ac299b760e31b1790529251909283918291610167916136c29190614acb565b6000604051808303816000865af19150503d80600081146136ff576040519150601f19603f3d011682016040523d82523d6000602084013e613704565b606091505b50604080516060810182526000808252602082018190529181019190915291935091508261373457601581611844565b8180602001905181019061184491906153f7565b6040516001600160a01b038481166024830152831660448201526064810182905260009081908190610167906307336aaf60e41b90608401613314565b600080868061010001516000015160070b60001480156137af57506101008101516040015160070b155b156137c5576101008101516276a7006040909101525b6000806101676001600160a01b031634632af0c59a60e01b8c8c8c8c8c6040516024016137f6959493929190615472565b60408051601f198184030181529181526020820180516001600160e01b03166001600160e01b03199094169390931790925290516138349190614acb565b60006040518083038185875af1925050503d8060008114613871576040519150601f19603f3d011682016040523d82523d6000602084013e613876565b606091505b509150915081613889576015600061389d565b8080602001905181019061389d9190614fae565b60039190910b9b909a5098505050505050505050565b6040516001600160a01b0383811660248301528216604482015260009081908190610167906316e3e16160e21b90606401612c9c565b6040516001600160a01b0383811660248301528216604482015260009081908190610167906352f9138760e01b90606401612c9c565b6040516001600160a01b038381166024830152821660448201526000908190819061016790630132f29d60e31b90606401612c9c565b60008060006101676001600160a01b0316630e71804f60e01b8686604051602401612c9c92919061558e565b60008060006101676001600160a01b03166382bba49360e01b8787876040516024016133149392919061568b565b604080516001600160a01b0384166024820152604480820184905282518083039091018152606490910182526020810180516001600160e01b03166304c791b360e11b179052905160009182918291829161016791613a0d91614acb565b6000604051808303816000865af19150503d8060008114613a4a576040519150601f19603f3d011682016040523d82523d6000602084013e613a4f565b606091505b509150915081613a625760156000611844565b808060200190518101906118449190614fae565b6040516001600160a01b038581166024830152848116604483015283166064820152600782900b60848201526000908190819061016790635cfc901160e01b9060a401611089565b6040516001600160a01b0384811660248301528316604482015260648101829052600090819081906101679063e1f21c6760e01b90608401613314565b600080828061010001516000015160070b6000148015613b2557506101008101516040015160070b155b15613b3b576101008101516276a7006040909101525b6000806101676001600160a01b03163463ea83f29360e01b88604051602401613b6491906156bf565b60408051601f198184030181529181526020820180516001600160e01b03166001600160e01b0319909416939093179092529051613ba29190614acb565b60006040518083038185875af1925050503d8060008114613a4a576040519150601f19603f3d011682016040523d82523d6000602084013e613a4f565b6040516001600160a01b0384811660248301528316604482015281151560648201526000908190819061016790631b3b02e560e11b90608401613314565b60008060006101676001600160a01b0316637d305cfa60e01b8686604051602401612c9c9291906156d2565b6000613c6d836006811115613c6057613c606156f4565b600160ff9091161b821790565b9050610a0e826006811115613c6057613c606156f4565b613cca6040518060a0016040528060001515815260200160006001600160a01b03168152602001606081526020016060815260200160006001600160a01b031681525090565b6000836004811115613cde57613cde6156f4565b03613cec5760018152610f48565b6001836004811115613d0057613d006156f4565b03613d1b576000546001600160a01b03166020820152610f48565b6002836004811115613d2f57613d2f6156f4565b03613d405760408101829052610f48565b6003836004811115613d5457613d546156f4565b03613d655760608101829052610f48565b6004836004811115613d7957613d796156f4565b03610f48576000546001600160a01b0316608082015292915050565b600060016000836006811115613dad57613dad6156f4565b6006811115613dbe57613dbe6156f4565b8152602001908152602001600020549050919050565b604051806040016040528060008152602001613e2c6040518060a0016040528060001515815260200160006001600160a01b03168152602001606081526020016060815260200160006001600160a01b031681525090565b905290565b6001600160a01b0381168114612ad357600080fd5b600080600060608486031215613e5b57600080fd5b8335613e6681613e31565b92506020840135613e7681613e31565b91506040840135613e8681613e31565b809150509250925092565b60008060408385031215613ea457600080fd5b8235613eaf81613e31565b91506020830135613ebf81613e31565b809150509250929050565b8060070b8114612ad357600080fd5b634e487b7160e01b600052604160045260246000fd5b6040516060810167ffffffffffffffff81118282101715613f1257613f12613ed9565b60405290565b6040516020810167ffffffffffffffff81118282101715613f1257613f12613ed9565b6040516080810167ffffffffffffffff81118282101715613f1257613f12613ed9565b60405160a0810167ffffffffffffffff81118282101715613f1257613f12613ed9565b604051601f8201601f1916810167ffffffffffffffff81118282101715613faa57613faa613ed9565b604052919050565b600067ffffffffffffffff821115613fcc57613fcc613ed9565b5060051b60200190565b600067ffffffffffffffff821115613ff057613ff0613ed9565b50601f01601f191660200190565b600082601f83011261400f57600080fd5b813561402261401d82613fd6565b613f81565b81815284602083860101111561403757600080fd5b816020850160208301376000918101602001919091529392505050565b60008060006060848603121561406957600080fd5b833561407481613e31565b925060208481013561408581613eca565b9250604085013567ffffffffffffffff808211156140a257600080fd5b818701915087601f8301126140b657600080fd5b81356140c461401d82613fb2565b81815260059190911b8301840190848101908a8311156140e357600080fd5b8585015b8381101561411b578035858111156140ff5760008081fd5b61410d8d89838a0101613ffe565b8452509186019186016140e7565b508096505050505050509250925092565b600081518084526020808501945080840160005b8381101561415f57815160070b87529582019590820190600101614140565b509495945050505050565b8260070b815260406020820152600061123c604083018461412c565b60006020828403121561419857600080fd5b8135610a0e81613e31565b600080604083850312156141b657600080fd5b82356141c181613e31565b946020939093013593505050565b60005b838110156141ea5781810151838201526020016141d2565b50506000910152565b6000815180845261420b8160208601602086016141cf565b601f01601f19169290920160200192915050565b851515815260006001600160a01b03808716602084015260a0604084015261424a60a08401876141f3565b838103606085015261425c81876141f3565b9250508084166080840152509695505050505050565b6000806000806080858703121561428857600080fd5b843561429381613e31565b935060208501356142a381613e31565b925060408501356142b381613e31565b9396929550929360600135925050565b600082601f8301126142d457600080fd5b813560206142e461401d83613fb2565b82815260059290921b8401810191818101908684111561430357600080fd5b8286015b8481101561432757803561431a81613e31565b8352918301918301614307565b509695505050505050565b600082601f83011261434357600080fd5b8135602061435361401d83613fb2565b82815260059290921b8401810191818101908684111561437257600080fd5b8286015b8481101561432757803561438981613eca565b8352918301918301614376565b600080600080608085870312156143ac57600080fd5b84356143b781613e31565b9350602085013567ffffffffffffffff808211156143d457600080fd5b6143e0888389016142c3565b945060408701359150808211156143f657600080fd5b614402888389016142c3565b9350606087013591508082111561441857600080fd5b5061442587828801614332565b91505092959194509250565b6000806040838503121561444457600080fd5b823561444f81613e31565b9150602083013567ffffffffffffffff81111561446b57600080fd5b614477858286016142c3565b9150509250929050565b60006020828403121561449357600080fd5b5035919050565b6000806000606084860312156144af57600080fd5b83356144ba81613e31565b925060208401356144ca81613e31565b9150604084013567ffffffffffffffff8111156144e657600080fd5b6144f286828701614332565b9150509250925092565b6000806000806080858703121561451257600080fd5b843561451d81613e31565b9350602085013561452d81613e31565b9250604085013561453d81613e31565b9150606085013561454d81613eca565b939692955090935050565b60008060006060848603121561456d57600080fd5b833561457881613e31565b9250602084013561458881613e31565b91506040840135613e8681613eca565b600080604083850312156145ab57600080fd5b82356145b681613e31565b9150602083013567ffffffffffffffff8111156145d257600080fd5b61447785828601613ffe565b82815260406020820152600061123c60408301846141f3565b60008060006060848603121561460c57600080fd5b833561461781613e31565b925060208401356144ca81613eca565b60008060006060848603121561463c57600080fd5b833561464781613e31565b9250602084013561465781613e31565b929592945050506040919091013590565b8015158114612ad357600080fd5b600082601f83011261468757600080fd5b8135602061469761401d83613fb2565b828152606092830285018201928282019190878511156146b657600080fd5b8387015b858110156147185781818a0312156146d25760008081fd5b6146da613eef565b81356146e581613e31565b8152818601356146f481613eca565b8187015260408281013561470781614668565b9082015284529284019281016146ba565b5090979650505050505050565b6000806040838503121561473857600080fd5b67ffffffffffffffff808435111561474f57600080fd5b6020843585018603121561476257600080fd5b61476a613f18565b818535860135111561477b57600080fd5b61478b8686358701803501614676565b8152925060208401358110156147a057600080fd5b6020840135840185601f8201126147b657600080fd5b6147c361401d8235613fb2565b81358082526020808301929160051b8401018810156147e157600080fd5b602083015b6020843560051b85010181101561496157848135111561480557600080fd5b803584016060818b03601f1901121561481d57600080fd5b614825613eef565b6148326020830135613e31565b60208201358152866040830135111561484a57600080fd5b61485d8b60206040850135850101614676565b6020820152866060830135111561487357600080fd5b6060820135820191508a603f83011261488b57600080fd5b61489b61401d6020840135613fb2565b602083810135808352908201919060071b84016040018d8111156148be57600080fd5b6040850194505b8085101561494b576080858f0312156148dd57600080fd5b6148e5613f3b565b6148ef8635613e31565b853581526149006020870135613e31565b602086013560208201526149176040870135613eca565b6040860135604082015261492e6060870135614668565b6060868101359082015283526080909401936020909201916148c5565b50604083015250845250602092830192016147e6565b50809450505050509250929050565b60008060006060848603121561498557600080fd5b833561499081613e31565b9250602084013567ffffffffffffffff808211156149ad57600080fd5b6149b9878388016142c3565b935060408601359150808211156149cf57600080fd5b506144f286828701614332565b803563ffffffff811681146149f057600080fd5b919050565b60008060408385031215614a0857600080fd5b614a11836149dc565b9150614a1f602084016149dc565b90509250929050565b600080600060608486031215614a3d57600080fd5b8335614a4881613e31565b92506020840135614a5881613e31565b91506040840135613e8681614668565b634e487b7160e01b600052603260045260246000fd5b600181811c90821680614a9257607f821691505b602082108103614ab257634e487b7160e01b600052602260045260246000fd5b50919050565b602081526000610a0e602083018461412c565b60008251614add8184602087016141cf565b9190910192915050565b8051600381900b81146149f057600080fd5b600060208284031215614b0b57600080fd5b610a0e82614ae7565b600060208284031215614b2657600080fd5b5051919050565b6001600160a01b038316815260406020820152600061123c60408301846141f3565b821515815260406020820152600061123c60408301846141f3565b600082601f830112614b7b57600080fd5b8151614b8961401d82613fd6565b818152846020838601011115614b9e57600080fd5b61123c8260208301602087016141cf565b60008060408385031215614bc257600080fd5b614bcb83614ae7565b9150602083015167ffffffffffffffff811115614be757600080fd5b61447785828601614b6a565b600060208284031215614c0557600080fd5b8151610a0e81613eca565b634e487b7160e01b600052601160045260246000fd5b63ffffffff828116828216039080821115614c4357614c43614c10565b5092915050565b600063ffffffff80841680614c6f57634e487b7160e01b600052601260045260246000fd5b92169190910692915050565b63ffffffff818116838216019080821115614c4357614c43614c10565b60008060408385031215614cab57600080fd5b614cb483614ae7565b9150602083015190509250929050565b600081518084526020808501808196508360051b8101915082860160005b85811015614d7b5782840389528151604081518652868201519150808787015281511515818701528682015160606001600160a01b03808316828a015283850151935060a09250608083818b0152614d3d60e08b01866141f3565b928601518a8403603f1901858c0152929450614d5985846141f3565b9501511660c09890980197909752505098850198935090840190600101614ce2565b5091979650505050505050565b60006101608251818552614d9e828601826141f3565b91505060208301518482036020860152614db882826141f3565b9150506040830151614dd560408601826001600160a01b03169052565b5060608301518482036060860152614ded82826141f3565b9150506080830151614e03608086018215159052565b5060a0830151614e1860a086018260070b9052565b5060c0830151614e2c60c086018215159052565b5060e083015184820360e0860152614e448282614cc4565b91505061010080840151614e8082870182805160070b82526001600160a01b036020820151166020830152604081015160070b60408301525050565b5090949350505050565b600081518084526020808501945080840160005b8381101561415f578151805160070b8852838101516001600160a01b03908116858a01526040808301511515908a01526060808301511515908a0152608091820151169088015260a09096019590820190600101614e9e565b60006060808352614f0a81840187614d88565b602084820381860152614f1d8288614e8a565b91506040858303818701528287518085528385019150838901945060005b81811015614f9e5785518051600790810b855286820151810b8786015285820151900b85850152878101516001600160a01b039081168986015260808083015115159086015260a09182015116908401529484019460c090920191600101614f3b565b50909a9950505050505050505050565b60008060408385031215614fc157600080fd5b614fca83614ae7565b91506020830151613ebf81613e31565b6000606082016001600160a01b038616835260208560070b818501526060604085015281855180845260808601915060808160051b870101935082870160005b8281101561504857607f198887030184526150368683516141f3565b9550928401929084019060010161501a565b50939998505050505050505050565b60008060006060848603121561506c57600080fd5b61507584614ae7565b925060208085015161508681613eca565b604086015190935067ffffffffffffffff8111156150a357600080fd5b8501601f810187136150b457600080fd5b80516150c261401d82613fb2565b81815260059190911b820183019083810190898311156150e157600080fd5b928401925b828410156151085783516150f981613eca565b825292840192908401906150e6565b80955050505050509250925092565b80516149f081613e31565b6000806040838503121561513557600080fd5b61513e83614ae7565b9150602083015167ffffffffffffffff8082111561515b57600080fd5b9084019060a0828703121561516f57600080fd5b615177613f5e565b825161518281614668565b8152602083015161519281613e31565b60208201526040830151828111156151a957600080fd5b6151b588828601614b6a565b6040830152506060830151828111156151cd57600080fd5b6151d988828601614b6a565b6060830152506151eb60808401615117565b60808201528093505050509250929050565b600081518084526020808501945080840160005b8381101561415f5781516001600160a01b031687529582019590820190600101615211565b6001600160a01b038516815260806020820152600061525860808301866151fd565b828103604084015261526a81866151fd565b9050828103606084015261527e818561412c565b979650505050505050565b6001600160a01b038316815260406020820152600061123c60408301846151fd565b600080604083850312156152be57600080fd5b6152c783614ae7565b91506020830151613ebf81614668565b6060815260006152ea6060830186614d88565b90508360070b60208301528260030b6040830152949350505050565b60006001600160a01b03808616835280851660208401525060606040830152615332606083018461412c565b95945050505050565b6001600160a01b03841681528260070b6020820152606060408201526000615332606083018461412c565b6000806040838503121561537957600080fd5b61538283614ae7565b91506020830151613ebf81613eca565b6001600160a01b038316815260406020820152600061123c6040830184614cc4565b6001600160a01b038316815260808101610a0e6020830184805160070b82526001600160a01b036020820151166020830152604081015160070b60408301525050565b600080828403608081121561540b57600080fd5b61541484614ae7565b92506060601f198201121561542857600080fd5b50615431613eef565b602084015161543f81613eca565b8152604084015161544f81613e31565b6020820152606084015161546281613eca565b6040820152919491935090915050565b600060a080835261548581840189614d88565b6020600789810b8287015260408960030b818801526060878503818901526154ad858b614e8a565b94506080888603818a0152858a518088528688019150868c01975060005b818110156155255788518051880b845288810151880b8985015286810151880b8785015285810151880b86850152848101511515858501528a01516001600160a01b03168a8401529787019760c0909201916001016154cb565b50909f9e505050505050505050505050505050565b600081518084526020808501945080840160005b8381101561415f57815180516001600160a01b031688528381015160070b848901526040908101511515908801526060909601959082019060010161554e565b6000604080835260608551602080848701526155ac8387018361553a565b9150858203818701528187518084528284019150828160051b850101838a0160005b8381101561567a57601f1987840301855281516001600160a01b03808251168552878201518a898701526156048b87018261553a565b928c0151868403878e01528051808552908a0193600092508a01905b808310156156645784518051851683528b81015185168c8401528e81015160070b8f8401528d015115158d830152938a019360019290920191608090910190615620565b50978901979550505091860191506001016155ce565b50909b9a5050505050505050505050565b6001600160a01b03841681526060602082015260006156ad60608301856151fd565b8281036040840152612183818561412c565b602081526000610a0e6020830184614d88565b6001600160a01b038316815260406020820152600061123c6040830184614d88565b634e487b7160e01b600052602160045260246000fdfea2646970667358221220af91114792bf01f37e2f4a3b1317c585341099587a68ec4f2d69b60019d6916964736f6c63430008140033",
  "linkReferences": {},
  "deployedLinkReferences": {}
}