{
  "_format": "hh-sol-artifact-1",
  "contractName": "HederaTokenServiceImpl",
  "sourceName": "contracts/HederaTokenServiceImpl.sol",
  "abi": [
    {
      "inputs": [
        {
          "internalType": "address",
          "name": "token",
          "type": "address"
        },
        {
          "internalType": "address",
          "name": "from",
          "type": "address"
        },
        {
          "internalType": "address",
          "name": "to",
          "type": "address"
        },
        {
          "internalType": "uint256",
          "name": "amount",
          "type": "uint256"
        }
      ],
      "name": "delegateTransferFrom",
      "outputs": [
        {
          "internalType": "int64",
          "name": "responseCode",
          "type": "int64"
        }
      ],
      "stateMutability": "nonpayable",
      "type": "function"
    },
    {
      "inputs": [
        {
          "internalType": "address",
          "name": "token",
          "type": "address"
        },
        {
          "internalType": "address",
          "name": "from",
          "type": "address"
        },
        {
          "internalType": "address",
          "name": "to",
          "type": "address"
        },
        {
          "internalType": "uint256",
          "name": "serialNumber",
          "type": "uint256"
        }
      ],
      "name": "delegateTransferFromNFT",
      "outputs": [
        {
          "internalType": "int64",
          "name": "responseCode",
          "type": "int64"
        }
      ],
      "stateMutability": "nonpayable",
      "type": "function"
    },
    {
      "inputs": [
        {
          "internalType": "address",
          "name": "token",
          "type": "address"
        }
      ],
      "name": "getCustomFeesForToken",
      "outputs": [
        {
          "components": [
            {
              "internalType": "int64",
              "name": "amount",
              "type": "int64"
            },
            {
              "internalType": "address",
              "name": "tokenId",
              "type": "address"
            },
            {
              "internalType": "bool",
              "name": "useHbarsForPayment",
              "type": "bool"
            },
            {
              "internalType": "bool",
              "name": "useCurrentTokenForPayment",
              "type": "bool"
            },
            {
              "internalType": "address",
              "name": "feeCollector",
              "type": "address"
            }
          ],
          "internalType": "struct IHederaTokenService.FixedFee[]",
          "name": "fixedFees",
          "type": "tuple[]"
        },
        {
          "components": [
            {
              "internalType": "int64",
              "name": "numerator",
              "type": "int64"
            },
            {
              "internalType": "int64",
              "name": "denominator",
              "type": "int64"
            },
            {
              "internalType": "int64",
              "name": "minimumAmount",
              "type": "int64"
            },
            {
              "internalType": "int64",
              "name": "maximumAmount",
              "type": "int64"
            },
            {
              "internalType": "bool",
              "name": "netOfTransfers",
              "type": "bool"
            },
            {
              "internalType": "address",
              "name": "feeCollector",
              "type": "address"
            }
          ],
          "internalType": "struct IHederaTokenService.FractionalFee[]",
          "name": "fractionalFees",
          "type": "tuple[]"
        },
        {
          "components": [
            {
              "internalType": "int64",
              "name": "numerator",
              "type": "int64"
            },
            {
              "internalType": "int64",
              "name": "denominator",
              "type": "int64"
            },
            {
              "internalType": "int64",
              "name": "amount",
              "type": "int64"
            },
            {
              "internalType": "address",
              "name": "tokenId",
              "type": "address"
            },
            {
              "internalType": "bool",
              "name": "useHbarsForPayment",
              "type": "bool"
            },
            {
              "internalType": "address",
              "name": "feeCollector",
              "type": "address"
            }
          ],
          "internalType": "struct IHederaTokenService.RoyaltyFee[]",
          "name": "royaltyFees",
          "type": "tuple[]"
        }
      ],
      "stateMutability": "nonpayable",
      "type": "function"
    },
    {
      "inputs": [
        {
          "internalType": "address",
          "name": "token",
          "type": "address"
        }
      ],
      "name": "getExpiryInfoForToken",
      "outputs": [
        {
          "components": [
            {
              "internalType": "int64",
              "name": "second",
              "type": "int64"
            },
            {
              "internalType": "address",
              "name": "autoRenewAccount",
              "type": "address"
            },
            {
              "internalType": "int64",
              "name": "autoRenewPeriod",
              "type": "int64"
            }
          ],
          "internalType": "struct IHederaTokenService.Expiry",
          "name": "expiry",
          "type": "tuple"
        }
      ],
      "stateMutability": "nonpayable",
      "type": "function"
    },
    {
      "inputs": [
        {
          "internalType": "address",
          "name": "token",
          "type": "address"
        }
      ],
      "name": "getInformationForFungibleToken",
      "outputs": [
        {
          "components": [
            {
              "components": [
                {
                  "components": [
                    {
                      "internalType": "string",
                      "name": "name",
                      "type": "string"
                    },
                    {
                      "internalType": "string",
                      "name": "symbol",
                      "type": "string"
                    },
                    {
                      "internalType": "address",
                      "name": "treasury",
                      "type": "address"
                    },
                    {
                      "internalType": "string",
                      "name": "memo",
                      "type": "string"
                    },
                    {
                      "internalType": "bool",
                      "name": "tokenSupplyType",
                      "type": "bool"
                    },
                    {
                      "internalType": "int64",
                      "name": "maxSupply",
                      "type": "int64"
                    },
                    {
                      "internalType": "bool",
                      "name": "freezeDefault",
                      "type": "bool"
                    },
                    {
                      "components": [
                        {
                          "internalType": "uint256",
                          "name": "keyType",
                          "type": "uint256"
                        },
                        {
                          "components": [
                            {
                              "internalType": "bool",
                              "name": "inheritAccountKey",
                              "type": "bool"
                            },
                            {
                              "internalType": "address",
                              "name": "contractId",
                              "type": "address"
                            },
                            {
                              "internalType": "bytes",
                              "name": "ed25519",
                              "type": "bytes"
                            },
                            {
                              "internalType": "bytes",
                              "name": "ECDSA_secp256k1",
                              "type": "bytes"
                            },
                            {
                              "internalType": "address",
                              "name": "delegatableContractId",
                              "type": "address"
                            }
                          ],
                          "internalType": "struct IHederaTokenService.KeyValue",
                          "name": "key",
                          "type": "tuple"
                        }
                      ],
                      "internalType": "struct IHederaTokenService.TokenKey[]",
                      "name": "tokenKeys",
                      "type": "tuple[]"
                    },
                    {
                      "components": [
                        {
                          "internalType": "int64",
                          "name": "second",
                          "type": "int64"
                        },
                        {
                          "internalType": "address",
                          "name": "autoRenewAccount",
                          "type": "address"
                        },
                        {
                          "internalType": "int64",
                          "name": "autoRenewPeriod",
                          "type": "int64"
                        }
                      ],
                      "internalType": "struct IHederaTokenService.Expiry",
                      "name": "expiry",
                      "type": "tuple"
                    }
                  ],
                  "internalType": "struct IHederaTokenService.HederaToken",
                  "name": "token",
                  "type": "tuple"
                },
                {
                  "internalType": "int64",
                  "name": "totalSupply",
                  "type": "int64"
                },
                {
                  "internalType": "bool",
                  "name": "deleted",
                  "type": "bool"
                },
                {
                  "internalType": "bool",
                  "name": "defaultKycStatus",
                  "type": "bool"
                },
                {
                  "internalType": "bool",
                  "name": "pauseStatus",
                  "type": "bool"
                },
                {
                  "components": [
                    {
                      "internalType": "int64",
                      "name": "amount",
                      "type": "int64"
                    },
                    {
                      "internalType": "address",
                      "name": "tokenId",
                      "type": "address"
                    },
                    {
                      "internalType": "bool",
                      "name": "useHbarsForPayment",
                      "type": "bool"
                    },
                    {
                      "internalType": "bool",
                      "name": "useCurrentTokenForPayment",
                      "type": "bool"
                    },
                    {
                      "internalType": "address",
                      "name": "feeCollector",
                      "type": "address"
                    }
                  ],
                  "internalType": "struct IHederaTokenService.FixedFee[]",
                  "name": "fixedFees",
                  "type": "tuple[]"
                },
                {
                  "components": [
                    {
                      "internalType": "int64",
                      "name": "numerator",
                      "type": "int64"
                    },
                    {
                      "internalType": "int64",
                      "name": "denominator",
                      "type": "int64"
                    },
                    {
                      "internalType": "int64",
                      "name": "minimumAmount",
                      "type": "int64"
                    },
                    {
                      "internalType": "int64",
                      "name": "maximumAmount",
                      "type": "int64"
                    },
                    {
                      "internalType": "bool",
                      "name": "netOfTransfers",
                      "type": "bool"
                    },
                    {
                      "internalType": "address",
                      "name": "feeCollector",
                      "type": "address"
                    }
                  ],
                  "internalType": "struct IHederaTokenService.FractionalFee[]",
                  "name": "fractionalFees",
                  "type": "tuple[]"
                },
                {
                  "components": [
                    {
                      "internalType": "int64",
                      "name": "numerator",
                      "type": "int64"
                    },
                    {
                      "internalType": "int64",
                      "name": "denominator",
                      "type": "int64"
                    },
                    {
                      "internalType": "int64",
                      "name": "amount",
                      "type": "int64"
                    },
                    {
                      "internalType": "address",
                      "name": "tokenId",
                      "type": "address"
                    },
                    {
                      "internalType": "bool",
                      "name": "useHbarsForPayment",
                      "type": "bool"
                    },
                    {
                      "internalType": "address",
                      "name": "feeCollector",
                      "type": "address"
                    }
                  ],
                  "internalType": "struct IHederaTokenService.RoyaltyFee[]",
                  "name": "royaltyFees",
                  "type": "tuple[]"
                },
                {
                  "internalType": "string",
                  "name": "ledgerId",
                  "type": "string"
                }
              ],
              "internalType": "struct IHederaTokenService.TokenInfo",
              "name": "tokenInfo",
              "type": "tuple"
            },
            {
              "internalType": "int32",
              "name": "decimals",
              "type": "int32"
            }
          ],
          "internalType": "struct IHederaTokenService.FungibleTokenInfo",
          "name": "fungibleTokenInfo",
          "type": "tuple"
        }
      ],
      "stateMutability": "nonpayable",
      "type": "function"
    },
    {
      "inputs": [
        {
          "internalType": "address",
          "name": "token",
          "type": "address"
        },
        {
          "internalType": "int64",
          "name": "serialNumber",
          "type": "int64"
        }
      ],
      "name": "getInformationForNonFungibleToken",
      "outputs": [
        {
          "components": [
            {
              "components": [
                {
                  "components": [
                    {
                      "internalType": "string",
                      "name": "name",
                      "type": "string"
                    },
                    {
                      "internalType": "string",
                      "name": "symbol",
                      "type": "string"
                    },
                    {
                      "internalType": "address",
                      "name": "treasury",
                      "type": "address"
                    },
                    {
                      "internalType": "string",
                      "name": "memo",
                      "type": "string"
                    },
                    {
                      "internalType": "bool",
                      "name": "tokenSupplyType",
                      "type": "bool"
                    },
                    {
                      "internalType": "int64",
                      "name": "maxSupply",
                      "type": "int64"
                    },
                    {
                      "internalType": "bool",
                      "name": "freezeDefault",
                      "type": "bool"
                    },
                    {
                      "components": [
                        {
                          "internalType": "uint256",
                          "name": "keyType",
                          "type": "uint256"
                        },
                        {
                          "components": [
                            {
                              "internalType": "bool",
                              "name": "inheritAccountKey",
                              "type": "bool"
                            },
                            {
                              "internalType": "address",
                              "name": "contractId",
                              "type": "address"
                            },
                            {
                              "internalType": "bytes",
                              "name": "ed25519",
                              "type": "bytes"
                            },
                            {
                              "internalType": "bytes",
                              "name": "ECDSA_secp256k1",
                              "type": "bytes"
                            },
                            {
                              "internalType": "address",
                              "name": "delegatableContractId",
                              "type": "address"
                            }
                          ],
                          "internalType": "struct IHederaTokenService.KeyValue",
                          "name": "key",
                          "type": "tuple"
                        }
                      ],
                      "internalType": "struct IHederaTokenService.TokenKey[]",
                      "name": "tokenKeys",
                      "type": "tuple[]"
                    },
                    {
                      "components": [
                        {
                          "internalType": "int64",
                          "name": "second",
                          "type": "int64"
                        },
                        {
                          "internalType": "address",
                          "name": "autoRenewAccount",
                          "type": "address"
                        },
                        {
                          "internalType": "int64",
                          "name": "autoRenewPeriod",
                          "type": "int64"
                        }
                      ],
                      "internalType": "struct IHederaTokenService.Expiry",
                      "name": "expiry",
                      "type": "tuple"
                    }
                  ],
                  "internalType": "struct IHederaTokenService.HederaToken",
                  "name": "token",
                  "type": "tuple"
                },
                {
                  "internalType": "int64",
                  "name": "totalSupply",
                  "type": "int64"
                },
                {
                  "internalType": "bool",
                  "name": "deleted",
                  "type": "bool"
                },
                {
                  "internalType": "bool",
                  "name": "defaultKycStatus",
                  "type": "bool"
                },
                {
                  "internalType": "bool",
                  "name": "pauseStatus",
                  "type": "bool"
                },
                {
                  "components": [
                    {
                      "internalType": "int64",
                      "name": "amount",
                      "type": "int64"
                    },
                    {
                      "internalType": "address",
                      "name": "tokenId",
                      "type": "address"
                    },
                    {
                      "internalType": "bool",
                      "name": "useHbarsForPayment",
                      "type": "bool"
                    },
                    {
                      "internalType": "bool",
                      "name": "useCurrentTokenForPayment",
                      "type": "bool"
                    },
                    {
                      "internalType": "address",
                      "name": "feeCollector",
                      "type": "address"
                    }
                  ],
                  "internalType": "struct IHederaTokenService.FixedFee[]",
                  "name": "fixedFees",
                  "type": "tuple[]"
                },
                {
                  "components": [
                    {
                      "internalType": "int64",
                      "name": "numerator",
                      "type": "int64"
                    },
                    {
                      "internalType": "int64",
                      "name": "denominator",
                      "type": "int64"
                    },
                    {
                      "internalType": "int64",
                      "name": "minimumAmount",
                      "type": "int64"
                    },
                    {
                      "internalType": "int64",
                      "name": "maximumAmount",
                      "type": "int64"
                    },
                    {
                      "internalType": "bool",
                      "name": "netOfTransfers",
                      "type": "bool"
                    },
                    {
                      "internalType": "address",
                      "name": "feeCollector",
                      "type": "address"
                    }
                  ],
                  "internalType": "struct IHederaTokenService.FractionalFee[]",
                  "name": "fractionalFees",
                  "type": "tuple[]"
                },
                {
                  "components": [
                    {
                      "internalType": "int64",
                      "name": "numerator",
                      "type": "int64"
                    },
                    {
                      "internalType": "int64",
                      "name": "denominator",
                      "type": "int64"
                    },
                    {
                      "internalType": "int64",
                      "name": "amount",
                      "type": "int64"
                    },
                    {
                      "internalType": "address",
                      "name": "tokenId",
                      "type": "address"
                    },
                    {
                      "internalType": "bool",
                      "name": "useHbarsForPayment",
                      "type": "bool"
                    },
                    {
                      "internalType": "address",
                      "name": "feeCollector",
                      "type": "address"
                    }
                  ],
                  "internalType": "struct IHederaTokenService.RoyaltyFee[]",
                  "name": "royaltyFees",
                  "type": "tuple[]"
                },
                {
                  "internalType": "string",
                  "name": "ledgerId",
                  "type": "string"
                }
              ],
              "internalType": "struct IHederaTokenService.TokenInfo",
              "name": "tokenInfo",
              "type": "tuple"
            },
            {
              "internalType": "int64",
              "name": "serialNumber",
              "type": "int64"
            },
            {
              "internalType": "address",
              "name": "ownerId",
              "type": "address"
            },
            {
              "internalType": "int64",
              "name": "creationTime",
              "type": "int64"
            },
            {
              "internalType": "bytes",
              "name": "metadata",
              "type": "bytes"
            },
            {
              "internalType": "address",
              "name": "spenderId",
              "type": "address"
            }
          ],
          "internalType": "struct IHederaTokenService.NonFungibleTokenInfo",
          "name": "nonFungibleTokenInfo",
          "type": "tuple"
        }
      ],
      "stateMutability": "nonpayable",
      "type": "function"
    },
    {
      "inputs": [
        {
          "internalType": "address",
          "name": "token",
          "type": "address"
        }
      ],
      "name": "getInformationForToken",
      "outputs": [
        {
          "components": [
            {
              "components": [
                {
                  "internalType": "string",
                  "name": "name",
                  "type": "string"
                },
                {
                  "internalType": "string",
                  "name": "symbol",
                  "type": "string"
                },
                {
                  "internalType": "address",
                  "name": "treasury",
                  "type": "address"
                },
                {
                  "internalType": "string",
                  "name": "memo",
                  "type": "string"
                },
                {
                  "internalType": "bool",
                  "name": "tokenSupplyType",
                  "type": "bool"
                },
                {
                  "internalType": "int64",
                  "name": "maxSupply",
                  "type": "int64"
                },
                {
                  "internalType": "bool",
                  "name": "freezeDefault",
                  "type": "bool"
                },
                {
                  "components": [
                    {
                      "internalType": "uint256",
                      "name": "keyType",
                      "type": "uint256"
                    },
                    {
                      "components": [
                        {
                          "internalType": "bool",
                          "name": "inheritAccountKey",
                          "type": "bool"
                        },
                        {
                          "internalType": "address",
                          "name": "contractId",
                          "type": "address"
                        },
                        {
                          "internalType": "bytes",
                          "name": "ed25519",
                          "type": "bytes"
                        },
                        {
                          "internalType": "bytes",
                          "name": "ECDSA_secp256k1",
                          "type": "bytes"
                        },
                        {
                          "internalType": "address",
                          "name": "delegatableContractId",
                          "type": "address"
                        }
                      ],
                      "internalType": "struct IHederaTokenService.KeyValue",
                      "name": "key",
                      "type": "tuple"
                    }
                  ],
                  "internalType": "struct IHederaTokenService.TokenKey[]",
                  "name": "tokenKeys",
                  "type": "tuple[]"
                },
                {
                  "components": [
                    {
                      "internalType": "int64",
                      "name": "second",
                      "type": "int64"
                    },
                    {
                      "internalType": "address",
                      "name": "autoRenewAccount",
                      "type": "address"
                    },
                    {
                      "internalType": "int64",
                      "name": "autoRenewPeriod",
                      "type": "int64"
                    }
                  ],
                  "internalType": "struct IHederaTokenService.Expiry",
                  "name": "expiry",
                  "type": "tuple"
                }
              ],
              "internalType": "struct IHederaTokenService.HederaToken",
              "name": "token",
              "type": "tuple"
            },
            {
              "internalType": "int64",
              "name": "totalSupply",
              "type": "int64"
            },
            {
              "internalType": "bool",
              "name": "deleted",
              "type": "bool"
            },
            {
              "internalType": "bool",
              "name": "defaultKycStatus",
              "type": "bool"
            },
            {
              "internalType": "bool",
              "name": "pauseStatus",
              "type": "bool"
            },
            {
              "components": [
                {
                  "internalType": "int64",
                  "name": "amount",
                  "type": "int64"
                },
                {
                  "internalType": "address",
                  "name": "tokenId",
                  "type": "address"
                },
                {
                  "internalType": "bool",
                  "name": "useHbarsForPayment",
                  "type": "bool"
                },
                {
                  "internalType": "bool",
                  "name": "useCurrentTokenForPayment",
                  "type": "bool"
                },
                {
                  "internalType": "address",
                  "name": "feeCollector",
                  "type": "address"
                }
              ],
              "internalType": "struct IHederaTokenService.FixedFee[]",
              "name": "fixedFees",
              "type": "tuple[]"
            },
            {
              "components": [
                {
                  "internalType": "int64",
                  "name": "numerator",
                  "type": "int64"
                },
                {
                  "internalType": "int64",
                  "name": "denominator",
                  "type": "int64"
                },
                {
                  "internalType": "int64",
                  "name": "minimumAmount",
                  "type": "int64"
                },
                {
                  "internalType": "int64",
                  "name": "maximumAmount",
                  "type": "int64"
                },
                {
                  "internalType": "bool",
                  "name": "netOfTransfers",
                  "type": "bool"
                },
                {
                  "internalType": "address",
                  "name": "feeCollector",
                  "type": "address"
                }
              ],
              "internalType": "struct IHederaTokenService.FractionalFee[]",
              "name": "fractionalFees",
              "type": "tuple[]"
            },
            {
              "components": [
                {
                  "internalType": "int64",
                  "name": "numerator",
                  "type": "int64"
                },
                {
                  "internalType": "int64",
                  "name": "denominator",
                  "type": "int64"
                },
                {
                  "internalType": "int64",
                  "name": "amount",
                  "type": "int64"
                },
                {
                  "internalType": "address",
                  "name": "tokenId",
                  "type": "address"
                },
                {
                  "internalType": "bool",
                  "name": "useHbarsForPayment",
                  "type": "bool"
                },
                {
                  "internalType": "address",
                  "name": "feeCollector",
                  "type": "address"
                }
              ],
              "internalType": "struct IHederaTokenService.RoyaltyFee[]",
              "name": "royaltyFees",
              "type": "tuple[]"
            },
            {
              "internalType": "string",
              "name": "ledgerId",
              "type": "string"
            }
          ],
          "internalType": "struct IHederaTokenService.TokenInfo",
          "name": "tokenInfo",
          "type": "tuple"
        }
      ],
      "stateMutability": "nonpayable",
      "type": "function"
    },
    {
      "inputs": [
        {
          "internalType": "address",
          "name": "token",
          "type": "address"
        }
      ],
      "name": "getTokenDefaultFreeze",
      "outputs": [
        {
          "internalType": "bool",
          "name": "",
          "type": "bool"
        }
      ],
      "stateMutability": "nonpayable",
      "type": "function"
    },
    {
      "inputs": [
        {
          "internalType": "address",
          "name": "token",
          "type": "address"
        }
      ],
      "name": "getTokenDefaultKyc",
      "outputs": [
        {
          "internalType": "bool",
          "name": "",
          "type": "bool"
        }
      ],
      "stateMutability": "nonpayable",
      "type": "function"
    },
    {
      "inputs": [
        {
          "internalType": "address",
          "name": "token",
          "type": "address"
        },
        {
          "internalType": "uint256",
          "name": "keyType",
          "type": "uint256"
        }
      ],
      "name": "getTokenKeyPublic",
      "outputs": [
        {
          "components": [
            {
              "internalType": "bool",
              "name": "inheritAccountKey",
              "type": "bool"
            },
            {
              "internalType": "address",
              "name": "contractId",
              "type": "address"
            },
            {
              "internalType": "bytes",
              "name": "ed25519",
              "type": "bytes"
            },
            {
              "internalType": "bytes",
              "name": "ECDSA_secp256k1",
              "type": "bytes"
            },
            {
              "internalType": "address",
              "name": "delegatableContractId",
              "type": "address"
            }
          ],
          "internalType": "struct IHederaTokenService.KeyValue",
          "name": "",
          "type": "tuple"
        }
      ],
      "stateMutability": "nonpayable",
      "type": "function"
    },
    {
      "inputs": [
        {
          "internalType": "address",
          "name": "token",
          "type": "address"
        }
      ],
      "name": "getType",
      "outputs": [
        {
          "internalType": "int256",
          "name": "",
          "type": "int256"
        }
      ],
      "stateMutability": "nonpayable",
      "type": "function"
    },
    {
      "inputs": [
        {
          "internalType": "address",
          "name": "token",
          "type": "address"
        },
        {
          "internalType": "address",
          "name": "account",
          "type": "address"
        }
      ],
      "name": "isKycGranted",
      "outputs": [
        {
          "internalType": "bool",
          "name": "",
          "type": "bool"
        }
      ],
      "stateMutability": "nonpayable",
      "type": "function"
    },
    {
      "inputs": [
        {
          "internalType": "address",
          "name": "token",
          "type": "address"
        }
      ],
      "name": "isTokenAddress",
      "outputs": [
        {
          "internalType": "bool",
          "name": "",
          "type": "bool"
        }
      ],
      "stateMutability": "nonpayable",
      "type": "function"
    },
    {
      "inputs": [
        {
          "internalType": "address",
          "name": "token",
          "type": "address"
        },
        {
          "internalType": "address",
          "name": "account",
          "type": "address"
        }
      ],
      "name": "isTokenFrozen",
      "outputs": [
        {
          "internalType": "bool",
          "name": "",
          "type": "bool"
        }
      ],
      "stateMutability": "nonpayable",
      "type": "function"
    },
    {
      "inputs": [
        {
          "internalType": "address",
          "name": "token",
          "type": "address"
        },
        {
          "internalType": "address",
          "name": "from",
          "type": "address"
        },
        {
          "internalType": "address",
          "name": "to",
          "type": "address"
        },
        {
          "internalType": "uint256",
          "name": "amount",
          "type": "uint256"
        }
      ],
      "name": "transferFrom",
      "outputs": [
        {
          "internalType": "int64",
          "name": "responseCode",
          "type": "int64"
        }
      ],
      "stateMutability": "nonpayable",
      "type": "function"
    },
    {
      "inputs": [
        {
          "internalType": "address",
          "name": "token",
          "type": "address"
        },
        {
          "internalType": "address",
          "name": "from",
          "type": "address"
        },
        {
          "internalType": "address",
          "name": "to",
          "type": "address"
        },
        {
          "internalType": "uint256",
          "name": "serialNumber",
          "type": "uint256"
        }
      ],
      "name": "transferFromNFT",
      "outputs": [
        {
          "internalType": "int64",
          "name": "responseCode",
          "type": "int64"
        }
      ],
      "stateMutability": "nonpayable",
      "type": "function"
    }
  ],
  "bytecode": "0x608060405234801561001057600080fd5b50612568806100206000396000f3fe608060405234801561001057600080fd5b50600436106101005760003560e01c806359c16f5a11610097578063bff9834f11610066578063bff9834f14610261578063eac6f3fe14610274578063f429f19b14610287578063fd4d1c26146102a857600080fd5b806359c16f5a146101fb5780638e5e79961461021b5780639b23d3d91461023b578063bc2fb00e1461024e57600080fd5b8063319a8723116100d3578063319a87231461018357806335589a13146101a657806344f38bc8146101c6578063565ca6fa146101e857600080fd5b806311e1fc071461010557806315dacbea146101305780631955de0b146101435780631de8edad14610163575b600080fd5b610118610113366004611297565b6102bb565b60405160079190910b81526020015b60405180910390f35b61011861013e366004611297565b6103ad565b6101566101513660046112e8565b610469565b60405161012791906113db565b6101766101713660046113ee565b6104dd565b604051610127919061140b565b6101966101913660046113ee565b61051d565b6040519015158152602001610127565b6101b96101b43660046113ee565b610591565b60405161012791906117f6565b6101d96101d43660046113ee565b6105a5565b60405161012793929190611809565b6101966101f6366004611842565b6105d6565b61020e6102093660046113ee565b61063f565b604051610127919061187b565b61022e6102293660046118bf565b610653565b60405161012791906118ed565b610118610249366004611297565b61067a565b61019661025c366004611842565b6106bf565b61019661026f3660046113ee565b610728565b610118610282366004611297565b610790565b61029a6102953660046113ee565b6107d5565b604051908152602001610127565b6101966102b63660046113ee565b610840565b6040516001600160a01b038581166024830152848116604483015283166064820152608481018290526000908190819061016790639b23d3d960e01b9060a4015b60408051601f198184030181529181526020820180516001600160e01b03166001600160e01b031990941693909317909252905161033a9190611971565b600060405180830381855af49150503d8060008114610375576040519150601f19603f3d011682016040523d82523d6000602084013e61037a565b606091505b50915091508161038b57601561039f565b8080602001905181019061039f91906119a4565b60030b979650505050505050565b6040516001600160a01b038581166024830152848116604483015283166064820152608481018290526000908190819061016790630aed65f560e11b9060a4015b60408051601f198184030181529181526020820180516001600160e01b03166001600160e01b031990941693909317909252905161042c9190611971565b6000604051808303816000865af19150503d8060008114610375576040519150601f19603f3d011682016040523d82523d6000602084013e61037a565b6104af6040518060a0016040528060001515815260200160006001600160a01b03168152602001606081526020016060815260200160006001600160a01b031681525090565b6000806104bc85856108a3565b915060070b9150601660030b82146104d357600080fd5b9150505b92915050565b604080516060810182526000808252602082018190529181018290529080610504846109e7565b90925090506016821461051657600080fd5b9392505050565b600080600061052b84610af1565b9092509050601682146105165760405162461bcd60e51b815260206004820152602360248201527f676574546f6b656e44656661756c74467265657a65537461747573206661696c60448201526265642160e81b60648201526084015b60405180910390fd5b61059961116d565b60008061050484610bd5565b606080606060006105b585610ca5565b9196509450925060070b9050601681146105ce57600080fd5b509193909250565b60008060006105e58585610d8c565b915060070b9150601660030b82146104d35760405162461bcd60e51b815260206004820152601660248201527f546f6b656e20697346726f7a656e206661696c656421000000000000000000006044820152606401610588565b610647611224565b60008061050484610e67565b61065b611244565b6000806106688585610f37565b9092509050601682146104d357600080fd5b6040516001600160a01b038581166024830152848116604483015283166064820152608481018290526000908190819061016790639b23d3d960e01b9060a4016103ee565b60008060006106ce8585611011565b915060070b9150601660030b82146104d35760405162461bcd60e51b815260206004820152601360248201527f546f6b656e2069734b7963206661696c656421000000000000000000000000006044820152606401610588565b600080600061073684611049565b915060070b9150601660030b82146105165760405162461bcd60e51b815260206004820152601c60248201527f546f6b656e206973546f6b656e41646472657373206661696c656421000000006044820152606401610588565b6040516001600160a01b038581166024830152848116604483015283166064820152608481018290526000908190819061016790630aed65f560e11b9060a4016102fc565b60008060006107e384611079565b60030b915060070b9150601660030b82146105165760405162461bcd60e51b815260206004820152601c60248201527f546f6b656e20747970652061707072616973616c206661696c656421000000006044820152606401610588565b600080600061084e8461113d565b9092509050601682146105165760405162461bcd60e51b815260206004820181905260248201527f676574546f6b656e44656661756c744b7963537461747573206661696c6564216044820152606401610588565b6040805160a081018252600080825260208083018290526060838501819052808401526080830182905283516001600160a01b03871660248201526044808201879052855180830390910181526064909101855290810180516001600160e01b0316631e26e99760e11b1790529251909283918291610167916109269190611971565b6000604051808303816000865af19150503d8060008114610963576040519150601f19603f3d011682016040523d82523d6000602084013e610968565b606091505b50915091506109b36040518060a0016040528060001515815260200160006001600160a01b03168152602001606081526020016060815260200160006001600160a01b031681525090565b826109c0576015816109d4565b818060200190518101906109d49190611bbe565b60039190910b9890975095505050505050565b604080516060810182526000808252602080830182905282840182905283516001600160a01b038616602480830191909152855180830390910181526044909101855290810180516001600160e01b0316631ac299b760e31b179052925190928391829161016791610a599190611971565b6000604051808303816000865af19150503d8060008114610a96576040519150601f19603f3d011682016040523d82523d6000602084013e610a9b565b606091505b506040805160608101825260008082526020820181905291810191909152919350915082610acb57601581610adf565b81806020019051810190610adf9190611c8f565b60039190910b97909650945050505050565b6040516001600160a01b03821660248201526000908190819081906101679063a7daa18d60e01b906044015b60408051601f198184030181529181526020820180516001600160e01b03166001600160e01b0319909416939093179092529051610b5b9190611971565b6000604051808303816000865af19150503d8060008114610b98576040519150601f19603f3d011682016040523d82523d6000602084013e610b9d565b606091505b509150915081610bb05760156000610bc4565b80806020019051810190610bc49190611cc3565b60039190910b969095509350505050565b6000610bdf61116d565b604080516001600160a01b03851660248083019190915282518083039091018152604490910182526020810180516001600160e01b0316631f69565f60e01b1790529051600091829161016791610c3591611971565b6000604051808303816000865af19150503d8060008114610c72576040519150601f19603f3d011682016040523d82523d6000602084013e610c77565b606091505b5091509150610c8461116d565b82610c9157601581610adf565b81806020019051810190610adf919061229c565b604080516001600160a01b03831660248083019190915282518083039091018152604490910182526020810180516001600160e01b0316630573b08d60e51b1790529051600091606091829182918591829161016791610d0491611971565b6000604051808303816000865af19150503d8060008114610d41576040519150601f19603f3d011682016040523d82523d6000602084013e610d46565b606091505b5091509150606080606084610d5f576015838383610d73565b83806020019051810190610d7391906122e0565b60039390930b9d919c509a509098509650505050505050565b6040516001600160a01b03838116602483015282166044820152600090819081908190610167906346de0fb160e01b906064015b60408051601f198184030181529181526020820180516001600160e01b03166001600160e01b0319909416939093179092529051610dfe9190611971565b6000604051808303816000865af19150503d8060008114610e3b576040519150601f19603f3d011682016040523d82523d6000602084013e610e40565b606091505b509150915081610e535760156000610adf565b80806020019051810190610adf9190611cc3565b6000610e71611224565b604080516001600160a01b03851660248083019190915282518083039091018152604490910182526020810180516001600160e01b0316633f28a19b60e01b1790529051600091829161016791610ec791611971565b6000604051808303816000865af19150503d8060008114610f04576040519150601f19603f3d011682016040523d82523d6000602084013e610f09565b606091505b5091509150610f16611224565b82610f2357601581610adf565b81806020019051810190610adf9190612379565b6000610f41611244565b604080516001600160a01b0386166024820152600785900b60448083019190915282518083039091018152606490910182526020810180516001600160e01b031663050fc3b560e31b1790529051600091829161016791610fa191611971565b6000604051808303816000865af19150503d8060008114610fde576040519150601f19603f3d011682016040523d82523d6000602084013e610fe3565b606091505b5091509150610ff0611244565b82610ffd576015816109d4565b818060200190518101906109d49190612420565b6040516001600160a01b0383811660248301528216604482015260009081908190819061016790633cb0c7fd60e21b90606401610dc0565b6040516001600160a01b0382166024820152600090819081908190610167906319f3736160e01b90604401610b1d565b604080516001600160a01b03831660248083019190915282518083039091018152604490910182526020810180516001600160e01b03166393272baf60e01b1790529051600091829182918291610167916110d391611971565b6000604051808303816000865af19150503d8060008114611110576040519150601f19603f3d011682016040523d82523d6000602084013e611115565b606091505b509150915081611129576015600019610bc4565b80806020019051810190610bc49190612508565b6040516001600160a01b03821660248201526000908190819081906101679063335e04c160e01b90604401610b1d565b60408051610240810182526060610120820181815261014083018290526000610160840181905261018084018390526101a084018190526101c084018190526101e0840181905261020084018390528451928301855280835260208301819052938201939093526102208201529081908152602001600060070b8152602001600015158152602001600015158152602001600015158152602001606081526020016060815260200160608152602001606081525090565b604051806040016040528061123761116d565b8152600060209091015290565b6040518060c0016040528061125761116d565b8152600060208201819052604082018190526060808301829052608083015260a09091015290565b6001600160a01b038116811461129457600080fd5b50565b600080600080608085870312156112ad57600080fd5b84356112b88161127f565b935060208501356112c88161127f565b925060408501356112d88161127f565b9396929550929360600135925050565b600080604083850312156112fb57600080fd5b82356113068161127f565b946020939093013593505050565b60005b8381101561132f578181015183820152602001611317565b8381111561133e576000848401525b50505050565b6000815180845261135c816020860160208601611314565b601f01601f19169290920160200192915050565b805115158252600060208201516001600160a01b0380821660208601526040840151915060a060408601526113a860a0860183611344565b9150606084015185830360608701526113c18382611344565b925050806080850151166080860152508091505092915050565b6020815260006105166020830184611370565b60006020828403121561140057600080fd5b81356105168161127f565b606081016104d78284805160070b82526001600160a01b036020820151166020830152604081015160070b60408301525050565b600081518084526020808501808196508360051b8101915082860160005b8581101561149b578284038952815180518552850151604086860181905261148781870183611370565b9a87019a955050509084019060010161145d565b5091979650505050505050565b600061016082518185526114be82860182611344565b915050602083015184820360208601526114d88282611344565b91505060408301516114f560408601826001600160a01b03169052565b506060830151848203606086015261150d8282611344565b9150506080830151611523608086018215159052565b5060a083015161153860a086018260070b9052565b5060c083015161154c60c086018215159052565b5060e083015184820360e0860152611564828261143f565b915050610100808401516115a082870182805160070b82526001600160a01b036020820151166020830152604081015160070b60408301525050565b5090949350505050565b600081518084526020808501945080840160005b83811015611617578151805160070b8852838101516001600160a01b03908116858a01526040808301511515908a01526060808301511515908a0152608091820151169088015260a090960195908201906001016115be565b509495945050505050565b600081518084526020808501945080840160005b838110156116175781518051600790810b895284820151810b858a0152604080830151820b908a015260608083015190910b9089015260808082015115159089015260a0908101516001600160a01b03169088015260c09096019590820190600101611636565b600081518084526020808501945080840160005b838110156116175781518051600790810b895284820151810b858a015260408083015190910b908901526060808201516001600160a01b03908116918a01919091526080808301511515908a015260a091820151169088015260c090960195908201906001016116b1565b60006101208251818552611732828601826114a8565b9150506020830151611749602086018260070b9052565b50604083015161175d604086018215159052565b506060830151611771606086018215159052565b506080830151611785608086018215159052565b5060a083015184820360a086015261179d82826115aa565b91505060c083015184820360c08601526117b78282611622565b91505060e083015184820360e08601526117d1828261169d565b91505061010080840151858303828701526117ec8382611344565b9695505050505050565b602081526000610516602083018461171c565b60608152600061181c60608301866115aa565b828103602084015261182e8186611622565b905082810360408401526117ec818561169d565b6000806040838503121561185557600080fd5b82356118608161127f565b915060208301356118708161127f565b809150509250929050565b602081526000825160406020840152611897606084018261171c565b9050602084015160030b60408401528091505092915050565b8060070b811461129457600080fd5b600080604083850312156118d257600080fd5b82356118dd8161127f565b91506020830135611870816118b0565b602081526000825160c0602084015261190960e084018261171c565b9050602084015160070b604084015260408401516001600160a01b038082166060860152606086015160070b608086015260808601519150601f198584030160a08601526119578383611344565b92508060a08701511660c086015250508091505092915050565b60008251611983818460208701611314565b9190910192915050565b8051600381900b811461199f57600080fd5b919050565b6000602082840312156119b657600080fd5b6105168261198d565b634e487b7160e01b600052604160045260246000fd5b60405160a0810167ffffffffffffffff811182821017156119f8576119f86119bf565b60405290565b6040805190810167ffffffffffffffff811182821017156119f8576119f86119bf565b604051610120810167ffffffffffffffff811182821017156119f8576119f86119bf565b60405160c0810167ffffffffffffffff811182821017156119f8576119f86119bf565b604051601f8201601f1916810167ffffffffffffffff81118282101715611a9157611a916119bf565b604052919050565b8051801515811461199f57600080fd5b805161199f8161127f565b600082601f830112611ac557600080fd5b815167ffffffffffffffff811115611adf57611adf6119bf565b611af2601f8201601f1916602001611a68565b818152846020838601011115611b0757600080fd5b6104d3826020830160208701611314565b600060a08284031215611b2a57600080fd5b611b326119d5565b9050611b3d82611a99565b81526020820151611b4d8161127f565b6020820152604082015167ffffffffffffffff80821115611b6d57600080fd5b611b7985838601611ab4565b60408401526060840151915080821115611b9257600080fd5b50611b9f84828501611ab4565b6060830152506080820151611bb38161127f565b608082015292915050565b60008060408385031215611bd157600080fd5b611bda8361198d565b9150602083015167ffffffffffffffff811115611bf657600080fd5b611c0285828601611b18565b9150509250929050565b805161199f816118b0565b600060608284031215611c2957600080fd5b6040516060810181811067ffffffffffffffff82111715611c4c57611c4c6119bf565b80604052508091508251611c5f816118b0565b81526020830151611c6f8161127f565b60208201526040830151611c82816118b0565b6040919091015292915050565b60008060808385031215611ca257600080fd5b611cab8361198d565b9150611cba8460208501611c17565b90509250929050565b60008060408385031215611cd657600080fd5b611cdf8361198d565b9150611cba60208401611a99565b600067ffffffffffffffff821115611d0757611d076119bf565b5060051b60200190565b600082601f830112611d2257600080fd5b81516020611d37611d3283611ced565b611a68565b82815260059290921b84018101918181019086841115611d5657600080fd5b8286015b84811015611dd857805167ffffffffffffffff80821115611d7b5760008081fd5b908801906040828b03601f1901811315611d955760008081fd5b611d9d6119fe565b838801518152908301519082821115611db65760008081fd5b611dc48c8984870101611b18565b818901528652505050918301918301611d5a565b509695505050505050565b60006101608284031215611df657600080fd5b611dfe611a21565b9050815167ffffffffffffffff80821115611e1857600080fd5b611e2485838601611ab4565b83526020840151915080821115611e3a57600080fd5b611e4685838601611ab4565b6020840152611e5760408501611aa9565b60408401526060840151915080821115611e7057600080fd5b611e7c85838601611ab4565b6060840152611e8d60808501611a99565b6080840152611e9e60a08501611c0c565b60a0840152611eaf60c08501611a99565b60c084015260e0840151915080821115611ec857600080fd5b50611ed584828501611d11565b60e083015250610100611eea84828501611c17565b9082015292915050565b600082601f830112611f0557600080fd5b81516020611f15611d3283611ced565b82815260a09283028501820192828201919087851115611f3457600080fd5b8387015b85811015611fb85781818a031215611f505760008081fd5b611f586119d5565b8151611f63816118b0565b815281860151611f728161127f565b818701526040611f83838201611a99565b908201526060611f94838201611a99565b90820152608082810151611fa78161127f565b908201528452928401928101611f38565b5090979650505050505050565b600082601f830112611fd657600080fd5b81516020611fe6611d3283611ced565b82815260c0928302850182019282820191908785111561200557600080fd5b8387015b85811015611fb85781818a0312156120215760008081fd5b612029611a45565b8151612034816118b0565b815281860151612043816118b0565b81870152604082810151612056816118b0565b90820152606082810151612069816118b0565b90820152608061207a838201611a99565b9082015260a08281015161208d8161127f565b908201528452928401928101612009565b600082601f8301126120af57600080fd5b815160206120bf611d3283611ced565b82815260c092830285018201928282019190878511156120de57600080fd5b8387015b85811015611fb85781818a0312156120fa5760008081fd5b612102611a45565b815161210d816118b0565b81528186015161211c816118b0565b8187015260408281015161212f816118b0565b908201526060828101516121428161127f565b908201526080612153838201611a99565b9082015260a0828101516121668161127f565b9082015284529284019281016120e2565b6000610120828403121561218a57600080fd5b612192611a21565b9050815167ffffffffffffffff808211156121ac57600080fd5b6121b885838601611de3565b83526121c660208501611c0c565b60208401526121d760408501611a99565b60408401526121e860608501611a99565b60608401526121f960808501611a99565b608084015260a084015191508082111561221257600080fd5b61221e85838601611ef4565b60a084015260c084015191508082111561223757600080fd5b61224385838601611fc5565b60c084015260e084015191508082111561225c57600080fd5b6122688583860161209e565b60e08401526101009150818401518181111561228357600080fd5b61228f86828701611ab4565b8385015250505092915050565b600080604083850312156122af57600080fd5b6122b88361198d565b9150602083015167ffffffffffffffff8111156122d457600080fd5b611c0285828601612177565b600080600080608085870312156122f657600080fd5b6122ff8561198d565b9350602085015167ffffffffffffffff8082111561231c57600080fd5b61232888838901611ef4565b9450604087015191508082111561233e57600080fd5b61234a88838901611fc5565b9350606087015191508082111561236057600080fd5b5061236d8782880161209e565b91505092959194509250565b6000806040838503121561238c57600080fd5b6123958361198d565b9150602083015167ffffffffffffffff808211156123b257600080fd5b90840190604082870312156123c657600080fd5b6040516040810181811083821117156123e1576123e16119bf565b6040528251828111156123f357600080fd5b6123ff88828601612177565b82525061240e6020840161198d565b60208201528093505050509250929050565b6000806040838503121561243357600080fd5b61243c8361198d565b9150602083015167ffffffffffffffff8082111561245957600080fd5b9084019060c0828703121561246d57600080fd5b612475611a45565b82518281111561248457600080fd5b61249088828601612177565b82525061249f60208401611c0c565b60208201526124b060408401611aa9565b60408201526124c160608401611c0c565b60608201526080830151828111156124d857600080fd5b6124e488828601611ab4565b6080830152506124f660a08401611aa9565b60a08201528093505050509250929050565b6000806040838503121561251b57600080fd5b6125248361198d565b9150611cba6020840161198d56fea26469706673582212201cedfb7101780a41fc9a9a953bbceb5c2d9456eb88529cfdae76e29366b9b0f364736f6c63430008090033",
  "linkReferences": {},
  "deployedLinkReferences": {}
}