{
  "_format": "hh-sol-artifact-1",
  "contractName": "HRC719Contract",
  "sourceName": "contracts/system-contracts/hedera-token-service/examples/hrc-719/HRC719Contract.sol",
  "abi": [
    {
      "inputs": [
        {
          "internalType": "address",
          "name": "token",
          "type": "address"
        }
      ],
      "name": "associate",
      "outputs": [
        {
          "internalType": "uint256",
          "name": "responseCode",
          "type": "uint256"
        }
      ],
      "stateMutability": "nonpayable",
      "type": "function"
    },
    {
      "inputs": [
        {
          "internalType": "address",
          "name": "token",
          "type": "address"
        }
      ],
      "name": "dissociate",
      "outputs": [
        {
          "internalType": "uint256",
          "name": "responseCode",
          "type": "uint256"
        }
      ],
      "stateMutability": "nonpayable",
      "type": "function"
    },
    {
      "inputs": [
        {
          "internalType": "address",
          "name": "token",
          "type": "address"
        }
      ],
      "name": "isAssociated",
      "outputs": [
        {
          "internalType": "bool",
          "name": "",
          "type": "bool"
        }
      ],
      "stateMutability": "view",
      "type": "function"
    }
  ],
  "bytecode": "0x608060405234801561000f575f80fd5b5061023f8061001d5f395ff3fe608060405234801561000f575f80fd5b506004361061003f575f3560e01c8063322e355014610043578063d55fe58214610069578063d89f31231461008c575b5f80fd5b6100566100513660046101a6565b61009f565b6040519081526020015b60405180910390f35b61007c6100773660046101a6565b610107565b6040519015158152602001610060565b61005661009a3660046101a6565b610168565b5f816001600160a01b0316635c9217e06040518163ffffffff1660e01b81526004016020604051808303815f875af11580156100dd573d5f803e3d5ffd5b505050506040513d601f19601f8201168201806040525081019061010191906101d3565b92915050565b5f816001600160a01b0316634d8fdd6d6040518163ffffffff1660e01b8152600401602060405180830381865afa158015610144573d5f803e3d5ffd5b505050506040513d601f19601f8201168201806040525081019061010191906101ea565b5f816001600160a01b0316630a754de66040518163ffffffff1660e01b81526004016020604051808303815f875af11580156100dd573d5f803e3d5ffd5b5f602082840312156101b6575f80fd5b81356001600160a01b03811681146101cc575f80fd5b9392505050565b5f602082840312156101e3575f80fd5b5051919050565b5f602082840312156101fa575f80fd5b815180151581146101cc575f80fdfea2646970667358221220a999ef7602b6392f7541dc831ead27c6bd0be07c4ecb8f263dab3fba39011d6564736f6c63430008180033",
  "linkReferences": {},
  "deployedLinkReferences": {}
}