{
  "_format": "hh-sol-artifact-1",
  "contractName": "Logs",
  "sourceName": "contracts/Logs.sol",
  "abi": [
    {
      "anonymous": true,
      "inputs": [
        {
          "indexed": false,
          "internalType": "uint256",
          "name": "num1",
          "type": "uint256"
        }
      ],
      "name": "Log0",
      "type": "event"
    },
    {
      "anonymous": false,
      "inputs": [
        {
          "indexed": true,
          "internalType": "uint256",
          "name": "num0",
          "type": "uint256"
        }
      ],
      "name": "Log1",
      "type": "event"
    },
    {
      "anonymous": false,
      "inputs": [
        {
          "indexed": true,
          "internalType": "uint256",
          "name": "num0",
          "type": "uint256"
        },
        {
          "indexed": true,
          "internalType": "uint256",
          "name": "num1",
          "type": "uint256"
        }
      ],
      "name": "Log2",
      "type": "event"
    },
    {
      "anonymous": false,
      "inputs": [
        {
          "indexed": true,
          "internalType": "uint256",
          "name": "num0",
          "type": "uint256"
        },
        {
          "indexed": true,
          "internalType": "uint256",
          "name": "num1",
          "type": "uint256"
        },
        {
          "indexed": true,
          "internalType": "uint256",
          "name": "num2",
          "type": "uint256"
        }
      ],
      "name": "Log3",
      "type": "event"
    },
    {
      "anonymous": false,
      "inputs": [
        {
          "indexed": true,
          "internalType": "uint256",
          "name": "num0",
          "type": "uint256"
        },
        {
          "indexed": true,
          "internalType": "uint256",
          "name": "num1",
          "type": "uint256"
        },
        {
          "indexed": true,
          "internalType": "uint256",
          "name": "num2",
          "type": "uint256"
        },
        {
          "indexed": false,
          "internalType": "uint256",
          "name": "num3",
          "type": "uint256"
        }
      ],
      "name": "Log4",
      "type": "event"
    },
    {
      "inputs": [
        {
          "internalType": "uint256",
          "name": "n",
          "type": "uint256"
        }
      ],
      "name": "log0",
      "outputs": [],
      "stateMutability": "nonpayable",
      "type": "function"
    },
    {
      "inputs": [
        {
          "internalType": "uint256",
          "name": "n",
          "type": "uint256"
        }
      ],
      "name": "log1",
      "outputs": [],
      "stateMutability": "nonpayable",
      "type": "function"
    },
    {
      "inputs": [
        {
          "internalType": "uint256",
          "name": "n0",
          "type": "uint256"
        },
        {
          "internalType": "uint256",
          "name": "n1",
          "type": "uint256"
        }
      ],
      "name": "log2",
      "outputs": [],
      "stateMutability": "nonpayable",
      "type": "function"
    },
    {
      "inputs": [
        {
          "internalType": "uint256",
          "name": "n0",
          "type": "uint256"
        },
        {
          "internalType": "uint256",
          "name": "n1",
          "type": "uint256"
        },
        {
          "internalType": "uint256",
          "name": "n2",
          "type": "uint256"
        }
      ],
      "name": "log3",
      "outputs": [],
      "stateMutability": "nonpayable",
      "type": "function"
    },
    {
      "inputs": [
        {
          "internalType": "uint256",
          "name": "n0",
          "type": "uint256"
        },
        {
          "internalType": "uint256",
          "name": "n1",
          "type": "uint256"
        },
        {
          "internalType": "uint256",
          "name": "n2",
          "type": "uint256"
        },
        {
          "internalType": "uint256",
          "name": "n3",
          "type": "uint256"
        }
      ],
      "name": "log4",
      "outputs": [],
      "stateMutability": "nonpayable",
      "type": "function"
    }
  ],
  "bytecode": "0x608060405234801561001057600080fd5b50610384806100206000396000f3fe608060405234801561001057600080fd5b50600436106100575760003560e01c80632a4c08961461005c57806378b9a1f314610078578063c670f86414610094578063c683d6a3146100b0578063d05285d4146100cc575b600080fd5b61007660048036038101906100719190610251565b6100e8565b005b610092600480360381019061008d9190610215565b61011c565b005b6100ae60048036038101906100a991906101ec565b61014e565b005b6100ca60048036038101906100c591906102a0565b61017e565b005b6100e660048036038101906100e191906101ec565b6101be565b005b8082847fa8fb2f9a49afc2ea148319326c7208965555151db2ce137c05174098730aedc360405160405180910390a4505050565b80827f513dad7582fd8b11c8f4d05e6e7ac8caaa5eb690e9173dd2bed96b5ae0e0d02460405160405180910390a35050565b807f46692c0e59ca9cd1ad8f984a9d11715ec83424398b7eed4e05c8ce84662415a860405160405180910390a250565b8183857f75e7d95cd72588af49ce2e4b7f004bce916d422999adf262a640e4239aab00c7846040516101b09190610312565b60405180910390a450505050565b806040516101cc9190610312565b60405180910390a050565b6000813590506101e681610337565b92915050565b6000602082840312156101fe57600080fd5b600061020c848285016101d7565b91505092915050565b6000806040838503121561022857600080fd5b6000610236858286016101d7565b9250506020610247858286016101d7565b9150509250929050565b60008060006060848603121561026657600080fd5b6000610274868287016101d7565b9350506020610285868287016101d7565b9250506040610296868287016101d7565b9150509250925092565b600080600080608085870312156102b657600080fd5b60006102c4878288016101d7565b94505060206102d5878288016101d7565b93505060406102e6878288016101d7565b92505060606102f7878288016101d7565b91505092959194509250565b61030c8161032d565b82525050565b60006020820190506103276000830184610303565b92915050565b6000819050919050565b6103408161032d565b811461034b57600080fd5b5056fea2646970667358221220a395344b5de9693999e0f06fc92d3f51a0cd6f30e383c9eccda35f50c04bac6364736f6c63430008040033",
  "linkReferences": {},
  "deployedLinkReferences": {}
}