{
  "_format": "hh-sol-artifact-1",
  "contractName": "PrecompileTestContract",
  "sourceName": "contracts/PrecompileTestContract_NEW.sol",
  "abi": [
    {
      "anonymous": false,
      "inputs": [
        {
          "indexed": false,
          "internalType": "bool",
          "name": "",
          "type": "bool"
        },
        {
          "indexed": false,
          "internalType": "bytes",
          "name": "",
          "type": "bytes"
        }
      ],
      "name": "CallResponseEvent",
      "type": "event"
    },
    {
      "anonymous": false,
      "inputs": [
        {
          "indexed": false,
          "internalType": "int256",
          "name": "",
          "type": "int256"
        }
      ],
      "name": "ResponseCode",
      "type": "event"
    },
    {
      "inputs": [
        {
          "internalType": "address",
          "name": "token",
          "type": "address"
        },
        {
          "internalType": "address",
          "name": "owner",
          "type": "address"
        },
        {
          "internalType": "address",
          "name": "spender",
          "type": "address"
        }
      ],
      "name": "allowanceRedirect",
      "outputs": [
        {
          "internalType": "bytes",
          "name": "result",
          "type": "bytes"
        }
      ],
      "stateMutability": "nonpayable",
      "type": "function"
    },
    {
      "inputs": [
        {
          "internalType": "address",
          "name": "token",
          "type": "address"
        },
        {
          "internalType": "address",
          "name": "spender",
          "type": "address"
        },
        {
          "internalType": "uint256",
          "name": "amount",
          "type": "uint256"
        }
      ],
      "name": "approveRedirect",
      "outputs": [
        {
          "internalType": "bytes",
          "name": "result",
          "type": "bytes"
        }
      ],
      "stateMutability": "nonpayable",
      "type": "function"
    },
    {
      "inputs": [
        {
          "internalType": "address",
          "name": "account",
          "type": "address"
        },
        {
          "internalType": "address",
          "name": "token",
          "type": "address"
        }
      ],
      "name": "associateTokenExternal",
      "outputs": [],
      "stateMutability": "nonpayable",
      "type": "function"
    },
    {
      "inputs": [
        {
          "internalType": "address",
          "name": "token",
          "type": "address"
        },
        {
          "internalType": "address",
          "name": "account",
          "type": "address"
        }
      ],
      "name": "balanceOfRedirect",
      "outputs": [
        {
          "internalType": "bytes",
          "name": "result",
          "type": "bytes"
        }
      ],
      "stateMutability": "nonpayable",
      "type": "function"
    },
    {
      "inputs": [
        {
          "internalType": "address",
          "name": "token",
          "type": "address"
        }
      ],
      "name": "decimalsRedirect",
      "outputs": [
        {
          "internalType": "bytes",
          "name": "result",
          "type": "bytes"
        }
      ],
      "stateMutability": "nonpayable",
      "type": "function"
    },
    {
      "inputs": [
        {
          "internalType": "address",
          "name": "token",
          "type": "address"
        },
        {
          "internalType": "uint256",
          "name": "tokenId",
          "type": "uint256"
        }
      ],
      "name": "getApprovedRedirect",
      "outputs": [
        {
          "internalType": "bytes",
          "name": "result",
          "type": "bytes"
        }
      ],
      "stateMutability": "nonpayable",
      "type": "function"
    },
    {
      "inputs": [
        {
          "internalType": "address",
          "name": "token",
          "type": "address"
        }
      ],
      "name": "getCustomFeesForToken",
      "outputs": [
        {
          "components": [
            {
              "internalType": "int64",
              "name": "amount",
              "type": "int64"
            },
            {
              "internalType": "address",
              "name": "tokenId",
              "type": "address"
            },
            {
              "internalType": "bool",
              "name": "useHbarsForPayment",
              "type": "bool"
            },
            {
              "internalType": "bool",
              "name": "useCurrentTokenForPayment",
              "type": "bool"
            },
            {
              "internalType": "address",
              "name": "feeCollector",
              "type": "address"
            }
          ],
          "internalType": "struct IHederaTokenService.FixedFee[]",
          "name": "fixedFees",
          "type": "tuple[]"
        },
        {
          "components": [
            {
              "internalType": "int64",
              "name": "numerator",
              "type": "int64"
            },
            {
              "internalType": "int64",
              "name": "denominator",
              "type": "int64"
            },
            {
              "internalType": "int64",
              "name": "minimumAmount",
              "type": "int64"
            },
            {
              "internalType": "int64",
              "name": "maximumAmount",
              "type": "int64"
            },
            {
              "internalType": "bool",
              "name": "netOfTransfers",
              "type": "bool"
            },
            {
              "internalType": "address",
              "name": "feeCollector",
              "type": "address"
            }
          ],
          "internalType": "struct IHederaTokenService.FractionalFee[]",
          "name": "fractionalFees",
          "type": "tuple[]"
        },
        {
          "components": [
            {
              "internalType": "int64",
              "name": "numerator",
              "type": "int64"
            },
            {
              "internalType": "int64",
              "name": "denominator",
              "type": "int64"
            },
            {
              "internalType": "int64",
              "name": "amount",
              "type": "int64"
            },
            {
              "internalType": "address",
              "name": "tokenId",
              "type": "address"
            },
            {
              "internalType": "bool",
              "name": "useHbarsForPayment",
              "type": "bool"
            },
            {
              "internalType": "address",
              "name": "feeCollector",
              "type": "address"
            }
          ],
          "internalType": "struct IHederaTokenService.RoyaltyFee[]",
          "name": "royaltyFees",
          "type": "tuple[]"
        }
      ],
      "stateMutability": "nonpayable",
      "type": "function"
    },
    {
      "inputs": [
        {
          "internalType": "address",
          "name": "token",
          "type": "address"
        }
      ],
      "name": "getExpiryInfoForToken",
      "outputs": [
        {
          "components": [
            {
              "internalType": "int64",
              "name": "second",
              "type": "int64"
            },
            {
              "internalType": "address",
              "name": "autoRenewAccount",
              "type": "address"
            },
            {
              "internalType": "int64",
              "name": "autoRenewPeriod",
              "type": "int64"
            }
          ],
          "internalType": "struct IHederaTokenService.Expiry",
          "name": "expiry",
          "type": "tuple"
        }
      ],
      "stateMutability": "nonpayable",
      "type": "function"
    },
    {
      "inputs": [
        {
          "internalType": "address",
          "name": "token",
          "type": "address"
        }
      ],
      "name": "getInformationForFungibleToken",
      "outputs": [
        {
          "components": [
            {
              "components": [
                {
                  "components": [
                    {
                      "internalType": "string",
                      "name": "name",
                      "type": "string"
                    },
                    {
                      "internalType": "string",
                      "name": "symbol",
                      "type": "string"
                    },
                    {
                      "internalType": "address",
                      "name": "treasury",
                      "type": "address"
                    },
                    {
                      "internalType": "string",
                      "name": "memo",
                      "type": "string"
                    },
                    {
                      "internalType": "bool",
                      "name": "tokenSupplyType",
                      "type": "bool"
                    },
                    {
                      "internalType": "int64",
                      "name": "maxSupply",
                      "type": "int64"
                    },
                    {
                      "internalType": "bool",
                      "name": "freezeDefault",
                      "type": "bool"
                    },
                    {
                      "components": [
                        {
                          "internalType": "uint256",
                          "name": "keyType",
                          "type": "uint256"
                        },
                        {
                          "components": [
                            {
                              "internalType": "bool",
                              "name": "inheritAccountKey",
                              "type": "bool"
                            },
                            {
                              "internalType": "address",
                              "name": "contractId",
                              "type": "address"
                            },
                            {
                              "internalType": "bytes",
                              "name": "ed25519",
                              "type": "bytes"
                            },
                            {
                              "internalType": "bytes",
                              "name": "ECDSA_secp256k1",
                              "type": "bytes"
                            },
                            {
                              "internalType": "address",
                              "name": "delegatableContractId",
                              "type": "address"
                            }
                          ],
                          "internalType": "struct IHederaTokenService.KeyValue",
                          "name": "key",
                          "type": "tuple"
                        }
                      ],
                      "internalType": "struct IHederaTokenService.TokenKey[]",
                      "name": "tokenKeys",
                      "type": "tuple[]"
                    },
                    {
                      "components": [
                        {
                          "internalType": "int64",
                          "name": "second",
                          "type": "int64"
                        },
                        {
                          "internalType": "address",
                          "name": "autoRenewAccount",
                          "type": "address"
                        },
                        {
                          "internalType": "int64",
                          "name": "autoRenewPeriod",
                          "type": "int64"
                        }
                      ],
                      "internalType": "struct IHederaTokenService.Expiry",
                      "name": "expiry",
                      "type": "tuple"
                    }
                  ],
                  "internalType": "struct IHederaTokenService.HederaToken",
                  "name": "token",
                  "type": "tuple"
                },
                {
                  "internalType": "int64",
                  "name": "totalSupply",
                  "type": "int64"
                },
                {
                  "internalType": "bool",
                  "name": "deleted",
                  "type": "bool"
                },
                {
                  "internalType": "bool",
                  "name": "defaultKycStatus",
                  "type": "bool"
                },
                {
                  "internalType": "bool",
                  "name": "pauseStatus",
                  "type": "bool"
                },
                {
                  "components": [
                    {
                      "internalType": "int64",
                      "name": "amount",
                      "type": "int64"
                    },
                    {
                      "internalType": "address",
                      "name": "tokenId",
                      "type": "address"
                    },
                    {
                      "internalType": "bool",
                      "name": "useHbarsForPayment",
                      "type": "bool"
                    },
                    {
                      "internalType": "bool",
                      "name": "useCurrentTokenForPayment",
                      "type": "bool"
                    },
                    {
                      "internalType": "address",
                      "name": "feeCollector",
                      "type": "address"
                    }
                  ],
                  "internalType": "struct IHederaTokenService.FixedFee[]",
                  "name": "fixedFees",
                  "type": "tuple[]"
                },
                {
                  "components": [
                    {
                      "internalType": "int64",
                      "name": "numerator",
                      "type": "int64"
                    },
                    {
                      "internalType": "int64",
                      "name": "denominator",
                      "type": "int64"
                    },
                    {
                      "internalType": "int64",
                      "name": "minimumAmount",
                      "type": "int64"
                    },
                    {
                      "internalType": "int64",
                      "name": "maximumAmount",
                      "type": "int64"
                    },
                    {
                      "internalType": "bool",
                      "name": "netOfTransfers",
                      "type": "bool"
                    },
                    {
                      "internalType": "address",
                      "name": "feeCollector",
                      "type": "address"
                    }
                  ],
                  "internalType": "struct IHederaTokenService.FractionalFee[]",
                  "name": "fractionalFees",
                  "type": "tuple[]"
                },
                {
                  "components": [
                    {
                      "internalType": "int64",
                      "name": "numerator",
                      "type": "int64"
                    },
                    {
                      "internalType": "int64",
                      "name": "denominator",
                      "type": "int64"
                    },
                    {
                      "internalType": "int64",
                      "name": "amount",
                      "type": "int64"
                    },
                    {
                      "internalType": "address",
                      "name": "tokenId",
                      "type": "address"
                    },
                    {
                      "internalType": "bool",
                      "name": "useHbarsForPayment",
                      "type": "bool"
                    },
                    {
                      "internalType": "address",
                      "name": "feeCollector",
                      "type": "address"
                    }
                  ],
                  "internalType": "struct IHederaTokenService.RoyaltyFee[]",
                  "name": "royaltyFees",
                  "type": "tuple[]"
                },
                {
                  "internalType": "string",
                  "name": "ledgerId",
                  "type": "string"
                }
              ],
              "internalType": "struct IHederaTokenService.TokenInfo",
              "name": "tokenInfo",
              "type": "tuple"
            },
            {
              "internalType": "int32",
              "name": "decimals",
              "type": "int32"
            }
          ],
          "internalType": "struct IHederaTokenService.FungibleTokenInfo",
          "name": "fungibleTokenInfo",
          "type": "tuple"
        }
      ],
      "stateMutability": "nonpayable",
      "type": "function"
    },
    {
      "inputs": [
        {
          "internalType": "address",
          "name": "token",
          "type": "address"
        },
        {
          "internalType": "int64",
          "name": "serialNumber",
          "type": "int64"
        }
      ],
      "name": "getInformationForNonFungibleToken",
      "outputs": [
        {
          "components": [
            {
              "components": [
                {
                  "components": [
                    {
                      "internalType": "string",
                      "name": "name",
                      "type": "string"
                    },
                    {
                      "internalType": "string",
                      "name": "symbol",
                      "type": "string"
                    },
                    {
                      "internalType": "address",
                      "name": "treasury",
                      "type": "address"
                    },
                    {
                      "internalType": "string",
                      "name": "memo",
                      "type": "string"
                    },
                    {
                      "internalType": "bool",
                      "name": "tokenSupplyType",
                      "type": "bool"
                    },
                    {
                      "internalType": "int64",
                      "name": "maxSupply",
                      "type": "int64"
                    },
                    {
                      "internalType": "bool",
                      "name": "freezeDefault",
                      "type": "bool"
                    },
                    {
                      "components": [
                        {
                          "internalType": "uint256",
                          "name": "keyType",
                          "type": "uint256"
                        },
                        {
                          "components": [
                            {
                              "internalType": "bool",
                              "name": "inheritAccountKey",
                              "type": "bool"
                            },
                            {
                              "internalType": "address",
                              "name": "contractId",
                              "type": "address"
                            },
                            {
                              "internalType": "bytes",
                              "name": "ed25519",
                              "type": "bytes"
                            },
                            {
                              "internalType": "bytes",
                              "name": "ECDSA_secp256k1",
                              "type": "bytes"
                            },
                            {
                              "internalType": "address",
                              "name": "delegatableContractId",
                              "type": "address"
                            }
                          ],
                          "internalType": "struct IHederaTokenService.KeyValue",
                          "name": "key",
                          "type": "tuple"
                        }
                      ],
                      "internalType": "struct IHederaTokenService.TokenKey[]",
                      "name": "tokenKeys",
                      "type": "tuple[]"
                    },
                    {
                      "components": [
                        {
                          "internalType": "int64",
                          "name": "second",
                          "type": "int64"
                        },
                        {
                          "internalType": "address",
                          "name": "autoRenewAccount",
                          "type": "address"
                        },
                        {
                          "internalType": "int64",
                          "name": "autoRenewPeriod",
                          "type": "int64"
                        }
                      ],
                      "internalType": "struct IHederaTokenService.Expiry",
                      "name": "expiry",
                      "type": "tuple"
                    }
                  ],
                  "internalType": "struct IHederaTokenService.HederaToken",
                  "name": "token",
                  "type": "tuple"
                },
                {
                  "internalType": "int64",
                  "name": "totalSupply",
                  "type": "int64"
                },
                {
                  "internalType": "bool",
                  "name": "deleted",
                  "type": "bool"
                },
                {
                  "internalType": "bool",
                  "name": "defaultKycStatus",
                  "type": "bool"
                },
                {
                  "internalType": "bool",
                  "name": "pauseStatus",
                  "type": "bool"
                },
                {
                  "components": [
                    {
                      "internalType": "int64",
                      "name": "amount",
                      "type": "int64"
                    },
                    {
                      "internalType": "address",
                      "name": "tokenId",
                      "type": "address"
                    },
                    {
                      "internalType": "bool",
                      "name": "useHbarsForPayment",
                      "type": "bool"
                    },
                    {
                      "internalType": "bool",
                      "name": "useCurrentTokenForPayment",
                      "type": "bool"
                    },
                    {
                      "internalType": "address",
                      "name": "feeCollector",
                      "type": "address"
                    }
                  ],
                  "internalType": "struct IHederaTokenService.FixedFee[]",
                  "name": "fixedFees",
                  "type": "tuple[]"
                },
                {
                  "components": [
                    {
                      "internalType": "int64",
                      "name": "numerator",
                      "type": "int64"
                    },
                    {
                      "internalType": "int64",
                      "name": "denominator",
                      "type": "int64"
                    },
                    {
                      "internalType": "int64",
                      "name": "minimumAmount",
                      "type": "int64"
                    },
                    {
                      "internalType": "int64",
                      "name": "maximumAmount",
                      "type": "int64"
                    },
                    {
                      "internalType": "bool",
                      "name": "netOfTransfers",
                      "type": "bool"
                    },
                    {
                      "internalType": "address",
                      "name": "feeCollector",
                      "type": "address"
                    }
                  ],
                  "internalType": "struct IHederaTokenService.FractionalFee[]",
                  "name": "fractionalFees",
                  "type": "tuple[]"
                },
                {
                  "components": [
                    {
                      "internalType": "int64",
                      "name": "numerator",
                      "type": "int64"
                    },
                    {
                      "internalType": "int64",
                      "name": "denominator",
                      "type": "int64"
                    },
                    {
                      "internalType": "int64",
                      "name": "amount",
                      "type": "int64"
                    },
                    {
                      "internalType": "address",
                      "name": "tokenId",
                      "type": "address"
                    },
                    {
                      "internalType": "bool",
                      "name": "useHbarsForPayment",
                      "type": "bool"
                    },
                    {
                      "internalType": "address",
                      "name": "feeCollector",
                      "type": "address"
                    }
                  ],
                  "internalType": "struct IHederaTokenService.RoyaltyFee[]",
                  "name": "royaltyFees",
                  "type": "tuple[]"
                },
                {
                  "internalType": "string",
                  "name": "ledgerId",
                  "type": "string"
                }
              ],
              "internalType": "struct IHederaTokenService.TokenInfo",
              "name": "tokenInfo",
              "type": "tuple"
            },
            {
              "internalType": "int64",
              "name": "serialNumber",
              "type": "int64"
            },
            {
              "internalType": "address",
              "name": "ownerId",
              "type": "address"
            },
            {
              "internalType": "int64",
              "name": "creationTime",
              "type": "int64"
            },
            {
              "internalType": "bytes",
              "name": "metadata",
              "type": "bytes"
            },
            {
              "internalType": "address",
              "name": "spenderId",
              "type": "address"
            }
          ],
          "internalType": "struct IHederaTokenService.NonFungibleTokenInfo",
          "name": "nonFungibleTokenInfo",
          "type": "tuple"
        }
      ],
      "stateMutability": "nonpayable",
      "type": "function"
    },
    {
      "inputs": [
        {
          "internalType": "address",
          "name": "token",
          "type": "address"
        }
      ],
      "name": "getInformationForToken",
      "outputs": [
        {
          "components": [
            {
              "components": [
                {
                  "internalType": "string",
                  "name": "name",
                  "type": "string"
                },
                {
                  "internalType": "string",
                  "name": "symbol",
                  "type": "string"
                },
                {
                  "internalType": "address",
                  "name": "treasury",
                  "type": "address"
                },
                {
                  "internalType": "string",
                  "name": "memo",
                  "type": "string"
                },
                {
                  "internalType": "bool",
                  "name": "tokenSupplyType",
                  "type": "bool"
                },
                {
                  "internalType": "int64",
                  "name": "maxSupply",
                  "type": "int64"
                },
                {
                  "internalType": "bool",
                  "name": "freezeDefault",
                  "type": "bool"
                },
                {
                  "components": [
                    {
                      "internalType": "uint256",
                      "name": "keyType",
                      "type": "uint256"
                    },
                    {
                      "components": [
                        {
                          "internalType": "bool",
                          "name": "inheritAccountKey",
                          "type": "bool"
                        },
                        {
                          "internalType": "address",
                          "name": "contractId",
                          "type": "address"
                        },
                        {
                          "internalType": "bytes",
                          "name": "ed25519",
                          "type": "bytes"
                        },
                        {
                          "internalType": "bytes",
                          "name": "ECDSA_secp256k1",
                          "type": "bytes"
                        },
                        {
                          "internalType": "address",
                          "name": "delegatableContractId",
                          "type": "address"
                        }
                      ],
                      "internalType": "struct IHederaTokenService.KeyValue",
                      "name": "key",
                      "type": "tuple"
                    }
                  ],
                  "internalType": "struct IHederaTokenService.TokenKey[]",
                  "name": "tokenKeys",
                  "type": "tuple[]"
                },
                {
                  "components": [
                    {
                      "internalType": "int64",
                      "name": "second",
                      "type": "int64"
                    },
                    {
                      "internalType": "address",
                      "name": "autoRenewAccount",
                      "type": "address"
                    },
                    {
                      "internalType": "int64",
                      "name": "autoRenewPeriod",
                      "type": "int64"
                    }
                  ],
                  "internalType": "struct IHederaTokenService.Expiry",
                  "name": "expiry",
                  "type": "tuple"
                }
              ],
              "internalType": "struct IHederaTokenService.HederaToken",
              "name": "token",
              "type": "tuple"
            },
            {
              "internalType": "int64",
              "name": "totalSupply",
              "type": "int64"
            },
            {
              "internalType": "bool",
              "name": "deleted",
              "type": "bool"
            },
            {
              "internalType": "bool",
              "name": "defaultKycStatus",
              "type": "bool"
            },
            {
              "internalType": "bool",
              "name": "pauseStatus",
              "type": "bool"
            },
            {
              "components": [
                {
                  "internalType": "int64",
                  "name": "amount",
                  "type": "int64"
                },
                {
                  "internalType": "address",
                  "name": "tokenId",
                  "type": "address"
                },
                {
                  "internalType": "bool",
                  "name": "useHbarsForPayment",
                  "type": "bool"
                },
                {
                  "internalType": "bool",
                  "name": "useCurrentTokenForPayment",
                  "type": "bool"
                },
                {
                  "internalType": "address",
                  "name": "feeCollector",
                  "type": "address"
                }
              ],
              "internalType": "struct IHederaTokenService.FixedFee[]",
              "name": "fixedFees",
              "type": "tuple[]"
            },
            {
              "components": [
                {
                  "internalType": "int64",
                  "name": "numerator",
                  "type": "int64"
                },
                {
                  "internalType": "int64",
                  "name": "denominator",
                  "type": "int64"
                },
                {
                  "internalType": "int64",
                  "name": "minimumAmount",
                  "type": "int64"
                },
                {
                  "internalType": "int64",
                  "name": "maximumAmount",
                  "type": "int64"
                },
                {
                  "internalType": "bool",
                  "name": "netOfTransfers",
                  "type": "bool"
                },
                {
                  "internalType": "address",
                  "name": "feeCollector",
                  "type": "address"
                }
              ],
              "internalType": "struct IHederaTokenService.FractionalFee[]",
              "name": "fractionalFees",
              "type": "tuple[]"
            },
            {
              "components": [
                {
                  "internalType": "int64",
                  "name": "numerator",
                  "type": "int64"
                },
                {
                  "internalType": "int64",
                  "name": "denominator",
                  "type": "int64"
                },
                {
                  "internalType": "int64",
                  "name": "amount",
                  "type": "int64"
                },
                {
                  "internalType": "address",
                  "name": "tokenId",
                  "type": "address"
                },
                {
                  "internalType": "bool",
                  "name": "useHbarsForPayment",
                  "type": "bool"
                },
                {
                  "internalType": "address",
                  "name": "feeCollector",
                  "type": "address"
                }
              ],
              "internalType": "struct IHederaTokenService.RoyaltyFee[]",
              "name": "royaltyFees",
              "type": "tuple[]"
            },
            {
              "internalType": "string",
              "name": "ledgerId",
              "type": "string"
            }
          ],
          "internalType": "struct IHederaTokenService.TokenInfo",
          "name": "tokenInfo",
          "type": "tuple"
        }
      ],
      "stateMutability": "nonpayable",
      "type": "function"
    },
    {
      "inputs": [
        {
          "internalType": "address",
          "name": "token",
          "type": "address"
        },
        {
          "internalType": "uint256",
          "name": "serialNo",
          "type": "uint256"
        }
      ],
      "name": "getOwnerOfRedirect",
      "outputs": [
        {
          "internalType": "bytes",
          "name": "result",
          "type": "bytes"
        }
      ],
      "stateMutability": "nonpayable",
      "type": "function"
    },
    {
      "inputs": [
        {
          "internalType": "address",
          "name": "token",
          "type": "address"
        }
      ],
      "name": "getTokenDefaultFreeze",
      "outputs": [
        {
          "internalType": "bool",
          "name": "",
          "type": "bool"
        }
      ],
      "stateMutability": "nonpayable",
      "type": "function"
    },
    {
      "inputs": [
        {
          "internalType": "address",
          "name": "token",
          "type": "address"
        }
      ],
      "name": "getTokenDefaultKyc",
      "outputs": [
        {
          "internalType": "bool",
          "name": "",
          "type": "bool"
        }
      ],
      "stateMutability": "nonpayable",
      "type": "function"
    },
    {
      "inputs": [
        {
          "internalType": "address",
          "name": "token",
          "type": "address"
        },
        {
          "internalType": "uint256",
          "name": "keyType",
          "type": "uint256"
        }
      ],
      "name": "getTokenKeyPublic",
      "outputs": [
        {
          "components": [
            {
              "internalType": "bool",
              "name": "inheritAccountKey",
              "type": "bool"
            },
            {
              "internalType": "address",
              "name": "contractId",
              "type": "address"
            },
            {
              "internalType": "bytes",
              "name": "ed25519",
              "type": "bytes"
            },
            {
              "internalType": "bytes",
              "name": "ECDSA_secp256k1",
              "type": "bytes"
            },
            {
              "internalType": "address",
              "name": "delegatableContractId",
              "type": "address"
            }
          ],
          "internalType": "struct IHederaTokenService.KeyValue",
          "name": "",
          "type": "tuple"
        }
      ],
      "stateMutability": "nonpayable",
      "type": "function"
    },
    {
      "inputs": [
        {
          "internalType": "address",
          "name": "token",
          "type": "address"
        }
      ],
      "name": "getType",
      "outputs": [
        {
          "internalType": "int256",
          "name": "",
          "type": "int256"
        }
      ],
      "stateMutability": "nonpayable",
      "type": "function"
    },
    {
      "inputs": [
        {
          "internalType": "address",
          "name": "token",
          "type": "address"
        },
        {
          "internalType": "address",
          "name": "account",
          "type": "address"
        }
      ],
      "name": "grantTokenKycExternal",
      "outputs": [],
      "stateMutability": "nonpayable",
      "type": "function"
    },
    {
      "inputs": [
        {
          "internalType": "address",
          "name": "token",
          "type": "address"
        },
        {
          "internalType": "address",
          "name": "owner",
          "type": "address"
        },
        {
          "internalType": "address",
          "name": "operator",
          "type": "address"
        }
      ],
      "name": "isApprovedForAllRedirect",
      "outputs": [
        {
          "internalType": "bytes",
          "name": "result",
          "type": "bytes"
        }
      ],
      "stateMutability": "nonpayable",
      "type": "function"
    },
    {
      "inputs": [
        {
          "internalType": "address",
          "name": "token",
          "type": "address"
        },
        {
          "internalType": "address",
          "name": "account",
          "type": "address"
        }
      ],
      "name": "isKycGranted",
      "outputs": [
        {
          "internalType": "bool",
          "name": "",
          "type": "bool"
        }
      ],
      "stateMutability": "nonpayable",
      "type": "function"
    },
    {
      "inputs": [
        {
          "internalType": "address",
          "name": "token",
          "type": "address"
        }
      ],
      "name": "isTokenAddress",
      "outputs": [
        {
          "internalType": "bool",
          "name": "",
          "type": "bool"
        }
      ],
      "stateMutability": "nonpayable",
      "type": "function"
    },
    {
      "inputs": [
        {
          "internalType": "address",
          "name": "token",
          "type": "address"
        },
        {
          "internalType": "address",
          "name": "account",
          "type": "address"
        }
      ],
      "name": "isTokenFrozen",
      "outputs": [
        {
          "internalType": "bool",
          "name": "",
          "type": "bool"
        }
      ],
      "stateMutability": "nonpayable",
      "type": "function"
    },
    {
      "inputs": [
        {
          "internalType": "address",
          "name": "token",
          "type": "address"
        }
      ],
      "name": "nameNFTRedirect",
      "outputs": [
        {
          "internalType": "bytes",
          "name": "result",
          "type": "bytes"
        }
      ],
      "stateMutability": "nonpayable",
      "type": "function"
    },
    {
      "inputs": [
        {
          "internalType": "address",
          "name": "token",
          "type": "address"
        }
      ],
      "name": "nameRedirect",
      "outputs": [
        {
          "internalType": "bytes",
          "name": "result",
          "type": "bytes"
        }
      ],
      "stateMutability": "nonpayable",
      "type": "function"
    },
    {
      "inputs": [
        {
          "internalType": "address",
          "name": "token",
          "type": "address"
        },
        {
          "internalType": "bytes",
          "name": "encodedFunctionSelector",
          "type": "bytes"
        }
      ],
      "name": "redirectForToken",
      "outputs": [
        {
          "internalType": "int256",
          "name": "responseCode",
          "type": "int256"
        },
        {
          "internalType": "bytes",
          "name": "response",
          "type": "bytes"
        }
      ],
      "stateMutability": "nonpayable",
      "type": "function"
    },
    {
      "inputs": [
        {
          "internalType": "address",
          "name": "token",
          "type": "address"
        },
        {
          "internalType": "address",
          "name": "operator",
          "type": "address"
        },
        {
          "internalType": "bool",
          "name": "approved",
          "type": "bool"
        }
      ],
      "name": "setApprovalForAllRedirect",
      "outputs": [
        {
          "internalType": "bytes",
          "name": "result",
          "type": "bytes"
        }
      ],
      "stateMutability": "nonpayable",
      "type": "function"
    },
    {
      "inputs": [
        {
          "internalType": "address",
          "name": "token",
          "type": "address"
        }
      ],
      "name": "symbolNFTRedirect",
      "outputs": [
        {
          "internalType": "bytes",
          "name": "result",
          "type": "bytes"
        }
      ],
      "stateMutability": "nonpayable",
      "type": "function"
    },
    {
      "inputs": [
        {
          "internalType": "address",
          "name": "token",
          "type": "address"
        }
      ],
      "name": "symbolRedirect",
      "outputs": [
        {
          "internalType": "bytes",
          "name": "result",
          "type": "bytes"
        }
      ],
      "stateMutability": "nonpayable",
      "type": "function"
    },
    {
      "inputs": [
        {
          "internalType": "address",
          "name": "token",
          "type": "address"
        },
        {
          "internalType": "uint256",
          "name": "tokenId",
          "type": "uint256"
        }
      ],
      "name": "tokenURIRedirect",
      "outputs": [
        {
          "internalType": "bytes",
          "name": "result",
          "type": "bytes"
        }
      ],
      "stateMutability": "nonpayable",
      "type": "function"
    },
    {
      "inputs": [
        {
          "internalType": "address",
          "name": "token",
          "type": "address"
        }
      ],
      "name": "totalSupplyRedirect",
      "outputs": [
        {
          "internalType": "bytes",
          "name": "result",
          "type": "bytes"
        }
      ],
      "stateMutability": "nonpayable",
      "type": "function"
    },
    {
      "inputs": [
        {
          "internalType": "address",
          "name": "token",
          "type": "address"
        },
        {
          "internalType": "address",
          "name": "from",
          "type": "address"
        },
        {
          "internalType": "address",
          "name": "to",
          "type": "address"
        },
        {
          "internalType": "uint256",
          "name": "amount",
          "type": "uint256"
        }
      ],
      "name": "transferFrom",
      "outputs": [
        {
          "internalType": "int64",
          "name": "responseCode",
          "type": "int64"
        }
      ],
      "stateMutability": "nonpayable",
      "type": "function"
    },
    {
      "inputs": [
        {
          "internalType": "address",
          "name": "token",
          "type": "address"
        },
        {
          "internalType": "address",
          "name": "from",
          "type": "address"
        },
        {
          "internalType": "address",
          "name": "to",
          "type": "address"
        },
        {
          "internalType": "uint256",
          "name": "serialNumber",
          "type": "uint256"
        }
      ],
      "name": "transferFromNFT",
      "outputs": [
        {
          "internalType": "int64",
          "name": "responseCode",
          "type": "int64"
        }
      ],
      "stateMutability": "nonpayable",
      "type": "function"
    },
    {
      "inputs": [
        {
          "internalType": "address",
          "name": "token",
          "type": "address"
        },
        {
          "internalType": "address",
          "name": "from",
          "type": "address"
        },
        {
          "internalType": "address",
          "name": "to",
          "type": "address"
        },
        {
          "internalType": "uint256",
          "name": "tokenId",
          "type": "uint256"
        }
      ],
      "name": "transferFromNFTRedirect",
      "outputs": [
        {
          "internalType": "bytes",
          "name": "result",
          "type": "bytes"
        }
      ],
      "stateMutability": "nonpayable",
      "type": "function"
    },
    {
      "inputs": [
        {
          "internalType": "address",
          "name": "token",
          "type": "address"
        },
        {
          "internalType": "address",
          "name": "sender",
          "type": "address"
        },
        {
          "internalType": "address",
          "name": "recipient",
          "type": "address"
        },
        {
          "internalType": "uint256",
          "name": "amount",
          "type": "uint256"
        }
      ],
      "name": "transferFromRedirect",
      "outputs": [
        {
          "internalType": "bytes",
          "name": "result",
          "type": "bytes"
        }
      ],
      "stateMutability": "nonpayable",
      "type": "function"
    },
    {
      "inputs": [
        {
          "internalType": "address",
          "name": "token",
          "type": "address"
        },
        {
          "internalType": "address",
          "name": "recipient",
          "type": "address"
        },
        {
          "internalType": "uint256",
          "name": "amount",
          "type": "uint256"
        }
      ],
      "name": "transferRedirect",
      "outputs": [
        {
          "internalType": "bytes",
          "name": "result",
          "type": "bytes"
        }
      ],
      "stateMutability": "nonpayable",
      "type": "function"
    }
  ],
  "bytecode": "0x608060405234801561001057600080fd5b50613517806100206000396000f3fe608060405234801561001057600080fd5b50600436106102265760003560e01c806385dec08e1161012a578063bff9834f116100bd578063ec4ca6391161008c578063f429f19b11610071578063f429f19b146104d8578063fa5c2224146104f9578063fd4d1c261461050c57600080fd5b8063ec4ca639146104b2578063f1e3aea2146104c557600080fd5b8063bff9834f1461048a578063c03954671461042b578063d3f67d2714610451578063d91cfc951461049d57600080fd5b80639b23d3d9116100f95780639b23d3d91461043e578063b132f49414610451578063b51f3cf514610464578063bc2fb00e1461047757600080fd5b806385dec08e146103e55780638e5e7996146103f8578063911ce42514610418578063971f5a0b1461042b57600080fd5b806335589a13116101bd578063565ca6fa1161018c5780635b391493116101715780635b3914931461039e578063618dc65e146103b157806362248863146103d257600080fd5b8063565ca6fa1461036b57806359c16f5a1461037e57600080fd5b806335589a13146103165780633717ec98146103365780633cc2322f1461033657806344f38bc81461034957600080fd5b806325004c1c116101f957806325004c1c146102ba5780632b2f5c66146102cd578063319a8723146102e05780633232fc9f1461030357600080fd5b8063045c5bfe1461022b57806315dacbea146102545780631955de0b1461027a5780631de8edad1461029a575b600080fd5b61023e610239366004611fe7565b61051f565b60405161024b919061208e565b60405180910390f35b6102676102623660046120a1565b610628565b60405160079190910b815260200161024b565b61028d6102883660046120f2565b610735565b60405161024b9190612189565b6102ad6102a836600461219c565b6107a9565b60405161024b91906121b9565b61023e6102c83660046121ed565b6107e9565b61023e6102db36600461219c565b6108e1565b6102f36102ee36600461219c565b6109a1565b604051901515815260200161024b565b61023e6103113660046120f2565b610a2f565b61032961032436600461219c565b610a5f565b60405161024b91906125d3565b61023e6103443660046120a1565b610a73565b61035c61035736600461219c565b610b77565b60405161024b939291906125e6565b6102f36103793660046121ed565b610ba9565b61039161038c36600461219c565b610c12565b60405161024b919061261f565b61023e6103ac366004612654565b610c26565b6103c46103bf3660046127af565b610c7c565b60405161024b929190612842565b61023e6103e03660046120f2565b610daa565b61023e6103f336600461219c565b610dda565b61040b610406366004612872565b610eef565b60405161024b91906128a0565b61023e610426366004612924565b610f04565b61023e61043936600461219c565b610f59565b61026761044c3660046120a1565b610fc3565b61023e61045f36600461219c565b611021565b61023e610472366004612654565b61108b565b6102f36104853660046121ed565b6110e1565b6102f361049836600461219c565b61114a565b6104b06104ab3660046121ed565b6111b2565b005b6104b06104c03660046121ed565b611201565b61023e6104d3366004612924565b611220565b6104eb6104e636600461219c565b611275565b60405190815260200161024b565b61023e6105073660046120f2565b6112e0565b6102f361051a36600461219c565b611310565b6040516001600160a01b038316602482015281151560448201526060906000908190309063618dc65e9088907fa22cb46500000000000000000000000000000000000000000000000000000000906064015b60408051601f198184030181529181526020820180516001600160e01b03166001600160e01b03199485161790525160e085901b90921682526105b79291600401612965565b600060405180830381600087803b1580156105d157600080fd5b505af11580156105e5573d6000803e3d6000fd5b505050506040513d6000823e601f3d908101601f1916820160405261060d91908101906129cc565b90925090506016821461061f57600080fd5b95945050505050565b6040516001600160a01b0385811660248301528481166044830152831660648201526084810182905260009081908190610167907f15dacbea000000000000000000000000000000000000000000000000000000009060a4015b60408051601f198184030181529181526020820180516001600160e01b03166001600160e01b03199094169390931790925290516106c09190612a13565b6000604051808303816000865af19150503d80600081146106fd576040519150601f19603f3d011682016040523d82523d6000602084013e610702565b606091505b509150915081610713576015610727565b808060200190518101906107279190612a46565b60030b979650505050505050565b61077b6040518060a0016040528060001515815260200160006001600160a01b03168152602001606081526020016060815260200160006001600160a01b031681525090565b6000806107888585611373565b915060070b9150601660030b821461079f57600080fd5b9150505b92915050565b6040805160608101825260008082526020820181905291810182905290806107d0846114d0565b9092509050601682146107e257600080fd5b9392505050565b6040516001600160a01b03821660248201526060906000908190309063618dc65e9087907f70a0823100000000000000000000000000000000000000000000000000000000906044015b60408051601f198184030181529181526020820180516001600160e01b03166001600160e01b03199485161790525160e085901b90921682526108799291600401612965565b600060405180830381600087803b15801561089357600080fd5b505af11580156108a7573d6000803e3d6000fd5b505050506040513d6000823e601f3d908101601f191682016040526108cf91908101906129cc565b90925090506016821461079f57600080fd5b6040805160048082526024820183526020820180516001600160e01b03167f313ce5670000000000000000000000000000000000000000000000000000000017905291516330c6e32f60e11b81526060926000928392309263618dc65e9261094b92899201612965565b600060405180830381600087803b15801561096557600080fd5b505af1158015610979573d6000803e3d6000fd5b505050506040513d6000823e601f3d908101601f191682016040526107d091908101906129cc565b60008060006109af846115e1565b9092509050601682146107e25760405162461bcd60e51b815260206004820152602360248201527f676574546f6b656e44656661756c74467265657a65537461747573206661696c60448201527f656421000000000000000000000000000000000000000000000000000000000060648201526084015b60405180910390fd5b6060600080306001600160a01b031663618dc65e8663081812fc60e01b8760405160240161083391815260200190565b610a67611eb2565b6000806107d0846116de565b604080516001600160a01b03858116602483015284166044820152606480820184905282518083039091018152608490910182526020810180516001600160e01b03167f23b872dd0000000000000000000000000000000000000000000000000000000017905290516330c6e32f60e11b81526060916000918291309163618dc65e91610b05918b9190600401612965565b600060405180830381600087803b158015610b1f57600080fd5b505af1158015610b33573d6000803e3d6000fd5b505050506040513d6000823e601f3d908101601f19168201604052610b5b91908101906129cc565b909250905060168214610b6d57600080fd5b9695505050505050565b60608060606000610b87856117c7565b919650945092509050600781900b601614610ba157600080fd5b509193909250565b6000806000610bb885856118c7565b915060070b9150601660030b821461079f5760405162461bcd60e51b815260206004820152601660248201527f546f6b656e20697346726f7a656e206661696c656421000000000000000000006044820152606401610a26565b610c1a611f69565b6000806107d0846119bb565b6040516001600160a01b038381166024830152821660448201526060906000908190309063618dc65e9088907fdd62ed3e0000000000000000000000000000000000000000000000000000000090606401610571565b600060606000806101676001600160a01b031663618dc65e60e01b8787604051602401610caa929190612965565b60408051601f198184030181529181526020820180516001600160e01b03166001600160e01b0319909416939093179092529051610ce89190612a13565b6000604051808303816000865af19150503d8060008114610d25576040519150601f19603f3d011682016040523d82523d6000602084013e610d2a565b606091505b50915091507f4af4780e06fe8cb9df64b0794fa6f01399af979175bb988e35e0e57e594567bc8282604051610d60929190612a61565b60405180910390a181610d8457601560405180602001604052806000815250610d98565b80806020019051810190610d989190612a7c565b60039190910b97909650945050505050565b6060600080306001600160a01b031663618dc65e86636352211e60e01b8760405160240161083391815260200190565b6040805160048082526024820183526020820180516001600160e01b03167f18160ddd0000000000000000000000000000000000000000000000000000000017905291516330c6e32f60e11b81526060926000928392309263618dc65e92610e4492899201612965565b600060405180830381600087803b158015610e5e57600080fd5b505af1158015610e72573d6000803e3d6000fd5b505050506040513d6000823e601f3d908101601f19168201604052610e9a91908101906129cc565b9092509050601682146107e25760405162461bcd60e51b815260206004820152601560248201527f546f6b656e207265646972656374206661696c656400000000000000000000006044820152606401610a26565b610ef7611f89565b6000806108cf8585611aa4565b6040516001600160a01b0383166024820152604481018290526060906000908190309063618dc65e9088907f095ea7b30000000000000000000000000000000000000000000000000000000090606401610571565b6040805160048082526024820183526020820180516001600160e01b03167f06fdde030000000000000000000000000000000000000000000000000000000017905291516330c6e32f60e11b81526060926000928392309263618dc65e9261094b92899201612965565b6040516001600160a01b0385811660248301528481166044830152831660648201526084810182905260009081908190610167907f9b23d3d9000000000000000000000000000000000000000000000000000000009060a401610682565b6040805160048082526024820183526020820180516001600160e01b03167f95d89b410000000000000000000000000000000000000000000000000000000017905291516330c6e32f60e11b81526060926000928392309263618dc65e9261094b92899201612965565b6040516001600160a01b038381166024830152821660448201526060906000908190309063618dc65e9088907fe985e9c50000000000000000000000000000000000000000000000000000000090606401610571565b60008060006110f08585611b97565b915060070b9150601660030b821461079f5760405162461bcd60e51b815260206004820152601360248201527f546f6b656e2069734b7963206661696c656421000000000000000000000000006044820152606401610a26565b600080600061115884611be8565b915060070b9150601660030b82146107e25760405162461bcd60e51b815260206004820152601c60248201527f546f6b656e206973546f6b656e41646472657373206661696c656421000000006044820152606401610a26565b60006111be8383611c31565b90506111c981611d2d565b6040518181527f90a5cf4cffe88b4edbb041cfc7a8a812c48a5ec30b84640fb37690875168e3aa9060200160405180910390a1505050565b600061120d8383611d3d565b60070b905061121b81611d2d565b505050565b6040516001600160a01b0383166024820152604481018290526060906000908190309063618dc65e9088907fa9059cbb0000000000000000000000000000000000000000000000000000000090606401610571565b600080600061128384611d8c565b60030b915060070b9150601660030b82146107e25760405162461bcd60e51b815260206004820152601c60248201527f546f6b656e20747970652061707072616973616c206661696c656421000000006044820152606401610a26565b6060600080306001600160a01b031663618dc65e8663c87b56dd60e01b8760405160240161083391815260200190565b600080600061131e84611e69565b9092509050601682146107e25760405162461bcd60e51b815260206004820181905260248201527f676574546f6b656e44656661756c744b7963537461747573206661696c6564216044820152606401610a26565b6040805160a081018252600080825260208083018290526060838501819052808401526080830182905283516001600160a01b03871660248201526044808201879052855180830390910181526064909101855290810180516001600160e01b03167f3c4dd32e0000000000000000000000000000000000000000000000000000000017905292519092839182916101679161140f9190612a13565b6000604051808303816000865af19150503d806000811461144c576040519150601f19603f3d011682016040523d82523d6000602084013e611451565b606091505b509150915061149c6040518060a0016040528060001515815260200160006001600160a01b03168152602001606081526020016060815260200160006001600160a01b031681525090565b826114a9576015816114bd565b818060200190518101906114bd9190612b72565b60039190910b9890975095505050505050565b604080516060810182526000808252602080830182905282840182905283516001600160a01b038616602480830191909152855180830390910181526044909101855290810180516001600160e01b03167fd614cdb80000000000000000000000000000000000000000000000000000000017905292519092839182916101679161155b9190612a13565b6000604051808303816000865af19150503d8060008114611598576040519150601f19603f3d011682016040523d82523d6000602084013e61159d565b606091505b5060408051606081018252600080825260208201819052918101919091529193509150826115cd57601581610d98565b81806020019051810190610d989190612c39565b6040516001600160a01b0382166024820152600090819081908190610167907fa7daa18d00000000000000000000000000000000000000000000000000000000906044015b60408051601f198184030181529181526020820180516001600160e01b03166001600160e01b03199094169390931790925290516116649190612a13565b6000604051808303816000865af19150503d80600081146116a1576040519150601f19603f3d011682016040523d82523d6000602084013e6116a6565b606091505b5091509150816116b957601560006116cd565b808060200190518101906116cd9190612c6d565b60039190910b969095509350505050565b60006116e8611eb2565b604080516001600160a01b03851660248083019190915282518083039091018152604490910182526020810180516001600160e01b03167f1f69565f00000000000000000000000000000000000000000000000000000000179052905160009182916101679161175791612a13565b6000604051808303816000865af19150503d8060008114611794576040519150601f19603f3d011682016040523d82523d6000602084013e611799565b606091505b50915091506117a6611eb2565b826117b357601581610d98565b81806020019051810190610d98919061324b565b604080516001600160a01b03831660248083019190915282518083039091018152604490910182526020810180516001600160e01b03167fae7611a000000000000000000000000000000000000000000000000000000000179052905160009160609182918291859182916101679161183f91612a13565b6000604051808303816000865af19150503d806000811461187c576040519150601f19603f3d011682016040523d82523d6000602084013e611881565b606091505b509150915060608060608461189a5760158383836118ae565b838060200190518101906118ae919061328f565b60039390930b9d919c509a509098509650505050505050565b6040516001600160a01b03838116602483015282166044820152600090819081908190610167907f46de0fb100000000000000000000000000000000000000000000000000000000906064015b60408051601f198184030181529181526020820180516001600160e01b03166001600160e01b03199094169390931790925290516119529190612a13565b6000604051808303816000865af19150503d806000811461198f576040519150601f19603f3d011682016040523d82523d6000602084013e611994565b606091505b5091509150816119a75760156000610d98565b80806020019051810190610d989190612c6d565b60006119c5611f69565b604080516001600160a01b03851660248083019190915282518083039091018152604490910182526020810180516001600160e01b03167f3f28a19b000000000000000000000000000000000000000000000000000000001790529051600091829161016791611a3491612a13565b6000604051808303816000865af19150503d8060008114611a71576040519150601f19603f3d011682016040523d82523d6000602084013e611a76565b606091505b5091509150611a83611f69565b82611a9057601581610d98565b81806020019051810190610d989190613328565b6000611aae611f89565b604080516001600160a01b0386166024820152600785900b60448083019190915282518083039091018152606490910182526020810180516001600160e01b03167f287e1da8000000000000000000000000000000000000000000000000000000001790529051600091829161016791611b2791612a13565b6000604051808303816000865af19150503d8060008114611b64576040519150601f19603f3d011682016040523d82523d6000602084013e611b69565b606091505b5091509150611b76611f89565b82611b83576015816114bd565b818060200190518101906114bd91906133cf565b6040516001600160a01b03838116602483015282166044820152600090819081908190610167907ff2c31ff40000000000000000000000000000000000000000000000000000000090606401611914565b6040516001600160a01b0382166024820152600090819081908190610167907f19f373610000000000000000000000000000000000000000000000000000000090604401611626565b6040516001600160a01b0383811660248301528216604482015260009081908190610167907f49146bde00000000000000000000000000000000000000000000000000000000906064015b60408051601f198184030181529181526020820180516001600160e01b03166001600160e01b0319909416939093179092529051611cba9190612a13565b6000604051808303816000865af19150503d8060008114611cf7576040519150601f19603f3d011682016040523d82523d6000602084013e611cfc565b606091505b509150915081611d0d576015611d21565b80806020019051810190611d219190612a46565b60030b95945050505050565b60168114611d3a57600080fd5b50565b6040516001600160a01b0383811660248301528216604482015260009081908190610167907f8f8d7f990000000000000000000000000000000000000000000000000000000090606401611c7c565b604080516001600160a01b03831660248083019190915282518083039091018152604490910182526020810180516001600160e01b03167f93272baf00000000000000000000000000000000000000000000000000000000179052905160009182918291829161016791611dff91612a13565b6000604051808303816000865af19150503d8060008114611e3c576040519150601f19603f3d011682016040523d82523d6000602084013e611e41565b606091505b509150915081611e555760156000196116cd565b808060200190518101906116cd91906134b7565b6040516001600160a01b0382166024820152600090819081908190610167907f335e04c10000000000000000000000000000000000000000000000000000000090604401611626565b60408051610240810182526060610120820181815261014083018290526000610160840181905261018084018390526101a084018190526101c084018190526101e0840181905261020084018390528451928301855280835260208301819052938201939093526102208201529081908152602001600060070b8152602001600015158152602001600015158152602001600015158152602001606081526020016060815260200160608152602001606081525090565b6040518060400160405280611f7c611eb2565b8152600060209091015290565b6040518060c00160405280611f9c611eb2565b8152600060208201819052604082018190526060808301829052608083015260a09091015290565b6001600160a01b0381168114611d3a57600080fd5b8015158114611d3a57600080fd5b600080600060608486031215611ffc57600080fd5b833561200781611fc4565b9250602084013561201781611fc4565b9150604084013561202781611fd9565b809150509250925092565b60005b8381101561204d578181015183820152602001612035565b8381111561205c576000848401525b50505050565b6000815180845261207a816020860160208601612032565b601f01601f19169290920160200192915050565b6020815260006107e26020830184612062565b600080600080608085870312156120b757600080fd5b84356120c281611fc4565b935060208501356120d281611fc4565b925060408501356120e281611fc4565b9396929550929360600135925050565b6000806040838503121561210557600080fd5b823561211081611fc4565b946020939093013593505050565b805115158252600060208201516001600160a01b0380821660208601526040840151915060a0604086015261215660a0860183612062565b91506060840151858303606087015261216f8382612062565b925050806080850151166080860152508091505092915050565b6020815260006107e2602083018461211e565b6000602082840312156121ae57600080fd5b81356107e281611fc4565b606081016107a38284805160070b82526001600160a01b036020820151166020830152604081015160070b60408301525050565b6000806040838503121561220057600080fd5b823561220b81611fc4565b9150602083013561221b81611fc4565b809150509250929050565b600081518084526020808501808196508360051b8101915082860160005b85811015612282578284038952815180518552850151604086860181905261226e8187018361211e565b9a87019a9550505090840190600101612244565b5091979650505050505050565b600061016082518185526122a582860182612062565b915050602083015184820360208601526122bf8282612062565b91505060408301516122dc60408601826001600160a01b03169052565b50606083015184820360608601526122f48282612062565b915050608083015161230a608086018215159052565b5060a083015161231f60a086018260070b9052565b5060c083015161233360c086018215159052565b5060e083015184820360e086015261234b8282612226565b9150506101008084015161238782870182805160070b82526001600160a01b036020820151166020830152604081015160070b60408301525050565b5090949350505050565b600081518084526020808501945080840160005b838110156123fe578151805160070b8852838101516001600160a01b03908116858a01526040808301511515908a01526060808301511515908a0152608091820151169088015260a090960195908201906001016123a5565b509495945050505050565b600081518084526020808501945080840160005b838110156123fe5781518051600790810b895284820151810b858a0152604080830151820b908a015260608083015190910b9089015260808082015115159089015260a0908101516001600160a01b03169088015260c0909601959082019060010161241d565b600081518084526020808501945080840160005b838110156123fe5781518051600790810b895284820151810b858a015260408083015190910b908901526060808201516001600160a01b03908116918a01919091526080808301511515908a015260a091820151169088015260c09096019590820190600101612498565b600061012082518185526125198286018261228f565b9150506020830151612530602086018260070b9052565b506040830151612544604086018215159052565b506060830151612558606086018215159052565b50608083015161256c608086018215159052565b5060a083015184820360a08601526125848282612391565b91505060c083015184820360c086015261259e8282612409565b91505060e083015184820360e08601526125b88282612484565b9150506101008084015185830382870152610b6d8382612062565b6020815260006107e26020830184612503565b6060815260006125f96060830186612391565b828103602084015261260b8186612409565b90508281036040840152610b6d8185612484565b60208152600082516040602084015261263b6060840182612503565b9050602084015160030b60408401528091505092915050565b60008060006060848603121561266957600080fd5b833561267481611fc4565b9250602084013561268481611fc4565b9150604084013561202781611fc4565b7f4e487b7100000000000000000000000000000000000000000000000000000000600052604160045260246000fd5b60405160a0810167ffffffffffffffff811182821017156126e6576126e6612694565b60405290565b6040805190810167ffffffffffffffff811182821017156126e6576126e6612694565b604051610120810167ffffffffffffffff811182821017156126e6576126e6612694565b60405160c0810167ffffffffffffffff811182821017156126e6576126e6612694565b604051601f8201601f1916810167ffffffffffffffff8111828210171561277f5761277f612694565b604052919050565b600067ffffffffffffffff8211156127a1576127a1612694565b50601f01601f191660200190565b600080604083850312156127c257600080fd5b82356127cd81611fc4565b9150602083013567ffffffffffffffff8111156127e957600080fd5b8301601f810185136127fa57600080fd5b803561280d61280882612787565b612756565b81815286602083850101111561282257600080fd5b816020840160208301376000602083830101528093505050509250929050565b82815260406020820152600061285b6040830184612062565b949350505050565b8060070b8114611d3a57600080fd5b6000806040838503121561288557600080fd5b823561289081611fc4565b9150602083013561221b81612863565b602081526000825160c060208401526128bc60e0840182612503565b9050602084015160070b604084015260408401516001600160a01b038082166060860152606086015160070b608086015260808601519150601f198584030160a086015261290a8383612062565b92508060a08701511660c086015250508091505092915050565b60008060006060848603121561293957600080fd5b833561294481611fc4565b9250602084013561295481611fc4565b929592945050506040919091013590565b6001600160a01b038316815260406020820152600061285b6040830184612062565b600082601f83011261299857600080fd5b81516129a661280882612787565b8181528460208386010111156129bb57600080fd5b61079f826020830160208701612032565b600080604083850312156129df57600080fd5b82519150602083015167ffffffffffffffff8111156129fd57600080fd5b612a0985828601612987565b9150509250929050565b60008251612a25818460208701612032565b9190910192915050565b8051600381900b8114612a4157600080fd5b919050565b600060208284031215612a5857600080fd5b6107e282612a2f565b821515815260406020820152600061285b6040830184612062565b60008060408385031215612a8f57600080fd5b612a9883612a2f565b9150602083015167ffffffffffffffff8111156129fd57600080fd5b8051612a4181611fd9565b8051612a4181611fc4565b600060a08284031215612adc57600080fd5b612ae46126c3565b90508151612af181611fd9565b81526020820151612b0181611fc4565b6020820152604082015167ffffffffffffffff80821115612b2157600080fd5b612b2d85838601612987565b60408401526060840151915080821115612b4657600080fd5b50612b5384828501612987565b6060830152506080820151612b6781611fc4565b608082015292915050565b60008060408385031215612b8557600080fd5b612b8e83612a2f565b9150602083015167ffffffffffffffff811115612baa57600080fd5b612a0985828601612aca565b8051612a4181612863565b600060608284031215612bd357600080fd5b6040516060810181811067ffffffffffffffff82111715612bf657612bf6612694565b80604052508091508251612c0981612863565b81526020830151612c1981611fc4565b60208201526040830151612c2c81612863565b6040919091015292915050565b60008060808385031215612c4c57600080fd5b612c5583612a2f565b9150612c648460208501612bc1565b90509250929050565b60008060408385031215612c8057600080fd5b612c8983612a2f565b9150602083015161221b81611fd9565b600067ffffffffffffffff821115612cb357612cb3612694565b5060051b60200190565b600082601f830112612cce57600080fd5b81516020612cde61280883612c99565b82815260059290921b84018101918181019086841115612cfd57600080fd5b8286015b84811015612d7f57805167ffffffffffffffff80821115612d225760008081fd5b908801906040828b03601f1901811315612d3c5760008081fd5b612d446126ec565b838801518152908301519082821115612d5d5760008081fd5b612d6b8c8984870101612aca565b818901528652505050918301918301612d01565b509695505050505050565b60006101608284031215612d9d57600080fd5b612da561270f565b9050815167ffffffffffffffff80821115612dbf57600080fd5b612dcb85838601612987565b83526020840151915080821115612de157600080fd5b612ded85838601612987565b6020840152612dfe60408501612abf565b60408401526060840151915080821115612e1757600080fd5b612e2385838601612987565b6060840152612e3460808501612ab4565b6080840152612e4560a08501612bb6565b60a0840152612e5660c08501612ab4565b60c084015260e0840151915080821115612e6f57600080fd5b50612e7c84828501612cbd565b60e083015250610100612e9184828501612bc1565b9082015292915050565b600082601f830112612eac57600080fd5b81516020612ebc61280883612c99565b82815260a09283028501820192828201919087851115612edb57600080fd5b8387015b85811015612f635781818a031215612ef75760008081fd5b612eff6126c3565b8151612f0a81612863565b815281860151612f1981611fc4565b81870152604082810151612f2c81611fd9565b90820152606082810151612f3f81611fd9565b90820152608082810151612f5281611fc4565b908201528452928401928101612edf565b5090979650505050505050565b600082601f830112612f8157600080fd5b81516020612f9161280883612c99565b82815260c09283028501820192828201919087851115612fb057600080fd5b8387015b85811015612f635781818a031215612fcc5760008081fd5b612fd4612733565b8151612fdf81612863565b815281860151612fee81612863565b8187015260408281015161300181612863565b9082015260608281015161301481612863565b9082015260808281015161302781611fd9565b9082015260a08281015161303a81611fc4565b908201528452928401928101612fb4565b600082601f83011261305c57600080fd5b8151602061306c61280883612c99565b82815260c0928302850182019282820191908785111561308b57600080fd5b8387015b85811015612f635781818a0312156130a75760008081fd5b6130af612733565b81516130ba81612863565b8152818601516130c981612863565b818701526040828101516130dc81612863565b908201526060828101516130ef81611fc4565b9082015260808281015161310281611fd9565b9082015260a08281015161311581611fc4565b90820152845292840192810161308f565b6000610120828403121561313957600080fd5b61314161270f565b9050815167ffffffffffffffff8082111561315b57600080fd5b61316785838601612d8a565b835261317560208501612bb6565b602084015261318660408501612ab4565b604084015261319760608501612ab4565b60608401526131a860808501612ab4565b608084015260a08401519150808211156131c157600080fd5b6131cd85838601612e9b565b60a084015260c08401519150808211156131e657600080fd5b6131f285838601612f70565b60c084015260e084015191508082111561320b57600080fd5b6132178583860161304b565b60e08401526101009150818401518181111561323257600080fd5b61323e86828701612987565b8385015250505092915050565b6000806040838503121561325e57600080fd5b61326783612a2f565b9150602083015167ffffffffffffffff81111561328357600080fd5b612a0985828601613126565b600080600080608085870312156132a557600080fd5b6132ae85612a2f565b9350602085015167ffffffffffffffff808211156132cb57600080fd5b6132d788838901612e9b565b945060408701519150808211156132ed57600080fd5b6132f988838901612f70565b9350606087015191508082111561330f57600080fd5b5061331c8782880161304b565b91505092959194509250565b6000806040838503121561333b57600080fd5b61334483612a2f565b9150602083015167ffffffffffffffff8082111561336157600080fd5b908401906040828703121561337557600080fd5b60405160408101818110838211171561339057613390612694565b6040528251828111156133a257600080fd5b6133ae88828601613126565b8252506133bd60208401612a2f565b60208201528093505050509250929050565b600080604083850312156133e257600080fd5b6133eb83612a2f565b9150602083015167ffffffffffffffff8082111561340857600080fd5b9084019060c0828703121561341c57600080fd5b613424612733565b82518281111561343357600080fd5b61343f88828601613126565b82525061344e60208401612bb6565b602082015261345f60408401612abf565b604082015261347060608401612bb6565b606082015260808301518281111561348757600080fd5b61349388828601612987565b6080830152506134a560a08401612abf565b60a08201528093505050509250929050565b600080604083850312156134ca57600080fd5b6134d383612a2f565b9150612c6460208401612a2f56fea26469706673582212206c7090f7c9ff74f2294d2a6f266e9d5e673c1aea4af9dcddbd7070c3bdae860a64736f6c63430008090033",
  "linkReferences": {},
  "deployedLinkReferences": {}
}