{
  "_format": "hh-sol-artifact-1",
  "contractName": "Reverter",
  "sourceName": "contracts/Reverter.sol",
  "abi": [
    {
      "inputs": [],
      "name": "revertPayable",
      "outputs": [],
      "stateMutability": "payable",
      "type": "function"
    },
    {
      "inputs": [],
      "name": "revertPure",
      "outputs": [],
      "stateMutability": "pure",
      "type": "function"
    },
    {
      "inputs": [],
      "name": "revertView",
      "outputs": [],
      "stateMutability": "view",
      "type": "function"
    }
  ],
  "bytecode": "0x608060405234801561001057600080fd5b506102ad806100206000396000f3fe6080604052600436106100345760003560e01c806390e9b87514610039578063b2e0100c14610050578063d0efd7ef14610067575b600080fd5b34801561004557600080fd5b5061004e610071565b005b34801561005c57600080fd5b506100656100ac565b005b61006f6100e7565b005b6040517f08c379a00000000000000000000000000000000000000000000000000000000081526004016100a3906101cb565b60405180910390fd5b6040517f08c379a00000000000000000000000000000000000000000000000000000000081526004016100de906101ab565b60405180910390fd5b6040517f08c379a00000000000000000000000000000000000000000000000000000000081526004016101199061018b565b60405180910390fd5b600061012f6013836101eb565b915061013a826101fc565b602082019050919050565b60006101526010836101eb565b915061015d82610225565b602082019050919050565b60006101756010836101eb565b91506101808261024e565b602082019050919050565b600060208201905081810360008301526101a481610122565b9050919050565b600060208201905081810360008301526101c481610145565b9050919050565b600060208201905081810360008301526101e481610168565b9050919050565b600082825260208201905092915050565b7f526576657274526561736f6e50617961626c6500000000000000000000000000600082015250565b7f526576657274526561736f6e5075726500000000000000000000000000000000600082015250565b7f526576657274526561736f6e566965770000000000000000000000000000000060008201525056fea26469706673582212209c5d9161b959d46ee2b22acd55e0655a77c54820506d7ab2fa16d290dedc126e64736f6c63430008040033",
  "linkReferences": {},
  "deployedLinkReferences": {}
}