{
  "_format": "hh-sol-artifact-1",
  "contractName": "Reverter",
  "sourceName": "contracts/Reverter.sol",
  "abi": [
    {
      "inputs": [],
      "name": "SomeCustomError",
      "type": "error"
    },
    {
      "inputs": [],
      "name": "revertPayable",
      "outputs": [],
      "stateMutability": "payable",
      "type": "function"
    },
    {
      "inputs": [],
      "name": "revertPure",
      "outputs": [],
      "stateMutability": "pure",
      "type": "function"
    },
    {
      "inputs": [],
      "name": "revertView",
      "outputs": [],
      "stateMutability": "view",
      "type": "function"
    },
    {
      "inputs": [],
      "name": "revertWithCustomError",
      "outputs": [],
      "stateMutability": "nonpayable",
      "type": "function"
    },
    {
      "inputs": [],
      "name": "revertWithCustomErrorPure",
      "outputs": [],
      "stateMutability": "pure",
      "type": "function"
    },
    {
      "inputs": [],
      "name": "revertWithNothing",
      "outputs": [],
      "stateMutability": "nonpayable",
      "type": "function"
    },
    {
      "inputs": [],
      "name": "revertWithNothingPure",
      "outputs": [],
      "stateMutability": "pure",
      "type": "function"
    },
    {
      "inputs": [],
      "name": "revertWithPanic",
      "outputs": [],
      "stateMutability": "nonpayable",
      "type": "function"
    },
    {
      "inputs": [],
      "name": "revertWithPanicPure",
      "outputs": [],
      "stateMutability": "pure",
      "type": "function"
    },
    {
      "inputs": [],
      "name": "revertWithString",
      "outputs": [],
      "stateMutability": "nonpayable",
      "type": "function"
    },
    {
      "inputs": [],
      "name": "revertWithStringPure",
      "outputs": [],
      "stateMutability": "pure",
      "type": "function"
    }
  ],
  "bytecode": "0x608060405234801561001057600080fd5b506105cf806100206000396000f3fe60806040526004361061009c5760003560e01c8063838890561161006457806383889056146101145780638b1533711461012b57806390e9b87514610142578063b2e0100c14610159578063d0efd7ef14610170578063fe0a3dd71461017a5761009c565b80630323d234146100a15780632dac842f146100b857806333fe3fbd146100cf57806335314694146100e657806346fc4bb1146100fd575b600080fd5b3480156100ad57600080fd5b506100b6610191565b005b3480156100c457600080fd5b506100cd6101d4565b005b3480156100db57600080fd5b506100e46101d9565b005b3480156100f257600080fd5b506100fb6101f5565b005b34801561010957600080fd5b50610112610227565b005b34801561012057600080fd5b50610129610259565b005b34801561013757600080fd5b50610140610275565b005b34801561014e57600080fd5b506101576102b8565b005b34801561016557600080fd5b5061016e6102f3565b005b61017861032e565b005b34801561018657600080fd5b5061018f610369565b005b60006101d2576040517f08c379a00000000000000000000000000000000000000000000000000000000081526004016101c99061043a565b60405180910390fd5b565b600080fd5b60006064905060008081836101ee919061048b565b9050505050565b6040517f0bd3d39c00000000000000000000000000000000000000000000000000000000815260040160405180910390fd5b6040517f0bd3d39c00000000000000000000000000000000000000000000000000000000815260040160405180910390fd5b600060649050600080818361026e919061048b565b9050505050565b60006102b6576040517f08c379a00000000000000000000000000000000000000000000000000000000081526004016102ad9061043a565b60405180910390fd5b565b6040517f08c379a00000000000000000000000000000000000000000000000000000000081526004016102ea9061045a565b60405180910390fd5b6040517f08c379a00000000000000000000000000000000000000000000000000000000081526004016103259061041a565b60405180910390fd5b6040517f08c379a0000000000000000000000000000000000000000000000000000000008152600401610360906103fa565b60405180910390fd5b600080fd5b600061037b60138361047a565b9150610386826104f5565b602082019050919050565b600061039e60108361047a565b91506103a98261051e565b602082019050919050565b60006103c160138361047a565b91506103cc82610547565b602082019050919050565b60006103e460108361047a565b91506103ef82610570565b602082019050919050565b600060208201905081810360008301526104138161036e565b9050919050565b6000602082019050818103600083015261043381610391565b9050919050565b60006020820190508181036000830152610453816103b4565b9050919050565b60006020820190508181036000830152610473816103d7565b9050919050565b600082825260208201905092915050565b6000610496826104bc565b91506104a1836104bc565b9250826104b1576104b06104c6565b5b828204905092915050565b6000819050919050565b7f4e487b7100000000000000000000000000000000000000000000000000000000600052601260045260246000fd5b7f526576657274526561736f6e50617961626c6500000000000000000000000000600082015250565b7f526576657274526561736f6e5075726500000000000000000000000000000000600082015250565b7f536f6d6520726576657274206d65737361676500000000000000000000000000600082015250565b7f526576657274526561736f6e566965770000000000000000000000000000000060008201525056fea26469706673582212209df4738546daf586868a7ffac27586bc1aaee182eaa6f2af784b96b6ccfe9cdb64736f6c63430008040033",
  "linkReferences": {},
  "deployedLinkReferences": {}
}