{
  "_format": "hh-sol-artifact-1",
  "contractName": "Storage",
  "sourceName": "contracts/Storage.sol",
  "abi": [
    {
      "inputs": [],
      "name": "updateStoredUInt",
      "outputs": [],
      "stateMutability": "nonpayable",
      "type": "function"
    }
  ],
  "bytecode": "0x6080604052600f600055348015601457600080fd5b50606e8060226000396000f3fe6080604052348015600f57600080fd5b506004361060285760003560e01c80632de4e88414602d575b600080fd5b60366008600055565b00fea26469706673582212204f4929609314772906604fbf3fa15708239abd76b6d2a022fa89ae0e0b888bb264736f6c63430008090033",
  "linkReferences": {},
  "deployedLinkReferences": {}
}