{
  "_format": "hh-sol-artifact-1",
  "contractName": "TokenManagementContract",
  "sourceName": "contracts/TokenManagementContract.sol",
  "abi": [
    {
      "anonymous": false,
      "inputs": [
        {
          "indexed": false,
          "internalType": "address",
          "name": "tokenAddress",
          "type": "address"
        }
      ],
      "name": "CreatedToken",
      "type": "event"
    },
    {
      "anonymous": false,
      "inputs": [
        {
          "indexed": false,
          "internalType": "bool",
          "name": "freezeStatus",
          "type": "bool"
        }
      ],
      "name": "DefaultFreezeStatusChanged",
      "type": "event"
    },
    {
      "anonymous": false,
      "inputs": [
        {
          "indexed": false,
          "internalType": "bool",
          "name": "frozen",
          "type": "bool"
        }
      ],
      "name": "Frozen",
      "type": "event"
    },
    {
      "anonymous": false,
      "inputs": [
        {
          "components": [
            {
              "components": [
                {
                  "components": [
                    {
                      "internalType": "string",
                      "name": "name",
                      "type": "string"
                    },
                    {
                      "internalType": "string",
                      "name": "symbol",
                      "type": "string"
                    },
                    {
                      "internalType": "address",
                      "name": "treasury",
                      "type": "address"
                    },
                    {
                      "internalType": "string",
                      "name": "memo",
                      "type": "string"
                    },
                    {
                      "internalType": "bool",
                      "name": "tokenSupplyType",
                      "type": "bool"
                    },
                    {
                      "internalType": "int64",
                      "name": "maxSupply",
                      "type": "int64"
                    },
                    {
                      "internalType": "bool",
                      "name": "freezeDefault",
                      "type": "bool"
                    },
                    {
                      "components": [
                        {
                          "internalType": "uint256",
                          "name": "keyType",
                          "type": "uint256"
                        },
                        {
                          "components": [
                            {
                              "internalType": "bool",
                              "name": "inheritAccountKey",
                              "type": "bool"
                            },
                            {
                              "internalType": "address",
                              "name": "contractId",
                              "type": "address"
                            },
                            {
                              "internalType": "bytes",
                              "name": "ed25519",
                              "type": "bytes"
                            },
                            {
                              "internalType": "bytes",
                              "name": "ECDSA_secp256k1",
                              "type": "bytes"
                            },
                            {
                              "internalType": "address",
                              "name": "delegatableContractId",
                              "type": "address"
                            }
                          ],
                          "internalType": "struct IHederaTokenService.KeyValue",
                          "name": "key",
                          "type": "tuple"
                        }
                      ],
                      "internalType": "struct IHederaTokenService.TokenKey[]",
                      "name": "tokenKeys",
                      "type": "tuple[]"
                    },
                    {
                      "components": [
                        {
                          "internalType": "uint32",
                          "name": "second",
                          "type": "uint32"
                        },
                        {
                          "internalType": "address",
                          "name": "autoRenewAccount",
                          "type": "address"
                        },
                        {
                          "internalType": "uint32",
                          "name": "autoRenewPeriod",
                          "type": "uint32"
                        }
                      ],
                      "internalType": "struct IHederaTokenService.Expiry",
                      "name": "expiry",
                      "type": "tuple"
                    }
                  ],
                  "internalType": "struct IHederaTokenService.HederaToken",
                  "name": "token",
                  "type": "tuple"
                },
                {
                  "internalType": "uint64",
                  "name": "totalSupply",
                  "type": "uint64"
                },
                {
                  "internalType": "bool",
                  "name": "deleted",
                  "type": "bool"
                },
                {
                  "internalType": "bool",
                  "name": "defaultKycStatus",
                  "type": "bool"
                },
                {
                  "internalType": "bool",
                  "name": "pauseStatus",
                  "type": "bool"
                },
                {
                  "components": [
                    {
                      "internalType": "uint32",
                      "name": "amount",
                      "type": "uint32"
                    },
                    {
                      "internalType": "address",
                      "name": "tokenId",
                      "type": "address"
                    },
                    {
                      "internalType": "bool",
                      "name": "useHbarsForPayment",
                      "type": "bool"
                    },
                    {
                      "internalType": "bool",
                      "name": "useCurrentTokenForPayment",
                      "type": "bool"
                    },
                    {
                      "internalType": "address",
                      "name": "feeCollector",
                      "type": "address"
                    }
                  ],
                  "internalType": "struct IHederaTokenService.FixedFee[]",
                  "name": "fixedFees",
                  "type": "tuple[]"
                },
                {
                  "components": [
                    {
                      "internalType": "uint32",
                      "name": "numerator",
                      "type": "uint32"
                    },
                    {
                      "internalType": "uint32",
                      "name": "denominator",
                      "type": "uint32"
                    },
                    {
                      "internalType": "uint32",
                      "name": "minimumAmount",
                      "type": "uint32"
                    },
                    {
                      "internalType": "uint32",
                      "name": "maximumAmount",
                      "type": "uint32"
                    },
                    {
                      "internalType": "bool",
                      "name": "netOfTransfers",
                      "type": "bool"
                    },
                    {
                      "internalType": "address",
                      "name": "feeCollector",
                      "type": "address"
                    }
                  ],
                  "internalType": "struct IHederaTokenService.FractionalFee[]",
                  "name": "fractionalFees",
                  "type": "tuple[]"
                },
                {
                  "components": [
                    {
                      "internalType": "uint32",
                      "name": "numerator",
                      "type": "uint32"
                    },
                    {
                      "internalType": "uint32",
                      "name": "denominator",
                      "type": "uint32"
                    },
                    {
                      "internalType": "uint32",
                      "name": "amount",
                      "type": "uint32"
                    },
                    {
                      "internalType": "address",
                      "name": "tokenId",
                      "type": "address"
                    },
                    {
                      "internalType": "bool",
                      "name": "useHbarsForPayment",
                      "type": "bool"
                    },
                    {
                      "internalType": "address",
                      "name": "feeCollector",
                      "type": "address"
                    }
                  ],
                  "internalType": "struct IHederaTokenService.RoyaltyFee[]",
                  "name": "royaltyFees",
                  "type": "tuple[]"
                },
                {
                  "internalType": "string",
                  "name": "ledgerId",
                  "type": "string"
                }
              ],
              "internalType": "struct IHederaTokenService.TokenInfo",
              "name": "tokenInfo",
              "type": "tuple"
            },
            {
              "internalType": "uint32",
              "name": "decimals",
              "type": "uint32"
            }
          ],
          "indexed": false,
          "internalType": "struct IHederaTokenService.FungibleTokenInfo",
          "name": "tokenInfo",
          "type": "tuple"
        }
      ],
      "name": "FungibleTokenInfo",
      "type": "event"
    },
    {
      "anonymous": false,
      "inputs": [
        {
          "indexed": false,
          "internalType": "bool",
          "name": "isToken",
          "type": "bool"
        }
      ],
      "name": "IsToken",
      "type": "event"
    },
    {
      "anonymous": false,
      "inputs": [
        {
          "indexed": false,
          "internalType": "uint64",
          "name": "newTotalSupply",
          "type": "uint64"
        },
        {
          "indexed": false,
          "internalType": "int64[]",
          "name": "serialNumbers",
          "type": "int64[]"
        }
      ],
      "name": "MintedToken",
      "type": "event"
    },
    {
      "anonymous": false,
      "inputs": [
        {
          "components": [
            {
              "components": [
                {
                  "components": [
                    {
                      "internalType": "string",
                      "name": "name",
                      "type": "string"
                    },
                    {
                      "internalType": "string",
                      "name": "symbol",
                      "type": "string"
                    },
                    {
                      "internalType": "address",
                      "name": "treasury",
                      "type": "address"
                    },
                    {
                      "internalType": "string",
                      "name": "memo",
                      "type": "string"
                    },
                    {
                      "internalType": "bool",
                      "name": "tokenSupplyType",
                      "type": "bool"
                    },
                    {
                      "internalType": "int64",
                      "name": "maxSupply",
                      "type": "int64"
                    },
                    {
                      "internalType": "bool",
                      "name": "freezeDefault",
                      "type": "bool"
                    },
                    {
                      "components": [
                        {
                          "internalType": "uint256",
                          "name": "keyType",
                          "type": "uint256"
                        },
                        {
                          "components": [
                            {
                              "internalType": "bool",
                              "name": "inheritAccountKey",
                              "type": "bool"
                            },
                            {
                              "internalType": "address",
                              "name": "contractId",
                              "type": "address"
                            },
                            {
                              "internalType": "bytes",
                              "name": "ed25519",
                              "type": "bytes"
                            },
                            {
                              "internalType": "bytes",
                              "name": "ECDSA_secp256k1",
                              "type": "bytes"
                            },
                            {
                              "internalType": "address",
                              "name": "delegatableContractId",
                              "type": "address"
                            }
                          ],
                          "internalType": "struct IHederaTokenService.KeyValue",
                          "name": "key",
                          "type": "tuple"
                        }
                      ],
                      "internalType": "struct IHederaTokenService.TokenKey[]",
                      "name": "tokenKeys",
                      "type": "tuple[]"
                    },
                    {
                      "components": [
                        {
                          "internalType": "uint32",
                          "name": "second",
                          "type": "uint32"
                        },
                        {
                          "internalType": "address",
                          "name": "autoRenewAccount",
                          "type": "address"
                        },
                        {
                          "internalType": "uint32",
                          "name": "autoRenewPeriod",
                          "type": "uint32"
                        }
                      ],
                      "internalType": "struct IHederaTokenService.Expiry",
                      "name": "expiry",
                      "type": "tuple"
                    }
                  ],
                  "internalType": "struct IHederaTokenService.HederaToken",
                  "name": "token",
                  "type": "tuple"
                },
                {
                  "internalType": "uint64",
                  "name": "totalSupply",
                  "type": "uint64"
                },
                {
                  "internalType": "bool",
                  "name": "deleted",
                  "type": "bool"
                },
                {
                  "internalType": "bool",
                  "name": "defaultKycStatus",
                  "type": "bool"
                },
                {
                  "internalType": "bool",
                  "name": "pauseStatus",
                  "type": "bool"
                },
                {
                  "components": [
                    {
                      "internalType": "uint32",
                      "name": "amount",
                      "type": "uint32"
                    },
                    {
                      "internalType": "address",
                      "name": "tokenId",
                      "type": "address"
                    },
                    {
                      "internalType": "bool",
                      "name": "useHbarsForPayment",
                      "type": "bool"
                    },
                    {
                      "internalType": "bool",
                      "name": "useCurrentTokenForPayment",
                      "type": "bool"
                    },
                    {
                      "internalType": "address",
                      "name": "feeCollector",
                      "type": "address"
                    }
                  ],
                  "internalType": "struct IHederaTokenService.FixedFee[]",
                  "name": "fixedFees",
                  "type": "tuple[]"
                },
                {
                  "components": [
                    {
                      "internalType": "uint32",
                      "name": "numerator",
                      "type": "uint32"
                    },
                    {
                      "internalType": "uint32",
                      "name": "denominator",
                      "type": "uint32"
                    },
                    {
                      "internalType": "uint32",
                      "name": "minimumAmount",
                      "type": "uint32"
                    },
                    {
                      "internalType": "uint32",
                      "name": "maximumAmount",
                      "type": "uint32"
                    },
                    {
                      "internalType": "bool",
                      "name": "netOfTransfers",
                      "type": "bool"
                    },
                    {
                      "internalType": "address",
                      "name": "feeCollector",
                      "type": "address"
                    }
                  ],
                  "internalType": "struct IHederaTokenService.FractionalFee[]",
                  "name": "fractionalFees",
                  "type": "tuple[]"
                },
                {
                  "components": [
                    {
                      "internalType": "uint32",
                      "name": "numerator",
                      "type": "uint32"
                    },
                    {
                      "internalType": "uint32",
                      "name": "denominator",
                      "type": "uint32"
                    },
                    {
                      "internalType": "uint32",
                      "name": "amount",
                      "type": "uint32"
                    },
                    {
                      "internalType": "address",
                      "name": "tokenId",
                      "type": "address"
                    },
                    {
                      "internalType": "bool",
                      "name": "useHbarsForPayment",
                      "type": "bool"
                    },
                    {
                      "internalType": "address",
                      "name": "feeCollector",
                      "type": "address"
                    }
                  ],
                  "internalType": "struct IHederaTokenService.RoyaltyFee[]",
                  "name": "royaltyFees",
                  "type": "tuple[]"
                },
                {
                  "internalType": "string",
                  "name": "ledgerId",
                  "type": "string"
                }
              ],
              "internalType": "struct IHederaTokenService.TokenInfo",
              "name": "tokenInfo",
              "type": "tuple"
            },
            {
              "internalType": "int64",
              "name": "serialNumber",
              "type": "int64"
            },
            {
              "internalType": "address",
              "name": "ownerId",
              "type": "address"
            },
            {
              "internalType": "int64",
              "name": "creationTime",
              "type": "int64"
            },
            {
              "internalType": "bytes",
              "name": "metadata",
              "type": "bytes"
            },
            {
              "internalType": "address",
              "name": "spenderId",
              "type": "address"
            }
          ],
          "indexed": false,
          "internalType": "struct IHederaTokenService.NonFungibleTokenInfo",
          "name": "tokenInfo",
          "type": "tuple"
        }
      ],
      "name": "NonFungibleTokenInfo",
      "type": "event"
    },
    {
      "anonymous": false,
      "inputs": [
        {
          "indexed": false,
          "internalType": "bool",
          "name": "paused",
          "type": "bool"
        }
      ],
      "name": "PausedToken",
      "type": "event"
    },
    {
      "anonymous": false,
      "inputs": [
        {
          "indexed": false,
          "internalType": "int256",
          "name": "responseCode",
          "type": "int256"
        }
      ],
      "name": "ResponseCode",
      "type": "event"
    },
    {
      "anonymous": false,
      "inputs": [
        {
          "indexed": false,
          "internalType": "bool",
          "name": "defaultFreezeStatus",
          "type": "bool"
        }
      ],
      "name": "TokenDefaultFreezeStatus",
      "type": "event"
    },
    {
      "anonymous": false,
      "inputs": [
        {
          "components": [
            {
              "internalType": "uint32",
              "name": "second",
              "type": "uint32"
            },
            {
              "internalType": "address",
              "name": "autoRenewAccount",
              "type": "address"
            },
            {
              "internalType": "uint32",
              "name": "autoRenewPeriod",
              "type": "uint32"
            }
          ],
          "indexed": false,
          "internalType": "struct IHederaTokenService.Expiry",
          "name": "expiryInfo",
          "type": "tuple"
        }
      ],
      "name": "TokenExpiryInfo",
      "type": "event"
    },
    {
      "anonymous": false,
      "inputs": [
        {
          "components": [
            {
              "components": [
                {
                  "internalType": "string",
                  "name": "name",
                  "type": "string"
                },
                {
                  "internalType": "string",
                  "name": "symbol",
                  "type": "string"
                },
                {
                  "internalType": "address",
                  "name": "treasury",
                  "type": "address"
                },
                {
                  "internalType": "string",
                  "name": "memo",
                  "type": "string"
                },
                {
                  "internalType": "bool",
                  "name": "tokenSupplyType",
                  "type": "bool"
                },
                {
                  "internalType": "int64",
                  "name": "maxSupply",
                  "type": "int64"
                },
                {
                  "internalType": "bool",
                  "name": "freezeDefault",
                  "type": "bool"
                },
                {
                  "components": [
                    {
                      "internalType": "uint256",
                      "name": "keyType",
                      "type": "uint256"
                    },
                    {
                      "components": [
                        {
                          "internalType": "bool",
                          "name": "inheritAccountKey",
                          "type": "bool"
                        },
                        {
                          "internalType": "address",
                          "name": "contractId",
                          "type": "address"
                        },
                        {
                          "internalType": "bytes",
                          "name": "ed25519",
                          "type": "bytes"
                        },
                        {
                          "internalType": "bytes",
                          "name": "ECDSA_secp256k1",
                          "type": "bytes"
                        },
                        {
                          "internalType": "address",
                          "name": "delegatableContractId",
                          "type": "address"
                        }
                      ],
                      "internalType": "struct IHederaTokenService.KeyValue",
                      "name": "key",
                      "type": "tuple"
                    }
                  ],
                  "internalType": "struct IHederaTokenService.TokenKey[]",
                  "name": "tokenKeys",
                  "type": "tuple[]"
                },
                {
                  "components": [
                    {
                      "internalType": "uint32",
                      "name": "second",
                      "type": "uint32"
                    },
                    {
                      "internalType": "address",
                      "name": "autoRenewAccount",
                      "type": "address"
                    },
                    {
                      "internalType": "uint32",
                      "name": "autoRenewPeriod",
                      "type": "uint32"
                    }
                  ],
                  "internalType": "struct IHederaTokenService.Expiry",
                  "name": "expiry",
                  "type": "tuple"
                }
              ],
              "internalType": "struct IHederaTokenService.HederaToken",
              "name": "token",
              "type": "tuple"
            },
            {
              "internalType": "uint64",
              "name": "totalSupply",
              "type": "uint64"
            },
            {
              "internalType": "bool",
              "name": "deleted",
              "type": "bool"
            },
            {
              "internalType": "bool",
              "name": "defaultKycStatus",
              "type": "bool"
            },
            {
              "internalType": "bool",
              "name": "pauseStatus",
              "type": "bool"
            },
            {
              "components": [
                {
                  "internalType": "uint32",
                  "name": "amount",
                  "type": "uint32"
                },
                {
                  "internalType": "address",
                  "name": "tokenId",
                  "type": "address"
                },
                {
                  "internalType": "bool",
                  "name": "useHbarsForPayment",
                  "type": "bool"
                },
                {
                  "internalType": "bool",
                  "name": "useCurrentTokenForPayment",
                  "type": "bool"
                },
                {
                  "internalType": "address",
                  "name": "feeCollector",
                  "type": "address"
                }
              ],
              "internalType": "struct IHederaTokenService.FixedFee[]",
              "name": "fixedFees",
              "type": "tuple[]"
            },
            {
              "components": [
                {
                  "internalType": "uint32",
                  "name": "numerator",
                  "type": "uint32"
                },
                {
                  "internalType": "uint32",
                  "name": "denominator",
                  "type": "uint32"
                },
                {
                  "internalType": "uint32",
                  "name": "minimumAmount",
                  "type": "uint32"
                },
                {
                  "internalType": "uint32",
                  "name": "maximumAmount",
                  "type": "uint32"
                },
                {
                  "internalType": "bool",
                  "name": "netOfTransfers",
                  "type": "bool"
                },
                {
                  "internalType": "address",
                  "name": "feeCollector",
                  "type": "address"
                }
              ],
              "internalType": "struct IHederaTokenService.FractionalFee[]",
              "name": "fractionalFees",
              "type": "tuple[]"
            },
            {
              "components": [
                {
                  "internalType": "uint32",
                  "name": "numerator",
                  "type": "uint32"
                },
                {
                  "internalType": "uint32",
                  "name": "denominator",
                  "type": "uint32"
                },
                {
                  "internalType": "uint32",
                  "name": "amount",
                  "type": "uint32"
                },
                {
                  "internalType": "address",
                  "name": "tokenId",
                  "type": "address"
                },
                {
                  "internalType": "bool",
                  "name": "useHbarsForPayment",
                  "type": "bool"
                },
                {
                  "internalType": "address",
                  "name": "feeCollector",
                  "type": "address"
                }
              ],
              "internalType": "struct IHederaTokenService.RoyaltyFee[]",
              "name": "royaltyFees",
              "type": "tuple[]"
            },
            {
              "internalType": "string",
              "name": "ledgerId",
              "type": "string"
            }
          ],
          "indexed": false,
          "internalType": "struct IHederaTokenService.TokenInfo",
          "name": "tokenInfo",
          "type": "tuple"
        }
      ],
      "name": "TokenInfo",
      "type": "event"
    },
    {
      "anonymous": false,
      "inputs": [
        {
          "components": [
            {
              "internalType": "bool",
              "name": "inheritAccountKey",
              "type": "bool"
            },
            {
              "internalType": "address",
              "name": "contractId",
              "type": "address"
            },
            {
              "internalType": "bytes",
              "name": "ed25519",
              "type": "bytes"
            },
            {
              "internalType": "bytes",
              "name": "ECDSA_secp256k1",
              "type": "bytes"
            },
            {
              "internalType": "address",
              "name": "delegatableContractId",
              "type": "address"
            }
          ],
          "indexed": false,
          "internalType": "struct IHederaTokenService.KeyValue",
          "name": "key",
          "type": "tuple"
        }
      ],
      "name": "TokenKey",
      "type": "event"
    },
    {
      "anonymous": false,
      "inputs": [
        {
          "indexed": false,
          "internalType": "int32",
          "name": "tokenType",
          "type": "int32"
        }
      ],
      "name": "TokenType",
      "type": "event"
    },
    {
      "anonymous": false,
      "inputs": [
        {
          "indexed": false,
          "internalType": "bool",
          "name": "unpaused",
          "type": "bool"
        }
      ],
      "name": "UnpausedToken",
      "type": "event"
    },
    {
      "inputs": [
        {
          "internalType": "address",
          "name": "account",
          "type": "address"
        },
        {
          "internalType": "address",
          "name": "token",
          "type": "address"
        }
      ],
      "name": "associateTokenPublic",
      "outputs": [
        {
          "internalType": "int256",
          "name": "responseCode",
          "type": "int256"
        }
      ],
      "stateMutability": "nonpayable",
      "type": "function"
    },
    {
      "inputs": [
        {
          "internalType": "address",
          "name": "treasury",
          "type": "address"
        }
      ],
      "name": "createFungibleTokenPublic",
      "outputs": [],
      "stateMutability": "payable",
      "type": "function"
    },
    {
      "inputs": [
        {
          "internalType": "address",
          "name": "treasury",
          "type": "address"
        }
      ],
      "name": "createNonFungibleTokenPublic",
      "outputs": [],
      "stateMutability": "payable",
      "type": "function"
    },
    {
      "inputs": [
        {
          "internalType": "address",
          "name": "account",
          "type": "address"
        },
        {
          "internalType": "address",
          "name": "token",
          "type": "address"
        },
        {
          "internalType": "int64",
          "name": "amount",
          "type": "int64"
        }
      ],
      "name": "cryptoTransferTokenPublic",
      "outputs": [
        {
          "internalType": "int256",
          "name": "responseCode",
          "type": "int256"
        }
      ],
      "stateMutability": "nonpayable",
      "type": "function"
    },
    {
      "inputs": [
        {
          "internalType": "address",
          "name": "token",
          "type": "address"
        },
        {
          "internalType": "address",
          "name": "account",
          "type": "address"
        }
      ],
      "name": "freezeTokenPublic",
      "outputs": [
        {
          "internalType": "int256",
          "name": "responseCode",
          "type": "int256"
        }
      ],
      "stateMutability": "nonpayable",
      "type": "function"
    },
    {
      "inputs": [
        {
          "internalType": "address",
          "name": "token",
          "type": "address"
        },
        {
          "internalType": "int64",
          "name": "serialNumber",
          "type": "int64"
        }
      ],
      "name": "getNonFungibleTokenInfoPublic",
      "outputs": [
        {
          "internalType": "int256",
          "name": "responseCode",
          "type": "int256"
        },
        {
          "components": [
            {
              "components": [
                {
                  "components": [
                    {
                      "internalType": "string",
                      "name": "name",
                      "type": "string"
                    },
                    {
                      "internalType": "string",
                      "name": "symbol",
                      "type": "string"
                    },
                    {
                      "internalType": "address",
                      "name": "treasury",
                      "type": "address"
                    },
                    {
                      "internalType": "string",
                      "name": "memo",
                      "type": "string"
                    },
                    {
                      "internalType": "bool",
                      "name": "tokenSupplyType",
                      "type": "bool"
                    },
                    {
                      "internalType": "int64",
                      "name": "maxSupply",
                      "type": "int64"
                    },
                    {
                      "internalType": "bool",
                      "name": "freezeDefault",
                      "type": "bool"
                    },
                    {
                      "components": [
                        {
                          "internalType": "uint256",
                          "name": "keyType",
                          "type": "uint256"
                        },
                        {
                          "components": [
                            {
                              "internalType": "bool",
                              "name": "inheritAccountKey",
                              "type": "bool"
                            },
                            {
                              "internalType": "address",
                              "name": "contractId",
                              "type": "address"
                            },
                            {
                              "internalType": "bytes",
                              "name": "ed25519",
                              "type": "bytes"
                            },
                            {
                              "internalType": "bytes",
                              "name": "ECDSA_secp256k1",
                              "type": "bytes"
                            },
                            {
                              "internalType": "address",
                              "name": "delegatableContractId",
                              "type": "address"
                            }
                          ],
                          "internalType": "struct IHederaTokenService.KeyValue",
                          "name": "key",
                          "type": "tuple"
                        }
                      ],
                      "internalType": "struct IHederaTokenService.TokenKey[]",
                      "name": "tokenKeys",
                      "type": "tuple[]"
                    },
                    {
                      "components": [
                        {
                          "internalType": "uint32",
                          "name": "second",
                          "type": "uint32"
                        },
                        {
                          "internalType": "address",
                          "name": "autoRenewAccount",
                          "type": "address"
                        },
                        {
                          "internalType": "uint32",
                          "name": "autoRenewPeriod",
                          "type": "uint32"
                        }
                      ],
                      "internalType": "struct IHederaTokenService.Expiry",
                      "name": "expiry",
                      "type": "tuple"
                    }
                  ],
                  "internalType": "struct IHederaTokenService.HederaToken",
                  "name": "token",
                  "type": "tuple"
                },
                {
                  "internalType": "uint64",
                  "name": "totalSupply",
                  "type": "uint64"
                },
                {
                  "internalType": "bool",
                  "name": "deleted",
                  "type": "bool"
                },
                {
                  "internalType": "bool",
                  "name": "defaultKycStatus",
                  "type": "bool"
                },
                {
                  "internalType": "bool",
                  "name": "pauseStatus",
                  "type": "bool"
                },
                {
                  "components": [
                    {
                      "internalType": "uint32",
                      "name": "amount",
                      "type": "uint32"
                    },
                    {
                      "internalType": "address",
                      "name": "tokenId",
                      "type": "address"
                    },
                    {
                      "internalType": "bool",
                      "name": "useHbarsForPayment",
                      "type": "bool"
                    },
                    {
                      "internalType": "bool",
                      "name": "useCurrentTokenForPayment",
                      "type": "bool"
                    },
                    {
                      "internalType": "address",
                      "name": "feeCollector",
                      "type": "address"
                    }
                  ],
                  "internalType": "struct IHederaTokenService.FixedFee[]",
                  "name": "fixedFees",
                  "type": "tuple[]"
                },
                {
                  "components": [
                    {
                      "internalType": "uint32",
                      "name": "numerator",
                      "type": "uint32"
                    },
                    {
                      "internalType": "uint32",
                      "name": "denominator",
                      "type": "uint32"
                    },
                    {
                      "internalType": "uint32",
                      "name": "minimumAmount",
                      "type": "uint32"
                    },
                    {
                      "internalType": "uint32",
                      "name": "maximumAmount",
                      "type": "uint32"
                    },
                    {
                      "internalType": "bool",
                      "name": "netOfTransfers",
                      "type": "bool"
                    },
                    {
                      "internalType": "address",
                      "name": "feeCollector",
                      "type": "address"
                    }
                  ],
                  "internalType": "struct IHederaTokenService.FractionalFee[]",
                  "name": "fractionalFees",
                  "type": "tuple[]"
                },
                {
                  "components": [
                    {
                      "internalType": "uint32",
                      "name": "numerator",
                      "type": "uint32"
                    },
                    {
                      "internalType": "uint32",
                      "name": "denominator",
                      "type": "uint32"
                    },
                    {
                      "internalType": "uint32",
                      "name": "amount",
                      "type": "uint32"
                    },
                    {
                      "internalType": "address",
                      "name": "tokenId",
                      "type": "address"
                    },
                    {
                      "internalType": "bool",
                      "name": "useHbarsForPayment",
                      "type": "bool"
                    },
                    {
                      "internalType": "address",
                      "name": "feeCollector",
                      "type": "address"
                    }
                  ],
                  "internalType": "struct IHederaTokenService.RoyaltyFee[]",
                  "name": "royaltyFees",
                  "type": "tuple[]"
                },
                {
                  "internalType": "string",
                  "name": "ledgerId",
                  "type": "string"
                }
              ],
              "internalType": "struct IHederaTokenService.TokenInfo",
              "name": "tokenInfo",
              "type": "tuple"
            },
            {
              "internalType": "int64",
              "name": "serialNumber",
              "type": "int64"
            },
            {
              "internalType": "address",
              "name": "ownerId",
              "type": "address"
            },
            {
              "internalType": "int64",
              "name": "creationTime",
              "type": "int64"
            },
            {
              "internalType": "bytes",
              "name": "metadata",
              "type": "bytes"
            },
            {
              "internalType": "address",
              "name": "spenderId",
              "type": "address"
            }
          ],
          "internalType": "struct IHederaTokenService.NonFungibleTokenInfo",
          "name": "tokenInfo",
          "type": "tuple"
        }
      ],
      "stateMutability": "nonpayable",
      "type": "function"
    },
    {
      "inputs": [
        {
          "internalType": "address",
          "name": "token",
          "type": "address"
        }
      ],
      "name": "getTokenDefaultFreezeStatusPublic",
      "outputs": [
        {
          "internalType": "int256",
          "name": "responseCode",
          "type": "int256"
        },
        {
          "internalType": "bool",
          "name": "defaultFreezeStatus",
          "type": "bool"
        }
      ],
      "stateMutability": "nonpayable",
      "type": "function"
    },
    {
      "inputs": [
        {
          "internalType": "address",
          "name": "token",
          "type": "address"
        }
      ],
      "name": "getTokenExpiryInfo",
      "outputs": [
        {
          "internalType": "int256",
          "name": "responseCode",
          "type": "int256"
        },
        {
          "components": [
            {
              "internalType": "uint32",
              "name": "second",
              "type": "uint32"
            },
            {
              "internalType": "address",
              "name": "autoRenewAccount",
              "type": "address"
            },
            {
              "internalType": "uint32",
              "name": "autoRenewPeriod",
              "type": "uint32"
            }
          ],
          "internalType": "struct IHederaTokenService.Expiry",
          "name": "expiryInfo",
          "type": "tuple"
        }
      ],
      "stateMutability": "nonpayable",
      "type": "function"
    },
    {
      "inputs": [
        {
          "internalType": "address",
          "name": "token",
          "type": "address"
        }
      ],
      "name": "getTokenExpiryInfoPublic",
      "outputs": [
        {
          "internalType": "int256",
          "name": "responseCode",
          "type": "int256"
        },
        {
          "components": [
            {
              "internalType": "uint32",
              "name": "second",
              "type": "uint32"
            },
            {
              "internalType": "address",
              "name": "autoRenewAccount",
              "type": "address"
            },
            {
              "internalType": "uint32",
              "name": "autoRenewPeriod",
              "type": "uint32"
            }
          ],
          "internalType": "struct IHederaTokenService.Expiry",
          "name": "expiryInfo",
          "type": "tuple"
        }
      ],
      "stateMutability": "nonpayable",
      "type": "function"
    },
    {
      "inputs": [
        {
          "internalType": "address",
          "name": "token",
          "type": "address"
        }
      ],
      "name": "getTokenInfoPublic",
      "outputs": [
        {
          "internalType": "int256",
          "name": "responseCode",
          "type": "int256"
        },
        {
          "components": [
            {
              "components": [
                {
                  "internalType": "string",
                  "name": "name",
                  "type": "string"
                },
                {
                  "internalType": "string",
                  "name": "symbol",
                  "type": "string"
                },
                {
                  "internalType": "address",
                  "name": "treasury",
                  "type": "address"
                },
                {
                  "internalType": "string",
                  "name": "memo",
                  "type": "string"
                },
                {
                  "internalType": "bool",
                  "name": "tokenSupplyType",
                  "type": "bool"
                },
                {
                  "internalType": "int64",
                  "name": "maxSupply",
                  "type": "int64"
                },
                {
                  "internalType": "bool",
                  "name": "freezeDefault",
                  "type": "bool"
                },
                {
                  "components": [
                    {
                      "internalType": "uint256",
                      "name": "keyType",
                      "type": "uint256"
                    },
                    {
                      "components": [
                        {
                          "internalType": "bool",
                          "name": "inheritAccountKey",
                          "type": "bool"
                        },
                        {
                          "internalType": "address",
                          "name": "contractId",
                          "type": "address"
                        },
                        {
                          "internalType": "bytes",
                          "name": "ed25519",
                          "type": "bytes"
                        },
                        {
                          "internalType": "bytes",
                          "name": "ECDSA_secp256k1",
                          "type": "bytes"
                        },
                        {
                          "internalType": "address",
                          "name": "delegatableContractId",
                          "type": "address"
                        }
                      ],
                      "internalType": "struct IHederaTokenService.KeyValue",
                      "name": "key",
                      "type": "tuple"
                    }
                  ],
                  "internalType": "struct IHederaTokenService.TokenKey[]",
                  "name": "tokenKeys",
                  "type": "tuple[]"
                },
                {
                  "components": [
                    {
                      "internalType": "uint32",
                      "name": "second",
                      "type": "uint32"
                    },
                    {
                      "internalType": "address",
                      "name": "autoRenewAccount",
                      "type": "address"
                    },
                    {
                      "internalType": "uint32",
                      "name": "autoRenewPeriod",
                      "type": "uint32"
                    }
                  ],
                  "internalType": "struct IHederaTokenService.Expiry",
                  "name": "expiry",
                  "type": "tuple"
                }
              ],
              "internalType": "struct IHederaTokenService.HederaToken",
              "name": "token",
              "type": "tuple"
            },
            {
              "internalType": "uint64",
              "name": "totalSupply",
              "type": "uint64"
            },
            {
              "internalType": "bool",
              "name": "deleted",
              "type": "bool"
            },
            {
              "internalType": "bool",
              "name": "defaultKycStatus",
              "type": "bool"
            },
            {
              "internalType": "bool",
              "name": "pauseStatus",
              "type": "bool"
            },
            {
              "components": [
                {
                  "internalType": "uint32",
                  "name": "amount",
                  "type": "uint32"
                },
                {
                  "internalType": "address",
                  "name": "tokenId",
                  "type": "address"
                },
                {
                  "internalType": "bool",
                  "name": "useHbarsForPayment",
                  "type": "bool"
                },
                {
                  "internalType": "bool",
                  "name": "useCurrentTokenForPayment",
                  "type": "bool"
                },
                {
                  "internalType": "address",
                  "name": "feeCollector",
                  "type": "address"
                }
              ],
              "internalType": "struct IHederaTokenService.FixedFee[]",
              "name": "fixedFees",
              "type": "tuple[]"
            },
            {
              "components": [
                {
                  "internalType": "uint32",
                  "name": "numerator",
                  "type": "uint32"
                },
                {
                  "internalType": "uint32",
                  "name": "denominator",
                  "type": "uint32"
                },
                {
                  "internalType": "uint32",
                  "name": "minimumAmount",
                  "type": "uint32"
                },
                {
                  "internalType": "uint32",
                  "name": "maximumAmount",
                  "type": "uint32"
                },
                {
                  "internalType": "bool",
                  "name": "netOfTransfers",
                  "type": "bool"
                },
                {
                  "internalType": "address",
                  "name": "feeCollector",
                  "type": "address"
                }
              ],
              "internalType": "struct IHederaTokenService.FractionalFee[]",
              "name": "fractionalFees",
              "type": "tuple[]"
            },
            {
              "components": [
                {
                  "internalType": "uint32",
                  "name": "numerator",
                  "type": "uint32"
                },
                {
                  "internalType": "uint32",
                  "name": "denominator",
                  "type": "uint32"
                },
                {
                  "internalType": "uint32",
                  "name": "amount",
                  "type": "uint32"
                },
                {
                  "internalType": "address",
                  "name": "tokenId",
                  "type": "address"
                },
                {
                  "internalType": "bool",
                  "name": "useHbarsForPayment",
                  "type": "bool"
                },
                {
                  "internalType": "address",
                  "name": "feeCollector",
                  "type": "address"
                }
              ],
              "internalType": "struct IHederaTokenService.RoyaltyFee[]",
              "name": "royaltyFees",
              "type": "tuple[]"
            },
            {
              "internalType": "string",
              "name": "ledgerId",
              "type": "string"
            }
          ],
          "internalType": "struct IHederaTokenService.TokenInfo",
          "name": "tokenInfo",
          "type": "tuple"
        }
      ],
      "stateMutability": "nonpayable",
      "type": "function"
    },
    {
      "inputs": [
        {
          "internalType": "address",
          "name": "token",
          "type": "address"
        },
        {
          "internalType": "uint256",
          "name": "keyType",
          "type": "uint256"
        }
      ],
      "name": "getTokenKeyPublic",
      "outputs": [
        {
          "internalType": "int64",
          "name": "responseCode",
          "type": "int64"
        },
        {
          "components": [
            {
              "internalType": "bool",
              "name": "inheritAccountKey",
              "type": "bool"
            },
            {
              "internalType": "address",
              "name": "contractId",
              "type": "address"
            },
            {
              "internalType": "bytes",
              "name": "ed25519",
              "type": "bytes"
            },
            {
              "internalType": "bytes",
              "name": "ECDSA_secp256k1",
              "type": "bytes"
            },
            {
              "internalType": "address",
              "name": "delegatableContractId",
              "type": "address"
            }
          ],
          "internalType": "struct IHederaTokenService.KeyValue",
          "name": "key",
          "type": "tuple"
        }
      ],
      "stateMutability": "nonpayable",
      "type": "function"
    },
    {
      "inputs": [
        {
          "internalType": "address",
          "name": "token",
          "type": "address"
        }
      ],
      "name": "getTokenTypePublic",
      "outputs": [
        {
          "internalType": "int64",
          "name": "responseCode",
          "type": "int64"
        },
        {
          "internalType": "int32",
          "name": "tokenType",
          "type": "int32"
        }
      ],
      "stateMutability": "nonpayable",
      "type": "function"
    },
    {
      "inputs": [
        {
          "internalType": "address",
          "name": "token",
          "type": "address"
        },
        {
          "internalType": "address",
          "name": "account",
          "type": "address"
        }
      ],
      "name": "grantTokenKyc",
      "outputs": [
        {
          "internalType": "int64",
          "name": "responseCode",
          "type": "int64"
        }
      ],
      "stateMutability": "nonpayable",
      "type": "function"
    },
    {
      "inputs": [
        {
          "internalType": "address",
          "name": "token",
          "type": "address"
        },
        {
          "internalType": "address",
          "name": "account",
          "type": "address"
        }
      ],
      "name": "grantTokenKycPublic",
      "outputs": [
        {
          "internalType": "int64",
          "name": "responseCode",
          "type": "int64"
        }
      ],
      "stateMutability": "nonpayable",
      "type": "function"
    },
    {
      "inputs": [
        {
          "internalType": "address",
          "name": "token",
          "type": "address"
        },
        {
          "internalType": "address",
          "name": "account",
          "type": "address"
        }
      ],
      "name": "isFrozenPublic",
      "outputs": [
        {
          "internalType": "int256",
          "name": "responseCode",
          "type": "int256"
        },
        {
          "internalType": "bool",
          "name": "frozen",
          "type": "bool"
        }
      ],
      "stateMutability": "nonpayable",
      "type": "function"
    },
    {
      "inputs": [
        {
          "internalType": "address",
          "name": "token",
          "type": "address"
        },
        {
          "internalType": "address",
          "name": "account",
          "type": "address"
        }
      ],
      "name": "isKyc",
      "outputs": [
        {
          "internalType": "int64",
          "name": "responseCode",
          "type": "int64"
        },
        {
          "internalType": "bool",
          "name": "kycGranted",
          "type": "bool"
        }
      ],
      "stateMutability": "nonpayable",
      "type": "function"
    },
    {
      "inputs": [
        {
          "internalType": "address",
          "name": "token",
          "type": "address"
        }
      ],
      "name": "isTokenPublic",
      "outputs": [
        {
          "internalType": "int64",
          "name": "responseCode",
          "type": "int64"
        },
        {
          "internalType": "bool",
          "name": "isTokenFlag",
          "type": "bool"
        }
      ],
      "stateMutability": "nonpayable",
      "type": "function"
    },
    {
      "inputs": [
        {
          "internalType": "address",
          "name": "token",
          "type": "address"
        },
        {
          "internalType": "uint64",
          "name": "amount",
          "type": "uint64"
        },
        {
          "internalType": "bytes[]",
          "name": "metadata",
          "type": "bytes[]"
        }
      ],
      "name": "mintTokenPublic",
      "outputs": [
        {
          "internalType": "int256",
          "name": "responseCode",
          "type": "int256"
        },
        {
          "internalType": "uint64",
          "name": "newTotalSupply",
          "type": "uint64"
        },
        {
          "internalType": "int64[]",
          "name": "serialNumbers",
          "type": "int64[]"
        }
      ],
      "stateMutability": "nonpayable",
      "type": "function"
    },
    {
      "inputs": [
        {
          "internalType": "address",
          "name": "token",
          "type": "address"
        }
      ],
      "name": "pauseToken",
      "outputs": [
        {
          "internalType": "int256",
          "name": "responseCode",
          "type": "int256"
        }
      ],
      "stateMutability": "nonpayable",
      "type": "function"
    },
    {
      "inputs": [
        {
          "internalType": "address",
          "name": "token",
          "type": "address"
        }
      ],
      "name": "pauseTokenPublic",
      "outputs": [
        {
          "internalType": "int256",
          "name": "responseCode",
          "type": "int256"
        }
      ],
      "stateMutability": "nonpayable",
      "type": "function"
    },
    {
      "inputs": [
        {
          "internalType": "address",
          "name": "token",
          "type": "address"
        },
        {
          "internalType": "address",
          "name": "account",
          "type": "address"
        }
      ],
      "name": "revokeTokenKyc",
      "outputs": [
        {
          "internalType": "int64",
          "name": "responseCode",
          "type": "int64"
        }
      ],
      "stateMutability": "nonpayable",
      "type": "function"
    },
    {
      "inputs": [
        {
          "internalType": "bool",
          "name": "newFreezeStatus",
          "type": "bool"
        }
      ],
      "name": "setFreezeDefaultStatus",
      "outputs": [],
      "stateMutability": "nonpayable",
      "type": "function"
    },
    {
      "inputs": [
        {
          "internalType": "address",
          "name": "token",
          "type": "address"
        },
        {
          "internalType": "address",
          "name": "sender",
          "type": "address"
        },
        {
          "internalType": "address",
          "name": "receiver",
          "type": "address"
        },
        {
          "internalType": "int64",
          "name": "serialNumber",
          "type": "int64"
        }
      ],
      "name": "transferNFTPublic",
      "outputs": [
        {
          "internalType": "int256",
          "name": "responseCode",
          "type": "int256"
        }
      ],
      "stateMutability": "nonpayable",
      "type": "function"
    },
    {
      "inputs": [
        {
          "internalType": "address",
          "name": "token",
          "type": "address"
        },
        {
          "internalType": "address",
          "name": "account",
          "type": "address"
        }
      ],
      "name": "unfreezeTokenPublic",
      "outputs": [
        {
          "internalType": "int256",
          "name": "responseCode",
          "type": "int256"
        }
      ],
      "stateMutability": "nonpayable",
      "type": "function"
    },
    {
      "inputs": [
        {
          "internalType": "address",
          "name": "token",
          "type": "address"
        }
      ],
      "name": "unpauseToken",
      "outputs": [
        {
          "internalType": "int256",
          "name": "responseCode",
          "type": "int256"
        }
      ],
      "stateMutability": "nonpayable",
      "type": "function"
    },
    {
      "inputs": [
        {
          "internalType": "address",
          "name": "token",
          "type": "address"
        }
      ],
      "name": "unpauseTokenPublic",
      "outputs": [
        {
          "internalType": "int256",
          "name": "responseCode",
          "type": "int256"
        }
      ],
      "stateMutability": "nonpayable",
      "type": "function"
    },
    {
      "inputs": [
        {
          "internalType": "address",
          "name": "token",
          "type": "address"
        },
        {
          "components": [
            {
              "internalType": "uint32",
              "name": "second",
              "type": "uint32"
            },
            {
              "internalType": "address",
              "name": "autoRenewAccount",
              "type": "address"
            },
            {
              "internalType": "uint32",
              "name": "autoRenewPeriod",
              "type": "uint32"
            }
          ],
          "internalType": "struct IHederaTokenService.Expiry",
          "name": "expiryInfo",
          "type": "tuple"
        }
      ],
      "name": "updateTokenExpiryInfo",
      "outputs": [
        {
          "internalType": "int256",
          "name": "responseCode",
          "type": "int256"
        }
      ],
      "stateMutability": "nonpayable",
      "type": "function"
    },
    {
      "inputs": [
        {
          "internalType": "address",
          "name": "token",
          "type": "address"
        },
        {
          "components": [
            {
              "internalType": "uint32",
              "name": "second",
              "type": "uint32"
            },
            {
              "internalType": "address",
              "name": "autoRenewAccount",
              "type": "address"
            },
            {
              "internalType": "uint32",
              "name": "autoRenewPeriod",
              "type": "uint32"
            }
          ],
          "internalType": "struct IHederaTokenService.Expiry",
          "name": "expiryInfo",
          "type": "tuple"
        }
      ],
      "name": "updateTokenExpiryInfoPublic",
      "outputs": [
        {
          "internalType": "int256",
          "name": "responseCode",
          "type": "int256"
        }
      ],
      "stateMutability": "nonpayable",
      "type": "function"
    },
    {
      "inputs": [
        {
          "internalType": "address",
          "name": "token",
          "type": "address"
        },
        {
          "components": [
            {
              "internalType": "string",
              "name": "name",
              "type": "string"
            },
            {
              "internalType": "string",
              "name": "symbol",
              "type": "string"
            },
            {
              "internalType": "address",
              "name": "treasury",
              "type": "address"
            },
            {
              "internalType": "string",
              "name": "memo",
              "type": "string"
            },
            {
              "internalType": "bool",
              "name": "tokenSupplyType",
              "type": "bool"
            },
            {
              "internalType": "int64",
              "name": "maxSupply",
              "type": "int64"
            },
            {
              "internalType": "bool",
              "name": "freezeDefault",
              "type": "bool"
            },
            {
              "components": [
                {
                  "internalType": "uint256",
                  "name": "keyType",
                  "type": "uint256"
                },
                {
                  "components": [
                    {
                      "internalType": "bool",
                      "name": "inheritAccountKey",
                      "type": "bool"
                    },
                    {
                      "internalType": "address",
                      "name": "contractId",
                      "type": "address"
                    },
                    {
                      "internalType": "bytes",
                      "name": "ed25519",
                      "type": "bytes"
                    },
                    {
                      "internalType": "bytes",
                      "name": "ECDSA_secp256k1",
                      "type": "bytes"
                    },
                    {
                      "internalType": "address",
                      "name": "delegatableContractId",
                      "type": "address"
                    }
                  ],
                  "internalType": "struct IHederaTokenService.KeyValue",
                  "name": "key",
                  "type": "tuple"
                }
              ],
              "internalType": "struct IHederaTokenService.TokenKey[]",
              "name": "tokenKeys",
              "type": "tuple[]"
            },
            {
              "components": [
                {
                  "internalType": "uint32",
                  "name": "second",
                  "type": "uint32"
                },
                {
                  "internalType": "address",
                  "name": "autoRenewAccount",
                  "type": "address"
                },
                {
                  "internalType": "uint32",
                  "name": "autoRenewPeriod",
                  "type": "uint32"
                }
              ],
              "internalType": "struct IHederaTokenService.Expiry",
              "name": "expiry",
              "type": "tuple"
            }
          ],
          "internalType": "struct IHederaTokenService.HederaToken",
          "name": "tokenInfo",
          "type": "tuple"
        }
      ],
      "name": "updateTokenInfo",
      "outputs": [
        {
          "internalType": "int256",
          "name": "responseCode",
          "type": "int256"
        }
      ],
      "stateMutability": "nonpayable",
      "type": "function"
    },
    {
      "inputs": [
        {
          "internalType": "address",
          "name": "token",
          "type": "address"
        },
        {
          "components": [
            {
              "internalType": "string",
              "name": "name",
              "type": "string"
            },
            {
              "internalType": "string",
              "name": "symbol",
              "type": "string"
            },
            {
              "internalType": "address",
              "name": "treasury",
              "type": "address"
            },
            {
              "internalType": "string",
              "name": "memo",
              "type": "string"
            },
            {
              "internalType": "bool",
              "name": "tokenSupplyType",
              "type": "bool"
            },
            {
              "internalType": "int64",
              "name": "maxSupply",
              "type": "int64"
            },
            {
              "internalType": "bool",
              "name": "freezeDefault",
              "type": "bool"
            },
            {
              "components": [
                {
                  "internalType": "uint256",
                  "name": "keyType",
                  "type": "uint256"
                },
                {
                  "components": [
                    {
                      "internalType": "bool",
                      "name": "inheritAccountKey",
                      "type": "bool"
                    },
                    {
                      "internalType": "address",
                      "name": "contractId",
                      "type": "address"
                    },
                    {
                      "internalType": "bytes",
                      "name": "ed25519",
                      "type": "bytes"
                    },
                    {
                      "internalType": "bytes",
                      "name": "ECDSA_secp256k1",
                      "type": "bytes"
                    },
                    {
                      "internalType": "address",
                      "name": "delegatableContractId",
                      "type": "address"
                    }
                  ],
                  "internalType": "struct IHederaTokenService.KeyValue",
                  "name": "key",
                  "type": "tuple"
                }
              ],
              "internalType": "struct IHederaTokenService.TokenKey[]",
              "name": "tokenKeys",
              "type": "tuple[]"
            },
            {
              "components": [
                {
                  "internalType": "uint32",
                  "name": "second",
                  "type": "uint32"
                },
                {
                  "internalType": "address",
                  "name": "autoRenewAccount",
                  "type": "address"
                },
                {
                  "internalType": "uint32",
                  "name": "autoRenewPeriod",
                  "type": "uint32"
                }
              ],
              "internalType": "struct IHederaTokenService.Expiry",
              "name": "expiry",
              "type": "tuple"
            }
          ],
          "internalType": "struct IHederaTokenService.HederaToken",
          "name": "tokenInfo",
          "type": "tuple"
        }
      ],
      "name": "updateTokenInfoPublic",
      "outputs": [
        {
          "internalType": "int256",
          "name": "responseCode",
          "type": "int256"
        }
      ],
      "stateMutability": "nonpayable",
      "type": "function"
    },
    {
      "inputs": [
        {
          "internalType": "address",
          "name": "token",
          "type": "address"
        },
        {
          "components": [
            {
              "internalType": "uint256",
              "name": "keyType",
              "type": "uint256"
            },
            {
              "components": [
                {
                  "internalType": "bool",
                  "name": "inheritAccountKey",
                  "type": "bool"
                },
                {
                  "internalType": "address",
                  "name": "contractId",
                  "type": "address"
                },
                {
                  "internalType": "bytes",
                  "name": "ed25519",
                  "type": "bytes"
                },
                {
                  "internalType": "bytes",
                  "name": "ECDSA_secp256k1",
                  "type": "bytes"
                },
                {
                  "internalType": "address",
                  "name": "delegatableContractId",
                  "type": "address"
                }
              ],
              "internalType": "struct IHederaTokenService.KeyValue",
              "name": "key",
              "type": "tuple"
            }
          ],
          "internalType": "struct IHederaTokenService.TokenKey[]",
          "name": "keys",
          "type": "tuple[]"
        }
      ],
      "name": "updateTokenKeysPublic",
      "outputs": [
        {
          "internalType": "int64",
          "name": "responseCode",
          "type": "int64"
        }
      ],
      "stateMutability": "nonpayable",
      "type": "function"
    },
    {
      "inputs": [
        {
          "internalType": "address",
          "name": "token",
          "type": "address"
        },
        {
          "internalType": "address",
          "name": "account",
          "type": "address"
        },
        {
          "internalType": "int64[]",
          "name": "serialNumbers",
          "type": "int64[]"
        }
      ],
      "name": "wipeTokenAccountNFTPublic",
      "outputs": [
        {
          "internalType": "int256",
          "name": "responseCode",
          "type": "int256"
        }
      ],
      "stateMutability": "nonpayable",
      "type": "function"
    },
    {
      "inputs": [
        {
          "internalType": "address",
          "name": "token",
          "type": "address"
        },
        {
          "internalType": "address",
          "name": "account",
          "type": "address"
        },
        {
          "internalType": "uint32",
          "name": "amount",
          "type": "uint32"
        }
      ],
      "name": "wipeTokenAccountPublic",
      "outputs": [
        {
          "internalType": "int256",
          "name": "responseCode",
          "type": "int256"
        }
      ],
      "stateMutability": "nonpayable",
      "type": "function"
    }
  ],
  "bytecode": "0x60c06040526009608081905268746f6b656e4e616d6560b81b60a09081526200002c9160019190620000c7565b5060408051808201909152600b8082526a1d1bdad95b94de5b589bdb60aa1b60209092019182526200006191600291620000c7565b50604080518082019091526004808252636d656d6f60e01b60209092019182526200008f91600391620000c7565b50600480546001600160a81b031916700800000000000003e800000000000003e8179055348015620000c057600080fd5b50620001aa565b828054620000d5906200016d565b90600052602060002090601f016020900481019282620000f9576000855562000144565b82601f106200011457805160ff191683800117855562000144565b8280016001018555821562000144579182015b828111156200014457825182559160200191906001019062000127565b506200015292915062000156565b5090565b5b8082111562000152576000815560010162000157565b600181811c908216806200018257607f821691505b60208210811415620001a457634e487b7160e01b600052602260045260246000fd5b50919050565b6148f580620001ba6000396000f3fe6080604052600436106101ee5760003560e01c80637c41ad2c1161010d578063d85f74c1116100a0578063f2f38a741161006f578063f2f38a7414610606578063f4a01e5b14610634578063f7be342514610654578063f9e978bd14610674578063fdc8321e1461069457600080fd5b8063d85f74c114610593578063d92ac248146105a6578063eee55ac8146105c6578063f2c31ff4146105e657600080fd5b80638f8d7f99116100dc5780638f8d7f9914610505578063af99c63314610525578063c0b19b6d14610545578063d614cdb81461057357600080fd5b80637c41ad2c1461045c5780637d3e5da81461047c5780638070905f1461049c5780638c99ef5d146104cb57600080fd5b80634b5c668711610185578063593d6e8211610154578063593d6e82146103bf5780635d2c5bad146103df5780636a4dde211461041c5780636da6b1f01461043c57600080fd5b80634b5c66871461033c5780634cbdb37b146103515780634d8f27c91461037f57806356af84031461039f57600080fd5b80632d73bb2e116101c15780632d73bb2e146102a75780632f13d66b146102c75780633b3bff0f146102e75780633eed2c391461030757600080fd5b80630fd2601e146101f357806318370d341461022b5780631955de0b146102595780632b256ec814610287575b600080fd5b3480156101ff57600080fd5b5061021361020e36600461358f565b6106b4565b60405160079190910b81526020015b60405180910390f35b34801561023757600080fd5b5061024b61024636600461381c565b61076d565b604051908152602001610222565b34801561026557600080fd5b5061027961027436600461395c565b61084a565b604051610222929190614595565b34801561029357600080fd5b5061024b6102a2366004613573565b6108d7565b3480156102b357600080fd5b5061024b6102c236600461358f565b6109c3565b3480156102d357600080fd5b5061024b6102e236600461381c565b610a08565b3480156102f357600080fd5b5061024b610302366004613573565b610aa3565b34801561031357600080fd5b50610327610322366004613573565b610b7d565b60408051928352901515602083015201610222565b61034f61034a366004613573565b610bf7565b005b34801561035d57600080fd5b5061037161036c3660046137ba565b61100e565b60405161022292919061453b565b34801561038b57600080fd5b5061021361039a36600461376d565b611084565b3480156103ab57600080fd5b5061024b6103ba366004613622565b611090565b3480156103cb57600080fd5b5061024b6103da3660046137e7565b6110da565b3480156103eb57600080fd5b506103ff6103fa366004613573565b611106565b6040805160079390930b835260039190910b602083015201610222565b34801561042857600080fd5b5061032761043736600461358f565b611181565b34801561044857600080fd5b5061024b6104573660046135c7565b6111f8565b34801561046857600080fd5b5061024b610477366004613573565b611244565b34801561048857600080fd5b5061024b61049736600461358f565b611272565b3480156104a857600080fd5b506104bc6104b7366004613987565b61127e565b6040516102229392919061456d565b3480156104d757600080fd5b506104eb6104e6366004613573565b611306565b6040805160079390930b8352901515602083015201610222565b34801561051157600080fd5b5061021361052036600461358f565b61137f565b34801561053157600080fd5b5061021361054036600461358f565b6113ab565b34801561055157600080fd5b50610565610560366004613573565b6113d7565b604051610222929190614527565b34801561057f57600080fd5b5061056561058e366004613573565b6114ce565b61034f6105a1366004613573565b6115dd565b3480156105b257600080fd5b5061024b6105c136600461372e565b6119c7565b3480156105d257600080fd5b5061024b6105e13660046137e7565b6119d4565b3480156105f257600080fd5b506104eb61060136600461358f565b6119fc565b34801561061257600080fd5b50610626610621366004613573565b611ad0565b604051610222929190614554565b34801561064057600080fd5b5061024b61064f36600461358f565b611b45565b34801561066057600080fd5b5061024b61066f366004613573565b611b51565b34801561068057600080fd5b5061034f61068f366004613a5d565b611c34565b3480156106a057600080fd5b5061024b6106af3660046136e4565b611c8f565b604051638f8d7f9960e01b81526000903090638f8d7f99906106dc908690869060040161431f565b602060405180830381600087803b1580156106f657600080fd5b505af115801561070a573d6000803e3d6000fd5b505050506040513d601f19601f8201168201806040525081019061072e9190613d8c565b604051600782900b81529091506000805160206148a08339815191529060200160405180910390a1600781900b60161461076757600080fd5b92915050565b60008060006101676001600160a01b03166318370d3460e01b86866040516024016107999291906143af565b60408051601f198184030181529181526020820180516001600160e01b03166001600160e01b03199094169390931790925290516107d79190614303565b6000604051808303816000865af19150503d8060008114610814576040519150601f19603f3d011682016040523d82523d6000602084013e610819565b606091505b50915091508161082a57601561083e565b8080602001905181019061083e9190613ab4565b60030b95945050505050565b6000610854612af5565b61085e8484611e90565b604051600783900b815291935091506000805160206148a08339815191529060200160405180910390a1600782900b60161461089957600080fd5b7faed084fbdf29b6ba2242463299d7270f64e0f8ced16013cfff249856bd887157816040516108c8919061460a565b60405180910390a19250929050565b604051631f106b4b60e21b81526001600160a01b03821660048201526000903090637c41ad2c90602401602060405180830381600087803b15801561091b57600080fd5b505af115801561092f573d6000803e3d6000fd5b505050506040513d601f19601f820116820180604052508101906109539190613a79565b90506000805160206148a08339815191528160405161097491815260200190565b60405180910390a16016811461098957600080fd5b604051600181527f0c9c765845f4d139956bb8fc8decb2eec6093c9c608b809641b16054b29f0e13906020015b60405180910390a1919050565b60006109cf8383611f77565b60070b90506000805160206148a0833981519152816040516109f391815260200190565b60405180910390a16016811461076757600080fd5b60405163060dc34d60e21b815260009030906318370d3490610a3090869086906004016143af565b602060405180830381600087803b158015610a4a57600080fd5b505af1158015610a5e573d6000803e3d6000fd5b505050506040513d601f19601f82011682018060405250810190610a829190613a79565b90506000805160206148a0833981519152816040516109f391815260200190565b6040516001600160a01b03821660248201526000908190819061016790633b3bff0f60e01b906044015b60408051601f198184030181529181526020820180516001600160e01b03166001600160e01b0319909416939093179092529051610b0b9190614303565b6000604051808303816000865af19150503d8060008114610b48576040519150601f19603f3d011682016040523d82523d6000602084013e610b4d565b606091505b509150915081610b5e576015610b72565b80806020019051810190610b729190613ab4565b60030b949350505050565b600080610b8983611fa3565b60405182815291935091506000805160206148a08339815191529060200160405180910390a160168214610bbc57600080fd5b60405181151581527f6b7f3306751292f85ab4161ee2b0ac16dfc8ded13e6446ce6bd859d0a2f4c78e906020015b60405180910390a1915091565b60408051600480825260a08201909252600091816020015b610c17612b38565b815260200190600190039081610c0f579050509050610c4a60006006600160405180602001604052806000815250612087565b81600081518110610c6b57634e487b7160e01b600052603260045260246000fd5b6020026020010181905250610c91600180604051806020016040528060008152506120be565b81600181518110610cb257634e487b7160e01b600052603260045260246000fd5b6020026020010181905250610cd960026001604051806020016040528060008152506120be565b81600281518110610cfa57634e487b7160e01b600052603260045260246000fd5b6020026020010181905250610d2160036001604051806020016040528060008152506120be565b81600381518110610d4257634e487b7160e01b600052603260045260246000fd5b602002602001018190525060006040518060600160405280600063ffffffff168152602001846001600160a01b03168152602001627a120063ffffffff168152509050600060405180610120016040528060018054610da0906147c0565b80601f0160208091040260200160405190810160405280929190818152602001828054610dcc906147c0565b8015610e195780601f10610dee57610100808354040283529160200191610e19565b820191906000526020600020905b815481529060010190602001808311610dfc57829003601f168201915b5050505050815260200160028054610e30906147c0565b80601f0160208091040260200160405190810160405280929190818152602001828054610e5c906147c0565b8015610ea95780601f10610e7e57610100808354040283529160200191610ea9565b820191906000526020600020905b815481529060010190602001808311610e8c57829003601f168201915b50505050508152602001856001600160a01b0316815260200160038054610ecf906147c0565b80601f0160208091040260200160405190810160405280929190818152602001828054610efb906147c0565b8015610f485780601f10610f1d57610100808354040283529160200191610f48565b820191906000526020600020905b815481529060010190602001808311610f2b57829003601f168201915b505050918352505060016020820152600454600160401b8104600790810b900b6040830152600160a01b810460ff16151560608301526080820186905260a09091018490529091506000908190610fb89084906001600160401b03811690600160801b900463ffffffff166120f3565b909250905060168214610fca57600080fd5b6040516001600160a01b03821681527f7bb17726df1f3adee8aa00ba8e8bc5d6f182af3bbf77604639cb7f008dd3b4ed9060200160405180910390a1505050505050565b6000611018612b57565b6110228484612221565b60405182815291935091506000805160206148a08339815191529060200160405180910390a16016821461105557600080fd5b7fd010ef68d3ac3e07c14bed496400730a484fd17c48a4d373cbc4722a56540def816040516108c8919061461d565b600061072e83836122fb565b600061109d848484612327565b90506000805160206148a0833981519152816040516110be91815260200190565b60405180910390a1601681146110d357600080fd5b9392505050565b60008060006101676001600160a01b031663593d6e8260e01b8686604051602401610799929190614392565b60008061111283612407565b604051600783900b815291935091506000805160206148a08339815191529060200160405180910390a1600782900b60161461114d57600080fd5b604051600382900b81527f182137409609594f2b12128230091c673507ea4cab315d59415d5e3f8c301ad590602001610bea565b60008061118e84846124cb565b60405160079290920b808352935091506000805160206148a08339815191529060200160405180910390a1601682146111c657600080fd5b60405181151581527f59800d968fcce138300a0019410b4b75041610d65b3cdc5f31656b03ed14912e906020016108c8565b6000611206858585856124f8565b90506000805160206148a08339815191528160405161122791815260200190565b60405180910390a16016811461123c57600080fd5b949350505050565b6040516001600160a01b03821660248201526000908190819061016790631f106b4b60e21b90604401610acd565b60006109cf83836125e0565b600080606061128e86868661260c565b60405183815292955090935091506000805160206148a08339815191529060200160405180910390a1601683146112c457600080fd5b7feff23992f47b3c101679f8b4dc9d3e242c903909dba4a453f2b2341ad463b0e282826040516112f5929190614643565b60405180910390a193509350939050565b6000806113128361270a565b604051600783900b815291935091506000805160206148a08339815191529060200160405180910390a1600782900b60161461134d57600080fd5b60405181151581527f5080c42cc33acbcea410fa6eaa925bd878674825501981184fdd53749f8478a890602001610bea565b60008060006101676001600160a01b0316638f8d7f9960e01b868660405160240161079992919061431f565b60008060006101676001600160a01b031663af99c63360e01b868660405160240161079992919061431f565b60408051606081018252600080825260208201819052918101829052604051631ac299b760e31b81526001600160a01b0384166004820152309063d614cdb890602401608060405180830381600087803b15801561143457600080fd5b505af1158015611448573d6000803e3d6000fd5b505050506040513d601f19601f8201168201806040525081019061146c9190613a91565b60405182815291935091506000805160206148a08339815191529060200160405180910390a16016821461149f57600080fd5b7fa0a16bf9db2c17796faeca5af5aaeef8523f9d4c350c512cb00062ad89604f8881604051610bea91906145b1565b604080516060810182526000808252602080830182905282840182905283516001600160a01b038616602480830191909152855180830390910181526044909101855290810180516001600160e01b0316631ac299b760e31b1790529251909283918291610167916115409190614303565b6000604051808303816000865af19150503d806000811461157d576040519150601f19603f3d011682016040523d82523d6000602084013e611582565b606091505b50915091506115aa604080516060810182526000808252602082018190529181019190915290565b826115b7576015816115cb565b818060200190518101906115cb9190613b4d565b60039190910b97909650945050505050565b60408051600580825260c08201909252600091816020015b6115fd612b38565b8152602001906001900390816115f557905050905061163060006006600160405180602001604052806000815250612087565b8160008151811061165157634e487b7160e01b600052603260045260246000fd5b6020026020010181905250611677600180604051806020016040528060008152506120be565b8160018151811061169857634e487b7160e01b600052603260045260246000fd5b60200260200101819052506116bf60026001604051806020016040528060008152506120be565b816002815181106116e057634e487b7160e01b600052603260045260246000fd5b602002602001018190525061170760046001604051806020016040528060008152506120be565b8160038151811061172857634e487b7160e01b600052603260045260246000fd5b602002602001018190525061174f60036001604051806020016040528060008152506120be565b8160048151811061177057634e487b7160e01b600052603260045260246000fd5b602002602001018190525060006040518060600160405280600063ffffffff168152602001846001600160a01b03168152602001627a120063ffffffff1681525090506000604051806101200160405280600180546117ce906147c0565b80601f01602080910402602001604051908101604052809291908181526020018280546117fa906147c0565b80156118475780601f1061181c57610100808354040283529160200191611847565b820191906000526020600020905b81548152906001019060200180831161182a57829003601f168201915b505050505081526020016002805461185e906147c0565b80601f016020809104026020016040519081016040528092919081815260200182805461188a906147c0565b80156118d75780601f106118ac576101008083540402835291602001916118d7565b820191906000526020600020905b8154815290600101906020018083116118ba57829003601f168201915b50505050508152602001856001600160a01b03168152602001600380546118fd906147c0565b80601f0160208091040260200160405190810160405280929190818152602001828054611929906147c0565b80156119765780601f1061194b57610100808354040283529160200191611976565b820191906000526020600020905b81548152906001019060200180831161195957829003601f168201915b505050918352505060016020820152600454600160401b8104600790810b900b6040830152600160a01b900460ff16151560608201526080810185905260a0018390529050600080610fb88361273a565b600061109d848484612850565b604051632c9eb74160e11b8152600090309063593d6e8290610a309086908690600401614392565b6000806000806101676001600160a01b031663f2c31ff460e01b8787604051602401611a2992919061431f565b60408051601f198184030181529181526020820180516001600160e01b03166001600160e01b0319909416939093179092529051611a679190614303565b6000604051808303816000865af19150503d8060008114611aa4576040519150601f19603f3d011682016040523d82523d6000602084013e611aa9565b606091505b509150915081611abc57601560006115cb565b808060200190518101906115cb9190613af9565b6000611ada612b92565b611ae383612892565b60405182815291935091506000805160206148a08339815191529060200160405180910390a160168214611b1657600080fd5b7fbdb65f8c2a2e9a3a37ea49e903836883766a922e4ce9b21f684035e304962d4181604051610bea9190614630565b6000610a828383612962565b604051633b3bff0f60e01b81526001600160a01b03821660048201526000903090633b3bff0f90602401602060405180830381600087803b158015611b9557600080fd5b505af1158015611ba9573d6000803e3d6000fd5b505050506040513d601f19601f82011682018060405250810190611bcd9190613a79565b90506000805160206148a083398151915281604051611bee91815260200190565b60405180910390a160168114611c0357600080fd5b604051600181527f319ab7084208e4afa38c6e6ff7aea9587439f2e4700746f4c7d425fea17426d2906020016109b6565b6004805460ff60a01b1916600160a01b8315158102919091179182905560405160ff9190920416151581527f457c3a16a0ebdc38e3675609957ca3fcc4490e220bd15d85d34f58e2e145cb089060200160405180910390a150565b60408051600080825260208201909252819081611cd4565b6040805160608101825260008082526020808301829052928201528252600019909201910181611ca75790505b50905060006040518060400160405280336001600160a01b0316815260200185611cfd906147fb565b600790810b9091526040805180820182526001600160a01b038a1681529187900b602083015280516002808252606082019092529293509091600091816020015b6040805180820190915260008082526020820152815260200190600190039081611d3e5790505090508281600081518110611d8957634e487b7160e01b600052603260045260246000fd5b60200260200101819052508181600181518110611db657634e487b7160e01b600052603260045260246000fd5b602090810291909101810191909152604080516060810182526001600160a01b038a16815291820183905281810186905280516001808252818301909252600091816020015b611e29604051806060016040528060006001600160a01b0316815260200160608152602001606081525090565b815260200190600190039081611dfc5790505090508181600081518110611e6057634e487b7160e01b600052603260045260246000fd5b6020026020010181905250611e748161298e565b965060168714611e8357600080fd5b5050505050509392505050565b6000611e9a612af5565b604080516001600160a01b0386166024820152604480820186905282518083039091018152606490910182526020810180516001600160e01b0316631e26e99760e11b1790529051600091829161016791611ef491614303565b6000604051808303816000865af19150503d8060008114611f31576040519150601f19603f3d011682016040523d82523d6000602084013e611f36565b606091505b5091509150611f43612af5565b82611f5057601581611f64565b81806020019051810190611f649190613b77565b60039190910b9890975095505050505050565b60008060006101676001600160a01b03166352f9138760e01b868660405160240161079992919061431f565b6040516001600160a01b03821660248201526000908190819081906101679063a7daa18d60e01b906044015b60408051601f198184030181529181526020820180516001600160e01b03166001600160e01b031990941693909317909252905161200d9190614303565b6000604051808303816000865af19150503d806000811461204a576040519150601f19603f3d011682016040523d82523d6000602084013e61204f565b606091505b5091509150816120625760156000612076565b808060200190518101906120769190613af9565b60039190910b969095509350505050565b61208f612b38565b60405180604001604052806120a487876129b8565b81526020016120b385856129d1565b905295945050505050565b6120c6612b38565b60405180604001604052806120da86612a63565b81526020016120e985856129d1565b9052949350505050565b600080848061010001516000015163ffffffff16600014801561212357506101008101516040015163ffffffff16155b15612139576101008101516276a7006040909101525b6000806101676001600160a01b03163463c23baeb660e01b8a8a8a604051602401612166939291906145d2565b60408051601f198184030181529181526020820180516001600160e01b03166001600160e01b03199094169390931790925290516121a49190614303565b60006040518083038185875af1925050503d80600081146121e1576040519150601f19603f3d011682016040523d82523d6000602084013e6121e6565b606091505b5091509150816121f9576015600061220d565b8080602001905181019061220d9190613ace565b60039190910b999098509650505050505050565b600061222b612b57565b604080516001600160a01b0386166024820152600785900b60448083019190915282518083039091018152606490910182526020810180516001600160e01b031663050fc3b560e31b179052905160009182916101679161228b91614303565b6000604051808303816000865af19150503d80600081146122c8576040519150601f19603f3d011682016040523d82523d6000602084013e6122cd565b606091505b50915091506122da612b57565b826122e757601581611f64565b81806020019051810190611f649190613bb8565b60008060006101676001600160a01b0316636fc3cbaf60e01b868660405160240161079992919061436e565b60008060006101676001600160a01b031663f7f38e2660e01b87878760405160240161235593929190614339565b60408051601f198184030181529181526020820180516001600160e01b03166001600160e01b03199094169390931790925290516123939190614303565b6000604051808303816000865af19150503d80600081146123d0576040519150601f19603f3d011682016040523d82523d6000602084013e6123d5565b606091505b5091509150816123e65760156123fa565b808060200190518101906123fa9190613ab4565b60030b9695505050505050565b604080516001600160a01b03831660248083019190915282518083039091018152604490910182526020810180516001600160e01b03166393272baf60e01b17905290516000918291829182916101679161246191614303565b6000604051808303816000865af19150503d806000811461249e576040519150601f19603f3d011682016040523d82523d6000602084013e6124a3565b606091505b5091509150816124b7576015600019612076565b808060200190518101906120769190613b24565b6000806000806101676001600160a01b03166346de0fb160e01b8787604051602401611a2992919061431f565b604080516001600160a01b038681166024830152858116604483015284166064820152600783900b6084808301919091528251808303909101815260a490910182526020810180516001600160e01b0316635cfc901160e01b1790529051600091829182916101679161256b9190614303565b6000604051808303816000865af19150503d80600081146125a8576040519150601f19603f3d011682016040523d82523d6000602084013e6125ad565b606091505b5091509150816125be5760156125d2565b808060200190518101906125d29190613ab4565b60030b979650505050505050565b60008060006101676001600160a01b0316635b8f858460e01b868660405160240161079992919061431f565b60008060606000806101676001600160a01b031663278e0b8860e01b89898960405160240161263d939291906143d3565b60408051601f198184030181529181526020820180516001600160e01b03166001600160e01b031990941693909317909252905161267b9190614303565b6000604051808303816000865af19150503d80600081146126b8576040519150601f19603f3d011682016040523d82523d6000602084013e6126bd565b606091505b5091509150816126e05760408051600080825260208201909252601591906126f4565b808060200190518101906126f49190613cdb565b60039290920b9a90995090975095505050505050565b6040516001600160a01b0382166024820152600090819081908190610167906319f3736160e01b90604401611fcf565b600080828061010001516000015163ffffffff16600014801561276a57506101008101516040015163ffffffff16155b15612780576101008101516276a7006040909101525b6000806101676001600160a01b031634639c89bb3560e01b886040516024016127a991906145bf565b60408051601f198184030181529181526020820180516001600160e01b03166001600160e01b03199094169390931790925290516127e79190614303565b60006040518083038185875af1925050503d8060008114612824576040519150601f19603f3d011682016040523d82523d6000602084013e612829565b606091505b50915091508161283c57601560006115cb565b808060200190518101906115cb9190613ace565b6040516001600160a01b0384811660248301528316604482015263ffffffff821660648201526000908190819061016790639790686d60e01b90608401612355565b600061289c612b92565b604080516001600160a01b03851660248083019190915282518083039091018152604490910182526020810180516001600160e01b0316631f69565f60e01b17905290516000918291610167916128f291614303565b6000604051808303816000865af19150503d806000811461292f576040519150601f19603f3d011682016040523d82523d6000602084013e612934565b606091505b5091509150612941612b92565b8261294e576015816115cb565b818060200190518101906115cb9190613c9a565b60008060006101676001600160a01b03166349146bde60e01b868660405160240161079992919061431f565b60008060006101676001600160a01b031663189a554c60e01b85604051602401610acd9190614454565b6000600160ff84161b9050600160ff83161b81176110d3565b6129d9612af5565b8260ff16600114156129ee5760018152610767565b8260ff1660021415612a10576000546001600160a01b03166020820152610767565b8260ff1660031415612a285760408101829052610767565b8260ff1660041415612a405760608101829052610767565b8260ff1660051415610767576000546001600160a01b0316608082015292915050565b600060ff8216612a7557506001919050565b8160ff1660011415612a8957506002919050565b8160ff1660021415612a9d57506004919050565b8160ff1660031415612ab157506008919050565b8160ff1660041415612ac557506010919050565b8160ff1660051415612ad957506020919050565b8160ff1660061415612aed57506040919050565b506000919050565b6040518060a0016040528060001515815260200160006001600160a01b03168152602001606081526020016060815260200160006001600160a01b031681525090565b604051806040016040528060008152602001612b52612af5565b905290565b6040518060c00160405280612b6a612b92565b8152600060208201819052604082018190526060808301829052608083015260a09091015290565b604051806101200160405280612ba6612bf3565b815260200160006001600160401b03168152602001600015158152602001600015158152602001600015158152602001606081526020016060815260200160608152602001606081525090565b604051806101200160405280606081526020016060815260200160006001600160a01b0316815260200160608152602001600015158152602001600060070b815260200160001515815260200160608152602001612b52604080516060810182526000808252602082018190529181019190915290565b8035612c7581614843565b919050565b8051612c7581614843565b600082601f830112612c95578081fd5b81516020612caa612ca583614746565b614716565b8281528181019085830160a080860288018501891015612cc8578687fd5b865b86811015612d515781838b031215612ce0578788fd5b612ce8614665565b8351612cf381614878565b815283870151612d0281614843565b81880152604084810151612d158161485b565b90820152606084810151612d288161485b565b90820152608084810151612d3b81614843565b9082015285529385019391810191600101612cca565b509198975050505050505050565b600082601f830112612d6f578081fd5b81516020612d7f612ca583614746565b8281528181019085830160c080860288018501891015612d9d578687fd5b865b86811015612d515781838b031215612db5578788fd5b612dbd61468d565b8351612dc881614878565b815283870151612dd781614878565b81880152604084810151612dea81614878565b90820152606084810151612dfd81614878565b90820152608084810151612e108161485b565b9082015260a084810151612e2381614843565b9082015285529385019391810191600101612d9f565b600082601f830112612e49578081fd5b81516020612e59612ca583614746565b8281528181019085830160c080860288018501891015612e77578687fd5b865b86811015612d515781838b031215612e8f578788fd5b612e9761468d565b8351612ea281614878565b815283870151612eb181614878565b81880152604084810151612ec481614878565b90820152606084810151612ed781614843565b90820152608084810151612eea8161485b565b9082015260a084810151612efd81614843565b9082015285529385019391810191600101612e79565b600082601f830112612f23578081fd5b81356020612f33612ca583614746565b80838252828201915082860187848660051b8901011115612f52578586fd5b855b8581101561305e5781356001600160401b0380821115612f72578889fd5b90890190601f196040838d0382011215612f8a57898afd5b612f926146af565b888401358152604084013583811115612fa9578b8cfd5b939093019260a0848e0383011215612fbf578a8bfd5b612fc7614665565b915088840135612fd68161485b565b8252612fe460408501612c6a565b89830152606084013583811115612ff9578b8cfd5b6130078e8b8388010161313e565b60408401525060808401358381111561301e578b8cfd5b61302c8e8b8388010161313e565b60608401525061303e60a08501612c6a565b608083015280890191909152865250509284019290840190600101612f54565b5090979650505050505050565b600082601f83011261307b578081fd5b8151602061308b612ca583614746565b80838252828201915082860187848660051b89010111156130aa578586fd5b855b8581101561305e5781516001600160401b03808211156130ca578889fd5b908901906040828c03601f19018113156130e257898afd5b6130ea6146af565b838901518152908301519082821115613101578a8bfd5b61310f8d8a848701016133a1565b818a0152875250505092840192908401906001016130ac565b8035612c758161485b565b8051612c758161485b565b600082601f83011261314e578081fd5b813561315c612ca582614769565b818152846020838601011115613170578283fd5b816020850160208301379081016020019190915292915050565b600082601f83011261319a578081fd5b81516131a8612ca582614769565b8181528460208386010111156131bc578283fd5b61123c826020830160208701614790565b8051600381900b8114612c7557600080fd5b8035612c7581614869565b8051612c7581614869565b600060608284031215613206578081fd5b61320e6146d1565b9050813561321b81614878565b8152602082013561322b81614843565b6020820152604082013561323e81614878565b604082015292915050565b60006060828403121561325a578081fd5b6132626146d1565b9050815161326f81614878565b8152602082015161327f81614843565b6020820152604082015161323e81614878565b600061016082840312156132a4578081fd5b6132ac6146f3565b905081516001600160401b03808211156132c557600080fd5b6132d18583860161318a565b835260208401519150808211156132e757600080fd5b6132f38583860161318a565b602084015261330460408501612c7a565b6040840152606084015191508082111561331d57600080fd5b6133298583860161318a565b606084015261333a60808501613133565b608084015261334b60a085016131ea565b60a084015261335c60c08501613133565b60c084015260e084015191508082111561337557600080fd5b506133828482850161306b565b60e08301525061010061339784828501613249565b9082015292915050565b600060a082840312156133b2578081fd5b6133ba614665565b905081516133c78161485b565b815260208201516133d781614843565b602082015260408201516001600160401b03808211156133f657600080fd5b6134028583860161318a565b6040840152606084015191508082111561341b57600080fd5b506134288482850161318a565b60608301525061343a60808301612c7a565b608082015292915050565b60006101208284031215613457578081fd5b61345f6146f3565b905081516001600160401b038082111561347857600080fd5b61348485838601613292565b835261349260208501613568565b60208401526134a360408501613133565b60408401526134b460608501613133565b60608401526134c560808501613133565b608084015260a08401519150808211156134de57600080fd5b6134ea85838601612c85565b60a084015260c084015191508082111561350357600080fd5b61350f85838601612d5f565b60c084015260e084015191508082111561352857600080fd5b61353485838601612e39565b60e08401526101009150818401518181111561354f57600080fd5b61355b8682870161318a565b8385015250505092915050565b8051612c758161488a565b600060208284031215613584578081fd5b81356110d381614843565b600080604083850312156135a1578081fd5b82356135ac81614843565b915060208301356135bc81614843565b809150509250929050565b600080600080608085870312156135dc578182fd5b84356135e781614843565b935060208501356135f781614843565b9250604085013561360781614843565b9150606085013561361781614869565b939692955090935050565b600080600060608486031215613636578081fd5b833561364181614843565b925060208481013561365281614843565b925060408501356001600160401b0381111561366c578283fd5b8501601f8101871361367c578283fd5b803561368a612ca582614746565b8082825284820191508484018a868560051b87010111156136a9578687fd5b8694505b838510156136d45780356136c081614869565b8352600194909401939185019185016136ad565b5080955050505050509250925092565b6000806000606084860312156136f8578081fd5b833561370381614843565b9250602084013561371381614843565b9150604084013561372381614869565b809150509250925092565b600080600060608486031215613742578081fd5b833561374d81614843565b9250602084013561375d81614843565b9150604084013561372381614878565b6000806040838503121561377f578182fd5b823561378a81614843565b915060208301356001600160401b038111156137a4578182fd5b6137b085828601612f13565b9150509250929050565b600080604083850312156137cc578182fd5b82356137d781614843565b915060208301356135bc81614869565b600080608083850312156137f9578182fd5b823561380481614843565b915061381384602085016131f5565b90509250929050565b6000806040838503121561382e578182fd5b823561383981614843565b915060208301356001600160401b0380821115613854578283fd5b908401906101608287031215613868578283fd5b6138706146f3565b82358281111561387e578485fd5b61388a8882860161313e565b82525060208301358281111561389e578485fd5b6138aa8882860161313e565b6020830152506138bc60408401612c6a565b60408201526060830135828111156138d2578485fd5b6138de8882860161313e565b6060830152506138f060808401613128565b608082015261390160a084016131df565b60a082015261391260c08401613128565b60c082015260e083013582811115613928578485fd5b61393488828601612f13565b60e083015250610100915061394b878385016131f5565b828201528093505050509250929050565b6000806040838503121561396e578182fd5b823561397981614843565b946020939093013593505050565b60008060006060848603121561399b578081fd5b83356139a681614843565b92506020848101356139b78161488a565b925060408501356001600160401b03808211156139d2578384fd5b818701915087601f8301126139e5578384fd5b81356139f3612ca582614746565b8082825285820191508585018b878560051b8801011115613a12578788fd5b875b84811015613a4b57813586811115613a2a57898afd5b613a388e8a838b010161313e565b8552509287019290870190600101613a14565b50508096505050505050509250925092565b600060208284031215613a6e578081fd5b81356110d38161485b565b600060208284031215613a8a578081fd5b5051919050565b60008060808385031215613aa3578182fd5b825191506138138460208501613249565b600060208284031215613ac5578081fd5b6110d3826131cd565b60008060408385031215613ae0578182fd5b613ae9836131cd565b915060208301516135bc81614843565b60008060408385031215613b0b578182fd5b613b14836131cd565b915060208301516135bc8161485b565b60008060408385031215613b36578182fd5b613b3f836131cd565b9150613813602084016131cd565b60008060808385031215613b5f578182fd5b613b68836131cd565b91506138138460208501613249565b60008060408385031215613b89578182fd5b613b92836131cd565b915060208301516001600160401b03811115613bac578182fd5b6137b0858286016133a1565b60008060408385031215613bca578182fd5b613bd3836131cd565b915060208301516001600160401b0380821115613bee578283fd5b9084019060c08287031215613c01578283fd5b613c0961468d565b825182811115613c17578485fd5b613c2388828601613445565b825250613c32602084016131ea565b6020820152613c4360408401612c7a565b6040820152613c54606084016131ea565b6060820152608083015182811115613c6a578485fd5b613c768882860161318a565b608083015250613c8860a08401612c7a565b60a08201528093505050509250929050565b60008060408385031215613cac578182fd5b613cb5836131cd565b915060208301516001600160401b03811115613ccf578182fd5b6137b085828601613445565b600080600060608486031215613cef578081fd5b613cf8846131cd565b9250602080850151613d098161488a565b60408601519093506001600160401b03811115613d24578283fd5b8501601f81018713613d34578283fd5b8051613d42612ca582614746565b8082825284820191508484018a868560051b8701011115613d61578687fd5b8694505b838510156136d4578051613d7881614869565b835260019490940193918501918501613d65565b600060208284031215613d9d578081fd5b81516110d381614869565b6000815180845260208085019450808401835b83811015613dda57815160070b87529582019590820190600101613dbb565b509495945050505050565b6000815180845260208085019450808401835b83811015613dda578151805163ffffffff168852838101516001600160a01b03908116858a01526040808301511515908a01526060808301511515908a0152608091820151169088015260a09096019590820190600101613df8565b6000815180845260208085019450808401835b83811015613dda578151805163ffffffff9081168952848201518116858a01526040808301518216908a01526060808301519091169089015260808082015115159089015260a0908101516001600160a01b03169088015260c09096019590820190600101613e67565b6000815180845260208085019450808401835b83811015613dda57815180516001600160a01b03908116895284820151168489015260409081015160070b9088015260609096019590820190600101613ee4565b6000815180845260208085019450808401835b83811015613dda578151805163ffffffff9081168952848201518116858a0152604080830151909116908901526060808201516001600160a01b03908116918a01919091526080808301511515908a015260a091820151169088015260c09096019590820190600101613f38565b600081518084526020808501808196508360051b81019150828601855b858110156140015782840389528151805185528501516040868601819052613fed81870183614141565b9a87019a9550505090840190600101613fc3565b5091979650505050505050565b60008151808452614026816020860160208601614790565b601f01601f19169290920160200192915050565b805163ffffffff90811683526020808301516001600160a01b03169084015260409182015116910152565b6000610160825181855261407b8286018261400e565b91505060208301518482036020860152614095828261400e565b91505060408301516140b260408601826001600160a01b03169052565b50606083015184820360608601526140ca828261400e565b91505060808301516140e0608086018215159052565b5060a08301516140f560a086018260070b9052565b5060c083015161410960c086018215159052565b5060e083015184820360e08601526141218282613fa6565b915050610100808401516141378287018261403a565b5090949350505050565b8051151582526000602082015160018060a01b0380821660208601526040840151915060a0604086015261417860a086018361400e565b915060608401518583036060870152614191838261400e565b925050806080850151166080860152508091505092915050565b6000815160c084526141c060c0850182614223565b9050602083015160070b6020850152604083015160018060a01b038082166040870152606085015160070b6060870152608085015191508583036080870152614209838361400e565b92508060a08601511660a087015250508091505092915050565b6000610120825181855261423982860182614065565b915050602083015161425660208601826001600160401b03169052565b50604083015161426a604086018215159052565b50606083015161427e606086018215159052565b506080830151614292608086018215159052565b5060a083015184820360a08601526142aa8282613de5565b91505060c083015184820360c08601526142c48282613e54565b91505060e083015184820360e08601526142de8282613f25565b91505061010080840151858303828701526142f9838261400e565b9695505050505050565b60008251614315818460208701614790565b9190910192915050565b6001600160a01b0392831681529116602082015260400190565b6001600160a01b0384811682528316602082015260606040820181905260009061436590830184613da8565b95945050505050565b6001600160a01b038316815260406020820181905260009061123c90830184613fa6565b6001600160a01b0383168152608081016110d3602083018461403a565b6001600160a01b038316815260406020820181905260009061123c90830184614065565b60006060820160018060a01b038616835260206001600160401b038616818501526060604085015281855180845260808601915060808160051b8701019350828701855b8281101561444557607f1988870301845261443386835161400e565b95509284019290840190600101614417565b50939998505050505050505050565b60006020808301818452808551808352604092508286019150828160051b870101848801865b8381101561451957888303603f19018552815180516001600160a01b0390811685528882015160608a870181905281519087018190526080870192918b0191908c905b808210156144eb5783518051841686528d015160070b8d860152938b0193928c0192600191909101906144bd565b505050509087015184820385890152906145058183613ed1565b96890196945050509086019060010161447a565b509098975050505050505050565b828152608081016110d3602083018461403a565b82815260406020820152600061123c60408301846141ab565b82815260406020820152600061123c6040830184614223565b8381526001600160401b03831660208201526060604082015260006143656060830184613da8565b8260070b815260406020820152600061123c6040830184614141565b60608101610767828461403a565b6020815260006110d36020830184614065565b6060815260006145e56060830186614065565b90506001600160401b038416602083015263ffffffff83166040830152949350505050565b6020815260006110d36020830184614141565b6020815260006110d360208301846141ab565b6020815260006110d36020830184614223565b6001600160401b038316815260406020820152600061123c6040830184613da8565b60405160a081016001600160401b03811182821017156146875761468761482d565b60405290565b60405160c081016001600160401b03811182821017156146875761468761482d565b604080519081016001600160401b03811182821017156146875761468761482d565b604051606081016001600160401b03811182821017156146875761468761482d565b60405161012081016001600160401b03811182821017156146875761468761482d565b604051601f8201601f191681016001600160401b038111828210171561473e5761473e61482d565b604052919050565b60006001600160401b0382111561475f5761475f61482d565b5060051b60200190565b60006001600160401b038211156147825761478261482d565b50601f01601f191660200190565b60005b838110156147ab578181015183820152602001614793565b838111156147ba576000848401525b50505050565b600181811c908216806147d457607f821691505b602082108114156147f557634e487b7160e01b600052602260045260246000fd5b50919050565b60008160070b677fffffffffffffff1981141561482657634e487b7160e01b82526011600452602482fd5b9003919050565b634e487b7160e01b600052604160045260246000fd5b6001600160a01b038116811461485857600080fd5b50565b801515811461485857600080fd5b8060070b811461485857600080fd5b63ffffffff8116811461485857600080fd5b6001600160401b038116811461485857600080fdfe90a5cf4cffe88b4edbb041cfc7a8a812c48a5ec30b84640fb37690875168e3aaa26469706673582212208423a3e3b4b8351726f7c03391198c00591cfdd78f59e54249b1a09a21f56f4764736f6c63430008040033",
  "linkReferences": {},
  "deployedLinkReferences": {}
}