{
  "_format": "hh-sol-artifact-1",
  "contractName": "TokenManagementContract",
  "sourceName": "contracts/TokenManagementContract.sol",
  "abi": [
    {
      "anonymous": false,
      "inputs": [
        {
          "indexed": false,
          "internalType": "address",
          "name": "tokenAddress",
          "type": "address"
        }
      ],
      "name": "CreatedToken",
      "type": "event"
    },
    {
      "anonymous": false,
      "inputs": [
        {
          "indexed": false,
          "internalType": "bool",
          "name": "freezeStatus",
          "type": "bool"
        }
      ],
      "name": "DefaultFreezeStatusChanged",
      "type": "event"
    },
    {
      "anonymous": false,
      "inputs": [
        {
          "indexed": false,
          "internalType": "bool",
          "name": "frozen",
          "type": "bool"
        }
      ],
      "name": "Frozen",
      "type": "event"
    },
    {
      "anonymous": false,
      "inputs": [
        {
          "indexed": false,
          "internalType": "bool",
          "name": "isToken",
          "type": "bool"
        }
      ],
      "name": "IsToken",
      "type": "event"
    },
    {
      "anonymous": false,
      "inputs": [
        {
          "indexed": false,
          "internalType": "uint64",
          "name": "newTotalSupply",
          "type": "uint64"
        },
        {
          "indexed": false,
          "internalType": "int64[]",
          "name": "serialNumbers",
          "type": "int64[]"
        }
      ],
      "name": "MintedToken",
      "type": "event"
    },
    {
      "anonymous": false,
      "inputs": [
        {
          "components": [
            {
              "components": [
                {
                  "components": [
                    {
                      "internalType": "string",
                      "name": "name",
                      "type": "string"
                    },
                    {
                      "internalType": "string",
                      "name": "symbol",
                      "type": "string"
                    },
                    {
                      "internalType": "address",
                      "name": "treasury",
                      "type": "address"
                    },
                    {
                      "internalType": "string",
                      "name": "memo",
                      "type": "string"
                    },
                    {
                      "internalType": "bool",
                      "name": "tokenSupplyType",
                      "type": "bool"
                    },
                    {
                      "internalType": "int64",
                      "name": "maxSupply",
                      "type": "int64"
                    },
                    {
                      "internalType": "bool",
                      "name": "freezeDefault",
                      "type": "bool"
                    },
                    {
                      "components": [
                        {
                          "internalType": "uint256",
                          "name": "keyType",
                          "type": "uint256"
                        },
                        {
                          "components": [
                            {
                              "internalType": "bool",
                              "name": "inheritAccountKey",
                              "type": "bool"
                            },
                            {
                              "internalType": "address",
                              "name": "contractId",
                              "type": "address"
                            },
                            {
                              "internalType": "bytes",
                              "name": "ed25519",
                              "type": "bytes"
                            },
                            {
                              "internalType": "bytes",
                              "name": "ECDSA_secp256k1",
                              "type": "bytes"
                            },
                            {
                              "internalType": "address",
                              "name": "delegatableContractId",
                              "type": "address"
                            }
                          ],
                          "internalType": "struct IHederaTokenService.KeyValue",
                          "name": "key",
                          "type": "tuple"
                        }
                      ],
                      "internalType": "struct IHederaTokenService.TokenKey[]",
                      "name": "tokenKeys",
                      "type": "tuple[]"
                    },
                    {
                      "components": [
                        {
                          "internalType": "uint32",
                          "name": "second",
                          "type": "uint32"
                        },
                        {
                          "internalType": "address",
                          "name": "autoRenewAccount",
                          "type": "address"
                        },
                        {
                          "internalType": "uint32",
                          "name": "autoRenewPeriod",
                          "type": "uint32"
                        }
                      ],
                      "internalType": "struct IHederaTokenService.Expiry",
                      "name": "expiry",
                      "type": "tuple"
                    }
                  ],
                  "internalType": "struct IHederaTokenService.HederaToken",
                  "name": "token",
                  "type": "tuple"
                },
                {
                  "internalType": "uint64",
                  "name": "totalSupply",
                  "type": "uint64"
                },
                {
                  "internalType": "bool",
                  "name": "deleted",
                  "type": "bool"
                },
                {
                  "internalType": "bool",
                  "name": "defaultKycStatus",
                  "type": "bool"
                },
                {
                  "internalType": "bool",
                  "name": "pauseStatus",
                  "type": "bool"
                },
                {
                  "components": [
                    {
                      "internalType": "uint32",
                      "name": "amount",
                      "type": "uint32"
                    },
                    {
                      "internalType": "address",
                      "name": "tokenId",
                      "type": "address"
                    },
                    {
                      "internalType": "bool",
                      "name": "useHbarsForPayment",
                      "type": "bool"
                    },
                    {
                      "internalType": "bool",
                      "name": "useCurrentTokenForPayment",
                      "type": "bool"
                    },
                    {
                      "internalType": "address",
                      "name": "feeCollector",
                      "type": "address"
                    }
                  ],
                  "internalType": "struct IHederaTokenService.FixedFee[]",
                  "name": "fixedFees",
                  "type": "tuple[]"
                },
                {
                  "components": [
                    {
                      "internalType": "uint32",
                      "name": "numerator",
                      "type": "uint32"
                    },
                    {
                      "internalType": "uint32",
                      "name": "denominator",
                      "type": "uint32"
                    },
                    {
                      "internalType": "uint32",
                      "name": "minimumAmount",
                      "type": "uint32"
                    },
                    {
                      "internalType": "uint32",
                      "name": "maximumAmount",
                      "type": "uint32"
                    },
                    {
                      "internalType": "bool",
                      "name": "netOfTransfers",
                      "type": "bool"
                    },
                    {
                      "internalType": "address",
                      "name": "feeCollector",
                      "type": "address"
                    }
                  ],
                  "internalType": "struct IHederaTokenService.FractionalFee[]",
                  "name": "fractionalFees",
                  "type": "tuple[]"
                },
                {
                  "components": [
                    {
                      "internalType": "uint32",
                      "name": "numerator",
                      "type": "uint32"
                    },
                    {
                      "internalType": "uint32",
                      "name": "denominator",
                      "type": "uint32"
                    },
                    {
                      "internalType": "uint32",
                      "name": "amount",
                      "type": "uint32"
                    },
                    {
                      "internalType": "address",
                      "name": "tokenId",
                      "type": "address"
                    },
                    {
                      "internalType": "bool",
                      "name": "useHbarsForPayment",
                      "type": "bool"
                    },
                    {
                      "internalType": "address",
                      "name": "feeCollector",
                      "type": "address"
                    }
                  ],
                  "internalType": "struct IHederaTokenService.RoyaltyFee[]",
                  "name": "royaltyFees",
                  "type": "tuple[]"
                },
                {
                  "internalType": "string",
                  "name": "ledgerId",
                  "type": "string"
                }
              ],
              "internalType": "struct IHederaTokenService.TokenInfo",
              "name": "tokenInfo",
              "type": "tuple"
            },
            {
              "internalType": "int64",
              "name": "serialNumber",
              "type": "int64"
            },
            {
              "internalType": "address",
              "name": "ownerId",
              "type": "address"
            },
            {
              "internalType": "int64",
              "name": "creationTime",
              "type": "int64"
            },
            {
              "internalType": "bytes",
              "name": "metadata",
              "type": "bytes"
            },
            {
              "internalType": "address",
              "name": "spenderId",
              "type": "address"
            }
          ],
          "indexed": false,
          "internalType": "struct IHederaTokenService.NonFungibleTokenInfo",
          "name": "tokenInfo",
          "type": "tuple"
        }
      ],
      "name": "NonFungibleTokenInfo",
      "type": "event"
    },
    {
      "anonymous": false,
      "inputs": [
        {
          "indexed": false,
          "internalType": "bool",
          "name": "paused",
          "type": "bool"
        }
      ],
      "name": "PausedToken",
      "type": "event"
    },
    {
      "anonymous": false,
      "inputs": [
        {
          "indexed": false,
          "internalType": "int256",
          "name": "responseCode",
          "type": "int256"
        }
      ],
      "name": "ResponseCode",
      "type": "event"
    },
    {
      "anonymous": false,
      "inputs": [
        {
          "indexed": false,
          "internalType": "bool",
          "name": "defaultFreezeStatus",
          "type": "bool"
        }
      ],
      "name": "TokenDefaultFreezeStatus",
      "type": "event"
    },
    {
      "anonymous": false,
      "inputs": [
        {
          "components": [
            {
              "internalType": "uint32",
              "name": "second",
              "type": "uint32"
            },
            {
              "internalType": "address",
              "name": "autoRenewAccount",
              "type": "address"
            },
            {
              "internalType": "uint32",
              "name": "autoRenewPeriod",
              "type": "uint32"
            }
          ],
          "indexed": false,
          "internalType": "struct IHederaTokenService.Expiry",
          "name": "expiryInfo",
          "type": "tuple"
        }
      ],
      "name": "TokenExpiryInfo",
      "type": "event"
    },
    {
      "anonymous": false,
      "inputs": [
        {
          "components": [
            {
              "components": [
                {
                  "internalType": "string",
                  "name": "name",
                  "type": "string"
                },
                {
                  "internalType": "string",
                  "name": "symbol",
                  "type": "string"
                },
                {
                  "internalType": "address",
                  "name": "treasury",
                  "type": "address"
                },
                {
                  "internalType": "string",
                  "name": "memo",
                  "type": "string"
                },
                {
                  "internalType": "bool",
                  "name": "tokenSupplyType",
                  "type": "bool"
                },
                {
                  "internalType": "int64",
                  "name": "maxSupply",
                  "type": "int64"
                },
                {
                  "internalType": "bool",
                  "name": "freezeDefault",
                  "type": "bool"
                },
                {
                  "components": [
                    {
                      "internalType": "uint256",
                      "name": "keyType",
                      "type": "uint256"
                    },
                    {
                      "components": [
                        {
                          "internalType": "bool",
                          "name": "inheritAccountKey",
                          "type": "bool"
                        },
                        {
                          "internalType": "address",
                          "name": "contractId",
                          "type": "address"
                        },
                        {
                          "internalType": "bytes",
                          "name": "ed25519",
                          "type": "bytes"
                        },
                        {
                          "internalType": "bytes",
                          "name": "ECDSA_secp256k1",
                          "type": "bytes"
                        },
                        {
                          "internalType": "address",
                          "name": "delegatableContractId",
                          "type": "address"
                        }
                      ],
                      "internalType": "struct IHederaTokenService.KeyValue",
                      "name": "key",
                      "type": "tuple"
                    }
                  ],
                  "internalType": "struct IHederaTokenService.TokenKey[]",
                  "name": "tokenKeys",
                  "type": "tuple[]"
                },
                {
                  "components": [
                    {
                      "internalType": "uint32",
                      "name": "second",
                      "type": "uint32"
                    },
                    {
                      "internalType": "address",
                      "name": "autoRenewAccount",
                      "type": "address"
                    },
                    {
                      "internalType": "uint32",
                      "name": "autoRenewPeriod",
                      "type": "uint32"
                    }
                  ],
                  "internalType": "struct IHederaTokenService.Expiry",
                  "name": "expiry",
                  "type": "tuple"
                }
              ],
              "internalType": "struct IHederaTokenService.HederaToken",
              "name": "token",
              "type": "tuple"
            },
            {
              "internalType": "uint64",
              "name": "totalSupply",
              "type": "uint64"
            },
            {
              "internalType": "bool",
              "name": "deleted",
              "type": "bool"
            },
            {
              "internalType": "bool",
              "name": "defaultKycStatus",
              "type": "bool"
            },
            {
              "internalType": "bool",
              "name": "pauseStatus",
              "type": "bool"
            },
            {
              "components": [
                {
                  "internalType": "uint32",
                  "name": "amount",
                  "type": "uint32"
                },
                {
                  "internalType": "address",
                  "name": "tokenId",
                  "type": "address"
                },
                {
                  "internalType": "bool",
                  "name": "useHbarsForPayment",
                  "type": "bool"
                },
                {
                  "internalType": "bool",
                  "name": "useCurrentTokenForPayment",
                  "type": "bool"
                },
                {
                  "internalType": "address",
                  "name": "feeCollector",
                  "type": "address"
                }
              ],
              "internalType": "struct IHederaTokenService.FixedFee[]",
              "name": "fixedFees",
              "type": "tuple[]"
            },
            {
              "components": [
                {
                  "internalType": "uint32",
                  "name": "numerator",
                  "type": "uint32"
                },
                {
                  "internalType": "uint32",
                  "name": "denominator",
                  "type": "uint32"
                },
                {
                  "internalType": "uint32",
                  "name": "minimumAmount",
                  "type": "uint32"
                },
                {
                  "internalType": "uint32",
                  "name": "maximumAmount",
                  "type": "uint32"
                },
                {
                  "internalType": "bool",
                  "name": "netOfTransfers",
                  "type": "bool"
                },
                {
                  "internalType": "address",
                  "name": "feeCollector",
                  "type": "address"
                }
              ],
              "internalType": "struct IHederaTokenService.FractionalFee[]",
              "name": "fractionalFees",
              "type": "tuple[]"
            },
            {
              "components": [
                {
                  "internalType": "uint32",
                  "name": "numerator",
                  "type": "uint32"
                },
                {
                  "internalType": "uint32",
                  "name": "denominator",
                  "type": "uint32"
                },
                {
                  "internalType": "uint32",
                  "name": "amount",
                  "type": "uint32"
                },
                {
                  "internalType": "address",
                  "name": "tokenId",
                  "type": "address"
                },
                {
                  "internalType": "bool",
                  "name": "useHbarsForPayment",
                  "type": "bool"
                },
                {
                  "internalType": "address",
                  "name": "feeCollector",
                  "type": "address"
                }
              ],
              "internalType": "struct IHederaTokenService.RoyaltyFee[]",
              "name": "royaltyFees",
              "type": "tuple[]"
            },
            {
              "internalType": "string",
              "name": "ledgerId",
              "type": "string"
            }
          ],
          "indexed": false,
          "internalType": "struct IHederaTokenService.TokenInfo",
          "name": "tokenInfo",
          "type": "tuple"
        }
      ],
      "name": "TokenInfo",
      "type": "event"
    },
    {
      "anonymous": false,
      "inputs": [
        {
          "components": [
            {
              "internalType": "bool",
              "name": "inheritAccountKey",
              "type": "bool"
            },
            {
              "internalType": "address",
              "name": "contractId",
              "type": "address"
            },
            {
              "internalType": "bytes",
              "name": "ed25519",
              "type": "bytes"
            },
            {
              "internalType": "bytes",
              "name": "ECDSA_secp256k1",
              "type": "bytes"
            },
            {
              "internalType": "address",
              "name": "delegatableContractId",
              "type": "address"
            }
          ],
          "indexed": false,
          "internalType": "struct IHederaTokenService.KeyValue",
          "name": "key",
          "type": "tuple"
        }
      ],
      "name": "TokenKey",
      "type": "event"
    },
    {
      "anonymous": false,
      "inputs": [
        {
          "indexed": false,
          "internalType": "int32",
          "name": "tokenType",
          "type": "int32"
        }
      ],
      "name": "TokenType",
      "type": "event"
    },
    {
      "anonymous": false,
      "inputs": [
        {
          "indexed": false,
          "internalType": "bool",
          "name": "unpaused",
          "type": "bool"
        }
      ],
      "name": "UnpausedToken",
      "type": "event"
    },
    {
      "inputs": [
        {
          "internalType": "address",
          "name": "account",
          "type": "address"
        },
        {
          "internalType": "address",
          "name": "token",
          "type": "address"
        }
      ],
      "name": "associateTokenPublic",
      "outputs": [
        {
          "internalType": "int256",
          "name": "responseCode",
          "type": "int256"
        }
      ],
      "stateMutability": "nonpayable",
      "type": "function"
    },
    {
      "inputs": [
        {
          "internalType": "address",
          "name": "treasury",
          "type": "address"
        }
      ],
      "name": "createFungibleTokenPublic",
      "outputs": [],
      "stateMutability": "payable",
      "type": "function"
    },
    {
      "inputs": [
        {
          "internalType": "address",
          "name": "treasury",
          "type": "address"
        }
      ],
      "name": "createNonFungibleTokenPublic",
      "outputs": [],
      "stateMutability": "payable",
      "type": "function"
    },
    {
      "inputs": [
        {
          "internalType": "address",
          "name": "account",
          "type": "address"
        },
        {
          "internalType": "address",
          "name": "token",
          "type": "address"
        },
        {
          "internalType": "int64",
          "name": "amount",
          "type": "int64"
        }
      ],
      "name": "cryptoTransferTokenPublic",
      "outputs": [
        {
          "internalType": "int256",
          "name": "responseCode",
          "type": "int256"
        }
      ],
      "stateMutability": "nonpayable",
      "type": "function"
    },
    {
      "inputs": [
        {
          "internalType": "address",
          "name": "token",
          "type": "address"
        },
        {
          "internalType": "address",
          "name": "account",
          "type": "address"
        }
      ],
      "name": "freezeTokenPublic",
      "outputs": [
        {
          "internalType": "int256",
          "name": "responseCode",
          "type": "int256"
        }
      ],
      "stateMutability": "nonpayable",
      "type": "function"
    },
    {
      "inputs": [
        {
          "internalType": "address",
          "name": "token",
          "type": "address"
        },
        {
          "internalType": "int64",
          "name": "serialNumber",
          "type": "int64"
        }
      ],
      "name": "getNonFungibleTokenInfoPublic",
      "outputs": [
        {
          "internalType": "int256",
          "name": "responseCode",
          "type": "int256"
        },
        {
          "components": [
            {
              "components": [
                {
                  "components": [
                    {
                      "internalType": "string",
                      "name": "name",
                      "type": "string"
                    },
                    {
                      "internalType": "string",
                      "name": "symbol",
                      "type": "string"
                    },
                    {
                      "internalType": "address",
                      "name": "treasury",
                      "type": "address"
                    },
                    {
                      "internalType": "string",
                      "name": "memo",
                      "type": "string"
                    },
                    {
                      "internalType": "bool",
                      "name": "tokenSupplyType",
                      "type": "bool"
                    },
                    {
                      "internalType": "int64",
                      "name": "maxSupply",
                      "type": "int64"
                    },
                    {
                      "internalType": "bool",
                      "name": "freezeDefault",
                      "type": "bool"
                    },
                    {
                      "components": [
                        {
                          "internalType": "uint256",
                          "name": "keyType",
                          "type": "uint256"
                        },
                        {
                          "components": [
                            {
                              "internalType": "bool",
                              "name": "inheritAccountKey",
                              "type": "bool"
                            },
                            {
                              "internalType": "address",
                              "name": "contractId",
                              "type": "address"
                            },
                            {
                              "internalType": "bytes",
                              "name": "ed25519",
                              "type": "bytes"
                            },
                            {
                              "internalType": "bytes",
                              "name": "ECDSA_secp256k1",
                              "type": "bytes"
                            },
                            {
                              "internalType": "address",
                              "name": "delegatableContractId",
                              "type": "address"
                            }
                          ],
                          "internalType": "struct IHederaTokenService.KeyValue",
                          "name": "key",
                          "type": "tuple"
                        }
                      ],
                      "internalType": "struct IHederaTokenService.TokenKey[]",
                      "name": "tokenKeys",
                      "type": "tuple[]"
                    },
                    {
                      "components": [
                        {
                          "internalType": "uint32",
                          "name": "second",
                          "type": "uint32"
                        },
                        {
                          "internalType": "address",
                          "name": "autoRenewAccount",
                          "type": "address"
                        },
                        {
                          "internalType": "uint32",
                          "name": "autoRenewPeriod",
                          "type": "uint32"
                        }
                      ],
                      "internalType": "struct IHederaTokenService.Expiry",
                      "name": "expiry",
                      "type": "tuple"
                    }
                  ],
                  "internalType": "struct IHederaTokenService.HederaToken",
                  "name": "token",
                  "type": "tuple"
                },
                {
                  "internalType": "uint64",
                  "name": "totalSupply",
                  "type": "uint64"
                },
                {
                  "internalType": "bool",
                  "name": "deleted",
                  "type": "bool"
                },
                {
                  "internalType": "bool",
                  "name": "defaultKycStatus",
                  "type": "bool"
                },
                {
                  "internalType": "bool",
                  "name": "pauseStatus",
                  "type": "bool"
                },
                {
                  "components": [
                    {
                      "internalType": "uint32",
                      "name": "amount",
                      "type": "uint32"
                    },
                    {
                      "internalType": "address",
                      "name": "tokenId",
                      "type": "address"
                    },
                    {
                      "internalType": "bool",
                      "name": "useHbarsForPayment",
                      "type": "bool"
                    },
                    {
                      "internalType": "bool",
                      "name": "useCurrentTokenForPayment",
                      "type": "bool"
                    },
                    {
                      "internalType": "address",
                      "name": "feeCollector",
                      "type": "address"
                    }
                  ],
                  "internalType": "struct IHederaTokenService.FixedFee[]",
                  "name": "fixedFees",
                  "type": "tuple[]"
                },
                {
                  "components": [
                    {
                      "internalType": "uint32",
                      "name": "numerator",
                      "type": "uint32"
                    },
                    {
                      "internalType": "uint32",
                      "name": "denominator",
                      "type": "uint32"
                    },
                    {
                      "internalType": "uint32",
                      "name": "minimumAmount",
                      "type": "uint32"
                    },
                    {
                      "internalType": "uint32",
                      "name": "maximumAmount",
                      "type": "uint32"
                    },
                    {
                      "internalType": "bool",
                      "name": "netOfTransfers",
                      "type": "bool"
                    },
                    {
                      "internalType": "address",
                      "name": "feeCollector",
                      "type": "address"
                    }
                  ],
                  "internalType": "struct IHederaTokenService.FractionalFee[]",
                  "name": "fractionalFees",
                  "type": "tuple[]"
                },
                {
                  "components": [
                    {
                      "internalType": "uint32",
                      "name": "numerator",
                      "type": "uint32"
                    },
                    {
                      "internalType": "uint32",
                      "name": "denominator",
                      "type": "uint32"
                    },
                    {
                      "internalType": "uint32",
                      "name": "amount",
                      "type": "uint32"
                    },
                    {
                      "internalType": "address",
                      "name": "tokenId",
                      "type": "address"
                    },
                    {
                      "internalType": "bool",
                      "name": "useHbarsForPayment",
                      "type": "bool"
                    },
                    {
                      "internalType": "address",
                      "name": "feeCollector",
                      "type": "address"
                    }
                  ],
                  "internalType": "struct IHederaTokenService.RoyaltyFee[]",
                  "name": "royaltyFees",
                  "type": "tuple[]"
                },
                {
                  "internalType": "string",
                  "name": "ledgerId",
                  "type": "string"
                }
              ],
              "internalType": "struct IHederaTokenService.TokenInfo",
              "name": "tokenInfo",
              "type": "tuple"
            },
            {
              "internalType": "int64",
              "name": "serialNumber",
              "type": "int64"
            },
            {
              "internalType": "address",
              "name": "ownerId",
              "type": "address"
            },
            {
              "internalType": "int64",
              "name": "creationTime",
              "type": "int64"
            },
            {
              "internalType": "bytes",
              "name": "metadata",
              "type": "bytes"
            },
            {
              "internalType": "address",
              "name": "spenderId",
              "type": "address"
            }
          ],
          "internalType": "struct IHederaTokenService.NonFungibleTokenInfo",
          "name": "tokenInfo",
          "type": "tuple"
        }
      ],
      "stateMutability": "nonpayable",
      "type": "function"
    },
    {
      "inputs": [
        {
          "internalType": "address",
          "name": "token",
          "type": "address"
        }
      ],
      "name": "getTokenDefaultFreezeStatusPublic",
      "outputs": [
        {
          "internalType": "int256",
          "name": "responseCode",
          "type": "int256"
        },
        {
          "internalType": "bool",
          "name": "defaultFreezeStatus",
          "type": "bool"
        }
      ],
      "stateMutability": "nonpayable",
      "type": "function"
    },
    {
      "inputs": [
        {
          "internalType": "address",
          "name": "token",
          "type": "address"
        }
      ],
      "name": "getTokenExpiryInfo",
      "outputs": [
        {
          "internalType": "int256",
          "name": "responseCode",
          "type": "int256"
        },
        {
          "components": [
            {
              "internalType": "uint32",
              "name": "second",
              "type": "uint32"
            },
            {
              "internalType": "address",
              "name": "autoRenewAccount",
              "type": "address"
            },
            {
              "internalType": "uint32",
              "name": "autoRenewPeriod",
              "type": "uint32"
            }
          ],
          "internalType": "struct IHederaTokenService.Expiry",
          "name": "expiryInfo",
          "type": "tuple"
        }
      ],
      "stateMutability": "nonpayable",
      "type": "function"
    },
    {
      "inputs": [
        {
          "internalType": "address",
          "name": "token",
          "type": "address"
        }
      ],
      "name": "getTokenExpiryInfoPublic",
      "outputs": [
        {
          "internalType": "int256",
          "name": "responseCode",
          "type": "int256"
        },
        {
          "components": [
            {
              "internalType": "uint32",
              "name": "second",
              "type": "uint32"
            },
            {
              "internalType": "address",
              "name": "autoRenewAccount",
              "type": "address"
            },
            {
              "internalType": "uint32",
              "name": "autoRenewPeriod",
              "type": "uint32"
            }
          ],
          "internalType": "struct IHederaTokenService.Expiry",
          "name": "expiryInfo",
          "type": "tuple"
        }
      ],
      "stateMutability": "nonpayable",
      "type": "function"
    },
    {
      "inputs": [
        {
          "internalType": "address",
          "name": "token",
          "type": "address"
        }
      ],
      "name": "getTokenInfoPublic",
      "outputs": [
        {
          "internalType": "int256",
          "name": "responseCode",
          "type": "int256"
        },
        {
          "components": [
            {
              "components": [
                {
                  "internalType": "string",
                  "name": "name",
                  "type": "string"
                },
                {
                  "internalType": "string",
                  "name": "symbol",
                  "type": "string"
                },
                {
                  "internalType": "address",
                  "name": "treasury",
                  "type": "address"
                },
                {
                  "internalType": "string",
                  "name": "memo",
                  "type": "string"
                },
                {
                  "internalType": "bool",
                  "name": "tokenSupplyType",
                  "type": "bool"
                },
                {
                  "internalType": "int64",
                  "name": "maxSupply",
                  "type": "int64"
                },
                {
                  "internalType": "bool",
                  "name": "freezeDefault",
                  "type": "bool"
                },
                {
                  "components": [
                    {
                      "internalType": "uint256",
                      "name": "keyType",
                      "type": "uint256"
                    },
                    {
                      "components": [
                        {
                          "internalType": "bool",
                          "name": "inheritAccountKey",
                          "type": "bool"
                        },
                        {
                          "internalType": "address",
                          "name": "contractId",
                          "type": "address"
                        },
                        {
                          "internalType": "bytes",
                          "name": "ed25519",
                          "type": "bytes"
                        },
                        {
                          "internalType": "bytes",
                          "name": "ECDSA_secp256k1",
                          "type": "bytes"
                        },
                        {
                          "internalType": "address",
                          "name": "delegatableContractId",
                          "type": "address"
                        }
                      ],
                      "internalType": "struct IHederaTokenService.KeyValue",
                      "name": "key",
                      "type": "tuple"
                    }
                  ],
                  "internalType": "struct IHederaTokenService.TokenKey[]",
                  "name": "tokenKeys",
                  "type": "tuple[]"
                },
                {
                  "components": [
                    {
                      "internalType": "uint32",
                      "name": "second",
                      "type": "uint32"
                    },
                    {
                      "internalType": "address",
                      "name": "autoRenewAccount",
                      "type": "address"
                    },
                    {
                      "internalType": "uint32",
                      "name": "autoRenewPeriod",
                      "type": "uint32"
                    }
                  ],
                  "internalType": "struct IHederaTokenService.Expiry",
                  "name": "expiry",
                  "type": "tuple"
                }
              ],
              "internalType": "struct IHederaTokenService.HederaToken",
              "name": "token",
              "type": "tuple"
            },
            {
              "internalType": "uint64",
              "name": "totalSupply",
              "type": "uint64"
            },
            {
              "internalType": "bool",
              "name": "deleted",
              "type": "bool"
            },
            {
              "internalType": "bool",
              "name": "defaultKycStatus",
              "type": "bool"
            },
            {
              "internalType": "bool",
              "name": "pauseStatus",
              "type": "bool"
            },
            {
              "components": [
                {
                  "internalType": "uint32",
                  "name": "amount",
                  "type": "uint32"
                },
                {
                  "internalType": "address",
                  "name": "tokenId",
                  "type": "address"
                },
                {
                  "internalType": "bool",
                  "name": "useHbarsForPayment",
                  "type": "bool"
                },
                {
                  "internalType": "bool",
                  "name": "useCurrentTokenForPayment",
                  "type": "bool"
                },
                {
                  "internalType": "address",
                  "name": "feeCollector",
                  "type": "address"
                }
              ],
              "internalType": "struct IHederaTokenService.FixedFee[]",
              "name": "fixedFees",
              "type": "tuple[]"
            },
            {
              "components": [
                {
                  "internalType": "uint32",
                  "name": "numerator",
                  "type": "uint32"
                },
                {
                  "internalType": "uint32",
                  "name": "denominator",
                  "type": "uint32"
                },
                {
                  "internalType": "uint32",
                  "name": "minimumAmount",
                  "type": "uint32"
                },
                {
                  "internalType": "uint32",
                  "name": "maximumAmount",
                  "type": "uint32"
                },
                {
                  "internalType": "bool",
                  "name": "netOfTransfers",
                  "type": "bool"
                },
                {
                  "internalType": "address",
                  "name": "feeCollector",
                  "type": "address"
                }
              ],
              "internalType": "struct IHederaTokenService.FractionalFee[]",
              "name": "fractionalFees",
              "type": "tuple[]"
            },
            {
              "components": [
                {
                  "internalType": "uint32",
                  "name": "numerator",
                  "type": "uint32"
                },
                {
                  "internalType": "uint32",
                  "name": "denominator",
                  "type": "uint32"
                },
                {
                  "internalType": "uint32",
                  "name": "amount",
                  "type": "uint32"
                },
                {
                  "internalType": "address",
                  "name": "tokenId",
                  "type": "address"
                },
                {
                  "internalType": "bool",
                  "name": "useHbarsForPayment",
                  "type": "bool"
                },
                {
                  "internalType": "address",
                  "name": "feeCollector",
                  "type": "address"
                }
              ],
              "internalType": "struct IHederaTokenService.RoyaltyFee[]",
              "name": "royaltyFees",
              "type": "tuple[]"
            },
            {
              "internalType": "string",
              "name": "ledgerId",
              "type": "string"
            }
          ],
          "internalType": "struct IHederaTokenService.TokenInfo",
          "name": "tokenInfo",
          "type": "tuple"
        }
      ],
      "stateMutability": "nonpayable",
      "type": "function"
    },
    {
      "inputs": [
        {
          "internalType": "address",
          "name": "token",
          "type": "address"
        },
        {
          "internalType": "uint256",
          "name": "keyType",
          "type": "uint256"
        }
      ],
      "name": "getTokenKeyPublic",
      "outputs": [
        {
          "internalType": "int64",
          "name": "responseCode",
          "type": "int64"
        },
        {
          "components": [
            {
              "internalType": "bool",
              "name": "inheritAccountKey",
              "type": "bool"
            },
            {
              "internalType": "address",
              "name": "contractId",
              "type": "address"
            },
            {
              "internalType": "bytes",
              "name": "ed25519",
              "type": "bytes"
            },
            {
              "internalType": "bytes",
              "name": "ECDSA_secp256k1",
              "type": "bytes"
            },
            {
              "internalType": "address",
              "name": "delegatableContractId",
              "type": "address"
            }
          ],
          "internalType": "struct IHederaTokenService.KeyValue",
          "name": "key",
          "type": "tuple"
        }
      ],
      "stateMutability": "nonpayable",
      "type": "function"
    },
    {
      "inputs": [
        {
          "internalType": "address",
          "name": "token",
          "type": "address"
        }
      ],
      "name": "getTokenTypePublic",
      "outputs": [
        {
          "internalType": "int64",
          "name": "responseCode",
          "type": "int64"
        },
        {
          "internalType": "int32",
          "name": "tokenType",
          "type": "int32"
        }
      ],
      "stateMutability": "nonpayable",
      "type": "function"
    },
    {
      "inputs": [
        {
          "internalType": "address",
          "name": "token",
          "type": "address"
        },
        {
          "internalType": "address",
          "name": "account",
          "type": "address"
        }
      ],
      "name": "grantTokenKyc",
      "outputs": [
        {
          "internalType": "int64",
          "name": "responseCode",
          "type": "int64"
        }
      ],
      "stateMutability": "nonpayable",
      "type": "function"
    },
    {
      "inputs": [
        {
          "internalType": "address",
          "name": "token",
          "type": "address"
        },
        {
          "internalType": "address",
          "name": "account",
          "type": "address"
        }
      ],
      "name": "grantTokenKycPublic",
      "outputs": [
        {
          "internalType": "int64",
          "name": "responseCode",
          "type": "int64"
        }
      ],
      "stateMutability": "nonpayable",
      "type": "function"
    },
    {
      "inputs": [
        {
          "internalType": "address",
          "name": "token",
          "type": "address"
        },
        {
          "internalType": "address",
          "name": "account",
          "type": "address"
        }
      ],
      "name": "isFrozenPublic",
      "outputs": [
        {
          "internalType": "int256",
          "name": "responseCode",
          "type": "int256"
        },
        {
          "internalType": "bool",
          "name": "frozen",
          "type": "bool"
        }
      ],
      "stateMutability": "nonpayable",
      "type": "function"
    },
    {
      "inputs": [
        {
          "internalType": "address",
          "name": "token",
          "type": "address"
        },
        {
          "internalType": "address",
          "name": "account",
          "type": "address"
        }
      ],
      "name": "isKyc",
      "outputs": [
        {
          "internalType": "int64",
          "name": "responseCode",
          "type": "int64"
        },
        {
          "internalType": "bool",
          "name": "kycGranted",
          "type": "bool"
        }
      ],
      "stateMutability": "nonpayable",
      "type": "function"
    },
    {
      "inputs": [
        {
          "internalType": "address",
          "name": "token",
          "type": "address"
        }
      ],
      "name": "isTokenPublic",
      "outputs": [
        {
          "internalType": "int64",
          "name": "responseCode",
          "type": "int64"
        },
        {
          "internalType": "bool",
          "name": "isTokenFlag",
          "type": "bool"
        }
      ],
      "stateMutability": "nonpayable",
      "type": "function"
    },
    {
      "inputs": [
        {
          "internalType": "address",
          "name": "token",
          "type": "address"
        },
        {
          "internalType": "uint64",
          "name": "amount",
          "type": "uint64"
        },
        {
          "internalType": "bytes[]",
          "name": "metadata",
          "type": "bytes[]"
        }
      ],
      "name": "mintTokenPublic",
      "outputs": [
        {
          "internalType": "int256",
          "name": "responseCode",
          "type": "int256"
        },
        {
          "internalType": "uint64",
          "name": "newTotalSupply",
          "type": "uint64"
        },
        {
          "internalType": "int64[]",
          "name": "serialNumbers",
          "type": "int64[]"
        }
      ],
      "stateMutability": "nonpayable",
      "type": "function"
    },
    {
      "inputs": [
        {
          "internalType": "address",
          "name": "token",
          "type": "address"
        }
      ],
      "name": "pauseToken",
      "outputs": [
        {
          "internalType": "int256",
          "name": "responseCode",
          "type": "int256"
        }
      ],
      "stateMutability": "nonpayable",
      "type": "function"
    },
    {
      "inputs": [
        {
          "internalType": "address",
          "name": "token",
          "type": "address"
        }
      ],
      "name": "pauseTokenPublic",
      "outputs": [
        {
          "internalType": "int256",
          "name": "responseCode",
          "type": "int256"
        }
      ],
      "stateMutability": "nonpayable",
      "type": "function"
    },
    {
      "inputs": [
        {
          "internalType": "address",
          "name": "token",
          "type": "address"
        },
        {
          "internalType": "address",
          "name": "account",
          "type": "address"
        }
      ],
      "name": "revokeTokenKyc",
      "outputs": [
        {
          "internalType": "int64",
          "name": "responseCode",
          "type": "int64"
        }
      ],
      "stateMutability": "nonpayable",
      "type": "function"
    },
    {
      "inputs": [
        {
          "internalType": "bool",
          "name": "newFreezeStatus",
          "type": "bool"
        }
      ],
      "name": "setFreezeDefaultStatus",
      "outputs": [],
      "stateMutability": "nonpayable",
      "type": "function"
    },
    {
      "inputs": [
        {
          "internalType": "address",
          "name": "token",
          "type": "address"
        },
        {
          "internalType": "address",
          "name": "sender",
          "type": "address"
        },
        {
          "internalType": "address",
          "name": "receiver",
          "type": "address"
        },
        {
          "internalType": "int64",
          "name": "serialNumber",
          "type": "int64"
        }
      ],
      "name": "transferNFTPublic",
      "outputs": [
        {
          "internalType": "int256",
          "name": "responseCode",
          "type": "int256"
        }
      ],
      "stateMutability": "nonpayable",
      "type": "function"
    },
    {
      "inputs": [
        {
          "internalType": "address",
          "name": "token",
          "type": "address"
        },
        {
          "internalType": "address",
          "name": "account",
          "type": "address"
        }
      ],
      "name": "unfreezeTokenPublic",
      "outputs": [
        {
          "internalType": "int256",
          "name": "responseCode",
          "type": "int256"
        }
      ],
      "stateMutability": "nonpayable",
      "type": "function"
    },
    {
      "inputs": [
        {
          "internalType": "address",
          "name": "token",
          "type": "address"
        }
      ],
      "name": "unpauseToken",
      "outputs": [
        {
          "internalType": "int256",
          "name": "responseCode",
          "type": "int256"
        }
      ],
      "stateMutability": "nonpayable",
      "type": "function"
    },
    {
      "inputs": [
        {
          "internalType": "address",
          "name": "token",
          "type": "address"
        }
      ],
      "name": "unpauseTokenPublic",
      "outputs": [
        {
          "internalType": "int256",
          "name": "responseCode",
          "type": "int256"
        }
      ],
      "stateMutability": "nonpayable",
      "type": "function"
    },
    {
      "inputs": [
        {
          "internalType": "address",
          "name": "token",
          "type": "address"
        },
        {
          "components": [
            {
              "internalType": "uint32",
              "name": "second",
              "type": "uint32"
            },
            {
              "internalType": "address",
              "name": "autoRenewAccount",
              "type": "address"
            },
            {
              "internalType": "uint32",
              "name": "autoRenewPeriod",
              "type": "uint32"
            }
          ],
          "internalType": "struct IHederaTokenService.Expiry",
          "name": "expiryInfo",
          "type": "tuple"
        }
      ],
      "name": "updateTokenExpiryInfo",
      "outputs": [
        {
          "internalType": "int256",
          "name": "responseCode",
          "type": "int256"
        }
      ],
      "stateMutability": "nonpayable",
      "type": "function"
    },
    {
      "inputs": [
        {
          "internalType": "address",
          "name": "token",
          "type": "address"
        },
        {
          "components": [
            {
              "internalType": "uint32",
              "name": "second",
              "type": "uint32"
            },
            {
              "internalType": "address",
              "name": "autoRenewAccount",
              "type": "address"
            },
            {
              "internalType": "uint32",
              "name": "autoRenewPeriod",
              "type": "uint32"
            }
          ],
          "internalType": "struct IHederaTokenService.Expiry",
          "name": "expiryInfo",
          "type": "tuple"
        }
      ],
      "name": "updateTokenExpiryInfoPublic",
      "outputs": [
        {
          "internalType": "int256",
          "name": "responseCode",
          "type": "int256"
        }
      ],
      "stateMutability": "nonpayable",
      "type": "function"
    },
    {
      "inputs": [
        {
          "internalType": "address",
          "name": "token",
          "type": "address"
        },
        {
          "components": [
            {
              "internalType": "string",
              "name": "name",
              "type": "string"
            },
            {
              "internalType": "string",
              "name": "symbol",
              "type": "string"
            },
            {
              "internalType": "address",
              "name": "treasury",
              "type": "address"
            },
            {
              "internalType": "string",
              "name": "memo",
              "type": "string"
            },
            {
              "internalType": "bool",
              "name": "tokenSupplyType",
              "type": "bool"
            },
            {
              "internalType": "int64",
              "name": "maxSupply",
              "type": "int64"
            },
            {
              "internalType": "bool",
              "name": "freezeDefault",
              "type": "bool"
            },
            {
              "components": [
                {
                  "internalType": "uint256",
                  "name": "keyType",
                  "type": "uint256"
                },
                {
                  "components": [
                    {
                      "internalType": "bool",
                      "name": "inheritAccountKey",
                      "type": "bool"
                    },
                    {
                      "internalType": "address",
                      "name": "contractId",
                      "type": "address"
                    },
                    {
                      "internalType": "bytes",
                      "name": "ed25519",
                      "type": "bytes"
                    },
                    {
                      "internalType": "bytes",
                      "name": "ECDSA_secp256k1",
                      "type": "bytes"
                    },
                    {
                      "internalType": "address",
                      "name": "delegatableContractId",
                      "type": "address"
                    }
                  ],
                  "internalType": "struct IHederaTokenService.KeyValue",
                  "name": "key",
                  "type": "tuple"
                }
              ],
              "internalType": "struct IHederaTokenService.TokenKey[]",
              "name": "tokenKeys",
              "type": "tuple[]"
            },
            {
              "components": [
                {
                  "internalType": "uint32",
                  "name": "second",
                  "type": "uint32"
                },
                {
                  "internalType": "address",
                  "name": "autoRenewAccount",
                  "type": "address"
                },
                {
                  "internalType": "uint32",
                  "name": "autoRenewPeriod",
                  "type": "uint32"
                }
              ],
              "internalType": "struct IHederaTokenService.Expiry",
              "name": "expiry",
              "type": "tuple"
            }
          ],
          "internalType": "struct IHederaTokenService.HederaToken",
          "name": "tokenInfo",
          "type": "tuple"
        }
      ],
      "name": "updateTokenInfo",
      "outputs": [
        {
          "internalType": "int256",
          "name": "responseCode",
          "type": "int256"
        }
      ],
      "stateMutability": "nonpayable",
      "type": "function"
    },
    {
      "inputs": [
        {
          "internalType": "address",
          "name": "token",
          "type": "address"
        },
        {
          "components": [
            {
              "internalType": "string",
              "name": "name",
              "type": "string"
            },
            {
              "internalType": "string",
              "name": "symbol",
              "type": "string"
            },
            {
              "internalType": "address",
              "name": "treasury",
              "type": "address"
            },
            {
              "internalType": "string",
              "name": "memo",
              "type": "string"
            },
            {
              "internalType": "bool",
              "name": "tokenSupplyType",
              "type": "bool"
            },
            {
              "internalType": "int64",
              "name": "maxSupply",
              "type": "int64"
            },
            {
              "internalType": "bool",
              "name": "freezeDefault",
              "type": "bool"
            },
            {
              "components": [
                {
                  "internalType": "uint256",
                  "name": "keyType",
                  "type": "uint256"
                },
                {
                  "components": [
                    {
                      "internalType": "bool",
                      "name": "inheritAccountKey",
                      "type": "bool"
                    },
                    {
                      "internalType": "address",
                      "name": "contractId",
                      "type": "address"
                    },
                    {
                      "internalType": "bytes",
                      "name": "ed25519",
                      "type": "bytes"
                    },
                    {
                      "internalType": "bytes",
                      "name": "ECDSA_secp256k1",
                      "type": "bytes"
                    },
                    {
                      "internalType": "address",
                      "name": "delegatableContractId",
                      "type": "address"
                    }
                  ],
                  "internalType": "struct IHederaTokenService.KeyValue",
                  "name": "key",
                  "type": "tuple"
                }
              ],
              "internalType": "struct IHederaTokenService.TokenKey[]",
              "name": "tokenKeys",
              "type": "tuple[]"
            },
            {
              "components": [
                {
                  "internalType": "uint32",
                  "name": "second",
                  "type": "uint32"
                },
                {
                  "internalType": "address",
                  "name": "autoRenewAccount",
                  "type": "address"
                },
                {
                  "internalType": "uint32",
                  "name": "autoRenewPeriod",
                  "type": "uint32"
                }
              ],
              "internalType": "struct IHederaTokenService.Expiry",
              "name": "expiry",
              "type": "tuple"
            }
          ],
          "internalType": "struct IHederaTokenService.HederaToken",
          "name": "tokenInfo",
          "type": "tuple"
        }
      ],
      "name": "updateTokenInfoPublic",
      "outputs": [
        {
          "internalType": "int256",
          "name": "responseCode",
          "type": "int256"
        }
      ],
      "stateMutability": "nonpayable",
      "type": "function"
    },
    {
      "inputs": [
        {
          "internalType": "address",
          "name": "token",
          "type": "address"
        },
        {
          "components": [
            {
              "internalType": "uint256",
              "name": "keyType",
              "type": "uint256"
            },
            {
              "components": [
                {
                  "internalType": "bool",
                  "name": "inheritAccountKey",
                  "type": "bool"
                },
                {
                  "internalType": "address",
                  "name": "contractId",
                  "type": "address"
                },
                {
                  "internalType": "bytes",
                  "name": "ed25519",
                  "type": "bytes"
                },
                {
                  "internalType": "bytes",
                  "name": "ECDSA_secp256k1",
                  "type": "bytes"
                },
                {
                  "internalType": "address",
                  "name": "delegatableContractId",
                  "type": "address"
                }
              ],
              "internalType": "struct IHederaTokenService.KeyValue",
              "name": "key",
              "type": "tuple"
            }
          ],
          "internalType": "struct IHederaTokenService.TokenKey[]",
          "name": "keys",
          "type": "tuple[]"
        }
      ],
      "name": "updateTokenKeysPublic",
      "outputs": [
        {
          "internalType": "int64",
          "name": "responseCode",
          "type": "int64"
        }
      ],
      "stateMutability": "nonpayable",
      "type": "function"
    },
    {
      "inputs": [
        {
          "internalType": "address",
          "name": "token",
          "type": "address"
        },
        {
          "internalType": "address",
          "name": "account",
          "type": "address"
        },
        {
          "internalType": "int64[]",
          "name": "serialNumbers",
          "type": "int64[]"
        }
      ],
      "name": "wipeTokenAccountNFTPublic",
      "outputs": [
        {
          "internalType": "int256",
          "name": "responseCode",
          "type": "int256"
        }
      ],
      "stateMutability": "nonpayable",
      "type": "function"
    },
    {
      "inputs": [
        {
          "internalType": "address",
          "name": "token",
          "type": "address"
        },
        {
          "internalType": "address",
          "name": "account",
          "type": "address"
        },
        {
          "internalType": "uint32",
          "name": "amount",
          "type": "uint32"
        }
      ],
      "name": "wipeTokenAccountPublic",
      "outputs": [
        {
          "internalType": "int256",
          "name": "responseCode",
          "type": "int256"
        }
      ],
      "stateMutability": "nonpayable",
      "type": "function"
    }
  ],
  "bytecode": "0x60c06040526009608081905268746f6b656e4e616d6560b81b60a09081526200002c9160029190620001cc565b5060408051808201909152600b8082526a1d1bdad95b94de5b589bdb60aa1b60209092019182526200006191600391620001cc565b50604080518082019091526004808252636d656d6f60e01b60209092019182526200008d9181620001cc565b50600580546001600160a81b031916700800000000000003e800000000000003e8179055348015620000be57600080fd5b50600160208181527fa6eef7e35abe7026729641147f7915573c7e97b47efa546f5f6e3230263bcb499190915560027fcc69885fda6bcc1a4ace058b4a62bf5e179ea78fd58a1ccd71c22cc9b688792f5560047fd9d16d34ffb15ba3a3d852f0d403e2ce1d691fb54de27ac87cd2f993f3ec330f5560087f7dfe757ecd65cbd7922a9c0161e935dd7fdbcc0e999689c7d31633896b1fc60b5560107fedc95719e9a3b28dd8e80877cb5880a9be7de1a13fc8b05e7999683b6b567643557fe2689cd4a84e23ad2f564004f1c9013e9589d260bde6380aba3ca7e09e4df40c55600660005260407f8f331abe73332f95a25873e8b430885974c0409691f89d643119a11623a7924a55620002af565b828054620001da9062000272565b90600052602060002090601f016020900481019282620001fe576000855562000249565b82601f106200021957805160ff191683800117855562000249565b8280016001018555821562000249579182015b82811115620002495782518255916020019190600101906200022c565b50620002579291506200025b565b5090565b5b808211156200025757600081556001016200025c565b600181811c908216806200028757607f821691505b60208210811415620002a957634e487b7160e01b600052602260045260246000fd5b50919050565b61498a80620002bf6000396000f3fe6080604052600436106101ee5760003560e01c80637c41ad2c1161010d578063d85f74c1116100a0578063f2f38a741161006f578063f2f38a7414610606578063f4a01e5b14610634578063f7be342514610654578063f9e978bd14610674578063fdc8321e1461069457600080fd5b8063d85f74c114610593578063d92ac248146105a6578063eee55ac8146105c6578063f2c31ff4146105e657600080fd5b80638f8d7f99116100dc5780638f8d7f9914610505578063af99c63314610525578063c0b19b6d14610545578063d614cdb81461057357600080fd5b80637c41ad2c1461045c5780637d3e5da81461047c5780638070905f1461049c5780638c99ef5d146104cb57600080fd5b80634b5c668711610185578063593d6e8211610154578063593d6e82146103bf5780635d2c5bad146103df5780636a4dde211461041c5780636da6b1f01461043c57600080fd5b80634b5c66871461033c5780634cbdb37b146103515780634d8f27c91461037f57806356af84031461039f57600080fd5b80632d73bb2e116101c15780632d73bb2e146102a75780632f13d66b146102c75780633b3bff0f146102e75780633eed2c391461030757600080fd5b80630fd2601e146101f357806318370d341461022b5780631955de0b146102595780632b256ec814610287575b600080fd5b3480156101ff57600080fd5b5061021361020e366004613624565b6106b4565b60405160079190910b81526020015b60405180910390f35b34801561023757600080fd5b5061024b6102463660046138b1565b61076d565b604051908152602001610222565b34801561026557600080fd5b506102796102743660046139f1565b61084a565b60405161022292919061462a565b34801561029357600080fd5b5061024b6102a2366004613608565b6108d7565b3480156102b357600080fd5b5061024b6102c2366004613624565b6109c3565b3480156102d357600080fd5b5061024b6102e23660046138b1565b610a08565b3480156102f357600080fd5b5061024b610302366004613608565b610aa3565b34801561031357600080fd5b50610327610322366004613608565b610b7d565b60408051928352901515602083015201610222565b61034f61034a366004613608565b610bf7565b005b34801561035d57600080fd5b5061037161036c36600461384f565b61100f565b6040516102229291906145d0565b34801561038b57600080fd5b5061021361039a366004613802565b611085565b3480156103ab57600080fd5b5061024b6103ba3660046136b7565b611091565b3480156103cb57600080fd5b5061024b6103da36600461387c565b6110db565b3480156103eb57600080fd5b506103ff6103fa366004613608565b611107565b6040805160079390930b835260039190910b602083015201610222565b34801561042857600080fd5b50610327610437366004613624565b611182565b34801561044857600080fd5b5061024b61045736600461365c565b6111f9565b34801561046857600080fd5b5061024b610477366004613608565b611245565b34801561048857600080fd5b5061024b610497366004613624565b611273565b3480156104a857600080fd5b506104bc6104b7366004613a1c565b61127f565b60405161022293929190614602565b3480156104d757600080fd5b506104eb6104e6366004613608565b611307565b6040805160079390930b8352901515602083015201610222565b34801561051157600080fd5b50610213610520366004613624565b611380565b34801561053157600080fd5b50610213610540366004613624565b6113ac565b34801561055157600080fd5b50610565610560366004613608565b6113d8565b6040516102229291906145bc565b34801561057f57600080fd5b5061056561058e366004613608565b6114cf565b61034f6105a1366004613608565b6115de565b3480156105b257600080fd5b5061024b6105c13660046137c3565b6119c9565b3480156105d257600080fd5b5061024b6105e136600461387c565b6119d6565b3480156105f257600080fd5b506104eb610601366004613624565b6119fe565b34801561061257600080fd5b50610626610621366004613608565b611ad2565b6040516102229291906145e9565b34801561064057600080fd5b5061024b61064f366004613624565b611b47565b34801561066057600080fd5b5061024b61066f366004613608565b611b53565b34801561068057600080fd5b5061034f61068f366004613af2565b611c36565b3480156106a057600080fd5b5061024b6106af366004613779565b611c91565b604051638f8d7f9960e01b81526000903090638f8d7f99906106dc90869086906004016143b4565b602060405180830381600087803b1580156106f657600080fd5b505af115801561070a573d6000803e3d6000fd5b505050506040513d601f19601f8201168201806040525081019061072e9190613e21565b604051600782900b81529091506000805160206149358339815191529060200160405180910390a1600781900b60161461076757600080fd5b92915050565b60008060006101676001600160a01b03166318370d3460e01b8686604051602401610799929190614444565b60408051601f198184030181529181526020820180516001600160e01b03166001600160e01b03199094169390931790925290516107d79190614398565b6000604051808303816000865af19150503d8060008114610814576040519150601f19603f3d011682016040523d82523d6000602084013e610819565b606091505b50915091508161082a57601561083e565b8080602001905181019061083e9190613b49565b60030b95945050505050565b6000610854612b8a565b61085e8484611e92565b604051600783900b815291935091506000805160206149358339815191529060200160405180910390a1600782900b60161461089957600080fd5b7faed084fbdf29b6ba2242463299d7270f64e0f8ced16013cfff249856bd887157816040516108c8919061469f565b60405180910390a19250929050565b604051631f106b4b60e21b81526001600160a01b03821660048201526000903090637c41ad2c90602401602060405180830381600087803b15801561091b57600080fd5b505af115801561092f573d6000803e3d6000fd5b505050506040513d601f19601f820116820180604052508101906109539190613b0e565b90506000805160206149358339815191528160405161097491815260200190565b60405180910390a16016811461098957600080fd5b604051600181527f0c9c765845f4d139956bb8fc8decb2eec6093c9c608b809641b16054b29f0e13906020015b60405180910390a1919050565b60006109cf8383611f79565b60070b9050600080516020614935833981519152816040516109f391815260200190565b60405180910390a16016811461076757600080fd5b60405163060dc34d60e21b815260009030906318370d3490610a309086908690600401614444565b602060405180830381600087803b158015610a4a57600080fd5b505af1158015610a5e573d6000803e3d6000fd5b505050506040513d601f19601f82011682018060405250810190610a829190613b0e565b9050600080516020614935833981519152816040516109f391815260200190565b6040516001600160a01b03821660248201526000908190819061016790633b3bff0f60e01b906044015b60408051601f198184030181529181526020820180516001600160e01b03166001600160e01b0319909416939093179092529051610b0b9190614398565b6000604051808303816000865af19150503d8060008114610b48576040519150601f19603f3d011682016040523d82523d6000602084013e610b4d565b606091505b509150915081610b5e576015610b72565b80806020019051810190610b729190613b49565b60030b949350505050565b600080610b8983611fa5565b60405182815291935091506000805160206149358339815191529060200160405180910390a160168214610bbc57600080fd5b60405181151581527f6b7f3306751292f85ab4161ee2b0ac16dfc8ded13e6446ce6bd859d0a2f4c78e906020015b60405180910390a1915091565b60408051600480825260a08201909252600091816020015b610c17612bcd565b815260200190600190039081610c0f579050509050610c4a60006006600060405180602001604052806000815250612089565b81600081518110610c6b57634e487b7160e01b600052603260045260246000fd5b6020026020010181905250610c9260016000604051806020016040528060008152506120c0565b81600181518110610cb357634e487b7160e01b600052603260045260246000fd5b6020026020010181905250610cda60026000604051806020016040528060008152506120c0565b81600281518110610cfb57634e487b7160e01b600052603260045260246000fd5b6020026020010181905250610d2260036000604051806020016040528060008152506120c0565b81600381518110610d4357634e487b7160e01b600052603260045260246000fd5b602002602001018190525060006040518060600160405280600063ffffffff168152602001846001600160a01b03168152602001627a120063ffffffff168152509050600060405180610120016040528060028054610da190614855565b80601f0160208091040260200160405190810160405280929190818152602001828054610dcd90614855565b8015610e1a5780601f10610def57610100808354040283529160200191610e1a565b820191906000526020600020905b815481529060010190602001808311610dfd57829003601f168201915b5050505050815260200160038054610e3190614855565b80601f0160208091040260200160405190810160405280929190818152602001828054610e5d90614855565b8015610eaa5780601f10610e7f57610100808354040283529160200191610eaa565b820191906000526020600020905b815481529060010190602001808311610e8d57829003601f168201915b50505050508152602001856001600160a01b0316815260200160048054610ed090614855565b80601f0160208091040260200160405190810160405280929190818152602001828054610efc90614855565b8015610f495780601f10610f1e57610100808354040283529160200191610f49565b820191906000526020600020905b815481529060010190602001808311610f2c57829003601f168201915b505050918352505060016020820152600554600160401b8104600790810b900b6040830152600160a01b810460ff16151560608301526080820186905260a09091018490529091506000908190610fb99084906001600160401b03811690600160801b900463ffffffff166120f5565b909250905060168214610fcb57600080fd5b6040516001600160a01b03821681527f7bb17726df1f3adee8aa00ba8e8bc5d6f182af3bbf77604639cb7f008dd3b4ed9060200160405180910390a1505050505050565b6000611019612bec565b6110238484612223565b60405182815291935091506000805160206149358339815191529060200160405180910390a16016821461105657600080fd5b7fd010ef68d3ac3e07c14bed496400730a484fd17c48a4d373cbc4722a56540def816040516108c891906146b2565b600061072e83836122fd565b600061109e848484612329565b9050600080516020614935833981519152816040516110bf91815260200190565b60405180910390a1601681146110d457600080fd5b9392505050565b60008060006101676001600160a01b031663593d6e8260e01b8686604051602401610799929190614427565b60008061111383612409565b604051600783900b815291935091506000805160206149358339815191529060200160405180910390a1600782900b60161461114e57600080fd5b604051600382900b81527f182137409609594f2b12128230091c673507ea4cab315d59415d5e3f8c301ad590602001610bea565b60008061118f84846124cd565b60405160079290920b808352935091506000805160206149358339815191529060200160405180910390a1601682146111c757600080fd5b60405181151581527f59800d968fcce138300a0019410b4b75041610d65b3cdc5f31656b03ed14912e906020016108c8565b6000611207858585856124fa565b90506000805160206149358339815191528160405161122891815260200190565b60405180910390a16016811461123d57600080fd5b949350505050565b6040516001600160a01b03821660248201526000908190819061016790631f106b4b60e21b90604401610acd565b60006109cf83836125e2565b600080606061128f86868661260e565b60405183815292955090935091506000805160206149358339815191529060200160405180910390a1601683146112c557600080fd5b7feff23992f47b3c101679f8b4dc9d3e242c903909dba4a453f2b2341ad463b0e282826040516112f69291906146d8565b60405180910390a193509350939050565b6000806113138361270c565b604051600783900b815291935091506000805160206149358339815191529060200160405180910390a1600782900b60161461134e57600080fd5b60405181151581527f5080c42cc33acbcea410fa6eaa925bd878674825501981184fdd53749f8478a890602001610bea565b60008060006101676001600160a01b0316638f8d7f9960e01b86866040516024016107999291906143b4565b60008060006101676001600160a01b031663af99c63360e01b86866040516024016107999291906143b4565b60408051606081018252600080825260208201819052918101829052604051631ac299b760e31b81526001600160a01b0384166004820152309063d614cdb890602401608060405180830381600087803b15801561143557600080fd5b505af1158015611449573d6000803e3d6000fd5b505050506040513d601f19601f8201168201806040525081019061146d9190613b26565b60405182815291935091506000805160206149358339815191529060200160405180910390a1601682146114a057600080fd5b7fa0a16bf9db2c17796faeca5af5aaeef8523f9d4c350c512cb00062ad89604f8881604051610bea9190614646565b604080516060810182526000808252602080830182905282840182905283516001600160a01b038616602480830191909152855180830390910181526044909101855290810180516001600160e01b0316631ac299b760e31b1790529251909283918291610167916115419190614398565b6000604051808303816000865af19150503d806000811461157e576040519150601f19603f3d011682016040523d82523d6000602084013e611583565b606091505b50915091506115ab604080516060810182526000808252602082018190529181019190915290565b826115b8576015816115cc565b818060200190518101906115cc9190613be2565b60039190910b97909650945050505050565b60408051600580825260c08201909252600091816020015b6115fe612bcd565b8152602001906001900390816115f657905050905061163160006006600060405180602001604052806000815250612089565b8160008151811061165257634e487b7160e01b600052603260045260246000fd5b602002602001018190525061167960016000604051806020016040528060008152506120c0565b8160018151811061169a57634e487b7160e01b600052603260045260246000fd5b60200260200101819052506116c160026000604051806020016040528060008152506120c0565b816002815181106116e257634e487b7160e01b600052603260045260246000fd5b602002602001018190525061170960046000604051806020016040528060008152506120c0565b8160038151811061172a57634e487b7160e01b600052603260045260246000fd5b602002602001018190525061175160036000604051806020016040528060008152506120c0565b8160048151811061177257634e487b7160e01b600052603260045260246000fd5b602002602001018190525060006040518060600160405280600063ffffffff168152602001846001600160a01b03168152602001627a120063ffffffff1681525090506000604051806101200160405280600280546117d090614855565b80601f01602080910402602001604051908101604052809291908181526020018280546117fc90614855565b80156118495780601f1061181e57610100808354040283529160200191611849565b820191906000526020600020905b81548152906001019060200180831161182c57829003601f168201915b505050505081526020016003805461186090614855565b80601f016020809104026020016040519081016040528092919081815260200182805461188c90614855565b80156118d95780601f106118ae576101008083540402835291602001916118d9565b820191906000526020600020905b8154815290600101906020018083116118bc57829003601f168201915b50505050508152602001856001600160a01b03168152602001600480546118ff90614855565b80601f016020809104026020016040519081016040528092919081815260200182805461192b90614855565b80156119785780601f1061194d57610100808354040283529160200191611978565b820191906000526020600020905b81548152906001019060200180831161195b57829003601f168201915b505050918352505060016020820152600554600160401b8104600790810b900b6040830152600160a01b900460ff16151560608201526080810185905260a0018390529050600080610fb98361273c565b600061109e848484612852565b604051632c9eb74160e11b8152600090309063593d6e8290610a309086908690600401614427565b6000806000806101676001600160a01b031663f2c31ff460e01b8787604051602401611a2b9291906143b4565b60408051601f198184030181529181526020820180516001600160e01b03166001600160e01b0319909416939093179092529051611a699190614398565b6000604051808303816000865af19150503d8060008114611aa6576040519150601f19603f3d011682016040523d82523d6000602084013e611aab565b606091505b509150915081611abe57601560006115cc565b808060200190518101906115cc9190613b8e565b6000611adc612c27565b611ae583612894565b60405182815291935091506000805160206149358339815191529060200160405180910390a160168214611b1857600080fd5b7fbdb65f8c2a2e9a3a37ea49e903836883766a922e4ce9b21f684035e304962d4181604051610bea91906146c5565b6000610a828383612964565b604051633b3bff0f60e01b81526001600160a01b03821660048201526000903090633b3bff0f90602401602060405180830381600087803b158015611b9757600080fd5b505af1158015611bab573d6000803e3d6000fd5b505050506040513d601f19601f82011682018060405250810190611bcf9190613b0e565b905060008051602061493583398151915281604051611bf091815260200190565b60405180910390a160168114611c0557600080fd5b604051600181527f319ab7084208e4afa38c6e6ff7aea9587439f2e4700746f4c7d425fea17426d2906020016109b6565b6005805460ff60a01b1916600160a01b8315158102919091179182905560405160ff9190920416151581527f457c3a16a0ebdc38e3675609957ca3fcc4490e220bd15d85d34f58e2e145cb089060200160405180910390a150565b60408051600080825260208201909252819081611cd6565b6040805160608101825260008082526020808301829052928201528252600019909201910181611ca95790505b50905060006040518060400160405280336001600160a01b0316815260200185611cff90614890565b600790810b9091526040805180820182526001600160a01b038a1681529187900b602083015280516002808252606082019092529293509091600091816020015b6040805180820190915260008082526020820152815260200190600190039081611d405790505090508281600081518110611d8b57634e487b7160e01b600052603260045260246000fd5b60200260200101819052508181600181518110611db857634e487b7160e01b600052603260045260246000fd5b602090810291909101810191909152604080516060810182526001600160a01b038a16815291820183905281810186905280516001808252818301909252600091816020015b611e2b604051806060016040528060006001600160a01b0316815260200160608152602001606081525090565b815260200190600190039081611dfe5790505090508181600081518110611e6257634e487b7160e01b600052603260045260246000fd5b6020026020010181905250611e7681612990565b965060168714611e8557600080fd5b5050505050509392505050565b6000611e9c612b8a565b604080516001600160a01b0386166024820152604480820186905282518083039091018152606490910182526020810180516001600160e01b0316631e26e99760e11b1790529051600091829161016791611ef691614398565b6000604051808303816000865af19150503d8060008114611f33576040519150601f19603f3d011682016040523d82523d6000602084013e611f38565b606091505b5091509150611f45612b8a565b82611f5257601581611f66565b81806020019051810190611f669190613c0c565b60039190910b9890975095505050505050565b60008060006101676001600160a01b03166352f9138760e01b86866040516024016107999291906143b4565b6040516001600160a01b03821660248201526000908190819081906101679063a7daa18d60e01b906044015b60408051601f198184030181529181526020820180516001600160e01b03166001600160e01b031990941693909317909252905161200f9190614398565b6000604051808303816000865af19150503d806000811461204c576040519150601f19603f3d011682016040523d82523d6000602084013e612051565b606091505b5091509150816120645760156000612078565b808060200190518101906120789190613b8e565b60039190910b969095509350505050565b612091612bcd565b60405180604001604052806120a687876129ba565b81526020016120b58585612a11565b905295945050505050565b6120c8612bcd565b60405180604001604052806120dc86612b2f565b81526020016120eb8585612a11565b9052949350505050565b600080848061010001516000015163ffffffff16600014801561212557506101008101516040015163ffffffff16155b1561213b576101008101516276a7006040909101525b6000806101676001600160a01b03163463c23baeb660e01b8a8a8a60405160240161216893929190614667565b60408051601f198184030181529181526020820180516001600160e01b03166001600160e01b03199094169390931790925290516121a69190614398565b60006040518083038185875af1925050503d80600081146121e3576040519150601f19603f3d011682016040523d82523d6000602084013e6121e8565b606091505b5091509150816121fb576015600061220f565b8080602001905181019061220f9190613b63565b60039190910b999098509650505050505050565b600061222d612bec565b604080516001600160a01b0386166024820152600785900b60448083019190915282518083039091018152606490910182526020810180516001600160e01b031663050fc3b560e31b179052905160009182916101679161228d91614398565b6000604051808303816000865af19150503d80600081146122ca576040519150601f19603f3d011682016040523d82523d6000602084013e6122cf565b606091505b50915091506122dc612bec565b826122e957601581611f66565b81806020019051810190611f669190613c4d565b60008060006101676001600160a01b0316636fc3cbaf60e01b8686604051602401610799929190614403565b60008060006101676001600160a01b031663f7f38e2660e01b878787604051602401612357939291906143ce565b60408051601f198184030181529181526020820180516001600160e01b03166001600160e01b03199094169390931790925290516123959190614398565b6000604051808303816000865af19150503d80600081146123d2576040519150601f19603f3d011682016040523d82523d6000602084013e6123d7565b606091505b5091509150816123e85760156123fc565b808060200190518101906123fc9190613b49565b60030b9695505050505050565b604080516001600160a01b03831660248083019190915282518083039091018152604490910182526020810180516001600160e01b03166393272baf60e01b17905290516000918291829182916101679161246391614398565b6000604051808303816000865af19150503d80600081146124a0576040519150601f19603f3d011682016040523d82523d6000602084013e6124a5565b606091505b5091509150816124b9576015600019612078565b808060200190518101906120789190613bb9565b6000806000806101676001600160a01b03166346de0fb160e01b8787604051602401611a2b9291906143b4565b604080516001600160a01b038681166024830152858116604483015284166064820152600783900b6084808301919091528251808303909101815260a490910182526020810180516001600160e01b0316635cfc901160e01b1790529051600091829182916101679161256d9190614398565b6000604051808303816000865af19150503d80600081146125aa576040519150601f19603f3d011682016040523d82523d6000602084013e6125af565b606091505b5091509150816125c05760156125d4565b808060200190518101906125d49190613b49565b60030b979650505050505050565b60008060006101676001600160a01b0316635b8f858460e01b86866040516024016107999291906143b4565b60008060606000806101676001600160a01b031663278e0b8860e01b89898960405160240161263f93929190614468565b60408051601f198184030181529181526020820180516001600160e01b03166001600160e01b031990941693909317909252905161267d9190614398565b6000604051808303816000865af19150503d80600081146126ba576040519150601f19603f3d011682016040523d82523d6000602084013e6126bf565b606091505b5091509150816126e25760408051600080825260208201909252601591906126f6565b808060200190518101906126f69190613d70565b60039290920b9a90995090975095505050505050565b6040516001600160a01b0382166024820152600090819081908190610167906319f3736160e01b90604401611fd1565b600080828061010001516000015163ffffffff16600014801561276c57506101008101516040015163ffffffff16155b15612782576101008101516276a7006040909101525b6000806101676001600160a01b031634639c89bb3560e01b886040516024016127ab9190614654565b60408051601f198184030181529181526020820180516001600160e01b03166001600160e01b03199094169390931790925290516127e99190614398565b60006040518083038185875af1925050503d8060008114612826576040519150601f19603f3d011682016040523d82523d6000602084013e61282b565b606091505b50915091508161283e57601560006115cc565b808060200190518101906115cc9190613b63565b6040516001600160a01b0384811660248301528316604482015263ffffffff821660648201526000908190819061016790639790686d60e01b90608401612357565b600061289e612c27565b604080516001600160a01b03851660248083019190915282518083039091018152604490910182526020810180516001600160e01b0316631f69565f60e01b17905290516000918291610167916128f491614398565b6000604051808303816000865af19150503d8060008114612931576040519150601f19603f3d011682016040523d82523d6000602084013e612936565b606091505b5091509150612943612c27565b82612950576015816115cc565b818060200190518101906115cc9190613d2f565b60008060006101676001600160a01b03166349146bde60e01b86866040516024016107999291906143b4565b60008060006101676001600160a01b031663189a554c60e01b85604051602401610acd91906144e9565b60006129ec8360068111156129df57634e487b7160e01b600052602160045260246000fd5b600160ff9091161b821790565b90506110d48260068111156129df57634e487b7160e01b600052602160045260246000fd5b612a19612b8a565b6000836004811115612a3b57634e487b7160e01b600052602160045260246000fd5b1415612a4a5760018152610767565b6001836004811115612a6c57634e487b7160e01b600052602160045260246000fd5b1415612a88576000546001600160a01b03166020820152610767565b6002836004811115612aaa57634e487b7160e01b600052602160045260246000fd5b1415612abc5760408101829052610767565b6003836004811115612ade57634e487b7160e01b600052602160045260246000fd5b1415612af05760608101829052610767565b6004836004811115612b1257634e487b7160e01b600052602160045260246000fd5b1415610767576000546001600160a01b0316608082015292915050565b600060016000836006811115612b5557634e487b7160e01b600052602160045260246000fd5b6006811115612b7457634e487b7160e01b600052602160045260246000fd5b8152602001908152602001600020549050919050565b6040518060a0016040528060001515815260200160006001600160a01b03168152602001606081526020016060815260200160006001600160a01b031681525090565b604051806040016040528060008152602001612be7612b8a565b905290565b6040518060c00160405280612bff612c27565b8152600060208201819052604082018190526060808301829052608083015260a09091015290565b604051806101200160405280612c3b612c88565b815260200160006001600160401b03168152602001600015158152602001600015158152602001600015158152602001606081526020016060815260200160608152602001606081525090565b604051806101200160405280606081526020016060815260200160006001600160a01b0316815260200160608152602001600015158152602001600060070b815260200160001515815260200160608152602001612be7604080516060810182526000808252602082018190529181019190915290565b8035612d0a816148d8565b919050565b8051612d0a816148d8565b600082601f830112612d2a578081fd5b81516020612d3f612d3a836147db565b6147ab565b8281528181019085830160a080860288018501891015612d5d578687fd5b865b86811015612de65781838b031215612d75578788fd5b612d7d6146fa565b8351612d888161490d565b815283870151612d97816148d8565b81880152604084810151612daa816148f0565b90820152606084810151612dbd816148f0565b90820152608084810151612dd0816148d8565b9082015285529385019391810191600101612d5f565b509198975050505050505050565b600082601f830112612e04578081fd5b81516020612e14612d3a836147db565b8281528181019085830160c080860288018501891015612e32578687fd5b865b86811015612de65781838b031215612e4a578788fd5b612e52614722565b8351612e5d8161490d565b815283870151612e6c8161490d565b81880152604084810151612e7f8161490d565b90820152606084810151612e928161490d565b90820152608084810151612ea5816148f0565b9082015260a084810151612eb8816148d8565b9082015285529385019391810191600101612e34565b600082601f830112612ede578081fd5b81516020612eee612d3a836147db565b8281528181019085830160c080860288018501891015612f0c578687fd5b865b86811015612de65781838b031215612f24578788fd5b612f2c614722565b8351612f378161490d565b815283870151612f468161490d565b81880152604084810151612f598161490d565b90820152606084810151612f6c816148d8565b90820152608084810151612f7f816148f0565b9082015260a084810151612f92816148d8565b9082015285529385019391810191600101612f0e565b600082601f830112612fb8578081fd5b81356020612fc8612d3a836147db565b80838252828201915082860187848660051b8901011115612fe7578586fd5b855b858110156130f35781356001600160401b0380821115613007578889fd5b90890190601f196040838d038201121561301f57898afd5b613027614744565b88840135815260408401358381111561303e578b8cfd5b939093019260a0848e0383011215613054578a8bfd5b61305c6146fa565b91508884013561306b816148f0565b825261307960408501612cff565b8983015260608401358381111561308e578b8cfd5b61309c8e8b838801016131d3565b6040840152506080840135838111156130b3578b8cfd5b6130c18e8b838801016131d3565b6060840152506130d360a08501612cff565b608083015280890191909152865250509284019290840190600101612fe9565b5090979650505050505050565b600082601f830112613110578081fd5b81516020613120612d3a836147db565b80838252828201915082860187848660051b890101111561313f578586fd5b855b858110156130f35781516001600160401b038082111561315f578889fd5b908901906040828c03601f190181131561317757898afd5b61317f614744565b838901518152908301519082821115613196578a8bfd5b6131a48d8a84870101613436565b818a015287525050509284019290840190600101613141565b8035612d0a816148f0565b8051612d0a816148f0565b600082601f8301126131e3578081fd5b81356131f1612d3a826147fe565b818152846020838601011115613205578283fd5b816020850160208301379081016020019190915292915050565b600082601f83011261322f578081fd5b815161323d612d3a826147fe565b818152846020838601011115613251578283fd5b61123d826020830160208701614825565b8051600381900b8114612d0a57600080fd5b8035612d0a816148fe565b8051612d0a816148fe565b60006060828403121561329b578081fd5b6132a3614766565b905081356132b08161490d565b815260208201356132c0816148d8565b602082015260408201356132d38161490d565b604082015292915050565b6000606082840312156132ef578081fd5b6132f7614766565b905081516133048161490d565b81526020820151613314816148d8565b602082015260408201516132d38161490d565b60006101608284031215613339578081fd5b613341614788565b905081516001600160401b038082111561335a57600080fd5b6133668583860161321f565b8352602084015191508082111561337c57600080fd5b6133888583860161321f565b602084015261339960408501612d0f565b604084015260608401519150808211156133b257600080fd5b6133be8583860161321f565b60608401526133cf608085016131c8565b60808401526133e060a0850161327f565b60a08401526133f160c085016131c8565b60c084015260e084015191508082111561340a57600080fd5b5061341784828501613100565b60e08301525061010061342c848285016132de565b9082015292915050565b600060a08284031215613447578081fd5b61344f6146fa565b9050815161345c816148f0565b8152602082015161346c816148d8565b602082015260408201516001600160401b038082111561348b57600080fd5b6134978583860161321f565b604084015260608401519150808211156134b057600080fd5b506134bd8482850161321f565b6060830152506134cf60808301612d0f565b608082015292915050565b600061012082840312156134ec578081fd5b6134f4614788565b905081516001600160401b038082111561350d57600080fd5b61351985838601613327565b8352613527602085016135fd565b6020840152613538604085016131c8565b6040840152613549606085016131c8565b606084015261355a608085016131c8565b608084015260a084015191508082111561357357600080fd5b61357f85838601612d1a565b60a084015260c084015191508082111561359857600080fd5b6135a485838601612df4565b60c084015260e08401519150808211156135bd57600080fd5b6135c985838601612ece565b60e0840152610100915081840151818111156135e457600080fd5b6135f08682870161321f565b8385015250505092915050565b8051612d0a8161491f565b600060208284031215613619578081fd5b81356110d4816148d8565b60008060408385031215613636578081fd5b8235613641816148d8565b91506020830135613651816148d8565b809150509250929050565b60008060008060808587031215613671578182fd5b843561367c816148d8565b9350602085013561368c816148d8565b9250604085013561369c816148d8565b915060608501356136ac816148fe565b939692955090935050565b6000806000606084860312156136cb578081fd5b83356136d6816148d8565b92506020848101356136e7816148d8565b925060408501356001600160401b03811115613701578283fd5b8501601f81018713613711578283fd5b803561371f612d3a826147db565b8082825284820191508484018a868560051b870101111561373e578687fd5b8694505b83851015613769578035613755816148fe565b835260019490940193918501918501613742565b5080955050505050509250925092565b60008060006060848603121561378d578081fd5b8335613798816148d8565b925060208401356137a8816148d8565b915060408401356137b8816148fe565b809150509250925092565b6000806000606084860312156137d7578081fd5b83356137e2816148d8565b925060208401356137f2816148d8565b915060408401356137b88161490d565b60008060408385031215613814578182fd5b823561381f816148d8565b915060208301356001600160401b03811115613839578182fd5b61384585828601612fa8565b9150509250929050565b60008060408385031215613861578182fd5b823561386c816148d8565b91506020830135613651816148fe565b6000806080838503121561388e578182fd5b8235613899816148d8565b91506138a8846020850161328a565b90509250929050565b600080604083850312156138c3578182fd5b82356138ce816148d8565b915060208301356001600160401b03808211156138e9578283fd5b9084019061016082870312156138fd578283fd5b613905614788565b823582811115613913578485fd5b61391f888286016131d3565b825250602083013582811115613933578485fd5b61393f888286016131d3565b60208301525061395160408401612cff565b6040820152606083013582811115613967578485fd5b613973888286016131d3565b606083015250613985608084016131bd565b608082015261399660a08401613274565b60a08201526139a760c084016131bd565b60c082015260e0830135828111156139bd578485fd5b6139c988828601612fa8565b60e08301525061010091506139e08783850161328a565b828201528093505050509250929050565b60008060408385031215613a03578182fd5b8235613a0e816148d8565b946020939093013593505050565b600080600060608486031215613a30578081fd5b8335613a3b816148d8565b9250602084810135613a4c8161491f565b925060408501356001600160401b0380821115613a67578384fd5b818701915087601f830112613a7a578384fd5b8135613a88612d3a826147db565b8082825285820191508585018b878560051b8801011115613aa7578788fd5b875b84811015613ae057813586811115613abf57898afd5b613acd8e8a838b01016131d3565b8552509287019290870190600101613aa9565b50508096505050505050509250925092565b600060208284031215613b03578081fd5b81356110d4816148f0565b600060208284031215613b1f578081fd5b5051919050565b60008060808385031215613b38578182fd5b825191506138a884602085016132de565b600060208284031215613b5a578081fd5b6110d482613262565b60008060408385031215613b75578182fd5b613b7e83613262565b91506020830151613651816148d8565b60008060408385031215613ba0578182fd5b613ba983613262565b91506020830151613651816148f0565b60008060408385031215613bcb578182fd5b613bd483613262565b91506138a860208401613262565b60008060808385031215613bf4578182fd5b613bfd83613262565b91506138a884602085016132de565b60008060408385031215613c1e578182fd5b613c2783613262565b915060208301516001600160401b03811115613c41578182fd5b61384585828601613436565b60008060408385031215613c5f578182fd5b613c6883613262565b915060208301516001600160401b0380821115613c83578283fd5b9084019060c08287031215613c96578283fd5b613c9e614722565b825182811115613cac578485fd5b613cb8888286016134da565b825250613cc76020840161327f565b6020820152613cd860408401612d0f565b6040820152613ce96060840161327f565b6060820152608083015182811115613cff578485fd5b613d0b8882860161321f565b608083015250613d1d60a08401612d0f565b60a08201528093505050509250929050565b60008060408385031215613d41578182fd5b613d4a83613262565b915060208301516001600160401b03811115613d64578182fd5b613845858286016134da565b600080600060608486031215613d84578081fd5b613d8d84613262565b9250602080850151613d9e8161491f565b60408601519093506001600160401b03811115613db9578283fd5b8501601f81018713613dc9578283fd5b8051613dd7612d3a826147db565b8082825284820191508484018a868560051b8701011115613df6578687fd5b8694505b83851015613769578051613e0d816148fe565b835260019490940193918501918501613dfa565b600060208284031215613e32578081fd5b81516110d4816148fe565b6000815180845260208085019450808401835b83811015613e6f57815160070b87529582019590820190600101613e50565b509495945050505050565b6000815180845260208085019450808401835b83811015613e6f578151805163ffffffff168852838101516001600160a01b03908116858a01526040808301511515908a01526060808301511515908a0152608091820151169088015260a09096019590820190600101613e8d565b6000815180845260208085019450808401835b83811015613e6f578151805163ffffffff9081168952848201518116858a01526040808301518216908a01526060808301519091169089015260808082015115159089015260a0908101516001600160a01b03169088015260c09096019590820190600101613efc565b6000815180845260208085019450808401835b83811015613e6f57815180516001600160a01b03908116895284820151168489015260409081015160070b9088015260609096019590820190600101613f79565b6000815180845260208085019450808401835b83811015613e6f578151805163ffffffff9081168952848201518116858a0152604080830151909116908901526060808201516001600160a01b03908116918a01919091526080808301511515908a015260a091820151169088015260c09096019590820190600101613fcd565b600081518084526020808501808196508360051b81019150828601855b858110156140965782840389528151805185528501516040868601819052614082818701836141d6565b9a87019a9550505090840190600101614058565b5091979650505050505050565b600081518084526140bb816020860160208601614825565b601f01601f19169290920160200192915050565b805163ffffffff90811683526020808301516001600160a01b03169084015260409182015116910152565b60006101608251818552614110828601826140a3565b9150506020830151848203602086015261412a82826140a3565b915050604083015161414760408601826001600160a01b03169052565b506060830151848203606086015261415f82826140a3565b9150506080830151614175608086018215159052565b5060a083015161418a60a086018260070b9052565b5060c083015161419e60c086018215159052565b5060e083015184820360e08601526141b6828261403b565b915050610100808401516141cc828701826140cf565b5090949350505050565b8051151582526000602082015160018060a01b0380821660208601526040840151915060a0604086015261420d60a08601836140a3565b91506060840151858303606087015261422683826140a3565b925050806080850151166080860152508091505092915050565b6000815160c0845261425560c08501826142b8565b9050602083015160070b6020850152604083015160018060a01b038082166040870152606085015160070b606087015260808501519150858303608087015261429e83836140a3565b92508060a08601511660a087015250508091505092915050565b600061012082518185526142ce828601826140fa565b91505060208301516142eb60208601826001600160401b03169052565b5060408301516142ff604086018215159052565b506060830151614313606086018215159052565b506080830151614327608086018215159052565b5060a083015184820360a086015261433f8282613e7a565b91505060c083015184820360c08601526143598282613ee9565b91505060e083015184820360e08601526143738282613fba565b915050610100808401518583038287015261438e83826140a3565b9695505050505050565b600082516143aa818460208701614825565b9190910192915050565b6001600160a01b0392831681529116602082015260400190565b6001600160a01b038481168252831660208201526060604082018190526000906143fa90830184613e3d565b95945050505050565b6001600160a01b038316815260406020820181905260009061123d9083018461403b565b6001600160a01b0383168152608081016110d460208301846140cf565b6001600160a01b038316815260406020820181905260009061123d908301846140fa565b60006060820160018060a01b038616835260206001600160401b038616818501526060604085015281855180845260808601915060808160051b8701019350828701855b828110156144da57607f198887030184526144c88683516140a3565b955092840192908401906001016144ac565b50939998505050505050505050565b60006020808301818452808551808352604092508286019150828160051b870101848801865b838110156145ae57888303603f19018552815180516001600160a01b0390811685528882015160608a870181905281519087018190526080870192918b0191908c905b808210156145805783518051841686528d015160070b8d860152938b0193928c019260019190910190614552565b5050505090870151848203858901529061459a8183613f66565b96890196945050509086019060010161450f565b509098975050505050505050565b828152608081016110d460208301846140cf565b82815260406020820152600061123d6040830184614240565b82815260406020820152600061123d60408301846142b8565b8381526001600160401b03831660208201526060604082015260006143fa6060830184613e3d565b8260070b815260406020820152600061123d60408301846141d6565b6060810161076782846140cf565b6020815260006110d460208301846140fa565b60608152600061467a60608301866140fa565b90506001600160401b038416602083015263ffffffff83166040830152949350505050565b6020815260006110d460208301846141d6565b6020815260006110d46020830184614240565b6020815260006110d460208301846142b8565b6001600160401b038316815260406020820152600061123d6040830184613e3d565b60405160a081016001600160401b038111828210171561471c5761471c6148c2565b60405290565b60405160c081016001600160401b038111828210171561471c5761471c6148c2565b604080519081016001600160401b038111828210171561471c5761471c6148c2565b604051606081016001600160401b038111828210171561471c5761471c6148c2565b60405161012081016001600160401b038111828210171561471c5761471c6148c2565b604051601f8201601f191681016001600160401b03811182821017156147d3576147d36148c2565b604052919050565b60006001600160401b038211156147f4576147f46148c2565b5060051b60200190565b60006001600160401b03821115614817576148176148c2565b50601f01601f191660200190565b60005b83811015614840578181015183820152602001614828565b8381111561484f576000848401525b50505050565b600181811c9082168061486957607f821691505b6020821081141561488a57634e487b7160e01b600052602260045260246000fd5b50919050565b60008160070b677fffffffffffffff198114156148bb57634e487b7160e01b82526011600452602482fd5b9003919050565b634e487b7160e01b600052604160045260246000fd5b6001600160a01b03811681146148ed57600080fd5b50565b80151581146148ed57600080fd5b8060070b81146148ed57600080fd5b63ffffffff811681146148ed57600080fd5b6001600160401b03811681146148ed57600080fdfe90a5cf4cffe88b4edbb041cfc7a8a812c48a5ec30b84640fb37690875168e3aaa2646970667358221220d17b7769936ffcd3e8bd588e1a378c4cc5047c2e50e0773f974154ffee64f0a164736f6c63430008040033",
  "linkReferences": {},
  "deployedLinkReferences": {}
}