{
  "_format": "hh-sol-artifact-1",
  "contractName": "TokenCreateContract",
  "sourceName": "contracts/TokenCreateContract.sol",
  "abi": [
    {
      "anonymous": false,
      "inputs": [
        {
          "indexed": false,
          "internalType": "uint256",
          "name": "amount",
          "type": "uint256"
        }
      ],
      "name": "AllowanceValue",
      "type": "event"
    },
    {
      "anonymous": false,
      "inputs": [
        {
          "indexed": false,
          "internalType": "bool",
          "name": "approved",
          "type": "bool"
        }
      ],
      "name": "Approved",
      "type": "event"
    },
    {
      "anonymous": false,
      "inputs": [
        {
          "indexed": false,
          "internalType": "address",
          "name": "approved",
          "type": "address"
        }
      ],
      "name": "ApprovedAddress",
      "type": "event"
    },
    {
      "anonymous": false,
      "inputs": [
        {
          "indexed": false,
          "internalType": "address",
          "name": "tokenAddress",
          "type": "address"
        }
      ],
      "name": "CreatedToken",
      "type": "event"
    },
    {
      "anonymous": false,
      "inputs": [
        {
          "components": [
            {
              "components": [
                {
                  "components": [
                    {
                      "internalType": "string",
                      "name": "name",
                      "type": "string"
                    },
                    {
                      "internalType": "string",
                      "name": "symbol",
                      "type": "string"
                    },
                    {
                      "internalType": "address",
                      "name": "treasury",
                      "type": "address"
                    },
                    {
                      "internalType": "string",
                      "name": "memo",
                      "type": "string"
                    },
                    {
                      "internalType": "bool",
                      "name": "tokenSupplyType",
                      "type": "bool"
                    },
                    {
                      "internalType": "int64",
                      "name": "maxSupply",
                      "type": "int64"
                    },
                    {
                      "internalType": "bool",
                      "name": "freezeDefault",
                      "type": "bool"
                    },
                    {
                      "components": [
                        {
                          "internalType": "uint256",
                          "name": "keyType",
                          "type": "uint256"
                        },
                        {
                          "components": [
                            {
                              "internalType": "bool",
                              "name": "inheritAccountKey",
                              "type": "bool"
                            },
                            {
                              "internalType": "address",
                              "name": "contractId",
                              "type": "address"
                            },
                            {
                              "internalType": "bytes",
                              "name": "ed25519",
                              "type": "bytes"
                            },
                            {
                              "internalType": "bytes",
                              "name": "ECDSA_secp256k1",
                              "type": "bytes"
                            },
                            {
                              "internalType": "address",
                              "name": "delegatableContractId",
                              "type": "address"
                            }
                          ],
                          "internalType": "struct IHederaTokenService.KeyValue",
                          "name": "key",
                          "type": "tuple"
                        }
                      ],
                      "internalType": "struct IHederaTokenService.TokenKey[]",
                      "name": "tokenKeys",
                      "type": "tuple[]"
                    },
                    {
                      "components": [
                        {
                          "internalType": "uint32",
                          "name": "second",
                          "type": "uint32"
                        },
                        {
                          "internalType": "address",
                          "name": "autoRenewAccount",
                          "type": "address"
                        },
                        {
                          "internalType": "uint32",
                          "name": "autoRenewPeriod",
                          "type": "uint32"
                        }
                      ],
                      "internalType": "struct IHederaTokenService.Expiry",
                      "name": "expiry",
                      "type": "tuple"
                    }
                  ],
                  "internalType": "struct IHederaTokenService.HederaToken",
                  "name": "token",
                  "type": "tuple"
                },
                {
                  "internalType": "uint64",
                  "name": "totalSupply",
                  "type": "uint64"
                },
                {
                  "internalType": "bool",
                  "name": "deleted",
                  "type": "bool"
                },
                {
                  "internalType": "bool",
                  "name": "defaultKycStatus",
                  "type": "bool"
                },
                {
                  "internalType": "bool",
                  "name": "pauseStatus",
                  "type": "bool"
                },
                {
                  "components": [
                    {
                      "internalType": "uint32",
                      "name": "amount",
                      "type": "uint32"
                    },
                    {
                      "internalType": "address",
                      "name": "tokenId",
                      "type": "address"
                    },
                    {
                      "internalType": "bool",
                      "name": "useHbarsForPayment",
                      "type": "bool"
                    },
                    {
                      "internalType": "bool",
                      "name": "useCurrentTokenForPayment",
                      "type": "bool"
                    },
                    {
                      "internalType": "address",
                      "name": "feeCollector",
                      "type": "address"
                    }
                  ],
                  "internalType": "struct IHederaTokenService.FixedFee[]",
                  "name": "fixedFees",
                  "type": "tuple[]"
                },
                {
                  "components": [
                    {
                      "internalType": "uint32",
                      "name": "numerator",
                      "type": "uint32"
                    },
                    {
                      "internalType": "uint32",
                      "name": "denominator",
                      "type": "uint32"
                    },
                    {
                      "internalType": "uint32",
                      "name": "minimumAmount",
                      "type": "uint32"
                    },
                    {
                      "internalType": "uint32",
                      "name": "maximumAmount",
                      "type": "uint32"
                    },
                    {
                      "internalType": "bool",
                      "name": "netOfTransfers",
                      "type": "bool"
                    },
                    {
                      "internalType": "address",
                      "name": "feeCollector",
                      "type": "address"
                    }
                  ],
                  "internalType": "struct IHederaTokenService.FractionalFee[]",
                  "name": "fractionalFees",
                  "type": "tuple[]"
                },
                {
                  "components": [
                    {
                      "internalType": "uint32",
                      "name": "numerator",
                      "type": "uint32"
                    },
                    {
                      "internalType": "uint32",
                      "name": "denominator",
                      "type": "uint32"
                    },
                    {
                      "internalType": "uint32",
                      "name": "amount",
                      "type": "uint32"
                    },
                    {
                      "internalType": "address",
                      "name": "tokenId",
                      "type": "address"
                    },
                    {
                      "internalType": "bool",
                      "name": "useHbarsForPayment",
                      "type": "bool"
                    },
                    {
                      "internalType": "address",
                      "name": "feeCollector",
                      "type": "address"
                    }
                  ],
                  "internalType": "struct IHederaTokenService.RoyaltyFee[]",
                  "name": "royaltyFees",
                  "type": "tuple[]"
                },
                {
                  "internalType": "string",
                  "name": "ledgerId",
                  "type": "string"
                }
              ],
              "internalType": "struct IHederaTokenService.TokenInfo",
              "name": "tokenInfo",
              "type": "tuple"
            },
            {
              "internalType": "uint32",
              "name": "decimals",
              "type": "uint32"
            }
          ],
          "indexed": false,
          "internalType": "struct IHederaTokenService.FungibleTokenInfo",
          "name": "tokenInfo",
          "type": "tuple"
        }
      ],
      "name": "FungibleTokenInfo",
      "type": "event"
    },
    {
      "anonymous": false,
      "inputs": [
        {
          "indexed": false,
          "internalType": "bool",
          "name": "kycGranted",
          "type": "bool"
        }
      ],
      "name": "KycGranted",
      "type": "event"
    },
    {
      "anonymous": false,
      "inputs": [
        {
          "indexed": false,
          "internalType": "uint64",
          "name": "newTotalSupply",
          "type": "uint64"
        },
        {
          "indexed": false,
          "internalType": "int64[]",
          "name": "serialNumbers",
          "type": "int64[]"
        }
      ],
      "name": "MintedToken",
      "type": "event"
    },
    {
      "anonymous": false,
      "inputs": [
        {
          "components": [
            {
              "components": [
                {
                  "components": [
                    {
                      "internalType": "string",
                      "name": "name",
                      "type": "string"
                    },
                    {
                      "internalType": "string",
                      "name": "symbol",
                      "type": "string"
                    },
                    {
                      "internalType": "address",
                      "name": "treasury",
                      "type": "address"
                    },
                    {
                      "internalType": "string",
                      "name": "memo",
                      "type": "string"
                    },
                    {
                      "internalType": "bool",
                      "name": "tokenSupplyType",
                      "type": "bool"
                    },
                    {
                      "internalType": "int64",
                      "name": "maxSupply",
                      "type": "int64"
                    },
                    {
                      "internalType": "bool",
                      "name": "freezeDefault",
                      "type": "bool"
                    },
                    {
                      "components": [
                        {
                          "internalType": "uint256",
                          "name": "keyType",
                          "type": "uint256"
                        },
                        {
                          "components": [
                            {
                              "internalType": "bool",
                              "name": "inheritAccountKey",
                              "type": "bool"
                            },
                            {
                              "internalType": "address",
                              "name": "contractId",
                              "type": "address"
                            },
                            {
                              "internalType": "bytes",
                              "name": "ed25519",
                              "type": "bytes"
                            },
                            {
                              "internalType": "bytes",
                              "name": "ECDSA_secp256k1",
                              "type": "bytes"
                            },
                            {
                              "internalType": "address",
                              "name": "delegatableContractId",
                              "type": "address"
                            }
                          ],
                          "internalType": "struct IHederaTokenService.KeyValue",
                          "name": "key",
                          "type": "tuple"
                        }
                      ],
                      "internalType": "struct IHederaTokenService.TokenKey[]",
                      "name": "tokenKeys",
                      "type": "tuple[]"
                    },
                    {
                      "components": [
                        {
                          "internalType": "uint32",
                          "name": "second",
                          "type": "uint32"
                        },
                        {
                          "internalType": "address",
                          "name": "autoRenewAccount",
                          "type": "address"
                        },
                        {
                          "internalType": "uint32",
                          "name": "autoRenewPeriod",
                          "type": "uint32"
                        }
                      ],
                      "internalType": "struct IHederaTokenService.Expiry",
                      "name": "expiry",
                      "type": "tuple"
                    }
                  ],
                  "internalType": "struct IHederaTokenService.HederaToken",
                  "name": "token",
                  "type": "tuple"
                },
                {
                  "internalType": "uint64",
                  "name": "totalSupply",
                  "type": "uint64"
                },
                {
                  "internalType": "bool",
                  "name": "deleted",
                  "type": "bool"
                },
                {
                  "internalType": "bool",
                  "name": "defaultKycStatus",
                  "type": "bool"
                },
                {
                  "internalType": "bool",
                  "name": "pauseStatus",
                  "type": "bool"
                },
                {
                  "components": [
                    {
                      "internalType": "uint32",
                      "name": "amount",
                      "type": "uint32"
                    },
                    {
                      "internalType": "address",
                      "name": "tokenId",
                      "type": "address"
                    },
                    {
                      "internalType": "bool",
                      "name": "useHbarsForPayment",
                      "type": "bool"
                    },
                    {
                      "internalType": "bool",
                      "name": "useCurrentTokenForPayment",
                      "type": "bool"
                    },
                    {
                      "internalType": "address",
                      "name": "feeCollector",
                      "type": "address"
                    }
                  ],
                  "internalType": "struct IHederaTokenService.FixedFee[]",
                  "name": "fixedFees",
                  "type": "tuple[]"
                },
                {
                  "components": [
                    {
                      "internalType": "uint32",
                      "name": "numerator",
                      "type": "uint32"
                    },
                    {
                      "internalType": "uint32",
                      "name": "denominator",
                      "type": "uint32"
                    },
                    {
                      "internalType": "uint32",
                      "name": "minimumAmount",
                      "type": "uint32"
                    },
                    {
                      "internalType": "uint32",
                      "name": "maximumAmount",
                      "type": "uint32"
                    },
                    {
                      "internalType": "bool",
                      "name": "netOfTransfers",
                      "type": "bool"
                    },
                    {
                      "internalType": "address",
                      "name": "feeCollector",
                      "type": "address"
                    }
                  ],
                  "internalType": "struct IHederaTokenService.FractionalFee[]",
                  "name": "fractionalFees",
                  "type": "tuple[]"
                },
                {
                  "components": [
                    {
                      "internalType": "uint32",
                      "name": "numerator",
                      "type": "uint32"
                    },
                    {
                      "internalType": "uint32",
                      "name": "denominator",
                      "type": "uint32"
                    },
                    {
                      "internalType": "uint32",
                      "name": "amount",
                      "type": "uint32"
                    },
                    {
                      "internalType": "address",
                      "name": "tokenId",
                      "type": "address"
                    },
                    {
                      "internalType": "bool",
                      "name": "useHbarsForPayment",
                      "type": "bool"
                    },
                    {
                      "internalType": "address",
                      "name": "feeCollector",
                      "type": "address"
                    }
                  ],
                  "internalType": "struct IHederaTokenService.RoyaltyFee[]",
                  "name": "royaltyFees",
                  "type": "tuple[]"
                },
                {
                  "internalType": "string",
                  "name": "ledgerId",
                  "type": "string"
                }
              ],
              "internalType": "struct IHederaTokenService.TokenInfo",
              "name": "tokenInfo",
              "type": "tuple"
            },
            {
              "internalType": "int64",
              "name": "serialNumber",
              "type": "int64"
            },
            {
              "internalType": "address",
              "name": "ownerId",
              "type": "address"
            },
            {
              "internalType": "int64",
              "name": "creationTime",
              "type": "int64"
            },
            {
              "internalType": "bytes",
              "name": "metadata",
              "type": "bytes"
            },
            {
              "internalType": "address",
              "name": "spenderId",
              "type": "address"
            }
          ],
          "indexed": false,
          "internalType": "struct IHederaTokenService.NonFungibleTokenInfo",
          "name": "tokenInfo",
          "type": "tuple"
        }
      ],
      "name": "NonFungibleTokenInfo",
      "type": "event"
    },
    {
      "anonymous": false,
      "inputs": [
        {
          "indexed": false,
          "internalType": "int256",
          "name": "responseCode",
          "type": "int256"
        }
      ],
      "name": "ResponseCode",
      "type": "event"
    },
    {
      "anonymous": false,
      "inputs": [
        {
          "components": [
            {
              "internalType": "uint32",
              "name": "amount",
              "type": "uint32"
            },
            {
              "internalType": "address",
              "name": "tokenId",
              "type": "address"
            },
            {
              "internalType": "bool",
              "name": "useHbarsForPayment",
              "type": "bool"
            },
            {
              "internalType": "bool",
              "name": "useCurrentTokenForPayment",
              "type": "bool"
            },
            {
              "internalType": "address",
              "name": "feeCollector",
              "type": "address"
            }
          ],
          "indexed": false,
          "internalType": "struct IHederaTokenService.FixedFee[]",
          "name": "fixedFees",
          "type": "tuple[]"
        },
        {
          "components": [
            {
              "internalType": "uint32",
              "name": "numerator",
              "type": "uint32"
            },
            {
              "internalType": "uint32",
              "name": "denominator",
              "type": "uint32"
            },
            {
              "internalType": "uint32",
              "name": "minimumAmount",
              "type": "uint32"
            },
            {
              "internalType": "uint32",
              "name": "maximumAmount",
              "type": "uint32"
            },
            {
              "internalType": "bool",
              "name": "netOfTransfers",
              "type": "bool"
            },
            {
              "internalType": "address",
              "name": "feeCollector",
              "type": "address"
            }
          ],
          "indexed": false,
          "internalType": "struct IHederaTokenService.FractionalFee[]",
          "name": "fractionalFees",
          "type": "tuple[]"
        },
        {
          "components": [
            {
              "internalType": "uint32",
              "name": "numerator",
              "type": "uint32"
            },
            {
              "internalType": "uint32",
              "name": "denominator",
              "type": "uint32"
            },
            {
              "internalType": "uint32",
              "name": "amount",
              "type": "uint32"
            },
            {
              "internalType": "address",
              "name": "tokenId",
              "type": "address"
            },
            {
              "internalType": "bool",
              "name": "useHbarsForPayment",
              "type": "bool"
            },
            {
              "internalType": "address",
              "name": "feeCollector",
              "type": "address"
            }
          ],
          "indexed": false,
          "internalType": "struct IHederaTokenService.RoyaltyFee[]",
          "name": "royaltyFees",
          "type": "tuple[]"
        }
      ],
      "name": "TokenCustomFees",
      "type": "event"
    },
    {
      "anonymous": false,
      "inputs": [
        {
          "indexed": false,
          "internalType": "bool",
          "name": "defaultKycStatus",
          "type": "bool"
        }
      ],
      "name": "TokenDefaultKycStatus",
      "type": "event"
    },
    {
      "anonymous": false,
      "inputs": [
        {
          "components": [
            {
              "components": [
                {
                  "internalType": "string",
                  "name": "name",
                  "type": "string"
                },
                {
                  "internalType": "string",
                  "name": "symbol",
                  "type": "string"
                },
                {
                  "internalType": "address",
                  "name": "treasury",
                  "type": "address"
                },
                {
                  "internalType": "string",
                  "name": "memo",
                  "type": "string"
                },
                {
                  "internalType": "bool",
                  "name": "tokenSupplyType",
                  "type": "bool"
                },
                {
                  "internalType": "int64",
                  "name": "maxSupply",
                  "type": "int64"
                },
                {
                  "internalType": "bool",
                  "name": "freezeDefault",
                  "type": "bool"
                },
                {
                  "components": [
                    {
                      "internalType": "uint256",
                      "name": "keyType",
                      "type": "uint256"
                    },
                    {
                      "components": [
                        {
                          "internalType": "bool",
                          "name": "inheritAccountKey",
                          "type": "bool"
                        },
                        {
                          "internalType": "address",
                          "name": "contractId",
                          "type": "address"
                        },
                        {
                          "internalType": "bytes",
                          "name": "ed25519",
                          "type": "bytes"
                        },
                        {
                          "internalType": "bytes",
                          "name": "ECDSA_secp256k1",
                          "type": "bytes"
                        },
                        {
                          "internalType": "address",
                          "name": "delegatableContractId",
                          "type": "address"
                        }
                      ],
                      "internalType": "struct IHederaTokenService.KeyValue",
                      "name": "key",
                      "type": "tuple"
                    }
                  ],
                  "internalType": "struct IHederaTokenService.TokenKey[]",
                  "name": "tokenKeys",
                  "type": "tuple[]"
                },
                {
                  "components": [
                    {
                      "internalType": "uint32",
                      "name": "second",
                      "type": "uint32"
                    },
                    {
                      "internalType": "address",
                      "name": "autoRenewAccount",
                      "type": "address"
                    },
                    {
                      "internalType": "uint32",
                      "name": "autoRenewPeriod",
                      "type": "uint32"
                    }
                  ],
                  "internalType": "struct IHederaTokenService.Expiry",
                  "name": "expiry",
                  "type": "tuple"
                }
              ],
              "internalType": "struct IHederaTokenService.HederaToken",
              "name": "token",
              "type": "tuple"
            },
            {
              "internalType": "uint64",
              "name": "totalSupply",
              "type": "uint64"
            },
            {
              "internalType": "bool",
              "name": "deleted",
              "type": "bool"
            },
            {
              "internalType": "bool",
              "name": "defaultKycStatus",
              "type": "bool"
            },
            {
              "internalType": "bool",
              "name": "pauseStatus",
              "type": "bool"
            },
            {
              "components": [
                {
                  "internalType": "uint32",
                  "name": "amount",
                  "type": "uint32"
                },
                {
                  "internalType": "address",
                  "name": "tokenId",
                  "type": "address"
                },
                {
                  "internalType": "bool",
                  "name": "useHbarsForPayment",
                  "type": "bool"
                },
                {
                  "internalType": "bool",
                  "name": "useCurrentTokenForPayment",
                  "type": "bool"
                },
                {
                  "internalType": "address",
                  "name": "feeCollector",
                  "type": "address"
                }
              ],
              "internalType": "struct IHederaTokenService.FixedFee[]",
              "name": "fixedFees",
              "type": "tuple[]"
            },
            {
              "components": [
                {
                  "internalType": "uint32",
                  "name": "numerator",
                  "type": "uint32"
                },
                {
                  "internalType": "uint32",
                  "name": "denominator",
                  "type": "uint32"
                },
                {
                  "internalType": "uint32",
                  "name": "minimumAmount",
                  "type": "uint32"
                },
                {
                  "internalType": "uint32",
                  "name": "maximumAmount",
                  "type": "uint32"
                },
                {
                  "internalType": "bool",
                  "name": "netOfTransfers",
                  "type": "bool"
                },
                {
                  "internalType": "address",
                  "name": "feeCollector",
                  "type": "address"
                }
              ],
              "internalType": "struct IHederaTokenService.FractionalFee[]",
              "name": "fractionalFees",
              "type": "tuple[]"
            },
            {
              "components": [
                {
                  "internalType": "uint32",
                  "name": "numerator",
                  "type": "uint32"
                },
                {
                  "internalType": "uint32",
                  "name": "denominator",
                  "type": "uint32"
                },
                {
                  "internalType": "uint32",
                  "name": "amount",
                  "type": "uint32"
                },
                {
                  "internalType": "address",
                  "name": "tokenId",
                  "type": "address"
                },
                {
                  "internalType": "bool",
                  "name": "useHbarsForPayment",
                  "type": "bool"
                },
                {
                  "internalType": "address",
                  "name": "feeCollector",
                  "type": "address"
                }
              ],
              "internalType": "struct IHederaTokenService.RoyaltyFee[]",
              "name": "royaltyFees",
              "type": "tuple[]"
            },
            {
              "internalType": "string",
              "name": "ledgerId",
              "type": "string"
            }
          ],
          "indexed": false,
          "internalType": "struct IHederaTokenService.TokenInfo",
          "name": "tokenInfo",
          "type": "tuple"
        }
      ],
      "name": "TokenInfo",
      "type": "event"
    },
    {
      "inputs": [
        {
          "internalType": "address",
          "name": "token",
          "type": "address"
        },
        {
          "internalType": "address",
          "name": "owner",
          "type": "address"
        },
        {
          "internalType": "address",
          "name": "spender",
          "type": "address"
        }
      ],
      "name": "allowancePublic",
      "outputs": [
        {
          "internalType": "int256",
          "name": "responseCode",
          "type": "int256"
        },
        {
          "internalType": "uint256",
          "name": "amount",
          "type": "uint256"
        }
      ],
      "stateMutability": "nonpayable",
      "type": "function"
    },
    {
      "inputs": [
        {
          "internalType": "address",
          "name": "token",
          "type": "address"
        },
        {
          "internalType": "address",
          "name": "approved",
          "type": "address"
        },
        {
          "internalType": "uint256",
          "name": "serialNumber",
          "type": "uint256"
        }
      ],
      "name": "approveNFTPublic",
      "outputs": [
        {
          "internalType": "int256",
          "name": "responseCode",
          "type": "int256"
        }
      ],
      "stateMutability": "nonpayable",
      "type": "function"
    },
    {
      "inputs": [
        {
          "internalType": "address",
          "name": "token",
          "type": "address"
        },
        {
          "internalType": "address",
          "name": "spender",
          "type": "address"
        },
        {
          "internalType": "uint256",
          "name": "amount",
          "type": "uint256"
        }
      ],
      "name": "approvePublic",
      "outputs": [
        {
          "internalType": "int256",
          "name": "responseCode",
          "type": "int256"
        }
      ],
      "stateMutability": "nonpayable",
      "type": "function"
    },
    {
      "inputs": [
        {
          "internalType": "address",
          "name": "account",
          "type": "address"
        },
        {
          "internalType": "address",
          "name": "token",
          "type": "address"
        }
      ],
      "name": "associateTokenPublic",
      "outputs": [
        {
          "internalType": "int256",
          "name": "responseCode",
          "type": "int256"
        }
      ],
      "stateMutability": "nonpayable",
      "type": "function"
    },
    {
      "inputs": [
        {
          "internalType": "address",
          "name": "treasury",
          "type": "address"
        }
      ],
      "name": "createFungibleTokenPublic",
      "outputs": [],
      "stateMutability": "payable",
      "type": "function"
    },
    {
      "inputs": [
        {
          "internalType": "address",
          "name": "treasury",
          "type": "address"
        },
        {
          "internalType": "address",
          "name": "fixedFeeTokenAddress",
          "type": "address"
        }
      ],
      "name": "createFungibleTokenWithCustomFeesPublic",
      "outputs": [],
      "stateMutability": "payable",
      "type": "function"
    },
    {
      "inputs": [
        {
          "internalType": "address",
          "name": "treasury",
          "type": "address"
        }
      ],
      "name": "createNonFungibleTokenPublic",
      "outputs": [],
      "stateMutability": "payable",
      "type": "function"
    },
    {
      "inputs": [
        {
          "components": [
            {
              "internalType": "address",
              "name": "token",
              "type": "address"
            },
            {
              "components": [
                {
                  "internalType": "address",
                  "name": "accountID",
                  "type": "address"
                },
                {
                  "internalType": "int64",
                  "name": "amount",
                  "type": "int64"
                }
              ],
              "internalType": "struct IHederaTokenService.AccountAmount[]",
              "name": "transfers",
              "type": "tuple[]"
            },
            {
              "components": [
                {
                  "internalType": "address",
                  "name": "senderAccountID",
                  "type": "address"
                },
                {
                  "internalType": "address",
                  "name": "receiverAccountID",
                  "type": "address"
                },
                {
                  "internalType": "int64",
                  "name": "serialNumber",
                  "type": "int64"
                }
              ],
              "internalType": "struct IHederaTokenService.NftTransfer[]",
              "name": "nftTransfers",
              "type": "tuple[]"
            }
          ],
          "internalType": "struct IHederaTokenService.TokenTransferList[]",
          "name": "tokenTransferList",
          "type": "tuple[]"
        }
      ],
      "name": "cryptoTransferPublic",
      "outputs": [
        {
          "internalType": "int256",
          "name": "responseCode",
          "type": "int256"
        }
      ],
      "stateMutability": "nonpayable",
      "type": "function"
    },
    {
      "inputs": [
        {
          "internalType": "address",
          "name": "account",
          "type": "address"
        },
        {
          "internalType": "address",
          "name": "token",
          "type": "address"
        },
        {
          "internalType": "int64",
          "name": "amount",
          "type": "int64"
        }
      ],
      "name": "cryptoTransferTokenPublic",
      "outputs": [
        {
          "internalType": "int256",
          "name": "responseCode",
          "type": "int256"
        }
      ],
      "stateMutability": "nonpayable",
      "type": "function"
    },
    {
      "inputs": [
        {
          "internalType": "address",
          "name": "token",
          "type": "address"
        }
      ],
      "name": "deleteTokenPublic",
      "outputs": [
        {
          "internalType": "int256",
          "name": "responseCode",
          "type": "int256"
        }
      ],
      "stateMutability": "nonpayable",
      "type": "function"
    },
    {
      "inputs": [
        {
          "internalType": "address",
          "name": "token",
          "type": "address"
        },
        {
          "internalType": "uint256",
          "name": "serialNumber",
          "type": "uint256"
        }
      ],
      "name": "getApprovedPublic",
      "outputs": [
        {
          "internalType": "int256",
          "name": "responseCode",
          "type": "int256"
        },
        {
          "internalType": "address",
          "name": "approved",
          "type": "address"
        }
      ],
      "stateMutability": "nonpayable",
      "type": "function"
    },
    {
      "inputs": [
        {
          "internalType": "address",
          "name": "token",
          "type": "address"
        }
      ],
      "name": "getFungibleTokenInfoPublic",
      "outputs": [
        {
          "internalType": "int256",
          "name": "responseCode",
          "type": "int256"
        },
        {
          "components": [
            {
              "components": [
                {
                  "components": [
                    {
                      "internalType": "string",
                      "name": "name",
                      "type": "string"
                    },
                    {
                      "internalType": "string",
                      "name": "symbol",
                      "type": "string"
                    },
                    {
                      "internalType": "address",
                      "name": "treasury",
                      "type": "address"
                    },
                    {
                      "internalType": "string",
                      "name": "memo",
                      "type": "string"
                    },
                    {
                      "internalType": "bool",
                      "name": "tokenSupplyType",
                      "type": "bool"
                    },
                    {
                      "internalType": "int64",
                      "name": "maxSupply",
                      "type": "int64"
                    },
                    {
                      "internalType": "bool",
                      "name": "freezeDefault",
                      "type": "bool"
                    },
                    {
                      "components": [
                        {
                          "internalType": "uint256",
                          "name": "keyType",
                          "type": "uint256"
                        },
                        {
                          "components": [
                            {
                              "internalType": "bool",
                              "name": "inheritAccountKey",
                              "type": "bool"
                            },
                            {
                              "internalType": "address",
                              "name": "contractId",
                              "type": "address"
                            },
                            {
                              "internalType": "bytes",
                              "name": "ed25519",
                              "type": "bytes"
                            },
                            {
                              "internalType": "bytes",
                              "name": "ECDSA_secp256k1",
                              "type": "bytes"
                            },
                            {
                              "internalType": "address",
                              "name": "delegatableContractId",
                              "type": "address"
                            }
                          ],
                          "internalType": "struct IHederaTokenService.KeyValue",
                          "name": "key",
                          "type": "tuple"
                        }
                      ],
                      "internalType": "struct IHederaTokenService.TokenKey[]",
                      "name": "tokenKeys",
                      "type": "tuple[]"
                    },
                    {
                      "components": [
                        {
                          "internalType": "uint32",
                          "name": "second",
                          "type": "uint32"
                        },
                        {
                          "internalType": "address",
                          "name": "autoRenewAccount",
                          "type": "address"
                        },
                        {
                          "internalType": "uint32",
                          "name": "autoRenewPeriod",
                          "type": "uint32"
                        }
                      ],
                      "internalType": "struct IHederaTokenService.Expiry",
                      "name": "expiry",
                      "type": "tuple"
                    }
                  ],
                  "internalType": "struct IHederaTokenService.HederaToken",
                  "name": "token",
                  "type": "tuple"
                },
                {
                  "internalType": "uint64",
                  "name": "totalSupply",
                  "type": "uint64"
                },
                {
                  "internalType": "bool",
                  "name": "deleted",
                  "type": "bool"
                },
                {
                  "internalType": "bool",
                  "name": "defaultKycStatus",
                  "type": "bool"
                },
                {
                  "internalType": "bool",
                  "name": "pauseStatus",
                  "type": "bool"
                },
                {
                  "components": [
                    {
                      "internalType": "uint32",
                      "name": "amount",
                      "type": "uint32"
                    },
                    {
                      "internalType": "address",
                      "name": "tokenId",
                      "type": "address"
                    },
                    {
                      "internalType": "bool",
                      "name": "useHbarsForPayment",
                      "type": "bool"
                    },
                    {
                      "internalType": "bool",
                      "name": "useCurrentTokenForPayment",
                      "type": "bool"
                    },
                    {
                      "internalType": "address",
                      "name": "feeCollector",
                      "type": "address"
                    }
                  ],
                  "internalType": "struct IHederaTokenService.FixedFee[]",
                  "name": "fixedFees",
                  "type": "tuple[]"
                },
                {
                  "components": [
                    {
                      "internalType": "uint32",
                      "name": "numerator",
                      "type": "uint32"
                    },
                    {
                      "internalType": "uint32",
                      "name": "denominator",
                      "type": "uint32"
                    },
                    {
                      "internalType": "uint32",
                      "name": "minimumAmount",
                      "type": "uint32"
                    },
                    {
                      "internalType": "uint32",
                      "name": "maximumAmount",
                      "type": "uint32"
                    },
                    {
                      "internalType": "bool",
                      "name": "netOfTransfers",
                      "type": "bool"
                    },
                    {
                      "internalType": "address",
                      "name": "feeCollector",
                      "type": "address"
                    }
                  ],
                  "internalType": "struct IHederaTokenService.FractionalFee[]",
                  "name": "fractionalFees",
                  "type": "tuple[]"
                },
                {
                  "components": [
                    {
                      "internalType": "uint32",
                      "name": "numerator",
                      "type": "uint32"
                    },
                    {
                      "internalType": "uint32",
                      "name": "denominator",
                      "type": "uint32"
                    },
                    {
                      "internalType": "uint32",
                      "name": "amount",
                      "type": "uint32"
                    },
                    {
                      "internalType": "address",
                      "name": "tokenId",
                      "type": "address"
                    },
                    {
                      "internalType": "bool",
                      "name": "useHbarsForPayment",
                      "type": "bool"
                    },
                    {
                      "internalType": "address",
                      "name": "feeCollector",
                      "type": "address"
                    }
                  ],
                  "internalType": "struct IHederaTokenService.RoyaltyFee[]",
                  "name": "royaltyFees",
                  "type": "tuple[]"
                },
                {
                  "internalType": "string",
                  "name": "ledgerId",
                  "type": "string"
                }
              ],
              "internalType": "struct IHederaTokenService.TokenInfo",
              "name": "tokenInfo",
              "type": "tuple"
            },
            {
              "internalType": "uint32",
              "name": "decimals",
              "type": "uint32"
            }
          ],
          "internalType": "struct IHederaTokenService.FungibleTokenInfo",
          "name": "tokenInfo",
          "type": "tuple"
        }
      ],
      "stateMutability": "nonpayable",
      "type": "function"
    },
    {
      "inputs": [
        {
          "internalType": "address",
          "name": "token",
          "type": "address"
        },
        {
          "internalType": "int64",
          "name": "serialNumber",
          "type": "int64"
        }
      ],
      "name": "getNonFungibleTokenInfoPublic",
      "outputs": [
        {
          "internalType": "int256",
          "name": "responseCode",
          "type": "int256"
        },
        {
          "components": [
            {
              "components": [
                {
                  "components": [
                    {
                      "internalType": "string",
                      "name": "name",
                      "type": "string"
                    },
                    {
                      "internalType": "string",
                      "name": "symbol",
                      "type": "string"
                    },
                    {
                      "internalType": "address",
                      "name": "treasury",
                      "type": "address"
                    },
                    {
                      "internalType": "string",
                      "name": "memo",
                      "type": "string"
                    },
                    {
                      "internalType": "bool",
                      "name": "tokenSupplyType",
                      "type": "bool"
                    },
                    {
                      "internalType": "int64",
                      "name": "maxSupply",
                      "type": "int64"
                    },
                    {
                      "internalType": "bool",
                      "name": "freezeDefault",
                      "type": "bool"
                    },
                    {
                      "components": [
                        {
                          "internalType": "uint256",
                          "name": "keyType",
                          "type": "uint256"
                        },
                        {
                          "components": [
                            {
                              "internalType": "bool",
                              "name": "inheritAccountKey",
                              "type": "bool"
                            },
                            {
                              "internalType": "address",
                              "name": "contractId",
                              "type": "address"
                            },
                            {
                              "internalType": "bytes",
                              "name": "ed25519",
                              "type": "bytes"
                            },
                            {
                              "internalType": "bytes",
                              "name": "ECDSA_secp256k1",
                              "type": "bytes"
                            },
                            {
                              "internalType": "address",
                              "name": "delegatableContractId",
                              "type": "address"
                            }
                          ],
                          "internalType": "struct IHederaTokenService.KeyValue",
                          "name": "key",
                          "type": "tuple"
                        }
                      ],
                      "internalType": "struct IHederaTokenService.TokenKey[]",
                      "name": "tokenKeys",
                      "type": "tuple[]"
                    },
                    {
                      "components": [
                        {
                          "internalType": "uint32",
                          "name": "second",
                          "type": "uint32"
                        },
                        {
                          "internalType": "address",
                          "name": "autoRenewAccount",
                          "type": "address"
                        },
                        {
                          "internalType": "uint32",
                          "name": "autoRenewPeriod",
                          "type": "uint32"
                        }
                      ],
                      "internalType": "struct IHederaTokenService.Expiry",
                      "name": "expiry",
                      "type": "tuple"
                    }
                  ],
                  "internalType": "struct IHederaTokenService.HederaToken",
                  "name": "token",
                  "type": "tuple"
                },
                {
                  "internalType": "uint64",
                  "name": "totalSupply",
                  "type": "uint64"
                },
                {
                  "internalType": "bool",
                  "name": "deleted",
                  "type": "bool"
                },
                {
                  "internalType": "bool",
                  "name": "defaultKycStatus",
                  "type": "bool"
                },
                {
                  "internalType": "bool",
                  "name": "pauseStatus",
                  "type": "bool"
                },
                {
                  "components": [
                    {
                      "internalType": "uint32",
                      "name": "amount",
                      "type": "uint32"
                    },
                    {
                      "internalType": "address",
                      "name": "tokenId",
                      "type": "address"
                    },
                    {
                      "internalType": "bool",
                      "name": "useHbarsForPayment",
                      "type": "bool"
                    },
                    {
                      "internalType": "bool",
                      "name": "useCurrentTokenForPayment",
                      "type": "bool"
                    },
                    {
                      "internalType": "address",
                      "name": "feeCollector",
                      "type": "address"
                    }
                  ],
                  "internalType": "struct IHederaTokenService.FixedFee[]",
                  "name": "fixedFees",
                  "type": "tuple[]"
                },
                {
                  "components": [
                    {
                      "internalType": "uint32",
                      "name": "numerator",
                      "type": "uint32"
                    },
                    {
                      "internalType": "uint32",
                      "name": "denominator",
                      "type": "uint32"
                    },
                    {
                      "internalType": "uint32",
                      "name": "minimumAmount",
                      "type": "uint32"
                    },
                    {
                      "internalType": "uint32",
                      "name": "maximumAmount",
                      "type": "uint32"
                    },
                    {
                      "internalType": "bool",
                      "name": "netOfTransfers",
                      "type": "bool"
                    },
                    {
                      "internalType": "address",
                      "name": "feeCollector",
                      "type": "address"
                    }
                  ],
                  "internalType": "struct IHederaTokenService.FractionalFee[]",
                  "name": "fractionalFees",
                  "type": "tuple[]"
                },
                {
                  "components": [
                    {
                      "internalType": "uint32",
                      "name": "numerator",
                      "type": "uint32"
                    },
                    {
                      "internalType": "uint32",
                      "name": "denominator",
                      "type": "uint32"
                    },
                    {
                      "internalType": "uint32",
                      "name": "amount",
                      "type": "uint32"
                    },
                    {
                      "internalType": "address",
                      "name": "tokenId",
                      "type": "address"
                    },
                    {
                      "internalType": "bool",
                      "name": "useHbarsForPayment",
                      "type": "bool"
                    },
                    {
                      "internalType": "address",
                      "name": "feeCollector",
                      "type": "address"
                    }
                  ],
                  "internalType": "struct IHederaTokenService.RoyaltyFee[]",
                  "name": "royaltyFees",
                  "type": "tuple[]"
                },
                {
                  "internalType": "string",
                  "name": "ledgerId",
                  "type": "string"
                }
              ],
              "internalType": "struct IHederaTokenService.TokenInfo",
              "name": "tokenInfo",
              "type": "tuple"
            },
            {
              "internalType": "int64",
              "name": "serialNumber",
              "type": "int64"
            },
            {
              "internalType": "address",
              "name": "ownerId",
              "type": "address"
            },
            {
              "internalType": "int64",
              "name": "creationTime",
              "type": "int64"
            },
            {
              "internalType": "bytes",
              "name": "metadata",
              "type": "bytes"
            },
            {
              "internalType": "address",
              "name": "spenderId",
              "type": "address"
            }
          ],
          "internalType": "struct IHederaTokenService.NonFungibleTokenInfo",
          "name": "tokenInfo",
          "type": "tuple"
        }
      ],
      "stateMutability": "nonpayable",
      "type": "function"
    },
    {
      "inputs": [
        {
          "internalType": "address",
          "name": "token",
          "type": "address"
        }
      ],
      "name": "getTokenCustomFeesPublic",
      "outputs": [
        {
          "internalType": "int64",
          "name": "responseCode",
          "type": "int64"
        },
        {
          "components": [
            {
              "internalType": "uint32",
              "name": "amount",
              "type": "uint32"
            },
            {
              "internalType": "address",
              "name": "tokenId",
              "type": "address"
            },
            {
              "internalType": "bool",
              "name": "useHbarsForPayment",
              "type": "bool"
            },
            {
              "internalType": "bool",
              "name": "useCurrentTokenForPayment",
              "type": "bool"
            },
            {
              "internalType": "address",
              "name": "feeCollector",
              "type": "address"
            }
          ],
          "internalType": "struct IHederaTokenService.FixedFee[]",
          "name": "fixedFees",
          "type": "tuple[]"
        },
        {
          "components": [
            {
              "internalType": "uint32",
              "name": "numerator",
              "type": "uint32"
            },
            {
              "internalType": "uint32",
              "name": "denominator",
              "type": "uint32"
            },
            {
              "internalType": "uint32",
              "name": "minimumAmount",
              "type": "uint32"
            },
            {
              "internalType": "uint32",
              "name": "maximumAmount",
              "type": "uint32"
            },
            {
              "internalType": "bool",
              "name": "netOfTransfers",
              "type": "bool"
            },
            {
              "internalType": "address",
              "name": "feeCollector",
              "type": "address"
            }
          ],
          "internalType": "struct IHederaTokenService.FractionalFee[]",
          "name": "fractionalFees",
          "type": "tuple[]"
        },
        {
          "components": [
            {
              "internalType": "uint32",
              "name": "numerator",
              "type": "uint32"
            },
            {
              "internalType": "uint32",
              "name": "denominator",
              "type": "uint32"
            },
            {
              "internalType": "uint32",
              "name": "amount",
              "type": "uint32"
            },
            {
              "internalType": "address",
              "name": "tokenId",
              "type": "address"
            },
            {
              "internalType": "bool",
              "name": "useHbarsForPayment",
              "type": "bool"
            },
            {
              "internalType": "address",
              "name": "feeCollector",
              "type": "address"
            }
          ],
          "internalType": "struct IHederaTokenService.RoyaltyFee[]",
          "name": "royaltyFees",
          "type": "tuple[]"
        }
      ],
      "stateMutability": "nonpayable",
      "type": "function"
    },
    {
      "inputs": [
        {
          "internalType": "address",
          "name": "token",
          "type": "address"
        }
      ],
      "name": "getTokenDefaultKycStatusPublic",
      "outputs": [
        {
          "internalType": "int256",
          "name": "responseCode",
          "type": "int256"
        },
        {
          "internalType": "bool",
          "name": "defaultKycStatus",
          "type": "bool"
        }
      ],
      "stateMutability": "nonpayable",
      "type": "function"
    },
    {
      "inputs": [
        {
          "internalType": "address",
          "name": "token",
          "type": "address"
        }
      ],
      "name": "getTokenExpiryInfo",
      "outputs": [
        {
          "internalType": "int256",
          "name": "responseCode",
          "type": "int256"
        },
        {
          "components": [
            {
              "internalType": "uint32",
              "name": "second",
              "type": "uint32"
            },
            {
              "internalType": "address",
              "name": "autoRenewAccount",
              "type": "address"
            },
            {
              "internalType": "uint32",
              "name": "autoRenewPeriod",
              "type": "uint32"
            }
          ],
          "internalType": "struct IHederaTokenService.Expiry",
          "name": "expiryInfo",
          "type": "tuple"
        }
      ],
      "stateMutability": "nonpayable",
      "type": "function"
    },
    {
      "inputs": [
        {
          "internalType": "address",
          "name": "token",
          "type": "address"
        }
      ],
      "name": "getTokenInfoPublic",
      "outputs": [
        {
          "internalType": "int256",
          "name": "responseCode",
          "type": "int256"
        },
        {
          "components": [
            {
              "components": [
                {
                  "internalType": "string",
                  "name": "name",
                  "type": "string"
                },
                {
                  "internalType": "string",
                  "name": "symbol",
                  "type": "string"
                },
                {
                  "internalType": "address",
                  "name": "treasury",
                  "type": "address"
                },
                {
                  "internalType": "string",
                  "name": "memo",
                  "type": "string"
                },
                {
                  "internalType": "bool",
                  "name": "tokenSupplyType",
                  "type": "bool"
                },
                {
                  "internalType": "int64",
                  "name": "maxSupply",
                  "type": "int64"
                },
                {
                  "internalType": "bool",
                  "name": "freezeDefault",
                  "type": "bool"
                },
                {
                  "components": [
                    {
                      "internalType": "uint256",
                      "name": "keyType",
                      "type": "uint256"
                    },
                    {
                      "components": [
                        {
                          "internalType": "bool",
                          "name": "inheritAccountKey",
                          "type": "bool"
                        },
                        {
                          "internalType": "address",
                          "name": "contractId",
                          "type": "address"
                        },
                        {
                          "internalType": "bytes",
                          "name": "ed25519",
                          "type": "bytes"
                        },
                        {
                          "internalType": "bytes",
                          "name": "ECDSA_secp256k1",
                          "type": "bytes"
                        },
                        {
                          "internalType": "address",
                          "name": "delegatableContractId",
                          "type": "address"
                        }
                      ],
                      "internalType": "struct IHederaTokenService.KeyValue",
                      "name": "key",
                      "type": "tuple"
                    }
                  ],
                  "internalType": "struct IHederaTokenService.TokenKey[]",
                  "name": "tokenKeys",
                  "type": "tuple[]"
                },
                {
                  "components": [
                    {
                      "internalType": "uint32",
                      "name": "second",
                      "type": "uint32"
                    },
                    {
                      "internalType": "address",
                      "name": "autoRenewAccount",
                      "type": "address"
                    },
                    {
                      "internalType": "uint32",
                      "name": "autoRenewPeriod",
                      "type": "uint32"
                    }
                  ],
                  "internalType": "struct IHederaTokenService.Expiry",
                  "name": "expiry",
                  "type": "tuple"
                }
              ],
              "internalType": "struct IHederaTokenService.HederaToken",
              "name": "token",
              "type": "tuple"
            },
            {
              "internalType": "uint64",
              "name": "totalSupply",
              "type": "uint64"
            },
            {
              "internalType": "bool",
              "name": "deleted",
              "type": "bool"
            },
            {
              "internalType": "bool",
              "name": "defaultKycStatus",
              "type": "bool"
            },
            {
              "internalType": "bool",
              "name": "pauseStatus",
              "type": "bool"
            },
            {
              "components": [
                {
                  "internalType": "uint32",
                  "name": "amount",
                  "type": "uint32"
                },
                {
                  "internalType": "address",
                  "name": "tokenId",
                  "type": "address"
                },
                {
                  "internalType": "bool",
                  "name": "useHbarsForPayment",
                  "type": "bool"
                },
                {
                  "internalType": "bool",
                  "name": "useCurrentTokenForPayment",
                  "type": "bool"
                },
                {
                  "internalType": "address",
                  "name": "feeCollector",
                  "type": "address"
                }
              ],
              "internalType": "struct IHederaTokenService.FixedFee[]",
              "name": "fixedFees",
              "type": "tuple[]"
            },
            {
              "components": [
                {
                  "internalType": "uint32",
                  "name": "numerator",
                  "type": "uint32"
                },
                {
                  "internalType": "uint32",
                  "name": "denominator",
                  "type": "uint32"
                },
                {
                  "internalType": "uint32",
                  "name": "minimumAmount",
                  "type": "uint32"
                },
                {
                  "internalType": "uint32",
                  "name": "maximumAmount",
                  "type": "uint32"
                },
                {
                  "internalType": "bool",
                  "name": "netOfTransfers",
                  "type": "bool"
                },
                {
                  "internalType": "address",
                  "name": "feeCollector",
                  "type": "address"
                }
              ],
              "internalType": "struct IHederaTokenService.FractionalFee[]",
              "name": "fractionalFees",
              "type": "tuple[]"
            },
            {
              "components": [
                {
                  "internalType": "uint32",
                  "name": "numerator",
                  "type": "uint32"
                },
                {
                  "internalType": "uint32",
                  "name": "denominator",
                  "type": "uint32"
                },
                {
                  "internalType": "uint32",
                  "name": "amount",
                  "type": "uint32"
                },
                {
                  "internalType": "address",
                  "name": "tokenId",
                  "type": "address"
                },
                {
                  "internalType": "bool",
                  "name": "useHbarsForPayment",
                  "type": "bool"
                },
                {
                  "internalType": "address",
                  "name": "feeCollector",
                  "type": "address"
                }
              ],
              "internalType": "struct IHederaTokenService.RoyaltyFee[]",
              "name": "royaltyFees",
              "type": "tuple[]"
            },
            {
              "internalType": "string",
              "name": "ledgerId",
              "type": "string"
            }
          ],
          "internalType": "struct IHederaTokenService.TokenInfo",
          "name": "tokenInfo",
          "type": "tuple"
        }
      ],
      "stateMutability": "nonpayable",
      "type": "function"
    },
    {
      "inputs": [
        {
          "internalType": "address",
          "name": "token",
          "type": "address"
        },
        {
          "internalType": "address",
          "name": "account",
          "type": "address"
        }
      ],
      "name": "grantTokenKyc",
      "outputs": [
        {
          "internalType": "int64",
          "name": "responseCode",
          "type": "int64"
        }
      ],
      "stateMutability": "nonpayable",
      "type": "function"
    },
    {
      "inputs": [
        {
          "internalType": "address",
          "name": "token",
          "type": "address"
        },
        {
          "internalType": "address",
          "name": "account",
          "type": "address"
        }
      ],
      "name": "grantTokenKycPublic",
      "outputs": [
        {
          "internalType": "int64",
          "name": "responseCode",
          "type": "int64"
        }
      ],
      "stateMutability": "nonpayable",
      "type": "function"
    },
    {
      "inputs": [
        {
          "internalType": "address",
          "name": "token",
          "type": "address"
        },
        {
          "internalType": "address",
          "name": "owner",
          "type": "address"
        },
        {
          "internalType": "address",
          "name": "operator",
          "type": "address"
        }
      ],
      "name": "isApprovedForAllPublic",
      "outputs": [
        {
          "internalType": "int256",
          "name": "responseCode",
          "type": "int256"
        },
        {
          "internalType": "bool",
          "name": "approved",
          "type": "bool"
        }
      ],
      "stateMutability": "nonpayable",
      "type": "function"
    },
    {
      "inputs": [
        {
          "internalType": "address",
          "name": "token",
          "type": "address"
        },
        {
          "internalType": "address",
          "name": "account",
          "type": "address"
        }
      ],
      "name": "isKyc",
      "outputs": [
        {
          "internalType": "int64",
          "name": "responseCode",
          "type": "int64"
        },
        {
          "internalType": "bool",
          "name": "kycGranted",
          "type": "bool"
        }
      ],
      "stateMutability": "nonpayable",
      "type": "function"
    },
    {
      "inputs": [
        {
          "internalType": "address",
          "name": "token",
          "type": "address"
        },
        {
          "internalType": "address",
          "name": "account",
          "type": "address"
        }
      ],
      "name": "isKycPublic",
      "outputs": [
        {
          "internalType": "int64",
          "name": "responseCode",
          "type": "int64"
        },
        {
          "internalType": "bool",
          "name": "kycGranted",
          "type": "bool"
        }
      ],
      "stateMutability": "nonpayable",
      "type": "function"
    },
    {
      "inputs": [
        {
          "internalType": "address",
          "name": "token",
          "type": "address"
        },
        {
          "internalType": "uint64",
          "name": "amount",
          "type": "uint64"
        },
        {
          "internalType": "bytes[]",
          "name": "metadata",
          "type": "bytes[]"
        }
      ],
      "name": "mintTokenPublic",
      "outputs": [
        {
          "internalType": "int256",
          "name": "responseCode",
          "type": "int256"
        },
        {
          "internalType": "uint64",
          "name": "newTotalSupply",
          "type": "uint64"
        },
        {
          "internalType": "int64[]",
          "name": "serialNumbers",
          "type": "int64[]"
        }
      ],
      "stateMutability": "nonpayable",
      "type": "function"
    },
    {
      "inputs": [
        {
          "internalType": "address",
          "name": "token",
          "type": "address"
        }
      ],
      "name": "pauseToken",
      "outputs": [
        {
          "internalType": "int256",
          "name": "responseCode",
          "type": "int256"
        }
      ],
      "stateMutability": "nonpayable",
      "type": "function"
    },
    {
      "inputs": [
        {
          "internalType": "address",
          "name": "token",
          "type": "address"
        },
        {
          "internalType": "address",
          "name": "account",
          "type": "address"
        }
      ],
      "name": "revokeTokenKyc",
      "outputs": [
        {
          "internalType": "int64",
          "name": "responseCode",
          "type": "int64"
        }
      ],
      "stateMutability": "nonpayable",
      "type": "function"
    },
    {
      "inputs": [
        {
          "internalType": "address",
          "name": "token",
          "type": "address"
        },
        {
          "internalType": "address",
          "name": "account",
          "type": "address"
        }
      ],
      "name": "revokeTokenKycPublic",
      "outputs": [
        {
          "internalType": "int64",
          "name": "responseCode",
          "type": "int64"
        }
      ],
      "stateMutability": "nonpayable",
      "type": "function"
    },
    {
      "inputs": [
        {
          "internalType": "address",
          "name": "token",
          "type": "address"
        },
        {
          "internalType": "address",
          "name": "operator",
          "type": "address"
        },
        {
          "internalType": "bool",
          "name": "approved",
          "type": "bool"
        }
      ],
      "name": "setApprovalForAllPublic",
      "outputs": [
        {
          "internalType": "int256",
          "name": "responseCode",
          "type": "int256"
        }
      ],
      "stateMutability": "nonpayable",
      "type": "function"
    },
    {
      "inputs": [
        {
          "internalType": "address",
          "name": "token",
          "type": "address"
        },
        {
          "internalType": "address",
          "name": "sender",
          "type": "address"
        },
        {
          "internalType": "address",
          "name": "receiver",
          "type": "address"
        },
        {
          "internalType": "int64",
          "name": "serialNumber",
          "type": "int64"
        }
      ],
      "name": "transferNFTPublic",
      "outputs": [
        {
          "internalType": "int256",
          "name": "responseCode",
          "type": "int256"
        }
      ],
      "stateMutability": "nonpayable",
      "type": "function"
    },
    {
      "inputs": [
        {
          "internalType": "address",
          "name": "token",
          "type": "address"
        },
        {
          "internalType": "address",
          "name": "sender",
          "type": "address"
        },
        {
          "internalType": "address",
          "name": "receiver",
          "type": "address"
        },
        {
          "internalType": "int64",
          "name": "amount",
          "type": "int64"
        }
      ],
      "name": "transferTokenPublic",
      "outputs": [
        {
          "internalType": "int256",
          "name": "responseCode",
          "type": "int256"
        }
      ],
      "stateMutability": "nonpayable",
      "type": "function"
    },
    {
      "inputs": [
        {
          "internalType": "address",
          "name": "token",
          "type": "address"
        }
      ],
      "name": "unpauseToken",
      "outputs": [
        {
          "internalType": "int256",
          "name": "responseCode",
          "type": "int256"
        }
      ],
      "stateMutability": "nonpayable",
      "type": "function"
    },
    {
      "inputs": [
        {
          "internalType": "address",
          "name": "token",
          "type": "address"
        },
        {
          "components": [
            {
              "internalType": "uint32",
              "name": "second",
              "type": "uint32"
            },
            {
              "internalType": "address",
              "name": "autoRenewAccount",
              "type": "address"
            },
            {
              "internalType": "uint32",
              "name": "autoRenewPeriod",
              "type": "uint32"
            }
          ],
          "internalType": "struct IHederaTokenService.Expiry",
          "name": "expiryInfo",
          "type": "tuple"
        }
      ],
      "name": "updateTokenExpiryInfo",
      "outputs": [
        {
          "internalType": "int256",
          "name": "responseCode",
          "type": "int256"
        }
      ],
      "stateMutability": "nonpayable",
      "type": "function"
    },
    {
      "inputs": [
        {
          "internalType": "address",
          "name": "token",
          "type": "address"
        },
        {
          "components": [
            {
              "internalType": "string",
              "name": "name",
              "type": "string"
            },
            {
              "internalType": "string",
              "name": "symbol",
              "type": "string"
            },
            {
              "internalType": "address",
              "name": "treasury",
              "type": "address"
            },
            {
              "internalType": "string",
              "name": "memo",
              "type": "string"
            },
            {
              "internalType": "bool",
              "name": "tokenSupplyType",
              "type": "bool"
            },
            {
              "internalType": "int64",
              "name": "maxSupply",
              "type": "int64"
            },
            {
              "internalType": "bool",
              "name": "freezeDefault",
              "type": "bool"
            },
            {
              "components": [
                {
                  "internalType": "uint256",
                  "name": "keyType",
                  "type": "uint256"
                },
                {
                  "components": [
                    {
                      "internalType": "bool",
                      "name": "inheritAccountKey",
                      "type": "bool"
                    },
                    {
                      "internalType": "address",
                      "name": "contractId",
                      "type": "address"
                    },
                    {
                      "internalType": "bytes",
                      "name": "ed25519",
                      "type": "bytes"
                    },
                    {
                      "internalType": "bytes",
                      "name": "ECDSA_secp256k1",
                      "type": "bytes"
                    },
                    {
                      "internalType": "address",
                      "name": "delegatableContractId",
                      "type": "address"
                    }
                  ],
                  "internalType": "struct IHederaTokenService.KeyValue",
                  "name": "key",
                  "type": "tuple"
                }
              ],
              "internalType": "struct IHederaTokenService.TokenKey[]",
              "name": "tokenKeys",
              "type": "tuple[]"
            },
            {
              "components": [
                {
                  "internalType": "uint32",
                  "name": "second",
                  "type": "uint32"
                },
                {
                  "internalType": "address",
                  "name": "autoRenewAccount",
                  "type": "address"
                },
                {
                  "internalType": "uint32",
                  "name": "autoRenewPeriod",
                  "type": "uint32"
                }
              ],
              "internalType": "struct IHederaTokenService.Expiry",
              "name": "expiry",
              "type": "tuple"
            }
          ],
          "internalType": "struct IHederaTokenService.HederaToken",
          "name": "tokenInfo",
          "type": "tuple"
        }
      ],
      "name": "updateTokenInfo",
      "outputs": [
        {
          "internalType": "int256",
          "name": "responseCode",
          "type": "int256"
        }
      ],
      "stateMutability": "nonpayable",
      "type": "function"
    }
  ],
  "bytecode": "0x60806040526040518060400160405280600981526020017f746f6b656e4e616d65000000000000000000000000000000000000000000000081525060029080519060200190620000519291906200025b565b506040518060400160405280600b81526020017f746f6b656e53796d626f6c000000000000000000000000000000000000000000815250600390805190602001906200009f9291906200025b565b506040518060400160405280600481526020017f6d656d6f0000000000000000000000000000000000000000000000000000000081525060049080519060200190620000ed9291906200025b565b506103e8600560006101000a81548167ffffffffffffffff021916908367ffffffffffffffff1602179055506103e8600560086101000a81548167ffffffffffffffff021916908360070b67ffffffffffffffff1602179055506008600560106101000a81548163ffffffff021916908363ffffffff1602179055506000600560146101000a81548160ff0219169083151502179055503480156200019157600080fd5b5060016000808060ff168152602001908152602001600020819055506002600080600160ff168152602001908152602001600020819055506004600080600260ff168152602001908152602001600020819055506008600080600360ff168152602001908152602001600020819055506010600080600460ff168152602001908152602001600020819055506020600080600560ff168152602001908152602001600020819055506040600080600660ff1681526020019081526020016000208190555062000370565b82805462000269906200030b565b90600052602060002090601f0160209004810192826200028d5760008555620002d9565b82601f10620002a857805160ff1916838001178555620002d9565b82800160010185558215620002d9579182015b82811115620002d8578251825591602001919060010190620002bb565b5b509050620002e89190620002ec565b5090565b5b8082111562000307576000816000905550600101620002ed565b5090565b600060028204905060018216806200032457607f821691505b602082108114156200033b576200033a62000341565b5b50919050565b7f4e487b7100000000000000000000000000000000000000000000000000000000600052602260045260246000fd5b6189f680620003806000396000f3fe6080604052600436106101e35760003560e01c806386f88d8811610102578063d85f74c111610095578063f2f38a7411610064578063f2f38a741461083f578063f4a01e5b1461087d578063f848fec4146108ba578063fdc8321e146108f7576101e3565b8063d85f74c11461076b578063df6c06f514610787578063f25b1200146107c4578063f2c31ff414610801576101e3565b8063a345f7bd116100d1578063a345f7bd14610675578063a3ad5b55146106b2578063af99c633146106f0578063d614cdb81461072d576101e3565b806386f88d88146105a15780638ba74da0146105df5780638f8d7f99146105fb5780639604ca6514610638576101e3565b80634cbdb37b1161017a57806369837dc21161014957806369837dc2146104aa5780636da6b1f0146104e85780637c41ad2c146105255780638070905f14610562576101e3565b80634cbdb37b146103b1578063593d6e82146103ef5780635a5e6c311461042c5780635b9076b71461046a576101e3565b80632eecbca3116101b65780632eecbca3146102de5780633b3bff0f1461031b5780634b5c6687146103585780634ba6703514610374576101e3565b80630fd2601e146101e857806313c05dd81461022557806318370d341461026357806319db44b6146102a0575b600080fd5b3480156101f457600080fd5b5061020f600480360381019061020a9190616603565b610934565b60405161021c9190618012565b60405180910390f35b34801561023157600080fd5b5061024c6004803603810190610247919061663f565b610a15565b60405161025a929190617eae565b60405180910390f35b34801561026f57600080fd5b5061028a60048036038101906102859190616856565b610ab0565b6040516102979190617e6a565b60405180910390f35b3480156102ac57600080fd5b506102c760048036038101906102c291906168aa565b610bc8565b6040516102d5929190617e85565b60405180910390f35b3480156102ea57600080fd5b5061030560048036038101906103009190616603565b610c62565b6040516103129190618012565b60405180910390f35b34801561032757600080fd5b50610342600480360381019061033d91906165da565b610d43565b60405161034f9190617e6a565b60405180910390f35b610372600480360381019061036d91906165da565b610e58565b005b34801561038057600080fd5b5061039b6004803603810190610396919061668e565b611349565b6040516103a89190617e6a565b60405180910390f35b3480156103bd57600080fd5b506103d860048036038101906103d391906167de565b6113a8565b6040516103e6929190617f30565b60405180910390f35b3480156103fb57600080fd5b506104166004803603810190610411919061681a565b611449565b6040516104239190617e6a565b60405180910390f35b34801561043857600080fd5b50610453600480360381019061044e919061663f565b611561565b604051610461929190617f90565b60405180910390f35b34801561047657600080fd5b50610491600480360381019061048c91906165da565b6115fd565b6040516104a1949392919061802d565b60405180910390f35b3480156104b657600080fd5b506104d160048036038101906104cc91906165da565b6116a9565b6040516104df929190617f00565b60405180910390f35b3480156104f457600080fd5b5061050f600480360381019061050a919061668e565b611747565b60405161051c9190617e6a565b60405180910390f35b34801561053157600080fd5b5061054c600480360381019061054791906165da565b6117a6565b6040516105599190617e6a565b60405180910390f35b34801561056e57600080fd5b50610589600480360381019061058491906168e6565b6118bb565b60405161059893929190617fb9565b60405180910390f35b3480156105ad57600080fd5b506105c860048036038101906105c391906165da565b611960565b6040516105d6929190617eae565b60405180910390f35b6105f960048036038101906105f49190616603565b6119f7565b005b34801561060757600080fd5b50610622600480360381019061061d9190616603565b61203c565b60405161062f9190618012565b60405180910390f35b34801561064457600080fd5b5061065f600480360381019061065a919061694d565b612154565b60405161066c9190617e6a565b60405180910390f35b34801561068157600080fd5b5061069c600480360381019061069791906165da565b6121ba565b6040516106a99190617e6a565b60405180910390f35b3480156106be57600080fd5b506106d960048036038101906106d49190616603565b612213565b6040516106e7929190618087565b60405180910390f35b3480156106fc57600080fd5b5061071760048036038101906107129190616603565b612332565b6040516107249190618012565b60405180910390f35b34801561073957600080fd5b50610754600480360381019061074f91906165da565b61244a565b604051610762929190617ed7565b60405180910390f35b610785600480360381019061078091906165da565b61257a565b005b34801561079357600080fd5b506107ae60048036038101906107a9919061678f565b612aa2565b6040516107bb9190617e6a565b60405180910390f35b3480156107d057600080fd5b506107eb60048036038101906107e691906166f1565b612aff565b6040516107f89190617e6a565b60405180910390f35b34801561080d57600080fd5b5061082860048036038101906108239190616603565b612b5c565b604051610836929190618087565b60405180910390f35b34801561084b57600080fd5b50610866600480360381019061086191906165da565b612c81565b604051610874929190617f60565b60405180910390f35b34801561088957600080fd5b506108a4600480360381019061089f9190616603565b612d1f565b6040516108b19190617e6a565b60405180910390f35b3480156108c657600080fd5b506108e160048036038101906108dc919061678f565b612d7a565b6040516108ee9190617e6a565b60405180910390f35b34801561090357600080fd5b5061091e60048036038101906109199190616740565b612dd7565b60405161092b9190617e6a565b60405180910390f35b60003073ffffffffffffffffffffffffffffffffffffffff16638f8d7f9984846040518363ffffffff1660e01b8152600401610971929190617be5565b602060405180830381600087803b15801561098b57600080fd5b505af115801561099f573d6000803e3d6000fd5b505050506040513d601f19601f820116820180604052508101906109c39190616cb9565b90507f90a5cf4cffe88b4edbb041cfc7a8a812c48a5ec30b84640fb37690875168e3aa816040516109f49190617ff7565b60405180910390a1601660030b8160070b14610a0f57600080fd5b92915050565b600080610a238585856130f1565b80925081935050507f90a5cf4cffe88b4edbb041cfc7a8a812c48a5ec30b84640fb37690875168e3aa82604051610a5a9190617e6a565b60405180910390a1601660030b8214610a7257600080fd5b7e1c2e72360171244b3bb8cc8ddd767820edf37138ad6f129fb3574b407c307d81604051610aa09190617e4f565b60405180910390a1935093915050565b600080600061016773ffffffffffffffffffffffffffffffffffffffff166318370d3460e01b8686604051602401610ae9929190617d4a565b604051602081830303815290604052907bffffffffffffffffffffffffffffffffffffffffffffffffffffffff19166020820180517bffffffffffffffffffffffffffffffffffffffffffffffffffffffff8381831617835250505050604051610b539190617bb3565b6000604051808303816000865af19150503d8060008114610b90576040519150601f19603f3d011682016040523d82523d6000602084013e610b95565b606091505b509150915081610ba6576015610bbb565b80806020019051810190610bba9190616992565b5b60030b9250505092915050565b600080610bd58484613219565b80925081935050507f90a5cf4cffe88b4edbb041cfc7a8a812c48a5ec30b84640fb37690875168e3aa82604051610c0c9190617e6a565b60405180910390a1601660030b8214610c2457600080fd5b7fc2c78c7c31baf14949e75c51df12be56edb9af523cf82839c2869bbcf13b3ecb81604051610c539190617bca565b60405180910390a19250929050565b60003073ffffffffffffffffffffffffffffffffffffffff1663af99c63384846040518363ffffffff1660e01b8152600401610c9f929190617be5565b602060405180830381600087803b158015610cb957600080fd5b505af1158015610ccd573d6000803e3d6000fd5b505050506040513d601f19601f82011682018060405250810190610cf19190616cb9565b90507f90a5cf4cffe88b4edbb041cfc7a8a812c48a5ec30b84640fb37690875168e3aa81604051610d229190617ff7565b60405180910390a1601660030b8160070b14610d3d57600080fd5b92915050565b600080600061016773ffffffffffffffffffffffffffffffffffffffff16633b3bff0f60e01b85604051602401610d7a9190617bca565b604051602081830303815290604052907bffffffffffffffffffffffffffffffffffffffffffffffffffffffff19166020820180517bffffffffffffffffffffffffffffffffffffffffffffffffffffffff8381831617835250505050604051610de49190617bb3565b6000604051808303816000865af19150503d8060008114610e21576040519150601f19603f3d011682016040523d82523d6000602084013e610e26565b606091505b509150915081610e37576015610e4c565b80806020019051810190610e4b9190616992565b5b60030b92505050919050565b6000600467ffffffffffffffff811115610e9b577f4e487b7100000000000000000000000000000000000000000000000000000000600052604160045260246000fd5b604051908082528060200260200182016040528015610ed457816020015b610ec1614e16565b815260200190600190039081610eb95790505b509050610ef56000600660006040518060200160405280600081525061333e565b81600081518110610f2f577f4e487b7100000000000000000000000000000000000000000000000000000000600052603260045260246000fd5b6020026020010181905250610f566001600060405180602001604052806000815250613377565b81600181518110610f90577f4e487b7100000000000000000000000000000000000000000000000000000000600052603260045260246000fd5b6020026020010181905250610fb76002600060405180602001604052806000815250613377565b81600281518110610ff1577f4e487b7100000000000000000000000000000000000000000000000000000000600052603260045260246000fd5b60200260200101819052506110186003600060405180602001604052806000815250613377565b81600381518110611052577f4e487b7100000000000000000000000000000000000000000000000000000000600052603260045260246000fd5b602002602001018190525060006040518060600160405280600063ffffffff1681526020018473ffffffffffffffffffffffffffffffffffffffff168152602001627a120063ffffffff1681525090506000604051806101200160405280600280546110bd906187be565b80601f01602080910402602001604051908101604052809291908181526020018280546110e9906187be565b80156111365780601f1061110b57610100808354040283529160200191611136565b820191906000526020600020905b81548152906001019060200180831161111957829003601f168201915b505050505081526020016003805461114d906187be565b80601f0160208091040260200160405190810160405280929190818152602001828054611179906187be565b80156111c65780601f1061119b576101008083540402835291602001916111c6565b820191906000526020600020905b8154815290600101906020018083116111a957829003601f168201915b505050505081526020018573ffffffffffffffffffffffffffffffffffffffff168152602001600480546111f9906187be565b80601f0160208091040260200160405190810160405280929190818152602001828054611225906187be565b80156112725780601f1061124757610100808354040283529160200191611272565b820191906000526020600020905b81548152906001019060200180831161125557829003601f168201915b50505050508152602001600115158152602001600560089054906101000a900460070b60070b8152602001600560149054906101000a900460ff16151581526020018481526020018381525090506000806112f683600560009054906101000a900467ffffffffffffffff16600560109054906101000a900463ffffffff166133ae565b91509150601660030b821461130a57600080fd5b7f7bb17726df1f3adee8aa00ba8e8bc5d6f182af3bbf77604639cb7f008dd3b4ed816040516113399190617bca565b60405180910390a1505050505050565b60006113578585858561352d565b90507f90a5cf4cffe88b4edbb041cfc7a8a812c48a5ec30b84640fb37690875168e3aa816040516113889190617e6a565b60405180910390a1601660030b81146113a057600080fd5b949350505050565b60006113b2614e36565b6113bc848461364b565b80925081935050507f90a5cf4cffe88b4edbb041cfc7a8a812c48a5ec30b84640fb37690875168e3aa826040516113f39190617e6a565b60405180910390a1601660030b821461140b57600080fd5b7fd010ef68d3ac3e07c14bed496400730a484fd17c48a4d373cbc4722a56540def8160405161143a919061819a565b60405180910390a19250929050565b600080600061016773ffffffffffffffffffffffffffffffffffffffff1663593d6e8260e01b8686604051602401611482929190617d21565b604051602081830303815290604052907bffffffffffffffffffffffffffffffffffffffffffffffffffffffff19166020820180517bffffffffffffffffffffffffffffffffffffffffffffffffffffffff83818316178352505050506040516114ec9190617bb3565b6000604051808303816000865af19150503d8060008114611529576040519150601f19603f3d011682016040523d82523d6000602084013e61152e565b606091505b50915091508161153f576015611554565b808060200190518101906115539190616992565b5b60030b9250505092915050565b60008061156f85858561377f565b80925081935050507f90a5cf4cffe88b4edbb041cfc7a8a812c48a5ec30b84640fb37690875168e3aa826040516115a69190617e6a565b60405180910390a1601660030b82146115be57600080fd5b7f25b6684a7e8fe1b676e9c39c8dd65034fbafea906d3bdfd97bf748b7b55e14c8816040516115ed91906181de565b60405180910390a1935093915050565b6000606080606061160d856138a7565b809450819550829650839750505050507f90a5cf4cffe88b4edbb041cfc7a8a812c48a5ec30b84640fb37690875168e3aa8460405161164c9190617ff7565b60405180910390a1601660030b8460070b1461166757600080fd5b7f2efc8334b040613a552197fe34283d6ca2909c8ffae393e128424931f20c69b383838360405161169a93929190617de1565b60405180910390a19193509193565b60006116b3614ea4565b6116bc836139df565b80925081935050507f90a5cf4cffe88b4edbb041cfc7a8a812c48a5ec30b84640fb37690875168e3aa826040516116f39190617e6a565b60405180910390a1601660030b821461170b57600080fd5b7fea9419ffbaa766adf982c4c9864330eee1d848eff36c79e510e7e589c8bb265f8160405161173a91906180b0565b60405180910390a1915091565b600061175585858585613b0f565b90507f90a5cf4cffe88b4edbb041cfc7a8a812c48a5ec30b84640fb37690875168e3aa816040516117869190617e6a565b60405180910390a1601660030b811461179e57600080fd5b949350505050565b600080600061016773ffffffffffffffffffffffffffffffffffffffff16637c41ad2c60e01b856040516024016117dd9190617bca565b604051602081830303815290604052907bffffffffffffffffffffffffffffffffffffffffffffffffffffffff19166020820180517bffffffffffffffffffffffffffffffffffffffffffffffffffffffff83818316178352505050506040516118479190617bb3565b6000604051808303816000865af19150503d8060008114611884576040519150601f19603f3d011682016040523d82523d6000602084013e611889565b606091505b50915091508161189a5760156118af565b808060200190518101906118ae9190616992565b5b60030b92505050919050565b60008060606118cb868686613c2d565b8093508194508295505050507f90a5cf4cffe88b4edbb041cfc7a8a812c48a5ec30b84640fb37690875168e3aa836040516119069190617e6a565b60405180910390a1601660030b831461191e57600080fd5b7feff23992f47b3c101679f8b4dc9d3e242c903909dba4a453f2b2341ad463b0e2828260405161194f9291906181f9565b60405180910390a193509350939050565b60008061196c83613dcb565b80925081935050507f90a5cf4cffe88b4edbb041cfc7a8a812c48a5ec30b84640fb37690875168e3aa826040516119a39190617e6a565b60405180910390a1601660030b82146119bb57600080fd5b7f9ee19e13dfa1ba8db2502e15ff56dbecdeb0e0473323fb195473ce648030a2cd816040516119ea9190617e4f565b60405180910390a1915091565b6000600167ffffffffffffffff811115611a3a577f4e487b7100000000000000000000000000000000000000000000000000000000600052604160045260246000fd5b604051908082528060200260200182016040528015611a7357816020015b611a60614e16565b815260200190600190039081611a585790505b509050611a9360008060006040518060200160405280600081525061333e565b81600081518110611acd577f4e487b7100000000000000000000000000000000000000000000000000000000600052603260045260246000fd5b602002602001018190525060006040518060600160405280600063ffffffff1681526020018573ffffffffffffffffffffffffffffffffffffffff168152602001627a120063ffffffff168152509050600060405180610120016040528060028054611b38906187be565b80601f0160208091040260200160405190810160405280929190818152602001828054611b64906187be565b8015611bb15780601f10611b8657610100808354040283529160200191611bb1565b820191906000526020600020905b815481529060010190602001808311611b9457829003601f168201915b5050505050815260200160038054611bc8906187be565b80601f0160208091040260200160405190810160405280929190818152602001828054611bf4906187be565b8015611c415780601f10611c1657610100808354040283529160200191611c41565b820191906000526020600020905b815481529060010190602001808311611c2457829003601f168201915b505050505081526020018673ffffffffffffffffffffffffffffffffffffffff16815260200160048054611c74906187be565b80601f0160208091040260200160405190810160405280929190818152602001828054611ca0906187be565b8015611ced5780601f10611cc257610100808354040283529160200191611ced565b820191906000526020600020905b815481529060010190602001808311611cd057829003601f168201915b50505050508152602001600115158152602001600560089054906101000a900460070b60070b81526020016000151581526020018481526020018381525090506000600167ffffffffffffffff811115611d70577f4e487b7100000000000000000000000000000000000000000000000000000000600052604160045260246000fd5b604051908082528060200260200182016040528015611da957816020015b611d96614eca565b815260200190600190039081611d8e5790505b5090506040518060a00160405280600163ffffffff1681526020018673ffffffffffffffffffffffffffffffffffffffff1681526020016000151581526020016000151581526020018773ffffffffffffffffffffffffffffffffffffffff1681525081600081518110611e46577f4e487b7100000000000000000000000000000000000000000000000000000000600052603260045260246000fd5b60200260200101819052506000600167ffffffffffffffff811115611e94577f4e487b7100000000000000000000000000000000000000000000000000000000600052604160045260246000fd5b604051908082528060200260200182016040528015611ecd57816020015b611eba614f2f565b815260200190600190039081611eb25790505b5090506040518060c00160405280600463ffffffff168152602001600563ffffffff168152602001600a63ffffffff168152602001601e63ffffffff1681526020016000151581526020018873ffffffffffffffffffffffffffffffffffffffff1681525081600081518110611f6c577f4e487b7100000000000000000000000000000000000000000000000000000000600052603260045260246000fd5b6020026020010181905250600080611faf85600560009054906101000a900467ffffffffffffffff16600560109054906101000a900463ffffffff168787613eec565b915091507f90a5cf4cffe88b4edbb041cfc7a8a812c48a5ec30b84640fb37690875168e3aa82604051611fe29190617e6a565b60405180910390a1601660030b8214611ffa57600080fd5b7f7bb17726df1f3adee8aa00ba8e8bc5d6f182af3bbf77604639cb7f008dd3b4ed816040516120299190617bca565b60405180910390a1505050505050505050565b600080600061016773ffffffffffffffffffffffffffffffffffffffff16638f8d7f9960e01b8686604051602401612075929190617be5565b604051602081830303815290604052907bffffffffffffffffffffffffffffffffffffffffffffffffffffffff19166020820180517bffffffffffffffffffffffffffffffffffffffffffffffffffffffff83818316178352505050506040516120df9190617bb3565b6000604051808303816000865af19150503d806000811461211c576040519150601f19603f3d011682016040523d82523d6000602084013e612121565b606091505b509150915081612132576015612147565b808060200190518101906121469190616992565b5b60030b9250505092915050565b600061216b8383906121669190618755565b614071565b90507f90a5cf4cffe88b4edbb041cfc7a8a812c48a5ec30b84640fb37690875168e3aa8160405161219c9190617e6a565b60405180910390a1601660030b81146121b457600080fd5b92915050565b60006121c582614186565b90507f90a5cf4cffe88b4edbb041cfc7a8a812c48a5ec30b84640fb37690875168e3aa816040516121f69190617e6a565b60405180910390a1601660030b811461220e57600080fd5b919050565b6000803073ffffffffffffffffffffffffffffffffffffffff1663f2c31ff485856040518363ffffffff1660e01b8152600401612251929190617be5565b6040805180830381600087803b15801561226a57600080fd5b505af115801561227e573d6000803e3d6000fd5b505050506040513d601f19601f820116820180604052508101906122a29190616ce2565b80925081935050507f90a5cf4cffe88b4edbb041cfc7a8a812c48a5ec30b84640fb37690875168e3aa826040516122d99190617ff7565b60405180910390a1601660030b8260070b146122f457600080fd5b7fd24dda6928587354b65aa1a18c2eaf249bef7e5bafd2a71fac71d286f76f957f816040516123239190617e4f565b60405180910390a19250929050565b600080600061016773ffffffffffffffffffffffffffffffffffffffff1663af99c63360e01b868660405160240161236b929190617be5565b604051602081830303815290604052907bffffffffffffffffffffffffffffffffffffffffffffffffffffffff19166020820180517bffffffffffffffffffffffffffffffffffffffffffffffffffffffff83818316178352505050506040516123d59190617bb3565b6000604051808303816000865af19150503d8060008114612412576040519150601f19603f3d011682016040523d82523d6000602084013e612417565b606091505b50915091508161242857601561243d565b8080602001905181019061243c9190616992565b5b60030b9250505092915050565b6000612454614f95565b60008061016773ffffffffffffffffffffffffffffffffffffffff1663d614cdb860e01b866040516024016124899190617bca565b604051602081830303815290604052907bffffffffffffffffffffffffffffffffffffffffffffffffffffffff19166020820180517bffffffffffffffffffffffffffffffffffffffffffffffffffffffff83818316178352505050506040516124f39190617bb3565b6000604051808303816000865af19150503d8060008114612530576040519150601f19603f3d011682016040523d82523d6000602084013e612535565b606091505b5091509150612542614f95565b8261254f57601581612564565b818060200190518101906125639190616ade565b5b8160030b91508095508196505050505050915091565b6000600567ffffffffffffffff8111156125bd577f4e487b7100000000000000000000000000000000000000000000000000000000600052604160045260246000fd5b6040519080825280602002602001820160405280156125f657816020015b6125e3614e16565b8152602001906001900390816125db5790505b5090506126176000600660006040518060200160405280600081525061333e565b81600081518110612651577f4e487b7100000000000000000000000000000000000000000000000000000000600052603260045260246000fd5b60200260200101819052506126786001600060405180602001604052806000815250613377565b816001815181106126b2577f4e487b7100000000000000000000000000000000000000000000000000000000600052603260045260246000fd5b60200260200101819052506126d96002600060405180602001604052806000815250613377565b81600281518110612713577f4e487b7100000000000000000000000000000000000000000000000000000000600052603260045260246000fd5b602002602001018190525061273a6004600060405180602001604052806000815250613377565b81600381518110612774577f4e487b7100000000000000000000000000000000000000000000000000000000600052603260045260246000fd5b602002602001018190525061279b6003600060405180602001604052806000815250613377565b816004815181106127d5577f4e487b7100000000000000000000000000000000000000000000000000000000600052603260045260246000fd5b602002602001018190525060006040518060600160405280600063ffffffff1681526020018473ffffffffffffffffffffffffffffffffffffffff168152602001627a120063ffffffff168152509050600060405180610120016040528060028054612840906187be565b80601f016020809104026020016040519081016040528092919081815260200182805461286c906187be565b80156128b95780601f1061288e576101008083540402835291602001916128b9565b820191906000526020600020905b81548152906001019060200180831161289c57829003601f168201915b50505050508152602001600380546128d0906187be565b80601f01602080910402602001604051908101604052809291908181526020018280546128fc906187be565b80156129495780601f1061291e57610100808354040283529160200191612949565b820191906000526020600020905b81548152906001019060200180831161292c57829003601f168201915b505050505081526020018573ffffffffffffffffffffffffffffffffffffffff1681526020016004805461297c906187be565b80601f01602080910402602001604051908101604052809291908181526020018280546129a8906187be565b80156129f55780601f106129ca576101008083540402835291602001916129f5565b820191906000526020600020905b8154815290600101906020018083116129d857829003601f168201915b50505050508152602001600115158152602001600560089054906101000a900460070b60070b8152602001600560149054906101000a900460ff1615158152602001848152602001838152509050600080612a4f8361429b565b91509150601660030b8214612a6357600080fd5b7f7bb17726df1f3adee8aa00ba8e8bc5d6f182af3bbf77604639cb7f008dd3b4ed81604051612a929190617bca565b60405180910390a1505050505050565b6000612aaf848484614413565b90507f90a5cf4cffe88b4edbb041cfc7a8a812c48a5ec30b84640fb37690875168e3aa81604051612ae09190617e6a565b60405180910390a1601660030b8114612af857600080fd5b9392505050565b6000612b0c84848461452e565b90507f90a5cf4cffe88b4edbb041cfc7a8a812c48a5ec30b84640fb37690875168e3aa81604051612b3d9190617e6a565b60405180910390a1601660030b8114612b5557600080fd5b9392505050565b60008060008061016773ffffffffffffffffffffffffffffffffffffffff1663f2c31ff460e01b8787604051602401612b96929190617be5565b604051602081830303815290604052907bffffffffffffffffffffffffffffffffffffffffffffffffffffffff19166020820180517bffffffffffffffffffffffffffffffffffffffffffffffffffffffff8381831617835250505050604051612c009190617bb3565b6000604051808303816000865af19150503d8060008114612c3d576040519150601f19603f3d011682016040523d82523d6000602084013e612c42565b606091505b509150915081612c555760156000612c6a565b80806020019051810190612c699190616aa2565b5b8160030b9150809450819550505050509250929050565b6000612c8b614fd8565b612c9483614649565b80925081935050507f90a5cf4cffe88b4edbb041cfc7a8a812c48a5ec30b84640fb37690875168e3aa82604051612ccb9190617e6a565b60405180910390a1601660030b8214612ce357600080fd5b7fbdb65f8c2a2e9a3a37ea49e903836883766a922e4ce9b21f684035e304962d4181604051612d1291906181bc565b60405180910390a1915091565b6000612d2b8383614779565b90507f90a5cf4cffe88b4edbb041cfc7a8a812c48a5ec30b84640fb37690875168e3aa81604051612d5c9190617e6a565b60405180910390a1601660030b8114612d7457600080fd5b92915050565b6000612d87848484614891565b90507f90a5cf4cffe88b4edbb041cfc7a8a812c48a5ec30b84640fb37690875168e3aa81604051612db89190617e6a565b60405180910390a1601660030b8114612dd057600080fd5b9392505050565b600080600067ffffffffffffffff811115612e1b577f4e487b7100000000000000000000000000000000000000000000000000000000600052604160045260246000fd5b604051908082528060200260200182016040528015612e5457816020015b612e4161503a565b815260200190600190039081612e395790505b509050600060405180604001604052803373ffffffffffffffffffffffffffffffffffffffff16815260200185612e8a90618821565b60070b8152509050600060405180604001604052808873ffffffffffffffffffffffffffffffffffffffff1681526020018660070b81525090506000600267ffffffffffffffff811115612f07577f4e487b7100000000000000000000000000000000000000000000000000000000600052604160045260246000fd5b604051908082528060200260200182016040528015612f4057816020015b612f2d61508a565b815260200190600190039081612f255790505b5090508281600081518110612f7e577f4e487b7100000000000000000000000000000000000000000000000000000000600052603260045260246000fd5b60200260200101819052508181600181518110612fc4577f4e487b7100000000000000000000000000000000000000000000000000000000600052603260045260246000fd5b6020026020010181905250600060405180606001604052808973ffffffffffffffffffffffffffffffffffffffff1681526020018381526020018681525090506000600167ffffffffffffffff811115613047577f4e487b7100000000000000000000000000000000000000000000000000000000600052604160045260246000fd5b60405190808252806020026020018201604052801561308057816020015b61306d6150bd565b8152602001906001900390816130655790505b50905081816000815181106130be577f4e487b7100000000000000000000000000000000000000000000000000000000600052603260045260246000fd5b60200260200101819052506130d281614071565b9650601660030b87146130e457600080fd5b5050505050509392505050565b60008060008061016773ffffffffffffffffffffffffffffffffffffffff1663f49f40db60e01b88888860405160240161312d93929190617c0e565b604051602081830303815290604052907bffffffffffffffffffffffffffffffffffffffffffffffffffffffff19166020820180517bffffffffffffffffffffffffffffffffffffffffffffffffffffffff83818316178352505050506040516131979190617bb3565b6000604051808303816000865af19150503d80600081146131d4576040519150601f19603f3d011682016040523d82523d6000602084013e6131d9565b606091505b5091509150816131ec5760156000613201565b808060200190518101906132009190616aa2565b5b8160030b915080945081955050505050935093915050565b60008060008061016773ffffffffffffffffffffffffffffffffffffffff1663098f236660e01b8787604051602401613253929190617d7a565b604051602081830303815290604052907bffffffffffffffffffffffffffffffffffffffffffffffffffffffff19166020820180517bffffffffffffffffffffffffffffffffffffffffffffffffffffffff83818316178352505050506040516132bd9190617bb3565b6000604051808303816000865af19150503d80600081146132fa576040519150601f19603f3d011682016040523d82523d6000602084013e6132ff565b606091505b5091509150816133125760156000613327565b8080602001905181019061332691906169bb565b5b8160030b9150809450819550505050509250929050565b613346614e16565b604051806040016040528061335b87876149ac565b815260200161336a8585614a4e565b8152509050949350505050565b61337f614e16565b604051806040016040528061339386614da8565b81526020016133a28585614a4e565b81525090509392505050565b6000808460008161010001516000015163ffffffff161480156133e0575060008161010001516040015163ffffffff16145b15613406576276a7008161010001516040019063ffffffff16908163ffffffff16815250505b60008061016773ffffffffffffffffffffffffffffffffffffffff163463c23baeb660e01b8a8a8a604051602401613440939291906180f4565b604051602081830303815290604052907bffffffffffffffffffffffffffffffffffffffffffffffffffffffff19166020820180517bffffffffffffffffffffffffffffffffffffffffffffffffffffffff83818316178352505050506040516134aa9190617bb3565b60006040518083038185875af1925050503d80600081146134e7576040519150601f19603f3d011682016040523d82523d6000602084013e6134ec565b606091505b5091509150816134ff5760156000613514565b8080602001905181019061351391906169bb565b5b8160030b91508095508196505050505050935093915050565b600080600061016773ffffffffffffffffffffffffffffffffffffffff1663eca3691760e01b8888888860405160240161356a9493929190617c45565b604051602081830303815290604052907bffffffffffffffffffffffffffffffffffffffffffffffffffffffff19166020820180517bffffffffffffffffffffffffffffffffffffffffffffffffffffffff83818316178352505050506040516135d49190617bb3565b6000604051808303816000865af19150503d8060008114613611576040519150601f19603f3d011682016040523d82523d6000602084013e613616565b606091505b50915091508161362757601561363c565b8080602001905181019061363b9190616992565b5b60030b92505050949350505050565b6000613655614e36565b60008061016773ffffffffffffffffffffffffffffffffffffffff1663287e1da860e01b878760405160240161368c929190617cf8565b604051602081830303815290604052907bffffffffffffffffffffffffffffffffffffffffffffffffffffffff19166020820180517bffffffffffffffffffffffffffffffffffffffffffffffffffffffff83818316178352505050506040516136f69190617bb3565b6000604051808303816000865af19150503d8060008114613733576040519150601f19603f3d011682016040523d82523d6000602084013e613738565b606091505b5091509150613745614e36565b8261375257601581613767565b818060200190518101906137669190616b6e565b5b8160030b915080955081965050505050509250929050565b60008060008061016773ffffffffffffffffffffffffffffffffffffffff1663927da10560e01b8888886040516024016137bb93929190617c0e565b604051602081830303815290604052907bffffffffffffffffffffffffffffffffffffffffffffffffffffffff19166020820180517bffffffffffffffffffffffffffffffffffffffffffffffffffffffff83818316178352505050506040516138259190617bb3565b6000604051808303816000865af19150503d8060008114613862576040519150601f19603f3d011682016040523d82523d6000602084013e613867565b606091505b50915091508161387a576015600061388f565b8080602001905181019061388e9190616c16565b5b8160030b915080945081955050505050935093915050565b6000606080606060008061016773ffffffffffffffffffffffffffffffffffffffff1663ae7611a060e01b886040516024016138e39190617bca565b604051602081830303815290604052907bffffffffffffffffffffffffffffffffffffffffffffffffffffffff19166020820180517bffffffffffffffffffffffffffffffffffffffffffffffffffffffff838183161783525050505060405161394d9190617bb3565b6000604051808303816000865af19150503d806000811461398a576040519150601f19603f3d011682016040523d82523d6000602084013e61398f565b606091505b50915091506060806060846139a85760158383836139bd565b838060200190518101906139bc91906169f7565b5b8360030b9350809950819a50829b50839c505050505050505050509193509193565b60006139e9614ea4565b60008061016773ffffffffffffffffffffffffffffffffffffffff16633f28a19b60e01b86604051602401613a1e9190617bca565b604051602081830303815290604052907bffffffffffffffffffffffffffffffffffffffffffffffffffffffff19166020820180517bffffffffffffffffffffffffffffffffffffffffffffffffffffffff8381831617835250505050604051613a889190617bb3565b6000604051808303816000865af19150503d8060008114613ac5576040519150601f19603f3d011682016040523d82523d6000602084013e613aca565b606091505b5091509150613ad7614ea4565b82613ae457601581613af9565b81806020019051810190613af89190616b1a565b5b8160030b91508095508196505050505050915091565b600080600061016773ffffffffffffffffffffffffffffffffffffffff16635cfc901160e01b88888888604051602401613b4c9493929190617c45565b604051602081830303815290604052907bffffffffffffffffffffffffffffffffffffffffffffffffffffffff19166020820180517bffffffffffffffffffffffffffffffffffffffffffffffffffffffff8381831617835250505050604051613bb69190617bb3565b6000604051808303816000865af19150503d8060008114613bf3576040519150601f19603f3d011682016040523d82523d6000602084013e613bf8565b606091505b509150915081613c09576015613c1e565b80806020019051810190613c1d9190616992565b5b60030b92505050949350505050565b600080606060008061016773ffffffffffffffffffffffffffffffffffffffff1663278e0b8860e01b898989604051602401613c6b93929190617da3565b604051602081830303815290604052907bffffffffffffffffffffffffffffffffffffffffffffffffffffffff19166020820180517bffffffffffffffffffffffffffffffffffffffffffffffffffffffff8381831617835250505050604051613cd59190617bb3565b6000604051808303816000865af19150503d8060008114613d12576040519150601f19603f3d011682016040523d82523d6000602084013e613d17565b606091505b509150915081613d9957601560008067ffffffffffffffff811115613d65577f4e487b7100000000000000000000000000000000000000000000000000000000600052604160045260246000fd5b604051908082528060200260200182016040528015613d935781602001602082028036833780820191505090505b50613dae565b80806020019051810190613dad9190616c52565b5b8260030b9250809550819650829750505050505093509350939050565b60008060008061016773ffffffffffffffffffffffffffffffffffffffff1663335e04c160e01b86604051602401613e039190617bca565b604051602081830303815290604052907bffffffffffffffffffffffffffffffffffffffffffffffffffffffff19166020820180517bffffffffffffffffffffffffffffffffffffffffffffffffffffffff8381831617835250505050604051613e6d9190617bb3565b6000604051808303816000865af19150503d8060008114613eaa576040519150601f19603f3d011682016040523d82523d6000602084013e613eaf565b606091505b509150915081613ec25760156000613ed7565b80806020019051810190613ed69190616aa2565b5b8160030b915080945081955050505050915091565b6000808660008161010001516000015163ffffffff16148015613f1e575060008161010001516040015163ffffffff16145b15613f44576276a7008161010001516040019063ffffffff16908163ffffffff16815250505b60008061016773ffffffffffffffffffffffffffffffffffffffff163463b937581a60e01b8c8c8c8c8c604051602401613f82959493929190618132565b604051602081830303815290604052907bffffffffffffffffffffffffffffffffffffffffffffffffffffffff19166020820180517bffffffffffffffffffffffffffffffffffffffffffffffffffffffff8381831617835250505050604051613fec9190617bb3565b60006040518083038185875af1925050503d8060008114614029576040519150601f19603f3d011682016040523d82523d6000602084013e61402e565b606091505b5091509150816140415760156000614056565b8080602001905181019061405591906169bb565b5b8160030b915080955081965050505050509550959350505050565b600080600061016773ffffffffffffffffffffffffffffffffffffffff1663189a554c60e01b856040516024016140a89190617e2d565b604051602081830303815290604052907bffffffffffffffffffffffffffffffffffffffffffffffffffffffff19166020820180517bffffffffffffffffffffffffffffffffffffffffffffffffffffffff83818316178352505050506040516141129190617bb3565b6000604051808303816000865af19150503d806000811461414f576040519150601f19603f3d011682016040523d82523d6000602084013e614154565b606091505b50915091508161416557601561417a565b808060200190518101906141799190616992565b5b60030b92505050919050565b600080600061016773ffffffffffffffffffffffffffffffffffffffff1663f069f71260e01b856040516024016141bd9190617bca565b604051602081830303815290604052907bffffffffffffffffffffffffffffffffffffffffffffffffffffffff19166020820180517bffffffffffffffffffffffffffffffffffffffffffffffffffffffff83818316178352505050506040516142279190617bb3565b6000604051808303816000865af19150503d8060008114614264576040519150601f19603f3d011682016040523d82523d6000602084013e614269565b606091505b50915091508161427a57601561428f565b8080602001905181019061428e9190616992565b5b60030b92505050919050565b6000808260008161010001516000015163ffffffff161480156142cd575060008161010001516040015163ffffffff16145b156142f3576276a7008161010001516040019063ffffffff16908163ffffffff16815250505b60008061016773ffffffffffffffffffffffffffffffffffffffff1634639c89bb3560e01b8860405160240161432991906180d2565b604051602081830303815290604052907bffffffffffffffffffffffffffffffffffffffffffffffffffffffff19166020820180517bffffffffffffffffffffffffffffffffffffffffffffffffffffffff83818316178352505050506040516143939190617bb3565b60006040518083038185875af1925050503d80600081146143d0576040519150601f19603f3d011682016040523d82523d6000602084013e6143d5565b606091505b5091509150816143e857601560006143fd565b808060200190518101906143fc91906169bb565b5b8160030b91508095508196505050505050915091565b600080600061016773ffffffffffffffffffffffffffffffffffffffff16637336aaf060e01b87878760405160240161444e93929190617cc1565b604051602081830303815290604052907bffffffffffffffffffffffffffffffffffffffffffffffffffffffff19166020820180517bffffffffffffffffffffffffffffffffffffffffffffffffffffffff83818316178352505050506040516144b89190617bb3565b6000604051808303816000865af19150503d80600081146144f5576040519150601f19603f3d011682016040523d82523d6000602084013e6144fa565b606091505b50915091508161450b576015614520565b8080602001905181019061451f9190616992565b5b60030b925050509392505050565b600080600061016773ffffffffffffffffffffffffffffffffffffffff1663367605ca60e01b87878760405160240161456993929190617c8a565b604051602081830303815290604052907bffffffffffffffffffffffffffffffffffffffffffffffffffffffff19166020820180517bffffffffffffffffffffffffffffffffffffffffffffffffffffffff83818316178352505050506040516145d39190617bb3565b6000604051808303816000865af19150503d8060008114614610576040519150601f19603f3d011682016040523d82523d6000602084013e614615565b606091505b50915091508161462657601561463b565b8080602001905181019061463a9190616992565b5b60030b925050509392505050565b6000614653614fd8565b60008061016773ffffffffffffffffffffffffffffffffffffffff16631f69565f60e01b866040516024016146889190617bca565b604051602081830303815290604052907bffffffffffffffffffffffffffffffffffffffffffffffffffffffff19166020820180517bffffffffffffffffffffffffffffffffffffffffffffffffffffffff83818316178352505050506040516146f29190617bb3565b6000604051808303816000865af19150503d806000811461472f576040519150601f19603f3d011682016040523d82523d6000602084013e614734565b606091505b5091509150614741614fd8565b8261474e57601581614763565b818060200190518101906147629190616bc2565b5b8160030b91508095508196505050505050915091565b600080600061016773ffffffffffffffffffffffffffffffffffffffff166349146bde60e01b86866040516024016147b2929190617be5565b604051602081830303815290604052907bffffffffffffffffffffffffffffffffffffffffffffffffffffffff19166020820180517bffffffffffffffffffffffffffffffffffffffffffffffffffffffff838183161783525050505060405161481c9190617bb3565b6000604051808303816000865af19150503d8060008114614859576040519150601f19603f3d011682016040523d82523d6000602084013e61485e565b606091505b50915091508161486f576015614884565b808060200190518101906148839190616992565b5b60030b9250505092915050565b600080600061016773ffffffffffffffffffffffffffffffffffffffff1663e1f21c6760e01b8787876040516024016148cc93929190617cc1565b604051602081830303815290604052907bffffffffffffffffffffffffffffffffffffffffffffffffffffffff19166020820180517bffffffffffffffffffffffffffffffffffffffffffffffffffffffff83818316178352505050506040516149369190617bb3565b6000604051808303816000865af19150503d8060008114614973576040519150601f19603f3d011682016040523d82523d6000602084013e614978565b606091505b50915091508161498957601561499e565b8080602001905181019061499d9190616992565b5b60030b925050509392505050565b60006149f98360068111156149ea577f4e487b7100000000000000000000000000000000000000000000000000000000600052602160045260246000fd5b82614e0290919063ffffffff16565b9050614a46826006811115614a37577f4e487b7100000000000000000000000000000000000000000000000000000000600052602160045260246000fd5b82614e0290919063ffffffff16565b905092915050565b614a566150f4565b60006004811115614a90577f4e487b7100000000000000000000000000000000000000000000000000000000600052602160045260246000fd5b836004811115614ac9577f4e487b7100000000000000000000000000000000000000000000000000000000600052602160045260246000fd5b1415614ae5576001816000019015159081151581525050614da2565b60016004811115614b1f577f4e487b7100000000000000000000000000000000000000000000000000000000600052602160045260246000fd5b836004811115614b58577f4e487b7100000000000000000000000000000000000000000000000000000000600052602160045260246000fd5b1415614bbd57600160009054906101000a900473ffffffffffffffffffffffffffffffffffffffff16816020019073ffffffffffffffffffffffffffffffffffffffff16908173ffffffffffffffffffffffffffffffffffffffff1681525050614da1565b60026004811115614bf7577f4e487b7100000000000000000000000000000000000000000000000000000000600052602160045260246000fd5b836004811115614c30577f4e487b7100000000000000000000000000000000000000000000000000000000600052602160045260246000fd5b1415614c4457818160400181905250614da0565b60036004811115614c7e577f4e487b7100000000000000000000000000000000000000000000000000000000600052602160045260246000fd5b836004811115614cb7577f4e487b7100000000000000000000000000000000000000000000000000000000600052602160045260246000fd5b1415614ccb57818160600181905250614d9f565b600480811115614d04577f4e487b7100000000000000000000000000000000000000000000000000000000600052602160045260246000fd5b836004811115614d3d577f4e487b7100000000000000000000000000000000000000000000000000000000600052602160045260246000fd5b1415614d9e57600160009054906101000a900473ffffffffffffffffffffffffffffffffffffffff16816080019073ffffffffffffffffffffffffffffffffffffffff16908173ffffffffffffffffffffffffffffffffffffffff16815250505b5b5b5b5b92915050565b6000806000836006811115614de6577f4e487b7100000000000000000000000000000000000000000000000000000000600052602160045260246000fd5b60ff1660ff168152602001908152602001600020549050919050565b60008160ff166001901b8317905092915050565b604051806040016040528060008152602001614e306150f4565b81525090565b6040518060c00160405280614e49614fd8565b8152602001600060070b8152602001600073ffffffffffffffffffffffffffffffffffffffff168152602001600060070b815260200160608152602001600073ffffffffffffffffffffffffffffffffffffffff1681525090565b6040518060400160405280614eb7614fd8565b8152602001600063ffffffff1681525090565b6040518060a00160405280600063ffffffff168152602001600073ffffffffffffffffffffffffffffffffffffffff168152602001600015158152602001600015158152602001600073ffffffffffffffffffffffffffffffffffffffff1681525090565b6040518060c00160405280600063ffffffff168152602001600063ffffffff168152602001600063ffffffff168152602001600063ffffffff168152602001600015158152602001600073ffffffffffffffffffffffffffffffffffffffff1681525090565b6040518060600160405280600063ffffffff168152602001600073ffffffffffffffffffffffffffffffffffffffff168152602001600063ffffffff1681525090565b604051806101200160405280614fec615151565b8152602001600067ffffffffffffffff168152602001600015158152602001600015158152602001600015158152602001606081526020016060815260200160608152602001606081525090565b6040518060600160405280600073ffffffffffffffffffffffffffffffffffffffff168152602001600073ffffffffffffffffffffffffffffffffffffffff168152602001600060070b81525090565b6040518060400160405280600073ffffffffffffffffffffffffffffffffffffffff168152602001600060070b81525090565b6040518060600160405280600073ffffffffffffffffffffffffffffffffffffffff16815260200160608152602001606081525090565b6040518060a00160405280600015158152602001600073ffffffffffffffffffffffffffffffffffffffff1681526020016060815260200160608152602001600073ffffffffffffffffffffffffffffffffffffffff1681525090565b6040518061012001604052806060815260200160608152602001600073ffffffffffffffffffffffffffffffffffffffff16815260200160608152602001600015158152602001600060070b8152602001600015158152602001606081526020016151ba614f95565b81525090565b60006151d36151ce8461824e565b618229565b905080838252602082019050828560208602820111156151f257600080fd5b60005b8581101561523c57813567ffffffffffffffff81111561521457600080fd5b8086016152218982615985565b855260208501945060208401935050506001810190506151f5565b5050509392505050565b60006152596152548461827a565b618229565b9050808382526020820190508285602086028201111561527857600080fd5b60005b858110156152a8578161528e8882615a03565b84526020840193506020830192505060018101905061527b565b5050509392505050565b60006152c56152c0846182a6565b618229565b905080838252602082019050828560408602820111156152e457600080fd5b60005b8581101561531457816152fa8882615a6c565b8452602084019350604083019250506001810190506152e7565b5050509392505050565b600061533161532c846182d2565b618229565b905080838252602082019050828560a086028201111561535057600080fd5b60005b8581101561538057816153668882615b78565b845260208401935060a08301925050600181019050615353565b5050509392505050565b600061539d615398846182fe565b618229565b905080838252602082019050828560c08602820111156153bc57600080fd5b60005b858110156153ec57816153d28882615c00565b845260208401935060c083019250506001810190506153bf565b5050509392505050565b60006154096154048461832a565b618229565b9050808382526020820190508285606086028201111561542857600080fd5b60005b85811015615458578161543e88826160e8565b84526020840193506060830192505060018101905061542b565b5050509392505050565b600061547561547084618356565b618229565b905080838252602082019050828560c086028201111561549457600080fd5b60005b858110156154c457816154aa8882616214565b845260208401935060c08301925050600181019050615497565b5050509392505050565b60006154e16154dc84618382565b618229565b9050808382526020820190508285602086028201111561550057600080fd5b60005b8581101561554a57813567ffffffffffffffff81111561552257600080fd5b80860161552f8982616404565b85526020850194506020840193505050600181019050615503565b5050509392505050565b600061556761556284618382565b618229565b9050808382526020820190508285602086028201111561558657600080fd5b60005b858110156155d057815167ffffffffffffffff8111156155a857600080fd5b8086016155b58982616468565b85526020850194506020840193505050600181019050615589565b5050509392505050565b60006155ed6155e8846183ae565b618229565b9050808382526020820190508285602086028201111561560c57600080fd5b60005b8581101561565657813567ffffffffffffffff81111561562e57600080fd5b80860161563b89826164cc565b8552602085019450602084019350505060018101905061560f565b5050509392505050565b600061567361566e846183da565b618229565b90508281526020810184848401111561568b57600080fd5b61569684828561877c565b509392505050565b60006156b16156ac846183da565b618229565b9050828152602081018484840111156156c957600080fd5b6156d484828561878b565b509392505050565b60006156ef6156ea8461840b565b618229565b90508281526020810184848401111561570757600080fd5b61571284828561877c565b509392505050565b600061572d6157288461840b565b618229565b90508281526020810184848401111561574557600080fd5b61575084828561878b565b509392505050565b60008135905061576781618908565b92915050565b60008151905061577c81618908565b92915050565b6000815190506157918161891f565b92915050565b600082601f8301126157a857600080fd5b81356157b88482602086016151c0565b91505092915050565b600082601f8301126157d257600080fd5b81516157e2848260208601615246565b91505092915050565b600082601f8301126157fc57600080fd5b813561580c8482602086016152b2565b91505092915050565b600082601f83011261582657600080fd5b815161583684826020860161531e565b91505092915050565b600082601f83011261585057600080fd5b815161586084826020860161538a565b91505092915050565b600082601f83011261587a57600080fd5b813561588a8482602086016153f6565b91505092915050565b600082601f8301126158a457600080fd5b81516158b4848260208601615462565b91505092915050565b600082601f8301126158ce57600080fd5b81356158de8482602086016154ce565b91505092915050565b600082601f8301126158f857600080fd5b8151615908848260208601615554565b91505092915050565b60008083601f84011261592357600080fd5b8235905067ffffffffffffffff81111561593c57600080fd5b60208301915083602082028301111561595457600080fd5b9250929050565b60008135905061596a81618936565b92915050565b60008151905061597f81618936565b92915050565b600082601f83011261599657600080fd5b81356159a6848260208601615660565b91505092915050565b600082601f8301126159c057600080fd5b81516159d084826020860161569e565b91505092915050565b6000815190506159e88161894d565b92915050565b6000813590506159fd81618964565b92915050565b600081519050615a1281618964565b92915050565b600082601f830112615a2957600080fd5b8135615a398482602086016156dc565b91505092915050565b600082601f830112615a5357600080fd5b8151615a6384826020860161571a565b91505092915050565b600060408284031215615a7e57600080fd5b615a886040618229565b90506000615a9884828501615758565b6000830152506020615aac848285016159ee565b60208301525092915050565b600060608284031215615aca57600080fd5b615ad46060618229565b90506000615ae484828501616586565b6000830152506020615af884828501615758565b6020830152506040615b0c84828501616586565b60408301525092915050565b600060608284031215615b2a57600080fd5b615b346060618229565b90506000615b448482850161659b565b6000830152506020615b588482850161576d565b6020830152506040615b6c8482850161659b565b60408301525092915050565b600060a08284031215615b8a57600080fd5b615b9460a0618229565b90506000615ba48482850161659b565b6000830152506020615bb88482850161576d565b6020830152506040615bcc84828501615970565b6040830152506060615be084828501615970565b6060830152506080615bf48482850161576d565b60808301525092915050565b600060c08284031215615c1257600080fd5b615c1c60c0618229565b90506000615c2c8482850161659b565b6000830152506020615c408482850161659b565b6020830152506040615c548482850161659b565b6040830152506060615c688482850161659b565b6060830152506080615c7c84828501615970565b60808301525060a0615c908482850161576d565b60a08301525092915050565b600060408284031215615cae57600080fd5b615cb86040618229565b9050600082015167ffffffffffffffff811115615cd457600080fd5b615ce0848285016162b0565b6000830152506020615cf48482850161659b565b60208301525092915050565b60006101608284031215615d1357600080fd5b615d1e610120618229565b9050600082013567ffffffffffffffff811115615d3a57600080fd5b615d4684828501615a18565b600083015250602082013567ffffffffffffffff811115615d6657600080fd5b615d7284828501615a18565b6020830152506040615d8684828501615758565b604083015250606082013567ffffffffffffffff811115615da657600080fd5b615db284828501615a18565b6060830152506080615dc68482850161595b565b60808301525060a0615dda848285016159ee565b60a08301525060c0615dee8482850161595b565b60c08301525060e082013567ffffffffffffffff811115615e0e57600080fd5b615e1a848285016158bd565b60e083015250610100615e2f84828501615ab8565b6101008301525092915050565b60006101608284031215615e4f57600080fd5b615e5a610120618229565b9050600082015167ffffffffffffffff811115615e7657600080fd5b615e8284828501615a42565b600083015250602082015167ffffffffffffffff811115615ea257600080fd5b615eae84828501615a42565b6020830152506040615ec28482850161576d565b604083015250606082015167ffffffffffffffff811115615ee257600080fd5b615eee84828501615a42565b6060830152506080615f0284828501615970565b60808301525060a0615f1684828501615a03565b60a08301525060c0615f2a84828501615970565b60c08301525060e082015167ffffffffffffffff811115615f4a57600080fd5b615f56848285016158e7565b60e083015250610100615f6b84828501615b18565b6101008301525092915050565b600060a08284031215615f8a57600080fd5b615f9460a0618229565b90506000615fa48482850161595b565b6000830152506020615fb884828501615758565b602083015250604082013567ffffffffffffffff811115615fd857600080fd5b615fe484828501615985565b604083015250606082013567ffffffffffffffff81111561600457600080fd5b61601084828501615985565b606083015250608061602484828501615758565b60808301525092915050565b600060a0828403121561604257600080fd5b61604c60a0618229565b9050600061605c84828501615970565b60008301525060206160708482850161576d565b602083015250604082015167ffffffffffffffff81111561609057600080fd5b61609c848285016159af565b604083015250606082015167ffffffffffffffff8111156160bc57600080fd5b6160c8848285016159af565b60608301525060806160dc8482850161576d565b60808301525092915050565b6000606082840312156160fa57600080fd5b6161046060618229565b9050600061611484828501615758565b600083015250602061612884828501615758565b602083015250604061613c848285016159ee565b60408301525092915050565b600060c0828403121561615a57600080fd5b61616460c0618229565b9050600082015167ffffffffffffffff81111561618057600080fd5b61618c848285016162b0565b60008301525060206161a084828501615a03565b60208301525060406161b48482850161576d565b60408301525060606161c884828501615a03565b606083015250608082015167ffffffffffffffff8111156161e857600080fd5b6161f4848285016159af565b60808301525060a06162088482850161576d565b60a08301525092915050565b600060c0828403121561622657600080fd5b61623060c0618229565b905060006162408482850161659b565b60008301525060206162548482850161659b565b60208301525060406162688482850161659b565b604083015250606061627c8482850161576d565b606083015250608061629084828501615970565b60808301525060a06162a48482850161576d565b60a08301525092915050565b600061012082840312156162c357600080fd5b6162ce610120618229565b9050600082015167ffffffffffffffff8111156162ea57600080fd5b6162f684828501615e3c565b600083015250602061630a848285016165c5565b602083015250604061631e84828501615970565b604083015250606061633284828501615970565b606083015250608061634684828501615970565b60808301525060a082015167ffffffffffffffff81111561636657600080fd5b61637284828501615815565b60a08301525060c082015167ffffffffffffffff81111561639257600080fd5b61639e8482850161583f565b60c08301525060e082015167ffffffffffffffff8111156163be57600080fd5b6163ca84828501615893565b60e08301525061010082015167ffffffffffffffff8111156163eb57600080fd5b6163f784828501615a42565b6101008301525092915050565b60006040828403121561641657600080fd5b6164206040618229565b905060006164308482850161655c565b600083015250602082013567ffffffffffffffff81111561645057600080fd5b61645c84828501615f78565b60208301525092915050565b60006040828403121561647a57600080fd5b6164846040618229565b9050600061649484828501616571565b600083015250602082015167ffffffffffffffff8111156164b457600080fd5b6164c084828501616030565b60208301525092915050565b6000606082840312156164de57600080fd5b6164e86060618229565b905060006164f884828501615758565b600083015250602082013567ffffffffffffffff81111561651857600080fd5b616524848285016157eb565b602083015250604082013567ffffffffffffffff81111561654457600080fd5b61655084828501615869565b60408301525092915050565b60008135905061656b8161897b565b92915050565b6000815190506165808161897b565b92915050565b60008135905061659581618992565b92915050565b6000815190506165aa81618992565b92915050565b6000813590506165bf816189a9565b92915050565b6000815190506165d4816189a9565b92915050565b6000602082840312156165ec57600080fd5b60006165fa84828501615758565b91505092915050565b6000806040838503121561661657600080fd5b600061662485828601615758565b925050602061663585828601615758565b9150509250929050565b60008060006060848603121561665457600080fd5b600061666286828701615758565b935050602061667386828701615758565b925050604061668486828701615758565b9150509250925092565b600080600080608085870312156166a457600080fd5b60006166b287828801615758565b94505060206166c387828801615758565b93505060406166d487828801615758565b92505060606166e5878288016159ee565b91505092959194509250565b60008060006060848603121561670657600080fd5b600061671486828701615758565b935050602061672586828701615758565b92505060406167368682870161595b565b9150509250925092565b60008060006060848603121561675557600080fd5b600061676386828701615758565b935050602061677486828701615758565b9250506040616785868287016159ee565b9150509250925092565b6000806000606084860312156167a457600080fd5b60006167b286828701615758565b93505060206167c386828701615758565b92505060406167d48682870161655c565b9150509250925092565b600080604083850312156167f157600080fd5b60006167ff85828601615758565b9250506020616810858286016159ee565b9150509250929050565b6000806080838503121561682d57600080fd5b600061683b85828601615758565b925050602061684c85828601615ab8565b9150509250929050565b6000806040838503121561686957600080fd5b600061687785828601615758565b925050602083013567ffffffffffffffff81111561689457600080fd5b6168a085828601615d00565b9150509250929050565b600080604083850312156168bd57600080fd5b60006168cb85828601615758565b92505060206168dc8582860161655c565b9150509250929050565b6000806000606084860312156168fb57600080fd5b600061690986828701615758565b935050602061691a868287016165b0565b925050604084013567ffffffffffffffff81111561693757600080fd5b61694386828701615797565b9150509250925092565b6000806020838503121561696057600080fd5b600083013567ffffffffffffffff81111561697a57600080fd5b61698685828601615911565b92509250509250929050565b6000602082840312156169a457600080fd5b60006169b2848285016159d9565b91505092915050565b600080604083850312156169ce57600080fd5b60006169dc858286016159d9565b92505060206169ed85828601615782565b9150509250929050565b60008060008060808587031215616a0d57600080fd5b6000616a1b878288016159d9565b945050602085015167ffffffffffffffff811115616a3857600080fd5b616a4487828801615815565b935050604085015167ffffffffffffffff811115616a6157600080fd5b616a6d8782880161583f565b925050606085015167ffffffffffffffff811115616a8a57600080fd5b616a9687828801615893565b91505092959194509250565b60008060408385031215616ab557600080fd5b6000616ac3858286016159d9565b9250506020616ad485828601615970565b9150509250929050565b60008060808385031215616af157600080fd5b6000616aff858286016159d9565b9250506020616b1085828601615b18565b9150509250929050565b60008060408385031215616b2d57600080fd5b6000616b3b858286016159d9565b925050602083015167ffffffffffffffff811115616b5857600080fd5b616b6485828601615c9c565b9150509250929050565b60008060408385031215616b8157600080fd5b6000616b8f858286016159d9565b925050602083015167ffffffffffffffff811115616bac57600080fd5b616bb885828601616148565b9150509250929050565b60008060408385031215616bd557600080fd5b6000616be3858286016159d9565b925050602083015167ffffffffffffffff811115616c0057600080fd5b616c0c858286016162b0565b9150509250929050565b60008060408385031215616c2957600080fd5b6000616c37858286016159d9565b9250506020616c4885828601616571565b9150509250929050565b600080600060608486031215616c6757600080fd5b6000616c75868287016159d9565b9350506020616c86868287016165c5565b925050604084015167ffffffffffffffff811115616ca357600080fd5b616caf868287016157c1565b9150509250925092565b600060208284031215616ccb57600080fd5b6000616cd984828501615a03565b91505092915050565b60008060408385031215616cf557600080fd5b6000616d0385828601615a03565b9250506020616d1485828601615970565b9150509250929050565b6000616d2a83836172d3565b905092915050565b6000616d3e838361735b565b60208301905092915050565b6000616d5683836173b2565b60408301905092915050565b6000616d6e8383617465565b60a08301905092915050565b6000616d8683836174cd565b60c08301905092915050565b6000616d9e83836177b6565b60608301905092915050565b6000616db68383617888565b60c08301905092915050565b6000616dce8383617ac5565b905092915050565b6000616de28383617b02565b905092915050565b616df3816186b3565b82525050565b616e02816186b3565b82525050565b6000616e13826184cc565b616e1d81856185ba565b935083602082028501616e2f8561843c565b8060005b85811015616e6b5784840389528151616e4c8582616d1e565b9450616e5783618545565b925060208a01995050600181019050616e33565b50829750879550505050505092915050565b6000616e88826184d7565b616e9281856185cb565b9350616e9d8361844c565b8060005b83811015616ece578151616eb58882616d32565b9750616ec083618552565b925050600181019050616ea1565b5085935050505092915050565b6000616ee6826184e2565b616ef081856185dc565b9350616efb8361845c565b8060005b83811015616f2c578151616f138882616d4a565b9750616f1e8361855f565b925050600181019050616eff565b5085935050505092915050565b6000616f44826184ed565b616f4e81856185ed565b9350616f598361846c565b8060005b83811015616f8a578151616f718882616d62565b9750616f7c8361856c565b925050600181019050616f5d565b5085935050505092915050565b6000616fa2826184ed565b616fac81856185fe565b9350616fb78361846c565b8060005b83811015616fe8578151616fcf8882616d62565b9750616fda8361856c565b925050600181019050616fbb565b5085935050505092915050565b6000617000826184f8565b61700a818561860f565b93506170158361847c565b8060005b8381101561704657815161702d8882616d7a565b975061703883618579565b925050600181019050617019565b5085935050505092915050565b600061705e826184f8565b6170688185618620565b93506170738361847c565b8060005b838110156170a457815161708b8882616d7a565b975061709683618579565b925050600181019050617077565b5085935050505092915050565b60006170bc82618503565b6170c68185618631565b93506170d18361848c565b8060005b838110156171025781516170e98882616d92565b97506170f483618586565b9250506001810190506170d5565b5085935050505092915050565b600061711a8261850e565b6171248185618642565b935061712f8361849c565b8060005b838110156171605781516171478882616daa565b975061715283618593565b925050600181019050617133565b5085935050505092915050565b60006171788261850e565b6171828185618653565b935061718d8361849c565b8060005b838110156171be5781516171a58882616daa565b97506171b083618593565b925050600181019050617191565b5085935050505092915050565b60006171d682618519565b6171e08185618664565b9350836020820285016171f2856184ac565b8060005b8581101561722e578484038952815161720f8582616dc2565b945061721a836185a0565b925060208a019950506001810190506171f6565b50829750879550505050505092915050565b600061724b82618524565b6172558185618675565b935083602082028501617267856184bc565b8060005b858110156172a357848403895281516172848582616dd6565b945061728f836185ad565b925060208a0199505060018101905061726b565b50829750879550505050505092915050565b6172be816186d7565b82525050565b6172cd816186d7565b82525050565b60006172de8261852f565b6172e88185618686565b93506172f881856020860161878b565b617301816188f7565b840191505092915050565b60006173178261852f565b6173218185618697565b935061733181856020860161878b565b80840191505092915050565b617346816186e3565b82525050565b6173558161876a565b82525050565b617364816186fa565b82525050565b617373816186fa565b82525050565b60006173848261853a565b61738e81856186a2565b935061739e81856020860161878b565b6173a7816188f7565b840191505092915050565b6040820160008201516173c86000850182616dea565b5060208201516173db602085018261735b565b50505050565b6060820160008201516173f76000850182617b77565b50602082015161740a6020850182616dea565b50604082015161741d6040850182617b77565b50505050565b6060820160008201516174396000850182617b77565b50602082015161744c6020850182616dea565b50604082015161745f6040850182617b77565b50505050565b60a08201600082015161747b6000850182617b77565b50602082015161748e6020850182616dea565b5060408201516174a160408501826172b5565b5060608201516174b460608501826172b5565b5060808201516174c76080850182616dea565b50505050565b60c0820160008201516174e36000850182617b77565b5060208201516174f66020850182617b77565b5060408201516175096040850182617b77565b50606082015161751c6060850182617b77565b50608082015161752f60808501826172b5565b5060a082015161754260a0850182616dea565b50505050565b600060408301600083015184820360008601526175658282617903565b915050602083015161757a6020860182617b77565b508091505092915050565b60006101608301600083015184820360008601526175a38282617379565b915050602083015184820360208601526175bd8282617379565b91505060408301516175d26040860182616dea565b50606083015184820360608601526175ea8282617379565b91505060808301516175ff60808601826172b5565b5060a083015161761260a086018261735b565b5060c083015161762560c08601826172b5565b5060e083015184820360e086015261763d82826171cb565b9150506101008301516176546101008601826173e1565b508091505092915050565b600061016083016000830151848203600086015261767d8282617379565b915050602083015184820360208601526176978282617379565b91505060408301516176ac6040860182616dea565b50606083015184820360608601526176c48282617379565b91505060808301516176d960808601826172b5565b5060a08301516176ec60a086018261735b565b5060c08301516176ff60c08601826172b5565b5060e083015184820360e086015261771782826171cb565b91505061010083015161772e6101008601826173e1565b508091505092915050565b600060a08301600083015161775160008601826172b5565b5060208301516177646020860182616dea565b506040830151848203604086015261777c82826172d3565b9150506060830151848203606086015261779682826172d3565b91505060808301516177ab6080860182616dea565b508091505092915050565b6060820160008201516177cc6000850182616dea565b5060208201516177df6020850182616dea565b5060408201516177f2604085018261735b565b50505050565b600060c08301600083015184820360008601526178158282617903565b915050602083015161782a602086018261735b565b50604083015161783d6040860182616dea565b506060830151617850606086018261735b565b506080830151848203608086015261786882826172d3565b91505060a083015161787d60a0860182616dea565b508091505092915050565b60c08201600082015161789e6000850182617b77565b5060208201516178b16020850182617b77565b5060408201516178c46040850182617b77565b5060608201516178d76060850182616dea565b5060808201516178ea60808501826172b5565b5060a08201516178fd60a0850182616dea565b50505050565b60006101208301600083015184820360008601526179218282617585565b91505060208301516179366020860182617b95565b50604083015161794960408601826172b5565b50606083015161795c60608601826172b5565b50608083015161796f60808601826172b5565b5060a083015184820360a08601526179878282616f39565b91505060c083015184820360c08601526179a18282616ff5565b91505060e083015184820360e08601526179bb828261710f565b9150506101008301518482036101008601526179d78282617379565b9150508091505092915050565b6000610120830160008301518482036000860152617a028282617585565b9150506020830151617a176020860182617b95565b506040830151617a2a60408601826172b5565b506060830151617a3d60608601826172b5565b506080830151617a5060808601826172b5565b5060a083015184820360a0860152617a688282616f39565b91505060c083015184820360c0860152617a828282616ff5565b91505060e083015184820360e0860152617a9c828261710f565b915050610100830151848203610100860152617ab88282617379565b9150508091505092915050565b6000604083016000830151617add6000860182617b59565b5060208301518482036020860152617af58282617739565b9150508091505092915050565b6000606083016000830151617b1a6000860182616dea565b5060208301518482036020860152617b328282616edb565b91505060408301518482036040860152617b4c82826170b1565b9150508091505092915050565b617b6281618727565b82525050565b617b7181618727565b82525050565b617b8081618731565b82525050565b617b8f81618731565b82525050565b617b9e81618741565b82525050565b617bad81618741565b82525050565b6000617bbf828461730c565b915081905092915050565b6000602082019050617bdf6000830184616df9565b92915050565b6000604082019050617bfa6000830185616df9565b617c076020830184616df9565b9392505050565b6000606082019050617c236000830186616df9565b617c306020830185616df9565b617c3d6040830184616df9565b949350505050565b6000608082019050617c5a6000830187616df9565b617c676020830186616df9565b617c746040830185616df9565b617c81606083018461736a565b95945050505050565b6000606082019050617c9f6000830186616df9565b617cac6020830185616df9565b617cb960408301846172c4565b949350505050565b6000606082019050617cd66000830186616df9565b617ce36020830185616df9565b617cf06040830184617b68565b949350505050565b6000604082019050617d0d6000830185616df9565b617d1a602083018461736a565b9392505050565b6000608082019050617d366000830185616df9565b617d436020830184617423565b9392505050565b6000604082019050617d5f6000830185616df9565b8181036020830152617d71818461765f565b90509392505050565b6000604082019050617d8f6000830185616df9565b617d9c6020830184617b68565b9392505050565b6000606082019050617db86000830186616df9565b617dc56020830185617ba4565b8181036040830152617dd78184616e08565b9050949350505050565b60006060820190508181036000830152617dfb8186616f97565b90508181036020830152617e0f8185617053565b90508181036040830152617e23818461716d565b9050949350505050565b60006020820190508181036000830152617e478184617240565b905092915050565b6000602082019050617e6460008301846172c4565b92915050565b6000602082019050617e7f600083018461733d565b92915050565b6000604082019050617e9a600083018561733d565b617ea76020830184616df9565b9392505050565b6000604082019050617ec3600083018561733d565b617ed060208301846172c4565b9392505050565b6000608082019050617eec600083018561733d565b617ef96020830184617423565b9392505050565b6000604082019050617f15600083018561733d565b8181036020830152617f278184617548565b90509392505050565b6000604082019050617f45600083018561733d565b8181036020830152617f5781846177f8565b90509392505050565b6000604082019050617f75600083018561733d565b8181036020830152617f8781846179e4565b90509392505050565b6000604082019050617fa5600083018561733d565b617fb26020830184617b68565b9392505050565b6000606082019050617fce600083018661733d565b617fdb6020830185617ba4565b8181036040830152617fed8184616e7d565b9050949350505050565b600060208201905061800c600083018461734c565b92915050565b6000602082019050618027600083018461736a565b92915050565b6000608082019050618042600083018761736a565b81810360208301526180548186616f97565b905081810360408301526180688185617053565b9050818103606083015261807c818461716d565b905095945050505050565b600060408201905061809c600083018561736a565b6180a960208301846172c4565b9392505050565b600060208201905081810360008301526180ca8184617548565b905092915050565b600060208201905081810360008301526180ec818461765f565b905092915050565b6000606082019050818103600083015261810e818661765f565b905061811d6020830185617ba4565b61812a6040830184617b86565b949350505050565b600060a082019050818103600083015261814c818861765f565b905061815b6020830187617ba4565b6181686040830186617b86565b818103606083015261817a8185616f97565b9050818103608083015261818e8184617053565b90509695505050505050565b600060208201905081810360008301526181b481846177f8565b905092915050565b600060208201905081810360008301526181d681846179e4565b905092915050565b60006020820190506181f36000830184617b68565b92915050565b600060408201905061820e6000830185617ba4565b81810360208301526182208184616e7d565b90509392505050565b6000618233618244565b905061823f82826187f0565b919050565b6000604051905090565b600067ffffffffffffffff821115618269576182686188c8565b5b602082029050602081019050919050565b600067ffffffffffffffff821115618295576182946188c8565b5b602082029050602081019050919050565b600067ffffffffffffffff8211156182c1576182c06188c8565b5b602082029050602081019050919050565b600067ffffffffffffffff8211156182ed576182ec6188c8565b5b602082029050602081019050919050565b600067ffffffffffffffff821115618319576183186188c8565b5b602082029050602081019050919050565b600067ffffffffffffffff821115618345576183446188c8565b5b602082029050602081019050919050565b600067ffffffffffffffff821115618371576183706188c8565b5b602082029050602081019050919050565b600067ffffffffffffffff82111561839d5761839c6188c8565b5b602082029050602081019050919050565b600067ffffffffffffffff8211156183c9576183c86188c8565b5b602082029050602081019050919050565b600067ffffffffffffffff8211156183f5576183f46188c8565b5b6183fe826188f7565b9050602081019050919050565b600067ffffffffffffffff821115618426576184256188c8565b5b61842f826188f7565b9050602081019050919050565b6000819050602082019050919050565b6000819050602082019050919050565b6000819050602082019050919050565b6000819050602082019050919050565b6000819050602082019050919050565b6000819050602082019050919050565b6000819050602082019050919050565b6000819050602082019050919050565b6000819050602082019050919050565b600081519050919050565b600081519050919050565b600081519050919050565b600081519050919050565b600081519050919050565b600081519050919050565b600081519050919050565b600081519050919050565b600081519050919050565b600081519050919050565b600081519050919050565b6000602082019050919050565b6000602082019050919050565b6000602082019050919050565b6000602082019050919050565b6000602082019050919050565b6000602082019050919050565b6000602082019050919050565b6000602082019050919050565b6000602082019050919050565b600082825260208201905092915050565b600082825260208201905092915050565b600082825260208201905092915050565b600082825260208201905092915050565b600082825260208201905092915050565b600082825260208201905092915050565b600082825260208201905092915050565b600082825260208201905092915050565b600082825260208201905092915050565b600082825260208201905092915050565b600082825260208201905092915050565b600082825260208201905092915050565b600082825260208201905092915050565b600081905092915050565b600082825260208201905092915050565b60006186be82618707565b9050919050565b60006186d082618707565b9050919050565b60008115159050919050565b6000819050919050565b60008160030b9050919050565b60008160070b9050919050565b600073ffffffffffffffffffffffffffffffffffffffff82169050919050565b6000819050919050565b600063ffffffff82169050919050565b600067ffffffffffffffff82169050919050565b60006187623684846155da565b905092915050565b6000618775826186fa565b9050919050565b82818337600083830152505050565b60005b838110156187a957808201518184015260208101905061878e565b838111156187b8576000848401525b50505050565b600060028204905060018216806187d657607f821691505b602082108114156187ea576187e9618899565b5b50919050565b6187f9826188f7565b810181811067ffffffffffffffff82111715618818576188176188c8565b5b80604052505050565b600061882c826186fa565b91507fffffffffffffffffffffffffffffffffffffffffffffffff800000000000000082141561885f5761885e61886a565b5b816000039050919050565b7f4e487b7100000000000000000000000000000000000000000000000000000000600052601160045260246000fd5b7f4e487b7100000000000000000000000000000000000000000000000000000000600052602260045260246000fd5b7f4e487b7100000000000000000000000000000000000000000000000000000000600052604160045260246000fd5b6000601f19601f8301169050919050565b618911816186b3565b811461891c57600080fd5b50565b618928816186c5565b811461893357600080fd5b50565b61893f816186d7565b811461894a57600080fd5b50565b618956816186ed565b811461896157600080fd5b50565b61896d816186fa565b811461897857600080fd5b50565b61898481618727565b811461898f57600080fd5b50565b61899b81618731565b81146189a657600080fd5b50565b6189b281618741565b81146189bd57600080fd5b5056fea2646970667358221220a458987e181275a66fee885ffbaa4e886026689392bf0374de6313670bd96e3364736f6c63430008040033",
  "linkReferences": {},
  "deployedLinkReferences": {}
}