{
  "_format": "hh-sol-artifact-1",
  "contractName": "TokenCreateContract",
  "sourceName": "contracts/hts-precompile/examples/token-create/TokenCreateContract.sol",
  "abi": [
    {
      "anonymous": false,
      "inputs": [
        {
          "indexed": false,
          "internalType": "bool",
          "name": "",
          "type": "bool"
        },
        {
          "indexed": false,
          "internalType": "bytes",
          "name": "",
          "type": "bytes"
        }
      ],
      "name": "CallResponseEvent",
      "type": "event"
    },
    {
      "anonymous": false,
      "inputs": [
        {
          "indexed": false,
          "internalType": "address",
          "name": "tokenAddress",
          "type": "address"
        }
      ],
      "name": "CreatedToken",
      "type": "event"
    },
    {
      "anonymous": false,
      "inputs": [
        {
          "indexed": false,
          "internalType": "bool",
          "name": "kycGranted",
          "type": "bool"
        }
      ],
      "name": "KycGranted",
      "type": "event"
    },
    {
      "anonymous": false,
      "inputs": [
        {
          "indexed": false,
          "internalType": "int64",
          "name": "newTotalSupply",
          "type": "int64"
        },
        {
          "indexed": false,
          "internalType": "int64[]",
          "name": "serialNumbers",
          "type": "int64[]"
        }
      ],
      "name": "MintedToken",
      "type": "event"
    },
    {
      "anonymous": false,
      "inputs": [
        {
          "indexed": false,
          "internalType": "int256",
          "name": "responseCode",
          "type": "int256"
        }
      ],
      "name": "ResponseCode",
      "type": "event"
    },
    {
      "inputs": [
        {
          "internalType": "address",
          "name": "token",
          "type": "address"
        },
        {
          "internalType": "address",
          "name": "spender",
          "type": "address"
        },
        {
          "internalType": "uint256",
          "name": "amount",
          "type": "uint256"
        }
      ],
      "name": "approvePublic",
      "outputs": [
        {
          "internalType": "int256",
          "name": "responseCode",
          "type": "int256"
        }
      ],
      "stateMutability": "nonpayable",
      "type": "function"
    },
    {
      "inputs": [
        {
          "internalType": "address",
          "name": "account",
          "type": "address"
        },
        {
          "internalType": "address",
          "name": "token",
          "type": "address"
        }
      ],
      "name": "associateTokenPublic",
      "outputs": [
        {
          "internalType": "int256",
          "name": "responseCode",
          "type": "int256"
        }
      ],
      "stateMutability": "nonpayable",
      "type": "function"
    },
    {
      "inputs": [
        {
          "internalType": "address",
          "name": "account",
          "type": "address"
        },
        {
          "internalType": "address[]",
          "name": "tokens",
          "type": "address[]"
        }
      ],
      "name": "associateTokensPublic",
      "outputs": [
        {
          "internalType": "int256",
          "name": "responseCode",
          "type": "int256"
        }
      ],
      "stateMutability": "nonpayable",
      "type": "function"
    },
    {
      "inputs": [
        {
          "internalType": "address",
          "name": "treasury",
          "type": "address"
        }
      ],
      "name": "createFungibleTokenPublic",
      "outputs": [],
      "stateMutability": "payable",
      "type": "function"
    },
    {
      "inputs": [
        {
          "internalType": "address",
          "name": "treasury",
          "type": "address"
        },
        {
          "internalType": "address",
          "name": "fixedFeeTokenAddress",
          "type": "address"
        }
      ],
      "name": "createFungibleTokenWithCustomFeesPublic",
      "outputs": [],
      "stateMutability": "payable",
      "type": "function"
    },
    {
      "inputs": [
        {
          "internalType": "address",
          "name": "treasury",
          "type": "address"
        },
        {
          "internalType": "bytes",
          "name": "adminKey",
          "type": "bytes"
        },
        {
          "internalType": "int64",
          "name": "amount",
          "type": "int64"
        }
      ],
      "name": "createFungibleTokenWithSECP256K1AdminKeyAssociateAndTransferToAddressPublic",
      "outputs": [],
      "stateMutability": "payable",
      "type": "function"
    },
    {
      "inputs": [
        {
          "internalType": "address",
          "name": "treasury",
          "type": "address"
        },
        {
          "internalType": "bytes",
          "name": "adminKey",
          "type": "bytes"
        }
      ],
      "name": "createFungibleTokenWithSECP256K1AdminKeyPublic",
      "outputs": [
        {
          "internalType": "address",
          "name": "",
          "type": "address"
        }
      ],
      "stateMutability": "payable",
      "type": "function"
    },
    {
      "inputs": [
        {
          "internalType": "address",
          "name": "treasury",
          "type": "address"
        },
        {
          "internalType": "bytes",
          "name": "adminKey",
          "type": "bytes"
        }
      ],
      "name": "createFungibleTokenWithSECP256K1AdminKeyWithoutKYCPublic",
      "outputs": [
        {
          "internalType": "address",
          "name": "",
          "type": "address"
        }
      ],
      "stateMutability": "payable",
      "type": "function"
    },
    {
      "inputs": [
        {
          "internalType": "address",
          "name": "treasury",
          "type": "address"
        }
      ],
      "name": "createNonFungibleTokenPublic",
      "outputs": [],
      "stateMutability": "payable",
      "type": "function"
    },
    {
      "inputs": [
        {
          "internalType": "address",
          "name": "treasury",
          "type": "address"
        },
        {
          "internalType": "address",
          "name": "fixedFeeTokenAddress",
          "type": "address"
        }
      ],
      "name": "createNonFungibleTokenWithCustomFeesPublic",
      "outputs": [],
      "stateMutability": "payable",
      "type": "function"
    },
    {
      "inputs": [
        {
          "internalType": "address",
          "name": "treasury",
          "type": "address"
        },
        {
          "internalType": "bytes",
          "name": "adminKey",
          "type": "bytes"
        }
      ],
      "name": "createNonFungibleTokenWithSECP256K1AdminKeyPublic",
      "outputs": [],
      "stateMutability": "payable",
      "type": "function"
    },
    {
      "inputs": [
        {
          "internalType": "address",
          "name": "treasury",
          "type": "address"
        },
        {
          "internalType": "bytes",
          "name": "adminKey",
          "type": "bytes"
        }
      ],
      "name": "createNonFungibleTokenWithSECP256K1AdminKeyWithoutKYCPublic",
      "outputs": [],
      "stateMutability": "payable",
      "type": "function"
    },
    {
      "inputs": [
        {
          "internalType": "address",
          "name": "token",
          "type": "address"
        },
        {
          "internalType": "address",
          "name": "account",
          "type": "address"
        }
      ],
      "name": "grantTokenKycPublic",
      "outputs": [
        {
          "internalType": "int64",
          "name": "responseCode",
          "type": "int64"
        }
      ],
      "stateMutability": "nonpayable",
      "type": "function"
    },
    {
      "inputs": [
        {
          "internalType": "address",
          "name": "token",
          "type": "address"
        },
        {
          "internalType": "int64",
          "name": "amount",
          "type": "int64"
        },
        {
          "internalType": "bytes[]",
          "name": "metadata",
          "type": "bytes[]"
        }
      ],
      "name": "mintTokenPublic",
      "outputs": [
        {
          "internalType": "int256",
          "name": "responseCode",
          "type": "int256"
        },
        {
          "internalType": "int64",
          "name": "newTotalSupply",
          "type": "int64"
        },
        {
          "internalType": "int64[]",
          "name": "serialNumbers",
          "type": "int64[]"
        }
      ],
      "stateMutability": "nonpayable",
      "type": "function"
    },
    {
      "inputs": [
        {
          "internalType": "address",
          "name": "token",
          "type": "address"
        },
        {
          "internalType": "int64",
          "name": "amount",
          "type": "int64"
        },
        {
          "internalType": "bytes[]",
          "name": "metadata",
          "type": "bytes[]"
        }
      ],
      "name": "mintTokenToAddressPublic",
      "outputs": [
        {
          "internalType": "int256",
          "name": "responseCode",
          "type": "int256"
        },
        {
          "internalType": "int64",
          "name": "newTotalSupply",
          "type": "int64"
        },
        {
          "internalType": "int64[]",
          "name": "serialNumbers",
          "type": "int64[]"
        }
      ],
      "stateMutability": "nonpayable",
      "type": "function"
    },
    {
      "inputs": [
        {
          "internalType": "address",
          "name": "token",
          "type": "address"
        },
        {
          "internalType": "bytes",
          "name": "encodedFunctionSelector",
          "type": "bytes"
        }
      ],
      "name": "redirectForToken",
      "outputs": [
        {
          "internalType": "int256",
          "name": "responseCode",
          "type": "int256"
        },
        {
          "internalType": "bytes",
          "name": "response",
          "type": "bytes"
        }
      ],
      "stateMutability": "nonpayable",
      "type": "function"
    },
    {
      "inputs": [
        {
          "internalType": "address",
          "name": "token",
          "type": "address"
        },
        {
          "internalType": "address",
          "name": "from",
          "type": "address"
        },
        {
          "internalType": "address",
          "name": "to",
          "type": "address"
        },
        {
          "internalType": "uint256",
          "name": "amount",
          "type": "uint256"
        }
      ],
      "name": "transferFrom",
      "outputs": [
        {
          "internalType": "int64",
          "name": "responseCode",
          "type": "int64"
        }
      ],
      "stateMutability": "nonpayable",
      "type": "function"
    },
    {
      "inputs": [
        {
          "internalType": "address",
          "name": "token",
          "type": "address"
        },
        {
          "internalType": "address",
          "name": "from",
          "type": "address"
        },
        {
          "internalType": "address",
          "name": "to",
          "type": "address"
        },
        {
          "internalType": "uint256",
          "name": "serialNumber",
          "type": "uint256"
        }
      ],
      "name": "transferFromNFT",
      "outputs": [
        {
          "internalType": "int64",
          "name": "responseCode",
          "type": "int64"
        }
      ],
      "stateMutability": "nonpayable",
      "type": "function"
    },
    {
      "inputs": [
        {
          "internalType": "address",
          "name": "token",
          "type": "address"
        },
        {
          "components": [
            {
              "internalType": "string",
              "name": "name",
              "type": "string"
            },
            {
              "internalType": "string",
              "name": "symbol",
              "type": "string"
            },
            {
              "internalType": "address",
              "name": "treasury",
              "type": "address"
            },
            {
              "internalType": "string",
              "name": "memo",
              "type": "string"
            },
            {
              "internalType": "bool",
              "name": "tokenSupplyType",
              "type": "bool"
            },
            {
              "internalType": "int64",
              "name": "maxSupply",
              "type": "int64"
            },
            {
              "internalType": "bool",
              "name": "freezeDefault",
              "type": "bool"
            },
            {
              "components": [
                {
                  "internalType": "uint256",
                  "name": "keyType",
                  "type": "uint256"
                },
                {
                  "components": [
                    {
                      "internalType": "bool",
                      "name": "inheritAccountKey",
                      "type": "bool"
                    },
                    {
                      "internalType": "address",
                      "name": "contractId",
                      "type": "address"
                    },
                    {
                      "internalType": "bytes",
                      "name": "ed25519",
                      "type": "bytes"
                    },
                    {
                      "internalType": "bytes",
                      "name": "ECDSA_secp256k1",
                      "type": "bytes"
                    },
                    {
                      "internalType": "address",
                      "name": "delegatableContractId",
                      "type": "address"
                    }
                  ],
                  "internalType": "struct IHederaTokenService.KeyValue",
                  "name": "key",
                  "type": "tuple"
                }
              ],
              "internalType": "struct IHederaTokenService.TokenKey[]",
              "name": "tokenKeys",
              "type": "tuple[]"
            },
            {
              "components": [
                {
                  "internalType": "int64",
                  "name": "second",
                  "type": "int64"
                },
                {
                  "internalType": "address",
                  "name": "autoRenewAccount",
                  "type": "address"
                },
                {
                  "internalType": "int64",
                  "name": "autoRenewPeriod",
                  "type": "int64"
                }
              ],
              "internalType": "struct IHederaTokenService.Expiry",
              "name": "expiry",
              "type": "tuple"
            }
          ],
          "internalType": "struct IHederaTokenService.HederaToken",
          "name": "tokenInfo",
          "type": "tuple"
        }
      ],
      "name": "updateTokenInfoPublic",
      "outputs": [
        {
          "internalType": "int256",
          "name": "responseCode",
          "type": "int256"
        }
      ],
      "stateMutability": "nonpayable",
      "type": "function"
    }
  ],
  "bytecode": "0x60c06040526009608090815268746f6b656e4e616d6560b81b60a0526002906200002a90826200026a565b5060408051808201909152600b81526a1d1bdad95b94de5b589bdb60aa1b60208201526003906200005c90826200026a565b50604080518082019091526004808252636d656d6f60e01b6020830152906200008690826200026a565b50600580546001600160a81b031916700800000000000003e800000000000003e8179055348015620000b757600080fd5b50600160208181527fa6eef7e35abe7026729641147f7915573c7e97b47efa546f5f6e3230263bcb499190915560027fcc69885fda6bcc1a4ace058b4a62bf5e179ea78fd58a1ccd71c22cc9b688792f5560047fd9d16d34ffb15ba3a3d852f0d403e2ce1d691fb54de27ac87cd2f993f3ec330f5560087f7dfe757ecd65cbd7922a9c0161e935dd7fdbcc0e999689c7d31633896b1fc60b5560107fedc95719e9a3b28dd8e80877cb5880a9be7de1a13fc8b05e7999683b6b567643557fe2689cd4a84e23ad2f564004f1c9013e9589d260bde6380aba3ca7e09e4df40c55600660005260407f8f331abe73332f95a25873e8b430885974c0409691f89d643119a11623a7924a5562000336565b634e487b7160e01b600052604160045260246000fd5b600181811c90821680620001f057607f821691505b6020821081036200021157634e487b7160e01b600052602260045260246000fd5b50919050565b601f8211156200026557600081815260208120601f850160051c81016020861015620002405750805b601f850160051c820191505b8181101562000261578281556001016200024c565b5050505b505050565b81516001600160401b03811115620002865762000286620001c5565b6200029e81620002978454620001db565b8462000217565b602080601f831160018114620002d65760008415620002bd5750858301515b600019600386901b1c1916600185901b17855562000261565b600085815260208120601f198616915b828110156200030757888601518255948401946001909101908401620002e6565b5085821015620003265787850151600019600388901b60f8161c191681555b5050505050600190811b01905550565b613f0780620003466000396000f3fe6080604052600436106101145760003560e01c80638ba74da0116100a0578063d85f74c111610064578063d85f74c1146102db578063de84a779146102ee578063e9f732261461030e578063f4a01e5b14610321578063f848fec41461034157600080fd5b80638ba74da0146102575780638f74a17b1461026a5780639b23d3d914610295578063b35d417a146102b5578063cc265af4146102c857600080fd5b806336348de3116100e757806336348de3146101b45780634b5c6687146101d45780634d1769d6146101e7578063618dc65e1461021657806371de37071461024457600080fd5b80630488c939146101195780630fd2601e1461012e578063118741e71461016657806315dacbea14610194575b600080fd5b61012c610127366004612e6f565b610361565b005b34801561013a57600080fd5b5061014e610149366004612e6f565b6108d4565b60405160079190910b81526020015b60405180910390f35b34801561017257600080fd5b50610186610181366004612f83565b610931565b60405190815260200161015d565b3480156101a057600080fd5b5061014e6101af366004613037565b610985565b3480156101c057600080fd5b506101866101cf366004613306565b610a79565b61012c6101e236600461344e565b610a85565b3480156101f357600080fd5b5061020761020236600461346b565b610e8d565b60405161015d93929190613581565b34801561022257600080fd5b506102366102313660046135ac565b610f4e565b60405161015d92919061364c565b61012c61025236600461366d565b61107c565b61012c610265366004612e6f565b6111e1565b61027d6102783660046135ac565b61164d565b6040516001600160a01b03909116815260200161015d565b3480156102a157600080fd5b5061014e6102b0366004613037565b611a0f565b61012c6102c33660046135ac565b611a54565b61012c6102d63660046135ac565b611dfa565b61012c6102e936600461344e565b611ed1565b3480156102fa57600080fd5b5061020761030936600461346b565b61226c565b61027d61031c3660046135ac565b612306565b34801561032d57600080fd5b5061018661033c366004612e6f565b6123e0565b34801561034d57600080fd5b5061018661035c3660046136d1565b6123ec565b60408051600580825260c08201909252600091816020015b610381612dea565b8152602001906001900390816103795790505090506103b460006006600060405180602001604052806000815250612448565b816000815181106103c7576103c7613712565b60200260200101819052506103ee600160006040518060200160405280600081525061247f565b8160018151811061040157610401613712565b6020026020010181905250610428600260006040518060200160405280600081525061247f565b8160028151811061043b5761043b613712565b6020026020010181905250610462600460006040518060200160405280600081525061247f565b8160038151811061047557610475613712565b602002602001018190525061049c600360006040518060200160405280600081525061247f565b816004815181106104af576104af613712565b602002602001018190525060006040518060600160405280600060070b8152602001856001600160a01b03168152602001627a120060070b815250905060006040518061012001604052806002805461050790613728565b80601f016020809104026020016040519081016040528092919081815260200182805461053390613728565b80156105805780601f1061055557610100808354040283529160200191610580565b820191906000526020600020905b81548152906001019060200180831161056357829003601f168201915b505050505081526020016003805461059790613728565b80601f01602080910402602001604051908101604052809291908181526020018280546105c390613728565b80156106105780601f106105e557610100808354040283529160200191610610565b820191906000526020600020905b8154815290600101906020018083116105f357829003601f168201915b50505050508152602001866001600160a01b031681526020016004805461063690613728565b80601f016020809104026020016040519081016040528092919081815260200182805461066290613728565b80156106af5780601f10610684576101008083540402835291602001916106af565b820191906000526020600020905b81548152906001019060200180831161069257829003601f168201915b5050509183525050600160208201819052600554600160401b810460070b6040840152600160a01b900460ff16151560608301526080820186905260a090910184905290915060009060405190808252806020026020018201604052801561075157816020015b6040805160a0810182526000808252602080830182905292820181905260608201819052608082015282526000199092019101816107165790505b506040805160a081018252600181526001600160a01b0380891660208301526000928201839052606082018390528916608082015282519293509183919061079b5761079b613712565b6020908102919091010152604080516001808252818301909252600091816020015b6040805160c08101825260008082526020808301829052928201819052606082018190526080820181905260a082015282526000199092019101816107bd5790505090506040518060c00160405280600460070b8152602001600560070b8152602001600a60070b8152602001876001600160a01b03168152602001600015158152602001886001600160a01b03168152508160008151811061086257610862613712565b602002602001018190525060008061087b8585856124b4565b90925090506016821461088d57600080fd5b6040516001600160a01b03821681527f7bb17726df1f3adee8aa00ba8e8bc5d6f182af3bbf77604639cb7f008dd3b4ed9060200160405180910390a1505050505050505050565b60006108e083836125dc565b604051600782900b81529091507f90a5cf4cffe88b4edbb041cfc7a8a812c48a5ec30b84640fb37690875168e3aa9060200160405180910390a1600781900b60161461092b57600080fd5b92915050565b600061093d83836126bf565b90507f90a5cf4cffe88b4edbb041cfc7a8a812c48a5ec30b84640fb37690875168e3aa8160405161097091815260200190565b60405180910390a16016811461092b57600080fd5b6040516001600160a01b038581166024830152848116604483015283166064820152608481018290526000908190819061016790630aed65f560e11b9060a4015b60408051601f198184030181529181526020820180516001600160e01b03166001600160e01b0319909416939093179092529051610a049190613762565b6000604051808303816000865af19150503d8060008114610a41576040519150601f19603f3d011682016040523d82523d6000602084013e610a46565b606091505b509150915081610a57576015610a6b565b80806020019051810190610a6b9190613790565b60030b979650505050505050565b600061093d83836126eb565b60408051600580825260c08201909252600091816020015b610aa5612dea565b815260200190600190039081610a9d579050509050610ad860006006600060405180602001604052806000815250612448565b81600081518110610aeb57610aeb613712565b6020026020010181905250610b12600160006040518060200160405280600081525061247f565b81600181518110610b2557610b25613712565b6020026020010181905250610b4c600260006040518060200160405280600081525061247f565b81600281518110610b5f57610b5f613712565b6020026020010181905250610b86600360006040518060200160405280600081525061247f565b81600381518110610b9957610b99613712565b6020026020010181905250610bc0600460006040518060200160405280600081525061247f565b81600481518110610bd357610bd3613712565b602002602001018190525060006040518060600160405280600060070b8152602001846001600160a01b03168152602001627a120060070b8152509050600060405180610120016040528060028054610c2b90613728565b80601f0160208091040260200160405190810160405280929190818152602001828054610c5790613728565b8015610ca45780601f10610c7957610100808354040283529160200191610ca4565b820191906000526020600020905b815481529060010190602001808311610c8757829003601f168201915b5050505050815260200160038054610cbb90613728565b80601f0160208091040260200160405190810160405280929190818152602001828054610ce790613728565b8015610d345780601f10610d0957610100808354040283529160200191610d34565b820191906000526020600020905b815481529060010190602001808311610d1757829003601f168201915b50505050508152602001856001600160a01b0316815260200160048054610d5a90613728565b80601f0160208091040260200160405190810160405280929190818152602001828054610d8690613728565b8015610dd35780601f10610da857610100808354040283529160200191610dd3565b820191906000526020600020905b815481529060010190602001808311610db657829003601f168201915b505050918352505060016020820152600554600160401b8104600790810b604084015260ff600160a01b830416151560608401526080830187905260a09092018590529192506000918291610e3791859181900b90600160801b900460030b612717565b909250905060168214610e4957600080fd5b6040516001600160a01b03821681527f7bb17726df1f3adee8aa00ba8e8bc5d6f182af3bbf77604639cb7f008dd3b4ed9060200160405180910390a1505050505050565b6000806060610e9d868686612784565b60405183815292955090935091507f90a5cf4cffe88b4edbb041cfc7a8a812c48a5ec30b84640fb37690875168e3aa9060200160405180910390a160168314610ee557600080fd5b7ffc6b20023c4bac8ff1c48c1693e0cea5cd3c2163e9c2da41c58f17dd6d9f163d8282604051610f169291906137ab565b60405180910390a1610f4486303384600081518110610f3757610f37613712565b6020026020010151612882565b5093509350939050565b600060606000806101676001600160a01b031663618dc65e60e01b8787604051602401610f7c9291906137c7565b60408051601f198184030181529181526020820180516001600160e01b03166001600160e01b0319909416939093179092529051610fba9190613762565b6000604051808303816000865af19150503d8060008114610ff7576040519150601f19603f3d011682016040523d82523d6000602084013e610ffc565b606091505b50915091507f4af4780e06fe8cb9df64b0794fa6f01399af979175bb988e35e0e57e594567bc82826040516110329291906137e9565b60405180910390a1816110565760156040518060200160405280600081525061106a565b8080602001905181019061106a9190613804565b60039190910b97909650945050505050565b604051638f74a17b60e01b81526000903090638f74a17b9034906110a690889088906004016137c7565b60206040518083038185885af11580156110c4573d6000803e3d6000fd5b50505050506040513d601f19601f820116820180604052508101906110e9919061388e565b60405163f4a01e5b60e01b81523360048201526001600160a01b0382166024820152909150309063f4a01e5b906044016020604051808303816000875af1158015611138573d6000803e3d6000fd5b505050506040513d601f19601f8201168201806040525081019061115c91906138ab565b506040516307e9300f60e11b81526001600160a01b03821660048201523360248201523090630fd2601e906044016020604051808303816000875af11580156111a9573d6000803e3d6000fd5b505050506040513d601f19601f820116820180604052508101906111cd91906138c4565b506111da813033856128ca565b5050505050565b604080516001808252818301909252600091816020015b611200612dea565b8152602001906001900390816111f8579050509050611232600080600060405180602001604052806000815250612448565b8160008151811061124557611245613712565b602002602001018190525060006040518060600160405280600060070b8152602001856001600160a01b03168152602001627a120060070b815250905060006040518061012001604052806002805461129d90613728565b80601f01602080910402602001604051908101604052809291908181526020018280546112c990613728565b80156113165780601f106112eb57610100808354040283529160200191611316565b820191906000526020600020905b8154815290600101906020018083116112f957829003601f168201915b505050505081526020016003805461132d90613728565b80601f016020809104026020016040519081016040528092919081815260200182805461135990613728565b80156113a65780601f1061137b576101008083540402835291602001916113a6565b820191906000526020600020905b81548152906001019060200180831161138957829003601f168201915b50505050508152602001866001600160a01b03168152602001600480546113cc90613728565b80601f01602080910402602001604051908101604052809291908181526020018280546113f890613728565b80156114455780601f1061141a57610100808354040283529160200191611445565b820191906000526020600020905b81548152906001019060200180831161142857829003601f168201915b5050509183525050600160208201819052600554600160401b900460070b6040808401919091526000606084018190526080840188905260a09093018690528051828152808201909152929350909190816020015b6040805160a08101825260008082526020808301829052928201819052606082018190526080820152825260001990920191018161149a5750506040805160a081018252600181526001600160a01b0388811660208301526000928201839052606082018390528916608082015282519293509183919061151d5761151d613712565b6020908102919091010152604080516001808252818301909252600091816020015b6040805160c08101825260008082526020808301829052928201819052606082018190526080820181905260a0820152825260001990920191018161153f5750506040805160c0810182526004815260056020820152600a91810191909152601e60608201526000608082018190526001600160a01b038a1660a0830152825192935090918391906115d3576115d3613712565b60209081029190910101526005546000908190611603908690600781900b90600160801b900460030b8787612912565b915091507f90a5cf4cffe88b4edbb041cfc7a8a812c48a5ec30b84640fb37690875168e3aa8260405161163891815260200190565b60405180910390a16016821461088d57600080fd5b60408051600580825260c08201909252600091829190816020015b611670612dea565b81526020019060019003908161166857905050905061169460006006600386612448565b816000815181106116a7576116a7613712565b60200260200101819052506116bf600160038561247f565b816001815181106116d2576116d2613712565b60200260200101819052506116ea600260038561247f565b816002815181106116fd576116fd613712565b6020026020010181905250611715600460038561247f565b8160038151811061172857611728613712565b602002602001018190525061173f6003808561247f565b8160048151811061175257611752613712565b602002602001018190525060006040518060600160405280600060070b8152602001866001600160a01b03168152602001627a120060070b81525090506000604051806101200160405280600280546117aa90613728565b80601f01602080910402602001604051908101604052809291908181526020018280546117d690613728565b80156118235780601f106117f857610100808354040283529160200191611823565b820191906000526020600020905b81548152906001019060200180831161180657829003601f168201915b505050505081526020016003805461183a90613728565b80601f016020809104026020016040519081016040528092919081815260200182805461186690613728565b80156118b35780601f10611888576101008083540402835291602001916118b3565b820191906000526020600020905b81548152906001019060200180831161189657829003601f168201915b50505050508152602001876001600160a01b03168152602001600480546118d990613728565b80601f016020809104026020016040519081016040528092919081815260200182805461190590613728565b80156119525780601f1061192757610100808354040283529160200191611952565b820191906000526020600020905b81548152906001019060200180831161193557829003601f168201915b505050918352505060016020820152600554600160401b8104600790810b604084015260ff600160a01b830416151560608401526080830187905260a090920185905291925060009182916119b691859181900b90600160801b900460030b612717565b9092509050601682146119c857600080fd5b6040516001600160a01b03821681527f7bb17726df1f3adee8aa00ba8e8bc5d6f182af3bbf77604639cb7f008dd3b4ed9060200160405180910390a1979650505050505050565b6040516001600160a01b038581166024830152848116604483015283166064820152608481018290526000908190819061016790639b23d3d960e01b9060a4016109c6565b60408051600580825260c08201909252600091816020015b611a74612dea565b815260200190600190039081611a6c579050509050611a9860006006600385612448565b81600081518110611aab57611aab613712565b6020026020010181905250611ac3600160038461247f565b81600181518110611ad657611ad6613712565b6020026020010181905250611aee600260038461247f565b81600281518110611b0157611b01613712565b6020026020010181905250611b19600460038461247f565b81600381518110611b2c57611b2c613712565b6020026020010181905250611b436003808461247f565b81600481518110611b5657611b56613712565b602002602001018190525060006040518060600160405280600060070b8152602001856001600160a01b03168152602001627a120060070b8152509050600060405180610120016040528060028054611bae90613728565b80601f0160208091040260200160405190810160405280929190818152602001828054611bda90613728565b8015611c275780601f10611bfc57610100808354040283529160200191611c27565b820191906000526020600020905b815481529060010190602001808311611c0a57829003601f168201915b5050505050815260200160038054611c3e90613728565b80601f0160208091040260200160405190810160405280929190818152602001828054611c6a90613728565b8015611cb75780601f10611c8c57610100808354040283529160200191611cb7565b820191906000526020600020905b815481529060010190602001808311611c9a57829003601f168201915b50505050508152602001866001600160a01b0316815260200160048054611cdd90613728565b80601f0160208091040260200160405190810160405280929190818152602001828054611d0990613728565b8015611d565780601f10611d2b57610100808354040283529160200191611d56565b820191906000526020600020905b815481529060010190602001808311611d3957829003601f168201915b505050918352505060016020820152600554600160401b810460070b6040830152600160a01b900460ff16151560608201526080810185905260a0018390529050600080611da383612a40565b909250905060168214611db557600080fd5b6040516001600160a01b03821681527f7bb17726df1f3adee8aa00ba8e8bc5d6f182af3bbf77604639cb7f008dd3b4ed9060200160405180910390a150505050505050565b60408051600480825260a08201909252600091816020015b611e1a612dea565b815260200190600190039081611e12579050509050611e3e60006006600385612448565b81600081518110611e5157611e51613712565b6020026020010181905250611e69600260038461247f565b81600181518110611e7c57611e7c613712565b6020026020010181905250611e94600460038461247f565b81600281518110611ea757611ea7613712565b6020026020010181905250611ebe6003808461247f565b81600381518110611b5657611b56613712565b60408051600580825260c08201909252600091816020015b611ef1612dea565b815260200190600190039081611ee9579050509050611f2460006006600060405180602001604052806000815250612448565b81600081518110611f3757611f37613712565b6020026020010181905250611f5e600160006040518060200160405280600081525061247f565b81600181518110611f7157611f71613712565b6020026020010181905250611f98600260006040518060200160405280600081525061247f565b81600281518110611fab57611fab613712565b6020026020010181905250611fd2600460006040518060200160405280600081525061247f565b81600381518110611fe557611fe5613712565b602002602001018190525061200c600360006040518060200160405280600081525061247f565b8160048151811061201f5761201f613712565b602002602001018190525060006040518060600160405280600060070b8152602001846001600160a01b03168152602001627a120060070b815250905060006040518061012001604052806002805461207790613728565b80601f01602080910402602001604051908101604052809291908181526020018280546120a390613728565b80156120f05780601f106120c5576101008083540402835291602001916120f0565b820191906000526020600020905b8154815290600101906020018083116120d357829003601f168201915b505050505081526020016003805461210790613728565b80601f016020809104026020016040519081016040528092919081815260200182805461213390613728565b80156121805780601f1061215557610100808354040283529160200191612180565b820191906000526020600020905b81548152906001019060200180831161216357829003601f168201915b50505050508152602001856001600160a01b03168152602001600480546121a690613728565b80601f01602080910402602001604051908101604052809291908181526020018280546121d290613728565b801561221f5780601f106121f45761010080835404028352916020019161221f565b820191906000526020600020905b81548152906001019060200180831161220257829003601f168201915b505050918352505060016020820152600554600160401b810460070b6040830152600160a01b900460ff16151560608201526080810185905260a0018390529050600080610e3783612a40565b600080606061227c868686612784565b60405183815292955090935091507f90a5cf4cffe88b4edbb041cfc7a8a812c48a5ec30b84640fb37690875168e3aa9060200160405180910390a1601683146122c457600080fd5b7ffc6b20023c4bac8ff1c48c1693e0cea5cd3c2163e9c2da41c58f17dd6d9f163d82826040516122f59291906137ab565b60405180910390a193509350939050565b60408051600480825260a08201909252600091829190816020015b612329612dea565b81526020019060019003908161232157905050905061234d60006006600386612448565b8160008151811061236057612360613712565b6020026020010181905250612378600260038561247f565b8160018151811061238b5761238b613712565b60200260200101819052506123a3600460038561247f565b816002815181106123b6576123b6613712565b60200260200101819052506123cd6003808561247f565b8160038151811061175257611752613712565b600061093d8383612b50565b60006123f9848484612b86565b90507f90a5cf4cffe88b4edbb041cfc7a8a812c48a5ec30b84640fb37690875168e3aa8160405161242c91815260200190565b60405180910390a16016811461244157600080fd5b9392505050565b612450612dea565b60405180604001604052806124658787612c5f565b81526020016124748585612c9a565b905295945050505050565b612487612dea565b604051806040016040528061249b86612dab565b81526020016124aa8585612c9a565b9052949350505050565b600080848061010001516000015160070b60001480156124de57506101008101516040015160070b155b156124f4576101008101516276a7006040909101525b6000806101676001600160a01b03163463abb54eb560e01b8a8a8a60405160240161252193929190613b14565b60408051601f198184030181529181526020820180516001600160e01b03166001600160e01b031990941693909317909252905161255f9190613762565b60006040518083038185875af1925050503d806000811461259c576040519150601f19603f3d011682016040523d82523d6000602084013e6125a1565b606091505b5091509150816125b457601560006125c8565b808060200190518101906125c89190613bcb565b60039190910b999098509650505050505050565b6040516001600160a01b038381166024830152821660448201526000908190819061016790638f8d7f9960e01b906064015b60408051601f198184030181529181526020820180516001600160e01b03166001600160e01b031990941693909317909252905161264c9190613762565b6000604051808303816000865af19150503d8060008114612689576040519150601f19603f3d011682016040523d82523d6000602084013e61268e565b606091505b50915091508161269f5760156126b3565b808060200190518101906126b39190613790565b60030b95945050505050565b60008060006101676001600160a01b0316632e63879b60e01b868660405160240161260e929190613bf7565b60008060006101676001600160a01b0316637d305cfa60e01b868660405160240161260e929190613c52565b600080848061010001516000015160070b600014801561274157506101008101516040015160070b155b15612757576101008101516276a7006040909101525b6000806101676001600160a01b031634630fb65bf360e01b8a8a8a60405160240161252193929190613c74565b60008060606000806101676001600160a01b031663e0f4059a60e01b8989896040516024016127b593929190613ca3565b60408051601f198184030181529181526020820180516001600160e01b03166001600160e01b03199094169390931790925290516127f39190613762565b6000604051808303816000865af19150503d8060008114612830576040519150601f19603f3d011682016040523d82523d6000602084013e612835565b606091505b50915091508161285857604080516000808252602082019092526015919061286c565b8080602001905181019061286c9190613d20565b60039290920b9a90995090975095505050505050565b6040516001600160a01b038581166024830152848116604483015283166064820152600782900b60848201526000908190819061016790635cfc901160e01b9060a4016109c6565b6040516001600160a01b038581166024830152848116604483015283166064820152600782900b6084820152600090819081906101679063eca3691760e01b9060a4016109c6565b600080868061010001516000015160070b600014801561293c57506101008101516040015160070b155b15612952576101008101516276a7006040909101525b6000806101676001600160a01b031634632af0c59a60e01b8c8c8c8c8c604051602401612983959493929190613de0565b60408051601f198184030181529181526020820180516001600160e01b03166001600160e01b03199094169390931790925290516129c19190613762565b60006040518083038185875af1925050503d80600081146129fe576040519150601f19603f3d011682016040523d82523d6000602084013e612a03565b606091505b509150915081612a165760156000612a2a565b80806020019051810190612a2a9190613bcb565b60039190910b9b909a5098505050505050505050565b600080828061010001516000015160070b6000148015612a6a57506101008101516040015160070b155b15612a80576101008101516276a7006040909101525b6000806101676001600160a01b03163463ea83f29360e01b88604051602401612aa99190613ea8565b60408051601f198184030181529181526020820180516001600160e01b03166001600160e01b0319909416939093179092529051612ae79190613762565b60006040518083038185875af1925050503d8060008114612b24576040519150601f19603f3d011682016040523d82523d6000602084013e612b29565b606091505b509150915081612b3c576015600061106a565b8080602001905181019061106a9190613bcb565b6040516001600160a01b03838116602483015282166044820152600090819081906101679063248a35ef60e11b9060640161260e565b604080516001600160a01b03858116602483015284166044820152606480820184905282518083039091018152608490910182526020810180516001600160e01b031663e1f21c6760e01b17905290516000918291829161016791612beb9190613762565b6000604051808303816000865af19150503d8060008114612c28576040519150601f19603f3d011682016040523d82523d6000602084013e612c2d565b606091505b509150915081612c3e576015612c52565b80806020019051810190612c529190613790565b60030b9695505050505050565b6000612c83836006811115612c7657612c76613ebb565b600160ff9091161b821790565b9050612441826006811115612c7657612c76613ebb565b612ce06040518060a0016040528060001515815260200160006001600160a01b03168152602001606081526020016060815260200160006001600160a01b031681525090565b6000836004811115612cf457612cf4613ebb565b03612d02576001815261092b565b6001836004811115612d1657612d16613ebb565b03612d31576000546001600160a01b0316602082015261092b565b6002836004811115612d4557612d45613ebb565b03612d56576040810182905261092b565b6003836004811115612d6a57612d6a613ebb565b03612d7b576060810182905261092b565b6004836004811115612d8f57612d8f613ebb565b0361092b576000546001600160a01b0316608082015292915050565b600060016000836006811115612dc357612dc3613ebb565b6006811115612dd457612dd4613ebb565b8152602001908152602001600020549050919050565b604051806040016040528060008152602001612e426040518060a0016040528060001515815260200160006001600160a01b03168152602001606081526020016060815260200160006001600160a01b031681525090565b905290565b6001600160a01b0381168114612e5c57600080fd5b50565b8035612e6a81612e47565b919050565b60008060408385031215612e8257600080fd5b8235612e8d81612e47565b91506020830135612e9d81612e47565b809150509250929050565b634e487b7160e01b600052604160045260246000fd5b6040805190810167ffffffffffffffff81118282101715612ee157612ee1612ea8565b60405290565b60405160a0810167ffffffffffffffff81118282101715612ee157612ee1612ea8565b604051610120810167ffffffffffffffff81118282101715612ee157612ee1612ea8565b604051601f8201601f1916810167ffffffffffffffff81118282101715612f5757612f57612ea8565b604052919050565b600067ffffffffffffffff821115612f7957612f79612ea8565b5060051b60200190565b60008060408385031215612f9657600080fd5b8235612fa181612e47565b915060208381013567ffffffffffffffff811115612fbe57600080fd5b8401601f81018613612fcf57600080fd5b8035612fe2612fdd82612f5f565b612f2e565b81815260059190911b8201830190838101908883111561300157600080fd5b928401925b8284101561302857833561301981612e47565b82529284019290840190613006565b80955050505050509250929050565b6000806000806080858703121561304d57600080fd5b843561305881612e47565b9350602085013561306881612e47565b9250604085013561307881612e47565b9396929550929360600135925050565b600067ffffffffffffffff8211156130a2576130a2612ea8565b50601f01601f191660200190565b600082601f8301126130c157600080fd5b81356130cf612fdd82613088565b8181528460208386010111156130e457600080fd5b816020850160208301376000918101602001919091529392505050565b80358015158114612e6a57600080fd5b8060070b8114612e5c57600080fd5b8035612e6a81613111565b600082601f83011261313c57600080fd5b8135602061314c612fdd83612f5f565b82815260059290921b8401810191818101908684111561316b57600080fd5b8286015b8481101561328557803567ffffffffffffffff8082111561318f57600080fd5b908801906040601f19838c0381018213156131a957600080fd5b6131b1612ebe565b88850135815282850135848111156131c857600080fd5b949094019360a0858e03830112156131e05760008081fd5b6131e8612ee7565b91506131f5898601613101565b82528285013561320481612e47565b828a01526060858101358581111561321c5760008081fd5b61322a8f8c838a01016130b0565b85850152506080935083860135858111156132455760008081fd5b6132538f8c838a01016130b0565b82850152505060a0850135945061326985612e47565b918101939093528087019290925250835291830191830161316f565b509695505050505050565b6000606082840312156132a257600080fd5b6040516060810181811067ffffffffffffffff821117156132c5576132c5612ea8565b60405290508082356132d681613111565b815260208301356132e681612e47565b602082015260408301356132f981613111565b6040919091015292915050565b6000806040838503121561331957600080fd5b823561332481612e47565b9150602083013567ffffffffffffffff8082111561334157600080fd5b90840190610160828703121561335657600080fd5b61335e612f0a565b82358281111561336d57600080fd5b613379888286016130b0565b82525060208301358281111561338e57600080fd5b61339a888286016130b0565b6020830152506133ac60408401612e5f565b60408201526060830135828111156133c357600080fd5b6133cf888286016130b0565b6060830152506133e160808401613101565b60808201526133f260a08401613120565b60a082015261340360c08401613101565b60c082015260e08301358281111561341a57600080fd5b6134268882860161312b565b60e083015250610100915061343d87838501613290565b828201528093505050509250929050565b60006020828403121561346057600080fd5b813561244181612e47565b60008060006060848603121561348057600080fd5b833561348b81612e47565b925060208481013561349c81613111565b9250604085013567ffffffffffffffff808211156134b957600080fd5b818701915087601f8301126134cd57600080fd5b81356134db612fdd82612f5f565b81815260059190911b8301840190848101908a8311156134fa57600080fd5b8585015b83811015613532578035858111156135165760008081fd5b6135248d89838a01016130b0565b8452509186019186016134fe565b508096505050505050509250925092565b600081518084526020808501945080840160005b8381101561357657815160070b87529582019590820190600101613557565b509495945050505050565b8381528260070b60208201526060604082015260006135a36060830184613543565b95945050505050565b600080604083850312156135bf57600080fd5b82356135ca81612e47565b9150602083013567ffffffffffffffff8111156135e657600080fd5b6135f2858286016130b0565b9150509250929050565b60005b838110156136175781810151838201526020016135ff565b50506000910152565b600081518084526136388160208601602086016135fc565b601f01601f19169290920160200192915050565b8281526040602082015260006136656040830184613620565b949350505050565b60008060006060848603121561368257600080fd5b833561368d81612e47565b9250602084013567ffffffffffffffff8111156136a957600080fd5b6136b5868287016130b0565b92505060408401356136c681613111565b809150509250925092565b6000806000606084860312156136e657600080fd5b83356136f181612e47565b9250602084013561370181612e47565b929592945050506040919091013590565b634e487b7160e01b600052603260045260246000fd5b600181811c9082168061373c57607f821691505b60208210810361375c57634e487b7160e01b600052602260045260246000fd5b50919050565b600082516137748184602087016135fc565b9190910192915050565b8051600381900b8114612e6a57600080fd5b6000602082840312156137a257600080fd5b6124418261377e565b8260070b81526040602082015260006136656040830184613543565b6001600160a01b03831681526040602082015260006136656040830184613620565b82151581526040602082015260006136656040830184613620565b6000806040838503121561381757600080fd5b6138208361377e565b9150602083015167ffffffffffffffff81111561383c57600080fd5b8301601f8101851361384d57600080fd5b805161385b612fdd82613088565b81815286602083850101111561387057600080fd5b6138818260208301602086016135fc565b8093505050509250929050565b6000602082840312156138a057600080fd5b815161244181612e47565b6000602082840312156138bd57600080fd5b5051919050565b6000602082840312156138d657600080fd5b815161244181613111565b600081518084526020808501808196508360051b8101915082860160005b858110156139985782840389528151604081518652868201519150808787015281511515818701528682015160606001600160a01b03808316828a015283850151935060a09250608083818b015261395a60e08b0186613620565b928601518a8403603f1901858c01529294506139768584613620565b9501511660c098909801979097525050988501989350908401906001016138ff565b5091979650505050505050565b600061016082518185526139bb82860182613620565b915050602083015184820360208601526139d58282613620565b91505060408301516139f260408601826001600160a01b03169052565b5060608301518482036060860152613a0a8282613620565b9150506080830151613a20608086018215159052565b5060a0830151613a3560a086018260070b9052565b5060c0830151613a4960c086018215159052565b5060e083015184820360e0860152613a6182826138e1565b91505061010080840151613a9d82870182805160070b82526001600160a01b036020820151166020830152604081015160070b60408301525050565b5090949350505050565b600081518084526020808501945080840160005b83811015613576578151805160070b8852838101516001600160a01b03908116858a01526040808301511515908a01526060808301511515908a0152608091820151169088015260a09096019590820190600101613abb565b60006060808352613b27818401876139a5565b602084820381860152613b3a8288613aa7565b91506040858303818701528287518085528385019150838901945060005b81811015613bbb5785518051600790810b855286820151810b8786015285820151900b85850152878101516001600160a01b039081168986015260808083015115159086015260a09182015116908401529484019460c090920191600101613b58565b50909a9950505050505050505050565b60008060408385031215613bde57600080fd5b613be78361377e565b91506020830151612e9d81612e47565b6000604082016001600160a01b0380861684526020604081860152828651808552606087019150828801945060005b81811015613c44578551851683529483019491830191600101613c26565b509098975050505050505050565b6001600160a01b038316815260406020820152600061366560408301846139a5565b606081526000613c8760608301866139a5565b90508360070b60208301528260030b6040830152949350505050565b6000606082016001600160a01b038616835260208560070b818501526060604085015281855180845260808601915060808160051b870101935082870160005b82811015613d1157607f19888703018452613cff868351613620565b95509284019290840190600101613ce3565b50939998505050505050505050565b600080600060608486031215613d3557600080fd5b613d3e8461377e565b9250602080850151613d4f81613111565b604086015190935067ffffffffffffffff811115613d6c57600080fd5b8501601f81018713613d7d57600080fd5b8051613d8b612fdd82612f5f565b81815260059190911b82018301908381019089831115613daa57600080fd5b928401925b82841015613dd1578351613dc281613111565b82529284019290840190613daf565b80955050505050509250925092565b600060a0808352613df3818401896139a5565b6020600789810b8287015260408960030b81880152606087850381890152613e1b858b613aa7565b94506080888603818a0152858a518088528688019150868c01975060005b81811015613e935788518051880b845288810151880b8985015286810151880b8785015285810151880b86850152848101511515858501528a01516001600160a01b03168a8401529787019760c090920191600101613e39565b50909f9e505050505050505050505050505050565b60208152600061244160208301846139a5565b634e487b7160e01b600052602160045260246000fdfea26469706673582212208336478d286cf2923e84876cc3dedb3432ab1835d11ffa507c5136e3d673b7fa64736f6c63430008140033",
  "linkReferences": {},
  "deployedLinkReferences": {}
}