{
  "_format": "hh-sol-artifact-1",
  "contractName": "TokenCreateContract",
  "sourceName": "contracts/TokenCreateContract.sol",
  "abi": [
    {
      "anonymous": false,
      "inputs": [
        {
          "indexed": false,
          "internalType": "uint256",
          "name": "amount",
          "type": "uint256"
        }
      ],
      "name": "AllowanceValue",
      "type": "event"
    },
    {
      "anonymous": false,
      "inputs": [
        {
          "indexed": false,
          "internalType": "bool",
          "name": "approved",
          "type": "bool"
        }
      ],
      "name": "Approved",
      "type": "event"
    },
    {
      "anonymous": false,
      "inputs": [
        {
          "indexed": false,
          "internalType": "address",
          "name": "approved",
          "type": "address"
        }
      ],
      "name": "ApprovedAddress",
      "type": "event"
    },
    {
      "anonymous": false,
      "inputs": [
        {
          "indexed": false,
          "internalType": "address",
          "name": "tokenAddress",
          "type": "address"
        }
      ],
      "name": "CreatedToken",
      "type": "event"
    },
    {
      "anonymous": false,
      "inputs": [
        {
          "components": [
            {
              "components": [
                {
                  "components": [
                    {
                      "internalType": "string",
                      "name": "name",
                      "type": "string"
                    },
                    {
                      "internalType": "string",
                      "name": "symbol",
                      "type": "string"
                    },
                    {
                      "internalType": "address",
                      "name": "treasury",
                      "type": "address"
                    },
                    {
                      "internalType": "string",
                      "name": "memo",
                      "type": "string"
                    },
                    {
                      "internalType": "bool",
                      "name": "tokenSupplyType",
                      "type": "bool"
                    },
                    {
                      "internalType": "int64",
                      "name": "maxSupply",
                      "type": "int64"
                    },
                    {
                      "internalType": "bool",
                      "name": "freezeDefault",
                      "type": "bool"
                    },
                    {
                      "components": [
                        {
                          "internalType": "uint256",
                          "name": "keyType",
                          "type": "uint256"
                        },
                        {
                          "components": [
                            {
                              "internalType": "bool",
                              "name": "inheritAccountKey",
                              "type": "bool"
                            },
                            {
                              "internalType": "address",
                              "name": "contractId",
                              "type": "address"
                            },
                            {
                              "internalType": "bytes",
                              "name": "ed25519",
                              "type": "bytes"
                            },
                            {
                              "internalType": "bytes",
                              "name": "ECDSA_secp256k1",
                              "type": "bytes"
                            },
                            {
                              "internalType": "address",
                              "name": "delegatableContractId",
                              "type": "address"
                            }
                          ],
                          "internalType": "struct IHederaTokenService.KeyValue",
                          "name": "key",
                          "type": "tuple"
                        }
                      ],
                      "internalType": "struct IHederaTokenService.TokenKey[]",
                      "name": "tokenKeys",
                      "type": "tuple[]"
                    },
                    {
                      "components": [
                        {
                          "internalType": "uint32",
                          "name": "second",
                          "type": "uint32"
                        },
                        {
                          "internalType": "address",
                          "name": "autoRenewAccount",
                          "type": "address"
                        },
                        {
                          "internalType": "uint32",
                          "name": "autoRenewPeriod",
                          "type": "uint32"
                        }
                      ],
                      "internalType": "struct IHederaTokenService.Expiry",
                      "name": "expiry",
                      "type": "tuple"
                    }
                  ],
                  "internalType": "struct IHederaTokenService.HederaToken",
                  "name": "token",
                  "type": "tuple"
                },
                {
                  "internalType": "uint64",
                  "name": "totalSupply",
                  "type": "uint64"
                },
                {
                  "internalType": "bool",
                  "name": "deleted",
                  "type": "bool"
                },
                {
                  "internalType": "bool",
                  "name": "defaultKycStatus",
                  "type": "bool"
                },
                {
                  "internalType": "bool",
                  "name": "pauseStatus",
                  "type": "bool"
                },
                {
                  "components": [
                    {
                      "internalType": "uint32",
                      "name": "amount",
                      "type": "uint32"
                    },
                    {
                      "internalType": "address",
                      "name": "tokenId",
                      "type": "address"
                    },
                    {
                      "internalType": "bool",
                      "name": "useHbarsForPayment",
                      "type": "bool"
                    },
                    {
                      "internalType": "bool",
                      "name": "useCurrentTokenForPayment",
                      "type": "bool"
                    },
                    {
                      "internalType": "address",
                      "name": "feeCollector",
                      "type": "address"
                    }
                  ],
                  "internalType": "struct IHederaTokenService.FixedFee[]",
                  "name": "fixedFees",
                  "type": "tuple[]"
                },
                {
                  "components": [
                    {
                      "internalType": "uint32",
                      "name": "numerator",
                      "type": "uint32"
                    },
                    {
                      "internalType": "uint32",
                      "name": "denominator",
                      "type": "uint32"
                    },
                    {
                      "internalType": "uint32",
                      "name": "minimumAmount",
                      "type": "uint32"
                    },
                    {
                      "internalType": "uint32",
                      "name": "maximumAmount",
                      "type": "uint32"
                    },
                    {
                      "internalType": "bool",
                      "name": "netOfTransfers",
                      "type": "bool"
                    },
                    {
                      "internalType": "address",
                      "name": "feeCollector",
                      "type": "address"
                    }
                  ],
                  "internalType": "struct IHederaTokenService.FractionalFee[]",
                  "name": "fractionalFees",
                  "type": "tuple[]"
                },
                {
                  "components": [
                    {
                      "internalType": "uint32",
                      "name": "numerator",
                      "type": "uint32"
                    },
                    {
                      "internalType": "uint32",
                      "name": "denominator",
                      "type": "uint32"
                    },
                    {
                      "internalType": "uint32",
                      "name": "amount",
                      "type": "uint32"
                    },
                    {
                      "internalType": "address",
                      "name": "tokenId",
                      "type": "address"
                    },
                    {
                      "internalType": "bool",
                      "name": "useHbarsForPayment",
                      "type": "bool"
                    },
                    {
                      "internalType": "address",
                      "name": "feeCollector",
                      "type": "address"
                    }
                  ],
                  "internalType": "struct IHederaTokenService.RoyaltyFee[]",
                  "name": "royaltyFees",
                  "type": "tuple[]"
                },
                {
                  "internalType": "string",
                  "name": "ledgerId",
                  "type": "string"
                }
              ],
              "internalType": "struct IHederaTokenService.TokenInfo",
              "name": "tokenInfo",
              "type": "tuple"
            },
            {
              "internalType": "uint32",
              "name": "decimals",
              "type": "uint32"
            }
          ],
          "indexed": false,
          "internalType": "struct IHederaTokenService.FungibleTokenInfo",
          "name": "tokenInfo",
          "type": "tuple"
        }
      ],
      "name": "FungibleTokenInfo",
      "type": "event"
    },
    {
      "anonymous": false,
      "inputs": [
        {
          "indexed": false,
          "internalType": "bool",
          "name": "kycGranted",
          "type": "bool"
        }
      ],
      "name": "KycGranted",
      "type": "event"
    },
    {
      "anonymous": false,
      "inputs": [
        {
          "indexed": false,
          "internalType": "uint64",
          "name": "newTotalSupply",
          "type": "uint64"
        },
        {
          "indexed": false,
          "internalType": "int64[]",
          "name": "serialNumbers",
          "type": "int64[]"
        }
      ],
      "name": "MintedToken",
      "type": "event"
    },
    {
      "anonymous": false,
      "inputs": [
        {
          "components": [
            {
              "components": [
                {
                  "components": [
                    {
                      "internalType": "string",
                      "name": "name",
                      "type": "string"
                    },
                    {
                      "internalType": "string",
                      "name": "symbol",
                      "type": "string"
                    },
                    {
                      "internalType": "address",
                      "name": "treasury",
                      "type": "address"
                    },
                    {
                      "internalType": "string",
                      "name": "memo",
                      "type": "string"
                    },
                    {
                      "internalType": "bool",
                      "name": "tokenSupplyType",
                      "type": "bool"
                    },
                    {
                      "internalType": "int64",
                      "name": "maxSupply",
                      "type": "int64"
                    },
                    {
                      "internalType": "bool",
                      "name": "freezeDefault",
                      "type": "bool"
                    },
                    {
                      "components": [
                        {
                          "internalType": "uint256",
                          "name": "keyType",
                          "type": "uint256"
                        },
                        {
                          "components": [
                            {
                              "internalType": "bool",
                              "name": "inheritAccountKey",
                              "type": "bool"
                            },
                            {
                              "internalType": "address",
                              "name": "contractId",
                              "type": "address"
                            },
                            {
                              "internalType": "bytes",
                              "name": "ed25519",
                              "type": "bytes"
                            },
                            {
                              "internalType": "bytes",
                              "name": "ECDSA_secp256k1",
                              "type": "bytes"
                            },
                            {
                              "internalType": "address",
                              "name": "delegatableContractId",
                              "type": "address"
                            }
                          ],
                          "internalType": "struct IHederaTokenService.KeyValue",
                          "name": "key",
                          "type": "tuple"
                        }
                      ],
                      "internalType": "struct IHederaTokenService.TokenKey[]",
                      "name": "tokenKeys",
                      "type": "tuple[]"
                    },
                    {
                      "components": [
                        {
                          "internalType": "uint32",
                          "name": "second",
                          "type": "uint32"
                        },
                        {
                          "internalType": "address",
                          "name": "autoRenewAccount",
                          "type": "address"
                        },
                        {
                          "internalType": "uint32",
                          "name": "autoRenewPeriod",
                          "type": "uint32"
                        }
                      ],
                      "internalType": "struct IHederaTokenService.Expiry",
                      "name": "expiry",
                      "type": "tuple"
                    }
                  ],
                  "internalType": "struct IHederaTokenService.HederaToken",
                  "name": "token",
                  "type": "tuple"
                },
                {
                  "internalType": "uint64",
                  "name": "totalSupply",
                  "type": "uint64"
                },
                {
                  "internalType": "bool",
                  "name": "deleted",
                  "type": "bool"
                },
                {
                  "internalType": "bool",
                  "name": "defaultKycStatus",
                  "type": "bool"
                },
                {
                  "internalType": "bool",
                  "name": "pauseStatus",
                  "type": "bool"
                },
                {
                  "components": [
                    {
                      "internalType": "uint32",
                      "name": "amount",
                      "type": "uint32"
                    },
                    {
                      "internalType": "address",
                      "name": "tokenId",
                      "type": "address"
                    },
                    {
                      "internalType": "bool",
                      "name": "useHbarsForPayment",
                      "type": "bool"
                    },
                    {
                      "internalType": "bool",
                      "name": "useCurrentTokenForPayment",
                      "type": "bool"
                    },
                    {
                      "internalType": "address",
                      "name": "feeCollector",
                      "type": "address"
                    }
                  ],
                  "internalType": "struct IHederaTokenService.FixedFee[]",
                  "name": "fixedFees",
                  "type": "tuple[]"
                },
                {
                  "components": [
                    {
                      "internalType": "uint32",
                      "name": "numerator",
                      "type": "uint32"
                    },
                    {
                      "internalType": "uint32",
                      "name": "denominator",
                      "type": "uint32"
                    },
                    {
                      "internalType": "uint32",
                      "name": "minimumAmount",
                      "type": "uint32"
                    },
                    {
                      "internalType": "uint32",
                      "name": "maximumAmount",
                      "type": "uint32"
                    },
                    {
                      "internalType": "bool",
                      "name": "netOfTransfers",
                      "type": "bool"
                    },
                    {
                      "internalType": "address",
                      "name": "feeCollector",
                      "type": "address"
                    }
                  ],
                  "internalType": "struct IHederaTokenService.FractionalFee[]",
                  "name": "fractionalFees",
                  "type": "tuple[]"
                },
                {
                  "components": [
                    {
                      "internalType": "uint32",
                      "name": "numerator",
                      "type": "uint32"
                    },
                    {
                      "internalType": "uint32",
                      "name": "denominator",
                      "type": "uint32"
                    },
                    {
                      "internalType": "uint32",
                      "name": "amount",
                      "type": "uint32"
                    },
                    {
                      "internalType": "address",
                      "name": "tokenId",
                      "type": "address"
                    },
                    {
                      "internalType": "bool",
                      "name": "useHbarsForPayment",
                      "type": "bool"
                    },
                    {
                      "internalType": "address",
                      "name": "feeCollector",
                      "type": "address"
                    }
                  ],
                  "internalType": "struct IHederaTokenService.RoyaltyFee[]",
                  "name": "royaltyFees",
                  "type": "tuple[]"
                },
                {
                  "internalType": "string",
                  "name": "ledgerId",
                  "type": "string"
                }
              ],
              "internalType": "struct IHederaTokenService.TokenInfo",
              "name": "tokenInfo",
              "type": "tuple"
            },
            {
              "internalType": "int64",
              "name": "serialNumber",
              "type": "int64"
            },
            {
              "internalType": "address",
              "name": "ownerId",
              "type": "address"
            },
            {
              "internalType": "int64",
              "name": "creationTime",
              "type": "int64"
            },
            {
              "internalType": "bytes",
              "name": "metadata",
              "type": "bytes"
            },
            {
              "internalType": "address",
              "name": "spenderId",
              "type": "address"
            }
          ],
          "indexed": false,
          "internalType": "struct IHederaTokenService.NonFungibleTokenInfo",
          "name": "tokenInfo",
          "type": "tuple"
        }
      ],
      "name": "NonFungibleTokenInfo",
      "type": "event"
    },
    {
      "anonymous": false,
      "inputs": [
        {
          "indexed": false,
          "internalType": "int256",
          "name": "responseCode",
          "type": "int256"
        }
      ],
      "name": "ResponseCode",
      "type": "event"
    },
    {
      "anonymous": false,
      "inputs": [
        {
          "components": [
            {
              "internalType": "uint32",
              "name": "amount",
              "type": "uint32"
            },
            {
              "internalType": "address",
              "name": "tokenId",
              "type": "address"
            },
            {
              "internalType": "bool",
              "name": "useHbarsForPayment",
              "type": "bool"
            },
            {
              "internalType": "bool",
              "name": "useCurrentTokenForPayment",
              "type": "bool"
            },
            {
              "internalType": "address",
              "name": "feeCollector",
              "type": "address"
            }
          ],
          "indexed": false,
          "internalType": "struct IHederaTokenService.FixedFee[]",
          "name": "fixedFees",
          "type": "tuple[]"
        },
        {
          "components": [
            {
              "internalType": "uint32",
              "name": "numerator",
              "type": "uint32"
            },
            {
              "internalType": "uint32",
              "name": "denominator",
              "type": "uint32"
            },
            {
              "internalType": "uint32",
              "name": "minimumAmount",
              "type": "uint32"
            },
            {
              "internalType": "uint32",
              "name": "maximumAmount",
              "type": "uint32"
            },
            {
              "internalType": "bool",
              "name": "netOfTransfers",
              "type": "bool"
            },
            {
              "internalType": "address",
              "name": "feeCollector",
              "type": "address"
            }
          ],
          "indexed": false,
          "internalType": "struct IHederaTokenService.FractionalFee[]",
          "name": "fractionalFees",
          "type": "tuple[]"
        },
        {
          "components": [
            {
              "internalType": "uint32",
              "name": "numerator",
              "type": "uint32"
            },
            {
              "internalType": "uint32",
              "name": "denominator",
              "type": "uint32"
            },
            {
              "internalType": "uint32",
              "name": "amount",
              "type": "uint32"
            },
            {
              "internalType": "address",
              "name": "tokenId",
              "type": "address"
            },
            {
              "internalType": "bool",
              "name": "useHbarsForPayment",
              "type": "bool"
            },
            {
              "internalType": "address",
              "name": "feeCollector",
              "type": "address"
            }
          ],
          "indexed": false,
          "internalType": "struct IHederaTokenService.RoyaltyFee[]",
          "name": "royaltyFees",
          "type": "tuple[]"
        }
      ],
      "name": "TokenCustomFees",
      "type": "event"
    },
    {
      "anonymous": false,
      "inputs": [
        {
          "indexed": false,
          "internalType": "bool",
          "name": "defaultKycStatus",
          "type": "bool"
        }
      ],
      "name": "TokenDefaultKycStatus",
      "type": "event"
    },
    {
      "anonymous": false,
      "inputs": [
        {
          "components": [
            {
              "components": [
                {
                  "internalType": "string",
                  "name": "name",
                  "type": "string"
                },
                {
                  "internalType": "string",
                  "name": "symbol",
                  "type": "string"
                },
                {
                  "internalType": "address",
                  "name": "treasury",
                  "type": "address"
                },
                {
                  "internalType": "string",
                  "name": "memo",
                  "type": "string"
                },
                {
                  "internalType": "bool",
                  "name": "tokenSupplyType",
                  "type": "bool"
                },
                {
                  "internalType": "int64",
                  "name": "maxSupply",
                  "type": "int64"
                },
                {
                  "internalType": "bool",
                  "name": "freezeDefault",
                  "type": "bool"
                },
                {
                  "components": [
                    {
                      "internalType": "uint256",
                      "name": "keyType",
                      "type": "uint256"
                    },
                    {
                      "components": [
                        {
                          "internalType": "bool",
                          "name": "inheritAccountKey",
                          "type": "bool"
                        },
                        {
                          "internalType": "address",
                          "name": "contractId",
                          "type": "address"
                        },
                        {
                          "internalType": "bytes",
                          "name": "ed25519",
                          "type": "bytes"
                        },
                        {
                          "internalType": "bytes",
                          "name": "ECDSA_secp256k1",
                          "type": "bytes"
                        },
                        {
                          "internalType": "address",
                          "name": "delegatableContractId",
                          "type": "address"
                        }
                      ],
                      "internalType": "struct IHederaTokenService.KeyValue",
                      "name": "key",
                      "type": "tuple"
                    }
                  ],
                  "internalType": "struct IHederaTokenService.TokenKey[]",
                  "name": "tokenKeys",
                  "type": "tuple[]"
                },
                {
                  "components": [
                    {
                      "internalType": "uint32",
                      "name": "second",
                      "type": "uint32"
                    },
                    {
                      "internalType": "address",
                      "name": "autoRenewAccount",
                      "type": "address"
                    },
                    {
                      "internalType": "uint32",
                      "name": "autoRenewPeriod",
                      "type": "uint32"
                    }
                  ],
                  "internalType": "struct IHederaTokenService.Expiry",
                  "name": "expiry",
                  "type": "tuple"
                }
              ],
              "internalType": "struct IHederaTokenService.HederaToken",
              "name": "token",
              "type": "tuple"
            },
            {
              "internalType": "uint64",
              "name": "totalSupply",
              "type": "uint64"
            },
            {
              "internalType": "bool",
              "name": "deleted",
              "type": "bool"
            },
            {
              "internalType": "bool",
              "name": "defaultKycStatus",
              "type": "bool"
            },
            {
              "internalType": "bool",
              "name": "pauseStatus",
              "type": "bool"
            },
            {
              "components": [
                {
                  "internalType": "uint32",
                  "name": "amount",
                  "type": "uint32"
                },
                {
                  "internalType": "address",
                  "name": "tokenId",
                  "type": "address"
                },
                {
                  "internalType": "bool",
                  "name": "useHbarsForPayment",
                  "type": "bool"
                },
                {
                  "internalType": "bool",
                  "name": "useCurrentTokenForPayment",
                  "type": "bool"
                },
                {
                  "internalType": "address",
                  "name": "feeCollector",
                  "type": "address"
                }
              ],
              "internalType": "struct IHederaTokenService.FixedFee[]",
              "name": "fixedFees",
              "type": "tuple[]"
            },
            {
              "components": [
                {
                  "internalType": "uint32",
                  "name": "numerator",
                  "type": "uint32"
                },
                {
                  "internalType": "uint32",
                  "name": "denominator",
                  "type": "uint32"
                },
                {
                  "internalType": "uint32",
                  "name": "minimumAmount",
                  "type": "uint32"
                },
                {
                  "internalType": "uint32",
                  "name": "maximumAmount",
                  "type": "uint32"
                },
                {
                  "internalType": "bool",
                  "name": "netOfTransfers",
                  "type": "bool"
                },
                {
                  "internalType": "address",
                  "name": "feeCollector",
                  "type": "address"
                }
              ],
              "internalType": "struct IHederaTokenService.FractionalFee[]",
              "name": "fractionalFees",
              "type": "tuple[]"
            },
            {
              "components": [
                {
                  "internalType": "uint32",
                  "name": "numerator",
                  "type": "uint32"
                },
                {
                  "internalType": "uint32",
                  "name": "denominator",
                  "type": "uint32"
                },
                {
                  "internalType": "uint32",
                  "name": "amount",
                  "type": "uint32"
                },
                {
                  "internalType": "address",
                  "name": "tokenId",
                  "type": "address"
                },
                {
                  "internalType": "bool",
                  "name": "useHbarsForPayment",
                  "type": "bool"
                },
                {
                  "internalType": "address",
                  "name": "feeCollector",
                  "type": "address"
                }
              ],
              "internalType": "struct IHederaTokenService.RoyaltyFee[]",
              "name": "royaltyFees",
              "type": "tuple[]"
            },
            {
              "internalType": "string",
              "name": "ledgerId",
              "type": "string"
            }
          ],
          "indexed": false,
          "internalType": "struct IHederaTokenService.TokenInfo",
          "name": "tokenInfo",
          "type": "tuple"
        }
      ],
      "name": "TokenInfo",
      "type": "event"
    },
    {
      "inputs": [
        {
          "internalType": "address",
          "name": "token",
          "type": "address"
        },
        {
          "internalType": "address",
          "name": "owner",
          "type": "address"
        },
        {
          "internalType": "address",
          "name": "spender",
          "type": "address"
        }
      ],
      "name": "allowancePublic",
      "outputs": [
        {
          "internalType": "int256",
          "name": "responseCode",
          "type": "int256"
        },
        {
          "internalType": "uint256",
          "name": "amount",
          "type": "uint256"
        }
      ],
      "stateMutability": "nonpayable",
      "type": "function"
    },
    {
      "inputs": [
        {
          "internalType": "address",
          "name": "token",
          "type": "address"
        },
        {
          "internalType": "address",
          "name": "approved",
          "type": "address"
        },
        {
          "internalType": "uint256",
          "name": "serialNumber",
          "type": "uint256"
        }
      ],
      "name": "approveNFTPublic",
      "outputs": [
        {
          "internalType": "int256",
          "name": "responseCode",
          "type": "int256"
        }
      ],
      "stateMutability": "nonpayable",
      "type": "function"
    },
    {
      "inputs": [
        {
          "internalType": "address",
          "name": "token",
          "type": "address"
        },
        {
          "internalType": "address",
          "name": "spender",
          "type": "address"
        },
        {
          "internalType": "uint256",
          "name": "amount",
          "type": "uint256"
        }
      ],
      "name": "approvePublic",
      "outputs": [
        {
          "internalType": "int256",
          "name": "responseCode",
          "type": "int256"
        }
      ],
      "stateMutability": "nonpayable",
      "type": "function"
    },
    {
      "inputs": [
        {
          "internalType": "address",
          "name": "account",
          "type": "address"
        },
        {
          "internalType": "address",
          "name": "token",
          "type": "address"
        }
      ],
      "name": "associateTokenPublic",
      "outputs": [
        {
          "internalType": "int256",
          "name": "responseCode",
          "type": "int256"
        }
      ],
      "stateMutability": "nonpayable",
      "type": "function"
    },
    {
      "inputs": [
        {
          "internalType": "address",
          "name": "treasury",
          "type": "address"
        }
      ],
      "name": "createFungibleTokenPublic",
      "outputs": [],
      "stateMutability": "payable",
      "type": "function"
    },
    {
      "inputs": [
        {
          "internalType": "address",
          "name": "treasury",
          "type": "address"
        },
        {
          "internalType": "address",
          "name": "fixedFeeTokenAddress",
          "type": "address"
        }
      ],
      "name": "createFungibleTokenWithCustomFeesPublic",
      "outputs": [],
      "stateMutability": "payable",
      "type": "function"
    },
    {
      "inputs": [
        {
          "internalType": "address",
          "name": "treasury",
          "type": "address"
        }
      ],
      "name": "createNonFungibleTokenPublic",
      "outputs": [],
      "stateMutability": "payable",
      "type": "function"
    },
    {
      "inputs": [
        {
          "components": [
            {
              "internalType": "address",
              "name": "token",
              "type": "address"
            },
            {
              "components": [
                {
                  "internalType": "address",
                  "name": "accountID",
                  "type": "address"
                },
                {
                  "internalType": "int64",
                  "name": "amount",
                  "type": "int64"
                }
              ],
              "internalType": "struct IHederaTokenService.AccountAmount[]",
              "name": "transfers",
              "type": "tuple[]"
            },
            {
              "components": [
                {
                  "internalType": "address",
                  "name": "senderAccountID",
                  "type": "address"
                },
                {
                  "internalType": "address",
                  "name": "receiverAccountID",
                  "type": "address"
                },
                {
                  "internalType": "int64",
                  "name": "serialNumber",
                  "type": "int64"
                }
              ],
              "internalType": "struct IHederaTokenService.NftTransfer[]",
              "name": "nftTransfers",
              "type": "tuple[]"
            }
          ],
          "internalType": "struct IHederaTokenService.TokenTransferList[]",
          "name": "tokenTransferList",
          "type": "tuple[]"
        }
      ],
      "name": "cryptoTransferPublic",
      "outputs": [
        {
          "internalType": "int256",
          "name": "responseCode",
          "type": "int256"
        }
      ],
      "stateMutability": "nonpayable",
      "type": "function"
    },
    {
      "inputs": [
        {
          "internalType": "address",
          "name": "account",
          "type": "address"
        },
        {
          "internalType": "address",
          "name": "token",
          "type": "address"
        },
        {
          "internalType": "int64",
          "name": "amount",
          "type": "int64"
        }
      ],
      "name": "cryptoTransferTokenPublic",
      "outputs": [
        {
          "internalType": "int256",
          "name": "responseCode",
          "type": "int256"
        }
      ],
      "stateMutability": "nonpayable",
      "type": "function"
    },
    {
      "inputs": [
        {
          "internalType": "address",
          "name": "token",
          "type": "address"
        }
      ],
      "name": "deleteTokenPublic",
      "outputs": [
        {
          "internalType": "int256",
          "name": "responseCode",
          "type": "int256"
        }
      ],
      "stateMutability": "nonpayable",
      "type": "function"
    },
    {
      "inputs": [
        {
          "internalType": "address",
          "name": "token",
          "type": "address"
        },
        {
          "internalType": "uint256",
          "name": "serialNumber",
          "type": "uint256"
        }
      ],
      "name": "getApprovedPublic",
      "outputs": [
        {
          "internalType": "int256",
          "name": "responseCode",
          "type": "int256"
        },
        {
          "internalType": "address",
          "name": "approved",
          "type": "address"
        }
      ],
      "stateMutability": "nonpayable",
      "type": "function"
    },
    {
      "inputs": [
        {
          "internalType": "address",
          "name": "token",
          "type": "address"
        }
      ],
      "name": "getFungibleTokenInfoPublic",
      "outputs": [
        {
          "internalType": "int256",
          "name": "responseCode",
          "type": "int256"
        },
        {
          "components": [
            {
              "components": [
                {
                  "components": [
                    {
                      "internalType": "string",
                      "name": "name",
                      "type": "string"
                    },
                    {
                      "internalType": "string",
                      "name": "symbol",
                      "type": "string"
                    },
                    {
                      "internalType": "address",
                      "name": "treasury",
                      "type": "address"
                    },
                    {
                      "internalType": "string",
                      "name": "memo",
                      "type": "string"
                    },
                    {
                      "internalType": "bool",
                      "name": "tokenSupplyType",
                      "type": "bool"
                    },
                    {
                      "internalType": "int64",
                      "name": "maxSupply",
                      "type": "int64"
                    },
                    {
                      "internalType": "bool",
                      "name": "freezeDefault",
                      "type": "bool"
                    },
                    {
                      "components": [
                        {
                          "internalType": "uint256",
                          "name": "keyType",
                          "type": "uint256"
                        },
                        {
                          "components": [
                            {
                              "internalType": "bool",
                              "name": "inheritAccountKey",
                              "type": "bool"
                            },
                            {
                              "internalType": "address",
                              "name": "contractId",
                              "type": "address"
                            },
                            {
                              "internalType": "bytes",
                              "name": "ed25519",
                              "type": "bytes"
                            },
                            {
                              "internalType": "bytes",
                              "name": "ECDSA_secp256k1",
                              "type": "bytes"
                            },
                            {
                              "internalType": "address",
                              "name": "delegatableContractId",
                              "type": "address"
                            }
                          ],
                          "internalType": "struct IHederaTokenService.KeyValue",
                          "name": "key",
                          "type": "tuple"
                        }
                      ],
                      "internalType": "struct IHederaTokenService.TokenKey[]",
                      "name": "tokenKeys",
                      "type": "tuple[]"
                    },
                    {
                      "components": [
                        {
                          "internalType": "uint32",
                          "name": "second",
                          "type": "uint32"
                        },
                        {
                          "internalType": "address",
                          "name": "autoRenewAccount",
                          "type": "address"
                        },
                        {
                          "internalType": "uint32",
                          "name": "autoRenewPeriod",
                          "type": "uint32"
                        }
                      ],
                      "internalType": "struct IHederaTokenService.Expiry",
                      "name": "expiry",
                      "type": "tuple"
                    }
                  ],
                  "internalType": "struct IHederaTokenService.HederaToken",
                  "name": "token",
                  "type": "tuple"
                },
                {
                  "internalType": "uint64",
                  "name": "totalSupply",
                  "type": "uint64"
                },
                {
                  "internalType": "bool",
                  "name": "deleted",
                  "type": "bool"
                },
                {
                  "internalType": "bool",
                  "name": "defaultKycStatus",
                  "type": "bool"
                },
                {
                  "internalType": "bool",
                  "name": "pauseStatus",
                  "type": "bool"
                },
                {
                  "components": [
                    {
                      "internalType": "uint32",
                      "name": "amount",
                      "type": "uint32"
                    },
                    {
                      "internalType": "address",
                      "name": "tokenId",
                      "type": "address"
                    },
                    {
                      "internalType": "bool",
                      "name": "useHbarsForPayment",
                      "type": "bool"
                    },
                    {
                      "internalType": "bool",
                      "name": "useCurrentTokenForPayment",
                      "type": "bool"
                    },
                    {
                      "internalType": "address",
                      "name": "feeCollector",
                      "type": "address"
                    }
                  ],
                  "internalType": "struct IHederaTokenService.FixedFee[]",
                  "name": "fixedFees",
                  "type": "tuple[]"
                },
                {
                  "components": [
                    {
                      "internalType": "uint32",
                      "name": "numerator",
                      "type": "uint32"
                    },
                    {
                      "internalType": "uint32",
                      "name": "denominator",
                      "type": "uint32"
                    },
                    {
                      "internalType": "uint32",
                      "name": "minimumAmount",
                      "type": "uint32"
                    },
                    {
                      "internalType": "uint32",
                      "name": "maximumAmount",
                      "type": "uint32"
                    },
                    {
                      "internalType": "bool",
                      "name": "netOfTransfers",
                      "type": "bool"
                    },
                    {
                      "internalType": "address",
                      "name": "feeCollector",
                      "type": "address"
                    }
                  ],
                  "internalType": "struct IHederaTokenService.FractionalFee[]",
                  "name": "fractionalFees",
                  "type": "tuple[]"
                },
                {
                  "components": [
                    {
                      "internalType": "uint32",
                      "name": "numerator",
                      "type": "uint32"
                    },
                    {
                      "internalType": "uint32",
                      "name": "denominator",
                      "type": "uint32"
                    },
                    {
                      "internalType": "uint32",
                      "name": "amount",
                      "type": "uint32"
                    },
                    {
                      "internalType": "address",
                      "name": "tokenId",
                      "type": "address"
                    },
                    {
                      "internalType": "bool",
                      "name": "useHbarsForPayment",
                      "type": "bool"
                    },
                    {
                      "internalType": "address",
                      "name": "feeCollector",
                      "type": "address"
                    }
                  ],
                  "internalType": "struct IHederaTokenService.RoyaltyFee[]",
                  "name": "royaltyFees",
                  "type": "tuple[]"
                },
                {
                  "internalType": "string",
                  "name": "ledgerId",
                  "type": "string"
                }
              ],
              "internalType": "struct IHederaTokenService.TokenInfo",
              "name": "tokenInfo",
              "type": "tuple"
            },
            {
              "internalType": "uint32",
              "name": "decimals",
              "type": "uint32"
            }
          ],
          "internalType": "struct IHederaTokenService.FungibleTokenInfo",
          "name": "tokenInfo",
          "type": "tuple"
        }
      ],
      "stateMutability": "nonpayable",
      "type": "function"
    },
    {
      "inputs": [
        {
          "internalType": "address",
          "name": "token",
          "type": "address"
        },
        {
          "internalType": "int64",
          "name": "serialNumber",
          "type": "int64"
        }
      ],
      "name": "getNonFungibleTokenInfoPublic",
      "outputs": [
        {
          "internalType": "int256",
          "name": "responseCode",
          "type": "int256"
        },
        {
          "components": [
            {
              "components": [
                {
                  "components": [
                    {
                      "internalType": "string",
                      "name": "name",
                      "type": "string"
                    },
                    {
                      "internalType": "string",
                      "name": "symbol",
                      "type": "string"
                    },
                    {
                      "internalType": "address",
                      "name": "treasury",
                      "type": "address"
                    },
                    {
                      "internalType": "string",
                      "name": "memo",
                      "type": "string"
                    },
                    {
                      "internalType": "bool",
                      "name": "tokenSupplyType",
                      "type": "bool"
                    },
                    {
                      "internalType": "int64",
                      "name": "maxSupply",
                      "type": "int64"
                    },
                    {
                      "internalType": "bool",
                      "name": "freezeDefault",
                      "type": "bool"
                    },
                    {
                      "components": [
                        {
                          "internalType": "uint256",
                          "name": "keyType",
                          "type": "uint256"
                        },
                        {
                          "components": [
                            {
                              "internalType": "bool",
                              "name": "inheritAccountKey",
                              "type": "bool"
                            },
                            {
                              "internalType": "address",
                              "name": "contractId",
                              "type": "address"
                            },
                            {
                              "internalType": "bytes",
                              "name": "ed25519",
                              "type": "bytes"
                            },
                            {
                              "internalType": "bytes",
                              "name": "ECDSA_secp256k1",
                              "type": "bytes"
                            },
                            {
                              "internalType": "address",
                              "name": "delegatableContractId",
                              "type": "address"
                            }
                          ],
                          "internalType": "struct IHederaTokenService.KeyValue",
                          "name": "key",
                          "type": "tuple"
                        }
                      ],
                      "internalType": "struct IHederaTokenService.TokenKey[]",
                      "name": "tokenKeys",
                      "type": "tuple[]"
                    },
                    {
                      "components": [
                        {
                          "internalType": "uint32",
                          "name": "second",
                          "type": "uint32"
                        },
                        {
                          "internalType": "address",
                          "name": "autoRenewAccount",
                          "type": "address"
                        },
                        {
                          "internalType": "uint32",
                          "name": "autoRenewPeriod",
                          "type": "uint32"
                        }
                      ],
                      "internalType": "struct IHederaTokenService.Expiry",
                      "name": "expiry",
                      "type": "tuple"
                    }
                  ],
                  "internalType": "struct IHederaTokenService.HederaToken",
                  "name": "token",
                  "type": "tuple"
                },
                {
                  "internalType": "uint64",
                  "name": "totalSupply",
                  "type": "uint64"
                },
                {
                  "internalType": "bool",
                  "name": "deleted",
                  "type": "bool"
                },
                {
                  "internalType": "bool",
                  "name": "defaultKycStatus",
                  "type": "bool"
                },
                {
                  "internalType": "bool",
                  "name": "pauseStatus",
                  "type": "bool"
                },
                {
                  "components": [
                    {
                      "internalType": "uint32",
                      "name": "amount",
                      "type": "uint32"
                    },
                    {
                      "internalType": "address",
                      "name": "tokenId",
                      "type": "address"
                    },
                    {
                      "internalType": "bool",
                      "name": "useHbarsForPayment",
                      "type": "bool"
                    },
                    {
                      "internalType": "bool",
                      "name": "useCurrentTokenForPayment",
                      "type": "bool"
                    },
                    {
                      "internalType": "address",
                      "name": "feeCollector",
                      "type": "address"
                    }
                  ],
                  "internalType": "struct IHederaTokenService.FixedFee[]",
                  "name": "fixedFees",
                  "type": "tuple[]"
                },
                {
                  "components": [
                    {
                      "internalType": "uint32",
                      "name": "numerator",
                      "type": "uint32"
                    },
                    {
                      "internalType": "uint32",
                      "name": "denominator",
                      "type": "uint32"
                    },
                    {
                      "internalType": "uint32",
                      "name": "minimumAmount",
                      "type": "uint32"
                    },
                    {
                      "internalType": "uint32",
                      "name": "maximumAmount",
                      "type": "uint32"
                    },
                    {
                      "internalType": "bool",
                      "name": "netOfTransfers",
                      "type": "bool"
                    },
                    {
                      "internalType": "address",
                      "name": "feeCollector",
                      "type": "address"
                    }
                  ],
                  "internalType": "struct IHederaTokenService.FractionalFee[]",
                  "name": "fractionalFees",
                  "type": "tuple[]"
                },
                {
                  "components": [
                    {
                      "internalType": "uint32",
                      "name": "numerator",
                      "type": "uint32"
                    },
                    {
                      "internalType": "uint32",
                      "name": "denominator",
                      "type": "uint32"
                    },
                    {
                      "internalType": "uint32",
                      "name": "amount",
                      "type": "uint32"
                    },
                    {
                      "internalType": "address",
                      "name": "tokenId",
                      "type": "address"
                    },
                    {
                      "internalType": "bool",
                      "name": "useHbarsForPayment",
                      "type": "bool"
                    },
                    {
                      "internalType": "address",
                      "name": "feeCollector",
                      "type": "address"
                    }
                  ],
                  "internalType": "struct IHederaTokenService.RoyaltyFee[]",
                  "name": "royaltyFees",
                  "type": "tuple[]"
                },
                {
                  "internalType": "string",
                  "name": "ledgerId",
                  "type": "string"
                }
              ],
              "internalType": "struct IHederaTokenService.TokenInfo",
              "name": "tokenInfo",
              "type": "tuple"
            },
            {
              "internalType": "int64",
              "name": "serialNumber",
              "type": "int64"
            },
            {
              "internalType": "address",
              "name": "ownerId",
              "type": "address"
            },
            {
              "internalType": "int64",
              "name": "creationTime",
              "type": "int64"
            },
            {
              "internalType": "bytes",
              "name": "metadata",
              "type": "bytes"
            },
            {
              "internalType": "address",
              "name": "spenderId",
              "type": "address"
            }
          ],
          "internalType": "struct IHederaTokenService.NonFungibleTokenInfo",
          "name": "tokenInfo",
          "type": "tuple"
        }
      ],
      "stateMutability": "nonpayable",
      "type": "function"
    },
    {
      "inputs": [
        {
          "internalType": "address",
          "name": "token",
          "type": "address"
        }
      ],
      "name": "getTokenCustomFeesPublic",
      "outputs": [
        {
          "internalType": "int64",
          "name": "responseCode",
          "type": "int64"
        },
        {
          "components": [
            {
              "internalType": "uint32",
              "name": "amount",
              "type": "uint32"
            },
            {
              "internalType": "address",
              "name": "tokenId",
              "type": "address"
            },
            {
              "internalType": "bool",
              "name": "useHbarsForPayment",
              "type": "bool"
            },
            {
              "internalType": "bool",
              "name": "useCurrentTokenForPayment",
              "type": "bool"
            },
            {
              "internalType": "address",
              "name": "feeCollector",
              "type": "address"
            }
          ],
          "internalType": "struct IHederaTokenService.FixedFee[]",
          "name": "fixedFees",
          "type": "tuple[]"
        },
        {
          "components": [
            {
              "internalType": "uint32",
              "name": "numerator",
              "type": "uint32"
            },
            {
              "internalType": "uint32",
              "name": "denominator",
              "type": "uint32"
            },
            {
              "internalType": "uint32",
              "name": "minimumAmount",
              "type": "uint32"
            },
            {
              "internalType": "uint32",
              "name": "maximumAmount",
              "type": "uint32"
            },
            {
              "internalType": "bool",
              "name": "netOfTransfers",
              "type": "bool"
            },
            {
              "internalType": "address",
              "name": "feeCollector",
              "type": "address"
            }
          ],
          "internalType": "struct IHederaTokenService.FractionalFee[]",
          "name": "fractionalFees",
          "type": "tuple[]"
        },
        {
          "components": [
            {
              "internalType": "uint32",
              "name": "numerator",
              "type": "uint32"
            },
            {
              "internalType": "uint32",
              "name": "denominator",
              "type": "uint32"
            },
            {
              "internalType": "uint32",
              "name": "amount",
              "type": "uint32"
            },
            {
              "internalType": "address",
              "name": "tokenId",
              "type": "address"
            },
            {
              "internalType": "bool",
              "name": "useHbarsForPayment",
              "type": "bool"
            },
            {
              "internalType": "address",
              "name": "feeCollector",
              "type": "address"
            }
          ],
          "internalType": "struct IHederaTokenService.RoyaltyFee[]",
          "name": "royaltyFees",
          "type": "tuple[]"
        }
      ],
      "stateMutability": "nonpayable",
      "type": "function"
    },
    {
      "inputs": [
        {
          "internalType": "address",
          "name": "token",
          "type": "address"
        }
      ],
      "name": "getTokenDefaultKycStatusPublic",
      "outputs": [
        {
          "internalType": "int256",
          "name": "responseCode",
          "type": "int256"
        },
        {
          "internalType": "bool",
          "name": "defaultKycStatus",
          "type": "bool"
        }
      ],
      "stateMutability": "nonpayable",
      "type": "function"
    },
    {
      "inputs": [
        {
          "internalType": "address",
          "name": "token",
          "type": "address"
        }
      ],
      "name": "getTokenExpiryInfo",
      "outputs": [
        {
          "internalType": "int256",
          "name": "responseCode",
          "type": "int256"
        },
        {
          "components": [
            {
              "internalType": "uint32",
              "name": "second",
              "type": "uint32"
            },
            {
              "internalType": "address",
              "name": "autoRenewAccount",
              "type": "address"
            },
            {
              "internalType": "uint32",
              "name": "autoRenewPeriod",
              "type": "uint32"
            }
          ],
          "internalType": "struct IHederaTokenService.Expiry",
          "name": "expiryInfo",
          "type": "tuple"
        }
      ],
      "stateMutability": "nonpayable",
      "type": "function"
    },
    {
      "inputs": [
        {
          "internalType": "address",
          "name": "token",
          "type": "address"
        }
      ],
      "name": "getTokenInfoPublic",
      "outputs": [
        {
          "internalType": "int256",
          "name": "responseCode",
          "type": "int256"
        },
        {
          "components": [
            {
              "components": [
                {
                  "internalType": "string",
                  "name": "name",
                  "type": "string"
                },
                {
                  "internalType": "string",
                  "name": "symbol",
                  "type": "string"
                },
                {
                  "internalType": "address",
                  "name": "treasury",
                  "type": "address"
                },
                {
                  "internalType": "string",
                  "name": "memo",
                  "type": "string"
                },
                {
                  "internalType": "bool",
                  "name": "tokenSupplyType",
                  "type": "bool"
                },
                {
                  "internalType": "int64",
                  "name": "maxSupply",
                  "type": "int64"
                },
                {
                  "internalType": "bool",
                  "name": "freezeDefault",
                  "type": "bool"
                },
                {
                  "components": [
                    {
                      "internalType": "uint256",
                      "name": "keyType",
                      "type": "uint256"
                    },
                    {
                      "components": [
                        {
                          "internalType": "bool",
                          "name": "inheritAccountKey",
                          "type": "bool"
                        },
                        {
                          "internalType": "address",
                          "name": "contractId",
                          "type": "address"
                        },
                        {
                          "internalType": "bytes",
                          "name": "ed25519",
                          "type": "bytes"
                        },
                        {
                          "internalType": "bytes",
                          "name": "ECDSA_secp256k1",
                          "type": "bytes"
                        },
                        {
                          "internalType": "address",
                          "name": "delegatableContractId",
                          "type": "address"
                        }
                      ],
                      "internalType": "struct IHederaTokenService.KeyValue",
                      "name": "key",
                      "type": "tuple"
                    }
                  ],
                  "internalType": "struct IHederaTokenService.TokenKey[]",
                  "name": "tokenKeys",
                  "type": "tuple[]"
                },
                {
                  "components": [
                    {
                      "internalType": "uint32",
                      "name": "second",
                      "type": "uint32"
                    },
                    {
                      "internalType": "address",
                      "name": "autoRenewAccount",
                      "type": "address"
                    },
                    {
                      "internalType": "uint32",
                      "name": "autoRenewPeriod",
                      "type": "uint32"
                    }
                  ],
                  "internalType": "struct IHederaTokenService.Expiry",
                  "name": "expiry",
                  "type": "tuple"
                }
              ],
              "internalType": "struct IHederaTokenService.HederaToken",
              "name": "token",
              "type": "tuple"
            },
            {
              "internalType": "uint64",
              "name": "totalSupply",
              "type": "uint64"
            },
            {
              "internalType": "bool",
              "name": "deleted",
              "type": "bool"
            },
            {
              "internalType": "bool",
              "name": "defaultKycStatus",
              "type": "bool"
            },
            {
              "internalType": "bool",
              "name": "pauseStatus",
              "type": "bool"
            },
            {
              "components": [
                {
                  "internalType": "uint32",
                  "name": "amount",
                  "type": "uint32"
                },
                {
                  "internalType": "address",
                  "name": "tokenId",
                  "type": "address"
                },
                {
                  "internalType": "bool",
                  "name": "useHbarsForPayment",
                  "type": "bool"
                },
                {
                  "internalType": "bool",
                  "name": "useCurrentTokenForPayment",
                  "type": "bool"
                },
                {
                  "internalType": "address",
                  "name": "feeCollector",
                  "type": "address"
                }
              ],
              "internalType": "struct IHederaTokenService.FixedFee[]",
              "name": "fixedFees",
              "type": "tuple[]"
            },
            {
              "components": [
                {
                  "internalType": "uint32",
                  "name": "numerator",
                  "type": "uint32"
                },
                {
                  "internalType": "uint32",
                  "name": "denominator",
                  "type": "uint32"
                },
                {
                  "internalType": "uint32",
                  "name": "minimumAmount",
                  "type": "uint32"
                },
                {
                  "internalType": "uint32",
                  "name": "maximumAmount",
                  "type": "uint32"
                },
                {
                  "internalType": "bool",
                  "name": "netOfTransfers",
                  "type": "bool"
                },
                {
                  "internalType": "address",
                  "name": "feeCollector",
                  "type": "address"
                }
              ],
              "internalType": "struct IHederaTokenService.FractionalFee[]",
              "name": "fractionalFees",
              "type": "tuple[]"
            },
            {
              "components": [
                {
                  "internalType": "uint32",
                  "name": "numerator",
                  "type": "uint32"
                },
                {
                  "internalType": "uint32",
                  "name": "denominator",
                  "type": "uint32"
                },
                {
                  "internalType": "uint32",
                  "name": "amount",
                  "type": "uint32"
                },
                {
                  "internalType": "address",
                  "name": "tokenId",
                  "type": "address"
                },
                {
                  "internalType": "bool",
                  "name": "useHbarsForPayment",
                  "type": "bool"
                },
                {
                  "internalType": "address",
                  "name": "feeCollector",
                  "type": "address"
                }
              ],
              "internalType": "struct IHederaTokenService.RoyaltyFee[]",
              "name": "royaltyFees",
              "type": "tuple[]"
            },
            {
              "internalType": "string",
              "name": "ledgerId",
              "type": "string"
            }
          ],
          "internalType": "struct IHederaTokenService.TokenInfo",
          "name": "tokenInfo",
          "type": "tuple"
        }
      ],
      "stateMutability": "nonpayable",
      "type": "function"
    },
    {
      "inputs": [
        {
          "internalType": "address",
          "name": "token",
          "type": "address"
        },
        {
          "internalType": "address",
          "name": "account",
          "type": "address"
        }
      ],
      "name": "grantTokenKyc",
      "outputs": [
        {
          "internalType": "int64",
          "name": "responseCode",
          "type": "int64"
        }
      ],
      "stateMutability": "nonpayable",
      "type": "function"
    },
    {
      "inputs": [
        {
          "internalType": "address",
          "name": "token",
          "type": "address"
        },
        {
          "internalType": "address",
          "name": "account",
          "type": "address"
        }
      ],
      "name": "grantTokenKycPublic",
      "outputs": [
        {
          "internalType": "int64",
          "name": "responseCode",
          "type": "int64"
        }
      ],
      "stateMutability": "nonpayable",
      "type": "function"
    },
    {
      "inputs": [
        {
          "internalType": "address",
          "name": "token",
          "type": "address"
        },
        {
          "internalType": "address",
          "name": "owner",
          "type": "address"
        },
        {
          "internalType": "address",
          "name": "operator",
          "type": "address"
        }
      ],
      "name": "isApprovedForAllPublic",
      "outputs": [
        {
          "internalType": "int256",
          "name": "responseCode",
          "type": "int256"
        },
        {
          "internalType": "bool",
          "name": "approved",
          "type": "bool"
        }
      ],
      "stateMutability": "nonpayable",
      "type": "function"
    },
    {
      "inputs": [
        {
          "internalType": "address",
          "name": "token",
          "type": "address"
        },
        {
          "internalType": "address",
          "name": "account",
          "type": "address"
        }
      ],
      "name": "isKyc",
      "outputs": [
        {
          "internalType": "int64",
          "name": "responseCode",
          "type": "int64"
        },
        {
          "internalType": "bool",
          "name": "kycGranted",
          "type": "bool"
        }
      ],
      "stateMutability": "nonpayable",
      "type": "function"
    },
    {
      "inputs": [
        {
          "internalType": "address",
          "name": "token",
          "type": "address"
        },
        {
          "internalType": "address",
          "name": "account",
          "type": "address"
        }
      ],
      "name": "isKycPublic",
      "outputs": [
        {
          "internalType": "int64",
          "name": "responseCode",
          "type": "int64"
        },
        {
          "internalType": "bool",
          "name": "kycGranted",
          "type": "bool"
        }
      ],
      "stateMutability": "nonpayable",
      "type": "function"
    },
    {
      "inputs": [
        {
          "internalType": "address",
          "name": "token",
          "type": "address"
        },
        {
          "internalType": "uint64",
          "name": "amount",
          "type": "uint64"
        },
        {
          "internalType": "bytes[]",
          "name": "metadata",
          "type": "bytes[]"
        }
      ],
      "name": "mintTokenPublic",
      "outputs": [
        {
          "internalType": "int256",
          "name": "responseCode",
          "type": "int256"
        },
        {
          "internalType": "uint64",
          "name": "newTotalSupply",
          "type": "uint64"
        },
        {
          "internalType": "int64[]",
          "name": "serialNumbers",
          "type": "int64[]"
        }
      ],
      "stateMutability": "nonpayable",
      "type": "function"
    },
    {
      "inputs": [
        {
          "internalType": "address",
          "name": "token",
          "type": "address"
        }
      ],
      "name": "pauseToken",
      "outputs": [
        {
          "internalType": "int256",
          "name": "responseCode",
          "type": "int256"
        }
      ],
      "stateMutability": "nonpayable",
      "type": "function"
    },
    {
      "inputs": [
        {
          "internalType": "address",
          "name": "token",
          "type": "address"
        },
        {
          "internalType": "address",
          "name": "account",
          "type": "address"
        }
      ],
      "name": "revokeTokenKyc",
      "outputs": [
        {
          "internalType": "int64",
          "name": "responseCode",
          "type": "int64"
        }
      ],
      "stateMutability": "nonpayable",
      "type": "function"
    },
    {
      "inputs": [
        {
          "internalType": "address",
          "name": "token",
          "type": "address"
        },
        {
          "internalType": "address",
          "name": "account",
          "type": "address"
        }
      ],
      "name": "revokeTokenKycPublic",
      "outputs": [
        {
          "internalType": "int64",
          "name": "responseCode",
          "type": "int64"
        }
      ],
      "stateMutability": "nonpayable",
      "type": "function"
    },
    {
      "inputs": [
        {
          "internalType": "address",
          "name": "token",
          "type": "address"
        },
        {
          "internalType": "address",
          "name": "operator",
          "type": "address"
        },
        {
          "internalType": "bool",
          "name": "approved",
          "type": "bool"
        }
      ],
      "name": "setApprovalForAllPublic",
      "outputs": [
        {
          "internalType": "int256",
          "name": "responseCode",
          "type": "int256"
        }
      ],
      "stateMutability": "nonpayable",
      "type": "function"
    },
    {
      "inputs": [
        {
          "internalType": "address",
          "name": "token",
          "type": "address"
        },
        {
          "internalType": "address",
          "name": "sender",
          "type": "address"
        },
        {
          "internalType": "address",
          "name": "receiver",
          "type": "address"
        },
        {
          "internalType": "int64",
          "name": "serialNumber",
          "type": "int64"
        }
      ],
      "name": "transferNFTPublic",
      "outputs": [
        {
          "internalType": "int256",
          "name": "responseCode",
          "type": "int256"
        }
      ],
      "stateMutability": "nonpayable",
      "type": "function"
    },
    {
      "inputs": [
        {
          "internalType": "address",
          "name": "token",
          "type": "address"
        },
        {
          "internalType": "address",
          "name": "sender",
          "type": "address"
        },
        {
          "internalType": "address",
          "name": "receiver",
          "type": "address"
        },
        {
          "internalType": "int64",
          "name": "amount",
          "type": "int64"
        }
      ],
      "name": "transferTokenPublic",
      "outputs": [
        {
          "internalType": "int256",
          "name": "responseCode",
          "type": "int256"
        }
      ],
      "stateMutability": "nonpayable",
      "type": "function"
    },
    {
      "inputs": [
        {
          "internalType": "address",
          "name": "token",
          "type": "address"
        }
      ],
      "name": "unpauseToken",
      "outputs": [
        {
          "internalType": "int256",
          "name": "responseCode",
          "type": "int256"
        }
      ],
      "stateMutability": "nonpayable",
      "type": "function"
    },
    {
      "inputs": [
        {
          "internalType": "address",
          "name": "token",
          "type": "address"
        },
        {
          "components": [
            {
              "internalType": "uint32",
              "name": "second",
              "type": "uint32"
            },
            {
              "internalType": "address",
              "name": "autoRenewAccount",
              "type": "address"
            },
            {
              "internalType": "uint32",
              "name": "autoRenewPeriod",
              "type": "uint32"
            }
          ],
          "internalType": "struct IHederaTokenService.Expiry",
          "name": "expiryInfo",
          "type": "tuple"
        }
      ],
      "name": "updateTokenExpiryInfo",
      "outputs": [
        {
          "internalType": "int256",
          "name": "responseCode",
          "type": "int256"
        }
      ],
      "stateMutability": "nonpayable",
      "type": "function"
    },
    {
      "inputs": [
        {
          "internalType": "address",
          "name": "token",
          "type": "address"
        },
        {
          "components": [
            {
              "internalType": "string",
              "name": "name",
              "type": "string"
            },
            {
              "internalType": "string",
              "name": "symbol",
              "type": "string"
            },
            {
              "internalType": "address",
              "name": "treasury",
              "type": "address"
            },
            {
              "internalType": "string",
              "name": "memo",
              "type": "string"
            },
            {
              "internalType": "bool",
              "name": "tokenSupplyType",
              "type": "bool"
            },
            {
              "internalType": "int64",
              "name": "maxSupply",
              "type": "int64"
            },
            {
              "internalType": "bool",
              "name": "freezeDefault",
              "type": "bool"
            },
            {
              "components": [
                {
                  "internalType": "uint256",
                  "name": "keyType",
                  "type": "uint256"
                },
                {
                  "components": [
                    {
                      "internalType": "bool",
                      "name": "inheritAccountKey",
                      "type": "bool"
                    },
                    {
                      "internalType": "address",
                      "name": "contractId",
                      "type": "address"
                    },
                    {
                      "internalType": "bytes",
                      "name": "ed25519",
                      "type": "bytes"
                    },
                    {
                      "internalType": "bytes",
                      "name": "ECDSA_secp256k1",
                      "type": "bytes"
                    },
                    {
                      "internalType": "address",
                      "name": "delegatableContractId",
                      "type": "address"
                    }
                  ],
                  "internalType": "struct IHederaTokenService.KeyValue",
                  "name": "key",
                  "type": "tuple"
                }
              ],
              "internalType": "struct IHederaTokenService.TokenKey[]",
              "name": "tokenKeys",
              "type": "tuple[]"
            },
            {
              "components": [
                {
                  "internalType": "uint32",
                  "name": "second",
                  "type": "uint32"
                },
                {
                  "internalType": "address",
                  "name": "autoRenewAccount",
                  "type": "address"
                },
                {
                  "internalType": "uint32",
                  "name": "autoRenewPeriod",
                  "type": "uint32"
                }
              ],
              "internalType": "struct IHederaTokenService.Expiry",
              "name": "expiry",
              "type": "tuple"
            }
          ],
          "internalType": "struct IHederaTokenService.HederaToken",
          "name": "tokenInfo",
          "type": "tuple"
        }
      ],
      "name": "updateTokenInfo",
      "outputs": [
        {
          "internalType": "int256",
          "name": "responseCode",
          "type": "int256"
        }
      ],
      "stateMutability": "nonpayable",
      "type": "function"
    }
  ],
  "bytecode": "0x60c06040526009608081905268746f6b656e4e616d6560b81b60a09081526200002c9160029190620001cc565b5060408051808201909152600b8082526a1d1bdad95b94de5b589bdb60aa1b60209092019182526200006191600391620001cc565b50604080518082019091526004808252636d656d6f60e01b60209092019182526200008d9181620001cc565b50600580546001600160a81b031916700800000000000003e800000000000003e8179055348015620000be57600080fd5b50600160208181527fa6eef7e35abe7026729641147f7915573c7e97b47efa546f5f6e3230263bcb499190915560027fcc69885fda6bcc1a4ace058b4a62bf5e179ea78fd58a1ccd71c22cc9b688792f5560047fd9d16d34ffb15ba3a3d852f0d403e2ce1d691fb54de27ac87cd2f993f3ec330f5560087f7dfe757ecd65cbd7922a9c0161e935dd7fdbcc0e999689c7d31633896b1fc60b5560107fedc95719e9a3b28dd8e80877cb5880a9be7de1a13fc8b05e7999683b6b567643557fe2689cd4a84e23ad2f564004f1c9013e9589d260bde6380aba3ca7e09e4df40c55600660005260407f8f331abe73332f95a25873e8b430885974c0409691f89d643119a11623a7924a55620002af565b828054620001da9062000272565b90600052602060002090601f016020900481019282620001fe576000855562000249565b82601f106200021957805160ff191683800117855562000249565b8280016001018555821562000249579182015b82811115620002495782518255916020019190600101906200022c565b50620002579291506200025b565b5090565b5b808211156200025757600081556001016200025c565b600181811c908216806200028757607f821691505b60208210811415620002a957634e487b7160e01b600052602260045260246000fd5b50919050565b61535980620002bf6000396000f3fe6080604052600436106101e35760003560e01c806386f88d8811610102578063d85f74c111610095578063f2f38a7411610064578063f2f38a7414610613578063f4a01e5b14610641578063f848fec414610661578063fdc8321e1461068157600080fd5b8063d85f74c1146105a0578063df6c06f5146105b3578063f25b1200146105d3578063f2c31ff4146105f357600080fd5b8063a345f7bd116100d1578063a345f7bd146104f8578063a3ad5b5514610518578063af99c63314610552578063d614cdb81461057257600080fd5b806386f88d88146104855780638ba74da0146104a55780638f8d7f99146104b85780639604ca65146104d857600080fd5b80634cbdb37b1161017a57806369837dc21161014957806369837dc2146103e85780636da6b1f0146104165780637c41ad2c146104365780638070905f1461045657600080fd5b80634cbdb37b14610335578063593d6e82146103635780635a5e6c31146103835780635b9076b7146103b857600080fd5b80632eecbca3116101b65780632eecbca3146102c05780633b3bff0f146102e05780634b5c6687146103005780634ba670351461031557600080fd5b80630fd2601e146101e857806313c05dd81461022057806318370d341461025557806319db44b614610283575b600080fd5b3480156101f457600080fd5b50610208610203366004613d39565b6106a1565b60405160079190910b81526020015b60405180910390f35b34801561022c57600080fd5b5061024061023b366004613d71565b610765565b60408051928352901515602083015201610217565b34801561026157600080fd5b50610275610270366004613f36565b6107e3565b604051908152602001610217565b34801561028f57600080fd5b506102a361029e366004614076565b6108c0565b604080519283526001600160a01b03909116602083015201610217565b3480156102cc57600080fd5b506102086102db366004613d39565b610944565b3480156102ec57600080fd5b506102756102fb366004613d1d565b61097b565b61031361030e366004613d1d565b610a55565b005b34801561032157600080fd5b50610275610330366004613dbb565b610e6d565b34801561034157600080fd5b50610355610350366004613ed4565b610eb9565b604051610217929190614daf565b34801561036f57600080fd5b5061027561037e366004613f01565b610f2f565b34801561038f57600080fd5b506103a361039e366004613d71565b610f5b565b60408051928352602083019190915201610217565b3480156103c457600080fd5b506103d86103d3366004613d1d565b610fcc565b6040516102179493929190614e12565b3480156103f457600080fd5b50610408610403366004613d1d565b61105e565b604051610217929190614d96565b34801561042257600080fd5b50610275610431366004613dbb565b6110e0565b34801561044257600080fd5b50610275610451366004613d1d565b6110ee565b34801561046257600080fd5b506104766104713660046140a1565b61111c565b60405161021793929190614de1565b34801561049157600080fd5b506102406104a0366004613d1d565b6111a4565b6103136104b3366004613d39565b611215565b3480156104c457600080fd5b506102086104d3366004613d39565b6116f2565b3480156104e457600080fd5b506102756104f3366004614177565b611728565b34801561050457600080fd5b50610275610513366004613d1d565b611772565b34801561052457600080fd5b50610538610533366004613d39565b6117b8565b6040805160079390930b8352901515602083015201610217565b34801561055e57600080fd5b5061020861056d366004613d39565b6118aa565b34801561057e57600080fd5b5061059261058d366004613d1d565b6118e0565b604051610217929190614d82565b6103136105ae366004613d1d565b6119ef565b3480156105bf57600080fd5b506102756105ce366004613e94565b611dda565b3480156105df57600080fd5b506102756105ee366004613e16565b611e24565b3480156105ff57600080fd5b5061053861060e366004613d39565b611e31565b34801561061f57600080fd5b5061063361062e366004613d1d565b611efc565b604051610217929190614dc8565b34801561064d57600080fd5b5061027561065c366004613d39565b611f71565b34801561066d57600080fd5b5061027561067c366004613e94565b611f7d565b34801561068d57600080fd5b5061027561069c366004613e55565b611f8a565b604051638f8d7f9960e01b81526001600160a01b038084166004830152821660248201526000903090638f8d7f99906044015b602060405180830381600087803b1580156106ee57600080fd5b505af1158015610702573d6000803e3d6000fd5b505050506040513d601f19601f8201168201806040525081019061072691906145d4565b604051600782900b81529091506000805160206153048339815191529060200160405180910390a1600781900b60161461075f57600080fd5b92915050565b60008061077385858561218b565b60405182815291935091506000805160206153048339815191529060200160405180910390a1601682146107a657600080fd5b60405181151581527e1c2e72360171244b3bb8cc8ddd767820edf37138ad6f129fb3574b407c307d906020015b60405180910390a1935093915050565b60008060006101676001600160a01b03166318370d3460e01b868660405160240161080f929190614bd1565b60408051601f198184030181529181526020820180516001600160e01b03166001600160e01b031990941693909317909252905161084d9190614b98565b6000604051808303816000865af19150503d806000811461088a576040519150601f19603f3d011682016040523d82523d6000602084013e61088f565b606091505b5091509150816108a05760156108b4565b808060200190518101906108b491906141e6565b60030b95945050505050565b6000806108cd8484612271565b60405182815291935091506000805160206153048339815191529060200160405180910390a16016821461090057600080fd5b6040516001600160a01b03821681527fc2c78c7c31baf14949e75c51df12be56edb9af523cf82839c2869bbcf13b3ecb906020015b60405180910390a19250929050565b60405163af99c63360e01b81526001600160a01b03808416600483015282166024820152600090309063af99c633906044016106d4565b6040516001600160a01b03821660248201526000908190819061016790633b3bff0f60e01b906044015b60408051601f198184030181529181526020820180516001600160e01b03166001600160e01b03199094169390931790925290516109e39190614b98565b6000604051808303816000865af19150503d8060008114610a20576040519150601f19603f3d011682016040523d82523d6000602084013e610a25565b606091505b509150915081610a36576015610a4a565b80806020019051810190610a4a91906141e6565b60030b949350505050565b60408051600480825260a08201909252600091816020015b610a756131f9565b815260200190600190039081610a6d579050509050610aa860006006600060405180602001604052806000815250612338565b81600081518110610ac957634e487b7160e01b600052603260045260246000fd5b6020026020010181905250610af0600160006040518060200160405280600081525061236f565b81600181518110610b1157634e487b7160e01b600052603260045260246000fd5b6020026020010181905250610b38600260006040518060200160405280600081525061236f565b81600281518110610b5957634e487b7160e01b600052603260045260246000fd5b6020026020010181905250610b80600360006040518060200160405280600081525061236f565b81600381518110610ba157634e487b7160e01b600052603260045260246000fd5b602002602001018190525060006040518060600160405280600063ffffffff168152602001846001600160a01b03168152602001627a120063ffffffff168152509050600060405180610120016040528060028054610bff90615224565b80601f0160208091040260200160405190810160405280929190818152602001828054610c2b90615224565b8015610c785780601f10610c4d57610100808354040283529160200191610c78565b820191906000526020600020905b815481529060010190602001808311610c5b57829003601f168201915b5050505050815260200160038054610c8f90615224565b80601f0160208091040260200160405190810160405280929190818152602001828054610cbb90615224565b8015610d085780601f10610cdd57610100808354040283529160200191610d08565b820191906000526020600020905b815481529060010190602001808311610ceb57829003601f168201915b50505050508152602001856001600160a01b0316815260200160048054610d2e90615224565b80601f0160208091040260200160405190810160405280929190818152602001828054610d5a90615224565b8015610da75780601f10610d7c57610100808354040283529160200191610da7565b820191906000526020600020905b815481529060010190602001808311610d8a57829003601f168201915b505050918352505060016020820152600554600160401b8104600790810b900b6040830152600160a01b810460ff16151560608301526080820186905260a09091018490529091506000908190610e179084906001600160401b03811690600160801b900463ffffffff166123a4565b909250905060168214610e2957600080fd5b6040516001600160a01b03821681527f7bb17726df1f3adee8aa00ba8e8bc5d6f182af3bbf77604639cb7f008dd3b4ed9060200160405180910390a1505050505050565b6000610e7b858585856124d2565b905060008051602061530483398151915281604051610e9c91815260200190565b60405180910390a160168114610eb157600080fd5b949350505050565b6000610ec3613218565b610ecd84846125c9565b60405182815291935091506000805160206153048339815191529060200160405180910390a160168214610f0057600080fd5b7fd010ef68d3ac3e07c14bed496400730a484fd17c48a4d373cbc4722a56540def816040516109359190614f1d565b60008060006101676001600160a01b031663593d6e8260e01b868660405160240161080f929190614bb4565b600080610f698585856126a3565b60405182815291935091506000805160206153048339815191529060200160405180910390a160168214610f9c57600080fd5b6040518181527f25b6684a7e8fe1b676e9c39c8dd65034fbafea906d3bdfd97bf748b7b55e14c8906020016107d3565b60006060806060610fdc85612776565b604051600785900b8152939750919550935091506000805160206153048339815191529060200160405180910390a1600784900b60161461101c57600080fd5b7f2efc8334b040613a552197fe34283d6ca2909c8ffae393e128424931f20c69b383838360405161104f93929190614c76565b60405180910390a19193509193565b6000611068613253565b6110718361285d565b60405182815291935091506000805160206153048339815191529060200160405180910390a1601682146110a457600080fd5b7fea9419ffbaa766adf982c4c9864330eee1d848eff36c79e510e7e589c8bb265f816040516110d39190614e5f565b60405180910390a1915091565b6000610e7b8585858561292d565b6040516001600160a01b03821660248201526000908190819061016790631f106b4b60e21b906044016109a5565b600080606061112c868686612975565b60405183815292955090935091506000805160206153048339815191529060200160405180910390a16016831461116257600080fd5b7feff23992f47b3c101679f8b4dc9d3e242c903909dba4a453f2b2341ad463b0e28282604051611193929190614f43565b60405180910390a193509350939050565b6000806111b083612a73565b60405182815291935091506000805160206153048339815191529060200160405180910390a1601682146111e357600080fd5b60405181151581527f9ee19e13dfa1ba8db2502e15ff56dbecdeb0e0473323fb195473ce648030a2cd906020016110d3565b604080516001808252818301909252600091816020015b6112346131f9565b81526020019060019003908161122c579050509050611266600080600060405180602001604052806000815250612338565b8160008151811061128757634e487b7160e01b600052603260045260246000fd5b602002602001018190525060006040518060600160405280600063ffffffff168152602001856001600160a01b03168152602001627a120063ffffffff1681525090506000604051806101200160405280600280546112e590615224565b80601f016020809104026020016040519081016040528092919081815260200182805461131190615224565b801561135e5780601f106113335761010080835404028352916020019161135e565b820191906000526020600020905b81548152906001019060200180831161134157829003601f168201915b505050505081526020016003805461137590615224565b80601f01602080910402602001604051908101604052809291908181526020018280546113a190615224565b80156113ee5780601f106113c3576101008083540402835291602001916113ee565b820191906000526020600020905b8154815290600101906020018083116113d157829003601f168201915b50505050508152602001866001600160a01b031681526020016004805461141490615224565b80601f016020809104026020016040519081016040528092919081815260200182805461144090615224565b801561148d5780601f106114625761010080835404028352916020019161148d565b820191906000526020600020905b81548152906001019060200180831161147057829003601f168201915b5050509183525050600160208201819052600554600160401b9004600790810b900b6040808401919091526000606084018190526080840188905260a09093018690528051828152808201909152929350909190816020015b6040805160a0810182526000808252602080830182905292820181905260608201819052608082015282526000199092019101816114e65750506040805160a081018252600181526001600160a01b0388811660208301526000928201839052606082018390528916608082015282519293509183919061157757634e487b7160e01b600052603260045260246000fd5b6020908102919091010152604080516001808252818301909252600091816020015b6040805160c08101825260008082526020808301829052928201819052606082018190526080820181905260a082015282526000199092019101816115995750506040805160c0810182526004815260056020820152600a91810191909152601e60608201526000608082018190526001600160a01b038a1660a08301528251929350909183919061163b57634e487b7160e01b600052603260045260246000fd5b602090810291909101015260055460009081906116739086906001600160401b03811690600160801b900463ffffffff168787612b47565b915091506000805160206153048339815191528260405161169691815260200190565b60405180910390a1601682146116ab57600080fd5b6040516001600160a01b03821681527f7bb17726df1f3adee8aa00ba8e8bc5d6f182af3bbf77604639cb7f008dd3b4ed9060200160405180910390a1505050505050505050565b6040516001600160a01b038381166024830152821660448201526000908190819061016790638f8d7f9960e01b9060640161080f565b600061173c6117378385615090565b612c7b565b90506000805160206153048339815191528160405161175d91815260200190565b60405180910390a16016811461075f57600080fd5b600061177d82612ca5565b90506000805160206153048339815191528160405161179e91815260200190565b60405180910390a1601681146117b357600080fd5b919050565b604051633cb0c7fd60e21b81526001600160a01b038084166004830152821660248201526000908190309063f2c31ff4906044016040805180830381600087803b15801561180557600080fd5b505af1158015611819573d6000803e3d6000fd5b505050506040513d601f19601f8201168201806040525081019061183d91906145f0565b604051600783900b815291935091506000805160206153048339815191529060200160405180910390a1600782900b60161461187857600080fd5b60405181151581527fd24dda6928587354b65aa1a18c2eaf249bef7e5bafd2a71fac71d286f76f957f90602001610935565b6040516001600160a01b03838116602483015282166044820152600090819081906101679063af99c63360e01b9060640161080f565b604080516060810182526000808252602080830182905282840182905283516001600160a01b038616602480830191909152855180830390910181526044909101855290810180516001600160e01b0316631ac299b760e31b1790529251909283918291610167916119529190614b98565b6000604051808303816000865af19150503d806000811461198f576040519150601f19603f3d011682016040523d82523d6000602084013e611994565b606091505b50915091506119bc604080516060810182526000808252602082018190529181019190915290565b826119c9576015816119dd565b818060200190518101906119dd91906142ea565b60039190910b97909650945050505050565b60408051600580825260c08201909252600091816020015b611a0f6131f9565b815260200190600190039081611a07579050509050611a4260006006600060405180602001604052806000815250612338565b81600081518110611a6357634e487b7160e01b600052603260045260246000fd5b6020026020010181905250611a8a600160006040518060200160405280600081525061236f565b81600181518110611aab57634e487b7160e01b600052603260045260246000fd5b6020026020010181905250611ad2600260006040518060200160405280600081525061236f565b81600281518110611af357634e487b7160e01b600052603260045260246000fd5b6020026020010181905250611b1a600460006040518060200160405280600081525061236f565b81600381518110611b3b57634e487b7160e01b600052603260045260246000fd5b6020026020010181905250611b62600360006040518060200160405280600081525061236f565b81600481518110611b8357634e487b7160e01b600052603260045260246000fd5b602002602001018190525060006040518060600160405280600063ffffffff168152602001846001600160a01b03168152602001627a120063ffffffff168152509050600060405180610120016040528060028054611be190615224565b80601f0160208091040260200160405190810160405280929190818152602001828054611c0d90615224565b8015611c5a5780601f10611c2f57610100808354040283529160200191611c5a565b820191906000526020600020905b815481529060010190602001808311611c3d57829003601f168201915b5050505050815260200160038054611c7190615224565b80601f0160208091040260200160405190810160405280929190818152602001828054611c9d90615224565b8015611cea5780601f10611cbf57610100808354040283529160200191611cea565b820191906000526020600020905b815481529060010190602001808311611ccd57829003601f168201915b50505050508152602001856001600160a01b0316815260200160048054611d1090615224565b80601f0160208091040260200160405190810160405280929190818152602001828054611d3c90615224565b8015611d895780601f10611d5e57610100808354040283529160200191611d89565b820191906000526020600020905b815481529060010190602001808311611d6c57829003601f168201915b505050918352505060016020820152600554600160401b8104600790810b900b6040830152600160a01b900460ff16151560608201526080810185905260a0018390529050600080610e1783612cd3565b6000611de7848484612dbd565b905060008051602061530483398151915281604051611e0891815260200190565b60405180910390a160168114611e1d57600080fd5b9392505050565b6000611de7848484612ea8565b604080516001600160a01b038481166024830152831660448083019190915282518083039091018152606490910182526020810180516001600160e01b0316633cb0c7fd60e21b179052905160009182918291829161016791611e9391614b98565b6000604051808303816000865af19150503d8060008114611ed0576040519150601f19603f3d011682016040523d82523d6000602084013e611ed5565b606091505b509150915081611ee857601560006119dd565b808060200190518101906119dd91906142bf565b6000611f06613273565b611f0f83612ee6565b60405182815291935091506000805160206153048339815191529060200160405180910390a160168214611f4257600080fd5b7fbdb65f8c2a2e9a3a37ea49e903836883766a922e4ce9b21f684035e304962d41816040516110d39190614f30565b600061173c8383612fb6565b6000611de7848484612fec565b60408051600080825260208201909252819081611fcf565b6040805160608101825260008082526020808301829052928201528252600019909201910181611fa25790505b50905060006040518060400160405280336001600160a01b0316815260200185611ff89061525f565b600790810b9091526040805180820182526001600160a01b038a1681529187900b602083015280516002808252606082019092529293509091600091816020015b6040805180820190915260008082526020820152815260200190600190039081612039579050509050828160008151811061208457634e487b7160e01b600052603260045260246000fd5b602002602001018190525081816001815181106120b157634e487b7160e01b600052603260045260246000fd5b602090810291909101810191909152604080516060810182526001600160a01b038a16815291820183905281810186905280516001808252818301909252600091816020015b612124604051806060016040528060006001600160a01b0316815260200160608152602001606081525090565b8152602001906001900390816120f7579050509050818160008151811061215b57634e487b7160e01b600052603260045260246000fd5b602002602001018190525061216f81612c7b565b96506016871461217e57600080fd5b5050505050509392505050565b604080516001600160a01b0385811660248301528481166044830152831660648083019190915282518083039091018152608490910182526020810180516001600160e01b031663f49f40db60e01b1790529051600091829182918291610167916121f591614b98565b6000604051808303816000865af19150503d8060008114612232576040519150601f19603f3d011682016040523d82523d6000602084013e612237565b606091505b50915091508161224a576015600061225e565b8080602001905181019061225e91906142bf565b60039190910b9890975095505050505050565b604080516001600160a01b0384166024820152604480820184905282518083039091018152606490910182526020810180516001600160e01b03166304c791b360e11b1790529051600091829182918291610167916122cf91614b98565b6000604051808303816000865af19150503d806000811461230c576040519150601f19603f3d011682016040523d82523d6000602084013e612311565b606091505b50915091508161232457601560006119dd565b808060200190518101906119dd9190614200565b6123406131f9565b60405180604001604052806123558787613029565b81526020016123648585613080565b905295945050505050565b6123776131f9565b604051806040016040528061238b8661319e565b815260200161239a8585613080565b9052949350505050565b600080848061010001516000015163ffffffff1660001480156123d457506101008101516040015163ffffffff16155b156123ea576101008101516276a7006040909101525b6000806101676001600160a01b03163463c23baeb660e01b8a8a8a60405160240161241793929190614e85565b60408051601f198184030181529181526020820180516001600160e01b03166001600160e01b03199094169390931790925290516124559190614b98565b60006040518083038185875af1925050503d8060008114612492576040519150601f19603f3d011682016040523d82523d6000602084013e612497565b606091505b5091509150816124aa57601560006124be565b808060200190518101906124be9190614200565b60039190910b999098509650505050505050565b6040516001600160a01b038581166024830152848116604483015283166064820152600782900b6084820152600090819081906101679063eca3691760e01b9060a4015b60408051601f198184030181529181526020820180516001600160e01b03166001600160e01b03199094169390931790925290516125549190614b98565b6000604051808303816000865af19150503d8060008114612591576040519150601f19603f3d011682016040523d82523d6000602084013e612596565b606091505b5091509150816125a75760156125bb565b808060200190518101906125bb91906141e6565b60030b979650505050505050565b60006125d3613218565b604080516001600160a01b0386166024820152600785900b60448083019190915282518083039091018152606490910182526020810180516001600160e01b031663050fc3b560e31b179052905160009182916101679161263391614b98565b6000604051808303816000865af19150503d8060008114612670576040519150601f19603f3d011682016040523d82523d6000602084013e612675565b606091505b5091509150612682613218565b8261268f5760158161225e565b8180602001905181019061225e91906143bb565b604080516001600160a01b0385811660248301528481166044830152831660648083019190915282518083039091018152608490910182526020810180516001600160e01b031663927da10560e01b17905290516000918291829182916101679161270d91614b98565b6000604051808303816000865af19150503d806000811461274a576040519150601f19603f3d011682016040523d82523d6000602084013e61274f565b606091505b509150915081612762576015600061225e565b8080602001905181019061225e91906144e8565b604080516001600160a01b03831660248083019190915282518083039091018152604490910182526020810180516001600160e01b0316630573b08d60e51b17905290516000916060918291829185918291610167916127d591614b98565b6000604051808303816000865af19150503d8060008114612812576040519150601f19603f3d011682016040523d82523d6000602084013e612817565b606091505b5091509150606080606084612830576015838383612844565b83806020019051810190612844919061422b565b60039390930b9d919c509a509098509650505050505050565b6000612867613253565b604080516001600160a01b03851660248083019190915282518083039091018152604490910182526020810180516001600160e01b0316633f28a19b60e01b17905290516000918291610167916128bd91614b98565b6000604051808303816000865af19150503d80600081146128fa576040519150601f19603f3d011682016040523d82523d6000602084013e6128ff565b606091505b509150915061290c613253565b82612919576015816119dd565b818060200190518101906119dd9190614314565b6040516001600160a01b038581166024830152848116604483015283166064820152600782900b60848201526000908190819061016790635cfc901160e01b9060a401612516565b60008060606000806101676001600160a01b031663278e0b8860e01b8989896040516024016129a693929190614bf5565b60408051601f198184030181529181526020820180516001600160e01b03166001600160e01b03199094169390931790925290516129e49190614b98565b6000604051808303816000865af19150503d8060008114612a21576040519150601f19603f3d011682016040523d82523d6000602084013e612a26565b606091505b509150915081612a49576040805160008082526020820190925260159190612a5d565b80806020019051810190612a5d9190614513565b60039290920b9a90995090975095505050505050565b604080516001600160a01b03831660248083019190915282518083039091018152604490910182526020810180516001600160e01b031663335e04c160e01b179052905160009182918291829161016791612acd91614b98565b6000604051808303816000865af19150503d8060008114612b0a576040519150601f19603f3d011682016040523d82523d6000602084013e612b0f565b606091505b509150915081612b225760156000612b36565b80806020019051810190612b3691906142bf565b60039190910b969095509350505050565b600080868061010001516000015163ffffffff166000148015612b7757506101008101516040015163ffffffff16155b15612b8d576101008101516276a7006040909101525b6000806101676001600160a01b03163463b937581a60e01b8c8c8c8c8c604051602401612bbe959493929190614ebd565b60408051601f198184030181529181526020820180516001600160e01b03166001600160e01b0319909416939093179092529051612bfc9190614b98565b60006040518083038185875af1925050503d8060008114612c39576040519150601f19603f3d011682016040523d82523d6000602084013e612c3e565b606091505b509150915081612c515760156000612c65565b80806020019051810190612c659190614200565b60039190910b9b909a5098505050505050505050565b60008060006101676001600160a01b031663189a554c60e01b856040516024016109a59190614caf565b6040516001600160a01b03821660248201526000908190819061016790637834fb8960e11b906044016109a5565b600080828061010001516000015163ffffffff166000148015612d0357506101008101516040015163ffffffff16155b15612d19576101008101516276a7006040909101525b6000806101676001600160a01b031634639c89bb3560e01b88604051602401612d429190614e72565b60408051601f198184030181529181526020820180516001600160e01b03166001600160e01b0319909416939093179092529051612d809190614b98565b60006040518083038185875af1925050503d806000811461230c576040519150601f19603f3d011682016040523d82523d6000602084013e612311565b6040516001600160a01b038481166024830152831660448201526064810182905260009081908190610167906307336aaf60e41b906084015b60408051601f198184030181529181526020820180516001600160e01b03166001600160e01b0319909416939093179092529051612e349190614b98565b6000604051808303816000865af19150503d8060008114612e71576040519150601f19603f3d011682016040523d82523d6000602084013e612e76565b606091505b509150915081612e87576015612e9b565b80806020019051810190612e9b91906141e6565b60030b9695505050505050565b6040516001600160a01b0384811660248301528316604482015281151560648201526000908190819061016790631b3b02e560e11b90608401612df6565b6000612ef0613273565b604080516001600160a01b03851660248083019190915282518083039091018152604490910182526020810180516001600160e01b0316631f69565f60e01b1790529051600091829161016791612f4691614b98565b6000604051808303816000865af19150503d8060008114612f83576040519150601f19603f3d011682016040523d82523d6000602084013e612f88565b606091505b5091509150612f95613273565b82612fa2576015816119dd565b818060200190518101906119dd919061449d565b6040516001600160a01b03838116602483015282166044820152600090819081906101679063248a35ef60e11b9060640161080f565b6040516001600160a01b0384811660248301528316604482015260648101829052600090819081906101679063e1f21c6760e01b90608401612df6565b600061305b83600681111561304e57634e487b7160e01b600052602160045260246000fd5b600160ff9091161b821790565b9050611e1d82600681111561304e57634e487b7160e01b600052602160045260246000fd5b6130886132d4565b60008360048111156130aa57634e487b7160e01b600052602160045260246000fd5b14156130b9576001815261075f565b60018360048111156130db57634e487b7160e01b600052602160045260246000fd5b14156130f7576000546001600160a01b0316602082015261075f565b600283600481111561311957634e487b7160e01b600052602160045260246000fd5b141561312b576040810182905261075f565b600383600481111561314d57634e487b7160e01b600052602160045260246000fd5b141561315f576060810182905261075f565b600483600481111561318157634e487b7160e01b600052602160045260246000fd5b141561075f576000546001600160a01b0316608082015292915050565b6000600160008360068111156131c457634e487b7160e01b600052602160045260246000fd5b60068111156131e357634e487b7160e01b600052602160045260246000fd5b8152602001908152602001600020549050919050565b6040518060400160405280600081526020016132136132d4565b905290565b6040518060c0016040528061322b613273565b8152600060208201819052604082018190526060808301829052608083015260a09091015290565b6040518060400160405280613266613273565b8152600060209091015290565b604051806101200160405280613287613317565b815260200160006001600160401b03168152602001600015158152602001600015158152602001600015158152602001606081526020016060815260200160608152602001606081525090565b6040518060a0016040528060001515815260200160006001600160a01b03168152602001606081526020016060815260200160006001600160a01b031681525090565b604051806101200160405280606081526020016060815260200160006001600160a01b0316815260200160608152602001600015158152602001600060070b815260200160001515815260200160608152602001613213604080516060810182526000808252602082018190529181019190915290565b80356117b3816152a7565b80516117b3816152a7565b600082601f8301126133b4578081fd5b815160206133c96133c483615046565b615016565b8281528181019085830160a0808602880185018910156133e7578687fd5b865b868110156134705781838b0312156133ff578788fd5b613407614f65565b8351613412816152dc565b815283870151613421816152a7565b81880152604084810151613434816152bf565b90820152606084810151613447816152bf565b9082015260808481015161345a816152a7565b90820152855293850193918101916001016133e9565b509198975050505050505050565b600082601f83011261348e578081fd5b8151602061349e6133c483615046565b8281528181019085830160c0808602880185018910156134bc578687fd5b865b868110156134705781838b0312156134d4578788fd5b6134dc614f8d565b83516134e7816152dc565b8152838701516134f6816152dc565b81880152604084810151613509816152dc565b9082015260608481015161351c816152dc565b9082015260808481015161352f816152bf565b9082015260a084810151613542816152a7565b90820152855293850193918101916001016134be565b600082601f830112613568578081fd5b813560206135786133c483615046565b82815281810190858301606080860288018501891015613596578687fd5b865b868110156134705781838b0312156135ae578788fd5b6135b6614faf565b83356135c1816152a7565b8152838701356135d0816152a7565b818801526040848101356135e3816152cd565b9082015285529385019391810191600101613598565b600082601f830112613609578081fd5b815160206136196133c483615046565b8281528181019085830160c080860288018501891015613637578687fd5b865b868110156134705781838b03121561364f578788fd5b613657614f8d565b8351613662816152dc565b815283870151613671816152dc565b81880152604084810151613684816152dc565b90820152606084810151613697816152a7565b908201526080848101516136aa816152bf565b9082015260a0848101516136bd816152a7565b9082015285529385019391810191600101613639565b600082601f8301126136e3578081fd5b813560206136f36133c483615046565b80838252828201915082860187848660051b8901011115613712578586fd5b855b8581101561381e5781356001600160401b0380821115613732578889fd5b90890190601f196040838d038201121561374a57898afd5b613752614fd1565b888401358152604084013583811115613769578b8cfd5b939093019260a0848e038301121561377f578a8bfd5b613787614f65565b915088840135613796816152bf565b82526137a46040850161338e565b898301526060840135838111156137b9578b8cfd5b6137c78e8b8388010161398c565b6040840152506080840135838111156137de578b8cfd5b6137ec8e8b8388010161398c565b6060840152506137fe60a0850161338e565b608083015280890191909152865250509284019290840190600101613714565b5090979650505050505050565b600082601f83011261383b578081fd5b8151602061384b6133c483615046565b80838252828201915082860187848660051b890101111561386a578586fd5b855b8581101561381e5781516001600160401b038082111561388a578889fd5b90890190601f196040838d03820112156138a257898afd5b6138aa614fd1565b8884015181526040840151838111156138c1578b8cfd5b939093019260a0848e03830112156138d7578a8bfd5b6138df614f65565b9150888401516138ee816152bf565b82526138fc60408501613399565b89830152606084015183811115613911578b8cfd5b61391f8e8b838801016139d8565b604084015250608084015183811115613936578b8cfd5b6139448e8b838801016139d8565b60608401525061395660a08501613399565b60808301528089019190915286525050928401929084019060010161386c565b80356117b3816152bf565b80516117b3816152bf565b600082601f83011261399c578081fd5b81356139aa6133c482615069565b8181528460208386010111156139be578283fd5b816020850160208301379081016020019190915292915050565b600082601f8301126139e8578081fd5b81516139f66133c482615069565b818152846020838601011115613a0a578283fd5b610eb18260208301602087016151f4565b8051600381900b81146117b357600080fd5b80356117b3816152cd565b80516117b3816152cd565b600060608284031215613a54578081fd5b613a5c614faf565b90508135613a69816152dc565b81526020820135613a79816152a7565b60208201526040820135613a8c816152dc565b604082015292915050565b600060608284031215613aa8578081fd5b613ab0614faf565b90508151613abd816152dc565b81526020820151613acd816152a7565b60208201526040820151613a8c816152dc565b60006101608284031215613af2578081fd5b613afa614ff3565b905081516001600160401b0380821115613b1357600080fd5b613b1f858386016139d8565b83526020840151915080821115613b3557600080fd5b613b41858386016139d8565b6020840152613b5260408501613399565b60408401526060840151915080821115613b6b57600080fd5b613b77858386016139d8565b6060840152613b8860808501613981565b6080840152613b9960a08501613a38565b60a0840152613baa60c08501613981565b60c084015260e0840151915080821115613bc357600080fd5b50613bd08482850161382b565b60e083015250610100613be584828501613a97565b9082015292915050565b60006101208284031215613c01578081fd5b613c09614ff3565b905081516001600160401b0380821115613c2257600080fd5b613c2e85838601613ae0565b8352613c3c60208501613d12565b6020840152613c4d60408501613981565b6040840152613c5e60608501613981565b6060840152613c6f60808501613981565b608084015260a0840151915080821115613c8857600080fd5b613c94858386016133a4565b60a084015260c0840151915080821115613cad57600080fd5b613cb98583860161347e565b60c084015260e0840151915080821115613cd257600080fd5b613cde858386016135f9565b60e084015261010091508184015181811115613cf957600080fd5b613d05868287016139d8565b8385015250505092915050565b80516117b3816152ee565b600060208284031215613d2e578081fd5b8135611e1d816152a7565b60008060408385031215613d4b578081fd5b8235613d56816152a7565b91506020830135613d66816152a7565b809150509250929050565b600080600060608486031215613d85578081fd5b8335613d90816152a7565b92506020840135613da0816152a7565b91506040840135613db0816152a7565b809150509250925092565b60008060008060808587031215613dd0578182fd5b8435613ddb816152a7565b93506020850135613deb816152a7565b92506040850135613dfb816152a7565b91506060850135613e0b816152cd565b939692955090935050565b600080600060608486031215613e2a578081fd5b8335613e35816152a7565b92506020840135613e45816152a7565b91506040840135613db0816152bf565b600080600060608486031215613e69578081fd5b8335613e74816152a7565b92506020840135613e84816152a7565b91506040840135613db0816152cd565b600080600060608486031215613ea8578081fd5b8335613eb3816152a7565b92506020840135613ec3816152a7565b929592945050506040919091013590565b60008060408385031215613ee6578182fd5b8235613ef1816152a7565b91506020830135613d66816152cd565b60008060808385031215613f13578182fd5b8235613f1e816152a7565b9150613f2d8460208501613a43565b90509250929050565b60008060408385031215613f48578182fd5b8235613f53816152a7565b915060208301356001600160401b0380821115613f6e578283fd5b908401906101608287031215613f82578283fd5b613f8a614ff3565b823582811115613f98578485fd5b613fa48882860161398c565b825250602083013582811115613fb8578485fd5b613fc48882860161398c565b602083015250613fd66040840161338e565b6040820152606083013582811115613fec578485fd5b613ff88882860161398c565b60608301525061400a60808401613976565b608082015261401b60a08401613a2d565b60a082015261402c60c08401613976565b60c082015260e083013582811115614042578485fd5b61404e888286016136d3565b60e083015250610100915061406587838501613a43565b828201528093505050509250929050565b60008060408385031215614088578182fd5b8235614093816152a7565b946020939093013593505050565b6000806000606084860312156140b5578081fd5b83356140c0816152a7565b92506020848101356140d1816152ee565b925060408501356001600160401b03808211156140ec578384fd5b818701915087601f8301126140ff578384fd5b813561410d6133c482615046565b8082825285820191508585018b878560051b880101111561412c578788fd5b875b848110156141655781358681111561414457898afd5b6141528e8a838b010161398c565b855250928701929087019060010161412e565b50508096505050505050509250925092565b60008060208385031215614189578182fd5b82356001600160401b038082111561419f578384fd5b818501915085601f8301126141b2578384fd5b8135818111156141c0578485fd5b8660208260051b85010111156141d4578485fd5b60209290920196919550909350505050565b6000602082840312156141f7578081fd5b611e1d82613a1b565b60008060408385031215614212578182fd5b61421b83613a1b565b91506020830151613d66816152a7565b60008060008060808587031215614240578182fd5b61424985613a1b565b935060208501516001600160401b0380821115614264578384fd5b614270888389016133a4565b94506040870151915080821115614285578384fd5b6142918883890161347e565b935060608701519150808211156142a6578283fd5b506142b3878288016135f9565b91505092959194509250565b600080604083850312156142d1578182fd5b6142da83613a1b565b91506020830151613d66816152bf565b600080608083850312156142fc578182fd5b61430583613a1b565b9150613f2d8460208501613a97565b60008060408385031215614326578182fd5b61432f83613a1b565b915060208301516001600160401b038082111561434a578283fd5b908401906040828703121561435d578283fd5b60405160408101818110838211171561437857614378615291565b604052825182811115614389578485fd5b61439588828601613bef565b825250602083015192506143a8836152dc565b8260208201528093505050509250929050565b600080604083850312156143cd578182fd5b6143d683613a1b565b915060208301516001600160401b03808211156143f1578283fd5b9084019060c08287031215614404578283fd5b61440c614f8d565b82518281111561441a578485fd5b61442688828601613bef565b82525061443560208401613a38565b602082015261444660408401613399565b604082015261445760608401613a38565b606082015260808301518281111561446d578485fd5b614479888286016139d8565b60808301525061448b60a08401613399565b60a08201528093505050509250929050565b600080604083850312156144af578182fd5b6144b883613a1b565b915060208301516001600160401b038111156144d2578182fd5b6144de85828601613bef565b9150509250929050565b600080604083850312156144fa578182fd5b61450383613a1b565b9150602083015190509250929050565b600080600060608486031215614527578081fd5b61453084613a1b565b9250602080850151614541816152ee565b60408601519093506001600160401b0381111561455c578283fd5b8501601f8101871361456c578283fd5b805161457a6133c482615046565b8082825284820191508484018a868560051b8701011115614599578687fd5b8694505b838510156145c45780516145b0816152cd565b83526001949094019391850191850161459d565b5080955050505050509250925092565b6000602082840312156145e5578081fd5b8151611e1d816152cd565b60008060408385031215614602578182fd5b825161460d816152cd565b6020840151909250613d66816152bf565b6000815180845260208085019450808401835b8381101561465057815160070b87529582019590820190600101614631565b509495945050505050565b6000815180845260208085019450808401835b83811015614650578151805163ffffffff168852838101516001600160a01b03908116858a01526040808301511515908a01526060808301511515908a0152608091820151169088015260a0909601959082019060010161466e565b6000815180845260208085019450808401835b83811015614650578151805163ffffffff9081168952848201518116858a01526040808301518216908a01526060808301519091169089015260808082015115159089015260a0908101516001600160a01b03169088015260c090960195908201906001016146dd565b6000815180845260208085019450808401835b8381101561465057815180516001600160a01b03908116895284820151168489015260409081015160070b908801526060909601959082019060010161475a565b6000815180845260208085019450808401835b83811015614650578151805163ffffffff9081168952848201518116858a0152604080830151909116908901526060808201516001600160a01b03908116918a01919091526080808301511515908a015260a091820151169088015260c090960195908201906001016147ae565b600081518084526020808501808196508360051b81019150828601855b858110156148d157828403895281516040815186528682015191508087870152815115158187015286820151606060018060a01b03808316828a015283850151935060a09250608083818b015261489360e08b01866148de565b928601518a8403603f1901858c01529294506148af85846148de565b9501511660c09890980197909752505098850198935090840190600101614839565b5091979650505050505050565b600081518084526148f68160208601602086016151f4565b601f01601f19169290920160200192915050565b805163ffffffff90811683526020808301516001600160a01b03169084015260409182015116910152565b600081516040845261494a6040850182614ab8565b60209384015163ffffffff16949093019390935250919050565b6000610160825181855261497a828601826148de565b9150506020830151848203602086015261499482826148de565b91505060408301516149b160408601826001600160a01b03169052565b50606083015184820360608601526149c982826148de565b91505060808301516149df608086018215159052565b5060a08301516149f460a086018260070b9052565b5060c0830151614a0860c086018215159052565b5060e083015184820360e0860152614a20828261481c565b91505061010080840151614a368287018261490a565b5090949350505050565b6000815160c08452614a5560c0850182614ab8565b9050602083015160070b6020850152604083015160018060a01b038082166040870152606085015160070b6060870152608085015191508583036080870152614a9e83836148de565b92508060a08601511660a087015250508091505092915050565b60006101208251818552614ace82860182614964565b9150506020830151614aeb60208601826001600160401b03169052565b506040830151614aff604086018215159052565b506060830151614b13606086018215159052565b506080830151614b27608086018215159052565b5060a083015184820360a0860152614b3f828261465b565b91505060c083015184820360c0860152614b5982826146ca565b91505060e083015184820360e0860152614b73828261479b565b9150506101008084015185830382870152614b8e83826148de565b9695505050505050565b60008251614baa8184602087016151f4565b9190910192915050565b6001600160a01b038316815260808101611e1d602083018461490a565b6001600160a01b0383168152604060208201819052600090610eb190830184614964565b60006060820160018060a01b038616835260206001600160401b038616818501526060604085015281855180845260808601915060808160051b8701019350828701855b82811015614c6757607f19888703018452614c558683516148de565b95509284019290840190600101614c39565b50939998505050505050505050565b606081526000614c89606083018661465b565b8281036020840152614c9b81866146ca565b90508281036040840152614b8e818561479b565b60006020808301818452808551808352604092508286019150828160051b870101848801865b83811015614d7457888303603f19018552815180516001600160a01b0390811685528882015160608a870181905281519087018190526080870192918b0191908c905b80821015614d465783518051841686528d015160070b8d860152938b0193928c019260019190910190614d18565b50505050908701518482038589015290614d608183614747565b968901969450505090860190600101614cd5565b509098975050505050505050565b82815260808101611e1d602083018461490a565b828152604060208201526000610eb16040830184614935565b828152604060208201526000610eb16040830184614a40565b828152604060208201526000610eb16040830184614ab8565b8381526001600160401b0383166020820152606060408201526000614e09606083018461461e565b95945050505050565b8460070b8152608060208201526000614e2e608083018661465b565b8281036040840152614e4081866146ca565b90508281036060840152614e54818561479b565b979650505050505050565b602081526000611e1d6020830184614935565b602081526000611e1d6020830184614964565b606081526000614e986060830186614964565b90506001600160401b038416602083015263ffffffff83166040830152949350505050565b60a081526000614ed060a0830188614964565b6001600160401b038716602084015263ffffffff861660408401528281036060840152614efd818661465b565b90508281036080840152614f1181856146ca565b98975050505050505050565b602081526000611e1d6020830184614a40565b602081526000611e1d6020830184614ab8565b6001600160401b0383168152604060208201526000610eb1604083018461461e565b60405160a081016001600160401b0381118282101715614f8757614f87615291565b60405290565b60405160c081016001600160401b0381118282101715614f8757614f87615291565b604051606081016001600160401b0381118282101715614f8757614f87615291565b604080519081016001600160401b0381118282101715614f8757614f87615291565b60405161012081016001600160401b0381118282101715614f8757614f87615291565b604051601f8201601f191681016001600160401b038111828210171561503e5761503e615291565b604052919050565b60006001600160401b0382111561505f5761505f615291565b5060051b60200190565b60006001600160401b0382111561508257615082615291565b50601f01601f191660200190565b600061509e6133c484615046565b808482526020808301925084368760051b870111156150bb578485fd5b845b878110156151e85781356001600160401b03808211156150db578788fd5b8189019150606082360312156150ef578788fd5b6150f7614faf565b8235615102816152a7565b8152828601358281111561511457898afd5b830136601f82011261512457898afd5b80356151326133c482615046565b81815288810190838a0136600685901b86018c011115615150578d8efd5b8d94505b838510156151a557604080823603121561516c578e8ffd5b615174614fd1565b823561517f816152a7565b8152828d013561518e816152cd565b818e0152845260019590950194928b019201615154565b50848a015250604091505083810135838111156151c0578a8bfd5b6151cc36828701613558565b91830191909152508752505093820193908201906001016150bd565b50919695505050505050565b60005b8381101561520f5781810151838201526020016151f7565b8381111561521e576000848401525b50505050565b600181811c9082168061523857607f821691505b6020821081141561525957634e487b7160e01b600052602260045260246000fd5b50919050565b60008160070b677fffffffffffffff1981141561528a57634e487b7160e01b82526011600452602482fd5b9003919050565b634e487b7160e01b600052604160045260246000fd5b6001600160a01b03811681146152bc57600080fd5b50565b80151581146152bc57600080fd5b8060070b81146152bc57600080fd5b63ffffffff811681146152bc57600080fd5b6001600160401b03811681146152bc57600080fdfe90a5cf4cffe88b4edbb041cfc7a8a812c48a5ec30b84640fb37690875168e3aaa2646970667358221220fc98df4bdc473779a54729e94e21a536d942f1d326810060ef33466972be9a4564736f6c63430008040033",
  "linkReferences": {},
  "deployedLinkReferences": {}
}